{
	"contracts/storage/LibOwnableStorage.sol": {
		"OwnableStorage": {
			"abi": [
				{
					"anonymous": false,
					"inputs": [],
					"name": "SeTimestampExp",
					"type": "event"
				},
				{
					"anonymous": false,
					"inputs": [],
					"name": "SetGracePeriod",
					"type": "event"
				},
				{
					"anonymous": false,
					"inputs": [],
					"name": "SetNewOwner",
					"type": "event"
				},
				{
					"anonymous": false,
					"inputs": [],
					"name": "SetOwner",
					"type": "event"
				},
				{
					"inputs": [],
					"name": "getGracePeriod",
					"outputs": [
						{
							"internalType": "uint256",
							"name": "",
							"type": "uint256"
						}
					],
					"stateMutability": "view",
					"type": "function"
				},
				{
					"inputs": [],
					"name": "getNewOwner",
					"outputs": [
						{
							"internalType": "address",
							"name": "",
							"type": "address"
						}
					],
					"stateMutability": "view",
					"type": "function"
				},
				{
					"inputs": [],
					"name": "getOwner",
					"outputs": [
						{
							"internalType": "address",
							"name": "",
							"type": "address"
						}
					],
					"stateMutability": "view",
					"type": "function"
				},
				{
					"inputs": [],
					"name": "getTimestampExp",
					"outputs": [
						{
							"internalType": "uint256",
							"name": "",
							"type": "uint256"
						}
					],
					"stateMutability": "view",
					"type": "function"
				}
			],
			"devdoc": {
				"custom:version": "1.0.0",
				"details": "Логику смотри в модуле Ownable",
				"events": {
					"SeTimestampExp()": {
						"details": "Установлено новое значение timestampExp"
					},
					"SetGracePeriod()": {
						"details": "Установлено новое значение грейс периода"
					},
					"SetNewOwner()": {
						"details": "Установлено новое значение newOwner"
					},
					"SetOwner()": {
						"details": "Установлено новое значение newOwner"
					}
				},
				"kind": "dev",
				"methods": {
					"getOwner()": {
						"details": "геттеры"
					},
					"setGracePeriod(uint256)": {
						"details": "установка gracePeriod"
					},
					"setTimestampExp(uint256)": {
						"details": "установка timestampExp"
					},
					"setnewOwner(address)": {
						"details": "установка newOwner"
					},
					"setowner(address)": {
						"details": "установка owner"
					}
				},
				"stateVariables": {
					"SLOT": {
						"details": "Слот хранилища"
					}
				},
				"title": "OwnableStorage",
				"version": 1
			},
			"evm": {
				"assembly": "    /* \"contracts/storage/LibOwnableStorage.sol\":288:2664  library OwnableStorage {... */\n  dataSize(sub_0)\n  dataOffset(sub_0)\n  0x0b\n  dup3\n  dup3\n  dup3\n  codecopy\n  dup1\n  mload\n  0x00\n  byte\n  0x73\n  eq\n  tag_1\n  jumpi\n  mstore(0x00, 0x4e487b7100000000000000000000000000000000000000000000000000000000)\n  mstore(0x04, 0x00)\n  revert(0x00, 0x24)\ntag_1:\n  mstore(0x00, address)\n  0x73\n  dup2\n  mstore8\n  dup3\n  dup2\n  return\nstop\n\nsub_0: assembly {\n        /* \"contracts/storage/LibOwnableStorage.sol\":288:2664  library OwnableStorage {... */\n      eq(address, deployTimeAddress())\n      mstore(0x40, 0x80)\n      jumpi(tag_1, lt(calldatasize, 0x04))\n      shr(0xe0, calldataload(0x00))\n      dup1\n      0x893d20e8\n      gt\n      tag_10\n      jumpi\n      dup1\n      0x893d20e8\n      eq\n      tag_6\n      jumpi\n      dup1\n      0xdbd18388\n      eq\n      tag_7\n      jumpi\n      dup1\n      0xf2f65960\n      eq\n      tag_8\n      jumpi\n      dup1\n      0xfdb0afee\n      eq\n      tag_9\n      jumpi\n      jump(tag_1)\n    tag_10:\n      dup1\n      0x34b8160c\n      eq\n      tag_2\n      jumpi\n      dup1\n      0x3e2fe149\n      eq\n      tag_3\n      jumpi\n      dup1\n      0x592bd705\n      eq\n      tag_4\n      jumpi\n      dup1\n      0x61a9ab76\n      eq\n      tag_5\n      jumpi\n    tag_1:\n      revert(0x00, 0x00)\n        /* \"contracts/storage/LibOwnableStorage.sol\":1960:2088  function setnewOwner(address _newOwner) external{... */\n    tag_2:\n      dup2\n      dup1\n      iszero\n      tag_11\n      jumpi\n      revert(0x00, 0x00)\n    tag_11:\n      pop\n      tag_12\n      0x04\n      dup1\n      calldatasize\n      sub\n      dup2\n      add\n      swap1\n      tag_13\n      swap2\n      swap1\n      tag_14\n      jump\t// in\n    tag_13:\n      tag_15\n      jump\t// in\n    tag_12:\n      stop\n        /* \"contracts/storage/LibOwnableStorage.sol\":1476:1564  function getNewOwner()external view returns(address){return _getStorage(SLOT).newOwner;} */\n    tag_3:\n      tag_16\n      tag_17\n      jump\t// in\n    tag_16:\n      mload(0x40)\n      tag_18\n      swap2\n      swap1\n      tag_19\n      jump\t// in\n    tag_18:\n      mload(0x40)\n      dup1\n      swap2\n      sub\n      swap1\n      return\n        /* \"contracts/storage/LibOwnableStorage.sol\":1801:1914  function setowner(address _owner) external{... */\n    tag_4:\n      dup2\n      dup1\n      iszero\n      tag_20\n      jumpi\n      revert(0x00, 0x00)\n    tag_20:\n      pop\n      tag_21\n      0x04\n      dup1\n      calldatasize\n      sub\n      dup2\n      add\n      swap1\n      tag_22\n      swap2\n      swap1\n      tag_14\n      jump\t// in\n    tag_22:\n      tag_23\n      jump\t// in\n    tag_21:\n      stop\n        /* \"contracts/storage/LibOwnableStorage.sol\":1568:1661  function getTimestampExp()external view returns(uint){return _getStorage(SLOT).timestampExp;} */\n    tag_5:\n      tag_24\n      tag_25\n      jump\t// in\n    tag_24:\n      mload(0x40)\n      tag_26\n      swap2\n      swap1\n      tag_27\n      jump\t// in\n    tag_26:\n      mload(0x40)\n      dup1\n      swap2\n      sub\n      swap1\n      return\n        /* \"contracts/storage/LibOwnableStorage.sol\":1390:1472  function getOwner()external view returns(address){return _getStorage(SLOT).owner;} */\n    tag_6:\n      tag_28\n      tag_29\n      jump\t// in\n    tag_28:\n      mload(0x40)\n      tag_30\n      swap2\n      swap1\n      tag_19\n      jump\t// in\n    tag_30:\n      mload(0x40)\n      dup1\n      swap2\n      sub\n      swap1\n      return\n        /* \"contracts/storage/LibOwnableStorage.sol\":1665:1756  function getGracePeriod()external view returns(uint){return _getStorage(SLOT).gracePeriod;} */\n    tag_7:\n      tag_31\n      tag_32\n      jump\t// in\n    tag_31:\n      mload(0x40)\n      tag_33\n      swap2\n      swap1\n      tag_27\n      jump\t// in\n    tag_33:\n      mload(0x40)\n      dup1\n      swap2\n      sub\n      swap1\n      return\n        /* \"contracts/storage/LibOwnableStorage.sol\":2331:2463  function setGracePeriod(uint _seconds) external{... */\n    tag_8:\n      dup2\n      dup1\n      iszero\n      tag_34\n      jumpi\n      revert(0x00, 0x00)\n    tag_34:\n      pop\n      tag_35\n      0x04\n      dup1\n      calldatasize\n      sub\n      dup2\n      add\n      swap1\n      tag_36\n      swap2\n      swap1\n      tag_37\n      jump\t// in\n    tag_36:\n      tag_38\n      jump\t// in\n    tag_35:\n      stop\n        /* \"contracts/storage/LibOwnableStorage.sol\":2138:2282  function setTimestampExp(uint _timestampExp) external{... */\n    tag_9:\n      dup2\n      dup1\n      iszero\n      tag_39\n      jumpi\n      revert(0x00, 0x00)\n    tag_39:\n      pop\n      tag_40\n      0x04\n      dup1\n      calldatasize\n      sub\n      dup2\n      add\n      swap1\n      tag_41\n      swap2\n      swap1\n      tag_37\n      jump\t// in\n    tag_41:\n      tag_42\n      jump\t// in\n    tag_40:\n      stop\n        /* \"contracts/storage/LibOwnableStorage.sol\":1960:2088  function setnewOwner(address _newOwner) external{... */\n    tag_15:\n        /* \"contracts/storage/LibOwnableStorage.sol\":2046:2055  _newOwner */\n      dup1\n        /* \"contracts/storage/LibOwnableStorage.sol\":2017:2034  _getStorage(SLOT) */\n      tag_44\n        /* \"contracts/storage/LibOwnableStorage.sol\":392:408  bytes('Ownable') */\n      mload(0x40)\n      dup1\n      0x40\n      add\n      0x40\n      mstore\n      dup1\n      0x07\n      dup2\n      mstore\n      0x20\n      add\n      0x4f776e61626c6500000000000000000000000000000000000000000000000000\n      dup2\n      mstore\n      pop\n        /* \"contracts/storage/LibOwnableStorage.sol\":382:409  keccak256(bytes('Ownable')) */\n      dup1\n      mload\n      swap1\n      0x20\n      add\n      keccak256\n        /* \"contracts/storage/LibOwnableStorage.sol\":2017:2028  _getStorage */\n      tag_45\n        /* \"contracts/storage/LibOwnableStorage.sol\":2017:2034  _getStorage(SLOT) */\n      jump\t// in\n    tag_44:\n        /* \"contracts/storage/LibOwnableStorage.sol\":2017:2043  _getStorage(SLOT).newOwner */\n      0x01\n      add\n      0x00\n        /* \"contracts/storage/LibOwnableStorage.sol\":2017:2055  _getStorage(SLOT).newOwner = _newOwner */\n      0x0100\n      exp\n      dup2\n      sload\n      dup2\n      0xffffffffffffffffffffffffffffffffffffffff\n      mul\n      not\n      and\n      swap1\n      dup4\n      0xffffffffffffffffffffffffffffffffffffffff\n      and\n      mul\n      or\n      swap1\n      sstore\n      pop\n        /* \"contracts/storage/LibOwnableStorage.sol\":2069:2082  SetNewOwner() */\n      0x6c31be61fab8aed8b12700f8e462b44f245be7a30a595e2375e73b3dff526f47\n      mload(0x40)\n      mload(0x40)\n      dup1\n      swap2\n      sub\n      swap1\n      log1\n        /* \"contracts/storage/LibOwnableStorage.sol\":1960:2088  function setnewOwner(address _newOwner) external{... */\n      pop\n      jump\t// out\n        /* \"contracts/storage/LibOwnableStorage.sol\":1476:1564  function getNewOwner()external view returns(address){return _getStorage(SLOT).newOwner;} */\n    tag_17:\n        /* \"contracts/storage/LibOwnableStorage.sol\":1520:1527  address */\n      0x00\n        /* \"contracts/storage/LibOwnableStorage.sol\":1536:1553  _getStorage(SLOT) */\n      tag_47\n        /* \"contracts/storage/LibOwnableStorage.sol\":392:408  bytes('Ownable') */\n      mload(0x40)\n      dup1\n      0x40\n      add\n      0x40\n      mstore\n      dup1\n      0x07\n      dup2\n      mstore\n      0x20\n      add\n      0x4f776e61626c6500000000000000000000000000000000000000000000000000\n      dup2\n      mstore\n      pop\n        /* \"contracts/storage/LibOwnableStorage.sol\":382:409  keccak256(bytes('Ownable')) */\n      dup1\n      mload\n      swap1\n      0x20\n      add\n      keccak256\n        /* \"contracts/storage/LibOwnableStorage.sol\":1536:1547  _getStorage */\n      tag_45\n        /* \"contracts/storage/LibOwnableStorage.sol\":1536:1553  _getStorage(SLOT) */\n      jump\t// in\n    tag_47:\n        /* \"contracts/storage/LibOwnableStorage.sol\":1536:1562  _getStorage(SLOT).newOwner */\n      0x01\n      add\n      0x00\n      swap1\n      sload\n      swap1\n      0x0100\n      exp\n      swap1\n      div\n      0xffffffffffffffffffffffffffffffffffffffff\n      and\n        /* \"contracts/storage/LibOwnableStorage.sol\":1529:1562  return _getStorage(SLOT).newOwner */\n      swap1\n      pop\n        /* \"contracts/storage/LibOwnableStorage.sol\":1476:1564  function getNewOwner()external view returns(address){return _getStorage(SLOT).newOwner;} */\n      swap1\n      jump\t// out\n        /* \"contracts/storage/LibOwnableStorage.sol\":1801:1914  function setowner(address _owner) external{... */\n    tag_23:\n        /* \"contracts/storage/LibOwnableStorage.sol\":1878:1884  _owner */\n      dup1\n        /* \"contracts/storage/LibOwnableStorage.sol\":1852:1869  _getStorage(SLOT) */\n      tag_49\n        /* \"contracts/storage/LibOwnableStorage.sol\":392:408  bytes('Ownable') */\n      mload(0x40)\n      dup1\n      0x40\n      add\n      0x40\n      mstore\n      dup1\n      0x07\n      dup2\n      mstore\n      0x20\n      add\n      0x4f776e61626c6500000000000000000000000000000000000000000000000000\n      dup2\n      mstore\n      pop\n        /* \"contracts/storage/LibOwnableStorage.sol\":382:409  keccak256(bytes('Ownable')) */\n      dup1\n      mload\n      swap1\n      0x20\n      add\n      keccak256\n        /* \"contracts/storage/LibOwnableStorage.sol\":1852:1863  _getStorage */\n      tag_45\n        /* \"contracts/storage/LibOwnableStorage.sol\":1852:1869  _getStorage(SLOT) */\n      jump\t// in\n    tag_49:\n        /* \"contracts/storage/LibOwnableStorage.sol\":1852:1875  _getStorage(SLOT).owner */\n      0x00\n      add\n      0x00\n        /* \"contracts/storage/LibOwnableStorage.sol\":1852:1884  _getStorage(SLOT).owner = _owner */\n      0x0100\n      exp\n      dup2\n      sload\n      dup2\n      0xffffffffffffffffffffffffffffffffffffffff\n      mul\n      not\n      and\n      swap1\n      dup4\n      0xffffffffffffffffffffffffffffffffffffffff\n      and\n      mul\n      or\n      swap1\n      sstore\n      pop\n        /* \"contracts/storage/LibOwnableStorage.sol\":1898:1908  SetOwner() */\n      0x93fc5e2aa1a561e99691321da5f8c795fe4aaa464da57ed1140a509c655c5162\n      mload(0x40)\n      mload(0x40)\n      dup1\n      swap2\n      sub\n      swap1\n      log1\n        /* \"contracts/storage/LibOwnableStorage.sol\":1801:1914  function setowner(address _owner) external{... */\n      pop\n      jump\t// out\n        /* \"contracts/storage/LibOwnableStorage.sol\":1568:1661  function getTimestampExp()external view returns(uint){return _getStorage(SLOT).timestampExp;} */\n    tag_25:\n        /* \"contracts/storage/LibOwnableStorage.sol\":1616:1620  uint */\n      0x00\n        /* \"contracts/storage/LibOwnableStorage.sol\":1629:1646  _getStorage(SLOT) */\n      tag_51\n        /* \"contracts/storage/LibOwnableStorage.sol\":392:408  bytes('Ownable') */\n      mload(0x40)\n      dup1\n      0x40\n      add\n      0x40\n      mstore\n      dup1\n      0x07\n      dup2\n      mstore\n      0x20\n      add\n      0x4f776e61626c6500000000000000000000000000000000000000000000000000\n      dup2\n      mstore\n      pop\n        /* \"contracts/storage/LibOwnableStorage.sol\":382:409  keccak256(bytes('Ownable')) */\n      dup1\n      mload\n      swap1\n      0x20\n      add\n      keccak256\n        /* \"contracts/storage/LibOwnableStorage.sol\":1629:1640  _getStorage */\n      tag_45\n        /* \"contracts/storage/LibOwnableStorage.sol\":1629:1646  _getStorage(SLOT) */\n      jump\t// in\n    tag_51:\n        /* \"contracts/storage/LibOwnableStorage.sol\":1629:1659  _getStorage(SLOT).timestampExp */\n      0x02\n      add\n      sload\n        /* \"contracts/storage/LibOwnableStorage.sol\":1622:1659  return _getStorage(SLOT).timestampExp */\n      swap1\n      pop\n        /* \"contracts/storage/LibOwnableStorage.sol\":1568:1661  function getTimestampExp()external view returns(uint){return _getStorage(SLOT).timestampExp;} */\n      swap1\n      jump\t// out\n        /* \"contracts/storage/LibOwnableStorage.sol\":1390:1472  function getOwner()external view returns(address){return _getStorage(SLOT).owner;} */\n    tag_29:\n        /* \"contracts/storage/LibOwnableStorage.sol\":1431:1438  address */\n      0x00\n        /* \"contracts/storage/LibOwnableStorage.sol\":1447:1464  _getStorage(SLOT) */\n      tag_53\n        /* \"contracts/storage/LibOwnableStorage.sol\":392:408  bytes('Ownable') */\n      mload(0x40)\n      dup1\n      0x40\n      add\n      0x40\n      mstore\n      dup1\n      0x07\n      dup2\n      mstore\n      0x20\n      add\n      0x4f776e61626c6500000000000000000000000000000000000000000000000000\n      dup2\n      mstore\n      pop\n        /* \"contracts/storage/LibOwnableStorage.sol\":382:409  keccak256(bytes('Ownable')) */\n      dup1\n      mload\n      swap1\n      0x20\n      add\n      keccak256\n        /* \"contracts/storage/LibOwnableStorage.sol\":1447:1458  _getStorage */\n      tag_45\n        /* \"contracts/storage/LibOwnableStorage.sol\":1447:1464  _getStorage(SLOT) */\n      jump\t// in\n    tag_53:\n        /* \"contracts/storage/LibOwnableStorage.sol\":1447:1470  _getStorage(SLOT).owner */\n      0x00\n      add\n      0x00\n      swap1\n      sload\n      swap1\n      0x0100\n      exp\n      swap1\n      div\n      0xffffffffffffffffffffffffffffffffffffffff\n      and\n        /* \"contracts/storage/LibOwnableStorage.sol\":1440:1470  return _getStorage(SLOT).owner */\n      swap1\n      pop\n        /* \"contracts/storage/LibOwnableStorage.sol\":1390:1472  function getOwner()external view returns(address){return _getStorage(SLOT).owner;} */\n      swap1\n      jump\t// out\n        /* \"contracts/storage/LibOwnableStorage.sol\":1665:1756  function getGracePeriod()external view returns(uint){return _getStorage(SLOT).gracePeriod;} */\n    tag_32:\n        /* \"contracts/storage/LibOwnableStorage.sol\":1712:1716  uint */\n      0x00\n        /* \"contracts/storage/LibOwnableStorage.sol\":1725:1742  _getStorage(SLOT) */\n      tag_55\n        /* \"contracts/storage/LibOwnableStorage.sol\":392:408  bytes('Ownable') */\n      mload(0x40)\n      dup1\n      0x40\n      add\n      0x40\n      mstore\n      dup1\n      0x07\n      dup2\n      mstore\n      0x20\n      add\n      0x4f776e61626c6500000000000000000000000000000000000000000000000000\n      dup2\n      mstore\n      pop\n        /* \"contracts/storage/LibOwnableStorage.sol\":382:409  keccak256(bytes('Ownable')) */\n      dup1\n      mload\n      swap1\n      0x20\n      add\n      keccak256\n        /* \"contracts/storage/LibOwnableStorage.sol\":1725:1736  _getStorage */\n      tag_45\n        /* \"contracts/storage/LibOwnableStorage.sol\":1725:1742  _getStorage(SLOT) */\n      jump\t// in\n    tag_55:\n        /* \"contracts/storage/LibOwnableStorage.sol\":1725:1754  _getStorage(SLOT).gracePeriod */\n      0x03\n      add\n      sload\n        /* \"contracts/storage/LibOwnableStorage.sol\":1718:1754  return _getStorage(SLOT).gracePeriod */\n      swap1\n      pop\n        /* \"contracts/storage/LibOwnableStorage.sol\":1665:1756  function getGracePeriod()external view returns(uint){return _getStorage(SLOT).gracePeriod;} */\n      swap1\n      jump\t// out\n        /* \"contracts/storage/LibOwnableStorage.sol\":2331:2463  function setGracePeriod(uint _seconds) external{... */\n    tag_38:\n        /* \"contracts/storage/LibOwnableStorage.sol\":2419:2427  _seconds */\n      dup1\n        /* \"contracts/storage/LibOwnableStorage.sol\":2387:2404  _getStorage(SLOT) */\n      tag_57\n        /* \"contracts/storage/LibOwnableStorage.sol\":392:408  bytes('Ownable') */\n      mload(0x40)\n      dup1\n      0x40\n      add\n      0x40\n      mstore\n      dup1\n      0x07\n      dup2\n      mstore\n      0x20\n      add\n      0x4f776e61626c6500000000000000000000000000000000000000000000000000\n      dup2\n      mstore\n      pop\n        /* \"contracts/storage/LibOwnableStorage.sol\":382:409  keccak256(bytes('Ownable')) */\n      dup1\n      mload\n      swap1\n      0x20\n      add\n      keccak256\n        /* \"contracts/storage/LibOwnableStorage.sol\":2387:2398  _getStorage */\n      tag_45\n        /* \"contracts/storage/LibOwnableStorage.sol\":2387:2404  _getStorage(SLOT) */\n      jump\t// in\n    tag_57:\n        /* \"contracts/storage/LibOwnableStorage.sol\":2387:2416  _getStorage(SLOT).gracePeriod */\n      0x03\n      add\n        /* \"contracts/storage/LibOwnableStorage.sol\":2387:2427  _getStorage(SLOT).gracePeriod = _seconds */\n      dup2\n      swap1\n      sstore\n      pop\n        /* \"contracts/storage/LibOwnableStorage.sol\":2441:2457  SetGracePeriod() */\n      0xb8354dd789964e53225a14b9d04ce20bf43e1f4092f8899a8a33c4f311ec6f8a\n      mload(0x40)\n      mload(0x40)\n      dup1\n      swap2\n      sub\n      swap1\n      log1\n        /* \"contracts/storage/LibOwnableStorage.sol\":2331:2463  function setGracePeriod(uint _seconds) external{... */\n      pop\n      jump\t// out\n        /* \"contracts/storage/LibOwnableStorage.sol\":2138:2282  function setTimestampExp(uint _timestampExp) external{... */\n    tag_42:\n        /* \"contracts/storage/LibOwnableStorage.sol\":2233:2246  _timestampExp */\n      dup1\n        /* \"contracts/storage/LibOwnableStorage.sol\":2200:2217  _getStorage(SLOT) */\n      tag_59\n        /* \"contracts/storage/LibOwnableStorage.sol\":392:408  bytes('Ownable') */\n      mload(0x40)\n      dup1\n      0x40\n      add\n      0x40\n      mstore\n      dup1\n      0x07\n      dup2\n      mstore\n      0x20\n      add\n      0x4f776e61626c6500000000000000000000000000000000000000000000000000\n      dup2\n      mstore\n      pop\n        /* \"contracts/storage/LibOwnableStorage.sol\":382:409  keccak256(bytes('Ownable')) */\n      dup1\n      mload\n      swap1\n      0x20\n      add\n      keccak256\n        /* \"contracts/storage/LibOwnableStorage.sol\":2200:2211  _getStorage */\n      tag_45\n        /* \"contracts/storage/LibOwnableStorage.sol\":2200:2217  _getStorage(SLOT) */\n      jump\t// in\n    tag_59:\n        /* \"contracts/storage/LibOwnableStorage.sol\":2200:2230  _getStorage(SLOT).timestampExp */\n      0x02\n      add\n        /* \"contracts/storage/LibOwnableStorage.sol\":2200:2246  _getStorage(SLOT).timestampExp = _timestampExp */\n      dup2\n      swap1\n      sstore\n      pop\n        /* \"contracts/storage/LibOwnableStorage.sol\":2260:2276  SeTimestampExp() */\n      0x7fbea1f5431af08c4fdba99e51d07f3234004d637ce24f23b3fd611b37a8420c\n      mload(0x40)\n      mload(0x40)\n      dup1\n      swap2\n      sub\n      swap1\n      log1\n        /* \"contracts/storage/LibOwnableStorage.sol\":2138:2282  function setTimestampExp(uint _timestampExp) external{... */\n      pop\n      jump\t// out\n        /* \"contracts/storage/LibOwnableStorage.sol\":2519:2661  function _getStorage(bytes32 _storage) private pure returns (ownableStorage storage s){... */\n    tag_45:\n        /* \"contracts/storage/LibOwnableStorage.sol\":2580:2604  ownableStorage storage s */\n      0x00\n        /* \"contracts/storage/LibOwnableStorage.sol\":2641:2649  _storage */\n      dup2\n        /* \"contracts/storage/LibOwnableStorage.sol\":2631:2649  s.slot := _storage */\n      swap1\n      pop\n        /* \"contracts/storage/LibOwnableStorage.sol\":2519:2661  function _getStorage(bytes32 _storage) private pure returns (ownableStorage storage s){... */\n      swap2\n      swap1\n      pop\n      jump\t// out\n        /* \"#utility.yul\":88:205   */\n    tag_62:\n        /* \"#utility.yul\":197:198   */\n      0x00\n        /* \"#utility.yul\":194:195   */\n      0x00\n        /* \"#utility.yul\":187:199   */\n      revert\n        /* \"#utility.yul\":334:460   */\n    tag_64:\n        /* \"#utility.yul\":371:378   */\n      0x00\n        /* \"#utility.yul\":411:453   */\n      0xffffffffffffffffffffffffffffffffffffffff\n        /* \"#utility.yul\":404:409   */\n      dup3\n        /* \"#utility.yul\":400:454   */\n      and\n        /* \"#utility.yul\":389:454   */\n      swap1\n      pop\n        /* \"#utility.yul\":334:460   */\n      swap2\n      swap1\n      pop\n      jump\t// out\n        /* \"#utility.yul\":466:562   */\n    tag_65:\n        /* \"#utility.yul\":503:510   */\n      0x00\n        /* \"#utility.yul\":532:556   */\n      tag_79\n        /* \"#utility.yul\":550:555   */\n      dup3\n        /* \"#utility.yul\":532:556   */\n      tag_64\n      jump\t// in\n    tag_79:\n        /* \"#utility.yul\":521:556   */\n      swap1\n      pop\n        /* \"#utility.yul\":466:562   */\n      swap2\n      swap1\n      pop\n      jump\t// out\n        /* \"#utility.yul\":568:690   */\n    tag_66:\n        /* \"#utility.yul\":641:665   */\n      tag_81\n        /* \"#utility.yul\":659:664   */\n      dup2\n        /* \"#utility.yul\":641:665   */\n      tag_65\n      jump\t// in\n    tag_81:\n        /* \"#utility.yul\":634:639   */\n      dup2\n        /* \"#utility.yul\":631:666   */\n      eq\n        /* \"#utility.yul\":621:684   */\n      tag_82\n      jumpi\n        /* \"#utility.yul\":680:681   */\n      0x00\n        /* \"#utility.yul\":677:678   */\n      0x00\n        /* \"#utility.yul\":670:682   */\n      revert\n        /* \"#utility.yul\":621:684   */\n    tag_82:\n        /* \"#utility.yul\":568:690   */\n      pop\n      jump\t// out\n        /* \"#utility.yul\":696:835   */\n    tag_67:\n        /* \"#utility.yul\":742:747   */\n      0x00\n        /* \"#utility.yul\":780:786   */\n      dup2\n        /* \"#utility.yul\":767:787   */\n      calldataload\n        /* \"#utility.yul\":758:787   */\n      swap1\n      pop\n        /* \"#utility.yul\":796:829   */\n      tag_84\n        /* \"#utility.yul\":823:828   */\n      dup2\n        /* \"#utility.yul\":796:829   */\n      tag_66\n      jump\t// in\n    tag_84:\n        /* \"#utility.yul\":696:835   */\n      swap3\n      swap2\n      pop\n      pop\n      jump\t// out\n        /* \"#utility.yul\":841:1170   */\n    tag_14:\n        /* \"#utility.yul\":900:906   */\n      0x00\n        /* \"#utility.yul\":949:951   */\n      0x20\n        /* \"#utility.yul\":937:946   */\n      dup3\n        /* \"#utility.yul\":928:935   */\n      dup5\n        /* \"#utility.yul\":924:947   */\n      sub\n        /* \"#utility.yul\":920:952   */\n      slt\n        /* \"#utility.yul\":917:1036   */\n      iszero\n      tag_86\n      jumpi\n        /* \"#utility.yul\":955:1034   */\n      tag_87\n      tag_62\n      jump\t// in\n    tag_87:\n        /* \"#utility.yul\":917:1036   */\n    tag_86:\n        /* \"#utility.yul\":1075:1076   */\n      0x00\n        /* \"#utility.yul\":1100:1153   */\n      tag_88\n        /* \"#utility.yul\":1145:1152   */\n      dup5\n        /* \"#utility.yul\":1136:1142   */\n      dup3\n        /* \"#utility.yul\":1125:1134   */\n      dup6\n        /* \"#utility.yul\":1121:1143   */\n      add\n        /* \"#utility.yul\":1100:1153   */\n      tag_67\n      jump\t// in\n    tag_88:\n        /* \"#utility.yul\":1090:1153   */\n      swap2\n      pop\n        /* \"#utility.yul\":1046:1163   */\n      pop\n        /* \"#utility.yul\":841:1170   */\n      swap3\n      swap2\n      pop\n      pop\n      jump\t// out\n        /* \"#utility.yul\":1176:1302   */\n    tag_68:\n        /* \"#utility.yul\":1271:1295   */\n      tag_90\n        /* \"#utility.yul\":1289:1294   */\n      dup2\n        /* \"#utility.yul\":1271:1295   */\n      tag_65\n      jump\t// in\n    tag_90:\n        /* \"#utility.yul\":1266:1269   */\n      dup3\n        /* \"#utility.yul\":1259:1296   */\n      mstore\n        /* \"#utility.yul\":1176:1302   */\n      pop\n      pop\n      jump\t// out\n        /* \"#utility.yul\":1308:1546   */\n    tag_19:\n        /* \"#utility.yul\":1409:1413   */\n      0x00\n        /* \"#utility.yul\":1447:1449   */\n      0x20\n        /* \"#utility.yul\":1436:1445   */\n      dup3\n        /* \"#utility.yul\":1432:1450   */\n      add\n        /* \"#utility.yul\":1424:1450   */\n      swap1\n      pop\n        /* \"#utility.yul\":1460:1539   */\n      tag_92\n        /* \"#utility.yul\":1536:1537   */\n      0x00\n        /* \"#utility.yul\":1525:1534   */\n      dup4\n        /* \"#utility.yul\":1521:1538   */\n      add\n        /* \"#utility.yul\":1512:1518   */\n      dup5\n        /* \"#utility.yul\":1460:1539   */\n      tag_68\n      jump\t// in\n    tag_92:\n        /* \"#utility.yul\":1308:1546   */\n      swap3\n      swap2\n      pop\n      pop\n      jump\t// out\n        /* \"#utility.yul\":1552:1629   */\n    tag_69:\n        /* \"#utility.yul\":1589:1596   */\n      0x00\n        /* \"#utility.yul\":1618:1623   */\n      dup2\n        /* \"#utility.yul\":1607:1623   */\n      swap1\n      pop\n        /* \"#utility.yul\":1552:1629   */\n      swap2\n      swap1\n      pop\n      jump\t// out\n        /* \"#utility.yul\":1635:1761   */\n    tag_70:\n        /* \"#utility.yul\":1730:1754   */\n      tag_95\n        /* \"#utility.yul\":1748:1753   */\n      dup2\n        /* \"#utility.yul\":1730:1754   */\n      tag_69\n      jump\t// in\n    tag_95:\n        /* \"#utility.yul\":1725:1728   */\n      dup3\n        /* \"#utility.yul\":1718:1755   */\n      mstore\n        /* \"#utility.yul\":1635:1761   */\n      pop\n      pop\n      jump\t// out\n        /* \"#utility.yul\":1767:2005   */\n    tag_27:\n        /* \"#utility.yul\":1868:1872   */\n      0x00\n        /* \"#utility.yul\":1906:1908   */\n      0x20\n        /* \"#utility.yul\":1895:1904   */\n      dup3\n        /* \"#utility.yul\":1891:1909   */\n      add\n        /* \"#utility.yul\":1883:1909   */\n      swap1\n      pop\n        /* \"#utility.yul\":1919:1998   */\n      tag_97\n        /* \"#utility.yul\":1995:1996   */\n      0x00\n        /* \"#utility.yul\":1984:1993   */\n      dup4\n        /* \"#utility.yul\":1980:1997   */\n      add\n        /* \"#utility.yul\":1971:1977   */\n      dup5\n        /* \"#utility.yul\":1919:1998   */\n      tag_70\n      jump\t// in\n    tag_97:\n        /* \"#utility.yul\":1767:2005   */\n      swap3\n      swap2\n      pop\n      pop\n      jump\t// out\n        /* \"#utility.yul\":2011:2133   */\n    tag_71:\n        /* \"#utility.yul\":2084:2108   */\n      tag_99\n        /* \"#utility.yul\":2102:2107   */\n      dup2\n        /* \"#utility.yul\":2084:2108   */\n      tag_69\n      jump\t// in\n    tag_99:\n        /* \"#utility.yul\":2077:2082   */\n      dup2\n        /* \"#utility.yul\":2074:2109   */\n      eq\n        /* \"#utility.yul\":2064:2127   */\n      tag_100\n      jumpi\n        /* \"#utility.yul\":2123:2124   */\n      0x00\n        /* \"#utility.yul\":2120:2121   */\n      0x00\n        /* \"#utility.yul\":2113:2125   */\n      revert\n        /* \"#utility.yul\":2064:2127   */\n    tag_100:\n        /* \"#utility.yul\":2011:2133   */\n      pop\n      jump\t// out\n        /* \"#utility.yul\":2139:2278   */\n    tag_72:\n        /* \"#utility.yul\":2185:2190   */\n      0x00\n        /* \"#utility.yul\":2223:2229   */\n      dup2\n        /* \"#utility.yul\":2210:2230   */\n      calldataload\n        /* \"#utility.yul\":2201:2230   */\n      swap1\n      pop\n        /* \"#utility.yul\":2239:2272   */\n      tag_102\n        /* \"#utility.yul\":2266:2271   */\n      dup2\n        /* \"#utility.yul\":2239:2272   */\n      tag_71\n      jump\t// in\n    tag_102:\n        /* \"#utility.yul\":2139:2278   */\n      swap3\n      swap2\n      pop\n      pop\n      jump\t// out\n        /* \"#utility.yul\":2284:2613   */\n    tag_37:\n        /* \"#utility.yul\":2343:2349   */\n      0x00\n        /* \"#utility.yul\":2392:2394   */\n      0x20\n        /* \"#utility.yul\":2380:2389   */\n      dup3\n        /* \"#utility.yul\":2371:2378   */\n      dup5\n        /* \"#utility.yul\":2367:2390   */\n      sub\n        /* \"#utility.yul\":2363:2395   */\n      slt\n        /* \"#utility.yul\":2360:2479   */\n      iszero\n      tag_104\n      jumpi\n        /* \"#utility.yul\":2398:2477   */\n      tag_105\n      tag_62\n      jump\t// in\n    tag_105:\n        /* \"#utility.yul\":2360:2479   */\n    tag_104:\n        /* \"#utility.yul\":2518:2519   */\n      0x00\n        /* \"#utility.yul\":2543:2596   */\n      tag_106\n        /* \"#utility.yul\":2588:2595   */\n      dup5\n        /* \"#utility.yul\":2579:2585   */\n      dup3\n        /* \"#utility.yul\":2568:2577   */\n      dup6\n        /* \"#utility.yul\":2564:2586   */\n      add\n        /* \"#utility.yul\":2543:2596   */\n      tag_72\n      jump\t// in\n    tag_106:\n        /* \"#utility.yul\":2533:2596   */\n      swap2\n      pop\n        /* \"#utility.yul\":2489:2606   */\n      pop\n        /* \"#utility.yul\":2284:2613   */\n      swap3\n      swap2\n      pop\n      pop\n      jump\t// out\n\n    auxdata: 0xa2646970667358221220a24963c30d0d13e115e91986edf0803500a43b7f358a4c4b509ebaa23840989f64736f6c634300081e0033\n}\n",
				"bytecode": {
					"linkReferences": {},
					"object": "6106fd61004d600b8282823980515f1a6073146041577f4e487b71000000000000000000000000000000000000000000000000000000005f525f60045260245ffd5b305f52607381538281f3fe7300000000000000000000000000000000000000003014608060405260043610610091575f3560e01c8063893d20e811610064578063893d20e814610121578063dbd183881461013f578063f2f659601461015d578063fdb0afee1461018557610091565b806334b8160c146100955780633e2fe149146100bd578063592bd705146100db57806361a9ab7614610103575b5f5ffd5b8180156100a0575f5ffd5b506100bb60048036038101906100b691906105ee565b6101ad565b005b6100c5610262565b6040516100d29190610628565b60405180910390f35b8180156100e6575f5ffd5b5061010160048036038101906100fc91906105ee565b6102d0565b005b61010b610384565b6040516101189190610659565b60405180910390f35b6101296103d3565b6040516101369190610628565b60405180910390f35b610147610440565b6040516101549190610659565b60405180910390f35b818015610168575f5ffd5b50610183600480360381019061017e919061069c565b61048f565b005b818015610190575f5ffd5b506101ab60048036038101906101a6919061069c565b61050b565b005b806101f36040518060400160405280600781526020017f4f776e61626c650000000000000000000000000000000000000000000000000081525080519060200120610587565b6001015f6101000a81548173ffffffffffffffffffffffffffffffffffffffff021916908373ffffffffffffffffffffffffffffffffffffffff1602179055507f6c31be61fab8aed8b12700f8e462b44f245be7a30a595e2375e73b3dff526f4760405160405180910390a150565b5f6102a86040518060400160405280600781526020017f4f776e61626c650000000000000000000000000000000000000000000000000081525080519060200120610587565b6001015f9054906101000a900473ffffffffffffffffffffffffffffffffffffffff16905090565b806103166040518060400160405280600781526020017f4f776e61626c650000000000000000000000000000000000000000000000000081525080519060200120610587565b5f015f6101000a81548173ffffffffffffffffffffffffffffffffffffffff021916908373ffffffffffffffffffffffffffffffffffffffff1602179055507f93fc5e2aa1a561e99691321da5f8c795fe4aaa464da57ed1140a509c655c516260405160405180910390a150565b5f6103ca6040518060400160405280600781526020017f4f776e61626c650000000000000000000000000000000000000000000000000081525080519060200120610587565b60020154905090565b5f6104196040518060400160405280600781526020017f4f776e61626c650000000000000000000000000000000000000000000000000081525080519060200120610587565b5f015f9054906101000a900473ffffffffffffffffffffffffffffffffffffffff16905090565b5f6104866040518060400160405280600781526020017f4f776e61626c650000000000000000000000000000000000000000000000000081525080519060200120610587565b60030154905090565b806104d56040518060400160405280600781526020017f4f776e61626c650000000000000000000000000000000000000000000000000081525080519060200120610587565b600301819055507fb8354dd789964e53225a14b9d04ce20bf43e1f4092f8899a8a33c4f311ec6f8a60405160405180910390a150565b806105516040518060400160405280600781526020017f4f776e61626c650000000000000000000000000000000000000000000000000081525080519060200120610587565b600201819055507f7fbea1f5431af08c4fdba99e51d07f3234004d637ce24f23b3fd611b37a8420c60405160405180910390a150565b5f819050919050565b5f5ffd5b5f73ffffffffffffffffffffffffffffffffffffffff82169050919050565b5f6105bd82610594565b9050919050565b6105cd816105b3565b81146105d7575f5ffd5b50565b5f813590506105e8816105c4565b92915050565b5f6020828403121561060357610602610590565b5b5f610610848285016105da565b91505092915050565b610622816105b3565b82525050565b5f60208201905061063b5f830184610619565b92915050565b5f819050919050565b61065381610641565b82525050565b5f60208201905061066c5f83018461064a565b92915050565b61067b81610641565b8114610685575f5ffd5b50565b5f8135905061069681610672565b92915050565b5f602082840312156106b1576106b0610590565b5b5f6106be84828501610688565b9150509291505056fea2646970667358221220a24963c30d0d13e115e91986edf0803500a43b7f358a4c4b509ebaa23840989f64736f6c634300081e0033",
					"opcodes": "PUSH2 0x6FD PUSH2 0x4D PUSH1 0xB DUP3 DUP3 DUP3 CODECOPY DUP1 MLOAD PUSH0 BYTE PUSH1 0x73 EQ PUSH1 0x41 JUMPI PUSH32 0x4E487B7100000000000000000000000000000000000000000000000000000000 PUSH0 MSTORE PUSH0 PUSH1 0x4 MSTORE PUSH1 0x24 PUSH0 REVERT JUMPDEST ADDRESS PUSH0 MSTORE PUSH1 0x73 DUP2 MSTORE8 DUP3 DUP2 RETURN INVALID PUSH20 0x0 ADDRESS EQ PUSH1 0x80 PUSH1 0x40 MSTORE PUSH1 0x4 CALLDATASIZE LT PUSH2 0x91 JUMPI PUSH0 CALLDATALOAD PUSH1 0xE0 SHR DUP1 PUSH4 0x893D20E8 GT PUSH2 0x64 JUMPI DUP1 PUSH4 0x893D20E8 EQ PUSH2 0x121 JUMPI DUP1 PUSH4 0xDBD18388 EQ PUSH2 0x13F JUMPI DUP1 PUSH4 0xF2F65960 EQ PUSH2 0x15D JUMPI DUP1 PUSH4 0xFDB0AFEE EQ PUSH2 0x185 JUMPI PUSH2 0x91 JUMP JUMPDEST DUP1 PUSH4 0x34B8160C EQ PUSH2 0x95 JUMPI DUP1 PUSH4 0x3E2FE149 EQ PUSH2 0xBD JUMPI DUP1 PUSH4 0x592BD705 EQ PUSH2 0xDB JUMPI DUP1 PUSH4 0x61A9AB76 EQ PUSH2 0x103 JUMPI JUMPDEST PUSH0 PUSH0 REVERT JUMPDEST DUP2 DUP1 ISZERO PUSH2 0xA0 JUMPI PUSH0 PUSH0 REVERT JUMPDEST POP PUSH2 0xBB PUSH1 0x4 DUP1 CALLDATASIZE SUB DUP2 ADD SWAP1 PUSH2 0xB6 SWAP2 SWAP1 PUSH2 0x5EE JUMP JUMPDEST PUSH2 0x1AD JUMP JUMPDEST STOP JUMPDEST PUSH2 0xC5 PUSH2 0x262 JUMP JUMPDEST PUSH1 0x40 MLOAD PUSH2 0xD2 SWAP2 SWAP1 PUSH2 0x628 JUMP JUMPDEST PUSH1 0x40 MLOAD DUP1 SWAP2 SUB SWAP1 RETURN JUMPDEST DUP2 DUP1 ISZERO PUSH2 0xE6 JUMPI PUSH0 PUSH0 REVERT JUMPDEST POP PUSH2 0x101 PUSH1 0x4 DUP1 CALLDATASIZE SUB DUP2 ADD SWAP1 PUSH2 0xFC SWAP2 SWAP1 PUSH2 0x5EE JUMP JUMPDEST PUSH2 0x2D0 JUMP JUMPDEST STOP JUMPDEST PUSH2 0x10B PUSH2 0x384 JUMP JUMPDEST PUSH1 0x40 MLOAD PUSH2 0x118 SWAP2 SWAP1 PUSH2 0x659 JUMP JUMPDEST PUSH1 0x40 MLOAD DUP1 SWAP2 SUB SWAP1 RETURN JUMPDEST PUSH2 0x129 PUSH2 0x3D3 JUMP JUMPDEST PUSH1 0x40 MLOAD PUSH2 0x136 SWAP2 SWAP1 PUSH2 0x628 JUMP JUMPDEST PUSH1 0x40 MLOAD DUP1 SWAP2 SUB SWAP1 RETURN JUMPDEST PUSH2 0x147 PUSH2 0x440 JUMP JUMPDEST PUSH1 0x40 MLOAD PUSH2 0x154 SWAP2 SWAP1 PUSH2 0x659 JUMP JUMPDEST PUSH1 0x40 MLOAD DUP1 SWAP2 SUB SWAP1 RETURN JUMPDEST DUP2 DUP1 ISZERO PUSH2 0x168 JUMPI PUSH0 PUSH0 REVERT JUMPDEST POP PUSH2 0x183 PUSH1 0x4 DUP1 CALLDATASIZE SUB DUP2 ADD SWAP1 PUSH2 0x17E SWAP2 SWAP1 PUSH2 0x69C JUMP JUMPDEST PUSH2 0x48F JUMP JUMPDEST STOP JUMPDEST DUP2 DUP1 ISZERO PUSH2 0x190 JUMPI PUSH0 PUSH0 REVERT JUMPDEST POP PUSH2 0x1AB PUSH1 0x4 DUP1 CALLDATASIZE SUB DUP2 ADD SWAP1 PUSH2 0x1A6 SWAP2 SWAP1 PUSH2 0x69C JUMP JUMPDEST PUSH2 0x50B JUMP JUMPDEST STOP JUMPDEST DUP1 PUSH2 0x1F3 PUSH1 0x40 MLOAD DUP1 PUSH1 0x40 ADD PUSH1 0x40 MSTORE DUP1 PUSH1 0x7 DUP2 MSTORE PUSH1 0x20 ADD PUSH32 0x4F776E61626C6500000000000000000000000000000000000000000000000000 DUP2 MSTORE POP DUP1 MLOAD SWAP1 PUSH1 0x20 ADD KECCAK256 PUSH2 0x587 JUMP JUMPDEST PUSH1 0x1 ADD PUSH0 PUSH2 0x100 EXP DUP2 SLOAD DUP2 PUSH20 0xFFFFFFFFFFFFFFFFFFFFFFFFFFFFFFFFFFFFFFFF MUL NOT AND SWAP1 DUP4 PUSH20 0xFFFFFFFFFFFFFFFFFFFFFFFFFFFFFFFFFFFFFFFF AND MUL OR SWAP1 SSTORE POP PUSH32 0x6C31BE61FAB8AED8B12700F8E462B44F245BE7A30A595E2375E73B3DFF526F47 PUSH1 0x40 MLOAD PUSH1 0x40 MLOAD DUP1 SWAP2 SUB SWAP1 LOG1 POP JUMP JUMPDEST PUSH0 PUSH2 0x2A8 PUSH1 0x40 MLOAD DUP1 PUSH1 0x40 ADD PUSH1 0x40 MSTORE DUP1 PUSH1 0x7 DUP2 MSTORE PUSH1 0x20 ADD PUSH32 0x4F776E61626C6500000000000000000000000000000000000000000000000000 DUP2 MSTORE POP DUP1 MLOAD SWAP1 PUSH1 0x20 ADD KECCAK256 PUSH2 0x587 JUMP JUMPDEST PUSH1 0x1 ADD PUSH0 SWAP1 SLOAD SWAP1 PUSH2 0x100 EXP SWAP1 DIV PUSH20 0xFFFFFFFFFFFFFFFFFFFFFFFFFFFFFFFFFFFFFFFF AND SWAP1 POP SWAP1 JUMP JUMPDEST DUP1 PUSH2 0x316 PUSH1 0x40 MLOAD DUP1 PUSH1 0x40 ADD PUSH1 0x40 MSTORE DUP1 PUSH1 0x7 DUP2 MSTORE PUSH1 0x20 ADD PUSH32 0x4F776E61626C6500000000000000000000000000000000000000000000000000 DUP2 MSTORE POP DUP1 MLOAD SWAP1 PUSH1 0x20 ADD KECCAK256 PUSH2 0x587 JUMP JUMPDEST PUSH0 ADD PUSH0 PUSH2 0x100 EXP DUP2 SLOAD DUP2 PUSH20 0xFFFFFFFFFFFFFFFFFFFFFFFFFFFFFFFFFFFFFFFF MUL NOT AND SWAP1 DUP4 PUSH20 0xFFFFFFFFFFFFFFFFFFFFFFFFFFFFFFFFFFFFFFFF AND MUL OR SWAP1 SSTORE POP PUSH32 0x93FC5E2AA1A561E99691321DA5F8C795FE4AAA464DA57ED1140A509C655C5162 PUSH1 0x40 MLOAD PUSH1 0x40 MLOAD DUP1 SWAP2 SUB SWAP1 LOG1 POP JUMP JUMPDEST PUSH0 PUSH2 0x3CA PUSH1 0x40 MLOAD DUP1 PUSH1 0x40 ADD PUSH1 0x40 MSTORE DUP1 PUSH1 0x7 DUP2 MSTORE PUSH1 0x20 ADD PUSH32 0x4F776E61626C6500000000000000000000000000000000000000000000000000 DUP2 MSTORE POP DUP1 MLOAD SWAP1 PUSH1 0x20 ADD KECCAK256 PUSH2 0x587 JUMP JUMPDEST PUSH1 0x2 ADD SLOAD SWAP1 POP SWAP1 JUMP JUMPDEST PUSH0 PUSH2 0x419 PUSH1 0x40 MLOAD DUP1 PUSH1 0x40 ADD PUSH1 0x40 MSTORE DUP1 PUSH1 0x7 DUP2 MSTORE PUSH1 0x20 ADD PUSH32 0x4F776E61626C6500000000000000000000000000000000000000000000000000 DUP2 MSTORE POP DUP1 MLOAD SWAP1 PUSH1 0x20 ADD KECCAK256 PUSH2 0x587 JUMP JUMPDEST PUSH0 ADD PUSH0 SWAP1 SLOAD SWAP1 PUSH2 0x100 EXP SWAP1 DIV PUSH20 0xFFFFFFFFFFFFFFFFFFFFFFFFFFFFFFFFFFFFFFFF AND SWAP1 POP SWAP1 JUMP JUMPDEST PUSH0 PUSH2 0x486 PUSH1 0x40 MLOAD DUP1 PUSH1 0x40 ADD PUSH1 0x40 MSTORE DUP1 PUSH1 0x7 DUP2 MSTORE PUSH1 0x20 ADD PUSH32 0x4F776E61626C6500000000000000000000000000000000000000000000000000 DUP2 MSTORE POP DUP1 MLOAD SWAP1 PUSH1 0x20 ADD KECCAK256 PUSH2 0x587 JUMP JUMPDEST PUSH1 0x3 ADD SLOAD SWAP1 POP SWAP1 JUMP JUMPDEST DUP1 PUSH2 0x4D5 PUSH1 0x40 MLOAD DUP1 PUSH1 0x40 ADD PUSH1 0x40 MSTORE DUP1 PUSH1 0x7 DUP2 MSTORE PUSH1 0x20 ADD PUSH32 0x4F776E61626C6500000000000000000000000000000000000000000000000000 DUP2 MSTORE POP DUP1 MLOAD SWAP1 PUSH1 0x20 ADD KECCAK256 PUSH2 0x587 JUMP JUMPDEST PUSH1 0x3 ADD DUP2 SWAP1 SSTORE POP PUSH32 0xB8354DD789964E53225A14B9D04CE20BF43E1F4092F8899A8A33C4F311EC6F8A PUSH1 0x40 MLOAD PUSH1 0x40 MLOAD DUP1 SWAP2 SUB SWAP1 LOG1 POP JUMP JUMPDEST DUP1 PUSH2 0x551 PUSH1 0x40 MLOAD DUP1 PUSH1 0x40 ADD PUSH1 0x40 MSTORE DUP1 PUSH1 0x7 DUP2 MSTORE PUSH1 0x20 ADD PUSH32 0x4F776E61626C6500000000000000000000000000000000000000000000000000 DUP2 MSTORE POP DUP1 MLOAD SWAP1 PUSH1 0x20 ADD KECCAK256 PUSH2 0x587 JUMP JUMPDEST PUSH1 0x2 ADD DUP2 SWAP1 SSTORE POP PUSH32 0x7FBEA1F5431AF08C4FDBA99E51D07F3234004D637CE24F23B3FD611B37A8420C PUSH1 0x40 MLOAD PUSH1 0x40 MLOAD DUP1 SWAP2 SUB SWAP1 LOG1 POP JUMP JUMPDEST PUSH0 DUP2 SWAP1 POP SWAP2 SWAP1 POP JUMP JUMPDEST PUSH0 PUSH0 REVERT JUMPDEST PUSH0 PUSH20 0xFFFFFFFFFFFFFFFFFFFFFFFFFFFFFFFFFFFFFFFF DUP3 AND SWAP1 POP SWAP2 SWAP1 POP JUMP JUMPDEST PUSH0 PUSH2 0x5BD DUP3 PUSH2 0x594 JUMP JUMPDEST SWAP1 POP SWAP2 SWAP1 POP JUMP JUMPDEST PUSH2 0x5CD DUP2 PUSH2 0x5B3 JUMP JUMPDEST DUP2 EQ PUSH2 0x5D7 JUMPI PUSH0 PUSH0 REVERT JUMPDEST POP JUMP JUMPDEST PUSH0 DUP2 CALLDATALOAD SWAP1 POP PUSH2 0x5E8 DUP2 PUSH2 0x5C4 JUMP JUMPDEST SWAP3 SWAP2 POP POP JUMP JUMPDEST PUSH0 PUSH1 0x20 DUP3 DUP5 SUB SLT ISZERO PUSH2 0x603 JUMPI PUSH2 0x602 PUSH2 0x590 JUMP JUMPDEST JUMPDEST PUSH0 PUSH2 0x610 DUP5 DUP3 DUP6 ADD PUSH2 0x5DA JUMP JUMPDEST SWAP2 POP POP SWAP3 SWAP2 POP POP JUMP JUMPDEST PUSH2 0x622 DUP2 PUSH2 0x5B3 JUMP JUMPDEST DUP3 MSTORE POP POP JUMP JUMPDEST PUSH0 PUSH1 0x20 DUP3 ADD SWAP1 POP PUSH2 0x63B PUSH0 DUP4 ADD DUP5 PUSH2 0x619 JUMP JUMPDEST SWAP3 SWAP2 POP POP JUMP JUMPDEST PUSH0 DUP2 SWAP1 POP SWAP2 SWAP1 POP JUMP JUMPDEST PUSH2 0x653 DUP2 PUSH2 0x641 JUMP JUMPDEST DUP3 MSTORE POP POP JUMP JUMPDEST PUSH0 PUSH1 0x20 DUP3 ADD SWAP1 POP PUSH2 0x66C PUSH0 DUP4 ADD DUP5 PUSH2 0x64A JUMP JUMPDEST SWAP3 SWAP2 POP POP JUMP JUMPDEST PUSH2 0x67B DUP2 PUSH2 0x641 JUMP JUMPDEST DUP2 EQ PUSH2 0x685 JUMPI PUSH0 PUSH0 REVERT JUMPDEST POP JUMP JUMPDEST PUSH0 DUP2 CALLDATALOAD SWAP1 POP PUSH2 0x696 DUP2 PUSH2 0x672 JUMP JUMPDEST SWAP3 SWAP2 POP POP JUMP JUMPDEST PUSH0 PUSH1 0x20 DUP3 DUP5 SUB SLT ISZERO PUSH2 0x6B1 JUMPI PUSH2 0x6B0 PUSH2 0x590 JUMP JUMPDEST JUMPDEST PUSH0 PUSH2 0x6BE DUP5 DUP3 DUP6 ADD PUSH2 0x688 JUMP JUMPDEST SWAP2 POP POP SWAP3 SWAP2 POP POP JUMP INVALID LOG2 PUSH5 0x6970667358 0x22 SLT KECCAK256 LOG2 BLOBHASH PUSH4 0xC30D0D13 RJUMPI 0x15E9 NOT DUP7 0xED CREATE DUP1 CALLDATALOAD STOP LOG4 EXTCODESIZE PUSH32 0x358A4C4B509EBAA23840989F64736F6C634300081E0033000000000000000000 "
				},
				"gasEstimates": {
					"creation": {
						"codeDepositCost": "357800",
						"executionCost": "419",
						"totalCost": "358219"
					},
					"external": {
						"getGracePeriod()": "2590",
						"getNewOwner()": "2674",
						"getOwner()": "2650",
						"getTimestampExp()": "2635",
						"setGracePeriod(uint256)": "23500",
						"setTimestampExp(uint256)": "23522",
						"setnewOwner(address)": "25657",
						"setowner(address)": "25700"
					},
					"internal": {
						"_getStorage(bytes32)": "27"
					}
				},
				"methodIdentifiers": {
					"getGracePeriod()": "dbd18388",
					"getNewOwner()": "3e2fe149",
					"getOwner()": "893d20e8",
					"getTimestampExp()": "61a9ab76",
					"setGracePeriod(uint256)": "f2f65960",
					"setTimestampExp(uint256)": "fdb0afee",
					"setnewOwner(address)": "34b8160c",
					"setowner(address)": "592bd705"
				}
			},
			"storageLayout": {
				"storage": [],
				"types": null
			},
			"userdoc": {
				"kind": "user",
				"methods": {},
				"notice": "Библиотека хранилища миксина Ownable*",
				"version": 1
			}
		}
	}
}