{
	"contracts/storage/LibSMElegendaryStorage.sol": {
		"SMElegendaryStorage": {
			"abi": [
				{
					"inputs": [],
					"name": "_burnCounter",
					"outputs": [
						{
							"internalType": "uint256",
							"name": "",
							"type": "uint256"
						}
					],
					"stateMutability": "view",
					"type": "function"
				},
				{
					"inputs": [],
					"name": "_currentIndex",
					"outputs": [
						{
							"internalType": "uint256",
							"name": "",
							"type": "uint256"
						}
					],
					"stateMutability": "view",
					"type": "function"
				},
				{
					"inputs": [
						{
							"internalType": "address",
							"name": "owner",
							"type": "address"
						},
						{
							"internalType": "address",
							"name": "operator",
							"type": "address"
						}
					],
					"name": "_operatorApprovals",
					"outputs": [
						{
							"internalType": "bool",
							"name": "",
							"type": "bool"
						}
					],
					"stateMutability": "view",
					"type": "function"
				},
				{
					"inputs": [
						{
							"internalType": "address",
							"name": "_owner",
							"type": "address"
						}
					],
					"name": "_packedAddressData",
					"outputs": [
						{
							"internalType": "uint256",
							"name": "",
							"type": "uint256"
						}
					],
					"stateMutability": "view",
					"type": "function"
				},
				{
					"inputs": [
						{
							"internalType": "uint256",
							"name": "_tokenId",
							"type": "uint256"
						}
					],
					"name": "_packedOwnerships",
					"outputs": [
						{
							"internalType": "uint256",
							"name": "",
							"type": "uint256"
						}
					],
					"stateMutability": "view",
					"type": "function"
				},
				{
					"inputs": [],
					"name": "_spotMinted",
					"outputs": [
						{
							"internalType": "uint256",
							"name": "",
							"type": "uint256"
						}
					],
					"stateMutability": "view",
					"type": "function"
				},
				{
					"inputs": [],
					"name": "_startTokenId",
					"outputs": [
						{
							"internalType": "uint256",
							"name": "",
							"type": "uint256"
						}
					],
					"stateMutability": "view",
					"type": "function"
				},
				{
					"inputs": [
						{
							"internalType": "uint256",
							"name": "_tokenId",
							"type": "uint256"
						}
					],
					"name": "_tokenApprovals",
					"outputs": [
						{
							"components": [
								{
									"internalType": "address",
									"name": "value",
									"type": "address"
								}
							],
							"internalType": "struct SMElegendaryStorage.TokenApprovalRef",
							"name": "",
							"type": "tuple"
						}
					],
					"stateMutability": "view",
					"type": "function"
				},
				{
					"inputs": [],
					"name": "allTokens",
					"outputs": [
						{
							"internalType": "uint256[]",
							"name": "",
							"type": "uint256[]"
						}
					],
					"stateMutability": "view",
					"type": "function"
				},
				{
					"inputs": [],
					"name": "baseTokenURI",
					"outputs": [
						{
							"internalType": "string",
							"name": "",
							"type": "string"
						}
					],
					"stateMutability": "view",
					"type": "function"
				},
				{
					"inputs": [],
					"name": "defaultTokenURI",
					"outputs": [
						{
							"internalType": "string",
							"name": "",
							"type": "string"
						}
					],
					"stateMutability": "view",
					"type": "function"
				},
				{
					"inputs": [],
					"name": "epiclistRoot",
					"outputs": [
						{
							"internalType": "bytes32",
							"name": "",
							"type": "bytes32"
						}
					],
					"stateMutability": "view",
					"type": "function"
				},
				{
					"inputs": [],
					"name": "fee",
					"outputs": [
						{
							"internalType": "uint256",
							"name": "",
							"type": "uint256"
						}
					],
					"stateMutability": "view",
					"type": "function"
				},
				{
					"inputs": [],
					"name": "genesislistRoot",
					"outputs": [
						{
							"internalType": "bytes32",
							"name": "",
							"type": "bytes32"
						}
					],
					"stateMutability": "view",
					"type": "function"
				},
				{
					"inputs": [
						{
							"internalType": "address",
							"name": "owner",
							"type": "address"
						}
					],
					"name": "guaranteed_minted",
					"outputs": [
						{
							"internalType": "bool",
							"name": "",
							"type": "bool"
						}
					],
					"stateMutability": "view",
					"type": "function"
				},
				{
					"inputs": [],
					"name": "legendlistRoot",
					"outputs": [
						{
							"internalType": "bytes32",
							"name": "",
							"type": "bytes32"
						}
					],
					"stateMutability": "view",
					"type": "function"
				},
				{
					"inputs": [],
					"name": "name",
					"outputs": [
						{
							"internalType": "string",
							"name": "",
							"type": "string"
						}
					],
					"stateMutability": "view",
					"type": "function"
				},
				{
					"inputs": [
						{
							"internalType": "address",
							"name": "owner",
							"type": "address"
						},
						{
							"internalType": "uint256",
							"name": "index",
							"type": "uint256"
						}
					],
					"name": "ownedTokens",
					"outputs": [
						{
							"internalType": "uint256",
							"name": "",
							"type": "uint256"
						}
					],
					"stateMutability": "view",
					"type": "function"
				},
				{
					"inputs": [
						{
							"internalType": "uint256",
							"name": "tokenId",
							"type": "uint256"
						}
					],
					"name": "ownedTokensIndex",
					"outputs": [
						{
							"internalType": "uint256",
							"name": "",
							"type": "uint256"
						}
					],
					"stateMutability": "view",
					"type": "function"
				},
				{
					"inputs": [],
					"name": "symbol",
					"outputs": [
						{
							"internalType": "string",
							"name": "",
							"type": "string"
						}
					],
					"stateMutability": "view",
					"type": "function"
				},
				{
					"inputs": [
						{
							"internalType": "uint256",
							"name": "tokenId",
							"type": "uint256"
						}
					],
					"name": "tokenURIs",
					"outputs": [
						{
							"internalType": "string",
							"name": "",
							"type": "string"
						}
					],
					"stateMutability": "view",
					"type": "function"
				}
			],
			"devdoc": {
				"custom:version": "1.1.0",
				"details": "Логику смотри в модуле smeLegendary",
				"kind": "dev",
				"methods": {
					"addTokenToAllTokensEnumeration(uint256)": {
						"details": "Добавление токена в структуры для отслеживания",
						"params": {
							"tokenId": "uint256 идентификатор токена"
						}
					},
					"addTokenToOwnerEnumeration(address,uint256,uint256)": {
						"details": "Private function to add a token to this extension's ownership-tracking data structures.",
						"params": {
							"to": "address representing the new owner of the given token ID",
							"tokenId": "uint256 ID of the token to be added to the tokens list of the given address"
						}
					},
					"baseTokenURI()": {
						"details": "геттеры"
					},
					"baseTokenURI(string)": {
						"details": "Сеттеры"
					},
					"name()": {
						"details": "ERC721"
					},
					"removeTokenFromAllTokensEnumeration(uint256)": {
						"details": "Private function to remove a token from this extension's token tracking data structures. This has O(1) time complexity, but alters the order of the _allTokens array.",
						"params": {
							"tokenId": "uint256 ID of the token to be removed from the tokens list"
						}
					},
					"removeTokenFromOwnerEnumeration(address,uint256,uint256)": {
						"details": "Private function to remove a token from this extension's ownership-tracking data structures. Note that while the token is not assigned a new owner, the `_ownedTokensIndex` mapping is _not_ updated: this allows for gas optimizations e.g. when performing a transfer operation (avoiding double writes). This has O(1) time complexity, but alters the order of the _ownedTokens array.",
						"params": {
							"from": "address representing the previous owner of the given token ID",
							"tokenId": "uint256 ID of the token to be removed from the tokens list of the given address"
						}
					}
				},
				"stateVariables": {
					"SLOT": {
						"details": "Слот хранилища"
					}
				},
				"title": "OwnableStorage",
				"version": 1
			},
			"evm": {
				"assembly": "    /* \"contracts/storage/LibSMElegendaryStorage.sol\":295:12725  library SMElegendaryStorage{... */\n  dataSize(sub_0)\n  dataOffset(sub_0)\n  0x0b\n  dup3\n  dup3\n  dup3\n  codecopy\n  dup1\n  mload\n  0x00\n  byte\n  0x73\n  eq\n  tag_1\n  jumpi\n  mstore(0x00, 0x4e487b7100000000000000000000000000000000000000000000000000000000)\n  mstore(0x04, 0x00)\n  revert(0x00, 0x24)\ntag_1:\n  mstore(0x00, address)\n  0x73\n  dup2\n  mstore8\n  dup3\n  dup2\n  return\nstop\n\nsub_0: assembly {\n        /* \"contracts/storage/LibSMElegendaryStorage.sol\":295:12725  library SMElegendaryStorage{... */\n      eq(address, deployTimeAddress())\n      mstore(0x40, 0x80)\n      jumpi(tag_1, lt(calldatasize, 0x04))\n      shr(0xe0, calldataload(0x00))\n      dup1\n      0x821abc2d\n      gt\n      tag_49\n      jumpi\n      dup1\n      0xb0d4ce25\n      gt\n      tag_50\n      jumpi\n      dup1\n      0xddca3f43\n      gt\n      tag_51\n      jumpi\n      dup1\n      0xddca3f43\n      eq\n      tag_43\n      jumpi\n      dup1\n      0xdec84db1\n      eq\n      tag_44\n      jumpi\n      dup1\n      0xe149f036\n      eq\n      tag_45\n      jumpi\n      dup1\n      0xe68fdee1\n      eq\n      tag_46\n      jumpi\n      dup1\n      0xedc3bc3f\n      eq\n      tag_47\n      jumpi\n      dup1\n      0xf589b754\n      eq\n      tag_48\n      jumpi\n      jump(tag_1)\n    tag_51:\n      dup1\n      0xb0d4ce25\n      eq\n      tag_37\n      jumpi\n      dup1\n      0xb62d8b91\n      eq\n      tag_38\n      jumpi\n      dup1\n      0xd0125152\n      eq\n      tag_39\n      jumpi\n      dup1\n      0xd20b6ee7\n      eq\n      tag_40\n      jumpi\n      dup1\n      0xd547cfb7\n      eq\n      tag_41\n      jumpi\n      dup1\n      0xdbe0b21c\n      eq\n      tag_42\n      jumpi\n      jump(tag_1)\n    tag_50:\n      dup1\n      0x963bfe12\n      gt\n      tag_52\n      jumpi\n      dup1\n      0x963bfe12\n      eq\n      tag_31\n      jumpi\n      dup1\n      0x98995f77\n      eq\n      tag_32\n      jumpi\n      dup1\n      0xa05cc559\n      eq\n      tag_33\n      jumpi\n      dup1\n      0xa3301173\n      eq\n      tag_34\n      jumpi\n      dup1\n      0xa7cc0136\n      eq\n      tag_35\n      jumpi\n      dup1\n      0xad715f2e\n      eq\n      tag_36\n      jumpi\n      jump(tag_1)\n    tag_52:\n      dup1\n      0x821abc2d\n      eq\n      tag_25\n      jumpi\n      dup1\n      0x830d4091\n      eq\n      tag_26\n      jumpi\n      dup1\n      0x854f9db9\n      eq\n      tag_27\n      jumpi\n      dup1\n      0x8fca4dbe\n      eq\n      tag_28\n      jumpi\n      dup1\n      0x9451c99a\n      eq\n      tag_29\n      jumpi\n      dup1\n      0x95d89b41\n      eq\n      tag_30\n      jumpi\n      jump(tag_1)\n    tag_49:\n      dup1\n      0x39b37ab0\n      gt\n      tag_53\n      jumpi\n      dup1\n      0x4f4979ed\n      gt\n      tag_54\n      jumpi\n      dup1\n      0x4f4979ed\n      eq\n      tag_19\n      jumpi\n      dup1\n      0x5b43bc99\n      eq\n      tag_20\n      jumpi\n      dup1\n      0x6c8b703f\n      eq\n      tag_21\n      jumpi\n      dup1\n      0x6ff97f1d\n      eq\n      tag_22\n      jumpi\n      dup1\n      0x74e24367\n      eq\n      tag_23\n      jumpi\n      dup1\n      0x810536ec\n      eq\n      tag_24\n      jumpi\n      jump(tag_1)\n    tag_54:\n      dup1\n      0x39b37ab0\n      eq\n      tag_13\n      jumpi\n      dup1\n      0x40e02f5c\n      eq\n      tag_14\n      jumpi\n      dup1\n      0x41bb0559\n      eq\n      tag_15\n      jumpi\n      dup1\n      0x44faf255\n      eq\n      tag_16\n      jumpi\n      dup1\n      0x47f69eba\n      eq\n      tag_17\n      jumpi\n      dup1\n      0x49a0a50e\n      eq\n      tag_18\n      jumpi\n      jump(tag_1)\n    tag_53:\n      dup1\n      0x247c6ce0\n      gt\n      tag_55\n      jumpi\n      dup1\n      0x247c6ce0\n      eq\n      tag_7\n      jumpi\n      dup1\n      0x31413efc\n      eq\n      tag_8\n      jumpi\n      dup1\n      0x32b07b43\n      eq\n      tag_9\n      jumpi\n      dup1\n      0x33171809\n      eq\n      tag_10\n      jumpi\n      dup1\n      0x345e7b28\n      eq\n      tag_11\n      jumpi\n      dup1\n      0x3802497b\n      eq\n      tag_12\n      jumpi\n      jump(tag_1)\n    tag_55:\n      dup1\n      0x06fdde03\n      eq\n      tag_2\n      jumpi\n      dup1\n      0x071bc71c\n      eq\n      tag_3\n      jumpi\n      dup1\n      0x13c19ff6\n      eq\n      tag_4\n      jumpi\n      dup1\n      0x19f86200\n      eq\n      tag_5\n      jumpi\n      dup1\n      0x21b0ed7d\n      eq\n      tag_6\n      jumpi\n    tag_1:\n      revert(0x00, 0x00)\n        /* \"contracts/storage/LibSMElegendaryStorage.sol\":3250:3335  function name() external view returns(string memory){return _getStorage(SLOT)._name;} */\n    tag_2:\n      tag_56\n      tag_57\n      jump\t// in\n    tag_56:\n      mload(0x40)\n      tag_58\n      swap2\n      swap1\n      tag_59\n      jump\t// in\n    tag_58:\n      mload(0x40)\n      dup1\n      swap2\n      sub\n      swap1\n      return\n        /* \"contracts/storage/LibSMElegendaryStorage.sol\":10916:11968  function removeTokenFromOwnerEnumeration(address from, uint256 tokenId, uint256 lastTokenIndex) external {... */\n    tag_3:\n      dup2\n      dup1\n      iszero\n      tag_60\n      jumpi\n      revert(0x00, 0x00)\n    tag_60:\n      pop\n      tag_61\n      0x04\n      dup1\n      calldatasize\n      sub\n      dup2\n      add\n      swap1\n      tag_62\n      swap2\n      swap1\n      tag_63\n      jump\t// in\n    tag_62:\n      tag_64\n      jump\t// in\n    tag_61:\n      stop\n        /* \"contracts/storage/LibSMElegendaryStorage.sol\":5193:5325  function _tokenApprovals(uint256 _tokenId, address _address) external{_getStorage(SLOT)._tokenApprovals[_tokenId].value = _address;} */\n    tag_4:\n      dup2\n      dup1\n      iszero\n      tag_65\n      jumpi\n      revert(0x00, 0x00)\n    tag_65:\n      pop\n      tag_66\n      0x04\n      dup1\n      calldatasize\n      sub\n      dup2\n      add\n      swap1\n      tag_67\n      swap2\n      swap1\n      tag_68\n      jump\t// in\n    tag_67:\n      tag_69\n      jump\t// in\n    tag_66:\n      stop\n        /* \"contracts/storage/LibSMElegendaryStorage.sol\":6638:6738  function genesislistRoot() external view returns(bytes32){return _getStorage(SLOT).genesislistRoot;} */\n    tag_5:\n      tag_70\n      tag_71\n      jump\t// in\n    tag_70:\n      mload(0x40)\n      tag_72\n      swap2\n      swap1\n      tag_73\n      jump\t// in\n    tag_72:\n      mload(0x40)\n      dup1\n      swap2\n      sub\n      swap1\n      return\n        /* \"contracts/storage/LibSMElegendaryStorage.sol\":4461:4589  function _packedAddressData(address _owner) external view returns(uint256){return _getStorage(SLOT)._packedAddressData[_owner];} */\n    tag_6:\n      tag_74\n      0x04\n      dup1\n      calldatasize\n      sub\n      dup2\n      add\n      swap1\n      tag_75\n      swap2\n      swap1\n      tag_76\n      jump\t// in\n    tag_75:\n      tag_77\n      jump\t// in\n    tag_74:\n      mload(0x40)\n      tag_78\n      swap2\n      swap1\n      tag_79\n      jump\t// in\n    tag_78:\n      mload(0x40)\n      dup1\n      swap2\n      sub\n      swap1\n      return\n        /* \"contracts/storage/LibSMElegendaryStorage.sol\":8074:8176  function epiclistRoot(bytes32 _epiclistRoot) external{_getStorage(SLOT).epiclistRoot = _epiclistRoot;} */\n    tag_7:\n      dup2\n      dup1\n      iszero\n      tag_80\n      jumpi\n      revert(0x00, 0x00)\n    tag_80:\n      pop\n      tag_81\n      0x04\n      dup1\n      calldatasize\n      sub\n      dup2\n      add\n      swap1\n      tag_82\n      swap2\n      swap1\n      tag_83\n      jump\t// in\n    tag_82:\n      tag_84\n      jump\t// in\n    tag_81:\n      stop\n        /* \"contracts/storage/LibSMElegendaryStorage.sol\":4887:5039  function _packedAddressDataDecr(address _owner) external{_getStorage(SLOT)._packedAddressData[_owner] = _getStorage(SLOT)._packedAddressData[_owner]-1;} */\n    tag_8:\n      dup2\n      dup1\n      iszero\n      tag_85\n      jumpi\n      revert(0x00, 0x00)\n    tag_85:\n      pop\n      tag_86\n      0x04\n      dup1\n      calldatasize\n      sub\n      dup2\n      add\n      swap1\n      tag_87\n      swap2\n      swap1\n      tag_76\n      jump\t// in\n    tag_87:\n      tag_88\n      jump\t// in\n    tag_86:\n      stop\n        /* \"contracts/storage/LibSMElegendaryStorage.sol\":3913:3998  function _startTokenId(uint256 _id) external {_getStorage(SLOT)._startTokenId = _id;} */\n    tag_9:\n      dup2\n      dup1\n      iszero\n      tag_89\n      jumpi\n      revert(0x00, 0x00)\n    tag_89:\n      pop\n      tag_90\n      0x04\n      dup1\n      calldatasize\n      sub\n      dup2\n      add\n      swap1\n      tag_91\n      swap2\n      swap1\n      tag_92\n      jump\t// in\n    tag_91:\n      tag_93\n      jump\t// in\n    tag_90:\n      stop\n        /* \"contracts/storage/LibSMElegendaryStorage.sol\":6848:6942  function epiclistRoot() external view returns(bytes32){return _getStorage(SLOT).epiclistRoot;} */\n    tag_10:\n      tag_94\n      tag_95\n      jump\t// in\n    tag_94:\n      mload(0x40)\n      tag_96\n      swap2\n      swap1\n      tag_73\n      jump\t// in\n    tag_96:\n      mload(0x40)\n      dup1\n      swap2\n      sub\n      swap1\n      return\n        /* \"contracts/storage/LibSMElegendaryStorage.sol\":3714:3805  function _currentIndex(uint256 _index) external {_getStorage(SLOT)._currentIndex = _index;} */\n    tag_11:\n      dup2\n      dup1\n      iszero\n      tag_97\n      jumpi\n      revert(0x00, 0x00)\n    tag_97:\n      pop\n      tag_98\n      0x04\n      dup1\n      calldatasize\n      sub\n      dup2\n      add\n      swap1\n      tag_99\n      swap2\n      swap1\n      tag_92\n      jump\t// in\n    tag_99:\n      tag_100\n      jump\t// in\n    tag_98:\n      stop\n        /* \"contracts/storage/LibSMElegendaryStorage.sol\":7838:7952  function genesislistRoot(bytes32 _genesislistRoot) external{_getStorage(SLOT).genesislistRoot = _genesislistRoot;} */\n    tag_12:\n      dup2\n      dup1\n      iszero\n      tag_101\n      jumpi\n      revert(0x00, 0x00)\n    tag_101:\n      pop\n      tag_102\n      0x04\n      dup1\n      calldatasize\n      sub\n      dup2\n      add\n      swap1\n      tag_103\n      swap2\n      swap1\n      tag_83\n      jump\t// in\n    tag_103:\n      tag_104\n      jump\t// in\n    tag_102:\n      stop\n        /* \"contracts/storage/LibSMElegendaryStorage.sol\":8182:8248  function fee(uint256 _fee) external{_getStorage(SLOT).fee = _fee;} */\n    tag_13:\n      dup2\n      dup1\n      iszero\n      tag_105\n      jumpi\n      revert(0x00, 0x00)\n    tag_105:\n      pop\n      tag_106\n      0x04\n      dup1\n      calldatasize\n      sub\n      dup2\n      add\n      swap1\n      tag_107\n      swap2\n      swap1\n      tag_92\n      jump\t// in\n    tag_107:\n      tag_108\n      jump\t// in\n    tag_106:\n      stop\n        /* \"contracts/storage/LibSMElegendaryStorage.sol\":8670:9872  function removeTokenFromAllTokensEnumeration(uint256 tokenId) external {... */\n    tag_14:\n      dup2\n      dup1\n      iszero\n      tag_109\n      jumpi\n      revert(0x00, 0x00)\n    tag_109:\n      pop\n      tag_110\n      0x04\n      dup1\n      calldatasize\n      sub\n      dup2\n      add\n      swap1\n      tag_111\n      swap2\n      swap1\n      tag_92\n      jump\t// in\n    tag_111:\n      tag_112\n      jump\t// in\n    tag_110:\n      stop\n        /* \"contracts/storage/LibSMElegendaryStorage.sol\":3520:3606  function symbol(string memory _symbol) external {_getStorage(SLOT)._symbol = _symbol;} */\n    tag_15:\n      dup2\n      dup1\n      iszero\n      tag_113\n      jumpi\n      revert(0x00, 0x00)\n    tag_113:\n      pop\n      tag_114\n      0x04\n      dup1\n      calldatasize\n      sub\n      dup2\n      add\n      swap1\n      tag_115\n      swap2\n      swap1\n      tag_116\n      jump\t// in\n    tag_115:\n      tag_117\n      jump\t// in\n    tag_114:\n      stop\n        /* \"contracts/storage/LibSMElegendaryStorage.sol\":4004:4098  function _burnCounter() external view returns(uint256){return _getStorage(SLOT)._burnCounter;} */\n    tag_16:\n      tag_118\n      tag_119\n      jump\t// in\n    tag_118:\n      mload(0x40)\n      tag_120\n      swap2\n      swap1\n      tag_79\n      jump\t// in\n    tag_120:\n      mload(0x40)\n      dup1\n      swap2\n      sub\n      swap1\n      return\n        /* \"contracts/storage/LibSMElegendaryStorage.sol\":4193:4323  function _packedOwnerships(uint256 _tokenId) external view returns(uint256){return _getStorage(SLOT)._packedOwnerships[_tokenId];} */\n    tag_17:\n      tag_121\n      0x04\n      dup1\n      calldatasize\n      sub\n      dup2\n      add\n      swap1\n      tag_122\n      swap2\n      swap1\n      tag_92\n      jump\t// in\n    tag_122:\n      tag_123\n      jump\t// in\n    tag_121:\n      mload(0x40)\n      tag_124\n      swap2\n      swap1\n      tag_79\n      jump\t// in\n    tag_124:\n      mload(0x40)\n      dup1\n      swap2\n      sub\n      swap1\n      return\n        /* \"contracts/storage/LibSMElegendaryStorage.sol\":7564:7702  function ownedTokens(address _owner, uint256 _index, uint256 _tokenId) external{_getStorage(SLOT).ownedTokens[_owner][_index] = _tokenId;} */\n    tag_18:\n      dup2\n      dup1\n      iszero\n      tag_125\n      jumpi\n      revert(0x00, 0x00)\n    tag_125:\n      pop\n      tag_126\n      0x04\n      dup1\n      calldatasize\n      sub\n      dup2\n      add\n      swap1\n      tag_127\n      swap2\n      swap1\n      tag_63\n      jump\t// in\n    tag_127:\n      tag_128\n      jump\t// in\n    tag_126:\n      stop\n        /* \"contracts/storage/LibSMElegendaryStorage.sol\":12269:12492  function addTokenToOwnerEnumeration(address to, uint256 tokenId, uint256 length) external {... */\n    tag_19:\n      dup2\n      dup1\n      iszero\n      tag_129\n      jumpi\n      revert(0x00, 0x00)\n    tag_129:\n      pop\n      tag_130\n      0x04\n      dup1\n      calldatasize\n      sub\n      dup2\n      add\n      swap1\n      tag_131\n      swap2\n      swap1\n      tag_63\n      jump\t// in\n    tag_131:\n      tag_132\n      jump\t// in\n    tag_130:\n      stop\n        /* \"contracts/storage/LibSMElegendaryStorage.sol\":3341:3419  function name(string memory _name) external {_getStorage(SLOT)._name = _name;} */\n    tag_20:\n      dup2\n      dup1\n      iszero\n      tag_133\n      jumpi\n      revert(0x00, 0x00)\n    tag_133:\n      pop\n      tag_134\n      0x04\n      dup1\n      calldatasize\n      sub\n      dup2\n      add\n      swap1\n      tag_135\n      swap2\n      swap1\n      tag_116\n      jump\t// in\n    tag_135:\n      tag_136\n      jump\t// in\n    tag_134:\n      stop\n        /* \"contracts/storage/LibSMElegendaryStorage.sol\":6139:6257  function tokenURIs(uint256 tokenId) external view returns(string memory){return _getStorage(SLOT).tokenURIs[tokenId];} */\n    tag_21:\n      tag_137\n      0x04\n      dup1\n      calldatasize\n      sub\n      dup2\n      add\n      swap1\n      tag_138\n      swap2\n      swap1\n      tag_92\n      jump\t// in\n    tag_138:\n      tag_139\n      jump\t// in\n    tag_137:\n      mload(0x40)\n      tag_140\n      swap2\n      swap1\n      tag_59\n      jump\t// in\n    tag_140:\n      mload(0x40)\n      dup1\n      swap2\n      sub\n      swap1\n      return\n        /* \"contracts/storage/LibSMElegendaryStorage.sol\":6535:6632  function allTokens() external view returns(uint256[] memory){return _getStorage(SLOT).allTokens;} */\n    tag_22:\n      tag_141\n      tag_142\n      jump\t// in\n    tag_141:\n      mload(0x40)\n      tag_143\n      swap2\n      swap1\n      tag_144\n      jump\t// in\n    tag_143:\n      mload(0x40)\n      dup1\n      swap2\n      sub\n      swap1\n      return\n        /* \"contracts/storage/LibSMElegendaryStorage.sol\":6403:6529  function ownedTokensIndex(uint256 tokenId) external view returns(uint256){return _getStorage(SLOT).ownedTokensIndex[tokenId];} */\n    tag_23:\n      tag_145\n      0x04\n      dup1\n      calldatasize\n      sub\n      dup2\n      add\n      swap1\n      tag_146\n      swap2\n      swap1\n      tag_92\n      jump\t// in\n    tag_146:\n      tag_147\n      jump\t// in\n    tag_145:\n      mload(0x40)\n      tag_148\n      swap2\n      swap1\n      tag_79\n      jump\t// in\n    tag_148:\n      mload(0x40)\n      dup1\n      swap2\n      sub\n      swap1\n      return\n        /* \"contracts/storage/LibSMElegendaryStorage.sol\":5743:5880  function _spotMintedIncr() external {uint256 _spotMinted = _getStorage(SLOT)._spotMinted; _getStorage(SLOT)._spotMinted = _spotMinted+1;} */\n    tag_24:\n      dup2\n      dup1\n      iszero\n      tag_149\n      jumpi\n      revert(0x00, 0x00)\n    tag_149:\n      pop\n      tag_150\n      tag_151\n      jump\t// in\n    tag_150:\n      stop\n        /* \"contracts/storage/LibSMElegendaryStorage.sol\":7308:7428  function defaultTokenURI(string memory _defaultTokenURI) external{_getStorage(SLOT).defaultTokenURI = _defaultTokenURI;} */\n    tag_25:\n      dup2\n      dup1\n      iszero\n      tag_152\n      jumpi\n      revert(0x00, 0x00)\n    tag_152:\n      pop\n      tag_153\n      0x04\n      dup1\n      calldatasize\n      sub\n      dup2\n      add\n      swap1\n      tag_154\n      swap2\n      swap1\n      tag_116\n      jump\t// in\n    tag_154:\n      tag_155\n      jump\t// in\n    tag_153:\n      stop\n        /* \"contracts/storage/LibSMElegendaryStorage.sol\":5488:5639  function _operatorApprovals(address owner, address operator, bool approved) external{_getStorage(SLOT)._operatorApprovals[owner][operator] = approved;} */\n    tag_26:\n      dup2\n      dup1\n      iszero\n      tag_156\n      jumpi\n      revert(0x00, 0x00)\n    tag_156:\n      pop\n      tag_157\n      0x04\n      dup1\n      calldatasize\n      sub\n      dup2\n      add\n      swap1\n      tag_158\n      swap2\n      swap1\n      tag_159\n      jump\t// in\n    tag_158:\n      tag_160\n      jump\t// in\n    tag_157:\n      stop\n        /* \"contracts/storage/LibSMElegendaryStorage.sol\":7958:8068  function legendlistRoot(bytes32 _legendlistRoot) external{_getStorage(SLOT).legendlistRoot = _legendlistRoot;} */\n    tag_27:\n      dup2\n      dup1\n      iszero\n      tag_161\n      jumpi\n      revert(0x00, 0x00)\n    tag_161:\n      pop\n      tag_162\n      0x04\n      dup1\n      calldatasize\n      sub\n      dup2\n      add\n      swap1\n      tag_163\n      swap2\n      swap1\n      tag_83\n      jump\t// in\n    tag_163:\n      tag_164\n      jump\t// in\n    tag_162:\n      stop\n        /* \"contracts/storage/LibSMElegendaryStorage.sol\":4104:4187  function _burnCounter(uint256 _id) external {_getStorage(SLOT)._burnCounter = _id;} */\n    tag_28:\n      dup2\n      dup1\n      iszero\n      tag_165\n      jumpi\n      revert(0x00, 0x00)\n    tag_165:\n      pop\n      tag_166\n      0x04\n      dup1\n      calldatasize\n      sub\n      dup2\n      add\n      swap1\n      tag_167\n      swap2\n      swap1\n      tag_92\n      jump\t// in\n    tag_167:\n      tag_168\n      jump\t// in\n    tag_166:\n      stop\n        /* \"contracts/storage/LibSMElegendaryStorage.sol\":3612:3708  function _currentIndex() external view returns(uint256){return _getStorage(SLOT)._currentIndex;} */\n    tag_29:\n      tag_169\n      tag_170\n      jump\t// in\n    tag_169:\n      mload(0x40)\n      tag_171\n      swap2\n      swap1\n      tag_79\n      jump\t// in\n    tag_171:\n      mload(0x40)\n      dup1\n      swap2\n      sub\n      swap1\n      return\n        /* \"contracts/storage/LibSMElegendaryStorage.sol\":3425:3514  function symbol() external view returns(string memory){return _getStorage(SLOT)._symbol;} */\n    tag_30:\n      tag_172\n      tag_173\n      jump\t// in\n    tag_172:\n      mload(0x40)\n      tag_174\n      swap2\n      swap1\n      tag_59\n      jump\t// in\n    tag_174:\n      mload(0x40)\n      dup1\n      swap2\n      sub\n      swap1\n      return\n        /* \"contracts/storage/LibSMElegendaryStorage.sol\":6027:6133  function defaultTokenURI() external view returns(string memory){return _getStorage(SLOT).defaultTokenURI;} */\n    tag_31:\n      tag_175\n      tag_176\n      jump\t// in\n    tag_175:\n      mload(0x40)\n      tag_177\n      swap2\n      swap1\n      tag_59\n      jump\t// in\n    tag_177:\n      mload(0x40)\n      dup1\n      swap2\n      sub\n      swap1\n      return\n        /* \"contracts/storage/LibSMElegendaryStorage.sol\":3811:3907  function _startTokenId() external view returns(uint256){return _getStorage(SLOT)._startTokenId;} */\n    tag_32:\n      tag_178\n      tag_179\n      jump\t// in\n    tag_178:\n      mload(0x40)\n      tag_180\n      swap2\n      swap1\n      tag_79\n      jump\t// in\n    tag_180:\n      mload(0x40)\n      dup1\n      swap2\n      sub\n      swap1\n      return\n        /* \"contracts/storage/LibSMElegendaryStorage.sol\":7194:7302  function baseTokenURI(string memory _baseTokenURI) external{_getStorage(SLOT).baseTokenURI = _baseTokenURI;} */\n    tag_33:\n      dup2\n      dup1\n      iszero\n      tag_181\n      jumpi\n      revert(0x00, 0x00)\n    tag_181:\n      pop\n      tag_182\n      0x04\n      dup1\n      calldatasize\n      sub\n      dup2\n      add\n      swap1\n      tag_183\n      swap2\n      swap1\n      tag_116\n      jump\t// in\n    tag_183:\n      tag_184\n      jump\t// in\n    tag_182:\n      stop\n        /* \"contracts/storage/LibSMElegendaryStorage.sol\":4595:4723  function _packedAddressData(address _owner, uint256 _tokenId) external{_getStorage(SLOT)._packedAddressData[_owner] = _tokenId;} */\n    tag_34:\n      dup2\n      dup1\n      iszero\n      tag_185\n      jumpi\n      revert(0x00, 0x00)\n    tag_185:\n      pop\n      tag_186\n      0x04\n      dup1\n      calldatasize\n      sub\n      dup2\n      add\n      swap1\n      tag_187\n      swap2\n      swap1\n      tag_188\n      jump\t// in\n    tag_187:\n      tag_189\n      jump\t// in\n    tag_186:\n      stop\n        /* \"contracts/storage/LibSMElegendaryStorage.sol\":5045:5187  function _tokenApprovals(uint256 _tokenId) external view returns(TokenApprovalRef memory){return _getStorage(SLOT)._tokenApprovals[_tokenId];} */\n    tag_35:\n      tag_190\n      0x04\n      dup1\n      calldatasize\n      sub\n      dup2\n      add\n      swap1\n      tag_191\n      swap2\n      swap1\n      tag_92\n      jump\t// in\n    tag_191:\n      tag_192\n      jump\t// in\n    tag_190:\n      mload(0x40)\n      tag_193\n      swap2\n      swap1\n      tag_194\n      jump\t// in\n    tag_193:\n      mload(0x40)\n      dup1\n      swap2\n      sub\n      swap1\n      return\n        /* \"contracts/storage/LibSMElegendaryStorage.sol\":7708:7832  function ownedTokensIndex(uint256 _tokenId, uint256 _index) external{_getStorage(SLOT).ownedTokensIndex[_tokenId] = _index;} */\n    tag_36:\n      dup2\n      dup1\n      iszero\n      tag_195\n      jumpi\n      revert(0x00, 0x00)\n    tag_195:\n      pop\n      tag_196\n      0x04\n      dup1\n      calldatasize\n      sub\n      dup2\n      add\n      swap1\n      tag_197\n      swap2\n      swap1\n      tag_198\n      jump\t// in\n    tag_197:\n      tag_199\n      jump\t// in\n    tag_196:\n      stop\n        /* \"contracts/storage/LibSMElegendaryStorage.sol\":8254:8371  function guaranteed_minted(address _owner, bool _bool) external{_getStorage(SLOT).guaranteed_minted[_owner] = _bool;} */\n    tag_37:\n      dup2\n      dup1\n      iszero\n      tag_200\n      jumpi\n      revert(0x00, 0x00)\n    tag_200:\n      pop\n      tag_201\n      0x04\n      dup1\n      calldatasize\n      sub\n      dup2\n      add\n      swap1\n      tag_202\n      swap2\n      swap1\n      tag_203\n      jump\t// in\n    tag_202:\n      tag_204\n      jump\t// in\n    tag_201:\n      stop\n        /* \"contracts/storage/LibSMElegendaryStorage.sol\":7030:7151  function guaranteed_minted(address owner) external view returns(bool){return _getStorage(SLOT).guaranteed_minted[owner];} */\n    tag_38:\n      tag_205\n      0x04\n      dup1\n      calldatasize\n      sub\n      dup2\n      add\n      swap1\n      tag_206\n      swap2\n      swap1\n      tag_76\n      jump\t// in\n    tag_206:\n      tag_207\n      jump\t// in\n    tag_205:\n      mload(0x40)\n      tag_208\n      swap2\n      swap1\n      tag_209\n      jump\t// in\n    tag_208:\n      mload(0x40)\n      dup1\n      swap2\n      sub\n      swap1\n      return\n        /* \"contracts/storage/LibSMElegendaryStorage.sol\":4729:4881  function _packedAddressDataIncr(address _owner) external{_getStorage(SLOT)._packedAddressData[_owner] = _getStorage(SLOT)._packedAddressData[_owner]+1;} */\n    tag_39:\n      dup2\n      dup1\n      iszero\n      tag_210\n      jumpi\n      revert(0x00, 0x00)\n    tag_210:\n      pop\n      tag_211\n      0x04\n      dup1\n      calldatasize\n      sub\n      dup2\n      add\n      swap1\n      tag_212\n      swap2\n      swap1\n      tag_76\n      jump\t// in\n    tag_212:\n      tag_213\n      jump\t// in\n    tag_211:\n      stop\n        /* \"contracts/storage/LibSMElegendaryStorage.sol\":5645:5737  function _spotMinted() external view returns(uint256){return _getStorage(SLOT)._spotMinted;} */\n    tag_40:\n      tag_214\n      tag_215\n      jump\t// in\n    tag_214:\n      mload(0x40)\n      tag_216\n      swap2\n      swap1\n      tag_79\n      jump\t// in\n    tag_216:\n      mload(0x40)\n      dup1\n      swap2\n      sub\n      swap1\n      return\n        /* \"contracts/storage/LibSMElegendaryStorage.sol\":5921:6021  function baseTokenURI() external view returns(string memory){return _getStorage(SLOT).baseTokenURI;} */\n    tag_41:\n      tag_217\n      tag_218\n      jump\t// in\n    tag_217:\n      mload(0x40)\n      tag_219\n      swap2\n      swap1\n      tag_59\n      jump\t// in\n    tag_219:\n      mload(0x40)\n      dup1\n      swap2\n      sub\n      swap1\n      return\n        /* \"contracts/storage/LibSMElegendaryStorage.sol\":10074:10289  function addTokenToAllTokensEnumeration(uint256 tokenId) external {... */\n    tag_42:\n      dup2\n      dup1\n      iszero\n      tag_220\n      jumpi\n      revert(0x00, 0x00)\n    tag_220:\n      pop\n      tag_221\n      0x04\n      dup1\n      calldatasize\n      sub\n      dup2\n      add\n      swap1\n      tag_222\n      swap2\n      swap1\n      tag_92\n      jump\t// in\n    tag_222:\n      tag_223\n      jump\t// in\n    tag_221:\n      stop\n        /* \"contracts/storage/LibSMElegendaryStorage.sol\":6948:7024  function fee() external view returns(uint256){return _getStorage(SLOT).fee;} */\n    tag_43:\n      tag_224\n      tag_225\n      jump\t// in\n    tag_224:\n      mload(0x40)\n      tag_226\n      swap2\n      swap1\n      tag_79\n      jump\t// in\n    tag_226:\n      mload(0x40)\n      dup1\n      swap2\n      sub\n      swap1\n      return\n        /* \"contracts/storage/LibSMElegendaryStorage.sol\":7434:7558  function tokenURIs(string memory _tokenURIs, uint256 _tokenId) external{_getStorage(SLOT).tokenURIs[_tokenId] = _tokenURIs;} */\n    tag_44:\n      dup2\n      dup1\n      iszero\n      tag_227\n      jumpi\n      revert(0x00, 0x00)\n    tag_227:\n      pop\n      tag_228\n      0x04\n      dup1\n      calldatasize\n      sub\n      dup2\n      add\n      swap1\n      tag_229\n      swap2\n      swap1\n      tag_230\n      jump\t// in\n    tag_229:\n      tag_231\n      jump\t// in\n    tag_228:\n      stop\n        /* \"contracts/storage/LibSMElegendaryStorage.sol\":6263:6397  function ownedTokens(address owner, uint256 index) external view returns(uint256){return _getStorage(SLOT).ownedTokens[owner][index];} */\n    tag_45:\n      tag_232\n      0x04\n      dup1\n      calldatasize\n      sub\n      dup2\n      add\n      swap1\n      tag_233\n      swap2\n      swap1\n      tag_188\n      jump\t// in\n    tag_233:\n      tag_234\n      jump\t// in\n    tag_232:\n      mload(0x40)\n      tag_235\n      swap2\n      swap1\n      tag_79\n      jump\t// in\n    tag_235:\n      mload(0x40)\n      dup1\n      swap2\n      sub\n      swap1\n      return\n        /* \"contracts/storage/LibSMElegendaryStorage.sol\":4329:4455  function _packedOwnerships(uint256 _tokenId, uint256 _index) external{_getStorage(SLOT)._packedOwnerships[_tokenId] = _index;} */\n    tag_46:\n      dup2\n      dup1\n      iszero\n      tag_236\n      jumpi\n      revert(0x00, 0x00)\n    tag_236:\n      pop\n      tag_237\n      0x04\n      dup1\n      calldatasize\n      sub\n      dup2\n      add\n      swap1\n      tag_238\n      swap2\n      swap1\n      tag_198\n      jump\t// in\n    tag_238:\n      tag_239\n      jump\t// in\n    tag_237:\n      stop\n        /* \"contracts/storage/LibSMElegendaryStorage.sol\":5331:5482  function _operatorApprovals(address owner, address operator) external view returns(bool){return _getStorage(SLOT)._operatorApprovals[owner][operator];} */\n    tag_47:\n      tag_240\n      0x04\n      dup1\n      calldatasize\n      sub\n      dup2\n      add\n      swap1\n      tag_241\n      swap2\n      swap1\n      tag_242\n      jump\t// in\n    tag_241:\n      tag_243\n      jump\t// in\n    tag_240:\n      mload(0x40)\n      tag_244\n      swap2\n      swap1\n      tag_209\n      jump\t// in\n    tag_244:\n      mload(0x40)\n      dup1\n      swap2\n      sub\n      swap1\n      return\n        /* \"contracts/storage/LibSMElegendaryStorage.sol\":6744:6842  function legendlistRoot() external view returns(bytes32){return _getStorage(SLOT).legendlistRoot;} */\n    tag_48:\n      tag_245\n      tag_246\n      jump\t// in\n    tag_245:\n      mload(0x40)\n      tag_247\n      swap2\n      swap1\n      tag_73\n      jump\t// in\n    tag_247:\n      mload(0x40)\n      dup1\n      swap2\n      sub\n      swap1\n      return\n        /* \"contracts/storage/LibSMElegendaryStorage.sol\":3250:3335  function name() external view returns(string memory){return _getStorage(SLOT)._name;} */\n    tag_57:\n        /* \"contracts/storage/LibSMElegendaryStorage.sol\":3288:3301  string memory */\n      0x60\n        /* \"contracts/storage/LibSMElegendaryStorage.sol\":3310:3327  _getStorage(SLOT) */\n      tag_249\n        /* \"contracts/storage/LibSMElegendaryStorage.sol\":407:428  bytes('SMElegendary') */\n      mload(0x40)\n      dup1\n      0x40\n      add\n      0x40\n      mstore\n      dup1\n      0x0c\n      dup2\n      mstore\n      0x20\n      add\n      0x534d456c6567656e646172790000000000000000000000000000000000000000\n      dup2\n      mstore\n      pop\n        /* \"contracts/storage/LibSMElegendaryStorage.sol\":397:429  keccak256(bytes('SMElegendary')) */\n      dup1\n      mload\n      swap1\n      0x20\n      add\n      keccak256\n        /* \"contracts/storage/LibSMElegendaryStorage.sol\":3310:3321  _getStorage */\n      tag_250\n        /* \"contracts/storage/LibSMElegendaryStorage.sol\":3310:3327  _getStorage(SLOT) */\n      jump\t// in\n    tag_249:\n        /* \"contracts/storage/LibSMElegendaryStorage.sol\":3310:3333  _getStorage(SLOT)._name */\n      0x0e\n      add\n        /* \"contracts/storage/LibSMElegendaryStorage.sol\":3303:3333  return _getStorage(SLOT)._name */\n      dup1\n      sload\n      tag_251\n      swap1\n      tag_252\n      jump\t// in\n    tag_251:\n      dup1\n      0x1f\n      add\n      0x20\n      dup1\n      swap2\n      div\n      mul\n      0x20\n      add\n      mload(0x40)\n      swap1\n      dup2\n      add\n      0x40\n      mstore\n      dup1\n      swap3\n      swap2\n      swap1\n      dup2\n      dup2\n      mstore\n      0x20\n      add\n      dup3\n      dup1\n      sload\n      tag_253\n      swap1\n      tag_252\n      jump\t// in\n    tag_253:\n      dup1\n      iszero\n      tag_254\n      jumpi\n      dup1\n      0x1f\n      lt\n      tag_255\n      jumpi\n      0x0100\n      dup1\n      dup4\n      sload\n      div\n      mul\n      dup4\n      mstore\n      swap2\n      0x20\n      add\n      swap2\n      jump(tag_254)\n    tag_255:\n      dup3\n      add\n      swap2\n      swap1\n      0x00\n      mstore\n      keccak256(0x00, 0x20)\n      swap1\n    tag_256:\n      dup2\n      sload\n      dup2\n      mstore\n      swap1\n      0x01\n      add\n      swap1\n      0x20\n      add\n      dup1\n      dup4\n      gt\n      tag_256\n      jumpi\n      dup3\n      swap1\n      sub\n      0x1f\n      and\n      dup3\n      add\n      swap2\n    tag_254:\n      pop\n      pop\n      pop\n      pop\n      pop\n      swap1\n      pop\n        /* \"contracts/storage/LibSMElegendaryStorage.sol\":3250:3335  function name() external view returns(string memory){return _getStorage(SLOT)._name;} */\n      swap1\n      jump\t// out\n        /* \"contracts/storage/LibSMElegendaryStorage.sol\":10916:11968  function removeTokenFromOwnerEnumeration(address from, uint256 tokenId, uint256 lastTokenIndex) external {... */\n    tag_64:\n        /* \"contracts/storage/LibSMElegendaryStorage.sol\":11206:11224  uint256 tokenIndex */\n      0x00\n        /* \"contracts/storage/LibSMElegendaryStorage.sol\":11227:11244  _getStorage(SLOT) */\n      tag_258\n        /* \"contracts/storage/LibSMElegendaryStorage.sol\":407:428  bytes('SMElegendary') */\n      mload(0x40)\n      dup1\n      0x40\n      add\n      0x40\n      mstore\n      dup1\n      0x0c\n      dup2\n      mstore\n      0x20\n      add\n      0x534d456c6567656e646172790000000000000000000000000000000000000000\n      dup2\n      mstore\n      pop\n        /* \"contracts/storage/LibSMElegendaryStorage.sol\":397:429  keccak256(bytes('SMElegendary')) */\n      dup1\n      mload\n      swap1\n      0x20\n      add\n      keccak256\n        /* \"contracts/storage/LibSMElegendaryStorage.sol\":11227:11238  _getStorage */\n      tag_250\n        /* \"contracts/storage/LibSMElegendaryStorage.sol\":11227:11244  _getStorage(SLOT) */\n      jump\t// in\n    tag_258:\n        /* \"contracts/storage/LibSMElegendaryStorage.sol\":11227:11261  _getStorage(SLOT).ownedTokensIndex */\n      0x04\n      add\n        /* \"contracts/storage/LibSMElegendaryStorage.sol\":11227:11270  _getStorage(SLOT).ownedTokensIndex[tokenId] */\n      0x00\n        /* \"contracts/storage/LibSMElegendaryStorage.sol\":11262:11269  tokenId */\n      dup5\n        /* \"contracts/storage/LibSMElegendaryStorage.sol\":11227:11270  _getStorage(SLOT).ownedTokensIndex[tokenId] */\n      dup2\n      mstore\n      0x20\n      add\n      swap1\n      dup2\n      mstore\n      0x20\n      add\n      0x00\n      keccak256\n      sload\n        /* \"contracts/storage/LibSMElegendaryStorage.sol\":11206:11270  uint256 tokenIndex = _getStorage(SLOT).ownedTokensIndex[tokenId] */\n      swap1\n      pop\n        /* \"contracts/storage/LibSMElegendaryStorage.sol\":11391:11405  lastTokenIndex */\n      dup2\n        /* \"contracts/storage/LibSMElegendaryStorage.sol\":11377:11387  tokenIndex */\n      dup2\n        /* \"contracts/storage/LibSMElegendaryStorage.sol\":11377:11405  tokenIndex != lastTokenIndex */\n      eq\n        /* \"contracts/storage/LibSMElegendaryStorage.sol\":11373:11752  if (tokenIndex != lastTokenIndex) {... */\n      tag_259\n      jumpi\n        /* \"contracts/storage/LibSMElegendaryStorage.sol\":11422:11441  uint256 lastTokenId */\n      0x00\n        /* \"contracts/storage/LibSMElegendaryStorage.sol\":11444:11461  _getStorage(SLOT) */\n      tag_260\n        /* \"contracts/storage/LibSMElegendaryStorage.sol\":407:428  bytes('SMElegendary') */\n      mload(0x40)\n      dup1\n      0x40\n      add\n      0x40\n      mstore\n      dup1\n      0x0c\n      dup2\n      mstore\n      0x20\n      add\n      0x534d456c6567656e646172790000000000000000000000000000000000000000\n      dup2\n      mstore\n      pop\n        /* \"contracts/storage/LibSMElegendaryStorage.sol\":397:429  keccak256(bytes('SMElegendary')) */\n      dup1\n      mload\n      swap1\n      0x20\n      add\n      keccak256\n        /* \"contracts/storage/LibSMElegendaryStorage.sol\":11444:11455  _getStorage */\n      tag_250\n        /* \"contracts/storage/LibSMElegendaryStorage.sol\":11444:11461  _getStorage(SLOT) */\n      jump\t// in\n    tag_260:\n        /* \"contracts/storage/LibSMElegendaryStorage.sol\":11444:11473  _getStorage(SLOT).ownedTokens */\n      0x03\n      add\n        /* \"contracts/storage/LibSMElegendaryStorage.sol\":11444:11479  _getStorage(SLOT).ownedTokens[from] */\n      0x00\n        /* \"contracts/storage/LibSMElegendaryStorage.sol\":11474:11478  from */\n      dup7\n        /* \"contracts/storage/LibSMElegendaryStorage.sol\":11444:11479  _getStorage(SLOT).ownedTokens[from] */\n      0xffffffffffffffffffffffffffffffffffffffff\n      and\n      0xffffffffffffffffffffffffffffffffffffffff\n      and\n      dup2\n      mstore\n      0x20\n      add\n      swap1\n      dup2\n      mstore\n      0x20\n      add\n      0x00\n      keccak256\n        /* \"contracts/storage/LibSMElegendaryStorage.sol\":11444:11495  _getStorage(SLOT).ownedTokens[from][lastTokenIndex] */\n      0x00\n        /* \"contracts/storage/LibSMElegendaryStorage.sol\":11480:11494  lastTokenIndex */\n      dup5\n        /* \"contracts/storage/LibSMElegendaryStorage.sol\":11444:11495  _getStorage(SLOT).ownedTokens[from][lastTokenIndex] */\n      dup2\n      mstore\n      0x20\n      add\n      swap1\n      dup2\n      mstore\n      0x20\n      add\n      0x00\n      keccak256\n      sload\n        /* \"contracts/storage/LibSMElegendaryStorage.sol\":11422:11495  uint256 lastTokenId = _getStorage(SLOT).ownedTokens[from][lastTokenIndex] */\n      swap1\n      pop\n        /* \"contracts/storage/LibSMElegendaryStorage.sol\":11562:11573  lastTokenId */\n      dup1\n        /* \"contracts/storage/LibSMElegendaryStorage.sol\":11512:11529  _getStorage(SLOT) */\n      tag_261\n        /* \"contracts/storage/LibSMElegendaryStorage.sol\":407:428  bytes('SMElegendary') */\n      mload(0x40)\n      dup1\n      0x40\n      add\n      0x40\n      mstore\n      dup1\n      0x0c\n      dup2\n      mstore\n      0x20\n      add\n      0x534d456c6567656e646172790000000000000000000000000000000000000000\n      dup2\n      mstore\n      pop\n        /* \"contracts/storage/LibSMElegendaryStorage.sol\":397:429  keccak256(bytes('SMElegendary')) */\n      dup1\n      mload\n      swap1\n      0x20\n      add\n      keccak256\n        /* \"contracts/storage/LibSMElegendaryStorage.sol\":11512:11523  _getStorage */\n      tag_250\n        /* \"contracts/storage/LibSMElegendaryStorage.sol\":11512:11529  _getStorage(SLOT) */\n      jump\t// in\n    tag_261:\n        /* \"contracts/storage/LibSMElegendaryStorage.sol\":11512:11541  _getStorage(SLOT).ownedTokens */\n      0x03\n      add\n        /* \"contracts/storage/LibSMElegendaryStorage.sol\":11512:11547  _getStorage(SLOT).ownedTokens[from] */\n      0x00\n        /* \"contracts/storage/LibSMElegendaryStorage.sol\":11542:11546  from */\n      dup8\n        /* \"contracts/storage/LibSMElegendaryStorage.sol\":11512:11547  _getStorage(SLOT).ownedTokens[from] */\n      0xffffffffffffffffffffffffffffffffffffffff\n      and\n      0xffffffffffffffffffffffffffffffffffffffff\n      and\n      dup2\n      mstore\n      0x20\n      add\n      swap1\n      dup2\n      mstore\n      0x20\n      add\n      0x00\n      keccak256\n        /* \"contracts/storage/LibSMElegendaryStorage.sol\":11512:11559  _getStorage(SLOT).ownedTokens[from][tokenIndex] */\n      0x00\n        /* \"contracts/storage/LibSMElegendaryStorage.sol\":11548:11558  tokenIndex */\n      dup5\n        /* \"contracts/storage/LibSMElegendaryStorage.sol\":11512:11559  _getStorage(SLOT).ownedTokens[from][tokenIndex] */\n      dup2\n      mstore\n      0x20\n      add\n      swap1\n      dup2\n      mstore\n      0x20\n      add\n      0x00\n      keccak256\n        /* \"contracts/storage/LibSMElegendaryStorage.sol\":11512:11573  _getStorage(SLOT).ownedTokens[from][tokenIndex] = lastTokenId */\n      dup2\n      swap1\n      sstore\n      pop\n        /* \"contracts/storage/LibSMElegendaryStorage.sol\":11696:11706  tokenIndex */\n      dup2\n        /* \"contracts/storage/LibSMElegendaryStorage.sol\":11646:11663  _getStorage(SLOT) */\n      tag_262\n        /* \"contracts/storage/LibSMElegendaryStorage.sol\":407:428  bytes('SMElegendary') */\n      mload(0x40)\n      dup1\n      0x40\n      add\n      0x40\n      mstore\n      dup1\n      0x0c\n      dup2\n      mstore\n      0x20\n      add\n      0x534d456c6567656e646172790000000000000000000000000000000000000000\n      dup2\n      mstore\n      pop\n        /* \"contracts/storage/LibSMElegendaryStorage.sol\":397:429  keccak256(bytes('SMElegendary')) */\n      dup1\n      mload\n      swap1\n      0x20\n      add\n      keccak256\n        /* \"contracts/storage/LibSMElegendaryStorage.sol\":11646:11657  _getStorage */\n      tag_250\n        /* \"contracts/storage/LibSMElegendaryStorage.sol\":11646:11663  _getStorage(SLOT) */\n      jump\t// in\n    tag_262:\n        /* \"contracts/storage/LibSMElegendaryStorage.sol\":11646:11680  _getStorage(SLOT).ownedTokensIndex */\n      0x04\n      add\n        /* \"contracts/storage/LibSMElegendaryStorage.sol\":11646:11693  _getStorage(SLOT).ownedTokensIndex[lastTokenId] */\n      0x00\n        /* \"contracts/storage/LibSMElegendaryStorage.sol\":11681:11692  lastTokenId */\n      dup4\n        /* \"contracts/storage/LibSMElegendaryStorage.sol\":11646:11693  _getStorage(SLOT).ownedTokensIndex[lastTokenId] */\n      dup2\n      mstore\n      0x20\n      add\n      swap1\n      dup2\n      mstore\n      0x20\n      add\n      0x00\n      keccak256\n        /* \"contracts/storage/LibSMElegendaryStorage.sol\":11646:11706  _getStorage(SLOT).ownedTokensIndex[lastTokenId] = tokenIndex */\n      dup2\n      swap1\n      sstore\n      pop\n        /* \"contracts/storage/LibSMElegendaryStorage.sol\":11407:11752  {... */\n      pop\n        /* \"contracts/storage/LibSMElegendaryStorage.sol\":11373:11752  if (tokenIndex != lastTokenIndex) {... */\n    tag_259:\n        /* \"contracts/storage/LibSMElegendaryStorage.sol\":11848:11865  _getStorage(SLOT) */\n      tag_263\n        /* \"contracts/storage/LibSMElegendaryStorage.sol\":407:428  bytes('SMElegendary') */\n      mload(0x40)\n      dup1\n      0x40\n      add\n      0x40\n      mstore\n      dup1\n      0x0c\n      dup2\n      mstore\n      0x20\n      add\n      0x534d456c6567656e646172790000000000000000000000000000000000000000\n      dup2\n      mstore\n      pop\n        /* \"contracts/storage/LibSMElegendaryStorage.sol\":397:429  keccak256(bytes('SMElegendary')) */\n      dup1\n      mload\n      swap1\n      0x20\n      add\n      keccak256\n        /* \"contracts/storage/LibSMElegendaryStorage.sol\":11848:11859  _getStorage */\n      tag_250\n        /* \"contracts/storage/LibSMElegendaryStorage.sol\":11848:11865  _getStorage(SLOT) */\n      jump\t// in\n    tag_263:\n        /* \"contracts/storage/LibSMElegendaryStorage.sol\":11848:11882  _getStorage(SLOT).ownedTokensIndex */\n      0x04\n      add\n        /* \"contracts/storage/LibSMElegendaryStorage.sol\":11848:11891  _getStorage(SLOT).ownedTokensIndex[tokenId] */\n      0x00\n        /* \"contracts/storage/LibSMElegendaryStorage.sol\":11883:11890  tokenId */\n      dup5\n        /* \"contracts/storage/LibSMElegendaryStorage.sol\":11848:11891  _getStorage(SLOT).ownedTokensIndex[tokenId] */\n      dup2\n      mstore\n      0x20\n      add\n      swap1\n      dup2\n      mstore\n      0x20\n      add\n      0x00\n      keccak256\n        /* \"contracts/storage/LibSMElegendaryStorage.sol\":11841:11891  delete _getStorage(SLOT).ownedTokensIndex[tokenId] */\n      0x00\n      swap1\n      sstore\n        /* \"contracts/storage/LibSMElegendaryStorage.sol\":11909:11926  _getStorage(SLOT) */\n      tag_264\n        /* \"contracts/storage/LibSMElegendaryStorage.sol\":407:428  bytes('SMElegendary') */\n      mload(0x40)\n      dup1\n      0x40\n      add\n      0x40\n      mstore\n      dup1\n      0x0c\n      dup2\n      mstore\n      0x20\n      add\n      0x534d456c6567656e646172790000000000000000000000000000000000000000\n      dup2\n      mstore\n      pop\n        /* \"contracts/storage/LibSMElegendaryStorage.sol\":397:429  keccak256(bytes('SMElegendary')) */\n      dup1\n      mload\n      swap1\n      0x20\n      add\n      keccak256\n        /* \"contracts/storage/LibSMElegendaryStorage.sol\":11909:11920  _getStorage */\n      tag_250\n        /* \"contracts/storage/LibSMElegendaryStorage.sol\":11909:11926  _getStorage(SLOT) */\n      jump\t// in\n    tag_264:\n        /* \"contracts/storage/LibSMElegendaryStorage.sol\":11909:11938  _getStorage(SLOT).ownedTokens */\n      0x03\n      add\n        /* \"contracts/storage/LibSMElegendaryStorage.sol\":11909:11944  _getStorage(SLOT).ownedTokens[from] */\n      0x00\n        /* \"contracts/storage/LibSMElegendaryStorage.sol\":11939:11943  from */\n      dup6\n        /* \"contracts/storage/LibSMElegendaryStorage.sol\":11909:11944  _getStorage(SLOT).ownedTokens[from] */\n      0xffffffffffffffffffffffffffffffffffffffff\n      and\n      0xffffffffffffffffffffffffffffffffffffffff\n      and\n      dup2\n      mstore\n      0x20\n      add\n      swap1\n      dup2\n      mstore\n      0x20\n      add\n      0x00\n      keccak256\n        /* \"contracts/storage/LibSMElegendaryStorage.sol\":11909:11960  _getStorage(SLOT).ownedTokens[from][lastTokenIndex] */\n      0x00\n        /* \"contracts/storage/LibSMElegendaryStorage.sol\":11945:11959  lastTokenIndex */\n      dup4\n        /* \"contracts/storage/LibSMElegendaryStorage.sol\":11909:11960  _getStorage(SLOT).ownedTokens[from][lastTokenIndex] */\n      dup2\n      mstore\n      0x20\n      add\n      swap1\n      dup2\n      mstore\n      0x20\n      add\n      0x00\n      keccak256\n        /* \"contracts/storage/LibSMElegendaryStorage.sol\":11902:11960  delete _getStorage(SLOT).ownedTokens[from][lastTokenIndex] */\n      0x00\n      swap1\n      sstore\n        /* \"contracts/storage/LibSMElegendaryStorage.sol\":11021:11968  {... */\n      pop\n        /* \"contracts/storage/LibSMElegendaryStorage.sol\":10916:11968  function removeTokenFromOwnerEnumeration(address from, uint256 tokenId, uint256 lastTokenIndex) external {... */\n      pop\n      pop\n      pop\n      jump\t// out\n        /* \"contracts/storage/LibSMElegendaryStorage.sol\":5193:5325  function _tokenApprovals(uint256 _tokenId, address _address) external{_getStorage(SLOT)._tokenApprovals[_tokenId].value = _address;} */\n    tag_69:\n        /* \"contracts/storage/LibSMElegendaryStorage.sol\":5315:5323  _address */\n      dup1\n        /* \"contracts/storage/LibSMElegendaryStorage.sol\":5263:5280  _getStorage(SLOT) */\n      tag_266\n        /* \"contracts/storage/LibSMElegendaryStorage.sol\":407:428  bytes('SMElegendary') */\n      mload(0x40)\n      dup1\n      0x40\n      add\n      0x40\n      mstore\n      dup1\n      0x0c\n      dup2\n      mstore\n      0x20\n      add\n      0x534d456c6567656e646172790000000000000000000000000000000000000000\n      dup2\n      mstore\n      pop\n        /* \"contracts/storage/LibSMElegendaryStorage.sol\":397:429  keccak256(bytes('SMElegendary')) */\n      dup1\n      mload\n      swap1\n      0x20\n      add\n      keccak256\n        /* \"contracts/storage/LibSMElegendaryStorage.sol\":5263:5274  _getStorage */\n      tag_250\n        /* \"contracts/storage/LibSMElegendaryStorage.sol\":5263:5280  _getStorage(SLOT) */\n      jump\t// in\n    tag_266:\n        /* \"contracts/storage/LibSMElegendaryStorage.sol\":5263:5296  _getStorage(SLOT)._tokenApprovals */\n      0x12\n      add\n        /* \"contracts/storage/LibSMElegendaryStorage.sol\":5263:5306  _getStorage(SLOT)._tokenApprovals[_tokenId] */\n      0x00\n        /* \"contracts/storage/LibSMElegendaryStorage.sol\":5297:5305  _tokenId */\n      dup5\n        /* \"contracts/storage/LibSMElegendaryStorage.sol\":5263:5306  _getStorage(SLOT)._tokenApprovals[_tokenId] */\n      dup2\n      mstore\n      0x20\n      add\n      swap1\n      dup2\n      mstore\n      0x20\n      add\n      0x00\n      keccak256\n        /* \"contracts/storage/LibSMElegendaryStorage.sol\":5263:5312  _getStorage(SLOT)._tokenApprovals[_tokenId].value */\n      0x00\n      add\n      0x00\n        /* \"contracts/storage/LibSMElegendaryStorage.sol\":5263:5323  _getStorage(SLOT)._tokenApprovals[_tokenId].value = _address */\n      0x0100\n      exp\n      dup2\n      sload\n      dup2\n      0xffffffffffffffffffffffffffffffffffffffff\n      mul\n      not\n      and\n      swap1\n      dup4\n      0xffffffffffffffffffffffffffffffffffffffff\n      and\n      mul\n      or\n      swap1\n      sstore\n      pop\n        /* \"contracts/storage/LibSMElegendaryStorage.sol\":5193:5325  function _tokenApprovals(uint256 _tokenId, address _address) external{_getStorage(SLOT)._tokenApprovals[_tokenId].value = _address;} */\n      pop\n      pop\n      jump\t// out\n        /* \"contracts/storage/LibSMElegendaryStorage.sol\":6638:6738  function genesislistRoot() external view returns(bytes32){return _getStorage(SLOT).genesislistRoot;} */\n    tag_71:\n        /* \"contracts/storage/LibSMElegendaryStorage.sol\":6687:6694  bytes32 */\n      0x00\n        /* \"contracts/storage/LibSMElegendaryStorage.sol\":6703:6720  _getStorage(SLOT) */\n      tag_268\n        /* \"contracts/storage/LibSMElegendaryStorage.sol\":407:428  bytes('SMElegendary') */\n      mload(0x40)\n      dup1\n      0x40\n      add\n      0x40\n      mstore\n      dup1\n      0x0c\n      dup2\n      mstore\n      0x20\n      add\n      0x534d456c6567656e646172790000000000000000000000000000000000000000\n      dup2\n      mstore\n      pop\n        /* \"contracts/storage/LibSMElegendaryStorage.sol\":397:429  keccak256(bytes('SMElegendary')) */\n      dup1\n      mload\n      swap1\n      0x20\n      add\n      keccak256\n        /* \"contracts/storage/LibSMElegendaryStorage.sol\":6703:6714  _getStorage */\n      tag_250\n        /* \"contracts/storage/LibSMElegendaryStorage.sol\":6703:6720  _getStorage(SLOT) */\n      jump\t// in\n    tag_268:\n        /* \"contracts/storage/LibSMElegendaryStorage.sol\":6703:6736  _getStorage(SLOT).genesislistRoot */\n      0x07\n      add\n      sload\n        /* \"contracts/storage/LibSMElegendaryStorage.sol\":6696:6736  return _getStorage(SLOT).genesislistRoot */\n      swap1\n      pop\n        /* \"contracts/storage/LibSMElegendaryStorage.sol\":6638:6738  function genesislistRoot() external view returns(bytes32){return _getStorage(SLOT).genesislistRoot;} */\n      swap1\n      jump\t// out\n        /* \"contracts/storage/LibSMElegendaryStorage.sol\":4461:4589  function _packedAddressData(address _owner) external view returns(uint256){return _getStorage(SLOT)._packedAddressData[_owner];} */\n    tag_77:\n        /* \"contracts/storage/LibSMElegendaryStorage.sol\":4527:4534  uint256 */\n      0x00\n        /* \"contracts/storage/LibSMElegendaryStorage.sol\":4543:4560  _getStorage(SLOT) */\n      tag_270\n        /* \"contracts/storage/LibSMElegendaryStorage.sol\":407:428  bytes('SMElegendary') */\n      mload(0x40)\n      dup1\n      0x40\n      add\n      0x40\n      mstore\n      dup1\n      0x0c\n      dup2\n      mstore\n      0x20\n      add\n      0x534d456c6567656e646172790000000000000000000000000000000000000000\n      dup2\n      mstore\n      pop\n        /* \"contracts/storage/LibSMElegendaryStorage.sol\":397:429  keccak256(bytes('SMElegendary')) */\n      dup1\n      mload\n      swap1\n      0x20\n      add\n      keccak256\n        /* \"contracts/storage/LibSMElegendaryStorage.sol\":4543:4554  _getStorage */\n      tag_250\n        /* \"contracts/storage/LibSMElegendaryStorage.sol\":4543:4560  _getStorage(SLOT) */\n      jump\t// in\n    tag_270:\n        /* \"contracts/storage/LibSMElegendaryStorage.sol\":4543:4579  _getStorage(SLOT)._packedAddressData */\n      0x11\n      add\n        /* \"contracts/storage/LibSMElegendaryStorage.sol\":4543:4587  _getStorage(SLOT)._packedAddressData[_owner] */\n      0x00\n        /* \"contracts/storage/LibSMElegendaryStorage.sol\":4580:4586  _owner */\n      dup4\n        /* \"contracts/storage/LibSMElegendaryStorage.sol\":4543:4587  _getStorage(SLOT)._packedAddressData[_owner] */\n      0xffffffffffffffffffffffffffffffffffffffff\n      and\n      0xffffffffffffffffffffffffffffffffffffffff\n      and\n      dup2\n      mstore\n      0x20\n      add\n      swap1\n      dup2\n      mstore\n      0x20\n      add\n      0x00\n      keccak256\n      sload\n        /* \"contracts/storage/LibSMElegendaryStorage.sol\":4536:4587  return _getStorage(SLOT)._packedAddressData[_owner] */\n      swap1\n      pop\n        /* \"contracts/storage/LibSMElegendaryStorage.sol\":4461:4589  function _packedAddressData(address _owner) external view returns(uint256){return _getStorage(SLOT)._packedAddressData[_owner];} */\n      swap2\n      swap1\n      pop\n      jump\t// out\n        /* \"contracts/storage/LibSMElegendaryStorage.sol\":8074:8176  function epiclistRoot(bytes32 _epiclistRoot) external{_getStorage(SLOT).epiclistRoot = _epiclistRoot;} */\n    tag_84:\n        /* \"contracts/storage/LibSMElegendaryStorage.sol\":8161:8174  _epiclistRoot */\n      dup1\n        /* \"contracts/storage/LibSMElegendaryStorage.sol\":8128:8145  _getStorage(SLOT) */\n      tag_272\n        /* \"contracts/storage/LibSMElegendaryStorage.sol\":407:428  bytes('SMElegendary') */\n      mload(0x40)\n      dup1\n      0x40\n      add\n      0x40\n      mstore\n      dup1\n      0x0c\n      dup2\n      mstore\n      0x20\n      add\n      0x534d456c6567656e646172790000000000000000000000000000000000000000\n      dup2\n      mstore\n      pop\n        /* \"contracts/storage/LibSMElegendaryStorage.sol\":397:429  keccak256(bytes('SMElegendary')) */\n      dup1\n      mload\n      swap1\n      0x20\n      add\n      keccak256\n        /* \"contracts/storage/LibSMElegendaryStorage.sol\":8128:8139  _getStorage */\n      tag_250\n        /* \"contracts/storage/LibSMElegendaryStorage.sol\":8128:8145  _getStorage(SLOT) */\n      jump\t// in\n    tag_272:\n        /* \"contracts/storage/LibSMElegendaryStorage.sol\":8128:8158  _getStorage(SLOT).epiclistRoot */\n      0x09\n      add\n        /* \"contracts/storage/LibSMElegendaryStorage.sol\":8128:8174  _getStorage(SLOT).epiclistRoot = _epiclistRoot */\n      dup2\n      swap1\n      sstore\n      pop\n        /* \"contracts/storage/LibSMElegendaryStorage.sol\":8074:8176  function epiclistRoot(bytes32 _epiclistRoot) external{_getStorage(SLOT).epiclistRoot = _epiclistRoot;} */\n      pop\n      jump\t// out\n        /* \"contracts/storage/LibSMElegendaryStorage.sol\":4887:5039  function _packedAddressDataDecr(address _owner) external{_getStorage(SLOT)._packedAddressData[_owner] = _getStorage(SLOT)._packedAddressData[_owner]-1;} */\n    tag_88:\n        /* \"contracts/storage/LibSMElegendaryStorage.sol\":5036:5037  1 */\n      0x01\n        /* \"contracts/storage/LibSMElegendaryStorage.sol\":4991:5008  _getStorage(SLOT) */\n      tag_274\n        /* \"contracts/storage/LibSMElegendaryStorage.sol\":407:428  bytes('SMElegendary') */\n      mload(0x40)\n      dup1\n      0x40\n      add\n      0x40\n      mstore\n      dup1\n      0x0c\n      dup2\n      mstore\n      0x20\n      add\n      0x534d456c6567656e646172790000000000000000000000000000000000000000\n      dup2\n      mstore\n      pop\n        /* \"contracts/storage/LibSMElegendaryStorage.sol\":397:429  keccak256(bytes('SMElegendary')) */\n      dup1\n      mload\n      swap1\n      0x20\n      add\n      keccak256\n        /* \"contracts/storage/LibSMElegendaryStorage.sol\":4991:5002  _getStorage */\n      tag_250\n        /* \"contracts/storage/LibSMElegendaryStorage.sol\":4991:5008  _getStorage(SLOT) */\n      jump\t// in\n    tag_274:\n        /* \"contracts/storage/LibSMElegendaryStorage.sol\":4991:5027  _getStorage(SLOT)._packedAddressData */\n      0x11\n      add\n        /* \"contracts/storage/LibSMElegendaryStorage.sol\":4991:5035  _getStorage(SLOT)._packedAddressData[_owner] */\n      0x00\n        /* \"contracts/storage/LibSMElegendaryStorage.sol\":5028:5034  _owner */\n      dup4\n        /* \"contracts/storage/LibSMElegendaryStorage.sol\":4991:5035  _getStorage(SLOT)._packedAddressData[_owner] */\n      0xffffffffffffffffffffffffffffffffffffffff\n      and\n      0xffffffffffffffffffffffffffffffffffffffff\n      and\n      dup2\n      mstore\n      0x20\n      add\n      swap1\n      dup2\n      mstore\n      0x20\n      add\n      0x00\n      keccak256\n      sload\n        /* \"contracts/storage/LibSMElegendaryStorage.sol\":4991:5037  _getStorage(SLOT)._packedAddressData[_owner]-1 */\n      tag_275\n      swap2\n      swap1\n      tag_276\n      jump\t// in\n    tag_275:\n        /* \"contracts/storage/LibSMElegendaryStorage.sol\":4944:4961  _getStorage(SLOT) */\n      tag_277\n        /* \"contracts/storage/LibSMElegendaryStorage.sol\":407:428  bytes('SMElegendary') */\n      mload(0x40)\n      dup1\n      0x40\n      add\n      0x40\n      mstore\n      dup1\n      0x0c\n      dup2\n      mstore\n      0x20\n      add\n      0x534d456c6567656e646172790000000000000000000000000000000000000000\n      dup2\n      mstore\n      pop\n        /* \"contracts/storage/LibSMElegendaryStorage.sol\":397:429  keccak256(bytes('SMElegendary')) */\n      dup1\n      mload\n      swap1\n      0x20\n      add\n      keccak256\n        /* \"contracts/storage/LibSMElegendaryStorage.sol\":4944:4955  _getStorage */\n      tag_250\n        /* \"contracts/storage/LibSMElegendaryStorage.sol\":4944:4961  _getStorage(SLOT) */\n      jump\t// in\n    tag_277:\n        /* \"contracts/storage/LibSMElegendaryStorage.sol\":4944:4980  _getStorage(SLOT)._packedAddressData */\n      0x11\n      add\n        /* \"contracts/storage/LibSMElegendaryStorage.sol\":4944:4988  _getStorage(SLOT)._packedAddressData[_owner] */\n      0x00\n        /* \"contracts/storage/LibSMElegendaryStorage.sol\":4981:4987  _owner */\n      dup4\n        /* \"contracts/storage/LibSMElegendaryStorage.sol\":4944:4988  _getStorage(SLOT)._packedAddressData[_owner] */\n      0xffffffffffffffffffffffffffffffffffffffff\n      and\n      0xffffffffffffffffffffffffffffffffffffffff\n      and\n      dup2\n      mstore\n      0x20\n      add\n      swap1\n      dup2\n      mstore\n      0x20\n      add\n      0x00\n      keccak256\n        /* \"contracts/storage/LibSMElegendaryStorage.sol\":4944:5037  _getStorage(SLOT)._packedAddressData[_owner] = _getStorage(SLOT)._packedAddressData[_owner]-1 */\n      dup2\n      swap1\n      sstore\n      pop\n        /* \"contracts/storage/LibSMElegendaryStorage.sol\":4887:5039  function _packedAddressDataDecr(address _owner) external{_getStorage(SLOT)._packedAddressData[_owner] = _getStorage(SLOT)._packedAddressData[_owner]-1;} */\n      pop\n      jump\t// out\n        /* \"contracts/storage/LibSMElegendaryStorage.sol\":3913:3998  function _startTokenId(uint256 _id) external {_getStorage(SLOT)._startTokenId = _id;} */\n    tag_93:\n        /* \"contracts/storage/LibSMElegendaryStorage.sol\":3993:3996  _id */\n      dup1\n        /* \"contracts/storage/LibSMElegendaryStorage.sol\":3959:3976  _getStorage(SLOT) */\n      tag_279\n        /* \"contracts/storage/LibSMElegendaryStorage.sol\":407:428  bytes('SMElegendary') */\n      mload(0x40)\n      dup1\n      0x40\n      add\n      0x40\n      mstore\n      dup1\n      0x0c\n      dup2\n      mstore\n      0x20\n      add\n      0x534d456c6567656e646172790000000000000000000000000000000000000000\n      dup2\n      mstore\n      pop\n        /* \"contracts/storage/LibSMElegendaryStorage.sol\":397:429  keccak256(bytes('SMElegendary')) */\n      dup1\n      mload\n      swap1\n      0x20\n      add\n      keccak256\n        /* \"contracts/storage/LibSMElegendaryStorage.sol\":3959:3970  _getStorage */\n      tag_250\n        /* \"contracts/storage/LibSMElegendaryStorage.sol\":3959:3976  _getStorage(SLOT) */\n      jump\t// in\n    tag_279:\n        /* \"contracts/storage/LibSMElegendaryStorage.sol\":3959:3990  _getStorage(SLOT)._startTokenId */\n      0x15\n      add\n        /* \"contracts/storage/LibSMElegendaryStorage.sol\":3959:3996  _getStorage(SLOT)._startTokenId = _id */\n      dup2\n      swap1\n      sstore\n      pop\n        /* \"contracts/storage/LibSMElegendaryStorage.sol\":3913:3998  function _startTokenId(uint256 _id) external {_getStorage(SLOT)._startTokenId = _id;} */\n      pop\n      jump\t// out\n        /* \"contracts/storage/LibSMElegendaryStorage.sol\":6848:6942  function epiclistRoot() external view returns(bytes32){return _getStorage(SLOT).epiclistRoot;} */\n    tag_95:\n        /* \"contracts/storage/LibSMElegendaryStorage.sol\":6894:6901  bytes32 */\n      0x00\n        /* \"contracts/storage/LibSMElegendaryStorage.sol\":6910:6927  _getStorage(SLOT) */\n      tag_281\n        /* \"contracts/storage/LibSMElegendaryStorage.sol\":407:428  bytes('SMElegendary') */\n      mload(0x40)\n      dup1\n      0x40\n      add\n      0x40\n      mstore\n      dup1\n      0x0c\n      dup2\n      mstore\n      0x20\n      add\n      0x534d456c6567656e646172790000000000000000000000000000000000000000\n      dup2\n      mstore\n      pop\n        /* \"contracts/storage/LibSMElegendaryStorage.sol\":397:429  keccak256(bytes('SMElegendary')) */\n      dup1\n      mload\n      swap1\n      0x20\n      add\n      keccak256\n        /* \"contracts/storage/LibSMElegendaryStorage.sol\":6910:6921  _getStorage */\n      tag_250\n        /* \"contracts/storage/LibSMElegendaryStorage.sol\":6910:6927  _getStorage(SLOT) */\n      jump\t// in\n    tag_281:\n        /* \"contracts/storage/LibSMElegendaryStorage.sol\":6910:6940  _getStorage(SLOT).epiclistRoot */\n      0x09\n      add\n      sload\n        /* \"contracts/storage/LibSMElegendaryStorage.sol\":6903:6940  return _getStorage(SLOT).epiclistRoot */\n      swap1\n      pop\n        /* \"contracts/storage/LibSMElegendaryStorage.sol\":6848:6942  function epiclistRoot() external view returns(bytes32){return _getStorage(SLOT).epiclistRoot;} */\n      swap1\n      jump\t// out\n        /* \"contracts/storage/LibSMElegendaryStorage.sol\":3714:3805  function _currentIndex(uint256 _index) external {_getStorage(SLOT)._currentIndex = _index;} */\n    tag_100:\n        /* \"contracts/storage/LibSMElegendaryStorage.sol\":3797:3803  _index */\n      dup1\n        /* \"contracts/storage/LibSMElegendaryStorage.sol\":3763:3780  _getStorage(SLOT) */\n      tag_283\n        /* \"contracts/storage/LibSMElegendaryStorage.sol\":407:428  bytes('SMElegendary') */\n      mload(0x40)\n      dup1\n      0x40\n      add\n      0x40\n      mstore\n      dup1\n      0x0c\n      dup2\n      mstore\n      0x20\n      add\n      0x534d456c6567656e646172790000000000000000000000000000000000000000\n      dup2\n      mstore\n      pop\n        /* \"contracts/storage/LibSMElegendaryStorage.sol\":397:429  keccak256(bytes('SMElegendary')) */\n      dup1\n      mload\n      swap1\n      0x20\n      add\n      keccak256\n        /* \"contracts/storage/LibSMElegendaryStorage.sol\":3763:3774  _getStorage */\n      tag_250\n        /* \"contracts/storage/LibSMElegendaryStorage.sol\":3763:3780  _getStorage(SLOT) */\n      jump\t// in\n    tag_283:\n        /* \"contracts/storage/LibSMElegendaryStorage.sol\":3763:3794  _getStorage(SLOT)._currentIndex */\n      0x0c\n      add\n        /* \"contracts/storage/LibSMElegendaryStorage.sol\":3763:3803  _getStorage(SLOT)._currentIndex = _index */\n      dup2\n      swap1\n      sstore\n      pop\n        /* \"contracts/storage/LibSMElegendaryStorage.sol\":3714:3805  function _currentIndex(uint256 _index) external {_getStorage(SLOT)._currentIndex = _index;} */\n      pop\n      jump\t// out\n        /* \"contracts/storage/LibSMElegendaryStorage.sol\":7838:7952  function genesislistRoot(bytes32 _genesislistRoot) external{_getStorage(SLOT).genesislistRoot = _genesislistRoot;} */\n    tag_104:\n        /* \"contracts/storage/LibSMElegendaryStorage.sol\":7934:7950  _genesislistRoot */\n      dup1\n        /* \"contracts/storage/LibSMElegendaryStorage.sol\":7898:7915  _getStorage(SLOT) */\n      tag_285\n        /* \"contracts/storage/LibSMElegendaryStorage.sol\":407:428  bytes('SMElegendary') */\n      mload(0x40)\n      dup1\n      0x40\n      add\n      0x40\n      mstore\n      dup1\n      0x0c\n      dup2\n      mstore\n      0x20\n      add\n      0x534d456c6567656e646172790000000000000000000000000000000000000000\n      dup2\n      mstore\n      pop\n        /* \"contracts/storage/LibSMElegendaryStorage.sol\":397:429  keccak256(bytes('SMElegendary')) */\n      dup1\n      mload\n      swap1\n      0x20\n      add\n      keccak256\n        /* \"contracts/storage/LibSMElegendaryStorage.sol\":7898:7909  _getStorage */\n      tag_250\n        /* \"contracts/storage/LibSMElegendaryStorage.sol\":7898:7915  _getStorage(SLOT) */\n      jump\t// in\n    tag_285:\n        /* \"contracts/storage/LibSMElegendaryStorage.sol\":7898:7931  _getStorage(SLOT).genesislistRoot */\n      0x07\n      add\n        /* \"contracts/storage/LibSMElegendaryStorage.sol\":7898:7950  _getStorage(SLOT).genesislistRoot = _genesislistRoot */\n      dup2\n      swap1\n      sstore\n      pop\n        /* \"contracts/storage/LibSMElegendaryStorage.sol\":7838:7952  function genesislistRoot(bytes32 _genesislistRoot) external{_getStorage(SLOT).genesislistRoot = _genesislistRoot;} */\n      pop\n      jump\t// out\n        /* \"contracts/storage/LibSMElegendaryStorage.sol\":8182:8248  function fee(uint256 _fee) external{_getStorage(SLOT).fee = _fee;} */\n    tag_108:\n        /* \"contracts/storage/LibSMElegendaryStorage.sol\":8242:8246  _fee */\n      dup1\n        /* \"contracts/storage/LibSMElegendaryStorage.sol\":8218:8235  _getStorage(SLOT) */\n      tag_287\n        /* \"contracts/storage/LibSMElegendaryStorage.sol\":407:428  bytes('SMElegendary') */\n      mload(0x40)\n      dup1\n      0x40\n      add\n      0x40\n      mstore\n      dup1\n      0x0c\n      dup2\n      mstore\n      0x20\n      add\n      0x534d456c6567656e646172790000000000000000000000000000000000000000\n      dup2\n      mstore\n      pop\n        /* \"contracts/storage/LibSMElegendaryStorage.sol\":397:429  keccak256(bytes('SMElegendary')) */\n      dup1\n      mload\n      swap1\n      0x20\n      add\n      keccak256\n        /* \"contracts/storage/LibSMElegendaryStorage.sol\":8218:8229  _getStorage */\n      tag_250\n        /* \"contracts/storage/LibSMElegendaryStorage.sol\":8218:8235  _getStorage(SLOT) */\n      jump\t// in\n    tag_287:\n        /* \"contracts/storage/LibSMElegendaryStorage.sol\":8218:8239  _getStorage(SLOT).fee */\n      0x0a\n      add\n        /* \"contracts/storage/LibSMElegendaryStorage.sol\":8218:8246  _getStorage(SLOT).fee = _fee */\n      dup2\n      swap1\n      sstore\n      pop\n        /* \"contracts/storage/LibSMElegendaryStorage.sol\":8182:8248  function fee(uint256 _fee) external{_getStorage(SLOT).fee = _fee;} */\n      pop\n      jump\t// out\n        /* \"contracts/storage/LibSMElegendaryStorage.sol\":8670:9872  function removeTokenFromAllTokensEnumeration(uint256 tokenId) external {... */\n    tag_112:\n        /* \"contracts/storage/LibSMElegendaryStorage.sol\":8927:8949  uint256 lastTokenIndex */\n      0x00\n        /* \"contracts/storage/LibSMElegendaryStorage.sol\":8989:8990  1 */\n      0x01\n        /* \"contracts/storage/LibSMElegendaryStorage.sol\":8952:8969  _getStorage(SLOT) */\n      tag_289\n        /* \"contracts/storage/LibSMElegendaryStorage.sol\":407:428  bytes('SMElegendary') */\n      mload(0x40)\n      dup1\n      0x40\n      add\n      0x40\n      mstore\n      dup1\n      0x0c\n      dup2\n      mstore\n      0x20\n      add\n      0x534d456c6567656e646172790000000000000000000000000000000000000000\n      dup2\n      mstore\n      pop\n        /* \"contracts/storage/LibSMElegendaryStorage.sol\":397:429  keccak256(bytes('SMElegendary')) */\n      dup1\n      mload\n      swap1\n      0x20\n      add\n      keccak256\n        /* \"contracts/storage/LibSMElegendaryStorage.sol\":8952:8963  _getStorage */\n      tag_250\n        /* \"contracts/storage/LibSMElegendaryStorage.sol\":8952:8969  _getStorage(SLOT) */\n      jump\t// in\n    tag_289:\n        /* \"contracts/storage/LibSMElegendaryStorage.sol\":8952:8979  _getStorage(SLOT).allTokens */\n      0x05\n      add\n        /* \"contracts/storage/LibSMElegendaryStorage.sol\":8952:8986  _getStorage(SLOT).allTokens.length */\n      dup1\n      sload\n      swap1\n      pop\n        /* \"contracts/storage/LibSMElegendaryStorage.sol\":8952:8990  _getStorage(SLOT).allTokens.length - 1 */\n      tag_290\n      swap2\n      swap1\n      tag_276\n      jump\t// in\n    tag_290:\n        /* \"contracts/storage/LibSMElegendaryStorage.sol\":8927:8990  uint256 lastTokenIndex = _getStorage(SLOT).allTokens.length - 1 */\n      swap1\n      pop\n        /* \"contracts/storage/LibSMElegendaryStorage.sol\":9001:9019  uint256 tokenIndex */\n      0x00\n        /* \"contracts/storage/LibSMElegendaryStorage.sol\":9022:9039  _getStorage(SLOT) */\n      tag_291\n        /* \"contracts/storage/LibSMElegendaryStorage.sol\":407:428  bytes('SMElegendary') */\n      mload(0x40)\n      dup1\n      0x40\n      add\n      0x40\n      mstore\n      dup1\n      0x0c\n      dup2\n      mstore\n      0x20\n      add\n      0x534d456c6567656e646172790000000000000000000000000000000000000000\n      dup2\n      mstore\n      pop\n        /* \"contracts/storage/LibSMElegendaryStorage.sol\":397:429  keccak256(bytes('SMElegendary')) */\n      dup1\n      mload\n      swap1\n      0x20\n      add\n      keccak256\n        /* \"contracts/storage/LibSMElegendaryStorage.sol\":9022:9033  _getStorage */\n      tag_250\n        /* \"contracts/storage/LibSMElegendaryStorage.sol\":9022:9039  _getStorage(SLOT) */\n      jump\t// in\n    tag_291:\n        /* \"contracts/storage/LibSMElegendaryStorage.sol\":9022:9054  _getStorage(SLOT).allTokensIndex */\n      0x06\n      add\n        /* \"contracts/storage/LibSMElegendaryStorage.sol\":9022:9063  _getStorage(SLOT).allTokensIndex[tokenId] */\n      0x00\n        /* \"contracts/storage/LibSMElegendaryStorage.sol\":9055:9062  tokenId */\n      dup5\n        /* \"contracts/storage/LibSMElegendaryStorage.sol\":9022:9063  _getStorage(SLOT).allTokensIndex[tokenId] */\n      dup2\n      mstore\n      0x20\n      add\n      swap1\n      dup2\n      mstore\n      0x20\n      add\n      0x00\n      keccak256\n      sload\n        /* \"contracts/storage/LibSMElegendaryStorage.sol\":9001:9063  uint256 tokenIndex = _getStorage(SLOT).allTokensIndex[tokenId] */\n      swap1\n      pop\n        /* \"contracts/storage/LibSMElegendaryStorage.sol\":9390:9409  uint256 lastTokenId */\n      0x00\n        /* \"contracts/storage/LibSMElegendaryStorage.sol\":9412:9429  _getStorage(SLOT) */\n      tag_292\n        /* \"contracts/storage/LibSMElegendaryStorage.sol\":407:428  bytes('SMElegendary') */\n      mload(0x40)\n      dup1\n      0x40\n      add\n      0x40\n      mstore\n      dup1\n      0x0c\n      dup2\n      mstore\n      0x20\n      add\n      0x534d456c6567656e646172790000000000000000000000000000000000000000\n      dup2\n      mstore\n      pop\n        /* \"contracts/storage/LibSMElegendaryStorage.sol\":397:429  keccak256(bytes('SMElegendary')) */\n      dup1\n      mload\n      swap1\n      0x20\n      add\n      keccak256\n        /* \"contracts/storage/LibSMElegendaryStorage.sol\":9412:9423  _getStorage */\n      tag_250\n        /* \"contracts/storage/LibSMElegendaryStorage.sol\":9412:9429  _getStorage(SLOT) */\n      jump\t// in\n    tag_292:\n        /* \"contracts/storage/LibSMElegendaryStorage.sol\":9412:9439  _getStorage(SLOT).allTokens */\n      0x05\n      add\n        /* \"contracts/storage/LibSMElegendaryStorage.sol\":9440:9454  lastTokenIndex */\n      dup4\n        /* \"contracts/storage/LibSMElegendaryStorage.sol\":9412:9455  _getStorage(SLOT).allTokens[lastTokenIndex] */\n      dup2\n      sload\n      dup2\n      lt\n      tag_293\n      jumpi\n      tag_294\n      tag_295\n      jump\t// in\n    tag_294:\n    tag_293:\n      swap1\n      0x00\n      mstore\n      keccak256(0x00, 0x20)\n      add\n      sload\n        /* \"contracts/storage/LibSMElegendaryStorage.sol\":9390:9455  uint256 lastTokenId = _getStorage(SLOT).allTokens[lastTokenIndex] */\n      swap1\n      pop\n        /* \"contracts/storage/LibSMElegendaryStorage.sol\":9510:9521  lastTokenId */\n      dup1\n        /* \"contracts/storage/LibSMElegendaryStorage.sol\":9468:9485  _getStorage(SLOT) */\n      tag_297\n        /* \"contracts/storage/LibSMElegendaryStorage.sol\":407:428  bytes('SMElegendary') */\n      mload(0x40)\n      dup1\n      0x40\n      add\n      0x40\n      mstore\n      dup1\n      0x0c\n      dup2\n      mstore\n      0x20\n      add\n      0x534d456c6567656e646172790000000000000000000000000000000000000000\n      dup2\n      mstore\n      pop\n        /* \"contracts/storage/LibSMElegendaryStorage.sol\":397:429  keccak256(bytes('SMElegendary')) */\n      dup1\n      mload\n      swap1\n      0x20\n      add\n      keccak256\n        /* \"contracts/storage/LibSMElegendaryStorage.sol\":9468:9479  _getStorage */\n      tag_250\n        /* \"contracts/storage/LibSMElegendaryStorage.sol\":9468:9485  _getStorage(SLOT) */\n      jump\t// in\n    tag_297:\n        /* \"contracts/storage/LibSMElegendaryStorage.sol\":9468:9495  _getStorage(SLOT).allTokens */\n      0x05\n      add\n        /* \"contracts/storage/LibSMElegendaryStorage.sol\":9496:9506  tokenIndex */\n      dup4\n        /* \"contracts/storage/LibSMElegendaryStorage.sol\":9468:9507  _getStorage(SLOT).allTokens[tokenIndex] */\n      dup2\n      sload\n      dup2\n      lt\n      tag_298\n      jumpi\n      tag_299\n      tag_295\n      jump\t// in\n    tag_299:\n    tag_298:\n      swap1\n      0x00\n      mstore\n      keccak256(0x00, 0x20)\n      add\n        /* \"contracts/storage/LibSMElegendaryStorage.sol\":9468:9521  _getStorage(SLOT).allTokens[tokenIndex] = lastTokenId */\n      dup2\n      swap1\n      sstore\n      pop\n        /* \"contracts/storage/LibSMElegendaryStorage.sol\":9638:9648  tokenIndex */\n      dup2\n        /* \"contracts/storage/LibSMElegendaryStorage.sol\":9590:9607  _getStorage(SLOT) */\n      tag_301\n        /* \"contracts/storage/LibSMElegendaryStorage.sol\":407:428  bytes('SMElegendary') */\n      mload(0x40)\n      dup1\n      0x40\n      add\n      0x40\n      mstore\n      dup1\n      0x0c\n      dup2\n      mstore\n      0x20\n      add\n      0x534d456c6567656e646172790000000000000000000000000000000000000000\n      dup2\n      mstore\n      pop\n        /* \"contracts/storage/LibSMElegendaryStorage.sol\":397:429  keccak256(bytes('SMElegendary')) */\n      dup1\n      mload\n      swap1\n      0x20\n      add\n      keccak256\n        /* \"contracts/storage/LibSMElegendaryStorage.sol\":9590:9601  _getStorage */\n      tag_250\n        /* \"contracts/storage/LibSMElegendaryStorage.sol\":9590:9607  _getStorage(SLOT) */\n      jump\t// in\n    tag_301:\n        /* \"contracts/storage/LibSMElegendaryStorage.sol\":9590:9622  _getStorage(SLOT).allTokensIndex */\n      0x06\n      add\n        /* \"contracts/storage/LibSMElegendaryStorage.sol\":9590:9635  _getStorage(SLOT).allTokensIndex[lastTokenId] */\n      0x00\n        /* \"contracts/storage/LibSMElegendaryStorage.sol\":9623:9634  lastTokenId */\n      dup4\n        /* \"contracts/storage/LibSMElegendaryStorage.sol\":9590:9635  _getStorage(SLOT).allTokensIndex[lastTokenId] */\n      dup2\n      mstore\n      0x20\n      add\n      swap1\n      dup2\n      mstore\n      0x20\n      add\n      0x00\n      keccak256\n        /* \"contracts/storage/LibSMElegendaryStorage.sol\":9590:9648  _getStorage(SLOT).allTokensIndex[lastTokenId] = tokenIndex */\n      dup2\n      swap1\n      sstore\n      pop\n        /* \"contracts/storage/LibSMElegendaryStorage.sol\":9779:9796  _getStorage(SLOT) */\n      tag_302\n        /* \"contracts/storage/LibSMElegendaryStorage.sol\":407:428  bytes('SMElegendary') */\n      mload(0x40)\n      dup1\n      0x40\n      add\n      0x40\n      mstore\n      dup1\n      0x0c\n      dup2\n      mstore\n      0x20\n      add\n      0x534d456c6567656e646172790000000000000000000000000000000000000000\n      dup2\n      mstore\n      pop\n        /* \"contracts/storage/LibSMElegendaryStorage.sol\":397:429  keccak256(bytes('SMElegendary')) */\n      dup1\n      mload\n      swap1\n      0x20\n      add\n      keccak256\n        /* \"contracts/storage/LibSMElegendaryStorage.sol\":9779:9790  _getStorage */\n      tag_250\n        /* \"contracts/storage/LibSMElegendaryStorage.sol\":9779:9796  _getStorage(SLOT) */\n      jump\t// in\n    tag_302:\n        /* \"contracts/storage/LibSMElegendaryStorage.sol\":9779:9811  _getStorage(SLOT).allTokensIndex */\n      0x06\n      add\n        /* \"contracts/storage/LibSMElegendaryStorage.sol\":9779:9820  _getStorage(SLOT).allTokensIndex[tokenId] */\n      0x00\n        /* \"contracts/storage/LibSMElegendaryStorage.sol\":9812:9819  tokenId */\n      dup6\n        /* \"contracts/storage/LibSMElegendaryStorage.sol\":9779:9820  _getStorage(SLOT).allTokensIndex[tokenId] */\n      dup2\n      mstore\n      0x20\n      add\n      swap1\n      dup2\n      mstore\n      0x20\n      add\n      0x00\n      keccak256\n        /* \"contracts/storage/LibSMElegendaryStorage.sol\":9772:9820  delete _getStorage(SLOT).allTokensIndex[tokenId] */\n      0x00\n      swap1\n      sstore\n        /* \"contracts/storage/LibSMElegendaryStorage.sol\":9831:9848  _getStorage(SLOT) */\n      tag_303\n        /* \"contracts/storage/LibSMElegendaryStorage.sol\":407:428  bytes('SMElegendary') */\n      mload(0x40)\n      dup1\n      0x40\n      add\n      0x40\n      mstore\n      dup1\n      0x0c\n      dup2\n      mstore\n      0x20\n      add\n      0x534d456c6567656e646172790000000000000000000000000000000000000000\n      dup2\n      mstore\n      pop\n        /* \"contracts/storage/LibSMElegendaryStorage.sol\":397:429  keccak256(bytes('SMElegendary')) */\n      dup1\n      mload\n      swap1\n      0x20\n      add\n      keccak256\n        /* \"contracts/storage/LibSMElegendaryStorage.sol\":9831:9842  _getStorage */\n      tag_250\n        /* \"contracts/storage/LibSMElegendaryStorage.sol\":9831:9848  _getStorage(SLOT) */\n      jump\t// in\n    tag_303:\n        /* \"contracts/storage/LibSMElegendaryStorage.sol\":9831:9858  _getStorage(SLOT).allTokens */\n      0x05\n      add\n        /* \"contracts/storage/LibSMElegendaryStorage.sol\":9831:9864  _getStorage(SLOT).allTokens.pop() */\n      dup1\n      sload\n      dup1\n      tag_304\n      jumpi\n      tag_305\n      tag_306\n      jump\t// in\n    tag_305:\n    tag_304:\n      0x01\n      swap1\n      sub\n      dup2\n      dup2\n      swap1\n      0x00\n      mstore\n      keccak256(0x00, 0x20)\n      add\n      0x00\n      swap1\n      sstore\n      swap1\n      sstore\n        /* \"contracts/storage/LibSMElegendaryStorage.sol\":8741:9872  {... */\n      pop\n      pop\n      pop\n        /* \"contracts/storage/LibSMElegendaryStorage.sol\":8670:9872  function removeTokenFromAllTokensEnumeration(uint256 tokenId) external {... */\n      pop\n      jump\t// out\n        /* \"contracts/storage/LibSMElegendaryStorage.sol\":3520:3606  function symbol(string memory _symbol) external {_getStorage(SLOT)._symbol = _symbol;} */\n    tag_117:\n        /* \"contracts/storage/LibSMElegendaryStorage.sol\":3597:3604  _symbol */\n      dup1\n        /* \"contracts/storage/LibSMElegendaryStorage.sol\":3569:3586  _getStorage(SLOT) */\n      tag_309\n        /* \"contracts/storage/LibSMElegendaryStorage.sol\":407:428  bytes('SMElegendary') */\n      mload(0x40)\n      dup1\n      0x40\n      add\n      0x40\n      mstore\n      dup1\n      0x0c\n      dup2\n      mstore\n      0x20\n      add\n      0x534d456c6567656e646172790000000000000000000000000000000000000000\n      dup2\n      mstore\n      pop\n        /* \"contracts/storage/LibSMElegendaryStorage.sol\":397:429  keccak256(bytes('SMElegendary')) */\n      dup1\n      mload\n      swap1\n      0x20\n      add\n      keccak256\n        /* \"contracts/storage/LibSMElegendaryStorage.sol\":3569:3580  _getStorage */\n      tag_250\n        /* \"contracts/storage/LibSMElegendaryStorage.sol\":3569:3586  _getStorage(SLOT) */\n      jump\t// in\n    tag_309:\n        /* \"contracts/storage/LibSMElegendaryStorage.sol\":3569:3594  _getStorage(SLOT)._symbol */\n      0x0f\n      add\n        /* \"contracts/storage/LibSMElegendaryStorage.sol\":3569:3604  _getStorage(SLOT)._symbol = _symbol */\n      swap1\n      dup2\n      tag_310\n      swap2\n      swap1\n      tag_311\n      jump\t// in\n    tag_310:\n      pop\n        /* \"contracts/storage/LibSMElegendaryStorage.sol\":3520:3606  function symbol(string memory _symbol) external {_getStorage(SLOT)._symbol = _symbol;} */\n      pop\n      jump\t// out\n        /* \"contracts/storage/LibSMElegendaryStorage.sol\":4004:4098  function _burnCounter() external view returns(uint256){return _getStorage(SLOT)._burnCounter;} */\n    tag_119:\n        /* \"contracts/storage/LibSMElegendaryStorage.sol\":4050:4057  uint256 */\n      0x00\n        /* \"contracts/storage/LibSMElegendaryStorage.sol\":4066:4083  _getStorage(SLOT) */\n      tag_313\n        /* \"contracts/storage/LibSMElegendaryStorage.sol\":407:428  bytes('SMElegendary') */\n      mload(0x40)\n      dup1\n      0x40\n      add\n      0x40\n      mstore\n      dup1\n      0x0c\n      dup2\n      mstore\n      0x20\n      add\n      0x534d456c6567656e646172790000000000000000000000000000000000000000\n      dup2\n      mstore\n      pop\n        /* \"contracts/storage/LibSMElegendaryStorage.sol\":397:429  keccak256(bytes('SMElegendary')) */\n      dup1\n      mload\n      swap1\n      0x20\n      add\n      keccak256\n        /* \"contracts/storage/LibSMElegendaryStorage.sol\":4066:4077  _getStorage */\n      tag_250\n        /* \"contracts/storage/LibSMElegendaryStorage.sol\":4066:4083  _getStorage(SLOT) */\n      jump\t// in\n    tag_313:\n        /* \"contracts/storage/LibSMElegendaryStorage.sol\":4066:4096  _getStorage(SLOT)._burnCounter */\n      0x0d\n      add\n      sload\n        /* \"contracts/storage/LibSMElegendaryStorage.sol\":4059:4096  return _getStorage(SLOT)._burnCounter */\n      swap1\n      pop\n        /* \"contracts/storage/LibSMElegendaryStorage.sol\":4004:4098  function _burnCounter() external view returns(uint256){return _getStorage(SLOT)._burnCounter;} */\n      swap1\n      jump\t// out\n        /* \"contracts/storage/LibSMElegendaryStorage.sol\":4193:4323  function _packedOwnerships(uint256 _tokenId) external view returns(uint256){return _getStorage(SLOT)._packedOwnerships[_tokenId];} */\n    tag_123:\n        /* \"contracts/storage/LibSMElegendaryStorage.sol\":4260:4267  uint256 */\n      0x00\n        /* \"contracts/storage/LibSMElegendaryStorage.sol\":4276:4293  _getStorage(SLOT) */\n      tag_315\n        /* \"contracts/storage/LibSMElegendaryStorage.sol\":407:428  bytes('SMElegendary') */\n      mload(0x40)\n      dup1\n      0x40\n      add\n      0x40\n      mstore\n      dup1\n      0x0c\n      dup2\n      mstore\n      0x20\n      add\n      0x534d456c6567656e646172790000000000000000000000000000000000000000\n      dup2\n      mstore\n      pop\n        /* \"contracts/storage/LibSMElegendaryStorage.sol\":397:429  keccak256(bytes('SMElegendary')) */\n      dup1\n      mload\n      swap1\n      0x20\n      add\n      keccak256\n        /* \"contracts/storage/LibSMElegendaryStorage.sol\":4276:4287  _getStorage */\n      tag_250\n        /* \"contracts/storage/LibSMElegendaryStorage.sol\":4276:4293  _getStorage(SLOT) */\n      jump\t// in\n    tag_315:\n        /* \"contracts/storage/LibSMElegendaryStorage.sol\":4276:4311  _getStorage(SLOT)._packedOwnerships */\n      0x10\n      add\n        /* \"contracts/storage/LibSMElegendaryStorage.sol\":4276:4321  _getStorage(SLOT)._packedOwnerships[_tokenId] */\n      0x00\n        /* \"contracts/storage/LibSMElegendaryStorage.sol\":4312:4320  _tokenId */\n      dup4\n        /* \"contracts/storage/LibSMElegendaryStorage.sol\":4276:4321  _getStorage(SLOT)._packedOwnerships[_tokenId] */\n      dup2\n      mstore\n      0x20\n      add\n      swap1\n      dup2\n      mstore\n      0x20\n      add\n      0x00\n      keccak256\n      sload\n        /* \"contracts/storage/LibSMElegendaryStorage.sol\":4269:4321  return _getStorage(SLOT)._packedOwnerships[_tokenId] */\n      swap1\n      pop\n        /* \"contracts/storage/LibSMElegendaryStorage.sol\":4193:4323  function _packedOwnerships(uint256 _tokenId) external view returns(uint256){return _getStorage(SLOT)._packedOwnerships[_tokenId];} */\n      swap2\n      swap1\n      pop\n      jump\t// out\n        /* \"contracts/storage/LibSMElegendaryStorage.sol\":7564:7702  function ownedTokens(address _owner, uint256 _index, uint256 _tokenId) external{_getStorage(SLOT).ownedTokens[_owner][_index] = _tokenId;} */\n    tag_128:\n        /* \"contracts/storage/LibSMElegendaryStorage.sol\":7692:7700  _tokenId */\n      dup1\n        /* \"contracts/storage/LibSMElegendaryStorage.sol\":7644:7661  _getStorage(SLOT) */\n      tag_317\n        /* \"contracts/storage/LibSMElegendaryStorage.sol\":407:428  bytes('SMElegendary') */\n      mload(0x40)\n      dup1\n      0x40\n      add\n      0x40\n      mstore\n      dup1\n      0x0c\n      dup2\n      mstore\n      0x20\n      add\n      0x534d456c6567656e646172790000000000000000000000000000000000000000\n      dup2\n      mstore\n      pop\n        /* \"contracts/storage/LibSMElegendaryStorage.sol\":397:429  keccak256(bytes('SMElegendary')) */\n      dup1\n      mload\n      swap1\n      0x20\n      add\n      keccak256\n        /* \"contracts/storage/LibSMElegendaryStorage.sol\":7644:7655  _getStorage */\n      tag_250\n        /* \"contracts/storage/LibSMElegendaryStorage.sol\":7644:7661  _getStorage(SLOT) */\n      jump\t// in\n    tag_317:\n        /* \"contracts/storage/LibSMElegendaryStorage.sol\":7644:7673  _getStorage(SLOT).ownedTokens */\n      0x03\n      add\n        /* \"contracts/storage/LibSMElegendaryStorage.sol\":7644:7681  _getStorage(SLOT).ownedTokens[_owner] */\n      0x00\n        /* \"contracts/storage/LibSMElegendaryStorage.sol\":7674:7680  _owner */\n      dup6\n        /* \"contracts/storage/LibSMElegendaryStorage.sol\":7644:7681  _getStorage(SLOT).ownedTokens[_owner] */\n      0xffffffffffffffffffffffffffffffffffffffff\n      and\n      0xffffffffffffffffffffffffffffffffffffffff\n      and\n      dup2\n      mstore\n      0x20\n      add\n      swap1\n      dup2\n      mstore\n      0x20\n      add\n      0x00\n      keccak256\n        /* \"contracts/storage/LibSMElegendaryStorage.sol\":7644:7689  _getStorage(SLOT).ownedTokens[_owner][_index] */\n      0x00\n        /* \"contracts/storage/LibSMElegendaryStorage.sol\":7682:7688  _index */\n      dup5\n        /* \"contracts/storage/LibSMElegendaryStorage.sol\":7644:7689  _getStorage(SLOT).ownedTokens[_owner][_index] */\n      dup2\n      mstore\n      0x20\n      add\n      swap1\n      dup2\n      mstore\n      0x20\n      add\n      0x00\n      keccak256\n        /* \"contracts/storage/LibSMElegendaryStorage.sol\":7644:7700  _getStorage(SLOT).ownedTokens[_owner][_index] = _tokenId */\n      dup2\n      swap1\n      sstore\n      pop\n        /* \"contracts/storage/LibSMElegendaryStorage.sol\":7564:7702  function ownedTokens(address _owner, uint256 _index, uint256 _tokenId) external{_getStorage(SLOT).ownedTokens[_owner][_index] = _tokenId;} */\n      pop\n      pop\n      pop\n      jump\t// out\n        /* \"contracts/storage/LibSMElegendaryStorage.sol\":12269:12492  function addTokenToOwnerEnumeration(address to, uint256 tokenId, uint256 length) external {... */\n    tag_132:\n        /* \"contracts/storage/LibSMElegendaryStorage.sol\":12414:12421  tokenId */\n      dup2\n        /* \"contracts/storage/LibSMElegendaryStorage.sol\":12370:12387  _getStorage(SLOT) */\n      tag_319\n        /* \"contracts/storage/LibSMElegendaryStorage.sol\":407:428  bytes('SMElegendary') */\n      mload(0x40)\n      dup1\n      0x40\n      add\n      0x40\n      mstore\n      dup1\n      0x0c\n      dup2\n      mstore\n      0x20\n      add\n      0x534d456c6567656e646172790000000000000000000000000000000000000000\n      dup2\n      mstore\n      pop\n        /* \"contracts/storage/LibSMElegendaryStorage.sol\":397:429  keccak256(bytes('SMElegendary')) */\n      dup1\n      mload\n      swap1\n      0x20\n      add\n      keccak256\n        /* \"contracts/storage/LibSMElegendaryStorage.sol\":12370:12381  _getStorage */\n      tag_250\n        /* \"contracts/storage/LibSMElegendaryStorage.sol\":12370:12387  _getStorage(SLOT) */\n      jump\t// in\n    tag_319:\n        /* \"contracts/storage/LibSMElegendaryStorage.sol\":12370:12399  _getStorage(SLOT).ownedTokens */\n      0x03\n      add\n        /* \"contracts/storage/LibSMElegendaryStorage.sol\":12370:12403  _getStorage(SLOT).ownedTokens[to] */\n      0x00\n        /* \"contracts/storage/LibSMElegendaryStorage.sol\":12400:12402  to */\n      dup6\n        /* \"contracts/storage/LibSMElegendaryStorage.sol\":12370:12403  _getStorage(SLOT).ownedTokens[to] */\n      0xffffffffffffffffffffffffffffffffffffffff\n      and\n      0xffffffffffffffffffffffffffffffffffffffff\n      and\n      dup2\n      mstore\n      0x20\n      add\n      swap1\n      dup2\n      mstore\n      0x20\n      add\n      0x00\n      keccak256\n        /* \"contracts/storage/LibSMElegendaryStorage.sol\":12370:12411  _getStorage(SLOT).ownedTokens[to][length] */\n      0x00\n        /* \"contracts/storage/LibSMElegendaryStorage.sol\":12404:12410  length */\n      dup4\n        /* \"contracts/storage/LibSMElegendaryStorage.sol\":12370:12411  _getStorage(SLOT).ownedTokens[to][length] */\n      dup2\n      mstore\n      0x20\n      add\n      swap1\n      dup2\n      mstore\n      0x20\n      add\n      0x00\n      keccak256\n        /* \"contracts/storage/LibSMElegendaryStorage.sol\":12370:12421  _getStorage(SLOT).ownedTokens[to][length] = tokenId */\n      dup2\n      swap1\n      sstore\n      pop\n        /* \"contracts/storage/LibSMElegendaryStorage.sol\":12478:12484  length */\n      dup1\n        /* \"contracts/storage/LibSMElegendaryStorage.sol\":12432:12449  _getStorage(SLOT) */\n      tag_320\n        /* \"contracts/storage/LibSMElegendaryStorage.sol\":407:428  bytes('SMElegendary') */\n      mload(0x40)\n      dup1\n      0x40\n      add\n      0x40\n      mstore\n      dup1\n      0x0c\n      dup2\n      mstore\n      0x20\n      add\n      0x534d456c6567656e646172790000000000000000000000000000000000000000\n      dup2\n      mstore\n      pop\n        /* \"contracts/storage/LibSMElegendaryStorage.sol\":397:429  keccak256(bytes('SMElegendary')) */\n      dup1\n      mload\n      swap1\n      0x20\n      add\n      keccak256\n        /* \"contracts/storage/LibSMElegendaryStorage.sol\":12432:12443  _getStorage */\n      tag_250\n        /* \"contracts/storage/LibSMElegendaryStorage.sol\":12432:12449  _getStorage(SLOT) */\n      jump\t// in\n    tag_320:\n        /* \"contracts/storage/LibSMElegendaryStorage.sol\":12432:12466  _getStorage(SLOT).ownedTokensIndex */\n      0x04\n      add\n        /* \"contracts/storage/LibSMElegendaryStorage.sol\":12432:12475  _getStorage(SLOT).ownedTokensIndex[tokenId] */\n      0x00\n        /* \"contracts/storage/LibSMElegendaryStorage.sol\":12467:12474  tokenId */\n      dup5\n        /* \"contracts/storage/LibSMElegendaryStorage.sol\":12432:12475  _getStorage(SLOT).ownedTokensIndex[tokenId] */\n      dup2\n      mstore\n      0x20\n      add\n      swap1\n      dup2\n      mstore\n      0x20\n      add\n      0x00\n      keccak256\n        /* \"contracts/storage/LibSMElegendaryStorage.sol\":12432:12484  _getStorage(SLOT).ownedTokensIndex[tokenId] = length */\n      dup2\n      swap1\n      sstore\n      pop\n        /* \"contracts/storage/LibSMElegendaryStorage.sol\":12269:12492  function addTokenToOwnerEnumeration(address to, uint256 tokenId, uint256 length) external {... */\n      pop\n      pop\n      pop\n      jump\t// out\n        /* \"contracts/storage/LibSMElegendaryStorage.sol\":3341:3419  function name(string memory _name) external {_getStorage(SLOT)._name = _name;} */\n    tag_136:\n        /* \"contracts/storage/LibSMElegendaryStorage.sol\":3412:3417  _name */\n      dup1\n        /* \"contracts/storage/LibSMElegendaryStorage.sol\":3386:3403  _getStorage(SLOT) */\n      tag_322\n        /* \"contracts/storage/LibSMElegendaryStorage.sol\":407:428  bytes('SMElegendary') */\n      mload(0x40)\n      dup1\n      0x40\n      add\n      0x40\n      mstore\n      dup1\n      0x0c\n      dup2\n      mstore\n      0x20\n      add\n      0x534d456c6567656e646172790000000000000000000000000000000000000000\n      dup2\n      mstore\n      pop\n        /* \"contracts/storage/LibSMElegendaryStorage.sol\":397:429  keccak256(bytes('SMElegendary')) */\n      dup1\n      mload\n      swap1\n      0x20\n      add\n      keccak256\n        /* \"contracts/storage/LibSMElegendaryStorage.sol\":3386:3397  _getStorage */\n      tag_250\n        /* \"contracts/storage/LibSMElegendaryStorage.sol\":3386:3403  _getStorage(SLOT) */\n      jump\t// in\n    tag_322:\n        /* \"contracts/storage/LibSMElegendaryStorage.sol\":3386:3409  _getStorage(SLOT)._name */\n      0x0e\n      add\n        /* \"contracts/storage/LibSMElegendaryStorage.sol\":3386:3417  _getStorage(SLOT)._name = _name */\n      swap1\n      dup2\n      tag_323\n      swap2\n      swap1\n      tag_311\n      jump\t// in\n    tag_323:\n      pop\n        /* \"contracts/storage/LibSMElegendaryStorage.sol\":3341:3419  function name(string memory _name) external {_getStorage(SLOT)._name = _name;} */\n      pop\n      jump\t// out\n        /* \"contracts/storage/LibSMElegendaryStorage.sol\":6139:6257  function tokenURIs(uint256 tokenId) external view returns(string memory){return _getStorage(SLOT).tokenURIs[tokenId];} */\n    tag_139:\n        /* \"contracts/storage/LibSMElegendaryStorage.sol\":6197:6210  string memory */\n      0x60\n        /* \"contracts/storage/LibSMElegendaryStorage.sol\":6219:6236  _getStorage(SLOT) */\n      tag_325\n        /* \"contracts/storage/LibSMElegendaryStorage.sol\":407:428  bytes('SMElegendary') */\n      mload(0x40)\n      dup1\n      0x40\n      add\n      0x40\n      mstore\n      dup1\n      0x0c\n      dup2\n      mstore\n      0x20\n      add\n      0x534d456c6567656e646172790000000000000000000000000000000000000000\n      dup2\n      mstore\n      pop\n        /* \"contracts/storage/LibSMElegendaryStorage.sol\":397:429  keccak256(bytes('SMElegendary')) */\n      dup1\n      mload\n      swap1\n      0x20\n      add\n      keccak256\n        /* \"contracts/storage/LibSMElegendaryStorage.sol\":6219:6230  _getStorage */\n      tag_250\n        /* \"contracts/storage/LibSMElegendaryStorage.sol\":6219:6236  _getStorage(SLOT) */\n      jump\t// in\n    tag_325:\n        /* \"contracts/storage/LibSMElegendaryStorage.sol\":6219:6246  _getStorage(SLOT).tokenURIs */\n      0x02\n      add\n        /* \"contracts/storage/LibSMElegendaryStorage.sol\":6219:6255  _getStorage(SLOT).tokenURIs[tokenId] */\n      0x00\n        /* \"contracts/storage/LibSMElegendaryStorage.sol\":6247:6254  tokenId */\n      dup4\n        /* \"contracts/storage/LibSMElegendaryStorage.sol\":6219:6255  _getStorage(SLOT).tokenURIs[tokenId] */\n      dup2\n      mstore\n      0x20\n      add\n      swap1\n      dup2\n      mstore\n      0x20\n      add\n      0x00\n      keccak256\n        /* \"contracts/storage/LibSMElegendaryStorage.sol\":6212:6255  return _getStorage(SLOT).tokenURIs[tokenId] */\n      dup1\n      sload\n      tag_326\n      swap1\n      tag_252\n      jump\t// in\n    tag_326:\n      dup1\n      0x1f\n      add\n      0x20\n      dup1\n      swap2\n      div\n      mul\n      0x20\n      add\n      mload(0x40)\n      swap1\n      dup2\n      add\n      0x40\n      mstore\n      dup1\n      swap3\n      swap2\n      swap1\n      dup2\n      dup2\n      mstore\n      0x20\n      add\n      dup3\n      dup1\n      sload\n      tag_327\n      swap1\n      tag_252\n      jump\t// in\n    tag_327:\n      dup1\n      iszero\n      tag_328\n      jumpi\n      dup1\n      0x1f\n      lt\n      tag_329\n      jumpi\n      0x0100\n      dup1\n      dup4\n      sload\n      div\n      mul\n      dup4\n      mstore\n      swap2\n      0x20\n      add\n      swap2\n      jump(tag_328)\n    tag_329:\n      dup3\n      add\n      swap2\n      swap1\n      0x00\n      mstore\n      keccak256(0x00, 0x20)\n      swap1\n    tag_330:\n      dup2\n      sload\n      dup2\n      mstore\n      swap1\n      0x01\n      add\n      swap1\n      0x20\n      add\n      dup1\n      dup4\n      gt\n      tag_330\n      jumpi\n      dup3\n      swap1\n      sub\n      0x1f\n      and\n      dup3\n      add\n      swap2\n    tag_328:\n      pop\n      pop\n      pop\n      pop\n      pop\n      swap1\n      pop\n        /* \"contracts/storage/LibSMElegendaryStorage.sol\":6139:6257  function tokenURIs(uint256 tokenId) external view returns(string memory){return _getStorage(SLOT).tokenURIs[tokenId];} */\n      swap2\n      swap1\n      pop\n      jump\t// out\n        /* \"contracts/storage/LibSMElegendaryStorage.sol\":6535:6632  function allTokens() external view returns(uint256[] memory){return _getStorage(SLOT).allTokens;} */\n    tag_142:\n        /* \"contracts/storage/LibSMElegendaryStorage.sol\":6578:6594  uint256[] memory */\n      0x60\n        /* \"contracts/storage/LibSMElegendaryStorage.sol\":6603:6620  _getStorage(SLOT) */\n      tag_332\n        /* \"contracts/storage/LibSMElegendaryStorage.sol\":407:428  bytes('SMElegendary') */\n      mload(0x40)\n      dup1\n      0x40\n      add\n      0x40\n      mstore\n      dup1\n      0x0c\n      dup2\n      mstore\n      0x20\n      add\n      0x534d456c6567656e646172790000000000000000000000000000000000000000\n      dup2\n      mstore\n      pop\n        /* \"contracts/storage/LibSMElegendaryStorage.sol\":397:429  keccak256(bytes('SMElegendary')) */\n      dup1\n      mload\n      swap1\n      0x20\n      add\n      keccak256\n        /* \"contracts/storage/LibSMElegendaryStorage.sol\":6603:6614  _getStorage */\n      tag_250\n        /* \"contracts/storage/LibSMElegendaryStorage.sol\":6603:6620  _getStorage(SLOT) */\n      jump\t// in\n    tag_332:\n        /* \"contracts/storage/LibSMElegendaryStorage.sol\":6603:6630  _getStorage(SLOT).allTokens */\n      0x05\n      add\n        /* \"contracts/storage/LibSMElegendaryStorage.sol\":6596:6630  return _getStorage(SLOT).allTokens */\n      dup1\n      sload\n      dup1\n      0x20\n      mul\n      0x20\n      add\n      mload(0x40)\n      swap1\n      dup2\n      add\n      0x40\n      mstore\n      dup1\n      swap3\n      swap2\n      swap1\n      dup2\n      dup2\n      mstore\n      0x20\n      add\n      dup3\n      dup1\n      sload\n      dup1\n      iszero\n      tag_333\n      jumpi\n      0x20\n      mul\n      dup3\n      add\n      swap2\n      swap1\n      0x00\n      mstore\n      keccak256(0x00, 0x20)\n      swap1\n    tag_334:\n      dup2\n      sload\n      dup2\n      mstore\n      0x20\n      add\n      swap1\n      0x01\n      add\n      swap1\n      dup1\n      dup4\n      gt\n      tag_334\n      jumpi\n    tag_333:\n      pop\n      pop\n      pop\n      pop\n      pop\n      swap1\n      pop\n        /* \"contracts/storage/LibSMElegendaryStorage.sol\":6535:6632  function allTokens() external view returns(uint256[] memory){return _getStorage(SLOT).allTokens;} */\n      swap1\n      jump\t// out\n        /* \"contracts/storage/LibSMElegendaryStorage.sol\":6403:6529  function ownedTokensIndex(uint256 tokenId) external view returns(uint256){return _getStorage(SLOT).ownedTokensIndex[tokenId];} */\n    tag_147:\n        /* \"contracts/storage/LibSMElegendaryStorage.sol\":6468:6475  uint256 */\n      0x00\n        /* \"contracts/storage/LibSMElegendaryStorage.sol\":6484:6501  _getStorage(SLOT) */\n      tag_336\n        /* \"contracts/storage/LibSMElegendaryStorage.sol\":407:428  bytes('SMElegendary') */\n      mload(0x40)\n      dup1\n      0x40\n      add\n      0x40\n      mstore\n      dup1\n      0x0c\n      dup2\n      mstore\n      0x20\n      add\n      0x534d456c6567656e646172790000000000000000000000000000000000000000\n      dup2\n      mstore\n      pop\n        /* \"contracts/storage/LibSMElegendaryStorage.sol\":397:429  keccak256(bytes('SMElegendary')) */\n      dup1\n      mload\n      swap1\n      0x20\n      add\n      keccak256\n        /* \"contracts/storage/LibSMElegendaryStorage.sol\":6484:6495  _getStorage */\n      tag_250\n        /* \"contracts/storage/LibSMElegendaryStorage.sol\":6484:6501  _getStorage(SLOT) */\n      jump\t// in\n    tag_336:\n        /* \"contracts/storage/LibSMElegendaryStorage.sol\":6484:6518  _getStorage(SLOT).ownedTokensIndex */\n      0x04\n      add\n        /* \"contracts/storage/LibSMElegendaryStorage.sol\":6484:6527  _getStorage(SLOT).ownedTokensIndex[tokenId] */\n      0x00\n        /* \"contracts/storage/LibSMElegendaryStorage.sol\":6519:6526  tokenId */\n      dup4\n        /* \"contracts/storage/LibSMElegendaryStorage.sol\":6484:6527  _getStorage(SLOT).ownedTokensIndex[tokenId] */\n      dup2\n      mstore\n      0x20\n      add\n      swap1\n      dup2\n      mstore\n      0x20\n      add\n      0x00\n      keccak256\n      sload\n        /* \"contracts/storage/LibSMElegendaryStorage.sol\":6477:6527  return _getStorage(SLOT).ownedTokensIndex[tokenId] */\n      swap1\n      pop\n        /* \"contracts/storage/LibSMElegendaryStorage.sol\":6403:6529  function ownedTokensIndex(uint256 tokenId) external view returns(uint256){return _getStorage(SLOT).ownedTokensIndex[tokenId];} */\n      swap2\n      swap1\n      pop\n      jump\t// out\n        /* \"contracts/storage/LibSMElegendaryStorage.sol\":5743:5880  function _spotMintedIncr() external {uint256 _spotMinted = _getStorage(SLOT)._spotMinted; _getStorage(SLOT)._spotMinted = _spotMinted+1;} */\n    tag_151:\n        /* \"contracts/storage/LibSMElegendaryStorage.sol\":5780:5799  uint256 _spotMinted */\n      0x00\n        /* \"contracts/storage/LibSMElegendaryStorage.sol\":5802:5819  _getStorage(SLOT) */\n      tag_338\n        /* \"contracts/storage/LibSMElegendaryStorage.sol\":407:428  bytes('SMElegendary') */\n      mload(0x40)\n      dup1\n      0x40\n      add\n      0x40\n      mstore\n      dup1\n      0x0c\n      dup2\n      mstore\n      0x20\n      add\n      0x534d456c6567656e646172790000000000000000000000000000000000000000\n      dup2\n      mstore\n      pop\n        /* \"contracts/storage/LibSMElegendaryStorage.sol\":397:429  keccak256(bytes('SMElegendary')) */\n      dup1\n      mload\n      swap1\n      0x20\n      add\n      keccak256\n        /* \"contracts/storage/LibSMElegendaryStorage.sol\":5802:5813  _getStorage */\n      tag_250\n        /* \"contracts/storage/LibSMElegendaryStorage.sol\":5802:5819  _getStorage(SLOT) */\n      jump\t// in\n    tag_338:\n        /* \"contracts/storage/LibSMElegendaryStorage.sol\":5802:5831  _getStorage(SLOT)._spotMinted */\n      0x14\n      add\n      sload\n        /* \"contracts/storage/LibSMElegendaryStorage.sol\":5780:5831  uint256 _spotMinted = _getStorage(SLOT)._spotMinted */\n      swap1\n      pop\n        /* \"contracts/storage/LibSMElegendaryStorage.sol\":5877:5878  1 */\n      0x01\n        /* \"contracts/storage/LibSMElegendaryStorage.sol\":5865:5876  _spotMinted */\n      dup2\n        /* \"contracts/storage/LibSMElegendaryStorage.sol\":5865:5878  _spotMinted+1 */\n      tag_339\n      swap2\n      swap1\n      tag_340\n      jump\t// in\n    tag_339:\n        /* \"contracts/storage/LibSMElegendaryStorage.sol\":5833:5850  _getStorage(SLOT) */\n      tag_341\n        /* \"contracts/storage/LibSMElegendaryStorage.sol\":407:428  bytes('SMElegendary') */\n      mload(0x40)\n      dup1\n      0x40\n      add\n      0x40\n      mstore\n      dup1\n      0x0c\n      dup2\n      mstore\n      0x20\n      add\n      0x534d456c6567656e646172790000000000000000000000000000000000000000\n      dup2\n      mstore\n      pop\n        /* \"contracts/storage/LibSMElegendaryStorage.sol\":397:429  keccak256(bytes('SMElegendary')) */\n      dup1\n      mload\n      swap1\n      0x20\n      add\n      keccak256\n        /* \"contracts/storage/LibSMElegendaryStorage.sol\":5833:5844  _getStorage */\n      tag_250\n        /* \"contracts/storage/LibSMElegendaryStorage.sol\":5833:5850  _getStorage(SLOT) */\n      jump\t// in\n    tag_341:\n        /* \"contracts/storage/LibSMElegendaryStorage.sol\":5833:5862  _getStorage(SLOT)._spotMinted */\n      0x14\n      add\n        /* \"contracts/storage/LibSMElegendaryStorage.sol\":5833:5878  _getStorage(SLOT)._spotMinted = _spotMinted+1 */\n      dup2\n      swap1\n      sstore\n      pop\n        /* \"contracts/storage/LibSMElegendaryStorage.sol\":5779:5880  {uint256 _spotMinted = _getStorage(SLOT)._spotMinted; _getStorage(SLOT)._spotMinted = _spotMinted+1;} */\n      pop\n        /* \"contracts/storage/LibSMElegendaryStorage.sol\":5743:5880  function _spotMintedIncr() external {uint256 _spotMinted = _getStorage(SLOT)._spotMinted; _getStorage(SLOT)._spotMinted = _spotMinted+1;} */\n      jump\t// out\n        /* \"contracts/storage/LibSMElegendaryStorage.sol\":7308:7428  function defaultTokenURI(string memory _defaultTokenURI) external{_getStorage(SLOT).defaultTokenURI = _defaultTokenURI;} */\n    tag_155:\n        /* \"contracts/storage/LibSMElegendaryStorage.sol\":7410:7426  _defaultTokenURI */\n      dup1\n        /* \"contracts/storage/LibSMElegendaryStorage.sol\":7374:7391  _getStorage(SLOT) */\n      tag_343\n        /* \"contracts/storage/LibSMElegendaryStorage.sol\":407:428  bytes('SMElegendary') */\n      mload(0x40)\n      dup1\n      0x40\n      add\n      0x40\n      mstore\n      dup1\n      0x0c\n      dup2\n      mstore\n      0x20\n      add\n      0x534d456c6567656e646172790000000000000000000000000000000000000000\n      dup2\n      mstore\n      pop\n        /* \"contracts/storage/LibSMElegendaryStorage.sol\":397:429  keccak256(bytes('SMElegendary')) */\n      dup1\n      mload\n      swap1\n      0x20\n      add\n      keccak256\n        /* \"contracts/storage/LibSMElegendaryStorage.sol\":7374:7385  _getStorage */\n      tag_250\n        /* \"contracts/storage/LibSMElegendaryStorage.sol\":7374:7391  _getStorage(SLOT) */\n      jump\t// in\n    tag_343:\n        /* \"contracts/storage/LibSMElegendaryStorage.sol\":7374:7407  _getStorage(SLOT).defaultTokenURI */\n      0x01\n      add\n        /* \"contracts/storage/LibSMElegendaryStorage.sol\":7374:7426  _getStorage(SLOT).defaultTokenURI = _defaultTokenURI */\n      swap1\n      dup2\n      tag_344\n      swap2\n      swap1\n      tag_311\n      jump\t// in\n    tag_344:\n      pop\n        /* \"contracts/storage/LibSMElegendaryStorage.sol\":7308:7428  function defaultTokenURI(string memory _defaultTokenURI) external{_getStorage(SLOT).defaultTokenURI = _defaultTokenURI;} */\n      pop\n      jump\t// out\n        /* \"contracts/storage/LibSMElegendaryStorage.sol\":5488:5639  function _operatorApprovals(address owner, address operator, bool approved) external{_getStorage(SLOT)._operatorApprovals[owner][operator] = approved;} */\n    tag_160:\n        /* \"contracts/storage/LibSMElegendaryStorage.sol\":5629:5637  approved */\n      dup1\n        /* \"contracts/storage/LibSMElegendaryStorage.sol\":5573:5590  _getStorage(SLOT) */\n      tag_346\n        /* \"contracts/storage/LibSMElegendaryStorage.sol\":407:428  bytes('SMElegendary') */\n      mload(0x40)\n      dup1\n      0x40\n      add\n      0x40\n      mstore\n      dup1\n      0x0c\n      dup2\n      mstore\n      0x20\n      add\n      0x534d456c6567656e646172790000000000000000000000000000000000000000\n      dup2\n      mstore\n      pop\n        /* \"contracts/storage/LibSMElegendaryStorage.sol\":397:429  keccak256(bytes('SMElegendary')) */\n      dup1\n      mload\n      swap1\n      0x20\n      add\n      keccak256\n        /* \"contracts/storage/LibSMElegendaryStorage.sol\":5573:5584  _getStorage */\n      tag_250\n        /* \"contracts/storage/LibSMElegendaryStorage.sol\":5573:5590  _getStorage(SLOT) */\n      jump\t// in\n    tag_346:\n        /* \"contracts/storage/LibSMElegendaryStorage.sol\":5573:5609  _getStorage(SLOT)._operatorApprovals */\n      0x13\n      add\n        /* \"contracts/storage/LibSMElegendaryStorage.sol\":5573:5616  _getStorage(SLOT)._operatorApprovals[owner] */\n      0x00\n        /* \"contracts/storage/LibSMElegendaryStorage.sol\":5610:5615  owner */\n      dup6\n        /* \"contracts/storage/LibSMElegendaryStorage.sol\":5573:5616  _getStorage(SLOT)._operatorApprovals[owner] */\n      0xffffffffffffffffffffffffffffffffffffffff\n      and\n      0xffffffffffffffffffffffffffffffffffffffff\n      and\n      dup2\n      mstore\n      0x20\n      add\n      swap1\n      dup2\n      mstore\n      0x20\n      add\n      0x00\n      keccak256\n        /* \"contracts/storage/LibSMElegendaryStorage.sol\":5573:5626  _getStorage(SLOT)._operatorApprovals[owner][operator] */\n      0x00\n        /* \"contracts/storage/LibSMElegendaryStorage.sol\":5617:5625  operator */\n      dup5\n        /* \"contracts/storage/LibSMElegendaryStorage.sol\":5573:5626  _getStorage(SLOT)._operatorApprovals[owner][operator] */\n      0xffffffffffffffffffffffffffffffffffffffff\n      and\n      0xffffffffffffffffffffffffffffffffffffffff\n      and\n      dup2\n      mstore\n      0x20\n      add\n      swap1\n      dup2\n      mstore\n      0x20\n      add\n      0x00\n      keccak256\n      0x00\n        /* \"contracts/storage/LibSMElegendaryStorage.sol\":5573:5637  _getStorage(SLOT)._operatorApprovals[owner][operator] = approved */\n      0x0100\n      exp\n      dup2\n      sload\n      dup2\n      0xff\n      mul\n      not\n      and\n      swap1\n      dup4\n      iszero\n      iszero\n      mul\n      or\n      swap1\n      sstore\n      pop\n        /* \"contracts/storage/LibSMElegendaryStorage.sol\":5488:5639  function _operatorApprovals(address owner, address operator, bool approved) external{_getStorage(SLOT)._operatorApprovals[owner][operator] = approved;} */\n      pop\n      pop\n      pop\n      jump\t// out\n        /* \"contracts/storage/LibSMElegendaryStorage.sol\":7958:8068  function legendlistRoot(bytes32 _legendlistRoot) external{_getStorage(SLOT).legendlistRoot = _legendlistRoot;} */\n    tag_164:\n        /* \"contracts/storage/LibSMElegendaryStorage.sol\":8051:8066  _legendlistRoot */\n      dup1\n        /* \"contracts/storage/LibSMElegendaryStorage.sol\":8016:8033  _getStorage(SLOT) */\n      tag_348\n        /* \"contracts/storage/LibSMElegendaryStorage.sol\":407:428  bytes('SMElegendary') */\n      mload(0x40)\n      dup1\n      0x40\n      add\n      0x40\n      mstore\n      dup1\n      0x0c\n      dup2\n      mstore\n      0x20\n      add\n      0x534d456c6567656e646172790000000000000000000000000000000000000000\n      dup2\n      mstore\n      pop\n        /* \"contracts/storage/LibSMElegendaryStorage.sol\":397:429  keccak256(bytes('SMElegendary')) */\n      dup1\n      mload\n      swap1\n      0x20\n      add\n      keccak256\n        /* \"contracts/storage/LibSMElegendaryStorage.sol\":8016:8027  _getStorage */\n      tag_250\n        /* \"contracts/storage/LibSMElegendaryStorage.sol\":8016:8033  _getStorage(SLOT) */\n      jump\t// in\n    tag_348:\n        /* \"contracts/storage/LibSMElegendaryStorage.sol\":8016:8048  _getStorage(SLOT).legendlistRoot */\n      0x08\n      add\n        /* \"contracts/storage/LibSMElegendaryStorage.sol\":8016:8066  _getStorage(SLOT).legendlistRoot = _legendlistRoot */\n      dup2\n      swap1\n      sstore\n      pop\n        /* \"contracts/storage/LibSMElegendaryStorage.sol\":7958:8068  function legendlistRoot(bytes32 _legendlistRoot) external{_getStorage(SLOT).legendlistRoot = _legendlistRoot;} */\n      pop\n      jump\t// out\n        /* \"contracts/storage/LibSMElegendaryStorage.sol\":4104:4187  function _burnCounter(uint256 _id) external {_getStorage(SLOT)._burnCounter = _id;} */\n    tag_168:\n        /* \"contracts/storage/LibSMElegendaryStorage.sol\":4182:4185  _id */\n      dup1\n        /* \"contracts/storage/LibSMElegendaryStorage.sol\":4149:4166  _getStorage(SLOT) */\n      tag_350\n        /* \"contracts/storage/LibSMElegendaryStorage.sol\":407:428  bytes('SMElegendary') */\n      mload(0x40)\n      dup1\n      0x40\n      add\n      0x40\n      mstore\n      dup1\n      0x0c\n      dup2\n      mstore\n      0x20\n      add\n      0x534d456c6567656e646172790000000000000000000000000000000000000000\n      dup2\n      mstore\n      pop\n        /* \"contracts/storage/LibSMElegendaryStorage.sol\":397:429  keccak256(bytes('SMElegendary')) */\n      dup1\n      mload\n      swap1\n      0x20\n      add\n      keccak256\n        /* \"contracts/storage/LibSMElegendaryStorage.sol\":4149:4160  _getStorage */\n      tag_250\n        /* \"contracts/storage/LibSMElegendaryStorage.sol\":4149:4166  _getStorage(SLOT) */\n      jump\t// in\n    tag_350:\n        /* \"contracts/storage/LibSMElegendaryStorage.sol\":4149:4179  _getStorage(SLOT)._burnCounter */\n      0x0d\n      add\n        /* \"contracts/storage/LibSMElegendaryStorage.sol\":4149:4185  _getStorage(SLOT)._burnCounter = _id */\n      dup2\n      swap1\n      sstore\n      pop\n        /* \"contracts/storage/LibSMElegendaryStorage.sol\":4104:4187  function _burnCounter(uint256 _id) external {_getStorage(SLOT)._burnCounter = _id;} */\n      pop\n      jump\t// out\n        /* \"contracts/storage/LibSMElegendaryStorage.sol\":3612:3708  function _currentIndex() external view returns(uint256){return _getStorage(SLOT)._currentIndex;} */\n    tag_170:\n        /* \"contracts/storage/LibSMElegendaryStorage.sol\":3659:3666  uint256 */\n      0x00\n        /* \"contracts/storage/LibSMElegendaryStorage.sol\":3675:3692  _getStorage(SLOT) */\n      tag_352\n        /* \"contracts/storage/LibSMElegendaryStorage.sol\":407:428  bytes('SMElegendary') */\n      mload(0x40)\n      dup1\n      0x40\n      add\n      0x40\n      mstore\n      dup1\n      0x0c\n      dup2\n      mstore\n      0x20\n      add\n      0x534d456c6567656e646172790000000000000000000000000000000000000000\n      dup2\n      mstore\n      pop\n        /* \"contracts/storage/LibSMElegendaryStorage.sol\":397:429  keccak256(bytes('SMElegendary')) */\n      dup1\n      mload\n      swap1\n      0x20\n      add\n      keccak256\n        /* \"contracts/storage/LibSMElegendaryStorage.sol\":3675:3686  _getStorage */\n      tag_250\n        /* \"contracts/storage/LibSMElegendaryStorage.sol\":3675:3692  _getStorage(SLOT) */\n      jump\t// in\n    tag_352:\n        /* \"contracts/storage/LibSMElegendaryStorage.sol\":3675:3706  _getStorage(SLOT)._currentIndex */\n      0x0c\n      add\n      sload\n        /* \"contracts/storage/LibSMElegendaryStorage.sol\":3668:3706  return _getStorage(SLOT)._currentIndex */\n      swap1\n      pop\n        /* \"contracts/storage/LibSMElegendaryStorage.sol\":3612:3708  function _currentIndex() external view returns(uint256){return _getStorage(SLOT)._currentIndex;} */\n      swap1\n      jump\t// out\n        /* \"contracts/storage/LibSMElegendaryStorage.sol\":3425:3514  function symbol() external view returns(string memory){return _getStorage(SLOT)._symbol;} */\n    tag_173:\n        /* \"contracts/storage/LibSMElegendaryStorage.sol\":3465:3478  string memory */\n      0x60\n        /* \"contracts/storage/LibSMElegendaryStorage.sol\":3487:3504  _getStorage(SLOT) */\n      tag_354\n        /* \"contracts/storage/LibSMElegendaryStorage.sol\":407:428  bytes('SMElegendary') */\n      mload(0x40)\n      dup1\n      0x40\n      add\n      0x40\n      mstore\n      dup1\n      0x0c\n      dup2\n      mstore\n      0x20\n      add\n      0x534d456c6567656e646172790000000000000000000000000000000000000000\n      dup2\n      mstore\n      pop\n        /* \"contracts/storage/LibSMElegendaryStorage.sol\":397:429  keccak256(bytes('SMElegendary')) */\n      dup1\n      mload\n      swap1\n      0x20\n      add\n      keccak256\n        /* \"contracts/storage/LibSMElegendaryStorage.sol\":3487:3498  _getStorage */\n      tag_250\n        /* \"contracts/storage/LibSMElegendaryStorage.sol\":3487:3504  _getStorage(SLOT) */\n      jump\t// in\n    tag_354:\n        /* \"contracts/storage/LibSMElegendaryStorage.sol\":3487:3512  _getStorage(SLOT)._symbol */\n      0x0f\n      add\n        /* \"contracts/storage/LibSMElegendaryStorage.sol\":3480:3512  return _getStorage(SLOT)._symbol */\n      dup1\n      sload\n      tag_355\n      swap1\n      tag_252\n      jump\t// in\n    tag_355:\n      dup1\n      0x1f\n      add\n      0x20\n      dup1\n      swap2\n      div\n      mul\n      0x20\n      add\n      mload(0x40)\n      swap1\n      dup2\n      add\n      0x40\n      mstore\n      dup1\n      swap3\n      swap2\n      swap1\n      dup2\n      dup2\n      mstore\n      0x20\n      add\n      dup3\n      dup1\n      sload\n      tag_356\n      swap1\n      tag_252\n      jump\t// in\n    tag_356:\n      dup1\n      iszero\n      tag_357\n      jumpi\n      dup1\n      0x1f\n      lt\n      tag_358\n      jumpi\n      0x0100\n      dup1\n      dup4\n      sload\n      div\n      mul\n      dup4\n      mstore\n      swap2\n      0x20\n      add\n      swap2\n      jump(tag_357)\n    tag_358:\n      dup3\n      add\n      swap2\n      swap1\n      0x00\n      mstore\n      keccak256(0x00, 0x20)\n      swap1\n    tag_359:\n      dup2\n      sload\n      dup2\n      mstore\n      swap1\n      0x01\n      add\n      swap1\n      0x20\n      add\n      dup1\n      dup4\n      gt\n      tag_359\n      jumpi\n      dup3\n      swap1\n      sub\n      0x1f\n      and\n      dup3\n      add\n      swap2\n    tag_357:\n      pop\n      pop\n      pop\n      pop\n      pop\n      swap1\n      pop\n        /* \"contracts/storage/LibSMElegendaryStorage.sol\":3425:3514  function symbol() external view returns(string memory){return _getStorage(SLOT)._symbol;} */\n      swap1\n      jump\t// out\n        /* \"contracts/storage/LibSMElegendaryStorage.sol\":6027:6133  function defaultTokenURI() external view returns(string memory){return _getStorage(SLOT).defaultTokenURI;} */\n    tag_176:\n        /* \"contracts/storage/LibSMElegendaryStorage.sol\":6076:6089  string memory */\n      0x60\n        /* \"contracts/storage/LibSMElegendaryStorage.sol\":6098:6115  _getStorage(SLOT) */\n      tag_361\n        /* \"contracts/storage/LibSMElegendaryStorage.sol\":407:428  bytes('SMElegendary') */\n      mload(0x40)\n      dup1\n      0x40\n      add\n      0x40\n      mstore\n      dup1\n      0x0c\n      dup2\n      mstore\n      0x20\n      add\n      0x534d456c6567656e646172790000000000000000000000000000000000000000\n      dup2\n      mstore\n      pop\n        /* \"contracts/storage/LibSMElegendaryStorage.sol\":397:429  keccak256(bytes('SMElegendary')) */\n      dup1\n      mload\n      swap1\n      0x20\n      add\n      keccak256\n        /* \"contracts/storage/LibSMElegendaryStorage.sol\":6098:6109  _getStorage */\n      tag_250\n        /* \"contracts/storage/LibSMElegendaryStorage.sol\":6098:6115  _getStorage(SLOT) */\n      jump\t// in\n    tag_361:\n        /* \"contracts/storage/LibSMElegendaryStorage.sol\":6098:6131  _getStorage(SLOT).defaultTokenURI */\n      0x01\n      add\n        /* \"contracts/storage/LibSMElegendaryStorage.sol\":6091:6131  return _getStorage(SLOT).defaultTokenURI */\n      dup1\n      sload\n      tag_362\n      swap1\n      tag_252\n      jump\t// in\n    tag_362:\n      dup1\n      0x1f\n      add\n      0x20\n      dup1\n      swap2\n      div\n      mul\n      0x20\n      add\n      mload(0x40)\n      swap1\n      dup2\n      add\n      0x40\n      mstore\n      dup1\n      swap3\n      swap2\n      swap1\n      dup2\n      dup2\n      mstore\n      0x20\n      add\n      dup3\n      dup1\n      sload\n      tag_363\n      swap1\n      tag_252\n      jump\t// in\n    tag_363:\n      dup1\n      iszero\n      tag_364\n      jumpi\n      dup1\n      0x1f\n      lt\n      tag_365\n      jumpi\n      0x0100\n      dup1\n      dup4\n      sload\n      div\n      mul\n      dup4\n      mstore\n      swap2\n      0x20\n      add\n      swap2\n      jump(tag_364)\n    tag_365:\n      dup3\n      add\n      swap2\n      swap1\n      0x00\n      mstore\n      keccak256(0x00, 0x20)\n      swap1\n    tag_366:\n      dup2\n      sload\n      dup2\n      mstore\n      swap1\n      0x01\n      add\n      swap1\n      0x20\n      add\n      dup1\n      dup4\n      gt\n      tag_366\n      jumpi\n      dup3\n      swap1\n      sub\n      0x1f\n      and\n      dup3\n      add\n      swap2\n    tag_364:\n      pop\n      pop\n      pop\n      pop\n      pop\n      swap1\n      pop\n        /* \"contracts/storage/LibSMElegendaryStorage.sol\":6027:6133  function defaultTokenURI() external view returns(string memory){return _getStorage(SLOT).defaultTokenURI;} */\n      swap1\n      jump\t// out\n        /* \"contracts/storage/LibSMElegendaryStorage.sol\":3811:3907  function _startTokenId() external view returns(uint256){return _getStorage(SLOT)._startTokenId;} */\n    tag_179:\n        /* \"contracts/storage/LibSMElegendaryStorage.sol\":3858:3865  uint256 */\n      0x00\n        /* \"contracts/storage/LibSMElegendaryStorage.sol\":3874:3891  _getStorage(SLOT) */\n      tag_368\n        /* \"contracts/storage/LibSMElegendaryStorage.sol\":407:428  bytes('SMElegendary') */\n      mload(0x40)\n      dup1\n      0x40\n      add\n      0x40\n      mstore\n      dup1\n      0x0c\n      dup2\n      mstore\n      0x20\n      add\n      0x534d456c6567656e646172790000000000000000000000000000000000000000\n      dup2\n      mstore\n      pop\n        /* \"contracts/storage/LibSMElegendaryStorage.sol\":397:429  keccak256(bytes('SMElegendary')) */\n      dup1\n      mload\n      swap1\n      0x20\n      add\n      keccak256\n        /* \"contracts/storage/LibSMElegendaryStorage.sol\":3874:3885  _getStorage */\n      tag_250\n        /* \"contracts/storage/LibSMElegendaryStorage.sol\":3874:3891  _getStorage(SLOT) */\n      jump\t// in\n    tag_368:\n        /* \"contracts/storage/LibSMElegendaryStorage.sol\":3874:3905  _getStorage(SLOT)._startTokenId */\n      0x15\n      add\n      sload\n        /* \"contracts/storage/LibSMElegendaryStorage.sol\":3867:3905  return _getStorage(SLOT)._startTokenId */\n      swap1\n      pop\n        /* \"contracts/storage/LibSMElegendaryStorage.sol\":3811:3907  function _startTokenId() external view returns(uint256){return _getStorage(SLOT)._startTokenId;} */\n      swap1\n      jump\t// out\n        /* \"contracts/storage/LibSMElegendaryStorage.sol\":7194:7302  function baseTokenURI(string memory _baseTokenURI) external{_getStorage(SLOT).baseTokenURI = _baseTokenURI;} */\n    tag_184:\n        /* \"contracts/storage/LibSMElegendaryStorage.sol\":7287:7300  _baseTokenURI */\n      dup1\n        /* \"contracts/storage/LibSMElegendaryStorage.sol\":7254:7271  _getStorage(SLOT) */\n      tag_370\n        /* \"contracts/storage/LibSMElegendaryStorage.sol\":407:428  bytes('SMElegendary') */\n      mload(0x40)\n      dup1\n      0x40\n      add\n      0x40\n      mstore\n      dup1\n      0x0c\n      dup2\n      mstore\n      0x20\n      add\n      0x534d456c6567656e646172790000000000000000000000000000000000000000\n      dup2\n      mstore\n      pop\n        /* \"contracts/storage/LibSMElegendaryStorage.sol\":397:429  keccak256(bytes('SMElegendary')) */\n      dup1\n      mload\n      swap1\n      0x20\n      add\n      keccak256\n        /* \"contracts/storage/LibSMElegendaryStorage.sol\":7254:7265  _getStorage */\n      tag_250\n        /* \"contracts/storage/LibSMElegendaryStorage.sol\":7254:7271  _getStorage(SLOT) */\n      jump\t// in\n    tag_370:\n        /* \"contracts/storage/LibSMElegendaryStorage.sol\":7254:7284  _getStorage(SLOT).baseTokenURI */\n      0x00\n      add\n        /* \"contracts/storage/LibSMElegendaryStorage.sol\":7254:7300  _getStorage(SLOT).baseTokenURI = _baseTokenURI */\n      swap1\n      dup2\n      tag_371\n      swap2\n      swap1\n      tag_311\n      jump\t// in\n    tag_371:\n      pop\n        /* \"contracts/storage/LibSMElegendaryStorage.sol\":7194:7302  function baseTokenURI(string memory _baseTokenURI) external{_getStorage(SLOT).baseTokenURI = _baseTokenURI;} */\n      pop\n      jump\t// out\n        /* \"contracts/storage/LibSMElegendaryStorage.sol\":4595:4723  function _packedAddressData(address _owner, uint256 _tokenId) external{_getStorage(SLOT)._packedAddressData[_owner] = _tokenId;} */\n    tag_189:\n        /* \"contracts/storage/LibSMElegendaryStorage.sol\":4713:4721  _tokenId */\n      dup1\n        /* \"contracts/storage/LibSMElegendaryStorage.sol\":4666:4683  _getStorage(SLOT) */\n      tag_373\n        /* \"contracts/storage/LibSMElegendaryStorage.sol\":407:428  bytes('SMElegendary') */\n      mload(0x40)\n      dup1\n      0x40\n      add\n      0x40\n      mstore\n      dup1\n      0x0c\n      dup2\n      mstore\n      0x20\n      add\n      0x534d456c6567656e646172790000000000000000000000000000000000000000\n      dup2\n      mstore\n      pop\n        /* \"contracts/storage/LibSMElegendaryStorage.sol\":397:429  keccak256(bytes('SMElegendary')) */\n      dup1\n      mload\n      swap1\n      0x20\n      add\n      keccak256\n        /* \"contracts/storage/LibSMElegendaryStorage.sol\":4666:4677  _getStorage */\n      tag_250\n        /* \"contracts/storage/LibSMElegendaryStorage.sol\":4666:4683  _getStorage(SLOT) */\n      jump\t// in\n    tag_373:\n        /* \"contracts/storage/LibSMElegendaryStorage.sol\":4666:4702  _getStorage(SLOT)._packedAddressData */\n      0x11\n      add\n        /* \"contracts/storage/LibSMElegendaryStorage.sol\":4666:4710  _getStorage(SLOT)._packedAddressData[_owner] */\n      0x00\n        /* \"contracts/storage/LibSMElegendaryStorage.sol\":4703:4709  _owner */\n      dup5\n        /* \"contracts/storage/LibSMElegendaryStorage.sol\":4666:4710  _getStorage(SLOT)._packedAddressData[_owner] */\n      0xffffffffffffffffffffffffffffffffffffffff\n      and\n      0xffffffffffffffffffffffffffffffffffffffff\n      and\n      dup2\n      mstore\n      0x20\n      add\n      swap1\n      dup2\n      mstore\n      0x20\n      add\n      0x00\n      keccak256\n        /* \"contracts/storage/LibSMElegendaryStorage.sol\":4666:4721  _getStorage(SLOT)._packedAddressData[_owner] = _tokenId */\n      dup2\n      swap1\n      sstore\n      pop\n        /* \"contracts/storage/LibSMElegendaryStorage.sol\":4595:4723  function _packedAddressData(address _owner, uint256 _tokenId) external{_getStorage(SLOT)._packedAddressData[_owner] = _tokenId;} */\n      pop\n      pop\n      jump\t// out\n        /* \"contracts/storage/LibSMElegendaryStorage.sol\":5045:5187  function _tokenApprovals(uint256 _tokenId) external view returns(TokenApprovalRef memory){return _getStorage(SLOT)._tokenApprovals[_tokenId];} */\n    tag_192:\n        /* \"contracts/storage/LibSMElegendaryStorage.sol\":5110:5133  TokenApprovalRef memory */\n      tag_374\n      tag_375\n      jump\t// in\n    tag_374:\n        /* \"contracts/storage/LibSMElegendaryStorage.sol\":5142:5159  _getStorage(SLOT) */\n      tag_377\n        /* \"contracts/storage/LibSMElegendaryStorage.sol\":407:428  bytes('SMElegendary') */\n      mload(0x40)\n      dup1\n      0x40\n      add\n      0x40\n      mstore\n      dup1\n      0x0c\n      dup2\n      mstore\n      0x20\n      add\n      0x534d456c6567656e646172790000000000000000000000000000000000000000\n      dup2\n      mstore\n      pop\n        /* \"contracts/storage/LibSMElegendaryStorage.sol\":397:429  keccak256(bytes('SMElegendary')) */\n      dup1\n      mload\n      swap1\n      0x20\n      add\n      keccak256\n        /* \"contracts/storage/LibSMElegendaryStorage.sol\":5142:5153  _getStorage */\n      tag_250\n        /* \"contracts/storage/LibSMElegendaryStorage.sol\":5142:5159  _getStorage(SLOT) */\n      jump\t// in\n    tag_377:\n        /* \"contracts/storage/LibSMElegendaryStorage.sol\":5142:5175  _getStorage(SLOT)._tokenApprovals */\n      0x12\n      add\n        /* \"contracts/storage/LibSMElegendaryStorage.sol\":5142:5185  _getStorage(SLOT)._tokenApprovals[_tokenId] */\n      0x00\n        /* \"contracts/storage/LibSMElegendaryStorage.sol\":5176:5184  _tokenId */\n      dup4\n        /* \"contracts/storage/LibSMElegendaryStorage.sol\":5142:5185  _getStorage(SLOT)._tokenApprovals[_tokenId] */\n      dup2\n      mstore\n      0x20\n      add\n      swap1\n      dup2\n      mstore\n      0x20\n      add\n      0x00\n      keccak256\n        /* \"contracts/storage/LibSMElegendaryStorage.sol\":5135:5185  return _getStorage(SLOT)._tokenApprovals[_tokenId] */\n      mload(0x40)\n      dup1\n      0x20\n      add\n      0x40\n      mstore\n      swap1\n      dup2\n      0x00\n      dup3\n      add\n      0x00\n      swap1\n      sload\n      swap1\n      0x0100\n      exp\n      swap1\n      div\n      0xffffffffffffffffffffffffffffffffffffffff\n      and\n      0xffffffffffffffffffffffffffffffffffffffff\n      and\n      0xffffffffffffffffffffffffffffffffffffffff\n      and\n      dup2\n      mstore\n      pop\n      pop\n      swap1\n      pop\n        /* \"contracts/storage/LibSMElegendaryStorage.sol\":5045:5187  function _tokenApprovals(uint256 _tokenId) external view returns(TokenApprovalRef memory){return _getStorage(SLOT)._tokenApprovals[_tokenId];} */\n      swap2\n      swap1\n      pop\n      jump\t// out\n        /* \"contracts/storage/LibSMElegendaryStorage.sol\":7708:7832  function ownedTokensIndex(uint256 _tokenId, uint256 _index) external{_getStorage(SLOT).ownedTokensIndex[_tokenId] = _index;} */\n    tag_199:\n        /* \"contracts/storage/LibSMElegendaryStorage.sol\":7824:7830  _index */\n      dup1\n        /* \"contracts/storage/LibSMElegendaryStorage.sol\":7777:7794  _getStorage(SLOT) */\n      tag_379\n        /* \"contracts/storage/LibSMElegendaryStorage.sol\":407:428  bytes('SMElegendary') */\n      mload(0x40)\n      dup1\n      0x40\n      add\n      0x40\n      mstore\n      dup1\n      0x0c\n      dup2\n      mstore\n      0x20\n      add\n      0x534d456c6567656e646172790000000000000000000000000000000000000000\n      dup2\n      mstore\n      pop\n        /* \"contracts/storage/LibSMElegendaryStorage.sol\":397:429  keccak256(bytes('SMElegendary')) */\n      dup1\n      mload\n      swap1\n      0x20\n      add\n      keccak256\n        /* \"contracts/storage/LibSMElegendaryStorage.sol\":7777:7788  _getStorage */\n      tag_250\n        /* \"contracts/storage/LibSMElegendaryStorage.sol\":7777:7794  _getStorage(SLOT) */\n      jump\t// in\n    tag_379:\n        /* \"contracts/storage/LibSMElegendaryStorage.sol\":7777:7811  _getStorage(SLOT).ownedTokensIndex */\n      0x04\n      add\n        /* \"contracts/storage/LibSMElegendaryStorage.sol\":7777:7821  _getStorage(SLOT).ownedTokensIndex[_tokenId] */\n      0x00\n        /* \"contracts/storage/LibSMElegendaryStorage.sol\":7812:7820  _tokenId */\n      dup5\n        /* \"contracts/storage/LibSMElegendaryStorage.sol\":7777:7821  _getStorage(SLOT).ownedTokensIndex[_tokenId] */\n      dup2\n      mstore\n      0x20\n      add\n      swap1\n      dup2\n      mstore\n      0x20\n      add\n      0x00\n      keccak256\n        /* \"contracts/storage/LibSMElegendaryStorage.sol\":7777:7830  _getStorage(SLOT).ownedTokensIndex[_tokenId] = _index */\n      dup2\n      swap1\n      sstore\n      pop\n        /* \"contracts/storage/LibSMElegendaryStorage.sol\":7708:7832  function ownedTokensIndex(uint256 _tokenId, uint256 _index) external{_getStorage(SLOT).ownedTokensIndex[_tokenId] = _index;} */\n      pop\n      pop\n      jump\t// out\n        /* \"contracts/storage/LibSMElegendaryStorage.sol\":8254:8371  function guaranteed_minted(address _owner, bool _bool) external{_getStorage(SLOT).guaranteed_minted[_owner] = _bool;} */\n    tag_204:\n        /* \"contracts/storage/LibSMElegendaryStorage.sol\":8364:8369  _bool */\n      dup1\n        /* \"contracts/storage/LibSMElegendaryStorage.sol\":8318:8335  _getStorage(SLOT) */\n      tag_381\n        /* \"contracts/storage/LibSMElegendaryStorage.sol\":407:428  bytes('SMElegendary') */\n      mload(0x40)\n      dup1\n      0x40\n      add\n      0x40\n      mstore\n      dup1\n      0x0c\n      dup2\n      mstore\n      0x20\n      add\n      0x534d456c6567656e646172790000000000000000000000000000000000000000\n      dup2\n      mstore\n      pop\n        /* \"contracts/storage/LibSMElegendaryStorage.sol\":397:429  keccak256(bytes('SMElegendary')) */\n      dup1\n      mload\n      swap1\n      0x20\n      add\n      keccak256\n        /* \"contracts/storage/LibSMElegendaryStorage.sol\":8318:8329  _getStorage */\n      tag_250\n        /* \"contracts/storage/LibSMElegendaryStorage.sol\":8318:8335  _getStorage(SLOT) */\n      jump\t// in\n    tag_381:\n        /* \"contracts/storage/LibSMElegendaryStorage.sol\":8318:8353  _getStorage(SLOT).guaranteed_minted */\n      0x0b\n      add\n        /* \"contracts/storage/LibSMElegendaryStorage.sol\":8318:8361  _getStorage(SLOT).guaranteed_minted[_owner] */\n      0x00\n        /* \"contracts/storage/LibSMElegendaryStorage.sol\":8354:8360  _owner */\n      dup5\n        /* \"contracts/storage/LibSMElegendaryStorage.sol\":8318:8361  _getStorage(SLOT).guaranteed_minted[_owner] */\n      0xffffffffffffffffffffffffffffffffffffffff\n      and\n      0xffffffffffffffffffffffffffffffffffffffff\n      and\n      dup2\n      mstore\n      0x20\n      add\n      swap1\n      dup2\n      mstore\n      0x20\n      add\n      0x00\n      keccak256\n      0x00\n        /* \"contracts/storage/LibSMElegendaryStorage.sol\":8318:8369  _getStorage(SLOT).guaranteed_minted[_owner] = _bool */\n      0x0100\n      exp\n      dup2\n      sload\n      dup2\n      0xff\n      mul\n      not\n      and\n      swap1\n      dup4\n      iszero\n      iszero\n      mul\n      or\n      swap1\n      sstore\n      pop\n        /* \"contracts/storage/LibSMElegendaryStorage.sol\":8254:8371  function guaranteed_minted(address _owner, bool _bool) external{_getStorage(SLOT).guaranteed_minted[_owner] = _bool;} */\n      pop\n      pop\n      jump\t// out\n        /* \"contracts/storage/LibSMElegendaryStorage.sol\":7030:7151  function guaranteed_minted(address owner) external view returns(bool){return _getStorage(SLOT).guaranteed_minted[owner];} */\n    tag_207:\n        /* \"contracts/storage/LibSMElegendaryStorage.sol\":7094:7098  bool */\n      0x00\n        /* \"contracts/storage/LibSMElegendaryStorage.sol\":7107:7124  _getStorage(SLOT) */\n      tag_383\n        /* \"contracts/storage/LibSMElegendaryStorage.sol\":407:428  bytes('SMElegendary') */\n      mload(0x40)\n      dup1\n      0x40\n      add\n      0x40\n      mstore\n      dup1\n      0x0c\n      dup2\n      mstore\n      0x20\n      add\n      0x534d456c6567656e646172790000000000000000000000000000000000000000\n      dup2\n      mstore\n      pop\n        /* \"contracts/storage/LibSMElegendaryStorage.sol\":397:429  keccak256(bytes('SMElegendary')) */\n      dup1\n      mload\n      swap1\n      0x20\n      add\n      keccak256\n        /* \"contracts/storage/LibSMElegendaryStorage.sol\":7107:7118  _getStorage */\n      tag_250\n        /* \"contracts/storage/LibSMElegendaryStorage.sol\":7107:7124  _getStorage(SLOT) */\n      jump\t// in\n    tag_383:\n        /* \"contracts/storage/LibSMElegendaryStorage.sol\":7107:7142  _getStorage(SLOT).guaranteed_minted */\n      0x0b\n      add\n        /* \"contracts/storage/LibSMElegendaryStorage.sol\":7107:7149  _getStorage(SLOT).guaranteed_minted[owner] */\n      0x00\n        /* \"contracts/storage/LibSMElegendaryStorage.sol\":7143:7148  owner */\n      dup4\n        /* \"contracts/storage/LibSMElegendaryStorage.sol\":7107:7149  _getStorage(SLOT).guaranteed_minted[owner] */\n      0xffffffffffffffffffffffffffffffffffffffff\n      and\n      0xffffffffffffffffffffffffffffffffffffffff\n      and\n      dup2\n      mstore\n      0x20\n      add\n      swap1\n      dup2\n      mstore\n      0x20\n      add\n      0x00\n      keccak256\n      0x00\n      swap1\n      sload\n      swap1\n      0x0100\n      exp\n      swap1\n      div\n      0xff\n      and\n        /* \"contracts/storage/LibSMElegendaryStorage.sol\":7100:7149  return _getStorage(SLOT).guaranteed_minted[owner] */\n      swap1\n      pop\n        /* \"contracts/storage/LibSMElegendaryStorage.sol\":7030:7151  function guaranteed_minted(address owner) external view returns(bool){return _getStorage(SLOT).guaranteed_minted[owner];} */\n      swap2\n      swap1\n      pop\n      jump\t// out\n        /* \"contracts/storage/LibSMElegendaryStorage.sol\":4729:4881  function _packedAddressDataIncr(address _owner) external{_getStorage(SLOT)._packedAddressData[_owner] = _getStorage(SLOT)._packedAddressData[_owner]+1;} */\n    tag_213:\n        /* \"contracts/storage/LibSMElegendaryStorage.sol\":4878:4879  1 */\n      0x01\n        /* \"contracts/storage/LibSMElegendaryStorage.sol\":4833:4850  _getStorage(SLOT) */\n      tag_385\n        /* \"contracts/storage/LibSMElegendaryStorage.sol\":407:428  bytes('SMElegendary') */\n      mload(0x40)\n      dup1\n      0x40\n      add\n      0x40\n      mstore\n      dup1\n      0x0c\n      dup2\n      mstore\n      0x20\n      add\n      0x534d456c6567656e646172790000000000000000000000000000000000000000\n      dup2\n      mstore\n      pop\n        /* \"contracts/storage/LibSMElegendaryStorage.sol\":397:429  keccak256(bytes('SMElegendary')) */\n      dup1\n      mload\n      swap1\n      0x20\n      add\n      keccak256\n        /* \"contracts/storage/LibSMElegendaryStorage.sol\":4833:4844  _getStorage */\n      tag_250\n        /* \"contracts/storage/LibSMElegendaryStorage.sol\":4833:4850  _getStorage(SLOT) */\n      jump\t// in\n    tag_385:\n        /* \"contracts/storage/LibSMElegendaryStorage.sol\":4833:4869  _getStorage(SLOT)._packedAddressData */\n      0x11\n      add\n        /* \"contracts/storage/LibSMElegendaryStorage.sol\":4833:4877  _getStorage(SLOT)._packedAddressData[_owner] */\n      0x00\n        /* \"contracts/storage/LibSMElegendaryStorage.sol\":4870:4876  _owner */\n      dup4\n        /* \"contracts/storage/LibSMElegendaryStorage.sol\":4833:4877  _getStorage(SLOT)._packedAddressData[_owner] */\n      0xffffffffffffffffffffffffffffffffffffffff\n      and\n      0xffffffffffffffffffffffffffffffffffffffff\n      and\n      dup2\n      mstore\n      0x20\n      add\n      swap1\n      dup2\n      mstore\n      0x20\n      add\n      0x00\n      keccak256\n      sload\n        /* \"contracts/storage/LibSMElegendaryStorage.sol\":4833:4879  _getStorage(SLOT)._packedAddressData[_owner]+1 */\n      tag_386\n      swap2\n      swap1\n      tag_340\n      jump\t// in\n    tag_386:\n        /* \"contracts/storage/LibSMElegendaryStorage.sol\":4786:4803  _getStorage(SLOT) */\n      tag_387\n        /* \"contracts/storage/LibSMElegendaryStorage.sol\":407:428  bytes('SMElegendary') */\n      mload(0x40)\n      dup1\n      0x40\n      add\n      0x40\n      mstore\n      dup1\n      0x0c\n      dup2\n      mstore\n      0x20\n      add\n      0x534d456c6567656e646172790000000000000000000000000000000000000000\n      dup2\n      mstore\n      pop\n        /* \"contracts/storage/LibSMElegendaryStorage.sol\":397:429  keccak256(bytes('SMElegendary')) */\n      dup1\n      mload\n      swap1\n      0x20\n      add\n      keccak256\n        /* \"contracts/storage/LibSMElegendaryStorage.sol\":4786:4797  _getStorage */\n      tag_250\n        /* \"contracts/storage/LibSMElegendaryStorage.sol\":4786:4803  _getStorage(SLOT) */\n      jump\t// in\n    tag_387:\n        /* \"contracts/storage/LibSMElegendaryStorage.sol\":4786:4822  _getStorage(SLOT)._packedAddressData */\n      0x11\n      add\n        /* \"contracts/storage/LibSMElegendaryStorage.sol\":4786:4830  _getStorage(SLOT)._packedAddressData[_owner] */\n      0x00\n        /* \"contracts/storage/LibSMElegendaryStorage.sol\":4823:4829  _owner */\n      dup4\n        /* \"contracts/storage/LibSMElegendaryStorage.sol\":4786:4830  _getStorage(SLOT)._packedAddressData[_owner] */\n      0xffffffffffffffffffffffffffffffffffffffff\n      and\n      0xffffffffffffffffffffffffffffffffffffffff\n      and\n      dup2\n      mstore\n      0x20\n      add\n      swap1\n      dup2\n      mstore\n      0x20\n      add\n      0x00\n      keccak256\n        /* \"contracts/storage/LibSMElegendaryStorage.sol\":4786:4879  _getStorage(SLOT)._packedAddressData[_owner] = _getStorage(SLOT)._packedAddressData[_owner]+1 */\n      dup2\n      swap1\n      sstore\n      pop\n        /* \"contracts/storage/LibSMElegendaryStorage.sol\":4729:4881  function _packedAddressDataIncr(address _owner) external{_getStorage(SLOT)._packedAddressData[_owner] = _getStorage(SLOT)._packedAddressData[_owner]+1;} */\n      pop\n      jump\t// out\n        /* \"contracts/storage/LibSMElegendaryStorage.sol\":5645:5737  function _spotMinted() external view returns(uint256){return _getStorage(SLOT)._spotMinted;} */\n    tag_215:\n        /* \"contracts/storage/LibSMElegendaryStorage.sol\":5690:5697  uint256 */\n      0x00\n        /* \"contracts/storage/LibSMElegendaryStorage.sol\":5706:5723  _getStorage(SLOT) */\n      tag_389\n        /* \"contracts/storage/LibSMElegendaryStorage.sol\":407:428  bytes('SMElegendary') */\n      mload(0x40)\n      dup1\n      0x40\n      add\n      0x40\n      mstore\n      dup1\n      0x0c\n      dup2\n      mstore\n      0x20\n      add\n      0x534d456c6567656e646172790000000000000000000000000000000000000000\n      dup2\n      mstore\n      pop\n        /* \"contracts/storage/LibSMElegendaryStorage.sol\":397:429  keccak256(bytes('SMElegendary')) */\n      dup1\n      mload\n      swap1\n      0x20\n      add\n      keccak256\n        /* \"contracts/storage/LibSMElegendaryStorage.sol\":5706:5717  _getStorage */\n      tag_250\n        /* \"contracts/storage/LibSMElegendaryStorage.sol\":5706:5723  _getStorage(SLOT) */\n      jump\t// in\n    tag_389:\n        /* \"contracts/storage/LibSMElegendaryStorage.sol\":5706:5735  _getStorage(SLOT)._spotMinted */\n      0x14\n      add\n      sload\n        /* \"contracts/storage/LibSMElegendaryStorage.sol\":5699:5735  return _getStorage(SLOT)._spotMinted */\n      swap1\n      pop\n        /* \"contracts/storage/LibSMElegendaryStorage.sol\":5645:5737  function _spotMinted() external view returns(uint256){return _getStorage(SLOT)._spotMinted;} */\n      swap1\n      jump\t// out\n        /* \"contracts/storage/LibSMElegendaryStorage.sol\":5921:6021  function baseTokenURI() external view returns(string memory){return _getStorage(SLOT).baseTokenURI;} */\n    tag_218:\n        /* \"contracts/storage/LibSMElegendaryStorage.sol\":5967:5980  string memory */\n      0x60\n        /* \"contracts/storage/LibSMElegendaryStorage.sol\":5989:6006  _getStorage(SLOT) */\n      tag_391\n        /* \"contracts/storage/LibSMElegendaryStorage.sol\":407:428  bytes('SMElegendary') */\n      mload(0x40)\n      dup1\n      0x40\n      add\n      0x40\n      mstore\n      dup1\n      0x0c\n      dup2\n      mstore\n      0x20\n      add\n      0x534d456c6567656e646172790000000000000000000000000000000000000000\n      dup2\n      mstore\n      pop\n        /* \"contracts/storage/LibSMElegendaryStorage.sol\":397:429  keccak256(bytes('SMElegendary')) */\n      dup1\n      mload\n      swap1\n      0x20\n      add\n      keccak256\n        /* \"contracts/storage/LibSMElegendaryStorage.sol\":5989:6000  _getStorage */\n      tag_250\n        /* \"contracts/storage/LibSMElegendaryStorage.sol\":5989:6006  _getStorage(SLOT) */\n      jump\t// in\n    tag_391:\n        /* \"contracts/storage/LibSMElegendaryStorage.sol\":5989:6019  _getStorage(SLOT).baseTokenURI */\n      0x00\n      add\n        /* \"contracts/storage/LibSMElegendaryStorage.sol\":5982:6019  return _getStorage(SLOT).baseTokenURI */\n      dup1\n      sload\n      tag_392\n      swap1\n      tag_252\n      jump\t// in\n    tag_392:\n      dup1\n      0x1f\n      add\n      0x20\n      dup1\n      swap2\n      div\n      mul\n      0x20\n      add\n      mload(0x40)\n      swap1\n      dup2\n      add\n      0x40\n      mstore\n      dup1\n      swap3\n      swap2\n      swap1\n      dup2\n      dup2\n      mstore\n      0x20\n      add\n      dup3\n      dup1\n      sload\n      tag_393\n      swap1\n      tag_252\n      jump\t// in\n    tag_393:\n      dup1\n      iszero\n      tag_394\n      jumpi\n      dup1\n      0x1f\n      lt\n      tag_395\n      jumpi\n      0x0100\n      dup1\n      dup4\n      sload\n      div\n      mul\n      dup4\n      mstore\n      swap2\n      0x20\n      add\n      swap2\n      jump(tag_394)\n    tag_395:\n      dup3\n      add\n      swap2\n      swap1\n      0x00\n      mstore\n      keccak256(0x00, 0x20)\n      swap1\n    tag_396:\n      dup2\n      sload\n      dup2\n      mstore\n      swap1\n      0x01\n      add\n      swap1\n      0x20\n      add\n      dup1\n      dup4\n      gt\n      tag_396\n      jumpi\n      dup3\n      swap1\n      sub\n      0x1f\n      and\n      dup3\n      add\n      swap2\n    tag_394:\n      pop\n      pop\n      pop\n      pop\n      pop\n      swap1\n      pop\n        /* \"contracts/storage/LibSMElegendaryStorage.sol\":5921:6021  function baseTokenURI() external view returns(string memory){return _getStorage(SLOT).baseTokenURI;} */\n      swap1\n      jump\t// out\n        /* \"contracts/storage/LibSMElegendaryStorage.sol\":10074:10289  function addTokenToAllTokensEnumeration(uint256 tokenId) external {... */\n    tag_223:\n        /* \"contracts/storage/LibSMElegendaryStorage.sol\":10195:10212  _getStorage(SLOT) */\n      tag_398\n        /* \"contracts/storage/LibSMElegendaryStorage.sol\":407:428  bytes('SMElegendary') */\n      mload(0x40)\n      dup1\n      0x40\n      add\n      0x40\n      mstore\n      dup1\n      0x0c\n      dup2\n      mstore\n      0x20\n      add\n      0x534d456c6567656e646172790000000000000000000000000000000000000000\n      dup2\n      mstore\n      pop\n        /* \"contracts/storage/LibSMElegendaryStorage.sol\":397:429  keccak256(bytes('SMElegendary')) */\n      dup1\n      mload\n      swap1\n      0x20\n      add\n      keccak256\n        /* \"contracts/storage/LibSMElegendaryStorage.sol\":10195:10206  _getStorage */\n      tag_250\n        /* \"contracts/storage/LibSMElegendaryStorage.sol\":10195:10212  _getStorage(SLOT) */\n      jump\t// in\n    tag_398:\n        /* \"contracts/storage/LibSMElegendaryStorage.sol\":10195:10222  _getStorage(SLOT).allTokens */\n      0x05\n      add\n        /* \"contracts/storage/LibSMElegendaryStorage.sol\":10195:10229  _getStorage(SLOT).allTokens.length */\n      dup1\n      sload\n      swap1\n      pop\n        /* \"contracts/storage/LibSMElegendaryStorage.sol\":10151:10168  _getStorage(SLOT) */\n      tag_399\n        /* \"contracts/storage/LibSMElegendaryStorage.sol\":407:428  bytes('SMElegendary') */\n      mload(0x40)\n      dup1\n      0x40\n      add\n      0x40\n      mstore\n      dup1\n      0x0c\n      dup2\n      mstore\n      0x20\n      add\n      0x534d456c6567656e646172790000000000000000000000000000000000000000\n      dup2\n      mstore\n      pop\n        /* \"contracts/storage/LibSMElegendaryStorage.sol\":397:429  keccak256(bytes('SMElegendary')) */\n      dup1\n      mload\n      swap1\n      0x20\n      add\n      keccak256\n        /* \"contracts/storage/LibSMElegendaryStorage.sol\":10151:10162  _getStorage */\n      tag_250\n        /* \"contracts/storage/LibSMElegendaryStorage.sol\":10151:10168  _getStorage(SLOT) */\n      jump\t// in\n    tag_399:\n        /* \"contracts/storage/LibSMElegendaryStorage.sol\":10151:10183  _getStorage(SLOT).allTokensIndex */\n      0x06\n      add\n        /* \"contracts/storage/LibSMElegendaryStorage.sol\":10151:10192  _getStorage(SLOT).allTokensIndex[tokenId] */\n      0x00\n        /* \"contracts/storage/LibSMElegendaryStorage.sol\":10184:10191  tokenId */\n      dup4\n        /* \"contracts/storage/LibSMElegendaryStorage.sol\":10151:10192  _getStorage(SLOT).allTokensIndex[tokenId] */\n      dup2\n      mstore\n      0x20\n      add\n      swap1\n      dup2\n      mstore\n      0x20\n      add\n      0x00\n      keccak256\n        /* \"contracts/storage/LibSMElegendaryStorage.sol\":10151:10229  _getStorage(SLOT).allTokensIndex[tokenId] = _getStorage(SLOT).allTokens.length */\n      dup2\n      swap1\n      sstore\n      pop\n        /* \"contracts/storage/LibSMElegendaryStorage.sol\":10240:10257  _getStorage(SLOT) */\n      tag_400\n        /* \"contracts/storage/LibSMElegendaryStorage.sol\":407:428  bytes('SMElegendary') */\n      mload(0x40)\n      dup1\n      0x40\n      add\n      0x40\n      mstore\n      dup1\n      0x0c\n      dup2\n      mstore\n      0x20\n      add\n      0x534d456c6567656e646172790000000000000000000000000000000000000000\n      dup2\n      mstore\n      pop\n        /* \"contracts/storage/LibSMElegendaryStorage.sol\":397:429  keccak256(bytes('SMElegendary')) */\n      dup1\n      mload\n      swap1\n      0x20\n      add\n      keccak256\n        /* \"contracts/storage/LibSMElegendaryStorage.sol\":10240:10251  _getStorage */\n      tag_250\n        /* \"contracts/storage/LibSMElegendaryStorage.sol\":10240:10257  _getStorage(SLOT) */\n      jump\t// in\n    tag_400:\n        /* \"contracts/storage/LibSMElegendaryStorage.sol\":10240:10267  _getStorage(SLOT).allTokens */\n      0x05\n      add\n        /* \"contracts/storage/LibSMElegendaryStorage.sol\":10273:10280  tokenId */\n      dup2\n        /* \"contracts/storage/LibSMElegendaryStorage.sol\":10240:10281  _getStorage(SLOT).allTokens.push(tokenId) */\n      swap1\n      dup1\n      0x01\n      dup2\n      sload\n      add\n      dup1\n      dup3\n      sstore\n      dup1\n      swap2\n      pop\n      pop\n      0x01\n      swap1\n      sub\n      swap1\n      0x00\n      mstore\n      keccak256(0x00, 0x20)\n      add\n      0x00\n      swap1\n      swap2\n      swap1\n      swap2\n      swap1\n      swap2\n      pop\n      sstore\n        /* \"contracts/storage/LibSMElegendaryStorage.sol\":10074:10289  function addTokenToAllTokensEnumeration(uint256 tokenId) external {... */\n      pop\n      jump\t// out\n        /* \"contracts/storage/LibSMElegendaryStorage.sol\":6948:7024  function fee() external view returns(uint256){return _getStorage(SLOT).fee;} */\n    tag_225:\n        /* \"contracts/storage/LibSMElegendaryStorage.sol\":6985:6992  uint256 */\n      0x00\n        /* \"contracts/storage/LibSMElegendaryStorage.sol\":7001:7018  _getStorage(SLOT) */\n      tag_403\n        /* \"contracts/storage/LibSMElegendaryStorage.sol\":407:428  bytes('SMElegendary') */\n      mload(0x40)\n      dup1\n      0x40\n      add\n      0x40\n      mstore\n      dup1\n      0x0c\n      dup2\n      mstore\n      0x20\n      add\n      0x534d456c6567656e646172790000000000000000000000000000000000000000\n      dup2\n      mstore\n      pop\n        /* \"contracts/storage/LibSMElegendaryStorage.sol\":397:429  keccak256(bytes('SMElegendary')) */\n      dup1\n      mload\n      swap1\n      0x20\n      add\n      keccak256\n        /* \"contracts/storage/LibSMElegendaryStorage.sol\":7001:7012  _getStorage */\n      tag_250\n        /* \"contracts/storage/LibSMElegendaryStorage.sol\":7001:7018  _getStorage(SLOT) */\n      jump\t// in\n    tag_403:\n        /* \"contracts/storage/LibSMElegendaryStorage.sol\":7001:7022  _getStorage(SLOT).fee */\n      0x0a\n      add\n      sload\n        /* \"contracts/storage/LibSMElegendaryStorage.sol\":6994:7022  return _getStorage(SLOT).fee */\n      swap1\n      pop\n        /* \"contracts/storage/LibSMElegendaryStorage.sol\":6948:7024  function fee() external view returns(uint256){return _getStorage(SLOT).fee;} */\n      swap1\n      jump\t// out\n        /* \"contracts/storage/LibSMElegendaryStorage.sol\":7434:7558  function tokenURIs(string memory _tokenURIs, uint256 _tokenId) external{_getStorage(SLOT).tokenURIs[_tokenId] = _tokenURIs;} */\n    tag_231:\n        /* \"contracts/storage/LibSMElegendaryStorage.sol\":7546:7556  _tokenURIs */\n      dup2\n        /* \"contracts/storage/LibSMElegendaryStorage.sol\":7506:7523  _getStorage(SLOT) */\n      tag_405\n        /* \"contracts/storage/LibSMElegendaryStorage.sol\":407:428  bytes('SMElegendary') */\n      mload(0x40)\n      dup1\n      0x40\n      add\n      0x40\n      mstore\n      dup1\n      0x0c\n      dup2\n      mstore\n      0x20\n      add\n      0x534d456c6567656e646172790000000000000000000000000000000000000000\n      dup2\n      mstore\n      pop\n        /* \"contracts/storage/LibSMElegendaryStorage.sol\":397:429  keccak256(bytes('SMElegendary')) */\n      dup1\n      mload\n      swap1\n      0x20\n      add\n      keccak256\n        /* \"contracts/storage/LibSMElegendaryStorage.sol\":7506:7517  _getStorage */\n      tag_250\n        /* \"contracts/storage/LibSMElegendaryStorage.sol\":7506:7523  _getStorage(SLOT) */\n      jump\t// in\n    tag_405:\n        /* \"contracts/storage/LibSMElegendaryStorage.sol\":7506:7533  _getStorage(SLOT).tokenURIs */\n      0x02\n      add\n        /* \"contracts/storage/LibSMElegendaryStorage.sol\":7506:7543  _getStorage(SLOT).tokenURIs[_tokenId] */\n      0x00\n        /* \"contracts/storage/LibSMElegendaryStorage.sol\":7534:7542  _tokenId */\n      dup4\n        /* \"contracts/storage/LibSMElegendaryStorage.sol\":7506:7543  _getStorage(SLOT).tokenURIs[_tokenId] */\n      dup2\n      mstore\n      0x20\n      add\n      swap1\n      dup2\n      mstore\n      0x20\n      add\n      0x00\n      keccak256\n        /* \"contracts/storage/LibSMElegendaryStorage.sol\":7506:7556  _getStorage(SLOT).tokenURIs[_tokenId] = _tokenURIs */\n      swap1\n      dup2\n      tag_406\n      swap2\n      swap1\n      tag_311\n      jump\t// in\n    tag_406:\n      pop\n        /* \"contracts/storage/LibSMElegendaryStorage.sol\":7434:7558  function tokenURIs(string memory _tokenURIs, uint256 _tokenId) external{_getStorage(SLOT).tokenURIs[_tokenId] = _tokenURIs;} */\n      pop\n      pop\n      jump\t// out\n        /* \"contracts/storage/LibSMElegendaryStorage.sol\":6263:6397  function ownedTokens(address owner, uint256 index) external view returns(uint256){return _getStorage(SLOT).ownedTokens[owner][index];} */\n    tag_234:\n        /* \"contracts/storage/LibSMElegendaryStorage.sol\":6336:6343  uint256 */\n      0x00\n        /* \"contracts/storage/LibSMElegendaryStorage.sol\":6352:6369  _getStorage(SLOT) */\n      tag_408\n        /* \"contracts/storage/LibSMElegendaryStorage.sol\":407:428  bytes('SMElegendary') */\n      mload(0x40)\n      dup1\n      0x40\n      add\n      0x40\n      mstore\n      dup1\n      0x0c\n      dup2\n      mstore\n      0x20\n      add\n      0x534d456c6567656e646172790000000000000000000000000000000000000000\n      dup2\n      mstore\n      pop\n        /* \"contracts/storage/LibSMElegendaryStorage.sol\":397:429  keccak256(bytes('SMElegendary')) */\n      dup1\n      mload\n      swap1\n      0x20\n      add\n      keccak256\n        /* \"contracts/storage/LibSMElegendaryStorage.sol\":6352:6363  _getStorage */\n      tag_250\n        /* \"contracts/storage/LibSMElegendaryStorage.sol\":6352:6369  _getStorage(SLOT) */\n      jump\t// in\n    tag_408:\n        /* \"contracts/storage/LibSMElegendaryStorage.sol\":6352:6381  _getStorage(SLOT).ownedTokens */\n      0x03\n      add\n        /* \"contracts/storage/LibSMElegendaryStorage.sol\":6352:6388  _getStorage(SLOT).ownedTokens[owner] */\n      0x00\n        /* \"contracts/storage/LibSMElegendaryStorage.sol\":6382:6387  owner */\n      dup5\n        /* \"contracts/storage/LibSMElegendaryStorage.sol\":6352:6388  _getStorage(SLOT).ownedTokens[owner] */\n      0xffffffffffffffffffffffffffffffffffffffff\n      and\n      0xffffffffffffffffffffffffffffffffffffffff\n      and\n      dup2\n      mstore\n      0x20\n      add\n      swap1\n      dup2\n      mstore\n      0x20\n      add\n      0x00\n      keccak256\n        /* \"contracts/storage/LibSMElegendaryStorage.sol\":6352:6395  _getStorage(SLOT).ownedTokens[owner][index] */\n      0x00\n        /* \"contracts/storage/LibSMElegendaryStorage.sol\":6389:6394  index */\n      dup4\n        /* \"contracts/storage/LibSMElegendaryStorage.sol\":6352:6395  _getStorage(SLOT).ownedTokens[owner][index] */\n      dup2\n      mstore\n      0x20\n      add\n      swap1\n      dup2\n      mstore\n      0x20\n      add\n      0x00\n      keccak256\n      sload\n        /* \"contracts/storage/LibSMElegendaryStorage.sol\":6345:6395  return _getStorage(SLOT).ownedTokens[owner][index] */\n      swap1\n      pop\n        /* \"contracts/storage/LibSMElegendaryStorage.sol\":6263:6397  function ownedTokens(address owner, uint256 index) external view returns(uint256){return _getStorage(SLOT).ownedTokens[owner][index];} */\n      swap3\n      swap2\n      pop\n      pop\n      jump\t// out\n        /* \"contracts/storage/LibSMElegendaryStorage.sol\":4329:4455  function _packedOwnerships(uint256 _tokenId, uint256 _index) external{_getStorage(SLOT)._packedOwnerships[_tokenId] = _index;} */\n    tag_239:\n        /* \"contracts/storage/LibSMElegendaryStorage.sol\":4447:4453  _index */\n      dup1\n        /* \"contracts/storage/LibSMElegendaryStorage.sol\":4399:4416  _getStorage(SLOT) */\n      tag_410\n        /* \"contracts/storage/LibSMElegendaryStorage.sol\":407:428  bytes('SMElegendary') */\n      mload(0x40)\n      dup1\n      0x40\n      add\n      0x40\n      mstore\n      dup1\n      0x0c\n      dup2\n      mstore\n      0x20\n      add\n      0x534d456c6567656e646172790000000000000000000000000000000000000000\n      dup2\n      mstore\n      pop\n        /* \"contracts/storage/LibSMElegendaryStorage.sol\":397:429  keccak256(bytes('SMElegendary')) */\n      dup1\n      mload\n      swap1\n      0x20\n      add\n      keccak256\n        /* \"contracts/storage/LibSMElegendaryStorage.sol\":4399:4410  _getStorage */\n      tag_250\n        /* \"contracts/storage/LibSMElegendaryStorage.sol\":4399:4416  _getStorage(SLOT) */\n      jump\t// in\n    tag_410:\n        /* \"contracts/storage/LibSMElegendaryStorage.sol\":4399:4434  _getStorage(SLOT)._packedOwnerships */\n      0x10\n      add\n        /* \"contracts/storage/LibSMElegendaryStorage.sol\":4399:4444  _getStorage(SLOT)._packedOwnerships[_tokenId] */\n      0x00\n        /* \"contracts/storage/LibSMElegendaryStorage.sol\":4435:4443  _tokenId */\n      dup5\n        /* \"contracts/storage/LibSMElegendaryStorage.sol\":4399:4444  _getStorage(SLOT)._packedOwnerships[_tokenId] */\n      dup2\n      mstore\n      0x20\n      add\n      swap1\n      dup2\n      mstore\n      0x20\n      add\n      0x00\n      keccak256\n        /* \"contracts/storage/LibSMElegendaryStorage.sol\":4399:4453  _getStorage(SLOT)._packedOwnerships[_tokenId] = _index */\n      dup2\n      swap1\n      sstore\n      pop\n        /* \"contracts/storage/LibSMElegendaryStorage.sol\":4329:4455  function _packedOwnerships(uint256 _tokenId, uint256 _index) external{_getStorage(SLOT)._packedOwnerships[_tokenId] = _index;} */\n      pop\n      pop\n      jump\t// out\n        /* \"contracts/storage/LibSMElegendaryStorage.sol\":5331:5482  function _operatorApprovals(address owner, address operator) external view returns(bool){return _getStorage(SLOT)._operatorApprovals[owner][operator];} */\n    tag_243:\n        /* \"contracts/storage/LibSMElegendaryStorage.sol\":5414:5418  bool */\n      0x00\n        /* \"contracts/storage/LibSMElegendaryStorage.sol\":5427:5444  _getStorage(SLOT) */\n      tag_412\n        /* \"contracts/storage/LibSMElegendaryStorage.sol\":407:428  bytes('SMElegendary') */\n      mload(0x40)\n      dup1\n      0x40\n      add\n      0x40\n      mstore\n      dup1\n      0x0c\n      dup2\n      mstore\n      0x20\n      add\n      0x534d456c6567656e646172790000000000000000000000000000000000000000\n      dup2\n      mstore\n      pop\n        /* \"contracts/storage/LibSMElegendaryStorage.sol\":397:429  keccak256(bytes('SMElegendary')) */\n      dup1\n      mload\n      swap1\n      0x20\n      add\n      keccak256\n        /* \"contracts/storage/LibSMElegendaryStorage.sol\":5427:5438  _getStorage */\n      tag_250\n        /* \"contracts/storage/LibSMElegendaryStorage.sol\":5427:5444  _getStorage(SLOT) */\n      jump\t// in\n    tag_412:\n        /* \"contracts/storage/LibSMElegendaryStorage.sol\":5427:5463  _getStorage(SLOT)._operatorApprovals */\n      0x13\n      add\n        /* \"contracts/storage/LibSMElegendaryStorage.sol\":5427:5470  _getStorage(SLOT)._operatorApprovals[owner] */\n      0x00\n        /* \"contracts/storage/LibSMElegendaryStorage.sol\":5464:5469  owner */\n      dup5\n        /* \"contracts/storage/LibSMElegendaryStorage.sol\":5427:5470  _getStorage(SLOT)._operatorApprovals[owner] */\n      0xffffffffffffffffffffffffffffffffffffffff\n      and\n      0xffffffffffffffffffffffffffffffffffffffff\n      and\n      dup2\n      mstore\n      0x20\n      add\n      swap1\n      dup2\n      mstore\n      0x20\n      add\n      0x00\n      keccak256\n        /* \"contracts/storage/LibSMElegendaryStorage.sol\":5427:5480  _getStorage(SLOT)._operatorApprovals[owner][operator] */\n      0x00\n        /* \"contracts/storage/LibSMElegendaryStorage.sol\":5471:5479  operator */\n      dup4\n        /* \"contracts/storage/LibSMElegendaryStorage.sol\":5427:5480  _getStorage(SLOT)._operatorApprovals[owner][operator] */\n      0xffffffffffffffffffffffffffffffffffffffff\n      and\n      0xffffffffffffffffffffffffffffffffffffffff\n      and\n      dup2\n      mstore\n      0x20\n      add\n      swap1\n      dup2\n      mstore\n      0x20\n      add\n      0x00\n      keccak256\n      0x00\n      swap1\n      sload\n      swap1\n      0x0100\n      exp\n      swap1\n      div\n      0xff\n      and\n        /* \"contracts/storage/LibSMElegendaryStorage.sol\":5420:5480  return _getStorage(SLOT)._operatorApprovals[owner][operator] */\n      swap1\n      pop\n        /* \"contracts/storage/LibSMElegendaryStorage.sol\":5331:5482  function _operatorApprovals(address owner, address operator) external view returns(bool){return _getStorage(SLOT)._operatorApprovals[owner][operator];} */\n      swap3\n      swap2\n      pop\n      pop\n      jump\t// out\n        /* \"contracts/storage/LibSMElegendaryStorage.sol\":6744:6842  function legendlistRoot() external view returns(bytes32){return _getStorage(SLOT).legendlistRoot;} */\n    tag_246:\n        /* \"contracts/storage/LibSMElegendaryStorage.sol\":6792:6799  bytes32 */\n      0x00\n        /* \"contracts/storage/LibSMElegendaryStorage.sol\":6808:6825  _getStorage(SLOT) */\n      tag_414\n        /* \"contracts/storage/LibSMElegendaryStorage.sol\":407:428  bytes('SMElegendary') */\n      mload(0x40)\n      dup1\n      0x40\n      add\n      0x40\n      mstore\n      dup1\n      0x0c\n      dup2\n      mstore\n      0x20\n      add\n      0x534d456c6567656e646172790000000000000000000000000000000000000000\n      dup2\n      mstore\n      pop\n        /* \"contracts/storage/LibSMElegendaryStorage.sol\":397:429  keccak256(bytes('SMElegendary')) */\n      dup1\n      mload\n      swap1\n      0x20\n      add\n      keccak256\n        /* \"contracts/storage/LibSMElegendaryStorage.sol\":6808:6819  _getStorage */\n      tag_250\n        /* \"contracts/storage/LibSMElegendaryStorage.sol\":6808:6825  _getStorage(SLOT) */\n      jump\t// in\n    tag_414:\n        /* \"contracts/storage/LibSMElegendaryStorage.sol\":6808:6840  _getStorage(SLOT).legendlistRoot */\n      0x08\n      add\n      sload\n        /* \"contracts/storage/LibSMElegendaryStorage.sol\":6801:6840  return _getStorage(SLOT).legendlistRoot */\n      swap1\n      pop\n        /* \"contracts/storage/LibSMElegendaryStorage.sol\":6744:6842  function legendlistRoot() external view returns(bytes32){return _getStorage(SLOT).legendlistRoot;} */\n      swap1\n      jump\t// out\n        /* \"contracts/storage/LibSMElegendaryStorage.sol\":12561:12722  function _getStorage(bytes32 _storage) private pure returns (smeLegendaryStorage storage s){... */\n    tag_250:\n        /* \"contracts/storage/LibSMElegendaryStorage.sol\":12622:12651  smeLegendaryStorage storage s */\n      0x00\n        /* \"contracts/storage/LibSMElegendaryStorage.sol\":12696:12704  _storage */\n      dup2\n        /* \"contracts/storage/LibSMElegendaryStorage.sol\":12686:12704  s.slot := _storage */\n      swap1\n      pop\n        /* \"contracts/storage/LibSMElegendaryStorage.sol\":12561:12722  function _getStorage(bytes32 _storage) private pure returns (smeLegendaryStorage storage s){... */\n      swap2\n      swap1\n      pop\n      jump\t// out\n    tag_375:\n      mload(0x40)\n      dup1\n      0x20\n      add\n      0x40\n      mstore\n      dup1\n      and(0xffffffffffffffffffffffffffffffffffffffff, 0x00)\n      dup2\n      mstore\n      pop\n      swap1\n      jump\t// out\n        /* \"#utility.yul\":7:106   */\n    tag_416:\n        /* \"#utility.yul\":59:65   */\n      0x00\n        /* \"#utility.yul\":93:98   */\n      dup2\n        /* \"#utility.yul\":87:99   */\n      mload\n        /* \"#utility.yul\":77:99   */\n      swap1\n      pop\n        /* \"#utility.yul\":7:106   */\n      swap2\n      swap1\n      pop\n      jump\t// out\n        /* \"#utility.yul\":112:289   */\n    tag_417:\n        /* \"#utility.yul\":204:215   */\n      0x00\n        /* \"#utility.yul\":238:244   */\n      dup3\n        /* \"#utility.yul\":233:236   */\n      dup3\n        /* \"#utility.yul\":226:245   */\n      mstore\n        /* \"#utility.yul\":278:282   */\n      0x20\n        /* \"#utility.yul\":273:276   */\n      dup3\n        /* \"#utility.yul\":269:283   */\n      add\n        /* \"#utility.yul\":254:283   */\n      swap1\n      pop\n        /* \"#utility.yul\":112:289   */\n      swap3\n      swap2\n      pop\n      pop\n      jump\t// out\n        /* \"#utility.yul\":295:434   */\n    tag_418:\n        /* \"#utility.yul\":384:390   */\n      dup3\n        /* \"#utility.yul\":379:382   */\n      dup2\n        /* \"#utility.yul\":374:377   */\n      dup4\n        /* \"#utility.yul\":368:391   */\n      mcopy\n        /* \"#utility.yul\":425:426   */\n      0x00\n        /* \"#utility.yul\":416:422   */\n      dup4\n        /* \"#utility.yul\":411:414   */\n      dup4\n        /* \"#utility.yul\":407:423   */\n      add\n        /* \"#utility.yul\":400:427   */\n      mstore\n        /* \"#utility.yul\":295:434   */\n      pop\n      pop\n      pop\n      jump\t// out\n        /* \"#utility.yul\":440:542   */\n    tag_419:\n        /* \"#utility.yul\":481:487   */\n      0x00\n        /* \"#utility.yul\":532:534   */\n      0x1f\n        /* \"#utility.yul\":528:535   */\n      not\n        /* \"#utility.yul\":523:525   */\n      0x1f\n        /* \"#utility.yul\":516:521   */\n      dup4\n        /* \"#utility.yul\":512:526   */\n      add\n        /* \"#utility.yul\":508:536   */\n      and\n        /* \"#utility.yul\":498:536   */\n      swap1\n      pop\n        /* \"#utility.yul\":440:542   */\n      swap2\n      swap1\n      pop\n      jump\t// out\n        /* \"#utility.yul\":548:941   */\n    tag_420:\n        /* \"#utility.yul\":644:647   */\n      0x00\n        /* \"#utility.yul\":672:711   */\n      tag_481\n        /* \"#utility.yul\":705:710   */\n      dup3\n        /* \"#utility.yul\":672:711   */\n      tag_416\n      jump\t// in\n    tag_481:\n        /* \"#utility.yul\":727:806   */\n      tag_482\n        /* \"#utility.yul\":799:805   */\n      dup2\n        /* \"#utility.yul\":794:797   */\n      dup6\n        /* \"#utility.yul\":727:806   */\n      tag_417\n      jump\t// in\n    tag_482:\n        /* \"#utility.yul\":720:806   */\n      swap4\n      pop\n        /* \"#utility.yul\":815:880   */\n      tag_483\n        /* \"#utility.yul\":873:879   */\n      dup2\n        /* \"#utility.yul\":868:871   */\n      dup6\n        /* \"#utility.yul\":861:865   */\n      0x20\n        /* \"#utility.yul\":854:859   */\n      dup7\n        /* \"#utility.yul\":850:866   */\n      add\n        /* \"#utility.yul\":815:880   */\n      tag_418\n      jump\t// in\n    tag_483:\n        /* \"#utility.yul\":905:934   */\n      tag_484\n        /* \"#utility.yul\":927:933   */\n      dup2\n        /* \"#utility.yul\":905:934   */\n      tag_419\n      jump\t// in\n    tag_484:\n        /* \"#utility.yul\":900:903   */\n      dup5\n        /* \"#utility.yul\":896:935   */\n      add\n        /* \"#utility.yul\":889:935   */\n      swap2\n      pop\n        /* \"#utility.yul\":648:941   */\n      pop\n        /* \"#utility.yul\":548:941   */\n      swap3\n      swap2\n      pop\n      pop\n      jump\t// out\n        /* \"#utility.yul\":947:1276   */\n    tag_59:\n        /* \"#utility.yul\":1068:1072   */\n      0x00\n        /* \"#utility.yul\":1106:1108   */\n      0x20\n        /* \"#utility.yul\":1095:1104   */\n      dup3\n        /* \"#utility.yul\":1091:1109   */\n      add\n        /* \"#utility.yul\":1083:1109   */\n      swap1\n      pop\n        /* \"#utility.yul\":1155:1164   */\n      dup2\n        /* \"#utility.yul\":1149:1153   */\n      dup2\n        /* \"#utility.yul\":1145:1165   */\n      sub\n        /* \"#utility.yul\":1141:1142   */\n      0x00\n        /* \"#utility.yul\":1130:1139   */\n      dup4\n        /* \"#utility.yul\":1126:1143   */\n      add\n        /* \"#utility.yul\":1119:1166   */\n      mstore\n        /* \"#utility.yul\":1183:1269   */\n      tag_486\n        /* \"#utility.yul\":1264:1268   */\n      dup2\n        /* \"#utility.yul\":1255:1261   */\n      dup5\n        /* \"#utility.yul\":1183:1269   */\n      tag_420\n      jump\t// in\n    tag_486:\n        /* \"#utility.yul\":1175:1269   */\n      swap1\n      pop\n        /* \"#utility.yul\":947:1276   */\n      swap3\n      swap2\n      pop\n      pop\n      jump\t// out\n        /* \"#utility.yul\":1282:1357   */\n    tag_421:\n        /* \"#utility.yul\":1315:1321   */\n      0x00\n        /* \"#utility.yul\":1348:1350   */\n      0x40\n        /* \"#utility.yul\":1342:1351   */\n      mload\n        /* \"#utility.yul\":1332:1351   */\n      swap1\n      pop\n        /* \"#utility.yul\":1282:1357   */\n      swap1\n      jump\t// out\n        /* \"#utility.yul\":1363:1480   */\n    tag_422:\n        /* \"#utility.yul\":1472:1473   */\n      0x00\n        /* \"#utility.yul\":1469:1470   */\n      0x00\n        /* \"#utility.yul\":1462:1474   */\n      revert\n        /* \"#utility.yul\":1486:1603   */\n    tag_423:\n        /* \"#utility.yul\":1595:1596   */\n      0x00\n        /* \"#utility.yul\":1592:1593   */\n      0x00\n        /* \"#utility.yul\":1585:1597   */\n      revert\n        /* \"#utility.yul\":1609:1735   */\n    tag_424:\n        /* \"#utility.yul\":1646:1653   */\n      0x00\n        /* \"#utility.yul\":1686:1728   */\n      0xffffffffffffffffffffffffffffffffffffffff\n        /* \"#utility.yul\":1679:1684   */\n      dup3\n        /* \"#utility.yul\":1675:1729   */\n      and\n        /* \"#utility.yul\":1664:1729   */\n      swap1\n      pop\n        /* \"#utility.yul\":1609:1735   */\n      swap2\n      swap1\n      pop\n      jump\t// out\n        /* \"#utility.yul\":1741:1837   */\n    tag_425:\n        /* \"#utility.yul\":1778:1785   */\n      0x00\n        /* \"#utility.yul\":1807:1831   */\n      tag_492\n        /* \"#utility.yul\":1825:1830   */\n      dup3\n        /* \"#utility.yul\":1807:1831   */\n      tag_424\n      jump\t// in\n    tag_492:\n        /* \"#utility.yul\":1796:1831   */\n      swap1\n      pop\n        /* \"#utility.yul\":1741:1837   */\n      swap2\n      swap1\n      pop\n      jump\t// out\n        /* \"#utility.yul\":1843:1965   */\n    tag_426:\n        /* \"#utility.yul\":1916:1940   */\n      tag_494\n        /* \"#utility.yul\":1934:1939   */\n      dup2\n        /* \"#utility.yul\":1916:1940   */\n      tag_425\n      jump\t// in\n    tag_494:\n        /* \"#utility.yul\":1909:1914   */\n      dup2\n        /* \"#utility.yul\":1906:1941   */\n      eq\n        /* \"#utility.yul\":1896:1959   */\n      tag_495\n      jumpi\n        /* \"#utility.yul\":1955:1956   */\n      0x00\n        /* \"#utility.yul\":1952:1953   */\n      0x00\n        /* \"#utility.yul\":1945:1957   */\n      revert\n        /* \"#utility.yul\":1896:1959   */\n    tag_495:\n        /* \"#utility.yul\":1843:1965   */\n      pop\n      jump\t// out\n        /* \"#utility.yul\":1971:2110   */\n    tag_427:\n        /* \"#utility.yul\":2017:2022   */\n      0x00\n        /* \"#utility.yul\":2055:2061   */\n      dup2\n        /* \"#utility.yul\":2042:2062   */\n      calldataload\n        /* \"#utility.yul\":2033:2062   */\n      swap1\n      pop\n        /* \"#utility.yul\":2071:2104   */\n      tag_497\n        /* \"#utility.yul\":2098:2103   */\n      dup2\n        /* \"#utility.yul\":2071:2104   */\n      tag_426\n      jump\t// in\n    tag_497:\n        /* \"#utility.yul\":1971:2110   */\n      swap3\n      swap2\n      pop\n      pop\n      jump\t// out\n        /* \"#utility.yul\":2116:2193   */\n    tag_428:\n        /* \"#utility.yul\":2153:2160   */\n      0x00\n        /* \"#utility.yul\":2182:2187   */\n      dup2\n        /* \"#utility.yul\":2171:2187   */\n      swap1\n      pop\n        /* \"#utility.yul\":2116:2193   */\n      swap2\n      swap1\n      pop\n      jump\t// out\n        /* \"#utility.yul\":2199:2321   */\n    tag_429:\n        /* \"#utility.yul\":2272:2296   */\n      tag_500\n        /* \"#utility.yul\":2290:2295   */\n      dup2\n        /* \"#utility.yul\":2272:2296   */\n      tag_428\n      jump\t// in\n    tag_500:\n        /* \"#utility.yul\":2265:2270   */\n      dup2\n        /* \"#utility.yul\":2262:2297   */\n      eq\n        /* \"#utility.yul\":2252:2315   */\n      tag_501\n      jumpi\n        /* \"#utility.yul\":2311:2312   */\n      0x00\n        /* \"#utility.yul\":2308:2309   */\n      0x00\n        /* \"#utility.yul\":2301:2313   */\n      revert\n        /* \"#utility.yul\":2252:2315   */\n    tag_501:\n        /* \"#utility.yul\":2199:2321   */\n      pop\n      jump\t// out\n        /* \"#utility.yul\":2327:2466   */\n    tag_430:\n        /* \"#utility.yul\":2373:2378   */\n      0x00\n        /* \"#utility.yul\":2411:2417   */\n      dup2\n        /* \"#utility.yul\":2398:2418   */\n      calldataload\n        /* \"#utility.yul\":2389:2418   */\n      swap1\n      pop\n        /* \"#utility.yul\":2427:2460   */\n      tag_503\n        /* \"#utility.yul\":2454:2459   */\n      dup2\n        /* \"#utility.yul\":2427:2460   */\n      tag_429\n      jump\t// in\n    tag_503:\n        /* \"#utility.yul\":2327:2466   */\n      swap3\n      swap2\n      pop\n      pop\n      jump\t// out\n        /* \"#utility.yul\":2472:3091   */\n    tag_63:\n        /* \"#utility.yul\":2549:2555   */\n      0x00\n        /* \"#utility.yul\":2557:2563   */\n      0x00\n        /* \"#utility.yul\":2565:2571   */\n      0x00\n        /* \"#utility.yul\":2614:2616   */\n      0x60\n        /* \"#utility.yul\":2602:2611   */\n      dup5\n        /* \"#utility.yul\":2593:2600   */\n      dup7\n        /* \"#utility.yul\":2589:2612   */\n      sub\n        /* \"#utility.yul\":2585:2617   */\n      slt\n        /* \"#utility.yul\":2582:2701   */\n      iszero\n      tag_505\n      jumpi\n        /* \"#utility.yul\":2620:2699   */\n      tag_506\n      tag_422\n      jump\t// in\n    tag_506:\n        /* \"#utility.yul\":2582:2701   */\n    tag_505:\n        /* \"#utility.yul\":2740:2741   */\n      0x00\n        /* \"#utility.yul\":2765:2818   */\n      tag_507\n        /* \"#utility.yul\":2810:2817   */\n      dup7\n        /* \"#utility.yul\":2801:2807   */\n      dup3\n        /* \"#utility.yul\":2790:2799   */\n      dup8\n        /* \"#utility.yul\":2786:2808   */\n      add\n        /* \"#utility.yul\":2765:2818   */\n      tag_427\n      jump\t// in\n    tag_507:\n        /* \"#utility.yul\":2755:2818   */\n      swap4\n      pop\n        /* \"#utility.yul\":2711:2828   */\n      pop\n        /* \"#utility.yul\":2867:2869   */\n      0x20\n        /* \"#utility.yul\":2893:2946   */\n      tag_508\n        /* \"#utility.yul\":2938:2945   */\n      dup7\n        /* \"#utility.yul\":2929:2935   */\n      dup3\n        /* \"#utility.yul\":2918:2927   */\n      dup8\n        /* \"#utility.yul\":2914:2936   */\n      add\n        /* \"#utility.yul\":2893:2946   */\n      tag_430\n      jump\t// in\n    tag_508:\n        /* \"#utility.yul\":2883:2946   */\n      swap3\n      pop\n        /* \"#utility.yul\":2838:2956   */\n      pop\n        /* \"#utility.yul\":2995:2997   */\n      0x40\n        /* \"#utility.yul\":3021:3074   */\n      tag_509\n        /* \"#utility.yul\":3066:3073   */\n      dup7\n        /* \"#utility.yul\":3057:3063   */\n      dup3\n        /* \"#utility.yul\":3046:3055   */\n      dup8\n        /* \"#utility.yul\":3042:3064   */\n      add\n        /* \"#utility.yul\":3021:3074   */\n      tag_430\n      jump\t// in\n    tag_509:\n        /* \"#utility.yul\":3011:3074   */\n      swap2\n      pop\n        /* \"#utility.yul\":2966:3084   */\n      pop\n        /* \"#utility.yul\":2472:3091   */\n      swap3\n      pop\n      swap3\n      pop\n      swap3\n      jump\t// out\n        /* \"#utility.yul\":3097:3571   */\n    tag_68:\n        /* \"#utility.yul\":3165:3171   */\n      0x00\n        /* \"#utility.yul\":3173:3179   */\n      0x00\n        /* \"#utility.yul\":3222:3224   */\n      0x40\n        /* \"#utility.yul\":3210:3219   */\n      dup4\n        /* \"#utility.yul\":3201:3208   */\n      dup6\n        /* \"#utility.yul\":3197:3220   */\n      sub\n        /* \"#utility.yul\":3193:3225   */\n      slt\n        /* \"#utility.yul\":3190:3309   */\n      iszero\n      tag_511\n      jumpi\n        /* \"#utility.yul\":3228:3307   */\n      tag_512\n      tag_422\n      jump\t// in\n    tag_512:\n        /* \"#utility.yul\":3190:3309   */\n    tag_511:\n        /* \"#utility.yul\":3348:3349   */\n      0x00\n        /* \"#utility.yul\":3373:3426   */\n      tag_513\n        /* \"#utility.yul\":3418:3425   */\n      dup6\n        /* \"#utility.yul\":3409:3415   */\n      dup3\n        /* \"#utility.yul\":3398:3407   */\n      dup7\n        /* \"#utility.yul\":3394:3416   */\n      add\n        /* \"#utility.yul\":3373:3426   */\n      tag_430\n      jump\t// in\n    tag_513:\n        /* \"#utility.yul\":3363:3426   */\n      swap3\n      pop\n        /* \"#utility.yul\":3319:3436   */\n      pop\n        /* \"#utility.yul\":3475:3477   */\n      0x20\n        /* \"#utility.yul\":3501:3554   */\n      tag_514\n        /* \"#utility.yul\":3546:3553   */\n      dup6\n        /* \"#utility.yul\":3537:3543   */\n      dup3\n        /* \"#utility.yul\":3526:3535   */\n      dup7\n        /* \"#utility.yul\":3522:3544   */\n      add\n        /* \"#utility.yul\":3501:3554   */\n      tag_427\n      jump\t// in\n    tag_514:\n        /* \"#utility.yul\":3491:3554   */\n      swap2\n      pop\n        /* \"#utility.yul\":3446:3564   */\n      pop\n        /* \"#utility.yul\":3097:3571   */\n      swap3\n      pop\n      swap3\n      swap1\n      pop\n      jump\t// out\n        /* \"#utility.yul\":3577:3654   */\n    tag_431:\n        /* \"#utility.yul\":3614:3621   */\n      0x00\n        /* \"#utility.yul\":3643:3648   */\n      dup2\n        /* \"#utility.yul\":3632:3648   */\n      swap1\n      pop\n        /* \"#utility.yul\":3577:3654   */\n      swap2\n      swap1\n      pop\n      jump\t// out\n        /* \"#utility.yul\":3660:3786   */\n    tag_432:\n        /* \"#utility.yul\":3755:3779   */\n      tag_517\n        /* \"#utility.yul\":3773:3778   */\n      dup2\n        /* \"#utility.yul\":3755:3779   */\n      tag_431\n      jump\t// in\n    tag_517:\n        /* \"#utility.yul\":3750:3753   */\n      dup3\n        /* \"#utility.yul\":3743:3780   */\n      mstore\n        /* \"#utility.yul\":3660:3786   */\n      pop\n      pop\n      jump\t// out\n        /* \"#utility.yul\":3792:4030   */\n    tag_73:\n        /* \"#utility.yul\":3893:3897   */\n      0x00\n        /* \"#utility.yul\":3931:3933   */\n      0x20\n        /* \"#utility.yul\":3920:3929   */\n      dup3\n        /* \"#utility.yul\":3916:3934   */\n      add\n        /* \"#utility.yul\":3908:3934   */\n      swap1\n      pop\n        /* \"#utility.yul\":3944:4023   */\n      tag_519\n        /* \"#utility.yul\":4020:4021   */\n      0x00\n        /* \"#utility.yul\":4009:4018   */\n      dup4\n        /* \"#utility.yul\":4005:4022   */\n      add\n        /* \"#utility.yul\":3996:4002   */\n      dup5\n        /* \"#utility.yul\":3944:4023   */\n      tag_432\n      jump\t// in\n    tag_519:\n        /* \"#utility.yul\":3792:4030   */\n      swap3\n      swap2\n      pop\n      pop\n      jump\t// out\n        /* \"#utility.yul\":4036:4365   */\n    tag_76:\n        /* \"#utility.yul\":4095:4101   */\n      0x00\n        /* \"#utility.yul\":4144:4146   */\n      0x20\n        /* \"#utility.yul\":4132:4141   */\n      dup3\n        /* \"#utility.yul\":4123:4130   */\n      dup5\n        /* \"#utility.yul\":4119:4142   */\n      sub\n        /* \"#utility.yul\":4115:4147   */\n      slt\n        /* \"#utility.yul\":4112:4231   */\n      iszero\n      tag_521\n      jumpi\n        /* \"#utility.yul\":4150:4229   */\n      tag_522\n      tag_422\n      jump\t// in\n    tag_522:\n        /* \"#utility.yul\":4112:4231   */\n    tag_521:\n        /* \"#utility.yul\":4270:4271   */\n      0x00\n        /* \"#utility.yul\":4295:4348   */\n      tag_523\n        /* \"#utility.yul\":4340:4347   */\n      dup5\n        /* \"#utility.yul\":4331:4337   */\n      dup3\n        /* \"#utility.yul\":4320:4329   */\n      dup6\n        /* \"#utility.yul\":4316:4338   */\n      add\n        /* \"#utility.yul\":4295:4348   */\n      tag_427\n      jump\t// in\n    tag_523:\n        /* \"#utility.yul\":4285:4348   */\n      swap2\n      pop\n        /* \"#utility.yul\":4241:4358   */\n      pop\n        /* \"#utility.yul\":4036:4365   */\n      swap3\n      swap2\n      pop\n      pop\n      jump\t// out\n        /* \"#utility.yul\":4371:4497   */\n    tag_433:\n        /* \"#utility.yul\":4466:4490   */\n      tag_525\n        /* \"#utility.yul\":4484:4489   */\n      dup2\n        /* \"#utility.yul\":4466:4490   */\n      tag_428\n      jump\t// in\n    tag_525:\n        /* \"#utility.yul\":4461:4464   */\n      dup3\n        /* \"#utility.yul\":4454:4491   */\n      mstore\n        /* \"#utility.yul\":4371:4497   */\n      pop\n      pop\n      jump\t// out\n        /* \"#utility.yul\":4503:4741   */\n    tag_79:\n        /* \"#utility.yul\":4604:4608   */\n      0x00\n        /* \"#utility.yul\":4642:4644   */\n      0x20\n        /* \"#utility.yul\":4631:4640   */\n      dup3\n        /* \"#utility.yul\":4627:4645   */\n      add\n        /* \"#utility.yul\":4619:4645   */\n      swap1\n      pop\n        /* \"#utility.yul\":4655:4734   */\n      tag_527\n        /* \"#utility.yul\":4731:4732   */\n      0x00\n        /* \"#utility.yul\":4720:4729   */\n      dup4\n        /* \"#utility.yul\":4716:4733   */\n      add\n        /* \"#utility.yul\":4707:4713   */\n      dup5\n        /* \"#utility.yul\":4655:4734   */\n      tag_433\n      jump\t// in\n    tag_527:\n        /* \"#utility.yul\":4503:4741   */\n      swap3\n      swap2\n      pop\n      pop\n      jump\t// out\n        /* \"#utility.yul\":4747:4869   */\n    tag_434:\n        /* \"#utility.yul\":4820:4844   */\n      tag_529\n        /* \"#utility.yul\":4838:4843   */\n      dup2\n        /* \"#utility.yul\":4820:4844   */\n      tag_431\n      jump\t// in\n    tag_529:\n        /* \"#utility.yul\":4813:4818   */\n      dup2\n        /* \"#utility.yul\":4810:4845   */\n      eq\n        /* \"#utility.yul\":4800:4863   */\n      tag_530\n      jumpi\n        /* \"#utility.yul\":4859:4860   */\n      0x00\n        /* \"#utility.yul\":4856:4857   */\n      0x00\n        /* \"#utility.yul\":4849:4861   */\n      revert\n        /* \"#utility.yul\":4800:4863   */\n    tag_530:\n        /* \"#utility.yul\":4747:4869   */\n      pop\n      jump\t// out\n        /* \"#utility.yul\":4875:5014   */\n    tag_435:\n        /* \"#utility.yul\":4921:4926   */\n      0x00\n        /* \"#utility.yul\":4959:4965   */\n      dup2\n        /* \"#utility.yul\":4946:4966   */\n      calldataload\n        /* \"#utility.yul\":4937:4966   */\n      swap1\n      pop\n        /* \"#utility.yul\":4975:5008   */\n      tag_532\n        /* \"#utility.yul\":5002:5007   */\n      dup2\n        /* \"#utility.yul\":4975:5008   */\n      tag_434\n      jump\t// in\n    tag_532:\n        /* \"#utility.yul\":4875:5014   */\n      swap3\n      swap2\n      pop\n      pop\n      jump\t// out\n        /* \"#utility.yul\":5020:5349   */\n    tag_83:\n        /* \"#utility.yul\":5079:5085   */\n      0x00\n        /* \"#utility.yul\":5128:5130   */\n      0x20\n        /* \"#utility.yul\":5116:5125   */\n      dup3\n        /* \"#utility.yul\":5107:5114   */\n      dup5\n        /* \"#utility.yul\":5103:5126   */\n      sub\n        /* \"#utility.yul\":5099:5131   */\n      slt\n        /* \"#utility.yul\":5096:5215   */\n      iszero\n      tag_534\n      jumpi\n        /* \"#utility.yul\":5134:5213   */\n      tag_535\n      tag_422\n      jump\t// in\n    tag_535:\n        /* \"#utility.yul\":5096:5215   */\n    tag_534:\n        /* \"#utility.yul\":5254:5255   */\n      0x00\n        /* \"#utility.yul\":5279:5332   */\n      tag_536\n        /* \"#utility.yul\":5324:5331   */\n      dup5\n        /* \"#utility.yul\":5315:5321   */\n      dup3\n        /* \"#utility.yul\":5304:5313   */\n      dup6\n        /* \"#utility.yul\":5300:5322   */\n      add\n        /* \"#utility.yul\":5279:5332   */\n      tag_435\n      jump\t// in\n    tag_536:\n        /* \"#utility.yul\":5269:5332   */\n      swap2\n      pop\n        /* \"#utility.yul\":5225:5342   */\n      pop\n        /* \"#utility.yul\":5020:5349   */\n      swap3\n      swap2\n      pop\n      pop\n      jump\t// out\n        /* \"#utility.yul\":5355:5684   */\n    tag_92:\n        /* \"#utility.yul\":5414:5420   */\n      0x00\n        /* \"#utility.yul\":5463:5465   */\n      0x20\n        /* \"#utility.yul\":5451:5460   */\n      dup3\n        /* \"#utility.yul\":5442:5449   */\n      dup5\n        /* \"#utility.yul\":5438:5461   */\n      sub\n        /* \"#utility.yul\":5434:5466   */\n      slt\n        /* \"#utility.yul\":5431:5550   */\n      iszero\n      tag_538\n      jumpi\n        /* \"#utility.yul\":5469:5548   */\n      tag_539\n      tag_422\n      jump\t// in\n    tag_539:\n        /* \"#utility.yul\":5431:5550   */\n    tag_538:\n        /* \"#utility.yul\":5589:5590   */\n      0x00\n        /* \"#utility.yul\":5614:5667   */\n      tag_540\n        /* \"#utility.yul\":5659:5666   */\n      dup5\n        /* \"#utility.yul\":5650:5656   */\n      dup3\n        /* \"#utility.yul\":5639:5648   */\n      dup6\n        /* \"#utility.yul\":5635:5657   */\n      add\n        /* \"#utility.yul\":5614:5667   */\n      tag_430\n      jump\t// in\n    tag_540:\n        /* \"#utility.yul\":5604:5667   */\n      swap2\n      pop\n        /* \"#utility.yul\":5560:5677   */\n      pop\n        /* \"#utility.yul\":5355:5684   */\n      swap3\n      swap2\n      pop\n      pop\n      jump\t// out\n        /* \"#utility.yul\":5690:5807   */\n    tag_436:\n        /* \"#utility.yul\":5799:5800   */\n      0x00\n        /* \"#utility.yul\":5796:5797   */\n      0x00\n        /* \"#utility.yul\":5789:5801   */\n      revert\n        /* \"#utility.yul\":5813:5930   */\n    tag_437:\n        /* \"#utility.yul\":5922:5923   */\n      0x00\n        /* \"#utility.yul\":5919:5920   */\n      0x00\n        /* \"#utility.yul\":5912:5924   */\n      revert\n        /* \"#utility.yul\":5936:6116   */\n    tag_438:\n        /* \"#utility.yul\":5984:6061   */\n      0x4e487b7100000000000000000000000000000000000000000000000000000000\n        /* \"#utility.yul\":5981:5982   */\n      0x00\n        /* \"#utility.yul\":5974:6062   */\n      mstore\n        /* \"#utility.yul\":6081:6085   */\n      0x41\n        /* \"#utility.yul\":6078:6079   */\n      0x04\n        /* \"#utility.yul\":6071:6086   */\n      mstore\n        /* \"#utility.yul\":6105:6109   */\n      0x24\n        /* \"#utility.yul\":6102:6103   */\n      0x00\n        /* \"#utility.yul\":6095:6110   */\n      revert\n        /* \"#utility.yul\":6122:6403   */\n    tag_439:\n        /* \"#utility.yul\":6205:6232   */\n      tag_545\n        /* \"#utility.yul\":6227:6231   */\n      dup3\n        /* \"#utility.yul\":6205:6232   */\n      tag_419\n      jump\t// in\n    tag_545:\n        /* \"#utility.yul\":6197:6203   */\n      dup2\n        /* \"#utility.yul\":6193:6233   */\n      add\n        /* \"#utility.yul\":6335:6341   */\n      dup2\n        /* \"#utility.yul\":6323:6333   */\n      dup2\n        /* \"#utility.yul\":6320:6342   */\n      lt\n        /* \"#utility.yul\":6299:6317   */\n      0xffffffffffffffff\n        /* \"#utility.yul\":6287:6297   */\n      dup3\n        /* \"#utility.yul\":6284:6318   */\n      gt\n        /* \"#utility.yul\":6281:6343   */\n      or\n        /* \"#utility.yul\":6278:6366   */\n      iszero\n      tag_546\n      jumpi\n        /* \"#utility.yul\":6346:6364   */\n      tag_547\n      tag_438\n      jump\t// in\n    tag_547:\n        /* \"#utility.yul\":6278:6366   */\n    tag_546:\n        /* \"#utility.yul\":6386:6396   */\n      dup1\n        /* \"#utility.yul\":6382:6384   */\n      0x40\n        /* \"#utility.yul\":6375:6397   */\n      mstore\n        /* \"#utility.yul\":6165:6403   */\n      pop\n        /* \"#utility.yul\":6122:6403   */\n      pop\n      pop\n      jump\t// out\n        /* \"#utility.yul\":6409:6538   */\n    tag_440:\n        /* \"#utility.yul\":6443:6449   */\n      0x00\n        /* \"#utility.yul\":6470:6490   */\n      tag_549\n      tag_421\n      jump\t// in\n    tag_549:\n        /* \"#utility.yul\":6460:6490   */\n      swap1\n      pop\n        /* \"#utility.yul\":6499:6532   */\n      tag_550\n        /* \"#utility.yul\":6527:6531   */\n      dup3\n        /* \"#utility.yul\":6519:6525   */\n      dup3\n        /* \"#utility.yul\":6499:6532   */\n      tag_439\n      jump\t// in\n    tag_550:\n        /* \"#utility.yul\":6409:6538   */\n      swap2\n      swap1\n      pop\n      jump\t// out\n        /* \"#utility.yul\":6544:6852   */\n    tag_441:\n        /* \"#utility.yul\":6606:6610   */\n      0x00\n        /* \"#utility.yul\":6696:6714   */\n      0xffffffffffffffff\n        /* \"#utility.yul\":6688:6694   */\n      dup3\n        /* \"#utility.yul\":6685:6715   */\n      gt\n        /* \"#utility.yul\":6682:6738   */\n      iszero\n      tag_552\n      jumpi\n        /* \"#utility.yul\":6718:6736   */\n      tag_553\n      tag_438\n      jump\t// in\n    tag_553:\n        /* \"#utility.yul\":6682:6738   */\n    tag_552:\n        /* \"#utility.yul\":6756:6785   */\n      tag_554\n        /* \"#utility.yul\":6778:6784   */\n      dup3\n        /* \"#utility.yul\":6756:6785   */\n      tag_419\n      jump\t// in\n    tag_554:\n        /* \"#utility.yul\":6748:6785   */\n      swap1\n      pop\n        /* \"#utility.yul\":6840:6844   */\n      0x20\n        /* \"#utility.yul\":6834:6838   */\n      dup2\n        /* \"#utility.yul\":6830:6845   */\n      add\n        /* \"#utility.yul\":6822:6845   */\n      swap1\n      pop\n        /* \"#utility.yul\":6544:6852   */\n      swap2\n      swap1\n      pop\n      jump\t// out\n        /* \"#utility.yul\":6858:7006   */\n    tag_442:\n        /* \"#utility.yul\":6956:6962   */\n      dup3\n        /* \"#utility.yul\":6951:6954   */\n      dup2\n        /* \"#utility.yul\":6946:6949   */\n      dup4\n        /* \"#utility.yul\":6933:6963   */\n      calldatacopy\n        /* \"#utility.yul\":6997:6998   */\n      0x00\n        /* \"#utility.yul\":6988:6994   */\n      dup4\n        /* \"#utility.yul\":6983:6986   */\n      dup4\n        /* \"#utility.yul\":6979:6995   */\n      add\n        /* \"#utility.yul\":6972:6999   */\n      mstore\n        /* \"#utility.yul\":6858:7006   */\n      pop\n      pop\n      pop\n      jump\t// out\n        /* \"#utility.yul\":7012:7437   */\n    tag_443:\n        /* \"#utility.yul\":7090:7095   */\n      0x00\n        /* \"#utility.yul\":7115:7181   */\n      tag_557\n        /* \"#utility.yul\":7131:7180   */\n      tag_558\n        /* \"#utility.yul\":7173:7179   */\n      dup5\n        /* \"#utility.yul\":7131:7180   */\n      tag_441\n      jump\t// in\n    tag_558:\n        /* \"#utility.yul\":7115:7181   */\n      tag_440\n      jump\t// in\n    tag_557:\n        /* \"#utility.yul\":7106:7181   */\n      swap1\n      pop\n        /* \"#utility.yul\":7204:7210   */\n      dup3\n        /* \"#utility.yul\":7197:7202   */\n      dup2\n        /* \"#utility.yul\":7190:7211   */\n      mstore\n        /* \"#utility.yul\":7242:7246   */\n      0x20\n        /* \"#utility.yul\":7235:7240   */\n      dup2\n        /* \"#utility.yul\":7231:7247   */\n      add\n        /* \"#utility.yul\":7280:7283   */\n      dup5\n        /* \"#utility.yul\":7271:7277   */\n      dup5\n        /* \"#utility.yul\":7266:7269   */\n      dup5\n        /* \"#utility.yul\":7262:7278   */\n      add\n        /* \"#utility.yul\":7259:7284   */\n      gt\n        /* \"#utility.yul\":7256:7368   */\n      iszero\n      tag_559\n      jumpi\n        /* \"#utility.yul\":7287:7366   */\n      tag_560\n      tag_437\n      jump\t// in\n    tag_560:\n        /* \"#utility.yul\":7256:7368   */\n    tag_559:\n        /* \"#utility.yul\":7377:7431   */\n      tag_561\n        /* \"#utility.yul\":7424:7430   */\n      dup5\n        /* \"#utility.yul\":7419:7422   */\n      dup3\n        /* \"#utility.yul\":7414:7417   */\n      dup6\n        /* \"#utility.yul\":7377:7431   */\n      tag_442\n      jump\t// in\n    tag_561:\n        /* \"#utility.yul\":7096:7437   */\n      pop\n        /* \"#utility.yul\":7012:7437   */\n      swap4\n      swap3\n      pop\n      pop\n      pop\n      jump\t// out\n        /* \"#utility.yul\":7457:7797   */\n    tag_444:\n        /* \"#utility.yul\":7513:7518   */\n      0x00\n        /* \"#utility.yul\":7562:7565   */\n      dup3\n        /* \"#utility.yul\":7555:7559   */\n      0x1f\n        /* \"#utility.yul\":7547:7553   */\n      dup4\n        /* \"#utility.yul\":7543:7560   */\n      add\n        /* \"#utility.yul\":7539:7566   */\n      slt\n        /* \"#utility.yul\":7529:7651   */\n      tag_563\n      jumpi\n        /* \"#utility.yul\":7570:7649   */\n      tag_564\n      tag_436\n      jump\t// in\n    tag_564:\n        /* \"#utility.yul\":7529:7651   */\n    tag_563:\n        /* \"#utility.yul\":7687:7693   */\n      dup2\n        /* \"#utility.yul\":7674:7694   */\n      calldataload\n        /* \"#utility.yul\":7712:7791   */\n      tag_565\n        /* \"#utility.yul\":7787:7790   */\n      dup5\n        /* \"#utility.yul\":7779:7785   */\n      dup3\n        /* \"#utility.yul\":7772:7776   */\n      0x20\n        /* \"#utility.yul\":7764:7770   */\n      dup7\n        /* \"#utility.yul\":7760:7777   */\n      add\n        /* \"#utility.yul\":7712:7791   */\n      tag_443\n      jump\t// in\n    tag_565:\n        /* \"#utility.yul\":7703:7791   */\n      swap2\n      pop\n        /* \"#utility.yul\":7519:7797   */\n      pop\n        /* \"#utility.yul\":7457:7797   */\n      swap3\n      swap2\n      pop\n      pop\n      jump\t// out\n        /* \"#utility.yul\":7803:8312   */\n    tag_116:\n        /* \"#utility.yul\":7872:7878   */\n      0x00\n        /* \"#utility.yul\":7921:7923   */\n      0x20\n        /* \"#utility.yul\":7909:7918   */\n      dup3\n        /* \"#utility.yul\":7900:7907   */\n      dup5\n        /* \"#utility.yul\":7896:7919   */\n      sub\n        /* \"#utility.yul\":7892:7924   */\n      slt\n        /* \"#utility.yul\":7889:8008   */\n      iszero\n      tag_567\n      jumpi\n        /* \"#utility.yul\":7927:8006   */\n      tag_568\n      tag_422\n      jump\t// in\n    tag_568:\n        /* \"#utility.yul\":7889:8008   */\n    tag_567:\n        /* \"#utility.yul\":8075:8076   */\n      0x00\n        /* \"#utility.yul\":8064:8073   */\n      dup3\n        /* \"#utility.yul\":8060:8077   */\n      add\n        /* \"#utility.yul\":8047:8078   */\n      calldataload\n        /* \"#utility.yul\":8105:8123   */\n      0xffffffffffffffff\n        /* \"#utility.yul\":8097:8103   */\n      dup2\n        /* \"#utility.yul\":8094:8124   */\n      gt\n        /* \"#utility.yul\":8091:8208   */\n      iszero\n      tag_569\n      jumpi\n        /* \"#utility.yul\":8127:8206   */\n      tag_570\n      tag_423\n      jump\t// in\n    tag_570:\n        /* \"#utility.yul\":8091:8208   */\n    tag_569:\n        /* \"#utility.yul\":8232:8295   */\n      tag_571\n        /* \"#utility.yul\":8287:8294   */\n      dup5\n        /* \"#utility.yul\":8278:8284   */\n      dup3\n        /* \"#utility.yul\":8267:8276   */\n      dup6\n        /* \"#utility.yul\":8263:8285   */\n      add\n        /* \"#utility.yul\":8232:8295   */\n      tag_444\n      jump\t// in\n    tag_571:\n        /* \"#utility.yul\":8222:8295   */\n      swap2\n      pop\n        /* \"#utility.yul\":8018:8305   */\n      pop\n        /* \"#utility.yul\":7803:8312   */\n      swap3\n      swap2\n      pop\n      pop\n      jump\t// out\n        /* \"#utility.yul\":8318:8432   */\n    tag_445:\n        /* \"#utility.yul\":8385:8391   */\n      0x00\n        /* \"#utility.yul\":8419:8424   */\n      dup2\n        /* \"#utility.yul\":8413:8425   */\n      mload\n        /* \"#utility.yul\":8403:8425   */\n      swap1\n      pop\n        /* \"#utility.yul\":8318:8432   */\n      swap2\n      swap1\n      pop\n      jump\t// out\n        /* \"#utility.yul\":8438:8630   */\n    tag_446:\n        /* \"#utility.yul\":8545:8556   */\n      0x00\n        /* \"#utility.yul\":8579:8585   */\n      dup3\n        /* \"#utility.yul\":8574:8577   */\n      dup3\n        /* \"#utility.yul\":8567:8586   */\n      mstore\n        /* \"#utility.yul\":8619:8623   */\n      0x20\n        /* \"#utility.yul\":8614:8617   */\n      dup3\n        /* \"#utility.yul\":8610:8624   */\n      add\n        /* \"#utility.yul\":8595:8624   */\n      swap1\n      pop\n        /* \"#utility.yul\":8438:8630   */\n      swap3\n      swap2\n      pop\n      pop\n      jump\t// out\n        /* \"#utility.yul\":8636:8768   */\n    tag_447:\n        /* \"#utility.yul\":8703:8707   */\n      0x00\n        /* \"#utility.yul\":8726:8729   */\n      dup2\n        /* \"#utility.yul\":8718:8729   */\n      swap1\n      pop\n        /* \"#utility.yul\":8756:8760   */\n      0x20\n        /* \"#utility.yul\":8751:8754   */\n      dup3\n        /* \"#utility.yul\":8747:8761   */\n      add\n        /* \"#utility.yul\":8739:8761   */\n      swap1\n      pop\n        /* \"#utility.yul\":8636:8768   */\n      swap2\n      swap1\n      pop\n      jump\t// out\n        /* \"#utility.yul\":8774:8890   */\n    tag_448:\n        /* \"#utility.yul\":8859:8883   */\n      tag_576\n        /* \"#utility.yul\":8877:8882   */\n      dup2\n        /* \"#utility.yul\":8859:8883   */\n      tag_428\n      jump\t// in\n    tag_576:\n        /* \"#utility.yul\":8854:8857   */\n      dup3\n        /* \"#utility.yul\":8847:8884   */\n      mstore\n        /* \"#utility.yul\":8774:8890   */\n      pop\n      pop\n      jump\t// out\n        /* \"#utility.yul\":8896:9091   */\n    tag_449:\n        /* \"#utility.yul\":8973:8983   */\n      0x00\n        /* \"#utility.yul\":8994:9048   */\n      tag_578\n        /* \"#utility.yul\":9044:9047   */\n      dup4\n        /* \"#utility.yul\":9036:9042   */\n      dup4\n        /* \"#utility.yul\":8994:9048   */\n      tag_448\n      jump\t// in\n    tag_578:\n        /* \"#utility.yul\":9080:9084   */\n      0x20\n        /* \"#utility.yul\":9075:9078   */\n      dup4\n        /* \"#utility.yul\":9071:9085   */\n      add\n        /* \"#utility.yul\":9057:9085   */\n      swap1\n      pop\n        /* \"#utility.yul\":8896:9091   */\n      swap3\n      swap2\n      pop\n      pop\n      jump\t// out\n        /* \"#utility.yul\":9097:9210   */\n    tag_450:\n        /* \"#utility.yul\":9167:9171   */\n      0x00\n        /* \"#utility.yul\":9199:9203   */\n      0x20\n        /* \"#utility.yul\":9194:9197   */\n      dup3\n        /* \"#utility.yul\":9190:9204   */\n      add\n        /* \"#utility.yul\":9182:9204   */\n      swap1\n      pop\n        /* \"#utility.yul\":9097:9210   */\n      swap2\n      swap1\n      pop\n      jump\t// out\n        /* \"#utility.yul\":9246:10002   */\n    tag_451:\n        /* \"#utility.yul\":9373:9376   */\n      0x00\n        /* \"#utility.yul\":9402:9456   */\n      tag_581\n        /* \"#utility.yul\":9450:9455   */\n      dup3\n        /* \"#utility.yul\":9402:9456   */\n      tag_445\n      jump\t// in\n    tag_581:\n        /* \"#utility.yul\":9472:9566   */\n      tag_582\n        /* \"#utility.yul\":9559:9565   */\n      dup2\n        /* \"#utility.yul\":9554:9557   */\n      dup6\n        /* \"#utility.yul\":9472:9566   */\n      tag_446\n      jump\t// in\n    tag_582:\n        /* \"#utility.yul\":9465:9566   */\n      swap4\n      pop\n        /* \"#utility.yul\":9590:9646   */\n      tag_583\n        /* \"#utility.yul\":9640:9645   */\n      dup4\n        /* \"#utility.yul\":9590:9646   */\n      tag_447\n      jump\t// in\n    tag_583:\n        /* \"#utility.yul\":9669:9676   */\n      dup1\n        /* \"#utility.yul\":9700:9701   */\n      0x00\n        /* \"#utility.yul\":9685:9977   */\n    tag_584:\n        /* \"#utility.yul\":9710:9716   */\n      dup4\n        /* \"#utility.yul\":9707:9708   */\n      dup2\n        /* \"#utility.yul\":9704:9717   */\n      lt\n        /* \"#utility.yul\":9685:9977   */\n      iszero\n      tag_586\n      jumpi\n        /* \"#utility.yul\":9786:9792   */\n      dup2\n        /* \"#utility.yul\":9780:9793   */\n      mload\n        /* \"#utility.yul\":9813:9884   */\n      tag_587\n        /* \"#utility.yul\":9880:9883   */\n      dup9\n        /* \"#utility.yul\":9865:9878   */\n      dup3\n        /* \"#utility.yul\":9813:9884   */\n      tag_449\n      jump\t// in\n    tag_587:\n        /* \"#utility.yul\":9806:9884   */\n      swap8\n      pop\n        /* \"#utility.yul\":9907:9967   */\n      tag_588\n        /* \"#utility.yul\":9960:9966   */\n      dup4\n        /* \"#utility.yul\":9907:9967   */\n      tag_450\n      jump\t// in\n    tag_588:\n        /* \"#utility.yul\":9897:9967   */\n      swap3\n      pop\n        /* \"#utility.yul\":9745:9977   */\n      pop\n        /* \"#utility.yul\":9732:9733   */\n      0x01\n        /* \"#utility.yul\":9729:9730   */\n      dup2\n        /* \"#utility.yul\":9725:9734   */\n      add\n        /* \"#utility.yul\":9720:9734   */\n      swap1\n      pop\n        /* \"#utility.yul\":9685:9977   */\n      jump(tag_584)\n    tag_586:\n        /* \"#utility.yul\":9689:9703   */\n      pop\n        /* \"#utility.yul\":9993:9996   */\n      dup6\n        /* \"#utility.yul\":9986:9996   */\n      swap4\n      pop\n        /* \"#utility.yul\":9378:10002   */\n      pop\n      pop\n      pop\n        /* \"#utility.yul\":9246:10002   */\n      swap3\n      swap2\n      pop\n      pop\n      jump\t// out\n        /* \"#utility.yul\":10008:10397   */\n    tag_144:\n        /* \"#utility.yul\":10159:10163   */\n      0x00\n        /* \"#utility.yul\":10197:10199   */\n      0x20\n        /* \"#utility.yul\":10186:10195   */\n      dup3\n        /* \"#utility.yul\":10182:10200   */\n      add\n        /* \"#utility.yul\":10174:10200   */\n      swap1\n      pop\n        /* \"#utility.yul\":10246:10255   */\n      dup2\n        /* \"#utility.yul\":10240:10244   */\n      dup2\n        /* \"#utility.yul\":10236:10256   */\n      sub\n        /* \"#utility.yul\":10232:10233   */\n      0x00\n        /* \"#utility.yul\":10221:10230   */\n      dup4\n        /* \"#utility.yul\":10217:10234   */\n      add\n        /* \"#utility.yul\":10210:10257   */\n      mstore\n        /* \"#utility.yul\":10274:10390   */\n      tag_590\n        /* \"#utility.yul\":10385:10389   */\n      dup2\n        /* \"#utility.yul\":10376:10382   */\n      dup5\n        /* \"#utility.yul\":10274:10390   */\n      tag_451\n      jump\t// in\n    tag_590:\n        /* \"#utility.yul\":10266:10390   */\n      swap1\n      pop\n        /* \"#utility.yul\":10008:10397   */\n      swap3\n      swap2\n      pop\n      pop\n      jump\t// out\n        /* \"#utility.yul\":10403:10493   */\n    tag_452:\n        /* \"#utility.yul\":10437:10444   */\n      0x00\n        /* \"#utility.yul\":10480:10485   */\n      dup2\n        /* \"#utility.yul\":10473:10486   */\n      iszero\n        /* \"#utility.yul\":10466:10487   */\n      iszero\n        /* \"#utility.yul\":10455:10487   */\n      swap1\n      pop\n        /* \"#utility.yul\":10403:10493   */\n      swap2\n      swap1\n      pop\n      jump\t// out\n        /* \"#utility.yul\":10499:10615   */\n    tag_453:\n        /* \"#utility.yul\":10569:10590   */\n      tag_593\n        /* \"#utility.yul\":10584:10589   */\n      dup2\n        /* \"#utility.yul\":10569:10590   */\n      tag_452\n      jump\t// in\n    tag_593:\n        /* \"#utility.yul\":10562:10567   */\n      dup2\n        /* \"#utility.yul\":10559:10591   */\n      eq\n        /* \"#utility.yul\":10549:10609   */\n      tag_594\n      jumpi\n        /* \"#utility.yul\":10605:10606   */\n      0x00\n        /* \"#utility.yul\":10602:10603   */\n      0x00\n        /* \"#utility.yul\":10595:10607   */\n      revert\n        /* \"#utility.yul\":10549:10609   */\n    tag_594:\n        /* \"#utility.yul\":10499:10615   */\n      pop\n      jump\t// out\n        /* \"#utility.yul\":10621:10754   */\n    tag_454:\n        /* \"#utility.yul\":10664:10669   */\n      0x00\n        /* \"#utility.yul\":10702:10708   */\n      dup2\n        /* \"#utility.yul\":10689:10709   */\n      calldataload\n        /* \"#utility.yul\":10680:10709   */\n      swap1\n      pop\n        /* \"#utility.yul\":10718:10748   */\n      tag_596\n        /* \"#utility.yul\":10742:10747   */\n      dup2\n        /* \"#utility.yul\":10718:10748   */\n      tag_453\n      jump\t// in\n    tag_596:\n        /* \"#utility.yul\":10621:10754   */\n      swap3\n      swap2\n      pop\n      pop\n      jump\t// out\n        /* \"#utility.yul\":10760:11373   */\n    tag_159:\n        /* \"#utility.yul\":10834:10840   */\n      0x00\n        /* \"#utility.yul\":10842:10848   */\n      0x00\n        /* \"#utility.yul\":10850:10856   */\n      0x00\n        /* \"#utility.yul\":10899:10901   */\n      0x60\n        /* \"#utility.yul\":10887:10896   */\n      dup5\n        /* \"#utility.yul\":10878:10885   */\n      dup7\n        /* \"#utility.yul\":10874:10897   */\n      sub\n        /* \"#utility.yul\":10870:10902   */\n      slt\n        /* \"#utility.yul\":10867:10986   */\n      iszero\n      tag_598\n      jumpi\n        /* \"#utility.yul\":10905:10984   */\n      tag_599\n      tag_422\n      jump\t// in\n    tag_599:\n        /* \"#utility.yul\":10867:10986   */\n    tag_598:\n        /* \"#utility.yul\":11025:11026   */\n      0x00\n        /* \"#utility.yul\":11050:11103   */\n      tag_600\n        /* \"#utility.yul\":11095:11102   */\n      dup7\n        /* \"#utility.yul\":11086:11092   */\n      dup3\n        /* \"#utility.yul\":11075:11084   */\n      dup8\n        /* \"#utility.yul\":11071:11093   */\n      add\n        /* \"#utility.yul\":11050:11103   */\n      tag_427\n      jump\t// in\n    tag_600:\n        /* \"#utility.yul\":11040:11103   */\n      swap4\n      pop\n        /* \"#utility.yul\":10996:11113   */\n      pop\n        /* \"#utility.yul\":11152:11154   */\n      0x20\n        /* \"#utility.yul\":11178:11231   */\n      tag_601\n        /* \"#utility.yul\":11223:11230   */\n      dup7\n        /* \"#utility.yul\":11214:11220   */\n      dup3\n        /* \"#utility.yul\":11203:11212   */\n      dup8\n        /* \"#utility.yul\":11199:11221   */\n      add\n        /* \"#utility.yul\":11178:11231   */\n      tag_427\n      jump\t// in\n    tag_601:\n        /* \"#utility.yul\":11168:11231   */\n      swap3\n      pop\n        /* \"#utility.yul\":11123:11241   */\n      pop\n        /* \"#utility.yul\":11280:11282   */\n      0x40\n        /* \"#utility.yul\":11306:11356   */\n      tag_602\n        /* \"#utility.yul\":11348:11355   */\n      dup7\n        /* \"#utility.yul\":11339:11345   */\n      dup3\n        /* \"#utility.yul\":11328:11337   */\n      dup8\n        /* \"#utility.yul\":11324:11346   */\n      add\n        /* \"#utility.yul\":11306:11356   */\n      tag_454\n      jump\t// in\n    tag_602:\n        /* \"#utility.yul\":11296:11356   */\n      swap2\n      pop\n        /* \"#utility.yul\":11251:11366   */\n      pop\n        /* \"#utility.yul\":10760:11373   */\n      swap3\n      pop\n      swap3\n      pop\n      swap3\n      jump\t// out\n        /* \"#utility.yul\":11379:11853   */\n    tag_188:\n        /* \"#utility.yul\":11447:11453   */\n      0x00\n        /* \"#utility.yul\":11455:11461   */\n      0x00\n        /* \"#utility.yul\":11504:11506   */\n      0x40\n        /* \"#utility.yul\":11492:11501   */\n      dup4\n        /* \"#utility.yul\":11483:11490   */\n      dup6\n        /* \"#utility.yul\":11479:11502   */\n      sub\n        /* \"#utility.yul\":11475:11507   */\n      slt\n        /* \"#utility.yul\":11472:11591   */\n      iszero\n      tag_604\n      jumpi\n        /* \"#utility.yul\":11510:11589   */\n      tag_605\n      tag_422\n      jump\t// in\n    tag_605:\n        /* \"#utility.yul\":11472:11591   */\n    tag_604:\n        /* \"#utility.yul\":11630:11631   */\n      0x00\n        /* \"#utility.yul\":11655:11708   */\n      tag_606\n        /* \"#utility.yul\":11700:11707   */\n      dup6\n        /* \"#utility.yul\":11691:11697   */\n      dup3\n        /* \"#utility.yul\":11680:11689   */\n      dup7\n        /* \"#utility.yul\":11676:11698   */\n      add\n        /* \"#utility.yul\":11655:11708   */\n      tag_427\n      jump\t// in\n    tag_606:\n        /* \"#utility.yul\":11645:11708   */\n      swap3\n      pop\n        /* \"#utility.yul\":11601:11718   */\n      pop\n        /* \"#utility.yul\":11757:11759   */\n      0x20\n        /* \"#utility.yul\":11783:11836   */\n      tag_607\n        /* \"#utility.yul\":11828:11835   */\n      dup6\n        /* \"#utility.yul\":11819:11825   */\n      dup3\n        /* \"#utility.yul\":11808:11817   */\n      dup7\n        /* \"#utility.yul\":11804:11826   */\n      add\n        /* \"#utility.yul\":11783:11836   */\n      tag_430\n      jump\t// in\n    tag_607:\n        /* \"#utility.yul\":11773:11836   */\n      swap2\n      pop\n        /* \"#utility.yul\":11728:11846   */\n      pop\n        /* \"#utility.yul\":11379:11853   */\n      swap3\n      pop\n      swap3\n      swap1\n      pop\n      jump\t// out\n        /* \"#utility.yul\":11859:11975   */\n    tag_455:\n        /* \"#utility.yul\":11944:11968   */\n      tag_609\n        /* \"#utility.yul\":11962:11967   */\n      dup2\n        /* \"#utility.yul\":11944:11968   */\n      tag_425\n      jump\t// in\n    tag_609:\n        /* \"#utility.yul\":11939:11942   */\n      dup3\n        /* \"#utility.yul\":11932:11969   */\n      mstore\n        /* \"#utility.yul\":11859:11975   */\n      pop\n      pop\n      jump\t// out\n        /* \"#utility.yul\":12079:12443   */\n    tag_456:\n        /* \"#utility.yul\":12248:12252   */\n      0x20\n        /* \"#utility.yul\":12243:12246   */\n      dup3\n        /* \"#utility.yul\":12239:12253   */\n      add\n        /* \"#utility.yul\":12336:12340   */\n      0x00\n        /* \"#utility.yul\":12329:12334   */\n      dup3\n        /* \"#utility.yul\":12325:12341   */\n      add\n        /* \"#utility.yul\":12319:12342   */\n      mload\n        /* \"#utility.yul\":12355:12426   */\n      tag_611\n        /* \"#utility.yul\":12420:12424   */\n      0x00\n        /* \"#utility.yul\":12415:12418   */\n      dup6\n        /* \"#utility.yul\":12411:12425   */\n      add\n        /* \"#utility.yul\":12397:12409   */\n      dup3\n        /* \"#utility.yul\":12355:12426   */\n      tag_455\n      jump\t// in\n    tag_611:\n        /* \"#utility.yul\":12263:12436   */\n      pop\n        /* \"#utility.yul\":12217:12443   */\n      pop\n        /* \"#utility.yul\":12079:12443   */\n      pop\n      pop\n      jump\t// out\n        /* \"#utility.yul\":12449:12815   */\n    tag_194:\n        /* \"#utility.yul\":12614:12618   */\n      0x00\n        /* \"#utility.yul\":12652:12654   */\n      0x20\n        /* \"#utility.yul\":12641:12650   */\n      dup3\n        /* \"#utility.yul\":12637:12655   */\n      add\n        /* \"#utility.yul\":12629:12655   */\n      swap1\n      pop\n        /* \"#utility.yul\":12665:12808   */\n      tag_613\n        /* \"#utility.yul\":12805:12806   */\n      0x00\n        /* \"#utility.yul\":12794:12803   */\n      dup4\n        /* \"#utility.yul\":12790:12807   */\n      add\n        /* \"#utility.yul\":12781:12787   */\n      dup5\n        /* \"#utility.yul\":12665:12808   */\n      tag_456\n      jump\t// in\n    tag_613:\n        /* \"#utility.yul\":12449:12815   */\n      swap3\n      swap2\n      pop\n      pop\n      jump\t// out\n        /* \"#utility.yul\":12821:13295   */\n    tag_198:\n        /* \"#utility.yul\":12889:12895   */\n      0x00\n        /* \"#utility.yul\":12897:12903   */\n      0x00\n        /* \"#utility.yul\":12946:12948   */\n      0x40\n        /* \"#utility.yul\":12934:12943   */\n      dup4\n        /* \"#utility.yul\":12925:12932   */\n      dup6\n        /* \"#utility.yul\":12921:12944   */\n      sub\n        /* \"#utility.yul\":12917:12949   */\n      slt\n        /* \"#utility.yul\":12914:13033   */\n      iszero\n      tag_615\n      jumpi\n        /* \"#utility.yul\":12952:13031   */\n      tag_616\n      tag_422\n      jump\t// in\n    tag_616:\n        /* \"#utility.yul\":12914:13033   */\n    tag_615:\n        /* \"#utility.yul\":13072:13073   */\n      0x00\n        /* \"#utility.yul\":13097:13150   */\n      tag_617\n        /* \"#utility.yul\":13142:13149   */\n      dup6\n        /* \"#utility.yul\":13133:13139   */\n      dup3\n        /* \"#utility.yul\":13122:13131   */\n      dup7\n        /* \"#utility.yul\":13118:13140   */\n      add\n        /* \"#utility.yul\":13097:13150   */\n      tag_430\n      jump\t// in\n    tag_617:\n        /* \"#utility.yul\":13087:13150   */\n      swap3\n      pop\n        /* \"#utility.yul\":13043:13160   */\n      pop\n        /* \"#utility.yul\":13199:13201   */\n      0x20\n        /* \"#utility.yul\":13225:13278   */\n      tag_618\n        /* \"#utility.yul\":13270:13277   */\n      dup6\n        /* \"#utility.yul\":13261:13267   */\n      dup3\n        /* \"#utility.yul\":13250:13259   */\n      dup7\n        /* \"#utility.yul\":13246:13268   */\n      add\n        /* \"#utility.yul\":13225:13278   */\n      tag_430\n      jump\t// in\n    tag_618:\n        /* \"#utility.yul\":13215:13278   */\n      swap2\n      pop\n        /* \"#utility.yul\":13170:13288   */\n      pop\n        /* \"#utility.yul\":12821:13295   */\n      swap3\n      pop\n      swap3\n      swap1\n      pop\n      jump\t// out\n        /* \"#utility.yul\":13301:13769   */\n    tag_203:\n        /* \"#utility.yul\":13366:13372   */\n      0x00\n        /* \"#utility.yul\":13374:13380   */\n      0x00\n        /* \"#utility.yul\":13423:13425   */\n      0x40\n        /* \"#utility.yul\":13411:13420   */\n      dup4\n        /* \"#utility.yul\":13402:13409   */\n      dup6\n        /* \"#utility.yul\":13398:13421   */\n      sub\n        /* \"#utility.yul\":13394:13426   */\n      slt\n        /* \"#utility.yul\":13391:13510   */\n      iszero\n      tag_620\n      jumpi\n        /* \"#utility.yul\":13429:13508   */\n      tag_621\n      tag_422\n      jump\t// in\n    tag_621:\n        /* \"#utility.yul\":13391:13510   */\n    tag_620:\n        /* \"#utility.yul\":13549:13550   */\n      0x00\n        /* \"#utility.yul\":13574:13627   */\n      tag_622\n        /* \"#utility.yul\":13619:13626   */\n      dup6\n        /* \"#utility.yul\":13610:13616   */\n      dup3\n        /* \"#utility.yul\":13599:13608   */\n      dup7\n        /* \"#utility.yul\":13595:13617   */\n      add\n        /* \"#utility.yul\":13574:13627   */\n      tag_427\n      jump\t// in\n    tag_622:\n        /* \"#utility.yul\":13564:13627   */\n      swap3\n      pop\n        /* \"#utility.yul\":13520:13637   */\n      pop\n        /* \"#utility.yul\":13676:13678   */\n      0x20\n        /* \"#utility.yul\":13702:13752   */\n      tag_623\n        /* \"#utility.yul\":13744:13751   */\n      dup6\n        /* \"#utility.yul\":13735:13741   */\n      dup3\n        /* \"#utility.yul\":13724:13733   */\n      dup7\n        /* \"#utility.yul\":13720:13742   */\n      add\n        /* \"#utility.yul\":13702:13752   */\n      tag_454\n      jump\t// in\n    tag_623:\n        /* \"#utility.yul\":13692:13752   */\n      swap2\n      pop\n        /* \"#utility.yul\":13647:13762   */\n      pop\n        /* \"#utility.yul\":13301:13769   */\n      swap3\n      pop\n      swap3\n      swap1\n      pop\n      jump\t// out\n        /* \"#utility.yul\":13775:13892   */\n    tag_457:\n        /* \"#utility.yul\":13864:13885   */\n      tag_625\n        /* \"#utility.yul\":13879:13884   */\n      dup2\n        /* \"#utility.yul\":13864:13885   */\n      tag_452\n      jump\t// in\n    tag_625:\n        /* \"#utility.yul\":13859:13862   */\n      dup3\n        /* \"#utility.yul\":13852:13886   */\n      mstore\n        /* \"#utility.yul\":13775:13892   */\n      pop\n      pop\n      jump\t// out\n        /* \"#utility.yul\":13898:14124   */\n    tag_209:\n        /* \"#utility.yul\":13993:13997   */\n      0x00\n        /* \"#utility.yul\":14031:14033   */\n      0x20\n        /* \"#utility.yul\":14020:14029   */\n      dup3\n        /* \"#utility.yul\":14016:14034   */\n      add\n        /* \"#utility.yul\":14008:14034   */\n      swap1\n      pop\n        /* \"#utility.yul\":14044:14117   */\n      tag_627\n        /* \"#utility.yul\":14114:14115   */\n      0x00\n        /* \"#utility.yul\":14103:14112   */\n      dup4\n        /* \"#utility.yul\":14099:14116   */\n      add\n        /* \"#utility.yul\":14090:14096   */\n      dup5\n        /* \"#utility.yul\":14044:14117   */\n      tag_457\n      jump\t// in\n    tag_627:\n        /* \"#utility.yul\":13898:14124   */\n      swap3\n      swap2\n      pop\n      pop\n      jump\t// out\n        /* \"#utility.yul\":14130:14784   */\n    tag_230:\n        /* \"#utility.yul\":14208:14214   */\n      0x00\n        /* \"#utility.yul\":14216:14222   */\n      0x00\n        /* \"#utility.yul\":14265:14267   */\n      0x40\n        /* \"#utility.yul\":14253:14262   */\n      dup4\n        /* \"#utility.yul\":14244:14251   */\n      dup6\n        /* \"#utility.yul\":14240:14263   */\n      sub\n        /* \"#utility.yul\":14236:14268   */\n      slt\n        /* \"#utility.yul\":14233:14352   */\n      iszero\n      tag_629\n      jumpi\n        /* \"#utility.yul\":14271:14350   */\n      tag_630\n      tag_422\n      jump\t// in\n    tag_630:\n        /* \"#utility.yul\":14233:14352   */\n    tag_629:\n        /* \"#utility.yul\":14419:14420   */\n      0x00\n        /* \"#utility.yul\":14408:14417   */\n      dup4\n        /* \"#utility.yul\":14404:14421   */\n      add\n        /* \"#utility.yul\":14391:14422   */\n      calldataload\n        /* \"#utility.yul\":14449:14467   */\n      0xffffffffffffffff\n        /* \"#utility.yul\":14441:14447   */\n      dup2\n        /* \"#utility.yul\":14438:14468   */\n      gt\n        /* \"#utility.yul\":14435:14552   */\n      iszero\n      tag_631\n      jumpi\n        /* \"#utility.yul\":14471:14550   */\n      tag_632\n      tag_423\n      jump\t// in\n    tag_632:\n        /* \"#utility.yul\":14435:14552   */\n    tag_631:\n        /* \"#utility.yul\":14576:14639   */\n      tag_633\n        /* \"#utility.yul\":14631:14638   */\n      dup6\n        /* \"#utility.yul\":14622:14628   */\n      dup3\n        /* \"#utility.yul\":14611:14620   */\n      dup7\n        /* \"#utility.yul\":14607:14629   */\n      add\n        /* \"#utility.yul\":14576:14639   */\n      tag_444\n      jump\t// in\n    tag_633:\n        /* \"#utility.yul\":14566:14639   */\n      swap3\n      pop\n        /* \"#utility.yul\":14362:14649   */\n      pop\n        /* \"#utility.yul\":14688:14690   */\n      0x20\n        /* \"#utility.yul\":14714:14767   */\n      tag_634\n        /* \"#utility.yul\":14759:14766   */\n      dup6\n        /* \"#utility.yul\":14750:14756   */\n      dup3\n        /* \"#utility.yul\":14739:14748   */\n      dup7\n        /* \"#utility.yul\":14735:14757   */\n      add\n        /* \"#utility.yul\":14714:14767   */\n      tag_430\n      jump\t// in\n    tag_634:\n        /* \"#utility.yul\":14704:14767   */\n      swap2\n      pop\n        /* \"#utility.yul\":14659:14777   */\n      pop\n        /* \"#utility.yul\":14130:14784   */\n      swap3\n      pop\n      swap3\n      swap1\n      pop\n      jump\t// out\n        /* \"#utility.yul\":14790:15264   */\n    tag_242:\n        /* \"#utility.yul\":14858:14864   */\n      0x00\n        /* \"#utility.yul\":14866:14872   */\n      0x00\n        /* \"#utility.yul\":14915:14917   */\n      0x40\n        /* \"#utility.yul\":14903:14912   */\n      dup4\n        /* \"#utility.yul\":14894:14901   */\n      dup6\n        /* \"#utility.yul\":14890:14913   */\n      sub\n        /* \"#utility.yul\":14886:14918   */\n      slt\n        /* \"#utility.yul\":14883:15002   */\n      iszero\n      tag_636\n      jumpi\n        /* \"#utility.yul\":14921:15000   */\n      tag_637\n      tag_422\n      jump\t// in\n    tag_637:\n        /* \"#utility.yul\":14883:15002   */\n    tag_636:\n        /* \"#utility.yul\":15041:15042   */\n      0x00\n        /* \"#utility.yul\":15066:15119   */\n      tag_638\n        /* \"#utility.yul\":15111:15118   */\n      dup6\n        /* \"#utility.yul\":15102:15108   */\n      dup3\n        /* \"#utility.yul\":15091:15100   */\n      dup7\n        /* \"#utility.yul\":15087:15109   */\n      add\n        /* \"#utility.yul\":15066:15119   */\n      tag_427\n      jump\t// in\n    tag_638:\n        /* \"#utility.yul\":15056:15119   */\n      swap3\n      pop\n        /* \"#utility.yul\":15012:15129   */\n      pop\n        /* \"#utility.yul\":15168:15170   */\n      0x20\n        /* \"#utility.yul\":15194:15247   */\n      tag_639\n        /* \"#utility.yul\":15239:15246   */\n      dup6\n        /* \"#utility.yul\":15230:15236   */\n      dup3\n        /* \"#utility.yul\":15219:15228   */\n      dup7\n        /* \"#utility.yul\":15215:15237   */\n      add\n        /* \"#utility.yul\":15194:15247   */\n      tag_427\n      jump\t// in\n    tag_639:\n        /* \"#utility.yul\":15184:15247   */\n      swap2\n      pop\n        /* \"#utility.yul\":15139:15257   */\n      pop\n        /* \"#utility.yul\":14790:15264   */\n      swap3\n      pop\n      swap3\n      swap1\n      pop\n      jump\t// out\n        /* \"#utility.yul\":15270:15450   */\n    tag_458:\n        /* \"#utility.yul\":15318:15395   */\n      0x4e487b7100000000000000000000000000000000000000000000000000000000\n        /* \"#utility.yul\":15315:15316   */\n      0x00\n        /* \"#utility.yul\":15308:15396   */\n      mstore\n        /* \"#utility.yul\":15415:15419   */\n      0x22\n        /* \"#utility.yul\":15412:15413   */\n      0x04\n        /* \"#utility.yul\":15405:15420   */\n      mstore\n        /* \"#utility.yul\":15439:15443   */\n      0x24\n        /* \"#utility.yul\":15436:15437   */\n      0x00\n        /* \"#utility.yul\":15429:15444   */\n      revert\n        /* \"#utility.yul\":15456:15776   */\n    tag_252:\n        /* \"#utility.yul\":15500:15506   */\n      0x00\n        /* \"#utility.yul\":15537:15538   */\n      0x02\n        /* \"#utility.yul\":15531:15535   */\n      dup3\n        /* \"#utility.yul\":15527:15539   */\n      div\n        /* \"#utility.yul\":15517:15539   */\n      swap1\n      pop\n        /* \"#utility.yul\":15584:15585   */\n      0x01\n        /* \"#utility.yul\":15578:15582   */\n      dup3\n        /* \"#utility.yul\":15574:15586   */\n      and\n        /* \"#utility.yul\":15605:15623   */\n      dup1\n        /* \"#utility.yul\":15595:15676   */\n      tag_642\n      jumpi\n        /* \"#utility.yul\":15661:15665   */\n      0x7f\n        /* \"#utility.yul\":15653:15659   */\n      dup3\n        /* \"#utility.yul\":15649:15666   */\n      and\n        /* \"#utility.yul\":15639:15666   */\n      swap2\n      pop\n        /* \"#utility.yul\":15595:15676   */\n    tag_642:\n        /* \"#utility.yul\":15723:15725   */\n      0x20\n        /* \"#utility.yul\":15715:15721   */\n      dup3\n        /* \"#utility.yul\":15712:15726   */\n      lt\n        /* \"#utility.yul\":15692:15710   */\n      dup2\n        /* \"#utility.yul\":15689:15727   */\n      sub\n        /* \"#utility.yul\":15686:15770   */\n      tag_643\n      jumpi\n        /* \"#utility.yul\":15742:15760   */\n      tag_644\n      tag_458\n      jump\t// in\n    tag_644:\n        /* \"#utility.yul\":15686:15770   */\n    tag_643:\n        /* \"#utility.yul\":15507:15776   */\n      pop\n        /* \"#utility.yul\":15456:15776   */\n      swap2\n      swap1\n      pop\n      jump\t// out\n        /* \"#utility.yul\":15782:15962   */\n    tag_459:\n        /* \"#utility.yul\":15830:15907   */\n      0x4e487b7100000000000000000000000000000000000000000000000000000000\n        /* \"#utility.yul\":15827:15828   */\n      0x00\n        /* \"#utility.yul\":15820:15908   */\n      mstore\n        /* \"#utility.yul\":15927:15931   */\n      0x11\n        /* \"#utility.yul\":15924:15925   */\n      0x04\n        /* \"#utility.yul\":15917:15932   */\n      mstore\n        /* \"#utility.yul\":15951:15955   */\n      0x24\n        /* \"#utility.yul\":15948:15949   */\n      0x00\n        /* \"#utility.yul\":15941:15956   */\n      revert\n        /* \"#utility.yul\":15968:16162   */\n    tag_276:\n        /* \"#utility.yul\":16008:16012   */\n      0x00\n        /* \"#utility.yul\":16028:16048   */\n      tag_647\n        /* \"#utility.yul\":16046:16047   */\n      dup3\n        /* \"#utility.yul\":16028:16048   */\n      tag_428\n      jump\t// in\n    tag_647:\n        /* \"#utility.yul\":16023:16048   */\n      swap2\n      pop\n        /* \"#utility.yul\":16062:16082   */\n      tag_648\n        /* \"#utility.yul\":16080:16081   */\n      dup4\n        /* \"#utility.yul\":16062:16082   */\n      tag_428\n      jump\t// in\n    tag_648:\n        /* \"#utility.yul\":16057:16082   */\n      swap3\n      pop\n        /* \"#utility.yul\":16106:16107   */\n      dup3\n        /* \"#utility.yul\":16103:16104   */\n      dup3\n        /* \"#utility.yul\":16099:16108   */\n      sub\n        /* \"#utility.yul\":16091:16108   */\n      swap1\n      pop\n        /* \"#utility.yul\":16130:16131   */\n      dup2\n        /* \"#utility.yul\":16124:16128   */\n      dup2\n        /* \"#utility.yul\":16121:16132   */\n      gt\n        /* \"#utility.yul\":16118:16155   */\n      iszero\n      tag_649\n      jumpi\n        /* \"#utility.yul\":16135:16153   */\n      tag_650\n      tag_459\n      jump\t// in\n    tag_650:\n        /* \"#utility.yul\":16118:16155   */\n    tag_649:\n        /* \"#utility.yul\":15968:16162   */\n      swap3\n      swap2\n      pop\n      pop\n      jump\t// out\n        /* \"#utility.yul\":16168:16348   */\n    tag_295:\n        /* \"#utility.yul\":16216:16293   */\n      0x4e487b7100000000000000000000000000000000000000000000000000000000\n        /* \"#utility.yul\":16213:16214   */\n      0x00\n        /* \"#utility.yul\":16206:16294   */\n      mstore\n        /* \"#utility.yul\":16313:16317   */\n      0x32\n        /* \"#utility.yul\":16310:16311   */\n      0x04\n        /* \"#utility.yul\":16303:16318   */\n      mstore\n        /* \"#utility.yul\":16337:16341   */\n      0x24\n        /* \"#utility.yul\":16334:16335   */\n      0x00\n        /* \"#utility.yul\":16327:16342   */\n      revert\n        /* \"#utility.yul\":16354:16534   */\n    tag_306:\n        /* \"#utility.yul\":16402:16479   */\n      0x4e487b7100000000000000000000000000000000000000000000000000000000\n        /* \"#utility.yul\":16399:16400   */\n      0x00\n        /* \"#utility.yul\":16392:16480   */\n      mstore\n        /* \"#utility.yul\":16499:16503   */\n      0x31\n        /* \"#utility.yul\":16496:16497   */\n      0x04\n        /* \"#utility.yul\":16489:16504   */\n      mstore\n        /* \"#utility.yul\":16523:16527   */\n      0x24\n        /* \"#utility.yul\":16520:16521   */\n      0x00\n        /* \"#utility.yul\":16513:16528   */\n      revert\n        /* \"#utility.yul\":16540:16681   */\n    tag_460:\n        /* \"#utility.yul\":16589:16593   */\n      0x00\n        /* \"#utility.yul\":16612:16615   */\n      dup2\n        /* \"#utility.yul\":16604:16615   */\n      swap1\n      pop\n        /* \"#utility.yul\":16635:16638   */\n      dup2\n        /* \"#utility.yul\":16632:16633   */\n      0x00\n        /* \"#utility.yul\":16625:16639   */\n      mstore\n        /* \"#utility.yul\":16669:16673   */\n      0x20\n        /* \"#utility.yul\":16666:16667   */\n      0x00\n        /* \"#utility.yul\":16656:16674   */\n      keccak256\n        /* \"#utility.yul\":16648:16674   */\n      swap1\n      pop\n        /* \"#utility.yul\":16540:16681   */\n      swap2\n      swap1\n      pop\n      jump\t// out\n        /* \"#utility.yul\":16687:16780   */\n    tag_461:\n        /* \"#utility.yul\":16724:16730   */\n      0x00\n        /* \"#utility.yul\":16771:16773   */\n      0x20\n        /* \"#utility.yul\":16766:16768   */\n      0x1f\n        /* \"#utility.yul\":16759:16764   */\n      dup4\n        /* \"#utility.yul\":16755:16769   */\n      add\n        /* \"#utility.yul\":16751:16774   */\n      div\n        /* \"#utility.yul\":16741:16774   */\n      swap1\n      pop\n        /* \"#utility.yul\":16687:16780   */\n      swap2\n      swap1\n      pop\n      jump\t// out\n        /* \"#utility.yul\":16786:16893   */\n    tag_462:\n        /* \"#utility.yul\":16830:16838   */\n      0x00\n        /* \"#utility.yul\":16880:16885   */\n      dup3\n        /* \"#utility.yul\":16874:16878   */\n      dup3\n        /* \"#utility.yul\":16870:16886   */\n      shl\n        /* \"#utility.yul\":16849:16886   */\n      swap1\n      pop\n        /* \"#utility.yul\":16786:16893   */\n      swap3\n      swap2\n      pop\n      pop\n      jump\t// out\n        /* \"#utility.yul\":16899:17292   */\n    tag_463:\n        /* \"#utility.yul\":16968:16974   */\n      0x00\n        /* \"#utility.yul\":17018:17019   */\n      0x08\n        /* \"#utility.yul\":17006:17016   */\n      dup4\n        /* \"#utility.yul\":17002:17020   */\n      mul\n        /* \"#utility.yul\":17041:17138   */\n      tag_657\n        /* \"#utility.yul\":17071:17137   */\n      0xffffffffffffffffffffffffffffffffffffffffffffffffffffffffffffffff\n        /* \"#utility.yul\":17060:17069   */\n      dup3\n        /* \"#utility.yul\":17041:17138   */\n      tag_462\n      jump\t// in\n    tag_657:\n        /* \"#utility.yul\":17159:17198   */\n      tag_658\n        /* \"#utility.yul\":17189:17197   */\n      dup7\n        /* \"#utility.yul\":17178:17187   */\n      dup4\n        /* \"#utility.yul\":17159:17198   */\n      tag_462\n      jump\t// in\n    tag_658:\n        /* \"#utility.yul\":17147:17198   */\n      swap6\n      pop\n        /* \"#utility.yul\":17231:17235   */\n      dup1\n        /* \"#utility.yul\":17227:17236   */\n      not\n        /* \"#utility.yul\":17220:17225   */\n      dup5\n        /* \"#utility.yul\":17216:17237   */\n      and\n        /* \"#utility.yul\":17207:17237   */\n      swap4\n      pop\n        /* \"#utility.yul\":17280:17284   */\n      dup1\n        /* \"#utility.yul\":17270:17278   */\n      dup7\n        /* \"#utility.yul\":17266:17285   */\n      and\n        /* \"#utility.yul\":17259:17264   */\n      dup5\n        /* \"#utility.yul\":17256:17286   */\n      or\n        /* \"#utility.yul\":17246:17286   */\n      swap3\n      pop\n        /* \"#utility.yul\":16975:17292   */\n      pop\n      pop\n        /* \"#utility.yul\":16899:17292   */\n      swap4\n      swap3\n      pop\n      pop\n      pop\n      jump\t// out\n        /* \"#utility.yul\":17298:17358   */\n    tag_464:\n        /* \"#utility.yul\":17326:17329   */\n      0x00\n        /* \"#utility.yul\":17347:17352   */\n      dup2\n        /* \"#utility.yul\":17340:17352   */\n      swap1\n      pop\n        /* \"#utility.yul\":17298:17358   */\n      swap2\n      swap1\n      pop\n      jump\t// out\n        /* \"#utility.yul\":17364:17506   */\n    tag_465:\n        /* \"#utility.yul\":17414:17423   */\n      0x00\n        /* \"#utility.yul\":17447:17500   */\n      tag_661\n        /* \"#utility.yul\":17465:17499   */\n      tag_662\n        /* \"#utility.yul\":17474:17498   */\n      tag_663\n        /* \"#utility.yul\":17492:17497   */\n      dup5\n        /* \"#utility.yul\":17474:17498   */\n      tag_428\n      jump\t// in\n    tag_663:\n        /* \"#utility.yul\":17465:17499   */\n      tag_464\n      jump\t// in\n    tag_662:\n        /* \"#utility.yul\":17447:17500   */\n      tag_428\n      jump\t// in\n    tag_661:\n        /* \"#utility.yul\":17434:17500   */\n      swap1\n      pop\n        /* \"#utility.yul\":17364:17506   */\n      swap2\n      swap1\n      pop\n      jump\t// out\n        /* \"#utility.yul\":17512:17587   */\n    tag_466:\n        /* \"#utility.yul\":17555:17558   */\n      0x00\n        /* \"#utility.yul\":17576:17581   */\n      dup2\n        /* \"#utility.yul\":17569:17581   */\n      swap1\n      pop\n        /* \"#utility.yul\":17512:17587   */\n      swap2\n      swap1\n      pop\n      jump\t// out\n        /* \"#utility.yul\":17593:17862   */\n    tag_467:\n        /* \"#utility.yul\":17703:17742   */\n      tag_666\n        /* \"#utility.yul\":17734:17741   */\n      dup4\n        /* \"#utility.yul\":17703:17742   */\n      tag_465\n      jump\t// in\n    tag_666:\n        /* \"#utility.yul\":17764:17855   */\n      tag_667\n        /* \"#utility.yul\":17813:17854   */\n      tag_668\n        /* \"#utility.yul\":17837:17853   */\n      dup3\n        /* \"#utility.yul\":17813:17854   */\n      tag_466\n      jump\t// in\n    tag_668:\n        /* \"#utility.yul\":17805:17811   */\n      dup5\n        /* \"#utility.yul\":17798:17802   */\n      dup5\n        /* \"#utility.yul\":17792:17803   */\n      sload\n        /* \"#utility.yul\":17764:17855   */\n      tag_463\n      jump\t// in\n    tag_667:\n        /* \"#utility.yul\":17758:17762   */\n      dup3\n        /* \"#utility.yul\":17751:17856   */\n      sstore\n        /* \"#utility.yul\":17669:17862   */\n      pop\n        /* \"#utility.yul\":17593:17862   */\n      pop\n      pop\n      pop\n      jump\t// out\n        /* \"#utility.yul\":17868:17941   */\n    tag_468:\n        /* \"#utility.yul\":17913:17916   */\n      0x00\n        /* \"#utility.yul\":17934:17935   */\n      0x00\n        /* \"#utility.yul\":17927:17935   */\n      swap1\n      pop\n        /* \"#utility.yul\":17868:17941   */\n      swap1\n      jump\t// out\n        /* \"#utility.yul\":17947:18136   */\n    tag_469:\n        /* \"#utility.yul\":18024:18056   */\n      tag_671\n      tag_468\n      jump\t// in\n    tag_671:\n        /* \"#utility.yul\":18065:18130   */\n      tag_672\n        /* \"#utility.yul\":18123:18129   */\n      dup2\n        /* \"#utility.yul\":18115:18121   */\n      dup5\n        /* \"#utility.yul\":18109:18113   */\n      dup5\n        /* \"#utility.yul\":18065:18130   */\n      tag_467\n      jump\t// in\n    tag_672:\n        /* \"#utility.yul\":18000:18136   */\n      pop\n        /* \"#utility.yul\":17947:18136   */\n      pop\n      pop\n      jump\t// out\n        /* \"#utility.yul\":18142:18328   */\n    tag_470:\n        /* \"#utility.yul\":18202:18322   */\n    tag_674:\n        /* \"#utility.yul\":18219:18222   */\n      dup2\n        /* \"#utility.yul\":18212:18217   */\n      dup2\n        /* \"#utility.yul\":18209:18223   */\n      lt\n        /* \"#utility.yul\":18202:18322   */\n      iszero\n      tag_676\n      jumpi\n        /* \"#utility.yul\":18273:18312   */\n      tag_677\n        /* \"#utility.yul\":18310:18311   */\n      0x00\n        /* \"#utility.yul\":18303:18308   */\n      dup3\n        /* \"#utility.yul\":18273:18312   */\n      tag_469\n      jump\t// in\n    tag_677:\n        /* \"#utility.yul\":18246:18247   */\n      0x01\n        /* \"#utility.yul\":18239:18244   */\n      dup2\n        /* \"#utility.yul\":18235:18248   */\n      add\n        /* \"#utility.yul\":18226:18248   */\n      swap1\n      pop\n        /* \"#utility.yul\":18202:18322   */\n      jump(tag_674)\n    tag_676:\n        /* \"#utility.yul\":18142:18328   */\n      pop\n      pop\n      jump\t// out\n        /* \"#utility.yul\":18334:18877   */\n    tag_471:\n        /* \"#utility.yul\":18435:18437   */\n      0x1f\n        /* \"#utility.yul\":18430:18433   */\n      dup3\n        /* \"#utility.yul\":18427:18438   */\n      gt\n        /* \"#utility.yul\":18424:18870   */\n      iszero\n      tag_679\n      jumpi\n        /* \"#utility.yul\":18469:18507   */\n      tag_680\n        /* \"#utility.yul\":18501:18506   */\n      dup2\n        /* \"#utility.yul\":18469:18507   */\n      tag_460\n      jump\t// in\n    tag_680:\n        /* \"#utility.yul\":18553:18582   */\n      tag_681\n        /* \"#utility.yul\":18571:18581   */\n      dup5\n        /* \"#utility.yul\":18553:18582   */\n      tag_461\n      jump\t// in\n    tag_681:\n        /* \"#utility.yul\":18543:18551   */\n      dup2\n        /* \"#utility.yul\":18539:18583   */\n      add\n        /* \"#utility.yul\":18736:18738   */\n      0x20\n        /* \"#utility.yul\":18724:18734   */\n      dup6\n        /* \"#utility.yul\":18721:18739   */\n      lt\n        /* \"#utility.yul\":18718:18767   */\n      iszero\n      tag_682\n      jumpi\n        /* \"#utility.yul\":18757:18765   */\n      dup2\n        /* \"#utility.yul\":18742:18765   */\n      swap1\n      pop\n        /* \"#utility.yul\":18718:18767   */\n    tag_682:\n        /* \"#utility.yul\":18780:18860   */\n      tag_683\n        /* \"#utility.yul\":18836:18858   */\n      tag_684\n        /* \"#utility.yul\":18854:18857   */\n      dup6\n        /* \"#utility.yul\":18836:18858   */\n      tag_461\n      jump\t// in\n    tag_684:\n        /* \"#utility.yul\":18826:18834   */\n      dup4\n        /* \"#utility.yul\":18822:18859   */\n      add\n        /* \"#utility.yul\":18809:18820   */\n      dup3\n        /* \"#utility.yul\":18780:18860   */\n      tag_470\n      jump\t// in\n    tag_683:\n        /* \"#utility.yul\":18439:18870   */\n      pop\n      pop\n        /* \"#utility.yul\":18424:18870   */\n    tag_679:\n        /* \"#utility.yul\":18334:18877   */\n      pop\n      pop\n      pop\n      jump\t// out\n        /* \"#utility.yul\":18883:19000   */\n    tag_472:\n        /* \"#utility.yul\":18937:18945   */\n      0x00\n        /* \"#utility.yul\":18987:18992   */\n      dup3\n        /* \"#utility.yul\":18981:18985   */\n      dup3\n        /* \"#utility.yul\":18977:18993   */\n      shr\n        /* \"#utility.yul\":18956:18993   */\n      swap1\n      pop\n        /* \"#utility.yul\":18883:19000   */\n      swap3\n      swap2\n      pop\n      pop\n      jump\t// out\n        /* \"#utility.yul\":19006:19175   */\n    tag_473:\n        /* \"#utility.yul\":19050:19056   */\n      0x00\n        /* \"#utility.yul\":19083:19134   */\n      tag_687\n        /* \"#utility.yul\":19131:19132   */\n      0x00\n        /* \"#utility.yul\":19127:19133   */\n      not\n        /* \"#utility.yul\":19119:19124   */\n      dup5\n        /* \"#utility.yul\":19116:19117   */\n      0x08\n        /* \"#utility.yul\":19112:19125   */\n      mul\n        /* \"#utility.yul\":19083:19134   */\n      tag_472\n      jump\t// in\n    tag_687:\n        /* \"#utility.yul\":19079:19135   */\n      not\n        /* \"#utility.yul\":19164:19168   */\n      dup1\n        /* \"#utility.yul\":19158:19162   */\n      dup4\n        /* \"#utility.yul\":19154:19169   */\n      and\n        /* \"#utility.yul\":19144:19169   */\n      swap2\n      pop\n        /* \"#utility.yul\":19057:19175   */\n      pop\n        /* \"#utility.yul\":19006:19175   */\n      swap3\n      swap2\n      pop\n      pop\n      jump\t// out\n        /* \"#utility.yul\":19180:19475   */\n    tag_474:\n        /* \"#utility.yul\":19256:19260   */\n      0x00\n        /* \"#utility.yul\":19402:19431   */\n      tag_689\n        /* \"#utility.yul\":19427:19430   */\n      dup4\n        /* \"#utility.yul\":19421:19425   */\n      dup4\n        /* \"#utility.yul\":19402:19431   */\n      tag_473\n      jump\t// in\n    tag_689:\n        /* \"#utility.yul\":19394:19431   */\n      swap2\n      pop\n        /* \"#utility.yul\":19464:19467   */\n      dup3\n        /* \"#utility.yul\":19461:19462   */\n      0x02\n        /* \"#utility.yul\":19457:19468   */\n      mul\n        /* \"#utility.yul\":19451:19455   */\n      dup3\n        /* \"#utility.yul\":19448:19469   */\n      or\n        /* \"#utility.yul\":19440:19469   */\n      swap1\n      pop\n        /* \"#utility.yul\":19180:19475   */\n      swap3\n      swap2\n      pop\n      pop\n      jump\t// out\n        /* \"#utility.yul\":19480:20875   */\n    tag_311:\n        /* \"#utility.yul\":19597:19634   */\n      tag_691\n        /* \"#utility.yul\":19630:19633   */\n      dup3\n        /* \"#utility.yul\":19597:19634   */\n      tag_416\n      jump\t// in\n    tag_691:\n        /* \"#utility.yul\":19699:19717   */\n      0xffffffffffffffff\n        /* \"#utility.yul\":19691:19697   */\n      dup2\n        /* \"#utility.yul\":19688:19718   */\n      gt\n        /* \"#utility.yul\":19685:19741   */\n      iszero\n      tag_692\n      jumpi\n        /* \"#utility.yul\":19721:19739   */\n      tag_693\n      tag_438\n      jump\t// in\n    tag_693:\n        /* \"#utility.yul\":19685:19741   */\n    tag_692:\n        /* \"#utility.yul\":19765:19803   */\n      tag_694\n        /* \"#utility.yul\":19797:19801   */\n      dup3\n        /* \"#utility.yul\":19791:19802   */\n      sload\n        /* \"#utility.yul\":19765:19803   */\n      tag_252\n      jump\t// in\n    tag_694:\n        /* \"#utility.yul\":19850:19917   */\n      tag_695\n        /* \"#utility.yul\":19910:19916   */\n      dup3\n        /* \"#utility.yul\":19902:19908   */\n      dup3\n        /* \"#utility.yul\":19896:19900   */\n      dup6\n        /* \"#utility.yul\":19850:19917   */\n      tag_471\n      jump\t// in\n    tag_695:\n        /* \"#utility.yul\":19944:19945   */\n      0x00\n        /* \"#utility.yul\":19968:19972   */\n      0x20\n        /* \"#utility.yul\":19955:19972   */\n      swap1\n      pop\n        /* \"#utility.yul\":20000:20002   */\n      0x1f\n        /* \"#utility.yul\":19992:19998   */\n      dup4\n        /* \"#utility.yul\":19989:20003   */\n      gt\n        /* \"#utility.yul\":20017:20018   */\n      0x01\n        /* \"#utility.yul\":20012:20630   */\n      dup2\n      eq\n      tag_697\n      jumpi\n        /* \"#utility.yul\":20674:20675   */\n      0x00\n        /* \"#utility.yul\":20691:20697   */\n      dup5\n        /* \"#utility.yul\":20688:20765   */\n      iszero\n      tag_698\n      jumpi\n        /* \"#utility.yul\":20740:20749   */\n      dup3\n        /* \"#utility.yul\":20735:20738   */\n      dup8\n        /* \"#utility.yul\":20731:20750   */\n      add\n        /* \"#utility.yul\":20725:20751   */\n      mload\n        /* \"#utility.yul\":20716:20751   */\n      swap1\n      pop\n        /* \"#utility.yul\":20688:20765   */\n    tag_698:\n        /* \"#utility.yul\":20791:20858   */\n      tag_699\n        /* \"#utility.yul\":20851:20857   */\n      dup6\n        /* \"#utility.yul\":20844:20849   */\n      dup3\n        /* \"#utility.yul\":20791:20858   */\n      tag_474\n      jump\t// in\n    tag_699:\n        /* \"#utility.yul\":20785:20789   */\n      dup7\n        /* \"#utility.yul\":20778:20859   */\n      sstore\n        /* \"#utility.yul\":20647:20869   */\n      pop\n        /* \"#utility.yul\":19982:20869   */\n      jump(tag_696)\n        /* \"#utility.yul\":20012:20630   */\n    tag_697:\n        /* \"#utility.yul\":20064:20068   */\n      0x1f\n        /* \"#utility.yul\":20060:20069   */\n      not\n        /* \"#utility.yul\":20052:20058   */\n      dup5\n        /* \"#utility.yul\":20048:20070   */\n      and\n        /* \"#utility.yul\":20098:20135   */\n      tag_700\n        /* \"#utility.yul\":20130:20134   */\n      dup7\n        /* \"#utility.yul\":20098:20135   */\n      tag_460\n      jump\t// in\n    tag_700:\n        /* \"#utility.yul\":20157:20158   */\n      0x00\n        /* \"#utility.yul\":20171:20379   */\n    tag_701:\n        /* \"#utility.yul\":20185:20192   */\n      dup3\n        /* \"#utility.yul\":20182:20183   */\n      dup2\n        /* \"#utility.yul\":20179:20193   */\n      lt\n        /* \"#utility.yul\":20171:20379   */\n      iszero\n      tag_703\n      jumpi\n        /* \"#utility.yul\":20264:20273   */\n      dup5\n        /* \"#utility.yul\":20259:20262   */\n      dup10\n        /* \"#utility.yul\":20255:20274   */\n      add\n        /* \"#utility.yul\":20249:20275   */\n      mload\n        /* \"#utility.yul\":20241:20247   */\n      dup3\n        /* \"#utility.yul\":20234:20276   */\n      sstore\n        /* \"#utility.yul\":20315:20316   */\n      0x01\n        /* \"#utility.yul\":20307:20313   */\n      dup3\n        /* \"#utility.yul\":20303:20317   */\n      add\n        /* \"#utility.yul\":20293:20317   */\n      swap2\n      pop\n        /* \"#utility.yul\":20362:20364   */\n      0x20\n        /* \"#utility.yul\":20351:20360   */\n      dup6\n        /* \"#utility.yul\":20347:20365   */\n      add\n        /* \"#utility.yul\":20334:20365   */\n      swap5\n      pop\n        /* \"#utility.yul\":20208:20212   */\n      0x20\n        /* \"#utility.yul\":20205:20206   */\n      dup2\n        /* \"#utility.yul\":20201:20213   */\n      add\n        /* \"#utility.yul\":20196:20213   */\n      swap1\n      pop\n        /* \"#utility.yul\":20171:20379   */\n      jump(tag_701)\n    tag_703:\n        /* \"#utility.yul\":20407:20413   */\n      dup7\n        /* \"#utility.yul\":20398:20405   */\n      dup4\n        /* \"#utility.yul\":20395:20414   */\n      lt\n        /* \"#utility.yul\":20392:20571   */\n      iszero\n      tag_704\n      jumpi\n        /* \"#utility.yul\":20465:20474   */\n      dup5\n        /* \"#utility.yul\":20460:20463   */\n      dup10\n        /* \"#utility.yul\":20456:20475   */\n      add\n        /* \"#utility.yul\":20450:20476   */\n      mload\n        /* \"#utility.yul\":20508:20556   */\n      tag_705\n        /* \"#utility.yul\":20550:20554   */\n      0x1f\n        /* \"#utility.yul\":20542:20548   */\n      dup10\n        /* \"#utility.yul\":20538:20555   */\n      and\n        /* \"#utility.yul\":20527:20536   */\n      dup3\n        /* \"#utility.yul\":20508:20556   */\n      tag_473\n      jump\t// in\n    tag_705:\n        /* \"#utility.yul\":20500:20506   */\n      dup4\n        /* \"#utility.yul\":20493:20557   */\n      sstore\n        /* \"#utility.yul\":20415:20571   */\n      pop\n        /* \"#utility.yul\":20392:20571   */\n    tag_704:\n        /* \"#utility.yul\":20617:20618   */\n      0x01\n        /* \"#utility.yul\":20613:20614   */\n      0x02\n        /* \"#utility.yul\":20605:20611   */\n      dup9\n        /* \"#utility.yul\":20601:20615   */\n      mul\n        /* \"#utility.yul\":20597:20619   */\n      add\n        /* \"#utility.yul\":20591:20595   */\n      dup9\n        /* \"#utility.yul\":20584:20620   */\n      sstore\n        /* \"#utility.yul\":20019:20630   */\n      pop\n      pop\n      pop\n        /* \"#utility.yul\":19982:20869   */\n    tag_696:\n      pop\n        /* \"#utility.yul\":19572:20875   */\n      pop\n      pop\n      pop\n        /* \"#utility.yul\":19480:20875   */\n      pop\n      pop\n      jump\t// out\n        /* \"#utility.yul\":20881:21072   */\n    tag_340:\n        /* \"#utility.yul\":20921:20924   */\n      0x00\n        /* \"#utility.yul\":20940:20960   */\n      tag_707\n        /* \"#utility.yul\":20958:20959   */\n      dup3\n        /* \"#utility.yul\":20940:20960   */\n      tag_428\n      jump\t// in\n    tag_707:\n        /* \"#utility.yul\":20935:20960   */\n      swap2\n      pop\n        /* \"#utility.yul\":20974:20994   */\n      tag_708\n        /* \"#utility.yul\":20992:20993   */\n      dup4\n        /* \"#utility.yul\":20974:20994   */\n      tag_428\n      jump\t// in\n    tag_708:\n        /* \"#utility.yul\":20969:20994   */\n      swap3\n      pop\n        /* \"#utility.yul\":21017:21018   */\n      dup3\n        /* \"#utility.yul\":21014:21015   */\n      dup3\n        /* \"#utility.yul\":21010:21019   */\n      add\n        /* \"#utility.yul\":21003:21019   */\n      swap1\n      pop\n        /* \"#utility.yul\":21038:21041   */\n      dup1\n        /* \"#utility.yul\":21035:21036   */\n      dup3\n        /* \"#utility.yul\":21032:21042   */\n      gt\n        /* \"#utility.yul\":21029:21065   */\n      iszero\n      tag_709\n      jumpi\n        /* \"#utility.yul\":21045:21063   */\n      tag_710\n      tag_459\n      jump\t// in\n    tag_710:\n        /* \"#utility.yul\":21029:21065   */\n    tag_709:\n        /* \"#utility.yul\":20881:21072   */\n      swap3\n      swap2\n      pop\n      pop\n      jump\t// out\n\n    auxdata: 0xa26469706673582212203388cecae807510c559b23a44a077096bed1fa2cf526791f20ba48989866bd0764736f6c634300081e0033\n}\n",
				"bytecode": {
					"linkReferences": {},
					"object": "6132e961004d600b8282823980515f1a6073146041577f4e487b71000000000000000000000000000000000000000000000000000000005f525f60045260245ffd5b305f52607381538281f3fe730000000000000000000000000000000000000000301460806040526004361061029e575f3560e01c8063821abc2d11610170578063b0d4ce25116100d7578063ddca3f4311610090578063ddca3f43146108ba578063dec84db1146108d8578063e149f03614610900578063e68fdee114610930578063edc3bc3f14610958578063f589b754146109885761029e565b8063b0d4ce25146107d6578063b62d8b91146107fe578063d01251521461082e578063d20b6ee714610856578063d547cfb714610874578063dbe0b21c146108925761029e565b8063963bfe1211610129578063963bfe12146106f257806398995f7714610710578063a05cc5591461072e578063a330117314610756578063a7cc01361461077e578063ad715f2e146107ae5761029e565b8063821abc2d14610616578063830d40911461063e578063854f9db9146106665780638fca4dbe1461068e5780639451c99a146106b657806395d89b41146106d45761029e565b806339b37ab0116102145780634f4979ed116101cd5780634f4979ed146105325780635b43bc991461055a5780636c8b703f146105825780636ff97f1d146105b257806374e24367146105d0578063810536ec146106005761029e565b806339b37ab01461044457806340e02f5c1461046c57806341bb05591461049457806344faf255146104bc57806347f69eba146104da57806349a0a50e1461050a5761029e565b8063247c6ce011610266578063247c6ce01461035e57806331413efc1461038657806332b07b43146103ae57806333171809146103d6578063345e7b28146103f45780633802497b1461041c5761029e565b806306fdde03146102a2578063071bc71c146102c057806313c19ff6146102e857806319f862001461031057806321b0ed7d1461032e575b5f5ffd5b6102aa6109a6565b6040516102b7919061281f565b60405180910390f35b8180156102cb575f5ffd5b506102e660048036038101906102e191906128dd565b610a7c565b005b8180156102f3575f5ffd5b5061030e6004803603810190610309919061292d565b610d5e565b005b610318610df9565b6040516103259190612983565b60405180910390f35b6103486004803603810190610343919061299c565b610e48565b60405161035591906129d6565b60405180910390f35b818015610369575f5ffd5b50610384600480360381019061037f9190612a19565b610ed4565b005b818015610391575f5ffd5b506103ac60048036038101906103a7919061299c565b610f24565b005b8180156103b9575f5ffd5b506103d460048036038101906103cf9190612a44565b61103e565b005b6103de61108e565b6040516103eb9190612983565b60405180910390f35b8180156103ff575f5ffd5b5061041a60048036038101906104159190612a44565b6110dd565b005b818015610427575f5ffd5b50610442600480360381019061043d9190612a19565b61112d565b005b81801561044f575f5ffd5b5061046a60048036038101906104659190612a44565b61117d565b005b818015610477575f5ffd5b50610492600480360381019061048d9190612a44565b6111cd565b005b81801561049f575f5ffd5b506104ba60048036038101906104b59190612b9b565b611477565b005b6104c46114d0565b6040516104d191906129d6565b60405180910390f35b6104f460048036038101906104ef9190612a44565b61151f565b60405161050191906129d6565b60405180910390f35b818015610515575f5ffd5b50610530600480360381019061052b91906128dd565b61157f565b005b81801561053d575f5ffd5b50610558600480360381019061055391906128dd565b61161b565b005b818015610565575f5ffd5b50610580600480360381019061057b9190612b9b565b611713565b005b61059c60048036038101906105979190612a44565b61176c565b6040516105a9919061281f565b60405180910390f35b6105ba611853565b6040516105c79190612c99565b60405180910390f35b6105ea60048036038101906105e59190612a44565b6118ef565b6040516105f791906129d6565b60405180910390f35b81801561060b575f5ffd5b5061061461194f565b005b818015610621575f5ffd5b5061063c60048036038101906106379190612b9b565b6119f7565b005b818015610649575f5ffd5b50610664600480360381019061065f9190612cee565b611a50565b005b818015610671575f5ffd5b5061068c60048036038101906106879190612a19565b611b2a565b005b818015610699575f5ffd5b506106b460048036038101906106af9190612a44565b611b7a565b005b6106be611bca565b6040516106cb91906129d6565b60405180910390f35b6106dc611c19565b6040516106e9919061281f565b60405180910390f35b6106fa611cef565b604051610707919061281f565b60405180910390f35b610718611dc5565b60405161072591906129d6565b60405180910390f35b818015610739575f5ffd5b50610754600480360381019061074f9190612b9b565b611e14565b005b818015610761575f5ffd5b5061077c60048036038101906107779190612d3e565b611e6c565b005b61079860048036038101906107939190612a44565b611ef8565b6040516107a59190612da5565b60405180910390f35b8180156107b9575f5ffd5b506107d460048036038101906107cf9190612dbe565b611fbd565b005b8180156107e1575f5ffd5b506107fc60048036038101906107f79190612dfc565b61201d565b005b6108186004803603810190610813919061299c565b6120bb565b6040516108259190612e49565b60405180910390f35b818015610839575f5ffd5b50610854600480360381019061084f919061299c565b612153565b005b61085e61226d565b60405161086b91906129d6565b60405180910390f35b61087c6122bc565b604051610889919061281f565b60405180910390f35b81801561089d575f5ffd5b506108b860048036038101906108b39190612a44565b612391565b005b6108c26124a7565b6040516108cf91906129d6565b60405180910390f35b8180156108e3575f5ffd5b506108fe60048036038101906108f99190612e62565b6124f6565b005b61091a60048036038101906109159190612d3e565b61255f565b60405161092791906129d6565b60405180910390f35b81801561093b575f5ffd5b5061095660048036038101906109519190612dbe565b6125fb565b005b610972600480360381019061096d9190612ebc565b61265b565b60405161097f9190612e49565b60405180910390f35b61099061272f565b60405161099d9190612983565b60405180910390f35b60606109ed6040518060400160405280600c81526020017f534d456c6567656e6461727900000000000000000000000000000000000000008152508051906020012061277e565b600e0180546109fb90612f27565b80601f0160208091040260200160405190810160405280929190818152602001828054610a2790612f27565b8015610a725780601f10610a4957610100808354040283529160200191610a72565b820191905f5260205f20905b815481529060010190602001808311610a5557829003601f168201915b5050505050905090565b5f610ac26040518060400160405280600c81526020017f534d456c6567656e6461727900000000000000000000000000000000000000008152508051906020012061277e565b6004015f8481526020019081526020015f20549050818114610c69575f610b246040518060400160405280600c81526020017f534d456c6567656e6461727900000000000000000000000000000000000000008152508051906020012061277e565b6003015f8673ffffffffffffffffffffffffffffffffffffffff1673ffffffffffffffffffffffffffffffffffffffff1681526020019081526020015f205f8481526020019081526020015f2054905080610bba6040518060400160405280600c81526020017f534d456c6567656e6461727900000000000000000000000000000000000000008152508051906020012061277e565b6003015f8773ffffffffffffffffffffffffffffffffffffffff1673ffffffffffffffffffffffffffffffffffffffff1681526020019081526020015f205f8481526020019081526020015f208190555081610c516040518060400160405280600c81526020017f534d456c6567656e6461727900000000000000000000000000000000000000008152508051906020012061277e565b6004015f8381526020019081526020015f2081905550505b610cae6040518060400160405280600c81526020017f534d456c6567656e6461727900000000000000000000000000000000000000008152508051906020012061277e565b6004015f8481526020019081526020015f205f9055610d086040518060400160405280600c81526020017f534d456c6567656e6461727900000000000000000000000000000000000000008152508051906020012061277e565b6003015f8573ffffffffffffffffffffffffffffffffffffffff1673ffffffffffffffffffffffffffffffffffffffff1681526020019081526020015f205f8381526020019081526020015f205f905550505050565b80610da46040518060400160405280600c81526020017f534d456c6567656e6461727900000000000000000000000000000000000000008152508051906020012061277e565b6012015f8481526020019081526020015f205f015f6101000a81548173ffffffffffffffffffffffffffffffffffffffff021916908373ffffffffffffffffffffffffffffffffffffffff1602179055505050565b5f610e3f6040518060400160405280600c81526020017f534d456c6567656e6461727900000000000000000000000000000000000000008152508051906020012061277e565b60070154905090565b5f610e8e6040518060400160405280600c81526020017f534d456c6567656e6461727900000000000000000000000000000000000000008152508051906020012061277e565b6011015f8373ffffffffffffffffffffffffffffffffffffffff1673ffffffffffffffffffffffffffffffffffffffff1681526020019081526020015f20549050919050565b80610f1a6040518060400160405280600c81526020017f534d456c6567656e6461727900000000000000000000000000000000000000008152508051906020012061277e565b6009018190555050565b6001610f6b6040518060400160405280600c81526020017f534d456c6567656e6461727900000000000000000000000000000000000000008152508051906020012061277e565b6011015f8373ffffffffffffffffffffffffffffffffffffffff1673ffffffffffffffffffffffffffffffffffffffff1681526020019081526020015f2054610fb49190612f84565b610ff96040518060400160405280600c81526020017f534d456c6567656e6461727900000000000000000000000000000000000000008152508051906020012061277e565b6011015f8373ffffffffffffffffffffffffffffffffffffffff1673ffffffffffffffffffffffffffffffffffffffff1681526020019081526020015f208190555050565b806110846040518060400160405280600c81526020017f534d456c6567656e6461727900000000000000000000000000000000000000008152508051906020012061277e565b6015018190555050565b5f6110d46040518060400160405280600c81526020017f534d456c6567656e6461727900000000000000000000000000000000000000008152508051906020012061277e565b60090154905090565b806111236040518060400160405280600c81526020017f534d456c6567656e6461727900000000000000000000000000000000000000008152508051906020012061277e565b600c018190555050565b806111736040518060400160405280600c81526020017f534d456c6567656e6461727900000000000000000000000000000000000000008152508051906020012061277e565b6007018190555050565b806111c36040518060400160405280600c81526020017f534d456c6567656e6461727900000000000000000000000000000000000000008152508051906020012061277e565b600a018190555050565b5f60016112156040518060400160405280600c81526020017f534d456c6567656e6461727900000000000000000000000000000000000000008152508051906020012061277e565b600501805490506112269190612f84565b90505f61126e6040518060400160405280600c81526020017f534d456c6567656e6461727900000000000000000000000000000000000000008152508051906020012061277e565b6006015f8481526020019081526020015f205490505f6112c96040518060400160405280600c81526020017f534d456c6567656e6461727900000000000000000000000000000000000000008152508051906020012061277e565b60050183815481106112de576112dd612fb7565b5b905f5260205f20015490508061132f6040518060400160405280600c81526020017f534d456c6567656e6461727900000000000000000000000000000000000000008152508051906020012061277e565b600501838154811061134457611343612fb7565b5b905f5260205f200181905550816113966040518060400160405280600c81526020017f534d456c6567656e6461727900000000000000000000000000000000000000008152508051906020012061277e565b6006015f8381526020019081526020015f20819055506113f16040518060400160405280600c81526020017f534d456c6567656e6461727900000000000000000000000000000000000000008152508051906020012061277e565b6006015f8581526020019081526020015f205f905561144b6040518060400160405280600c81526020017f534d456c6567656e6461727900000000000000000000000000000000000000008152508051906020012061277e565b60050180548061145e5761145d612fe4565b5b600190038181905f5260205f20015f9055905550505050565b806114bd6040518060400160405280600c81526020017f534d456c6567656e6461727900000000000000000000000000000000000000008152508051906020012061277e565b600f0190816114cc91906131b1565b5050565b5f6115166040518060400160405280600c81526020017f534d456c6567656e6461727900000000000000000000000000000000000000008152508051906020012061277e565b600d0154905090565b5f6115656040518060400160405280600c81526020017f534d456c6567656e6461727900000000000000000000000000000000000000008152508051906020012061277e565b6010015f8381526020019081526020015f20549050919050565b806115c56040518060400160405280600c81526020017f534d456c6567656e6461727900000000000000000000000000000000000000008152508051906020012061277e565b6003015f8573ffffffffffffffffffffffffffffffffffffffff1673ffffffffffffffffffffffffffffffffffffffff1681526020019081526020015f205f8481526020019081526020015f2081905550505050565b816116616040518060400160405280600c81526020017f534d456c6567656e6461727900000000000000000000000000000000000000008152508051906020012061277e565b6003015f8573ffffffffffffffffffffffffffffffffffffffff1673ffffffffffffffffffffffffffffffffffffffff1681526020019081526020015f205f8381526020019081526020015f2081905550806116f86040518060400160405280600c81526020017f534d456c6567656e6461727900000000000000000000000000000000000000008152508051906020012061277e565b6004015f8481526020019081526020015f2081905550505050565b806117596040518060400160405280600c81526020017f534d456c6567656e6461727900000000000000000000000000000000000000008152508051906020012061277e565b600e01908161176891906131b1565b5050565b60606117b36040518060400160405280600c81526020017f534d456c6567656e6461727900000000000000000000000000000000000000008152508051906020012061277e565b6002015f8381526020019081526020015f2080546117d090612f27565b80601f01602080910402602001604051908101604052809291908181526020018280546117fc90612f27565b80156118475780601f1061181e57610100808354040283529160200191611847565b820191905f5260205f20905b81548152906001019060200180831161182a57829003601f168201915b50505050509050919050565b606061189a6040518060400160405280600c81526020017f534d456c6567656e6461727900000000000000000000000000000000000000008152508051906020012061277e565b6005018054806020026020016040519081016040528092919081815260200182805480156118e557602002820191905f5260205f20905b8154815260200190600101908083116118d1575b5050505050905090565b5f6119356040518060400160405280600c81526020017f534d456c6567656e6461727900000000000000000000000000000000000000008152508051906020012061277e565b6004015f8381526020019081526020015f20549050919050565b5f6119956040518060400160405280600c81526020017f534d456c6567656e6461727900000000000000000000000000000000000000008152508051906020012061277e565b6014015490506001816119a89190613280565b6119ed6040518060400160405280600c81526020017f534d456c6567656e6461727900000000000000000000000000000000000000008152508051906020012061277e565b6014018190555050565b80611a3d6040518060400160405280600c81526020017f534d456c6567656e6461727900000000000000000000000000000000000000008152508051906020012061277e565b6001019081611a4c91906131b1565b5050565b80611a966040518060400160405280600c81526020017f534d456c6567656e6461727900000000000000000000000000000000000000008152508051906020012061277e565b6013015f8573ffffffffffffffffffffffffffffffffffffffff1673ffffffffffffffffffffffffffffffffffffffff1681526020019081526020015f205f8473ffffffffffffffffffffffffffffffffffffffff1673ffffffffffffffffffffffffffffffffffffffff1681526020019081526020015f205f6101000a81548160ff021916908315150217905550505050565b80611b706040518060400160405280600c81526020017f534d456c6567656e6461727900000000000000000000000000000000000000008152508051906020012061277e565b6008018190555050565b80611bc06040518060400160405280600c81526020017f534d456c6567656e6461727900000000000000000000000000000000000000008152508051906020012061277e565b600d018190555050565b5f611c106040518060400160405280600c81526020017f534d456c6567656e6461727900000000000000000000000000000000000000008152508051906020012061277e565b600c0154905090565b6060611c606040518060400160405280600c81526020017f534d456c6567656e6461727900000000000000000000000000000000000000008152508051906020012061277e565b600f018054611c6e90612f27565b80601f0160208091040260200160405190810160405280929190818152602001828054611c9a90612f27565b8015611ce55780601f10611cbc57610100808354040283529160200191611ce5565b820191905f5260205f20905b815481529060010190602001808311611cc857829003601f168201915b5050505050905090565b6060611d366040518060400160405280600c81526020017f534d456c6567656e6461727900000000000000000000000000000000000000008152508051906020012061277e565b6001018054611d4490612f27565b80601f0160208091040260200160405190810160405280929190818152602001828054611d7090612f27565b8015611dbb5780601f10611d9257610100808354040283529160200191611dbb565b820191905f5260205f20905b815481529060010190602001808311611d9e57829003601f168201915b5050505050905090565b5f611e0b6040518060400160405280600c81526020017f534d456c6567656e6461727900000000000000000000000000000000000000008152508051906020012061277e565b60150154905090565b80611e5a6040518060400160405280600c81526020017f534d456c6567656e6461727900000000000000000000000000000000000000008152508051906020012061277e565b5f019081611e6891906131b1565b5050565b80611eb26040518060400160405280600c81526020017f534d456c6567656e6461727900000000000000000000000000000000000000008152508051906020012061277e565b6011015f8473ffffffffffffffffffffffffffffffffffffffff1673ffffffffffffffffffffffffffffffffffffffff1681526020019081526020015f20819055505050565b611f00612787565b611f456040518060400160405280600c81526020017f534d456c6567656e6461727900000000000000000000000000000000000000008152508051906020012061277e565b6012015f8381526020019081526020015f206040518060200160405290815f82015f9054906101000a900473ffffffffffffffffffffffffffffffffffffffff1673ffffffffffffffffffffffffffffffffffffffff1673ffffffffffffffffffffffffffffffffffffffff16815250509050919050565b806120036040518060400160405280600c81526020017f534d456c6567656e6461727900000000000000000000000000000000000000008152508051906020012061277e565b6004015f8481526020019081526020015f20819055505050565b806120636040518060400160405280600c81526020017f534d456c6567656e6461727900000000000000000000000000000000000000008152508051906020012061277e565b600b015f8473ffffffffffffffffffffffffffffffffffffffff1673ffffffffffffffffffffffffffffffffffffffff1681526020019081526020015f205f6101000a81548160ff0219169083151502179055505050565b5f6121016040518060400160405280600c81526020017f534d456c6567656e6461727900000000000000000000000000000000000000008152508051906020012061277e565b600b015f8373ffffffffffffffffffffffffffffffffffffffff1673ffffffffffffffffffffffffffffffffffffffff1681526020019081526020015f205f9054906101000a900460ff169050919050565b600161219a6040518060400160405280600c81526020017f534d456c6567656e6461727900000000000000000000000000000000000000008152508051906020012061277e565b6011015f8373ffffffffffffffffffffffffffffffffffffffff1673ffffffffffffffffffffffffffffffffffffffff1681526020019081526020015f20546121e39190613280565b6122286040518060400160405280600c81526020017f534d456c6567656e6461727900000000000000000000000000000000000000008152508051906020012061277e565b6011015f8373ffffffffffffffffffffffffffffffffffffffff1673ffffffffffffffffffffffffffffffffffffffff1681526020019081526020015f208190555050565b5f6122b36040518060400160405280600c81526020017f534d456c6567656e6461727900000000000000000000000000000000000000008152508051906020012061277e565b60140154905090565b60606123036040518060400160405280600c81526020017f534d456c6567656e6461727900000000000000000000000000000000000000008152508051906020012061277e565b5f01805461231090612f27565b80601f016020809104026020016040519081016040528092919081815260200182805461233c90612f27565b80156123875780601f1061235e57610100808354040283529160200191612387565b820191905f5260205f20905b81548152906001019060200180831161236a57829003601f168201915b5050505050905090565b6123d66040518060400160405280600c81526020017f534d456c6567656e6461727900000000000000000000000000000000000000008152508051906020012061277e565b600501805490506124226040518060400160405280600c81526020017f534d456c6567656e6461727900000000000000000000000000000000000000008152508051906020012061277e565b6006015f8381526020019081526020015f208190555061247d6040518060400160405280600c81526020017f534d456c6567656e6461727900000000000000000000000000000000000000008152508051906020012061277e565b60050181908060018154018082558091505060019003905f5260205f20015f909190919091505550565b5f6124ed6040518060400160405280600c81526020017f534d456c6567656e6461727900000000000000000000000000000000000000008152508051906020012061277e565b600a0154905090565b8161253c6040518060400160405280600c81526020017f534d456c6567656e6461727900000000000000000000000000000000000000008152508051906020012061277e565b6002015f8381526020019081526020015f20908161255a91906131b1565b505050565b5f6125a56040518060400160405280600c81526020017f534d456c6567656e6461727900000000000000000000000000000000000000008152508051906020012061277e565b6003015f8473ffffffffffffffffffffffffffffffffffffffff1673ffffffffffffffffffffffffffffffffffffffff1681526020019081526020015f205f8381526020019081526020015f2054905092915050565b806126416040518060400160405280600c81526020017f534d456c6567656e6461727900000000000000000000000000000000000000008152508051906020012061277e565b6010015f8481526020019081526020015f20819055505050565b5f6126a16040518060400160405280600c81526020017f534d456c6567656e6461727900000000000000000000000000000000000000008152508051906020012061277e565b6013015f8473ffffffffffffffffffffffffffffffffffffffff1673ffffffffffffffffffffffffffffffffffffffff1681526020019081526020015f205f8373ffffffffffffffffffffffffffffffffffffffff1673ffffffffffffffffffffffffffffffffffffffff1681526020019081526020015f205f9054906101000a900460ff16905092915050565b5f6127756040518060400160405280600c81526020017f534d456c6567656e6461727900000000000000000000000000000000000000008152508051906020012061277e565b60080154905090565b5f819050919050565b60405180602001604052805f73ffffffffffffffffffffffffffffffffffffffff1681525090565b5f81519050919050565b5f82825260208201905092915050565b8281835e5f83830152505050565b5f601f19601f8301169050919050565b5f6127f1826127af565b6127fb81856127b9565b935061280b8185602086016127c9565b612814816127d7565b840191505092915050565b5f6020820190508181035f83015261283781846127e7565b905092915050565b5f604051905090565b5f5ffd5b5f5ffd5b5f73ffffffffffffffffffffffffffffffffffffffff82169050919050565b5f61287982612850565b9050919050565b6128898161286f565b8114612893575f5ffd5b50565b5f813590506128a481612880565b92915050565b5f819050919050565b6128bc816128aa565b81146128c6575f5ffd5b50565b5f813590506128d7816128b3565b92915050565b5f5f5f606084860312156128f4576128f3612848565b5b5f61290186828701612896565b9350506020612912868287016128c9565b9250506040612923868287016128c9565b9150509250925092565b5f5f6040838503121561294357612942612848565b5b5f612950858286016128c9565b925050602061296185828601612896565b9150509250929050565b5f819050919050565b61297d8161296b565b82525050565b5f6020820190506129965f830184612974565b92915050565b5f602082840312156129b1576129b0612848565b5b5f6129be84828501612896565b91505092915050565b6129d0816128aa565b82525050565b5f6020820190506129e95f8301846129c7565b92915050565b6129f88161296b565b8114612a02575f5ffd5b50565b5f81359050612a13816129ef565b92915050565b5f60208284031215612a2e57612a2d612848565b5b5f612a3b84828501612a05565b91505092915050565b5f60208284031215612a5957612a58612848565b5b5f612a66848285016128c9565b91505092915050565b5f5ffd5b5f5ffd5b7f4e487b71000000000000000000000000000000000000000000000000000000005f52604160045260245ffd5b612aad826127d7565b810181811067ffffffffffffffff82111715612acc57612acb612a77565b5b80604052505050565b5f612ade61283f565b9050612aea8282612aa4565b919050565b5f67ffffffffffffffff821115612b0957612b08612a77565b5b612b12826127d7565b9050602081019050919050565b828183375f83830152505050565b5f612b3f612b3a84612aef565b612ad5565b905082815260208101848484011115612b5b57612b5a612a73565b5b612b66848285612b1f565b509392505050565b5f82601f830112612b8257612b81612a6f565b5b8135612b92848260208601612b2d565b91505092915050565b5f60208284031215612bb057612baf612848565b5b5f82013567ffffffffffffffff811115612bcd57612bcc61284c565b5b612bd984828501612b6e565b91505092915050565b5f81519050919050565b5f82825260208201905092915050565b5f819050602082019050919050565b612c14816128aa565b82525050565b5f612c258383612c0b565b60208301905092915050565b5f602082019050919050565b5f612c4782612be2565b612c518185612bec565b9350612c5c83612bfc565b805f5b83811015612c8c578151612c738882612c1a565b9750612c7e83612c31565b925050600181019050612c5f565b5085935050505092915050565b5f6020820190508181035f830152612cb18184612c3d565b905092915050565b5f8115159050919050565b612ccd81612cb9565b8114612cd7575f5ffd5b50565b5f81359050612ce881612cc4565b92915050565b5f5f5f60608486031215612d0557612d04612848565b5b5f612d1286828701612896565b9350506020612d2386828701612896565b9250506040612d3486828701612cda565b9150509250925092565b5f5f60408385031215612d5457612d53612848565b5b5f612d6185828601612896565b9250506020612d72858286016128c9565b9150509250929050565b612d858161286f565b82525050565b602082015f820151612d9f5f850182612d7c565b50505050565b5f602082019050612db85f830184612d8b565b92915050565b5f5f60408385031215612dd457612dd3612848565b5b5f612de1858286016128c9565b9250506020612df2858286016128c9565b9150509250929050565b5f5f60408385031215612e1257612e11612848565b5b5f612e1f85828601612896565b9250506020612e3085828601612cda565b9150509250929050565b612e4381612cb9565b82525050565b5f602082019050612e5c5f830184612e3a565b92915050565b5f5f60408385031215612e7857612e77612848565b5b5f83013567ffffffffffffffff811115612e9557612e9461284c565b5b612ea185828601612b6e565b9250506020612eb2858286016128c9565b9150509250929050565b5f5f60408385031215612ed257612ed1612848565b5b5f612edf85828601612896565b9250506020612ef085828601612896565b9150509250929050565b7f4e487b71000000000000000000000000000000000000000000000000000000005f52602260045260245ffd5b5f6002820490506001821680612f3e57607f821691505b602082108103612f5157612f50612efa565b5b50919050565b7f4e487b71000000000000000000000000000000000000000000000000000000005f52601160045260245ffd5b5f612f8e826128aa565b9150612f99836128aa565b9250828203905081811115612fb157612fb0612f57565b5b92915050565b7f4e487b71000000000000000000000000000000000000000000000000000000005f52603260045260245ffd5b7f4e487b71000000000000000000000000000000000000000000000000000000005f52603160045260245ffd5b5f819050815f5260205f209050919050565b5f6020601f8301049050919050565b5f82821b905092915050565b5f6008830261306d7fffffffffffffffffffffffffffffffffffffffffffffffffffffffffffffffff82613032565b6130778683613032565b95508019841693508086168417925050509392505050565b5f819050919050565b5f6130b26130ad6130a8846128aa565b61308f565b6128aa565b9050919050565b5f819050919050565b6130cb83613098565b6130df6130d7826130b9565b84845461303e565b825550505050565b5f5f905090565b6130f66130e7565b6131018184846130c2565b505050565b5b81811015613124576131195f826130ee565b600181019050613107565b5050565b601f8211156131695761313a81613011565b61314384613023565b81016020851015613152578190505b61316661315e85613023565b830182613106565b50505b505050565b5f82821c905092915050565b5f6131895f198460080261316e565b1980831691505092915050565b5f6131a1838361317a565b9150826002028217905092915050565b6131ba826127af565b67ffffffffffffffff8111156131d3576131d2612a77565b5b6131dd8254612f27565b6131e8828285613128565b5f60209050601f831160018114613219575f8415613207578287015190505b6132118582613196565b865550613278565b601f19841661322786613011565b5f5b8281101561324e57848901518255600182019150602085019450602081019050613229565b8683101561326b5784890151613267601f89168261317a565b8355505b6001600288020188555050505b505050505050565b5f61328a826128aa565b9150613295836128aa565b92508282019050808211156132ad576132ac612f57565b5b9291505056fea26469706673582212203388cecae807510c559b23a44a077096bed1fa2cf526791f20ba48989866bd0764736f6c634300081e0033",
					"opcodes": "PUSH2 0x32E9 PUSH2 0x4D PUSH1 0xB DUP3 DUP3 DUP3 CODECOPY DUP1 MLOAD PUSH0 BYTE PUSH1 0x73 EQ PUSH1 0x41 JUMPI PUSH32 0x4E487B7100000000000000000000000000000000000000000000000000000000 PUSH0 MSTORE PUSH0 PUSH1 0x4 MSTORE PUSH1 0x24 PUSH0 REVERT JUMPDEST ADDRESS PUSH0 MSTORE PUSH1 0x73 DUP2 MSTORE8 DUP3 DUP2 RETURN INVALID PUSH20 0x0 ADDRESS EQ PUSH1 0x80 PUSH1 0x40 MSTORE PUSH1 0x4 CALLDATASIZE LT PUSH2 0x29E JUMPI PUSH0 CALLDATALOAD PUSH1 0xE0 SHR DUP1 PUSH4 0x821ABC2D GT PUSH2 0x170 JUMPI DUP1 PUSH4 0xB0D4CE25 GT PUSH2 0xD7 JUMPI DUP1 PUSH4 0xDDCA3F43 GT PUSH2 0x90 JUMPI DUP1 PUSH4 0xDDCA3F43 EQ PUSH2 0x8BA JUMPI DUP1 PUSH4 0xDEC84DB1 EQ PUSH2 0x8D8 JUMPI DUP1 PUSH4 0xE149F036 EQ PUSH2 0x900 JUMPI DUP1 PUSH4 0xE68FDEE1 EQ PUSH2 0x930 JUMPI DUP1 PUSH4 0xEDC3BC3F EQ PUSH2 0x958 JUMPI DUP1 PUSH4 0xF589B754 EQ PUSH2 0x988 JUMPI PUSH2 0x29E JUMP JUMPDEST DUP1 PUSH4 0xB0D4CE25 EQ PUSH2 0x7D6 JUMPI DUP1 PUSH4 0xB62D8B91 EQ PUSH2 0x7FE JUMPI DUP1 PUSH4 0xD0125152 EQ PUSH2 0x82E JUMPI DUP1 PUSH4 0xD20B6EE7 EQ PUSH2 0x856 JUMPI DUP1 PUSH4 0xD547CFB7 EQ PUSH2 0x874 JUMPI DUP1 PUSH4 0xDBE0B21C EQ PUSH2 0x892 JUMPI PUSH2 0x29E JUMP JUMPDEST DUP1 PUSH4 0x963BFE12 GT PUSH2 0x129 JUMPI DUP1 PUSH4 0x963BFE12 EQ PUSH2 0x6F2 JUMPI DUP1 PUSH4 0x98995F77 EQ PUSH2 0x710 JUMPI DUP1 PUSH4 0xA05CC559 EQ PUSH2 0x72E JUMPI DUP1 PUSH4 0xA3301173 EQ PUSH2 0x756 JUMPI DUP1 PUSH4 0xA7CC0136 EQ PUSH2 0x77E JUMPI DUP1 PUSH4 0xAD715F2E EQ PUSH2 0x7AE JUMPI PUSH2 0x29E JUMP JUMPDEST DUP1 PUSH4 0x821ABC2D EQ PUSH2 0x616 JUMPI DUP1 PUSH4 0x830D4091 EQ PUSH2 0x63E JUMPI DUP1 PUSH4 0x854F9DB9 EQ PUSH2 0x666 JUMPI DUP1 PUSH4 0x8FCA4DBE EQ PUSH2 0x68E JUMPI DUP1 PUSH4 0x9451C99A EQ PUSH2 0x6B6 JUMPI DUP1 PUSH4 0x95D89B41 EQ PUSH2 0x6D4 JUMPI PUSH2 0x29E JUMP JUMPDEST DUP1 PUSH4 0x39B37AB0 GT PUSH2 0x214 JUMPI DUP1 PUSH4 0x4F4979ED GT PUSH2 0x1CD JUMPI DUP1 PUSH4 0x4F4979ED EQ PUSH2 0x532 JUMPI DUP1 PUSH4 0x5B43BC99 EQ PUSH2 0x55A JUMPI DUP1 PUSH4 0x6C8B703F EQ PUSH2 0x582 JUMPI DUP1 PUSH4 0x6FF97F1D EQ PUSH2 0x5B2 JUMPI DUP1 PUSH4 0x74E24367 EQ PUSH2 0x5D0 JUMPI DUP1 PUSH4 0x810536EC EQ PUSH2 0x600 JUMPI PUSH2 0x29E JUMP JUMPDEST DUP1 PUSH4 0x39B37AB0 EQ PUSH2 0x444 JUMPI DUP1 PUSH4 0x40E02F5C EQ PUSH2 0x46C JUMPI DUP1 PUSH4 0x41BB0559 EQ PUSH2 0x494 JUMPI DUP1 PUSH4 0x44FAF255 EQ PUSH2 0x4BC JUMPI DUP1 PUSH4 0x47F69EBA EQ PUSH2 0x4DA JUMPI DUP1 PUSH4 0x49A0A50E EQ PUSH2 0x50A JUMPI PUSH2 0x29E JUMP JUMPDEST DUP1 PUSH4 0x247C6CE0 GT PUSH2 0x266 JUMPI DUP1 PUSH4 0x247C6CE0 EQ PUSH2 0x35E JUMPI DUP1 PUSH4 0x31413EFC EQ PUSH2 0x386 JUMPI DUP1 PUSH4 0x32B07B43 EQ PUSH2 0x3AE JUMPI DUP1 PUSH4 0x33171809 EQ PUSH2 0x3D6 JUMPI DUP1 PUSH4 0x345E7B28 EQ PUSH2 0x3F4 JUMPI DUP1 PUSH4 0x3802497B EQ PUSH2 0x41C JUMPI PUSH2 0x29E JUMP JUMPDEST DUP1 PUSH4 0x6FDDE03 EQ PUSH2 0x2A2 JUMPI DUP1 PUSH4 0x71BC71C EQ PUSH2 0x2C0 JUMPI DUP1 PUSH4 0x13C19FF6 EQ PUSH2 0x2E8 JUMPI DUP1 PUSH4 0x19F86200 EQ PUSH2 0x310 JUMPI DUP1 PUSH4 0x21B0ED7D EQ PUSH2 0x32E JUMPI JUMPDEST PUSH0 PUSH0 REVERT JUMPDEST PUSH2 0x2AA PUSH2 0x9A6 JUMP JUMPDEST PUSH1 0x40 MLOAD PUSH2 0x2B7 SWAP2 SWAP1 PUSH2 0x281F JUMP JUMPDEST PUSH1 0x40 MLOAD DUP1 SWAP2 SUB SWAP1 RETURN JUMPDEST DUP2 DUP1 ISZERO PUSH2 0x2CB JUMPI PUSH0 PUSH0 REVERT JUMPDEST POP PUSH2 0x2E6 PUSH1 0x4 DUP1 CALLDATASIZE SUB DUP2 ADD SWAP1 PUSH2 0x2E1 SWAP2 SWAP1 PUSH2 0x28DD JUMP JUMPDEST PUSH2 0xA7C JUMP JUMPDEST STOP JUMPDEST DUP2 DUP1 ISZERO PUSH2 0x2F3 JUMPI PUSH0 PUSH0 REVERT JUMPDEST POP PUSH2 0x30E PUSH1 0x4 DUP1 CALLDATASIZE SUB DUP2 ADD SWAP1 PUSH2 0x309 SWAP2 SWAP1 PUSH2 0x292D JUMP JUMPDEST PUSH2 0xD5E JUMP JUMPDEST STOP JUMPDEST PUSH2 0x318 PUSH2 0xDF9 JUMP JUMPDEST PUSH1 0x40 MLOAD PUSH2 0x325 SWAP2 SWAP1 PUSH2 0x2983 JUMP JUMPDEST PUSH1 0x40 MLOAD DUP1 SWAP2 SUB SWAP1 RETURN JUMPDEST PUSH2 0x348 PUSH1 0x4 DUP1 CALLDATASIZE SUB DUP2 ADD SWAP1 PUSH2 0x343 SWAP2 SWAP1 PUSH2 0x299C JUMP JUMPDEST PUSH2 0xE48 JUMP JUMPDEST PUSH1 0x40 MLOAD PUSH2 0x355 SWAP2 SWAP1 PUSH2 0x29D6 JUMP JUMPDEST PUSH1 0x40 MLOAD DUP1 SWAP2 SUB SWAP1 RETURN JUMPDEST DUP2 DUP1 ISZERO PUSH2 0x369 JUMPI PUSH0 PUSH0 REVERT JUMPDEST POP PUSH2 0x384 PUSH1 0x4 DUP1 CALLDATASIZE SUB DUP2 ADD SWAP1 PUSH2 0x37F SWAP2 SWAP1 PUSH2 0x2A19 JUMP JUMPDEST PUSH2 0xED4 JUMP JUMPDEST STOP JUMPDEST DUP2 DUP1 ISZERO PUSH2 0x391 JUMPI PUSH0 PUSH0 REVERT JUMPDEST POP PUSH2 0x3AC PUSH1 0x4 DUP1 CALLDATASIZE SUB DUP2 ADD SWAP1 PUSH2 0x3A7 SWAP2 SWAP1 PUSH2 0x299C JUMP JUMPDEST PUSH2 0xF24 JUMP JUMPDEST STOP JUMPDEST DUP2 DUP1 ISZERO PUSH2 0x3B9 JUMPI PUSH0 PUSH0 REVERT JUMPDEST POP PUSH2 0x3D4 PUSH1 0x4 DUP1 CALLDATASIZE SUB DUP2 ADD SWAP1 PUSH2 0x3CF SWAP2 SWAP1 PUSH2 0x2A44 JUMP JUMPDEST PUSH2 0x103E JUMP JUMPDEST STOP JUMPDEST PUSH2 0x3DE PUSH2 0x108E JUMP JUMPDEST PUSH1 0x40 MLOAD PUSH2 0x3EB SWAP2 SWAP1 PUSH2 0x2983 JUMP JUMPDEST PUSH1 0x40 MLOAD DUP1 SWAP2 SUB SWAP1 RETURN JUMPDEST DUP2 DUP1 ISZERO PUSH2 0x3FF JUMPI PUSH0 PUSH0 REVERT JUMPDEST POP PUSH2 0x41A PUSH1 0x4 DUP1 CALLDATASIZE SUB DUP2 ADD SWAP1 PUSH2 0x415 SWAP2 SWAP1 PUSH2 0x2A44 JUMP JUMPDEST PUSH2 0x10DD JUMP JUMPDEST STOP JUMPDEST DUP2 DUP1 ISZERO PUSH2 0x427 JUMPI PUSH0 PUSH0 REVERT JUMPDEST POP PUSH2 0x442 PUSH1 0x4 DUP1 CALLDATASIZE SUB DUP2 ADD SWAP1 PUSH2 0x43D SWAP2 SWAP1 PUSH2 0x2A19 JUMP JUMPDEST PUSH2 0x112D JUMP JUMPDEST STOP JUMPDEST DUP2 DUP1 ISZERO PUSH2 0x44F JUMPI PUSH0 PUSH0 REVERT JUMPDEST POP PUSH2 0x46A PUSH1 0x4 DUP1 CALLDATASIZE SUB DUP2 ADD SWAP1 PUSH2 0x465 SWAP2 SWAP1 PUSH2 0x2A44 JUMP JUMPDEST PUSH2 0x117D JUMP JUMPDEST STOP JUMPDEST DUP2 DUP1 ISZERO PUSH2 0x477 JUMPI PUSH0 PUSH0 REVERT JUMPDEST POP PUSH2 0x492 PUSH1 0x4 DUP1 CALLDATASIZE SUB DUP2 ADD SWAP1 PUSH2 0x48D SWAP2 SWAP1 PUSH2 0x2A44 JUMP JUMPDEST PUSH2 0x11CD JUMP JUMPDEST STOP JUMPDEST DUP2 DUP1 ISZERO PUSH2 0x49F JUMPI PUSH0 PUSH0 REVERT JUMPDEST POP PUSH2 0x4BA PUSH1 0x4 DUP1 CALLDATASIZE SUB DUP2 ADD SWAP1 PUSH2 0x4B5 SWAP2 SWAP1 PUSH2 0x2B9B JUMP JUMPDEST PUSH2 0x1477 JUMP JUMPDEST STOP JUMPDEST PUSH2 0x4C4 PUSH2 0x14D0 JUMP JUMPDEST PUSH1 0x40 MLOAD PUSH2 0x4D1 SWAP2 SWAP1 PUSH2 0x29D6 JUMP JUMPDEST PUSH1 0x40 MLOAD DUP1 SWAP2 SUB SWAP1 RETURN JUMPDEST PUSH2 0x4F4 PUSH1 0x4 DUP1 CALLDATASIZE SUB DUP2 ADD SWAP1 PUSH2 0x4EF SWAP2 SWAP1 PUSH2 0x2A44 JUMP JUMPDEST PUSH2 0x151F JUMP JUMPDEST PUSH1 0x40 MLOAD PUSH2 0x501 SWAP2 SWAP1 PUSH2 0x29D6 JUMP JUMPDEST PUSH1 0x40 MLOAD DUP1 SWAP2 SUB SWAP1 RETURN JUMPDEST DUP2 DUP1 ISZERO PUSH2 0x515 JUMPI PUSH0 PUSH0 REVERT JUMPDEST POP PUSH2 0x530 PUSH1 0x4 DUP1 CALLDATASIZE SUB DUP2 ADD SWAP1 PUSH2 0x52B SWAP2 SWAP1 PUSH2 0x28DD JUMP JUMPDEST PUSH2 0x157F JUMP JUMPDEST STOP JUMPDEST DUP2 DUP1 ISZERO PUSH2 0x53D JUMPI PUSH0 PUSH0 REVERT JUMPDEST POP PUSH2 0x558 PUSH1 0x4 DUP1 CALLDATASIZE SUB DUP2 ADD SWAP1 PUSH2 0x553 SWAP2 SWAP1 PUSH2 0x28DD JUMP JUMPDEST PUSH2 0x161B JUMP JUMPDEST STOP JUMPDEST DUP2 DUP1 ISZERO PUSH2 0x565 JUMPI PUSH0 PUSH0 REVERT JUMPDEST POP PUSH2 0x580 PUSH1 0x4 DUP1 CALLDATASIZE SUB DUP2 ADD SWAP1 PUSH2 0x57B SWAP2 SWAP1 PUSH2 0x2B9B JUMP JUMPDEST PUSH2 0x1713 JUMP JUMPDEST STOP JUMPDEST PUSH2 0x59C PUSH1 0x4 DUP1 CALLDATASIZE SUB DUP2 ADD SWAP1 PUSH2 0x597 SWAP2 SWAP1 PUSH2 0x2A44 JUMP JUMPDEST PUSH2 0x176C JUMP JUMPDEST PUSH1 0x40 MLOAD PUSH2 0x5A9 SWAP2 SWAP1 PUSH2 0x281F JUMP JUMPDEST PUSH1 0x40 MLOAD DUP1 SWAP2 SUB SWAP1 RETURN JUMPDEST PUSH2 0x5BA PUSH2 0x1853 JUMP JUMPDEST PUSH1 0x40 MLOAD PUSH2 0x5C7 SWAP2 SWAP1 PUSH2 0x2C99 JUMP JUMPDEST PUSH1 0x40 MLOAD DUP1 SWAP2 SUB SWAP1 RETURN JUMPDEST PUSH2 0x5EA PUSH1 0x4 DUP1 CALLDATASIZE SUB DUP2 ADD SWAP1 PUSH2 0x5E5 SWAP2 SWAP1 PUSH2 0x2A44 JUMP JUMPDEST PUSH2 0x18EF JUMP JUMPDEST PUSH1 0x40 MLOAD PUSH2 0x5F7 SWAP2 SWAP1 PUSH2 0x29D6 JUMP JUMPDEST PUSH1 0x40 MLOAD DUP1 SWAP2 SUB SWAP1 RETURN JUMPDEST DUP2 DUP1 ISZERO PUSH2 0x60B JUMPI PUSH0 PUSH0 REVERT JUMPDEST POP PUSH2 0x614 PUSH2 0x194F JUMP JUMPDEST STOP JUMPDEST DUP2 DUP1 ISZERO PUSH2 0x621 JUMPI PUSH0 PUSH0 REVERT JUMPDEST POP PUSH2 0x63C PUSH1 0x4 DUP1 CALLDATASIZE SUB DUP2 ADD SWAP1 PUSH2 0x637 SWAP2 SWAP1 PUSH2 0x2B9B JUMP JUMPDEST PUSH2 0x19F7 JUMP JUMPDEST STOP JUMPDEST DUP2 DUP1 ISZERO PUSH2 0x649 JUMPI PUSH0 PUSH0 REVERT JUMPDEST POP PUSH2 0x664 PUSH1 0x4 DUP1 CALLDATASIZE SUB DUP2 ADD SWAP1 PUSH2 0x65F SWAP2 SWAP1 PUSH2 0x2CEE JUMP JUMPDEST PUSH2 0x1A50 JUMP JUMPDEST STOP JUMPDEST DUP2 DUP1 ISZERO PUSH2 0x671 JUMPI PUSH0 PUSH0 REVERT JUMPDEST POP PUSH2 0x68C PUSH1 0x4 DUP1 CALLDATASIZE SUB DUP2 ADD SWAP1 PUSH2 0x687 SWAP2 SWAP1 PUSH2 0x2A19 JUMP JUMPDEST PUSH2 0x1B2A JUMP JUMPDEST STOP JUMPDEST DUP2 DUP1 ISZERO PUSH2 0x699 JUMPI PUSH0 PUSH0 REVERT JUMPDEST POP PUSH2 0x6B4 PUSH1 0x4 DUP1 CALLDATASIZE SUB DUP2 ADD SWAP1 PUSH2 0x6AF SWAP2 SWAP1 PUSH2 0x2A44 JUMP JUMPDEST PUSH2 0x1B7A JUMP JUMPDEST STOP JUMPDEST PUSH2 0x6BE PUSH2 0x1BCA JUMP JUMPDEST PUSH1 0x40 MLOAD PUSH2 0x6CB SWAP2 SWAP1 PUSH2 0x29D6 JUMP JUMPDEST PUSH1 0x40 MLOAD DUP1 SWAP2 SUB SWAP1 RETURN JUMPDEST PUSH2 0x6DC PUSH2 0x1C19 JUMP JUMPDEST PUSH1 0x40 MLOAD PUSH2 0x6E9 SWAP2 SWAP1 PUSH2 0x281F JUMP JUMPDEST PUSH1 0x40 MLOAD DUP1 SWAP2 SUB SWAP1 RETURN JUMPDEST PUSH2 0x6FA PUSH2 0x1CEF JUMP JUMPDEST PUSH1 0x40 MLOAD PUSH2 0x707 SWAP2 SWAP1 PUSH2 0x281F JUMP JUMPDEST PUSH1 0x40 MLOAD DUP1 SWAP2 SUB SWAP1 RETURN JUMPDEST PUSH2 0x718 PUSH2 0x1DC5 JUMP JUMPDEST PUSH1 0x40 MLOAD PUSH2 0x725 SWAP2 SWAP1 PUSH2 0x29D6 JUMP JUMPDEST PUSH1 0x40 MLOAD DUP1 SWAP2 SUB SWAP1 RETURN JUMPDEST DUP2 DUP1 ISZERO PUSH2 0x739 JUMPI PUSH0 PUSH0 REVERT JUMPDEST POP PUSH2 0x754 PUSH1 0x4 DUP1 CALLDATASIZE SUB DUP2 ADD SWAP1 PUSH2 0x74F SWAP2 SWAP1 PUSH2 0x2B9B JUMP JUMPDEST PUSH2 0x1E14 JUMP JUMPDEST STOP JUMPDEST DUP2 DUP1 ISZERO PUSH2 0x761 JUMPI PUSH0 PUSH0 REVERT JUMPDEST POP PUSH2 0x77C PUSH1 0x4 DUP1 CALLDATASIZE SUB DUP2 ADD SWAP1 PUSH2 0x777 SWAP2 SWAP1 PUSH2 0x2D3E JUMP JUMPDEST PUSH2 0x1E6C JUMP JUMPDEST STOP JUMPDEST PUSH2 0x798 PUSH1 0x4 DUP1 CALLDATASIZE SUB DUP2 ADD SWAP1 PUSH2 0x793 SWAP2 SWAP1 PUSH2 0x2A44 JUMP JUMPDEST PUSH2 0x1EF8 JUMP JUMPDEST PUSH1 0x40 MLOAD PUSH2 0x7A5 SWAP2 SWAP1 PUSH2 0x2DA5 JUMP JUMPDEST PUSH1 0x40 MLOAD DUP1 SWAP2 SUB SWAP1 RETURN JUMPDEST DUP2 DUP1 ISZERO PUSH2 0x7B9 JUMPI PUSH0 PUSH0 REVERT JUMPDEST POP PUSH2 0x7D4 PUSH1 0x4 DUP1 CALLDATASIZE SUB DUP2 ADD SWAP1 PUSH2 0x7CF SWAP2 SWAP1 PUSH2 0x2DBE JUMP JUMPDEST PUSH2 0x1FBD JUMP JUMPDEST STOP JUMPDEST DUP2 DUP1 ISZERO PUSH2 0x7E1 JUMPI PUSH0 PUSH0 REVERT JUMPDEST POP PUSH2 0x7FC PUSH1 0x4 DUP1 CALLDATASIZE SUB DUP2 ADD SWAP1 PUSH2 0x7F7 SWAP2 SWAP1 PUSH2 0x2DFC JUMP JUMPDEST PUSH2 0x201D JUMP JUMPDEST STOP JUMPDEST PUSH2 0x818 PUSH1 0x4 DUP1 CALLDATASIZE SUB DUP2 ADD SWAP1 PUSH2 0x813 SWAP2 SWAP1 PUSH2 0x299C JUMP JUMPDEST PUSH2 0x20BB JUMP JUMPDEST PUSH1 0x40 MLOAD PUSH2 0x825 SWAP2 SWAP1 PUSH2 0x2E49 JUMP JUMPDEST PUSH1 0x40 MLOAD DUP1 SWAP2 SUB SWAP1 RETURN JUMPDEST DUP2 DUP1 ISZERO PUSH2 0x839 JUMPI PUSH0 PUSH0 REVERT JUMPDEST POP PUSH2 0x854 PUSH1 0x4 DUP1 CALLDATASIZE SUB DUP2 ADD SWAP1 PUSH2 0x84F SWAP2 SWAP1 PUSH2 0x299C JUMP JUMPDEST PUSH2 0x2153 JUMP JUMPDEST STOP JUMPDEST PUSH2 0x85E PUSH2 0x226D JUMP JUMPDEST PUSH1 0x40 MLOAD PUSH2 0x86B SWAP2 SWAP1 PUSH2 0x29D6 JUMP JUMPDEST PUSH1 0x40 MLOAD DUP1 SWAP2 SUB SWAP1 RETURN JUMPDEST PUSH2 0x87C PUSH2 0x22BC JUMP JUMPDEST PUSH1 0x40 MLOAD PUSH2 0x889 SWAP2 SWAP1 PUSH2 0x281F JUMP JUMPDEST PUSH1 0x40 MLOAD DUP1 SWAP2 SUB SWAP1 RETURN JUMPDEST DUP2 DUP1 ISZERO PUSH2 0x89D JUMPI PUSH0 PUSH0 REVERT JUMPDEST POP PUSH2 0x8B8 PUSH1 0x4 DUP1 CALLDATASIZE SUB DUP2 ADD SWAP1 PUSH2 0x8B3 SWAP2 SWAP1 PUSH2 0x2A44 JUMP JUMPDEST PUSH2 0x2391 JUMP JUMPDEST STOP JUMPDEST PUSH2 0x8C2 PUSH2 0x24A7 JUMP JUMPDEST PUSH1 0x40 MLOAD PUSH2 0x8CF SWAP2 SWAP1 PUSH2 0x29D6 JUMP JUMPDEST PUSH1 0x40 MLOAD DUP1 SWAP2 SUB SWAP1 RETURN JUMPDEST DUP2 DUP1 ISZERO PUSH2 0x8E3 JUMPI PUSH0 PUSH0 REVERT JUMPDEST POP PUSH2 0x8FE PUSH1 0x4 DUP1 CALLDATASIZE SUB DUP2 ADD SWAP1 PUSH2 0x8F9 SWAP2 SWAP1 PUSH2 0x2E62 JUMP JUMPDEST PUSH2 0x24F6 JUMP JUMPDEST STOP JUMPDEST PUSH2 0x91A PUSH1 0x4 DUP1 CALLDATASIZE SUB DUP2 ADD SWAP1 PUSH2 0x915 SWAP2 SWAP1 PUSH2 0x2D3E JUMP JUMPDEST PUSH2 0x255F JUMP JUMPDEST PUSH1 0x40 MLOAD PUSH2 0x927 SWAP2 SWAP1 PUSH2 0x29D6 JUMP JUMPDEST PUSH1 0x40 MLOAD DUP1 SWAP2 SUB SWAP1 RETURN JUMPDEST DUP2 DUP1 ISZERO PUSH2 0x93B JUMPI PUSH0 PUSH0 REVERT JUMPDEST POP PUSH2 0x956 PUSH1 0x4 DUP1 CALLDATASIZE SUB DUP2 ADD SWAP1 PUSH2 0x951 SWAP2 SWAP1 PUSH2 0x2DBE JUMP JUMPDEST PUSH2 0x25FB JUMP JUMPDEST STOP JUMPDEST PUSH2 0x972 PUSH1 0x4 DUP1 CALLDATASIZE SUB DUP2 ADD SWAP1 PUSH2 0x96D SWAP2 SWAP1 PUSH2 0x2EBC JUMP JUMPDEST PUSH2 0x265B JUMP JUMPDEST PUSH1 0x40 MLOAD PUSH2 0x97F SWAP2 SWAP1 PUSH2 0x2E49 JUMP JUMPDEST PUSH1 0x40 MLOAD DUP1 SWAP2 SUB SWAP1 RETURN JUMPDEST PUSH2 0x990 PUSH2 0x272F JUMP JUMPDEST PUSH1 0x40 MLOAD PUSH2 0x99D SWAP2 SWAP1 PUSH2 0x2983 JUMP JUMPDEST PUSH1 0x40 MLOAD DUP1 SWAP2 SUB SWAP1 RETURN JUMPDEST PUSH1 0x60 PUSH2 0x9ED PUSH1 0x40 MLOAD DUP1 PUSH1 0x40 ADD PUSH1 0x40 MSTORE DUP1 PUSH1 0xC DUP2 MSTORE PUSH1 0x20 ADD PUSH32 0x534D456C6567656E646172790000000000000000000000000000000000000000 DUP2 MSTORE POP DUP1 MLOAD SWAP1 PUSH1 0x20 ADD KECCAK256 PUSH2 0x277E JUMP JUMPDEST PUSH1 0xE ADD DUP1 SLOAD PUSH2 0x9FB SWAP1 PUSH2 0x2F27 JUMP JUMPDEST DUP1 PUSH1 0x1F ADD PUSH1 0x20 DUP1 SWAP2 DIV MUL PUSH1 0x20 ADD PUSH1 0x40 MLOAD SWAP1 DUP2 ADD PUSH1 0x40 MSTORE DUP1 SWAP3 SWAP2 SWAP1 DUP2 DUP2 MSTORE PUSH1 0x20 ADD DUP3 DUP1 SLOAD PUSH2 0xA27 SWAP1 PUSH2 0x2F27 JUMP JUMPDEST DUP1 ISZERO PUSH2 0xA72 JUMPI DUP1 PUSH1 0x1F LT PUSH2 0xA49 JUMPI PUSH2 0x100 DUP1 DUP4 SLOAD DIV MUL DUP4 MSTORE SWAP2 PUSH1 0x20 ADD SWAP2 PUSH2 0xA72 JUMP JUMPDEST DUP3 ADD SWAP2 SWAP1 PUSH0 MSTORE PUSH1 0x20 PUSH0 KECCAK256 SWAP1 JUMPDEST DUP2 SLOAD DUP2 MSTORE SWAP1 PUSH1 0x1 ADD SWAP1 PUSH1 0x20 ADD DUP1 DUP4 GT PUSH2 0xA55 JUMPI DUP3 SWAP1 SUB PUSH1 0x1F AND DUP3 ADD SWAP2 JUMPDEST POP POP POP POP POP SWAP1 POP SWAP1 JUMP JUMPDEST PUSH0 PUSH2 0xAC2 PUSH1 0x40 MLOAD DUP1 PUSH1 0x40 ADD PUSH1 0x40 MSTORE DUP1 PUSH1 0xC DUP2 MSTORE PUSH1 0x20 ADD PUSH32 0x534D456C6567656E646172790000000000000000000000000000000000000000 DUP2 MSTORE POP DUP1 MLOAD SWAP1 PUSH1 0x20 ADD KECCAK256 PUSH2 0x277E JUMP JUMPDEST PUSH1 0x4 ADD PUSH0 DUP5 DUP2 MSTORE PUSH1 0x20 ADD SWAP1 DUP2 MSTORE PUSH1 0x20 ADD PUSH0 KECCAK256 SLOAD SWAP1 POP DUP2 DUP2 EQ PUSH2 0xC69 JUMPI PUSH0 PUSH2 0xB24 PUSH1 0x40 MLOAD DUP1 PUSH1 0x40 ADD PUSH1 0x40 MSTORE DUP1 PUSH1 0xC DUP2 MSTORE PUSH1 0x20 ADD PUSH32 0x534D456C6567656E646172790000000000000000000000000000000000000000 DUP2 MSTORE POP DUP1 MLOAD SWAP1 PUSH1 0x20 ADD KECCAK256 PUSH2 0x277E JUMP JUMPDEST PUSH1 0x3 ADD PUSH0 DUP7 PUSH20 0xFFFFFFFFFFFFFFFFFFFFFFFFFFFFFFFFFFFFFFFF AND PUSH20 0xFFFFFFFFFFFFFFFFFFFFFFFFFFFFFFFFFFFFFFFF AND DUP2 MSTORE PUSH1 0x20 ADD SWAP1 DUP2 MSTORE PUSH1 0x20 ADD PUSH0 KECCAK256 PUSH0 DUP5 DUP2 MSTORE PUSH1 0x20 ADD SWAP1 DUP2 MSTORE PUSH1 0x20 ADD PUSH0 KECCAK256 SLOAD SWAP1 POP DUP1 PUSH2 0xBBA PUSH1 0x40 MLOAD DUP1 PUSH1 0x40 ADD PUSH1 0x40 MSTORE DUP1 PUSH1 0xC DUP2 MSTORE PUSH1 0x20 ADD PUSH32 0x534D456C6567656E646172790000000000000000000000000000000000000000 DUP2 MSTORE POP DUP1 MLOAD SWAP1 PUSH1 0x20 ADD KECCAK256 PUSH2 0x277E JUMP JUMPDEST PUSH1 0x3 ADD PUSH0 DUP8 PUSH20 0xFFFFFFFFFFFFFFFFFFFFFFFFFFFFFFFFFFFFFFFF AND PUSH20 0xFFFFFFFFFFFFFFFFFFFFFFFFFFFFFFFFFFFFFFFF AND DUP2 MSTORE PUSH1 0x20 ADD SWAP1 DUP2 MSTORE PUSH1 0x20 ADD PUSH0 KECCAK256 PUSH0 DUP5 DUP2 MSTORE PUSH1 0x20 ADD SWAP1 DUP2 MSTORE PUSH1 0x20 ADD PUSH0 KECCAK256 DUP2 SWAP1 SSTORE POP DUP2 PUSH2 0xC51 PUSH1 0x40 MLOAD DUP1 PUSH1 0x40 ADD PUSH1 0x40 MSTORE DUP1 PUSH1 0xC DUP2 MSTORE PUSH1 0x20 ADD PUSH32 0x534D456C6567656E646172790000000000000000000000000000000000000000 DUP2 MSTORE POP DUP1 MLOAD SWAP1 PUSH1 0x20 ADD KECCAK256 PUSH2 0x277E JUMP JUMPDEST PUSH1 0x4 ADD PUSH0 DUP4 DUP2 MSTORE PUSH1 0x20 ADD SWAP1 DUP2 MSTORE PUSH1 0x20 ADD PUSH0 KECCAK256 DUP2 SWAP1 SSTORE POP POP JUMPDEST PUSH2 0xCAE PUSH1 0x40 MLOAD DUP1 PUSH1 0x40 ADD PUSH1 0x40 MSTORE DUP1 PUSH1 0xC DUP2 MSTORE PUSH1 0x20 ADD PUSH32 0x534D456C6567656E646172790000000000000000000000000000000000000000 DUP2 MSTORE POP DUP1 MLOAD SWAP1 PUSH1 0x20 ADD KECCAK256 PUSH2 0x277E JUMP JUMPDEST PUSH1 0x4 ADD PUSH0 DUP5 DUP2 MSTORE PUSH1 0x20 ADD SWAP1 DUP2 MSTORE PUSH1 0x20 ADD PUSH0 KECCAK256 PUSH0 SWAP1 SSTORE PUSH2 0xD08 PUSH1 0x40 MLOAD DUP1 PUSH1 0x40 ADD PUSH1 0x40 MSTORE DUP1 PUSH1 0xC DUP2 MSTORE PUSH1 0x20 ADD PUSH32 0x534D456C6567656E646172790000000000000000000000000000000000000000 DUP2 MSTORE POP DUP1 MLOAD SWAP1 PUSH1 0x20 ADD KECCAK256 PUSH2 0x277E JUMP JUMPDEST PUSH1 0x3 ADD PUSH0 DUP6 PUSH20 0xFFFFFFFFFFFFFFFFFFFFFFFFFFFFFFFFFFFFFFFF AND PUSH20 0xFFFFFFFFFFFFFFFFFFFFFFFFFFFFFFFFFFFFFFFF AND DUP2 MSTORE PUSH1 0x20 ADD SWAP1 DUP2 MSTORE PUSH1 0x20 ADD PUSH0 KECCAK256 PUSH0 DUP4 DUP2 MSTORE PUSH1 0x20 ADD SWAP1 DUP2 MSTORE PUSH1 0x20 ADD PUSH0 KECCAK256 PUSH0 SWAP1 SSTORE POP POP POP POP JUMP JUMPDEST DUP1 PUSH2 0xDA4 PUSH1 0x40 MLOAD DUP1 PUSH1 0x40 ADD PUSH1 0x40 MSTORE DUP1 PUSH1 0xC DUP2 MSTORE PUSH1 0x20 ADD PUSH32 0x534D456C6567656E646172790000000000000000000000000000000000000000 DUP2 MSTORE POP DUP1 MLOAD SWAP1 PUSH1 0x20 ADD KECCAK256 PUSH2 0x277E JUMP JUMPDEST PUSH1 0x12 ADD PUSH0 DUP5 DUP2 MSTORE PUSH1 0x20 ADD SWAP1 DUP2 MSTORE PUSH1 0x20 ADD PUSH0 KECCAK256 PUSH0 ADD PUSH0 PUSH2 0x100 EXP DUP2 SLOAD DUP2 PUSH20 0xFFFFFFFFFFFFFFFFFFFFFFFFFFFFFFFFFFFFFFFF MUL NOT AND SWAP1 DUP4 PUSH20 0xFFFFFFFFFFFFFFFFFFFFFFFFFFFFFFFFFFFFFFFF AND MUL OR SWAP1 SSTORE POP POP POP JUMP JUMPDEST PUSH0 PUSH2 0xE3F PUSH1 0x40 MLOAD DUP1 PUSH1 0x40 ADD PUSH1 0x40 MSTORE DUP1 PUSH1 0xC DUP2 MSTORE PUSH1 0x20 ADD PUSH32 0x534D456C6567656E646172790000000000000000000000000000000000000000 DUP2 MSTORE POP DUP1 MLOAD SWAP1 PUSH1 0x20 ADD KECCAK256 PUSH2 0x277E JUMP JUMPDEST PUSH1 0x7 ADD SLOAD SWAP1 POP SWAP1 JUMP JUMPDEST PUSH0 PUSH2 0xE8E PUSH1 0x40 MLOAD DUP1 PUSH1 0x40 ADD PUSH1 0x40 MSTORE DUP1 PUSH1 0xC DUP2 MSTORE PUSH1 0x20 ADD PUSH32 0x534D456C6567656E646172790000000000000000000000000000000000000000 DUP2 MSTORE POP DUP1 MLOAD SWAP1 PUSH1 0x20 ADD KECCAK256 PUSH2 0x277E JUMP JUMPDEST PUSH1 0x11 ADD PUSH0 DUP4 PUSH20 0xFFFFFFFFFFFFFFFFFFFFFFFFFFFFFFFFFFFFFFFF AND PUSH20 0xFFFFFFFFFFFFFFFFFFFFFFFFFFFFFFFFFFFFFFFF AND DUP2 MSTORE PUSH1 0x20 ADD SWAP1 DUP2 MSTORE PUSH1 0x20 ADD PUSH0 KECCAK256 SLOAD SWAP1 POP SWAP2 SWAP1 POP JUMP JUMPDEST DUP1 PUSH2 0xF1A PUSH1 0x40 MLOAD DUP1 PUSH1 0x40 ADD PUSH1 0x40 MSTORE DUP1 PUSH1 0xC DUP2 MSTORE PUSH1 0x20 ADD PUSH32 0x534D456C6567656E646172790000000000000000000000000000000000000000 DUP2 MSTORE POP DUP1 MLOAD SWAP1 PUSH1 0x20 ADD KECCAK256 PUSH2 0x277E JUMP JUMPDEST PUSH1 0x9 ADD DUP2 SWAP1 SSTORE POP POP JUMP JUMPDEST PUSH1 0x1 PUSH2 0xF6B PUSH1 0x40 MLOAD DUP1 PUSH1 0x40 ADD PUSH1 0x40 MSTORE DUP1 PUSH1 0xC DUP2 MSTORE PUSH1 0x20 ADD PUSH32 0x534D456C6567656E646172790000000000000000000000000000000000000000 DUP2 MSTORE POP DUP1 MLOAD SWAP1 PUSH1 0x20 ADD KECCAK256 PUSH2 0x277E JUMP JUMPDEST PUSH1 0x11 ADD PUSH0 DUP4 PUSH20 0xFFFFFFFFFFFFFFFFFFFFFFFFFFFFFFFFFFFFFFFF AND PUSH20 0xFFFFFFFFFFFFFFFFFFFFFFFFFFFFFFFFFFFFFFFF AND DUP2 MSTORE PUSH1 0x20 ADD SWAP1 DUP2 MSTORE PUSH1 0x20 ADD PUSH0 KECCAK256 SLOAD PUSH2 0xFB4 SWAP2 SWAP1 PUSH2 0x2F84 JUMP JUMPDEST PUSH2 0xFF9 PUSH1 0x40 MLOAD DUP1 PUSH1 0x40 ADD PUSH1 0x40 MSTORE DUP1 PUSH1 0xC DUP2 MSTORE PUSH1 0x20 ADD PUSH32 0x534D456C6567656E646172790000000000000000000000000000000000000000 DUP2 MSTORE POP DUP1 MLOAD SWAP1 PUSH1 0x20 ADD KECCAK256 PUSH2 0x277E JUMP JUMPDEST PUSH1 0x11 ADD PUSH0 DUP4 PUSH20 0xFFFFFFFFFFFFFFFFFFFFFFFFFFFFFFFFFFFFFFFF AND PUSH20 0xFFFFFFFFFFFFFFFFFFFFFFFFFFFFFFFFFFFFFFFF AND DUP2 MSTORE PUSH1 0x20 ADD SWAP1 DUP2 MSTORE PUSH1 0x20 ADD PUSH0 KECCAK256 DUP2 SWAP1 SSTORE POP POP JUMP JUMPDEST DUP1 PUSH2 0x1084 PUSH1 0x40 MLOAD DUP1 PUSH1 0x40 ADD PUSH1 0x40 MSTORE DUP1 PUSH1 0xC DUP2 MSTORE PUSH1 0x20 ADD PUSH32 0x534D456C6567656E646172790000000000000000000000000000000000000000 DUP2 MSTORE POP DUP1 MLOAD SWAP1 PUSH1 0x20 ADD KECCAK256 PUSH2 0x277E JUMP JUMPDEST PUSH1 0x15 ADD DUP2 SWAP1 SSTORE POP POP JUMP JUMPDEST PUSH0 PUSH2 0x10D4 PUSH1 0x40 MLOAD DUP1 PUSH1 0x40 ADD PUSH1 0x40 MSTORE DUP1 PUSH1 0xC DUP2 MSTORE PUSH1 0x20 ADD PUSH32 0x534D456C6567656E646172790000000000000000000000000000000000000000 DUP2 MSTORE POP DUP1 MLOAD SWAP1 PUSH1 0x20 ADD KECCAK256 PUSH2 0x277E JUMP JUMPDEST PUSH1 0x9 ADD SLOAD SWAP1 POP SWAP1 JUMP JUMPDEST DUP1 PUSH2 0x1123 PUSH1 0x40 MLOAD DUP1 PUSH1 0x40 ADD PUSH1 0x40 MSTORE DUP1 PUSH1 0xC DUP2 MSTORE PUSH1 0x20 ADD PUSH32 0x534D456C6567656E646172790000000000000000000000000000000000000000 DUP2 MSTORE POP DUP1 MLOAD SWAP1 PUSH1 0x20 ADD KECCAK256 PUSH2 0x277E JUMP JUMPDEST PUSH1 0xC ADD DUP2 SWAP1 SSTORE POP POP JUMP JUMPDEST DUP1 PUSH2 0x1173 PUSH1 0x40 MLOAD DUP1 PUSH1 0x40 ADD PUSH1 0x40 MSTORE DUP1 PUSH1 0xC DUP2 MSTORE PUSH1 0x20 ADD PUSH32 0x534D456C6567656E646172790000000000000000000000000000000000000000 DUP2 MSTORE POP DUP1 MLOAD SWAP1 PUSH1 0x20 ADD KECCAK256 PUSH2 0x277E JUMP JUMPDEST PUSH1 0x7 ADD DUP2 SWAP1 SSTORE POP POP JUMP JUMPDEST DUP1 PUSH2 0x11C3 PUSH1 0x40 MLOAD DUP1 PUSH1 0x40 ADD PUSH1 0x40 MSTORE DUP1 PUSH1 0xC DUP2 MSTORE PUSH1 0x20 ADD PUSH32 0x534D456C6567656E646172790000000000000000000000000000000000000000 DUP2 MSTORE POP DUP1 MLOAD SWAP1 PUSH1 0x20 ADD KECCAK256 PUSH2 0x277E JUMP JUMPDEST PUSH1 0xA ADD DUP2 SWAP1 SSTORE POP POP JUMP JUMPDEST PUSH0 PUSH1 0x1 PUSH2 0x1215 PUSH1 0x40 MLOAD DUP1 PUSH1 0x40 ADD PUSH1 0x40 MSTORE DUP1 PUSH1 0xC DUP2 MSTORE PUSH1 0x20 ADD PUSH32 0x534D456C6567656E646172790000000000000000000000000000000000000000 DUP2 MSTORE POP DUP1 MLOAD SWAP1 PUSH1 0x20 ADD KECCAK256 PUSH2 0x277E JUMP JUMPDEST PUSH1 0x5 ADD DUP1 SLOAD SWAP1 POP PUSH2 0x1226 SWAP2 SWAP1 PUSH2 0x2F84 JUMP JUMPDEST SWAP1 POP PUSH0 PUSH2 0x126E PUSH1 0x40 MLOAD DUP1 PUSH1 0x40 ADD PUSH1 0x40 MSTORE DUP1 PUSH1 0xC DUP2 MSTORE PUSH1 0x20 ADD PUSH32 0x534D456C6567656E646172790000000000000000000000000000000000000000 DUP2 MSTORE POP DUP1 MLOAD SWAP1 PUSH1 0x20 ADD KECCAK256 PUSH2 0x277E JUMP JUMPDEST PUSH1 0x6 ADD PUSH0 DUP5 DUP2 MSTORE PUSH1 0x20 ADD SWAP1 DUP2 MSTORE PUSH1 0x20 ADD PUSH0 KECCAK256 SLOAD SWAP1 POP PUSH0 PUSH2 0x12C9 PUSH1 0x40 MLOAD DUP1 PUSH1 0x40 ADD PUSH1 0x40 MSTORE DUP1 PUSH1 0xC DUP2 MSTORE PUSH1 0x20 ADD PUSH32 0x534D456C6567656E646172790000000000000000000000000000000000000000 DUP2 MSTORE POP DUP1 MLOAD SWAP1 PUSH1 0x20 ADD KECCAK256 PUSH2 0x277E JUMP JUMPDEST PUSH1 0x5 ADD DUP4 DUP2 SLOAD DUP2 LT PUSH2 0x12DE JUMPI PUSH2 0x12DD PUSH2 0x2FB7 JUMP JUMPDEST JUMPDEST SWAP1 PUSH0 MSTORE PUSH1 0x20 PUSH0 KECCAK256 ADD SLOAD SWAP1 POP DUP1 PUSH2 0x132F PUSH1 0x40 MLOAD DUP1 PUSH1 0x40 ADD PUSH1 0x40 MSTORE DUP1 PUSH1 0xC DUP2 MSTORE PUSH1 0x20 ADD PUSH32 0x534D456C6567656E646172790000000000000000000000000000000000000000 DUP2 MSTORE POP DUP1 MLOAD SWAP1 PUSH1 0x20 ADD KECCAK256 PUSH2 0x277E JUMP JUMPDEST PUSH1 0x5 ADD DUP4 DUP2 SLOAD DUP2 LT PUSH2 0x1344 JUMPI PUSH2 0x1343 PUSH2 0x2FB7 JUMP JUMPDEST JUMPDEST SWAP1 PUSH0 MSTORE PUSH1 0x20 PUSH0 KECCAK256 ADD DUP2 SWAP1 SSTORE POP DUP2 PUSH2 0x1396 PUSH1 0x40 MLOAD DUP1 PUSH1 0x40 ADD PUSH1 0x40 MSTORE DUP1 PUSH1 0xC DUP2 MSTORE PUSH1 0x20 ADD PUSH32 0x534D456C6567656E646172790000000000000000000000000000000000000000 DUP2 MSTORE POP DUP1 MLOAD SWAP1 PUSH1 0x20 ADD KECCAK256 PUSH2 0x277E JUMP JUMPDEST PUSH1 0x6 ADD PUSH0 DUP4 DUP2 MSTORE PUSH1 0x20 ADD SWAP1 DUP2 MSTORE PUSH1 0x20 ADD PUSH0 KECCAK256 DUP2 SWAP1 SSTORE POP PUSH2 0x13F1 PUSH1 0x40 MLOAD DUP1 PUSH1 0x40 ADD PUSH1 0x40 MSTORE DUP1 PUSH1 0xC DUP2 MSTORE PUSH1 0x20 ADD PUSH32 0x534D456C6567656E646172790000000000000000000000000000000000000000 DUP2 MSTORE POP DUP1 MLOAD SWAP1 PUSH1 0x20 ADD KECCAK256 PUSH2 0x277E JUMP JUMPDEST PUSH1 0x6 ADD PUSH0 DUP6 DUP2 MSTORE PUSH1 0x20 ADD SWAP1 DUP2 MSTORE PUSH1 0x20 ADD PUSH0 KECCAK256 PUSH0 SWAP1 SSTORE PUSH2 0x144B PUSH1 0x40 MLOAD DUP1 PUSH1 0x40 ADD PUSH1 0x40 MSTORE DUP1 PUSH1 0xC DUP2 MSTORE PUSH1 0x20 ADD PUSH32 0x534D456C6567656E646172790000000000000000000000000000000000000000 DUP2 MSTORE POP DUP1 MLOAD SWAP1 PUSH1 0x20 ADD KECCAK256 PUSH2 0x277E JUMP JUMPDEST PUSH1 0x5 ADD DUP1 SLOAD DUP1 PUSH2 0x145E JUMPI PUSH2 0x145D PUSH2 0x2FE4 JUMP JUMPDEST JUMPDEST PUSH1 0x1 SWAP1 SUB DUP2 DUP2 SWAP1 PUSH0 MSTORE PUSH1 0x20 PUSH0 KECCAK256 ADD PUSH0 SWAP1 SSTORE SWAP1 SSTORE POP POP POP POP JUMP JUMPDEST DUP1 PUSH2 0x14BD PUSH1 0x40 MLOAD DUP1 PUSH1 0x40 ADD PUSH1 0x40 MSTORE DUP1 PUSH1 0xC DUP2 MSTORE PUSH1 0x20 ADD PUSH32 0x534D456C6567656E646172790000000000000000000000000000000000000000 DUP2 MSTORE POP DUP1 MLOAD SWAP1 PUSH1 0x20 ADD KECCAK256 PUSH2 0x277E JUMP JUMPDEST PUSH1 0xF ADD SWAP1 DUP2 PUSH2 0x14CC SWAP2 SWAP1 PUSH2 0x31B1 JUMP JUMPDEST POP POP JUMP JUMPDEST PUSH0 PUSH2 0x1516 PUSH1 0x40 MLOAD DUP1 PUSH1 0x40 ADD PUSH1 0x40 MSTORE DUP1 PUSH1 0xC DUP2 MSTORE PUSH1 0x20 ADD PUSH32 0x534D456C6567656E646172790000000000000000000000000000000000000000 DUP2 MSTORE POP DUP1 MLOAD SWAP1 PUSH1 0x20 ADD KECCAK256 PUSH2 0x277E JUMP JUMPDEST PUSH1 0xD ADD SLOAD SWAP1 POP SWAP1 JUMP JUMPDEST PUSH0 PUSH2 0x1565 PUSH1 0x40 MLOAD DUP1 PUSH1 0x40 ADD PUSH1 0x40 MSTORE DUP1 PUSH1 0xC DUP2 MSTORE PUSH1 0x20 ADD PUSH32 0x534D456C6567656E646172790000000000000000000000000000000000000000 DUP2 MSTORE POP DUP1 MLOAD SWAP1 PUSH1 0x20 ADD KECCAK256 PUSH2 0x277E JUMP JUMPDEST PUSH1 0x10 ADD PUSH0 DUP4 DUP2 MSTORE PUSH1 0x20 ADD SWAP1 DUP2 MSTORE PUSH1 0x20 ADD PUSH0 KECCAK256 SLOAD SWAP1 POP SWAP2 SWAP1 POP JUMP JUMPDEST DUP1 PUSH2 0x15C5 PUSH1 0x40 MLOAD DUP1 PUSH1 0x40 ADD PUSH1 0x40 MSTORE DUP1 PUSH1 0xC DUP2 MSTORE PUSH1 0x20 ADD PUSH32 0x534D456C6567656E646172790000000000000000000000000000000000000000 DUP2 MSTORE POP DUP1 MLOAD SWAP1 PUSH1 0x20 ADD KECCAK256 PUSH2 0x277E JUMP JUMPDEST PUSH1 0x3 ADD PUSH0 DUP6 PUSH20 0xFFFFFFFFFFFFFFFFFFFFFFFFFFFFFFFFFFFFFFFF AND PUSH20 0xFFFFFFFFFFFFFFFFFFFFFFFFFFFFFFFFFFFFFFFF AND DUP2 MSTORE PUSH1 0x20 ADD SWAP1 DUP2 MSTORE PUSH1 0x20 ADD PUSH0 KECCAK256 PUSH0 DUP5 DUP2 MSTORE PUSH1 0x20 ADD SWAP1 DUP2 MSTORE PUSH1 0x20 ADD PUSH0 KECCAK256 DUP2 SWAP1 SSTORE POP POP POP POP JUMP JUMPDEST DUP2 PUSH2 0x1661 PUSH1 0x40 MLOAD DUP1 PUSH1 0x40 ADD PUSH1 0x40 MSTORE DUP1 PUSH1 0xC DUP2 MSTORE PUSH1 0x20 ADD PUSH32 0x534D456C6567656E646172790000000000000000000000000000000000000000 DUP2 MSTORE POP DUP1 MLOAD SWAP1 PUSH1 0x20 ADD KECCAK256 PUSH2 0x277E JUMP JUMPDEST PUSH1 0x3 ADD PUSH0 DUP6 PUSH20 0xFFFFFFFFFFFFFFFFFFFFFFFFFFFFFFFFFFFFFFFF AND PUSH20 0xFFFFFFFFFFFFFFFFFFFFFFFFFFFFFFFFFFFFFFFF AND DUP2 MSTORE PUSH1 0x20 ADD SWAP1 DUP2 MSTORE PUSH1 0x20 ADD PUSH0 KECCAK256 PUSH0 DUP4 DUP2 MSTORE PUSH1 0x20 ADD SWAP1 DUP2 MSTORE PUSH1 0x20 ADD PUSH0 KECCAK256 DUP2 SWAP1 SSTORE POP DUP1 PUSH2 0x16F8 PUSH1 0x40 MLOAD DUP1 PUSH1 0x40 ADD PUSH1 0x40 MSTORE DUP1 PUSH1 0xC DUP2 MSTORE PUSH1 0x20 ADD PUSH32 0x534D456C6567656E646172790000000000000000000000000000000000000000 DUP2 MSTORE POP DUP1 MLOAD SWAP1 PUSH1 0x20 ADD KECCAK256 PUSH2 0x277E JUMP JUMPDEST PUSH1 0x4 ADD PUSH0 DUP5 DUP2 MSTORE PUSH1 0x20 ADD SWAP1 DUP2 MSTORE PUSH1 0x20 ADD PUSH0 KECCAK256 DUP2 SWAP1 SSTORE POP POP POP POP JUMP JUMPDEST DUP1 PUSH2 0x1759 PUSH1 0x40 MLOAD DUP1 PUSH1 0x40 ADD PUSH1 0x40 MSTORE DUP1 PUSH1 0xC DUP2 MSTORE PUSH1 0x20 ADD PUSH32 0x534D456C6567656E646172790000000000000000000000000000000000000000 DUP2 MSTORE POP DUP1 MLOAD SWAP1 PUSH1 0x20 ADD KECCAK256 PUSH2 0x277E JUMP JUMPDEST PUSH1 0xE ADD SWAP1 DUP2 PUSH2 0x1768 SWAP2 SWAP1 PUSH2 0x31B1 JUMP JUMPDEST POP POP JUMP JUMPDEST PUSH1 0x60 PUSH2 0x17B3 PUSH1 0x40 MLOAD DUP1 PUSH1 0x40 ADD PUSH1 0x40 MSTORE DUP1 PUSH1 0xC DUP2 MSTORE PUSH1 0x20 ADD PUSH32 0x534D456C6567656E646172790000000000000000000000000000000000000000 DUP2 MSTORE POP DUP1 MLOAD SWAP1 PUSH1 0x20 ADD KECCAK256 PUSH2 0x277E JUMP JUMPDEST PUSH1 0x2 ADD PUSH0 DUP4 DUP2 MSTORE PUSH1 0x20 ADD SWAP1 DUP2 MSTORE PUSH1 0x20 ADD PUSH0 KECCAK256 DUP1 SLOAD PUSH2 0x17D0 SWAP1 PUSH2 0x2F27 JUMP JUMPDEST DUP1 PUSH1 0x1F ADD PUSH1 0x20 DUP1 SWAP2 DIV MUL PUSH1 0x20 ADD PUSH1 0x40 MLOAD SWAP1 DUP2 ADD PUSH1 0x40 MSTORE DUP1 SWAP3 SWAP2 SWAP1 DUP2 DUP2 MSTORE PUSH1 0x20 ADD DUP3 DUP1 SLOAD PUSH2 0x17FC SWAP1 PUSH2 0x2F27 JUMP JUMPDEST DUP1 ISZERO PUSH2 0x1847 JUMPI DUP1 PUSH1 0x1F LT PUSH2 0x181E JUMPI PUSH2 0x100 DUP1 DUP4 SLOAD DIV MUL DUP4 MSTORE SWAP2 PUSH1 0x20 ADD SWAP2 PUSH2 0x1847 JUMP JUMPDEST DUP3 ADD SWAP2 SWAP1 PUSH0 MSTORE PUSH1 0x20 PUSH0 KECCAK256 SWAP1 JUMPDEST DUP2 SLOAD DUP2 MSTORE SWAP1 PUSH1 0x1 ADD SWAP1 PUSH1 0x20 ADD DUP1 DUP4 GT PUSH2 0x182A JUMPI DUP3 SWAP1 SUB PUSH1 0x1F AND DUP3 ADD SWAP2 JUMPDEST POP POP POP POP POP SWAP1 POP SWAP2 SWAP1 POP JUMP JUMPDEST PUSH1 0x60 PUSH2 0x189A PUSH1 0x40 MLOAD DUP1 PUSH1 0x40 ADD PUSH1 0x40 MSTORE DUP1 PUSH1 0xC DUP2 MSTORE PUSH1 0x20 ADD PUSH32 0x534D456C6567656E646172790000000000000000000000000000000000000000 DUP2 MSTORE POP DUP1 MLOAD SWAP1 PUSH1 0x20 ADD KECCAK256 PUSH2 0x277E JUMP JUMPDEST PUSH1 0x5 ADD DUP1 SLOAD DUP1 PUSH1 0x20 MUL PUSH1 0x20 ADD PUSH1 0x40 MLOAD SWAP1 DUP2 ADD PUSH1 0x40 MSTORE DUP1 SWAP3 SWAP2 SWAP1 DUP2 DUP2 MSTORE PUSH1 0x20 ADD DUP3 DUP1 SLOAD DUP1 ISZERO PUSH2 0x18E5 JUMPI PUSH1 0x20 MUL DUP3 ADD SWAP2 SWAP1 PUSH0 MSTORE PUSH1 0x20 PUSH0 KECCAK256 SWAP1 JUMPDEST DUP2 SLOAD DUP2 MSTORE PUSH1 0x20 ADD SWAP1 PUSH1 0x1 ADD SWAP1 DUP1 DUP4 GT PUSH2 0x18D1 JUMPI JUMPDEST POP POP POP POP POP SWAP1 POP SWAP1 JUMP JUMPDEST PUSH0 PUSH2 0x1935 PUSH1 0x40 MLOAD DUP1 PUSH1 0x40 ADD PUSH1 0x40 MSTORE DUP1 PUSH1 0xC DUP2 MSTORE PUSH1 0x20 ADD PUSH32 0x534D456C6567656E646172790000000000000000000000000000000000000000 DUP2 MSTORE POP DUP1 MLOAD SWAP1 PUSH1 0x20 ADD KECCAK256 PUSH2 0x277E JUMP JUMPDEST PUSH1 0x4 ADD PUSH0 DUP4 DUP2 MSTORE PUSH1 0x20 ADD SWAP1 DUP2 MSTORE PUSH1 0x20 ADD PUSH0 KECCAK256 SLOAD SWAP1 POP SWAP2 SWAP1 POP JUMP JUMPDEST PUSH0 PUSH2 0x1995 PUSH1 0x40 MLOAD DUP1 PUSH1 0x40 ADD PUSH1 0x40 MSTORE DUP1 PUSH1 0xC DUP2 MSTORE PUSH1 0x20 ADD PUSH32 0x534D456C6567656E646172790000000000000000000000000000000000000000 DUP2 MSTORE POP DUP1 MLOAD SWAP1 PUSH1 0x20 ADD KECCAK256 PUSH2 0x277E JUMP JUMPDEST PUSH1 0x14 ADD SLOAD SWAP1 POP PUSH1 0x1 DUP2 PUSH2 0x19A8 SWAP2 SWAP1 PUSH2 0x3280 JUMP JUMPDEST PUSH2 0x19ED PUSH1 0x40 MLOAD DUP1 PUSH1 0x40 ADD PUSH1 0x40 MSTORE DUP1 PUSH1 0xC DUP2 MSTORE PUSH1 0x20 ADD PUSH32 0x534D456C6567656E646172790000000000000000000000000000000000000000 DUP2 MSTORE POP DUP1 MLOAD SWAP1 PUSH1 0x20 ADD KECCAK256 PUSH2 0x277E JUMP JUMPDEST PUSH1 0x14 ADD DUP2 SWAP1 SSTORE POP POP JUMP JUMPDEST DUP1 PUSH2 0x1A3D PUSH1 0x40 MLOAD DUP1 PUSH1 0x40 ADD PUSH1 0x40 MSTORE DUP1 PUSH1 0xC DUP2 MSTORE PUSH1 0x20 ADD PUSH32 0x534D456C6567656E646172790000000000000000000000000000000000000000 DUP2 MSTORE POP DUP1 MLOAD SWAP1 PUSH1 0x20 ADD KECCAK256 PUSH2 0x277E JUMP JUMPDEST PUSH1 0x1 ADD SWAP1 DUP2 PUSH2 0x1A4C SWAP2 SWAP1 PUSH2 0x31B1 JUMP JUMPDEST POP POP JUMP JUMPDEST DUP1 PUSH2 0x1A96 PUSH1 0x40 MLOAD DUP1 PUSH1 0x40 ADD PUSH1 0x40 MSTORE DUP1 PUSH1 0xC DUP2 MSTORE PUSH1 0x20 ADD PUSH32 0x534D456C6567656E646172790000000000000000000000000000000000000000 DUP2 MSTORE POP DUP1 MLOAD SWAP1 PUSH1 0x20 ADD KECCAK256 PUSH2 0x277E JUMP JUMPDEST PUSH1 0x13 ADD PUSH0 DUP6 PUSH20 0xFFFFFFFFFFFFFFFFFFFFFFFFFFFFFFFFFFFFFFFF AND PUSH20 0xFFFFFFFFFFFFFFFFFFFFFFFFFFFFFFFFFFFFFFFF AND DUP2 MSTORE PUSH1 0x20 ADD SWAP1 DUP2 MSTORE PUSH1 0x20 ADD PUSH0 KECCAK256 PUSH0 DUP5 PUSH20 0xFFFFFFFFFFFFFFFFFFFFFFFFFFFFFFFFFFFFFFFF AND PUSH20 0xFFFFFFFFFFFFFFFFFFFFFFFFFFFFFFFFFFFFFFFF AND DUP2 MSTORE PUSH1 0x20 ADD SWAP1 DUP2 MSTORE PUSH1 0x20 ADD PUSH0 KECCAK256 PUSH0 PUSH2 0x100 EXP DUP2 SLOAD DUP2 PUSH1 0xFF MUL NOT AND SWAP1 DUP4 ISZERO ISZERO MUL OR SWAP1 SSTORE POP POP POP POP JUMP JUMPDEST DUP1 PUSH2 0x1B70 PUSH1 0x40 MLOAD DUP1 PUSH1 0x40 ADD PUSH1 0x40 MSTORE DUP1 PUSH1 0xC DUP2 MSTORE PUSH1 0x20 ADD PUSH32 0x534D456C6567656E646172790000000000000000000000000000000000000000 DUP2 MSTORE POP DUP1 MLOAD SWAP1 PUSH1 0x20 ADD KECCAK256 PUSH2 0x277E JUMP JUMPDEST PUSH1 0x8 ADD DUP2 SWAP1 SSTORE POP POP JUMP JUMPDEST DUP1 PUSH2 0x1BC0 PUSH1 0x40 MLOAD DUP1 PUSH1 0x40 ADD PUSH1 0x40 MSTORE DUP1 PUSH1 0xC DUP2 MSTORE PUSH1 0x20 ADD PUSH32 0x534D456C6567656E646172790000000000000000000000000000000000000000 DUP2 MSTORE POP DUP1 MLOAD SWAP1 PUSH1 0x20 ADD KECCAK256 PUSH2 0x277E JUMP JUMPDEST PUSH1 0xD ADD DUP2 SWAP1 SSTORE POP POP JUMP JUMPDEST PUSH0 PUSH2 0x1C10 PUSH1 0x40 MLOAD DUP1 PUSH1 0x40 ADD PUSH1 0x40 MSTORE DUP1 PUSH1 0xC DUP2 MSTORE PUSH1 0x20 ADD PUSH32 0x534D456C6567656E646172790000000000000000000000000000000000000000 DUP2 MSTORE POP DUP1 MLOAD SWAP1 PUSH1 0x20 ADD KECCAK256 PUSH2 0x277E JUMP JUMPDEST PUSH1 0xC ADD SLOAD SWAP1 POP SWAP1 JUMP JUMPDEST PUSH1 0x60 PUSH2 0x1C60 PUSH1 0x40 MLOAD DUP1 PUSH1 0x40 ADD PUSH1 0x40 MSTORE DUP1 PUSH1 0xC DUP2 MSTORE PUSH1 0x20 ADD PUSH32 0x534D456C6567656E646172790000000000000000000000000000000000000000 DUP2 MSTORE POP DUP1 MLOAD SWAP1 PUSH1 0x20 ADD KECCAK256 PUSH2 0x277E JUMP JUMPDEST PUSH1 0xF ADD DUP1 SLOAD PUSH2 0x1C6E SWAP1 PUSH2 0x2F27 JUMP JUMPDEST DUP1 PUSH1 0x1F ADD PUSH1 0x20 DUP1 SWAP2 DIV MUL PUSH1 0x20 ADD PUSH1 0x40 MLOAD SWAP1 DUP2 ADD PUSH1 0x40 MSTORE DUP1 SWAP3 SWAP2 SWAP1 DUP2 DUP2 MSTORE PUSH1 0x20 ADD DUP3 DUP1 SLOAD PUSH2 0x1C9A SWAP1 PUSH2 0x2F27 JUMP JUMPDEST DUP1 ISZERO PUSH2 0x1CE5 JUMPI DUP1 PUSH1 0x1F LT PUSH2 0x1CBC JUMPI PUSH2 0x100 DUP1 DUP4 SLOAD DIV MUL DUP4 MSTORE SWAP2 PUSH1 0x20 ADD SWAP2 PUSH2 0x1CE5 JUMP JUMPDEST DUP3 ADD SWAP2 SWAP1 PUSH0 MSTORE PUSH1 0x20 PUSH0 KECCAK256 SWAP1 JUMPDEST DUP2 SLOAD DUP2 MSTORE SWAP1 PUSH1 0x1 ADD SWAP1 PUSH1 0x20 ADD DUP1 DUP4 GT PUSH2 0x1CC8 JUMPI DUP3 SWAP1 SUB PUSH1 0x1F AND DUP3 ADD SWAP2 JUMPDEST POP POP POP POP POP SWAP1 POP SWAP1 JUMP JUMPDEST PUSH1 0x60 PUSH2 0x1D36 PUSH1 0x40 MLOAD DUP1 PUSH1 0x40 ADD PUSH1 0x40 MSTORE DUP1 PUSH1 0xC DUP2 MSTORE PUSH1 0x20 ADD PUSH32 0x534D456C6567656E646172790000000000000000000000000000000000000000 DUP2 MSTORE POP DUP1 MLOAD SWAP1 PUSH1 0x20 ADD KECCAK256 PUSH2 0x277E JUMP JUMPDEST PUSH1 0x1 ADD DUP1 SLOAD PUSH2 0x1D44 SWAP1 PUSH2 0x2F27 JUMP JUMPDEST DUP1 PUSH1 0x1F ADD PUSH1 0x20 DUP1 SWAP2 DIV MUL PUSH1 0x20 ADD PUSH1 0x40 MLOAD SWAP1 DUP2 ADD PUSH1 0x40 MSTORE DUP1 SWAP3 SWAP2 SWAP1 DUP2 DUP2 MSTORE PUSH1 0x20 ADD DUP3 DUP1 SLOAD PUSH2 0x1D70 SWAP1 PUSH2 0x2F27 JUMP JUMPDEST DUP1 ISZERO PUSH2 0x1DBB JUMPI DUP1 PUSH1 0x1F LT PUSH2 0x1D92 JUMPI PUSH2 0x100 DUP1 DUP4 SLOAD DIV MUL DUP4 MSTORE SWAP2 PUSH1 0x20 ADD SWAP2 PUSH2 0x1DBB JUMP JUMPDEST DUP3 ADD SWAP2 SWAP1 PUSH0 MSTORE PUSH1 0x20 PUSH0 KECCAK256 SWAP1 JUMPDEST DUP2 SLOAD DUP2 MSTORE SWAP1 PUSH1 0x1 ADD SWAP1 PUSH1 0x20 ADD DUP1 DUP4 GT PUSH2 0x1D9E JUMPI DUP3 SWAP1 SUB PUSH1 0x1F AND DUP3 ADD SWAP2 JUMPDEST POP POP POP POP POP SWAP1 POP SWAP1 JUMP JUMPDEST PUSH0 PUSH2 0x1E0B PUSH1 0x40 MLOAD DUP1 PUSH1 0x40 ADD PUSH1 0x40 MSTORE DUP1 PUSH1 0xC DUP2 MSTORE PUSH1 0x20 ADD PUSH32 0x534D456C6567656E646172790000000000000000000000000000000000000000 DUP2 MSTORE POP DUP1 MLOAD SWAP1 PUSH1 0x20 ADD KECCAK256 PUSH2 0x277E JUMP JUMPDEST PUSH1 0x15 ADD SLOAD SWAP1 POP SWAP1 JUMP JUMPDEST DUP1 PUSH2 0x1E5A PUSH1 0x40 MLOAD DUP1 PUSH1 0x40 ADD PUSH1 0x40 MSTORE DUP1 PUSH1 0xC DUP2 MSTORE PUSH1 0x20 ADD PUSH32 0x534D456C6567656E646172790000000000000000000000000000000000000000 DUP2 MSTORE POP DUP1 MLOAD SWAP1 PUSH1 0x20 ADD KECCAK256 PUSH2 0x277E JUMP JUMPDEST PUSH0 ADD SWAP1 DUP2 PUSH2 0x1E68 SWAP2 SWAP1 PUSH2 0x31B1 JUMP JUMPDEST POP POP JUMP JUMPDEST DUP1 PUSH2 0x1EB2 PUSH1 0x40 MLOAD DUP1 PUSH1 0x40 ADD PUSH1 0x40 MSTORE DUP1 PUSH1 0xC DUP2 MSTORE PUSH1 0x20 ADD PUSH32 0x534D456C6567656E646172790000000000000000000000000000000000000000 DUP2 MSTORE POP DUP1 MLOAD SWAP1 PUSH1 0x20 ADD KECCAK256 PUSH2 0x277E JUMP JUMPDEST PUSH1 0x11 ADD PUSH0 DUP5 PUSH20 0xFFFFFFFFFFFFFFFFFFFFFFFFFFFFFFFFFFFFFFFF AND PUSH20 0xFFFFFFFFFFFFFFFFFFFFFFFFFFFFFFFFFFFFFFFF AND DUP2 MSTORE PUSH1 0x20 ADD SWAP1 DUP2 MSTORE PUSH1 0x20 ADD PUSH0 KECCAK256 DUP2 SWAP1 SSTORE POP POP POP JUMP JUMPDEST PUSH2 0x1F00 PUSH2 0x2787 JUMP JUMPDEST PUSH2 0x1F45 PUSH1 0x40 MLOAD DUP1 PUSH1 0x40 ADD PUSH1 0x40 MSTORE DUP1 PUSH1 0xC DUP2 MSTORE PUSH1 0x20 ADD PUSH32 0x534D456C6567656E646172790000000000000000000000000000000000000000 DUP2 MSTORE POP DUP1 MLOAD SWAP1 PUSH1 0x20 ADD KECCAK256 PUSH2 0x277E JUMP JUMPDEST PUSH1 0x12 ADD PUSH0 DUP4 DUP2 MSTORE PUSH1 0x20 ADD SWAP1 DUP2 MSTORE PUSH1 0x20 ADD PUSH0 KECCAK256 PUSH1 0x40 MLOAD DUP1 PUSH1 0x20 ADD PUSH1 0x40 MSTORE SWAP1 DUP2 PUSH0 DUP3 ADD PUSH0 SWAP1 SLOAD SWAP1 PUSH2 0x100 EXP SWAP1 DIV PUSH20 0xFFFFFFFFFFFFFFFFFFFFFFFFFFFFFFFFFFFFFFFF AND PUSH20 0xFFFFFFFFFFFFFFFFFFFFFFFFFFFFFFFFFFFFFFFF AND PUSH20 0xFFFFFFFFFFFFFFFFFFFFFFFFFFFFFFFFFFFFFFFF AND DUP2 MSTORE POP POP SWAP1 POP SWAP2 SWAP1 POP JUMP JUMPDEST DUP1 PUSH2 0x2003 PUSH1 0x40 MLOAD DUP1 PUSH1 0x40 ADD PUSH1 0x40 MSTORE DUP1 PUSH1 0xC DUP2 MSTORE PUSH1 0x20 ADD PUSH32 0x534D456C6567656E646172790000000000000000000000000000000000000000 DUP2 MSTORE POP DUP1 MLOAD SWAP1 PUSH1 0x20 ADD KECCAK256 PUSH2 0x277E JUMP JUMPDEST PUSH1 0x4 ADD PUSH0 DUP5 DUP2 MSTORE PUSH1 0x20 ADD SWAP1 DUP2 MSTORE PUSH1 0x20 ADD PUSH0 KECCAK256 DUP2 SWAP1 SSTORE POP POP POP JUMP JUMPDEST DUP1 PUSH2 0x2063 PUSH1 0x40 MLOAD DUP1 PUSH1 0x40 ADD PUSH1 0x40 MSTORE DUP1 PUSH1 0xC DUP2 MSTORE PUSH1 0x20 ADD PUSH32 0x534D456C6567656E646172790000000000000000000000000000000000000000 DUP2 MSTORE POP DUP1 MLOAD SWAP1 PUSH1 0x20 ADD KECCAK256 PUSH2 0x277E JUMP JUMPDEST PUSH1 0xB ADD PUSH0 DUP5 PUSH20 0xFFFFFFFFFFFFFFFFFFFFFFFFFFFFFFFFFFFFFFFF AND PUSH20 0xFFFFFFFFFFFFFFFFFFFFFFFFFFFFFFFFFFFFFFFF AND DUP2 MSTORE PUSH1 0x20 ADD SWAP1 DUP2 MSTORE PUSH1 0x20 ADD PUSH0 KECCAK256 PUSH0 PUSH2 0x100 EXP DUP2 SLOAD DUP2 PUSH1 0xFF MUL NOT AND SWAP1 DUP4 ISZERO ISZERO MUL OR SWAP1 SSTORE POP POP POP JUMP JUMPDEST PUSH0 PUSH2 0x2101 PUSH1 0x40 MLOAD DUP1 PUSH1 0x40 ADD PUSH1 0x40 MSTORE DUP1 PUSH1 0xC DUP2 MSTORE PUSH1 0x20 ADD PUSH32 0x534D456C6567656E646172790000000000000000000000000000000000000000 DUP2 MSTORE POP DUP1 MLOAD SWAP1 PUSH1 0x20 ADD KECCAK256 PUSH2 0x277E JUMP JUMPDEST PUSH1 0xB ADD PUSH0 DUP4 PUSH20 0xFFFFFFFFFFFFFFFFFFFFFFFFFFFFFFFFFFFFFFFF AND PUSH20 0xFFFFFFFFFFFFFFFFFFFFFFFFFFFFFFFFFFFFFFFF AND DUP2 MSTORE PUSH1 0x20 ADD SWAP1 DUP2 MSTORE PUSH1 0x20 ADD PUSH0 KECCAK256 PUSH0 SWAP1 SLOAD SWAP1 PUSH2 0x100 EXP SWAP1 DIV PUSH1 0xFF AND SWAP1 POP SWAP2 SWAP1 POP JUMP JUMPDEST PUSH1 0x1 PUSH2 0x219A PUSH1 0x40 MLOAD DUP1 PUSH1 0x40 ADD PUSH1 0x40 MSTORE DUP1 PUSH1 0xC DUP2 MSTORE PUSH1 0x20 ADD PUSH32 0x534D456C6567656E646172790000000000000000000000000000000000000000 DUP2 MSTORE POP DUP1 MLOAD SWAP1 PUSH1 0x20 ADD KECCAK256 PUSH2 0x277E JUMP JUMPDEST PUSH1 0x11 ADD PUSH0 DUP4 PUSH20 0xFFFFFFFFFFFFFFFFFFFFFFFFFFFFFFFFFFFFFFFF AND PUSH20 0xFFFFFFFFFFFFFFFFFFFFFFFFFFFFFFFFFFFFFFFF AND DUP2 MSTORE PUSH1 0x20 ADD SWAP1 DUP2 MSTORE PUSH1 0x20 ADD PUSH0 KECCAK256 SLOAD PUSH2 0x21E3 SWAP2 SWAP1 PUSH2 0x3280 JUMP JUMPDEST PUSH2 0x2228 PUSH1 0x40 MLOAD DUP1 PUSH1 0x40 ADD PUSH1 0x40 MSTORE DUP1 PUSH1 0xC DUP2 MSTORE PUSH1 0x20 ADD PUSH32 0x534D456C6567656E646172790000000000000000000000000000000000000000 DUP2 MSTORE POP DUP1 MLOAD SWAP1 PUSH1 0x20 ADD KECCAK256 PUSH2 0x277E JUMP JUMPDEST PUSH1 0x11 ADD PUSH0 DUP4 PUSH20 0xFFFFFFFFFFFFFFFFFFFFFFFFFFFFFFFFFFFFFFFF AND PUSH20 0xFFFFFFFFFFFFFFFFFFFFFFFFFFFFFFFFFFFFFFFF AND DUP2 MSTORE PUSH1 0x20 ADD SWAP1 DUP2 MSTORE PUSH1 0x20 ADD PUSH0 KECCAK256 DUP2 SWAP1 SSTORE POP POP JUMP JUMPDEST PUSH0 PUSH2 0x22B3 PUSH1 0x40 MLOAD DUP1 PUSH1 0x40 ADD PUSH1 0x40 MSTORE DUP1 PUSH1 0xC DUP2 MSTORE PUSH1 0x20 ADD PUSH32 0x534D456C6567656E646172790000000000000000000000000000000000000000 DUP2 MSTORE POP DUP1 MLOAD SWAP1 PUSH1 0x20 ADD KECCAK256 PUSH2 0x277E JUMP JUMPDEST PUSH1 0x14 ADD SLOAD SWAP1 POP SWAP1 JUMP JUMPDEST PUSH1 0x60 PUSH2 0x2303 PUSH1 0x40 MLOAD DUP1 PUSH1 0x40 ADD PUSH1 0x40 MSTORE DUP1 PUSH1 0xC DUP2 MSTORE PUSH1 0x20 ADD PUSH32 0x534D456C6567656E646172790000000000000000000000000000000000000000 DUP2 MSTORE POP DUP1 MLOAD SWAP1 PUSH1 0x20 ADD KECCAK256 PUSH2 0x277E JUMP JUMPDEST PUSH0 ADD DUP1 SLOAD PUSH2 0x2310 SWAP1 PUSH2 0x2F27 JUMP JUMPDEST DUP1 PUSH1 0x1F ADD PUSH1 0x20 DUP1 SWAP2 DIV MUL PUSH1 0x20 ADD PUSH1 0x40 MLOAD SWAP1 DUP2 ADD PUSH1 0x40 MSTORE DUP1 SWAP3 SWAP2 SWAP1 DUP2 DUP2 MSTORE PUSH1 0x20 ADD DUP3 DUP1 SLOAD PUSH2 0x233C SWAP1 PUSH2 0x2F27 JUMP JUMPDEST DUP1 ISZERO PUSH2 0x2387 JUMPI DUP1 PUSH1 0x1F LT PUSH2 0x235E JUMPI PUSH2 0x100 DUP1 DUP4 SLOAD DIV MUL DUP4 MSTORE SWAP2 PUSH1 0x20 ADD SWAP2 PUSH2 0x2387 JUMP JUMPDEST DUP3 ADD SWAP2 SWAP1 PUSH0 MSTORE PUSH1 0x20 PUSH0 KECCAK256 SWAP1 JUMPDEST DUP2 SLOAD DUP2 MSTORE SWAP1 PUSH1 0x1 ADD SWAP1 PUSH1 0x20 ADD DUP1 DUP4 GT PUSH2 0x236A JUMPI DUP3 SWAP1 SUB PUSH1 0x1F AND DUP3 ADD SWAP2 JUMPDEST POP POP POP POP POP SWAP1 POP SWAP1 JUMP JUMPDEST PUSH2 0x23D6 PUSH1 0x40 MLOAD DUP1 PUSH1 0x40 ADD PUSH1 0x40 MSTORE DUP1 PUSH1 0xC DUP2 MSTORE PUSH1 0x20 ADD PUSH32 0x534D456C6567656E646172790000000000000000000000000000000000000000 DUP2 MSTORE POP DUP1 MLOAD SWAP1 PUSH1 0x20 ADD KECCAK256 PUSH2 0x277E JUMP JUMPDEST PUSH1 0x5 ADD DUP1 SLOAD SWAP1 POP PUSH2 0x2422 PUSH1 0x40 MLOAD DUP1 PUSH1 0x40 ADD PUSH1 0x40 MSTORE DUP1 PUSH1 0xC DUP2 MSTORE PUSH1 0x20 ADD PUSH32 0x534D456C6567656E646172790000000000000000000000000000000000000000 DUP2 MSTORE POP DUP1 MLOAD SWAP1 PUSH1 0x20 ADD KECCAK256 PUSH2 0x277E JUMP JUMPDEST PUSH1 0x6 ADD PUSH0 DUP4 DUP2 MSTORE PUSH1 0x20 ADD SWAP1 DUP2 MSTORE PUSH1 0x20 ADD PUSH0 KECCAK256 DUP2 SWAP1 SSTORE POP PUSH2 0x247D PUSH1 0x40 MLOAD DUP1 PUSH1 0x40 ADD PUSH1 0x40 MSTORE DUP1 PUSH1 0xC DUP2 MSTORE PUSH1 0x20 ADD PUSH32 0x534D456C6567656E646172790000000000000000000000000000000000000000 DUP2 MSTORE POP DUP1 MLOAD SWAP1 PUSH1 0x20 ADD KECCAK256 PUSH2 0x277E JUMP JUMPDEST PUSH1 0x5 ADD DUP2 SWAP1 DUP1 PUSH1 0x1 DUP2 SLOAD ADD DUP1 DUP3 SSTORE DUP1 SWAP2 POP POP PUSH1 0x1 SWAP1 SUB SWAP1 PUSH0 MSTORE PUSH1 0x20 PUSH0 KECCAK256 ADD PUSH0 SWAP1 SWAP2 SWAP1 SWAP2 SWAP1 SWAP2 POP SSTORE POP JUMP JUMPDEST PUSH0 PUSH2 0x24ED PUSH1 0x40 MLOAD DUP1 PUSH1 0x40 ADD PUSH1 0x40 MSTORE DUP1 PUSH1 0xC DUP2 MSTORE PUSH1 0x20 ADD PUSH32 0x534D456C6567656E646172790000000000000000000000000000000000000000 DUP2 MSTORE POP DUP1 MLOAD SWAP1 PUSH1 0x20 ADD KECCAK256 PUSH2 0x277E JUMP JUMPDEST PUSH1 0xA ADD SLOAD SWAP1 POP SWAP1 JUMP JUMPDEST DUP2 PUSH2 0x253C PUSH1 0x40 MLOAD DUP1 PUSH1 0x40 ADD PUSH1 0x40 MSTORE DUP1 PUSH1 0xC DUP2 MSTORE PUSH1 0x20 ADD PUSH32 0x534D456C6567656E646172790000000000000000000000000000000000000000 DUP2 MSTORE POP DUP1 MLOAD SWAP1 PUSH1 0x20 ADD KECCAK256 PUSH2 0x277E JUMP JUMPDEST PUSH1 0x2 ADD PUSH0 DUP4 DUP2 MSTORE PUSH1 0x20 ADD SWAP1 DUP2 MSTORE PUSH1 0x20 ADD PUSH0 KECCAK256 SWAP1 DUP2 PUSH2 0x255A SWAP2 SWAP1 PUSH2 0x31B1 JUMP JUMPDEST POP POP POP JUMP JUMPDEST PUSH0 PUSH2 0x25A5 PUSH1 0x40 MLOAD DUP1 PUSH1 0x40 ADD PUSH1 0x40 MSTORE DUP1 PUSH1 0xC DUP2 MSTORE PUSH1 0x20 ADD PUSH32 0x534D456C6567656E646172790000000000000000000000000000000000000000 DUP2 MSTORE POP DUP1 MLOAD SWAP1 PUSH1 0x20 ADD KECCAK256 PUSH2 0x277E JUMP JUMPDEST PUSH1 0x3 ADD PUSH0 DUP5 PUSH20 0xFFFFFFFFFFFFFFFFFFFFFFFFFFFFFFFFFFFFFFFF AND PUSH20 0xFFFFFFFFFFFFFFFFFFFFFFFFFFFFFFFFFFFFFFFF AND DUP2 MSTORE PUSH1 0x20 ADD SWAP1 DUP2 MSTORE PUSH1 0x20 ADD PUSH0 KECCAK256 PUSH0 DUP4 DUP2 MSTORE PUSH1 0x20 ADD SWAP1 DUP2 MSTORE PUSH1 0x20 ADD PUSH0 KECCAK256 SLOAD SWAP1 POP SWAP3 SWAP2 POP POP JUMP JUMPDEST DUP1 PUSH2 0x2641 PUSH1 0x40 MLOAD DUP1 PUSH1 0x40 ADD PUSH1 0x40 MSTORE DUP1 PUSH1 0xC DUP2 MSTORE PUSH1 0x20 ADD PUSH32 0x534D456C6567656E646172790000000000000000000000000000000000000000 DUP2 MSTORE POP DUP1 MLOAD SWAP1 PUSH1 0x20 ADD KECCAK256 PUSH2 0x277E JUMP JUMPDEST PUSH1 0x10 ADD PUSH0 DUP5 DUP2 MSTORE PUSH1 0x20 ADD SWAP1 DUP2 MSTORE PUSH1 0x20 ADD PUSH0 KECCAK256 DUP2 SWAP1 SSTORE POP POP POP JUMP JUMPDEST PUSH0 PUSH2 0x26A1 PUSH1 0x40 MLOAD DUP1 PUSH1 0x40 ADD PUSH1 0x40 MSTORE DUP1 PUSH1 0xC DUP2 MSTORE PUSH1 0x20 ADD PUSH32 0x534D456C6567656E646172790000000000000000000000000000000000000000 DUP2 MSTORE POP DUP1 MLOAD SWAP1 PUSH1 0x20 ADD KECCAK256 PUSH2 0x277E JUMP JUMPDEST PUSH1 0x13 ADD PUSH0 DUP5 PUSH20 0xFFFFFFFFFFFFFFFFFFFFFFFFFFFFFFFFFFFFFFFF AND PUSH20 0xFFFFFFFFFFFFFFFFFFFFFFFFFFFFFFFFFFFFFFFF AND DUP2 MSTORE PUSH1 0x20 ADD SWAP1 DUP2 MSTORE PUSH1 0x20 ADD PUSH0 KECCAK256 PUSH0 DUP4 PUSH20 0xFFFFFFFFFFFFFFFFFFFFFFFFFFFFFFFFFFFFFFFF AND PUSH20 0xFFFFFFFFFFFFFFFFFFFFFFFFFFFFFFFFFFFFFFFF AND DUP2 MSTORE PUSH1 0x20 ADD SWAP1 DUP2 MSTORE PUSH1 0x20 ADD PUSH0 KECCAK256 PUSH0 SWAP1 SLOAD SWAP1 PUSH2 0x100 EXP SWAP1 DIV PUSH1 0xFF AND SWAP1 POP SWAP3 SWAP2 POP POP JUMP JUMPDEST PUSH0 PUSH2 0x2775 PUSH1 0x40 MLOAD DUP1 PUSH1 0x40 ADD PUSH1 0x40 MSTORE DUP1 PUSH1 0xC DUP2 MSTORE PUSH1 0x20 ADD PUSH32 0x534D456C6567656E646172790000000000000000000000000000000000000000 DUP2 MSTORE POP DUP1 MLOAD SWAP1 PUSH1 0x20 ADD KECCAK256 PUSH2 0x277E JUMP JUMPDEST PUSH1 0x8 ADD SLOAD SWAP1 POP SWAP1 JUMP JUMPDEST PUSH0 DUP2 SWAP1 POP SWAP2 SWAP1 POP JUMP JUMPDEST PUSH1 0x40 MLOAD DUP1 PUSH1 0x20 ADD PUSH1 0x40 MSTORE DUP1 PUSH0 PUSH20 0xFFFFFFFFFFFFFFFFFFFFFFFFFFFFFFFFFFFFFFFF AND DUP2 MSTORE POP SWAP1 JUMP JUMPDEST PUSH0 DUP2 MLOAD SWAP1 POP SWAP2 SWAP1 POP JUMP JUMPDEST PUSH0 DUP3 DUP3 MSTORE PUSH1 0x20 DUP3 ADD SWAP1 POP SWAP3 SWAP2 POP POP JUMP JUMPDEST DUP3 DUP2 DUP4 MCOPY PUSH0 DUP4 DUP4 ADD MSTORE POP POP POP JUMP JUMPDEST PUSH0 PUSH1 0x1F NOT PUSH1 0x1F DUP4 ADD AND SWAP1 POP SWAP2 SWAP1 POP JUMP JUMPDEST PUSH0 PUSH2 0x27F1 DUP3 PUSH2 0x27AF JUMP JUMPDEST PUSH2 0x27FB DUP2 DUP6 PUSH2 0x27B9 JUMP JUMPDEST SWAP4 POP PUSH2 0x280B DUP2 DUP6 PUSH1 0x20 DUP7 ADD PUSH2 0x27C9 JUMP JUMPDEST PUSH2 0x2814 DUP2 PUSH2 0x27D7 JUMP JUMPDEST DUP5 ADD SWAP2 POP POP SWAP3 SWAP2 POP POP JUMP JUMPDEST PUSH0 PUSH1 0x20 DUP3 ADD SWAP1 POP DUP2 DUP2 SUB PUSH0 DUP4 ADD MSTORE PUSH2 0x2837 DUP2 DUP5 PUSH2 0x27E7 JUMP JUMPDEST SWAP1 POP SWAP3 SWAP2 POP POP JUMP JUMPDEST PUSH0 PUSH1 0x40 MLOAD SWAP1 POP SWAP1 JUMP JUMPDEST PUSH0 PUSH0 REVERT JUMPDEST PUSH0 PUSH0 REVERT JUMPDEST PUSH0 PUSH20 0xFFFFFFFFFFFFFFFFFFFFFFFFFFFFFFFFFFFFFFFF DUP3 AND SWAP1 POP SWAP2 SWAP1 POP JUMP JUMPDEST PUSH0 PUSH2 0x2879 DUP3 PUSH2 0x2850 JUMP JUMPDEST SWAP1 POP SWAP2 SWAP1 POP JUMP JUMPDEST PUSH2 0x2889 DUP2 PUSH2 0x286F JUMP JUMPDEST DUP2 EQ PUSH2 0x2893 JUMPI PUSH0 PUSH0 REVERT JUMPDEST POP JUMP JUMPDEST PUSH0 DUP2 CALLDATALOAD SWAP1 POP PUSH2 0x28A4 DUP2 PUSH2 0x2880 JUMP JUMPDEST SWAP3 SWAP2 POP POP JUMP JUMPDEST PUSH0 DUP2 SWAP1 POP SWAP2 SWAP1 POP JUMP JUMPDEST PUSH2 0x28BC DUP2 PUSH2 0x28AA JUMP JUMPDEST DUP2 EQ PUSH2 0x28C6 JUMPI PUSH0 PUSH0 REVERT JUMPDEST POP JUMP JUMPDEST PUSH0 DUP2 CALLDATALOAD SWAP1 POP PUSH2 0x28D7 DUP2 PUSH2 0x28B3 JUMP JUMPDEST SWAP3 SWAP2 POP POP JUMP JUMPDEST PUSH0 PUSH0 PUSH0 PUSH1 0x60 DUP5 DUP7 SUB SLT ISZERO PUSH2 0x28F4 JUMPI PUSH2 0x28F3 PUSH2 0x2848 JUMP JUMPDEST JUMPDEST PUSH0 PUSH2 0x2901 DUP7 DUP3 DUP8 ADD PUSH2 0x2896 JUMP JUMPDEST SWAP4 POP POP PUSH1 0x20 PUSH2 0x2912 DUP7 DUP3 DUP8 ADD PUSH2 0x28C9 JUMP JUMPDEST SWAP3 POP POP PUSH1 0x40 PUSH2 0x2923 DUP7 DUP3 DUP8 ADD PUSH2 0x28C9 JUMP JUMPDEST SWAP2 POP POP SWAP3 POP SWAP3 POP SWAP3 JUMP JUMPDEST PUSH0 PUSH0 PUSH1 0x40 DUP4 DUP6 SUB SLT ISZERO PUSH2 0x2943 JUMPI PUSH2 0x2942 PUSH2 0x2848 JUMP JUMPDEST JUMPDEST PUSH0 PUSH2 0x2950 DUP6 DUP3 DUP7 ADD PUSH2 0x28C9 JUMP JUMPDEST SWAP3 POP POP PUSH1 0x20 PUSH2 0x2961 DUP6 DUP3 DUP7 ADD PUSH2 0x2896 JUMP JUMPDEST SWAP2 POP POP SWAP3 POP SWAP3 SWAP1 POP JUMP JUMPDEST PUSH0 DUP2 SWAP1 POP SWAP2 SWAP1 POP JUMP JUMPDEST PUSH2 0x297D DUP2 PUSH2 0x296B JUMP JUMPDEST DUP3 MSTORE POP POP JUMP JUMPDEST PUSH0 PUSH1 0x20 DUP3 ADD SWAP1 POP PUSH2 0x2996 PUSH0 DUP4 ADD DUP5 PUSH2 0x2974 JUMP JUMPDEST SWAP3 SWAP2 POP POP JUMP JUMPDEST PUSH0 PUSH1 0x20 DUP3 DUP5 SUB SLT ISZERO PUSH2 0x29B1 JUMPI PUSH2 0x29B0 PUSH2 0x2848 JUMP JUMPDEST JUMPDEST PUSH0 PUSH2 0x29BE DUP5 DUP3 DUP6 ADD PUSH2 0x2896 JUMP JUMPDEST SWAP2 POP POP SWAP3 SWAP2 POP POP JUMP JUMPDEST PUSH2 0x29D0 DUP2 PUSH2 0x28AA JUMP JUMPDEST DUP3 MSTORE POP POP JUMP JUMPDEST PUSH0 PUSH1 0x20 DUP3 ADD SWAP1 POP PUSH2 0x29E9 PUSH0 DUP4 ADD DUP5 PUSH2 0x29C7 JUMP JUMPDEST SWAP3 SWAP2 POP POP JUMP JUMPDEST PUSH2 0x29F8 DUP2 PUSH2 0x296B JUMP JUMPDEST DUP2 EQ PUSH2 0x2A02 JUMPI PUSH0 PUSH0 REVERT JUMPDEST POP JUMP JUMPDEST PUSH0 DUP2 CALLDATALOAD SWAP1 POP PUSH2 0x2A13 DUP2 PUSH2 0x29EF JUMP JUMPDEST SWAP3 SWAP2 POP POP JUMP JUMPDEST PUSH0 PUSH1 0x20 DUP3 DUP5 SUB SLT ISZERO PUSH2 0x2A2E JUMPI PUSH2 0x2A2D PUSH2 0x2848 JUMP JUMPDEST JUMPDEST PUSH0 PUSH2 0x2A3B DUP5 DUP3 DUP6 ADD PUSH2 0x2A05 JUMP JUMPDEST SWAP2 POP POP SWAP3 SWAP2 POP POP JUMP JUMPDEST PUSH0 PUSH1 0x20 DUP3 DUP5 SUB SLT ISZERO PUSH2 0x2A59 JUMPI PUSH2 0x2A58 PUSH2 0x2848 JUMP JUMPDEST JUMPDEST PUSH0 PUSH2 0x2A66 DUP5 DUP3 DUP6 ADD PUSH2 0x28C9 JUMP JUMPDEST SWAP2 POP POP SWAP3 SWAP2 POP POP JUMP JUMPDEST PUSH0 PUSH0 REVERT JUMPDEST PUSH0 PUSH0 REVERT JUMPDEST PUSH32 0x4E487B7100000000000000000000000000000000000000000000000000000000 PUSH0 MSTORE PUSH1 0x41 PUSH1 0x4 MSTORE PUSH1 0x24 PUSH0 REVERT JUMPDEST PUSH2 0x2AAD DUP3 PUSH2 0x27D7 JUMP JUMPDEST DUP2 ADD DUP2 DUP2 LT PUSH8 0xFFFFFFFFFFFFFFFF DUP3 GT OR ISZERO PUSH2 0x2ACC JUMPI PUSH2 0x2ACB PUSH2 0x2A77 JUMP JUMPDEST JUMPDEST DUP1 PUSH1 0x40 MSTORE POP POP POP JUMP JUMPDEST PUSH0 PUSH2 0x2ADE PUSH2 0x283F JUMP JUMPDEST SWAP1 POP PUSH2 0x2AEA DUP3 DUP3 PUSH2 0x2AA4 JUMP JUMPDEST SWAP2 SWAP1 POP JUMP JUMPDEST PUSH0 PUSH8 0xFFFFFFFFFFFFFFFF DUP3 GT ISZERO PUSH2 0x2B09 JUMPI PUSH2 0x2B08 PUSH2 0x2A77 JUMP JUMPDEST JUMPDEST PUSH2 0x2B12 DUP3 PUSH2 0x27D7 JUMP JUMPDEST SWAP1 POP PUSH1 0x20 DUP2 ADD SWAP1 POP SWAP2 SWAP1 POP JUMP JUMPDEST DUP3 DUP2 DUP4 CALLDATACOPY PUSH0 DUP4 DUP4 ADD MSTORE POP POP POP JUMP JUMPDEST PUSH0 PUSH2 0x2B3F PUSH2 0x2B3A DUP5 PUSH2 0x2AEF JUMP JUMPDEST PUSH2 0x2AD5 JUMP JUMPDEST SWAP1 POP DUP3 DUP2 MSTORE PUSH1 0x20 DUP2 ADD DUP5 DUP5 DUP5 ADD GT ISZERO PUSH2 0x2B5B JUMPI PUSH2 0x2B5A PUSH2 0x2A73 JUMP JUMPDEST JUMPDEST PUSH2 0x2B66 DUP5 DUP3 DUP6 PUSH2 0x2B1F JUMP JUMPDEST POP SWAP4 SWAP3 POP POP POP JUMP JUMPDEST PUSH0 DUP3 PUSH1 0x1F DUP4 ADD SLT PUSH2 0x2B82 JUMPI PUSH2 0x2B81 PUSH2 0x2A6F JUMP JUMPDEST JUMPDEST DUP2 CALLDATALOAD PUSH2 0x2B92 DUP5 DUP3 PUSH1 0x20 DUP7 ADD PUSH2 0x2B2D JUMP JUMPDEST SWAP2 POP POP SWAP3 SWAP2 POP POP JUMP JUMPDEST PUSH0 PUSH1 0x20 DUP3 DUP5 SUB SLT ISZERO PUSH2 0x2BB0 JUMPI PUSH2 0x2BAF PUSH2 0x2848 JUMP JUMPDEST JUMPDEST PUSH0 DUP3 ADD CALLDATALOAD PUSH8 0xFFFFFFFFFFFFFFFF DUP2 GT ISZERO PUSH2 0x2BCD JUMPI PUSH2 0x2BCC PUSH2 0x284C JUMP JUMPDEST JUMPDEST PUSH2 0x2BD9 DUP5 DUP3 DUP6 ADD PUSH2 0x2B6E JUMP JUMPDEST SWAP2 POP POP SWAP3 SWAP2 POP POP JUMP JUMPDEST PUSH0 DUP2 MLOAD SWAP1 POP SWAP2 SWAP1 POP JUMP JUMPDEST PUSH0 DUP3 DUP3 MSTORE PUSH1 0x20 DUP3 ADD SWAP1 POP SWAP3 SWAP2 POP POP JUMP JUMPDEST PUSH0 DUP2 SWAP1 POP PUSH1 0x20 DUP3 ADD SWAP1 POP SWAP2 SWAP1 POP JUMP JUMPDEST PUSH2 0x2C14 DUP2 PUSH2 0x28AA JUMP JUMPDEST DUP3 MSTORE POP POP JUMP JUMPDEST PUSH0 PUSH2 0x2C25 DUP4 DUP4 PUSH2 0x2C0B JUMP JUMPDEST PUSH1 0x20 DUP4 ADD SWAP1 POP SWAP3 SWAP2 POP POP JUMP JUMPDEST PUSH0 PUSH1 0x20 DUP3 ADD SWAP1 POP SWAP2 SWAP1 POP JUMP JUMPDEST PUSH0 PUSH2 0x2C47 DUP3 PUSH2 0x2BE2 JUMP JUMPDEST PUSH2 0x2C51 DUP2 DUP6 PUSH2 0x2BEC JUMP JUMPDEST SWAP4 POP PUSH2 0x2C5C DUP4 PUSH2 0x2BFC JUMP JUMPDEST DUP1 PUSH0 JUMPDEST DUP4 DUP2 LT ISZERO PUSH2 0x2C8C JUMPI DUP2 MLOAD PUSH2 0x2C73 DUP9 DUP3 PUSH2 0x2C1A JUMP JUMPDEST SWAP8 POP PUSH2 0x2C7E DUP4 PUSH2 0x2C31 JUMP JUMPDEST SWAP3 POP POP PUSH1 0x1 DUP2 ADD SWAP1 POP PUSH2 0x2C5F JUMP JUMPDEST POP DUP6 SWAP4 POP POP POP POP SWAP3 SWAP2 POP POP JUMP JUMPDEST PUSH0 PUSH1 0x20 DUP3 ADD SWAP1 POP DUP2 DUP2 SUB PUSH0 DUP4 ADD MSTORE PUSH2 0x2CB1 DUP2 DUP5 PUSH2 0x2C3D JUMP JUMPDEST SWAP1 POP SWAP3 SWAP2 POP POP JUMP JUMPDEST PUSH0 DUP2 ISZERO ISZERO SWAP1 POP SWAP2 SWAP1 POP JUMP JUMPDEST PUSH2 0x2CCD DUP2 PUSH2 0x2CB9 JUMP JUMPDEST DUP2 EQ PUSH2 0x2CD7 JUMPI PUSH0 PUSH0 REVERT JUMPDEST POP JUMP JUMPDEST PUSH0 DUP2 CALLDATALOAD SWAP1 POP PUSH2 0x2CE8 DUP2 PUSH2 0x2CC4 JUMP JUMPDEST SWAP3 SWAP2 POP POP JUMP JUMPDEST PUSH0 PUSH0 PUSH0 PUSH1 0x60 DUP5 DUP7 SUB SLT ISZERO PUSH2 0x2D05 JUMPI PUSH2 0x2D04 PUSH2 0x2848 JUMP JUMPDEST JUMPDEST PUSH0 PUSH2 0x2D12 DUP7 DUP3 DUP8 ADD PUSH2 0x2896 JUMP JUMPDEST SWAP4 POP POP PUSH1 0x20 PUSH2 0x2D23 DUP7 DUP3 DUP8 ADD PUSH2 0x2896 JUMP JUMPDEST SWAP3 POP POP PUSH1 0x40 PUSH2 0x2D34 DUP7 DUP3 DUP8 ADD PUSH2 0x2CDA JUMP JUMPDEST SWAP2 POP POP SWAP3 POP SWAP3 POP SWAP3 JUMP JUMPDEST PUSH0 PUSH0 PUSH1 0x40 DUP4 DUP6 SUB SLT ISZERO PUSH2 0x2D54 JUMPI PUSH2 0x2D53 PUSH2 0x2848 JUMP JUMPDEST JUMPDEST PUSH0 PUSH2 0x2D61 DUP6 DUP3 DUP7 ADD PUSH2 0x2896 JUMP JUMPDEST SWAP3 POP POP PUSH1 0x20 PUSH2 0x2D72 DUP6 DUP3 DUP7 ADD PUSH2 0x28C9 JUMP JUMPDEST SWAP2 POP POP SWAP3 POP SWAP3 SWAP1 POP JUMP JUMPDEST PUSH2 0x2D85 DUP2 PUSH2 0x286F JUMP JUMPDEST DUP3 MSTORE POP POP JUMP JUMPDEST PUSH1 0x20 DUP3 ADD PUSH0 DUP3 ADD MLOAD PUSH2 0x2D9F PUSH0 DUP6 ADD DUP3 PUSH2 0x2D7C JUMP JUMPDEST POP POP POP POP JUMP JUMPDEST PUSH0 PUSH1 0x20 DUP3 ADD SWAP1 POP PUSH2 0x2DB8 PUSH0 DUP4 ADD DUP5 PUSH2 0x2D8B JUMP JUMPDEST SWAP3 SWAP2 POP POP JUMP JUMPDEST PUSH0 PUSH0 PUSH1 0x40 DUP4 DUP6 SUB SLT ISZERO PUSH2 0x2DD4 JUMPI PUSH2 0x2DD3 PUSH2 0x2848 JUMP JUMPDEST JUMPDEST PUSH0 PUSH2 0x2DE1 DUP6 DUP3 DUP7 ADD PUSH2 0x28C9 JUMP JUMPDEST SWAP3 POP POP PUSH1 0x20 PUSH2 0x2DF2 DUP6 DUP3 DUP7 ADD PUSH2 0x28C9 JUMP JUMPDEST SWAP2 POP POP SWAP3 POP SWAP3 SWAP1 POP JUMP JUMPDEST PUSH0 PUSH0 PUSH1 0x40 DUP4 DUP6 SUB SLT ISZERO PUSH2 0x2E12 JUMPI PUSH2 0x2E11 PUSH2 0x2848 JUMP JUMPDEST JUMPDEST PUSH0 PUSH2 0x2E1F DUP6 DUP3 DUP7 ADD PUSH2 0x2896 JUMP JUMPDEST SWAP3 POP POP PUSH1 0x20 PUSH2 0x2E30 DUP6 DUP3 DUP7 ADD PUSH2 0x2CDA JUMP JUMPDEST SWAP2 POP POP SWAP3 POP SWAP3 SWAP1 POP JUMP JUMPDEST PUSH2 0x2E43 DUP2 PUSH2 0x2CB9 JUMP JUMPDEST DUP3 MSTORE POP POP JUMP JUMPDEST PUSH0 PUSH1 0x20 DUP3 ADD SWAP1 POP PUSH2 0x2E5C PUSH0 DUP4 ADD DUP5 PUSH2 0x2E3A JUMP JUMPDEST SWAP3 SWAP2 POP POP JUMP JUMPDEST PUSH0 PUSH0 PUSH1 0x40 DUP4 DUP6 SUB SLT ISZERO PUSH2 0x2E78 JUMPI PUSH2 0x2E77 PUSH2 0x2848 JUMP JUMPDEST JUMPDEST PUSH0 DUP4 ADD CALLDATALOAD PUSH8 0xFFFFFFFFFFFFFFFF DUP2 GT ISZERO PUSH2 0x2E95 JUMPI PUSH2 0x2E94 PUSH2 0x284C JUMP JUMPDEST JUMPDEST PUSH2 0x2EA1 DUP6 DUP3 DUP7 ADD PUSH2 0x2B6E JUMP JUMPDEST SWAP3 POP POP PUSH1 0x20 PUSH2 0x2EB2 DUP6 DUP3 DUP7 ADD PUSH2 0x28C9 JUMP JUMPDEST SWAP2 POP POP SWAP3 POP SWAP3 SWAP1 POP JUMP JUMPDEST PUSH0 PUSH0 PUSH1 0x40 DUP4 DUP6 SUB SLT ISZERO PUSH2 0x2ED2 JUMPI PUSH2 0x2ED1 PUSH2 0x2848 JUMP JUMPDEST JUMPDEST PUSH0 PUSH2 0x2EDF DUP6 DUP3 DUP7 ADD PUSH2 0x2896 JUMP JUMPDEST SWAP3 POP POP PUSH1 0x20 PUSH2 0x2EF0 DUP6 DUP3 DUP7 ADD PUSH2 0x2896 JUMP JUMPDEST SWAP2 POP POP SWAP3 POP SWAP3 SWAP1 POP JUMP JUMPDEST PUSH32 0x4E487B7100000000000000000000000000000000000000000000000000000000 PUSH0 MSTORE PUSH1 0x22 PUSH1 0x4 MSTORE PUSH1 0x24 PUSH0 REVERT JUMPDEST PUSH0 PUSH1 0x2 DUP3 DIV SWAP1 POP PUSH1 0x1 DUP3 AND DUP1 PUSH2 0x2F3E JUMPI PUSH1 0x7F DUP3 AND SWAP2 POP JUMPDEST PUSH1 0x20 DUP3 LT DUP2 SUB PUSH2 0x2F51 JUMPI PUSH2 0x2F50 PUSH2 0x2EFA JUMP JUMPDEST JUMPDEST POP SWAP2 SWAP1 POP JUMP JUMPDEST PUSH32 0x4E487B7100000000000000000000000000000000000000000000000000000000 PUSH0 MSTORE PUSH1 0x11 PUSH1 0x4 MSTORE PUSH1 0x24 PUSH0 REVERT JUMPDEST PUSH0 PUSH2 0x2F8E DUP3 PUSH2 0x28AA JUMP JUMPDEST SWAP2 POP PUSH2 0x2F99 DUP4 PUSH2 0x28AA JUMP JUMPDEST SWAP3 POP DUP3 DUP3 SUB SWAP1 POP DUP2 DUP2 GT ISZERO PUSH2 0x2FB1 JUMPI PUSH2 0x2FB0 PUSH2 0x2F57 JUMP JUMPDEST JUMPDEST SWAP3 SWAP2 POP POP JUMP JUMPDEST PUSH32 0x4E487B7100000000000000000000000000000000000000000000000000000000 PUSH0 MSTORE PUSH1 0x32 PUSH1 0x4 MSTORE PUSH1 0x24 PUSH0 REVERT JUMPDEST PUSH32 0x4E487B7100000000000000000000000000000000000000000000000000000000 PUSH0 MSTORE PUSH1 0x31 PUSH1 0x4 MSTORE PUSH1 0x24 PUSH0 REVERT JUMPDEST PUSH0 DUP2 SWAP1 POP DUP2 PUSH0 MSTORE PUSH1 0x20 PUSH0 KECCAK256 SWAP1 POP SWAP2 SWAP1 POP JUMP JUMPDEST PUSH0 PUSH1 0x20 PUSH1 0x1F DUP4 ADD DIV SWAP1 POP SWAP2 SWAP1 POP JUMP JUMPDEST PUSH0 DUP3 DUP3 SHL SWAP1 POP SWAP3 SWAP2 POP POP JUMP JUMPDEST PUSH0 PUSH1 0x8 DUP4 MUL PUSH2 0x306D PUSH32 0xFFFFFFFFFFFFFFFFFFFFFFFFFFFFFFFFFFFFFFFFFFFFFFFFFFFFFFFFFFFFFFFF DUP3 PUSH2 0x3032 JUMP JUMPDEST PUSH2 0x3077 DUP7 DUP4 PUSH2 0x3032 JUMP JUMPDEST SWAP6 POP DUP1 NOT DUP5 AND SWAP4 POP DUP1 DUP7 AND DUP5 OR SWAP3 POP POP POP SWAP4 SWAP3 POP POP POP JUMP JUMPDEST PUSH0 DUP2 SWAP1 POP SWAP2 SWAP1 POP JUMP JUMPDEST PUSH0 PUSH2 0x30B2 PUSH2 0x30AD PUSH2 0x30A8 DUP5 PUSH2 0x28AA JUMP JUMPDEST PUSH2 0x308F JUMP JUMPDEST PUSH2 0x28AA JUMP JUMPDEST SWAP1 POP SWAP2 SWAP1 POP JUMP JUMPDEST PUSH0 DUP2 SWAP1 POP SWAP2 SWAP1 POP JUMP JUMPDEST PUSH2 0x30CB DUP4 PUSH2 0x3098 JUMP JUMPDEST PUSH2 0x30DF PUSH2 0x30D7 DUP3 PUSH2 0x30B9 JUMP JUMPDEST DUP5 DUP5 SLOAD PUSH2 0x303E JUMP JUMPDEST DUP3 SSTORE POP POP POP POP JUMP JUMPDEST PUSH0 PUSH0 SWAP1 POP SWAP1 JUMP JUMPDEST PUSH2 0x30F6 PUSH2 0x30E7 JUMP JUMPDEST PUSH2 0x3101 DUP2 DUP5 DUP5 PUSH2 0x30C2 JUMP JUMPDEST POP POP POP JUMP JUMPDEST JUMPDEST DUP2 DUP2 LT ISZERO PUSH2 0x3124 JUMPI PUSH2 0x3119 PUSH0 DUP3 PUSH2 0x30EE JUMP JUMPDEST PUSH1 0x1 DUP2 ADD SWAP1 POP PUSH2 0x3107 JUMP JUMPDEST POP POP JUMP JUMPDEST PUSH1 0x1F DUP3 GT ISZERO PUSH2 0x3169 JUMPI PUSH2 0x313A DUP2 PUSH2 0x3011 JUMP JUMPDEST PUSH2 0x3143 DUP5 PUSH2 0x3023 JUMP JUMPDEST DUP2 ADD PUSH1 0x20 DUP6 LT ISZERO PUSH2 0x3152 JUMPI DUP2 SWAP1 POP JUMPDEST PUSH2 0x3166 PUSH2 0x315E DUP6 PUSH2 0x3023 JUMP JUMPDEST DUP4 ADD DUP3 PUSH2 0x3106 JUMP JUMPDEST POP POP JUMPDEST POP POP POP JUMP JUMPDEST PUSH0 DUP3 DUP3 SHR SWAP1 POP SWAP3 SWAP2 POP POP JUMP JUMPDEST PUSH0 PUSH2 0x3189 PUSH0 NOT DUP5 PUSH1 0x8 MUL PUSH2 0x316E JUMP JUMPDEST NOT DUP1 DUP4 AND SWAP2 POP POP SWAP3 SWAP2 POP POP JUMP JUMPDEST PUSH0 PUSH2 0x31A1 DUP4 DUP4 PUSH2 0x317A JUMP JUMPDEST SWAP2 POP DUP3 PUSH1 0x2 MUL DUP3 OR SWAP1 POP SWAP3 SWAP2 POP POP JUMP JUMPDEST PUSH2 0x31BA DUP3 PUSH2 0x27AF JUMP JUMPDEST PUSH8 0xFFFFFFFFFFFFFFFF DUP2 GT ISZERO PUSH2 0x31D3 JUMPI PUSH2 0x31D2 PUSH2 0x2A77 JUMP JUMPDEST JUMPDEST PUSH2 0x31DD DUP3 SLOAD PUSH2 0x2F27 JUMP JUMPDEST PUSH2 0x31E8 DUP3 DUP3 DUP6 PUSH2 0x3128 JUMP JUMPDEST PUSH0 PUSH1 0x20 SWAP1 POP PUSH1 0x1F DUP4 GT PUSH1 0x1 DUP2 EQ PUSH2 0x3219 JUMPI PUSH0 DUP5 ISZERO PUSH2 0x3207 JUMPI DUP3 DUP8 ADD MLOAD SWAP1 POP JUMPDEST PUSH2 0x3211 DUP6 DUP3 PUSH2 0x3196 JUMP JUMPDEST DUP7 SSTORE POP PUSH2 0x3278 JUMP JUMPDEST PUSH1 0x1F NOT DUP5 AND PUSH2 0x3227 DUP7 PUSH2 0x3011 JUMP JUMPDEST PUSH0 JUMPDEST DUP3 DUP2 LT ISZERO PUSH2 0x324E JUMPI DUP5 DUP10 ADD MLOAD DUP3 SSTORE PUSH1 0x1 DUP3 ADD SWAP2 POP PUSH1 0x20 DUP6 ADD SWAP5 POP PUSH1 0x20 DUP2 ADD SWAP1 POP PUSH2 0x3229 JUMP JUMPDEST DUP7 DUP4 LT ISZERO PUSH2 0x326B JUMPI DUP5 DUP10 ADD MLOAD PUSH2 0x3267 PUSH1 0x1F DUP10 AND DUP3 PUSH2 0x317A JUMP JUMPDEST DUP4 SSTORE POP JUMPDEST PUSH1 0x1 PUSH1 0x2 DUP9 MUL ADD DUP9 SSTORE POP POP POP JUMPDEST POP POP POP POP POP POP JUMP JUMPDEST PUSH0 PUSH2 0x328A DUP3 PUSH2 0x28AA JUMP JUMPDEST SWAP2 POP PUSH2 0x3295 DUP4 PUSH2 0x28AA JUMP JUMPDEST SWAP3 POP DUP3 DUP3 ADD SWAP1 POP DUP1 DUP3 GT ISZERO PUSH2 0x32AD JUMPI PUSH2 0x32AC PUSH2 0x2F57 JUMP JUMPDEST JUMPDEST SWAP3 SWAP2 POP POP JUMP INVALID LOG2 PUSH5 0x6970667358 0x22 SLT KECCAK256 CALLER DUP9 0xCE 0xCA 0xE8 SMOD MLOAD 0xC SSTORE SWAP12 0x23 LOG4 BLOBBASEFEE SMOD PUSH17 0x96BED1FA2CF526791F20BA48989866BD07 PUSH5 0x736F6C6343 STOP ADDMOD 0x1E STOP CALLER "
				},
				"gasEstimates": {
					"creation": {
						"codeDepositCost": "2606600",
						"executionCost": "2847",
						"totalCost": "2609447"
					},
					"external": {
						"_burnCounter()": "2680",
						"_burnCounter(uint256)": "22791",
						"_currentIndex()": "2702",
						"_currentIndex(uint256)": "22813",
						"_operatorApprovals(address,address)": "infinite",
						"_operatorApprovals(address,address,bool)": "infinite",
						"_packedAddressData(address)": "3100",
						"_packedAddressData(address,uint256)": "23096",
						"_packedAddressDataDecr(address)": "infinite",
						"_packedAddressDataIncr(address)": "infinite",
						"_packedOwnerships(uint256)": "infinite",
						"_packedOwnerships(uint256,uint256)": "infinite",
						"_spotMinted()": "2679",
						"_spotMintedIncr()": "infinite",
						"_startTokenId()": "2635",
						"_startTokenId(uint256)": "22769",
						"_tokenApprovals(uint256)": "3312",
						"_tokenApprovals(uint256,address)": "25221",
						"addTokenToAllTokensEnumeration(uint256)": "infinite",
						"addTokenToOwnerEnumeration(address,uint256,uint256)": "infinite",
						"allTokens()": "infinite",
						"baseTokenURI()": "infinite",
						"baseTokenURI(string)": "infinite",
						"defaultTokenURI()": "infinite",
						"defaultTokenURI(string)": "infinite",
						"epiclistRoot()": "2680",
						"epiclistRoot(bytes32)": "22725",
						"fee()": "2612",
						"fee(uint256)": "22725",
						"genesislistRoot()": "2681",
						"genesislistRoot(bytes32)": "22835",
						"guaranteed_minted(address)": "3073",
						"guaranteed_minted(address,bool)": "25188",
						"legendlistRoot()": "2722",
						"legendlistRoot(bytes32)": "22769",
						"name()": "infinite",
						"name(string)": "infinite",
						"ownedTokens(address,uint256)": "infinite",
						"ownedTokens(address,uint256,uint256)": "infinite",
						"ownedTokensIndex(uint256)": "infinite",
						"ownedTokensIndex(uint256,uint256)": "infinite",
						"removeTokenFromAllTokensEnumeration(uint256)": "infinite",
						"removeTokenFromOwnerEnumeration(address,uint256,uint256)": "infinite",
						"symbol()": "infinite",
						"symbol(string)": "infinite",
						"tokenURIs(string,uint256)": "infinite",
						"tokenURIs(uint256)": "infinite"
					},
					"internal": {
						"_getStorage(bytes32)": "27"
					}
				},
				"methodIdentifiers": {
					"_burnCounter()": "44faf255",
					"_burnCounter(uint256)": "8fca4dbe",
					"_currentIndex()": "9451c99a",
					"_currentIndex(uint256)": "345e7b28",
					"_operatorApprovals(address,address)": "edc3bc3f",
					"_operatorApprovals(address,address,bool)": "830d4091",
					"_packedAddressData(address)": "21b0ed7d",
					"_packedAddressData(address,uint256)": "a3301173",
					"_packedAddressDataDecr(address)": "31413efc",
					"_packedAddressDataIncr(address)": "d0125152",
					"_packedOwnerships(uint256)": "47f69eba",
					"_packedOwnerships(uint256,uint256)": "e68fdee1",
					"_spotMinted()": "d20b6ee7",
					"_spotMintedIncr()": "810536ec",
					"_startTokenId()": "98995f77",
					"_startTokenId(uint256)": "32b07b43",
					"_tokenApprovals(uint256)": "a7cc0136",
					"_tokenApprovals(uint256,address)": "13c19ff6",
					"addTokenToAllTokensEnumeration(uint256)": "dbe0b21c",
					"addTokenToOwnerEnumeration(address,uint256,uint256)": "4f4979ed",
					"allTokens()": "6ff97f1d",
					"baseTokenURI()": "d547cfb7",
					"baseTokenURI(string)": "a05cc559",
					"defaultTokenURI()": "963bfe12",
					"defaultTokenURI(string)": "821abc2d",
					"epiclistRoot()": "33171809",
					"epiclistRoot(bytes32)": "247c6ce0",
					"fee()": "ddca3f43",
					"fee(uint256)": "39b37ab0",
					"genesislistRoot()": "19f86200",
					"genesislistRoot(bytes32)": "3802497b",
					"guaranteed_minted(address)": "b62d8b91",
					"guaranteed_minted(address,bool)": "b0d4ce25",
					"legendlistRoot()": "f589b754",
					"legendlistRoot(bytes32)": "854f9db9",
					"name()": "06fdde03",
					"name(string)": "5b43bc99",
					"ownedTokens(address,uint256)": "e149f036",
					"ownedTokens(address,uint256,uint256)": "49a0a50e",
					"ownedTokensIndex(uint256)": "74e24367",
					"ownedTokensIndex(uint256,uint256)": "ad715f2e",
					"removeTokenFromAllTokensEnumeration(uint256)": "40e02f5c",
					"removeTokenFromOwnerEnumeration(address,uint256,uint256)": "071bc71c",
					"symbol()": "95d89b41",
					"symbol(string)": "41bb0559",
					"tokenURIs(string,uint256)": "dec84db1",
					"tokenURIs(uint256)": "6c8b703f"
				}
			},
			"storageLayout": {
				"storage": [],
				"types": null
			},
			"userdoc": {
				"kind": "user",
				"methods": {},
				"notice": "Библиотека хранилища амбассадорки*",
				"version": 1
			}
		}
	}
}