{
	"contracts/storage/LibSMEambStorage1.sol": {
		"SMEambStorage": {
			"abi": [
				{
					"inputs": [],
					"name": "_burnCounter",
					"outputs": [
						{
							"internalType": "uint256",
							"name": "",
							"type": "uint256"
						}
					],
					"stateMutability": "view",
					"type": "function"
				},
				{
					"inputs": [],
					"name": "_currentIndex",
					"outputs": [
						{
							"internalType": "uint256",
							"name": "",
							"type": "uint256"
						}
					],
					"stateMutability": "view",
					"type": "function"
				},
				{
					"inputs": [
						{
							"internalType": "address",
							"name": "owner",
							"type": "address"
						},
						{
							"internalType": "address",
							"name": "operator",
							"type": "address"
						}
					],
					"name": "_operatorApprovals",
					"outputs": [
						{
							"internalType": "bool",
							"name": "",
							"type": "bool"
						}
					],
					"stateMutability": "view",
					"type": "function"
				},
				{
					"inputs": [
						{
							"internalType": "address",
							"name": "_owner",
							"type": "address"
						}
					],
					"name": "_packedAddressData",
					"outputs": [
						{
							"internalType": "uint256",
							"name": "",
							"type": "uint256"
						}
					],
					"stateMutability": "view",
					"type": "function"
				},
				{
					"inputs": [
						{
							"internalType": "uint256",
							"name": "_tokenId",
							"type": "uint256"
						}
					],
					"name": "_packedOwnerships",
					"outputs": [
						{
							"internalType": "uint256",
							"name": "",
							"type": "uint256"
						}
					],
					"stateMutability": "view",
					"type": "function"
				},
				{
					"inputs": [],
					"name": "_spotMinted",
					"outputs": [
						{
							"internalType": "uint256",
							"name": "",
							"type": "uint256"
						}
					],
					"stateMutability": "view",
					"type": "function"
				},
				{
					"inputs": [],
					"name": "_startTokenId",
					"outputs": [
						{
							"internalType": "uint256",
							"name": "",
							"type": "uint256"
						}
					],
					"stateMutability": "view",
					"type": "function"
				},
				{
					"inputs": [
						{
							"internalType": "uint256",
							"name": "_tokenId",
							"type": "uint256"
						}
					],
					"name": "_tokenApprovals",
					"outputs": [
						{
							"components": [
								{
									"internalType": "address",
									"name": "value",
									"type": "address"
								}
							],
							"internalType": "struct SMEambStorage.TokenApprovalRef",
							"name": "",
							"type": "tuple"
						}
					],
					"stateMutability": "view",
					"type": "function"
				},
				{
					"inputs": [],
					"name": "allTokens",
					"outputs": [
						{
							"internalType": "uint256[]",
							"name": "",
							"type": "uint256[]"
						}
					],
					"stateMutability": "view",
					"type": "function"
				},
				{
					"inputs": [],
					"name": "baseTokenURI",
					"outputs": [
						{
							"internalType": "string",
							"name": "",
							"type": "string"
						}
					],
					"stateMutability": "view",
					"type": "function"
				},
				{
					"inputs": [],
					"name": "defaultTokenURI",
					"outputs": [
						{
							"internalType": "string",
							"name": "",
							"type": "string"
						}
					],
					"stateMutability": "view",
					"type": "function"
				},
				{
					"inputs": [],
					"name": "epiclistRoot",
					"outputs": [
						{
							"internalType": "bytes32",
							"name": "",
							"type": "bytes32"
						}
					],
					"stateMutability": "view",
					"type": "function"
				},
				{
					"inputs": [],
					"name": "fee",
					"outputs": [
						{
							"internalType": "uint256",
							"name": "",
							"type": "uint256"
						}
					],
					"stateMutability": "view",
					"type": "function"
				},
				{
					"inputs": [],
					"name": "genesislistRoot",
					"outputs": [
						{
							"internalType": "bytes32",
							"name": "",
							"type": "bytes32"
						}
					],
					"stateMutability": "view",
					"type": "function"
				},
				{
					"inputs": [
						{
							"internalType": "address",
							"name": "owner",
							"type": "address"
						}
					],
					"name": "guaranteed_minted",
					"outputs": [
						{
							"internalType": "bool",
							"name": "",
							"type": "bool"
						}
					],
					"stateMutability": "view",
					"type": "function"
				},
				{
					"inputs": [],
					"name": "legendlistRoot",
					"outputs": [
						{
							"internalType": "bytes32",
							"name": "",
							"type": "bytes32"
						}
					],
					"stateMutability": "view",
					"type": "function"
				},
				{
					"inputs": [],
					"name": "name",
					"outputs": [
						{
							"internalType": "string",
							"name": "",
							"type": "string"
						}
					],
					"stateMutability": "view",
					"type": "function"
				},
				{
					"inputs": [
						{
							"internalType": "address",
							"name": "owner",
							"type": "address"
						},
						{
							"internalType": "uint256",
							"name": "index",
							"type": "uint256"
						}
					],
					"name": "ownedTokens",
					"outputs": [
						{
							"internalType": "uint256",
							"name": "",
							"type": "uint256"
						}
					],
					"stateMutability": "view",
					"type": "function"
				},
				{
					"inputs": [
						{
							"internalType": "uint256",
							"name": "tokenId",
							"type": "uint256"
						}
					],
					"name": "ownedTokensIndex",
					"outputs": [
						{
							"internalType": "uint256",
							"name": "",
							"type": "uint256"
						}
					],
					"stateMutability": "view",
					"type": "function"
				},
				{
					"inputs": [],
					"name": "symbol",
					"outputs": [
						{
							"internalType": "string",
							"name": "",
							"type": "string"
						}
					],
					"stateMutability": "view",
					"type": "function"
				},
				{
					"inputs": [
						{
							"internalType": "uint256",
							"name": "tokenId",
							"type": "uint256"
						}
					],
					"name": "tokenURIs",
					"outputs": [
						{
							"internalType": "string",
							"name": "",
							"type": "string"
						}
					],
					"stateMutability": "view",
					"type": "function"
				}
			],
			"devdoc": {
				"custom:version": "1.1.0",
				"details": "Логику смотри в модуле SMEamb",
				"kind": "dev",
				"methods": {
					"addTokenToAllTokensEnumeration(uint256)": {
						"details": "Добавление токена в структуры для отслеживания",
						"params": {
							"tokenId": "uint256 идентификатор токена"
						}
					},
					"addTokenToOwnerEnumeration(address,uint256,uint256)": {
						"details": "Private function to add a token to this extension's ownership-tracking data structures.",
						"params": {
							"to": "address representing the new owner of the given token ID",
							"tokenId": "uint256 ID of the token to be added to the tokens list of the given address"
						}
					},
					"baseTokenURI()": {
						"details": "геттеры"
					},
					"baseTokenURI(string)": {
						"details": "Сеттеры"
					},
					"name()": {
						"details": "ERC721"
					},
					"removeTokenFromAllTokensEnumeration(uint256)": {
						"details": "Private function to remove a token from this extension's token tracking data structures. This has O(1) time complexity, but alters the order of the _allTokens array.",
						"params": {
							"tokenId": "uint256 ID of the token to be removed from the tokens list"
						}
					},
					"removeTokenFromOwnerEnumeration(address,uint256,uint256)": {
						"details": "Private function to remove a token from this extension's ownership-tracking data structures. Note that while the token is not assigned a new owner, the `_ownedTokensIndex` mapping is _not_ updated: this allows for gas optimizations e.g. when performing a transfer operation (avoiding double writes). This has O(1) time complexity, but alters the order of the _ownedTokens array.",
						"params": {
							"from": "address representing the previous owner of the given token ID",
							"tokenId": "uint256 ID of the token to be removed from the tokens list of the given address"
						}
					}
				},
				"stateVariables": {
					"SLOT": {
						"details": "Слот хранилища"
					}
				},
				"title": "OwnableStorage",
				"version": 1
			},
			"evm": {
				"assembly": "    /* \"contracts/storage/LibSMEambStorage1.sol\":289:12695  library SMEambStorage{... */\n  dataSize(sub_0)\n  dataOffset(sub_0)\n  0x0b\n  dup3\n  dup3\n  dup3\n  codecopy\n  dup1\n  mload\n  0x00\n  byte\n  0x73\n  eq\n  tag_1\n  jumpi\n  mstore(0x00, 0x4e487b7100000000000000000000000000000000000000000000000000000000)\n  mstore(0x04, 0x00)\n  revert(0x00, 0x24)\ntag_1:\n  mstore(0x00, address)\n  0x73\n  dup2\n  mstore8\n  dup3\n  dup2\n  return\nstop\n\nsub_0: assembly {\n        /* \"contracts/storage/LibSMEambStorage1.sol\":289:12695  library SMEambStorage{... */\n      eq(address, deployTimeAddress())\n      mstore(0x40, 0x80)\n      jumpi(tag_1, lt(calldatasize, 0x04))\n      shr(0xe0, calldataload(0x00))\n      dup1\n      0x821abc2d\n      gt\n      tag_49\n      jumpi\n      dup1\n      0xb0d4ce25\n      gt\n      tag_50\n      jumpi\n      dup1\n      0xddca3f43\n      gt\n      tag_51\n      jumpi\n      dup1\n      0xddca3f43\n      eq\n      tag_43\n      jumpi\n      dup1\n      0xdec84db1\n      eq\n      tag_44\n      jumpi\n      dup1\n      0xe149f036\n      eq\n      tag_45\n      jumpi\n      dup1\n      0xe68fdee1\n      eq\n      tag_46\n      jumpi\n      dup1\n      0xedc3bc3f\n      eq\n      tag_47\n      jumpi\n      dup1\n      0xf589b754\n      eq\n      tag_48\n      jumpi\n      jump(tag_1)\n    tag_51:\n      dup1\n      0xb0d4ce25\n      eq\n      tag_37\n      jumpi\n      dup1\n      0xb62d8b91\n      eq\n      tag_38\n      jumpi\n      dup1\n      0xd0125152\n      eq\n      tag_39\n      jumpi\n      dup1\n      0xd20b6ee7\n      eq\n      tag_40\n      jumpi\n      dup1\n      0xd547cfb7\n      eq\n      tag_41\n      jumpi\n      dup1\n      0xdbe0b21c\n      eq\n      tag_42\n      jumpi\n      jump(tag_1)\n    tag_50:\n      dup1\n      0x963bfe12\n      gt\n      tag_52\n      jumpi\n      dup1\n      0x963bfe12\n      eq\n      tag_31\n      jumpi\n      dup1\n      0x98995f77\n      eq\n      tag_32\n      jumpi\n      dup1\n      0xa05cc559\n      eq\n      tag_33\n      jumpi\n      dup1\n      0xa3301173\n      eq\n      tag_34\n      jumpi\n      dup1\n      0xa7cc0136\n      eq\n      tag_35\n      jumpi\n      dup1\n      0xad715f2e\n      eq\n      tag_36\n      jumpi\n      jump(tag_1)\n    tag_52:\n      dup1\n      0x821abc2d\n      eq\n      tag_25\n      jumpi\n      dup1\n      0x830d4091\n      eq\n      tag_26\n      jumpi\n      dup1\n      0x854f9db9\n      eq\n      tag_27\n      jumpi\n      dup1\n      0x8fca4dbe\n      eq\n      tag_28\n      jumpi\n      dup1\n      0x9451c99a\n      eq\n      tag_29\n      jumpi\n      dup1\n      0x95d89b41\n      eq\n      tag_30\n      jumpi\n      jump(tag_1)\n    tag_49:\n      dup1\n      0x39b37ab0\n      gt\n      tag_53\n      jumpi\n      dup1\n      0x4f4979ed\n      gt\n      tag_54\n      jumpi\n      dup1\n      0x4f4979ed\n      eq\n      tag_19\n      jumpi\n      dup1\n      0x5b43bc99\n      eq\n      tag_20\n      jumpi\n      dup1\n      0x6c8b703f\n      eq\n      tag_21\n      jumpi\n      dup1\n      0x6ff97f1d\n      eq\n      tag_22\n      jumpi\n      dup1\n      0x74e24367\n      eq\n      tag_23\n      jumpi\n      dup1\n      0x810536ec\n      eq\n      tag_24\n      jumpi\n      jump(tag_1)\n    tag_54:\n      dup1\n      0x39b37ab0\n      eq\n      tag_13\n      jumpi\n      dup1\n      0x40e02f5c\n      eq\n      tag_14\n      jumpi\n      dup1\n      0x41bb0559\n      eq\n      tag_15\n      jumpi\n      dup1\n      0x44faf255\n      eq\n      tag_16\n      jumpi\n      dup1\n      0x47f69eba\n      eq\n      tag_17\n      jumpi\n      dup1\n      0x49a0a50e\n      eq\n      tag_18\n      jumpi\n      jump(tag_1)\n    tag_53:\n      dup1\n      0x247c6ce0\n      gt\n      tag_55\n      jumpi\n      dup1\n      0x247c6ce0\n      eq\n      tag_7\n      jumpi\n      dup1\n      0x31413efc\n      eq\n      tag_8\n      jumpi\n      dup1\n      0x32b07b43\n      eq\n      tag_9\n      jumpi\n      dup1\n      0x33171809\n      eq\n      tag_10\n      jumpi\n      dup1\n      0x345e7b28\n      eq\n      tag_11\n      jumpi\n      dup1\n      0x3802497b\n      eq\n      tag_12\n      jumpi\n      jump(tag_1)\n    tag_55:\n      dup1\n      0x06fdde03\n      eq\n      tag_2\n      jumpi\n      dup1\n      0x071bc71c\n      eq\n      tag_3\n      jumpi\n      dup1\n      0x13c19ff6\n      eq\n      tag_4\n      jumpi\n      dup1\n      0x19f86200\n      eq\n      tag_5\n      jumpi\n      dup1\n      0x21b0ed7d\n      eq\n      tag_6\n      jumpi\n    tag_1:\n      revert(0x00, 0x00)\n        /* \"contracts/storage/LibSMEambStorage1.sol\":3226:3311  function name() external view returns(string memory){return _getStorage(SLOT)._name;} */\n    tag_2:\n      tag_56\n      tag_57\n      jump\t// in\n    tag_56:\n      mload(0x40)\n      tag_58\n      swap2\n      swap1\n      tag_59\n      jump\t// in\n    tag_58:\n      mload(0x40)\n      dup1\n      swap2\n      sub\n      swap1\n      return\n        /* \"contracts/storage/LibSMEambStorage1.sol\":10892:11944  function removeTokenFromOwnerEnumeration(address from, uint256 tokenId, uint256 lastTokenIndex) external {... */\n    tag_3:\n      dup2\n      dup1\n      iszero\n      tag_60\n      jumpi\n      revert(0x00, 0x00)\n    tag_60:\n      pop\n      tag_61\n      0x04\n      dup1\n      calldatasize\n      sub\n      dup2\n      add\n      swap1\n      tag_62\n      swap2\n      swap1\n      tag_63\n      jump\t// in\n    tag_62:\n      tag_64\n      jump\t// in\n    tag_61:\n      stop\n        /* \"contracts/storage/LibSMEambStorage1.sol\":5169:5301  function _tokenApprovals(uint256 _tokenId, address _address) external{_getStorage(SLOT)._tokenApprovals[_tokenId].value = _address;} */\n    tag_4:\n      dup2\n      dup1\n      iszero\n      tag_65\n      jumpi\n      revert(0x00, 0x00)\n    tag_65:\n      pop\n      tag_66\n      0x04\n      dup1\n      calldatasize\n      sub\n      dup2\n      add\n      swap1\n      tag_67\n      swap2\n      swap1\n      tag_68\n      jump\t// in\n    tag_67:\n      tag_69\n      jump\t// in\n    tag_66:\n      stop\n        /* \"contracts/storage/LibSMEambStorage1.sol\":6614:6714  function genesislistRoot() external view returns(bytes32){return _getStorage(SLOT).genesislistRoot;} */\n    tag_5:\n      tag_70\n      tag_71\n      jump\t// in\n    tag_70:\n      mload(0x40)\n      tag_72\n      swap2\n      swap1\n      tag_73\n      jump\t// in\n    tag_72:\n      mload(0x40)\n      dup1\n      swap2\n      sub\n      swap1\n      return\n        /* \"contracts/storage/LibSMEambStorage1.sol\":4437:4565  function _packedAddressData(address _owner) external view returns(uint256){return _getStorage(SLOT)._packedAddressData[_owner];} */\n    tag_6:\n      tag_74\n      0x04\n      dup1\n      calldatasize\n      sub\n      dup2\n      add\n      swap1\n      tag_75\n      swap2\n      swap1\n      tag_76\n      jump\t// in\n    tag_75:\n      tag_77\n      jump\t// in\n    tag_74:\n      mload(0x40)\n      tag_78\n      swap2\n      swap1\n      tag_79\n      jump\t// in\n    tag_78:\n      mload(0x40)\n      dup1\n      swap2\n      sub\n      swap1\n      return\n        /* \"contracts/storage/LibSMEambStorage1.sol\":8050:8152  function epiclistRoot(bytes32 _epiclistRoot) external{_getStorage(SLOT).epiclistRoot = _epiclistRoot;} */\n    tag_7:\n      dup2\n      dup1\n      iszero\n      tag_80\n      jumpi\n      revert(0x00, 0x00)\n    tag_80:\n      pop\n      tag_81\n      0x04\n      dup1\n      calldatasize\n      sub\n      dup2\n      add\n      swap1\n      tag_82\n      swap2\n      swap1\n      tag_83\n      jump\t// in\n    tag_82:\n      tag_84\n      jump\t// in\n    tag_81:\n      stop\n        /* \"contracts/storage/LibSMEambStorage1.sol\":4863:5015  function _packedAddressDataDecr(address _owner) external{_getStorage(SLOT)._packedAddressData[_owner] = _getStorage(SLOT)._packedAddressData[_owner]-1;} */\n    tag_8:\n      dup2\n      dup1\n      iszero\n      tag_85\n      jumpi\n      revert(0x00, 0x00)\n    tag_85:\n      pop\n      tag_86\n      0x04\n      dup1\n      calldatasize\n      sub\n      dup2\n      add\n      swap1\n      tag_87\n      swap2\n      swap1\n      tag_76\n      jump\t// in\n    tag_87:\n      tag_88\n      jump\t// in\n    tag_86:\n      stop\n        /* \"contracts/storage/LibSMEambStorage1.sol\":3889:3974  function _startTokenId(uint256 _id) external {_getStorage(SLOT)._startTokenId = _id;} */\n    tag_9:\n      dup2\n      dup1\n      iszero\n      tag_89\n      jumpi\n      revert(0x00, 0x00)\n    tag_89:\n      pop\n      tag_90\n      0x04\n      dup1\n      calldatasize\n      sub\n      dup2\n      add\n      swap1\n      tag_91\n      swap2\n      swap1\n      tag_92\n      jump\t// in\n    tag_91:\n      tag_93\n      jump\t// in\n    tag_90:\n      stop\n        /* \"contracts/storage/LibSMEambStorage1.sol\":6824:6918  function epiclistRoot() external view returns(bytes32){return _getStorage(SLOT).epiclistRoot;} */\n    tag_10:\n      tag_94\n      tag_95\n      jump\t// in\n    tag_94:\n      mload(0x40)\n      tag_96\n      swap2\n      swap1\n      tag_73\n      jump\t// in\n    tag_96:\n      mload(0x40)\n      dup1\n      swap2\n      sub\n      swap1\n      return\n        /* \"contracts/storage/LibSMEambStorage1.sol\":3690:3781  function _currentIndex(uint256 _index) external {_getStorage(SLOT)._currentIndex = _index;} */\n    tag_11:\n      dup2\n      dup1\n      iszero\n      tag_97\n      jumpi\n      revert(0x00, 0x00)\n    tag_97:\n      pop\n      tag_98\n      0x04\n      dup1\n      calldatasize\n      sub\n      dup2\n      add\n      swap1\n      tag_99\n      swap2\n      swap1\n      tag_92\n      jump\t// in\n    tag_99:\n      tag_100\n      jump\t// in\n    tag_98:\n      stop\n        /* \"contracts/storage/LibSMEambStorage1.sol\":7814:7928  function genesislistRoot(bytes32 _genesislistRoot) external{_getStorage(SLOT).genesislistRoot = _genesislistRoot;} */\n    tag_12:\n      dup2\n      dup1\n      iszero\n      tag_101\n      jumpi\n      revert(0x00, 0x00)\n    tag_101:\n      pop\n      tag_102\n      0x04\n      dup1\n      calldatasize\n      sub\n      dup2\n      add\n      swap1\n      tag_103\n      swap2\n      swap1\n      tag_83\n      jump\t// in\n    tag_103:\n      tag_104\n      jump\t// in\n    tag_102:\n      stop\n        /* \"contracts/storage/LibSMEambStorage1.sol\":8158:8224  function fee(uint256 _fee) external{_getStorage(SLOT).fee = _fee;} */\n    tag_13:\n      dup2\n      dup1\n      iszero\n      tag_105\n      jumpi\n      revert(0x00, 0x00)\n    tag_105:\n      pop\n      tag_106\n      0x04\n      dup1\n      calldatasize\n      sub\n      dup2\n      add\n      swap1\n      tag_107\n      swap2\n      swap1\n      tag_92\n      jump\t// in\n    tag_107:\n      tag_108\n      jump\t// in\n    tag_106:\n      stop\n        /* \"contracts/storage/LibSMEambStorage1.sol\":8646:9848  function removeTokenFromAllTokensEnumeration(uint256 tokenId) external {... */\n    tag_14:\n      dup2\n      dup1\n      iszero\n      tag_109\n      jumpi\n      revert(0x00, 0x00)\n    tag_109:\n      pop\n      tag_110\n      0x04\n      dup1\n      calldatasize\n      sub\n      dup2\n      add\n      swap1\n      tag_111\n      swap2\n      swap1\n      tag_92\n      jump\t// in\n    tag_111:\n      tag_112\n      jump\t// in\n    tag_110:\n      stop\n        /* \"contracts/storage/LibSMEambStorage1.sol\":3496:3582  function symbol(string memory _symbol) external {_getStorage(SLOT)._symbol = _symbol;} */\n    tag_15:\n      dup2\n      dup1\n      iszero\n      tag_113\n      jumpi\n      revert(0x00, 0x00)\n    tag_113:\n      pop\n      tag_114\n      0x04\n      dup1\n      calldatasize\n      sub\n      dup2\n      add\n      swap1\n      tag_115\n      swap2\n      swap1\n      tag_116\n      jump\t// in\n    tag_115:\n      tag_117\n      jump\t// in\n    tag_114:\n      stop\n        /* \"contracts/storage/LibSMEambStorage1.sol\":3980:4074  function _burnCounter() external view returns(uint256){return _getStorage(SLOT)._burnCounter;} */\n    tag_16:\n      tag_118\n      tag_119\n      jump\t// in\n    tag_118:\n      mload(0x40)\n      tag_120\n      swap2\n      swap1\n      tag_79\n      jump\t// in\n    tag_120:\n      mload(0x40)\n      dup1\n      swap2\n      sub\n      swap1\n      return\n        /* \"contracts/storage/LibSMEambStorage1.sol\":4169:4299  function _packedOwnerships(uint256 _tokenId) external view returns(uint256){return _getStorage(SLOT)._packedOwnerships[_tokenId];} */\n    tag_17:\n      tag_121\n      0x04\n      dup1\n      calldatasize\n      sub\n      dup2\n      add\n      swap1\n      tag_122\n      swap2\n      swap1\n      tag_92\n      jump\t// in\n    tag_122:\n      tag_123\n      jump\t// in\n    tag_121:\n      mload(0x40)\n      tag_124\n      swap2\n      swap1\n      tag_79\n      jump\t// in\n    tag_124:\n      mload(0x40)\n      dup1\n      swap2\n      sub\n      swap1\n      return\n        /* \"contracts/storage/LibSMEambStorage1.sol\":7540:7678  function ownedTokens(address _owner, uint256 _index, uint256 _tokenId) external{_getStorage(SLOT).ownedTokens[_owner][_index] = _tokenId;} */\n    tag_18:\n      dup2\n      dup1\n      iszero\n      tag_125\n      jumpi\n      revert(0x00, 0x00)\n    tag_125:\n      pop\n      tag_126\n      0x04\n      dup1\n      calldatasize\n      sub\n      dup2\n      add\n      swap1\n      tag_127\n      swap2\n      swap1\n      tag_63\n      jump\t// in\n    tag_127:\n      tag_128\n      jump\t// in\n    tag_126:\n      stop\n        /* \"contracts/storage/LibSMEambStorage1.sol\":12245:12468  function addTokenToOwnerEnumeration(address to, uint256 tokenId, uint256 length) external {... */\n    tag_19:\n      dup2\n      dup1\n      iszero\n      tag_129\n      jumpi\n      revert(0x00, 0x00)\n    tag_129:\n      pop\n      tag_130\n      0x04\n      dup1\n      calldatasize\n      sub\n      dup2\n      add\n      swap1\n      tag_131\n      swap2\n      swap1\n      tag_63\n      jump\t// in\n    tag_131:\n      tag_132\n      jump\t// in\n    tag_130:\n      stop\n        /* \"contracts/storage/LibSMEambStorage1.sol\":3317:3395  function name(string memory _name) external {_getStorage(SLOT)._name = _name;} */\n    tag_20:\n      dup2\n      dup1\n      iszero\n      tag_133\n      jumpi\n      revert(0x00, 0x00)\n    tag_133:\n      pop\n      tag_134\n      0x04\n      dup1\n      calldatasize\n      sub\n      dup2\n      add\n      swap1\n      tag_135\n      swap2\n      swap1\n      tag_116\n      jump\t// in\n    tag_135:\n      tag_136\n      jump\t// in\n    tag_134:\n      stop\n        /* \"contracts/storage/LibSMEambStorage1.sol\":6115:6233  function tokenURIs(uint256 tokenId) external view returns(string memory){return _getStorage(SLOT).tokenURIs[tokenId];} */\n    tag_21:\n      tag_137\n      0x04\n      dup1\n      calldatasize\n      sub\n      dup2\n      add\n      swap1\n      tag_138\n      swap2\n      swap1\n      tag_92\n      jump\t// in\n    tag_138:\n      tag_139\n      jump\t// in\n    tag_137:\n      mload(0x40)\n      tag_140\n      swap2\n      swap1\n      tag_59\n      jump\t// in\n    tag_140:\n      mload(0x40)\n      dup1\n      swap2\n      sub\n      swap1\n      return\n        /* \"contracts/storage/LibSMEambStorage1.sol\":6511:6608  function allTokens() external view returns(uint256[] memory){return _getStorage(SLOT).allTokens;} */\n    tag_22:\n      tag_141\n      tag_142\n      jump\t// in\n    tag_141:\n      mload(0x40)\n      tag_143\n      swap2\n      swap1\n      tag_144\n      jump\t// in\n    tag_143:\n      mload(0x40)\n      dup1\n      swap2\n      sub\n      swap1\n      return\n        /* \"contracts/storage/LibSMEambStorage1.sol\":6379:6505  function ownedTokensIndex(uint256 tokenId) external view returns(uint256){return _getStorage(SLOT).ownedTokensIndex[tokenId];} */\n    tag_23:\n      tag_145\n      0x04\n      dup1\n      calldatasize\n      sub\n      dup2\n      add\n      swap1\n      tag_146\n      swap2\n      swap1\n      tag_92\n      jump\t// in\n    tag_146:\n      tag_147\n      jump\t// in\n    tag_145:\n      mload(0x40)\n      tag_148\n      swap2\n      swap1\n      tag_79\n      jump\t// in\n    tag_148:\n      mload(0x40)\n      dup1\n      swap2\n      sub\n      swap1\n      return\n        /* \"contracts/storage/LibSMEambStorage1.sol\":5719:5856  function _spotMintedIncr() external {uint256 _spotMinted = _getStorage(SLOT)._spotMinted; _getStorage(SLOT)._spotMinted = _spotMinted+1;} */\n    tag_24:\n      dup2\n      dup1\n      iszero\n      tag_149\n      jumpi\n      revert(0x00, 0x00)\n    tag_149:\n      pop\n      tag_150\n      tag_151\n      jump\t// in\n    tag_150:\n      stop\n        /* \"contracts/storage/LibSMEambStorage1.sol\":7284:7404  function defaultTokenURI(string memory _defaultTokenURI) external{_getStorage(SLOT).defaultTokenURI = _defaultTokenURI;} */\n    tag_25:\n      dup2\n      dup1\n      iszero\n      tag_152\n      jumpi\n      revert(0x00, 0x00)\n    tag_152:\n      pop\n      tag_153\n      0x04\n      dup1\n      calldatasize\n      sub\n      dup2\n      add\n      swap1\n      tag_154\n      swap2\n      swap1\n      tag_116\n      jump\t// in\n    tag_154:\n      tag_155\n      jump\t// in\n    tag_153:\n      stop\n        /* \"contracts/storage/LibSMEambStorage1.sol\":5464:5615  function _operatorApprovals(address owner, address operator, bool approved) external{_getStorage(SLOT)._operatorApprovals[owner][operator] = approved;} */\n    tag_26:\n      dup2\n      dup1\n      iszero\n      tag_156\n      jumpi\n      revert(0x00, 0x00)\n    tag_156:\n      pop\n      tag_157\n      0x04\n      dup1\n      calldatasize\n      sub\n      dup2\n      add\n      swap1\n      tag_158\n      swap2\n      swap1\n      tag_159\n      jump\t// in\n    tag_158:\n      tag_160\n      jump\t// in\n    tag_157:\n      stop\n        /* \"contracts/storage/LibSMEambStorage1.sol\":7934:8044  function legendlistRoot(bytes32 _legendlistRoot) external{_getStorage(SLOT).legendlistRoot = _legendlistRoot;} */\n    tag_27:\n      dup2\n      dup1\n      iszero\n      tag_161\n      jumpi\n      revert(0x00, 0x00)\n    tag_161:\n      pop\n      tag_162\n      0x04\n      dup1\n      calldatasize\n      sub\n      dup2\n      add\n      swap1\n      tag_163\n      swap2\n      swap1\n      tag_83\n      jump\t// in\n    tag_163:\n      tag_164\n      jump\t// in\n    tag_162:\n      stop\n        /* \"contracts/storage/LibSMEambStorage1.sol\":4080:4163  function _burnCounter(uint256 _id) external {_getStorage(SLOT)._burnCounter = _id;} */\n    tag_28:\n      dup2\n      dup1\n      iszero\n      tag_165\n      jumpi\n      revert(0x00, 0x00)\n    tag_165:\n      pop\n      tag_166\n      0x04\n      dup1\n      calldatasize\n      sub\n      dup2\n      add\n      swap1\n      tag_167\n      swap2\n      swap1\n      tag_92\n      jump\t// in\n    tag_167:\n      tag_168\n      jump\t// in\n    tag_166:\n      stop\n        /* \"contracts/storage/LibSMEambStorage1.sol\":3588:3684  function _currentIndex() external view returns(uint256){return _getStorage(SLOT)._currentIndex;} */\n    tag_29:\n      tag_169\n      tag_170\n      jump\t// in\n    tag_169:\n      mload(0x40)\n      tag_171\n      swap2\n      swap1\n      tag_79\n      jump\t// in\n    tag_171:\n      mload(0x40)\n      dup1\n      swap2\n      sub\n      swap1\n      return\n        /* \"contracts/storage/LibSMEambStorage1.sol\":3401:3490  function symbol() external view returns(string memory){return _getStorage(SLOT)._symbol;} */\n    tag_30:\n      tag_172\n      tag_173\n      jump\t// in\n    tag_172:\n      mload(0x40)\n      tag_174\n      swap2\n      swap1\n      tag_59\n      jump\t// in\n    tag_174:\n      mload(0x40)\n      dup1\n      swap2\n      sub\n      swap1\n      return\n        /* \"contracts/storage/LibSMEambStorage1.sol\":6003:6109  function defaultTokenURI() external view returns(string memory){return _getStorage(SLOT).defaultTokenURI;} */\n    tag_31:\n      tag_175\n      tag_176\n      jump\t// in\n    tag_175:\n      mload(0x40)\n      tag_177\n      swap2\n      swap1\n      tag_59\n      jump\t// in\n    tag_177:\n      mload(0x40)\n      dup1\n      swap2\n      sub\n      swap1\n      return\n        /* \"contracts/storage/LibSMEambStorage1.sol\":3787:3883  function _startTokenId() external view returns(uint256){return _getStorage(SLOT)._startTokenId;} */\n    tag_32:\n      tag_178\n      tag_179\n      jump\t// in\n    tag_178:\n      mload(0x40)\n      tag_180\n      swap2\n      swap1\n      tag_79\n      jump\t// in\n    tag_180:\n      mload(0x40)\n      dup1\n      swap2\n      sub\n      swap1\n      return\n        /* \"contracts/storage/LibSMEambStorage1.sol\":7170:7278  function baseTokenURI(string memory _baseTokenURI) external{_getStorage(SLOT).baseTokenURI = _baseTokenURI;} */\n    tag_33:\n      dup2\n      dup1\n      iszero\n      tag_181\n      jumpi\n      revert(0x00, 0x00)\n    tag_181:\n      pop\n      tag_182\n      0x04\n      dup1\n      calldatasize\n      sub\n      dup2\n      add\n      swap1\n      tag_183\n      swap2\n      swap1\n      tag_116\n      jump\t// in\n    tag_183:\n      tag_184\n      jump\t// in\n    tag_182:\n      stop\n        /* \"contracts/storage/LibSMEambStorage1.sol\":4571:4699  function _packedAddressData(address _owner, uint256 _tokenId) external{_getStorage(SLOT)._packedAddressData[_owner] = _tokenId;} */\n    tag_34:\n      dup2\n      dup1\n      iszero\n      tag_185\n      jumpi\n      revert(0x00, 0x00)\n    tag_185:\n      pop\n      tag_186\n      0x04\n      dup1\n      calldatasize\n      sub\n      dup2\n      add\n      swap1\n      tag_187\n      swap2\n      swap1\n      tag_188\n      jump\t// in\n    tag_187:\n      tag_189\n      jump\t// in\n    tag_186:\n      stop\n        /* \"contracts/storage/LibSMEambStorage1.sol\":5021:5163  function _tokenApprovals(uint256 _tokenId) external view returns(TokenApprovalRef memory){return _getStorage(SLOT)._tokenApprovals[_tokenId];} */\n    tag_35:\n      tag_190\n      0x04\n      dup1\n      calldatasize\n      sub\n      dup2\n      add\n      swap1\n      tag_191\n      swap2\n      swap1\n      tag_92\n      jump\t// in\n    tag_191:\n      tag_192\n      jump\t// in\n    tag_190:\n      mload(0x40)\n      tag_193\n      swap2\n      swap1\n      tag_194\n      jump\t// in\n    tag_193:\n      mload(0x40)\n      dup1\n      swap2\n      sub\n      swap1\n      return\n        /* \"contracts/storage/LibSMEambStorage1.sol\":7684:7808  function ownedTokensIndex(uint256 _tokenId, uint256 _index) external{_getStorage(SLOT).ownedTokensIndex[_tokenId] = _index;} */\n    tag_36:\n      dup2\n      dup1\n      iszero\n      tag_195\n      jumpi\n      revert(0x00, 0x00)\n    tag_195:\n      pop\n      tag_196\n      0x04\n      dup1\n      calldatasize\n      sub\n      dup2\n      add\n      swap1\n      tag_197\n      swap2\n      swap1\n      tag_198\n      jump\t// in\n    tag_197:\n      tag_199\n      jump\t// in\n    tag_196:\n      stop\n        /* \"contracts/storage/LibSMEambStorage1.sol\":8230:8347  function guaranteed_minted(address _owner, bool _bool) external{_getStorage(SLOT).guaranteed_minted[_owner] = _bool;} */\n    tag_37:\n      dup2\n      dup1\n      iszero\n      tag_200\n      jumpi\n      revert(0x00, 0x00)\n    tag_200:\n      pop\n      tag_201\n      0x04\n      dup1\n      calldatasize\n      sub\n      dup2\n      add\n      swap1\n      tag_202\n      swap2\n      swap1\n      tag_203\n      jump\t// in\n    tag_202:\n      tag_204\n      jump\t// in\n    tag_201:\n      stop\n        /* \"contracts/storage/LibSMEambStorage1.sol\":7006:7127  function guaranteed_minted(address owner) external view returns(bool){return _getStorage(SLOT).guaranteed_minted[owner];} */\n    tag_38:\n      tag_205\n      0x04\n      dup1\n      calldatasize\n      sub\n      dup2\n      add\n      swap1\n      tag_206\n      swap2\n      swap1\n      tag_76\n      jump\t// in\n    tag_206:\n      tag_207\n      jump\t// in\n    tag_205:\n      mload(0x40)\n      tag_208\n      swap2\n      swap1\n      tag_209\n      jump\t// in\n    tag_208:\n      mload(0x40)\n      dup1\n      swap2\n      sub\n      swap1\n      return\n        /* \"contracts/storage/LibSMEambStorage1.sol\":4705:4857  function _packedAddressDataIncr(address _owner) external{_getStorage(SLOT)._packedAddressData[_owner] = _getStorage(SLOT)._packedAddressData[_owner]+1;} */\n    tag_39:\n      dup2\n      dup1\n      iszero\n      tag_210\n      jumpi\n      revert(0x00, 0x00)\n    tag_210:\n      pop\n      tag_211\n      0x04\n      dup1\n      calldatasize\n      sub\n      dup2\n      add\n      swap1\n      tag_212\n      swap2\n      swap1\n      tag_76\n      jump\t// in\n    tag_212:\n      tag_213\n      jump\t// in\n    tag_211:\n      stop\n        /* \"contracts/storage/LibSMEambStorage1.sol\":5621:5713  function _spotMinted() external view returns(uint256){return _getStorage(SLOT)._spotMinted;} */\n    tag_40:\n      tag_214\n      tag_215\n      jump\t// in\n    tag_214:\n      mload(0x40)\n      tag_216\n      swap2\n      swap1\n      tag_79\n      jump\t// in\n    tag_216:\n      mload(0x40)\n      dup1\n      swap2\n      sub\n      swap1\n      return\n        /* \"contracts/storage/LibSMEambStorage1.sol\":5897:5997  function baseTokenURI() external view returns(string memory){return _getStorage(SLOT).baseTokenURI;} */\n    tag_41:\n      tag_217\n      tag_218\n      jump\t// in\n    tag_217:\n      mload(0x40)\n      tag_219\n      swap2\n      swap1\n      tag_59\n      jump\t// in\n    tag_219:\n      mload(0x40)\n      dup1\n      swap2\n      sub\n      swap1\n      return\n        /* \"contracts/storage/LibSMEambStorage1.sol\":10050:10265  function addTokenToAllTokensEnumeration(uint256 tokenId) external {... */\n    tag_42:\n      dup2\n      dup1\n      iszero\n      tag_220\n      jumpi\n      revert(0x00, 0x00)\n    tag_220:\n      pop\n      tag_221\n      0x04\n      dup1\n      calldatasize\n      sub\n      dup2\n      add\n      swap1\n      tag_222\n      swap2\n      swap1\n      tag_92\n      jump\t// in\n    tag_222:\n      tag_223\n      jump\t// in\n    tag_221:\n      stop\n        /* \"contracts/storage/LibSMEambStorage1.sol\":6924:7000  function fee() external view returns(uint256){return _getStorage(SLOT).fee;} */\n    tag_43:\n      tag_224\n      tag_225\n      jump\t// in\n    tag_224:\n      mload(0x40)\n      tag_226\n      swap2\n      swap1\n      tag_79\n      jump\t// in\n    tag_226:\n      mload(0x40)\n      dup1\n      swap2\n      sub\n      swap1\n      return\n        /* \"contracts/storage/LibSMEambStorage1.sol\":7410:7534  function tokenURIs(string memory _tokenURIs, uint256 _tokenId) external{_getStorage(SLOT).tokenURIs[_tokenId] = _tokenURIs;} */\n    tag_44:\n      dup2\n      dup1\n      iszero\n      tag_227\n      jumpi\n      revert(0x00, 0x00)\n    tag_227:\n      pop\n      tag_228\n      0x04\n      dup1\n      calldatasize\n      sub\n      dup2\n      add\n      swap1\n      tag_229\n      swap2\n      swap1\n      tag_230\n      jump\t// in\n    tag_229:\n      tag_231\n      jump\t// in\n    tag_228:\n      stop\n        /* \"contracts/storage/LibSMEambStorage1.sol\":6239:6373  function ownedTokens(address owner, uint256 index) external view returns(uint256){return _getStorage(SLOT).ownedTokens[owner][index];} */\n    tag_45:\n      tag_232\n      0x04\n      dup1\n      calldatasize\n      sub\n      dup2\n      add\n      swap1\n      tag_233\n      swap2\n      swap1\n      tag_188\n      jump\t// in\n    tag_233:\n      tag_234\n      jump\t// in\n    tag_232:\n      mload(0x40)\n      tag_235\n      swap2\n      swap1\n      tag_79\n      jump\t// in\n    tag_235:\n      mload(0x40)\n      dup1\n      swap2\n      sub\n      swap1\n      return\n        /* \"contracts/storage/LibSMEambStorage1.sol\":4305:4431  function _packedOwnerships(uint256 _tokenId, uint256 _index) external{_getStorage(SLOT)._packedOwnerships[_tokenId] = _index;} */\n    tag_46:\n      dup2\n      dup1\n      iszero\n      tag_236\n      jumpi\n      revert(0x00, 0x00)\n    tag_236:\n      pop\n      tag_237\n      0x04\n      dup1\n      calldatasize\n      sub\n      dup2\n      add\n      swap1\n      tag_238\n      swap2\n      swap1\n      tag_198\n      jump\t// in\n    tag_238:\n      tag_239\n      jump\t// in\n    tag_237:\n      stop\n        /* \"contracts/storage/LibSMEambStorage1.sol\":5307:5458  function _operatorApprovals(address owner, address operator) external view returns(bool){return _getStorage(SLOT)._operatorApprovals[owner][operator];} */\n    tag_47:\n      tag_240\n      0x04\n      dup1\n      calldatasize\n      sub\n      dup2\n      add\n      swap1\n      tag_241\n      swap2\n      swap1\n      tag_242\n      jump\t// in\n    tag_241:\n      tag_243\n      jump\t// in\n    tag_240:\n      mload(0x40)\n      tag_244\n      swap2\n      swap1\n      tag_209\n      jump\t// in\n    tag_244:\n      mload(0x40)\n      dup1\n      swap2\n      sub\n      swap1\n      return\n        /* \"contracts/storage/LibSMEambStorage1.sol\":6720:6818  function legendlistRoot() external view returns(bytes32){return _getStorage(SLOT).legendlistRoot;} */\n    tag_48:\n      tag_245\n      tag_246\n      jump\t// in\n    tag_245:\n      mload(0x40)\n      tag_247\n      swap2\n      swap1\n      tag_73\n      jump\t// in\n    tag_247:\n      mload(0x40)\n      dup1\n      swap2\n      sub\n      swap1\n      return\n        /* \"contracts/storage/LibSMEambStorage1.sol\":3226:3311  function name() external view returns(string memory){return _getStorage(SLOT)._name;} */\n    tag_57:\n        /* \"contracts/storage/LibSMEambStorage1.sol\":3264:3277  string memory */\n      0x60\n        /* \"contracts/storage/LibSMEambStorage1.sol\":3286:3303  _getStorage(SLOT) */\n      tag_249\n        /* \"contracts/storage/LibSMEambStorage1.sol\":395:410  bytes('SMEamb') */\n      mload(0x40)\n      dup1\n      0x40\n      add\n      0x40\n      mstore\n      dup1\n      0x06\n      dup2\n      mstore\n      0x20\n      add\n      0x534d45616d620000000000000000000000000000000000000000000000000000\n      dup2\n      mstore\n      pop\n        /* \"contracts/storage/LibSMEambStorage1.sol\":385:411  keccak256(bytes('SMEamb')) */\n      dup1\n      mload\n      swap1\n      0x20\n      add\n      keccak256\n        /* \"contracts/storage/LibSMEambStorage1.sol\":3286:3297  _getStorage */\n      tag_250\n        /* \"contracts/storage/LibSMEambStorage1.sol\":3286:3303  _getStorage(SLOT) */\n      jump\t// in\n    tag_249:\n        /* \"contracts/storage/LibSMEambStorage1.sol\":3286:3309  _getStorage(SLOT)._name */\n      0x0e\n      add\n        /* \"contracts/storage/LibSMEambStorage1.sol\":3279:3309  return _getStorage(SLOT)._name */\n      dup1\n      sload\n      tag_251\n      swap1\n      tag_252\n      jump\t// in\n    tag_251:\n      dup1\n      0x1f\n      add\n      0x20\n      dup1\n      swap2\n      div\n      mul\n      0x20\n      add\n      mload(0x40)\n      swap1\n      dup2\n      add\n      0x40\n      mstore\n      dup1\n      swap3\n      swap2\n      swap1\n      dup2\n      dup2\n      mstore\n      0x20\n      add\n      dup3\n      dup1\n      sload\n      tag_253\n      swap1\n      tag_252\n      jump\t// in\n    tag_253:\n      dup1\n      iszero\n      tag_254\n      jumpi\n      dup1\n      0x1f\n      lt\n      tag_255\n      jumpi\n      0x0100\n      dup1\n      dup4\n      sload\n      div\n      mul\n      dup4\n      mstore\n      swap2\n      0x20\n      add\n      swap2\n      jump(tag_254)\n    tag_255:\n      dup3\n      add\n      swap2\n      swap1\n      0x00\n      mstore\n      keccak256(0x00, 0x20)\n      swap1\n    tag_256:\n      dup2\n      sload\n      dup2\n      mstore\n      swap1\n      0x01\n      add\n      swap1\n      0x20\n      add\n      dup1\n      dup4\n      gt\n      tag_256\n      jumpi\n      dup3\n      swap1\n      sub\n      0x1f\n      and\n      dup3\n      add\n      swap2\n    tag_254:\n      pop\n      pop\n      pop\n      pop\n      pop\n      swap1\n      pop\n        /* \"contracts/storage/LibSMEambStorage1.sol\":3226:3311  function name() external view returns(string memory){return _getStorage(SLOT)._name;} */\n      swap1\n      jump\t// out\n        /* \"contracts/storage/LibSMEambStorage1.sol\":10892:11944  function removeTokenFromOwnerEnumeration(address from, uint256 tokenId, uint256 lastTokenIndex) external {... */\n    tag_64:\n        /* \"contracts/storage/LibSMEambStorage1.sol\":11182:11200  uint256 tokenIndex */\n      0x00\n        /* \"contracts/storage/LibSMEambStorage1.sol\":11203:11220  _getStorage(SLOT) */\n      tag_258\n        /* \"contracts/storage/LibSMEambStorage1.sol\":395:410  bytes('SMEamb') */\n      mload(0x40)\n      dup1\n      0x40\n      add\n      0x40\n      mstore\n      dup1\n      0x06\n      dup2\n      mstore\n      0x20\n      add\n      0x534d45616d620000000000000000000000000000000000000000000000000000\n      dup2\n      mstore\n      pop\n        /* \"contracts/storage/LibSMEambStorage1.sol\":385:411  keccak256(bytes('SMEamb')) */\n      dup1\n      mload\n      swap1\n      0x20\n      add\n      keccak256\n        /* \"contracts/storage/LibSMEambStorage1.sol\":11203:11214  _getStorage */\n      tag_250\n        /* \"contracts/storage/LibSMEambStorage1.sol\":11203:11220  _getStorage(SLOT) */\n      jump\t// in\n    tag_258:\n        /* \"contracts/storage/LibSMEambStorage1.sol\":11203:11237  _getStorage(SLOT).ownedTokensIndex */\n      0x04\n      add\n        /* \"contracts/storage/LibSMEambStorage1.sol\":11203:11246  _getStorage(SLOT).ownedTokensIndex[tokenId] */\n      0x00\n        /* \"contracts/storage/LibSMEambStorage1.sol\":11238:11245  tokenId */\n      dup5\n        /* \"contracts/storage/LibSMEambStorage1.sol\":11203:11246  _getStorage(SLOT).ownedTokensIndex[tokenId] */\n      dup2\n      mstore\n      0x20\n      add\n      swap1\n      dup2\n      mstore\n      0x20\n      add\n      0x00\n      keccak256\n      sload\n        /* \"contracts/storage/LibSMEambStorage1.sol\":11182:11246  uint256 tokenIndex = _getStorage(SLOT).ownedTokensIndex[tokenId] */\n      swap1\n      pop\n        /* \"contracts/storage/LibSMEambStorage1.sol\":11367:11381  lastTokenIndex */\n      dup2\n        /* \"contracts/storage/LibSMEambStorage1.sol\":11353:11363  tokenIndex */\n      dup2\n        /* \"contracts/storage/LibSMEambStorage1.sol\":11353:11381  tokenIndex != lastTokenIndex */\n      eq\n        /* \"contracts/storage/LibSMEambStorage1.sol\":11349:11728  if (tokenIndex != lastTokenIndex) {... */\n      tag_259\n      jumpi\n        /* \"contracts/storage/LibSMEambStorage1.sol\":11398:11417  uint256 lastTokenId */\n      0x00\n        /* \"contracts/storage/LibSMEambStorage1.sol\":11420:11437  _getStorage(SLOT) */\n      tag_260\n        /* \"contracts/storage/LibSMEambStorage1.sol\":395:410  bytes('SMEamb') */\n      mload(0x40)\n      dup1\n      0x40\n      add\n      0x40\n      mstore\n      dup1\n      0x06\n      dup2\n      mstore\n      0x20\n      add\n      0x534d45616d620000000000000000000000000000000000000000000000000000\n      dup2\n      mstore\n      pop\n        /* \"contracts/storage/LibSMEambStorage1.sol\":385:411  keccak256(bytes('SMEamb')) */\n      dup1\n      mload\n      swap1\n      0x20\n      add\n      keccak256\n        /* \"contracts/storage/LibSMEambStorage1.sol\":11420:11431  _getStorage */\n      tag_250\n        /* \"contracts/storage/LibSMEambStorage1.sol\":11420:11437  _getStorage(SLOT) */\n      jump\t// in\n    tag_260:\n        /* \"contracts/storage/LibSMEambStorage1.sol\":11420:11449  _getStorage(SLOT).ownedTokens */\n      0x03\n      add\n        /* \"contracts/storage/LibSMEambStorage1.sol\":11420:11455  _getStorage(SLOT).ownedTokens[from] */\n      0x00\n        /* \"contracts/storage/LibSMEambStorage1.sol\":11450:11454  from */\n      dup7\n        /* \"contracts/storage/LibSMEambStorage1.sol\":11420:11455  _getStorage(SLOT).ownedTokens[from] */\n      0xffffffffffffffffffffffffffffffffffffffff\n      and\n      0xffffffffffffffffffffffffffffffffffffffff\n      and\n      dup2\n      mstore\n      0x20\n      add\n      swap1\n      dup2\n      mstore\n      0x20\n      add\n      0x00\n      keccak256\n        /* \"contracts/storage/LibSMEambStorage1.sol\":11420:11471  _getStorage(SLOT).ownedTokens[from][lastTokenIndex] */\n      0x00\n        /* \"contracts/storage/LibSMEambStorage1.sol\":11456:11470  lastTokenIndex */\n      dup5\n        /* \"contracts/storage/LibSMEambStorage1.sol\":11420:11471  _getStorage(SLOT).ownedTokens[from][lastTokenIndex] */\n      dup2\n      mstore\n      0x20\n      add\n      swap1\n      dup2\n      mstore\n      0x20\n      add\n      0x00\n      keccak256\n      sload\n        /* \"contracts/storage/LibSMEambStorage1.sol\":11398:11471  uint256 lastTokenId = _getStorage(SLOT).ownedTokens[from][lastTokenIndex] */\n      swap1\n      pop\n        /* \"contracts/storage/LibSMEambStorage1.sol\":11538:11549  lastTokenId */\n      dup1\n        /* \"contracts/storage/LibSMEambStorage1.sol\":11488:11505  _getStorage(SLOT) */\n      tag_261\n        /* \"contracts/storage/LibSMEambStorage1.sol\":395:410  bytes('SMEamb') */\n      mload(0x40)\n      dup1\n      0x40\n      add\n      0x40\n      mstore\n      dup1\n      0x06\n      dup2\n      mstore\n      0x20\n      add\n      0x534d45616d620000000000000000000000000000000000000000000000000000\n      dup2\n      mstore\n      pop\n        /* \"contracts/storage/LibSMEambStorage1.sol\":385:411  keccak256(bytes('SMEamb')) */\n      dup1\n      mload\n      swap1\n      0x20\n      add\n      keccak256\n        /* \"contracts/storage/LibSMEambStorage1.sol\":11488:11499  _getStorage */\n      tag_250\n        /* \"contracts/storage/LibSMEambStorage1.sol\":11488:11505  _getStorage(SLOT) */\n      jump\t// in\n    tag_261:\n        /* \"contracts/storage/LibSMEambStorage1.sol\":11488:11517  _getStorage(SLOT).ownedTokens */\n      0x03\n      add\n        /* \"contracts/storage/LibSMEambStorage1.sol\":11488:11523  _getStorage(SLOT).ownedTokens[from] */\n      0x00\n        /* \"contracts/storage/LibSMEambStorage1.sol\":11518:11522  from */\n      dup8\n        /* \"contracts/storage/LibSMEambStorage1.sol\":11488:11523  _getStorage(SLOT).ownedTokens[from] */\n      0xffffffffffffffffffffffffffffffffffffffff\n      and\n      0xffffffffffffffffffffffffffffffffffffffff\n      and\n      dup2\n      mstore\n      0x20\n      add\n      swap1\n      dup2\n      mstore\n      0x20\n      add\n      0x00\n      keccak256\n        /* \"contracts/storage/LibSMEambStorage1.sol\":11488:11535  _getStorage(SLOT).ownedTokens[from][tokenIndex] */\n      0x00\n        /* \"contracts/storage/LibSMEambStorage1.sol\":11524:11534  tokenIndex */\n      dup5\n        /* \"contracts/storage/LibSMEambStorage1.sol\":11488:11535  _getStorage(SLOT).ownedTokens[from][tokenIndex] */\n      dup2\n      mstore\n      0x20\n      add\n      swap1\n      dup2\n      mstore\n      0x20\n      add\n      0x00\n      keccak256\n        /* \"contracts/storage/LibSMEambStorage1.sol\":11488:11549  _getStorage(SLOT).ownedTokens[from][tokenIndex] = lastTokenId */\n      dup2\n      swap1\n      sstore\n      pop\n        /* \"contracts/storage/LibSMEambStorage1.sol\":11672:11682  tokenIndex */\n      dup2\n        /* \"contracts/storage/LibSMEambStorage1.sol\":11622:11639  _getStorage(SLOT) */\n      tag_262\n        /* \"contracts/storage/LibSMEambStorage1.sol\":395:410  bytes('SMEamb') */\n      mload(0x40)\n      dup1\n      0x40\n      add\n      0x40\n      mstore\n      dup1\n      0x06\n      dup2\n      mstore\n      0x20\n      add\n      0x534d45616d620000000000000000000000000000000000000000000000000000\n      dup2\n      mstore\n      pop\n        /* \"contracts/storage/LibSMEambStorage1.sol\":385:411  keccak256(bytes('SMEamb')) */\n      dup1\n      mload\n      swap1\n      0x20\n      add\n      keccak256\n        /* \"contracts/storage/LibSMEambStorage1.sol\":11622:11633  _getStorage */\n      tag_250\n        /* \"contracts/storage/LibSMEambStorage1.sol\":11622:11639  _getStorage(SLOT) */\n      jump\t// in\n    tag_262:\n        /* \"contracts/storage/LibSMEambStorage1.sol\":11622:11656  _getStorage(SLOT).ownedTokensIndex */\n      0x04\n      add\n        /* \"contracts/storage/LibSMEambStorage1.sol\":11622:11669  _getStorage(SLOT).ownedTokensIndex[lastTokenId] */\n      0x00\n        /* \"contracts/storage/LibSMEambStorage1.sol\":11657:11668  lastTokenId */\n      dup4\n        /* \"contracts/storage/LibSMEambStorage1.sol\":11622:11669  _getStorage(SLOT).ownedTokensIndex[lastTokenId] */\n      dup2\n      mstore\n      0x20\n      add\n      swap1\n      dup2\n      mstore\n      0x20\n      add\n      0x00\n      keccak256\n        /* \"contracts/storage/LibSMEambStorage1.sol\":11622:11682  _getStorage(SLOT).ownedTokensIndex[lastTokenId] = tokenIndex */\n      dup2\n      swap1\n      sstore\n      pop\n        /* \"contracts/storage/LibSMEambStorage1.sol\":11383:11728  {... */\n      pop\n        /* \"contracts/storage/LibSMEambStorage1.sol\":11349:11728  if (tokenIndex != lastTokenIndex) {... */\n    tag_259:\n        /* \"contracts/storage/LibSMEambStorage1.sol\":11824:11841  _getStorage(SLOT) */\n      tag_263\n        /* \"contracts/storage/LibSMEambStorage1.sol\":395:410  bytes('SMEamb') */\n      mload(0x40)\n      dup1\n      0x40\n      add\n      0x40\n      mstore\n      dup1\n      0x06\n      dup2\n      mstore\n      0x20\n      add\n      0x534d45616d620000000000000000000000000000000000000000000000000000\n      dup2\n      mstore\n      pop\n        /* \"contracts/storage/LibSMEambStorage1.sol\":385:411  keccak256(bytes('SMEamb')) */\n      dup1\n      mload\n      swap1\n      0x20\n      add\n      keccak256\n        /* \"contracts/storage/LibSMEambStorage1.sol\":11824:11835  _getStorage */\n      tag_250\n        /* \"contracts/storage/LibSMEambStorage1.sol\":11824:11841  _getStorage(SLOT) */\n      jump\t// in\n    tag_263:\n        /* \"contracts/storage/LibSMEambStorage1.sol\":11824:11858  _getStorage(SLOT).ownedTokensIndex */\n      0x04\n      add\n        /* \"contracts/storage/LibSMEambStorage1.sol\":11824:11867  _getStorage(SLOT).ownedTokensIndex[tokenId] */\n      0x00\n        /* \"contracts/storage/LibSMEambStorage1.sol\":11859:11866  tokenId */\n      dup5\n        /* \"contracts/storage/LibSMEambStorage1.sol\":11824:11867  _getStorage(SLOT).ownedTokensIndex[tokenId] */\n      dup2\n      mstore\n      0x20\n      add\n      swap1\n      dup2\n      mstore\n      0x20\n      add\n      0x00\n      keccak256\n        /* \"contracts/storage/LibSMEambStorage1.sol\":11817:11867  delete _getStorage(SLOT).ownedTokensIndex[tokenId] */\n      0x00\n      swap1\n      sstore\n        /* \"contracts/storage/LibSMEambStorage1.sol\":11885:11902  _getStorage(SLOT) */\n      tag_264\n        /* \"contracts/storage/LibSMEambStorage1.sol\":395:410  bytes('SMEamb') */\n      mload(0x40)\n      dup1\n      0x40\n      add\n      0x40\n      mstore\n      dup1\n      0x06\n      dup2\n      mstore\n      0x20\n      add\n      0x534d45616d620000000000000000000000000000000000000000000000000000\n      dup2\n      mstore\n      pop\n        /* \"contracts/storage/LibSMEambStorage1.sol\":385:411  keccak256(bytes('SMEamb')) */\n      dup1\n      mload\n      swap1\n      0x20\n      add\n      keccak256\n        /* \"contracts/storage/LibSMEambStorage1.sol\":11885:11896  _getStorage */\n      tag_250\n        /* \"contracts/storage/LibSMEambStorage1.sol\":11885:11902  _getStorage(SLOT) */\n      jump\t// in\n    tag_264:\n        /* \"contracts/storage/LibSMEambStorage1.sol\":11885:11914  _getStorage(SLOT).ownedTokens */\n      0x03\n      add\n        /* \"contracts/storage/LibSMEambStorage1.sol\":11885:11920  _getStorage(SLOT).ownedTokens[from] */\n      0x00\n        /* \"contracts/storage/LibSMEambStorage1.sol\":11915:11919  from */\n      dup6\n        /* \"contracts/storage/LibSMEambStorage1.sol\":11885:11920  _getStorage(SLOT).ownedTokens[from] */\n      0xffffffffffffffffffffffffffffffffffffffff\n      and\n      0xffffffffffffffffffffffffffffffffffffffff\n      and\n      dup2\n      mstore\n      0x20\n      add\n      swap1\n      dup2\n      mstore\n      0x20\n      add\n      0x00\n      keccak256\n        /* \"contracts/storage/LibSMEambStorage1.sol\":11885:11936  _getStorage(SLOT).ownedTokens[from][lastTokenIndex] */\n      0x00\n        /* \"contracts/storage/LibSMEambStorage1.sol\":11921:11935  lastTokenIndex */\n      dup4\n        /* \"contracts/storage/LibSMEambStorage1.sol\":11885:11936  _getStorage(SLOT).ownedTokens[from][lastTokenIndex] */\n      dup2\n      mstore\n      0x20\n      add\n      swap1\n      dup2\n      mstore\n      0x20\n      add\n      0x00\n      keccak256\n        /* \"contracts/storage/LibSMEambStorage1.sol\":11878:11936  delete _getStorage(SLOT).ownedTokens[from][lastTokenIndex] */\n      0x00\n      swap1\n      sstore\n        /* \"contracts/storage/LibSMEambStorage1.sol\":10997:11944  {... */\n      pop\n        /* \"contracts/storage/LibSMEambStorage1.sol\":10892:11944  function removeTokenFromOwnerEnumeration(address from, uint256 tokenId, uint256 lastTokenIndex) external {... */\n      pop\n      pop\n      pop\n      jump\t// out\n        /* \"contracts/storage/LibSMEambStorage1.sol\":5169:5301  function _tokenApprovals(uint256 _tokenId, address _address) external{_getStorage(SLOT)._tokenApprovals[_tokenId].value = _address;} */\n    tag_69:\n        /* \"contracts/storage/LibSMEambStorage1.sol\":5291:5299  _address */\n      dup1\n        /* \"contracts/storage/LibSMEambStorage1.sol\":5239:5256  _getStorage(SLOT) */\n      tag_266\n        /* \"contracts/storage/LibSMEambStorage1.sol\":395:410  bytes('SMEamb') */\n      mload(0x40)\n      dup1\n      0x40\n      add\n      0x40\n      mstore\n      dup1\n      0x06\n      dup2\n      mstore\n      0x20\n      add\n      0x534d45616d620000000000000000000000000000000000000000000000000000\n      dup2\n      mstore\n      pop\n        /* \"contracts/storage/LibSMEambStorage1.sol\":385:411  keccak256(bytes('SMEamb')) */\n      dup1\n      mload\n      swap1\n      0x20\n      add\n      keccak256\n        /* \"contracts/storage/LibSMEambStorage1.sol\":5239:5250  _getStorage */\n      tag_250\n        /* \"contracts/storage/LibSMEambStorage1.sol\":5239:5256  _getStorage(SLOT) */\n      jump\t// in\n    tag_266:\n        /* \"contracts/storage/LibSMEambStorage1.sol\":5239:5272  _getStorage(SLOT)._tokenApprovals */\n      0x12\n      add\n        /* \"contracts/storage/LibSMEambStorage1.sol\":5239:5282  _getStorage(SLOT)._tokenApprovals[_tokenId] */\n      0x00\n        /* \"contracts/storage/LibSMEambStorage1.sol\":5273:5281  _tokenId */\n      dup5\n        /* \"contracts/storage/LibSMEambStorage1.sol\":5239:5282  _getStorage(SLOT)._tokenApprovals[_tokenId] */\n      dup2\n      mstore\n      0x20\n      add\n      swap1\n      dup2\n      mstore\n      0x20\n      add\n      0x00\n      keccak256\n        /* \"contracts/storage/LibSMEambStorage1.sol\":5239:5288  _getStorage(SLOT)._tokenApprovals[_tokenId].value */\n      0x00\n      add\n      0x00\n        /* \"contracts/storage/LibSMEambStorage1.sol\":5239:5299  _getStorage(SLOT)._tokenApprovals[_tokenId].value = _address */\n      0x0100\n      exp\n      dup2\n      sload\n      dup2\n      0xffffffffffffffffffffffffffffffffffffffff\n      mul\n      not\n      and\n      swap1\n      dup4\n      0xffffffffffffffffffffffffffffffffffffffff\n      and\n      mul\n      or\n      swap1\n      sstore\n      pop\n        /* \"contracts/storage/LibSMEambStorage1.sol\":5169:5301  function _tokenApprovals(uint256 _tokenId, address _address) external{_getStorage(SLOT)._tokenApprovals[_tokenId].value = _address;} */\n      pop\n      pop\n      jump\t// out\n        /* \"contracts/storage/LibSMEambStorage1.sol\":6614:6714  function genesislistRoot() external view returns(bytes32){return _getStorage(SLOT).genesislistRoot;} */\n    tag_71:\n        /* \"contracts/storage/LibSMEambStorage1.sol\":6663:6670  bytes32 */\n      0x00\n        /* \"contracts/storage/LibSMEambStorage1.sol\":6679:6696  _getStorage(SLOT) */\n      tag_268\n        /* \"contracts/storage/LibSMEambStorage1.sol\":395:410  bytes('SMEamb') */\n      mload(0x40)\n      dup1\n      0x40\n      add\n      0x40\n      mstore\n      dup1\n      0x06\n      dup2\n      mstore\n      0x20\n      add\n      0x534d45616d620000000000000000000000000000000000000000000000000000\n      dup2\n      mstore\n      pop\n        /* \"contracts/storage/LibSMEambStorage1.sol\":385:411  keccak256(bytes('SMEamb')) */\n      dup1\n      mload\n      swap1\n      0x20\n      add\n      keccak256\n        /* \"contracts/storage/LibSMEambStorage1.sol\":6679:6690  _getStorage */\n      tag_250\n        /* \"contracts/storage/LibSMEambStorage1.sol\":6679:6696  _getStorage(SLOT) */\n      jump\t// in\n    tag_268:\n        /* \"contracts/storage/LibSMEambStorage1.sol\":6679:6712  _getStorage(SLOT).genesislistRoot */\n      0x07\n      add\n      sload\n        /* \"contracts/storage/LibSMEambStorage1.sol\":6672:6712  return _getStorage(SLOT).genesislistRoot */\n      swap1\n      pop\n        /* \"contracts/storage/LibSMEambStorage1.sol\":6614:6714  function genesislistRoot() external view returns(bytes32){return _getStorage(SLOT).genesislistRoot;} */\n      swap1\n      jump\t// out\n        /* \"contracts/storage/LibSMEambStorage1.sol\":4437:4565  function _packedAddressData(address _owner) external view returns(uint256){return _getStorage(SLOT)._packedAddressData[_owner];} */\n    tag_77:\n        /* \"contracts/storage/LibSMEambStorage1.sol\":4503:4510  uint256 */\n      0x00\n        /* \"contracts/storage/LibSMEambStorage1.sol\":4519:4536  _getStorage(SLOT) */\n      tag_270\n        /* \"contracts/storage/LibSMEambStorage1.sol\":395:410  bytes('SMEamb') */\n      mload(0x40)\n      dup1\n      0x40\n      add\n      0x40\n      mstore\n      dup1\n      0x06\n      dup2\n      mstore\n      0x20\n      add\n      0x534d45616d620000000000000000000000000000000000000000000000000000\n      dup2\n      mstore\n      pop\n        /* \"contracts/storage/LibSMEambStorage1.sol\":385:411  keccak256(bytes('SMEamb')) */\n      dup1\n      mload\n      swap1\n      0x20\n      add\n      keccak256\n        /* \"contracts/storage/LibSMEambStorage1.sol\":4519:4530  _getStorage */\n      tag_250\n        /* \"contracts/storage/LibSMEambStorage1.sol\":4519:4536  _getStorage(SLOT) */\n      jump\t// in\n    tag_270:\n        /* \"contracts/storage/LibSMEambStorage1.sol\":4519:4555  _getStorage(SLOT)._packedAddressData */\n      0x11\n      add\n        /* \"contracts/storage/LibSMEambStorage1.sol\":4519:4563  _getStorage(SLOT)._packedAddressData[_owner] */\n      0x00\n        /* \"contracts/storage/LibSMEambStorage1.sol\":4556:4562  _owner */\n      dup4\n        /* \"contracts/storage/LibSMEambStorage1.sol\":4519:4563  _getStorage(SLOT)._packedAddressData[_owner] */\n      0xffffffffffffffffffffffffffffffffffffffff\n      and\n      0xffffffffffffffffffffffffffffffffffffffff\n      and\n      dup2\n      mstore\n      0x20\n      add\n      swap1\n      dup2\n      mstore\n      0x20\n      add\n      0x00\n      keccak256\n      sload\n        /* \"contracts/storage/LibSMEambStorage1.sol\":4512:4563  return _getStorage(SLOT)._packedAddressData[_owner] */\n      swap1\n      pop\n        /* \"contracts/storage/LibSMEambStorage1.sol\":4437:4565  function _packedAddressData(address _owner) external view returns(uint256){return _getStorage(SLOT)._packedAddressData[_owner];} */\n      swap2\n      swap1\n      pop\n      jump\t// out\n        /* \"contracts/storage/LibSMEambStorage1.sol\":8050:8152  function epiclistRoot(bytes32 _epiclistRoot) external{_getStorage(SLOT).epiclistRoot = _epiclistRoot;} */\n    tag_84:\n        /* \"contracts/storage/LibSMEambStorage1.sol\":8137:8150  _epiclistRoot */\n      dup1\n        /* \"contracts/storage/LibSMEambStorage1.sol\":8104:8121  _getStorage(SLOT) */\n      tag_272\n        /* \"contracts/storage/LibSMEambStorage1.sol\":395:410  bytes('SMEamb') */\n      mload(0x40)\n      dup1\n      0x40\n      add\n      0x40\n      mstore\n      dup1\n      0x06\n      dup2\n      mstore\n      0x20\n      add\n      0x534d45616d620000000000000000000000000000000000000000000000000000\n      dup2\n      mstore\n      pop\n        /* \"contracts/storage/LibSMEambStorage1.sol\":385:411  keccak256(bytes('SMEamb')) */\n      dup1\n      mload\n      swap1\n      0x20\n      add\n      keccak256\n        /* \"contracts/storage/LibSMEambStorage1.sol\":8104:8115  _getStorage */\n      tag_250\n        /* \"contracts/storage/LibSMEambStorage1.sol\":8104:8121  _getStorage(SLOT) */\n      jump\t// in\n    tag_272:\n        /* \"contracts/storage/LibSMEambStorage1.sol\":8104:8134  _getStorage(SLOT).epiclistRoot */\n      0x09\n      add\n        /* \"contracts/storage/LibSMEambStorage1.sol\":8104:8150  _getStorage(SLOT).epiclistRoot = _epiclistRoot */\n      dup2\n      swap1\n      sstore\n      pop\n        /* \"contracts/storage/LibSMEambStorage1.sol\":8050:8152  function epiclistRoot(bytes32 _epiclistRoot) external{_getStorage(SLOT).epiclistRoot = _epiclistRoot;} */\n      pop\n      jump\t// out\n        /* \"contracts/storage/LibSMEambStorage1.sol\":4863:5015  function _packedAddressDataDecr(address _owner) external{_getStorage(SLOT)._packedAddressData[_owner] = _getStorage(SLOT)._packedAddressData[_owner]-1;} */\n    tag_88:\n        /* \"contracts/storage/LibSMEambStorage1.sol\":5012:5013  1 */\n      0x01\n        /* \"contracts/storage/LibSMEambStorage1.sol\":4967:4984  _getStorage(SLOT) */\n      tag_274\n        /* \"contracts/storage/LibSMEambStorage1.sol\":395:410  bytes('SMEamb') */\n      mload(0x40)\n      dup1\n      0x40\n      add\n      0x40\n      mstore\n      dup1\n      0x06\n      dup2\n      mstore\n      0x20\n      add\n      0x534d45616d620000000000000000000000000000000000000000000000000000\n      dup2\n      mstore\n      pop\n        /* \"contracts/storage/LibSMEambStorage1.sol\":385:411  keccak256(bytes('SMEamb')) */\n      dup1\n      mload\n      swap1\n      0x20\n      add\n      keccak256\n        /* \"contracts/storage/LibSMEambStorage1.sol\":4967:4978  _getStorage */\n      tag_250\n        /* \"contracts/storage/LibSMEambStorage1.sol\":4967:4984  _getStorage(SLOT) */\n      jump\t// in\n    tag_274:\n        /* \"contracts/storage/LibSMEambStorage1.sol\":4967:5003  _getStorage(SLOT)._packedAddressData */\n      0x11\n      add\n        /* \"contracts/storage/LibSMEambStorage1.sol\":4967:5011  _getStorage(SLOT)._packedAddressData[_owner] */\n      0x00\n        /* \"contracts/storage/LibSMEambStorage1.sol\":5004:5010  _owner */\n      dup4\n        /* \"contracts/storage/LibSMEambStorage1.sol\":4967:5011  _getStorage(SLOT)._packedAddressData[_owner] */\n      0xffffffffffffffffffffffffffffffffffffffff\n      and\n      0xffffffffffffffffffffffffffffffffffffffff\n      and\n      dup2\n      mstore\n      0x20\n      add\n      swap1\n      dup2\n      mstore\n      0x20\n      add\n      0x00\n      keccak256\n      sload\n        /* \"contracts/storage/LibSMEambStorage1.sol\":4967:5013  _getStorage(SLOT)._packedAddressData[_owner]-1 */\n      tag_275\n      swap2\n      swap1\n      tag_276\n      jump\t// in\n    tag_275:\n        /* \"contracts/storage/LibSMEambStorage1.sol\":4920:4937  _getStorage(SLOT) */\n      tag_277\n        /* \"contracts/storage/LibSMEambStorage1.sol\":395:410  bytes('SMEamb') */\n      mload(0x40)\n      dup1\n      0x40\n      add\n      0x40\n      mstore\n      dup1\n      0x06\n      dup2\n      mstore\n      0x20\n      add\n      0x534d45616d620000000000000000000000000000000000000000000000000000\n      dup2\n      mstore\n      pop\n        /* \"contracts/storage/LibSMEambStorage1.sol\":385:411  keccak256(bytes('SMEamb')) */\n      dup1\n      mload\n      swap1\n      0x20\n      add\n      keccak256\n        /* \"contracts/storage/LibSMEambStorage1.sol\":4920:4931  _getStorage */\n      tag_250\n        /* \"contracts/storage/LibSMEambStorage1.sol\":4920:4937  _getStorage(SLOT) */\n      jump\t// in\n    tag_277:\n        /* \"contracts/storage/LibSMEambStorage1.sol\":4920:4956  _getStorage(SLOT)._packedAddressData */\n      0x11\n      add\n        /* \"contracts/storage/LibSMEambStorage1.sol\":4920:4964  _getStorage(SLOT)._packedAddressData[_owner] */\n      0x00\n        /* \"contracts/storage/LibSMEambStorage1.sol\":4957:4963  _owner */\n      dup4\n        /* \"contracts/storage/LibSMEambStorage1.sol\":4920:4964  _getStorage(SLOT)._packedAddressData[_owner] */\n      0xffffffffffffffffffffffffffffffffffffffff\n      and\n      0xffffffffffffffffffffffffffffffffffffffff\n      and\n      dup2\n      mstore\n      0x20\n      add\n      swap1\n      dup2\n      mstore\n      0x20\n      add\n      0x00\n      keccak256\n        /* \"contracts/storage/LibSMEambStorage1.sol\":4920:5013  _getStorage(SLOT)._packedAddressData[_owner] = _getStorage(SLOT)._packedAddressData[_owner]-1 */\n      dup2\n      swap1\n      sstore\n      pop\n        /* \"contracts/storage/LibSMEambStorage1.sol\":4863:5015  function _packedAddressDataDecr(address _owner) external{_getStorage(SLOT)._packedAddressData[_owner] = _getStorage(SLOT)._packedAddressData[_owner]-1;} */\n      pop\n      jump\t// out\n        /* \"contracts/storage/LibSMEambStorage1.sol\":3889:3974  function _startTokenId(uint256 _id) external {_getStorage(SLOT)._startTokenId = _id;} */\n    tag_93:\n        /* \"contracts/storage/LibSMEambStorage1.sol\":3969:3972  _id */\n      dup1\n        /* \"contracts/storage/LibSMEambStorage1.sol\":3935:3952  _getStorage(SLOT) */\n      tag_279\n        /* \"contracts/storage/LibSMEambStorage1.sol\":395:410  bytes('SMEamb') */\n      mload(0x40)\n      dup1\n      0x40\n      add\n      0x40\n      mstore\n      dup1\n      0x06\n      dup2\n      mstore\n      0x20\n      add\n      0x534d45616d620000000000000000000000000000000000000000000000000000\n      dup2\n      mstore\n      pop\n        /* \"contracts/storage/LibSMEambStorage1.sol\":385:411  keccak256(bytes('SMEamb')) */\n      dup1\n      mload\n      swap1\n      0x20\n      add\n      keccak256\n        /* \"contracts/storage/LibSMEambStorage1.sol\":3935:3946  _getStorage */\n      tag_250\n        /* \"contracts/storage/LibSMEambStorage1.sol\":3935:3952  _getStorage(SLOT) */\n      jump\t// in\n    tag_279:\n        /* \"contracts/storage/LibSMEambStorage1.sol\":3935:3966  _getStorage(SLOT)._startTokenId */\n      0x15\n      add\n        /* \"contracts/storage/LibSMEambStorage1.sol\":3935:3972  _getStorage(SLOT)._startTokenId = _id */\n      dup2\n      swap1\n      sstore\n      pop\n        /* \"contracts/storage/LibSMEambStorage1.sol\":3889:3974  function _startTokenId(uint256 _id) external {_getStorage(SLOT)._startTokenId = _id;} */\n      pop\n      jump\t// out\n        /* \"contracts/storage/LibSMEambStorage1.sol\":6824:6918  function epiclistRoot() external view returns(bytes32){return _getStorage(SLOT).epiclistRoot;} */\n    tag_95:\n        /* \"contracts/storage/LibSMEambStorage1.sol\":6870:6877  bytes32 */\n      0x00\n        /* \"contracts/storage/LibSMEambStorage1.sol\":6886:6903  _getStorage(SLOT) */\n      tag_281\n        /* \"contracts/storage/LibSMEambStorage1.sol\":395:410  bytes('SMEamb') */\n      mload(0x40)\n      dup1\n      0x40\n      add\n      0x40\n      mstore\n      dup1\n      0x06\n      dup2\n      mstore\n      0x20\n      add\n      0x534d45616d620000000000000000000000000000000000000000000000000000\n      dup2\n      mstore\n      pop\n        /* \"contracts/storage/LibSMEambStorage1.sol\":385:411  keccak256(bytes('SMEamb')) */\n      dup1\n      mload\n      swap1\n      0x20\n      add\n      keccak256\n        /* \"contracts/storage/LibSMEambStorage1.sol\":6886:6897  _getStorage */\n      tag_250\n        /* \"contracts/storage/LibSMEambStorage1.sol\":6886:6903  _getStorage(SLOT) */\n      jump\t// in\n    tag_281:\n        /* \"contracts/storage/LibSMEambStorage1.sol\":6886:6916  _getStorage(SLOT).epiclistRoot */\n      0x09\n      add\n      sload\n        /* \"contracts/storage/LibSMEambStorage1.sol\":6879:6916  return _getStorage(SLOT).epiclistRoot */\n      swap1\n      pop\n        /* \"contracts/storage/LibSMEambStorage1.sol\":6824:6918  function epiclistRoot() external view returns(bytes32){return _getStorage(SLOT).epiclistRoot;} */\n      swap1\n      jump\t// out\n        /* \"contracts/storage/LibSMEambStorage1.sol\":3690:3781  function _currentIndex(uint256 _index) external {_getStorage(SLOT)._currentIndex = _index;} */\n    tag_100:\n        /* \"contracts/storage/LibSMEambStorage1.sol\":3773:3779  _index */\n      dup1\n        /* \"contracts/storage/LibSMEambStorage1.sol\":3739:3756  _getStorage(SLOT) */\n      tag_283\n        /* \"contracts/storage/LibSMEambStorage1.sol\":395:410  bytes('SMEamb') */\n      mload(0x40)\n      dup1\n      0x40\n      add\n      0x40\n      mstore\n      dup1\n      0x06\n      dup2\n      mstore\n      0x20\n      add\n      0x534d45616d620000000000000000000000000000000000000000000000000000\n      dup2\n      mstore\n      pop\n        /* \"contracts/storage/LibSMEambStorage1.sol\":385:411  keccak256(bytes('SMEamb')) */\n      dup1\n      mload\n      swap1\n      0x20\n      add\n      keccak256\n        /* \"contracts/storage/LibSMEambStorage1.sol\":3739:3750  _getStorage */\n      tag_250\n        /* \"contracts/storage/LibSMEambStorage1.sol\":3739:3756  _getStorage(SLOT) */\n      jump\t// in\n    tag_283:\n        /* \"contracts/storage/LibSMEambStorage1.sol\":3739:3770  _getStorage(SLOT)._currentIndex */\n      0x0c\n      add\n        /* \"contracts/storage/LibSMEambStorage1.sol\":3739:3779  _getStorage(SLOT)._currentIndex = _index */\n      dup2\n      swap1\n      sstore\n      pop\n        /* \"contracts/storage/LibSMEambStorage1.sol\":3690:3781  function _currentIndex(uint256 _index) external {_getStorage(SLOT)._currentIndex = _index;} */\n      pop\n      jump\t// out\n        /* \"contracts/storage/LibSMEambStorage1.sol\":7814:7928  function genesislistRoot(bytes32 _genesislistRoot) external{_getStorage(SLOT).genesislistRoot = _genesislistRoot;} */\n    tag_104:\n        /* \"contracts/storage/LibSMEambStorage1.sol\":7910:7926  _genesislistRoot */\n      dup1\n        /* \"contracts/storage/LibSMEambStorage1.sol\":7874:7891  _getStorage(SLOT) */\n      tag_285\n        /* \"contracts/storage/LibSMEambStorage1.sol\":395:410  bytes('SMEamb') */\n      mload(0x40)\n      dup1\n      0x40\n      add\n      0x40\n      mstore\n      dup1\n      0x06\n      dup2\n      mstore\n      0x20\n      add\n      0x534d45616d620000000000000000000000000000000000000000000000000000\n      dup2\n      mstore\n      pop\n        /* \"contracts/storage/LibSMEambStorage1.sol\":385:411  keccak256(bytes('SMEamb')) */\n      dup1\n      mload\n      swap1\n      0x20\n      add\n      keccak256\n        /* \"contracts/storage/LibSMEambStorage1.sol\":7874:7885  _getStorage */\n      tag_250\n        /* \"contracts/storage/LibSMEambStorage1.sol\":7874:7891  _getStorage(SLOT) */\n      jump\t// in\n    tag_285:\n        /* \"contracts/storage/LibSMEambStorage1.sol\":7874:7907  _getStorage(SLOT).genesislistRoot */\n      0x07\n      add\n        /* \"contracts/storage/LibSMEambStorage1.sol\":7874:7926  _getStorage(SLOT).genesislistRoot = _genesislistRoot */\n      dup2\n      swap1\n      sstore\n      pop\n        /* \"contracts/storage/LibSMEambStorage1.sol\":7814:7928  function genesislistRoot(bytes32 _genesislistRoot) external{_getStorage(SLOT).genesislistRoot = _genesislistRoot;} */\n      pop\n      jump\t// out\n        /* \"contracts/storage/LibSMEambStorage1.sol\":8158:8224  function fee(uint256 _fee) external{_getStorage(SLOT).fee = _fee;} */\n    tag_108:\n        /* \"contracts/storage/LibSMEambStorage1.sol\":8218:8222  _fee */\n      dup1\n        /* \"contracts/storage/LibSMEambStorage1.sol\":8194:8211  _getStorage(SLOT) */\n      tag_287\n        /* \"contracts/storage/LibSMEambStorage1.sol\":395:410  bytes('SMEamb') */\n      mload(0x40)\n      dup1\n      0x40\n      add\n      0x40\n      mstore\n      dup1\n      0x06\n      dup2\n      mstore\n      0x20\n      add\n      0x534d45616d620000000000000000000000000000000000000000000000000000\n      dup2\n      mstore\n      pop\n        /* \"contracts/storage/LibSMEambStorage1.sol\":385:411  keccak256(bytes('SMEamb')) */\n      dup1\n      mload\n      swap1\n      0x20\n      add\n      keccak256\n        /* \"contracts/storage/LibSMEambStorage1.sol\":8194:8205  _getStorage */\n      tag_250\n        /* \"contracts/storage/LibSMEambStorage1.sol\":8194:8211  _getStorage(SLOT) */\n      jump\t// in\n    tag_287:\n        /* \"contracts/storage/LibSMEambStorage1.sol\":8194:8215  _getStorage(SLOT).fee */\n      0x0a\n      add\n        /* \"contracts/storage/LibSMEambStorage1.sol\":8194:8222  _getStorage(SLOT).fee = _fee */\n      dup2\n      swap1\n      sstore\n      pop\n        /* \"contracts/storage/LibSMEambStorage1.sol\":8158:8224  function fee(uint256 _fee) external{_getStorage(SLOT).fee = _fee;} */\n      pop\n      jump\t// out\n        /* \"contracts/storage/LibSMEambStorage1.sol\":8646:9848  function removeTokenFromAllTokensEnumeration(uint256 tokenId) external {... */\n    tag_112:\n        /* \"contracts/storage/LibSMEambStorage1.sol\":8903:8925  uint256 lastTokenIndex */\n      0x00\n        /* \"contracts/storage/LibSMEambStorage1.sol\":8965:8966  1 */\n      0x01\n        /* \"contracts/storage/LibSMEambStorage1.sol\":8928:8945  _getStorage(SLOT) */\n      tag_289\n        /* \"contracts/storage/LibSMEambStorage1.sol\":395:410  bytes('SMEamb') */\n      mload(0x40)\n      dup1\n      0x40\n      add\n      0x40\n      mstore\n      dup1\n      0x06\n      dup2\n      mstore\n      0x20\n      add\n      0x534d45616d620000000000000000000000000000000000000000000000000000\n      dup2\n      mstore\n      pop\n        /* \"contracts/storage/LibSMEambStorage1.sol\":385:411  keccak256(bytes('SMEamb')) */\n      dup1\n      mload\n      swap1\n      0x20\n      add\n      keccak256\n        /* \"contracts/storage/LibSMEambStorage1.sol\":8928:8939  _getStorage */\n      tag_250\n        /* \"contracts/storage/LibSMEambStorage1.sol\":8928:8945  _getStorage(SLOT) */\n      jump\t// in\n    tag_289:\n        /* \"contracts/storage/LibSMEambStorage1.sol\":8928:8955  _getStorage(SLOT).allTokens */\n      0x05\n      add\n        /* \"contracts/storage/LibSMEambStorage1.sol\":8928:8962  _getStorage(SLOT).allTokens.length */\n      dup1\n      sload\n      swap1\n      pop\n        /* \"contracts/storage/LibSMEambStorage1.sol\":8928:8966  _getStorage(SLOT).allTokens.length - 1 */\n      tag_290\n      swap2\n      swap1\n      tag_276\n      jump\t// in\n    tag_290:\n        /* \"contracts/storage/LibSMEambStorage1.sol\":8903:8966  uint256 lastTokenIndex = _getStorage(SLOT).allTokens.length - 1 */\n      swap1\n      pop\n        /* \"contracts/storage/LibSMEambStorage1.sol\":8977:8995  uint256 tokenIndex */\n      0x00\n        /* \"contracts/storage/LibSMEambStorage1.sol\":8998:9015  _getStorage(SLOT) */\n      tag_291\n        /* \"contracts/storage/LibSMEambStorage1.sol\":395:410  bytes('SMEamb') */\n      mload(0x40)\n      dup1\n      0x40\n      add\n      0x40\n      mstore\n      dup1\n      0x06\n      dup2\n      mstore\n      0x20\n      add\n      0x534d45616d620000000000000000000000000000000000000000000000000000\n      dup2\n      mstore\n      pop\n        /* \"contracts/storage/LibSMEambStorage1.sol\":385:411  keccak256(bytes('SMEamb')) */\n      dup1\n      mload\n      swap1\n      0x20\n      add\n      keccak256\n        /* \"contracts/storage/LibSMEambStorage1.sol\":8998:9009  _getStorage */\n      tag_250\n        /* \"contracts/storage/LibSMEambStorage1.sol\":8998:9015  _getStorage(SLOT) */\n      jump\t// in\n    tag_291:\n        /* \"contracts/storage/LibSMEambStorage1.sol\":8998:9030  _getStorage(SLOT).allTokensIndex */\n      0x06\n      add\n        /* \"contracts/storage/LibSMEambStorage1.sol\":8998:9039  _getStorage(SLOT).allTokensIndex[tokenId] */\n      0x00\n        /* \"contracts/storage/LibSMEambStorage1.sol\":9031:9038  tokenId */\n      dup5\n        /* \"contracts/storage/LibSMEambStorage1.sol\":8998:9039  _getStorage(SLOT).allTokensIndex[tokenId] */\n      dup2\n      mstore\n      0x20\n      add\n      swap1\n      dup2\n      mstore\n      0x20\n      add\n      0x00\n      keccak256\n      sload\n        /* \"contracts/storage/LibSMEambStorage1.sol\":8977:9039  uint256 tokenIndex = _getStorage(SLOT).allTokensIndex[tokenId] */\n      swap1\n      pop\n        /* \"contracts/storage/LibSMEambStorage1.sol\":9366:9385  uint256 lastTokenId */\n      0x00\n        /* \"contracts/storage/LibSMEambStorage1.sol\":9388:9405  _getStorage(SLOT) */\n      tag_292\n        /* \"contracts/storage/LibSMEambStorage1.sol\":395:410  bytes('SMEamb') */\n      mload(0x40)\n      dup1\n      0x40\n      add\n      0x40\n      mstore\n      dup1\n      0x06\n      dup2\n      mstore\n      0x20\n      add\n      0x534d45616d620000000000000000000000000000000000000000000000000000\n      dup2\n      mstore\n      pop\n        /* \"contracts/storage/LibSMEambStorage1.sol\":385:411  keccak256(bytes('SMEamb')) */\n      dup1\n      mload\n      swap1\n      0x20\n      add\n      keccak256\n        /* \"contracts/storage/LibSMEambStorage1.sol\":9388:9399  _getStorage */\n      tag_250\n        /* \"contracts/storage/LibSMEambStorage1.sol\":9388:9405  _getStorage(SLOT) */\n      jump\t// in\n    tag_292:\n        /* \"contracts/storage/LibSMEambStorage1.sol\":9388:9415  _getStorage(SLOT).allTokens */\n      0x05\n      add\n        /* \"contracts/storage/LibSMEambStorage1.sol\":9416:9430  lastTokenIndex */\n      dup4\n        /* \"contracts/storage/LibSMEambStorage1.sol\":9388:9431  _getStorage(SLOT).allTokens[lastTokenIndex] */\n      dup2\n      sload\n      dup2\n      lt\n      tag_293\n      jumpi\n      tag_294\n      tag_295\n      jump\t// in\n    tag_294:\n    tag_293:\n      swap1\n      0x00\n      mstore\n      keccak256(0x00, 0x20)\n      add\n      sload\n        /* \"contracts/storage/LibSMEambStorage1.sol\":9366:9431  uint256 lastTokenId = _getStorage(SLOT).allTokens[lastTokenIndex] */\n      swap1\n      pop\n        /* \"contracts/storage/LibSMEambStorage1.sol\":9486:9497  lastTokenId */\n      dup1\n        /* \"contracts/storage/LibSMEambStorage1.sol\":9444:9461  _getStorage(SLOT) */\n      tag_297\n        /* \"contracts/storage/LibSMEambStorage1.sol\":395:410  bytes('SMEamb') */\n      mload(0x40)\n      dup1\n      0x40\n      add\n      0x40\n      mstore\n      dup1\n      0x06\n      dup2\n      mstore\n      0x20\n      add\n      0x534d45616d620000000000000000000000000000000000000000000000000000\n      dup2\n      mstore\n      pop\n        /* \"contracts/storage/LibSMEambStorage1.sol\":385:411  keccak256(bytes('SMEamb')) */\n      dup1\n      mload\n      swap1\n      0x20\n      add\n      keccak256\n        /* \"contracts/storage/LibSMEambStorage1.sol\":9444:9455  _getStorage */\n      tag_250\n        /* \"contracts/storage/LibSMEambStorage1.sol\":9444:9461  _getStorage(SLOT) */\n      jump\t// in\n    tag_297:\n        /* \"contracts/storage/LibSMEambStorage1.sol\":9444:9471  _getStorage(SLOT).allTokens */\n      0x05\n      add\n        /* \"contracts/storage/LibSMEambStorage1.sol\":9472:9482  tokenIndex */\n      dup4\n        /* \"contracts/storage/LibSMEambStorage1.sol\":9444:9483  _getStorage(SLOT).allTokens[tokenIndex] */\n      dup2\n      sload\n      dup2\n      lt\n      tag_298\n      jumpi\n      tag_299\n      tag_295\n      jump\t// in\n    tag_299:\n    tag_298:\n      swap1\n      0x00\n      mstore\n      keccak256(0x00, 0x20)\n      add\n        /* \"contracts/storage/LibSMEambStorage1.sol\":9444:9497  _getStorage(SLOT).allTokens[tokenIndex] = lastTokenId */\n      dup2\n      swap1\n      sstore\n      pop\n        /* \"contracts/storage/LibSMEambStorage1.sol\":9614:9624  tokenIndex */\n      dup2\n        /* \"contracts/storage/LibSMEambStorage1.sol\":9566:9583  _getStorage(SLOT) */\n      tag_301\n        /* \"contracts/storage/LibSMEambStorage1.sol\":395:410  bytes('SMEamb') */\n      mload(0x40)\n      dup1\n      0x40\n      add\n      0x40\n      mstore\n      dup1\n      0x06\n      dup2\n      mstore\n      0x20\n      add\n      0x534d45616d620000000000000000000000000000000000000000000000000000\n      dup2\n      mstore\n      pop\n        /* \"contracts/storage/LibSMEambStorage1.sol\":385:411  keccak256(bytes('SMEamb')) */\n      dup1\n      mload\n      swap1\n      0x20\n      add\n      keccak256\n        /* \"contracts/storage/LibSMEambStorage1.sol\":9566:9577  _getStorage */\n      tag_250\n        /* \"contracts/storage/LibSMEambStorage1.sol\":9566:9583  _getStorage(SLOT) */\n      jump\t// in\n    tag_301:\n        /* \"contracts/storage/LibSMEambStorage1.sol\":9566:9598  _getStorage(SLOT).allTokensIndex */\n      0x06\n      add\n        /* \"contracts/storage/LibSMEambStorage1.sol\":9566:9611  _getStorage(SLOT).allTokensIndex[lastTokenId] */\n      0x00\n        /* \"contracts/storage/LibSMEambStorage1.sol\":9599:9610  lastTokenId */\n      dup4\n        /* \"contracts/storage/LibSMEambStorage1.sol\":9566:9611  _getStorage(SLOT).allTokensIndex[lastTokenId] */\n      dup2\n      mstore\n      0x20\n      add\n      swap1\n      dup2\n      mstore\n      0x20\n      add\n      0x00\n      keccak256\n        /* \"contracts/storage/LibSMEambStorage1.sol\":9566:9624  _getStorage(SLOT).allTokensIndex[lastTokenId] = tokenIndex */\n      dup2\n      swap1\n      sstore\n      pop\n        /* \"contracts/storage/LibSMEambStorage1.sol\":9755:9772  _getStorage(SLOT) */\n      tag_302\n        /* \"contracts/storage/LibSMEambStorage1.sol\":395:410  bytes('SMEamb') */\n      mload(0x40)\n      dup1\n      0x40\n      add\n      0x40\n      mstore\n      dup1\n      0x06\n      dup2\n      mstore\n      0x20\n      add\n      0x534d45616d620000000000000000000000000000000000000000000000000000\n      dup2\n      mstore\n      pop\n        /* \"contracts/storage/LibSMEambStorage1.sol\":385:411  keccak256(bytes('SMEamb')) */\n      dup1\n      mload\n      swap1\n      0x20\n      add\n      keccak256\n        /* \"contracts/storage/LibSMEambStorage1.sol\":9755:9766  _getStorage */\n      tag_250\n        /* \"contracts/storage/LibSMEambStorage1.sol\":9755:9772  _getStorage(SLOT) */\n      jump\t// in\n    tag_302:\n        /* \"contracts/storage/LibSMEambStorage1.sol\":9755:9787  _getStorage(SLOT).allTokensIndex */\n      0x06\n      add\n        /* \"contracts/storage/LibSMEambStorage1.sol\":9755:9796  _getStorage(SLOT).allTokensIndex[tokenId] */\n      0x00\n        /* \"contracts/storage/LibSMEambStorage1.sol\":9788:9795  tokenId */\n      dup6\n        /* \"contracts/storage/LibSMEambStorage1.sol\":9755:9796  _getStorage(SLOT).allTokensIndex[tokenId] */\n      dup2\n      mstore\n      0x20\n      add\n      swap1\n      dup2\n      mstore\n      0x20\n      add\n      0x00\n      keccak256\n        /* \"contracts/storage/LibSMEambStorage1.sol\":9748:9796  delete _getStorage(SLOT).allTokensIndex[tokenId] */\n      0x00\n      swap1\n      sstore\n        /* \"contracts/storage/LibSMEambStorage1.sol\":9807:9824  _getStorage(SLOT) */\n      tag_303\n        /* \"contracts/storage/LibSMEambStorage1.sol\":395:410  bytes('SMEamb') */\n      mload(0x40)\n      dup1\n      0x40\n      add\n      0x40\n      mstore\n      dup1\n      0x06\n      dup2\n      mstore\n      0x20\n      add\n      0x534d45616d620000000000000000000000000000000000000000000000000000\n      dup2\n      mstore\n      pop\n        /* \"contracts/storage/LibSMEambStorage1.sol\":385:411  keccak256(bytes('SMEamb')) */\n      dup1\n      mload\n      swap1\n      0x20\n      add\n      keccak256\n        /* \"contracts/storage/LibSMEambStorage1.sol\":9807:9818  _getStorage */\n      tag_250\n        /* \"contracts/storage/LibSMEambStorage1.sol\":9807:9824  _getStorage(SLOT) */\n      jump\t// in\n    tag_303:\n        /* \"contracts/storage/LibSMEambStorage1.sol\":9807:9834  _getStorage(SLOT).allTokens */\n      0x05\n      add\n        /* \"contracts/storage/LibSMEambStorage1.sol\":9807:9840  _getStorage(SLOT).allTokens.pop() */\n      dup1\n      sload\n      dup1\n      tag_304\n      jumpi\n      tag_305\n      tag_306\n      jump\t// in\n    tag_305:\n    tag_304:\n      0x01\n      swap1\n      sub\n      dup2\n      dup2\n      swap1\n      0x00\n      mstore\n      keccak256(0x00, 0x20)\n      add\n      0x00\n      swap1\n      sstore\n      swap1\n      sstore\n        /* \"contracts/storage/LibSMEambStorage1.sol\":8717:9848  {... */\n      pop\n      pop\n      pop\n        /* \"contracts/storage/LibSMEambStorage1.sol\":8646:9848  function removeTokenFromAllTokensEnumeration(uint256 tokenId) external {... */\n      pop\n      jump\t// out\n        /* \"contracts/storage/LibSMEambStorage1.sol\":3496:3582  function symbol(string memory _symbol) external {_getStorage(SLOT)._symbol = _symbol;} */\n    tag_117:\n        /* \"contracts/storage/LibSMEambStorage1.sol\":3573:3580  _symbol */\n      dup1\n        /* \"contracts/storage/LibSMEambStorage1.sol\":3545:3562  _getStorage(SLOT) */\n      tag_309\n        /* \"contracts/storage/LibSMEambStorage1.sol\":395:410  bytes('SMEamb') */\n      mload(0x40)\n      dup1\n      0x40\n      add\n      0x40\n      mstore\n      dup1\n      0x06\n      dup2\n      mstore\n      0x20\n      add\n      0x534d45616d620000000000000000000000000000000000000000000000000000\n      dup2\n      mstore\n      pop\n        /* \"contracts/storage/LibSMEambStorage1.sol\":385:411  keccak256(bytes('SMEamb')) */\n      dup1\n      mload\n      swap1\n      0x20\n      add\n      keccak256\n        /* \"contracts/storage/LibSMEambStorage1.sol\":3545:3556  _getStorage */\n      tag_250\n        /* \"contracts/storage/LibSMEambStorage1.sol\":3545:3562  _getStorage(SLOT) */\n      jump\t// in\n    tag_309:\n        /* \"contracts/storage/LibSMEambStorage1.sol\":3545:3570  _getStorage(SLOT)._symbol */\n      0x0f\n      add\n        /* \"contracts/storage/LibSMEambStorage1.sol\":3545:3580  _getStorage(SLOT)._symbol = _symbol */\n      swap1\n      dup2\n      tag_310\n      swap2\n      swap1\n      tag_311\n      jump\t// in\n    tag_310:\n      pop\n        /* \"contracts/storage/LibSMEambStorage1.sol\":3496:3582  function symbol(string memory _symbol) external {_getStorage(SLOT)._symbol = _symbol;} */\n      pop\n      jump\t// out\n        /* \"contracts/storage/LibSMEambStorage1.sol\":3980:4074  function _burnCounter() external view returns(uint256){return _getStorage(SLOT)._burnCounter;} */\n    tag_119:\n        /* \"contracts/storage/LibSMEambStorage1.sol\":4026:4033  uint256 */\n      0x00\n        /* \"contracts/storage/LibSMEambStorage1.sol\":4042:4059  _getStorage(SLOT) */\n      tag_313\n        /* \"contracts/storage/LibSMEambStorage1.sol\":395:410  bytes('SMEamb') */\n      mload(0x40)\n      dup1\n      0x40\n      add\n      0x40\n      mstore\n      dup1\n      0x06\n      dup2\n      mstore\n      0x20\n      add\n      0x534d45616d620000000000000000000000000000000000000000000000000000\n      dup2\n      mstore\n      pop\n        /* \"contracts/storage/LibSMEambStorage1.sol\":385:411  keccak256(bytes('SMEamb')) */\n      dup1\n      mload\n      swap1\n      0x20\n      add\n      keccak256\n        /* \"contracts/storage/LibSMEambStorage1.sol\":4042:4053  _getStorage */\n      tag_250\n        /* \"contracts/storage/LibSMEambStorage1.sol\":4042:4059  _getStorage(SLOT) */\n      jump\t// in\n    tag_313:\n        /* \"contracts/storage/LibSMEambStorage1.sol\":4042:4072  _getStorage(SLOT)._burnCounter */\n      0x0d\n      add\n      sload\n        /* \"contracts/storage/LibSMEambStorage1.sol\":4035:4072  return _getStorage(SLOT)._burnCounter */\n      swap1\n      pop\n        /* \"contracts/storage/LibSMEambStorage1.sol\":3980:4074  function _burnCounter() external view returns(uint256){return _getStorage(SLOT)._burnCounter;} */\n      swap1\n      jump\t// out\n        /* \"contracts/storage/LibSMEambStorage1.sol\":4169:4299  function _packedOwnerships(uint256 _tokenId) external view returns(uint256){return _getStorage(SLOT)._packedOwnerships[_tokenId];} */\n    tag_123:\n        /* \"contracts/storage/LibSMEambStorage1.sol\":4236:4243  uint256 */\n      0x00\n        /* \"contracts/storage/LibSMEambStorage1.sol\":4252:4269  _getStorage(SLOT) */\n      tag_315\n        /* \"contracts/storage/LibSMEambStorage1.sol\":395:410  bytes('SMEamb') */\n      mload(0x40)\n      dup1\n      0x40\n      add\n      0x40\n      mstore\n      dup1\n      0x06\n      dup2\n      mstore\n      0x20\n      add\n      0x534d45616d620000000000000000000000000000000000000000000000000000\n      dup2\n      mstore\n      pop\n        /* \"contracts/storage/LibSMEambStorage1.sol\":385:411  keccak256(bytes('SMEamb')) */\n      dup1\n      mload\n      swap1\n      0x20\n      add\n      keccak256\n        /* \"contracts/storage/LibSMEambStorage1.sol\":4252:4263  _getStorage */\n      tag_250\n        /* \"contracts/storage/LibSMEambStorage1.sol\":4252:4269  _getStorage(SLOT) */\n      jump\t// in\n    tag_315:\n        /* \"contracts/storage/LibSMEambStorage1.sol\":4252:4287  _getStorage(SLOT)._packedOwnerships */\n      0x10\n      add\n        /* \"contracts/storage/LibSMEambStorage1.sol\":4252:4297  _getStorage(SLOT)._packedOwnerships[_tokenId] */\n      0x00\n        /* \"contracts/storage/LibSMEambStorage1.sol\":4288:4296  _tokenId */\n      dup4\n        /* \"contracts/storage/LibSMEambStorage1.sol\":4252:4297  _getStorage(SLOT)._packedOwnerships[_tokenId] */\n      dup2\n      mstore\n      0x20\n      add\n      swap1\n      dup2\n      mstore\n      0x20\n      add\n      0x00\n      keccak256\n      sload\n        /* \"contracts/storage/LibSMEambStorage1.sol\":4245:4297  return _getStorage(SLOT)._packedOwnerships[_tokenId] */\n      swap1\n      pop\n        /* \"contracts/storage/LibSMEambStorage1.sol\":4169:4299  function _packedOwnerships(uint256 _tokenId) external view returns(uint256){return _getStorage(SLOT)._packedOwnerships[_tokenId];} */\n      swap2\n      swap1\n      pop\n      jump\t// out\n        /* \"contracts/storage/LibSMEambStorage1.sol\":7540:7678  function ownedTokens(address _owner, uint256 _index, uint256 _tokenId) external{_getStorage(SLOT).ownedTokens[_owner][_index] = _tokenId;} */\n    tag_128:\n        /* \"contracts/storage/LibSMEambStorage1.sol\":7668:7676  _tokenId */\n      dup1\n        /* \"contracts/storage/LibSMEambStorage1.sol\":7620:7637  _getStorage(SLOT) */\n      tag_317\n        /* \"contracts/storage/LibSMEambStorage1.sol\":395:410  bytes('SMEamb') */\n      mload(0x40)\n      dup1\n      0x40\n      add\n      0x40\n      mstore\n      dup1\n      0x06\n      dup2\n      mstore\n      0x20\n      add\n      0x534d45616d620000000000000000000000000000000000000000000000000000\n      dup2\n      mstore\n      pop\n        /* \"contracts/storage/LibSMEambStorage1.sol\":385:411  keccak256(bytes('SMEamb')) */\n      dup1\n      mload\n      swap1\n      0x20\n      add\n      keccak256\n        /* \"contracts/storage/LibSMEambStorage1.sol\":7620:7631  _getStorage */\n      tag_250\n        /* \"contracts/storage/LibSMEambStorage1.sol\":7620:7637  _getStorage(SLOT) */\n      jump\t// in\n    tag_317:\n        /* \"contracts/storage/LibSMEambStorage1.sol\":7620:7649  _getStorage(SLOT).ownedTokens */\n      0x03\n      add\n        /* \"contracts/storage/LibSMEambStorage1.sol\":7620:7657  _getStorage(SLOT).ownedTokens[_owner] */\n      0x00\n        /* \"contracts/storage/LibSMEambStorage1.sol\":7650:7656  _owner */\n      dup6\n        /* \"contracts/storage/LibSMEambStorage1.sol\":7620:7657  _getStorage(SLOT).ownedTokens[_owner] */\n      0xffffffffffffffffffffffffffffffffffffffff\n      and\n      0xffffffffffffffffffffffffffffffffffffffff\n      and\n      dup2\n      mstore\n      0x20\n      add\n      swap1\n      dup2\n      mstore\n      0x20\n      add\n      0x00\n      keccak256\n        /* \"contracts/storage/LibSMEambStorage1.sol\":7620:7665  _getStorage(SLOT).ownedTokens[_owner][_index] */\n      0x00\n        /* \"contracts/storage/LibSMEambStorage1.sol\":7658:7664  _index */\n      dup5\n        /* \"contracts/storage/LibSMEambStorage1.sol\":7620:7665  _getStorage(SLOT).ownedTokens[_owner][_index] */\n      dup2\n      mstore\n      0x20\n      add\n      swap1\n      dup2\n      mstore\n      0x20\n      add\n      0x00\n      keccak256\n        /* \"contracts/storage/LibSMEambStorage1.sol\":7620:7676  _getStorage(SLOT).ownedTokens[_owner][_index] = _tokenId */\n      dup2\n      swap1\n      sstore\n      pop\n        /* \"contracts/storage/LibSMEambStorage1.sol\":7540:7678  function ownedTokens(address _owner, uint256 _index, uint256 _tokenId) external{_getStorage(SLOT).ownedTokens[_owner][_index] = _tokenId;} */\n      pop\n      pop\n      pop\n      jump\t// out\n        /* \"contracts/storage/LibSMEambStorage1.sol\":12245:12468  function addTokenToOwnerEnumeration(address to, uint256 tokenId, uint256 length) external {... */\n    tag_132:\n        /* \"contracts/storage/LibSMEambStorage1.sol\":12390:12397  tokenId */\n      dup2\n        /* \"contracts/storage/LibSMEambStorage1.sol\":12346:12363  _getStorage(SLOT) */\n      tag_319\n        /* \"contracts/storage/LibSMEambStorage1.sol\":395:410  bytes('SMEamb') */\n      mload(0x40)\n      dup1\n      0x40\n      add\n      0x40\n      mstore\n      dup1\n      0x06\n      dup2\n      mstore\n      0x20\n      add\n      0x534d45616d620000000000000000000000000000000000000000000000000000\n      dup2\n      mstore\n      pop\n        /* \"contracts/storage/LibSMEambStorage1.sol\":385:411  keccak256(bytes('SMEamb')) */\n      dup1\n      mload\n      swap1\n      0x20\n      add\n      keccak256\n        /* \"contracts/storage/LibSMEambStorage1.sol\":12346:12357  _getStorage */\n      tag_250\n        /* \"contracts/storage/LibSMEambStorage1.sol\":12346:12363  _getStorage(SLOT) */\n      jump\t// in\n    tag_319:\n        /* \"contracts/storage/LibSMEambStorage1.sol\":12346:12375  _getStorage(SLOT).ownedTokens */\n      0x03\n      add\n        /* \"contracts/storage/LibSMEambStorage1.sol\":12346:12379  _getStorage(SLOT).ownedTokens[to] */\n      0x00\n        /* \"contracts/storage/LibSMEambStorage1.sol\":12376:12378  to */\n      dup6\n        /* \"contracts/storage/LibSMEambStorage1.sol\":12346:12379  _getStorage(SLOT).ownedTokens[to] */\n      0xffffffffffffffffffffffffffffffffffffffff\n      and\n      0xffffffffffffffffffffffffffffffffffffffff\n      and\n      dup2\n      mstore\n      0x20\n      add\n      swap1\n      dup2\n      mstore\n      0x20\n      add\n      0x00\n      keccak256\n        /* \"contracts/storage/LibSMEambStorage1.sol\":12346:12387  _getStorage(SLOT).ownedTokens[to][length] */\n      0x00\n        /* \"contracts/storage/LibSMEambStorage1.sol\":12380:12386  length */\n      dup4\n        /* \"contracts/storage/LibSMEambStorage1.sol\":12346:12387  _getStorage(SLOT).ownedTokens[to][length] */\n      dup2\n      mstore\n      0x20\n      add\n      swap1\n      dup2\n      mstore\n      0x20\n      add\n      0x00\n      keccak256\n        /* \"contracts/storage/LibSMEambStorage1.sol\":12346:12397  _getStorage(SLOT).ownedTokens[to][length] = tokenId */\n      dup2\n      swap1\n      sstore\n      pop\n        /* \"contracts/storage/LibSMEambStorage1.sol\":12454:12460  length */\n      dup1\n        /* \"contracts/storage/LibSMEambStorage1.sol\":12408:12425  _getStorage(SLOT) */\n      tag_320\n        /* \"contracts/storage/LibSMEambStorage1.sol\":395:410  bytes('SMEamb') */\n      mload(0x40)\n      dup1\n      0x40\n      add\n      0x40\n      mstore\n      dup1\n      0x06\n      dup2\n      mstore\n      0x20\n      add\n      0x534d45616d620000000000000000000000000000000000000000000000000000\n      dup2\n      mstore\n      pop\n        /* \"contracts/storage/LibSMEambStorage1.sol\":385:411  keccak256(bytes('SMEamb')) */\n      dup1\n      mload\n      swap1\n      0x20\n      add\n      keccak256\n        /* \"contracts/storage/LibSMEambStorage1.sol\":12408:12419  _getStorage */\n      tag_250\n        /* \"contracts/storage/LibSMEambStorage1.sol\":12408:12425  _getStorage(SLOT) */\n      jump\t// in\n    tag_320:\n        /* \"contracts/storage/LibSMEambStorage1.sol\":12408:12442  _getStorage(SLOT).ownedTokensIndex */\n      0x04\n      add\n        /* \"contracts/storage/LibSMEambStorage1.sol\":12408:12451  _getStorage(SLOT).ownedTokensIndex[tokenId] */\n      0x00\n        /* \"contracts/storage/LibSMEambStorage1.sol\":12443:12450  tokenId */\n      dup5\n        /* \"contracts/storage/LibSMEambStorage1.sol\":12408:12451  _getStorage(SLOT).ownedTokensIndex[tokenId] */\n      dup2\n      mstore\n      0x20\n      add\n      swap1\n      dup2\n      mstore\n      0x20\n      add\n      0x00\n      keccak256\n        /* \"contracts/storage/LibSMEambStorage1.sol\":12408:12460  _getStorage(SLOT).ownedTokensIndex[tokenId] = length */\n      dup2\n      swap1\n      sstore\n      pop\n        /* \"contracts/storage/LibSMEambStorage1.sol\":12245:12468  function addTokenToOwnerEnumeration(address to, uint256 tokenId, uint256 length) external {... */\n      pop\n      pop\n      pop\n      jump\t// out\n        /* \"contracts/storage/LibSMEambStorage1.sol\":3317:3395  function name(string memory _name) external {_getStorage(SLOT)._name = _name;} */\n    tag_136:\n        /* \"contracts/storage/LibSMEambStorage1.sol\":3388:3393  _name */\n      dup1\n        /* \"contracts/storage/LibSMEambStorage1.sol\":3362:3379  _getStorage(SLOT) */\n      tag_322\n        /* \"contracts/storage/LibSMEambStorage1.sol\":395:410  bytes('SMEamb') */\n      mload(0x40)\n      dup1\n      0x40\n      add\n      0x40\n      mstore\n      dup1\n      0x06\n      dup2\n      mstore\n      0x20\n      add\n      0x534d45616d620000000000000000000000000000000000000000000000000000\n      dup2\n      mstore\n      pop\n        /* \"contracts/storage/LibSMEambStorage1.sol\":385:411  keccak256(bytes('SMEamb')) */\n      dup1\n      mload\n      swap1\n      0x20\n      add\n      keccak256\n        /* \"contracts/storage/LibSMEambStorage1.sol\":3362:3373  _getStorage */\n      tag_250\n        /* \"contracts/storage/LibSMEambStorage1.sol\":3362:3379  _getStorage(SLOT) */\n      jump\t// in\n    tag_322:\n        /* \"contracts/storage/LibSMEambStorage1.sol\":3362:3385  _getStorage(SLOT)._name */\n      0x0e\n      add\n        /* \"contracts/storage/LibSMEambStorage1.sol\":3362:3393  _getStorage(SLOT)._name = _name */\n      swap1\n      dup2\n      tag_323\n      swap2\n      swap1\n      tag_311\n      jump\t// in\n    tag_323:\n      pop\n        /* \"contracts/storage/LibSMEambStorage1.sol\":3317:3395  function name(string memory _name) external {_getStorage(SLOT)._name = _name;} */\n      pop\n      jump\t// out\n        /* \"contracts/storage/LibSMEambStorage1.sol\":6115:6233  function tokenURIs(uint256 tokenId) external view returns(string memory){return _getStorage(SLOT).tokenURIs[tokenId];} */\n    tag_139:\n        /* \"contracts/storage/LibSMEambStorage1.sol\":6173:6186  string memory */\n      0x60\n        /* \"contracts/storage/LibSMEambStorage1.sol\":6195:6212  _getStorage(SLOT) */\n      tag_325\n        /* \"contracts/storage/LibSMEambStorage1.sol\":395:410  bytes('SMEamb') */\n      mload(0x40)\n      dup1\n      0x40\n      add\n      0x40\n      mstore\n      dup1\n      0x06\n      dup2\n      mstore\n      0x20\n      add\n      0x534d45616d620000000000000000000000000000000000000000000000000000\n      dup2\n      mstore\n      pop\n        /* \"contracts/storage/LibSMEambStorage1.sol\":385:411  keccak256(bytes('SMEamb')) */\n      dup1\n      mload\n      swap1\n      0x20\n      add\n      keccak256\n        /* \"contracts/storage/LibSMEambStorage1.sol\":6195:6206  _getStorage */\n      tag_250\n        /* \"contracts/storage/LibSMEambStorage1.sol\":6195:6212  _getStorage(SLOT) */\n      jump\t// in\n    tag_325:\n        /* \"contracts/storage/LibSMEambStorage1.sol\":6195:6222  _getStorage(SLOT).tokenURIs */\n      0x02\n      add\n        /* \"contracts/storage/LibSMEambStorage1.sol\":6195:6231  _getStorage(SLOT).tokenURIs[tokenId] */\n      0x00\n        /* \"contracts/storage/LibSMEambStorage1.sol\":6223:6230  tokenId */\n      dup4\n        /* \"contracts/storage/LibSMEambStorage1.sol\":6195:6231  _getStorage(SLOT).tokenURIs[tokenId] */\n      dup2\n      mstore\n      0x20\n      add\n      swap1\n      dup2\n      mstore\n      0x20\n      add\n      0x00\n      keccak256\n        /* \"contracts/storage/LibSMEambStorage1.sol\":6188:6231  return _getStorage(SLOT).tokenURIs[tokenId] */\n      dup1\n      sload\n      tag_326\n      swap1\n      tag_252\n      jump\t// in\n    tag_326:\n      dup1\n      0x1f\n      add\n      0x20\n      dup1\n      swap2\n      div\n      mul\n      0x20\n      add\n      mload(0x40)\n      swap1\n      dup2\n      add\n      0x40\n      mstore\n      dup1\n      swap3\n      swap2\n      swap1\n      dup2\n      dup2\n      mstore\n      0x20\n      add\n      dup3\n      dup1\n      sload\n      tag_327\n      swap1\n      tag_252\n      jump\t// in\n    tag_327:\n      dup1\n      iszero\n      tag_328\n      jumpi\n      dup1\n      0x1f\n      lt\n      tag_329\n      jumpi\n      0x0100\n      dup1\n      dup4\n      sload\n      div\n      mul\n      dup4\n      mstore\n      swap2\n      0x20\n      add\n      swap2\n      jump(tag_328)\n    tag_329:\n      dup3\n      add\n      swap2\n      swap1\n      0x00\n      mstore\n      keccak256(0x00, 0x20)\n      swap1\n    tag_330:\n      dup2\n      sload\n      dup2\n      mstore\n      swap1\n      0x01\n      add\n      swap1\n      0x20\n      add\n      dup1\n      dup4\n      gt\n      tag_330\n      jumpi\n      dup3\n      swap1\n      sub\n      0x1f\n      and\n      dup3\n      add\n      swap2\n    tag_328:\n      pop\n      pop\n      pop\n      pop\n      pop\n      swap1\n      pop\n        /* \"contracts/storage/LibSMEambStorage1.sol\":6115:6233  function tokenURIs(uint256 tokenId) external view returns(string memory){return _getStorage(SLOT).tokenURIs[tokenId];} */\n      swap2\n      swap1\n      pop\n      jump\t// out\n        /* \"contracts/storage/LibSMEambStorage1.sol\":6511:6608  function allTokens() external view returns(uint256[] memory){return _getStorage(SLOT).allTokens;} */\n    tag_142:\n        /* \"contracts/storage/LibSMEambStorage1.sol\":6554:6570  uint256[] memory */\n      0x60\n        /* \"contracts/storage/LibSMEambStorage1.sol\":6579:6596  _getStorage(SLOT) */\n      tag_332\n        /* \"contracts/storage/LibSMEambStorage1.sol\":395:410  bytes('SMEamb') */\n      mload(0x40)\n      dup1\n      0x40\n      add\n      0x40\n      mstore\n      dup1\n      0x06\n      dup2\n      mstore\n      0x20\n      add\n      0x534d45616d620000000000000000000000000000000000000000000000000000\n      dup2\n      mstore\n      pop\n        /* \"contracts/storage/LibSMEambStorage1.sol\":385:411  keccak256(bytes('SMEamb')) */\n      dup1\n      mload\n      swap1\n      0x20\n      add\n      keccak256\n        /* \"contracts/storage/LibSMEambStorage1.sol\":6579:6590  _getStorage */\n      tag_250\n        /* \"contracts/storage/LibSMEambStorage1.sol\":6579:6596  _getStorage(SLOT) */\n      jump\t// in\n    tag_332:\n        /* \"contracts/storage/LibSMEambStorage1.sol\":6579:6606  _getStorage(SLOT).allTokens */\n      0x05\n      add\n        /* \"contracts/storage/LibSMEambStorage1.sol\":6572:6606  return _getStorage(SLOT).allTokens */\n      dup1\n      sload\n      dup1\n      0x20\n      mul\n      0x20\n      add\n      mload(0x40)\n      swap1\n      dup2\n      add\n      0x40\n      mstore\n      dup1\n      swap3\n      swap2\n      swap1\n      dup2\n      dup2\n      mstore\n      0x20\n      add\n      dup3\n      dup1\n      sload\n      dup1\n      iszero\n      tag_333\n      jumpi\n      0x20\n      mul\n      dup3\n      add\n      swap2\n      swap1\n      0x00\n      mstore\n      keccak256(0x00, 0x20)\n      swap1\n    tag_334:\n      dup2\n      sload\n      dup2\n      mstore\n      0x20\n      add\n      swap1\n      0x01\n      add\n      swap1\n      dup1\n      dup4\n      gt\n      tag_334\n      jumpi\n    tag_333:\n      pop\n      pop\n      pop\n      pop\n      pop\n      swap1\n      pop\n        /* \"contracts/storage/LibSMEambStorage1.sol\":6511:6608  function allTokens() external view returns(uint256[] memory){return _getStorage(SLOT).allTokens;} */\n      swap1\n      jump\t// out\n        /* \"contracts/storage/LibSMEambStorage1.sol\":6379:6505  function ownedTokensIndex(uint256 tokenId) external view returns(uint256){return _getStorage(SLOT).ownedTokensIndex[tokenId];} */\n    tag_147:\n        /* \"contracts/storage/LibSMEambStorage1.sol\":6444:6451  uint256 */\n      0x00\n        /* \"contracts/storage/LibSMEambStorage1.sol\":6460:6477  _getStorage(SLOT) */\n      tag_336\n        /* \"contracts/storage/LibSMEambStorage1.sol\":395:410  bytes('SMEamb') */\n      mload(0x40)\n      dup1\n      0x40\n      add\n      0x40\n      mstore\n      dup1\n      0x06\n      dup2\n      mstore\n      0x20\n      add\n      0x534d45616d620000000000000000000000000000000000000000000000000000\n      dup2\n      mstore\n      pop\n        /* \"contracts/storage/LibSMEambStorage1.sol\":385:411  keccak256(bytes('SMEamb')) */\n      dup1\n      mload\n      swap1\n      0x20\n      add\n      keccak256\n        /* \"contracts/storage/LibSMEambStorage1.sol\":6460:6471  _getStorage */\n      tag_250\n        /* \"contracts/storage/LibSMEambStorage1.sol\":6460:6477  _getStorage(SLOT) */\n      jump\t// in\n    tag_336:\n        /* \"contracts/storage/LibSMEambStorage1.sol\":6460:6494  _getStorage(SLOT).ownedTokensIndex */\n      0x04\n      add\n        /* \"contracts/storage/LibSMEambStorage1.sol\":6460:6503  _getStorage(SLOT).ownedTokensIndex[tokenId] */\n      0x00\n        /* \"contracts/storage/LibSMEambStorage1.sol\":6495:6502  tokenId */\n      dup4\n        /* \"contracts/storage/LibSMEambStorage1.sol\":6460:6503  _getStorage(SLOT).ownedTokensIndex[tokenId] */\n      dup2\n      mstore\n      0x20\n      add\n      swap1\n      dup2\n      mstore\n      0x20\n      add\n      0x00\n      keccak256\n      sload\n        /* \"contracts/storage/LibSMEambStorage1.sol\":6453:6503  return _getStorage(SLOT).ownedTokensIndex[tokenId] */\n      swap1\n      pop\n        /* \"contracts/storage/LibSMEambStorage1.sol\":6379:6505  function ownedTokensIndex(uint256 tokenId) external view returns(uint256){return _getStorage(SLOT).ownedTokensIndex[tokenId];} */\n      swap2\n      swap1\n      pop\n      jump\t// out\n        /* \"contracts/storage/LibSMEambStorage1.sol\":5719:5856  function _spotMintedIncr() external {uint256 _spotMinted = _getStorage(SLOT)._spotMinted; _getStorage(SLOT)._spotMinted = _spotMinted+1;} */\n    tag_151:\n        /* \"contracts/storage/LibSMEambStorage1.sol\":5756:5775  uint256 _spotMinted */\n      0x00\n        /* \"contracts/storage/LibSMEambStorage1.sol\":5778:5795  _getStorage(SLOT) */\n      tag_338\n        /* \"contracts/storage/LibSMEambStorage1.sol\":395:410  bytes('SMEamb') */\n      mload(0x40)\n      dup1\n      0x40\n      add\n      0x40\n      mstore\n      dup1\n      0x06\n      dup2\n      mstore\n      0x20\n      add\n      0x534d45616d620000000000000000000000000000000000000000000000000000\n      dup2\n      mstore\n      pop\n        /* \"contracts/storage/LibSMEambStorage1.sol\":385:411  keccak256(bytes('SMEamb')) */\n      dup1\n      mload\n      swap1\n      0x20\n      add\n      keccak256\n        /* \"contracts/storage/LibSMEambStorage1.sol\":5778:5789  _getStorage */\n      tag_250\n        /* \"contracts/storage/LibSMEambStorage1.sol\":5778:5795  _getStorage(SLOT) */\n      jump\t// in\n    tag_338:\n        /* \"contracts/storage/LibSMEambStorage1.sol\":5778:5807  _getStorage(SLOT)._spotMinted */\n      0x14\n      add\n      sload\n        /* \"contracts/storage/LibSMEambStorage1.sol\":5756:5807  uint256 _spotMinted = _getStorage(SLOT)._spotMinted */\n      swap1\n      pop\n        /* \"contracts/storage/LibSMEambStorage1.sol\":5853:5854  1 */\n      0x01\n        /* \"contracts/storage/LibSMEambStorage1.sol\":5841:5852  _spotMinted */\n      dup2\n        /* \"contracts/storage/LibSMEambStorage1.sol\":5841:5854  _spotMinted+1 */\n      tag_339\n      swap2\n      swap1\n      tag_340\n      jump\t// in\n    tag_339:\n        /* \"contracts/storage/LibSMEambStorage1.sol\":5809:5826  _getStorage(SLOT) */\n      tag_341\n        /* \"contracts/storage/LibSMEambStorage1.sol\":395:410  bytes('SMEamb') */\n      mload(0x40)\n      dup1\n      0x40\n      add\n      0x40\n      mstore\n      dup1\n      0x06\n      dup2\n      mstore\n      0x20\n      add\n      0x534d45616d620000000000000000000000000000000000000000000000000000\n      dup2\n      mstore\n      pop\n        /* \"contracts/storage/LibSMEambStorage1.sol\":385:411  keccak256(bytes('SMEamb')) */\n      dup1\n      mload\n      swap1\n      0x20\n      add\n      keccak256\n        /* \"contracts/storage/LibSMEambStorage1.sol\":5809:5820  _getStorage */\n      tag_250\n        /* \"contracts/storage/LibSMEambStorage1.sol\":5809:5826  _getStorage(SLOT) */\n      jump\t// in\n    tag_341:\n        /* \"contracts/storage/LibSMEambStorage1.sol\":5809:5838  _getStorage(SLOT)._spotMinted */\n      0x14\n      add\n        /* \"contracts/storage/LibSMEambStorage1.sol\":5809:5854  _getStorage(SLOT)._spotMinted = _spotMinted+1 */\n      dup2\n      swap1\n      sstore\n      pop\n        /* \"contracts/storage/LibSMEambStorage1.sol\":5755:5856  {uint256 _spotMinted = _getStorage(SLOT)._spotMinted; _getStorage(SLOT)._spotMinted = _spotMinted+1;} */\n      pop\n        /* \"contracts/storage/LibSMEambStorage1.sol\":5719:5856  function _spotMintedIncr() external {uint256 _spotMinted = _getStorage(SLOT)._spotMinted; _getStorage(SLOT)._spotMinted = _spotMinted+1;} */\n      jump\t// out\n        /* \"contracts/storage/LibSMEambStorage1.sol\":7284:7404  function defaultTokenURI(string memory _defaultTokenURI) external{_getStorage(SLOT).defaultTokenURI = _defaultTokenURI;} */\n    tag_155:\n        /* \"contracts/storage/LibSMEambStorage1.sol\":7386:7402  _defaultTokenURI */\n      dup1\n        /* \"contracts/storage/LibSMEambStorage1.sol\":7350:7367  _getStorage(SLOT) */\n      tag_343\n        /* \"contracts/storage/LibSMEambStorage1.sol\":395:410  bytes('SMEamb') */\n      mload(0x40)\n      dup1\n      0x40\n      add\n      0x40\n      mstore\n      dup1\n      0x06\n      dup2\n      mstore\n      0x20\n      add\n      0x534d45616d620000000000000000000000000000000000000000000000000000\n      dup2\n      mstore\n      pop\n        /* \"contracts/storage/LibSMEambStorage1.sol\":385:411  keccak256(bytes('SMEamb')) */\n      dup1\n      mload\n      swap1\n      0x20\n      add\n      keccak256\n        /* \"contracts/storage/LibSMEambStorage1.sol\":7350:7361  _getStorage */\n      tag_250\n        /* \"contracts/storage/LibSMEambStorage1.sol\":7350:7367  _getStorage(SLOT) */\n      jump\t// in\n    tag_343:\n        /* \"contracts/storage/LibSMEambStorage1.sol\":7350:7383  _getStorage(SLOT).defaultTokenURI */\n      0x01\n      add\n        /* \"contracts/storage/LibSMEambStorage1.sol\":7350:7402  _getStorage(SLOT).defaultTokenURI = _defaultTokenURI */\n      swap1\n      dup2\n      tag_344\n      swap2\n      swap1\n      tag_311\n      jump\t// in\n    tag_344:\n      pop\n        /* \"contracts/storage/LibSMEambStorage1.sol\":7284:7404  function defaultTokenURI(string memory _defaultTokenURI) external{_getStorage(SLOT).defaultTokenURI = _defaultTokenURI;} */\n      pop\n      jump\t// out\n        /* \"contracts/storage/LibSMEambStorage1.sol\":5464:5615  function _operatorApprovals(address owner, address operator, bool approved) external{_getStorage(SLOT)._operatorApprovals[owner][operator] = approved;} */\n    tag_160:\n        /* \"contracts/storage/LibSMEambStorage1.sol\":5605:5613  approved */\n      dup1\n        /* \"contracts/storage/LibSMEambStorage1.sol\":5549:5566  _getStorage(SLOT) */\n      tag_346\n        /* \"contracts/storage/LibSMEambStorage1.sol\":395:410  bytes('SMEamb') */\n      mload(0x40)\n      dup1\n      0x40\n      add\n      0x40\n      mstore\n      dup1\n      0x06\n      dup2\n      mstore\n      0x20\n      add\n      0x534d45616d620000000000000000000000000000000000000000000000000000\n      dup2\n      mstore\n      pop\n        /* \"contracts/storage/LibSMEambStorage1.sol\":385:411  keccak256(bytes('SMEamb')) */\n      dup1\n      mload\n      swap1\n      0x20\n      add\n      keccak256\n        /* \"contracts/storage/LibSMEambStorage1.sol\":5549:5560  _getStorage */\n      tag_250\n        /* \"contracts/storage/LibSMEambStorage1.sol\":5549:5566  _getStorage(SLOT) */\n      jump\t// in\n    tag_346:\n        /* \"contracts/storage/LibSMEambStorage1.sol\":5549:5585  _getStorage(SLOT)._operatorApprovals */\n      0x13\n      add\n        /* \"contracts/storage/LibSMEambStorage1.sol\":5549:5592  _getStorage(SLOT)._operatorApprovals[owner] */\n      0x00\n        /* \"contracts/storage/LibSMEambStorage1.sol\":5586:5591  owner */\n      dup6\n        /* \"contracts/storage/LibSMEambStorage1.sol\":5549:5592  _getStorage(SLOT)._operatorApprovals[owner] */\n      0xffffffffffffffffffffffffffffffffffffffff\n      and\n      0xffffffffffffffffffffffffffffffffffffffff\n      and\n      dup2\n      mstore\n      0x20\n      add\n      swap1\n      dup2\n      mstore\n      0x20\n      add\n      0x00\n      keccak256\n        /* \"contracts/storage/LibSMEambStorage1.sol\":5549:5602  _getStorage(SLOT)._operatorApprovals[owner][operator] */\n      0x00\n        /* \"contracts/storage/LibSMEambStorage1.sol\":5593:5601  operator */\n      dup5\n        /* \"contracts/storage/LibSMEambStorage1.sol\":5549:5602  _getStorage(SLOT)._operatorApprovals[owner][operator] */\n      0xffffffffffffffffffffffffffffffffffffffff\n      and\n      0xffffffffffffffffffffffffffffffffffffffff\n      and\n      dup2\n      mstore\n      0x20\n      add\n      swap1\n      dup2\n      mstore\n      0x20\n      add\n      0x00\n      keccak256\n      0x00\n        /* \"contracts/storage/LibSMEambStorage1.sol\":5549:5613  _getStorage(SLOT)._operatorApprovals[owner][operator] = approved */\n      0x0100\n      exp\n      dup2\n      sload\n      dup2\n      0xff\n      mul\n      not\n      and\n      swap1\n      dup4\n      iszero\n      iszero\n      mul\n      or\n      swap1\n      sstore\n      pop\n        /* \"contracts/storage/LibSMEambStorage1.sol\":5464:5615  function _operatorApprovals(address owner, address operator, bool approved) external{_getStorage(SLOT)._operatorApprovals[owner][operator] = approved;} */\n      pop\n      pop\n      pop\n      jump\t// out\n        /* \"contracts/storage/LibSMEambStorage1.sol\":7934:8044  function legendlistRoot(bytes32 _legendlistRoot) external{_getStorage(SLOT).legendlistRoot = _legendlistRoot;} */\n    tag_164:\n        /* \"contracts/storage/LibSMEambStorage1.sol\":8027:8042  _legendlistRoot */\n      dup1\n        /* \"contracts/storage/LibSMEambStorage1.sol\":7992:8009  _getStorage(SLOT) */\n      tag_348\n        /* \"contracts/storage/LibSMEambStorage1.sol\":395:410  bytes('SMEamb') */\n      mload(0x40)\n      dup1\n      0x40\n      add\n      0x40\n      mstore\n      dup1\n      0x06\n      dup2\n      mstore\n      0x20\n      add\n      0x534d45616d620000000000000000000000000000000000000000000000000000\n      dup2\n      mstore\n      pop\n        /* \"contracts/storage/LibSMEambStorage1.sol\":385:411  keccak256(bytes('SMEamb')) */\n      dup1\n      mload\n      swap1\n      0x20\n      add\n      keccak256\n        /* \"contracts/storage/LibSMEambStorage1.sol\":7992:8003  _getStorage */\n      tag_250\n        /* \"contracts/storage/LibSMEambStorage1.sol\":7992:8009  _getStorage(SLOT) */\n      jump\t// in\n    tag_348:\n        /* \"contracts/storage/LibSMEambStorage1.sol\":7992:8024  _getStorage(SLOT).legendlistRoot */\n      0x08\n      add\n        /* \"contracts/storage/LibSMEambStorage1.sol\":7992:8042  _getStorage(SLOT).legendlistRoot = _legendlistRoot */\n      dup2\n      swap1\n      sstore\n      pop\n        /* \"contracts/storage/LibSMEambStorage1.sol\":7934:8044  function legendlistRoot(bytes32 _legendlistRoot) external{_getStorage(SLOT).legendlistRoot = _legendlistRoot;} */\n      pop\n      jump\t// out\n        /* \"contracts/storage/LibSMEambStorage1.sol\":4080:4163  function _burnCounter(uint256 _id) external {_getStorage(SLOT)._burnCounter = _id;} */\n    tag_168:\n        /* \"contracts/storage/LibSMEambStorage1.sol\":4158:4161  _id */\n      dup1\n        /* \"contracts/storage/LibSMEambStorage1.sol\":4125:4142  _getStorage(SLOT) */\n      tag_350\n        /* \"contracts/storage/LibSMEambStorage1.sol\":395:410  bytes('SMEamb') */\n      mload(0x40)\n      dup1\n      0x40\n      add\n      0x40\n      mstore\n      dup1\n      0x06\n      dup2\n      mstore\n      0x20\n      add\n      0x534d45616d620000000000000000000000000000000000000000000000000000\n      dup2\n      mstore\n      pop\n        /* \"contracts/storage/LibSMEambStorage1.sol\":385:411  keccak256(bytes('SMEamb')) */\n      dup1\n      mload\n      swap1\n      0x20\n      add\n      keccak256\n        /* \"contracts/storage/LibSMEambStorage1.sol\":4125:4136  _getStorage */\n      tag_250\n        /* \"contracts/storage/LibSMEambStorage1.sol\":4125:4142  _getStorage(SLOT) */\n      jump\t// in\n    tag_350:\n        /* \"contracts/storage/LibSMEambStorage1.sol\":4125:4155  _getStorage(SLOT)._burnCounter */\n      0x0d\n      add\n        /* \"contracts/storage/LibSMEambStorage1.sol\":4125:4161  _getStorage(SLOT)._burnCounter = _id */\n      dup2\n      swap1\n      sstore\n      pop\n        /* \"contracts/storage/LibSMEambStorage1.sol\":4080:4163  function _burnCounter(uint256 _id) external {_getStorage(SLOT)._burnCounter = _id;} */\n      pop\n      jump\t// out\n        /* \"contracts/storage/LibSMEambStorage1.sol\":3588:3684  function _currentIndex() external view returns(uint256){return _getStorage(SLOT)._currentIndex;} */\n    tag_170:\n        /* \"contracts/storage/LibSMEambStorage1.sol\":3635:3642  uint256 */\n      0x00\n        /* \"contracts/storage/LibSMEambStorage1.sol\":3651:3668  _getStorage(SLOT) */\n      tag_352\n        /* \"contracts/storage/LibSMEambStorage1.sol\":395:410  bytes('SMEamb') */\n      mload(0x40)\n      dup1\n      0x40\n      add\n      0x40\n      mstore\n      dup1\n      0x06\n      dup2\n      mstore\n      0x20\n      add\n      0x534d45616d620000000000000000000000000000000000000000000000000000\n      dup2\n      mstore\n      pop\n        /* \"contracts/storage/LibSMEambStorage1.sol\":385:411  keccak256(bytes('SMEamb')) */\n      dup1\n      mload\n      swap1\n      0x20\n      add\n      keccak256\n        /* \"contracts/storage/LibSMEambStorage1.sol\":3651:3662  _getStorage */\n      tag_250\n        /* \"contracts/storage/LibSMEambStorage1.sol\":3651:3668  _getStorage(SLOT) */\n      jump\t// in\n    tag_352:\n        /* \"contracts/storage/LibSMEambStorage1.sol\":3651:3682  _getStorage(SLOT)._currentIndex */\n      0x0c\n      add\n      sload\n        /* \"contracts/storage/LibSMEambStorage1.sol\":3644:3682  return _getStorage(SLOT)._currentIndex */\n      swap1\n      pop\n        /* \"contracts/storage/LibSMEambStorage1.sol\":3588:3684  function _currentIndex() external view returns(uint256){return _getStorage(SLOT)._currentIndex;} */\n      swap1\n      jump\t// out\n        /* \"contracts/storage/LibSMEambStorage1.sol\":3401:3490  function symbol() external view returns(string memory){return _getStorage(SLOT)._symbol;} */\n    tag_173:\n        /* \"contracts/storage/LibSMEambStorage1.sol\":3441:3454  string memory */\n      0x60\n        /* \"contracts/storage/LibSMEambStorage1.sol\":3463:3480  _getStorage(SLOT) */\n      tag_354\n        /* \"contracts/storage/LibSMEambStorage1.sol\":395:410  bytes('SMEamb') */\n      mload(0x40)\n      dup1\n      0x40\n      add\n      0x40\n      mstore\n      dup1\n      0x06\n      dup2\n      mstore\n      0x20\n      add\n      0x534d45616d620000000000000000000000000000000000000000000000000000\n      dup2\n      mstore\n      pop\n        /* \"contracts/storage/LibSMEambStorage1.sol\":385:411  keccak256(bytes('SMEamb')) */\n      dup1\n      mload\n      swap1\n      0x20\n      add\n      keccak256\n        /* \"contracts/storage/LibSMEambStorage1.sol\":3463:3474  _getStorage */\n      tag_250\n        /* \"contracts/storage/LibSMEambStorage1.sol\":3463:3480  _getStorage(SLOT) */\n      jump\t// in\n    tag_354:\n        /* \"contracts/storage/LibSMEambStorage1.sol\":3463:3488  _getStorage(SLOT)._symbol */\n      0x0f\n      add\n        /* \"contracts/storage/LibSMEambStorage1.sol\":3456:3488  return _getStorage(SLOT)._symbol */\n      dup1\n      sload\n      tag_355\n      swap1\n      tag_252\n      jump\t// in\n    tag_355:\n      dup1\n      0x1f\n      add\n      0x20\n      dup1\n      swap2\n      div\n      mul\n      0x20\n      add\n      mload(0x40)\n      swap1\n      dup2\n      add\n      0x40\n      mstore\n      dup1\n      swap3\n      swap2\n      swap1\n      dup2\n      dup2\n      mstore\n      0x20\n      add\n      dup3\n      dup1\n      sload\n      tag_356\n      swap1\n      tag_252\n      jump\t// in\n    tag_356:\n      dup1\n      iszero\n      tag_357\n      jumpi\n      dup1\n      0x1f\n      lt\n      tag_358\n      jumpi\n      0x0100\n      dup1\n      dup4\n      sload\n      div\n      mul\n      dup4\n      mstore\n      swap2\n      0x20\n      add\n      swap2\n      jump(tag_357)\n    tag_358:\n      dup3\n      add\n      swap2\n      swap1\n      0x00\n      mstore\n      keccak256(0x00, 0x20)\n      swap1\n    tag_359:\n      dup2\n      sload\n      dup2\n      mstore\n      swap1\n      0x01\n      add\n      swap1\n      0x20\n      add\n      dup1\n      dup4\n      gt\n      tag_359\n      jumpi\n      dup3\n      swap1\n      sub\n      0x1f\n      and\n      dup3\n      add\n      swap2\n    tag_357:\n      pop\n      pop\n      pop\n      pop\n      pop\n      swap1\n      pop\n        /* \"contracts/storage/LibSMEambStorage1.sol\":3401:3490  function symbol() external view returns(string memory){return _getStorage(SLOT)._symbol;} */\n      swap1\n      jump\t// out\n        /* \"contracts/storage/LibSMEambStorage1.sol\":6003:6109  function defaultTokenURI() external view returns(string memory){return _getStorage(SLOT).defaultTokenURI;} */\n    tag_176:\n        /* \"contracts/storage/LibSMEambStorage1.sol\":6052:6065  string memory */\n      0x60\n        /* \"contracts/storage/LibSMEambStorage1.sol\":6074:6091  _getStorage(SLOT) */\n      tag_361\n        /* \"contracts/storage/LibSMEambStorage1.sol\":395:410  bytes('SMEamb') */\n      mload(0x40)\n      dup1\n      0x40\n      add\n      0x40\n      mstore\n      dup1\n      0x06\n      dup2\n      mstore\n      0x20\n      add\n      0x534d45616d620000000000000000000000000000000000000000000000000000\n      dup2\n      mstore\n      pop\n        /* \"contracts/storage/LibSMEambStorage1.sol\":385:411  keccak256(bytes('SMEamb')) */\n      dup1\n      mload\n      swap1\n      0x20\n      add\n      keccak256\n        /* \"contracts/storage/LibSMEambStorage1.sol\":6074:6085  _getStorage */\n      tag_250\n        /* \"contracts/storage/LibSMEambStorage1.sol\":6074:6091  _getStorage(SLOT) */\n      jump\t// in\n    tag_361:\n        /* \"contracts/storage/LibSMEambStorage1.sol\":6074:6107  _getStorage(SLOT).defaultTokenURI */\n      0x01\n      add\n        /* \"contracts/storage/LibSMEambStorage1.sol\":6067:6107  return _getStorage(SLOT).defaultTokenURI */\n      dup1\n      sload\n      tag_362\n      swap1\n      tag_252\n      jump\t// in\n    tag_362:\n      dup1\n      0x1f\n      add\n      0x20\n      dup1\n      swap2\n      div\n      mul\n      0x20\n      add\n      mload(0x40)\n      swap1\n      dup2\n      add\n      0x40\n      mstore\n      dup1\n      swap3\n      swap2\n      swap1\n      dup2\n      dup2\n      mstore\n      0x20\n      add\n      dup3\n      dup1\n      sload\n      tag_363\n      swap1\n      tag_252\n      jump\t// in\n    tag_363:\n      dup1\n      iszero\n      tag_364\n      jumpi\n      dup1\n      0x1f\n      lt\n      tag_365\n      jumpi\n      0x0100\n      dup1\n      dup4\n      sload\n      div\n      mul\n      dup4\n      mstore\n      swap2\n      0x20\n      add\n      swap2\n      jump(tag_364)\n    tag_365:\n      dup3\n      add\n      swap2\n      swap1\n      0x00\n      mstore\n      keccak256(0x00, 0x20)\n      swap1\n    tag_366:\n      dup2\n      sload\n      dup2\n      mstore\n      swap1\n      0x01\n      add\n      swap1\n      0x20\n      add\n      dup1\n      dup4\n      gt\n      tag_366\n      jumpi\n      dup3\n      swap1\n      sub\n      0x1f\n      and\n      dup3\n      add\n      swap2\n    tag_364:\n      pop\n      pop\n      pop\n      pop\n      pop\n      swap1\n      pop\n        /* \"contracts/storage/LibSMEambStorage1.sol\":6003:6109  function defaultTokenURI() external view returns(string memory){return _getStorage(SLOT).defaultTokenURI;} */\n      swap1\n      jump\t// out\n        /* \"contracts/storage/LibSMEambStorage1.sol\":3787:3883  function _startTokenId() external view returns(uint256){return _getStorage(SLOT)._startTokenId;} */\n    tag_179:\n        /* \"contracts/storage/LibSMEambStorage1.sol\":3834:3841  uint256 */\n      0x00\n        /* \"contracts/storage/LibSMEambStorage1.sol\":3850:3867  _getStorage(SLOT) */\n      tag_368\n        /* \"contracts/storage/LibSMEambStorage1.sol\":395:410  bytes('SMEamb') */\n      mload(0x40)\n      dup1\n      0x40\n      add\n      0x40\n      mstore\n      dup1\n      0x06\n      dup2\n      mstore\n      0x20\n      add\n      0x534d45616d620000000000000000000000000000000000000000000000000000\n      dup2\n      mstore\n      pop\n        /* \"contracts/storage/LibSMEambStorage1.sol\":385:411  keccak256(bytes('SMEamb')) */\n      dup1\n      mload\n      swap1\n      0x20\n      add\n      keccak256\n        /* \"contracts/storage/LibSMEambStorage1.sol\":3850:3861  _getStorage */\n      tag_250\n        /* \"contracts/storage/LibSMEambStorage1.sol\":3850:3867  _getStorage(SLOT) */\n      jump\t// in\n    tag_368:\n        /* \"contracts/storage/LibSMEambStorage1.sol\":3850:3881  _getStorage(SLOT)._startTokenId */\n      0x15\n      add\n      sload\n        /* \"contracts/storage/LibSMEambStorage1.sol\":3843:3881  return _getStorage(SLOT)._startTokenId */\n      swap1\n      pop\n        /* \"contracts/storage/LibSMEambStorage1.sol\":3787:3883  function _startTokenId() external view returns(uint256){return _getStorage(SLOT)._startTokenId;} */\n      swap1\n      jump\t// out\n        /* \"contracts/storage/LibSMEambStorage1.sol\":7170:7278  function baseTokenURI(string memory _baseTokenURI) external{_getStorage(SLOT).baseTokenURI = _baseTokenURI;} */\n    tag_184:\n        /* \"contracts/storage/LibSMEambStorage1.sol\":7263:7276  _baseTokenURI */\n      dup1\n        /* \"contracts/storage/LibSMEambStorage1.sol\":7230:7247  _getStorage(SLOT) */\n      tag_370\n        /* \"contracts/storage/LibSMEambStorage1.sol\":395:410  bytes('SMEamb') */\n      mload(0x40)\n      dup1\n      0x40\n      add\n      0x40\n      mstore\n      dup1\n      0x06\n      dup2\n      mstore\n      0x20\n      add\n      0x534d45616d620000000000000000000000000000000000000000000000000000\n      dup2\n      mstore\n      pop\n        /* \"contracts/storage/LibSMEambStorage1.sol\":385:411  keccak256(bytes('SMEamb')) */\n      dup1\n      mload\n      swap1\n      0x20\n      add\n      keccak256\n        /* \"contracts/storage/LibSMEambStorage1.sol\":7230:7241  _getStorage */\n      tag_250\n        /* \"contracts/storage/LibSMEambStorage1.sol\":7230:7247  _getStorage(SLOT) */\n      jump\t// in\n    tag_370:\n        /* \"contracts/storage/LibSMEambStorage1.sol\":7230:7260  _getStorage(SLOT).baseTokenURI */\n      0x00\n      add\n        /* \"contracts/storage/LibSMEambStorage1.sol\":7230:7276  _getStorage(SLOT).baseTokenURI = _baseTokenURI */\n      swap1\n      dup2\n      tag_371\n      swap2\n      swap1\n      tag_311\n      jump\t// in\n    tag_371:\n      pop\n        /* \"contracts/storage/LibSMEambStorage1.sol\":7170:7278  function baseTokenURI(string memory _baseTokenURI) external{_getStorage(SLOT).baseTokenURI = _baseTokenURI;} */\n      pop\n      jump\t// out\n        /* \"contracts/storage/LibSMEambStorage1.sol\":4571:4699  function _packedAddressData(address _owner, uint256 _tokenId) external{_getStorage(SLOT)._packedAddressData[_owner] = _tokenId;} */\n    tag_189:\n        /* \"contracts/storage/LibSMEambStorage1.sol\":4689:4697  _tokenId */\n      dup1\n        /* \"contracts/storage/LibSMEambStorage1.sol\":4642:4659  _getStorage(SLOT) */\n      tag_373\n        /* \"contracts/storage/LibSMEambStorage1.sol\":395:410  bytes('SMEamb') */\n      mload(0x40)\n      dup1\n      0x40\n      add\n      0x40\n      mstore\n      dup1\n      0x06\n      dup2\n      mstore\n      0x20\n      add\n      0x534d45616d620000000000000000000000000000000000000000000000000000\n      dup2\n      mstore\n      pop\n        /* \"contracts/storage/LibSMEambStorage1.sol\":385:411  keccak256(bytes('SMEamb')) */\n      dup1\n      mload\n      swap1\n      0x20\n      add\n      keccak256\n        /* \"contracts/storage/LibSMEambStorage1.sol\":4642:4653  _getStorage */\n      tag_250\n        /* \"contracts/storage/LibSMEambStorage1.sol\":4642:4659  _getStorage(SLOT) */\n      jump\t// in\n    tag_373:\n        /* \"contracts/storage/LibSMEambStorage1.sol\":4642:4678  _getStorage(SLOT)._packedAddressData */\n      0x11\n      add\n        /* \"contracts/storage/LibSMEambStorage1.sol\":4642:4686  _getStorage(SLOT)._packedAddressData[_owner] */\n      0x00\n        /* \"contracts/storage/LibSMEambStorage1.sol\":4679:4685  _owner */\n      dup5\n        /* \"contracts/storage/LibSMEambStorage1.sol\":4642:4686  _getStorage(SLOT)._packedAddressData[_owner] */\n      0xffffffffffffffffffffffffffffffffffffffff\n      and\n      0xffffffffffffffffffffffffffffffffffffffff\n      and\n      dup2\n      mstore\n      0x20\n      add\n      swap1\n      dup2\n      mstore\n      0x20\n      add\n      0x00\n      keccak256\n        /* \"contracts/storage/LibSMEambStorage1.sol\":4642:4697  _getStorage(SLOT)._packedAddressData[_owner] = _tokenId */\n      dup2\n      swap1\n      sstore\n      pop\n        /* \"contracts/storage/LibSMEambStorage1.sol\":4571:4699  function _packedAddressData(address _owner, uint256 _tokenId) external{_getStorage(SLOT)._packedAddressData[_owner] = _tokenId;} */\n      pop\n      pop\n      jump\t// out\n        /* \"contracts/storage/LibSMEambStorage1.sol\":5021:5163  function _tokenApprovals(uint256 _tokenId) external view returns(TokenApprovalRef memory){return _getStorage(SLOT)._tokenApprovals[_tokenId];} */\n    tag_192:\n        /* \"contracts/storage/LibSMEambStorage1.sol\":5086:5109  TokenApprovalRef memory */\n      tag_374\n      tag_375\n      jump\t// in\n    tag_374:\n        /* \"contracts/storage/LibSMEambStorage1.sol\":5118:5135  _getStorage(SLOT) */\n      tag_377\n        /* \"contracts/storage/LibSMEambStorage1.sol\":395:410  bytes('SMEamb') */\n      mload(0x40)\n      dup1\n      0x40\n      add\n      0x40\n      mstore\n      dup1\n      0x06\n      dup2\n      mstore\n      0x20\n      add\n      0x534d45616d620000000000000000000000000000000000000000000000000000\n      dup2\n      mstore\n      pop\n        /* \"contracts/storage/LibSMEambStorage1.sol\":385:411  keccak256(bytes('SMEamb')) */\n      dup1\n      mload\n      swap1\n      0x20\n      add\n      keccak256\n        /* \"contracts/storage/LibSMEambStorage1.sol\":5118:5129  _getStorage */\n      tag_250\n        /* \"contracts/storage/LibSMEambStorage1.sol\":5118:5135  _getStorage(SLOT) */\n      jump\t// in\n    tag_377:\n        /* \"contracts/storage/LibSMEambStorage1.sol\":5118:5151  _getStorage(SLOT)._tokenApprovals */\n      0x12\n      add\n        /* \"contracts/storage/LibSMEambStorage1.sol\":5118:5161  _getStorage(SLOT)._tokenApprovals[_tokenId] */\n      0x00\n        /* \"contracts/storage/LibSMEambStorage1.sol\":5152:5160  _tokenId */\n      dup4\n        /* \"contracts/storage/LibSMEambStorage1.sol\":5118:5161  _getStorage(SLOT)._tokenApprovals[_tokenId] */\n      dup2\n      mstore\n      0x20\n      add\n      swap1\n      dup2\n      mstore\n      0x20\n      add\n      0x00\n      keccak256\n        /* \"contracts/storage/LibSMEambStorage1.sol\":5111:5161  return _getStorage(SLOT)._tokenApprovals[_tokenId] */\n      mload(0x40)\n      dup1\n      0x20\n      add\n      0x40\n      mstore\n      swap1\n      dup2\n      0x00\n      dup3\n      add\n      0x00\n      swap1\n      sload\n      swap1\n      0x0100\n      exp\n      swap1\n      div\n      0xffffffffffffffffffffffffffffffffffffffff\n      and\n      0xffffffffffffffffffffffffffffffffffffffff\n      and\n      0xffffffffffffffffffffffffffffffffffffffff\n      and\n      dup2\n      mstore\n      pop\n      pop\n      swap1\n      pop\n        /* \"contracts/storage/LibSMEambStorage1.sol\":5021:5163  function _tokenApprovals(uint256 _tokenId) external view returns(TokenApprovalRef memory){return _getStorage(SLOT)._tokenApprovals[_tokenId];} */\n      swap2\n      swap1\n      pop\n      jump\t// out\n        /* \"contracts/storage/LibSMEambStorage1.sol\":7684:7808  function ownedTokensIndex(uint256 _tokenId, uint256 _index) external{_getStorage(SLOT).ownedTokensIndex[_tokenId] = _index;} */\n    tag_199:\n        /* \"contracts/storage/LibSMEambStorage1.sol\":7800:7806  _index */\n      dup1\n        /* \"contracts/storage/LibSMEambStorage1.sol\":7753:7770  _getStorage(SLOT) */\n      tag_379\n        /* \"contracts/storage/LibSMEambStorage1.sol\":395:410  bytes('SMEamb') */\n      mload(0x40)\n      dup1\n      0x40\n      add\n      0x40\n      mstore\n      dup1\n      0x06\n      dup2\n      mstore\n      0x20\n      add\n      0x534d45616d620000000000000000000000000000000000000000000000000000\n      dup2\n      mstore\n      pop\n        /* \"contracts/storage/LibSMEambStorage1.sol\":385:411  keccak256(bytes('SMEamb')) */\n      dup1\n      mload\n      swap1\n      0x20\n      add\n      keccak256\n        /* \"contracts/storage/LibSMEambStorage1.sol\":7753:7764  _getStorage */\n      tag_250\n        /* \"contracts/storage/LibSMEambStorage1.sol\":7753:7770  _getStorage(SLOT) */\n      jump\t// in\n    tag_379:\n        /* \"contracts/storage/LibSMEambStorage1.sol\":7753:7787  _getStorage(SLOT).ownedTokensIndex */\n      0x04\n      add\n        /* \"contracts/storage/LibSMEambStorage1.sol\":7753:7797  _getStorage(SLOT).ownedTokensIndex[_tokenId] */\n      0x00\n        /* \"contracts/storage/LibSMEambStorage1.sol\":7788:7796  _tokenId */\n      dup5\n        /* \"contracts/storage/LibSMEambStorage1.sol\":7753:7797  _getStorage(SLOT).ownedTokensIndex[_tokenId] */\n      dup2\n      mstore\n      0x20\n      add\n      swap1\n      dup2\n      mstore\n      0x20\n      add\n      0x00\n      keccak256\n        /* \"contracts/storage/LibSMEambStorage1.sol\":7753:7806  _getStorage(SLOT).ownedTokensIndex[_tokenId] = _index */\n      dup2\n      swap1\n      sstore\n      pop\n        /* \"contracts/storage/LibSMEambStorage1.sol\":7684:7808  function ownedTokensIndex(uint256 _tokenId, uint256 _index) external{_getStorage(SLOT).ownedTokensIndex[_tokenId] = _index;} */\n      pop\n      pop\n      jump\t// out\n        /* \"contracts/storage/LibSMEambStorage1.sol\":8230:8347  function guaranteed_minted(address _owner, bool _bool) external{_getStorage(SLOT).guaranteed_minted[_owner] = _bool;} */\n    tag_204:\n        /* \"contracts/storage/LibSMEambStorage1.sol\":8340:8345  _bool */\n      dup1\n        /* \"contracts/storage/LibSMEambStorage1.sol\":8294:8311  _getStorage(SLOT) */\n      tag_381\n        /* \"contracts/storage/LibSMEambStorage1.sol\":395:410  bytes('SMEamb') */\n      mload(0x40)\n      dup1\n      0x40\n      add\n      0x40\n      mstore\n      dup1\n      0x06\n      dup2\n      mstore\n      0x20\n      add\n      0x534d45616d620000000000000000000000000000000000000000000000000000\n      dup2\n      mstore\n      pop\n        /* \"contracts/storage/LibSMEambStorage1.sol\":385:411  keccak256(bytes('SMEamb')) */\n      dup1\n      mload\n      swap1\n      0x20\n      add\n      keccak256\n        /* \"contracts/storage/LibSMEambStorage1.sol\":8294:8305  _getStorage */\n      tag_250\n        /* \"contracts/storage/LibSMEambStorage1.sol\":8294:8311  _getStorage(SLOT) */\n      jump\t// in\n    tag_381:\n        /* \"contracts/storage/LibSMEambStorage1.sol\":8294:8329  _getStorage(SLOT).guaranteed_minted */\n      0x0b\n      add\n        /* \"contracts/storage/LibSMEambStorage1.sol\":8294:8337  _getStorage(SLOT).guaranteed_minted[_owner] */\n      0x00\n        /* \"contracts/storage/LibSMEambStorage1.sol\":8330:8336  _owner */\n      dup5\n        /* \"contracts/storage/LibSMEambStorage1.sol\":8294:8337  _getStorage(SLOT).guaranteed_minted[_owner] */\n      0xffffffffffffffffffffffffffffffffffffffff\n      and\n      0xffffffffffffffffffffffffffffffffffffffff\n      and\n      dup2\n      mstore\n      0x20\n      add\n      swap1\n      dup2\n      mstore\n      0x20\n      add\n      0x00\n      keccak256\n      0x00\n        /* \"contracts/storage/LibSMEambStorage1.sol\":8294:8345  _getStorage(SLOT).guaranteed_minted[_owner] = _bool */\n      0x0100\n      exp\n      dup2\n      sload\n      dup2\n      0xff\n      mul\n      not\n      and\n      swap1\n      dup4\n      iszero\n      iszero\n      mul\n      or\n      swap1\n      sstore\n      pop\n        /* \"contracts/storage/LibSMEambStorage1.sol\":8230:8347  function guaranteed_minted(address _owner, bool _bool) external{_getStorage(SLOT).guaranteed_minted[_owner] = _bool;} */\n      pop\n      pop\n      jump\t// out\n        /* \"contracts/storage/LibSMEambStorage1.sol\":7006:7127  function guaranteed_minted(address owner) external view returns(bool){return _getStorage(SLOT).guaranteed_minted[owner];} */\n    tag_207:\n        /* \"contracts/storage/LibSMEambStorage1.sol\":7070:7074  bool */\n      0x00\n        /* \"contracts/storage/LibSMEambStorage1.sol\":7083:7100  _getStorage(SLOT) */\n      tag_383\n        /* \"contracts/storage/LibSMEambStorage1.sol\":395:410  bytes('SMEamb') */\n      mload(0x40)\n      dup1\n      0x40\n      add\n      0x40\n      mstore\n      dup1\n      0x06\n      dup2\n      mstore\n      0x20\n      add\n      0x534d45616d620000000000000000000000000000000000000000000000000000\n      dup2\n      mstore\n      pop\n        /* \"contracts/storage/LibSMEambStorage1.sol\":385:411  keccak256(bytes('SMEamb')) */\n      dup1\n      mload\n      swap1\n      0x20\n      add\n      keccak256\n        /* \"contracts/storage/LibSMEambStorage1.sol\":7083:7094  _getStorage */\n      tag_250\n        /* \"contracts/storage/LibSMEambStorage1.sol\":7083:7100  _getStorage(SLOT) */\n      jump\t// in\n    tag_383:\n        /* \"contracts/storage/LibSMEambStorage1.sol\":7083:7118  _getStorage(SLOT).guaranteed_minted */\n      0x0b\n      add\n        /* \"contracts/storage/LibSMEambStorage1.sol\":7083:7125  _getStorage(SLOT).guaranteed_minted[owner] */\n      0x00\n        /* \"contracts/storage/LibSMEambStorage1.sol\":7119:7124  owner */\n      dup4\n        /* \"contracts/storage/LibSMEambStorage1.sol\":7083:7125  _getStorage(SLOT).guaranteed_minted[owner] */\n      0xffffffffffffffffffffffffffffffffffffffff\n      and\n      0xffffffffffffffffffffffffffffffffffffffff\n      and\n      dup2\n      mstore\n      0x20\n      add\n      swap1\n      dup2\n      mstore\n      0x20\n      add\n      0x00\n      keccak256\n      0x00\n      swap1\n      sload\n      swap1\n      0x0100\n      exp\n      swap1\n      div\n      0xff\n      and\n        /* \"contracts/storage/LibSMEambStorage1.sol\":7076:7125  return _getStorage(SLOT).guaranteed_minted[owner] */\n      swap1\n      pop\n        /* \"contracts/storage/LibSMEambStorage1.sol\":7006:7127  function guaranteed_minted(address owner) external view returns(bool){return _getStorage(SLOT).guaranteed_minted[owner];} */\n      swap2\n      swap1\n      pop\n      jump\t// out\n        /* \"contracts/storage/LibSMEambStorage1.sol\":4705:4857  function _packedAddressDataIncr(address _owner) external{_getStorage(SLOT)._packedAddressData[_owner] = _getStorage(SLOT)._packedAddressData[_owner]+1;} */\n    tag_213:\n        /* \"contracts/storage/LibSMEambStorage1.sol\":4854:4855  1 */\n      0x01\n        /* \"contracts/storage/LibSMEambStorage1.sol\":4809:4826  _getStorage(SLOT) */\n      tag_385\n        /* \"contracts/storage/LibSMEambStorage1.sol\":395:410  bytes('SMEamb') */\n      mload(0x40)\n      dup1\n      0x40\n      add\n      0x40\n      mstore\n      dup1\n      0x06\n      dup2\n      mstore\n      0x20\n      add\n      0x534d45616d620000000000000000000000000000000000000000000000000000\n      dup2\n      mstore\n      pop\n        /* \"contracts/storage/LibSMEambStorage1.sol\":385:411  keccak256(bytes('SMEamb')) */\n      dup1\n      mload\n      swap1\n      0x20\n      add\n      keccak256\n        /* \"contracts/storage/LibSMEambStorage1.sol\":4809:4820  _getStorage */\n      tag_250\n        /* \"contracts/storage/LibSMEambStorage1.sol\":4809:4826  _getStorage(SLOT) */\n      jump\t// in\n    tag_385:\n        /* \"contracts/storage/LibSMEambStorage1.sol\":4809:4845  _getStorage(SLOT)._packedAddressData */\n      0x11\n      add\n        /* \"contracts/storage/LibSMEambStorage1.sol\":4809:4853  _getStorage(SLOT)._packedAddressData[_owner] */\n      0x00\n        /* \"contracts/storage/LibSMEambStorage1.sol\":4846:4852  _owner */\n      dup4\n        /* \"contracts/storage/LibSMEambStorage1.sol\":4809:4853  _getStorage(SLOT)._packedAddressData[_owner] */\n      0xffffffffffffffffffffffffffffffffffffffff\n      and\n      0xffffffffffffffffffffffffffffffffffffffff\n      and\n      dup2\n      mstore\n      0x20\n      add\n      swap1\n      dup2\n      mstore\n      0x20\n      add\n      0x00\n      keccak256\n      sload\n        /* \"contracts/storage/LibSMEambStorage1.sol\":4809:4855  _getStorage(SLOT)._packedAddressData[_owner]+1 */\n      tag_386\n      swap2\n      swap1\n      tag_340\n      jump\t// in\n    tag_386:\n        /* \"contracts/storage/LibSMEambStorage1.sol\":4762:4779  _getStorage(SLOT) */\n      tag_387\n        /* \"contracts/storage/LibSMEambStorage1.sol\":395:410  bytes('SMEamb') */\n      mload(0x40)\n      dup1\n      0x40\n      add\n      0x40\n      mstore\n      dup1\n      0x06\n      dup2\n      mstore\n      0x20\n      add\n      0x534d45616d620000000000000000000000000000000000000000000000000000\n      dup2\n      mstore\n      pop\n        /* \"contracts/storage/LibSMEambStorage1.sol\":385:411  keccak256(bytes('SMEamb')) */\n      dup1\n      mload\n      swap1\n      0x20\n      add\n      keccak256\n        /* \"contracts/storage/LibSMEambStorage1.sol\":4762:4773  _getStorage */\n      tag_250\n        /* \"contracts/storage/LibSMEambStorage1.sol\":4762:4779  _getStorage(SLOT) */\n      jump\t// in\n    tag_387:\n        /* \"contracts/storage/LibSMEambStorage1.sol\":4762:4798  _getStorage(SLOT)._packedAddressData */\n      0x11\n      add\n        /* \"contracts/storage/LibSMEambStorage1.sol\":4762:4806  _getStorage(SLOT)._packedAddressData[_owner] */\n      0x00\n        /* \"contracts/storage/LibSMEambStorage1.sol\":4799:4805  _owner */\n      dup4\n        /* \"contracts/storage/LibSMEambStorage1.sol\":4762:4806  _getStorage(SLOT)._packedAddressData[_owner] */\n      0xffffffffffffffffffffffffffffffffffffffff\n      and\n      0xffffffffffffffffffffffffffffffffffffffff\n      and\n      dup2\n      mstore\n      0x20\n      add\n      swap1\n      dup2\n      mstore\n      0x20\n      add\n      0x00\n      keccak256\n        /* \"contracts/storage/LibSMEambStorage1.sol\":4762:4855  _getStorage(SLOT)._packedAddressData[_owner] = _getStorage(SLOT)._packedAddressData[_owner]+1 */\n      dup2\n      swap1\n      sstore\n      pop\n        /* \"contracts/storage/LibSMEambStorage1.sol\":4705:4857  function _packedAddressDataIncr(address _owner) external{_getStorage(SLOT)._packedAddressData[_owner] = _getStorage(SLOT)._packedAddressData[_owner]+1;} */\n      pop\n      jump\t// out\n        /* \"contracts/storage/LibSMEambStorage1.sol\":5621:5713  function _spotMinted() external view returns(uint256){return _getStorage(SLOT)._spotMinted;} */\n    tag_215:\n        /* \"contracts/storage/LibSMEambStorage1.sol\":5666:5673  uint256 */\n      0x00\n        /* \"contracts/storage/LibSMEambStorage1.sol\":5682:5699  _getStorage(SLOT) */\n      tag_389\n        /* \"contracts/storage/LibSMEambStorage1.sol\":395:410  bytes('SMEamb') */\n      mload(0x40)\n      dup1\n      0x40\n      add\n      0x40\n      mstore\n      dup1\n      0x06\n      dup2\n      mstore\n      0x20\n      add\n      0x534d45616d620000000000000000000000000000000000000000000000000000\n      dup2\n      mstore\n      pop\n        /* \"contracts/storage/LibSMEambStorage1.sol\":385:411  keccak256(bytes('SMEamb')) */\n      dup1\n      mload\n      swap1\n      0x20\n      add\n      keccak256\n        /* \"contracts/storage/LibSMEambStorage1.sol\":5682:5693  _getStorage */\n      tag_250\n        /* \"contracts/storage/LibSMEambStorage1.sol\":5682:5699  _getStorage(SLOT) */\n      jump\t// in\n    tag_389:\n        /* \"contracts/storage/LibSMEambStorage1.sol\":5682:5711  _getStorage(SLOT)._spotMinted */\n      0x14\n      add\n      sload\n        /* \"contracts/storage/LibSMEambStorage1.sol\":5675:5711  return _getStorage(SLOT)._spotMinted */\n      swap1\n      pop\n        /* \"contracts/storage/LibSMEambStorage1.sol\":5621:5713  function _spotMinted() external view returns(uint256){return _getStorage(SLOT)._spotMinted;} */\n      swap1\n      jump\t// out\n        /* \"contracts/storage/LibSMEambStorage1.sol\":5897:5997  function baseTokenURI() external view returns(string memory){return _getStorage(SLOT).baseTokenURI;} */\n    tag_218:\n        /* \"contracts/storage/LibSMEambStorage1.sol\":5943:5956  string memory */\n      0x60\n        /* \"contracts/storage/LibSMEambStorage1.sol\":5965:5982  _getStorage(SLOT) */\n      tag_391\n        /* \"contracts/storage/LibSMEambStorage1.sol\":395:410  bytes('SMEamb') */\n      mload(0x40)\n      dup1\n      0x40\n      add\n      0x40\n      mstore\n      dup1\n      0x06\n      dup2\n      mstore\n      0x20\n      add\n      0x534d45616d620000000000000000000000000000000000000000000000000000\n      dup2\n      mstore\n      pop\n        /* \"contracts/storage/LibSMEambStorage1.sol\":385:411  keccak256(bytes('SMEamb')) */\n      dup1\n      mload\n      swap1\n      0x20\n      add\n      keccak256\n        /* \"contracts/storage/LibSMEambStorage1.sol\":5965:5976  _getStorage */\n      tag_250\n        /* \"contracts/storage/LibSMEambStorage1.sol\":5965:5982  _getStorage(SLOT) */\n      jump\t// in\n    tag_391:\n        /* \"contracts/storage/LibSMEambStorage1.sol\":5965:5995  _getStorage(SLOT).baseTokenURI */\n      0x00\n      add\n        /* \"contracts/storage/LibSMEambStorage1.sol\":5958:5995  return _getStorage(SLOT).baseTokenURI */\n      dup1\n      sload\n      tag_392\n      swap1\n      tag_252\n      jump\t// in\n    tag_392:\n      dup1\n      0x1f\n      add\n      0x20\n      dup1\n      swap2\n      div\n      mul\n      0x20\n      add\n      mload(0x40)\n      swap1\n      dup2\n      add\n      0x40\n      mstore\n      dup1\n      swap3\n      swap2\n      swap1\n      dup2\n      dup2\n      mstore\n      0x20\n      add\n      dup3\n      dup1\n      sload\n      tag_393\n      swap1\n      tag_252\n      jump\t// in\n    tag_393:\n      dup1\n      iszero\n      tag_394\n      jumpi\n      dup1\n      0x1f\n      lt\n      tag_395\n      jumpi\n      0x0100\n      dup1\n      dup4\n      sload\n      div\n      mul\n      dup4\n      mstore\n      swap2\n      0x20\n      add\n      swap2\n      jump(tag_394)\n    tag_395:\n      dup3\n      add\n      swap2\n      swap1\n      0x00\n      mstore\n      keccak256(0x00, 0x20)\n      swap1\n    tag_396:\n      dup2\n      sload\n      dup2\n      mstore\n      swap1\n      0x01\n      add\n      swap1\n      0x20\n      add\n      dup1\n      dup4\n      gt\n      tag_396\n      jumpi\n      dup3\n      swap1\n      sub\n      0x1f\n      and\n      dup3\n      add\n      swap2\n    tag_394:\n      pop\n      pop\n      pop\n      pop\n      pop\n      swap1\n      pop\n        /* \"contracts/storage/LibSMEambStorage1.sol\":5897:5997  function baseTokenURI() external view returns(string memory){return _getStorage(SLOT).baseTokenURI;} */\n      swap1\n      jump\t// out\n        /* \"contracts/storage/LibSMEambStorage1.sol\":10050:10265  function addTokenToAllTokensEnumeration(uint256 tokenId) external {... */\n    tag_223:\n        /* \"contracts/storage/LibSMEambStorage1.sol\":10171:10188  _getStorage(SLOT) */\n      tag_398\n        /* \"contracts/storage/LibSMEambStorage1.sol\":395:410  bytes('SMEamb') */\n      mload(0x40)\n      dup1\n      0x40\n      add\n      0x40\n      mstore\n      dup1\n      0x06\n      dup2\n      mstore\n      0x20\n      add\n      0x534d45616d620000000000000000000000000000000000000000000000000000\n      dup2\n      mstore\n      pop\n        /* \"contracts/storage/LibSMEambStorage1.sol\":385:411  keccak256(bytes('SMEamb')) */\n      dup1\n      mload\n      swap1\n      0x20\n      add\n      keccak256\n        /* \"contracts/storage/LibSMEambStorage1.sol\":10171:10182  _getStorage */\n      tag_250\n        /* \"contracts/storage/LibSMEambStorage1.sol\":10171:10188  _getStorage(SLOT) */\n      jump\t// in\n    tag_398:\n        /* \"contracts/storage/LibSMEambStorage1.sol\":10171:10198  _getStorage(SLOT).allTokens */\n      0x05\n      add\n        /* \"contracts/storage/LibSMEambStorage1.sol\":10171:10205  _getStorage(SLOT).allTokens.length */\n      dup1\n      sload\n      swap1\n      pop\n        /* \"contracts/storage/LibSMEambStorage1.sol\":10127:10144  _getStorage(SLOT) */\n      tag_399\n        /* \"contracts/storage/LibSMEambStorage1.sol\":395:410  bytes('SMEamb') */\n      mload(0x40)\n      dup1\n      0x40\n      add\n      0x40\n      mstore\n      dup1\n      0x06\n      dup2\n      mstore\n      0x20\n      add\n      0x534d45616d620000000000000000000000000000000000000000000000000000\n      dup2\n      mstore\n      pop\n        /* \"contracts/storage/LibSMEambStorage1.sol\":385:411  keccak256(bytes('SMEamb')) */\n      dup1\n      mload\n      swap1\n      0x20\n      add\n      keccak256\n        /* \"contracts/storage/LibSMEambStorage1.sol\":10127:10138  _getStorage */\n      tag_250\n        /* \"contracts/storage/LibSMEambStorage1.sol\":10127:10144  _getStorage(SLOT) */\n      jump\t// in\n    tag_399:\n        /* \"contracts/storage/LibSMEambStorage1.sol\":10127:10159  _getStorage(SLOT).allTokensIndex */\n      0x06\n      add\n        /* \"contracts/storage/LibSMEambStorage1.sol\":10127:10168  _getStorage(SLOT).allTokensIndex[tokenId] */\n      0x00\n        /* \"contracts/storage/LibSMEambStorage1.sol\":10160:10167  tokenId */\n      dup4\n        /* \"contracts/storage/LibSMEambStorage1.sol\":10127:10168  _getStorage(SLOT).allTokensIndex[tokenId] */\n      dup2\n      mstore\n      0x20\n      add\n      swap1\n      dup2\n      mstore\n      0x20\n      add\n      0x00\n      keccak256\n        /* \"contracts/storage/LibSMEambStorage1.sol\":10127:10205  _getStorage(SLOT).allTokensIndex[tokenId] = _getStorage(SLOT).allTokens.length */\n      dup2\n      swap1\n      sstore\n      pop\n        /* \"contracts/storage/LibSMEambStorage1.sol\":10216:10233  _getStorage(SLOT) */\n      tag_400\n        /* \"contracts/storage/LibSMEambStorage1.sol\":395:410  bytes('SMEamb') */\n      mload(0x40)\n      dup1\n      0x40\n      add\n      0x40\n      mstore\n      dup1\n      0x06\n      dup2\n      mstore\n      0x20\n      add\n      0x534d45616d620000000000000000000000000000000000000000000000000000\n      dup2\n      mstore\n      pop\n        /* \"contracts/storage/LibSMEambStorage1.sol\":385:411  keccak256(bytes('SMEamb')) */\n      dup1\n      mload\n      swap1\n      0x20\n      add\n      keccak256\n        /* \"contracts/storage/LibSMEambStorage1.sol\":10216:10227  _getStorage */\n      tag_250\n        /* \"contracts/storage/LibSMEambStorage1.sol\":10216:10233  _getStorage(SLOT) */\n      jump\t// in\n    tag_400:\n        /* \"contracts/storage/LibSMEambStorage1.sol\":10216:10243  _getStorage(SLOT).allTokens */\n      0x05\n      add\n        /* \"contracts/storage/LibSMEambStorage1.sol\":10249:10256  tokenId */\n      dup2\n        /* \"contracts/storage/LibSMEambStorage1.sol\":10216:10257  _getStorage(SLOT).allTokens.push(tokenId) */\n      swap1\n      dup1\n      0x01\n      dup2\n      sload\n      add\n      dup1\n      dup3\n      sstore\n      dup1\n      swap2\n      pop\n      pop\n      0x01\n      swap1\n      sub\n      swap1\n      0x00\n      mstore\n      keccak256(0x00, 0x20)\n      add\n      0x00\n      swap1\n      swap2\n      swap1\n      swap2\n      swap1\n      swap2\n      pop\n      sstore\n        /* \"contracts/storage/LibSMEambStorage1.sol\":10050:10265  function addTokenToAllTokensEnumeration(uint256 tokenId) external {... */\n      pop\n      jump\t// out\n        /* \"contracts/storage/LibSMEambStorage1.sol\":6924:7000  function fee() external view returns(uint256){return _getStorage(SLOT).fee;} */\n    tag_225:\n        /* \"contracts/storage/LibSMEambStorage1.sol\":6961:6968  uint256 */\n      0x00\n        /* \"contracts/storage/LibSMEambStorage1.sol\":6977:6994  _getStorage(SLOT) */\n      tag_403\n        /* \"contracts/storage/LibSMEambStorage1.sol\":395:410  bytes('SMEamb') */\n      mload(0x40)\n      dup1\n      0x40\n      add\n      0x40\n      mstore\n      dup1\n      0x06\n      dup2\n      mstore\n      0x20\n      add\n      0x534d45616d620000000000000000000000000000000000000000000000000000\n      dup2\n      mstore\n      pop\n        /* \"contracts/storage/LibSMEambStorage1.sol\":385:411  keccak256(bytes('SMEamb')) */\n      dup1\n      mload\n      swap1\n      0x20\n      add\n      keccak256\n        /* \"contracts/storage/LibSMEambStorage1.sol\":6977:6988  _getStorage */\n      tag_250\n        /* \"contracts/storage/LibSMEambStorage1.sol\":6977:6994  _getStorage(SLOT) */\n      jump\t// in\n    tag_403:\n        /* \"contracts/storage/LibSMEambStorage1.sol\":6977:6998  _getStorage(SLOT).fee */\n      0x0a\n      add\n      sload\n        /* \"contracts/storage/LibSMEambStorage1.sol\":6970:6998  return _getStorage(SLOT).fee */\n      swap1\n      pop\n        /* \"contracts/storage/LibSMEambStorage1.sol\":6924:7000  function fee() external view returns(uint256){return _getStorage(SLOT).fee;} */\n      swap1\n      jump\t// out\n        /* \"contracts/storage/LibSMEambStorage1.sol\":7410:7534  function tokenURIs(string memory _tokenURIs, uint256 _tokenId) external{_getStorage(SLOT).tokenURIs[_tokenId] = _tokenURIs;} */\n    tag_231:\n        /* \"contracts/storage/LibSMEambStorage1.sol\":7522:7532  _tokenURIs */\n      dup2\n        /* \"contracts/storage/LibSMEambStorage1.sol\":7482:7499  _getStorage(SLOT) */\n      tag_405\n        /* \"contracts/storage/LibSMEambStorage1.sol\":395:410  bytes('SMEamb') */\n      mload(0x40)\n      dup1\n      0x40\n      add\n      0x40\n      mstore\n      dup1\n      0x06\n      dup2\n      mstore\n      0x20\n      add\n      0x534d45616d620000000000000000000000000000000000000000000000000000\n      dup2\n      mstore\n      pop\n        /* \"contracts/storage/LibSMEambStorage1.sol\":385:411  keccak256(bytes('SMEamb')) */\n      dup1\n      mload\n      swap1\n      0x20\n      add\n      keccak256\n        /* \"contracts/storage/LibSMEambStorage1.sol\":7482:7493  _getStorage */\n      tag_250\n        /* \"contracts/storage/LibSMEambStorage1.sol\":7482:7499  _getStorage(SLOT) */\n      jump\t// in\n    tag_405:\n        /* \"contracts/storage/LibSMEambStorage1.sol\":7482:7509  _getStorage(SLOT).tokenURIs */\n      0x02\n      add\n        /* \"contracts/storage/LibSMEambStorage1.sol\":7482:7519  _getStorage(SLOT).tokenURIs[_tokenId] */\n      0x00\n        /* \"contracts/storage/LibSMEambStorage1.sol\":7510:7518  _tokenId */\n      dup4\n        /* \"contracts/storage/LibSMEambStorage1.sol\":7482:7519  _getStorage(SLOT).tokenURIs[_tokenId] */\n      dup2\n      mstore\n      0x20\n      add\n      swap1\n      dup2\n      mstore\n      0x20\n      add\n      0x00\n      keccak256\n        /* \"contracts/storage/LibSMEambStorage1.sol\":7482:7532  _getStorage(SLOT).tokenURIs[_tokenId] = _tokenURIs */\n      swap1\n      dup2\n      tag_406\n      swap2\n      swap1\n      tag_311\n      jump\t// in\n    tag_406:\n      pop\n        /* \"contracts/storage/LibSMEambStorage1.sol\":7410:7534  function tokenURIs(string memory _tokenURIs, uint256 _tokenId) external{_getStorage(SLOT).tokenURIs[_tokenId] = _tokenURIs;} */\n      pop\n      pop\n      jump\t// out\n        /* \"contracts/storage/LibSMEambStorage1.sol\":6239:6373  function ownedTokens(address owner, uint256 index) external view returns(uint256){return _getStorage(SLOT).ownedTokens[owner][index];} */\n    tag_234:\n        /* \"contracts/storage/LibSMEambStorage1.sol\":6312:6319  uint256 */\n      0x00\n        /* \"contracts/storage/LibSMEambStorage1.sol\":6328:6345  _getStorage(SLOT) */\n      tag_408\n        /* \"contracts/storage/LibSMEambStorage1.sol\":395:410  bytes('SMEamb') */\n      mload(0x40)\n      dup1\n      0x40\n      add\n      0x40\n      mstore\n      dup1\n      0x06\n      dup2\n      mstore\n      0x20\n      add\n      0x534d45616d620000000000000000000000000000000000000000000000000000\n      dup2\n      mstore\n      pop\n        /* \"contracts/storage/LibSMEambStorage1.sol\":385:411  keccak256(bytes('SMEamb')) */\n      dup1\n      mload\n      swap1\n      0x20\n      add\n      keccak256\n        /* \"contracts/storage/LibSMEambStorage1.sol\":6328:6339  _getStorage */\n      tag_250\n        /* \"contracts/storage/LibSMEambStorage1.sol\":6328:6345  _getStorage(SLOT) */\n      jump\t// in\n    tag_408:\n        /* \"contracts/storage/LibSMEambStorage1.sol\":6328:6357  _getStorage(SLOT).ownedTokens */\n      0x03\n      add\n        /* \"contracts/storage/LibSMEambStorage1.sol\":6328:6364  _getStorage(SLOT).ownedTokens[owner] */\n      0x00\n        /* \"contracts/storage/LibSMEambStorage1.sol\":6358:6363  owner */\n      dup5\n        /* \"contracts/storage/LibSMEambStorage1.sol\":6328:6364  _getStorage(SLOT).ownedTokens[owner] */\n      0xffffffffffffffffffffffffffffffffffffffff\n      and\n      0xffffffffffffffffffffffffffffffffffffffff\n      and\n      dup2\n      mstore\n      0x20\n      add\n      swap1\n      dup2\n      mstore\n      0x20\n      add\n      0x00\n      keccak256\n        /* \"contracts/storage/LibSMEambStorage1.sol\":6328:6371  _getStorage(SLOT).ownedTokens[owner][index] */\n      0x00\n        /* \"contracts/storage/LibSMEambStorage1.sol\":6365:6370  index */\n      dup4\n        /* \"contracts/storage/LibSMEambStorage1.sol\":6328:6371  _getStorage(SLOT).ownedTokens[owner][index] */\n      dup2\n      mstore\n      0x20\n      add\n      swap1\n      dup2\n      mstore\n      0x20\n      add\n      0x00\n      keccak256\n      sload\n        /* \"contracts/storage/LibSMEambStorage1.sol\":6321:6371  return _getStorage(SLOT).ownedTokens[owner][index] */\n      swap1\n      pop\n        /* \"contracts/storage/LibSMEambStorage1.sol\":6239:6373  function ownedTokens(address owner, uint256 index) external view returns(uint256){return _getStorage(SLOT).ownedTokens[owner][index];} */\n      swap3\n      swap2\n      pop\n      pop\n      jump\t// out\n        /* \"contracts/storage/LibSMEambStorage1.sol\":4305:4431  function _packedOwnerships(uint256 _tokenId, uint256 _index) external{_getStorage(SLOT)._packedOwnerships[_tokenId] = _index;} */\n    tag_239:\n        /* \"contracts/storage/LibSMEambStorage1.sol\":4423:4429  _index */\n      dup1\n        /* \"contracts/storage/LibSMEambStorage1.sol\":4375:4392  _getStorage(SLOT) */\n      tag_410\n        /* \"contracts/storage/LibSMEambStorage1.sol\":395:410  bytes('SMEamb') */\n      mload(0x40)\n      dup1\n      0x40\n      add\n      0x40\n      mstore\n      dup1\n      0x06\n      dup2\n      mstore\n      0x20\n      add\n      0x534d45616d620000000000000000000000000000000000000000000000000000\n      dup2\n      mstore\n      pop\n        /* \"contracts/storage/LibSMEambStorage1.sol\":385:411  keccak256(bytes('SMEamb')) */\n      dup1\n      mload\n      swap1\n      0x20\n      add\n      keccak256\n        /* \"contracts/storage/LibSMEambStorage1.sol\":4375:4386  _getStorage */\n      tag_250\n        /* \"contracts/storage/LibSMEambStorage1.sol\":4375:4392  _getStorage(SLOT) */\n      jump\t// in\n    tag_410:\n        /* \"contracts/storage/LibSMEambStorage1.sol\":4375:4410  _getStorage(SLOT)._packedOwnerships */\n      0x10\n      add\n        /* \"contracts/storage/LibSMEambStorage1.sol\":4375:4420  _getStorage(SLOT)._packedOwnerships[_tokenId] */\n      0x00\n        /* \"contracts/storage/LibSMEambStorage1.sol\":4411:4419  _tokenId */\n      dup5\n        /* \"contracts/storage/LibSMEambStorage1.sol\":4375:4420  _getStorage(SLOT)._packedOwnerships[_tokenId] */\n      dup2\n      mstore\n      0x20\n      add\n      swap1\n      dup2\n      mstore\n      0x20\n      add\n      0x00\n      keccak256\n        /* \"contracts/storage/LibSMEambStorage1.sol\":4375:4429  _getStorage(SLOT)._packedOwnerships[_tokenId] = _index */\n      dup2\n      swap1\n      sstore\n      pop\n        /* \"contracts/storage/LibSMEambStorage1.sol\":4305:4431  function _packedOwnerships(uint256 _tokenId, uint256 _index) external{_getStorage(SLOT)._packedOwnerships[_tokenId] = _index;} */\n      pop\n      pop\n      jump\t// out\n        /* \"contracts/storage/LibSMEambStorage1.sol\":5307:5458  function _operatorApprovals(address owner, address operator) external view returns(bool){return _getStorage(SLOT)._operatorApprovals[owner][operator];} */\n    tag_243:\n        /* \"contracts/storage/LibSMEambStorage1.sol\":5390:5394  bool */\n      0x00\n        /* \"contracts/storage/LibSMEambStorage1.sol\":5403:5420  _getStorage(SLOT) */\n      tag_412\n        /* \"contracts/storage/LibSMEambStorage1.sol\":395:410  bytes('SMEamb') */\n      mload(0x40)\n      dup1\n      0x40\n      add\n      0x40\n      mstore\n      dup1\n      0x06\n      dup2\n      mstore\n      0x20\n      add\n      0x534d45616d620000000000000000000000000000000000000000000000000000\n      dup2\n      mstore\n      pop\n        /* \"contracts/storage/LibSMEambStorage1.sol\":385:411  keccak256(bytes('SMEamb')) */\n      dup1\n      mload\n      swap1\n      0x20\n      add\n      keccak256\n        /* \"contracts/storage/LibSMEambStorage1.sol\":5403:5414  _getStorage */\n      tag_250\n        /* \"contracts/storage/LibSMEambStorage1.sol\":5403:5420  _getStorage(SLOT) */\n      jump\t// in\n    tag_412:\n        /* \"contracts/storage/LibSMEambStorage1.sol\":5403:5439  _getStorage(SLOT)._operatorApprovals */\n      0x13\n      add\n        /* \"contracts/storage/LibSMEambStorage1.sol\":5403:5446  _getStorage(SLOT)._operatorApprovals[owner] */\n      0x00\n        /* \"contracts/storage/LibSMEambStorage1.sol\":5440:5445  owner */\n      dup5\n        /* \"contracts/storage/LibSMEambStorage1.sol\":5403:5446  _getStorage(SLOT)._operatorApprovals[owner] */\n      0xffffffffffffffffffffffffffffffffffffffff\n      and\n      0xffffffffffffffffffffffffffffffffffffffff\n      and\n      dup2\n      mstore\n      0x20\n      add\n      swap1\n      dup2\n      mstore\n      0x20\n      add\n      0x00\n      keccak256\n        /* \"contracts/storage/LibSMEambStorage1.sol\":5403:5456  _getStorage(SLOT)._operatorApprovals[owner][operator] */\n      0x00\n        /* \"contracts/storage/LibSMEambStorage1.sol\":5447:5455  operator */\n      dup4\n        /* \"contracts/storage/LibSMEambStorage1.sol\":5403:5456  _getStorage(SLOT)._operatorApprovals[owner][operator] */\n      0xffffffffffffffffffffffffffffffffffffffff\n      and\n      0xffffffffffffffffffffffffffffffffffffffff\n      and\n      dup2\n      mstore\n      0x20\n      add\n      swap1\n      dup2\n      mstore\n      0x20\n      add\n      0x00\n      keccak256\n      0x00\n      swap1\n      sload\n      swap1\n      0x0100\n      exp\n      swap1\n      div\n      0xff\n      and\n        /* \"contracts/storage/LibSMEambStorage1.sol\":5396:5456  return _getStorage(SLOT)._operatorApprovals[owner][operator] */\n      swap1\n      pop\n        /* \"contracts/storage/LibSMEambStorage1.sol\":5307:5458  function _operatorApprovals(address owner, address operator) external view returns(bool){return _getStorage(SLOT)._operatorApprovals[owner][operator];} */\n      swap3\n      swap2\n      pop\n      pop\n      jump\t// out\n        /* \"contracts/storage/LibSMEambStorage1.sol\":6720:6818  function legendlistRoot() external view returns(bytes32){return _getStorage(SLOT).legendlistRoot;} */\n    tag_246:\n        /* \"contracts/storage/LibSMEambStorage1.sol\":6768:6775  bytes32 */\n      0x00\n        /* \"contracts/storage/LibSMEambStorage1.sol\":6784:6801  _getStorage(SLOT) */\n      tag_414\n        /* \"contracts/storage/LibSMEambStorage1.sol\":395:410  bytes('SMEamb') */\n      mload(0x40)\n      dup1\n      0x40\n      add\n      0x40\n      mstore\n      dup1\n      0x06\n      dup2\n      mstore\n      0x20\n      add\n      0x534d45616d620000000000000000000000000000000000000000000000000000\n      dup2\n      mstore\n      pop\n        /* \"contracts/storage/LibSMEambStorage1.sol\":385:411  keccak256(bytes('SMEamb')) */\n      dup1\n      mload\n      swap1\n      0x20\n      add\n      keccak256\n        /* \"contracts/storage/LibSMEambStorage1.sol\":6784:6795  _getStorage */\n      tag_250\n        /* \"contracts/storage/LibSMEambStorage1.sol\":6784:6801  _getStorage(SLOT) */\n      jump\t// in\n    tag_414:\n        /* \"contracts/storage/LibSMEambStorage1.sol\":6784:6816  _getStorage(SLOT).legendlistRoot */\n      0x08\n      add\n      sload\n        /* \"contracts/storage/LibSMEambStorage1.sol\":6777:6816  return _getStorage(SLOT).legendlistRoot */\n      swap1\n      pop\n        /* \"contracts/storage/LibSMEambStorage1.sol\":6720:6818  function legendlistRoot() external view returns(bytes32){return _getStorage(SLOT).legendlistRoot;} */\n      swap1\n      jump\t// out\n        /* \"contracts/storage/LibSMEambStorage1.sol\":12537:12692  function _getStorage(bytes32 _storage) private pure returns (smeAmbStorage storage s){... */\n    tag_250:\n        /* \"contracts/storage/LibSMEambStorage1.sol\":12598:12621  smeAmbStorage storage s */\n      0x00\n        /* \"contracts/storage/LibSMEambStorage1.sol\":12666:12674  _storage */\n      dup2\n        /* \"contracts/storage/LibSMEambStorage1.sol\":12656:12674  s.slot := _storage */\n      swap1\n      pop\n        /* \"contracts/storage/LibSMEambStorage1.sol\":12537:12692  function _getStorage(bytes32 _storage) private pure returns (smeAmbStorage storage s){... */\n      swap2\n      swap1\n      pop\n      jump\t// out\n    tag_375:\n      mload(0x40)\n      dup1\n      0x20\n      add\n      0x40\n      mstore\n      dup1\n      and(0xffffffffffffffffffffffffffffffffffffffff, 0x00)\n      dup2\n      mstore\n      pop\n      swap1\n      jump\t// out\n        /* \"#utility.yul\":7:106   */\n    tag_416:\n        /* \"#utility.yul\":59:65   */\n      0x00\n        /* \"#utility.yul\":93:98   */\n      dup2\n        /* \"#utility.yul\":87:99   */\n      mload\n        /* \"#utility.yul\":77:99   */\n      swap1\n      pop\n        /* \"#utility.yul\":7:106   */\n      swap2\n      swap1\n      pop\n      jump\t// out\n        /* \"#utility.yul\":112:289   */\n    tag_417:\n        /* \"#utility.yul\":204:215   */\n      0x00\n        /* \"#utility.yul\":238:244   */\n      dup3\n        /* \"#utility.yul\":233:236   */\n      dup3\n        /* \"#utility.yul\":226:245   */\n      mstore\n        /* \"#utility.yul\":278:282   */\n      0x20\n        /* \"#utility.yul\":273:276   */\n      dup3\n        /* \"#utility.yul\":269:283   */\n      add\n        /* \"#utility.yul\":254:283   */\n      swap1\n      pop\n        /* \"#utility.yul\":112:289   */\n      swap3\n      swap2\n      pop\n      pop\n      jump\t// out\n        /* \"#utility.yul\":295:434   */\n    tag_418:\n        /* \"#utility.yul\":384:390   */\n      dup3\n        /* \"#utility.yul\":379:382   */\n      dup2\n        /* \"#utility.yul\":374:377   */\n      dup4\n        /* \"#utility.yul\":368:391   */\n      mcopy\n        /* \"#utility.yul\":425:426   */\n      0x00\n        /* \"#utility.yul\":416:422   */\n      dup4\n        /* \"#utility.yul\":411:414   */\n      dup4\n        /* \"#utility.yul\":407:423   */\n      add\n        /* \"#utility.yul\":400:427   */\n      mstore\n        /* \"#utility.yul\":295:434   */\n      pop\n      pop\n      pop\n      jump\t// out\n        /* \"#utility.yul\":440:542   */\n    tag_419:\n        /* \"#utility.yul\":481:487   */\n      0x00\n        /* \"#utility.yul\":532:534   */\n      0x1f\n        /* \"#utility.yul\":528:535   */\n      not\n        /* \"#utility.yul\":523:525   */\n      0x1f\n        /* \"#utility.yul\":516:521   */\n      dup4\n        /* \"#utility.yul\":512:526   */\n      add\n        /* \"#utility.yul\":508:536   */\n      and\n        /* \"#utility.yul\":498:536   */\n      swap1\n      pop\n        /* \"#utility.yul\":440:542   */\n      swap2\n      swap1\n      pop\n      jump\t// out\n        /* \"#utility.yul\":548:941   */\n    tag_420:\n        /* \"#utility.yul\":644:647   */\n      0x00\n        /* \"#utility.yul\":672:711   */\n      tag_481\n        /* \"#utility.yul\":705:710   */\n      dup3\n        /* \"#utility.yul\":672:711   */\n      tag_416\n      jump\t// in\n    tag_481:\n        /* \"#utility.yul\":727:806   */\n      tag_482\n        /* \"#utility.yul\":799:805   */\n      dup2\n        /* \"#utility.yul\":794:797   */\n      dup6\n        /* \"#utility.yul\":727:806   */\n      tag_417\n      jump\t// in\n    tag_482:\n        /* \"#utility.yul\":720:806   */\n      swap4\n      pop\n        /* \"#utility.yul\":815:880   */\n      tag_483\n        /* \"#utility.yul\":873:879   */\n      dup2\n        /* \"#utility.yul\":868:871   */\n      dup6\n        /* \"#utility.yul\":861:865   */\n      0x20\n        /* \"#utility.yul\":854:859   */\n      dup7\n        /* \"#utility.yul\":850:866   */\n      add\n        /* \"#utility.yul\":815:880   */\n      tag_418\n      jump\t// in\n    tag_483:\n        /* \"#utility.yul\":905:934   */\n      tag_484\n        /* \"#utility.yul\":927:933   */\n      dup2\n        /* \"#utility.yul\":905:934   */\n      tag_419\n      jump\t// in\n    tag_484:\n        /* \"#utility.yul\":900:903   */\n      dup5\n        /* \"#utility.yul\":896:935   */\n      add\n        /* \"#utility.yul\":889:935   */\n      swap2\n      pop\n        /* \"#utility.yul\":648:941   */\n      pop\n        /* \"#utility.yul\":548:941   */\n      swap3\n      swap2\n      pop\n      pop\n      jump\t// out\n        /* \"#utility.yul\":947:1276   */\n    tag_59:\n        /* \"#utility.yul\":1068:1072   */\n      0x00\n        /* \"#utility.yul\":1106:1108   */\n      0x20\n        /* \"#utility.yul\":1095:1104   */\n      dup3\n        /* \"#utility.yul\":1091:1109   */\n      add\n        /* \"#utility.yul\":1083:1109   */\n      swap1\n      pop\n        /* \"#utility.yul\":1155:1164   */\n      dup2\n        /* \"#utility.yul\":1149:1153   */\n      dup2\n        /* \"#utility.yul\":1145:1165   */\n      sub\n        /* \"#utility.yul\":1141:1142   */\n      0x00\n        /* \"#utility.yul\":1130:1139   */\n      dup4\n        /* \"#utility.yul\":1126:1143   */\n      add\n        /* \"#utility.yul\":1119:1166   */\n      mstore\n        /* \"#utility.yul\":1183:1269   */\n      tag_486\n        /* \"#utility.yul\":1264:1268   */\n      dup2\n        /* \"#utility.yul\":1255:1261   */\n      dup5\n        /* \"#utility.yul\":1183:1269   */\n      tag_420\n      jump\t// in\n    tag_486:\n        /* \"#utility.yul\":1175:1269   */\n      swap1\n      pop\n        /* \"#utility.yul\":947:1276   */\n      swap3\n      swap2\n      pop\n      pop\n      jump\t// out\n        /* \"#utility.yul\":1282:1357   */\n    tag_421:\n        /* \"#utility.yul\":1315:1321   */\n      0x00\n        /* \"#utility.yul\":1348:1350   */\n      0x40\n        /* \"#utility.yul\":1342:1351   */\n      mload\n        /* \"#utility.yul\":1332:1351   */\n      swap1\n      pop\n        /* \"#utility.yul\":1282:1357   */\n      swap1\n      jump\t// out\n        /* \"#utility.yul\":1363:1480   */\n    tag_422:\n        /* \"#utility.yul\":1472:1473   */\n      0x00\n        /* \"#utility.yul\":1469:1470   */\n      0x00\n        /* \"#utility.yul\":1462:1474   */\n      revert\n        /* \"#utility.yul\":1486:1603   */\n    tag_423:\n        /* \"#utility.yul\":1595:1596   */\n      0x00\n        /* \"#utility.yul\":1592:1593   */\n      0x00\n        /* \"#utility.yul\":1585:1597   */\n      revert\n        /* \"#utility.yul\":1609:1735   */\n    tag_424:\n        /* \"#utility.yul\":1646:1653   */\n      0x00\n        /* \"#utility.yul\":1686:1728   */\n      0xffffffffffffffffffffffffffffffffffffffff\n        /* \"#utility.yul\":1679:1684   */\n      dup3\n        /* \"#utility.yul\":1675:1729   */\n      and\n        /* \"#utility.yul\":1664:1729   */\n      swap1\n      pop\n        /* \"#utility.yul\":1609:1735   */\n      swap2\n      swap1\n      pop\n      jump\t// out\n        /* \"#utility.yul\":1741:1837   */\n    tag_425:\n        /* \"#utility.yul\":1778:1785   */\n      0x00\n        /* \"#utility.yul\":1807:1831   */\n      tag_492\n        /* \"#utility.yul\":1825:1830   */\n      dup3\n        /* \"#utility.yul\":1807:1831   */\n      tag_424\n      jump\t// in\n    tag_492:\n        /* \"#utility.yul\":1796:1831   */\n      swap1\n      pop\n        /* \"#utility.yul\":1741:1837   */\n      swap2\n      swap1\n      pop\n      jump\t// out\n        /* \"#utility.yul\":1843:1965   */\n    tag_426:\n        /* \"#utility.yul\":1916:1940   */\n      tag_494\n        /* \"#utility.yul\":1934:1939   */\n      dup2\n        /* \"#utility.yul\":1916:1940   */\n      tag_425\n      jump\t// in\n    tag_494:\n        /* \"#utility.yul\":1909:1914   */\n      dup2\n        /* \"#utility.yul\":1906:1941   */\n      eq\n        /* \"#utility.yul\":1896:1959   */\n      tag_495\n      jumpi\n        /* \"#utility.yul\":1955:1956   */\n      0x00\n        /* \"#utility.yul\":1952:1953   */\n      0x00\n        /* \"#utility.yul\":1945:1957   */\n      revert\n        /* \"#utility.yul\":1896:1959   */\n    tag_495:\n        /* \"#utility.yul\":1843:1965   */\n      pop\n      jump\t// out\n        /* \"#utility.yul\":1971:2110   */\n    tag_427:\n        /* \"#utility.yul\":2017:2022   */\n      0x00\n        /* \"#utility.yul\":2055:2061   */\n      dup2\n        /* \"#utility.yul\":2042:2062   */\n      calldataload\n        /* \"#utility.yul\":2033:2062   */\n      swap1\n      pop\n        /* \"#utility.yul\":2071:2104   */\n      tag_497\n        /* \"#utility.yul\":2098:2103   */\n      dup2\n        /* \"#utility.yul\":2071:2104   */\n      tag_426\n      jump\t// in\n    tag_497:\n        /* \"#utility.yul\":1971:2110   */\n      swap3\n      swap2\n      pop\n      pop\n      jump\t// out\n        /* \"#utility.yul\":2116:2193   */\n    tag_428:\n        /* \"#utility.yul\":2153:2160   */\n      0x00\n        /* \"#utility.yul\":2182:2187   */\n      dup2\n        /* \"#utility.yul\":2171:2187   */\n      swap1\n      pop\n        /* \"#utility.yul\":2116:2193   */\n      swap2\n      swap1\n      pop\n      jump\t// out\n        /* \"#utility.yul\":2199:2321   */\n    tag_429:\n        /* \"#utility.yul\":2272:2296   */\n      tag_500\n        /* \"#utility.yul\":2290:2295   */\n      dup2\n        /* \"#utility.yul\":2272:2296   */\n      tag_428\n      jump\t// in\n    tag_500:\n        /* \"#utility.yul\":2265:2270   */\n      dup2\n        /* \"#utility.yul\":2262:2297   */\n      eq\n        /* \"#utility.yul\":2252:2315   */\n      tag_501\n      jumpi\n        /* \"#utility.yul\":2311:2312   */\n      0x00\n        /* \"#utility.yul\":2308:2309   */\n      0x00\n        /* \"#utility.yul\":2301:2313   */\n      revert\n        /* \"#utility.yul\":2252:2315   */\n    tag_501:\n        /* \"#utility.yul\":2199:2321   */\n      pop\n      jump\t// out\n        /* \"#utility.yul\":2327:2466   */\n    tag_430:\n        /* \"#utility.yul\":2373:2378   */\n      0x00\n        /* \"#utility.yul\":2411:2417   */\n      dup2\n        /* \"#utility.yul\":2398:2418   */\n      calldataload\n        /* \"#utility.yul\":2389:2418   */\n      swap1\n      pop\n        /* \"#utility.yul\":2427:2460   */\n      tag_503\n        /* \"#utility.yul\":2454:2459   */\n      dup2\n        /* \"#utility.yul\":2427:2460   */\n      tag_429\n      jump\t// in\n    tag_503:\n        /* \"#utility.yul\":2327:2466   */\n      swap3\n      swap2\n      pop\n      pop\n      jump\t// out\n        /* \"#utility.yul\":2472:3091   */\n    tag_63:\n        /* \"#utility.yul\":2549:2555   */\n      0x00\n        /* \"#utility.yul\":2557:2563   */\n      0x00\n        /* \"#utility.yul\":2565:2571   */\n      0x00\n        /* \"#utility.yul\":2614:2616   */\n      0x60\n        /* \"#utility.yul\":2602:2611   */\n      dup5\n        /* \"#utility.yul\":2593:2600   */\n      dup7\n        /* \"#utility.yul\":2589:2612   */\n      sub\n        /* \"#utility.yul\":2585:2617   */\n      slt\n        /* \"#utility.yul\":2582:2701   */\n      iszero\n      tag_505\n      jumpi\n        /* \"#utility.yul\":2620:2699   */\n      tag_506\n      tag_422\n      jump\t// in\n    tag_506:\n        /* \"#utility.yul\":2582:2701   */\n    tag_505:\n        /* \"#utility.yul\":2740:2741   */\n      0x00\n        /* \"#utility.yul\":2765:2818   */\n      tag_507\n        /* \"#utility.yul\":2810:2817   */\n      dup7\n        /* \"#utility.yul\":2801:2807   */\n      dup3\n        /* \"#utility.yul\":2790:2799   */\n      dup8\n        /* \"#utility.yul\":2786:2808   */\n      add\n        /* \"#utility.yul\":2765:2818   */\n      tag_427\n      jump\t// in\n    tag_507:\n        /* \"#utility.yul\":2755:2818   */\n      swap4\n      pop\n        /* \"#utility.yul\":2711:2828   */\n      pop\n        /* \"#utility.yul\":2867:2869   */\n      0x20\n        /* \"#utility.yul\":2893:2946   */\n      tag_508\n        /* \"#utility.yul\":2938:2945   */\n      dup7\n        /* \"#utility.yul\":2929:2935   */\n      dup3\n        /* \"#utility.yul\":2918:2927   */\n      dup8\n        /* \"#utility.yul\":2914:2936   */\n      add\n        /* \"#utility.yul\":2893:2946   */\n      tag_430\n      jump\t// in\n    tag_508:\n        /* \"#utility.yul\":2883:2946   */\n      swap3\n      pop\n        /* \"#utility.yul\":2838:2956   */\n      pop\n        /* \"#utility.yul\":2995:2997   */\n      0x40\n        /* \"#utility.yul\":3021:3074   */\n      tag_509\n        /* \"#utility.yul\":3066:3073   */\n      dup7\n        /* \"#utility.yul\":3057:3063   */\n      dup3\n        /* \"#utility.yul\":3046:3055   */\n      dup8\n        /* \"#utility.yul\":3042:3064   */\n      add\n        /* \"#utility.yul\":3021:3074   */\n      tag_430\n      jump\t// in\n    tag_509:\n        /* \"#utility.yul\":3011:3074   */\n      swap2\n      pop\n        /* \"#utility.yul\":2966:3084   */\n      pop\n        /* \"#utility.yul\":2472:3091   */\n      swap3\n      pop\n      swap3\n      pop\n      swap3\n      jump\t// out\n        /* \"#utility.yul\":3097:3571   */\n    tag_68:\n        /* \"#utility.yul\":3165:3171   */\n      0x00\n        /* \"#utility.yul\":3173:3179   */\n      0x00\n        /* \"#utility.yul\":3222:3224   */\n      0x40\n        /* \"#utility.yul\":3210:3219   */\n      dup4\n        /* \"#utility.yul\":3201:3208   */\n      dup6\n        /* \"#utility.yul\":3197:3220   */\n      sub\n        /* \"#utility.yul\":3193:3225   */\n      slt\n        /* \"#utility.yul\":3190:3309   */\n      iszero\n      tag_511\n      jumpi\n        /* \"#utility.yul\":3228:3307   */\n      tag_512\n      tag_422\n      jump\t// in\n    tag_512:\n        /* \"#utility.yul\":3190:3309   */\n    tag_511:\n        /* \"#utility.yul\":3348:3349   */\n      0x00\n        /* \"#utility.yul\":3373:3426   */\n      tag_513\n        /* \"#utility.yul\":3418:3425   */\n      dup6\n        /* \"#utility.yul\":3409:3415   */\n      dup3\n        /* \"#utility.yul\":3398:3407   */\n      dup7\n        /* \"#utility.yul\":3394:3416   */\n      add\n        /* \"#utility.yul\":3373:3426   */\n      tag_430\n      jump\t// in\n    tag_513:\n        /* \"#utility.yul\":3363:3426   */\n      swap3\n      pop\n        /* \"#utility.yul\":3319:3436   */\n      pop\n        /* \"#utility.yul\":3475:3477   */\n      0x20\n        /* \"#utility.yul\":3501:3554   */\n      tag_514\n        /* \"#utility.yul\":3546:3553   */\n      dup6\n        /* \"#utility.yul\":3537:3543   */\n      dup3\n        /* \"#utility.yul\":3526:3535   */\n      dup7\n        /* \"#utility.yul\":3522:3544   */\n      add\n        /* \"#utility.yul\":3501:3554   */\n      tag_427\n      jump\t// in\n    tag_514:\n        /* \"#utility.yul\":3491:3554   */\n      swap2\n      pop\n        /* \"#utility.yul\":3446:3564   */\n      pop\n        /* \"#utility.yul\":3097:3571   */\n      swap3\n      pop\n      swap3\n      swap1\n      pop\n      jump\t// out\n        /* \"#utility.yul\":3577:3654   */\n    tag_431:\n        /* \"#utility.yul\":3614:3621   */\n      0x00\n        /* \"#utility.yul\":3643:3648   */\n      dup2\n        /* \"#utility.yul\":3632:3648   */\n      swap1\n      pop\n        /* \"#utility.yul\":3577:3654   */\n      swap2\n      swap1\n      pop\n      jump\t// out\n        /* \"#utility.yul\":3660:3786   */\n    tag_432:\n        /* \"#utility.yul\":3755:3779   */\n      tag_517\n        /* \"#utility.yul\":3773:3778   */\n      dup2\n        /* \"#utility.yul\":3755:3779   */\n      tag_431\n      jump\t// in\n    tag_517:\n        /* \"#utility.yul\":3750:3753   */\n      dup3\n        /* \"#utility.yul\":3743:3780   */\n      mstore\n        /* \"#utility.yul\":3660:3786   */\n      pop\n      pop\n      jump\t// out\n        /* \"#utility.yul\":3792:4030   */\n    tag_73:\n        /* \"#utility.yul\":3893:3897   */\n      0x00\n        /* \"#utility.yul\":3931:3933   */\n      0x20\n        /* \"#utility.yul\":3920:3929   */\n      dup3\n        /* \"#utility.yul\":3916:3934   */\n      add\n        /* \"#utility.yul\":3908:3934   */\n      swap1\n      pop\n        /* \"#utility.yul\":3944:4023   */\n      tag_519\n        /* \"#utility.yul\":4020:4021   */\n      0x00\n        /* \"#utility.yul\":4009:4018   */\n      dup4\n        /* \"#utility.yul\":4005:4022   */\n      add\n        /* \"#utility.yul\":3996:4002   */\n      dup5\n        /* \"#utility.yul\":3944:4023   */\n      tag_432\n      jump\t// in\n    tag_519:\n        /* \"#utility.yul\":3792:4030   */\n      swap3\n      swap2\n      pop\n      pop\n      jump\t// out\n        /* \"#utility.yul\":4036:4365   */\n    tag_76:\n        /* \"#utility.yul\":4095:4101   */\n      0x00\n        /* \"#utility.yul\":4144:4146   */\n      0x20\n        /* \"#utility.yul\":4132:4141   */\n      dup3\n        /* \"#utility.yul\":4123:4130   */\n      dup5\n        /* \"#utility.yul\":4119:4142   */\n      sub\n        /* \"#utility.yul\":4115:4147   */\n      slt\n        /* \"#utility.yul\":4112:4231   */\n      iszero\n      tag_521\n      jumpi\n        /* \"#utility.yul\":4150:4229   */\n      tag_522\n      tag_422\n      jump\t// in\n    tag_522:\n        /* \"#utility.yul\":4112:4231   */\n    tag_521:\n        /* \"#utility.yul\":4270:4271   */\n      0x00\n        /* \"#utility.yul\":4295:4348   */\n      tag_523\n        /* \"#utility.yul\":4340:4347   */\n      dup5\n        /* \"#utility.yul\":4331:4337   */\n      dup3\n        /* \"#utility.yul\":4320:4329   */\n      dup6\n        /* \"#utility.yul\":4316:4338   */\n      add\n        /* \"#utility.yul\":4295:4348   */\n      tag_427\n      jump\t// in\n    tag_523:\n        /* \"#utility.yul\":4285:4348   */\n      swap2\n      pop\n        /* \"#utility.yul\":4241:4358   */\n      pop\n        /* \"#utility.yul\":4036:4365   */\n      swap3\n      swap2\n      pop\n      pop\n      jump\t// out\n        /* \"#utility.yul\":4371:4497   */\n    tag_433:\n        /* \"#utility.yul\":4466:4490   */\n      tag_525\n        /* \"#utility.yul\":4484:4489   */\n      dup2\n        /* \"#utility.yul\":4466:4490   */\n      tag_428\n      jump\t// in\n    tag_525:\n        /* \"#utility.yul\":4461:4464   */\n      dup3\n        /* \"#utility.yul\":4454:4491   */\n      mstore\n        /* \"#utility.yul\":4371:4497   */\n      pop\n      pop\n      jump\t// out\n        /* \"#utility.yul\":4503:4741   */\n    tag_79:\n        /* \"#utility.yul\":4604:4608   */\n      0x00\n        /* \"#utility.yul\":4642:4644   */\n      0x20\n        /* \"#utility.yul\":4631:4640   */\n      dup3\n        /* \"#utility.yul\":4627:4645   */\n      add\n        /* \"#utility.yul\":4619:4645   */\n      swap1\n      pop\n        /* \"#utility.yul\":4655:4734   */\n      tag_527\n        /* \"#utility.yul\":4731:4732   */\n      0x00\n        /* \"#utility.yul\":4720:4729   */\n      dup4\n        /* \"#utility.yul\":4716:4733   */\n      add\n        /* \"#utility.yul\":4707:4713   */\n      dup5\n        /* \"#utility.yul\":4655:4734   */\n      tag_433\n      jump\t// in\n    tag_527:\n        /* \"#utility.yul\":4503:4741   */\n      swap3\n      swap2\n      pop\n      pop\n      jump\t// out\n        /* \"#utility.yul\":4747:4869   */\n    tag_434:\n        /* \"#utility.yul\":4820:4844   */\n      tag_529\n        /* \"#utility.yul\":4838:4843   */\n      dup2\n        /* \"#utility.yul\":4820:4844   */\n      tag_431\n      jump\t// in\n    tag_529:\n        /* \"#utility.yul\":4813:4818   */\n      dup2\n        /* \"#utility.yul\":4810:4845   */\n      eq\n        /* \"#utility.yul\":4800:4863   */\n      tag_530\n      jumpi\n        /* \"#utility.yul\":4859:4860   */\n      0x00\n        /* \"#utility.yul\":4856:4857   */\n      0x00\n        /* \"#utility.yul\":4849:4861   */\n      revert\n        /* \"#utility.yul\":4800:4863   */\n    tag_530:\n        /* \"#utility.yul\":4747:4869   */\n      pop\n      jump\t// out\n        /* \"#utility.yul\":4875:5014   */\n    tag_435:\n        /* \"#utility.yul\":4921:4926   */\n      0x00\n        /* \"#utility.yul\":4959:4965   */\n      dup2\n        /* \"#utility.yul\":4946:4966   */\n      calldataload\n        /* \"#utility.yul\":4937:4966   */\n      swap1\n      pop\n        /* \"#utility.yul\":4975:5008   */\n      tag_532\n        /* \"#utility.yul\":5002:5007   */\n      dup2\n        /* \"#utility.yul\":4975:5008   */\n      tag_434\n      jump\t// in\n    tag_532:\n        /* \"#utility.yul\":4875:5014   */\n      swap3\n      swap2\n      pop\n      pop\n      jump\t// out\n        /* \"#utility.yul\":5020:5349   */\n    tag_83:\n        /* \"#utility.yul\":5079:5085   */\n      0x00\n        /* \"#utility.yul\":5128:5130   */\n      0x20\n        /* \"#utility.yul\":5116:5125   */\n      dup3\n        /* \"#utility.yul\":5107:5114   */\n      dup5\n        /* \"#utility.yul\":5103:5126   */\n      sub\n        /* \"#utility.yul\":5099:5131   */\n      slt\n        /* \"#utility.yul\":5096:5215   */\n      iszero\n      tag_534\n      jumpi\n        /* \"#utility.yul\":5134:5213   */\n      tag_535\n      tag_422\n      jump\t// in\n    tag_535:\n        /* \"#utility.yul\":5096:5215   */\n    tag_534:\n        /* \"#utility.yul\":5254:5255   */\n      0x00\n        /* \"#utility.yul\":5279:5332   */\n      tag_536\n        /* \"#utility.yul\":5324:5331   */\n      dup5\n        /* \"#utility.yul\":5315:5321   */\n      dup3\n        /* \"#utility.yul\":5304:5313   */\n      dup6\n        /* \"#utility.yul\":5300:5322   */\n      add\n        /* \"#utility.yul\":5279:5332   */\n      tag_435\n      jump\t// in\n    tag_536:\n        /* \"#utility.yul\":5269:5332   */\n      swap2\n      pop\n        /* \"#utility.yul\":5225:5342   */\n      pop\n        /* \"#utility.yul\":5020:5349   */\n      swap3\n      swap2\n      pop\n      pop\n      jump\t// out\n        /* \"#utility.yul\":5355:5684   */\n    tag_92:\n        /* \"#utility.yul\":5414:5420   */\n      0x00\n        /* \"#utility.yul\":5463:5465   */\n      0x20\n        /* \"#utility.yul\":5451:5460   */\n      dup3\n        /* \"#utility.yul\":5442:5449   */\n      dup5\n        /* \"#utility.yul\":5438:5461   */\n      sub\n        /* \"#utility.yul\":5434:5466   */\n      slt\n        /* \"#utility.yul\":5431:5550   */\n      iszero\n      tag_538\n      jumpi\n        /* \"#utility.yul\":5469:5548   */\n      tag_539\n      tag_422\n      jump\t// in\n    tag_539:\n        /* \"#utility.yul\":5431:5550   */\n    tag_538:\n        /* \"#utility.yul\":5589:5590   */\n      0x00\n        /* \"#utility.yul\":5614:5667   */\n      tag_540\n        /* \"#utility.yul\":5659:5666   */\n      dup5\n        /* \"#utility.yul\":5650:5656   */\n      dup3\n        /* \"#utility.yul\":5639:5648   */\n      dup6\n        /* \"#utility.yul\":5635:5657   */\n      add\n        /* \"#utility.yul\":5614:5667   */\n      tag_430\n      jump\t// in\n    tag_540:\n        /* \"#utility.yul\":5604:5667   */\n      swap2\n      pop\n        /* \"#utility.yul\":5560:5677   */\n      pop\n        /* \"#utility.yul\":5355:5684   */\n      swap3\n      swap2\n      pop\n      pop\n      jump\t// out\n        /* \"#utility.yul\":5690:5807   */\n    tag_436:\n        /* \"#utility.yul\":5799:5800   */\n      0x00\n        /* \"#utility.yul\":5796:5797   */\n      0x00\n        /* \"#utility.yul\":5789:5801   */\n      revert\n        /* \"#utility.yul\":5813:5930   */\n    tag_437:\n        /* \"#utility.yul\":5922:5923   */\n      0x00\n        /* \"#utility.yul\":5919:5920   */\n      0x00\n        /* \"#utility.yul\":5912:5924   */\n      revert\n        /* \"#utility.yul\":5936:6116   */\n    tag_438:\n        /* \"#utility.yul\":5984:6061   */\n      0x4e487b7100000000000000000000000000000000000000000000000000000000\n        /* \"#utility.yul\":5981:5982   */\n      0x00\n        /* \"#utility.yul\":5974:6062   */\n      mstore\n        /* \"#utility.yul\":6081:6085   */\n      0x41\n        /* \"#utility.yul\":6078:6079   */\n      0x04\n        /* \"#utility.yul\":6071:6086   */\n      mstore\n        /* \"#utility.yul\":6105:6109   */\n      0x24\n        /* \"#utility.yul\":6102:6103   */\n      0x00\n        /* \"#utility.yul\":6095:6110   */\n      revert\n        /* \"#utility.yul\":6122:6403   */\n    tag_439:\n        /* \"#utility.yul\":6205:6232   */\n      tag_545\n        /* \"#utility.yul\":6227:6231   */\n      dup3\n        /* \"#utility.yul\":6205:6232   */\n      tag_419\n      jump\t// in\n    tag_545:\n        /* \"#utility.yul\":6197:6203   */\n      dup2\n        /* \"#utility.yul\":6193:6233   */\n      add\n        /* \"#utility.yul\":6335:6341   */\n      dup2\n        /* \"#utility.yul\":6323:6333   */\n      dup2\n        /* \"#utility.yul\":6320:6342   */\n      lt\n        /* \"#utility.yul\":6299:6317   */\n      0xffffffffffffffff\n        /* \"#utility.yul\":6287:6297   */\n      dup3\n        /* \"#utility.yul\":6284:6318   */\n      gt\n        /* \"#utility.yul\":6281:6343   */\n      or\n        /* \"#utility.yul\":6278:6366   */\n      iszero\n      tag_546\n      jumpi\n        /* \"#utility.yul\":6346:6364   */\n      tag_547\n      tag_438\n      jump\t// in\n    tag_547:\n        /* \"#utility.yul\":6278:6366   */\n    tag_546:\n        /* \"#utility.yul\":6386:6396   */\n      dup1\n        /* \"#utility.yul\":6382:6384   */\n      0x40\n        /* \"#utility.yul\":6375:6397   */\n      mstore\n        /* \"#utility.yul\":6165:6403   */\n      pop\n        /* \"#utility.yul\":6122:6403   */\n      pop\n      pop\n      jump\t// out\n        /* \"#utility.yul\":6409:6538   */\n    tag_440:\n        /* \"#utility.yul\":6443:6449   */\n      0x00\n        /* \"#utility.yul\":6470:6490   */\n      tag_549\n      tag_421\n      jump\t// in\n    tag_549:\n        /* \"#utility.yul\":6460:6490   */\n      swap1\n      pop\n        /* \"#utility.yul\":6499:6532   */\n      tag_550\n        /* \"#utility.yul\":6527:6531   */\n      dup3\n        /* \"#utility.yul\":6519:6525   */\n      dup3\n        /* \"#utility.yul\":6499:6532   */\n      tag_439\n      jump\t// in\n    tag_550:\n        /* \"#utility.yul\":6409:6538   */\n      swap2\n      swap1\n      pop\n      jump\t// out\n        /* \"#utility.yul\":6544:6852   */\n    tag_441:\n        /* \"#utility.yul\":6606:6610   */\n      0x00\n        /* \"#utility.yul\":6696:6714   */\n      0xffffffffffffffff\n        /* \"#utility.yul\":6688:6694   */\n      dup3\n        /* \"#utility.yul\":6685:6715   */\n      gt\n        /* \"#utility.yul\":6682:6738   */\n      iszero\n      tag_552\n      jumpi\n        /* \"#utility.yul\":6718:6736   */\n      tag_553\n      tag_438\n      jump\t// in\n    tag_553:\n        /* \"#utility.yul\":6682:6738   */\n    tag_552:\n        /* \"#utility.yul\":6756:6785   */\n      tag_554\n        /* \"#utility.yul\":6778:6784   */\n      dup3\n        /* \"#utility.yul\":6756:6785   */\n      tag_419\n      jump\t// in\n    tag_554:\n        /* \"#utility.yul\":6748:6785   */\n      swap1\n      pop\n        /* \"#utility.yul\":6840:6844   */\n      0x20\n        /* \"#utility.yul\":6834:6838   */\n      dup2\n        /* \"#utility.yul\":6830:6845   */\n      add\n        /* \"#utility.yul\":6822:6845   */\n      swap1\n      pop\n        /* \"#utility.yul\":6544:6852   */\n      swap2\n      swap1\n      pop\n      jump\t// out\n        /* \"#utility.yul\":6858:7006   */\n    tag_442:\n        /* \"#utility.yul\":6956:6962   */\n      dup3\n        /* \"#utility.yul\":6951:6954   */\n      dup2\n        /* \"#utility.yul\":6946:6949   */\n      dup4\n        /* \"#utility.yul\":6933:6963   */\n      calldatacopy\n        /* \"#utility.yul\":6997:6998   */\n      0x00\n        /* \"#utility.yul\":6988:6994   */\n      dup4\n        /* \"#utility.yul\":6983:6986   */\n      dup4\n        /* \"#utility.yul\":6979:6995   */\n      add\n        /* \"#utility.yul\":6972:6999   */\n      mstore\n        /* \"#utility.yul\":6858:7006   */\n      pop\n      pop\n      pop\n      jump\t// out\n        /* \"#utility.yul\":7012:7437   */\n    tag_443:\n        /* \"#utility.yul\":7090:7095   */\n      0x00\n        /* \"#utility.yul\":7115:7181   */\n      tag_557\n        /* \"#utility.yul\":7131:7180   */\n      tag_558\n        /* \"#utility.yul\":7173:7179   */\n      dup5\n        /* \"#utility.yul\":7131:7180   */\n      tag_441\n      jump\t// in\n    tag_558:\n        /* \"#utility.yul\":7115:7181   */\n      tag_440\n      jump\t// in\n    tag_557:\n        /* \"#utility.yul\":7106:7181   */\n      swap1\n      pop\n        /* \"#utility.yul\":7204:7210   */\n      dup3\n        /* \"#utility.yul\":7197:7202   */\n      dup2\n        /* \"#utility.yul\":7190:7211   */\n      mstore\n        /* \"#utility.yul\":7242:7246   */\n      0x20\n        /* \"#utility.yul\":7235:7240   */\n      dup2\n        /* \"#utility.yul\":7231:7247   */\n      add\n        /* \"#utility.yul\":7280:7283   */\n      dup5\n        /* \"#utility.yul\":7271:7277   */\n      dup5\n        /* \"#utility.yul\":7266:7269   */\n      dup5\n        /* \"#utility.yul\":7262:7278   */\n      add\n        /* \"#utility.yul\":7259:7284   */\n      gt\n        /* \"#utility.yul\":7256:7368   */\n      iszero\n      tag_559\n      jumpi\n        /* \"#utility.yul\":7287:7366   */\n      tag_560\n      tag_437\n      jump\t// in\n    tag_560:\n        /* \"#utility.yul\":7256:7368   */\n    tag_559:\n        /* \"#utility.yul\":7377:7431   */\n      tag_561\n        /* \"#utility.yul\":7424:7430   */\n      dup5\n        /* \"#utility.yul\":7419:7422   */\n      dup3\n        /* \"#utility.yul\":7414:7417   */\n      dup6\n        /* \"#utility.yul\":7377:7431   */\n      tag_442\n      jump\t// in\n    tag_561:\n        /* \"#utility.yul\":7096:7437   */\n      pop\n        /* \"#utility.yul\":7012:7437   */\n      swap4\n      swap3\n      pop\n      pop\n      pop\n      jump\t// out\n        /* \"#utility.yul\":7457:7797   */\n    tag_444:\n        /* \"#utility.yul\":7513:7518   */\n      0x00\n        /* \"#utility.yul\":7562:7565   */\n      dup3\n        /* \"#utility.yul\":7555:7559   */\n      0x1f\n        /* \"#utility.yul\":7547:7553   */\n      dup4\n        /* \"#utility.yul\":7543:7560   */\n      add\n        /* \"#utility.yul\":7539:7566   */\n      slt\n        /* \"#utility.yul\":7529:7651   */\n      tag_563\n      jumpi\n        /* \"#utility.yul\":7570:7649   */\n      tag_564\n      tag_436\n      jump\t// in\n    tag_564:\n        /* \"#utility.yul\":7529:7651   */\n    tag_563:\n        /* \"#utility.yul\":7687:7693   */\n      dup2\n        /* \"#utility.yul\":7674:7694   */\n      calldataload\n        /* \"#utility.yul\":7712:7791   */\n      tag_565\n        /* \"#utility.yul\":7787:7790   */\n      dup5\n        /* \"#utility.yul\":7779:7785   */\n      dup3\n        /* \"#utility.yul\":7772:7776   */\n      0x20\n        /* \"#utility.yul\":7764:7770   */\n      dup7\n        /* \"#utility.yul\":7760:7777   */\n      add\n        /* \"#utility.yul\":7712:7791   */\n      tag_443\n      jump\t// in\n    tag_565:\n        /* \"#utility.yul\":7703:7791   */\n      swap2\n      pop\n        /* \"#utility.yul\":7519:7797   */\n      pop\n        /* \"#utility.yul\":7457:7797   */\n      swap3\n      swap2\n      pop\n      pop\n      jump\t// out\n        /* \"#utility.yul\":7803:8312   */\n    tag_116:\n        /* \"#utility.yul\":7872:7878   */\n      0x00\n        /* \"#utility.yul\":7921:7923   */\n      0x20\n        /* \"#utility.yul\":7909:7918   */\n      dup3\n        /* \"#utility.yul\":7900:7907   */\n      dup5\n        /* \"#utility.yul\":7896:7919   */\n      sub\n        /* \"#utility.yul\":7892:7924   */\n      slt\n        /* \"#utility.yul\":7889:8008   */\n      iszero\n      tag_567\n      jumpi\n        /* \"#utility.yul\":7927:8006   */\n      tag_568\n      tag_422\n      jump\t// in\n    tag_568:\n        /* \"#utility.yul\":7889:8008   */\n    tag_567:\n        /* \"#utility.yul\":8075:8076   */\n      0x00\n        /* \"#utility.yul\":8064:8073   */\n      dup3\n        /* \"#utility.yul\":8060:8077   */\n      add\n        /* \"#utility.yul\":8047:8078   */\n      calldataload\n        /* \"#utility.yul\":8105:8123   */\n      0xffffffffffffffff\n        /* \"#utility.yul\":8097:8103   */\n      dup2\n        /* \"#utility.yul\":8094:8124   */\n      gt\n        /* \"#utility.yul\":8091:8208   */\n      iszero\n      tag_569\n      jumpi\n        /* \"#utility.yul\":8127:8206   */\n      tag_570\n      tag_423\n      jump\t// in\n    tag_570:\n        /* \"#utility.yul\":8091:8208   */\n    tag_569:\n        /* \"#utility.yul\":8232:8295   */\n      tag_571\n        /* \"#utility.yul\":8287:8294   */\n      dup5\n        /* \"#utility.yul\":8278:8284   */\n      dup3\n        /* \"#utility.yul\":8267:8276   */\n      dup6\n        /* \"#utility.yul\":8263:8285   */\n      add\n        /* \"#utility.yul\":8232:8295   */\n      tag_444\n      jump\t// in\n    tag_571:\n        /* \"#utility.yul\":8222:8295   */\n      swap2\n      pop\n        /* \"#utility.yul\":8018:8305   */\n      pop\n        /* \"#utility.yul\":7803:8312   */\n      swap3\n      swap2\n      pop\n      pop\n      jump\t// out\n        /* \"#utility.yul\":8318:8432   */\n    tag_445:\n        /* \"#utility.yul\":8385:8391   */\n      0x00\n        /* \"#utility.yul\":8419:8424   */\n      dup2\n        /* \"#utility.yul\":8413:8425   */\n      mload\n        /* \"#utility.yul\":8403:8425   */\n      swap1\n      pop\n        /* \"#utility.yul\":8318:8432   */\n      swap2\n      swap1\n      pop\n      jump\t// out\n        /* \"#utility.yul\":8438:8630   */\n    tag_446:\n        /* \"#utility.yul\":8545:8556   */\n      0x00\n        /* \"#utility.yul\":8579:8585   */\n      dup3\n        /* \"#utility.yul\":8574:8577   */\n      dup3\n        /* \"#utility.yul\":8567:8586   */\n      mstore\n        /* \"#utility.yul\":8619:8623   */\n      0x20\n        /* \"#utility.yul\":8614:8617   */\n      dup3\n        /* \"#utility.yul\":8610:8624   */\n      add\n        /* \"#utility.yul\":8595:8624   */\n      swap1\n      pop\n        /* \"#utility.yul\":8438:8630   */\n      swap3\n      swap2\n      pop\n      pop\n      jump\t// out\n        /* \"#utility.yul\":8636:8768   */\n    tag_447:\n        /* \"#utility.yul\":8703:8707   */\n      0x00\n        /* \"#utility.yul\":8726:8729   */\n      dup2\n        /* \"#utility.yul\":8718:8729   */\n      swap1\n      pop\n        /* \"#utility.yul\":8756:8760   */\n      0x20\n        /* \"#utility.yul\":8751:8754   */\n      dup3\n        /* \"#utility.yul\":8747:8761   */\n      add\n        /* \"#utility.yul\":8739:8761   */\n      swap1\n      pop\n        /* \"#utility.yul\":8636:8768   */\n      swap2\n      swap1\n      pop\n      jump\t// out\n        /* \"#utility.yul\":8774:8890   */\n    tag_448:\n        /* \"#utility.yul\":8859:8883   */\n      tag_576\n        /* \"#utility.yul\":8877:8882   */\n      dup2\n        /* \"#utility.yul\":8859:8883   */\n      tag_428\n      jump\t// in\n    tag_576:\n        /* \"#utility.yul\":8854:8857   */\n      dup3\n        /* \"#utility.yul\":8847:8884   */\n      mstore\n        /* \"#utility.yul\":8774:8890   */\n      pop\n      pop\n      jump\t// out\n        /* \"#utility.yul\":8896:9091   */\n    tag_449:\n        /* \"#utility.yul\":8973:8983   */\n      0x00\n        /* \"#utility.yul\":8994:9048   */\n      tag_578\n        /* \"#utility.yul\":9044:9047   */\n      dup4\n        /* \"#utility.yul\":9036:9042   */\n      dup4\n        /* \"#utility.yul\":8994:9048   */\n      tag_448\n      jump\t// in\n    tag_578:\n        /* \"#utility.yul\":9080:9084   */\n      0x20\n        /* \"#utility.yul\":9075:9078   */\n      dup4\n        /* \"#utility.yul\":9071:9085   */\n      add\n        /* \"#utility.yul\":9057:9085   */\n      swap1\n      pop\n        /* \"#utility.yul\":8896:9091   */\n      swap3\n      swap2\n      pop\n      pop\n      jump\t// out\n        /* \"#utility.yul\":9097:9210   */\n    tag_450:\n        /* \"#utility.yul\":9167:9171   */\n      0x00\n        /* \"#utility.yul\":9199:9203   */\n      0x20\n        /* \"#utility.yul\":9194:9197   */\n      dup3\n        /* \"#utility.yul\":9190:9204   */\n      add\n        /* \"#utility.yul\":9182:9204   */\n      swap1\n      pop\n        /* \"#utility.yul\":9097:9210   */\n      swap2\n      swap1\n      pop\n      jump\t// out\n        /* \"#utility.yul\":9246:10002   */\n    tag_451:\n        /* \"#utility.yul\":9373:9376   */\n      0x00\n        /* \"#utility.yul\":9402:9456   */\n      tag_581\n        /* \"#utility.yul\":9450:9455   */\n      dup3\n        /* \"#utility.yul\":9402:9456   */\n      tag_445\n      jump\t// in\n    tag_581:\n        /* \"#utility.yul\":9472:9566   */\n      tag_582\n        /* \"#utility.yul\":9559:9565   */\n      dup2\n        /* \"#utility.yul\":9554:9557   */\n      dup6\n        /* \"#utility.yul\":9472:9566   */\n      tag_446\n      jump\t// in\n    tag_582:\n        /* \"#utility.yul\":9465:9566   */\n      swap4\n      pop\n        /* \"#utility.yul\":9590:9646   */\n      tag_583\n        /* \"#utility.yul\":9640:9645   */\n      dup4\n        /* \"#utility.yul\":9590:9646   */\n      tag_447\n      jump\t// in\n    tag_583:\n        /* \"#utility.yul\":9669:9676   */\n      dup1\n        /* \"#utility.yul\":9700:9701   */\n      0x00\n        /* \"#utility.yul\":9685:9977   */\n    tag_584:\n        /* \"#utility.yul\":9710:9716   */\n      dup4\n        /* \"#utility.yul\":9707:9708   */\n      dup2\n        /* \"#utility.yul\":9704:9717   */\n      lt\n        /* \"#utility.yul\":9685:9977   */\n      iszero\n      tag_586\n      jumpi\n        /* \"#utility.yul\":9786:9792   */\n      dup2\n        /* \"#utility.yul\":9780:9793   */\n      mload\n        /* \"#utility.yul\":9813:9884   */\n      tag_587\n        /* \"#utility.yul\":9880:9883   */\n      dup9\n        /* \"#utility.yul\":9865:9878   */\n      dup3\n        /* \"#utility.yul\":9813:9884   */\n      tag_449\n      jump\t// in\n    tag_587:\n        /* \"#utility.yul\":9806:9884   */\n      swap8\n      pop\n        /* \"#utility.yul\":9907:9967   */\n      tag_588\n        /* \"#utility.yul\":9960:9966   */\n      dup4\n        /* \"#utility.yul\":9907:9967   */\n      tag_450\n      jump\t// in\n    tag_588:\n        /* \"#utility.yul\":9897:9967   */\n      swap3\n      pop\n        /* \"#utility.yul\":9745:9977   */\n      pop\n        /* \"#utility.yul\":9732:9733   */\n      0x01\n        /* \"#utility.yul\":9729:9730   */\n      dup2\n        /* \"#utility.yul\":9725:9734   */\n      add\n        /* \"#utility.yul\":9720:9734   */\n      swap1\n      pop\n        /* \"#utility.yul\":9685:9977   */\n      jump(tag_584)\n    tag_586:\n        /* \"#utility.yul\":9689:9703   */\n      pop\n        /* \"#utility.yul\":9993:9996   */\n      dup6\n        /* \"#utility.yul\":9986:9996   */\n      swap4\n      pop\n        /* \"#utility.yul\":9378:10002   */\n      pop\n      pop\n      pop\n        /* \"#utility.yul\":9246:10002   */\n      swap3\n      swap2\n      pop\n      pop\n      jump\t// out\n        /* \"#utility.yul\":10008:10397   */\n    tag_144:\n        /* \"#utility.yul\":10159:10163   */\n      0x00\n        /* \"#utility.yul\":10197:10199   */\n      0x20\n        /* \"#utility.yul\":10186:10195   */\n      dup3\n        /* \"#utility.yul\":10182:10200   */\n      add\n        /* \"#utility.yul\":10174:10200   */\n      swap1\n      pop\n        /* \"#utility.yul\":10246:10255   */\n      dup2\n        /* \"#utility.yul\":10240:10244   */\n      dup2\n        /* \"#utility.yul\":10236:10256   */\n      sub\n        /* \"#utility.yul\":10232:10233   */\n      0x00\n        /* \"#utility.yul\":10221:10230   */\n      dup4\n        /* \"#utility.yul\":10217:10234   */\n      add\n        /* \"#utility.yul\":10210:10257   */\n      mstore\n        /* \"#utility.yul\":10274:10390   */\n      tag_590\n        /* \"#utility.yul\":10385:10389   */\n      dup2\n        /* \"#utility.yul\":10376:10382   */\n      dup5\n        /* \"#utility.yul\":10274:10390   */\n      tag_451\n      jump\t// in\n    tag_590:\n        /* \"#utility.yul\":10266:10390   */\n      swap1\n      pop\n        /* \"#utility.yul\":10008:10397   */\n      swap3\n      swap2\n      pop\n      pop\n      jump\t// out\n        /* \"#utility.yul\":10403:10493   */\n    tag_452:\n        /* \"#utility.yul\":10437:10444   */\n      0x00\n        /* \"#utility.yul\":10480:10485   */\n      dup2\n        /* \"#utility.yul\":10473:10486   */\n      iszero\n        /* \"#utility.yul\":10466:10487   */\n      iszero\n        /* \"#utility.yul\":10455:10487   */\n      swap1\n      pop\n        /* \"#utility.yul\":10403:10493   */\n      swap2\n      swap1\n      pop\n      jump\t// out\n        /* \"#utility.yul\":10499:10615   */\n    tag_453:\n        /* \"#utility.yul\":10569:10590   */\n      tag_593\n        /* \"#utility.yul\":10584:10589   */\n      dup2\n        /* \"#utility.yul\":10569:10590   */\n      tag_452\n      jump\t// in\n    tag_593:\n        /* \"#utility.yul\":10562:10567   */\n      dup2\n        /* \"#utility.yul\":10559:10591   */\n      eq\n        /* \"#utility.yul\":10549:10609   */\n      tag_594\n      jumpi\n        /* \"#utility.yul\":10605:10606   */\n      0x00\n        /* \"#utility.yul\":10602:10603   */\n      0x00\n        /* \"#utility.yul\":10595:10607   */\n      revert\n        /* \"#utility.yul\":10549:10609   */\n    tag_594:\n        /* \"#utility.yul\":10499:10615   */\n      pop\n      jump\t// out\n        /* \"#utility.yul\":10621:10754   */\n    tag_454:\n        /* \"#utility.yul\":10664:10669   */\n      0x00\n        /* \"#utility.yul\":10702:10708   */\n      dup2\n        /* \"#utility.yul\":10689:10709   */\n      calldataload\n        /* \"#utility.yul\":10680:10709   */\n      swap1\n      pop\n        /* \"#utility.yul\":10718:10748   */\n      tag_596\n        /* \"#utility.yul\":10742:10747   */\n      dup2\n        /* \"#utility.yul\":10718:10748   */\n      tag_453\n      jump\t// in\n    tag_596:\n        /* \"#utility.yul\":10621:10754   */\n      swap3\n      swap2\n      pop\n      pop\n      jump\t// out\n        /* \"#utility.yul\":10760:11373   */\n    tag_159:\n        /* \"#utility.yul\":10834:10840   */\n      0x00\n        /* \"#utility.yul\":10842:10848   */\n      0x00\n        /* \"#utility.yul\":10850:10856   */\n      0x00\n        /* \"#utility.yul\":10899:10901   */\n      0x60\n        /* \"#utility.yul\":10887:10896   */\n      dup5\n        /* \"#utility.yul\":10878:10885   */\n      dup7\n        /* \"#utility.yul\":10874:10897   */\n      sub\n        /* \"#utility.yul\":10870:10902   */\n      slt\n        /* \"#utility.yul\":10867:10986   */\n      iszero\n      tag_598\n      jumpi\n        /* \"#utility.yul\":10905:10984   */\n      tag_599\n      tag_422\n      jump\t// in\n    tag_599:\n        /* \"#utility.yul\":10867:10986   */\n    tag_598:\n        /* \"#utility.yul\":11025:11026   */\n      0x00\n        /* \"#utility.yul\":11050:11103   */\n      tag_600\n        /* \"#utility.yul\":11095:11102   */\n      dup7\n        /* \"#utility.yul\":11086:11092   */\n      dup3\n        /* \"#utility.yul\":11075:11084   */\n      dup8\n        /* \"#utility.yul\":11071:11093   */\n      add\n        /* \"#utility.yul\":11050:11103   */\n      tag_427\n      jump\t// in\n    tag_600:\n        /* \"#utility.yul\":11040:11103   */\n      swap4\n      pop\n        /* \"#utility.yul\":10996:11113   */\n      pop\n        /* \"#utility.yul\":11152:11154   */\n      0x20\n        /* \"#utility.yul\":11178:11231   */\n      tag_601\n        /* \"#utility.yul\":11223:11230   */\n      dup7\n        /* \"#utility.yul\":11214:11220   */\n      dup3\n        /* \"#utility.yul\":11203:11212   */\n      dup8\n        /* \"#utility.yul\":11199:11221   */\n      add\n        /* \"#utility.yul\":11178:11231   */\n      tag_427\n      jump\t// in\n    tag_601:\n        /* \"#utility.yul\":11168:11231   */\n      swap3\n      pop\n        /* \"#utility.yul\":11123:11241   */\n      pop\n        /* \"#utility.yul\":11280:11282   */\n      0x40\n        /* \"#utility.yul\":11306:11356   */\n      tag_602\n        /* \"#utility.yul\":11348:11355   */\n      dup7\n        /* \"#utility.yul\":11339:11345   */\n      dup3\n        /* \"#utility.yul\":11328:11337   */\n      dup8\n        /* \"#utility.yul\":11324:11346   */\n      add\n        /* \"#utility.yul\":11306:11356   */\n      tag_454\n      jump\t// in\n    tag_602:\n        /* \"#utility.yul\":11296:11356   */\n      swap2\n      pop\n        /* \"#utility.yul\":11251:11366   */\n      pop\n        /* \"#utility.yul\":10760:11373   */\n      swap3\n      pop\n      swap3\n      pop\n      swap3\n      jump\t// out\n        /* \"#utility.yul\":11379:11853   */\n    tag_188:\n        /* \"#utility.yul\":11447:11453   */\n      0x00\n        /* \"#utility.yul\":11455:11461   */\n      0x00\n        /* \"#utility.yul\":11504:11506   */\n      0x40\n        /* \"#utility.yul\":11492:11501   */\n      dup4\n        /* \"#utility.yul\":11483:11490   */\n      dup6\n        /* \"#utility.yul\":11479:11502   */\n      sub\n        /* \"#utility.yul\":11475:11507   */\n      slt\n        /* \"#utility.yul\":11472:11591   */\n      iszero\n      tag_604\n      jumpi\n        /* \"#utility.yul\":11510:11589   */\n      tag_605\n      tag_422\n      jump\t// in\n    tag_605:\n        /* \"#utility.yul\":11472:11591   */\n    tag_604:\n        /* \"#utility.yul\":11630:11631   */\n      0x00\n        /* \"#utility.yul\":11655:11708   */\n      tag_606\n        /* \"#utility.yul\":11700:11707   */\n      dup6\n        /* \"#utility.yul\":11691:11697   */\n      dup3\n        /* \"#utility.yul\":11680:11689   */\n      dup7\n        /* \"#utility.yul\":11676:11698   */\n      add\n        /* \"#utility.yul\":11655:11708   */\n      tag_427\n      jump\t// in\n    tag_606:\n        /* \"#utility.yul\":11645:11708   */\n      swap3\n      pop\n        /* \"#utility.yul\":11601:11718   */\n      pop\n        /* \"#utility.yul\":11757:11759   */\n      0x20\n        /* \"#utility.yul\":11783:11836   */\n      tag_607\n        /* \"#utility.yul\":11828:11835   */\n      dup6\n        /* \"#utility.yul\":11819:11825   */\n      dup3\n        /* \"#utility.yul\":11808:11817   */\n      dup7\n        /* \"#utility.yul\":11804:11826   */\n      add\n        /* \"#utility.yul\":11783:11836   */\n      tag_430\n      jump\t// in\n    tag_607:\n        /* \"#utility.yul\":11773:11836   */\n      swap2\n      pop\n        /* \"#utility.yul\":11728:11846   */\n      pop\n        /* \"#utility.yul\":11379:11853   */\n      swap3\n      pop\n      swap3\n      swap1\n      pop\n      jump\t// out\n        /* \"#utility.yul\":11859:11975   */\n    tag_455:\n        /* \"#utility.yul\":11944:11968   */\n      tag_609\n        /* \"#utility.yul\":11962:11967   */\n      dup2\n        /* \"#utility.yul\":11944:11968   */\n      tag_425\n      jump\t// in\n    tag_609:\n        /* \"#utility.yul\":11939:11942   */\n      dup3\n        /* \"#utility.yul\":11932:11969   */\n      mstore\n        /* \"#utility.yul\":11859:11975   */\n      pop\n      pop\n      jump\t// out\n        /* \"#utility.yul\":12067:12431   */\n    tag_456:\n        /* \"#utility.yul\":12236:12240   */\n      0x20\n        /* \"#utility.yul\":12231:12234   */\n      dup3\n        /* \"#utility.yul\":12227:12241   */\n      add\n        /* \"#utility.yul\":12324:12328   */\n      0x00\n        /* \"#utility.yul\":12317:12322   */\n      dup3\n        /* \"#utility.yul\":12313:12329   */\n      add\n        /* \"#utility.yul\":12307:12330   */\n      mload\n        /* \"#utility.yul\":12343:12414   */\n      tag_611\n        /* \"#utility.yul\":12408:12412   */\n      0x00\n        /* \"#utility.yul\":12403:12406   */\n      dup6\n        /* \"#utility.yul\":12399:12413   */\n      add\n        /* \"#utility.yul\":12385:12397   */\n      dup3\n        /* \"#utility.yul\":12343:12414   */\n      tag_455\n      jump\t// in\n    tag_611:\n        /* \"#utility.yul\":12251:12424   */\n      pop\n        /* \"#utility.yul\":12205:12431   */\n      pop\n        /* \"#utility.yul\":12067:12431   */\n      pop\n      pop\n      jump\t// out\n        /* \"#utility.yul\":12437:12803   */\n    tag_194:\n        /* \"#utility.yul\":12602:12606   */\n      0x00\n        /* \"#utility.yul\":12640:12642   */\n      0x20\n        /* \"#utility.yul\":12629:12638   */\n      dup3\n        /* \"#utility.yul\":12625:12643   */\n      add\n        /* \"#utility.yul\":12617:12643   */\n      swap1\n      pop\n        /* \"#utility.yul\":12653:12796   */\n      tag_613\n        /* \"#utility.yul\":12793:12794   */\n      0x00\n        /* \"#utility.yul\":12782:12791   */\n      dup4\n        /* \"#utility.yul\":12778:12795   */\n      add\n        /* \"#utility.yul\":12769:12775   */\n      dup5\n        /* \"#utility.yul\":12653:12796   */\n      tag_456\n      jump\t// in\n    tag_613:\n        /* \"#utility.yul\":12437:12803   */\n      swap3\n      swap2\n      pop\n      pop\n      jump\t// out\n        /* \"#utility.yul\":12809:13283   */\n    tag_198:\n        /* \"#utility.yul\":12877:12883   */\n      0x00\n        /* \"#utility.yul\":12885:12891   */\n      0x00\n        /* \"#utility.yul\":12934:12936   */\n      0x40\n        /* \"#utility.yul\":12922:12931   */\n      dup4\n        /* \"#utility.yul\":12913:12920   */\n      dup6\n        /* \"#utility.yul\":12909:12932   */\n      sub\n        /* \"#utility.yul\":12905:12937   */\n      slt\n        /* \"#utility.yul\":12902:13021   */\n      iszero\n      tag_615\n      jumpi\n        /* \"#utility.yul\":12940:13019   */\n      tag_616\n      tag_422\n      jump\t// in\n    tag_616:\n        /* \"#utility.yul\":12902:13021   */\n    tag_615:\n        /* \"#utility.yul\":13060:13061   */\n      0x00\n        /* \"#utility.yul\":13085:13138   */\n      tag_617\n        /* \"#utility.yul\":13130:13137   */\n      dup6\n        /* \"#utility.yul\":13121:13127   */\n      dup3\n        /* \"#utility.yul\":13110:13119   */\n      dup7\n        /* \"#utility.yul\":13106:13128   */\n      add\n        /* \"#utility.yul\":13085:13138   */\n      tag_430\n      jump\t// in\n    tag_617:\n        /* \"#utility.yul\":13075:13138   */\n      swap3\n      pop\n        /* \"#utility.yul\":13031:13148   */\n      pop\n        /* \"#utility.yul\":13187:13189   */\n      0x20\n        /* \"#utility.yul\":13213:13266   */\n      tag_618\n        /* \"#utility.yul\":13258:13265   */\n      dup6\n        /* \"#utility.yul\":13249:13255   */\n      dup3\n        /* \"#utility.yul\":13238:13247   */\n      dup7\n        /* \"#utility.yul\":13234:13256   */\n      add\n        /* \"#utility.yul\":13213:13266   */\n      tag_430\n      jump\t// in\n    tag_618:\n        /* \"#utility.yul\":13203:13266   */\n      swap2\n      pop\n        /* \"#utility.yul\":13158:13276   */\n      pop\n        /* \"#utility.yul\":12809:13283   */\n      swap3\n      pop\n      swap3\n      swap1\n      pop\n      jump\t// out\n        /* \"#utility.yul\":13289:13757   */\n    tag_203:\n        /* \"#utility.yul\":13354:13360   */\n      0x00\n        /* \"#utility.yul\":13362:13368   */\n      0x00\n        /* \"#utility.yul\":13411:13413   */\n      0x40\n        /* \"#utility.yul\":13399:13408   */\n      dup4\n        /* \"#utility.yul\":13390:13397   */\n      dup6\n        /* \"#utility.yul\":13386:13409   */\n      sub\n        /* \"#utility.yul\":13382:13414   */\n      slt\n        /* \"#utility.yul\":13379:13498   */\n      iszero\n      tag_620\n      jumpi\n        /* \"#utility.yul\":13417:13496   */\n      tag_621\n      tag_422\n      jump\t// in\n    tag_621:\n        /* \"#utility.yul\":13379:13498   */\n    tag_620:\n        /* \"#utility.yul\":13537:13538   */\n      0x00\n        /* \"#utility.yul\":13562:13615   */\n      tag_622\n        /* \"#utility.yul\":13607:13614   */\n      dup6\n        /* \"#utility.yul\":13598:13604   */\n      dup3\n        /* \"#utility.yul\":13587:13596   */\n      dup7\n        /* \"#utility.yul\":13583:13605   */\n      add\n        /* \"#utility.yul\":13562:13615   */\n      tag_427\n      jump\t// in\n    tag_622:\n        /* \"#utility.yul\":13552:13615   */\n      swap3\n      pop\n        /* \"#utility.yul\":13508:13625   */\n      pop\n        /* \"#utility.yul\":13664:13666   */\n      0x20\n        /* \"#utility.yul\":13690:13740   */\n      tag_623\n        /* \"#utility.yul\":13732:13739   */\n      dup6\n        /* \"#utility.yul\":13723:13729   */\n      dup3\n        /* \"#utility.yul\":13712:13721   */\n      dup7\n        /* \"#utility.yul\":13708:13730   */\n      add\n        /* \"#utility.yul\":13690:13740   */\n      tag_454\n      jump\t// in\n    tag_623:\n        /* \"#utility.yul\":13680:13740   */\n      swap2\n      pop\n        /* \"#utility.yul\":13635:13750   */\n      pop\n        /* \"#utility.yul\":13289:13757   */\n      swap3\n      pop\n      swap3\n      swap1\n      pop\n      jump\t// out\n        /* \"#utility.yul\":13763:13880   */\n    tag_457:\n        /* \"#utility.yul\":13852:13873   */\n      tag_625\n        /* \"#utility.yul\":13867:13872   */\n      dup2\n        /* \"#utility.yul\":13852:13873   */\n      tag_452\n      jump\t// in\n    tag_625:\n        /* \"#utility.yul\":13847:13850   */\n      dup3\n        /* \"#utility.yul\":13840:13874   */\n      mstore\n        /* \"#utility.yul\":13763:13880   */\n      pop\n      pop\n      jump\t// out\n        /* \"#utility.yul\":13886:14112   */\n    tag_209:\n        /* \"#utility.yul\":13981:13985   */\n      0x00\n        /* \"#utility.yul\":14019:14021   */\n      0x20\n        /* \"#utility.yul\":14008:14017   */\n      dup3\n        /* \"#utility.yul\":14004:14022   */\n      add\n        /* \"#utility.yul\":13996:14022   */\n      swap1\n      pop\n        /* \"#utility.yul\":14032:14105   */\n      tag_627\n        /* \"#utility.yul\":14102:14103   */\n      0x00\n        /* \"#utility.yul\":14091:14100   */\n      dup4\n        /* \"#utility.yul\":14087:14104   */\n      add\n        /* \"#utility.yul\":14078:14084   */\n      dup5\n        /* \"#utility.yul\":14032:14105   */\n      tag_457\n      jump\t// in\n    tag_627:\n        /* \"#utility.yul\":13886:14112   */\n      swap3\n      swap2\n      pop\n      pop\n      jump\t// out\n        /* \"#utility.yul\":14118:14772   */\n    tag_230:\n        /* \"#utility.yul\":14196:14202   */\n      0x00\n        /* \"#utility.yul\":14204:14210   */\n      0x00\n        /* \"#utility.yul\":14253:14255   */\n      0x40\n        /* \"#utility.yul\":14241:14250   */\n      dup4\n        /* \"#utility.yul\":14232:14239   */\n      dup6\n        /* \"#utility.yul\":14228:14251   */\n      sub\n        /* \"#utility.yul\":14224:14256   */\n      slt\n        /* \"#utility.yul\":14221:14340   */\n      iszero\n      tag_629\n      jumpi\n        /* \"#utility.yul\":14259:14338   */\n      tag_630\n      tag_422\n      jump\t// in\n    tag_630:\n        /* \"#utility.yul\":14221:14340   */\n    tag_629:\n        /* \"#utility.yul\":14407:14408   */\n      0x00\n        /* \"#utility.yul\":14396:14405   */\n      dup4\n        /* \"#utility.yul\":14392:14409   */\n      add\n        /* \"#utility.yul\":14379:14410   */\n      calldataload\n        /* \"#utility.yul\":14437:14455   */\n      0xffffffffffffffff\n        /* \"#utility.yul\":14429:14435   */\n      dup2\n        /* \"#utility.yul\":14426:14456   */\n      gt\n        /* \"#utility.yul\":14423:14540   */\n      iszero\n      tag_631\n      jumpi\n        /* \"#utility.yul\":14459:14538   */\n      tag_632\n      tag_423\n      jump\t// in\n    tag_632:\n        /* \"#utility.yul\":14423:14540   */\n    tag_631:\n        /* \"#utility.yul\":14564:14627   */\n      tag_633\n        /* \"#utility.yul\":14619:14626   */\n      dup6\n        /* \"#utility.yul\":14610:14616   */\n      dup3\n        /* \"#utility.yul\":14599:14608   */\n      dup7\n        /* \"#utility.yul\":14595:14617   */\n      add\n        /* \"#utility.yul\":14564:14627   */\n      tag_444\n      jump\t// in\n    tag_633:\n        /* \"#utility.yul\":14554:14627   */\n      swap3\n      pop\n        /* \"#utility.yul\":14350:14637   */\n      pop\n        /* \"#utility.yul\":14676:14678   */\n      0x20\n        /* \"#utility.yul\":14702:14755   */\n      tag_634\n        /* \"#utility.yul\":14747:14754   */\n      dup6\n        /* \"#utility.yul\":14738:14744   */\n      dup3\n        /* \"#utility.yul\":14727:14736   */\n      dup7\n        /* \"#utility.yul\":14723:14745   */\n      add\n        /* \"#utility.yul\":14702:14755   */\n      tag_430\n      jump\t// in\n    tag_634:\n        /* \"#utility.yul\":14692:14755   */\n      swap2\n      pop\n        /* \"#utility.yul\":14647:14765   */\n      pop\n        /* \"#utility.yul\":14118:14772   */\n      swap3\n      pop\n      swap3\n      swap1\n      pop\n      jump\t// out\n        /* \"#utility.yul\":14778:15252   */\n    tag_242:\n        /* \"#utility.yul\":14846:14852   */\n      0x00\n        /* \"#utility.yul\":14854:14860   */\n      0x00\n        /* \"#utility.yul\":14903:14905   */\n      0x40\n        /* \"#utility.yul\":14891:14900   */\n      dup4\n        /* \"#utility.yul\":14882:14889   */\n      dup6\n        /* \"#utility.yul\":14878:14901   */\n      sub\n        /* \"#utility.yul\":14874:14906   */\n      slt\n        /* \"#utility.yul\":14871:14990   */\n      iszero\n      tag_636\n      jumpi\n        /* \"#utility.yul\":14909:14988   */\n      tag_637\n      tag_422\n      jump\t// in\n    tag_637:\n        /* \"#utility.yul\":14871:14990   */\n    tag_636:\n        /* \"#utility.yul\":15029:15030   */\n      0x00\n        /* \"#utility.yul\":15054:15107   */\n      tag_638\n        /* \"#utility.yul\":15099:15106   */\n      dup6\n        /* \"#utility.yul\":15090:15096   */\n      dup3\n        /* \"#utility.yul\":15079:15088   */\n      dup7\n        /* \"#utility.yul\":15075:15097   */\n      add\n        /* \"#utility.yul\":15054:15107   */\n      tag_427\n      jump\t// in\n    tag_638:\n        /* \"#utility.yul\":15044:15107   */\n      swap3\n      pop\n        /* \"#utility.yul\":15000:15117   */\n      pop\n        /* \"#utility.yul\":15156:15158   */\n      0x20\n        /* \"#utility.yul\":15182:15235   */\n      tag_639\n        /* \"#utility.yul\":15227:15234   */\n      dup6\n        /* \"#utility.yul\":15218:15224   */\n      dup3\n        /* \"#utility.yul\":15207:15216   */\n      dup7\n        /* \"#utility.yul\":15203:15225   */\n      add\n        /* \"#utility.yul\":15182:15235   */\n      tag_427\n      jump\t// in\n    tag_639:\n        /* \"#utility.yul\":15172:15235   */\n      swap2\n      pop\n        /* \"#utility.yul\":15127:15245   */\n      pop\n        /* \"#utility.yul\":14778:15252   */\n      swap3\n      pop\n      swap3\n      swap1\n      pop\n      jump\t// out\n        /* \"#utility.yul\":15258:15438   */\n    tag_458:\n        /* \"#utility.yul\":15306:15383   */\n      0x4e487b7100000000000000000000000000000000000000000000000000000000\n        /* \"#utility.yul\":15303:15304   */\n      0x00\n        /* \"#utility.yul\":15296:15384   */\n      mstore\n        /* \"#utility.yul\":15403:15407   */\n      0x22\n        /* \"#utility.yul\":15400:15401   */\n      0x04\n        /* \"#utility.yul\":15393:15408   */\n      mstore\n        /* \"#utility.yul\":15427:15431   */\n      0x24\n        /* \"#utility.yul\":15424:15425   */\n      0x00\n        /* \"#utility.yul\":15417:15432   */\n      revert\n        /* \"#utility.yul\":15444:15764   */\n    tag_252:\n        /* \"#utility.yul\":15488:15494   */\n      0x00\n        /* \"#utility.yul\":15525:15526   */\n      0x02\n        /* \"#utility.yul\":15519:15523   */\n      dup3\n        /* \"#utility.yul\":15515:15527   */\n      div\n        /* \"#utility.yul\":15505:15527   */\n      swap1\n      pop\n        /* \"#utility.yul\":15572:15573   */\n      0x01\n        /* \"#utility.yul\":15566:15570   */\n      dup3\n        /* \"#utility.yul\":15562:15574   */\n      and\n        /* \"#utility.yul\":15593:15611   */\n      dup1\n        /* \"#utility.yul\":15583:15664   */\n      tag_642\n      jumpi\n        /* \"#utility.yul\":15649:15653   */\n      0x7f\n        /* \"#utility.yul\":15641:15647   */\n      dup3\n        /* \"#utility.yul\":15637:15654   */\n      and\n        /* \"#utility.yul\":15627:15654   */\n      swap2\n      pop\n        /* \"#utility.yul\":15583:15664   */\n    tag_642:\n        /* \"#utility.yul\":15711:15713   */\n      0x20\n        /* \"#utility.yul\":15703:15709   */\n      dup3\n        /* \"#utility.yul\":15700:15714   */\n      lt\n        /* \"#utility.yul\":15680:15698   */\n      dup2\n        /* \"#utility.yul\":15677:15715   */\n      sub\n        /* \"#utility.yul\":15674:15758   */\n      tag_643\n      jumpi\n        /* \"#utility.yul\":15730:15748   */\n      tag_644\n      tag_458\n      jump\t// in\n    tag_644:\n        /* \"#utility.yul\":15674:15758   */\n    tag_643:\n        /* \"#utility.yul\":15495:15764   */\n      pop\n        /* \"#utility.yul\":15444:15764   */\n      swap2\n      swap1\n      pop\n      jump\t// out\n        /* \"#utility.yul\":15770:15950   */\n    tag_459:\n        /* \"#utility.yul\":15818:15895   */\n      0x4e487b7100000000000000000000000000000000000000000000000000000000\n        /* \"#utility.yul\":15815:15816   */\n      0x00\n        /* \"#utility.yul\":15808:15896   */\n      mstore\n        /* \"#utility.yul\":15915:15919   */\n      0x11\n        /* \"#utility.yul\":15912:15913   */\n      0x04\n        /* \"#utility.yul\":15905:15920   */\n      mstore\n        /* \"#utility.yul\":15939:15943   */\n      0x24\n        /* \"#utility.yul\":15936:15937   */\n      0x00\n        /* \"#utility.yul\":15929:15944   */\n      revert\n        /* \"#utility.yul\":15956:16150   */\n    tag_276:\n        /* \"#utility.yul\":15996:16000   */\n      0x00\n        /* \"#utility.yul\":16016:16036   */\n      tag_647\n        /* \"#utility.yul\":16034:16035   */\n      dup3\n        /* \"#utility.yul\":16016:16036   */\n      tag_428\n      jump\t// in\n    tag_647:\n        /* \"#utility.yul\":16011:16036   */\n      swap2\n      pop\n        /* \"#utility.yul\":16050:16070   */\n      tag_648\n        /* \"#utility.yul\":16068:16069   */\n      dup4\n        /* \"#utility.yul\":16050:16070   */\n      tag_428\n      jump\t// in\n    tag_648:\n        /* \"#utility.yul\":16045:16070   */\n      swap3\n      pop\n        /* \"#utility.yul\":16094:16095   */\n      dup3\n        /* \"#utility.yul\":16091:16092   */\n      dup3\n        /* \"#utility.yul\":16087:16096   */\n      sub\n        /* \"#utility.yul\":16079:16096   */\n      swap1\n      pop\n        /* \"#utility.yul\":16118:16119   */\n      dup2\n        /* \"#utility.yul\":16112:16116   */\n      dup2\n        /* \"#utility.yul\":16109:16120   */\n      gt\n        /* \"#utility.yul\":16106:16143   */\n      iszero\n      tag_649\n      jumpi\n        /* \"#utility.yul\":16123:16141   */\n      tag_650\n      tag_459\n      jump\t// in\n    tag_650:\n        /* \"#utility.yul\":16106:16143   */\n    tag_649:\n        /* \"#utility.yul\":15956:16150   */\n      swap3\n      swap2\n      pop\n      pop\n      jump\t// out\n        /* \"#utility.yul\":16156:16336   */\n    tag_295:\n        /* \"#utility.yul\":16204:16281   */\n      0x4e487b7100000000000000000000000000000000000000000000000000000000\n        /* \"#utility.yul\":16201:16202   */\n      0x00\n        /* \"#utility.yul\":16194:16282   */\n      mstore\n        /* \"#utility.yul\":16301:16305   */\n      0x32\n        /* \"#utility.yul\":16298:16299   */\n      0x04\n        /* \"#utility.yul\":16291:16306   */\n      mstore\n        /* \"#utility.yul\":16325:16329   */\n      0x24\n        /* \"#utility.yul\":16322:16323   */\n      0x00\n        /* \"#utility.yul\":16315:16330   */\n      revert\n        /* \"#utility.yul\":16342:16522   */\n    tag_306:\n        /* \"#utility.yul\":16390:16467   */\n      0x4e487b7100000000000000000000000000000000000000000000000000000000\n        /* \"#utility.yul\":16387:16388   */\n      0x00\n        /* \"#utility.yul\":16380:16468   */\n      mstore\n        /* \"#utility.yul\":16487:16491   */\n      0x31\n        /* \"#utility.yul\":16484:16485   */\n      0x04\n        /* \"#utility.yul\":16477:16492   */\n      mstore\n        /* \"#utility.yul\":16511:16515   */\n      0x24\n        /* \"#utility.yul\":16508:16509   */\n      0x00\n        /* \"#utility.yul\":16501:16516   */\n      revert\n        /* \"#utility.yul\":16528:16669   */\n    tag_460:\n        /* \"#utility.yul\":16577:16581   */\n      0x00\n        /* \"#utility.yul\":16600:16603   */\n      dup2\n        /* \"#utility.yul\":16592:16603   */\n      swap1\n      pop\n        /* \"#utility.yul\":16623:16626   */\n      dup2\n        /* \"#utility.yul\":16620:16621   */\n      0x00\n        /* \"#utility.yul\":16613:16627   */\n      mstore\n        /* \"#utility.yul\":16657:16661   */\n      0x20\n        /* \"#utility.yul\":16654:16655   */\n      0x00\n        /* \"#utility.yul\":16644:16662   */\n      keccak256\n        /* \"#utility.yul\":16636:16662   */\n      swap1\n      pop\n        /* \"#utility.yul\":16528:16669   */\n      swap2\n      swap1\n      pop\n      jump\t// out\n        /* \"#utility.yul\":16675:16768   */\n    tag_461:\n        /* \"#utility.yul\":16712:16718   */\n      0x00\n        /* \"#utility.yul\":16759:16761   */\n      0x20\n        /* \"#utility.yul\":16754:16756   */\n      0x1f\n        /* \"#utility.yul\":16747:16752   */\n      dup4\n        /* \"#utility.yul\":16743:16757   */\n      add\n        /* \"#utility.yul\":16739:16762   */\n      div\n        /* \"#utility.yul\":16729:16762   */\n      swap1\n      pop\n        /* \"#utility.yul\":16675:16768   */\n      swap2\n      swap1\n      pop\n      jump\t// out\n        /* \"#utility.yul\":16774:16881   */\n    tag_462:\n        /* \"#utility.yul\":16818:16826   */\n      0x00\n        /* \"#utility.yul\":16868:16873   */\n      dup3\n        /* \"#utility.yul\":16862:16866   */\n      dup3\n        /* \"#utility.yul\":16858:16874   */\n      shl\n        /* \"#utility.yul\":16837:16874   */\n      swap1\n      pop\n        /* \"#utility.yul\":16774:16881   */\n      swap3\n      swap2\n      pop\n      pop\n      jump\t// out\n        /* \"#utility.yul\":16887:17280   */\n    tag_463:\n        /* \"#utility.yul\":16956:16962   */\n      0x00\n        /* \"#utility.yul\":17006:17007   */\n      0x08\n        /* \"#utility.yul\":16994:17004   */\n      dup4\n        /* \"#utility.yul\":16990:17008   */\n      mul\n        /* \"#utility.yul\":17029:17126   */\n      tag_657\n        /* \"#utility.yul\":17059:17125   */\n      0xffffffffffffffffffffffffffffffffffffffffffffffffffffffffffffffff\n        /* \"#utility.yul\":17048:17057   */\n      dup3\n        /* \"#utility.yul\":17029:17126   */\n      tag_462\n      jump\t// in\n    tag_657:\n        /* \"#utility.yul\":17147:17186   */\n      tag_658\n        /* \"#utility.yul\":17177:17185   */\n      dup7\n        /* \"#utility.yul\":17166:17175   */\n      dup4\n        /* \"#utility.yul\":17147:17186   */\n      tag_462\n      jump\t// in\n    tag_658:\n        /* \"#utility.yul\":17135:17186   */\n      swap6\n      pop\n        /* \"#utility.yul\":17219:17223   */\n      dup1\n        /* \"#utility.yul\":17215:17224   */\n      not\n        /* \"#utility.yul\":17208:17213   */\n      dup5\n        /* \"#utility.yul\":17204:17225   */\n      and\n        /* \"#utility.yul\":17195:17225   */\n      swap4\n      pop\n        /* \"#utility.yul\":17268:17272   */\n      dup1\n        /* \"#utility.yul\":17258:17266   */\n      dup7\n        /* \"#utility.yul\":17254:17273   */\n      and\n        /* \"#utility.yul\":17247:17252   */\n      dup5\n        /* \"#utility.yul\":17244:17274   */\n      or\n        /* \"#utility.yul\":17234:17274   */\n      swap3\n      pop\n        /* \"#utility.yul\":16963:17280   */\n      pop\n      pop\n        /* \"#utility.yul\":16887:17280   */\n      swap4\n      swap3\n      pop\n      pop\n      pop\n      jump\t// out\n        /* \"#utility.yul\":17286:17346   */\n    tag_464:\n        /* \"#utility.yul\":17314:17317   */\n      0x00\n        /* \"#utility.yul\":17335:17340   */\n      dup2\n        /* \"#utility.yul\":17328:17340   */\n      swap1\n      pop\n        /* \"#utility.yul\":17286:17346   */\n      swap2\n      swap1\n      pop\n      jump\t// out\n        /* \"#utility.yul\":17352:17494   */\n    tag_465:\n        /* \"#utility.yul\":17402:17411   */\n      0x00\n        /* \"#utility.yul\":17435:17488   */\n      tag_661\n        /* \"#utility.yul\":17453:17487   */\n      tag_662\n        /* \"#utility.yul\":17462:17486   */\n      tag_663\n        /* \"#utility.yul\":17480:17485   */\n      dup5\n        /* \"#utility.yul\":17462:17486   */\n      tag_428\n      jump\t// in\n    tag_663:\n        /* \"#utility.yul\":17453:17487   */\n      tag_464\n      jump\t// in\n    tag_662:\n        /* \"#utility.yul\":17435:17488   */\n      tag_428\n      jump\t// in\n    tag_661:\n        /* \"#utility.yul\":17422:17488   */\n      swap1\n      pop\n        /* \"#utility.yul\":17352:17494   */\n      swap2\n      swap1\n      pop\n      jump\t// out\n        /* \"#utility.yul\":17500:17575   */\n    tag_466:\n        /* \"#utility.yul\":17543:17546   */\n      0x00\n        /* \"#utility.yul\":17564:17569   */\n      dup2\n        /* \"#utility.yul\":17557:17569   */\n      swap1\n      pop\n        /* \"#utility.yul\":17500:17575   */\n      swap2\n      swap1\n      pop\n      jump\t// out\n        /* \"#utility.yul\":17581:17850   */\n    tag_467:\n        /* \"#utility.yul\":17691:17730   */\n      tag_666\n        /* \"#utility.yul\":17722:17729   */\n      dup4\n        /* \"#utility.yul\":17691:17730   */\n      tag_465\n      jump\t// in\n    tag_666:\n        /* \"#utility.yul\":17752:17843   */\n      tag_667\n        /* \"#utility.yul\":17801:17842   */\n      tag_668\n        /* \"#utility.yul\":17825:17841   */\n      dup3\n        /* \"#utility.yul\":17801:17842   */\n      tag_466\n      jump\t// in\n    tag_668:\n        /* \"#utility.yul\":17793:17799   */\n      dup5\n        /* \"#utility.yul\":17786:17790   */\n      dup5\n        /* \"#utility.yul\":17780:17791   */\n      sload\n        /* \"#utility.yul\":17752:17843   */\n      tag_463\n      jump\t// in\n    tag_667:\n        /* \"#utility.yul\":17746:17750   */\n      dup3\n        /* \"#utility.yul\":17739:17844   */\n      sstore\n        /* \"#utility.yul\":17657:17850   */\n      pop\n        /* \"#utility.yul\":17581:17850   */\n      pop\n      pop\n      pop\n      jump\t// out\n        /* \"#utility.yul\":17856:17929   */\n    tag_468:\n        /* \"#utility.yul\":17901:17904   */\n      0x00\n        /* \"#utility.yul\":17922:17923   */\n      0x00\n        /* \"#utility.yul\":17915:17923   */\n      swap1\n      pop\n        /* \"#utility.yul\":17856:17929   */\n      swap1\n      jump\t// out\n        /* \"#utility.yul\":17935:18124   */\n    tag_469:\n        /* \"#utility.yul\":18012:18044   */\n      tag_671\n      tag_468\n      jump\t// in\n    tag_671:\n        /* \"#utility.yul\":18053:18118   */\n      tag_672\n        /* \"#utility.yul\":18111:18117   */\n      dup2\n        /* \"#utility.yul\":18103:18109   */\n      dup5\n        /* \"#utility.yul\":18097:18101   */\n      dup5\n        /* \"#utility.yul\":18053:18118   */\n      tag_467\n      jump\t// in\n    tag_672:\n        /* \"#utility.yul\":17988:18124   */\n      pop\n        /* \"#utility.yul\":17935:18124   */\n      pop\n      pop\n      jump\t// out\n        /* \"#utility.yul\":18130:18316   */\n    tag_470:\n        /* \"#utility.yul\":18190:18310   */\n    tag_674:\n        /* \"#utility.yul\":18207:18210   */\n      dup2\n        /* \"#utility.yul\":18200:18205   */\n      dup2\n        /* \"#utility.yul\":18197:18211   */\n      lt\n        /* \"#utility.yul\":18190:18310   */\n      iszero\n      tag_676\n      jumpi\n        /* \"#utility.yul\":18261:18300   */\n      tag_677\n        /* \"#utility.yul\":18298:18299   */\n      0x00\n        /* \"#utility.yul\":18291:18296   */\n      dup3\n        /* \"#utility.yul\":18261:18300   */\n      tag_469\n      jump\t// in\n    tag_677:\n        /* \"#utility.yul\":18234:18235   */\n      0x01\n        /* \"#utility.yul\":18227:18232   */\n      dup2\n        /* \"#utility.yul\":18223:18236   */\n      add\n        /* \"#utility.yul\":18214:18236   */\n      swap1\n      pop\n        /* \"#utility.yul\":18190:18310   */\n      jump(tag_674)\n    tag_676:\n        /* \"#utility.yul\":18130:18316   */\n      pop\n      pop\n      jump\t// out\n        /* \"#utility.yul\":18322:18865   */\n    tag_471:\n        /* \"#utility.yul\":18423:18425   */\n      0x1f\n        /* \"#utility.yul\":18418:18421   */\n      dup3\n        /* \"#utility.yul\":18415:18426   */\n      gt\n        /* \"#utility.yul\":18412:18858   */\n      iszero\n      tag_679\n      jumpi\n        /* \"#utility.yul\":18457:18495   */\n      tag_680\n        /* \"#utility.yul\":18489:18494   */\n      dup2\n        /* \"#utility.yul\":18457:18495   */\n      tag_460\n      jump\t// in\n    tag_680:\n        /* \"#utility.yul\":18541:18570   */\n      tag_681\n        /* \"#utility.yul\":18559:18569   */\n      dup5\n        /* \"#utility.yul\":18541:18570   */\n      tag_461\n      jump\t// in\n    tag_681:\n        /* \"#utility.yul\":18531:18539   */\n      dup2\n        /* \"#utility.yul\":18527:18571   */\n      add\n        /* \"#utility.yul\":18724:18726   */\n      0x20\n        /* \"#utility.yul\":18712:18722   */\n      dup6\n        /* \"#utility.yul\":18709:18727   */\n      lt\n        /* \"#utility.yul\":18706:18755   */\n      iszero\n      tag_682\n      jumpi\n        /* \"#utility.yul\":18745:18753   */\n      dup2\n        /* \"#utility.yul\":18730:18753   */\n      swap1\n      pop\n        /* \"#utility.yul\":18706:18755   */\n    tag_682:\n        /* \"#utility.yul\":18768:18848   */\n      tag_683\n        /* \"#utility.yul\":18824:18846   */\n      tag_684\n        /* \"#utility.yul\":18842:18845   */\n      dup6\n        /* \"#utility.yul\":18824:18846   */\n      tag_461\n      jump\t// in\n    tag_684:\n        /* \"#utility.yul\":18814:18822   */\n      dup4\n        /* \"#utility.yul\":18810:18847   */\n      add\n        /* \"#utility.yul\":18797:18808   */\n      dup3\n        /* \"#utility.yul\":18768:18848   */\n      tag_470\n      jump\t// in\n    tag_683:\n        /* \"#utility.yul\":18427:18858   */\n      pop\n      pop\n        /* \"#utility.yul\":18412:18858   */\n    tag_679:\n        /* \"#utility.yul\":18322:18865   */\n      pop\n      pop\n      pop\n      jump\t// out\n        /* \"#utility.yul\":18871:18988   */\n    tag_472:\n        /* \"#utility.yul\":18925:18933   */\n      0x00\n        /* \"#utility.yul\":18975:18980   */\n      dup3\n        /* \"#utility.yul\":18969:18973   */\n      dup3\n        /* \"#utility.yul\":18965:18981   */\n      shr\n        /* \"#utility.yul\":18944:18981   */\n      swap1\n      pop\n        /* \"#utility.yul\":18871:18988   */\n      swap3\n      swap2\n      pop\n      pop\n      jump\t// out\n        /* \"#utility.yul\":18994:19163   */\n    tag_473:\n        /* \"#utility.yul\":19038:19044   */\n      0x00\n        /* \"#utility.yul\":19071:19122   */\n      tag_687\n        /* \"#utility.yul\":19119:19120   */\n      0x00\n        /* \"#utility.yul\":19115:19121   */\n      not\n        /* \"#utility.yul\":19107:19112   */\n      dup5\n        /* \"#utility.yul\":19104:19105   */\n      0x08\n        /* \"#utility.yul\":19100:19113   */\n      mul\n        /* \"#utility.yul\":19071:19122   */\n      tag_472\n      jump\t// in\n    tag_687:\n        /* \"#utility.yul\":19067:19123   */\n      not\n        /* \"#utility.yul\":19152:19156   */\n      dup1\n        /* \"#utility.yul\":19146:19150   */\n      dup4\n        /* \"#utility.yul\":19142:19157   */\n      and\n        /* \"#utility.yul\":19132:19157   */\n      swap2\n      pop\n        /* \"#utility.yul\":19045:19163   */\n      pop\n        /* \"#utility.yul\":18994:19163   */\n      swap3\n      swap2\n      pop\n      pop\n      jump\t// out\n        /* \"#utility.yul\":19168:19463   */\n    tag_474:\n        /* \"#utility.yul\":19244:19248   */\n      0x00\n        /* \"#utility.yul\":19390:19419   */\n      tag_689\n        /* \"#utility.yul\":19415:19418   */\n      dup4\n        /* \"#utility.yul\":19409:19413   */\n      dup4\n        /* \"#utility.yul\":19390:19419   */\n      tag_473\n      jump\t// in\n    tag_689:\n        /* \"#utility.yul\":19382:19419   */\n      swap2\n      pop\n        /* \"#utility.yul\":19452:19455   */\n      dup3\n        /* \"#utility.yul\":19449:19450   */\n      0x02\n        /* \"#utility.yul\":19445:19456   */\n      mul\n        /* \"#utility.yul\":19439:19443   */\n      dup3\n        /* \"#utility.yul\":19436:19457   */\n      or\n        /* \"#utility.yul\":19428:19457   */\n      swap1\n      pop\n        /* \"#utility.yul\":19168:19463   */\n      swap3\n      swap2\n      pop\n      pop\n      jump\t// out\n        /* \"#utility.yul\":19468:20863   */\n    tag_311:\n        /* \"#utility.yul\":19585:19622   */\n      tag_691\n        /* \"#utility.yul\":19618:19621   */\n      dup3\n        /* \"#utility.yul\":19585:19622   */\n      tag_416\n      jump\t// in\n    tag_691:\n        /* \"#utility.yul\":19687:19705   */\n      0xffffffffffffffff\n        /* \"#utility.yul\":19679:19685   */\n      dup2\n        /* \"#utility.yul\":19676:19706   */\n      gt\n        /* \"#utility.yul\":19673:19729   */\n      iszero\n      tag_692\n      jumpi\n        /* \"#utility.yul\":19709:19727   */\n      tag_693\n      tag_438\n      jump\t// in\n    tag_693:\n        /* \"#utility.yul\":19673:19729   */\n    tag_692:\n        /* \"#utility.yul\":19753:19791   */\n      tag_694\n        /* \"#utility.yul\":19785:19789   */\n      dup3\n        /* \"#utility.yul\":19779:19790   */\n      sload\n        /* \"#utility.yul\":19753:19791   */\n      tag_252\n      jump\t// in\n    tag_694:\n        /* \"#utility.yul\":19838:19905   */\n      tag_695\n        /* \"#utility.yul\":19898:19904   */\n      dup3\n        /* \"#utility.yul\":19890:19896   */\n      dup3\n        /* \"#utility.yul\":19884:19888   */\n      dup6\n        /* \"#utility.yul\":19838:19905   */\n      tag_471\n      jump\t// in\n    tag_695:\n        /* \"#utility.yul\":19932:19933   */\n      0x00\n        /* \"#utility.yul\":19956:19960   */\n      0x20\n        /* \"#utility.yul\":19943:19960   */\n      swap1\n      pop\n        /* \"#utility.yul\":19988:19990   */\n      0x1f\n        /* \"#utility.yul\":19980:19986   */\n      dup4\n        /* \"#utility.yul\":19977:19991   */\n      gt\n        /* \"#utility.yul\":20005:20006   */\n      0x01\n        /* \"#utility.yul\":20000:20618   */\n      dup2\n      eq\n      tag_697\n      jumpi\n        /* \"#utility.yul\":20662:20663   */\n      0x00\n        /* \"#utility.yul\":20679:20685   */\n      dup5\n        /* \"#utility.yul\":20676:20753   */\n      iszero\n      tag_698\n      jumpi\n        /* \"#utility.yul\":20728:20737   */\n      dup3\n        /* \"#utility.yul\":20723:20726   */\n      dup8\n        /* \"#utility.yul\":20719:20738   */\n      add\n        /* \"#utility.yul\":20713:20739   */\n      mload\n        /* \"#utility.yul\":20704:20739   */\n      swap1\n      pop\n        /* \"#utility.yul\":20676:20753   */\n    tag_698:\n        /* \"#utility.yul\":20779:20846   */\n      tag_699\n        /* \"#utility.yul\":20839:20845   */\n      dup6\n        /* \"#utility.yul\":20832:20837   */\n      dup3\n        /* \"#utility.yul\":20779:20846   */\n      tag_474\n      jump\t// in\n    tag_699:\n        /* \"#utility.yul\":20773:20777   */\n      dup7\n        /* \"#utility.yul\":20766:20847   */\n      sstore\n        /* \"#utility.yul\":20635:20857   */\n      pop\n        /* \"#utility.yul\":19970:20857   */\n      jump(tag_696)\n        /* \"#utility.yul\":20000:20618   */\n    tag_697:\n        /* \"#utility.yul\":20052:20056   */\n      0x1f\n        /* \"#utility.yul\":20048:20057   */\n      not\n        /* \"#utility.yul\":20040:20046   */\n      dup5\n        /* \"#utility.yul\":20036:20058   */\n      and\n        /* \"#utility.yul\":20086:20123   */\n      tag_700\n        /* \"#utility.yul\":20118:20122   */\n      dup7\n        /* \"#utility.yul\":20086:20123   */\n      tag_460\n      jump\t// in\n    tag_700:\n        /* \"#utility.yul\":20145:20146   */\n      0x00\n        /* \"#utility.yul\":20159:20367   */\n    tag_701:\n        /* \"#utility.yul\":20173:20180   */\n      dup3\n        /* \"#utility.yul\":20170:20171   */\n      dup2\n        /* \"#utility.yul\":20167:20181   */\n      lt\n        /* \"#utility.yul\":20159:20367   */\n      iszero\n      tag_703\n      jumpi\n        /* \"#utility.yul\":20252:20261   */\n      dup5\n        /* \"#utility.yul\":20247:20250   */\n      dup10\n        /* \"#utility.yul\":20243:20262   */\n      add\n        /* \"#utility.yul\":20237:20263   */\n      mload\n        /* \"#utility.yul\":20229:20235   */\n      dup3\n        /* \"#utility.yul\":20222:20264   */\n      sstore\n        /* \"#utility.yul\":20303:20304   */\n      0x01\n        /* \"#utility.yul\":20295:20301   */\n      dup3\n        /* \"#utility.yul\":20291:20305   */\n      add\n        /* \"#utility.yul\":20281:20305   */\n      swap2\n      pop\n        /* \"#utility.yul\":20350:20352   */\n      0x20\n        /* \"#utility.yul\":20339:20348   */\n      dup6\n        /* \"#utility.yul\":20335:20353   */\n      add\n        /* \"#utility.yul\":20322:20353   */\n      swap5\n      pop\n        /* \"#utility.yul\":20196:20200   */\n      0x20\n        /* \"#utility.yul\":20193:20194   */\n      dup2\n        /* \"#utility.yul\":20189:20201   */\n      add\n        /* \"#utility.yul\":20184:20201   */\n      swap1\n      pop\n        /* \"#utility.yul\":20159:20367   */\n      jump(tag_701)\n    tag_703:\n        /* \"#utility.yul\":20395:20401   */\n      dup7\n        /* \"#utility.yul\":20386:20393   */\n      dup4\n        /* \"#utility.yul\":20383:20402   */\n      lt\n        /* \"#utility.yul\":20380:20559   */\n      iszero\n      tag_704\n      jumpi\n        /* \"#utility.yul\":20453:20462   */\n      dup5\n        /* \"#utility.yul\":20448:20451   */\n      dup10\n        /* \"#utility.yul\":20444:20463   */\n      add\n        /* \"#utility.yul\":20438:20464   */\n      mload\n        /* \"#utility.yul\":20496:20544   */\n      tag_705\n        /* \"#utility.yul\":20538:20542   */\n      0x1f\n        /* \"#utility.yul\":20530:20536   */\n      dup10\n        /* \"#utility.yul\":20526:20543   */\n      and\n        /* \"#utility.yul\":20515:20524   */\n      dup3\n        /* \"#utility.yul\":20496:20544   */\n      tag_473\n      jump\t// in\n    tag_705:\n        /* \"#utility.yul\":20488:20494   */\n      dup4\n        /* \"#utility.yul\":20481:20545   */\n      sstore\n        /* \"#utility.yul\":20403:20559   */\n      pop\n        /* \"#utility.yul\":20380:20559   */\n    tag_704:\n        /* \"#utility.yul\":20605:20606   */\n      0x01\n        /* \"#utility.yul\":20601:20602   */\n      0x02\n        /* \"#utility.yul\":20593:20599   */\n      dup9\n        /* \"#utility.yul\":20589:20603   */\n      mul\n        /* \"#utility.yul\":20585:20607   */\n      add\n        /* \"#utility.yul\":20579:20583   */\n      dup9\n        /* \"#utility.yul\":20572:20608   */\n      sstore\n        /* \"#utility.yul\":20007:20618   */\n      pop\n      pop\n      pop\n        /* \"#utility.yul\":19970:20857   */\n    tag_696:\n      pop\n        /* \"#utility.yul\":19560:20863   */\n      pop\n      pop\n      pop\n        /* \"#utility.yul\":19468:20863   */\n      pop\n      pop\n      jump\t// out\n        /* \"#utility.yul\":20869:21060   */\n    tag_340:\n        /* \"#utility.yul\":20909:20912   */\n      0x00\n        /* \"#utility.yul\":20928:20948   */\n      tag_707\n        /* \"#utility.yul\":20946:20947   */\n      dup3\n        /* \"#utility.yul\":20928:20948   */\n      tag_428\n      jump\t// in\n    tag_707:\n        /* \"#utility.yul\":20923:20948   */\n      swap2\n      pop\n        /* \"#utility.yul\":20962:20982   */\n      tag_708\n        /* \"#utility.yul\":20980:20981   */\n      dup4\n        /* \"#utility.yul\":20962:20982   */\n      tag_428\n      jump\t// in\n    tag_708:\n        /* \"#utility.yul\":20957:20982   */\n      swap3\n      pop\n        /* \"#utility.yul\":21005:21006   */\n      dup3\n        /* \"#utility.yul\":21002:21003   */\n      dup3\n        /* \"#utility.yul\":20998:21007   */\n      add\n        /* \"#utility.yul\":20991:21007   */\n      swap1\n      pop\n        /* \"#utility.yul\":21026:21029   */\n      dup1\n        /* \"#utility.yul\":21023:21024   */\n      dup3\n        /* \"#utility.yul\":21020:21030   */\n      gt\n        /* \"#utility.yul\":21017:21053   */\n      iszero\n      tag_709\n      jumpi\n        /* \"#utility.yul\":21033:21051   */\n      tag_710\n      tag_459\n      jump\t// in\n    tag_710:\n        /* \"#utility.yul\":21017:21053   */\n    tag_709:\n        /* \"#utility.yul\":20869:21060   */\n      swap3\n      swap2\n      pop\n      pop\n      jump\t// out\n\n    auxdata: 0xa264697066735822122026804304d11abbff6196186328c667af64c2ca5b06b3e7dece902e5591656b3364736f6c634300081e0033\n}\n",
				"bytecode": {
					"linkReferences": {},
					"object": "6132e961004d600b8282823980515f1a6073146041577f4e487b71000000000000000000000000000000000000000000000000000000005f525f60045260245ffd5b305f52607381538281f3fe730000000000000000000000000000000000000000301460806040526004361061029e575f3560e01c8063821abc2d11610170578063b0d4ce25116100d7578063ddca3f4311610090578063ddca3f43146108ba578063dec84db1146108d8578063e149f03614610900578063e68fdee114610930578063edc3bc3f14610958578063f589b754146109885761029e565b8063b0d4ce25146107d6578063b62d8b91146107fe578063d01251521461082e578063d20b6ee714610856578063d547cfb714610874578063dbe0b21c146108925761029e565b8063963bfe1211610129578063963bfe12146106f257806398995f7714610710578063a05cc5591461072e578063a330117314610756578063a7cc01361461077e578063ad715f2e146107ae5761029e565b8063821abc2d14610616578063830d40911461063e578063854f9db9146106665780638fca4dbe1461068e5780639451c99a146106b657806395d89b41146106d45761029e565b806339b37ab0116102145780634f4979ed116101cd5780634f4979ed146105325780635b43bc991461055a5780636c8b703f146105825780636ff97f1d146105b257806374e24367146105d0578063810536ec146106005761029e565b806339b37ab01461044457806340e02f5c1461046c57806341bb05591461049457806344faf255146104bc57806347f69eba146104da57806349a0a50e1461050a5761029e565b8063247c6ce011610266578063247c6ce01461035e57806331413efc1461038657806332b07b43146103ae57806333171809146103d6578063345e7b28146103f45780633802497b1461041c5761029e565b806306fdde03146102a2578063071bc71c146102c057806313c19ff6146102e857806319f862001461031057806321b0ed7d1461032e575b5f5ffd5b6102aa6109a6565b6040516102b7919061281f565b60405180910390f35b8180156102cb575f5ffd5b506102e660048036038101906102e191906128dd565b610a7c565b005b8180156102f3575f5ffd5b5061030e6004803603810190610309919061292d565b610d5e565b005b610318610df9565b6040516103259190612983565b60405180910390f35b6103486004803603810190610343919061299c565b610e48565b60405161035591906129d6565b60405180910390f35b818015610369575f5ffd5b50610384600480360381019061037f9190612a19565b610ed4565b005b818015610391575f5ffd5b506103ac60048036038101906103a7919061299c565b610f24565b005b8180156103b9575f5ffd5b506103d460048036038101906103cf9190612a44565b61103e565b005b6103de61108e565b6040516103eb9190612983565b60405180910390f35b8180156103ff575f5ffd5b5061041a60048036038101906104159190612a44565b6110dd565b005b818015610427575f5ffd5b50610442600480360381019061043d9190612a19565b61112d565b005b81801561044f575f5ffd5b5061046a60048036038101906104659190612a44565b61117d565b005b818015610477575f5ffd5b50610492600480360381019061048d9190612a44565b6111cd565b005b81801561049f575f5ffd5b506104ba60048036038101906104b59190612b9b565b611477565b005b6104c46114d0565b6040516104d191906129d6565b60405180910390f35b6104f460048036038101906104ef9190612a44565b61151f565b60405161050191906129d6565b60405180910390f35b818015610515575f5ffd5b50610530600480360381019061052b91906128dd565b61157f565b005b81801561053d575f5ffd5b50610558600480360381019061055391906128dd565b61161b565b005b818015610565575f5ffd5b50610580600480360381019061057b9190612b9b565b611713565b005b61059c60048036038101906105979190612a44565b61176c565b6040516105a9919061281f565b60405180910390f35b6105ba611853565b6040516105c79190612c99565b60405180910390f35b6105ea60048036038101906105e59190612a44565b6118ef565b6040516105f791906129d6565b60405180910390f35b81801561060b575f5ffd5b5061061461194f565b005b818015610621575f5ffd5b5061063c60048036038101906106379190612b9b565b6119f7565b005b818015610649575f5ffd5b50610664600480360381019061065f9190612cee565b611a50565b005b818015610671575f5ffd5b5061068c60048036038101906106879190612a19565b611b2a565b005b818015610699575f5ffd5b506106b460048036038101906106af9190612a44565b611b7a565b005b6106be611bca565b6040516106cb91906129d6565b60405180910390f35b6106dc611c19565b6040516106e9919061281f565b60405180910390f35b6106fa611cef565b604051610707919061281f565b60405180910390f35b610718611dc5565b60405161072591906129d6565b60405180910390f35b818015610739575f5ffd5b50610754600480360381019061074f9190612b9b565b611e14565b005b818015610761575f5ffd5b5061077c60048036038101906107779190612d3e565b611e6c565b005b61079860048036038101906107939190612a44565b611ef8565b6040516107a59190612da5565b60405180910390f35b8180156107b9575f5ffd5b506107d460048036038101906107cf9190612dbe565b611fbd565b005b8180156107e1575f5ffd5b506107fc60048036038101906107f79190612dfc565b61201d565b005b6108186004803603810190610813919061299c565b6120bb565b6040516108259190612e49565b60405180910390f35b818015610839575f5ffd5b50610854600480360381019061084f919061299c565b612153565b005b61085e61226d565b60405161086b91906129d6565b60405180910390f35b61087c6122bc565b604051610889919061281f565b60405180910390f35b81801561089d575f5ffd5b506108b860048036038101906108b39190612a44565b612391565b005b6108c26124a7565b6040516108cf91906129d6565b60405180910390f35b8180156108e3575f5ffd5b506108fe60048036038101906108f99190612e62565b6124f6565b005b61091a60048036038101906109159190612d3e565b61255f565b60405161092791906129d6565b60405180910390f35b81801561093b575f5ffd5b5061095660048036038101906109519190612dbe565b6125fb565b005b610972600480360381019061096d9190612ebc565b61265b565b60405161097f9190612e49565b60405180910390f35b61099061272f565b60405161099d9190612983565b60405180910390f35b60606109ed6040518060400160405280600681526020017f534d45616d6200000000000000000000000000000000000000000000000000008152508051906020012061277e565b600e0180546109fb90612f27565b80601f0160208091040260200160405190810160405280929190818152602001828054610a2790612f27565b8015610a725780601f10610a4957610100808354040283529160200191610a72565b820191905f5260205f20905b815481529060010190602001808311610a5557829003601f168201915b5050505050905090565b5f610ac26040518060400160405280600681526020017f534d45616d6200000000000000000000000000000000000000000000000000008152508051906020012061277e565b6004015f8481526020019081526020015f20549050818114610c69575f610b246040518060400160405280600681526020017f534d45616d6200000000000000000000000000000000000000000000000000008152508051906020012061277e565b6003015f8673ffffffffffffffffffffffffffffffffffffffff1673ffffffffffffffffffffffffffffffffffffffff1681526020019081526020015f205f8481526020019081526020015f2054905080610bba6040518060400160405280600681526020017f534d45616d6200000000000000000000000000000000000000000000000000008152508051906020012061277e565b6003015f8773ffffffffffffffffffffffffffffffffffffffff1673ffffffffffffffffffffffffffffffffffffffff1681526020019081526020015f205f8481526020019081526020015f208190555081610c516040518060400160405280600681526020017f534d45616d6200000000000000000000000000000000000000000000000000008152508051906020012061277e565b6004015f8381526020019081526020015f2081905550505b610cae6040518060400160405280600681526020017f534d45616d6200000000000000000000000000000000000000000000000000008152508051906020012061277e565b6004015f8481526020019081526020015f205f9055610d086040518060400160405280600681526020017f534d45616d6200000000000000000000000000000000000000000000000000008152508051906020012061277e565b6003015f8573ffffffffffffffffffffffffffffffffffffffff1673ffffffffffffffffffffffffffffffffffffffff1681526020019081526020015f205f8381526020019081526020015f205f905550505050565b80610da46040518060400160405280600681526020017f534d45616d6200000000000000000000000000000000000000000000000000008152508051906020012061277e565b6012015f8481526020019081526020015f205f015f6101000a81548173ffffffffffffffffffffffffffffffffffffffff021916908373ffffffffffffffffffffffffffffffffffffffff1602179055505050565b5f610e3f6040518060400160405280600681526020017f534d45616d6200000000000000000000000000000000000000000000000000008152508051906020012061277e565b60070154905090565b5f610e8e6040518060400160405280600681526020017f534d45616d6200000000000000000000000000000000000000000000000000008152508051906020012061277e565b6011015f8373ffffffffffffffffffffffffffffffffffffffff1673ffffffffffffffffffffffffffffffffffffffff1681526020019081526020015f20549050919050565b80610f1a6040518060400160405280600681526020017f534d45616d6200000000000000000000000000000000000000000000000000008152508051906020012061277e565b6009018190555050565b6001610f6b6040518060400160405280600681526020017f534d45616d6200000000000000000000000000000000000000000000000000008152508051906020012061277e565b6011015f8373ffffffffffffffffffffffffffffffffffffffff1673ffffffffffffffffffffffffffffffffffffffff1681526020019081526020015f2054610fb49190612f84565b610ff96040518060400160405280600681526020017f534d45616d6200000000000000000000000000000000000000000000000000008152508051906020012061277e565b6011015f8373ffffffffffffffffffffffffffffffffffffffff1673ffffffffffffffffffffffffffffffffffffffff1681526020019081526020015f208190555050565b806110846040518060400160405280600681526020017f534d45616d6200000000000000000000000000000000000000000000000000008152508051906020012061277e565b6015018190555050565b5f6110d46040518060400160405280600681526020017f534d45616d6200000000000000000000000000000000000000000000000000008152508051906020012061277e565b60090154905090565b806111236040518060400160405280600681526020017f534d45616d6200000000000000000000000000000000000000000000000000008152508051906020012061277e565b600c018190555050565b806111736040518060400160405280600681526020017f534d45616d6200000000000000000000000000000000000000000000000000008152508051906020012061277e565b6007018190555050565b806111c36040518060400160405280600681526020017f534d45616d6200000000000000000000000000000000000000000000000000008152508051906020012061277e565b600a018190555050565b5f60016112156040518060400160405280600681526020017f534d45616d6200000000000000000000000000000000000000000000000000008152508051906020012061277e565b600501805490506112269190612f84565b90505f61126e6040518060400160405280600681526020017f534d45616d6200000000000000000000000000000000000000000000000000008152508051906020012061277e565b6006015f8481526020019081526020015f205490505f6112c96040518060400160405280600681526020017f534d45616d6200000000000000000000000000000000000000000000000000008152508051906020012061277e565b60050183815481106112de576112dd612fb7565b5b905f5260205f20015490508061132f6040518060400160405280600681526020017f534d45616d6200000000000000000000000000000000000000000000000000008152508051906020012061277e565b600501838154811061134457611343612fb7565b5b905f5260205f200181905550816113966040518060400160405280600681526020017f534d45616d6200000000000000000000000000000000000000000000000000008152508051906020012061277e565b6006015f8381526020019081526020015f20819055506113f16040518060400160405280600681526020017f534d45616d6200000000000000000000000000000000000000000000000000008152508051906020012061277e565b6006015f8581526020019081526020015f205f905561144b6040518060400160405280600681526020017f534d45616d6200000000000000000000000000000000000000000000000000008152508051906020012061277e565b60050180548061145e5761145d612fe4565b5b600190038181905f5260205f20015f9055905550505050565b806114bd6040518060400160405280600681526020017f534d45616d6200000000000000000000000000000000000000000000000000008152508051906020012061277e565b600f0190816114cc91906131b1565b5050565b5f6115166040518060400160405280600681526020017f534d45616d6200000000000000000000000000000000000000000000000000008152508051906020012061277e565b600d0154905090565b5f6115656040518060400160405280600681526020017f534d45616d6200000000000000000000000000000000000000000000000000008152508051906020012061277e565b6010015f8381526020019081526020015f20549050919050565b806115c56040518060400160405280600681526020017f534d45616d6200000000000000000000000000000000000000000000000000008152508051906020012061277e565b6003015f8573ffffffffffffffffffffffffffffffffffffffff1673ffffffffffffffffffffffffffffffffffffffff1681526020019081526020015f205f8481526020019081526020015f2081905550505050565b816116616040518060400160405280600681526020017f534d45616d6200000000000000000000000000000000000000000000000000008152508051906020012061277e565b6003015f8573ffffffffffffffffffffffffffffffffffffffff1673ffffffffffffffffffffffffffffffffffffffff1681526020019081526020015f205f8381526020019081526020015f2081905550806116f86040518060400160405280600681526020017f534d45616d6200000000000000000000000000000000000000000000000000008152508051906020012061277e565b6004015f8481526020019081526020015f2081905550505050565b806117596040518060400160405280600681526020017f534d45616d6200000000000000000000000000000000000000000000000000008152508051906020012061277e565b600e01908161176891906131b1565b5050565b60606117b36040518060400160405280600681526020017f534d45616d6200000000000000000000000000000000000000000000000000008152508051906020012061277e565b6002015f8381526020019081526020015f2080546117d090612f27565b80601f01602080910402602001604051908101604052809291908181526020018280546117fc90612f27565b80156118475780601f1061181e57610100808354040283529160200191611847565b820191905f5260205f20905b81548152906001019060200180831161182a57829003601f168201915b50505050509050919050565b606061189a6040518060400160405280600681526020017f534d45616d6200000000000000000000000000000000000000000000000000008152508051906020012061277e565b6005018054806020026020016040519081016040528092919081815260200182805480156118e557602002820191905f5260205f20905b8154815260200190600101908083116118d1575b5050505050905090565b5f6119356040518060400160405280600681526020017f534d45616d6200000000000000000000000000000000000000000000000000008152508051906020012061277e565b6004015f8381526020019081526020015f20549050919050565b5f6119956040518060400160405280600681526020017f534d45616d6200000000000000000000000000000000000000000000000000008152508051906020012061277e565b6014015490506001816119a89190613280565b6119ed6040518060400160405280600681526020017f534d45616d6200000000000000000000000000000000000000000000000000008152508051906020012061277e565b6014018190555050565b80611a3d6040518060400160405280600681526020017f534d45616d6200000000000000000000000000000000000000000000000000008152508051906020012061277e565b6001019081611a4c91906131b1565b5050565b80611a966040518060400160405280600681526020017f534d45616d6200000000000000000000000000000000000000000000000000008152508051906020012061277e565b6013015f8573ffffffffffffffffffffffffffffffffffffffff1673ffffffffffffffffffffffffffffffffffffffff1681526020019081526020015f205f8473ffffffffffffffffffffffffffffffffffffffff1673ffffffffffffffffffffffffffffffffffffffff1681526020019081526020015f205f6101000a81548160ff021916908315150217905550505050565b80611b706040518060400160405280600681526020017f534d45616d6200000000000000000000000000000000000000000000000000008152508051906020012061277e565b6008018190555050565b80611bc06040518060400160405280600681526020017f534d45616d6200000000000000000000000000000000000000000000000000008152508051906020012061277e565b600d018190555050565b5f611c106040518060400160405280600681526020017f534d45616d6200000000000000000000000000000000000000000000000000008152508051906020012061277e565b600c0154905090565b6060611c606040518060400160405280600681526020017f534d45616d6200000000000000000000000000000000000000000000000000008152508051906020012061277e565b600f018054611c6e90612f27565b80601f0160208091040260200160405190810160405280929190818152602001828054611c9a90612f27565b8015611ce55780601f10611cbc57610100808354040283529160200191611ce5565b820191905f5260205f20905b815481529060010190602001808311611cc857829003601f168201915b5050505050905090565b6060611d366040518060400160405280600681526020017f534d45616d6200000000000000000000000000000000000000000000000000008152508051906020012061277e565b6001018054611d4490612f27565b80601f0160208091040260200160405190810160405280929190818152602001828054611d7090612f27565b8015611dbb5780601f10611d9257610100808354040283529160200191611dbb565b820191905f5260205f20905b815481529060010190602001808311611d9e57829003601f168201915b5050505050905090565b5f611e0b6040518060400160405280600681526020017f534d45616d6200000000000000000000000000000000000000000000000000008152508051906020012061277e565b60150154905090565b80611e5a6040518060400160405280600681526020017f534d45616d6200000000000000000000000000000000000000000000000000008152508051906020012061277e565b5f019081611e6891906131b1565b5050565b80611eb26040518060400160405280600681526020017f534d45616d6200000000000000000000000000000000000000000000000000008152508051906020012061277e565b6011015f8473ffffffffffffffffffffffffffffffffffffffff1673ffffffffffffffffffffffffffffffffffffffff1681526020019081526020015f20819055505050565b611f00612787565b611f456040518060400160405280600681526020017f534d45616d6200000000000000000000000000000000000000000000000000008152508051906020012061277e565b6012015f8381526020019081526020015f206040518060200160405290815f82015f9054906101000a900473ffffffffffffffffffffffffffffffffffffffff1673ffffffffffffffffffffffffffffffffffffffff1673ffffffffffffffffffffffffffffffffffffffff16815250509050919050565b806120036040518060400160405280600681526020017f534d45616d6200000000000000000000000000000000000000000000000000008152508051906020012061277e565b6004015f8481526020019081526020015f20819055505050565b806120636040518060400160405280600681526020017f534d45616d6200000000000000000000000000000000000000000000000000008152508051906020012061277e565b600b015f8473ffffffffffffffffffffffffffffffffffffffff1673ffffffffffffffffffffffffffffffffffffffff1681526020019081526020015f205f6101000a81548160ff0219169083151502179055505050565b5f6121016040518060400160405280600681526020017f534d45616d6200000000000000000000000000000000000000000000000000008152508051906020012061277e565b600b015f8373ffffffffffffffffffffffffffffffffffffffff1673ffffffffffffffffffffffffffffffffffffffff1681526020019081526020015f205f9054906101000a900460ff169050919050565b600161219a6040518060400160405280600681526020017f534d45616d6200000000000000000000000000000000000000000000000000008152508051906020012061277e565b6011015f8373ffffffffffffffffffffffffffffffffffffffff1673ffffffffffffffffffffffffffffffffffffffff1681526020019081526020015f20546121e39190613280565b6122286040518060400160405280600681526020017f534d45616d6200000000000000000000000000000000000000000000000000008152508051906020012061277e565b6011015f8373ffffffffffffffffffffffffffffffffffffffff1673ffffffffffffffffffffffffffffffffffffffff1681526020019081526020015f208190555050565b5f6122b36040518060400160405280600681526020017f534d45616d6200000000000000000000000000000000000000000000000000008152508051906020012061277e565b60140154905090565b60606123036040518060400160405280600681526020017f534d45616d6200000000000000000000000000000000000000000000000000008152508051906020012061277e565b5f01805461231090612f27565b80601f016020809104026020016040519081016040528092919081815260200182805461233c90612f27565b80156123875780601f1061235e57610100808354040283529160200191612387565b820191905f5260205f20905b81548152906001019060200180831161236a57829003601f168201915b5050505050905090565b6123d66040518060400160405280600681526020017f534d45616d6200000000000000000000000000000000000000000000000000008152508051906020012061277e565b600501805490506124226040518060400160405280600681526020017f534d45616d6200000000000000000000000000000000000000000000000000008152508051906020012061277e565b6006015f8381526020019081526020015f208190555061247d6040518060400160405280600681526020017f534d45616d6200000000000000000000000000000000000000000000000000008152508051906020012061277e565b60050181908060018154018082558091505060019003905f5260205f20015f909190919091505550565b5f6124ed6040518060400160405280600681526020017f534d45616d6200000000000000000000000000000000000000000000000000008152508051906020012061277e565b600a0154905090565b8161253c6040518060400160405280600681526020017f534d45616d6200000000000000000000000000000000000000000000000000008152508051906020012061277e565b6002015f8381526020019081526020015f20908161255a91906131b1565b505050565b5f6125a56040518060400160405280600681526020017f534d45616d6200000000000000000000000000000000000000000000000000008152508051906020012061277e565b6003015f8473ffffffffffffffffffffffffffffffffffffffff1673ffffffffffffffffffffffffffffffffffffffff1681526020019081526020015f205f8381526020019081526020015f2054905092915050565b806126416040518060400160405280600681526020017f534d45616d6200000000000000000000000000000000000000000000000000008152508051906020012061277e565b6010015f8481526020019081526020015f20819055505050565b5f6126a16040518060400160405280600681526020017f534d45616d6200000000000000000000000000000000000000000000000000008152508051906020012061277e565b6013015f8473ffffffffffffffffffffffffffffffffffffffff1673ffffffffffffffffffffffffffffffffffffffff1681526020019081526020015f205f8373ffffffffffffffffffffffffffffffffffffffff1673ffffffffffffffffffffffffffffffffffffffff1681526020019081526020015f205f9054906101000a900460ff16905092915050565b5f6127756040518060400160405280600681526020017f534d45616d6200000000000000000000000000000000000000000000000000008152508051906020012061277e565b60080154905090565b5f819050919050565b60405180602001604052805f73ffffffffffffffffffffffffffffffffffffffff1681525090565b5f81519050919050565b5f82825260208201905092915050565b8281835e5f83830152505050565b5f601f19601f8301169050919050565b5f6127f1826127af565b6127fb81856127b9565b935061280b8185602086016127c9565b612814816127d7565b840191505092915050565b5f6020820190508181035f83015261283781846127e7565b905092915050565b5f604051905090565b5f5ffd5b5f5ffd5b5f73ffffffffffffffffffffffffffffffffffffffff82169050919050565b5f61287982612850565b9050919050565b6128898161286f565b8114612893575f5ffd5b50565b5f813590506128a481612880565b92915050565b5f819050919050565b6128bc816128aa565b81146128c6575f5ffd5b50565b5f813590506128d7816128b3565b92915050565b5f5f5f606084860312156128f4576128f3612848565b5b5f61290186828701612896565b9350506020612912868287016128c9565b9250506040612923868287016128c9565b9150509250925092565b5f5f6040838503121561294357612942612848565b5b5f612950858286016128c9565b925050602061296185828601612896565b9150509250929050565b5f819050919050565b61297d8161296b565b82525050565b5f6020820190506129965f830184612974565b92915050565b5f602082840312156129b1576129b0612848565b5b5f6129be84828501612896565b91505092915050565b6129d0816128aa565b82525050565b5f6020820190506129e95f8301846129c7565b92915050565b6129f88161296b565b8114612a02575f5ffd5b50565b5f81359050612a13816129ef565b92915050565b5f60208284031215612a2e57612a2d612848565b5b5f612a3b84828501612a05565b91505092915050565b5f60208284031215612a5957612a58612848565b5b5f612a66848285016128c9565b91505092915050565b5f5ffd5b5f5ffd5b7f4e487b71000000000000000000000000000000000000000000000000000000005f52604160045260245ffd5b612aad826127d7565b810181811067ffffffffffffffff82111715612acc57612acb612a77565b5b80604052505050565b5f612ade61283f565b9050612aea8282612aa4565b919050565b5f67ffffffffffffffff821115612b0957612b08612a77565b5b612b12826127d7565b9050602081019050919050565b828183375f83830152505050565b5f612b3f612b3a84612aef565b612ad5565b905082815260208101848484011115612b5b57612b5a612a73565b5b612b66848285612b1f565b509392505050565b5f82601f830112612b8257612b81612a6f565b5b8135612b92848260208601612b2d565b91505092915050565b5f60208284031215612bb057612baf612848565b5b5f82013567ffffffffffffffff811115612bcd57612bcc61284c565b5b612bd984828501612b6e565b91505092915050565b5f81519050919050565b5f82825260208201905092915050565b5f819050602082019050919050565b612c14816128aa565b82525050565b5f612c258383612c0b565b60208301905092915050565b5f602082019050919050565b5f612c4782612be2565b612c518185612bec565b9350612c5c83612bfc565b805f5b83811015612c8c578151612c738882612c1a565b9750612c7e83612c31565b925050600181019050612c5f565b5085935050505092915050565b5f6020820190508181035f830152612cb18184612c3d565b905092915050565b5f8115159050919050565b612ccd81612cb9565b8114612cd7575f5ffd5b50565b5f81359050612ce881612cc4565b92915050565b5f5f5f60608486031215612d0557612d04612848565b5b5f612d1286828701612896565b9350506020612d2386828701612896565b9250506040612d3486828701612cda565b9150509250925092565b5f5f60408385031215612d5457612d53612848565b5b5f612d6185828601612896565b9250506020612d72858286016128c9565b9150509250929050565b612d858161286f565b82525050565b602082015f820151612d9f5f850182612d7c565b50505050565b5f602082019050612db85f830184612d8b565b92915050565b5f5f60408385031215612dd457612dd3612848565b5b5f612de1858286016128c9565b9250506020612df2858286016128c9565b9150509250929050565b5f5f60408385031215612e1257612e11612848565b5b5f612e1f85828601612896565b9250506020612e3085828601612cda565b9150509250929050565b612e4381612cb9565b82525050565b5f602082019050612e5c5f830184612e3a565b92915050565b5f5f60408385031215612e7857612e77612848565b5b5f83013567ffffffffffffffff811115612e9557612e9461284c565b5b612ea185828601612b6e565b9250506020612eb2858286016128c9565b9150509250929050565b5f5f60408385031215612ed257612ed1612848565b5b5f612edf85828601612896565b9250506020612ef085828601612896565b9150509250929050565b7f4e487b71000000000000000000000000000000000000000000000000000000005f52602260045260245ffd5b5f6002820490506001821680612f3e57607f821691505b602082108103612f5157612f50612efa565b5b50919050565b7f4e487b71000000000000000000000000000000000000000000000000000000005f52601160045260245ffd5b5f612f8e826128aa565b9150612f99836128aa565b9250828203905081811115612fb157612fb0612f57565b5b92915050565b7f4e487b71000000000000000000000000000000000000000000000000000000005f52603260045260245ffd5b7f4e487b71000000000000000000000000000000000000000000000000000000005f52603160045260245ffd5b5f819050815f5260205f209050919050565b5f6020601f8301049050919050565b5f82821b905092915050565b5f6008830261306d7fffffffffffffffffffffffffffffffffffffffffffffffffffffffffffffffff82613032565b6130778683613032565b95508019841693508086168417925050509392505050565b5f819050919050565b5f6130b26130ad6130a8846128aa565b61308f565b6128aa565b9050919050565b5f819050919050565b6130cb83613098565b6130df6130d7826130b9565b84845461303e565b825550505050565b5f5f905090565b6130f66130e7565b6131018184846130c2565b505050565b5b81811015613124576131195f826130ee565b600181019050613107565b5050565b601f8211156131695761313a81613011565b61314384613023565b81016020851015613152578190505b61316661315e85613023565b830182613106565b50505b505050565b5f82821c905092915050565b5f6131895f198460080261316e565b1980831691505092915050565b5f6131a1838361317a565b9150826002028217905092915050565b6131ba826127af565b67ffffffffffffffff8111156131d3576131d2612a77565b5b6131dd8254612f27565b6131e8828285613128565b5f60209050601f831160018114613219575f8415613207578287015190505b6132118582613196565b865550613278565b601f19841661322786613011565b5f5b8281101561324e57848901518255600182019150602085019450602081019050613229565b8683101561326b5784890151613267601f89168261317a565b8355505b6001600288020188555050505b505050505050565b5f61328a826128aa565b9150613295836128aa565b92508282019050808211156132ad576132ac612f57565b5b9291505056fea264697066735822122026804304d11abbff6196186328c667af64c2ca5b06b3e7dece902e5591656b3364736f6c634300081e0033",
					"opcodes": "PUSH2 0x32E9 PUSH2 0x4D PUSH1 0xB DUP3 DUP3 DUP3 CODECOPY DUP1 MLOAD PUSH0 BYTE PUSH1 0x73 EQ PUSH1 0x41 JUMPI PUSH32 0x4E487B7100000000000000000000000000000000000000000000000000000000 PUSH0 MSTORE PUSH0 PUSH1 0x4 MSTORE PUSH1 0x24 PUSH0 REVERT JUMPDEST ADDRESS PUSH0 MSTORE PUSH1 0x73 DUP2 MSTORE8 DUP3 DUP2 RETURN INVALID PUSH20 0x0 ADDRESS EQ PUSH1 0x80 PUSH1 0x40 MSTORE PUSH1 0x4 CALLDATASIZE LT PUSH2 0x29E JUMPI PUSH0 CALLDATALOAD PUSH1 0xE0 SHR DUP1 PUSH4 0x821ABC2D GT PUSH2 0x170 JUMPI DUP1 PUSH4 0xB0D4CE25 GT PUSH2 0xD7 JUMPI DUP1 PUSH4 0xDDCA3F43 GT PUSH2 0x90 JUMPI DUP1 PUSH4 0xDDCA3F43 EQ PUSH2 0x8BA JUMPI DUP1 PUSH4 0xDEC84DB1 EQ PUSH2 0x8D8 JUMPI DUP1 PUSH4 0xE149F036 EQ PUSH2 0x900 JUMPI DUP1 PUSH4 0xE68FDEE1 EQ PUSH2 0x930 JUMPI DUP1 PUSH4 0xEDC3BC3F EQ PUSH2 0x958 JUMPI DUP1 PUSH4 0xF589B754 EQ PUSH2 0x988 JUMPI PUSH2 0x29E JUMP JUMPDEST DUP1 PUSH4 0xB0D4CE25 EQ PUSH2 0x7D6 JUMPI DUP1 PUSH4 0xB62D8B91 EQ PUSH2 0x7FE JUMPI DUP1 PUSH4 0xD0125152 EQ PUSH2 0x82E JUMPI DUP1 PUSH4 0xD20B6EE7 EQ PUSH2 0x856 JUMPI DUP1 PUSH4 0xD547CFB7 EQ PUSH2 0x874 JUMPI DUP1 PUSH4 0xDBE0B21C EQ PUSH2 0x892 JUMPI PUSH2 0x29E JUMP JUMPDEST DUP1 PUSH4 0x963BFE12 GT PUSH2 0x129 JUMPI DUP1 PUSH4 0x963BFE12 EQ PUSH2 0x6F2 JUMPI DUP1 PUSH4 0x98995F77 EQ PUSH2 0x710 JUMPI DUP1 PUSH4 0xA05CC559 EQ PUSH2 0x72E JUMPI DUP1 PUSH4 0xA3301173 EQ PUSH2 0x756 JUMPI DUP1 PUSH4 0xA7CC0136 EQ PUSH2 0x77E JUMPI DUP1 PUSH4 0xAD715F2E EQ PUSH2 0x7AE JUMPI PUSH2 0x29E JUMP JUMPDEST DUP1 PUSH4 0x821ABC2D EQ PUSH2 0x616 JUMPI DUP1 PUSH4 0x830D4091 EQ PUSH2 0x63E JUMPI DUP1 PUSH4 0x854F9DB9 EQ PUSH2 0x666 JUMPI DUP1 PUSH4 0x8FCA4DBE EQ PUSH2 0x68E JUMPI DUP1 PUSH4 0x9451C99A EQ PUSH2 0x6B6 JUMPI DUP1 PUSH4 0x95D89B41 EQ PUSH2 0x6D4 JUMPI PUSH2 0x29E JUMP JUMPDEST DUP1 PUSH4 0x39B37AB0 GT PUSH2 0x214 JUMPI DUP1 PUSH4 0x4F4979ED GT PUSH2 0x1CD JUMPI DUP1 PUSH4 0x4F4979ED EQ PUSH2 0x532 JUMPI DUP1 PUSH4 0x5B43BC99 EQ PUSH2 0x55A JUMPI DUP1 PUSH4 0x6C8B703F EQ PUSH2 0x582 JUMPI DUP1 PUSH4 0x6FF97F1D EQ PUSH2 0x5B2 JUMPI DUP1 PUSH4 0x74E24367 EQ PUSH2 0x5D0 JUMPI DUP1 PUSH4 0x810536EC EQ PUSH2 0x600 JUMPI PUSH2 0x29E JUMP JUMPDEST DUP1 PUSH4 0x39B37AB0 EQ PUSH2 0x444 JUMPI DUP1 PUSH4 0x40E02F5C EQ PUSH2 0x46C JUMPI DUP1 PUSH4 0x41BB0559 EQ PUSH2 0x494 JUMPI DUP1 PUSH4 0x44FAF255 EQ PUSH2 0x4BC JUMPI DUP1 PUSH4 0x47F69EBA EQ PUSH2 0x4DA JUMPI DUP1 PUSH4 0x49A0A50E EQ PUSH2 0x50A JUMPI PUSH2 0x29E JUMP JUMPDEST DUP1 PUSH4 0x247C6CE0 GT PUSH2 0x266 JUMPI DUP1 PUSH4 0x247C6CE0 EQ PUSH2 0x35E JUMPI DUP1 PUSH4 0x31413EFC EQ PUSH2 0x386 JUMPI DUP1 PUSH4 0x32B07B43 EQ PUSH2 0x3AE JUMPI DUP1 PUSH4 0x33171809 EQ PUSH2 0x3D6 JUMPI DUP1 PUSH4 0x345E7B28 EQ PUSH2 0x3F4 JUMPI DUP1 PUSH4 0x3802497B EQ PUSH2 0x41C JUMPI PUSH2 0x29E JUMP JUMPDEST DUP1 PUSH4 0x6FDDE03 EQ PUSH2 0x2A2 JUMPI DUP1 PUSH4 0x71BC71C EQ PUSH2 0x2C0 JUMPI DUP1 PUSH4 0x13C19FF6 EQ PUSH2 0x2E8 JUMPI DUP1 PUSH4 0x19F86200 EQ PUSH2 0x310 JUMPI DUP1 PUSH4 0x21B0ED7D EQ PUSH2 0x32E JUMPI JUMPDEST PUSH0 PUSH0 REVERT JUMPDEST PUSH2 0x2AA PUSH2 0x9A6 JUMP JUMPDEST PUSH1 0x40 MLOAD PUSH2 0x2B7 SWAP2 SWAP1 PUSH2 0x281F JUMP JUMPDEST PUSH1 0x40 MLOAD DUP1 SWAP2 SUB SWAP1 RETURN JUMPDEST DUP2 DUP1 ISZERO PUSH2 0x2CB JUMPI PUSH0 PUSH0 REVERT JUMPDEST POP PUSH2 0x2E6 PUSH1 0x4 DUP1 CALLDATASIZE SUB DUP2 ADD SWAP1 PUSH2 0x2E1 SWAP2 SWAP1 PUSH2 0x28DD JUMP JUMPDEST PUSH2 0xA7C JUMP JUMPDEST STOP JUMPDEST DUP2 DUP1 ISZERO PUSH2 0x2F3 JUMPI PUSH0 PUSH0 REVERT JUMPDEST POP PUSH2 0x30E PUSH1 0x4 DUP1 CALLDATASIZE SUB DUP2 ADD SWAP1 PUSH2 0x309 SWAP2 SWAP1 PUSH2 0x292D JUMP JUMPDEST PUSH2 0xD5E JUMP JUMPDEST STOP JUMPDEST PUSH2 0x318 PUSH2 0xDF9 JUMP JUMPDEST PUSH1 0x40 MLOAD PUSH2 0x325 SWAP2 SWAP1 PUSH2 0x2983 JUMP JUMPDEST PUSH1 0x40 MLOAD DUP1 SWAP2 SUB SWAP1 RETURN JUMPDEST PUSH2 0x348 PUSH1 0x4 DUP1 CALLDATASIZE SUB DUP2 ADD SWAP1 PUSH2 0x343 SWAP2 SWAP1 PUSH2 0x299C JUMP JUMPDEST PUSH2 0xE48 JUMP JUMPDEST PUSH1 0x40 MLOAD PUSH2 0x355 SWAP2 SWAP1 PUSH2 0x29D6 JUMP JUMPDEST PUSH1 0x40 MLOAD DUP1 SWAP2 SUB SWAP1 RETURN JUMPDEST DUP2 DUP1 ISZERO PUSH2 0x369 JUMPI PUSH0 PUSH0 REVERT JUMPDEST POP PUSH2 0x384 PUSH1 0x4 DUP1 CALLDATASIZE SUB DUP2 ADD SWAP1 PUSH2 0x37F SWAP2 SWAP1 PUSH2 0x2A19 JUMP JUMPDEST PUSH2 0xED4 JUMP JUMPDEST STOP JUMPDEST DUP2 DUP1 ISZERO PUSH2 0x391 JUMPI PUSH0 PUSH0 REVERT JUMPDEST POP PUSH2 0x3AC PUSH1 0x4 DUP1 CALLDATASIZE SUB DUP2 ADD SWAP1 PUSH2 0x3A7 SWAP2 SWAP1 PUSH2 0x299C JUMP JUMPDEST PUSH2 0xF24 JUMP JUMPDEST STOP JUMPDEST DUP2 DUP1 ISZERO PUSH2 0x3B9 JUMPI PUSH0 PUSH0 REVERT JUMPDEST POP PUSH2 0x3D4 PUSH1 0x4 DUP1 CALLDATASIZE SUB DUP2 ADD SWAP1 PUSH2 0x3CF SWAP2 SWAP1 PUSH2 0x2A44 JUMP JUMPDEST PUSH2 0x103E JUMP JUMPDEST STOP JUMPDEST PUSH2 0x3DE PUSH2 0x108E JUMP JUMPDEST PUSH1 0x40 MLOAD PUSH2 0x3EB SWAP2 SWAP1 PUSH2 0x2983 JUMP JUMPDEST PUSH1 0x40 MLOAD DUP1 SWAP2 SUB SWAP1 RETURN JUMPDEST DUP2 DUP1 ISZERO PUSH2 0x3FF JUMPI PUSH0 PUSH0 REVERT JUMPDEST POP PUSH2 0x41A PUSH1 0x4 DUP1 CALLDATASIZE SUB DUP2 ADD SWAP1 PUSH2 0x415 SWAP2 SWAP1 PUSH2 0x2A44 JUMP JUMPDEST PUSH2 0x10DD JUMP JUMPDEST STOP JUMPDEST DUP2 DUP1 ISZERO PUSH2 0x427 JUMPI PUSH0 PUSH0 REVERT JUMPDEST POP PUSH2 0x442 PUSH1 0x4 DUP1 CALLDATASIZE SUB DUP2 ADD SWAP1 PUSH2 0x43D SWAP2 SWAP1 PUSH2 0x2A19 JUMP JUMPDEST PUSH2 0x112D JUMP JUMPDEST STOP JUMPDEST DUP2 DUP1 ISZERO PUSH2 0x44F JUMPI PUSH0 PUSH0 REVERT JUMPDEST POP PUSH2 0x46A PUSH1 0x4 DUP1 CALLDATASIZE SUB DUP2 ADD SWAP1 PUSH2 0x465 SWAP2 SWAP1 PUSH2 0x2A44 JUMP JUMPDEST PUSH2 0x117D JUMP JUMPDEST STOP JUMPDEST DUP2 DUP1 ISZERO PUSH2 0x477 JUMPI PUSH0 PUSH0 REVERT JUMPDEST POP PUSH2 0x492 PUSH1 0x4 DUP1 CALLDATASIZE SUB DUP2 ADD SWAP1 PUSH2 0x48D SWAP2 SWAP1 PUSH2 0x2A44 JUMP JUMPDEST PUSH2 0x11CD JUMP JUMPDEST STOP JUMPDEST DUP2 DUP1 ISZERO PUSH2 0x49F JUMPI PUSH0 PUSH0 REVERT JUMPDEST POP PUSH2 0x4BA PUSH1 0x4 DUP1 CALLDATASIZE SUB DUP2 ADD SWAP1 PUSH2 0x4B5 SWAP2 SWAP1 PUSH2 0x2B9B JUMP JUMPDEST PUSH2 0x1477 JUMP JUMPDEST STOP JUMPDEST PUSH2 0x4C4 PUSH2 0x14D0 JUMP JUMPDEST PUSH1 0x40 MLOAD PUSH2 0x4D1 SWAP2 SWAP1 PUSH2 0x29D6 JUMP JUMPDEST PUSH1 0x40 MLOAD DUP1 SWAP2 SUB SWAP1 RETURN JUMPDEST PUSH2 0x4F4 PUSH1 0x4 DUP1 CALLDATASIZE SUB DUP2 ADD SWAP1 PUSH2 0x4EF SWAP2 SWAP1 PUSH2 0x2A44 JUMP JUMPDEST PUSH2 0x151F JUMP JUMPDEST PUSH1 0x40 MLOAD PUSH2 0x501 SWAP2 SWAP1 PUSH2 0x29D6 JUMP JUMPDEST PUSH1 0x40 MLOAD DUP1 SWAP2 SUB SWAP1 RETURN JUMPDEST DUP2 DUP1 ISZERO PUSH2 0x515 JUMPI PUSH0 PUSH0 REVERT JUMPDEST POP PUSH2 0x530 PUSH1 0x4 DUP1 CALLDATASIZE SUB DUP2 ADD SWAP1 PUSH2 0x52B SWAP2 SWAP1 PUSH2 0x28DD JUMP JUMPDEST PUSH2 0x157F JUMP JUMPDEST STOP JUMPDEST DUP2 DUP1 ISZERO PUSH2 0x53D JUMPI PUSH0 PUSH0 REVERT JUMPDEST POP PUSH2 0x558 PUSH1 0x4 DUP1 CALLDATASIZE SUB DUP2 ADD SWAP1 PUSH2 0x553 SWAP2 SWAP1 PUSH2 0x28DD JUMP JUMPDEST PUSH2 0x161B JUMP JUMPDEST STOP JUMPDEST DUP2 DUP1 ISZERO PUSH2 0x565 JUMPI PUSH0 PUSH0 REVERT JUMPDEST POP PUSH2 0x580 PUSH1 0x4 DUP1 CALLDATASIZE SUB DUP2 ADD SWAP1 PUSH2 0x57B SWAP2 SWAP1 PUSH2 0x2B9B JUMP JUMPDEST PUSH2 0x1713 JUMP JUMPDEST STOP JUMPDEST PUSH2 0x59C PUSH1 0x4 DUP1 CALLDATASIZE SUB DUP2 ADD SWAP1 PUSH2 0x597 SWAP2 SWAP1 PUSH2 0x2A44 JUMP JUMPDEST PUSH2 0x176C JUMP JUMPDEST PUSH1 0x40 MLOAD PUSH2 0x5A9 SWAP2 SWAP1 PUSH2 0x281F JUMP JUMPDEST PUSH1 0x40 MLOAD DUP1 SWAP2 SUB SWAP1 RETURN JUMPDEST PUSH2 0x5BA PUSH2 0x1853 JUMP JUMPDEST PUSH1 0x40 MLOAD PUSH2 0x5C7 SWAP2 SWAP1 PUSH2 0x2C99 JUMP JUMPDEST PUSH1 0x40 MLOAD DUP1 SWAP2 SUB SWAP1 RETURN JUMPDEST PUSH2 0x5EA PUSH1 0x4 DUP1 CALLDATASIZE SUB DUP2 ADD SWAP1 PUSH2 0x5E5 SWAP2 SWAP1 PUSH2 0x2A44 JUMP JUMPDEST PUSH2 0x18EF JUMP JUMPDEST PUSH1 0x40 MLOAD PUSH2 0x5F7 SWAP2 SWAP1 PUSH2 0x29D6 JUMP JUMPDEST PUSH1 0x40 MLOAD DUP1 SWAP2 SUB SWAP1 RETURN JUMPDEST DUP2 DUP1 ISZERO PUSH2 0x60B JUMPI PUSH0 PUSH0 REVERT JUMPDEST POP PUSH2 0x614 PUSH2 0x194F JUMP JUMPDEST STOP JUMPDEST DUP2 DUP1 ISZERO PUSH2 0x621 JUMPI PUSH0 PUSH0 REVERT JUMPDEST POP PUSH2 0x63C PUSH1 0x4 DUP1 CALLDATASIZE SUB DUP2 ADD SWAP1 PUSH2 0x637 SWAP2 SWAP1 PUSH2 0x2B9B JUMP JUMPDEST PUSH2 0x19F7 JUMP JUMPDEST STOP JUMPDEST DUP2 DUP1 ISZERO PUSH2 0x649 JUMPI PUSH0 PUSH0 REVERT JUMPDEST POP PUSH2 0x664 PUSH1 0x4 DUP1 CALLDATASIZE SUB DUP2 ADD SWAP1 PUSH2 0x65F SWAP2 SWAP1 PUSH2 0x2CEE JUMP JUMPDEST PUSH2 0x1A50 JUMP JUMPDEST STOP JUMPDEST DUP2 DUP1 ISZERO PUSH2 0x671 JUMPI PUSH0 PUSH0 REVERT JUMPDEST POP PUSH2 0x68C PUSH1 0x4 DUP1 CALLDATASIZE SUB DUP2 ADD SWAP1 PUSH2 0x687 SWAP2 SWAP1 PUSH2 0x2A19 JUMP JUMPDEST PUSH2 0x1B2A JUMP JUMPDEST STOP JUMPDEST DUP2 DUP1 ISZERO PUSH2 0x699 JUMPI PUSH0 PUSH0 REVERT JUMPDEST POP PUSH2 0x6B4 PUSH1 0x4 DUP1 CALLDATASIZE SUB DUP2 ADD SWAP1 PUSH2 0x6AF SWAP2 SWAP1 PUSH2 0x2A44 JUMP JUMPDEST PUSH2 0x1B7A JUMP JUMPDEST STOP JUMPDEST PUSH2 0x6BE PUSH2 0x1BCA JUMP JUMPDEST PUSH1 0x40 MLOAD PUSH2 0x6CB SWAP2 SWAP1 PUSH2 0x29D6 JUMP JUMPDEST PUSH1 0x40 MLOAD DUP1 SWAP2 SUB SWAP1 RETURN JUMPDEST PUSH2 0x6DC PUSH2 0x1C19 JUMP JUMPDEST PUSH1 0x40 MLOAD PUSH2 0x6E9 SWAP2 SWAP1 PUSH2 0x281F JUMP JUMPDEST PUSH1 0x40 MLOAD DUP1 SWAP2 SUB SWAP1 RETURN JUMPDEST PUSH2 0x6FA PUSH2 0x1CEF JUMP JUMPDEST PUSH1 0x40 MLOAD PUSH2 0x707 SWAP2 SWAP1 PUSH2 0x281F JUMP JUMPDEST PUSH1 0x40 MLOAD DUP1 SWAP2 SUB SWAP1 RETURN JUMPDEST PUSH2 0x718 PUSH2 0x1DC5 JUMP JUMPDEST PUSH1 0x40 MLOAD PUSH2 0x725 SWAP2 SWAP1 PUSH2 0x29D6 JUMP JUMPDEST PUSH1 0x40 MLOAD DUP1 SWAP2 SUB SWAP1 RETURN JUMPDEST DUP2 DUP1 ISZERO PUSH2 0x739 JUMPI PUSH0 PUSH0 REVERT JUMPDEST POP PUSH2 0x754 PUSH1 0x4 DUP1 CALLDATASIZE SUB DUP2 ADD SWAP1 PUSH2 0x74F SWAP2 SWAP1 PUSH2 0x2B9B JUMP JUMPDEST PUSH2 0x1E14 JUMP JUMPDEST STOP JUMPDEST DUP2 DUP1 ISZERO PUSH2 0x761 JUMPI PUSH0 PUSH0 REVERT JUMPDEST POP PUSH2 0x77C PUSH1 0x4 DUP1 CALLDATASIZE SUB DUP2 ADD SWAP1 PUSH2 0x777 SWAP2 SWAP1 PUSH2 0x2D3E JUMP JUMPDEST PUSH2 0x1E6C JUMP JUMPDEST STOP JUMPDEST PUSH2 0x798 PUSH1 0x4 DUP1 CALLDATASIZE SUB DUP2 ADD SWAP1 PUSH2 0x793 SWAP2 SWAP1 PUSH2 0x2A44 JUMP JUMPDEST PUSH2 0x1EF8 JUMP JUMPDEST PUSH1 0x40 MLOAD PUSH2 0x7A5 SWAP2 SWAP1 PUSH2 0x2DA5 JUMP JUMPDEST PUSH1 0x40 MLOAD DUP1 SWAP2 SUB SWAP1 RETURN JUMPDEST DUP2 DUP1 ISZERO PUSH2 0x7B9 JUMPI PUSH0 PUSH0 REVERT JUMPDEST POP PUSH2 0x7D4 PUSH1 0x4 DUP1 CALLDATASIZE SUB DUP2 ADD SWAP1 PUSH2 0x7CF SWAP2 SWAP1 PUSH2 0x2DBE JUMP JUMPDEST PUSH2 0x1FBD JUMP JUMPDEST STOP JUMPDEST DUP2 DUP1 ISZERO PUSH2 0x7E1 JUMPI PUSH0 PUSH0 REVERT JUMPDEST POP PUSH2 0x7FC PUSH1 0x4 DUP1 CALLDATASIZE SUB DUP2 ADD SWAP1 PUSH2 0x7F7 SWAP2 SWAP1 PUSH2 0x2DFC JUMP JUMPDEST PUSH2 0x201D JUMP JUMPDEST STOP JUMPDEST PUSH2 0x818 PUSH1 0x4 DUP1 CALLDATASIZE SUB DUP2 ADD SWAP1 PUSH2 0x813 SWAP2 SWAP1 PUSH2 0x299C JUMP JUMPDEST PUSH2 0x20BB JUMP JUMPDEST PUSH1 0x40 MLOAD PUSH2 0x825 SWAP2 SWAP1 PUSH2 0x2E49 JUMP JUMPDEST PUSH1 0x40 MLOAD DUP1 SWAP2 SUB SWAP1 RETURN JUMPDEST DUP2 DUP1 ISZERO PUSH2 0x839 JUMPI PUSH0 PUSH0 REVERT JUMPDEST POP PUSH2 0x854 PUSH1 0x4 DUP1 CALLDATASIZE SUB DUP2 ADD SWAP1 PUSH2 0x84F SWAP2 SWAP1 PUSH2 0x299C JUMP JUMPDEST PUSH2 0x2153 JUMP JUMPDEST STOP JUMPDEST PUSH2 0x85E PUSH2 0x226D JUMP JUMPDEST PUSH1 0x40 MLOAD PUSH2 0x86B SWAP2 SWAP1 PUSH2 0x29D6 JUMP JUMPDEST PUSH1 0x40 MLOAD DUP1 SWAP2 SUB SWAP1 RETURN JUMPDEST PUSH2 0x87C PUSH2 0x22BC JUMP JUMPDEST PUSH1 0x40 MLOAD PUSH2 0x889 SWAP2 SWAP1 PUSH2 0x281F JUMP JUMPDEST PUSH1 0x40 MLOAD DUP1 SWAP2 SUB SWAP1 RETURN JUMPDEST DUP2 DUP1 ISZERO PUSH2 0x89D JUMPI PUSH0 PUSH0 REVERT JUMPDEST POP PUSH2 0x8B8 PUSH1 0x4 DUP1 CALLDATASIZE SUB DUP2 ADD SWAP1 PUSH2 0x8B3 SWAP2 SWAP1 PUSH2 0x2A44 JUMP JUMPDEST PUSH2 0x2391 JUMP JUMPDEST STOP JUMPDEST PUSH2 0x8C2 PUSH2 0x24A7 JUMP JUMPDEST PUSH1 0x40 MLOAD PUSH2 0x8CF SWAP2 SWAP1 PUSH2 0x29D6 JUMP JUMPDEST PUSH1 0x40 MLOAD DUP1 SWAP2 SUB SWAP1 RETURN JUMPDEST DUP2 DUP1 ISZERO PUSH2 0x8E3 JUMPI PUSH0 PUSH0 REVERT JUMPDEST POP PUSH2 0x8FE PUSH1 0x4 DUP1 CALLDATASIZE SUB DUP2 ADD SWAP1 PUSH2 0x8F9 SWAP2 SWAP1 PUSH2 0x2E62 JUMP JUMPDEST PUSH2 0x24F6 JUMP JUMPDEST STOP JUMPDEST PUSH2 0x91A PUSH1 0x4 DUP1 CALLDATASIZE SUB DUP2 ADD SWAP1 PUSH2 0x915 SWAP2 SWAP1 PUSH2 0x2D3E JUMP JUMPDEST PUSH2 0x255F JUMP JUMPDEST PUSH1 0x40 MLOAD PUSH2 0x927 SWAP2 SWAP1 PUSH2 0x29D6 JUMP JUMPDEST PUSH1 0x40 MLOAD DUP1 SWAP2 SUB SWAP1 RETURN JUMPDEST DUP2 DUP1 ISZERO PUSH2 0x93B JUMPI PUSH0 PUSH0 REVERT JUMPDEST POP PUSH2 0x956 PUSH1 0x4 DUP1 CALLDATASIZE SUB DUP2 ADD SWAP1 PUSH2 0x951 SWAP2 SWAP1 PUSH2 0x2DBE JUMP JUMPDEST PUSH2 0x25FB JUMP JUMPDEST STOP JUMPDEST PUSH2 0x972 PUSH1 0x4 DUP1 CALLDATASIZE SUB DUP2 ADD SWAP1 PUSH2 0x96D SWAP2 SWAP1 PUSH2 0x2EBC JUMP JUMPDEST PUSH2 0x265B JUMP JUMPDEST PUSH1 0x40 MLOAD PUSH2 0x97F SWAP2 SWAP1 PUSH2 0x2E49 JUMP JUMPDEST PUSH1 0x40 MLOAD DUP1 SWAP2 SUB SWAP1 RETURN JUMPDEST PUSH2 0x990 PUSH2 0x272F JUMP JUMPDEST PUSH1 0x40 MLOAD PUSH2 0x99D SWAP2 SWAP1 PUSH2 0x2983 JUMP JUMPDEST PUSH1 0x40 MLOAD DUP1 SWAP2 SUB SWAP1 RETURN JUMPDEST PUSH1 0x60 PUSH2 0x9ED PUSH1 0x40 MLOAD DUP1 PUSH1 0x40 ADD PUSH1 0x40 MSTORE DUP1 PUSH1 0x6 DUP2 MSTORE PUSH1 0x20 ADD PUSH32 0x534D45616D620000000000000000000000000000000000000000000000000000 DUP2 MSTORE POP DUP1 MLOAD SWAP1 PUSH1 0x20 ADD KECCAK256 PUSH2 0x277E JUMP JUMPDEST PUSH1 0xE ADD DUP1 SLOAD PUSH2 0x9FB SWAP1 PUSH2 0x2F27 JUMP JUMPDEST DUP1 PUSH1 0x1F ADD PUSH1 0x20 DUP1 SWAP2 DIV MUL PUSH1 0x20 ADD PUSH1 0x40 MLOAD SWAP1 DUP2 ADD PUSH1 0x40 MSTORE DUP1 SWAP3 SWAP2 SWAP1 DUP2 DUP2 MSTORE PUSH1 0x20 ADD DUP3 DUP1 SLOAD PUSH2 0xA27 SWAP1 PUSH2 0x2F27 JUMP JUMPDEST DUP1 ISZERO PUSH2 0xA72 JUMPI DUP1 PUSH1 0x1F LT PUSH2 0xA49 JUMPI PUSH2 0x100 DUP1 DUP4 SLOAD DIV MUL DUP4 MSTORE SWAP2 PUSH1 0x20 ADD SWAP2 PUSH2 0xA72 JUMP JUMPDEST DUP3 ADD SWAP2 SWAP1 PUSH0 MSTORE PUSH1 0x20 PUSH0 KECCAK256 SWAP1 JUMPDEST DUP2 SLOAD DUP2 MSTORE SWAP1 PUSH1 0x1 ADD SWAP1 PUSH1 0x20 ADD DUP1 DUP4 GT PUSH2 0xA55 JUMPI DUP3 SWAP1 SUB PUSH1 0x1F AND DUP3 ADD SWAP2 JUMPDEST POP POP POP POP POP SWAP1 POP SWAP1 JUMP JUMPDEST PUSH0 PUSH2 0xAC2 PUSH1 0x40 MLOAD DUP1 PUSH1 0x40 ADD PUSH1 0x40 MSTORE DUP1 PUSH1 0x6 DUP2 MSTORE PUSH1 0x20 ADD PUSH32 0x534D45616D620000000000000000000000000000000000000000000000000000 DUP2 MSTORE POP DUP1 MLOAD SWAP1 PUSH1 0x20 ADD KECCAK256 PUSH2 0x277E JUMP JUMPDEST PUSH1 0x4 ADD PUSH0 DUP5 DUP2 MSTORE PUSH1 0x20 ADD SWAP1 DUP2 MSTORE PUSH1 0x20 ADD PUSH0 KECCAK256 SLOAD SWAP1 POP DUP2 DUP2 EQ PUSH2 0xC69 JUMPI PUSH0 PUSH2 0xB24 PUSH1 0x40 MLOAD DUP1 PUSH1 0x40 ADD PUSH1 0x40 MSTORE DUP1 PUSH1 0x6 DUP2 MSTORE PUSH1 0x20 ADD PUSH32 0x534D45616D620000000000000000000000000000000000000000000000000000 DUP2 MSTORE POP DUP1 MLOAD SWAP1 PUSH1 0x20 ADD KECCAK256 PUSH2 0x277E JUMP JUMPDEST PUSH1 0x3 ADD PUSH0 DUP7 PUSH20 0xFFFFFFFFFFFFFFFFFFFFFFFFFFFFFFFFFFFFFFFF AND PUSH20 0xFFFFFFFFFFFFFFFFFFFFFFFFFFFFFFFFFFFFFFFF AND DUP2 MSTORE PUSH1 0x20 ADD SWAP1 DUP2 MSTORE PUSH1 0x20 ADD PUSH0 KECCAK256 PUSH0 DUP5 DUP2 MSTORE PUSH1 0x20 ADD SWAP1 DUP2 MSTORE PUSH1 0x20 ADD PUSH0 KECCAK256 SLOAD SWAP1 POP DUP1 PUSH2 0xBBA PUSH1 0x40 MLOAD DUP1 PUSH1 0x40 ADD PUSH1 0x40 MSTORE DUP1 PUSH1 0x6 DUP2 MSTORE PUSH1 0x20 ADD PUSH32 0x534D45616D620000000000000000000000000000000000000000000000000000 DUP2 MSTORE POP DUP1 MLOAD SWAP1 PUSH1 0x20 ADD KECCAK256 PUSH2 0x277E JUMP JUMPDEST PUSH1 0x3 ADD PUSH0 DUP8 PUSH20 0xFFFFFFFFFFFFFFFFFFFFFFFFFFFFFFFFFFFFFFFF AND PUSH20 0xFFFFFFFFFFFFFFFFFFFFFFFFFFFFFFFFFFFFFFFF AND DUP2 MSTORE PUSH1 0x20 ADD SWAP1 DUP2 MSTORE PUSH1 0x20 ADD PUSH0 KECCAK256 PUSH0 DUP5 DUP2 MSTORE PUSH1 0x20 ADD SWAP1 DUP2 MSTORE PUSH1 0x20 ADD PUSH0 KECCAK256 DUP2 SWAP1 SSTORE POP DUP2 PUSH2 0xC51 PUSH1 0x40 MLOAD DUP1 PUSH1 0x40 ADD PUSH1 0x40 MSTORE DUP1 PUSH1 0x6 DUP2 MSTORE PUSH1 0x20 ADD PUSH32 0x534D45616D620000000000000000000000000000000000000000000000000000 DUP2 MSTORE POP DUP1 MLOAD SWAP1 PUSH1 0x20 ADD KECCAK256 PUSH2 0x277E JUMP JUMPDEST PUSH1 0x4 ADD PUSH0 DUP4 DUP2 MSTORE PUSH1 0x20 ADD SWAP1 DUP2 MSTORE PUSH1 0x20 ADD PUSH0 KECCAK256 DUP2 SWAP1 SSTORE POP POP JUMPDEST PUSH2 0xCAE PUSH1 0x40 MLOAD DUP1 PUSH1 0x40 ADD PUSH1 0x40 MSTORE DUP1 PUSH1 0x6 DUP2 MSTORE PUSH1 0x20 ADD PUSH32 0x534D45616D620000000000000000000000000000000000000000000000000000 DUP2 MSTORE POP DUP1 MLOAD SWAP1 PUSH1 0x20 ADD KECCAK256 PUSH2 0x277E JUMP JUMPDEST PUSH1 0x4 ADD PUSH0 DUP5 DUP2 MSTORE PUSH1 0x20 ADD SWAP1 DUP2 MSTORE PUSH1 0x20 ADD PUSH0 KECCAK256 PUSH0 SWAP1 SSTORE PUSH2 0xD08 PUSH1 0x40 MLOAD DUP1 PUSH1 0x40 ADD PUSH1 0x40 MSTORE DUP1 PUSH1 0x6 DUP2 MSTORE PUSH1 0x20 ADD PUSH32 0x534D45616D620000000000000000000000000000000000000000000000000000 DUP2 MSTORE POP DUP1 MLOAD SWAP1 PUSH1 0x20 ADD KECCAK256 PUSH2 0x277E JUMP JUMPDEST PUSH1 0x3 ADD PUSH0 DUP6 PUSH20 0xFFFFFFFFFFFFFFFFFFFFFFFFFFFFFFFFFFFFFFFF AND PUSH20 0xFFFFFFFFFFFFFFFFFFFFFFFFFFFFFFFFFFFFFFFF AND DUP2 MSTORE PUSH1 0x20 ADD SWAP1 DUP2 MSTORE PUSH1 0x20 ADD PUSH0 KECCAK256 PUSH0 DUP4 DUP2 MSTORE PUSH1 0x20 ADD SWAP1 DUP2 MSTORE PUSH1 0x20 ADD PUSH0 KECCAK256 PUSH0 SWAP1 SSTORE POP POP POP POP JUMP JUMPDEST DUP1 PUSH2 0xDA4 PUSH1 0x40 MLOAD DUP1 PUSH1 0x40 ADD PUSH1 0x40 MSTORE DUP1 PUSH1 0x6 DUP2 MSTORE PUSH1 0x20 ADD PUSH32 0x534D45616D620000000000000000000000000000000000000000000000000000 DUP2 MSTORE POP DUP1 MLOAD SWAP1 PUSH1 0x20 ADD KECCAK256 PUSH2 0x277E JUMP JUMPDEST PUSH1 0x12 ADD PUSH0 DUP5 DUP2 MSTORE PUSH1 0x20 ADD SWAP1 DUP2 MSTORE PUSH1 0x20 ADD PUSH0 KECCAK256 PUSH0 ADD PUSH0 PUSH2 0x100 EXP DUP2 SLOAD DUP2 PUSH20 0xFFFFFFFFFFFFFFFFFFFFFFFFFFFFFFFFFFFFFFFF MUL NOT AND SWAP1 DUP4 PUSH20 0xFFFFFFFFFFFFFFFFFFFFFFFFFFFFFFFFFFFFFFFF AND MUL OR SWAP1 SSTORE POP POP POP JUMP JUMPDEST PUSH0 PUSH2 0xE3F PUSH1 0x40 MLOAD DUP1 PUSH1 0x40 ADD PUSH1 0x40 MSTORE DUP1 PUSH1 0x6 DUP2 MSTORE PUSH1 0x20 ADD PUSH32 0x534D45616D620000000000000000000000000000000000000000000000000000 DUP2 MSTORE POP DUP1 MLOAD SWAP1 PUSH1 0x20 ADD KECCAK256 PUSH2 0x277E JUMP JUMPDEST PUSH1 0x7 ADD SLOAD SWAP1 POP SWAP1 JUMP JUMPDEST PUSH0 PUSH2 0xE8E PUSH1 0x40 MLOAD DUP1 PUSH1 0x40 ADD PUSH1 0x40 MSTORE DUP1 PUSH1 0x6 DUP2 MSTORE PUSH1 0x20 ADD PUSH32 0x534D45616D620000000000000000000000000000000000000000000000000000 DUP2 MSTORE POP DUP1 MLOAD SWAP1 PUSH1 0x20 ADD KECCAK256 PUSH2 0x277E JUMP JUMPDEST PUSH1 0x11 ADD PUSH0 DUP4 PUSH20 0xFFFFFFFFFFFFFFFFFFFFFFFFFFFFFFFFFFFFFFFF AND PUSH20 0xFFFFFFFFFFFFFFFFFFFFFFFFFFFFFFFFFFFFFFFF AND DUP2 MSTORE PUSH1 0x20 ADD SWAP1 DUP2 MSTORE PUSH1 0x20 ADD PUSH0 KECCAK256 SLOAD SWAP1 POP SWAP2 SWAP1 POP JUMP JUMPDEST DUP1 PUSH2 0xF1A PUSH1 0x40 MLOAD DUP1 PUSH1 0x40 ADD PUSH1 0x40 MSTORE DUP1 PUSH1 0x6 DUP2 MSTORE PUSH1 0x20 ADD PUSH32 0x534D45616D620000000000000000000000000000000000000000000000000000 DUP2 MSTORE POP DUP1 MLOAD SWAP1 PUSH1 0x20 ADD KECCAK256 PUSH2 0x277E JUMP JUMPDEST PUSH1 0x9 ADD DUP2 SWAP1 SSTORE POP POP JUMP JUMPDEST PUSH1 0x1 PUSH2 0xF6B PUSH1 0x40 MLOAD DUP1 PUSH1 0x40 ADD PUSH1 0x40 MSTORE DUP1 PUSH1 0x6 DUP2 MSTORE PUSH1 0x20 ADD PUSH32 0x534D45616D620000000000000000000000000000000000000000000000000000 DUP2 MSTORE POP DUP1 MLOAD SWAP1 PUSH1 0x20 ADD KECCAK256 PUSH2 0x277E JUMP JUMPDEST PUSH1 0x11 ADD PUSH0 DUP4 PUSH20 0xFFFFFFFFFFFFFFFFFFFFFFFFFFFFFFFFFFFFFFFF AND PUSH20 0xFFFFFFFFFFFFFFFFFFFFFFFFFFFFFFFFFFFFFFFF AND DUP2 MSTORE PUSH1 0x20 ADD SWAP1 DUP2 MSTORE PUSH1 0x20 ADD PUSH0 KECCAK256 SLOAD PUSH2 0xFB4 SWAP2 SWAP1 PUSH2 0x2F84 JUMP JUMPDEST PUSH2 0xFF9 PUSH1 0x40 MLOAD DUP1 PUSH1 0x40 ADD PUSH1 0x40 MSTORE DUP1 PUSH1 0x6 DUP2 MSTORE PUSH1 0x20 ADD PUSH32 0x534D45616D620000000000000000000000000000000000000000000000000000 DUP2 MSTORE POP DUP1 MLOAD SWAP1 PUSH1 0x20 ADD KECCAK256 PUSH2 0x277E JUMP JUMPDEST PUSH1 0x11 ADD PUSH0 DUP4 PUSH20 0xFFFFFFFFFFFFFFFFFFFFFFFFFFFFFFFFFFFFFFFF AND PUSH20 0xFFFFFFFFFFFFFFFFFFFFFFFFFFFFFFFFFFFFFFFF AND DUP2 MSTORE PUSH1 0x20 ADD SWAP1 DUP2 MSTORE PUSH1 0x20 ADD PUSH0 KECCAK256 DUP2 SWAP1 SSTORE POP POP JUMP JUMPDEST DUP1 PUSH2 0x1084 PUSH1 0x40 MLOAD DUP1 PUSH1 0x40 ADD PUSH1 0x40 MSTORE DUP1 PUSH1 0x6 DUP2 MSTORE PUSH1 0x20 ADD PUSH32 0x534D45616D620000000000000000000000000000000000000000000000000000 DUP2 MSTORE POP DUP1 MLOAD SWAP1 PUSH1 0x20 ADD KECCAK256 PUSH2 0x277E JUMP JUMPDEST PUSH1 0x15 ADD DUP2 SWAP1 SSTORE POP POP JUMP JUMPDEST PUSH0 PUSH2 0x10D4 PUSH1 0x40 MLOAD DUP1 PUSH1 0x40 ADD PUSH1 0x40 MSTORE DUP1 PUSH1 0x6 DUP2 MSTORE PUSH1 0x20 ADD PUSH32 0x534D45616D620000000000000000000000000000000000000000000000000000 DUP2 MSTORE POP DUP1 MLOAD SWAP1 PUSH1 0x20 ADD KECCAK256 PUSH2 0x277E JUMP JUMPDEST PUSH1 0x9 ADD SLOAD SWAP1 POP SWAP1 JUMP JUMPDEST DUP1 PUSH2 0x1123 PUSH1 0x40 MLOAD DUP1 PUSH1 0x40 ADD PUSH1 0x40 MSTORE DUP1 PUSH1 0x6 DUP2 MSTORE PUSH1 0x20 ADD PUSH32 0x534D45616D620000000000000000000000000000000000000000000000000000 DUP2 MSTORE POP DUP1 MLOAD SWAP1 PUSH1 0x20 ADD KECCAK256 PUSH2 0x277E JUMP JUMPDEST PUSH1 0xC ADD DUP2 SWAP1 SSTORE POP POP JUMP JUMPDEST DUP1 PUSH2 0x1173 PUSH1 0x40 MLOAD DUP1 PUSH1 0x40 ADD PUSH1 0x40 MSTORE DUP1 PUSH1 0x6 DUP2 MSTORE PUSH1 0x20 ADD PUSH32 0x534D45616D620000000000000000000000000000000000000000000000000000 DUP2 MSTORE POP DUP1 MLOAD SWAP1 PUSH1 0x20 ADD KECCAK256 PUSH2 0x277E JUMP JUMPDEST PUSH1 0x7 ADD DUP2 SWAP1 SSTORE POP POP JUMP JUMPDEST DUP1 PUSH2 0x11C3 PUSH1 0x40 MLOAD DUP1 PUSH1 0x40 ADD PUSH1 0x40 MSTORE DUP1 PUSH1 0x6 DUP2 MSTORE PUSH1 0x20 ADD PUSH32 0x534D45616D620000000000000000000000000000000000000000000000000000 DUP2 MSTORE POP DUP1 MLOAD SWAP1 PUSH1 0x20 ADD KECCAK256 PUSH2 0x277E JUMP JUMPDEST PUSH1 0xA ADD DUP2 SWAP1 SSTORE POP POP JUMP JUMPDEST PUSH0 PUSH1 0x1 PUSH2 0x1215 PUSH1 0x40 MLOAD DUP1 PUSH1 0x40 ADD PUSH1 0x40 MSTORE DUP1 PUSH1 0x6 DUP2 MSTORE PUSH1 0x20 ADD PUSH32 0x534D45616D620000000000000000000000000000000000000000000000000000 DUP2 MSTORE POP DUP1 MLOAD SWAP1 PUSH1 0x20 ADD KECCAK256 PUSH2 0x277E JUMP JUMPDEST PUSH1 0x5 ADD DUP1 SLOAD SWAP1 POP PUSH2 0x1226 SWAP2 SWAP1 PUSH2 0x2F84 JUMP JUMPDEST SWAP1 POP PUSH0 PUSH2 0x126E PUSH1 0x40 MLOAD DUP1 PUSH1 0x40 ADD PUSH1 0x40 MSTORE DUP1 PUSH1 0x6 DUP2 MSTORE PUSH1 0x20 ADD PUSH32 0x534D45616D620000000000000000000000000000000000000000000000000000 DUP2 MSTORE POP DUP1 MLOAD SWAP1 PUSH1 0x20 ADD KECCAK256 PUSH2 0x277E JUMP JUMPDEST PUSH1 0x6 ADD PUSH0 DUP5 DUP2 MSTORE PUSH1 0x20 ADD SWAP1 DUP2 MSTORE PUSH1 0x20 ADD PUSH0 KECCAK256 SLOAD SWAP1 POP PUSH0 PUSH2 0x12C9 PUSH1 0x40 MLOAD DUP1 PUSH1 0x40 ADD PUSH1 0x40 MSTORE DUP1 PUSH1 0x6 DUP2 MSTORE PUSH1 0x20 ADD PUSH32 0x534D45616D620000000000000000000000000000000000000000000000000000 DUP2 MSTORE POP DUP1 MLOAD SWAP1 PUSH1 0x20 ADD KECCAK256 PUSH2 0x277E JUMP JUMPDEST PUSH1 0x5 ADD DUP4 DUP2 SLOAD DUP2 LT PUSH2 0x12DE JUMPI PUSH2 0x12DD PUSH2 0x2FB7 JUMP JUMPDEST JUMPDEST SWAP1 PUSH0 MSTORE PUSH1 0x20 PUSH0 KECCAK256 ADD SLOAD SWAP1 POP DUP1 PUSH2 0x132F PUSH1 0x40 MLOAD DUP1 PUSH1 0x40 ADD PUSH1 0x40 MSTORE DUP1 PUSH1 0x6 DUP2 MSTORE PUSH1 0x20 ADD PUSH32 0x534D45616D620000000000000000000000000000000000000000000000000000 DUP2 MSTORE POP DUP1 MLOAD SWAP1 PUSH1 0x20 ADD KECCAK256 PUSH2 0x277E JUMP JUMPDEST PUSH1 0x5 ADD DUP4 DUP2 SLOAD DUP2 LT PUSH2 0x1344 JUMPI PUSH2 0x1343 PUSH2 0x2FB7 JUMP JUMPDEST JUMPDEST SWAP1 PUSH0 MSTORE PUSH1 0x20 PUSH0 KECCAK256 ADD DUP2 SWAP1 SSTORE POP DUP2 PUSH2 0x1396 PUSH1 0x40 MLOAD DUP1 PUSH1 0x40 ADD PUSH1 0x40 MSTORE DUP1 PUSH1 0x6 DUP2 MSTORE PUSH1 0x20 ADD PUSH32 0x534D45616D620000000000000000000000000000000000000000000000000000 DUP2 MSTORE POP DUP1 MLOAD SWAP1 PUSH1 0x20 ADD KECCAK256 PUSH2 0x277E JUMP JUMPDEST PUSH1 0x6 ADD PUSH0 DUP4 DUP2 MSTORE PUSH1 0x20 ADD SWAP1 DUP2 MSTORE PUSH1 0x20 ADD PUSH0 KECCAK256 DUP2 SWAP1 SSTORE POP PUSH2 0x13F1 PUSH1 0x40 MLOAD DUP1 PUSH1 0x40 ADD PUSH1 0x40 MSTORE DUP1 PUSH1 0x6 DUP2 MSTORE PUSH1 0x20 ADD PUSH32 0x534D45616D620000000000000000000000000000000000000000000000000000 DUP2 MSTORE POP DUP1 MLOAD SWAP1 PUSH1 0x20 ADD KECCAK256 PUSH2 0x277E JUMP JUMPDEST PUSH1 0x6 ADD PUSH0 DUP6 DUP2 MSTORE PUSH1 0x20 ADD SWAP1 DUP2 MSTORE PUSH1 0x20 ADD PUSH0 KECCAK256 PUSH0 SWAP1 SSTORE PUSH2 0x144B PUSH1 0x40 MLOAD DUP1 PUSH1 0x40 ADD PUSH1 0x40 MSTORE DUP1 PUSH1 0x6 DUP2 MSTORE PUSH1 0x20 ADD PUSH32 0x534D45616D620000000000000000000000000000000000000000000000000000 DUP2 MSTORE POP DUP1 MLOAD SWAP1 PUSH1 0x20 ADD KECCAK256 PUSH2 0x277E JUMP JUMPDEST PUSH1 0x5 ADD DUP1 SLOAD DUP1 PUSH2 0x145E JUMPI PUSH2 0x145D PUSH2 0x2FE4 JUMP JUMPDEST JUMPDEST PUSH1 0x1 SWAP1 SUB DUP2 DUP2 SWAP1 PUSH0 MSTORE PUSH1 0x20 PUSH0 KECCAK256 ADD PUSH0 SWAP1 SSTORE SWAP1 SSTORE POP POP POP POP JUMP JUMPDEST DUP1 PUSH2 0x14BD PUSH1 0x40 MLOAD DUP1 PUSH1 0x40 ADD PUSH1 0x40 MSTORE DUP1 PUSH1 0x6 DUP2 MSTORE PUSH1 0x20 ADD PUSH32 0x534D45616D620000000000000000000000000000000000000000000000000000 DUP2 MSTORE POP DUP1 MLOAD SWAP1 PUSH1 0x20 ADD KECCAK256 PUSH2 0x277E JUMP JUMPDEST PUSH1 0xF ADD SWAP1 DUP2 PUSH2 0x14CC SWAP2 SWAP1 PUSH2 0x31B1 JUMP JUMPDEST POP POP JUMP JUMPDEST PUSH0 PUSH2 0x1516 PUSH1 0x40 MLOAD DUP1 PUSH1 0x40 ADD PUSH1 0x40 MSTORE DUP1 PUSH1 0x6 DUP2 MSTORE PUSH1 0x20 ADD PUSH32 0x534D45616D620000000000000000000000000000000000000000000000000000 DUP2 MSTORE POP DUP1 MLOAD SWAP1 PUSH1 0x20 ADD KECCAK256 PUSH2 0x277E JUMP JUMPDEST PUSH1 0xD ADD SLOAD SWAP1 POP SWAP1 JUMP JUMPDEST PUSH0 PUSH2 0x1565 PUSH1 0x40 MLOAD DUP1 PUSH1 0x40 ADD PUSH1 0x40 MSTORE DUP1 PUSH1 0x6 DUP2 MSTORE PUSH1 0x20 ADD PUSH32 0x534D45616D620000000000000000000000000000000000000000000000000000 DUP2 MSTORE POP DUP1 MLOAD SWAP1 PUSH1 0x20 ADD KECCAK256 PUSH2 0x277E JUMP JUMPDEST PUSH1 0x10 ADD PUSH0 DUP4 DUP2 MSTORE PUSH1 0x20 ADD SWAP1 DUP2 MSTORE PUSH1 0x20 ADD PUSH0 KECCAK256 SLOAD SWAP1 POP SWAP2 SWAP1 POP JUMP JUMPDEST DUP1 PUSH2 0x15C5 PUSH1 0x40 MLOAD DUP1 PUSH1 0x40 ADD PUSH1 0x40 MSTORE DUP1 PUSH1 0x6 DUP2 MSTORE PUSH1 0x20 ADD PUSH32 0x534D45616D620000000000000000000000000000000000000000000000000000 DUP2 MSTORE POP DUP1 MLOAD SWAP1 PUSH1 0x20 ADD KECCAK256 PUSH2 0x277E JUMP JUMPDEST PUSH1 0x3 ADD PUSH0 DUP6 PUSH20 0xFFFFFFFFFFFFFFFFFFFFFFFFFFFFFFFFFFFFFFFF AND PUSH20 0xFFFFFFFFFFFFFFFFFFFFFFFFFFFFFFFFFFFFFFFF AND DUP2 MSTORE PUSH1 0x20 ADD SWAP1 DUP2 MSTORE PUSH1 0x20 ADD PUSH0 KECCAK256 PUSH0 DUP5 DUP2 MSTORE PUSH1 0x20 ADD SWAP1 DUP2 MSTORE PUSH1 0x20 ADD PUSH0 KECCAK256 DUP2 SWAP1 SSTORE POP POP POP POP JUMP JUMPDEST DUP2 PUSH2 0x1661 PUSH1 0x40 MLOAD DUP1 PUSH1 0x40 ADD PUSH1 0x40 MSTORE DUP1 PUSH1 0x6 DUP2 MSTORE PUSH1 0x20 ADD PUSH32 0x534D45616D620000000000000000000000000000000000000000000000000000 DUP2 MSTORE POP DUP1 MLOAD SWAP1 PUSH1 0x20 ADD KECCAK256 PUSH2 0x277E JUMP JUMPDEST PUSH1 0x3 ADD PUSH0 DUP6 PUSH20 0xFFFFFFFFFFFFFFFFFFFFFFFFFFFFFFFFFFFFFFFF AND PUSH20 0xFFFFFFFFFFFFFFFFFFFFFFFFFFFFFFFFFFFFFFFF AND DUP2 MSTORE PUSH1 0x20 ADD SWAP1 DUP2 MSTORE PUSH1 0x20 ADD PUSH0 KECCAK256 PUSH0 DUP4 DUP2 MSTORE PUSH1 0x20 ADD SWAP1 DUP2 MSTORE PUSH1 0x20 ADD PUSH0 KECCAK256 DUP2 SWAP1 SSTORE POP DUP1 PUSH2 0x16F8 PUSH1 0x40 MLOAD DUP1 PUSH1 0x40 ADD PUSH1 0x40 MSTORE DUP1 PUSH1 0x6 DUP2 MSTORE PUSH1 0x20 ADD PUSH32 0x534D45616D620000000000000000000000000000000000000000000000000000 DUP2 MSTORE POP DUP1 MLOAD SWAP1 PUSH1 0x20 ADD KECCAK256 PUSH2 0x277E JUMP JUMPDEST PUSH1 0x4 ADD PUSH0 DUP5 DUP2 MSTORE PUSH1 0x20 ADD SWAP1 DUP2 MSTORE PUSH1 0x20 ADD PUSH0 KECCAK256 DUP2 SWAP1 SSTORE POP POP POP POP JUMP JUMPDEST DUP1 PUSH2 0x1759 PUSH1 0x40 MLOAD DUP1 PUSH1 0x40 ADD PUSH1 0x40 MSTORE DUP1 PUSH1 0x6 DUP2 MSTORE PUSH1 0x20 ADD PUSH32 0x534D45616D620000000000000000000000000000000000000000000000000000 DUP2 MSTORE POP DUP1 MLOAD SWAP1 PUSH1 0x20 ADD KECCAK256 PUSH2 0x277E JUMP JUMPDEST PUSH1 0xE ADD SWAP1 DUP2 PUSH2 0x1768 SWAP2 SWAP1 PUSH2 0x31B1 JUMP JUMPDEST POP POP JUMP JUMPDEST PUSH1 0x60 PUSH2 0x17B3 PUSH1 0x40 MLOAD DUP1 PUSH1 0x40 ADD PUSH1 0x40 MSTORE DUP1 PUSH1 0x6 DUP2 MSTORE PUSH1 0x20 ADD PUSH32 0x534D45616D620000000000000000000000000000000000000000000000000000 DUP2 MSTORE POP DUP1 MLOAD SWAP1 PUSH1 0x20 ADD KECCAK256 PUSH2 0x277E JUMP JUMPDEST PUSH1 0x2 ADD PUSH0 DUP4 DUP2 MSTORE PUSH1 0x20 ADD SWAP1 DUP2 MSTORE PUSH1 0x20 ADD PUSH0 KECCAK256 DUP1 SLOAD PUSH2 0x17D0 SWAP1 PUSH2 0x2F27 JUMP JUMPDEST DUP1 PUSH1 0x1F ADD PUSH1 0x20 DUP1 SWAP2 DIV MUL PUSH1 0x20 ADD PUSH1 0x40 MLOAD SWAP1 DUP2 ADD PUSH1 0x40 MSTORE DUP1 SWAP3 SWAP2 SWAP1 DUP2 DUP2 MSTORE PUSH1 0x20 ADD DUP3 DUP1 SLOAD PUSH2 0x17FC SWAP1 PUSH2 0x2F27 JUMP JUMPDEST DUP1 ISZERO PUSH2 0x1847 JUMPI DUP1 PUSH1 0x1F LT PUSH2 0x181E JUMPI PUSH2 0x100 DUP1 DUP4 SLOAD DIV MUL DUP4 MSTORE SWAP2 PUSH1 0x20 ADD SWAP2 PUSH2 0x1847 JUMP JUMPDEST DUP3 ADD SWAP2 SWAP1 PUSH0 MSTORE PUSH1 0x20 PUSH0 KECCAK256 SWAP1 JUMPDEST DUP2 SLOAD DUP2 MSTORE SWAP1 PUSH1 0x1 ADD SWAP1 PUSH1 0x20 ADD DUP1 DUP4 GT PUSH2 0x182A JUMPI DUP3 SWAP1 SUB PUSH1 0x1F AND DUP3 ADD SWAP2 JUMPDEST POP POP POP POP POP SWAP1 POP SWAP2 SWAP1 POP JUMP JUMPDEST PUSH1 0x60 PUSH2 0x189A PUSH1 0x40 MLOAD DUP1 PUSH1 0x40 ADD PUSH1 0x40 MSTORE DUP1 PUSH1 0x6 DUP2 MSTORE PUSH1 0x20 ADD PUSH32 0x534D45616D620000000000000000000000000000000000000000000000000000 DUP2 MSTORE POP DUP1 MLOAD SWAP1 PUSH1 0x20 ADD KECCAK256 PUSH2 0x277E JUMP JUMPDEST PUSH1 0x5 ADD DUP1 SLOAD DUP1 PUSH1 0x20 MUL PUSH1 0x20 ADD PUSH1 0x40 MLOAD SWAP1 DUP2 ADD PUSH1 0x40 MSTORE DUP1 SWAP3 SWAP2 SWAP1 DUP2 DUP2 MSTORE PUSH1 0x20 ADD DUP3 DUP1 SLOAD DUP1 ISZERO PUSH2 0x18E5 JUMPI PUSH1 0x20 MUL DUP3 ADD SWAP2 SWAP1 PUSH0 MSTORE PUSH1 0x20 PUSH0 KECCAK256 SWAP1 JUMPDEST DUP2 SLOAD DUP2 MSTORE PUSH1 0x20 ADD SWAP1 PUSH1 0x1 ADD SWAP1 DUP1 DUP4 GT PUSH2 0x18D1 JUMPI JUMPDEST POP POP POP POP POP SWAP1 POP SWAP1 JUMP JUMPDEST PUSH0 PUSH2 0x1935 PUSH1 0x40 MLOAD DUP1 PUSH1 0x40 ADD PUSH1 0x40 MSTORE DUP1 PUSH1 0x6 DUP2 MSTORE PUSH1 0x20 ADD PUSH32 0x534D45616D620000000000000000000000000000000000000000000000000000 DUP2 MSTORE POP DUP1 MLOAD SWAP1 PUSH1 0x20 ADD KECCAK256 PUSH2 0x277E JUMP JUMPDEST PUSH1 0x4 ADD PUSH0 DUP4 DUP2 MSTORE PUSH1 0x20 ADD SWAP1 DUP2 MSTORE PUSH1 0x20 ADD PUSH0 KECCAK256 SLOAD SWAP1 POP SWAP2 SWAP1 POP JUMP JUMPDEST PUSH0 PUSH2 0x1995 PUSH1 0x40 MLOAD DUP1 PUSH1 0x40 ADD PUSH1 0x40 MSTORE DUP1 PUSH1 0x6 DUP2 MSTORE PUSH1 0x20 ADD PUSH32 0x534D45616D620000000000000000000000000000000000000000000000000000 DUP2 MSTORE POP DUP1 MLOAD SWAP1 PUSH1 0x20 ADD KECCAK256 PUSH2 0x277E JUMP JUMPDEST PUSH1 0x14 ADD SLOAD SWAP1 POP PUSH1 0x1 DUP2 PUSH2 0x19A8 SWAP2 SWAP1 PUSH2 0x3280 JUMP JUMPDEST PUSH2 0x19ED PUSH1 0x40 MLOAD DUP1 PUSH1 0x40 ADD PUSH1 0x40 MSTORE DUP1 PUSH1 0x6 DUP2 MSTORE PUSH1 0x20 ADD PUSH32 0x534D45616D620000000000000000000000000000000000000000000000000000 DUP2 MSTORE POP DUP1 MLOAD SWAP1 PUSH1 0x20 ADD KECCAK256 PUSH2 0x277E JUMP JUMPDEST PUSH1 0x14 ADD DUP2 SWAP1 SSTORE POP POP JUMP JUMPDEST DUP1 PUSH2 0x1A3D PUSH1 0x40 MLOAD DUP1 PUSH1 0x40 ADD PUSH1 0x40 MSTORE DUP1 PUSH1 0x6 DUP2 MSTORE PUSH1 0x20 ADD PUSH32 0x534D45616D620000000000000000000000000000000000000000000000000000 DUP2 MSTORE POP DUP1 MLOAD SWAP1 PUSH1 0x20 ADD KECCAK256 PUSH2 0x277E JUMP JUMPDEST PUSH1 0x1 ADD SWAP1 DUP2 PUSH2 0x1A4C SWAP2 SWAP1 PUSH2 0x31B1 JUMP JUMPDEST POP POP JUMP JUMPDEST DUP1 PUSH2 0x1A96 PUSH1 0x40 MLOAD DUP1 PUSH1 0x40 ADD PUSH1 0x40 MSTORE DUP1 PUSH1 0x6 DUP2 MSTORE PUSH1 0x20 ADD PUSH32 0x534D45616D620000000000000000000000000000000000000000000000000000 DUP2 MSTORE POP DUP1 MLOAD SWAP1 PUSH1 0x20 ADD KECCAK256 PUSH2 0x277E JUMP JUMPDEST PUSH1 0x13 ADD PUSH0 DUP6 PUSH20 0xFFFFFFFFFFFFFFFFFFFFFFFFFFFFFFFFFFFFFFFF AND PUSH20 0xFFFFFFFFFFFFFFFFFFFFFFFFFFFFFFFFFFFFFFFF AND DUP2 MSTORE PUSH1 0x20 ADD SWAP1 DUP2 MSTORE PUSH1 0x20 ADD PUSH0 KECCAK256 PUSH0 DUP5 PUSH20 0xFFFFFFFFFFFFFFFFFFFFFFFFFFFFFFFFFFFFFFFF AND PUSH20 0xFFFFFFFFFFFFFFFFFFFFFFFFFFFFFFFFFFFFFFFF AND DUP2 MSTORE PUSH1 0x20 ADD SWAP1 DUP2 MSTORE PUSH1 0x20 ADD PUSH0 KECCAK256 PUSH0 PUSH2 0x100 EXP DUP2 SLOAD DUP2 PUSH1 0xFF MUL NOT AND SWAP1 DUP4 ISZERO ISZERO MUL OR SWAP1 SSTORE POP POP POP POP JUMP JUMPDEST DUP1 PUSH2 0x1B70 PUSH1 0x40 MLOAD DUP1 PUSH1 0x40 ADD PUSH1 0x40 MSTORE DUP1 PUSH1 0x6 DUP2 MSTORE PUSH1 0x20 ADD PUSH32 0x534D45616D620000000000000000000000000000000000000000000000000000 DUP2 MSTORE POP DUP1 MLOAD SWAP1 PUSH1 0x20 ADD KECCAK256 PUSH2 0x277E JUMP JUMPDEST PUSH1 0x8 ADD DUP2 SWAP1 SSTORE POP POP JUMP JUMPDEST DUP1 PUSH2 0x1BC0 PUSH1 0x40 MLOAD DUP1 PUSH1 0x40 ADD PUSH1 0x40 MSTORE DUP1 PUSH1 0x6 DUP2 MSTORE PUSH1 0x20 ADD PUSH32 0x534D45616D620000000000000000000000000000000000000000000000000000 DUP2 MSTORE POP DUP1 MLOAD SWAP1 PUSH1 0x20 ADD KECCAK256 PUSH2 0x277E JUMP JUMPDEST PUSH1 0xD ADD DUP2 SWAP1 SSTORE POP POP JUMP JUMPDEST PUSH0 PUSH2 0x1C10 PUSH1 0x40 MLOAD DUP1 PUSH1 0x40 ADD PUSH1 0x40 MSTORE DUP1 PUSH1 0x6 DUP2 MSTORE PUSH1 0x20 ADD PUSH32 0x534D45616D620000000000000000000000000000000000000000000000000000 DUP2 MSTORE POP DUP1 MLOAD SWAP1 PUSH1 0x20 ADD KECCAK256 PUSH2 0x277E JUMP JUMPDEST PUSH1 0xC ADD SLOAD SWAP1 POP SWAP1 JUMP JUMPDEST PUSH1 0x60 PUSH2 0x1C60 PUSH1 0x40 MLOAD DUP1 PUSH1 0x40 ADD PUSH1 0x40 MSTORE DUP1 PUSH1 0x6 DUP2 MSTORE PUSH1 0x20 ADD PUSH32 0x534D45616D620000000000000000000000000000000000000000000000000000 DUP2 MSTORE POP DUP1 MLOAD SWAP1 PUSH1 0x20 ADD KECCAK256 PUSH2 0x277E JUMP JUMPDEST PUSH1 0xF ADD DUP1 SLOAD PUSH2 0x1C6E SWAP1 PUSH2 0x2F27 JUMP JUMPDEST DUP1 PUSH1 0x1F ADD PUSH1 0x20 DUP1 SWAP2 DIV MUL PUSH1 0x20 ADD PUSH1 0x40 MLOAD SWAP1 DUP2 ADD PUSH1 0x40 MSTORE DUP1 SWAP3 SWAP2 SWAP1 DUP2 DUP2 MSTORE PUSH1 0x20 ADD DUP3 DUP1 SLOAD PUSH2 0x1C9A SWAP1 PUSH2 0x2F27 JUMP JUMPDEST DUP1 ISZERO PUSH2 0x1CE5 JUMPI DUP1 PUSH1 0x1F LT PUSH2 0x1CBC JUMPI PUSH2 0x100 DUP1 DUP4 SLOAD DIV MUL DUP4 MSTORE SWAP2 PUSH1 0x20 ADD SWAP2 PUSH2 0x1CE5 JUMP JUMPDEST DUP3 ADD SWAP2 SWAP1 PUSH0 MSTORE PUSH1 0x20 PUSH0 KECCAK256 SWAP1 JUMPDEST DUP2 SLOAD DUP2 MSTORE SWAP1 PUSH1 0x1 ADD SWAP1 PUSH1 0x20 ADD DUP1 DUP4 GT PUSH2 0x1CC8 JUMPI DUP3 SWAP1 SUB PUSH1 0x1F AND DUP3 ADD SWAP2 JUMPDEST POP POP POP POP POP SWAP1 POP SWAP1 JUMP JUMPDEST PUSH1 0x60 PUSH2 0x1D36 PUSH1 0x40 MLOAD DUP1 PUSH1 0x40 ADD PUSH1 0x40 MSTORE DUP1 PUSH1 0x6 DUP2 MSTORE PUSH1 0x20 ADD PUSH32 0x534D45616D620000000000000000000000000000000000000000000000000000 DUP2 MSTORE POP DUP1 MLOAD SWAP1 PUSH1 0x20 ADD KECCAK256 PUSH2 0x277E JUMP JUMPDEST PUSH1 0x1 ADD DUP1 SLOAD PUSH2 0x1D44 SWAP1 PUSH2 0x2F27 JUMP JUMPDEST DUP1 PUSH1 0x1F ADD PUSH1 0x20 DUP1 SWAP2 DIV MUL PUSH1 0x20 ADD PUSH1 0x40 MLOAD SWAP1 DUP2 ADD PUSH1 0x40 MSTORE DUP1 SWAP3 SWAP2 SWAP1 DUP2 DUP2 MSTORE PUSH1 0x20 ADD DUP3 DUP1 SLOAD PUSH2 0x1D70 SWAP1 PUSH2 0x2F27 JUMP JUMPDEST DUP1 ISZERO PUSH2 0x1DBB JUMPI DUP1 PUSH1 0x1F LT PUSH2 0x1D92 JUMPI PUSH2 0x100 DUP1 DUP4 SLOAD DIV MUL DUP4 MSTORE SWAP2 PUSH1 0x20 ADD SWAP2 PUSH2 0x1DBB JUMP JUMPDEST DUP3 ADD SWAP2 SWAP1 PUSH0 MSTORE PUSH1 0x20 PUSH0 KECCAK256 SWAP1 JUMPDEST DUP2 SLOAD DUP2 MSTORE SWAP1 PUSH1 0x1 ADD SWAP1 PUSH1 0x20 ADD DUP1 DUP4 GT PUSH2 0x1D9E JUMPI DUP3 SWAP1 SUB PUSH1 0x1F AND DUP3 ADD SWAP2 JUMPDEST POP POP POP POP POP SWAP1 POP SWAP1 JUMP JUMPDEST PUSH0 PUSH2 0x1E0B PUSH1 0x40 MLOAD DUP1 PUSH1 0x40 ADD PUSH1 0x40 MSTORE DUP1 PUSH1 0x6 DUP2 MSTORE PUSH1 0x20 ADD PUSH32 0x534D45616D620000000000000000000000000000000000000000000000000000 DUP2 MSTORE POP DUP1 MLOAD SWAP1 PUSH1 0x20 ADD KECCAK256 PUSH2 0x277E JUMP JUMPDEST PUSH1 0x15 ADD SLOAD SWAP1 POP SWAP1 JUMP JUMPDEST DUP1 PUSH2 0x1E5A PUSH1 0x40 MLOAD DUP1 PUSH1 0x40 ADD PUSH1 0x40 MSTORE DUP1 PUSH1 0x6 DUP2 MSTORE PUSH1 0x20 ADD PUSH32 0x534D45616D620000000000000000000000000000000000000000000000000000 DUP2 MSTORE POP DUP1 MLOAD SWAP1 PUSH1 0x20 ADD KECCAK256 PUSH2 0x277E JUMP JUMPDEST PUSH0 ADD SWAP1 DUP2 PUSH2 0x1E68 SWAP2 SWAP1 PUSH2 0x31B1 JUMP JUMPDEST POP POP JUMP JUMPDEST DUP1 PUSH2 0x1EB2 PUSH1 0x40 MLOAD DUP1 PUSH1 0x40 ADD PUSH1 0x40 MSTORE DUP1 PUSH1 0x6 DUP2 MSTORE PUSH1 0x20 ADD PUSH32 0x534D45616D620000000000000000000000000000000000000000000000000000 DUP2 MSTORE POP DUP1 MLOAD SWAP1 PUSH1 0x20 ADD KECCAK256 PUSH2 0x277E JUMP JUMPDEST PUSH1 0x11 ADD PUSH0 DUP5 PUSH20 0xFFFFFFFFFFFFFFFFFFFFFFFFFFFFFFFFFFFFFFFF AND PUSH20 0xFFFFFFFFFFFFFFFFFFFFFFFFFFFFFFFFFFFFFFFF AND DUP2 MSTORE PUSH1 0x20 ADD SWAP1 DUP2 MSTORE PUSH1 0x20 ADD PUSH0 KECCAK256 DUP2 SWAP1 SSTORE POP POP POP JUMP JUMPDEST PUSH2 0x1F00 PUSH2 0x2787 JUMP JUMPDEST PUSH2 0x1F45 PUSH1 0x40 MLOAD DUP1 PUSH1 0x40 ADD PUSH1 0x40 MSTORE DUP1 PUSH1 0x6 DUP2 MSTORE PUSH1 0x20 ADD PUSH32 0x534D45616D620000000000000000000000000000000000000000000000000000 DUP2 MSTORE POP DUP1 MLOAD SWAP1 PUSH1 0x20 ADD KECCAK256 PUSH2 0x277E JUMP JUMPDEST PUSH1 0x12 ADD PUSH0 DUP4 DUP2 MSTORE PUSH1 0x20 ADD SWAP1 DUP2 MSTORE PUSH1 0x20 ADD PUSH0 KECCAK256 PUSH1 0x40 MLOAD DUP1 PUSH1 0x20 ADD PUSH1 0x40 MSTORE SWAP1 DUP2 PUSH0 DUP3 ADD PUSH0 SWAP1 SLOAD SWAP1 PUSH2 0x100 EXP SWAP1 DIV PUSH20 0xFFFFFFFFFFFFFFFFFFFFFFFFFFFFFFFFFFFFFFFF AND PUSH20 0xFFFFFFFFFFFFFFFFFFFFFFFFFFFFFFFFFFFFFFFF AND PUSH20 0xFFFFFFFFFFFFFFFFFFFFFFFFFFFFFFFFFFFFFFFF AND DUP2 MSTORE POP POP SWAP1 POP SWAP2 SWAP1 POP JUMP JUMPDEST DUP1 PUSH2 0x2003 PUSH1 0x40 MLOAD DUP1 PUSH1 0x40 ADD PUSH1 0x40 MSTORE DUP1 PUSH1 0x6 DUP2 MSTORE PUSH1 0x20 ADD PUSH32 0x534D45616D620000000000000000000000000000000000000000000000000000 DUP2 MSTORE POP DUP1 MLOAD SWAP1 PUSH1 0x20 ADD KECCAK256 PUSH2 0x277E JUMP JUMPDEST PUSH1 0x4 ADD PUSH0 DUP5 DUP2 MSTORE PUSH1 0x20 ADD SWAP1 DUP2 MSTORE PUSH1 0x20 ADD PUSH0 KECCAK256 DUP2 SWAP1 SSTORE POP POP POP JUMP JUMPDEST DUP1 PUSH2 0x2063 PUSH1 0x40 MLOAD DUP1 PUSH1 0x40 ADD PUSH1 0x40 MSTORE DUP1 PUSH1 0x6 DUP2 MSTORE PUSH1 0x20 ADD PUSH32 0x534D45616D620000000000000000000000000000000000000000000000000000 DUP2 MSTORE POP DUP1 MLOAD SWAP1 PUSH1 0x20 ADD KECCAK256 PUSH2 0x277E JUMP JUMPDEST PUSH1 0xB ADD PUSH0 DUP5 PUSH20 0xFFFFFFFFFFFFFFFFFFFFFFFFFFFFFFFFFFFFFFFF AND PUSH20 0xFFFFFFFFFFFFFFFFFFFFFFFFFFFFFFFFFFFFFFFF AND DUP2 MSTORE PUSH1 0x20 ADD SWAP1 DUP2 MSTORE PUSH1 0x20 ADD PUSH0 KECCAK256 PUSH0 PUSH2 0x100 EXP DUP2 SLOAD DUP2 PUSH1 0xFF MUL NOT AND SWAP1 DUP4 ISZERO ISZERO MUL OR SWAP1 SSTORE POP POP POP JUMP JUMPDEST PUSH0 PUSH2 0x2101 PUSH1 0x40 MLOAD DUP1 PUSH1 0x40 ADD PUSH1 0x40 MSTORE DUP1 PUSH1 0x6 DUP2 MSTORE PUSH1 0x20 ADD PUSH32 0x534D45616D620000000000000000000000000000000000000000000000000000 DUP2 MSTORE POP DUP1 MLOAD SWAP1 PUSH1 0x20 ADD KECCAK256 PUSH2 0x277E JUMP JUMPDEST PUSH1 0xB ADD PUSH0 DUP4 PUSH20 0xFFFFFFFFFFFFFFFFFFFFFFFFFFFFFFFFFFFFFFFF AND PUSH20 0xFFFFFFFFFFFFFFFFFFFFFFFFFFFFFFFFFFFFFFFF AND DUP2 MSTORE PUSH1 0x20 ADD SWAP1 DUP2 MSTORE PUSH1 0x20 ADD PUSH0 KECCAK256 PUSH0 SWAP1 SLOAD SWAP1 PUSH2 0x100 EXP SWAP1 DIV PUSH1 0xFF AND SWAP1 POP SWAP2 SWAP1 POP JUMP JUMPDEST PUSH1 0x1 PUSH2 0x219A PUSH1 0x40 MLOAD DUP1 PUSH1 0x40 ADD PUSH1 0x40 MSTORE DUP1 PUSH1 0x6 DUP2 MSTORE PUSH1 0x20 ADD PUSH32 0x534D45616D620000000000000000000000000000000000000000000000000000 DUP2 MSTORE POP DUP1 MLOAD SWAP1 PUSH1 0x20 ADD KECCAK256 PUSH2 0x277E JUMP JUMPDEST PUSH1 0x11 ADD PUSH0 DUP4 PUSH20 0xFFFFFFFFFFFFFFFFFFFFFFFFFFFFFFFFFFFFFFFF AND PUSH20 0xFFFFFFFFFFFFFFFFFFFFFFFFFFFFFFFFFFFFFFFF AND DUP2 MSTORE PUSH1 0x20 ADD SWAP1 DUP2 MSTORE PUSH1 0x20 ADD PUSH0 KECCAK256 SLOAD PUSH2 0x21E3 SWAP2 SWAP1 PUSH2 0x3280 JUMP JUMPDEST PUSH2 0x2228 PUSH1 0x40 MLOAD DUP1 PUSH1 0x40 ADD PUSH1 0x40 MSTORE DUP1 PUSH1 0x6 DUP2 MSTORE PUSH1 0x20 ADD PUSH32 0x534D45616D620000000000000000000000000000000000000000000000000000 DUP2 MSTORE POP DUP1 MLOAD SWAP1 PUSH1 0x20 ADD KECCAK256 PUSH2 0x277E JUMP JUMPDEST PUSH1 0x11 ADD PUSH0 DUP4 PUSH20 0xFFFFFFFFFFFFFFFFFFFFFFFFFFFFFFFFFFFFFFFF AND PUSH20 0xFFFFFFFFFFFFFFFFFFFFFFFFFFFFFFFFFFFFFFFF AND DUP2 MSTORE PUSH1 0x20 ADD SWAP1 DUP2 MSTORE PUSH1 0x20 ADD PUSH0 KECCAK256 DUP2 SWAP1 SSTORE POP POP JUMP JUMPDEST PUSH0 PUSH2 0x22B3 PUSH1 0x40 MLOAD DUP1 PUSH1 0x40 ADD PUSH1 0x40 MSTORE DUP1 PUSH1 0x6 DUP2 MSTORE PUSH1 0x20 ADD PUSH32 0x534D45616D620000000000000000000000000000000000000000000000000000 DUP2 MSTORE POP DUP1 MLOAD SWAP1 PUSH1 0x20 ADD KECCAK256 PUSH2 0x277E JUMP JUMPDEST PUSH1 0x14 ADD SLOAD SWAP1 POP SWAP1 JUMP JUMPDEST PUSH1 0x60 PUSH2 0x2303 PUSH1 0x40 MLOAD DUP1 PUSH1 0x40 ADD PUSH1 0x40 MSTORE DUP1 PUSH1 0x6 DUP2 MSTORE PUSH1 0x20 ADD PUSH32 0x534D45616D620000000000000000000000000000000000000000000000000000 DUP2 MSTORE POP DUP1 MLOAD SWAP1 PUSH1 0x20 ADD KECCAK256 PUSH2 0x277E JUMP JUMPDEST PUSH0 ADD DUP1 SLOAD PUSH2 0x2310 SWAP1 PUSH2 0x2F27 JUMP JUMPDEST DUP1 PUSH1 0x1F ADD PUSH1 0x20 DUP1 SWAP2 DIV MUL PUSH1 0x20 ADD PUSH1 0x40 MLOAD SWAP1 DUP2 ADD PUSH1 0x40 MSTORE DUP1 SWAP3 SWAP2 SWAP1 DUP2 DUP2 MSTORE PUSH1 0x20 ADD DUP3 DUP1 SLOAD PUSH2 0x233C SWAP1 PUSH2 0x2F27 JUMP JUMPDEST DUP1 ISZERO PUSH2 0x2387 JUMPI DUP1 PUSH1 0x1F LT PUSH2 0x235E JUMPI PUSH2 0x100 DUP1 DUP4 SLOAD DIV MUL DUP4 MSTORE SWAP2 PUSH1 0x20 ADD SWAP2 PUSH2 0x2387 JUMP JUMPDEST DUP3 ADD SWAP2 SWAP1 PUSH0 MSTORE PUSH1 0x20 PUSH0 KECCAK256 SWAP1 JUMPDEST DUP2 SLOAD DUP2 MSTORE SWAP1 PUSH1 0x1 ADD SWAP1 PUSH1 0x20 ADD DUP1 DUP4 GT PUSH2 0x236A JUMPI DUP3 SWAP1 SUB PUSH1 0x1F AND DUP3 ADD SWAP2 JUMPDEST POP POP POP POP POP SWAP1 POP SWAP1 JUMP JUMPDEST PUSH2 0x23D6 PUSH1 0x40 MLOAD DUP1 PUSH1 0x40 ADD PUSH1 0x40 MSTORE DUP1 PUSH1 0x6 DUP2 MSTORE PUSH1 0x20 ADD PUSH32 0x534D45616D620000000000000000000000000000000000000000000000000000 DUP2 MSTORE POP DUP1 MLOAD SWAP1 PUSH1 0x20 ADD KECCAK256 PUSH2 0x277E JUMP JUMPDEST PUSH1 0x5 ADD DUP1 SLOAD SWAP1 POP PUSH2 0x2422 PUSH1 0x40 MLOAD DUP1 PUSH1 0x40 ADD PUSH1 0x40 MSTORE DUP1 PUSH1 0x6 DUP2 MSTORE PUSH1 0x20 ADD PUSH32 0x534D45616D620000000000000000000000000000000000000000000000000000 DUP2 MSTORE POP DUP1 MLOAD SWAP1 PUSH1 0x20 ADD KECCAK256 PUSH2 0x277E JUMP JUMPDEST PUSH1 0x6 ADD PUSH0 DUP4 DUP2 MSTORE PUSH1 0x20 ADD SWAP1 DUP2 MSTORE PUSH1 0x20 ADD PUSH0 KECCAK256 DUP2 SWAP1 SSTORE POP PUSH2 0x247D PUSH1 0x40 MLOAD DUP1 PUSH1 0x40 ADD PUSH1 0x40 MSTORE DUP1 PUSH1 0x6 DUP2 MSTORE PUSH1 0x20 ADD PUSH32 0x534D45616D620000000000000000000000000000000000000000000000000000 DUP2 MSTORE POP DUP1 MLOAD SWAP1 PUSH1 0x20 ADD KECCAK256 PUSH2 0x277E JUMP JUMPDEST PUSH1 0x5 ADD DUP2 SWAP1 DUP1 PUSH1 0x1 DUP2 SLOAD ADD DUP1 DUP3 SSTORE DUP1 SWAP2 POP POP PUSH1 0x1 SWAP1 SUB SWAP1 PUSH0 MSTORE PUSH1 0x20 PUSH0 KECCAK256 ADD PUSH0 SWAP1 SWAP2 SWAP1 SWAP2 SWAP1 SWAP2 POP SSTORE POP JUMP JUMPDEST PUSH0 PUSH2 0x24ED PUSH1 0x40 MLOAD DUP1 PUSH1 0x40 ADD PUSH1 0x40 MSTORE DUP1 PUSH1 0x6 DUP2 MSTORE PUSH1 0x20 ADD PUSH32 0x534D45616D620000000000000000000000000000000000000000000000000000 DUP2 MSTORE POP DUP1 MLOAD SWAP1 PUSH1 0x20 ADD KECCAK256 PUSH2 0x277E JUMP JUMPDEST PUSH1 0xA ADD SLOAD SWAP1 POP SWAP1 JUMP JUMPDEST DUP2 PUSH2 0x253C PUSH1 0x40 MLOAD DUP1 PUSH1 0x40 ADD PUSH1 0x40 MSTORE DUP1 PUSH1 0x6 DUP2 MSTORE PUSH1 0x20 ADD PUSH32 0x534D45616D620000000000000000000000000000000000000000000000000000 DUP2 MSTORE POP DUP1 MLOAD SWAP1 PUSH1 0x20 ADD KECCAK256 PUSH2 0x277E JUMP JUMPDEST PUSH1 0x2 ADD PUSH0 DUP4 DUP2 MSTORE PUSH1 0x20 ADD SWAP1 DUP2 MSTORE PUSH1 0x20 ADD PUSH0 KECCAK256 SWAP1 DUP2 PUSH2 0x255A SWAP2 SWAP1 PUSH2 0x31B1 JUMP JUMPDEST POP POP POP JUMP JUMPDEST PUSH0 PUSH2 0x25A5 PUSH1 0x40 MLOAD DUP1 PUSH1 0x40 ADD PUSH1 0x40 MSTORE DUP1 PUSH1 0x6 DUP2 MSTORE PUSH1 0x20 ADD PUSH32 0x534D45616D620000000000000000000000000000000000000000000000000000 DUP2 MSTORE POP DUP1 MLOAD SWAP1 PUSH1 0x20 ADD KECCAK256 PUSH2 0x277E JUMP JUMPDEST PUSH1 0x3 ADD PUSH0 DUP5 PUSH20 0xFFFFFFFFFFFFFFFFFFFFFFFFFFFFFFFFFFFFFFFF AND PUSH20 0xFFFFFFFFFFFFFFFFFFFFFFFFFFFFFFFFFFFFFFFF AND DUP2 MSTORE PUSH1 0x20 ADD SWAP1 DUP2 MSTORE PUSH1 0x20 ADD PUSH0 KECCAK256 PUSH0 DUP4 DUP2 MSTORE PUSH1 0x20 ADD SWAP1 DUP2 MSTORE PUSH1 0x20 ADD PUSH0 KECCAK256 SLOAD SWAP1 POP SWAP3 SWAP2 POP POP JUMP JUMPDEST DUP1 PUSH2 0x2641 PUSH1 0x40 MLOAD DUP1 PUSH1 0x40 ADD PUSH1 0x40 MSTORE DUP1 PUSH1 0x6 DUP2 MSTORE PUSH1 0x20 ADD PUSH32 0x534D45616D620000000000000000000000000000000000000000000000000000 DUP2 MSTORE POP DUP1 MLOAD SWAP1 PUSH1 0x20 ADD KECCAK256 PUSH2 0x277E JUMP JUMPDEST PUSH1 0x10 ADD PUSH0 DUP5 DUP2 MSTORE PUSH1 0x20 ADD SWAP1 DUP2 MSTORE PUSH1 0x20 ADD PUSH0 KECCAK256 DUP2 SWAP1 SSTORE POP POP POP JUMP JUMPDEST PUSH0 PUSH2 0x26A1 PUSH1 0x40 MLOAD DUP1 PUSH1 0x40 ADD PUSH1 0x40 MSTORE DUP1 PUSH1 0x6 DUP2 MSTORE PUSH1 0x20 ADD PUSH32 0x534D45616D620000000000000000000000000000000000000000000000000000 DUP2 MSTORE POP DUP1 MLOAD SWAP1 PUSH1 0x20 ADD KECCAK256 PUSH2 0x277E JUMP JUMPDEST PUSH1 0x13 ADD PUSH0 DUP5 PUSH20 0xFFFFFFFFFFFFFFFFFFFFFFFFFFFFFFFFFFFFFFFF AND PUSH20 0xFFFFFFFFFFFFFFFFFFFFFFFFFFFFFFFFFFFFFFFF AND DUP2 MSTORE PUSH1 0x20 ADD SWAP1 DUP2 MSTORE PUSH1 0x20 ADD PUSH0 KECCAK256 PUSH0 DUP4 PUSH20 0xFFFFFFFFFFFFFFFFFFFFFFFFFFFFFFFFFFFFFFFF AND PUSH20 0xFFFFFFFFFFFFFFFFFFFFFFFFFFFFFFFFFFFFFFFF AND DUP2 MSTORE PUSH1 0x20 ADD SWAP1 DUP2 MSTORE PUSH1 0x20 ADD PUSH0 KECCAK256 PUSH0 SWAP1 SLOAD SWAP1 PUSH2 0x100 EXP SWAP1 DIV PUSH1 0xFF AND SWAP1 POP SWAP3 SWAP2 POP POP JUMP JUMPDEST PUSH0 PUSH2 0x2775 PUSH1 0x40 MLOAD DUP1 PUSH1 0x40 ADD PUSH1 0x40 MSTORE DUP1 PUSH1 0x6 DUP2 MSTORE PUSH1 0x20 ADD PUSH32 0x534D45616D620000000000000000000000000000000000000000000000000000 DUP2 MSTORE POP DUP1 MLOAD SWAP1 PUSH1 0x20 ADD KECCAK256 PUSH2 0x277E JUMP JUMPDEST PUSH1 0x8 ADD SLOAD SWAP1 POP SWAP1 JUMP JUMPDEST PUSH0 DUP2 SWAP1 POP SWAP2 SWAP1 POP JUMP JUMPDEST PUSH1 0x40 MLOAD DUP1 PUSH1 0x20 ADD PUSH1 0x40 MSTORE DUP1 PUSH0 PUSH20 0xFFFFFFFFFFFFFFFFFFFFFFFFFFFFFFFFFFFFFFFF AND DUP2 MSTORE POP SWAP1 JUMP JUMPDEST PUSH0 DUP2 MLOAD SWAP1 POP SWAP2 SWAP1 POP JUMP JUMPDEST PUSH0 DUP3 DUP3 MSTORE PUSH1 0x20 DUP3 ADD SWAP1 POP SWAP3 SWAP2 POP POP JUMP JUMPDEST DUP3 DUP2 DUP4 MCOPY PUSH0 DUP4 DUP4 ADD MSTORE POP POP POP JUMP JUMPDEST PUSH0 PUSH1 0x1F NOT PUSH1 0x1F DUP4 ADD AND SWAP1 POP SWAP2 SWAP1 POP JUMP JUMPDEST PUSH0 PUSH2 0x27F1 DUP3 PUSH2 0x27AF JUMP JUMPDEST PUSH2 0x27FB DUP2 DUP6 PUSH2 0x27B9 JUMP JUMPDEST SWAP4 POP PUSH2 0x280B DUP2 DUP6 PUSH1 0x20 DUP7 ADD PUSH2 0x27C9 JUMP JUMPDEST PUSH2 0x2814 DUP2 PUSH2 0x27D7 JUMP JUMPDEST DUP5 ADD SWAP2 POP POP SWAP3 SWAP2 POP POP JUMP JUMPDEST PUSH0 PUSH1 0x20 DUP3 ADD SWAP1 POP DUP2 DUP2 SUB PUSH0 DUP4 ADD MSTORE PUSH2 0x2837 DUP2 DUP5 PUSH2 0x27E7 JUMP JUMPDEST SWAP1 POP SWAP3 SWAP2 POP POP JUMP JUMPDEST PUSH0 PUSH1 0x40 MLOAD SWAP1 POP SWAP1 JUMP JUMPDEST PUSH0 PUSH0 REVERT JUMPDEST PUSH0 PUSH0 REVERT JUMPDEST PUSH0 PUSH20 0xFFFFFFFFFFFFFFFFFFFFFFFFFFFFFFFFFFFFFFFF DUP3 AND SWAP1 POP SWAP2 SWAP1 POP JUMP JUMPDEST PUSH0 PUSH2 0x2879 DUP3 PUSH2 0x2850 JUMP JUMPDEST SWAP1 POP SWAP2 SWAP1 POP JUMP JUMPDEST PUSH2 0x2889 DUP2 PUSH2 0x286F JUMP JUMPDEST DUP2 EQ PUSH2 0x2893 JUMPI PUSH0 PUSH0 REVERT JUMPDEST POP JUMP JUMPDEST PUSH0 DUP2 CALLDATALOAD SWAP1 POP PUSH2 0x28A4 DUP2 PUSH2 0x2880 JUMP JUMPDEST SWAP3 SWAP2 POP POP JUMP JUMPDEST PUSH0 DUP2 SWAP1 POP SWAP2 SWAP1 POP JUMP JUMPDEST PUSH2 0x28BC DUP2 PUSH2 0x28AA JUMP JUMPDEST DUP2 EQ PUSH2 0x28C6 JUMPI PUSH0 PUSH0 REVERT JUMPDEST POP JUMP JUMPDEST PUSH0 DUP2 CALLDATALOAD SWAP1 POP PUSH2 0x28D7 DUP2 PUSH2 0x28B3 JUMP JUMPDEST SWAP3 SWAP2 POP POP JUMP JUMPDEST PUSH0 PUSH0 PUSH0 PUSH1 0x60 DUP5 DUP7 SUB SLT ISZERO PUSH2 0x28F4 JUMPI PUSH2 0x28F3 PUSH2 0x2848 JUMP JUMPDEST JUMPDEST PUSH0 PUSH2 0x2901 DUP7 DUP3 DUP8 ADD PUSH2 0x2896 JUMP JUMPDEST SWAP4 POP POP PUSH1 0x20 PUSH2 0x2912 DUP7 DUP3 DUP8 ADD PUSH2 0x28C9 JUMP JUMPDEST SWAP3 POP POP PUSH1 0x40 PUSH2 0x2923 DUP7 DUP3 DUP8 ADD PUSH2 0x28C9 JUMP JUMPDEST SWAP2 POP POP SWAP3 POP SWAP3 POP SWAP3 JUMP JUMPDEST PUSH0 PUSH0 PUSH1 0x40 DUP4 DUP6 SUB SLT ISZERO PUSH2 0x2943 JUMPI PUSH2 0x2942 PUSH2 0x2848 JUMP JUMPDEST JUMPDEST PUSH0 PUSH2 0x2950 DUP6 DUP3 DUP7 ADD PUSH2 0x28C9 JUMP JUMPDEST SWAP3 POP POP PUSH1 0x20 PUSH2 0x2961 DUP6 DUP3 DUP7 ADD PUSH2 0x2896 JUMP JUMPDEST SWAP2 POP POP SWAP3 POP SWAP3 SWAP1 POP JUMP JUMPDEST PUSH0 DUP2 SWAP1 POP SWAP2 SWAP1 POP JUMP JUMPDEST PUSH2 0x297D DUP2 PUSH2 0x296B JUMP JUMPDEST DUP3 MSTORE POP POP JUMP JUMPDEST PUSH0 PUSH1 0x20 DUP3 ADD SWAP1 POP PUSH2 0x2996 PUSH0 DUP4 ADD DUP5 PUSH2 0x2974 JUMP JUMPDEST SWAP3 SWAP2 POP POP JUMP JUMPDEST PUSH0 PUSH1 0x20 DUP3 DUP5 SUB SLT ISZERO PUSH2 0x29B1 JUMPI PUSH2 0x29B0 PUSH2 0x2848 JUMP JUMPDEST JUMPDEST PUSH0 PUSH2 0x29BE DUP5 DUP3 DUP6 ADD PUSH2 0x2896 JUMP JUMPDEST SWAP2 POP POP SWAP3 SWAP2 POP POP JUMP JUMPDEST PUSH2 0x29D0 DUP2 PUSH2 0x28AA JUMP JUMPDEST DUP3 MSTORE POP POP JUMP JUMPDEST PUSH0 PUSH1 0x20 DUP3 ADD SWAP1 POP PUSH2 0x29E9 PUSH0 DUP4 ADD DUP5 PUSH2 0x29C7 JUMP JUMPDEST SWAP3 SWAP2 POP POP JUMP JUMPDEST PUSH2 0x29F8 DUP2 PUSH2 0x296B JUMP JUMPDEST DUP2 EQ PUSH2 0x2A02 JUMPI PUSH0 PUSH0 REVERT JUMPDEST POP JUMP JUMPDEST PUSH0 DUP2 CALLDATALOAD SWAP1 POP PUSH2 0x2A13 DUP2 PUSH2 0x29EF JUMP JUMPDEST SWAP3 SWAP2 POP POP JUMP JUMPDEST PUSH0 PUSH1 0x20 DUP3 DUP5 SUB SLT ISZERO PUSH2 0x2A2E JUMPI PUSH2 0x2A2D PUSH2 0x2848 JUMP JUMPDEST JUMPDEST PUSH0 PUSH2 0x2A3B DUP5 DUP3 DUP6 ADD PUSH2 0x2A05 JUMP JUMPDEST SWAP2 POP POP SWAP3 SWAP2 POP POP JUMP JUMPDEST PUSH0 PUSH1 0x20 DUP3 DUP5 SUB SLT ISZERO PUSH2 0x2A59 JUMPI PUSH2 0x2A58 PUSH2 0x2848 JUMP JUMPDEST JUMPDEST PUSH0 PUSH2 0x2A66 DUP5 DUP3 DUP6 ADD PUSH2 0x28C9 JUMP JUMPDEST SWAP2 POP POP SWAP3 SWAP2 POP POP JUMP JUMPDEST PUSH0 PUSH0 REVERT JUMPDEST PUSH0 PUSH0 REVERT JUMPDEST PUSH32 0x4E487B7100000000000000000000000000000000000000000000000000000000 PUSH0 MSTORE PUSH1 0x41 PUSH1 0x4 MSTORE PUSH1 0x24 PUSH0 REVERT JUMPDEST PUSH2 0x2AAD DUP3 PUSH2 0x27D7 JUMP JUMPDEST DUP2 ADD DUP2 DUP2 LT PUSH8 0xFFFFFFFFFFFFFFFF DUP3 GT OR ISZERO PUSH2 0x2ACC JUMPI PUSH2 0x2ACB PUSH2 0x2A77 JUMP JUMPDEST JUMPDEST DUP1 PUSH1 0x40 MSTORE POP POP POP JUMP JUMPDEST PUSH0 PUSH2 0x2ADE PUSH2 0x283F JUMP JUMPDEST SWAP1 POP PUSH2 0x2AEA DUP3 DUP3 PUSH2 0x2AA4 JUMP JUMPDEST SWAP2 SWAP1 POP JUMP JUMPDEST PUSH0 PUSH8 0xFFFFFFFFFFFFFFFF DUP3 GT ISZERO PUSH2 0x2B09 JUMPI PUSH2 0x2B08 PUSH2 0x2A77 JUMP JUMPDEST JUMPDEST PUSH2 0x2B12 DUP3 PUSH2 0x27D7 JUMP JUMPDEST SWAP1 POP PUSH1 0x20 DUP2 ADD SWAP1 POP SWAP2 SWAP1 POP JUMP JUMPDEST DUP3 DUP2 DUP4 CALLDATACOPY PUSH0 DUP4 DUP4 ADD MSTORE POP POP POP JUMP JUMPDEST PUSH0 PUSH2 0x2B3F PUSH2 0x2B3A DUP5 PUSH2 0x2AEF JUMP JUMPDEST PUSH2 0x2AD5 JUMP JUMPDEST SWAP1 POP DUP3 DUP2 MSTORE PUSH1 0x20 DUP2 ADD DUP5 DUP5 DUP5 ADD GT ISZERO PUSH2 0x2B5B JUMPI PUSH2 0x2B5A PUSH2 0x2A73 JUMP JUMPDEST JUMPDEST PUSH2 0x2B66 DUP5 DUP3 DUP6 PUSH2 0x2B1F JUMP JUMPDEST POP SWAP4 SWAP3 POP POP POP JUMP JUMPDEST PUSH0 DUP3 PUSH1 0x1F DUP4 ADD SLT PUSH2 0x2B82 JUMPI PUSH2 0x2B81 PUSH2 0x2A6F JUMP JUMPDEST JUMPDEST DUP2 CALLDATALOAD PUSH2 0x2B92 DUP5 DUP3 PUSH1 0x20 DUP7 ADD PUSH2 0x2B2D JUMP JUMPDEST SWAP2 POP POP SWAP3 SWAP2 POP POP JUMP JUMPDEST PUSH0 PUSH1 0x20 DUP3 DUP5 SUB SLT ISZERO PUSH2 0x2BB0 JUMPI PUSH2 0x2BAF PUSH2 0x2848 JUMP JUMPDEST JUMPDEST PUSH0 DUP3 ADD CALLDATALOAD PUSH8 0xFFFFFFFFFFFFFFFF DUP2 GT ISZERO PUSH2 0x2BCD JUMPI PUSH2 0x2BCC PUSH2 0x284C JUMP JUMPDEST JUMPDEST PUSH2 0x2BD9 DUP5 DUP3 DUP6 ADD PUSH2 0x2B6E JUMP JUMPDEST SWAP2 POP POP SWAP3 SWAP2 POP POP JUMP JUMPDEST PUSH0 DUP2 MLOAD SWAP1 POP SWAP2 SWAP1 POP JUMP JUMPDEST PUSH0 DUP3 DUP3 MSTORE PUSH1 0x20 DUP3 ADD SWAP1 POP SWAP3 SWAP2 POP POP JUMP JUMPDEST PUSH0 DUP2 SWAP1 POP PUSH1 0x20 DUP3 ADD SWAP1 POP SWAP2 SWAP1 POP JUMP JUMPDEST PUSH2 0x2C14 DUP2 PUSH2 0x28AA JUMP JUMPDEST DUP3 MSTORE POP POP JUMP JUMPDEST PUSH0 PUSH2 0x2C25 DUP4 DUP4 PUSH2 0x2C0B JUMP JUMPDEST PUSH1 0x20 DUP4 ADD SWAP1 POP SWAP3 SWAP2 POP POP JUMP JUMPDEST PUSH0 PUSH1 0x20 DUP3 ADD SWAP1 POP SWAP2 SWAP1 POP JUMP JUMPDEST PUSH0 PUSH2 0x2C47 DUP3 PUSH2 0x2BE2 JUMP JUMPDEST PUSH2 0x2C51 DUP2 DUP6 PUSH2 0x2BEC JUMP JUMPDEST SWAP4 POP PUSH2 0x2C5C DUP4 PUSH2 0x2BFC JUMP JUMPDEST DUP1 PUSH0 JUMPDEST DUP4 DUP2 LT ISZERO PUSH2 0x2C8C JUMPI DUP2 MLOAD PUSH2 0x2C73 DUP9 DUP3 PUSH2 0x2C1A JUMP JUMPDEST SWAP8 POP PUSH2 0x2C7E DUP4 PUSH2 0x2C31 JUMP JUMPDEST SWAP3 POP POP PUSH1 0x1 DUP2 ADD SWAP1 POP PUSH2 0x2C5F JUMP JUMPDEST POP DUP6 SWAP4 POP POP POP POP SWAP3 SWAP2 POP POP JUMP JUMPDEST PUSH0 PUSH1 0x20 DUP3 ADD SWAP1 POP DUP2 DUP2 SUB PUSH0 DUP4 ADD MSTORE PUSH2 0x2CB1 DUP2 DUP5 PUSH2 0x2C3D JUMP JUMPDEST SWAP1 POP SWAP3 SWAP2 POP POP JUMP JUMPDEST PUSH0 DUP2 ISZERO ISZERO SWAP1 POP SWAP2 SWAP1 POP JUMP JUMPDEST PUSH2 0x2CCD DUP2 PUSH2 0x2CB9 JUMP JUMPDEST DUP2 EQ PUSH2 0x2CD7 JUMPI PUSH0 PUSH0 REVERT JUMPDEST POP JUMP JUMPDEST PUSH0 DUP2 CALLDATALOAD SWAP1 POP PUSH2 0x2CE8 DUP2 PUSH2 0x2CC4 JUMP JUMPDEST SWAP3 SWAP2 POP POP JUMP JUMPDEST PUSH0 PUSH0 PUSH0 PUSH1 0x60 DUP5 DUP7 SUB SLT ISZERO PUSH2 0x2D05 JUMPI PUSH2 0x2D04 PUSH2 0x2848 JUMP JUMPDEST JUMPDEST PUSH0 PUSH2 0x2D12 DUP7 DUP3 DUP8 ADD PUSH2 0x2896 JUMP JUMPDEST SWAP4 POP POP PUSH1 0x20 PUSH2 0x2D23 DUP7 DUP3 DUP8 ADD PUSH2 0x2896 JUMP JUMPDEST SWAP3 POP POP PUSH1 0x40 PUSH2 0x2D34 DUP7 DUP3 DUP8 ADD PUSH2 0x2CDA JUMP JUMPDEST SWAP2 POP POP SWAP3 POP SWAP3 POP SWAP3 JUMP JUMPDEST PUSH0 PUSH0 PUSH1 0x40 DUP4 DUP6 SUB SLT ISZERO PUSH2 0x2D54 JUMPI PUSH2 0x2D53 PUSH2 0x2848 JUMP JUMPDEST JUMPDEST PUSH0 PUSH2 0x2D61 DUP6 DUP3 DUP7 ADD PUSH2 0x2896 JUMP JUMPDEST SWAP3 POP POP PUSH1 0x20 PUSH2 0x2D72 DUP6 DUP3 DUP7 ADD PUSH2 0x28C9 JUMP JUMPDEST SWAP2 POP POP SWAP3 POP SWAP3 SWAP1 POP JUMP JUMPDEST PUSH2 0x2D85 DUP2 PUSH2 0x286F JUMP JUMPDEST DUP3 MSTORE POP POP JUMP JUMPDEST PUSH1 0x20 DUP3 ADD PUSH0 DUP3 ADD MLOAD PUSH2 0x2D9F PUSH0 DUP6 ADD DUP3 PUSH2 0x2D7C JUMP JUMPDEST POP POP POP POP JUMP JUMPDEST PUSH0 PUSH1 0x20 DUP3 ADD SWAP1 POP PUSH2 0x2DB8 PUSH0 DUP4 ADD DUP5 PUSH2 0x2D8B JUMP JUMPDEST SWAP3 SWAP2 POP POP JUMP JUMPDEST PUSH0 PUSH0 PUSH1 0x40 DUP4 DUP6 SUB SLT ISZERO PUSH2 0x2DD4 JUMPI PUSH2 0x2DD3 PUSH2 0x2848 JUMP JUMPDEST JUMPDEST PUSH0 PUSH2 0x2DE1 DUP6 DUP3 DUP7 ADD PUSH2 0x28C9 JUMP JUMPDEST SWAP3 POP POP PUSH1 0x20 PUSH2 0x2DF2 DUP6 DUP3 DUP7 ADD PUSH2 0x28C9 JUMP JUMPDEST SWAP2 POP POP SWAP3 POP SWAP3 SWAP1 POP JUMP JUMPDEST PUSH0 PUSH0 PUSH1 0x40 DUP4 DUP6 SUB SLT ISZERO PUSH2 0x2E12 JUMPI PUSH2 0x2E11 PUSH2 0x2848 JUMP JUMPDEST JUMPDEST PUSH0 PUSH2 0x2E1F DUP6 DUP3 DUP7 ADD PUSH2 0x2896 JUMP JUMPDEST SWAP3 POP POP PUSH1 0x20 PUSH2 0x2E30 DUP6 DUP3 DUP7 ADD PUSH2 0x2CDA JUMP JUMPDEST SWAP2 POP POP SWAP3 POP SWAP3 SWAP1 POP JUMP JUMPDEST PUSH2 0x2E43 DUP2 PUSH2 0x2CB9 JUMP JUMPDEST DUP3 MSTORE POP POP JUMP JUMPDEST PUSH0 PUSH1 0x20 DUP3 ADD SWAP1 POP PUSH2 0x2E5C PUSH0 DUP4 ADD DUP5 PUSH2 0x2E3A JUMP JUMPDEST SWAP3 SWAP2 POP POP JUMP JUMPDEST PUSH0 PUSH0 PUSH1 0x40 DUP4 DUP6 SUB SLT ISZERO PUSH2 0x2E78 JUMPI PUSH2 0x2E77 PUSH2 0x2848 JUMP JUMPDEST JUMPDEST PUSH0 DUP4 ADD CALLDATALOAD PUSH8 0xFFFFFFFFFFFFFFFF DUP2 GT ISZERO PUSH2 0x2E95 JUMPI PUSH2 0x2E94 PUSH2 0x284C JUMP JUMPDEST JUMPDEST PUSH2 0x2EA1 DUP6 DUP3 DUP7 ADD PUSH2 0x2B6E JUMP JUMPDEST SWAP3 POP POP PUSH1 0x20 PUSH2 0x2EB2 DUP6 DUP3 DUP7 ADD PUSH2 0x28C9 JUMP JUMPDEST SWAP2 POP POP SWAP3 POP SWAP3 SWAP1 POP JUMP JUMPDEST PUSH0 PUSH0 PUSH1 0x40 DUP4 DUP6 SUB SLT ISZERO PUSH2 0x2ED2 JUMPI PUSH2 0x2ED1 PUSH2 0x2848 JUMP JUMPDEST JUMPDEST PUSH0 PUSH2 0x2EDF DUP6 DUP3 DUP7 ADD PUSH2 0x2896 JUMP JUMPDEST SWAP3 POP POP PUSH1 0x20 PUSH2 0x2EF0 DUP6 DUP3 DUP7 ADD PUSH2 0x2896 JUMP JUMPDEST SWAP2 POP POP SWAP3 POP SWAP3 SWAP1 POP JUMP JUMPDEST PUSH32 0x4E487B7100000000000000000000000000000000000000000000000000000000 PUSH0 MSTORE PUSH1 0x22 PUSH1 0x4 MSTORE PUSH1 0x24 PUSH0 REVERT JUMPDEST PUSH0 PUSH1 0x2 DUP3 DIV SWAP1 POP PUSH1 0x1 DUP3 AND DUP1 PUSH2 0x2F3E JUMPI PUSH1 0x7F DUP3 AND SWAP2 POP JUMPDEST PUSH1 0x20 DUP3 LT DUP2 SUB PUSH2 0x2F51 JUMPI PUSH2 0x2F50 PUSH2 0x2EFA JUMP JUMPDEST JUMPDEST POP SWAP2 SWAP1 POP JUMP JUMPDEST PUSH32 0x4E487B7100000000000000000000000000000000000000000000000000000000 PUSH0 MSTORE PUSH1 0x11 PUSH1 0x4 MSTORE PUSH1 0x24 PUSH0 REVERT JUMPDEST PUSH0 PUSH2 0x2F8E DUP3 PUSH2 0x28AA JUMP JUMPDEST SWAP2 POP PUSH2 0x2F99 DUP4 PUSH2 0x28AA JUMP JUMPDEST SWAP3 POP DUP3 DUP3 SUB SWAP1 POP DUP2 DUP2 GT ISZERO PUSH2 0x2FB1 JUMPI PUSH2 0x2FB0 PUSH2 0x2F57 JUMP JUMPDEST JUMPDEST SWAP3 SWAP2 POP POP JUMP JUMPDEST PUSH32 0x4E487B7100000000000000000000000000000000000000000000000000000000 PUSH0 MSTORE PUSH1 0x32 PUSH1 0x4 MSTORE PUSH1 0x24 PUSH0 REVERT JUMPDEST PUSH32 0x4E487B7100000000000000000000000000000000000000000000000000000000 PUSH0 MSTORE PUSH1 0x31 PUSH1 0x4 MSTORE PUSH1 0x24 PUSH0 REVERT JUMPDEST PUSH0 DUP2 SWAP1 POP DUP2 PUSH0 MSTORE PUSH1 0x20 PUSH0 KECCAK256 SWAP1 POP SWAP2 SWAP1 POP JUMP JUMPDEST PUSH0 PUSH1 0x20 PUSH1 0x1F DUP4 ADD DIV SWAP1 POP SWAP2 SWAP1 POP JUMP JUMPDEST PUSH0 DUP3 DUP3 SHL SWAP1 POP SWAP3 SWAP2 POP POP JUMP JUMPDEST PUSH0 PUSH1 0x8 DUP4 MUL PUSH2 0x306D PUSH32 0xFFFFFFFFFFFFFFFFFFFFFFFFFFFFFFFFFFFFFFFFFFFFFFFFFFFFFFFFFFFFFFFF DUP3 PUSH2 0x3032 JUMP JUMPDEST PUSH2 0x3077 DUP7 DUP4 PUSH2 0x3032 JUMP JUMPDEST SWAP6 POP DUP1 NOT DUP5 AND SWAP4 POP DUP1 DUP7 AND DUP5 OR SWAP3 POP POP POP SWAP4 SWAP3 POP POP POP JUMP JUMPDEST PUSH0 DUP2 SWAP1 POP SWAP2 SWAP1 POP JUMP JUMPDEST PUSH0 PUSH2 0x30B2 PUSH2 0x30AD PUSH2 0x30A8 DUP5 PUSH2 0x28AA JUMP JUMPDEST PUSH2 0x308F JUMP JUMPDEST PUSH2 0x28AA JUMP JUMPDEST SWAP1 POP SWAP2 SWAP1 POP JUMP JUMPDEST PUSH0 DUP2 SWAP1 POP SWAP2 SWAP1 POP JUMP JUMPDEST PUSH2 0x30CB DUP4 PUSH2 0x3098 JUMP JUMPDEST PUSH2 0x30DF PUSH2 0x30D7 DUP3 PUSH2 0x30B9 JUMP JUMPDEST DUP5 DUP5 SLOAD PUSH2 0x303E JUMP JUMPDEST DUP3 SSTORE POP POP POP POP JUMP JUMPDEST PUSH0 PUSH0 SWAP1 POP SWAP1 JUMP JUMPDEST PUSH2 0x30F6 PUSH2 0x30E7 JUMP JUMPDEST PUSH2 0x3101 DUP2 DUP5 DUP5 PUSH2 0x30C2 JUMP JUMPDEST POP POP POP JUMP JUMPDEST JUMPDEST DUP2 DUP2 LT ISZERO PUSH2 0x3124 JUMPI PUSH2 0x3119 PUSH0 DUP3 PUSH2 0x30EE JUMP JUMPDEST PUSH1 0x1 DUP2 ADD SWAP1 POP PUSH2 0x3107 JUMP JUMPDEST POP POP JUMP JUMPDEST PUSH1 0x1F DUP3 GT ISZERO PUSH2 0x3169 JUMPI PUSH2 0x313A DUP2 PUSH2 0x3011 JUMP JUMPDEST PUSH2 0x3143 DUP5 PUSH2 0x3023 JUMP JUMPDEST DUP2 ADD PUSH1 0x20 DUP6 LT ISZERO PUSH2 0x3152 JUMPI DUP2 SWAP1 POP JUMPDEST PUSH2 0x3166 PUSH2 0x315E DUP6 PUSH2 0x3023 JUMP JUMPDEST DUP4 ADD DUP3 PUSH2 0x3106 JUMP JUMPDEST POP POP JUMPDEST POP POP POP JUMP JUMPDEST PUSH0 DUP3 DUP3 SHR SWAP1 POP SWAP3 SWAP2 POP POP JUMP JUMPDEST PUSH0 PUSH2 0x3189 PUSH0 NOT DUP5 PUSH1 0x8 MUL PUSH2 0x316E JUMP JUMPDEST NOT DUP1 DUP4 AND SWAP2 POP POP SWAP3 SWAP2 POP POP JUMP JUMPDEST PUSH0 PUSH2 0x31A1 DUP4 DUP4 PUSH2 0x317A JUMP JUMPDEST SWAP2 POP DUP3 PUSH1 0x2 MUL DUP3 OR SWAP1 POP SWAP3 SWAP2 POP POP JUMP JUMPDEST PUSH2 0x31BA DUP3 PUSH2 0x27AF JUMP JUMPDEST PUSH8 0xFFFFFFFFFFFFFFFF DUP2 GT ISZERO PUSH2 0x31D3 JUMPI PUSH2 0x31D2 PUSH2 0x2A77 JUMP JUMPDEST JUMPDEST PUSH2 0x31DD DUP3 SLOAD PUSH2 0x2F27 JUMP JUMPDEST PUSH2 0x31E8 DUP3 DUP3 DUP6 PUSH2 0x3128 JUMP JUMPDEST PUSH0 PUSH1 0x20 SWAP1 POP PUSH1 0x1F DUP4 GT PUSH1 0x1 DUP2 EQ PUSH2 0x3219 JUMPI PUSH0 DUP5 ISZERO PUSH2 0x3207 JUMPI DUP3 DUP8 ADD MLOAD SWAP1 POP JUMPDEST PUSH2 0x3211 DUP6 DUP3 PUSH2 0x3196 JUMP JUMPDEST DUP7 SSTORE POP PUSH2 0x3278 JUMP JUMPDEST PUSH1 0x1F NOT DUP5 AND PUSH2 0x3227 DUP7 PUSH2 0x3011 JUMP JUMPDEST PUSH0 JUMPDEST DUP3 DUP2 LT ISZERO PUSH2 0x324E JUMPI DUP5 DUP10 ADD MLOAD DUP3 SSTORE PUSH1 0x1 DUP3 ADD SWAP2 POP PUSH1 0x20 DUP6 ADD SWAP5 POP PUSH1 0x20 DUP2 ADD SWAP1 POP PUSH2 0x3229 JUMP JUMPDEST DUP7 DUP4 LT ISZERO PUSH2 0x326B JUMPI DUP5 DUP10 ADD MLOAD PUSH2 0x3267 PUSH1 0x1F DUP10 AND DUP3 PUSH2 0x317A JUMP JUMPDEST DUP4 SSTORE POP JUMPDEST PUSH1 0x1 PUSH1 0x2 DUP9 MUL ADD DUP9 SSTORE POP POP POP JUMPDEST POP POP POP POP POP POP JUMP JUMPDEST PUSH0 PUSH2 0x328A DUP3 PUSH2 0x28AA JUMP JUMPDEST SWAP2 POP PUSH2 0x3295 DUP4 PUSH2 0x28AA JUMP JUMPDEST SWAP3 POP DUP3 DUP3 ADD SWAP1 POP DUP1 DUP3 GT ISZERO PUSH2 0x32AD JUMPI PUSH2 0x32AC PUSH2 0x2F57 JUMP JUMPDEST JUMPDEST SWAP3 SWAP2 POP POP JUMP INVALID LOG2 PUSH5 0x6970667358 0x22 SLT KECCAK256 0x26 DUP1 NUMBER DIV DATALOADN 0x1ABB SELFDESTRUCT PUSH2 0x9618 PUSH4 0x28C667AF PUSH5 0xC2CA5B06B3 SWAPN 0xDE 0xCE SWAP1 0x2E SSTORE SWAP2 PUSH6 0x6B3364736F6C PUSH4 0x4300081E STOP CALLER "
				},
				"gasEstimates": {
					"creation": {
						"codeDepositCost": "2606600",
						"executionCost": "2847",
						"totalCost": "2609447"
					},
					"external": {
						"_burnCounter()": "2680",
						"_burnCounter(uint256)": "22791",
						"_currentIndex()": "2702",
						"_currentIndex(uint256)": "22813",
						"_operatorApprovals(address,address)": "infinite",
						"_operatorApprovals(address,address,bool)": "infinite",
						"_packedAddressData(address)": "3100",
						"_packedAddressData(address,uint256)": "23096",
						"_packedAddressDataDecr(address)": "infinite",
						"_packedAddressDataIncr(address)": "infinite",
						"_packedOwnerships(uint256)": "infinite",
						"_packedOwnerships(uint256,uint256)": "infinite",
						"_spotMinted()": "2679",
						"_spotMintedIncr()": "infinite",
						"_startTokenId()": "2635",
						"_startTokenId(uint256)": "22769",
						"_tokenApprovals(uint256)": "3312",
						"_tokenApprovals(uint256,address)": "25221",
						"addTokenToAllTokensEnumeration(uint256)": "infinite",
						"addTokenToOwnerEnumeration(address,uint256,uint256)": "infinite",
						"allTokens()": "infinite",
						"baseTokenURI()": "infinite",
						"baseTokenURI(string)": "infinite",
						"defaultTokenURI()": "infinite",
						"defaultTokenURI(string)": "infinite",
						"epiclistRoot()": "2680",
						"epiclistRoot(bytes32)": "22725",
						"fee()": "2612",
						"fee(uint256)": "22725",
						"genesislistRoot()": "2681",
						"genesislistRoot(bytes32)": "22835",
						"guaranteed_minted(address)": "3073",
						"guaranteed_minted(address,bool)": "25188",
						"legendlistRoot()": "2722",
						"legendlistRoot(bytes32)": "22769",
						"name()": "infinite",
						"name(string)": "infinite",
						"ownedTokens(address,uint256)": "infinite",
						"ownedTokens(address,uint256,uint256)": "infinite",
						"ownedTokensIndex(uint256)": "infinite",
						"ownedTokensIndex(uint256,uint256)": "infinite",
						"removeTokenFromAllTokensEnumeration(uint256)": "infinite",
						"removeTokenFromOwnerEnumeration(address,uint256,uint256)": "infinite",
						"symbol()": "infinite",
						"symbol(string)": "infinite",
						"tokenURIs(string,uint256)": "infinite",
						"tokenURIs(uint256)": "infinite"
					},
					"internal": {
						"_getStorage(bytes32)": "27"
					}
				},
				"methodIdentifiers": {
					"_burnCounter()": "44faf255",
					"_burnCounter(uint256)": "8fca4dbe",
					"_currentIndex()": "9451c99a",
					"_currentIndex(uint256)": "345e7b28",
					"_operatorApprovals(address,address)": "edc3bc3f",
					"_operatorApprovals(address,address,bool)": "830d4091",
					"_packedAddressData(address)": "21b0ed7d",
					"_packedAddressData(address,uint256)": "a3301173",
					"_packedAddressDataDecr(address)": "31413efc",
					"_packedAddressDataIncr(address)": "d0125152",
					"_packedOwnerships(uint256)": "47f69eba",
					"_packedOwnerships(uint256,uint256)": "e68fdee1",
					"_spotMinted()": "d20b6ee7",
					"_spotMintedIncr()": "810536ec",
					"_startTokenId()": "98995f77",
					"_startTokenId(uint256)": "32b07b43",
					"_tokenApprovals(uint256)": "a7cc0136",
					"_tokenApprovals(uint256,address)": "13c19ff6",
					"addTokenToAllTokensEnumeration(uint256)": "dbe0b21c",
					"addTokenToOwnerEnumeration(address,uint256,uint256)": "4f4979ed",
					"allTokens()": "6ff97f1d",
					"baseTokenURI()": "d547cfb7",
					"baseTokenURI(string)": "a05cc559",
					"defaultTokenURI()": "963bfe12",
					"defaultTokenURI(string)": "821abc2d",
					"epiclistRoot()": "33171809",
					"epiclistRoot(bytes32)": "247c6ce0",
					"fee()": "ddca3f43",
					"fee(uint256)": "39b37ab0",
					"genesislistRoot()": "19f86200",
					"genesislistRoot(bytes32)": "3802497b",
					"guaranteed_minted(address)": "b62d8b91",
					"guaranteed_minted(address,bool)": "b0d4ce25",
					"legendlistRoot()": "f589b754",
					"legendlistRoot(bytes32)": "854f9db9",
					"name()": "06fdde03",
					"name(string)": "5b43bc99",
					"ownedTokens(address,uint256)": "e149f036",
					"ownedTokens(address,uint256,uint256)": "49a0a50e",
					"ownedTokensIndex(uint256)": "74e24367",
					"ownedTokensIndex(uint256,uint256)": "ad715f2e",
					"removeTokenFromAllTokensEnumeration(uint256)": "40e02f5c",
					"removeTokenFromOwnerEnumeration(address,uint256,uint256)": "071bc71c",
					"symbol()": "95d89b41",
					"symbol(string)": "41bb0559",
					"tokenURIs(string,uint256)": "dec84db1",
					"tokenURIs(uint256)": "6c8b703f"
				}
			},
			"storageLayout": {
				"storage": [],
				"types": null
			},
			"userdoc": {
				"kind": "user",
				"methods": {},
				"notice": "Библиотека хранилища амбассадорки*",
				"version": 1
			}
		}
	}
}