{
	"contracts/modules/ownable/Ownable.sol": {
		"Ownable": {
			"abi": [
				{
					"inputs": [],
					"stateMutability": "nonpayable",
					"type": "constructor"
				},
				{
					"inputs": [
						{
							"internalType": "address",
							"name": "",
							"type": "address"
						}
					],
					"name": "AccessDenied",
					"type": "error"
				},
				{
					"inputs": [],
					"name": "EmptyAddress",
					"type": "error"
				},
				{
					"inputs": [
						{
							"internalType": "address",
							"name": "",
							"type": "address"
						}
					],
					"name": "TimedOut",
					"type": "error"
				},
				{
					"inputs": [
						{
							"internalType": "uint256",
							"name": "",
							"type": "uint256"
						}
					],
					"name": "ValueTooHigh",
					"type": "error"
				},
				{
					"anonymous": false,
					"inputs": [
						{
							"indexed": true,
							"internalType": "address",
							"name": "_to",
							"type": "address"
						},
						{
							"indexed": false,
							"internalType": "uint256",
							"name": "_timestamp",
							"type": "uint256"
						}
					],
					"name": "AcceptTransferNewOwner",
					"type": "event"
				},
				{
					"anonymous": false,
					"inputs": [
						{
							"indexed": true,
							"internalType": "address",
							"name": "oldOwner",
							"type": "address"
						},
						{
							"indexed": true,
							"internalType": "address",
							"name": "newOwner",
							"type": "address"
						},
						{
							"indexed": false,
							"internalType": "uint256",
							"name": "timestamp",
							"type": "uint256"
						}
					],
					"name": "InitialTransferOwner",
					"type": "event"
				},
				{
					"anonymous": false,
					"inputs": [
						{
							"indexed": true,
							"internalType": "address",
							"name": "_to",
							"type": "address"
						},
						{
							"indexed": false,
							"internalType": "uint256",
							"name": "_graceperiod",
							"type": "uint256"
						}
					],
					"name": "SetNewGracePeriod",
					"type": "event"
				},
				{
					"inputs": [],
					"name": "MODULE_NAME",
					"outputs": [
						{
							"internalType": "string",
							"name": "",
							"type": "string"
						}
					],
					"stateMutability": "view",
					"type": "function"
				},
				{
					"inputs": [],
					"name": "MODULE_VERSION",
					"outputs": [
						{
							"internalType": "uint256",
							"name": "",
							"type": "uint256"
						}
					],
					"stateMutability": "view",
					"type": "function"
				},
				{
					"inputs": [],
					"name": "getGracePeriod",
					"outputs": [
						{
							"internalType": "uint256",
							"name": "",
							"type": "uint256"
						}
					],
					"stateMutability": "view",
					"type": "function"
				},
				{
					"inputs": [],
					"name": "getNewOwner",
					"outputs": [
						{
							"internalType": "address",
							"name": "",
							"type": "address"
						}
					],
					"stateMutability": "view",
					"type": "function"
				},
				{
					"inputs": [],
					"name": "getOwner",
					"outputs": [
						{
							"internalType": "address",
							"name": "",
							"type": "address"
						}
					],
					"stateMutability": "view",
					"type": "function"
				},
				{
					"inputs": [],
					"name": "getTimestampExp",
					"outputs": [
						{
							"internalType": "uint256",
							"name": "",
							"type": "uint256"
						}
					],
					"stateMutability": "view",
					"type": "function"
				},
				{
					"inputs": [
						{
							"internalType": "uint256",
							"name": "_seconds",
							"type": "uint256"
						}
					],
					"name": "setGracePeriod",
					"outputs": [],
					"stateMutability": "nonpayable",
					"type": "function"
				},
				{
					"inputs": [],
					"name": "transferNewOwnerAccept",
					"outputs": [],
					"stateMutability": "nonpayable",
					"type": "function"
				},
				{
					"inputs": [
						{
							"internalType": "address",
							"name": "_to",
							"type": "address"
						}
					],
					"name": "transferOwner",
					"outputs": [],
					"stateMutability": "nonpayable",
					"type": "function"
				}
			],
			"devdoc": {
				"custom:version": "1.0.0",
				"details": "Модуль управления владельцем      Модуль возможно использовать как отдельно, так и в качестве миксина",
				"errors": {
					"AccessDenied(address)": [
						{
							"details": "Функцию использует на владелец"
						}
					],
					"EmptyAddress()": [
						{
							"details": "Пустой адрес"
						}
					],
					"TimedOut(address)": [
						{
							"details": "Время перехода прав новому владельцу завершено"
						}
					]
				},
				"events": {
					"AcceptTransferNewOwner(address,uint256)": {
						"details": "Подтверждение передачи прав новым владельцем"
					},
					"InitialTransferOwner(address,address,uint256)": {
						"details": "Инициация передачи прав владения"
					},
					"SetNewGracePeriod(address,uint256)": {
						"details": "Установлено новое значение грейс периода"
					}
				},
				"kind": "dev",
				"methods": {
					"getGracePeriod()": {
						"details": "Геттеры"
					},
					"setGracePeriod(uint256)": {
						"details": "установка грейс периода"
					},
					"transferNewOwnerAccept()": {
						"details": "подтверждение передачи прав новым владельцем"
					},
					"transferOwner(address)": {
						"details": "инициализация передачи прав"
					}
				},
				"stateVariables": {
					"MODULE_NAME": {
						"details": "Название модуля"
					},
					"MODULE_VERSION": {
						"details": "Версия модуля"
					}
				},
				"title": "UpdateProxy",
				"version": 1
			},
			"evm": {
				"assembly": "    /* \"contracts/modules/ownable/Ownable.sol\":688:4149  contract Ownable is Context, IOwnable, IModule{... */\n  mstore(0x40, 0xa0)\n    /* \"contracts/modules/ownable/Ownable.sol\":922:945  _encodeVersion(1, 0, 0) */\n  tag_1\n    /* \"contracts/modules/ownable/Ownable.sol\":937:938  1 */\n  0x01\n    /* \"contracts/modules/ownable/Ownable.sol\":940:941  0 */\n  0x00\n    /* \"contracts/modules/ownable/Ownable.sol\":943:944  0 */\n  0x00\n    /* \"contracts/modules/ownable/Ownable.sol\":922:936  _encodeVersion */\n  shl(0x20, tag_2)\n    /* \"contracts/modules/ownable/Ownable.sol\":922:945  _encodeVersion(1, 0, 0) */\n  0x20\n  shr\n  jump\t// in\ntag_1:\n    /* \"contracts/modules/ownable/Ownable.sol\":880:945  uint256 public immutable MODULE_VERSION = _encodeVersion(1, 0, 0) */\n  0x80\n  swap1\n  dup2\n  mstore\n  pop\n    /* \"contracts/modules/ownable/Ownable.sol\":1814:1945  constructor(){... */\n  callvalue\n  dup1\n  iszero\n  tag_3\n  jumpi\n  revert(0x00, 0x00)\ntag_3:\n  pop\n    /* \"contracts/modules/ownable/Ownable.sol\":1838:1852  OwnableStorage */\n  linkerSymbol(\"ea2bfd386ba84ea2bcf9bcd47bb5c25cd74e5e5c4739ef52f76db311be849ef7\")\n    /* \"contracts/modules/ownable/Ownable.sol\":1838:1861  OwnableStorage.setowner */\n  0x592bd705\n    /* \"contracts/modules/ownable/Ownable.sol\":1862:1874  _msgSender() */\n  tag_6\n    /* \"contracts/modules/ownable/Ownable.sol\":1862:1872  _msgSender */\n  shl(0x20, tag_7)\n    /* \"contracts/modules/ownable/Ownable.sol\":1862:1874  _msgSender() */\n  0x20\n  shr\n  jump\t// in\ntag_6:\n    /* \"contracts/modules/ownable/Ownable.sol\":1838:1875  OwnableStorage.setowner(_msgSender()) */\n  mload(0x40)\n  dup3\n  0xffffffff\n  and\n  0xe0\n  shl\n  dup2\n  mstore\n  0x04\n  add\n  tag_8\n  swap2\n  swap1\n  tag_9\n  jump\t// in\ntag_8:\n  0x00\n  mload(0x40)\n  dup1\n  dup4\n  sub\n  dup2\n  dup7\n  dup1\n  extcodesize\n  iszero\n  dup1\n  iszero\n  tag_10\n  jumpi\n  revert(0x00, 0x00)\ntag_10:\n  pop\n  gas\n  delegatecall\n  iszero\n  dup1\n  iszero\n  tag_12\n  jumpi\n  returndatacopy(0x00, 0x00, returndatasize)\n  revert(0x00, returndatasize)\ntag_12:\n  pop\n  pop\n  pop\n  pop\n    /* \"contracts/modules/ownable/Ownable.sol\":1886:1900  OwnableStorage */\n  linkerSymbol(\"ea2bfd386ba84ea2bcf9bcd47bb5c25cd74e5e5c4739ef52f76db311be849ef7\")\n    /* \"contracts/modules/ownable/Ownable.sol\":1886:1915  OwnableStorage.setGracePeriod */\n  0xf2f65960\n    /* \"contracts/modules/ownable/Ownable.sol\":1107:1113  1 days */\n  0x015180\n    /* \"contracts/modules/ownable/Ownable.sol\":1886:1937  OwnableStorage.setGracePeriod(INITIAL_GRACE_PERIOD) */\n  mload(0x40)\n  dup3\n  0xffffffff\n  and\n  0xe0\n  shl\n  dup2\n  mstore\n  0x04\n  add\n  tag_13\n  swap2\n  swap1\n  tag_14\n  jump\t// in\ntag_13:\n  0x00\n  mload(0x40)\n  dup1\n  dup4\n  sub\n  dup2\n  dup7\n  dup1\n  extcodesize\n  iszero\n  dup1\n  iszero\n  tag_15\n  jumpi\n  revert(0x00, 0x00)\ntag_15:\n  pop\n  gas\n  delegatecall\n  iszero\n  dup1\n  iszero\n  tag_17\n  jumpi\n  returndatacopy(0x00, 0x00, returndatasize)\n  revert(0x00, returndatasize)\ntag_17:\n  pop\n  pop\n  pop\n  pop\n    /* \"contracts/modules/ownable/Ownable.sol\":688:4149  contract Ownable is Context, IOwnable, IModule{... */\n  jump(tag_18)\n    /* \"/contracts/free/FreeVersion.sol\":498:689  function _encodeVersion(uint32 major, uint32 minor, uint32 revision) pure returns (uint256 encodedVersion){... */\ntag_2:\n    /* \"/contracts/free/FreeVersion.sol\":581:603  uint256 encodedVersion */\n  0x00\n    /* \"/contracts/free/FreeVersion.sol\":676:684  revision */\n  dup2\n    /* \"/contracts/free/FreeVersion.sol\":668:685  uint256(revision) */\n  0xffffffff\n  and\n    /* \"/contracts/free/FreeVersion.sol\":662:664  32 */\n  0x20\n    /* \"/contracts/free/FreeVersion.sol\":652:657  minor */\n  dup5\n    /* \"/contracts/free/FreeVersion.sol\":644:658  uint256(minor) */\n  0xffffffff\n  and\n    /* \"/contracts/free/FreeVersion.sol\":644:664  uint256(minor) << 32 */\n  swap1\n  shl\n    /* \"/contracts/free/FreeVersion.sol\":637:639  64 */\n  0x40\n    /* \"/contracts/free/FreeVersion.sol\":627:632  major */\n  dup7\n    /* \"/contracts/free/FreeVersion.sol\":619:633  uint256(major) */\n  0xffffffff\n  and\n    /* \"/contracts/free/FreeVersion.sol\":619:639  uint256(major) << 64 */\n  swap1\n  shl\n    /* \"/contracts/free/FreeVersion.sol\":618:665  (uint256(major) << 64) | (uint256(minor) << 32) */\n  or\n    /* \"/contracts/free/FreeVersion.sol\":618:685  (uint256(major) << 64) | (uint256(minor) << 32) | uint256(revision) */\n  or\n    /* \"/contracts/free/FreeVersion.sol\":611:685  return (uint256(major) << 64) | (uint256(minor) << 32) | uint256(revision) */\n  swap1\n  pop\n    /* \"/contracts/free/FreeVersion.sol\":498:689  function _encodeVersion(uint32 major, uint32 minor, uint32 revision) pure returns (uint256 encodedVersion){... */\n  swap4\n  swap3\n  pop\n  pop\n  pop\n  jump\t// out\n    /* \"contracts/lib/@openzeppelin/contracts/Context.sol\":656:752  function _msgSender() internal view virtual returns (address) {... */\ntag_7:\n    /* \"contracts/lib/@openzeppelin/contracts/Context.sol\":709:716  address */\n  0x00\n    /* \"contracts/lib/@openzeppelin/contracts/Context.sol\":735:745  msg.sender */\n  caller\n    /* \"contracts/lib/@openzeppelin/contracts/Context.sol\":728:745  return msg.sender */\n  swap1\n  pop\n    /* \"contracts/lib/@openzeppelin/contracts/Context.sol\":656:752  function _msgSender() internal view virtual returns (address) {... */\n  swap1\n  jump\t// out\n    /* \"#utility.yul\":7:133   */\ntag_21:\n    /* \"#utility.yul\":44:51   */\n  0x00\n    /* \"#utility.yul\":84:126   */\n  0xffffffffffffffffffffffffffffffffffffffff\n    /* \"#utility.yul\":77:82   */\n  dup3\n    /* \"#utility.yul\":73:127   */\n  and\n    /* \"#utility.yul\":62:127   */\n  swap1\n  pop\n    /* \"#utility.yul\":7:133   */\n  swap2\n  swap1\n  pop\n  jump\t// out\n    /* \"#utility.yul\":139:235   */\ntag_22:\n    /* \"#utility.yul\":176:183   */\n  0x00\n    /* \"#utility.yul\":205:229   */\n  tag_29\n    /* \"#utility.yul\":223:228   */\n  dup3\n    /* \"#utility.yul\":205:229   */\n  tag_21\n  jump\t// in\ntag_29:\n    /* \"#utility.yul\":194:229   */\n  swap1\n  pop\n    /* \"#utility.yul\":139:235   */\n  swap2\n  swap1\n  pop\n  jump\t// out\n    /* \"#utility.yul\":241:367   */\ntag_23:\n    /* \"#utility.yul\":336:360   */\n  tag_31\n    /* \"#utility.yul\":354:359   */\n  dup2\n    /* \"#utility.yul\":336:360   */\n  tag_22\n  jump\t// in\ntag_31:\n    /* \"#utility.yul\":331:334   */\n  dup3\n    /* \"#utility.yul\":324:361   */\n  mstore\n    /* \"#utility.yul\":241:367   */\n  pop\n  pop\n  jump\t// out\n    /* \"#utility.yul\":373:611   */\ntag_9:\n    /* \"#utility.yul\":474:478   */\n  0x00\n    /* \"#utility.yul\":512:514   */\n  0x20\n    /* \"#utility.yul\":501:510   */\n  dup3\n    /* \"#utility.yul\":497:515   */\n  add\n    /* \"#utility.yul\":489:515   */\n  swap1\n  pop\n    /* \"#utility.yul\":525:604   */\n  tag_33\n    /* \"#utility.yul\":601:602   */\n  0x00\n    /* \"#utility.yul\":590:599   */\n  dup4\n    /* \"#utility.yul\":586:603   */\n  add\n    /* \"#utility.yul\":577:583   */\n  dup5\n    /* \"#utility.yul\":525:604   */\n  tag_23\n  jump\t// in\ntag_33:\n    /* \"#utility.yul\":373:611   */\n  swap3\n  swap2\n  pop\n  pop\n  jump\t// out\n    /* \"#utility.yul\":617:694   */\ntag_24:\n    /* \"#utility.yul\":654:661   */\n  0x00\n    /* \"#utility.yul\":683:688   */\n  dup2\n    /* \"#utility.yul\":672:688   */\n  swap1\n  pop\n    /* \"#utility.yul\":617:694   */\n  swap2\n  swap1\n  pop\n  jump\t// out\n    /* \"#utility.yul\":700:826   */\ntag_25:\n    /* \"#utility.yul\":795:819   */\n  tag_36\n    /* \"#utility.yul\":813:818   */\n  dup2\n    /* \"#utility.yul\":795:819   */\n  tag_24\n  jump\t// in\ntag_36:\n    /* \"#utility.yul\":790:793   */\n  dup3\n    /* \"#utility.yul\":783:820   */\n  mstore\n    /* \"#utility.yul\":700:826   */\n  pop\n  pop\n  jump\t// out\n    /* \"#utility.yul\":832:1070   */\ntag_14:\n    /* \"#utility.yul\":933:937   */\n  0x00\n    /* \"#utility.yul\":971:973   */\n  0x20\n    /* \"#utility.yul\":960:969   */\n  dup3\n    /* \"#utility.yul\":956:974   */\n  add\n    /* \"#utility.yul\":948:974   */\n  swap1\n  pop\n    /* \"#utility.yul\":984:1063   */\n  tag_38\n    /* \"#utility.yul\":1060:1061   */\n  0x00\n    /* \"#utility.yul\":1049:1058   */\n  dup4\n    /* \"#utility.yul\":1045:1062   */\n  add\n    /* \"#utility.yul\":1036:1042   */\n  dup5\n    /* \"#utility.yul\":984:1063   */\n  tag_25\n  jump\t// in\ntag_38:\n    /* \"#utility.yul\":832:1070   */\n  swap3\n  swap2\n  pop\n  pop\n  jump\t// out\n    /* \"contracts/modules/ownable/Ownable.sol\":688:4149  contract Ownable is Context, IOwnable, IModule{... */\ntag_18:\n  mload(0x80)\n  codecopy(0x00, dataOffset(sub_0), dataSize(sub_0))\n  0x00\n  assignImmutable(\"0xe056e162080d5da78663154decfd308f0383b8d138d504e8a4cde93086ac2fef\")\n  return(0x00, dataSize(sub_0))\nstop\n\nsub_0: assembly {\n        /* \"contracts/modules/ownable/Ownable.sol\":688:4149  contract Ownable is Context, IOwnable, IModule{... */\n      mstore(0x40, 0x80)\n      callvalue\n      dup1\n      iszero\n      tag_1\n      jumpi\n      revert(0x00, 0x00)\n    tag_1:\n      pop\n      jumpi(tag_2, lt(calldatasize, 0x04))\n      shr(0xe0, calldataload(0x00))\n      dup1\n      0x81ed9808\n      gt\n      tag_12\n      jumpi\n      dup1\n      0x81ed9808\n      eq\n      tag_7\n      jumpi\n      dup1\n      0x893d20e8\n      eq\n      tag_8\n      jumpi\n      dup1\n      0x9b865b43\n      eq\n      tag_9\n      jumpi\n      dup1\n      0xdbd18388\n      eq\n      tag_10\n      jumpi\n      dup1\n      0xf2f65960\n      eq\n      tag_11\n      jumpi\n      jump(tag_2)\n    tag_12:\n      dup1\n      0x18e3e87f\n      eq\n      tag_3\n      jumpi\n      dup1\n      0x3e2fe149\n      eq\n      tag_4\n      jumpi\n      dup1\n      0x4fb2e45d\n      eq\n      tag_5\n      jumpi\n      dup1\n      0x61a9ab76\n      eq\n      tag_6\n      jumpi\n    tag_2:\n      revert(0x00, 0x00)\n        /* \"contracts/modules/ownable/Ownable.sol\":3013:3344  function transferNewOwnerAccept() external _onlyNewOwner _isValidTimestamp{... */\n    tag_3:\n      tag_13\n      tag_14\n      jump\t// in\n    tag_13:\n      stop\n        /* \"contracts/modules/ownable/Ownable.sol\":2029:2105  function getNewOwner()external view returns(address){return _getNewOwner();} */\n    tag_4:\n      tag_15\n      tag_16\n      jump\t// in\n    tag_15:\n      mload(0x40)\n      tag_17\n      swap2\n      swap1\n      tag_18\n      jump\t// in\n    tag_17:\n      mload(0x40)\n      dup1\n      swap2\n      sub\n      swap1\n      return\n        /* \"contracts/modules/ownable/Ownable.sol\":2671:2906  function transferOwner(address _to) external onlyOwner {... */\n    tag_5:\n      tag_19\n      0x04\n      dup1\n      calldatasize\n      sub\n      dup2\n      add\n      swap1\n      tag_20\n      swap2\n      swap1\n      tag_21\n      jump\t// in\n    tag_20:\n      tag_22\n      jump\t// in\n    tag_19:\n      stop\n        /* \"contracts/modules/ownable/Ownable.sol\":2196:2277  function getTimestampExp()external view returns(uint){return _getTimestampExp();} */\n    tag_6:\n      tag_23\n      tag_24\n      jump\t// in\n    tag_23:\n      mload(0x40)\n      tag_25\n      swap2\n      swap1\n      tag_26\n      jump\t// in\n    tag_25:\n      mload(0x40)\n      dup1\n      swap2\n      sub\n      swap1\n      return\n        /* \"contracts/modules/ownable/Ownable.sol\":880:945  uint256 public immutable MODULE_VERSION = _encodeVersion(1, 0, 0) */\n    tag_7:\n      tag_27\n      tag_28\n      jump\t// in\n    tag_27:\n      mload(0x40)\n      tag_29\n      swap2\n      swap1\n      tag_26\n      jump\t// in\n    tag_29:\n      mload(0x40)\n      dup1\n      swap2\n      sub\n      swap1\n      return\n        /* \"contracts/modules/ownable/Ownable.sol\":1953:2023  function getOwner()external view returns(address){return _getOwner();} */\n    tag_8:\n      tag_30\n      tag_31\n      jump\t// in\n    tag_30:\n      mload(0x40)\n      tag_32\n      swap2\n      swap1\n      tag_18\n      jump\t// in\n    tag_32:\n      mload(0x40)\n      dup1\n      swap2\n      sub\n      swap1\n      return\n        /* \"contracts/modules/ownable/Ownable.sol\":787:833  string public constant MODULE_NAME = \"Ownable\" */\n    tag_9:\n      tag_33\n      tag_34\n      jump\t// in\n    tag_33:\n      mload(0x40)\n      tag_35\n      swap2\n      swap1\n      tag_36\n      jump\t// in\n    tag_35:\n      mload(0x40)\n      dup1\n      swap2\n      sub\n      swap1\n      return\n        /* \"contracts/modules/ownable/Ownable.sol\":2111:2190  function getGracePeriod()external view returns(uint){return _getGracePeriod();} */\n    tag_10:\n      tag_37\n      tag_38\n      jump\t// in\n    tag_37:\n      mload(0x40)\n      tag_39\n      swap2\n      swap1\n      tag_26\n      jump\t// in\n    tag_39:\n      mload(0x40)\n      dup1\n      swap2\n      sub\n      swap1\n      return\n        /* \"contracts/modules/ownable/Ownable.sol\":2348:2596  function setGracePeriod(uint _seconds) external onlyOwner{... */\n    tag_11:\n      tag_40\n      0x04\n      dup1\n      calldatasize\n      sub\n      dup2\n      add\n      swap1\n      tag_41\n      swap2\n      swap1\n      tag_42\n      jump\t// in\n    tag_41:\n      tag_43\n      jump\t// in\n    tag_40:\n      stop\n        /* \"contracts/modules/ownable/Ownable.sol\":3013:3344  function transferNewOwnerAccept() external _onlyNewOwner _isValidTimestamp{... */\n    tag_14:\n        /* \"contracts/modules/ownable/Ownable.sol\":1543:1555  _msgSender() */\n      tag_45\n        /* \"contracts/modules/ownable/Ownable.sol\":1543:1553  _msgSender */\n      tag_46\n        /* \"contracts/modules/ownable/Ownable.sol\":1543:1555  _msgSender() */\n      jump\t// in\n    tag_45:\n        /* \"contracts/modules/ownable/Ownable.sol\":1525:1555  _getNewOwner() != _msgSender() */\n      0xffffffffffffffffffffffffffffffffffffffff\n      and\n        /* \"contracts/modules/ownable/Ownable.sol\":1525:1539  _getNewOwner() */\n      tag_47\n        /* \"contracts/modules/ownable/Ownable.sol\":1525:1537  _getNewOwner */\n      tag_48\n        /* \"contracts/modules/ownable/Ownable.sol\":1525:1539  _getNewOwner() */\n      jump\t// in\n    tag_47:\n        /* \"contracts/modules/ownable/Ownable.sol\":1525:1555  _getNewOwner() != _msgSender() */\n      0xffffffffffffffffffffffffffffffffffffffff\n      and\n      eq\n        /* \"contracts/modules/ownable/Ownable.sol\":1521:1571  if (_getNewOwner() != _msgSender())_accessDenied() */\n      tag_49\n      jumpi\n        /* \"contracts/modules/ownable/Ownable.sol\":1556:1571  _accessDenied() */\n      tag_50\n        /* \"contracts/modules/ownable/Ownable.sol\":1556:1569  _accessDenied */\n      tag_51\n        /* \"contracts/modules/ownable/Ownable.sol\":1556:1571  _accessDenied() */\n      jump\t// in\n    tag_50:\n        /* \"contracts/modules/ownable/Ownable.sol\":1521:1571  if (_getNewOwner() != _msgSender())_accessDenied() */\n    tag_49:\n        /* \"contracts/modules/ownable/Ownable.sol\":1738:1753  block.timestamp */\n      timestamp\n        /* \"contracts/modules/ownable/Ownable.sol\":1717:1735  _getTimestampExp() */\n      tag_53\n        /* \"contracts/modules/ownable/Ownable.sol\":1717:1733  _getTimestampExp */\n      tag_54\n        /* \"contracts/modules/ownable/Ownable.sol\":1717:1735  _getTimestampExp() */\n      jump\t// in\n    tag_53:\n        /* \"contracts/modules/ownable/Ownable.sol\":1717:1753  _getTimestampExp() < block.timestamp */\n      lt\n        /* \"contracts/modules/ownable/Ownable.sol\":1713:1784  if (_getTimestampExp() < block.timestamp) revert TimedOut(_msgSender()) */\n      iszero\n      tag_55\n      jumpi\n        /* \"contracts/modules/ownable/Ownable.sol\":1771:1783  _msgSender() */\n      tag_56\n        /* \"contracts/modules/ownable/Ownable.sol\":1771:1781  _msgSender */\n      tag_46\n        /* \"contracts/modules/ownable/Ownable.sol\":1771:1783  _msgSender() */\n      jump\t// in\n    tag_56:\n        /* \"contracts/modules/ownable/Ownable.sol\":1762:1784  TimedOut(_msgSender()) */\n      mload(0x40)\n      0xefabbdc600000000000000000000000000000000000000000000000000000000\n      dup2\n      mstore\n      0x04\n      add\n      tag_57\n      swap2\n      swap1\n      tag_18\n      jump\t// in\n    tag_57:\n      mload(0x40)\n      dup1\n      swap2\n      sub\n      swap1\n      revert\n        /* \"contracts/modules/ownable/Ownable.sol\":1713:1784  if (_getTimestampExp() < block.timestamp) revert TimedOut(_msgSender()) */\n    tag_55:\n        /* \"contracts/modules/ownable/Ownable.sol\":3098:3115  address _newOwner */\n      0x00\n        /* \"contracts/modules/ownable/Ownable.sol\":3118:3132  _getNewOwner() */\n      tag_59\n        /* \"contracts/modules/ownable/Ownable.sol\":3118:3130  _getNewOwner */\n      tag_48\n        /* \"contracts/modules/ownable/Ownable.sol\":3118:3132  _getNewOwner() */\n      jump\t// in\n    tag_59:\n        /* \"contracts/modules/ownable/Ownable.sol\":3098:3132  address _newOwner = _getNewOwner() */\n      swap1\n      pop\n        /* \"contracts/modules/ownable/Ownable.sol\":3143:3157  OwnableStorage */\n      linkerSymbol(\"ea2bfd386ba84ea2bcf9bcd47bb5c25cd74e5e5c4739ef52f76db311be849ef7\")\n        /* \"contracts/modules/ownable/Ownable.sol\":3143:3166  OwnableStorage.setowner */\n      0x592bd705\n        /* \"contracts/modules/ownable/Ownable.sol\":3167:3176  _newOwner */\n      dup3\n        /* \"contracts/modules/ownable/Ownable.sol\":3143:3177  OwnableStorage.setowner(_newOwner) */\n      mload(0x40)\n      dup3\n      0xffffffff\n      and\n      0xe0\n      shl\n      dup2\n      mstore\n      0x04\n      add\n      tag_60\n      swap2\n      swap1\n      tag_61\n      jump\t// in\n    tag_60:\n      0x00\n      mload(0x40)\n      dup1\n      dup4\n      sub\n      dup2\n      dup7\n      dup1\n      extcodesize\n      iszero\n      dup1\n      iszero\n      tag_62\n      jumpi\n      revert(0x00, 0x00)\n    tag_62:\n      pop\n      gas\n      delegatecall\n      iszero\n      dup1\n      iszero\n      tag_64\n      jumpi\n      returndatacopy(0x00, 0x00, returndatasize)\n      revert(0x00, returndatasize)\n    tag_64:\n      pop\n      pop\n      pop\n      pop\n        /* \"contracts/modules/ownable/Ownable.sol\":3188:3202  OwnableStorage */\n      linkerSymbol(\"ea2bfd386ba84ea2bcf9bcd47bb5c25cd74e5e5c4739ef52f76db311be849ef7\")\n        /* \"contracts/modules/ownable/Ownable.sol\":3188:3214  OwnableStorage.setnewOwner */\n      0x34b8160c\n        /* \"contracts/modules/ownable/Ownable.sol\":3223:3224  0 */\n      0x00\n        /* \"contracts/modules/ownable/Ownable.sol\":3188:3226  OwnableStorage.setnewOwner(address(0)) */\n      mload(0x40)\n      dup3\n      0xffffffff\n      and\n      0xe0\n      shl\n      dup2\n      mstore\n      0x04\n      add\n      tag_65\n      swap2\n      swap1\n      tag_61\n      jump\t// in\n    tag_65:\n      0x00\n      mload(0x40)\n      dup1\n      dup4\n      sub\n      dup2\n      dup7\n      dup1\n      extcodesize\n      iszero\n      dup1\n      iszero\n      tag_66\n      jumpi\n      revert(0x00, 0x00)\n    tag_66:\n      pop\n      gas\n      delegatecall\n      iszero\n      dup1\n      iszero\n      tag_68\n      jumpi\n      returndatacopy(0x00, 0x00, returndatasize)\n      revert(0x00, returndatasize)\n    tag_68:\n      pop\n      pop\n      pop\n      pop\n        /* \"contracts/modules/ownable/Ownable.sol\":3237:3251  OwnableStorage */\n      linkerSymbol(\"ea2bfd386ba84ea2bcf9bcd47bb5c25cd74e5e5c4739ef52f76db311be849ef7\")\n        /* \"contracts/modules/ownable/Ownable.sol\":3237:3267  OwnableStorage.setTimestampExp */\n      0xfdb0afee\n        /* \"contracts/modules/ownable/Ownable.sol\":3268:3269  0 */\n      0x00\n        /* \"contracts/modules/ownable/Ownable.sol\":3237:3270  OwnableStorage.setTimestampExp(0) */\n      mload(0x40)\n      dup3\n      0xffffffff\n      and\n      0xe0\n      shl\n      dup2\n      mstore\n      0x04\n      add\n      tag_69\n      swap2\n      swap1\n      tag_70\n      jump\t// in\n    tag_69:\n      0x00\n      mload(0x40)\n      dup1\n      dup4\n      sub\n      dup2\n      dup7\n      dup1\n      extcodesize\n      iszero\n      dup1\n      iszero\n      tag_71\n      jumpi\n      revert(0x00, 0x00)\n    tag_71:\n      pop\n      gas\n      delegatecall\n      iszero\n      dup1\n      iszero\n      tag_73\n      jumpi\n      returndatacopy(0x00, 0x00, returndatasize)\n      revert(0x00, returndatasize)\n    tag_73:\n      pop\n      pop\n      pop\n      pop\n        /* \"contracts/modules/ownable/Ownable.sol\":3309:3318  _newOwner */\n      dup1\n        /* \"contracts/modules/ownable/Ownable.sol\":3286:3336  AcceptTransferNewOwner(_newOwner, block.timestamp) */\n      0xffffffffffffffffffffffffffffffffffffffff\n      and\n      0xba63841a7533a3a83852e6bd791045210d9e961d32ec380162bcd5d1d6fe1212\n        /* \"contracts/modules/ownable/Ownable.sol\":3320:3335  block.timestamp */\n      timestamp\n        /* \"contracts/modules/ownable/Ownable.sol\":3286:3336  AcceptTransferNewOwner(_newOwner, block.timestamp) */\n      mload(0x40)\n      tag_74\n      swap2\n      swap1\n      tag_26\n      jump\t// in\n    tag_74:\n      mload(0x40)\n      dup1\n      swap2\n      sub\n      swap1\n      log2\n        /* \"contracts/modules/ownable/Ownable.sol\":3087:3344  {... */\n      pop\n        /* \"contracts/modules/ownable/Ownable.sol\":3013:3344  function transferNewOwnerAccept() external _onlyNewOwner _isValidTimestamp{... */\n      jump\t// out\n        /* \"contracts/modules/ownable/Ownable.sol\":2029:2105  function getNewOwner()external view returns(address){return _getNewOwner();} */\n    tag_16:\n        /* \"contracts/modules/ownable/Ownable.sol\":2073:2080  address */\n      0x00\n        /* \"contracts/modules/ownable/Ownable.sol\":2089:2103  _getNewOwner() */\n      tag_76\n        /* \"contracts/modules/ownable/Ownable.sol\":2089:2101  _getNewOwner */\n      tag_48\n        /* \"contracts/modules/ownable/Ownable.sol\":2089:2103  _getNewOwner() */\n      jump\t// in\n    tag_76:\n        /* \"contracts/modules/ownable/Ownable.sol\":2082:2103  return _getNewOwner() */\n      swap1\n      pop\n        /* \"contracts/modules/ownable/Ownable.sol\":2029:2105  function getNewOwner()external view returns(address){return _getNewOwner();} */\n      swap1\n      jump\t// out\n        /* \"contracts/modules/ownable/Ownable.sol\":2671:2906  function transferOwner(address _to) external onlyOwner {... */\n    tag_22:\n        /* \"contracts/modules/ownable/Ownable.sol\":1354:1366  _msgSender() */\n      tag_78\n        /* \"contracts/modules/ownable/Ownable.sol\":1354:1364  _msgSender */\n      tag_46\n        /* \"contracts/modules/ownable/Ownable.sol\":1354:1366  _msgSender() */\n      jump\t// in\n    tag_78:\n        /* \"contracts/modules/ownable/Ownable.sol\":1339:1366  _getOwner() != _msgSender() */\n      0xffffffffffffffffffffffffffffffffffffffff\n      and\n        /* \"contracts/modules/ownable/Ownable.sol\":1339:1350  _getOwner() */\n      tag_79\n        /* \"contracts/modules/ownable/Ownable.sol\":1339:1348  _getOwner */\n      tag_80\n        /* \"contracts/modules/ownable/Ownable.sol\":1339:1350  _getOwner() */\n      jump\t// in\n    tag_79:\n        /* \"contracts/modules/ownable/Ownable.sol\":1339:1366  _getOwner() != _msgSender() */\n      0xffffffffffffffffffffffffffffffffffffffff\n      and\n      eq\n        /* \"contracts/modules/ownable/Ownable.sol\":1335:1382  if (_getOwner() != _msgSender())_accessDenied() */\n      tag_81\n      jumpi\n        /* \"contracts/modules/ownable/Ownable.sol\":1367:1382  _accessDenied() */\n      tag_82\n        /* \"contracts/modules/ownable/Ownable.sol\":1367:1380  _accessDenied */\n      tag_51\n        /* \"contracts/modules/ownable/Ownable.sol\":1367:1382  _accessDenied() */\n      jump\t// in\n    tag_82:\n        /* \"contracts/modules/ownable/Ownable.sol\":1335:1382  if (_getOwner() != _msgSender())_accessDenied() */\n    tag_81:\n        /* \"contracts/modules/ownable/Ownable.sol\":2737:2755  _checkAddress(_to) */\n      tag_84\n        /* \"contracts/modules/ownable/Ownable.sol\":2751:2754  _to */\n      dup2\n        /* \"contracts/modules/ownable/Ownable.sol\":2737:2750  _checkAddress */\n      tag_85\n        /* \"contracts/modules/ownable/Ownable.sol\":2737:2755  _checkAddress(_to) */\n      jump\t// in\n    tag_84:\n        /* \"contracts/modules/ownable/Ownable.sol\":2766:2780  OwnableStorage */\n      linkerSymbol(\"ea2bfd386ba84ea2bcf9bcd47bb5c25cd74e5e5c4739ef52f76db311be849ef7\")\n        /* \"contracts/modules/ownable/Ownable.sol\":2766:2792  OwnableStorage.setnewOwner */\n      0x34b8160c\n        /* \"contracts/modules/ownable/Ownable.sol\":2793:2796  _to */\n      dup3\n        /* \"contracts/modules/ownable/Ownable.sol\":2766:2797  OwnableStorage.setnewOwner(_to) */\n      mload(0x40)\n      dup3\n      0xffffffff\n      and\n      0xe0\n      shl\n      dup2\n      mstore\n      0x04\n      add\n      tag_86\n      swap2\n      swap1\n      tag_61\n      jump\t// in\n    tag_86:\n      0x00\n      mload(0x40)\n      dup1\n      dup4\n      sub\n      dup2\n      dup7\n      dup1\n      extcodesize\n      iszero\n      dup1\n      iszero\n      tag_87\n      jumpi\n      revert(0x00, 0x00)\n    tag_87:\n      pop\n      gas\n      delegatecall\n      iszero\n      dup1\n      iszero\n      tag_89\n      jumpi\n      returndatacopy(0x00, 0x00, returndatasize)\n      revert(0x00, returndatasize)\n    tag_89:\n      pop\n      pop\n      pop\n      pop\n        /* \"contracts/modules/ownable/Ownable.sol\":2808:2826  _setTimestampExp() */\n      tag_90\n        /* \"contracts/modules/ownable/Ownable.sol\":2808:2824  _setTimestampExp */\n      tag_91\n        /* \"contracts/modules/ownable/Ownable.sol\":2808:2826  _setTimestampExp() */\n      jump\t// in\n    tag_90:\n        /* \"contracts/modules/ownable/Ownable.sol\":2877:2880  _to */\n      dup1\n        /* \"contracts/modules/ownable/Ownable.sol\":2842:2898  InitialTransferOwner(_msgSender(), _to, block.timestamp) */\n      0xffffffffffffffffffffffffffffffffffffffff\n      and\n        /* \"contracts/modules/ownable/Ownable.sol\":2863:2875  _msgSender() */\n      tag_92\n        /* \"contracts/modules/ownable/Ownable.sol\":2863:2873  _msgSender */\n      tag_46\n        /* \"contracts/modules/ownable/Ownable.sol\":2863:2875  _msgSender() */\n      jump\t// in\n    tag_92:\n        /* \"contracts/modules/ownable/Ownable.sol\":2842:2898  InitialTransferOwner(_msgSender(), _to, block.timestamp) */\n      0xffffffffffffffffffffffffffffffffffffffff\n      and\n      0x8dbb839c92a52a1b41b96c2376318a45b974066df935981e08419bd7a0ae1500\n        /* \"contracts/modules/ownable/Ownable.sol\":2882:2897  block.timestamp */\n      timestamp\n        /* \"contracts/modules/ownable/Ownable.sol\":2842:2898  InitialTransferOwner(_msgSender(), _to, block.timestamp) */\n      mload(0x40)\n      tag_93\n      swap2\n      swap1\n      tag_26\n      jump\t// in\n    tag_93:\n      mload(0x40)\n      dup1\n      swap2\n      sub\n      swap1\n      log3\n        /* \"contracts/modules/ownable/Ownable.sol\":2671:2906  function transferOwner(address _to) external onlyOwner {... */\n      pop\n      jump\t// out\n        /* \"contracts/modules/ownable/Ownable.sol\":2196:2277  function getTimestampExp()external view returns(uint){return _getTimestampExp();} */\n    tag_24:\n        /* \"contracts/modules/ownable/Ownable.sol\":2244:2248  uint */\n      0x00\n        /* \"contracts/modules/ownable/Ownable.sol\":2257:2275  _getTimestampExp() */\n      tag_95\n        /* \"contracts/modules/ownable/Ownable.sol\":2257:2273  _getTimestampExp */\n      tag_54\n        /* \"contracts/modules/ownable/Ownable.sol\":2257:2275  _getTimestampExp() */\n      jump\t// in\n    tag_95:\n        /* \"contracts/modules/ownable/Ownable.sol\":2250:2275  return _getTimestampExp() */\n      swap1\n      pop\n        /* \"contracts/modules/ownable/Ownable.sol\":2196:2277  function getTimestampExp()external view returns(uint){return _getTimestampExp();} */\n      swap1\n      jump\t// out\n        /* \"contracts/modules/ownable/Ownable.sol\":880:945  uint256 public immutable MODULE_VERSION = _encodeVersion(1, 0, 0) */\n    tag_28:\n      immutable(\"0xe056e162080d5da78663154decfd308f0383b8d138d504e8a4cde93086ac2fef\")\n      dup2\n      jump\t// out\n        /* \"contracts/modules/ownable/Ownable.sol\":1953:2023  function getOwner()external view returns(address){return _getOwner();} */\n    tag_31:\n        /* \"contracts/modules/ownable/Ownable.sol\":1994:2001  address */\n      0x00\n        /* \"contracts/modules/ownable/Ownable.sol\":2010:2021  _getOwner() */\n      tag_97\n        /* \"contracts/modules/ownable/Ownable.sol\":2010:2019  _getOwner */\n      tag_80\n        /* \"contracts/modules/ownable/Ownable.sol\":2010:2021  _getOwner() */\n      jump\t// in\n    tag_97:\n        /* \"contracts/modules/ownable/Ownable.sol\":2003:2021  return _getOwner() */\n      swap1\n      pop\n        /* \"contracts/modules/ownable/Ownable.sol\":1953:2023  function getOwner()external view returns(address){return _getOwner();} */\n      swap1\n      jump\t// out\n        /* \"contracts/modules/ownable/Ownable.sol\":787:833  string public constant MODULE_NAME = \"Ownable\" */\n    tag_34:\n      mload(0x40)\n      dup1\n      0x40\n      add\n      0x40\n      mstore\n      dup1\n      0x07\n      dup2\n      mstore\n      0x20\n      add\n      0x4f776e61626c6500000000000000000000000000000000000000000000000000\n      dup2\n      mstore\n      pop\n      dup2\n      jump\t// out\n        /* \"contracts/modules/ownable/Ownable.sol\":2111:2190  function getGracePeriod()external view returns(uint){return _getGracePeriod();} */\n    tag_38:\n        /* \"contracts/modules/ownable/Ownable.sol\":2158:2162  uint */\n      0x00\n        /* \"contracts/modules/ownable/Ownable.sol\":2171:2188  _getGracePeriod() */\n      tag_99\n        /* \"contracts/modules/ownable/Ownable.sol\":2171:2186  _getGracePeriod */\n      tag_100\n        /* \"contracts/modules/ownable/Ownable.sol\":2171:2188  _getGracePeriod() */\n      jump\t// in\n    tag_99:\n        /* \"contracts/modules/ownable/Ownable.sol\":2164:2188  return _getGracePeriod() */\n      swap1\n      pop\n        /* \"contracts/modules/ownable/Ownable.sol\":2111:2190  function getGracePeriod()external view returns(uint){return _getGracePeriod();} */\n      swap1\n      jump\t// out\n        /* \"contracts/modules/ownable/Ownable.sol\":2348:2596  function setGracePeriod(uint _seconds) external onlyOwner{... */\n    tag_43:\n        /* \"contracts/modules/ownable/Ownable.sol\":1354:1366  _msgSender() */\n      tag_102\n        /* \"contracts/modules/ownable/Ownable.sol\":1354:1364  _msgSender */\n      tag_46\n        /* \"contracts/modules/ownable/Ownable.sol\":1354:1366  _msgSender() */\n      jump\t// in\n    tag_102:\n        /* \"contracts/modules/ownable/Ownable.sol\":1339:1366  _getOwner() != _msgSender() */\n      0xffffffffffffffffffffffffffffffffffffffff\n      and\n        /* \"contracts/modules/ownable/Ownable.sol\":1339:1350  _getOwner() */\n      tag_103\n        /* \"contracts/modules/ownable/Ownable.sol\":1339:1348  _getOwner */\n      tag_80\n        /* \"contracts/modules/ownable/Ownable.sol\":1339:1350  _getOwner() */\n      jump\t// in\n    tag_103:\n        /* \"contracts/modules/ownable/Ownable.sol\":1339:1366  _getOwner() != _msgSender() */\n      0xffffffffffffffffffffffffffffffffffffffff\n      and\n      eq\n        /* \"contracts/modules/ownable/Ownable.sol\":1335:1382  if (_getOwner() != _msgSender())_accessDenied() */\n      tag_104\n      jumpi\n        /* \"contracts/modules/ownable/Ownable.sol\":1367:1382  _accessDenied() */\n      tag_105\n        /* \"contracts/modules/ownable/Ownable.sol\":1367:1380  _accessDenied */\n      tag_51\n        /* \"contracts/modules/ownable/Ownable.sol\":1367:1382  _accessDenied() */\n      jump\t// in\n    tag_105:\n        /* \"contracts/modules/ownable/Ownable.sol\":1335:1382  if (_getOwner() != _msgSender())_accessDenied() */\n    tag_104:\n        /* \"contracts/modules/ownable/Ownable.sol\":2430:2436  604800 */\n      0x093a80\n        /* \"contracts/modules/ownable/Ownable.sol\":2419:2427  _seconds */\n      dup2\n        /* \"contracts/modules/ownable/Ownable.sol\":2419:2436  _seconds > 604800 */\n      gt\n        /* \"contracts/modules/ownable/Ownable.sol\":2416:2467  if(_seconds > 604800) revert ValueTooHigh(_seconds) */\n      iszero\n      tag_107\n      jumpi\n        /* \"contracts/modules/ownable/Ownable.sol\":2458:2466  _seconds */\n      dup1\n        /* \"contracts/modules/ownable/Ownable.sol\":2445:2467  ValueTooHigh(_seconds) */\n      mload(0x40)\n      0xa253bc7000000000000000000000000000000000000000000000000000000000\n      dup2\n      mstore\n      0x04\n      add\n      tag_108\n      swap2\n      swap1\n      tag_26\n      jump\t// in\n    tag_108:\n      mload(0x40)\n      dup1\n      swap2\n      sub\n      swap1\n      revert\n        /* \"contracts/modules/ownable/Ownable.sol\":2416:2467  if(_seconds > 604800) revert ValueTooHigh(_seconds) */\n    tag_107:\n        /* \"contracts/modules/ownable/Ownable.sol\":2492:2506  OwnableStorage */\n      linkerSymbol(\"ea2bfd386ba84ea2bcf9bcd47bb5c25cd74e5e5c4739ef52f76db311be849ef7\")\n        /* \"contracts/modules/ownable/Ownable.sol\":2492:2521  OwnableStorage.setGracePeriod */\n      0xf2f65960\n        /* \"contracts/modules/ownable/Ownable.sol\":2522:2530  _seconds */\n      dup3\n        /* \"contracts/modules/ownable/Ownable.sol\":2492:2531  OwnableStorage.setGracePeriod(_seconds) */\n      mload(0x40)\n      dup3\n      0xffffffff\n      and\n      0xe0\n      shl\n      dup2\n      mstore\n      0x04\n      add\n      tag_109\n      swap2\n      swap1\n      tag_110\n      jump\t// in\n    tag_109:\n      0x00\n      mload(0x40)\n      dup1\n      dup4\n      sub\n      dup2\n      dup7\n      dup1\n      extcodesize\n      iszero\n      dup1\n      iszero\n      tag_111\n      jumpi\n      revert(0x00, 0x00)\n    tag_111:\n      pop\n      gas\n      delegatecall\n      iszero\n      dup1\n      iszero\n      tag_113\n      jumpi\n      returndatacopy(0x00, 0x00, returndatasize)\n      revert(0x00, returndatasize)\n    tag_113:\n      pop\n      pop\n      pop\n      pop\n        /* \"contracts/modules/ownable/Ownable.sol\":2565:2577  _msgSender() */\n      tag_114\n        /* \"contracts/modules/ownable/Ownable.sol\":2565:2575  _msgSender */\n      tag_46\n        /* \"contracts/modules/ownable/Ownable.sol\":2565:2577  _msgSender() */\n      jump\t// in\n    tag_114:\n        /* \"contracts/modules/ownable/Ownable.sol\":2547:2588  SetNewGracePeriod(_msgSender(), _seconds) */\n      0xffffffffffffffffffffffffffffffffffffffff\n      and\n      0xbb4e769c8bec1bf5b9cbb403afd41b6826b52ba0d1ad04b1d4a6f06eae96b563\n        /* \"contracts/modules/ownable/Ownable.sol\":2579:2587  _seconds */\n      dup3\n        /* \"contracts/modules/ownable/Ownable.sol\":2547:2588  SetNewGracePeriod(_msgSender(), _seconds) */\n      mload(0x40)\n      tag_115\n      swap2\n      swap1\n      tag_26\n      jump\t// in\n    tag_115:\n      mload(0x40)\n      dup1\n      swap2\n      sub\n      swap1\n      log2\n        /* \"contracts/modules/ownable/Ownable.sol\":2348:2596  function setGracePeriod(uint _seconds) external onlyOwner{... */\n      pop\n      jump\t// out\n        /* \"contracts/lib/@openzeppelin/contracts/Context.sol\":656:752  function _msgSender() internal view virtual returns (address) {... */\n    tag_46:\n        /* \"contracts/lib/@openzeppelin/contracts/Context.sol\":709:716  address */\n      0x00\n        /* \"contracts/lib/@openzeppelin/contracts/Context.sol\":735:745  msg.sender */\n      caller\n        /* \"contracts/lib/@openzeppelin/contracts/Context.sol\":728:745  return msg.sender */\n      swap1\n      pop\n        /* \"contracts/lib/@openzeppelin/contracts/Context.sol\":656:752  function _msgSender() internal view virtual returns (address) {... */\n      swap1\n      jump\t// out\n        /* \"contracts/modules/ownable/Ownable.sol\":3356:3446  function _getNewOwner()private view returns(address){return OwnableStorage.getNewOwner();} */\n    tag_48:\n        /* \"contracts/modules/ownable/Ownable.sol\":3400:3407  address */\n      0x00\n        /* \"contracts/modules/ownable/Ownable.sol\":3416:3430  OwnableStorage */\n      linkerSymbol(\"ea2bfd386ba84ea2bcf9bcd47bb5c25cd74e5e5c4739ef52f76db311be849ef7\")\n        /* \"contracts/modules/ownable/Ownable.sol\":3416:3442  OwnableStorage.getNewOwner */\n      0x3e2fe149\n        /* \"contracts/modules/ownable/Ownable.sol\":3416:3444  OwnableStorage.getNewOwner() */\n      mload(0x40)\n      dup2\n      0xffffffff\n      and\n      0xe0\n      shl\n      dup2\n      mstore\n      0x04\n      add\n      0x20\n      mload(0x40)\n      dup1\n      dup4\n      sub\n      dup2\n      dup7\n      gas\n      delegatecall\n      iszero\n      dup1\n      iszero\n      tag_119\n      jumpi\n      returndatacopy(0x00, 0x00, returndatasize)\n      revert(0x00, returndatasize)\n    tag_119:\n      pop\n      pop\n      pop\n      pop\n      mload(0x40)\n      returndatasize\n      not(0x1f)\n      0x1f\n      dup3\n      add\n      and\n      dup3\n      add\n      dup1\n      0x40\n      mstore\n      pop\n      dup2\n      add\n      swap1\n      tag_120\n      swap2\n      swap1\n      tag_121\n      jump\t// in\n    tag_120:\n        /* \"contracts/modules/ownable/Ownable.sol\":3409:3444  return OwnableStorage.getNewOwner() */\n      swap1\n      pop\n        /* \"contracts/modules/ownable/Ownable.sol\":3356:3446  function _getNewOwner()private view returns(address){return OwnableStorage.getNewOwner();} */\n      swap1\n      jump\t// out\n        /* \"contracts/modules/ownable/Ownable.sol\":4073:4146  function _accessDenied() private view{revert AccessDenied(_msgSender());} */\n    tag_51:\n        /* \"contracts/modules/ownable/Ownable.sol\":4131:4143  _msgSender() */\n      tag_123\n        /* \"contracts/modules/ownable/Ownable.sol\":4131:4141  _msgSender */\n      tag_46\n        /* \"contracts/modules/ownable/Ownable.sol\":4131:4143  _msgSender() */\n      jump\t// in\n    tag_123:\n        /* \"contracts/modules/ownable/Ownable.sol\":4118:4144  AccessDenied(_msgSender()) */\n      mload(0x40)\n      0x0504a20d00000000000000000000000000000000000000000000000000000000\n      dup2\n      mstore\n      0x04\n      add\n      tag_124\n      swap2\n      swap1\n      tag_18\n      jump\t// in\n    tag_124:\n      mload(0x40)\n      dup1\n      swap2\n      sub\n      swap1\n      revert\n        /* \"contracts/modules/ownable/Ownable.sol\":3542:3637  function _getTimestampExp()private view returns(uint){return OwnableStorage.getTimestampExp();} */\n    tag_54:\n        /* \"contracts/modules/ownable/Ownable.sol\":3590:3594  uint */\n      0x00\n        /* \"contracts/modules/ownable/Ownable.sol\":3603:3617  OwnableStorage */\n      linkerSymbol(\"ea2bfd386ba84ea2bcf9bcd47bb5c25cd74e5e5c4739ef52f76db311be849ef7\")\n        /* \"contracts/modules/ownable/Ownable.sol\":3603:3633  OwnableStorage.getTimestampExp */\n      0x61a9ab76\n        /* \"contracts/modules/ownable/Ownable.sol\":3603:3635  OwnableStorage.getTimestampExp() */\n      mload(0x40)\n      dup2\n      0xffffffff\n      and\n      0xe0\n      shl\n      dup2\n      mstore\n      0x04\n      add\n      0x20\n      mload(0x40)\n      dup1\n      dup4\n      sub\n      dup2\n      dup7\n      gas\n      delegatecall\n      iszero\n      dup1\n      iszero\n      tag_127\n      jumpi\n      returndatacopy(0x00, 0x00, returndatasize)\n      revert(0x00, returndatasize)\n    tag_127:\n      pop\n      pop\n      pop\n      pop\n      mload(0x40)\n      returndatasize\n      not(0x1f)\n      0x1f\n      dup3\n      add\n      and\n      dup3\n      add\n      dup1\n      0x40\n      mstore\n      pop\n      dup2\n      add\n      swap1\n      tag_128\n      swap2\n      swap1\n      tag_129\n      jump\t// in\n    tag_128:\n        /* \"contracts/modules/ownable/Ownable.sol\":3596:3635  return OwnableStorage.getTimestampExp() */\n      swap1\n      pop\n        /* \"contracts/modules/ownable/Ownable.sol\":3542:3637  function _getTimestampExp()private view returns(uint){return OwnableStorage.getTimestampExp();} */\n      swap1\n      jump\t// out\n        /* \"contracts/modules/ownable/Ownable.sol\":3452:3536  function _getOwner()private view returns(address){return OwnableStorage.getOwner();} */\n    tag_80:\n        /* \"contracts/modules/ownable/Ownable.sol\":3493:3500  address */\n      0x00\n        /* \"contracts/modules/ownable/Ownable.sol\":3509:3523  OwnableStorage */\n      linkerSymbol(\"ea2bfd386ba84ea2bcf9bcd47bb5c25cd74e5e5c4739ef52f76db311be849ef7\")\n        /* \"contracts/modules/ownable/Ownable.sol\":3509:3532  OwnableStorage.getOwner */\n      0x893d20e8\n        /* \"contracts/modules/ownable/Ownable.sol\":3509:3534  OwnableStorage.getOwner() */\n      mload(0x40)\n      dup2\n      0xffffffff\n      and\n      0xe0\n      shl\n      dup2\n      mstore\n      0x04\n      add\n      0x20\n      mload(0x40)\n      dup1\n      dup4\n      sub\n      dup2\n      dup7\n      gas\n      delegatecall\n      iszero\n      dup1\n      iszero\n      tag_132\n      jumpi\n      returndatacopy(0x00, 0x00, returndatasize)\n      revert(0x00, returndatasize)\n    tag_132:\n      pop\n      pop\n      pop\n      pop\n      mload(0x40)\n      returndatasize\n      not(0x1f)\n      0x1f\n      dup3\n      add\n      and\n      dup3\n      add\n      dup1\n      0x40\n      mstore\n      pop\n      dup2\n      add\n      swap1\n      tag_133\n      swap2\n      swap1\n      tag_121\n      jump\t// in\n    tag_133:\n        /* \"contracts/modules/ownable/Ownable.sol\":3502:3534  return OwnableStorage.getOwner() */\n      swap1\n      pop\n        /* \"contracts/modules/ownable/Ownable.sol\":3452:3536  function _getOwner()private view returns(address){return OwnableStorage.getOwner();} */\n      swap1\n      jump\t// out\n        /* \"contracts/modules/ownable/Ownable.sol\":3933:4065  function _checkAddress(address _address) private view onlyOwner {... */\n    tag_85:\n        /* \"contracts/modules/ownable/Ownable.sol\":1354:1366  _msgSender() */\n      tag_135\n        /* \"contracts/modules/ownable/Ownable.sol\":1354:1364  _msgSender */\n      tag_46\n        /* \"contracts/modules/ownable/Ownable.sol\":1354:1366  _msgSender() */\n      jump\t// in\n    tag_135:\n        /* \"contracts/modules/ownable/Ownable.sol\":1339:1366  _getOwner() != _msgSender() */\n      0xffffffffffffffffffffffffffffffffffffffff\n      and\n        /* \"contracts/modules/ownable/Ownable.sol\":1339:1350  _getOwner() */\n      tag_136\n        /* \"contracts/modules/ownable/Ownable.sol\":1339:1348  _getOwner */\n      tag_80\n        /* \"contracts/modules/ownable/Ownable.sol\":1339:1350  _getOwner() */\n      jump\t// in\n    tag_136:\n        /* \"contracts/modules/ownable/Ownable.sol\":1339:1366  _getOwner() != _msgSender() */\n      0xffffffffffffffffffffffffffffffffffffffff\n      and\n      eq\n        /* \"contracts/modules/ownable/Ownable.sol\":1335:1382  if (_getOwner() != _msgSender())_accessDenied() */\n      tag_137\n      jumpi\n        /* \"contracts/modules/ownable/Ownable.sol\":1367:1382  _accessDenied() */\n      tag_138\n        /* \"contracts/modules/ownable/Ownable.sol\":1367:1380  _accessDenied */\n      tag_51\n        /* \"contracts/modules/ownable/Ownable.sol\":1367:1382  _accessDenied() */\n      jump\t// in\n    tag_138:\n        /* \"contracts/modules/ownable/Ownable.sol\":1335:1382  if (_getOwner() != _msgSender())_accessDenied() */\n    tag_137:\n        /* \"contracts/modules/ownable/Ownable.sol\":4032:4033  0 */\n      0x00\n        /* \"contracts/modules/ownable/Ownable.sol\":4012:4034  _address == address(0) */\n      0xffffffffffffffffffffffffffffffffffffffff\n      and\n        /* \"contracts/modules/ownable/Ownable.sol\":4012:4020  _address */\n      dup2\n        /* \"contracts/modules/ownable/Ownable.sol\":4012:4034  _address == address(0) */\n      0xffffffffffffffffffffffffffffffffffffffff\n      and\n      sub\n        /* \"contracts/modules/ownable/Ownable.sol\":4008:4057  if (_address == address(0)) revert EmptyAddress() */\n      tag_140\n      jumpi\n        /* \"contracts/modules/ownable/Ownable.sol\":4043:4057  EmptyAddress() */\n      mload(0x40)\n      0x7138356f00000000000000000000000000000000000000000000000000000000\n      dup2\n      mstore\n      0x04\n      add\n      mload(0x40)\n      dup1\n      swap2\n      sub\n      swap1\n      revert\n        /* \"contracts/modules/ownable/Ownable.sol\":4008:4057  if (_address == address(0)) revert EmptyAddress() */\n    tag_140:\n        /* \"contracts/modules/ownable/Ownable.sol\":3933:4065  function _checkAddress(address _address) private view onlyOwner {... */\n      pop\n      jump\t// out\n        /* \"contracts/modules/ownable/Ownable.sol\":3794:3925  function _setTimestampExp() private onlyOwner{... */\n    tag_91:\n        /* \"contracts/modules/ownable/Ownable.sol\":1354:1366  _msgSender() */\n      tag_142\n        /* \"contracts/modules/ownable/Ownable.sol\":1354:1364  _msgSender */\n      tag_46\n        /* \"contracts/modules/ownable/Ownable.sol\":1354:1366  _msgSender() */\n      jump\t// in\n    tag_142:\n        /* \"contracts/modules/ownable/Ownable.sol\":1339:1366  _getOwner() != _msgSender() */\n      0xffffffffffffffffffffffffffffffffffffffff\n      and\n        /* \"contracts/modules/ownable/Ownable.sol\":1339:1350  _getOwner() */\n      tag_143\n        /* \"contracts/modules/ownable/Ownable.sol\":1339:1348  _getOwner */\n      tag_80\n        /* \"contracts/modules/ownable/Ownable.sol\":1339:1350  _getOwner() */\n      jump\t// in\n    tag_143:\n        /* \"contracts/modules/ownable/Ownable.sol\":1339:1366  _getOwner() != _msgSender() */\n      0xffffffffffffffffffffffffffffffffffffffff\n      and\n      eq\n        /* \"contracts/modules/ownable/Ownable.sol\":1335:1382  if (_getOwner() != _msgSender())_accessDenied() */\n      tag_144\n      jumpi\n        /* \"contracts/modules/ownable/Ownable.sol\":1367:1382  _accessDenied() */\n      tag_145\n        /* \"contracts/modules/ownable/Ownable.sol\":1367:1380  _accessDenied */\n      tag_51\n        /* \"contracts/modules/ownable/Ownable.sol\":1367:1382  _accessDenied() */\n      jump\t// in\n    tag_145:\n        /* \"contracts/modules/ownable/Ownable.sol\":1335:1382  if (_getOwner() != _msgSender())_accessDenied() */\n    tag_144:\n        /* \"contracts/modules/ownable/Ownable.sol\":3850:3864  OwnableStorage */\n      linkerSymbol(\"ea2bfd386ba84ea2bcf9bcd47bb5c25cd74e5e5c4739ef52f76db311be849ef7\")\n        /* \"contracts/modules/ownable/Ownable.sol\":3850:3880  OwnableStorage.setTimestampExp */\n      0xfdb0afee\n        /* \"contracts/modules/ownable/Ownable.sol\":3899:3916  _getGracePeriod() */\n      tag_147\n        /* \"contracts/modules/ownable/Ownable.sol\":3899:3914  _getGracePeriod */\n      tag_100\n        /* \"contracts/modules/ownable/Ownable.sol\":3899:3916  _getGracePeriod() */\n      jump\t// in\n    tag_147:\n        /* \"contracts/modules/ownable/Ownable.sol\":3881:3896  block.timestamp */\n      timestamp\n        /* \"contracts/modules/ownable/Ownable.sol\":3881:3916  block.timestamp + _getGracePeriod() */\n      tag_148\n      swap2\n      swap1\n      tag_149\n      jump\t// in\n    tag_148:\n        /* \"contracts/modules/ownable/Ownable.sol\":3850:3917  OwnableStorage.setTimestampExp(block.timestamp + _getGracePeriod()) */\n      mload(0x40)\n      dup3\n      0xffffffff\n      and\n      0xe0\n      shl\n      dup2\n      mstore\n      0x04\n      add\n      tag_150\n      swap2\n      swap1\n      tag_110\n      jump\t// in\n    tag_150:\n      0x00\n      mload(0x40)\n      dup1\n      dup4\n      sub\n      dup2\n      dup7\n      dup1\n      extcodesize\n      iszero\n      dup1\n      iszero\n      tag_151\n      jumpi\n      revert(0x00, 0x00)\n    tag_151:\n      pop\n      gas\n      delegatecall\n      iszero\n      dup1\n      iszero\n      tag_153\n      jumpi\n      returndatacopy(0x00, 0x00, returndatasize)\n      revert(0x00, returndatasize)\n    tag_153:\n      pop\n      pop\n      pop\n      pop\n        /* \"contracts/modules/ownable/Ownable.sol\":3794:3925  function _setTimestampExp() private onlyOwner{... */\n      jump\t// out\n        /* \"contracts/modules/ownable/Ownable.sol\":3643:3736  function _getGracePeriod()private view returns(uint){return OwnableStorage.getGracePeriod();} */\n    tag_100:\n        /* \"contracts/modules/ownable/Ownable.sol\":3690:3694  uint */\n      0x00\n        /* \"contracts/modules/ownable/Ownable.sol\":3703:3717  OwnableStorage */\n      linkerSymbol(\"ea2bfd386ba84ea2bcf9bcd47bb5c25cd74e5e5c4739ef52f76db311be849ef7\")\n        /* \"contracts/modules/ownable/Ownable.sol\":3703:3732  OwnableStorage.getGracePeriod */\n      0xdbd18388\n        /* \"contracts/modules/ownable/Ownable.sol\":3703:3734  OwnableStorage.getGracePeriod() */\n      mload(0x40)\n      dup2\n      0xffffffff\n      and\n      0xe0\n      shl\n      dup2\n      mstore\n      0x04\n      add\n      0x20\n      mload(0x40)\n      dup1\n      dup4\n      sub\n      dup2\n      dup7\n      gas\n      delegatecall\n      iszero\n      dup1\n      iszero\n      tag_156\n      jumpi\n      returndatacopy(0x00, 0x00, returndatasize)\n      revert(0x00, returndatasize)\n    tag_156:\n      pop\n      pop\n      pop\n      pop\n      mload(0x40)\n      returndatasize\n      not(0x1f)\n      0x1f\n      dup3\n      add\n      and\n      dup3\n      add\n      dup1\n      0x40\n      mstore\n      pop\n      dup2\n      add\n      swap1\n      tag_157\n      swap2\n      swap1\n      tag_129\n      jump\t// in\n    tag_157:\n        /* \"contracts/modules/ownable/Ownable.sol\":3696:3734  return OwnableStorage.getGracePeriod() */\n      swap1\n      pop\n        /* \"contracts/modules/ownable/Ownable.sol\":3643:3736  function _getGracePeriod()private view returns(uint){return OwnableStorage.getGracePeriod();} */\n      swap1\n      jump\t// out\n        /* \"#utility.yul\":7:133   */\n    tag_158:\n        /* \"#utility.yul\":44:51   */\n      0x00\n        /* \"#utility.yul\":84:126   */\n      0xffffffffffffffffffffffffffffffffffffffff\n        /* \"#utility.yul\":77:82   */\n      dup3\n        /* \"#utility.yul\":73:127   */\n      and\n        /* \"#utility.yul\":62:127   */\n      swap1\n      pop\n        /* \"#utility.yul\":7:133   */\n      swap2\n      swap1\n      pop\n      jump\t// out\n        /* \"#utility.yul\":139:235   */\n    tag_159:\n        /* \"#utility.yul\":176:183   */\n      0x00\n        /* \"#utility.yul\":205:229   */\n      tag_187\n        /* \"#utility.yul\":223:228   */\n      dup3\n        /* \"#utility.yul\":205:229   */\n      tag_158\n      jump\t// in\n    tag_187:\n        /* \"#utility.yul\":194:229   */\n      swap1\n      pop\n        /* \"#utility.yul\":139:235   */\n      swap2\n      swap1\n      pop\n      jump\t// out\n        /* \"#utility.yul\":241:359   */\n    tag_160:\n        /* \"#utility.yul\":328:352   */\n      tag_189\n        /* \"#utility.yul\":346:351   */\n      dup2\n        /* \"#utility.yul\":328:352   */\n      tag_159\n      jump\t// in\n    tag_189:\n        /* \"#utility.yul\":323:326   */\n      dup3\n        /* \"#utility.yul\":316:353   */\n      mstore\n        /* \"#utility.yul\":241:359   */\n      pop\n      pop\n      jump\t// out\n        /* \"#utility.yul\":365:587   */\n    tag_18:\n        /* \"#utility.yul\":458:462   */\n      0x00\n        /* \"#utility.yul\":496:498   */\n      0x20\n        /* \"#utility.yul\":485:494   */\n      dup3\n        /* \"#utility.yul\":481:499   */\n      add\n        /* \"#utility.yul\":473:499   */\n      swap1\n      pop\n        /* \"#utility.yul\":509:580   */\n      tag_191\n        /* \"#utility.yul\":577:578   */\n      0x00\n        /* \"#utility.yul\":566:575   */\n      dup4\n        /* \"#utility.yul\":562:579   */\n      add\n        /* \"#utility.yul\":553:559   */\n      dup5\n        /* \"#utility.yul\":509:580   */\n      tag_160\n      jump\t// in\n    tag_191:\n        /* \"#utility.yul\":365:587   */\n      swap3\n      swap2\n      pop\n      pop\n      jump\t// out\n        /* \"#utility.yul\":674:791   */\n    tag_162:\n        /* \"#utility.yul\":783:784   */\n      0x00\n        /* \"#utility.yul\":780:781   */\n      0x00\n        /* \"#utility.yul\":773:785   */\n      revert\n        /* \"#utility.yul\":920:1042   */\n    tag_164:\n        /* \"#utility.yul\":993:1017   */\n      tag_196\n        /* \"#utility.yul\":1011:1016   */\n      dup2\n        /* \"#utility.yul\":993:1017   */\n      tag_159\n      jump\t// in\n    tag_196:\n        /* \"#utility.yul\":986:991   */\n      dup2\n        /* \"#utility.yul\":983:1018   */\n      eq\n        /* \"#utility.yul\":973:1036   */\n      tag_197\n      jumpi\n        /* \"#utility.yul\":1032:1033   */\n      0x00\n        /* \"#utility.yul\":1029:1030   */\n      0x00\n        /* \"#utility.yul\":1022:1034   */\n      revert\n        /* \"#utility.yul\":973:1036   */\n    tag_197:\n        /* \"#utility.yul\":920:1042   */\n      pop\n      jump\t// out\n        /* \"#utility.yul\":1048:1187   */\n    tag_165:\n        /* \"#utility.yul\":1094:1099   */\n      0x00\n        /* \"#utility.yul\":1132:1138   */\n      dup2\n        /* \"#utility.yul\":1119:1139   */\n      calldataload\n        /* \"#utility.yul\":1110:1139   */\n      swap1\n      pop\n        /* \"#utility.yul\":1148:1181   */\n      tag_199\n        /* \"#utility.yul\":1175:1180   */\n      dup2\n        /* \"#utility.yul\":1148:1181   */\n      tag_164\n      jump\t// in\n    tag_199:\n        /* \"#utility.yul\":1048:1187   */\n      swap3\n      swap2\n      pop\n      pop\n      jump\t// out\n        /* \"#utility.yul\":1193:1522   */\n    tag_21:\n        /* \"#utility.yul\":1252:1258   */\n      0x00\n        /* \"#utility.yul\":1301:1303   */\n      0x20\n        /* \"#utility.yul\":1289:1298   */\n      dup3\n        /* \"#utility.yul\":1280:1287   */\n      dup5\n        /* \"#utility.yul\":1276:1299   */\n      sub\n        /* \"#utility.yul\":1272:1304   */\n      slt\n        /* \"#utility.yul\":1269:1388   */\n      iszero\n      tag_201\n      jumpi\n        /* \"#utility.yul\":1307:1386   */\n      tag_202\n      tag_162\n      jump\t// in\n    tag_202:\n        /* \"#utility.yul\":1269:1388   */\n    tag_201:\n        /* \"#utility.yul\":1427:1428   */\n      0x00\n        /* \"#utility.yul\":1452:1505   */\n      tag_203\n        /* \"#utility.yul\":1497:1504   */\n      dup5\n        /* \"#utility.yul\":1488:1494   */\n      dup3\n        /* \"#utility.yul\":1477:1486   */\n      dup6\n        /* \"#utility.yul\":1473:1495   */\n      add\n        /* \"#utility.yul\":1452:1505   */\n      tag_165\n      jump\t// in\n    tag_203:\n        /* \"#utility.yul\":1442:1505   */\n      swap2\n      pop\n        /* \"#utility.yul\":1398:1515   */\n      pop\n        /* \"#utility.yul\":1193:1522   */\n      swap3\n      swap2\n      pop\n      pop\n      jump\t// out\n        /* \"#utility.yul\":1528:1605   */\n    tag_166:\n        /* \"#utility.yul\":1565:1572   */\n      0x00\n        /* \"#utility.yul\":1594:1599   */\n      dup2\n        /* \"#utility.yul\":1583:1599   */\n      swap1\n      pop\n        /* \"#utility.yul\":1528:1605   */\n      swap2\n      swap1\n      pop\n      jump\t// out\n        /* \"#utility.yul\":1611:1729   */\n    tag_167:\n        /* \"#utility.yul\":1698:1722   */\n      tag_206\n        /* \"#utility.yul\":1716:1721   */\n      dup2\n        /* \"#utility.yul\":1698:1722   */\n      tag_166\n      jump\t// in\n    tag_206:\n        /* \"#utility.yul\":1693:1696   */\n      dup3\n        /* \"#utility.yul\":1686:1723   */\n      mstore\n        /* \"#utility.yul\":1611:1729   */\n      pop\n      pop\n      jump\t// out\n        /* \"#utility.yul\":1735:1957   */\n    tag_26:\n        /* \"#utility.yul\":1828:1832   */\n      0x00\n        /* \"#utility.yul\":1866:1868   */\n      0x20\n        /* \"#utility.yul\":1855:1864   */\n      dup3\n        /* \"#utility.yul\":1851:1869   */\n      add\n        /* \"#utility.yul\":1843:1869   */\n      swap1\n      pop\n        /* \"#utility.yul\":1879:1950   */\n      tag_208\n        /* \"#utility.yul\":1947:1948   */\n      0x00\n        /* \"#utility.yul\":1936:1945   */\n      dup4\n        /* \"#utility.yul\":1932:1949   */\n      add\n        /* \"#utility.yul\":1923:1929   */\n      dup5\n        /* \"#utility.yul\":1879:1950   */\n      tag_167\n      jump\t// in\n    tag_208:\n        /* \"#utility.yul\":1735:1957   */\n      swap3\n      swap2\n      pop\n      pop\n      jump\t// out\n        /* \"#utility.yul\":1963:2062   */\n    tag_168:\n        /* \"#utility.yul\":2015:2021   */\n      0x00\n        /* \"#utility.yul\":2049:2054   */\n      dup2\n        /* \"#utility.yul\":2043:2055   */\n      mload\n        /* \"#utility.yul\":2033:2055   */\n      swap1\n      pop\n        /* \"#utility.yul\":1963:2062   */\n      swap2\n      swap1\n      pop\n      jump\t// out\n        /* \"#utility.yul\":2068:2237   */\n    tag_169:\n        /* \"#utility.yul\":2152:2163   */\n      0x00\n        /* \"#utility.yul\":2186:2192   */\n      dup3\n        /* \"#utility.yul\":2181:2184   */\n      dup3\n        /* \"#utility.yul\":2174:2193   */\n      mstore\n        /* \"#utility.yul\":2226:2230   */\n      0x20\n        /* \"#utility.yul\":2221:2224   */\n      dup3\n        /* \"#utility.yul\":2217:2231   */\n      add\n        /* \"#utility.yul\":2202:2231   */\n      swap1\n      pop\n        /* \"#utility.yul\":2068:2237   */\n      swap3\n      swap2\n      pop\n      pop\n      jump\t// out\n        /* \"#utility.yul\":2243:2382   */\n    tag_170:\n        /* \"#utility.yul\":2332:2338   */\n      dup3\n        /* \"#utility.yul\":2327:2330   */\n      dup2\n        /* \"#utility.yul\":2322:2325   */\n      dup4\n        /* \"#utility.yul\":2316:2339   */\n      mcopy\n        /* \"#utility.yul\":2373:2374   */\n      0x00\n        /* \"#utility.yul\":2364:2370   */\n      dup4\n        /* \"#utility.yul\":2359:2362   */\n      dup4\n        /* \"#utility.yul\":2355:2371   */\n      add\n        /* \"#utility.yul\":2348:2375   */\n      mstore\n        /* \"#utility.yul\":2243:2382   */\n      pop\n      pop\n      pop\n      jump\t// out\n        /* \"#utility.yul\":2388:2490   */\n    tag_171:\n        /* \"#utility.yul\":2429:2435   */\n      0x00\n        /* \"#utility.yul\":2480:2482   */\n      0x1f\n        /* \"#utility.yul\":2476:2483   */\n      not\n        /* \"#utility.yul\":2471:2473   */\n      0x1f\n        /* \"#utility.yul\":2464:2469   */\n      dup4\n        /* \"#utility.yul\":2460:2474   */\n      add\n        /* \"#utility.yul\":2456:2484   */\n      and\n        /* \"#utility.yul\":2446:2484   */\n      swap1\n      pop\n        /* \"#utility.yul\":2388:2490   */\n      swap2\n      swap1\n      pop\n      jump\t// out\n        /* \"#utility.yul\":2496:2873   */\n    tag_172:\n        /* \"#utility.yul\":2584:2587   */\n      0x00\n        /* \"#utility.yul\":2612:2651   */\n      tag_214\n        /* \"#utility.yul\":2645:2650   */\n      dup3\n        /* \"#utility.yul\":2612:2651   */\n      tag_168\n      jump\t// in\n    tag_214:\n        /* \"#utility.yul\":2667:2738   */\n      tag_215\n        /* \"#utility.yul\":2731:2737   */\n      dup2\n        /* \"#utility.yul\":2726:2729   */\n      dup6\n        /* \"#utility.yul\":2667:2738   */\n      tag_169\n      jump\t// in\n    tag_215:\n        /* \"#utility.yul\":2660:2738   */\n      swap4\n      pop\n        /* \"#utility.yul\":2747:2812   */\n      tag_216\n        /* \"#utility.yul\":2805:2811   */\n      dup2\n        /* \"#utility.yul\":2800:2803   */\n      dup6\n        /* \"#utility.yul\":2793:2797   */\n      0x20\n        /* \"#utility.yul\":2786:2791   */\n      dup7\n        /* \"#utility.yul\":2782:2798   */\n      add\n        /* \"#utility.yul\":2747:2812   */\n      tag_170\n      jump\t// in\n    tag_216:\n        /* \"#utility.yul\":2837:2866   */\n      tag_217\n        /* \"#utility.yul\":2859:2865   */\n      dup2\n        /* \"#utility.yul\":2837:2866   */\n      tag_171\n      jump\t// in\n    tag_217:\n        /* \"#utility.yul\":2832:2835   */\n      dup5\n        /* \"#utility.yul\":2828:2867   */\n      add\n        /* \"#utility.yul\":2821:2867   */\n      swap2\n      pop\n        /* \"#utility.yul\":2588:2873   */\n      pop\n        /* \"#utility.yul\":2496:2873   */\n      swap3\n      swap2\n      pop\n      pop\n      jump\t// out\n        /* \"#utility.yul\":2879:3192   */\n    tag_36:\n        /* \"#utility.yul\":2992:2996   */\n      0x00\n        /* \"#utility.yul\":3030:3032   */\n      0x20\n        /* \"#utility.yul\":3019:3028   */\n      dup3\n        /* \"#utility.yul\":3015:3033   */\n      add\n        /* \"#utility.yul\":3007:3033   */\n      swap1\n      pop\n        /* \"#utility.yul\":3079:3088   */\n      dup2\n        /* \"#utility.yul\":3073:3077   */\n      dup2\n        /* \"#utility.yul\":3069:3089   */\n      sub\n        /* \"#utility.yul\":3065:3066   */\n      0x00\n        /* \"#utility.yul\":3054:3063   */\n      dup4\n        /* \"#utility.yul\":3050:3067   */\n      add\n        /* \"#utility.yul\":3043:3090   */\n      mstore\n        /* \"#utility.yul\":3107:3185   */\n      tag_219\n        /* \"#utility.yul\":3180:3184   */\n      dup2\n        /* \"#utility.yul\":3171:3177   */\n      dup5\n        /* \"#utility.yul\":3107:3185   */\n      tag_172\n      jump\t// in\n    tag_219:\n        /* \"#utility.yul\":3099:3185   */\n      swap1\n      pop\n        /* \"#utility.yul\":2879:3192   */\n      swap3\n      swap2\n      pop\n      pop\n      jump\t// out\n        /* \"#utility.yul\":3198:3320   */\n    tag_173:\n        /* \"#utility.yul\":3271:3295   */\n      tag_221\n        /* \"#utility.yul\":3289:3294   */\n      dup2\n        /* \"#utility.yul\":3271:3295   */\n      tag_166\n      jump\t// in\n    tag_221:\n        /* \"#utility.yul\":3264:3269   */\n      dup2\n        /* \"#utility.yul\":3261:3296   */\n      eq\n        /* \"#utility.yul\":3251:3314   */\n      tag_222\n      jumpi\n        /* \"#utility.yul\":3310:3311   */\n      0x00\n        /* \"#utility.yul\":3307:3308   */\n      0x00\n        /* \"#utility.yul\":3300:3312   */\n      revert\n        /* \"#utility.yul\":3251:3314   */\n    tag_222:\n        /* \"#utility.yul\":3198:3320   */\n      pop\n      jump\t// out\n        /* \"#utility.yul\":3326:3465   */\n    tag_174:\n        /* \"#utility.yul\":3372:3377   */\n      0x00\n        /* \"#utility.yul\":3410:3416   */\n      dup2\n        /* \"#utility.yul\":3397:3417   */\n      calldataload\n        /* \"#utility.yul\":3388:3417   */\n      swap1\n      pop\n        /* \"#utility.yul\":3426:3459   */\n      tag_224\n        /* \"#utility.yul\":3453:3458   */\n      dup2\n        /* \"#utility.yul\":3426:3459   */\n      tag_173\n      jump\t// in\n    tag_224:\n        /* \"#utility.yul\":3326:3465   */\n      swap3\n      swap2\n      pop\n      pop\n      jump\t// out\n        /* \"#utility.yul\":3471:3800   */\n    tag_42:\n        /* \"#utility.yul\":3530:3536   */\n      0x00\n        /* \"#utility.yul\":3579:3581   */\n      0x20\n        /* \"#utility.yul\":3567:3576   */\n      dup3\n        /* \"#utility.yul\":3558:3565   */\n      dup5\n        /* \"#utility.yul\":3554:3577   */\n      sub\n        /* \"#utility.yul\":3550:3582   */\n      slt\n        /* \"#utility.yul\":3547:3666   */\n      iszero\n      tag_226\n      jumpi\n        /* \"#utility.yul\":3585:3664   */\n      tag_227\n      tag_162\n      jump\t// in\n    tag_227:\n        /* \"#utility.yul\":3547:3666   */\n    tag_226:\n        /* \"#utility.yul\":3705:3706   */\n      0x00\n        /* \"#utility.yul\":3730:3783   */\n      tag_228\n        /* \"#utility.yul\":3775:3782   */\n      dup5\n        /* \"#utility.yul\":3766:3772   */\n      dup3\n        /* \"#utility.yul\":3755:3764   */\n      dup6\n        /* \"#utility.yul\":3751:3773   */\n      add\n        /* \"#utility.yul\":3730:3783   */\n      tag_174\n      jump\t// in\n    tag_228:\n        /* \"#utility.yul\":3720:3783   */\n      swap2\n      pop\n        /* \"#utility.yul\":3676:3793   */\n      pop\n        /* \"#utility.yul\":3471:3800   */\n      swap3\n      swap2\n      pop\n      pop\n      jump\t// out\n        /* \"#utility.yul\":3806:3932   */\n    tag_175:\n        /* \"#utility.yul\":3901:3925   */\n      tag_230\n        /* \"#utility.yul\":3919:3924   */\n      dup2\n        /* \"#utility.yul\":3901:3925   */\n      tag_159\n      jump\t// in\n    tag_230:\n        /* \"#utility.yul\":3896:3899   */\n      dup3\n        /* \"#utility.yul\":3889:3926   */\n      mstore\n        /* \"#utility.yul\":3806:3932   */\n      pop\n      pop\n      jump\t// out\n        /* \"#utility.yul\":3938:4176   */\n    tag_61:\n        /* \"#utility.yul\":4039:4043   */\n      0x00\n        /* \"#utility.yul\":4077:4079   */\n      0x20\n        /* \"#utility.yul\":4066:4075   */\n      dup3\n        /* \"#utility.yul\":4062:4080   */\n      add\n        /* \"#utility.yul\":4054:4080   */\n      swap1\n      pop\n        /* \"#utility.yul\":4090:4169   */\n      tag_232\n        /* \"#utility.yul\":4166:4167   */\n      0x00\n        /* \"#utility.yul\":4155:4164   */\n      dup4\n        /* \"#utility.yul\":4151:4168   */\n      add\n        /* \"#utility.yul\":4142:4148   */\n      dup5\n        /* \"#utility.yul\":4090:4169   */\n      tag_175\n      jump\t// in\n    tag_232:\n        /* \"#utility.yul\":3938:4176   */\n      swap3\n      swap2\n      pop\n      pop\n      jump\t// out\n        /* \"#utility.yul\":4182:4267   */\n    tag_176:\n        /* \"#utility.yul\":4227:4234   */\n      0x00\n        /* \"#utility.yul\":4256:4261   */\n      dup2\n        /* \"#utility.yul\":4245:4261   */\n      swap1\n      pop\n        /* \"#utility.yul\":4182:4267   */\n      swap2\n      swap1\n      pop\n      jump\t// out\n        /* \"#utility.yul\":4273:4333   */\n    tag_177:\n        /* \"#utility.yul\":4301:4304   */\n      0x00\n        /* \"#utility.yul\":4322:4327   */\n      dup2\n        /* \"#utility.yul\":4315:4327   */\n      swap1\n      pop\n        /* \"#utility.yul\":4273:4333   */\n      swap2\n      swap1\n      pop\n      jump\t// out\n        /* \"#utility.yul\":4339:4497   */\n    tag_178:\n        /* \"#utility.yul\":4397:4406   */\n      0x00\n        /* \"#utility.yul\":4430:4491   */\n      tag_236\n        /* \"#utility.yul\":4448:4490   */\n      tag_237\n        /* \"#utility.yul\":4457:4489   */\n      tag_238\n        /* \"#utility.yul\":4483:4488   */\n      dup5\n        /* \"#utility.yul\":4457:4489   */\n      tag_176\n      jump\t// in\n    tag_238:\n        /* \"#utility.yul\":4448:4490   */\n      tag_177\n      jump\t// in\n    tag_237:\n        /* \"#utility.yul\":4430:4491   */\n      tag_166\n      jump\t// in\n    tag_236:\n        /* \"#utility.yul\":4417:4491   */\n      swap1\n      pop\n        /* \"#utility.yul\":4339:4497   */\n      swap2\n      swap1\n      pop\n      jump\t// out\n        /* \"#utility.yul\":4503:4658   */\n    tag_179:\n        /* \"#utility.yul\":4606:4651   */\n      tag_240\n        /* \"#utility.yul\":4645:4650   */\n      dup2\n        /* \"#utility.yul\":4606:4651   */\n      tag_178\n      jump\t// in\n    tag_240:\n        /* \"#utility.yul\":4601:4604   */\n      dup3\n        /* \"#utility.yul\":4594:4652   */\n      mstore\n        /* \"#utility.yul\":4503:4658   */\n      pop\n      pop\n      jump\t// out\n        /* \"#utility.yul\":4664:4918   */\n    tag_70:\n        /* \"#utility.yul\":4773:4777   */\n      0x00\n        /* \"#utility.yul\":4811:4813   */\n      0x20\n        /* \"#utility.yul\":4800:4809   */\n      dup3\n        /* \"#utility.yul\":4796:4814   */\n      add\n        /* \"#utility.yul\":4788:4814   */\n      swap1\n      pop\n        /* \"#utility.yul\":4824:4911   */\n      tag_242\n        /* \"#utility.yul\":4908:4909   */\n      0x00\n        /* \"#utility.yul\":4897:4906   */\n      dup4\n        /* \"#utility.yul\":4893:4910   */\n      add\n        /* \"#utility.yul\":4884:4890   */\n      dup5\n        /* \"#utility.yul\":4824:4911   */\n      tag_179\n      jump\t// in\n    tag_242:\n        /* \"#utility.yul\":4664:4918   */\n      swap3\n      swap2\n      pop\n      pop\n      jump\t// out\n        /* \"#utility.yul\":4924:5050   */\n    tag_180:\n        /* \"#utility.yul\":5019:5043   */\n      tag_244\n        /* \"#utility.yul\":5037:5042   */\n      dup2\n        /* \"#utility.yul\":5019:5043   */\n      tag_166\n      jump\t// in\n    tag_244:\n        /* \"#utility.yul\":5014:5017   */\n      dup3\n        /* \"#utility.yul\":5007:5044   */\n      mstore\n        /* \"#utility.yul\":4924:5050   */\n      pop\n      pop\n      jump\t// out\n        /* \"#utility.yul\":5056:5294   */\n    tag_110:\n        /* \"#utility.yul\":5157:5161   */\n      0x00\n        /* \"#utility.yul\":5195:5197   */\n      0x20\n        /* \"#utility.yul\":5184:5193   */\n      dup3\n        /* \"#utility.yul\":5180:5198   */\n      add\n        /* \"#utility.yul\":5172:5198   */\n      swap1\n      pop\n        /* \"#utility.yul\":5208:5287   */\n      tag_246\n        /* \"#utility.yul\":5284:5285   */\n      0x00\n        /* \"#utility.yul\":5273:5282   */\n      dup4\n        /* \"#utility.yul\":5269:5286   */\n      add\n        /* \"#utility.yul\":5260:5266   */\n      dup5\n        /* \"#utility.yul\":5208:5287   */\n      tag_180\n      jump\t// in\n    tag_246:\n        /* \"#utility.yul\":5056:5294   */\n      swap3\n      swap2\n      pop\n      pop\n      jump\t// out\n        /* \"#utility.yul\":5300:5443   */\n    tag_181:\n        /* \"#utility.yul\":5357:5362   */\n      0x00\n        /* \"#utility.yul\":5388:5394   */\n      dup2\n        /* \"#utility.yul\":5382:5395   */\n      mload\n        /* \"#utility.yul\":5373:5395   */\n      swap1\n      pop\n        /* \"#utility.yul\":5404:5437   */\n      tag_248\n        /* \"#utility.yul\":5431:5436   */\n      dup2\n        /* \"#utility.yul\":5404:5437   */\n      tag_164\n      jump\t// in\n    tag_248:\n        /* \"#utility.yul\":5300:5443   */\n      swap3\n      swap2\n      pop\n      pop\n      jump\t// out\n        /* \"#utility.yul\":5449:5800   */\n    tag_121:\n        /* \"#utility.yul\":5519:5525   */\n      0x00\n        /* \"#utility.yul\":5568:5570   */\n      0x20\n        /* \"#utility.yul\":5556:5565   */\n      dup3\n        /* \"#utility.yul\":5547:5554   */\n      dup5\n        /* \"#utility.yul\":5543:5566   */\n      sub\n        /* \"#utility.yul\":5539:5571   */\n      slt\n        /* \"#utility.yul\":5536:5655   */\n      iszero\n      tag_250\n      jumpi\n        /* \"#utility.yul\":5574:5653   */\n      tag_251\n      tag_162\n      jump\t// in\n    tag_251:\n        /* \"#utility.yul\":5536:5655   */\n    tag_250:\n        /* \"#utility.yul\":5694:5695   */\n      0x00\n        /* \"#utility.yul\":5719:5783   */\n      tag_252\n        /* \"#utility.yul\":5775:5782   */\n      dup5\n        /* \"#utility.yul\":5766:5772   */\n      dup3\n        /* \"#utility.yul\":5755:5764   */\n      dup6\n        /* \"#utility.yul\":5751:5773   */\n      add\n        /* \"#utility.yul\":5719:5783   */\n      tag_181\n      jump\t// in\n    tag_252:\n        /* \"#utility.yul\":5709:5783   */\n      swap2\n      pop\n        /* \"#utility.yul\":5665:5793   */\n      pop\n        /* \"#utility.yul\":5449:5800   */\n      swap3\n      swap2\n      pop\n      pop\n      jump\t// out\n        /* \"#utility.yul\":5806:5949   */\n    tag_182:\n        /* \"#utility.yul\":5863:5868   */\n      0x00\n        /* \"#utility.yul\":5894:5900   */\n      dup2\n        /* \"#utility.yul\":5888:5901   */\n      mload\n        /* \"#utility.yul\":5879:5901   */\n      swap1\n      pop\n        /* \"#utility.yul\":5910:5943   */\n      tag_254\n        /* \"#utility.yul\":5937:5942   */\n      dup2\n        /* \"#utility.yul\":5910:5943   */\n      tag_173\n      jump\t// in\n    tag_254:\n        /* \"#utility.yul\":5806:5949   */\n      swap3\n      swap2\n      pop\n      pop\n      jump\t// out\n        /* \"#utility.yul\":5955:6306   */\n    tag_129:\n        /* \"#utility.yul\":6025:6031   */\n      0x00\n        /* \"#utility.yul\":6074:6076   */\n      0x20\n        /* \"#utility.yul\":6062:6071   */\n      dup3\n        /* \"#utility.yul\":6053:6060   */\n      dup5\n        /* \"#utility.yul\":6049:6072   */\n      sub\n        /* \"#utility.yul\":6045:6077   */\n      slt\n        /* \"#utility.yul\":6042:6161   */\n      iszero\n      tag_256\n      jumpi\n        /* \"#utility.yul\":6080:6159   */\n      tag_257\n      tag_162\n      jump\t// in\n    tag_257:\n        /* \"#utility.yul\":6042:6161   */\n    tag_256:\n        /* \"#utility.yul\":6200:6201   */\n      0x00\n        /* \"#utility.yul\":6225:6289   */\n      tag_258\n        /* \"#utility.yul\":6281:6288   */\n      dup5\n        /* \"#utility.yul\":6272:6278   */\n      dup3\n        /* \"#utility.yul\":6261:6270   */\n      dup6\n        /* \"#utility.yul\":6257:6279   */\n      add\n        /* \"#utility.yul\":6225:6289   */\n      tag_182\n      jump\t// in\n    tag_258:\n        /* \"#utility.yul\":6215:6289   */\n      swap2\n      pop\n        /* \"#utility.yul\":6171:6299   */\n      pop\n        /* \"#utility.yul\":5955:6306   */\n      swap3\n      swap2\n      pop\n      pop\n      jump\t// out\n        /* \"#utility.yul\":6312:6492   */\n    tag_183:\n        /* \"#utility.yul\":6360:6437   */\n      0x4e487b7100000000000000000000000000000000000000000000000000000000\n        /* \"#utility.yul\":6357:6358   */\n      0x00\n        /* \"#utility.yul\":6350:6438   */\n      mstore\n        /* \"#utility.yul\":6457:6461   */\n      0x11\n        /* \"#utility.yul\":6454:6455   */\n      0x04\n        /* \"#utility.yul\":6447:6462   */\n      mstore\n        /* \"#utility.yul\":6481:6485   */\n      0x24\n        /* \"#utility.yul\":6478:6479   */\n      0x00\n        /* \"#utility.yul\":6471:6486   */\n      revert\n        /* \"#utility.yul\":6498:6689   */\n    tag_149:\n        /* \"#utility.yul\":6538:6541   */\n      0x00\n        /* \"#utility.yul\":6557:6577   */\n      tag_261\n        /* \"#utility.yul\":6575:6576   */\n      dup3\n        /* \"#utility.yul\":6557:6577   */\n      tag_166\n      jump\t// in\n    tag_261:\n        /* \"#utility.yul\":6552:6577   */\n      swap2\n      pop\n        /* \"#utility.yul\":6591:6611   */\n      tag_262\n        /* \"#utility.yul\":6609:6610   */\n      dup4\n        /* \"#utility.yul\":6591:6611   */\n      tag_166\n      jump\t// in\n    tag_262:\n        /* \"#utility.yul\":6586:6611   */\n      swap3\n      pop\n        /* \"#utility.yul\":6634:6635   */\n      dup3\n        /* \"#utility.yul\":6631:6632   */\n      dup3\n        /* \"#utility.yul\":6627:6636   */\n      add\n        /* \"#utility.yul\":6620:6636   */\n      swap1\n      pop\n        /* \"#utility.yul\":6655:6658   */\n      dup1\n        /* \"#utility.yul\":6652:6653   */\n      dup3\n        /* \"#utility.yul\":6649:6659   */\n      gt\n        /* \"#utility.yul\":6646:6682   */\n      iszero\n      tag_263\n      jumpi\n        /* \"#utility.yul\":6662:6680   */\n      tag_264\n      tag_183\n      jump\t// in\n    tag_264:\n        /* \"#utility.yul\":6646:6682   */\n    tag_263:\n        /* \"#utility.yul\":6498:6689   */\n      swap3\n      swap2\n      pop\n      pop\n      jump\t// out\n\n    auxdata: 0xa2646970667358221220669ed0a1167e964cd804d1b6e46a60b98360df3e5caaf1add60dd3c9d37238df64736f6c634300081e0033\n}\n",
				"bytecode": {
					"linkReferences": {
						"contracts/storage/LibOwnableStorage.sol": {
							"OwnableStorage": [
								{
									"length": 20,
									"start": 42
								},
								{
									"length": 20,
									"start": 154
								},
								{
									"length": 20,
									"start": 1033
								},
								{
									"length": 20,
									"start": 1132
								},
								{
									"length": 20,
									"start": 1231
								},
								{
									"length": 20,
									"start": 1508
								},
								{
									"length": 20,
									"start": 2007
								},
								{
									"length": 20,
									"start": 2202
								},
								{
									"length": 20,
									"start": 2383
								},
								{
									"length": 20,
									"start": 2496
								},
								{
									"length": 20,
									"start": 2860
								},
								{
									"length": 20,
									"start": 2980
								}
							]
						}
					},
					"object": "60a060405261001660015f5f61010360201b60201c565b608090815250348015610027575f5ffd5b5073__$ea2bfd386ba84ea2bcf9bcd47bb5c25cd7$__63592bd70561005061012c60201b60201c565b6040518263ffffffff1660e01b815260040161006c9190610172565b5f6040518083038186803b158015610082575f5ffd5b505af4158015610094573d5f5f3e3d5ffd5b5050505073__$ea2bfd386ba84ea2bcf9bcd47bb5c25cd7$__63f2f65960620151806040518263ffffffff1660e01b81526004016100d291906101a3565b5f6040518083038186803b1580156100e8575f5ffd5b505af41580156100fa573d5f5f3e3d5ffd5b505050506101bc565b5f8163ffffffff1660208463ffffffff16901b60408663ffffffff16901b171790509392505050565b5f33905090565b5f73ffffffffffffffffffffffffffffffffffffffff82169050919050565b5f61015c82610133565b9050919050565b61016c81610152565b82525050565b5f6020820190506101855f830184610163565b92915050565b5f819050919050565b61019d8161018b565b82525050565b5f6020820190506101b65f830184610194565b92915050565b608051610dc46101d45f395f6104f80152610dc45ff3fe608060405234801561000f575f5ffd5b5060043610610091575f3560e01c806381ed98081161006457806381ed9808146100f7578063893d20e8146101155780639b865b4314610133578063dbd1838814610151578063f2f659601461016f57610091565b806318e3e87f146100955780633e2fe1491461009f5780634fb2e45d146100bd57806361a9ab76146100d9575b5f5ffd5b61009d61018b565b005b6100a76103ad565b6040516100b49190610a7d565b60405180910390f35b6100d760048036038101906100d29190610ac4565b6103bb565b005b6100e16104e8565b6040516100ee9190610b07565b60405180910390f35b6100ff6104f6565b60405161010c9190610b07565b60405180910390f35b61011d61051a565b60405161012a9190610a7d565b60405180910390f35b61013b610528565b6040516101489190610b90565b60405180910390f35b610159610561565b6040516101669190610b07565b60405180910390f35b61018960048036038101906101849190610bda565b61056f565b005b6101936106bc565b73ffffffffffffffffffffffffffffffffffffffff166101b16106c3565b73ffffffffffffffffffffffffffffffffffffffff16146101d5576101d4610734565b5b426101de610778565b1015610228576101ec6106bc565b6040517fefabbdc600000000000000000000000000000000000000000000000000000000815260040161021f9190610a7d565b60405180910390fd5b5f6102316106c3565b905073__$ea2bfd386ba84ea2bcf9bcd47bb5c25cd7$__63592bd705826040518263ffffffff1660e01b815260040161026a9190610c14565b5f6040518083038186803b158015610280575f5ffd5b505af4158015610292573d5f5f3e3d5ffd5b5050505073__$ea2bfd386ba84ea2bcf9bcd47bb5c25cd7$__6334b8160c5f6040518263ffffffff1660e01b81526004016102cd9190610c14565b5f6040518083038186803b1580156102e3575f5ffd5b505af41580156102f5573d5f5f3e3d5ffd5b5050505073__$ea2bfd386ba84ea2bcf9bcd47bb5c25cd7$__63fdb0afee5f6040518263ffffffff1660e01b81526004016103309190610c6f565b5f6040518083038186803b158015610346575f5ffd5b505af4158015610358573d5f5f3e3d5ffd5b505050508073ffffffffffffffffffffffffffffffffffffffff167fba63841a7533a3a83852e6bd791045210d9e961d32ec380162bcd5d1d6fe1212426040516103a29190610b07565b60405180910390a250565b5f6103b66106c3565b905090565b6103c36106bc565b73ffffffffffffffffffffffffffffffffffffffff166103e16107e9565b73ffffffffffffffffffffffffffffffffffffffff161461040557610404610734565b5b61040e8161085a565b73__$ea2bfd386ba84ea2bcf9bcd47bb5c25cd7$__6334b8160c826040518263ffffffff1660e01b81526004016104459190610c14565b5f6040518083038186803b15801561045b575f5ffd5b505af415801561046d573d5f5f3e3d5ffd5b5050505061047961090c565b8073ffffffffffffffffffffffffffffffffffffffff166104986106bc565b73ffffffffffffffffffffffffffffffffffffffff167f8dbb839c92a52a1b41b96c2376318a45b974066df935981e08419bd7a0ae1500426040516104dd9190610b07565b60405180910390a350565b5f6104f1610778565b905090565b7f000000000000000000000000000000000000000000000000000000000000000081565b5f6105236107e9565b905090565b6040518060400160405280600781526020017f4f776e61626c650000000000000000000000000000000000000000000000000081525081565b5f61056a6109cd565b905090565b6105776106bc565b73ffffffffffffffffffffffffffffffffffffffff166105956107e9565b73ffffffffffffffffffffffffffffffffffffffff16146105b9576105b8610734565b5b62093a8081111561060157806040517fa253bc700000000000000000000000000000000000000000000000000000000081526004016105f89190610b07565b60405180910390fd5b73__$ea2bfd386ba84ea2bcf9bcd47bb5c25cd7$__63f2f65960826040518263ffffffff1660e01b81526004016106389190610c97565b5f6040518083038186803b15801561064e575f5ffd5b505af4158015610660573d5f5f3e3d5ffd5b5050505061066c6106bc565b73ffffffffffffffffffffffffffffffffffffffff167fbb4e769c8bec1bf5b9cbb403afd41b6826b52ba0d1ad04b1d4a6f06eae96b563826040516106b19190610b07565b60405180910390a250565b5f33905090565b5f73__$ea2bfd386ba84ea2bcf9bcd47bb5c25cd7$__633e2fe1496040518163ffffffff1660e01b8152600401602060405180830381865af415801561070b573d5f5f3e3d5ffd5b505050506040513d601f19601f8201168201806040525081019061072f9190610cc4565b905090565b61073c6106bc565b6040517f0504a20d00000000000000000000000000000000000000000000000000000000815260040161076f9190610a7d565b60405180910390fd5b5f73__$ea2bfd386ba84ea2bcf9bcd47bb5c25cd7$__6361a9ab766040518163ffffffff1660e01b8152600401602060405180830381865af41580156107c0573d5f5f3e3d5ffd5b505050506040513d601f19601f820116820180604052508101906107e49190610d03565b905090565b5f73__$ea2bfd386ba84ea2bcf9bcd47bb5c25cd7$__63893d20e86040518163ffffffff1660e01b8152600401602060405180830381865af4158015610831573d5f5f3e3d5ffd5b505050506040513d601f19601f820116820180604052508101906108559190610cc4565b905090565b6108626106bc565b73ffffffffffffffffffffffffffffffffffffffff166108806107e9565b73ffffffffffffffffffffffffffffffffffffffff16146108a4576108a3610734565b5b5f73ffffffffffffffffffffffffffffffffffffffff168173ffffffffffffffffffffffffffffffffffffffff1603610909576040517f7138356f00000000000000000000000000000000000000000000000000000000815260040160405180910390fd5b50565b6109146106bc565b73ffffffffffffffffffffffffffffffffffffffff166109326107e9565b73ffffffffffffffffffffffffffffffffffffffff161461095657610955610734565b5b73__$ea2bfd386ba84ea2bcf9bcd47bb5c25cd7$__63fdb0afee6109786109cd565b426109839190610d5b565b6040518263ffffffff1660e01b815260040161099f9190610c97565b5f6040518083038186803b1580156109b5575f5ffd5b505af41580156109c7573d5f5f3e3d5ffd5b50505050565b5f73__$ea2bfd386ba84ea2bcf9bcd47bb5c25cd7$__63dbd183886040518163ffffffff1660e01b8152600401602060405180830381865af4158015610a15573d5f5f3e3d5ffd5b505050506040513d601f19601f82011682018060405250810190610a399190610d03565b905090565b5f73ffffffffffffffffffffffffffffffffffffffff82169050919050565b5f610a6782610a3e565b9050919050565b610a7781610a5d565b82525050565b5f602082019050610a905f830184610a6e565b92915050565b5f5ffd5b610aa381610a5d565b8114610aad575f5ffd5b50565b5f81359050610abe81610a9a565b92915050565b5f60208284031215610ad957610ad8610a96565b5b5f610ae684828501610ab0565b91505092915050565b5f819050919050565b610b0181610aef565b82525050565b5f602082019050610b1a5f830184610af8565b92915050565b5f81519050919050565b5f82825260208201905092915050565b8281835e5f83830152505050565b5f601f19601f8301169050919050565b5f610b6282610b20565b610b6c8185610b2a565b9350610b7c818560208601610b3a565b610b8581610b48565b840191505092915050565b5f6020820190508181035f830152610ba88184610b58565b905092915050565b610bb981610aef565b8114610bc3575f5ffd5b50565b5f81359050610bd481610bb0565b92915050565b5f60208284031215610bef57610bee610a96565b5b5f610bfc84828501610bc6565b91505092915050565b610c0e81610a5d565b82525050565b5f602082019050610c275f830184610c05565b92915050565b5f819050919050565b5f819050919050565b5f610c59610c54610c4f84610c2d565b610c36565b610aef565b9050919050565b610c6981610c3f565b82525050565b5f602082019050610c825f830184610c60565b92915050565b610c9181610aef565b82525050565b5f602082019050610caa5f830184610c88565b92915050565b5f81519050610cbe81610a9a565b92915050565b5f60208284031215610cd957610cd8610a96565b5b5f610ce684828501610cb0565b91505092915050565b5f81519050610cfd81610bb0565b92915050565b5f60208284031215610d1857610d17610a96565b5b5f610d2584828501610cef565b91505092915050565b7f4e487b71000000000000000000000000000000000000000000000000000000005f52601160045260245ffd5b5f610d6582610aef565b9150610d7083610aef565b9250828201905080821115610d8857610d87610d2e565b5b9291505056fea2646970667358221220669ed0a1167e964cd804d1b6e46a60b98360df3e5caaf1add60dd3c9d37238df64736f6c634300081e0033",
					"opcodes": "PUSH1 0xA0 PUSH1 0x40 MSTORE PUSH2 0x16 PUSH1 0x1 PUSH0 PUSH0 PUSH2 0x103 PUSH1 0x20 SHL PUSH1 0x20 SHR JUMP JUMPDEST PUSH1 0x80 SWAP1 DUP2 MSTORE POP CALLVALUE DUP1 ISZERO PUSH2 0x27 JUMPI PUSH0 PUSH0 REVERT JUMPDEST POP PUSH20 0x0 PUSH4 0x592BD705 PUSH2 0x50 PUSH2 0x12C PUSH1 0x20 SHL PUSH1 0x20 SHR JUMP JUMPDEST PUSH1 0x40 MLOAD DUP3 PUSH4 0xFFFFFFFF AND PUSH1 0xE0 SHL DUP2 MSTORE PUSH1 0x4 ADD PUSH2 0x6C SWAP2 SWAP1 PUSH2 0x172 JUMP JUMPDEST PUSH0 PUSH1 0x40 MLOAD DUP1 DUP4 SUB DUP2 DUP7 DUP1 EXTCODESIZE ISZERO DUP1 ISZERO PUSH2 0x82 JUMPI PUSH0 PUSH0 REVERT JUMPDEST POP GAS DELEGATECALL ISZERO DUP1 ISZERO PUSH2 0x94 JUMPI RETURNDATASIZE PUSH0 PUSH0 RETURNDATACOPY RETURNDATASIZE PUSH0 REVERT JUMPDEST POP POP POP POP PUSH20 0x0 PUSH4 0xF2F65960 PUSH3 0x15180 PUSH1 0x40 MLOAD DUP3 PUSH4 0xFFFFFFFF AND PUSH1 0xE0 SHL DUP2 MSTORE PUSH1 0x4 ADD PUSH2 0xD2 SWAP2 SWAP1 PUSH2 0x1A3 JUMP JUMPDEST PUSH0 PUSH1 0x40 MLOAD DUP1 DUP4 SUB DUP2 DUP7 DUP1 EXTCODESIZE ISZERO DUP1 ISZERO PUSH2 0xE8 JUMPI PUSH0 PUSH0 REVERT JUMPDEST POP GAS DELEGATECALL ISZERO DUP1 ISZERO PUSH2 0xFA JUMPI RETURNDATASIZE PUSH0 PUSH0 RETURNDATACOPY RETURNDATASIZE PUSH0 REVERT JUMPDEST POP POP POP POP PUSH2 0x1BC JUMP JUMPDEST PUSH0 DUP2 PUSH4 0xFFFFFFFF AND PUSH1 0x20 DUP5 PUSH4 0xFFFFFFFF AND SWAP1 SHL PUSH1 0x40 DUP7 PUSH4 0xFFFFFFFF AND SWAP1 SHL OR OR SWAP1 POP SWAP4 SWAP3 POP POP POP JUMP JUMPDEST PUSH0 CALLER SWAP1 POP SWAP1 JUMP JUMPDEST PUSH0 PUSH20 0xFFFFFFFFFFFFFFFFFFFFFFFFFFFFFFFFFFFFFFFF DUP3 AND SWAP1 POP SWAP2 SWAP1 POP JUMP JUMPDEST PUSH0 PUSH2 0x15C DUP3 PUSH2 0x133 JUMP JUMPDEST SWAP1 POP SWAP2 SWAP1 POP JUMP JUMPDEST PUSH2 0x16C DUP2 PUSH2 0x152 JUMP JUMPDEST DUP3 MSTORE POP POP JUMP JUMPDEST PUSH0 PUSH1 0x20 DUP3 ADD SWAP1 POP PUSH2 0x185 PUSH0 DUP4 ADD DUP5 PUSH2 0x163 JUMP JUMPDEST SWAP3 SWAP2 POP POP JUMP JUMPDEST PUSH0 DUP2 SWAP1 POP SWAP2 SWAP1 POP JUMP JUMPDEST PUSH2 0x19D DUP2 PUSH2 0x18B JUMP JUMPDEST DUP3 MSTORE POP POP JUMP JUMPDEST PUSH0 PUSH1 0x20 DUP3 ADD SWAP1 POP PUSH2 0x1B6 PUSH0 DUP4 ADD DUP5 PUSH2 0x194 JUMP JUMPDEST SWAP3 SWAP2 POP POP JUMP JUMPDEST PUSH1 0x80 MLOAD PUSH2 0xDC4 PUSH2 0x1D4 PUSH0 CODECOPY PUSH0 PUSH2 0x4F8 ADD MSTORE PUSH2 0xDC4 PUSH0 RETURN INVALID PUSH1 0x80 PUSH1 0x40 MSTORE CALLVALUE DUP1 ISZERO PUSH2 0xF JUMPI PUSH0 PUSH0 REVERT JUMPDEST POP PUSH1 0x4 CALLDATASIZE LT PUSH2 0x91 JUMPI PUSH0 CALLDATALOAD PUSH1 0xE0 SHR DUP1 PUSH4 0x81ED9808 GT PUSH2 0x64 JUMPI DUP1 PUSH4 0x81ED9808 EQ PUSH2 0xF7 JUMPI DUP1 PUSH4 0x893D20E8 EQ PUSH2 0x115 JUMPI DUP1 PUSH4 0x9B865B43 EQ PUSH2 0x133 JUMPI DUP1 PUSH4 0xDBD18388 EQ PUSH2 0x151 JUMPI DUP1 PUSH4 0xF2F65960 EQ PUSH2 0x16F JUMPI PUSH2 0x91 JUMP JUMPDEST DUP1 PUSH4 0x18E3E87F EQ PUSH2 0x95 JUMPI DUP1 PUSH4 0x3E2FE149 EQ PUSH2 0x9F JUMPI DUP1 PUSH4 0x4FB2E45D EQ PUSH2 0xBD JUMPI DUP1 PUSH4 0x61A9AB76 EQ PUSH2 0xD9 JUMPI JUMPDEST PUSH0 PUSH0 REVERT JUMPDEST PUSH2 0x9D PUSH2 0x18B JUMP JUMPDEST STOP JUMPDEST PUSH2 0xA7 PUSH2 0x3AD JUMP JUMPDEST PUSH1 0x40 MLOAD PUSH2 0xB4 SWAP2 SWAP1 PUSH2 0xA7D JUMP JUMPDEST PUSH1 0x40 MLOAD DUP1 SWAP2 SUB SWAP1 RETURN JUMPDEST PUSH2 0xD7 PUSH1 0x4 DUP1 CALLDATASIZE SUB DUP2 ADD SWAP1 PUSH2 0xD2 SWAP2 SWAP1 PUSH2 0xAC4 JUMP JUMPDEST PUSH2 0x3BB JUMP JUMPDEST STOP JUMPDEST PUSH2 0xE1 PUSH2 0x4E8 JUMP JUMPDEST PUSH1 0x40 MLOAD PUSH2 0xEE SWAP2 SWAP1 PUSH2 0xB07 JUMP JUMPDEST PUSH1 0x40 MLOAD DUP1 SWAP2 SUB SWAP1 RETURN JUMPDEST PUSH2 0xFF PUSH2 0x4F6 JUMP JUMPDEST PUSH1 0x40 MLOAD PUSH2 0x10C SWAP2 SWAP1 PUSH2 0xB07 JUMP JUMPDEST PUSH1 0x40 MLOAD DUP1 SWAP2 SUB SWAP1 RETURN JUMPDEST PUSH2 0x11D PUSH2 0x51A JUMP JUMPDEST PUSH1 0x40 MLOAD PUSH2 0x12A SWAP2 SWAP1 PUSH2 0xA7D JUMP JUMPDEST PUSH1 0x40 MLOAD DUP1 SWAP2 SUB SWAP1 RETURN JUMPDEST PUSH2 0x13B PUSH2 0x528 JUMP JUMPDEST PUSH1 0x40 MLOAD PUSH2 0x148 SWAP2 SWAP1 PUSH2 0xB90 JUMP JUMPDEST PUSH1 0x40 MLOAD DUP1 SWAP2 SUB SWAP1 RETURN JUMPDEST PUSH2 0x159 PUSH2 0x561 JUMP JUMPDEST PUSH1 0x40 MLOAD PUSH2 0x166 SWAP2 SWAP1 PUSH2 0xB07 JUMP JUMPDEST PUSH1 0x40 MLOAD DUP1 SWAP2 SUB SWAP1 RETURN JUMPDEST PUSH2 0x189 PUSH1 0x4 DUP1 CALLDATASIZE SUB DUP2 ADD SWAP1 PUSH2 0x184 SWAP2 SWAP1 PUSH2 0xBDA JUMP JUMPDEST PUSH2 0x56F JUMP JUMPDEST STOP JUMPDEST PUSH2 0x193 PUSH2 0x6BC JUMP JUMPDEST PUSH20 0xFFFFFFFFFFFFFFFFFFFFFFFFFFFFFFFFFFFFFFFF AND PUSH2 0x1B1 PUSH2 0x6C3 JUMP JUMPDEST PUSH20 0xFFFFFFFFFFFFFFFFFFFFFFFFFFFFFFFFFFFFFFFF AND EQ PUSH2 0x1D5 JUMPI PUSH2 0x1D4 PUSH2 0x734 JUMP JUMPDEST JUMPDEST TIMESTAMP PUSH2 0x1DE PUSH2 0x778 JUMP JUMPDEST LT ISZERO PUSH2 0x228 JUMPI PUSH2 0x1EC PUSH2 0x6BC JUMP JUMPDEST PUSH1 0x40 MLOAD PUSH32 0xEFABBDC600000000000000000000000000000000000000000000000000000000 DUP2 MSTORE PUSH1 0x4 ADD PUSH2 0x21F SWAP2 SWAP1 PUSH2 0xA7D JUMP JUMPDEST PUSH1 0x40 MLOAD DUP1 SWAP2 SUB SWAP1 REVERT JUMPDEST PUSH0 PUSH2 0x231 PUSH2 0x6C3 JUMP JUMPDEST SWAP1 POP PUSH20 0x0 PUSH4 0x592BD705 DUP3 PUSH1 0x40 MLOAD DUP3 PUSH4 0xFFFFFFFF AND PUSH1 0xE0 SHL DUP2 MSTORE PUSH1 0x4 ADD PUSH2 0x26A SWAP2 SWAP1 PUSH2 0xC14 JUMP JUMPDEST PUSH0 PUSH1 0x40 MLOAD DUP1 DUP4 SUB DUP2 DUP7 DUP1 EXTCODESIZE ISZERO DUP1 ISZERO PUSH2 0x280 JUMPI PUSH0 PUSH0 REVERT JUMPDEST POP GAS DELEGATECALL ISZERO DUP1 ISZERO PUSH2 0x292 JUMPI RETURNDATASIZE PUSH0 PUSH0 RETURNDATACOPY RETURNDATASIZE PUSH0 REVERT JUMPDEST POP POP POP POP PUSH20 0x0 PUSH4 0x34B8160C PUSH0 PUSH1 0x40 MLOAD DUP3 PUSH4 0xFFFFFFFF AND PUSH1 0xE0 SHL DUP2 MSTORE PUSH1 0x4 ADD PUSH2 0x2CD SWAP2 SWAP1 PUSH2 0xC14 JUMP JUMPDEST PUSH0 PUSH1 0x40 MLOAD DUP1 DUP4 SUB DUP2 DUP7 DUP1 EXTCODESIZE ISZERO DUP1 ISZERO PUSH2 0x2E3 JUMPI PUSH0 PUSH0 REVERT JUMPDEST POP GAS DELEGATECALL ISZERO DUP1 ISZERO PUSH2 0x2F5 JUMPI RETURNDATASIZE PUSH0 PUSH0 RETURNDATACOPY RETURNDATASIZE PUSH0 REVERT JUMPDEST POP POP POP POP PUSH20 0x0 PUSH4 0xFDB0AFEE PUSH0 PUSH1 0x40 MLOAD DUP3 PUSH4 0xFFFFFFFF AND PUSH1 0xE0 SHL DUP2 MSTORE PUSH1 0x4 ADD PUSH2 0x330 SWAP2 SWAP1 PUSH2 0xC6F JUMP JUMPDEST PUSH0 PUSH1 0x40 MLOAD DUP1 DUP4 SUB DUP2 DUP7 DUP1 EXTCODESIZE ISZERO DUP1 ISZERO PUSH2 0x346 JUMPI PUSH0 PUSH0 REVERT JUMPDEST POP GAS DELEGATECALL ISZERO DUP1 ISZERO PUSH2 0x358 JUMPI RETURNDATASIZE PUSH0 PUSH0 RETURNDATACOPY RETURNDATASIZE PUSH0 REVERT JUMPDEST POP POP POP POP DUP1 PUSH20 0xFFFFFFFFFFFFFFFFFFFFFFFFFFFFFFFFFFFFFFFF AND PUSH32 0xBA63841A7533A3A83852E6BD791045210D9E961D32EC380162BCD5D1D6FE1212 TIMESTAMP PUSH1 0x40 MLOAD PUSH2 0x3A2 SWAP2 SWAP1 PUSH2 0xB07 JUMP JUMPDEST PUSH1 0x40 MLOAD DUP1 SWAP2 SUB SWAP1 LOG2 POP JUMP JUMPDEST PUSH0 PUSH2 0x3B6 PUSH2 0x6C3 JUMP JUMPDEST SWAP1 POP SWAP1 JUMP JUMPDEST PUSH2 0x3C3 PUSH2 0x6BC JUMP JUMPDEST PUSH20 0xFFFFFFFFFFFFFFFFFFFFFFFFFFFFFFFFFFFFFFFF AND PUSH2 0x3E1 PUSH2 0x7E9 JUMP JUMPDEST PUSH20 0xFFFFFFFFFFFFFFFFFFFFFFFFFFFFFFFFFFFFFFFF AND EQ PUSH2 0x405 JUMPI PUSH2 0x404 PUSH2 0x734 JUMP JUMPDEST JUMPDEST PUSH2 0x40E DUP2 PUSH2 0x85A JUMP JUMPDEST PUSH20 0x0 PUSH4 0x34B8160C DUP3 PUSH1 0x40 MLOAD DUP3 PUSH4 0xFFFFFFFF AND PUSH1 0xE0 SHL DUP2 MSTORE PUSH1 0x4 ADD PUSH2 0x445 SWAP2 SWAP1 PUSH2 0xC14 JUMP JUMPDEST PUSH0 PUSH1 0x40 MLOAD DUP1 DUP4 SUB DUP2 DUP7 DUP1 EXTCODESIZE ISZERO DUP1 ISZERO PUSH2 0x45B JUMPI PUSH0 PUSH0 REVERT JUMPDEST POP GAS DELEGATECALL ISZERO DUP1 ISZERO PUSH2 0x46D JUMPI RETURNDATASIZE PUSH0 PUSH0 RETURNDATACOPY RETURNDATASIZE PUSH0 REVERT JUMPDEST POP POP POP POP PUSH2 0x479 PUSH2 0x90C JUMP JUMPDEST DUP1 PUSH20 0xFFFFFFFFFFFFFFFFFFFFFFFFFFFFFFFFFFFFFFFF AND PUSH2 0x498 PUSH2 0x6BC JUMP JUMPDEST PUSH20 0xFFFFFFFFFFFFFFFFFFFFFFFFFFFFFFFFFFFFFFFF AND PUSH32 0x8DBB839C92A52A1B41B96C2376318A45B974066DF935981E08419BD7A0AE1500 TIMESTAMP PUSH1 0x40 MLOAD PUSH2 0x4DD SWAP2 SWAP1 PUSH2 0xB07 JUMP JUMPDEST PUSH1 0x40 MLOAD DUP1 SWAP2 SUB SWAP1 LOG3 POP JUMP JUMPDEST PUSH0 PUSH2 0x4F1 PUSH2 0x778 JUMP JUMPDEST SWAP1 POP SWAP1 JUMP JUMPDEST PUSH32 0x0 DUP2 JUMP JUMPDEST PUSH0 PUSH2 0x523 PUSH2 0x7E9 JUMP JUMPDEST SWAP1 POP SWAP1 JUMP JUMPDEST PUSH1 0x40 MLOAD DUP1 PUSH1 0x40 ADD PUSH1 0x40 MSTORE DUP1 PUSH1 0x7 DUP2 MSTORE PUSH1 0x20 ADD PUSH32 0x4F776E61626C6500000000000000000000000000000000000000000000000000 DUP2 MSTORE POP DUP2 JUMP JUMPDEST PUSH0 PUSH2 0x56A PUSH2 0x9CD JUMP JUMPDEST SWAP1 POP SWAP1 JUMP JUMPDEST PUSH2 0x577 PUSH2 0x6BC JUMP JUMPDEST PUSH20 0xFFFFFFFFFFFFFFFFFFFFFFFFFFFFFFFFFFFFFFFF AND PUSH2 0x595 PUSH2 0x7E9 JUMP JUMPDEST PUSH20 0xFFFFFFFFFFFFFFFFFFFFFFFFFFFFFFFFFFFFFFFF AND EQ PUSH2 0x5B9 JUMPI PUSH2 0x5B8 PUSH2 0x734 JUMP JUMPDEST JUMPDEST PUSH3 0x93A80 DUP2 GT ISZERO PUSH2 0x601 JUMPI DUP1 PUSH1 0x40 MLOAD PUSH32 0xA253BC7000000000000000000000000000000000000000000000000000000000 DUP2 MSTORE PUSH1 0x4 ADD PUSH2 0x5F8 SWAP2 SWAP1 PUSH2 0xB07 JUMP JUMPDEST PUSH1 0x40 MLOAD DUP1 SWAP2 SUB SWAP1 REVERT JUMPDEST PUSH20 0x0 PUSH4 0xF2F65960 DUP3 PUSH1 0x40 MLOAD DUP3 PUSH4 0xFFFFFFFF AND PUSH1 0xE0 SHL DUP2 MSTORE PUSH1 0x4 ADD PUSH2 0x638 SWAP2 SWAP1 PUSH2 0xC97 JUMP JUMPDEST PUSH0 PUSH1 0x40 MLOAD DUP1 DUP4 SUB DUP2 DUP7 DUP1 EXTCODESIZE ISZERO DUP1 ISZERO PUSH2 0x64E JUMPI PUSH0 PUSH0 REVERT JUMPDEST POP GAS DELEGATECALL ISZERO DUP1 ISZERO PUSH2 0x660 JUMPI RETURNDATASIZE PUSH0 PUSH0 RETURNDATACOPY RETURNDATASIZE PUSH0 REVERT JUMPDEST POP POP POP POP PUSH2 0x66C PUSH2 0x6BC JUMP JUMPDEST PUSH20 0xFFFFFFFFFFFFFFFFFFFFFFFFFFFFFFFFFFFFFFFF AND PUSH32 0xBB4E769C8BEC1BF5B9CBB403AFD41B6826B52BA0D1AD04B1D4A6F06EAE96B563 DUP3 PUSH1 0x40 MLOAD PUSH2 0x6B1 SWAP2 SWAP1 PUSH2 0xB07 JUMP JUMPDEST PUSH1 0x40 MLOAD DUP1 SWAP2 SUB SWAP1 LOG2 POP JUMP JUMPDEST PUSH0 CALLER SWAP1 POP SWAP1 JUMP JUMPDEST PUSH0 PUSH20 0x0 PUSH4 0x3E2FE149 PUSH1 0x40 MLOAD DUP2 PUSH4 0xFFFFFFFF AND PUSH1 0xE0 SHL DUP2 MSTORE PUSH1 0x4 ADD PUSH1 0x20 PUSH1 0x40 MLOAD DUP1 DUP4 SUB DUP2 DUP7 GAS DELEGATECALL ISZERO DUP1 ISZERO PUSH2 0x70B JUMPI RETURNDATASIZE PUSH0 PUSH0 RETURNDATACOPY RETURNDATASIZE PUSH0 REVERT JUMPDEST POP POP POP POP PUSH1 0x40 MLOAD RETURNDATASIZE PUSH1 0x1F NOT PUSH1 0x1F DUP3 ADD AND DUP3 ADD DUP1 PUSH1 0x40 MSTORE POP DUP2 ADD SWAP1 PUSH2 0x72F SWAP2 SWAP1 PUSH2 0xCC4 JUMP JUMPDEST SWAP1 POP SWAP1 JUMP JUMPDEST PUSH2 0x73C PUSH2 0x6BC JUMP JUMPDEST PUSH1 0x40 MLOAD PUSH32 0x504A20D00000000000000000000000000000000000000000000000000000000 DUP2 MSTORE PUSH1 0x4 ADD PUSH2 0x76F SWAP2 SWAP1 PUSH2 0xA7D JUMP JUMPDEST PUSH1 0x40 MLOAD DUP1 SWAP2 SUB SWAP1 REVERT JUMPDEST PUSH0 PUSH20 0x0 PUSH4 0x61A9AB76 PUSH1 0x40 MLOAD DUP2 PUSH4 0xFFFFFFFF AND PUSH1 0xE0 SHL DUP2 MSTORE PUSH1 0x4 ADD PUSH1 0x20 PUSH1 0x40 MLOAD DUP1 DUP4 SUB DUP2 DUP7 GAS DELEGATECALL ISZERO DUP1 ISZERO PUSH2 0x7C0 JUMPI RETURNDATASIZE PUSH0 PUSH0 RETURNDATACOPY RETURNDATASIZE PUSH0 REVERT JUMPDEST POP POP POP POP PUSH1 0x40 MLOAD RETURNDATASIZE PUSH1 0x1F NOT PUSH1 0x1F DUP3 ADD AND DUP3 ADD DUP1 PUSH1 0x40 MSTORE POP DUP2 ADD SWAP1 PUSH2 0x7E4 SWAP2 SWAP1 PUSH2 0xD03 JUMP JUMPDEST SWAP1 POP SWAP1 JUMP JUMPDEST PUSH0 PUSH20 0x0 PUSH4 0x893D20E8 PUSH1 0x40 MLOAD DUP2 PUSH4 0xFFFFFFFF AND PUSH1 0xE0 SHL DUP2 MSTORE PUSH1 0x4 ADD PUSH1 0x20 PUSH1 0x40 MLOAD DUP1 DUP4 SUB DUP2 DUP7 GAS DELEGATECALL ISZERO DUP1 ISZERO PUSH2 0x831 JUMPI RETURNDATASIZE PUSH0 PUSH0 RETURNDATACOPY RETURNDATASIZE PUSH0 REVERT JUMPDEST POP POP POP POP PUSH1 0x40 MLOAD RETURNDATASIZE PUSH1 0x1F NOT PUSH1 0x1F DUP3 ADD AND DUP3 ADD DUP1 PUSH1 0x40 MSTORE POP DUP2 ADD SWAP1 PUSH2 0x855 SWAP2 SWAP1 PUSH2 0xCC4 JUMP JUMPDEST SWAP1 POP SWAP1 JUMP JUMPDEST PUSH2 0x862 PUSH2 0x6BC JUMP JUMPDEST PUSH20 0xFFFFFFFFFFFFFFFFFFFFFFFFFFFFFFFFFFFFFFFF AND PUSH2 0x880 PUSH2 0x7E9 JUMP JUMPDEST PUSH20 0xFFFFFFFFFFFFFFFFFFFFFFFFFFFFFFFFFFFFFFFF AND EQ PUSH2 0x8A4 JUMPI PUSH2 0x8A3 PUSH2 0x734 JUMP JUMPDEST JUMPDEST PUSH0 PUSH20 0xFFFFFFFFFFFFFFFFFFFFFFFFFFFFFFFFFFFFFFFF AND DUP2 PUSH20 0xFFFFFFFFFFFFFFFFFFFFFFFFFFFFFFFFFFFFFFFF AND SUB PUSH2 0x909 JUMPI PUSH1 0x40 MLOAD PUSH32 0x7138356F00000000000000000000000000000000000000000000000000000000 DUP2 MSTORE PUSH1 0x4 ADD PUSH1 0x40 MLOAD DUP1 SWAP2 SUB SWAP1 REVERT JUMPDEST POP JUMP JUMPDEST PUSH2 0x914 PUSH2 0x6BC JUMP JUMPDEST PUSH20 0xFFFFFFFFFFFFFFFFFFFFFFFFFFFFFFFFFFFFFFFF AND PUSH2 0x932 PUSH2 0x7E9 JUMP JUMPDEST PUSH20 0xFFFFFFFFFFFFFFFFFFFFFFFFFFFFFFFFFFFFFFFF AND EQ PUSH2 0x956 JUMPI PUSH2 0x955 PUSH2 0x734 JUMP JUMPDEST JUMPDEST PUSH20 0x0 PUSH4 0xFDB0AFEE PUSH2 0x978 PUSH2 0x9CD JUMP JUMPDEST TIMESTAMP PUSH2 0x983 SWAP2 SWAP1 PUSH2 0xD5B JUMP JUMPDEST PUSH1 0x40 MLOAD DUP3 PUSH4 0xFFFFFFFF AND PUSH1 0xE0 SHL DUP2 MSTORE PUSH1 0x4 ADD PUSH2 0x99F SWAP2 SWAP1 PUSH2 0xC97 JUMP JUMPDEST PUSH0 PUSH1 0x40 MLOAD DUP1 DUP4 SUB DUP2 DUP7 DUP1 EXTCODESIZE ISZERO DUP1 ISZERO PUSH2 0x9B5 JUMPI PUSH0 PUSH0 REVERT JUMPDEST POP GAS DELEGATECALL ISZERO DUP1 ISZERO PUSH2 0x9C7 JUMPI RETURNDATASIZE PUSH0 PUSH0 RETURNDATACOPY RETURNDATASIZE PUSH0 REVERT JUMPDEST POP POP POP POP JUMP JUMPDEST PUSH0 PUSH20 0x0 PUSH4 0xDBD18388 PUSH1 0x40 MLOAD DUP2 PUSH4 0xFFFFFFFF AND PUSH1 0xE0 SHL DUP2 MSTORE PUSH1 0x4 ADD PUSH1 0x20 PUSH1 0x40 MLOAD DUP1 DUP4 SUB DUP2 DUP7 GAS DELEGATECALL ISZERO DUP1 ISZERO PUSH2 0xA15 JUMPI RETURNDATASIZE PUSH0 PUSH0 RETURNDATACOPY RETURNDATASIZE PUSH0 REVERT JUMPDEST POP POP POP POP PUSH1 0x40 MLOAD RETURNDATASIZE PUSH1 0x1F NOT PUSH1 0x1F DUP3 ADD AND DUP3 ADD DUP1 PUSH1 0x40 MSTORE POP DUP2 ADD SWAP1 PUSH2 0xA39 SWAP2 SWAP1 PUSH2 0xD03 JUMP JUMPDEST SWAP1 POP SWAP1 JUMP JUMPDEST PUSH0 PUSH20 0xFFFFFFFFFFFFFFFFFFFFFFFFFFFFFFFFFFFFFFFF DUP3 AND SWAP1 POP SWAP2 SWAP1 POP JUMP JUMPDEST PUSH0 PUSH2 0xA67 DUP3 PUSH2 0xA3E JUMP JUMPDEST SWAP1 POP SWAP2 SWAP1 POP JUMP JUMPDEST PUSH2 0xA77 DUP2 PUSH2 0xA5D JUMP JUMPDEST DUP3 MSTORE POP POP JUMP JUMPDEST PUSH0 PUSH1 0x20 DUP3 ADD SWAP1 POP PUSH2 0xA90 PUSH0 DUP4 ADD DUP5 PUSH2 0xA6E JUMP JUMPDEST SWAP3 SWAP2 POP POP JUMP JUMPDEST PUSH0 PUSH0 REVERT JUMPDEST PUSH2 0xAA3 DUP2 PUSH2 0xA5D JUMP JUMPDEST DUP2 EQ PUSH2 0xAAD JUMPI PUSH0 PUSH0 REVERT JUMPDEST POP JUMP JUMPDEST PUSH0 DUP2 CALLDATALOAD SWAP1 POP PUSH2 0xABE DUP2 PUSH2 0xA9A JUMP JUMPDEST SWAP3 SWAP2 POP POP JUMP JUMPDEST PUSH0 PUSH1 0x20 DUP3 DUP5 SUB SLT ISZERO PUSH2 0xAD9 JUMPI PUSH2 0xAD8 PUSH2 0xA96 JUMP JUMPDEST JUMPDEST PUSH0 PUSH2 0xAE6 DUP5 DUP3 DUP6 ADD PUSH2 0xAB0 JUMP JUMPDEST SWAP2 POP POP SWAP3 SWAP2 POP POP JUMP JUMPDEST PUSH0 DUP2 SWAP1 POP SWAP2 SWAP1 POP JUMP JUMPDEST PUSH2 0xB01 DUP2 PUSH2 0xAEF JUMP JUMPDEST DUP3 MSTORE POP POP JUMP JUMPDEST PUSH0 PUSH1 0x20 DUP3 ADD SWAP1 POP PUSH2 0xB1A PUSH0 DUP4 ADD DUP5 PUSH2 0xAF8 JUMP JUMPDEST SWAP3 SWAP2 POP POP JUMP JUMPDEST PUSH0 DUP2 MLOAD SWAP1 POP SWAP2 SWAP1 POP JUMP JUMPDEST PUSH0 DUP3 DUP3 MSTORE PUSH1 0x20 DUP3 ADD SWAP1 POP SWAP3 SWAP2 POP POP JUMP JUMPDEST DUP3 DUP2 DUP4 MCOPY PUSH0 DUP4 DUP4 ADD MSTORE POP POP POP JUMP JUMPDEST PUSH0 PUSH1 0x1F NOT PUSH1 0x1F DUP4 ADD AND SWAP1 POP SWAP2 SWAP1 POP JUMP JUMPDEST PUSH0 PUSH2 0xB62 DUP3 PUSH2 0xB20 JUMP JUMPDEST PUSH2 0xB6C DUP2 DUP6 PUSH2 0xB2A JUMP JUMPDEST SWAP4 POP PUSH2 0xB7C DUP2 DUP6 PUSH1 0x20 DUP7 ADD PUSH2 0xB3A JUMP JUMPDEST PUSH2 0xB85 DUP2 PUSH2 0xB48 JUMP JUMPDEST DUP5 ADD SWAP2 POP POP SWAP3 SWAP2 POP POP JUMP JUMPDEST PUSH0 PUSH1 0x20 DUP3 ADD SWAP1 POP DUP2 DUP2 SUB PUSH0 DUP4 ADD MSTORE PUSH2 0xBA8 DUP2 DUP5 PUSH2 0xB58 JUMP JUMPDEST SWAP1 POP SWAP3 SWAP2 POP POP JUMP JUMPDEST PUSH2 0xBB9 DUP2 PUSH2 0xAEF JUMP JUMPDEST DUP2 EQ PUSH2 0xBC3 JUMPI PUSH0 PUSH0 REVERT JUMPDEST POP JUMP JUMPDEST PUSH0 DUP2 CALLDATALOAD SWAP1 POP PUSH2 0xBD4 DUP2 PUSH2 0xBB0 JUMP JUMPDEST SWAP3 SWAP2 POP POP JUMP JUMPDEST PUSH0 PUSH1 0x20 DUP3 DUP5 SUB SLT ISZERO PUSH2 0xBEF JUMPI PUSH2 0xBEE PUSH2 0xA96 JUMP JUMPDEST JUMPDEST PUSH0 PUSH2 0xBFC DUP5 DUP3 DUP6 ADD PUSH2 0xBC6 JUMP JUMPDEST SWAP2 POP POP SWAP3 SWAP2 POP POP JUMP JUMPDEST PUSH2 0xC0E DUP2 PUSH2 0xA5D JUMP JUMPDEST DUP3 MSTORE POP POP JUMP JUMPDEST PUSH0 PUSH1 0x20 DUP3 ADD SWAP1 POP PUSH2 0xC27 PUSH0 DUP4 ADD DUP5 PUSH2 0xC05 JUMP JUMPDEST SWAP3 SWAP2 POP POP JUMP JUMPDEST PUSH0 DUP2 SWAP1 POP SWAP2 SWAP1 POP JUMP JUMPDEST PUSH0 DUP2 SWAP1 POP SWAP2 SWAP1 POP JUMP JUMPDEST PUSH0 PUSH2 0xC59 PUSH2 0xC54 PUSH2 0xC4F DUP5 PUSH2 0xC2D JUMP JUMPDEST PUSH2 0xC36 JUMP JUMPDEST PUSH2 0xAEF JUMP JUMPDEST SWAP1 POP SWAP2 SWAP1 POP JUMP JUMPDEST PUSH2 0xC69 DUP2 PUSH2 0xC3F JUMP JUMPDEST DUP3 MSTORE POP POP JUMP JUMPDEST PUSH0 PUSH1 0x20 DUP3 ADD SWAP1 POP PUSH2 0xC82 PUSH0 DUP4 ADD DUP5 PUSH2 0xC60 JUMP JUMPDEST SWAP3 SWAP2 POP POP JUMP JUMPDEST PUSH2 0xC91 DUP2 PUSH2 0xAEF JUMP JUMPDEST DUP3 MSTORE POP POP JUMP JUMPDEST PUSH0 PUSH1 0x20 DUP3 ADD SWAP1 POP PUSH2 0xCAA PUSH0 DUP4 ADD DUP5 PUSH2 0xC88 JUMP JUMPDEST SWAP3 SWAP2 POP POP JUMP JUMPDEST PUSH0 DUP2 MLOAD SWAP1 POP PUSH2 0xCBE DUP2 PUSH2 0xA9A JUMP JUMPDEST SWAP3 SWAP2 POP POP JUMP JUMPDEST PUSH0 PUSH1 0x20 DUP3 DUP5 SUB SLT ISZERO PUSH2 0xCD9 JUMPI PUSH2 0xCD8 PUSH2 0xA96 JUMP JUMPDEST JUMPDEST PUSH0 PUSH2 0xCE6 DUP5 DUP3 DUP6 ADD PUSH2 0xCB0 JUMP JUMPDEST SWAP2 POP POP SWAP3 SWAP2 POP POP JUMP JUMPDEST PUSH0 DUP2 MLOAD SWAP1 POP PUSH2 0xCFD DUP2 PUSH2 0xBB0 JUMP JUMPDEST SWAP3 SWAP2 POP POP JUMP JUMPDEST PUSH0 PUSH1 0x20 DUP3 DUP5 SUB SLT ISZERO PUSH2 0xD18 JUMPI PUSH2 0xD17 PUSH2 0xA96 JUMP JUMPDEST JUMPDEST PUSH0 PUSH2 0xD25 DUP5 DUP3 DUP6 ADD PUSH2 0xCEF JUMP JUMPDEST SWAP2 POP POP SWAP3 SWAP2 POP POP JUMP JUMPDEST PUSH32 0x4E487B7100000000000000000000000000000000000000000000000000000000 PUSH0 MSTORE PUSH1 0x11 PUSH1 0x4 MSTORE PUSH1 0x24 PUSH0 REVERT JUMPDEST PUSH0 PUSH2 0xD65 DUP3 PUSH2 0xAEF JUMP JUMPDEST SWAP2 POP PUSH2 0xD70 DUP4 PUSH2 0xAEF JUMP JUMPDEST SWAP3 POP DUP3 DUP3 ADD SWAP1 POP DUP1 DUP3 GT ISZERO PUSH2 0xD88 JUMPI PUSH2 0xD87 PUSH2 0xD2E JUMP JUMPDEST JUMPDEST SWAP3 SWAP2 POP POP JUMP INVALID LOG2 PUSH5 0x6970667358 0x22 SLT KECCAK256 PUSH7 0x9ED0A1167E964C 0xD8 DIV DATALOADN 0xB6E4 PUSH11 0x60B98360DF3E5CAAF1ADD6 0xD 0xD3 0xC9 0xD3 PUSH19 0x38DF64736F6C634300081E0033000000000000 "
				},
				"gasEstimates": {
					"creation": {
						"codeDepositCost": "704800",
						"executionCost": "infinite",
						"totalCost": "infinite"
					},
					"external": {
						"MODULE_NAME()": "infinite",
						"MODULE_VERSION()": "infinite",
						"getGracePeriod()": "infinite",
						"getNewOwner()": "infinite",
						"getOwner()": "infinite",
						"getTimestampExp()": "infinite",
						"setGracePeriod(uint256)": "infinite",
						"transferNewOwnerAccept()": "infinite",
						"transferOwner(address)": "infinite"
					},
					"internal": {
						"_accessDenied()": "infinite",
						"_checkAddress(address)": "infinite",
						"_getGracePeriod()": "infinite",
						"_getNewOwner()": "infinite",
						"_getOwner()": "infinite",
						"_getTimestampExp()": "infinite",
						"_setTimestampExp()": "infinite"
					}
				},
				"methodIdentifiers": {
					"MODULE_NAME()": "9b865b43",
					"MODULE_VERSION()": "81ed9808",
					"getGracePeriod()": "dbd18388",
					"getNewOwner()": "3e2fe149",
					"getOwner()": "893d20e8",
					"getTimestampExp()": "61a9ab76",
					"setGracePeriod(uint256)": "f2f65960",
					"transferNewOwnerAccept()": "18e3e87f",
					"transferOwner(address)": "4fb2e45d"
				}
			},
			"storageLayout": {
				"storage": [],
				"types": null
			},
			"userdoc": {
				"kind": "user",
				"methods": {},
				"notice": "Библиотека хранилища миксина Ownable*",
				"version": 1
			}
		}
	}
}