{
	"data": {
		"bytecode": {
			"linkReferences": {
				"contracts/storage/LibOwnableStorage.sol": {
					"OwnableStorage": [
						{
							"length": 20,
							"start": 642
						},
						{
							"length": 20,
							"start": 780
						},
						{
							"length": 20,
							"start": 898
						},
						{
							"length": 20,
							"start": 6095
						},
						{
							"length": 20,
							"start": 6815
						},
						{
							"length": 20,
							"start": 7140
						},
						{
							"length": 20,
							"start": 7581
						},
						{
							"length": 20,
							"start": 8052
						},
						{
							"length": 20,
							"start": 8397
						},
						{
							"length": 20,
							"start": 8839
						},
						{
							"length": 20,
							"start": 9609
						},
						{
							"length": 20,
							"start": 11486
						}
					]
				},
				"contracts/storage/LibSMEambStorage.sol": {
					"SMEambStorage": [
						{
							"length": 20,
							"start": 84
						},
						{
							"length": 20,
							"start": 187
						},
						{
							"length": 20,
							"start": 290
						},
						{
							"length": 20,
							"start": 1007
						},
						{
							"length": 20,
							"start": 1108
						},
						{
							"length": 20,
							"start": 1209
						},
						{
							"length": 20,
							"start": 1344
						},
						{
							"length": 20,
							"start": 1455
						},
						{
							"length": 20,
							"start": 1558
						},
						{
							"length": 20,
							"start": 1661
						},
						{
							"length": 20,
							"start": 1765
						},
						{
							"length": 20,
							"start": 5750
						},
						{
							"length": 20,
							"start": 5896
						},
						{
							"length": 20,
							"start": 6379
						},
						{
							"length": 20,
							"start": 6486
						},
						{
							"length": 20,
							"start": 6643
						},
						{
							"length": 20,
							"start": 7008
						},
						{
							"length": 20,
							"start": 7774
						},
						{
							"length": 20,
							"start": 7877
						},
						{
							"length": 20,
							"start": 8245
						},
						{
							"length": 20,
							"start": 8590
						},
						{
							"length": 20,
							"start": 8694
						},
						{
							"length": 20,
							"start": 9124
						},
						{
							"length": 20,
							"start": 9251
						},
						{
							"length": 20,
							"start": 9407
						},
						{
							"length": 20,
							"start": 9802
						},
						{
							"length": 20,
							"start": 9907
						},
						{
							"length": 20,
							"start": 10225
						},
						{
							"length": 20,
							"start": 10409
						},
						{
							"length": 20,
							"start": 10692
						},
						{
							"length": 20,
							"start": 10878
						},
						{
							"length": 20,
							"start": 11120
						},
						{
							"length": 20,
							"start": 11344
						},
						{
							"length": 20,
							"start": 11679
						},
						{
							"length": 20,
							"start": 11782
						},
						{
							"length": 20,
							"start": 11943
						},
						{
							"length": 20,
							"start": 12073
						},
						{
							"length": 20,
							"start": 12190
						},
						{
							"length": 20,
							"start": 12506
						},
						{
							"length": 20,
							"start": 12711
						},
						{
							"length": 20,
							"start": 13134
						},
						{
							"length": 20,
							"start": 13235
						},
						{
							"length": 20,
							"start": 13334
						},
						{
							"length": 20,
							"start": 13433
						},
						{
							"length": 20,
							"start": 13630
						},
						{
							"length": 20,
							"start": 13753
						},
						{
							"length": 20,
							"start": 13866
						},
						{
							"length": 20,
							"start": 14466
						},
						{
							"length": 20,
							"start": 14638
						},
						{
							"length": 20,
							"start": 14769
						},
						{
							"length": 20,
							"start": 15027
						},
						{
							"length": 20,
							"start": 15124
						},
						{
							"length": 20,
							"start": 15221
						},
						{
							"length": 20,
							"start": 15352
						},
						{
							"length": 20,
							"start": 15459
						},
						{
							"length": 20,
							"start": 15558
						},
						{
							"length": 20,
							"start": 15657
						},
						{
							"length": 20,
							"start": 15757
						},
						{
							"length": 20,
							"start": 15869
						},
						{
							"length": 20,
							"start": 16125
						},
						{
							"length": 20,
							"start": 16801
						},
						{
							"length": 20,
							"start": 17091
						},
						{
							"length": 20,
							"start": 17193
						},
						{
							"length": 20,
							"start": 17308
						},
						{
							"length": 20,
							"start": 17410
						},
						{
							"length": 20,
							"start": 17656
						},
						{
							"length": 20,
							"start": 17819
						},
						{
							"length": 20,
							"start": 18275
						},
						{
							"length": 20,
							"start": 18420
						},
						{
							"length": 20,
							"start": 18550
						},
						{
							"length": 20,
							"start": 18588
						},
						{
							"length": 20,
							"start": 18950
						}
					]
				}
			},
			"object": "60a06040526200001860015f806200020960201b60201c565b6080908152503480156200002a575f80fd5b50604051620062b1380380620062b18339818101604052810190620000509190620008db565b818173__$3f3f7fbeed7f8e090b258bc8e3513c9e4b$__635b43bc99836040518263ffffffff1660e01b81526004016200008b9190620009b8565b5f6040518083038186803b158015620000a2575f80fd5b505af4158015620000b5573d5f803e3d5ffd5b5050505073__$3f3f7fbeed7f8e090b258bc8e3513c9e4b$__6341bb0559826040518263ffffffff1660e01b8152600401620000f29190620009b8565b5f6040518083038186803b15801562000109575f80fd5b505af41580156200011c573d5f803e3d5ffd5b5050505073__$3f3f7fbeed7f8e090b258bc8e3513c9e4b$__63345e7b286200014a6200023260201b60201c565b6040518263ffffffff1660e01b8152600401620001689190620009f4565b5f6040518083038186803b1580156200017f575f80fd5b505af415801562000192573d5f803e3d5ffd5b50505050620001a66200023260201b60201c565b620001b66200023a60201b60201c565b1015620001d657620001d563fed8210f60e01b6200026160201b60201c565b5b505060015f81905550620001ef6200026960201b60201c565b620002018282620003ed60201b60201c565b505062000dcd565b5f8163ffffffff1660208463ffffffff16901b60408663ffffffff16901b171790509392505050565b5f6001905090565b5f7fffffffffffffffffffffffffffffffffffffffffffffffffffffffffffffffff905090565b805f5260045ffd5b5f73ffffffffffffffffffffffffffffffffffffffff1673__$ea2bfd386ba84ea2bcf9bcd47bb5c25cd7$__63893d20e86040518163ffffffff1660e01b8152600401602060405180830381865af4158015620002c8573d5f803e3d5ffd5b505050506040513d601f19601f82011682018060405250810190620002ee919062000a70565b73ffffffffffffffffffffffffffffffffffffffff1603620003eb5773__$ea2bfd386ba84ea2bcf9bcd47bb5c25cd7$__63592bd705620003346200074f60201b60201c565b6040518263ffffffff1660e01b815260040162000352919062000ab1565b5f6040518083038186803b15801562000369575f80fd5b505af41580156200037c573d5f803e3d5ffd5b5050505073__$ea2bfd386ba84ea2bcf9bcd47bb5c25cd7$__63f2f6596062093a806040518263ffffffff1660e01b8152600401620003bc919062000b16565b5f6040518083038186803b158015620003d3575f80fd5b505af4158015620003e6573d5f803e3d5ffd5b505050505b565b73__$3f3f7fbeed7f8e090b258bc8e3513c9e4b$__63a05cc5596040518163ffffffff1660e01b8152600401620004249062000bcb565b5f6040518083038186803b1580156200043b575f80fd5b505af41580156200044e573d5f803e3d5ffd5b5050505073__$3f3f7fbeed7f8e090b258bc8e3513c9e4b$__63821abc2d6040518163ffffffff1660e01b8152600401620004899062000c85565b5f6040518083038186803b158015620004a0575f80fd5b505af4158015620004b3573d5f803e3d5ffd5b5050505073__$3f3f7fbeed7f8e090b258bc8e3513c9e4b$__633802497b7fdfb96c060b2e58f09345a394fd8e994a6e7ac3539cdd256304c6e181a216752e6040518263ffffffff1660e01b815260040162000510919062000cfa565b5f6040518083038186803b15801562000527575f80fd5b505af41580156200053a573d5f803e3d5ffd5b5050505073__$3f3f7fbeed7f8e090b258bc8e3513c9e4b$__6339b37ab067c93a592cfb2a00006040518263ffffffff1660e01b81526004016200057f919062000d56565b5f6040518083038186803b15801562000596575f80fd5b505af4158015620005a9573d5f803e3d5ffd5b5050505073__$3f3f7fbeed7f8e090b258bc8e3513c9e4b$__635b43bc99836040518263ffffffff1660e01b8152600401620005e69190620009b8565b5f6040518083038186803b158015620005fd575f80fd5b505af415801562000610573d5f803e3d5ffd5b5050505073__$3f3f7fbeed7f8e090b258bc8e3513c9e4b$__6341bb0559826040518263ffffffff1660e01b81526004016200064d9190620009b8565b5f6040518083038186803b15801562000664575f80fd5b505af415801562000677573d5f803e3d5ffd5b5050505073__$3f3f7fbeed7f8e090b258bc8e3513c9e4b$__63345e7b2860016040518263ffffffff1660e01b8152600401620006b5919062000db2565b5f6040518083038186803b158015620006cc575f80fd5b505af4158015620006df573d5f803e3d5ffd5b5050505073__$3f3f7fbeed7f8e090b258bc8e3513c9e4b$__6332b07b4360016040518263ffffffff1660e01b81526004016200071d919062000db2565b5f6040518083038186803b15801562000734575f80fd5b505af415801562000747573d5f803e3d5ffd5b505050505050565b5f33905090565b5f604051905090565b5f80fd5b5f80fd5b5f80fd5b5f80fd5b5f601f19601f8301169050919050565b7f4e487b71000000000000000000000000000000000000000000000000000000005f52604160045260245ffd5b620007b7826200076f565b810181811067ffffffffffffffff82111715620007d957620007d86200077f565b5b80604052505050565b5f620007ed62000756565b9050620007fb8282620007ac565b919050565b5f67ffffffffffffffff8211156200081d576200081c6200077f565b5b62000828826200076f565b9050602081019050919050565b5f5b838110156200085457808201518184015260208101905062000837565b5f8484015250505050565b5f620008756200086f8462000800565b620007e2565b9050828152602081018484840111156200089457620008936200076b565b5b620008a184828562000835565b509392505050565b5f82601f830112620008c057620008bf62000767565b5b8151620008d28482602086016200085f565b91505092915050565b5f8060408385031215620008f457620008f36200075f565b5b5f83015167ffffffffffffffff81111562000914576200091362000763565b5b6200092285828601620008a9565b925050602083015167ffffffffffffffff81111562000946576200094562000763565b5b6200095485828601620008a9565b9150509250929050565b5f81519050919050565b5f82825260208201905092915050565b5f62000984826200095e565b62000990818562000968565b9350620009a281856020860162000835565b620009ad816200076f565b840191505092915050565b5f6020820190508181035f830152620009d2818462000978565b905092915050565b5f819050919050565b620009ee81620009da565b82525050565b5f60208201905062000a095f830184620009e3565b92915050565b5f73ffffffffffffffffffffffffffffffffffffffff82169050919050565b5f62000a3a8262000a0f565b9050919050565b62000a4c8162000a2e565b811462000a57575f80fd5b50565b5f8151905062000a6a8162000a41565b92915050565b5f6020828403121562000a885762000a876200075f565b5b5f62000a978482850162000a5a565b91505092915050565b62000aab8162000a2e565b82525050565b5f60208201905062000ac65f83018462000aa0565b92915050565b5f819050919050565b5f819050919050565b5f62000afe62000af862000af28462000acc565b62000ad5565b620009da565b9050919050565b62000b108162000ade565b82525050565b5f60208201905062000b2b5f83018462000b05565b92915050565b7f68747470733a2f2f697066732e737765622e72752f697066732f516d62704e395f8201527f716578677a6e6b705445516d7264786e53665759434441624c6b42786d35764160208201527f4337316a7a52786f2f0000000000000000000000000000000000000000000000604082015250565b5f62000bb360498362000968565b915062000bc08262000b31565b606082019050919050565b5f6020820190508181035f83015262000be48162000ba5565b9050919050565b7f68747470733a2f2f697066732e737765622e72752f697066732f516d595262535f8201527f4d3251617a47623551486f676f64714a666f505661536962333274745570764e60208201527f6b794a4b666858552f3f66696c656e616d653d736d65616d622e6a736f6e0000604082015250565b5f62000c6d605e8362000968565b915062000c7a8262000beb565b606082019050919050565b5f6020820190508181035f83015262000c9e8162000c5f565b9050919050565b5f819050919050565b5f819050919050565b5f815f1b9050919050565b5f62000ce262000cdc62000cd68462000ca5565b62000cb7565b62000cae565b9050919050565b62000cf48162000cc2565b82525050565b5f60208201905062000d0f5f83018462000ce9565b92915050565b5f819050919050565b5f62000d3e62000d3862000d328462000d15565b62000ad5565b620009da565b9050919050565b62000d508162000d1e565b82525050565b5f60208201905062000d6b5f83018462000d45565b92915050565b5f819050919050565b5f62000d9a62000d9462000d8e8462000d71565b62000ad5565b620009da565b9050919050565b62000dac8162000d7a565b82525050565b5f60208201905062000dc75f83018462000da1565b92915050565b6080516154cb62000de65f395f6116ad01526154cb5ff3fe608060405260043610610203575f3560e01c806369fe0e2d11610117578063a125c8241161009f578063b88d4fde1161006e578063b88d4fde14610715578063c87b56dd14610731578063ddca3f431461076d578063dfbf2e6714610797578063e985e9c5146107bf57610203565b8063a125c8241461067f578063a22cb465146106a7578063ad5b1662146106cf578063b31b2e13146106f957610203565b806375794a3c116100e657806375794a3c146105ad57806381ed9808146105d757806390507c781461060157806395d89b411461062b5780639b865b431461065557610203565b806369fe0e2d146104f75780636c0360eb1461051f5780637029144c1461054957806370a082311461057157610203565b806323b872dd1161019a57806349e0f9801161016957806349e0f980146103f35780634bca8aa31461041b5780634f558e791461045757806355f804b3146104935780636352211e146104bb57610203565b806323b872dd1461037d5780633bb04b1f146103995780633ccfd60b146103c157806342842e0e146103d757610203565b80630c142a43116101d65780630c142a43146102c5578063150b7a02146102ef578063162094c41461032b57806318160ddd1461035357610203565b806301ffc9a71461020757806306fdde0314610243578063081812fc1461026d578063095ea7b3146102a9575b5f80fd5b348015610212575f80fd5b5061022d60048036038101906102289190613e6f565b6107fb565b60405161023a9190613eb4565b60405180910390f35b34801561024e575f80fd5b5061025761088c565b6040516102649190613f57565b60405180910390f35b348015610278575f80fd5b50610293600480360381019061028e9190613faa565b610901565b6040516102a09190614014565b60405180910390f35b6102c360048036038101906102be9190614057565b6109a0565b005b3480156102d0575f80fd5b506102d96109b0565b6040516102e691906140a4565b60405180910390f35b3480156102fa575f80fd5b50610315600480360381019061031091906141e9565b6109b6565b6040516103229190614278565b60405180910390f35b348015610336575f80fd5b50610351600480360381019061034c91906142ee565b6109c9565b005b34801561035e575f80fd5b50610367610afa565b60405161037491906140a4565b60405180910390f35b6103976004803603810190610392919061434b565b610c7e565b005b3480156103a4575f80fd5b506103bf60048036038101906103ba91906143ce565b610c99565b005b3480156103cc575f80fd5b506103d5610dde565b005b6103f160048036038101906103ec919061434b565b610f78565b005b3480156103fe575f80fd5b50610419600480360381019061041491906143ce565b610f97565b005b348015610426575f80fd5b50610441600480360381019061043c9190614057565b6110dc565b60405161044e91906140a4565b60405180910390f35b348015610462575f80fd5b5061047d60048036038101906104789190613faa565b61115d565b60405161048a9190613eb4565b60405180910390f35b34801561049e575f80fd5b506104b960048036038101906104b491906143f9565b61116e565b005b3480156104c6575f80fd5b506104e160048036038101906104dc9190613faa565b6112b6565b6040516104ee9190614014565b60405180910390f35b348015610502575f80fd5b5061051d60048036038101906105189190613faa565b6112c7565b005b34801561052a575f80fd5b5061053361140c565b6040516105409190613f57565b60405180910390f35b348015610554575f80fd5b5061056f600480360381019061056a91906144e2565b611481565b005b34801561057c575f80fd5b5061059760048036038101906105929190614558565b61156e565b6040516105a491906140a4565b60405180910390f35b3480156105b8575f80fd5b506105c161163a565b6040516105ce91906140a4565b60405180910390f35b3480156105e2575f80fd5b506105eb6116ab565b6040516105f891906140a4565b60405180910390f35b34801561060c575f80fd5b506106156116cf565b60405161062291906140a4565b60405180910390f35b348015610636575f80fd5b5061063f6116d5565b60405161064c9190613f57565b60405180910390f35b348015610660575f80fd5b5061066961174a565b6040516106769190613f57565b60405180910390f35b34801561068a575f80fd5b506106a560048036038101906106a091906143f9565b611783565b005b3480156106b2575f80fd5b506106cd60048036038101906106c891906145ad565b6118cb565b005b3480156106da575f80fd5b506106e36119a9565b6040516106f091906140a4565b60405180910390f35b610713600480360381019061070e9190614640565b6119af565b005b61072f600480360381019061072a91906141e9565b611d34565b005b34801561073c575f80fd5b5061075760048036038101906107529190613faa565b611d85565b6040516107649190613f57565b60405180910390f35b348015610778575f80fd5b50610781611e67565b60405161078e91906140a4565b60405180910390f35b3480156107a2575f80fd5b506107bd60048036038101906107b891906143ce565b611ed8565b005b3480156107ca575f80fd5b506107e560048036038101906107e0919061469d565b61201d565b6040516107f29190613eb4565b60405180910390f35b5f6301ffc9a760e01b827bffffffffffffffffffffffffffffffffffffffffffffffffffffffff1916148061085557506380ac58cd60e01b827bffffffffffffffffffffffffffffffffffffffffffffffffffffffff1916145b806108855750635b5e139f60e01b827bffffffffffffffffffffffffffffffffffffffffffffffffffffffff1916145b9050919050565b606073__$3f3f7fbeed7f8e090b258bc8e3513c9e4b$__6306fdde036040518163ffffffff1660e01b81526004015f60405180830381865af41580156108d4573d5f803e3d5ffd5b505050506040513d5f823e3d601f19601f820116820180604052508101906108fc9190614749565b905090565b5f61090b8261209e565b6109205761091f63cf4700e460e01b612272565b5b73__$3f3f7fbeed7f8e090b258bc8e3513c9e4b$__63a7cc0136836040518263ffffffff1660e01b8152600401610957919061479f565b602060405180830381865af4158015610972573d5f803e3d5ffd5b505050506040513d601f19601f820116820180604052508101906109969190614809565b5f01519050919050565b6109ac8282600161227a565b5050565b6104b081565b5f63150b7a0260e01b9050949350505050565b6109d16123b8565b73ffffffffffffffffffffffffffffffffffffffff1673__$ea2bfd386ba84ea2bcf9bcd47bb5c25cd7$__63893d20e86040518163ffffffff1660e01b8152600401602060405180830381865af4158015610a2e573d5f803e3d5ffd5b505050506040513d601f19601f82011682018060405250810190610a529190614834565b73ffffffffffffffffffffffffffffffffffffffff1614610aa8576040517f08c379a0000000000000000000000000000000000000000000000000000000008152600401610a9f906148a9565b60405180910390fd5b610af58383838080601f0160208091040260200160405190810160405280939291908181526020018383808284375f81840152601f19601f820116905080830192505050505050506123bf565b505050565b5f610b0361245f565b73__$3f3f7fbeed7f8e090b258bc8e3513c9e4b$__6344faf2556040518163ffffffff1660e01b8152600401602060405180830381865af4158015610b4a573d5f803e3d5ffd5b505050506040513d601f19601f82011682018060405250810190610b6e91906148db565b73__$3f3f7fbeed7f8e090b258bc8e3513c9e4b$__639451c99a6040518163ffffffff1660e01b8152600401602060405180830381865af4158015610bb5573d5f803e3d5ffd5b505050506040513d601f19601f82011682018060405250810190610bd991906148db565b030390507fffffffffffffffffffffffffffffffffffffffffffffffffffffffffffffffff610c06612467565b14610c7b5773__$3f3f7fbeed7f8e090b258bc8e3513c9e4b$__63d20b6ee76040518163ffffffff1660e01b8152600401602060405180830381865af4158015610c52573d5f803e3d5ffd5b505050506040513d601f19601f82011682018060405250810190610c7691906148db565b810190505b90565b610c8983838361248e565b610c94838383612930565b505050565b610ca16123b8565b73ffffffffffffffffffffffffffffffffffffffff1673__$ea2bfd386ba84ea2bcf9bcd47bb5c25cd7$__63893d20e86040518163ffffffff1660e01b8152600401602060405180830381865af4158015610cfe573d5f803e3d5ffd5b505050506040513d601f19601f82011682018060405250810190610d229190614834565b73ffffffffffffffffffffffffffffffffffffffff1614610d78576040517f08c379a0000000000000000000000000000000000000000000000000000000008152600401610d6f906148a9565b60405180910390fd5b73__$3f3f7fbeed7f8e090b258bc8e3513c9e4b$__633802497b826040518263ffffffff1660e01b8152600401610daf9190614915565b5f6040518083038186803b158015610dc5575f80fd5b505af4158015610dd7573d5f803e3d5ffd5b5050505050565b610de66123b8565b73ffffffffffffffffffffffffffffffffffffffff1673__$ea2bfd386ba84ea2bcf9bcd47bb5c25cd7$__63893d20e86040518163ffffffff1660e01b8152600401602060405180830381865af4158015610e43573d5f803e3d5ffd5b505050506040513d601f19601f82011682018060405250810190610e679190614834565b73ffffffffffffffffffffffffffffffffffffffff1614610ebd576040517f08c379a0000000000000000000000000000000000000000000000000000000008152600401610eb4906148a9565b60405180910390fd5b610ec5612a35565b5f3373ffffffffffffffffffffffffffffffffffffffff1647604051610eea9061495b565b5f6040518083038185875af1925050503d805f8114610f24576040519150601f19603f3d011682016040523d82523d5f602084013e610f29565b606091505b5050905080610f6d576040517f08c379a0000000000000000000000000000000000000000000000000000000008152600401610f64906149b9565b60405180910390fd5b50610f76612a82565b565b610f9283838360405180602001604052805f815250611d34565b505050565b610f9f6123b8565b73ffffffffffffffffffffffffffffffffffffffff1673__$ea2bfd386ba84ea2bcf9bcd47bb5c25cd7$__63893d20e86040518163ffffffff1660e01b8152600401602060405180830381865af4158015610ffc573d5f803e3d5ffd5b505050506040513d601f19601f820116820180604052508101906110209190614834565b73ffffffffffffffffffffffffffffffffffffffff1614611076576040517f08c379a000000000000000000000000000000000000000000000000000000000815260040161106d906148a9565b60405180910390fd5b73__$3f3f7fbeed7f8e090b258bc8e3513c9e4b$__63247c6ce0826040518263ffffffff1660e01b81526004016110ad9190614915565b5f6040518083038186803b1580156110c3575f80fd5b505af41580156110d5573d5f803e3d5ffd5b5050505050565b5f73__$3f3f7fbeed7f8e090b258bc8e3513c9e4b$__63e149f03684846040518363ffffffff1660e01b81526004016111169291906149e6565b602060405180830381865af4158015611131573d5f803e3d5ffd5b505050506040513d601f19601f8201168201806040525081019061115591906148db565b905092915050565b5f6111678261209e565b9050919050565b6111766123b8565b73ffffffffffffffffffffffffffffffffffffffff1673__$ea2bfd386ba84ea2bcf9bcd47bb5c25cd7$__63893d20e86040518163ffffffff1660e01b8152600401602060405180830381865af41580156111d3573d5f803e3d5ffd5b505050506040513d601f19601f820116820180604052508101906111f79190614834565b73ffffffffffffffffffffffffffffffffffffffff161461124d576040517f08c379a0000000000000000000000000000000000000000000000000000000008152600401611244906148a9565b60405180910390fd5b73__$3f3f7fbeed7f8e090b258bc8e3513c9e4b$__63a05cc55983836040518363ffffffff1660e01b8152600401611286929190614a49565b5f6040518083038186803b15801561129c575f80fd5b505af41580156112ae573d5f803e3d5ffd5b505050505050565b5f6112c082612a8b565b9050919050565b6112cf6123b8565b73ffffffffffffffffffffffffffffffffffffffff1673__$ea2bfd386ba84ea2bcf9bcd47bb5c25cd7$__63893d20e86040518163ffffffff1660e01b8152600401602060405180830381865af415801561132c573d5f803e3d5ffd5b505050506040513d601f19601f820116820180604052508101906113509190614834565b73ffffffffffffffffffffffffffffffffffffffff16146113a6576040517f08c379a000000000000000000000000000000000000000000000000000000000815260040161139d906148a9565b60405180910390fd5b73__$3f3f7fbeed7f8e090b258bc8e3513c9e4b$__6339b37ab0826040518263ffffffff1660e01b81526004016113dd919061479f565b5f6040518083038186803b1580156113f3575f80fd5b505af4158015611405573d5f803e3d5ffd5b5050505050565b606073__$3f3f7fbeed7f8e090b258bc8e3513c9e4b$__63d547cfb76040518163ffffffff1660e01b81526004015f60405180830381865af4158015611454573d5f803e3d5ffd5b505050506040513d5f823e3d601f19601f8201168201806040525081019061147c9190614749565b905090565b6114896123b8565b73ffffffffffffffffffffffffffffffffffffffff1673__$ea2bfd386ba84ea2bcf9bcd47bb5c25cd7$__63893d20e86040518163ffffffff1660e01b8152600401602060405180830381865af41580156114e6573d5f803e3d5ffd5b505050506040513d601f19601f8201168201806040525081019061150a9190614834565b73ffffffffffffffffffffffffffffffffffffffff1614611560576040517f08c379a0000000000000000000000000000000000000000000000000000000008152600401611557906148a9565b60405180910390fd5b61156a8282612ccb565b5050565b5f8073ffffffffffffffffffffffffffffffffffffffff168273ffffffffffffffffffffffffffffffffffffffff16036115b3576115b2638f4eb60460e01b612272565b5b67ffffffffffffffff73__$3f3f7fbeed7f8e090b258bc8e3513c9e4b$__6321b0ed7d846040518263ffffffff1660e01b81526004016115f39190614a6b565b602060405180830381865af415801561160e573d5f803e3d5ffd5b505050506040513d601f19601f8201168201806040525081019061163291906148db565b169050919050565b5f73__$3f3f7fbeed7f8e090b258bc8e3513c9e4b$__639451c99a6040518163ffffffff1660e01b8152600401602060405180830381865af4158015611682573d5f803e3d5ffd5b505050506040513d601f19601f820116820180604052508101906116a691906148db565b905090565b7f000000000000000000000000000000000000000000000000000000000000000081565b6161a881565b606073__$3f3f7fbeed7f8e090b258bc8e3513c9e4b$__6395d89b416040518163ffffffff1660e01b81526004015f60405180830381865af415801561171d573d5f803e3d5ffd5b505050506040513d5f823e3d601f19601f820116820180604052508101906117459190614749565b905090565b6040518060400160405280600681526020017f534d45616d62000000000000000000000000000000000000000000000000000081525081565b61178b6123b8565b73ffffffffffffffffffffffffffffffffffffffff1673__$ea2bfd386ba84ea2bcf9bcd47bb5c25cd7$__63893d20e86040518163ffffffff1660e01b8152600401602060405180830381865af41580156117e8573d5f803e3d5ffd5b505050506040513d601f19601f8201168201806040525081019061180c9190614834565b73ffffffffffffffffffffffffffffffffffffffff1614611862576040517f08c379a0000000000000000000000000000000000000000000000000000000008152600401611859906148a9565b60405180910390fd5b73__$3f3f7fbeed7f8e090b258bc8e3513c9e4b$__63821abc2d83836040518363ffffffff1660e01b815260040161189b929190614a49565b5f6040518083038186803b1580156118b1575f80fd5b505af41580156118c3573d5f803e3d5ffd5b505050505050565b73__$3f3f7fbeed7f8e090b258bc8e3513c9e4b$__63830d40916118ed61300d565b84846040518463ffffffff1660e01b815260040161190d93929190614a93565b5f6040518083038186803b158015611923575f80fd5b505af4158015611935573d5f803e3d5ffd5b505050508173ffffffffffffffffffffffffffffffffffffffff1661195861300d565b73ffffffffffffffffffffffffffffffffffffffff167f17307eab39ab6107e8899845ad3d59bd9653f200f220920489ca2b5937696c318360405161199d9190613eb4565b60405180910390a35050565b61138881565b6119b7612a35565b5f6119c0613014565b90506104b08110611a06576040517f08c379a00000000000000000000000000000000000000000000000000000000081526004016119fd90614b12565b60405180910390fd5b5f151573__$3f3f7fbeed7f8e090b258bc8e3513c9e4b$__63b62d8b91866040518263ffffffff1660e01b8152600401611a409190614a6b565b602060405180830381865af4158015611a5b573d5f803e3d5ffd5b505050506040513d601f19601f82011682018060405250810190611a7f9190614b44565b151514611ac1576040517f08c379a0000000000000000000000000000000000000000000000000000000008152600401611ab890614bb9565b60405180910390fd5b73__$3f3f7fbeed7f8e090b258bc8e3513c9e4b$__63ddca3f436040518163ffffffff1660e01b8152600401602060405180830381865af4158015611b08573d5f803e3d5ffd5b505050506040513d601f19601f82011682018060405250810190611b2c91906148db565b3414611b6d576040517f08c379a0000000000000000000000000000000000000000000000000000000008152600401611b6490614c21565b60405180910390fd5b5f84604051602001611b7f9190614c84565b6040516020818303038152906040528051906020012090505f611c4d8585808060200260200160405190810160405280939291908181526020018383602002808284375f81840152601f19601f8201169050808301925050505050505073__$3f3f7fbeed7f8e090b258bc8e3513c9e4b$__6319f862006040518163ffffffff1660e01b8152600401602060405180830381865af4158015611c23573d5f803e3d5ffd5b505050506040513d601f19601f82011682018060405250810190611c479190614cb2565b84613085565b90506001151581151514611c96576040517f08c379a0000000000000000000000000000000000000000000000000000000008152600401611c8d90614d27565b60405180910390fd5b73__$3f3f7fbeed7f8e090b258bc8e3513c9e4b$__63b0d4ce258760016040518363ffffffff1660e01b8152600401611cd0929190614d45565b5f6040518083038186803b158015611ce6575f80fd5b505af4158015611cf8573d5f803e3d5ffd5b50505050611d0786600161309b565b611d1983611d14856130b8565b6123bf565b611d245f8785612930565b505050611d2f612a82565b505050565b611d3f848484610c7e565b5f8373ffffffffffffffffffffffffffffffffffffffff163b14611d7f57611d69848484846131bb565b611d7e57611d7d63d1a57ed660e01b612272565b5b5b50505050565b60605f73__$3f3f7fbeed7f8e090b258bc8e3513c9e4b$__636c8b703f846040518263ffffffff1660e01b8152600401611dbf919061479f565b5f60405180830381865af4158015611dd9573d5f803e3d5ffd5b505050506040513d5f823e3d601f19601f82011682018060405250810190611e019190614749565b90505f611e0c6132e5565b90505f815103611e20578192505050611e62565b5f82511115611e54578082604051602001611e3c929190614da6565b60405160208183030381529060405292505050611e62565b611e5d846132fb565b925050505b919050565b5f73__$3f3f7fbeed7f8e090b258bc8e3513c9e4b$__63ddca3f436040518163ffffffff1660e01b8152600401602060405180830381865af4158015611eaf573d5f803e3d5ffd5b505050506040513d601f19601f82011682018060405250810190611ed391906148db565b905090565b611ee06123b8565b73ffffffffffffffffffffffffffffffffffffffff1673__$ea2bfd386ba84ea2bcf9bcd47bb5c25cd7$__63893d20e86040518163ffffffff1660e01b8152600401602060405180830381865af4158015611f3d573d5f803e3d5ffd5b505050506040513d601f19601f82011682018060405250810190611f619190614834565b73ffffffffffffffffffffffffffffffffffffffff1614611fb7576040517f08c379a0000000000000000000000000000000000000000000000000000000008152600401611fae906148a9565b60405180910390fd5b73__$3f3f7fbeed7f8e090b258bc8e3513c9e4b$__63854f9db9826040518263ffffffff1660e01b8152600401611fee9190614915565b5f6040518083038186803b158015612004575f80fd5b505af4158015612016573d5f803e3d5ffd5b5050505050565b5f73__$3f3f7fbeed7f8e090b258bc8e3513c9e4b$__63edc3bc3f84846040518363ffffffff1660e01b8152600401612057929190614dc9565b602060405180830381865af4158015612072573d5f803e3d5ffd5b505050506040513d601f19601f820116820180604052508101906120969190614b44565b905092915050565b5f816120a861245f565b1161226c576120b5612467565b8211156121415761213a73__$3f3f7fbeed7f8e090b258bc8e3513c9e4b$__6347f69eba846040518263ffffffff1660e01b81526004016120f6919061479f565b602060405180830381865af4158015612111573d5f803e3d5ffd5b505050506040513d601f19601f8201168201806040525081019061213591906148db565b613375565b905061226d565b73__$3f3f7fbeed7f8e090b258bc8e3513c9e4b$__639451c99a6040518163ffffffff1660e01b8152600401602060405180830381865af4158015612188573d5f803e3d5ffd5b505050506040513d601f19601f820116820180604052508101906121ac91906148db565b82101561226b575f5b5f73__$3f3f7fbeed7f8e090b258bc8e3513c9e4b$__6347f69eba856040518263ffffffff1660e01b81526004016121ed919061479f565b602060405180830381865af4158015612208573d5f803e3d5ffd5b505050506040513d601f19601f8201168201806040525081019061222c91906148db565b91508103612245578261223e90614e1d565b92506121b5565b5f7c01000000000000000000000000000000000000000000000000000000008216149150505b5b5b919050565b805f5260045ffd5b5f612284836112b6565b90508180156122c657508073ffffffffffffffffffffffffffffffffffffffff166122ad61300d565b73ffffffffffffffffffffffffffffffffffffffff1614155b156122f2576122dc816122d761300d565b61201d565b6122f1576122f063cfb3b94260e01b612272565b5b5b73__$3f3f7fbeed7f8e090b258bc8e3513c9e4b$__6313c19ff684866040518363ffffffff1660e01b815260040161232b929190614e44565b5f6040518083038186803b158015612341575f80fd5b505af4158015612353573d5f803e3d5ffd5b50505050828473ffffffffffffffffffffffffffffffffffffffff168273ffffffffffffffffffffffffffffffffffffffff167f8c5be1e5ebec7d5bd14f71427d1e84f3dd0314c0f7b2291e5b200ac8c7c3b92560405160405180910390a450505050565b5f33905090565b73__$3f3f7fbeed7f8e090b258bc8e3513c9e4b$__63dec84db182846040518363ffffffff1660e01b81526004016123f8929190614ea3565b5f6040518083038186803b15801561240e575f80fd5b505af4158015612420573d5f803e3d5ffd5b505050507ff8e1a15aba9398e019f0b49df1a4fde98ee17ae345cb5f6b5e2c27f5033e8ce78260405161245391906140a4565b60405180910390a15050565b5f6001905090565b5f7fffffffffffffffffffffffffffffffffffffffffffffffffffffffffffffffff905090565b5f61249882612a8b565b905073ffffffffffffffffffffffffffffffffffffffff8473ffffffffffffffffffffffffffffffffffffffff161693508373ffffffffffffffffffffffffffffffffffffffff168173ffffffffffffffffffffffffffffffffffffffff161461250d5761250c63a114810060e01b612272565b5b5f80612518846133b5565b9150915061252e818761252961300d565b61343b565b612559576125438661253e61300d565b61201d565b612558576125576359c896be60e01b612272565b5b5b612566868686600161347e565b73__$3f3f7fbeed7f8e090b258bc8e3513c9e4b$__6313c19ff6855f6040518363ffffffff1660e01b815260040161259f929190614e44565b5f6040518083038186803b1580156125b5575f80fd5b505af41580156125c7573d5f803e3d5ffd5b5050505073__$3f3f7fbeed7f8e090b258bc8e3513c9e4b$__6331413efc876040518263ffffffff1660e01b81526004016126029190614a6b565b5f6040518083038186803b158015612618575f80fd5b505af415801561262a573d5f803e3d5ffd5b5050505073__$3f3f7fbeed7f8e090b258bc8e3513c9e4b$__63d0125152866040518263ffffffff1660e01b81526004016126659190614a6b565b5f6040518083038186803b15801561267b575f80fd5b505af415801561268d573d5f803e3d5ffd5b5050505073__$3f3f7fbeed7f8e090b258bc8e3513c9e4b$__63e68fdee1856126df886126bb8b8b8a613484565b7c0200000000000000000000000000000000000000000000000000000000176134ab565b6040518363ffffffff1660e01b81526004016126fc929190614ed1565b5f6040518083038186803b158015612712575f80fd5b505af4158015612724573d5f803e3d5ffd5b505050505f7c02000000000000000000000000000000000000000000000000000000008416036128ab575f6001850190505f73__$3f3f7fbeed7f8e090b258bc8e3513c9e4b$__6347f69eba836040518263ffffffff1660e01b815260040161278d919061479f565b602060405180830381865af41580156127a8573d5f803e3d5ffd5b505050506040513d601f19601f820116820180604052508101906127cc91906148db565b036128a95773__$3f3f7fbeed7f8e090b258bc8e3513c9e4b$__639451c99a6040518163ffffffff1660e01b8152600401602060405180830381865af4158015612818573d5f803e3d5ffd5b505050506040513d601f19601f8201168201806040525081019061283c91906148db565b81146128a85773__$3f3f7fbeed7f8e090b258bc8e3513c9e4b$__63e68fdee182866040518363ffffffff1660e01b815260040161287b929190614ed1565b5f6040518083038186803b158015612891575f80fd5b505af41580156128a3573d5f803e3d5ffd5b505050505b5b505b5f73ffffffffffffffffffffffffffffffffffffffff8673ffffffffffffffffffffffffffffffffffffffff161690508481887fddf252ad1be2c89b69c2b068fc378daa952ba7f163c4a11628f55a4df523b3ef5f80a45f810361291a5761291963ea553b3460e01b612272565b5b61292787878760016134d5565b50505050505050565b5f73ffffffffffffffffffffffffffffffffffffffff168373ffffffffffffffffffffffffffffffffffffffff16036129715761296c816134db565b6129b0565b8173ffffffffffffffffffffffffffffffffffffffff168373ffffffffffffffffffffffffffffffffffffffff16146129af576129ae8382613541565b5b5b5f73ffffffffffffffffffffffffffffffffffffffff168273ffffffffffffffffffffffffffffffffffffffff16036129f1576129ec816135b4565b612a30565b8173ffffffffffffffffffffffffffffffffffffffff168373ffffffffffffffffffffffffffffffffffffffff1614612a2f57612a2e828261361a565b5b5b505050565b60025f5403612a79576040517f08c379a0000000000000000000000000000000000000000000000000000000008152600401612a7090614f42565b60405180910390fd5b60025f81905550565b60015f81905550565b5f81612a9561245f565b11612cb55773__$3f3f7fbeed7f8e090b258bc8e3513c9e4b$__6347f69eba836040518263ffffffff1660e01b8152600401612ad1919061479f565b602060405180830381865af4158015612aec573d5f803e3d5ffd5b505050506040513d601f19601f82011682018060405250810190612b1091906148db565b9050612b1a612467565b821115612b3f57612b2a81613375565b612cc657612b3e63df2d9b4260e01b612272565b5b5f8103612c8d5773__$3f3f7fbeed7f8e090b258bc8e3513c9e4b$__639451c99a6040518163ffffffff1660e01b8152600401602060405180830381865af4158015612b8d573d5f803e3d5ffd5b505050506040513d601f19601f82011682018060405250810190612bb191906148db565b8210612bc857612bc763df2d9b4260e01b612272565b5b5b73__$3f3f7fbeed7f8e090b258bc8e3513c9e4b$__6347f69eba83600190039350836040518263ffffffff1660e01b8152600401612c07919061479f565b602060405180830381865af4158015612c22573d5f803e3d5ffd5b505050506040513d601f19601f82011682018060405250810190612c4691906148db565b90505f810315612c88575f7c010000000000000000000000000000000000000000000000000000000082160315612cc657612c8763df2d9b4260e01b612272565b5b612bc9565b5f7c010000000000000000000000000000000000000000000000000000000082160315612cc6575b612cc563df2d9b4260e01b612272565b5b919050565b73__$3f3f7fbeed7f8e090b258bc8e3513c9e4b$__63a05cc5596040518163ffffffff1660e01b8152600401612d0090614ff6565b5f6040518083038186803b158015612d16575f80fd5b505af4158015612d28573d5f803e3d5ffd5b5050505073__$3f3f7fbeed7f8e090b258bc8e3513c9e4b$__63821abc2d6040518163ffffffff1660e01b8152600401612d61906150aa565b5f6040518083038186803b158015612d77575f80fd5b505af4158015612d89573d5f803e3d5ffd5b5050505073__$3f3f7fbeed7f8e090b258bc8e3513c9e4b$__633802497b7fdfb96c060b2e58f09345a394fd8e994a6e7ac3539cdd256304c6e181a216752e6040518263ffffffff1660e01b8152600401612de4919061510c565b5f6040518083038186803b158015612dfa575f80fd5b505af4158015612e0c573d5f803e3d5ffd5b5050505073__$3f3f7fbeed7f8e090b258bc8e3513c9e4b$__6339b37ab067c93a592cfb2a00006040518263ffffffff1660e01b8152600401612e4f9190615167565b5f6040518083038186803b158015612e65575f80fd5b505af4158015612e77573d5f803e3d5ffd5b5050505073__$3f3f7fbeed7f8e090b258bc8e3513c9e4b$__635b43bc99836040518263ffffffff1660e01b8152600401612eb29190615180565b5f6040518083038186803b158015612ec8575f80fd5b505af4158015612eda573d5f803e3d5ffd5b5050505073__$3f3f7fbeed7f8e090b258bc8e3513c9e4b$__6341bb0559826040518263ffffffff1660e01b8152600401612f159190615180565b5f6040518083038186803b158015612f2b575f80fd5b505af4158015612f3d573d5f803e3d5ffd5b5050505073__$3f3f7fbeed7f8e090b258bc8e3513c9e4b$__63345e7b2860016040518263ffffffff1660e01b8152600401612f7991906151d9565b5f6040518083038186803b158015612f8f575f80fd5b505af4158015612fa1573d5f803e3d5ffd5b5050505073__$3f3f7fbeed7f8e090b258bc8e3513c9e4b$__6332b07b4360016040518263ffffffff1660e01b8152600401612fdd91906151d9565b5f6040518083038186803b158015612ff3575f80fd5b505af4158015613005573d5f803e3d5ffd5b505050505050565b5f33905090565b5f73__$3f3f7fbeed7f8e090b258bc8e3513c9e4b$__639451c99a6040518163ffffffff1660e01b8152600401602060405180830381865af415801561305c573d5f803e3d5ffd5b505050506040513d601f19601f8201168201806040525081019061308091906148db565b905090565b5f826130918584613699565b1490509392505050565b6130b4828260405180602001604052805f8152506136e7565b5050565b60606130c38261209e565b613102576040517f08c379a00000000000000000000000000000000000000000000000000000000081526004016130f990615262565b60405180910390fd5b5f61310b61140c565b90505f8151116131885773__$3f3f7fbeed7f8e090b258bc8e3513c9e4b$__63963bfe126040518163ffffffff1660e01b81526004015f60405180830381865af415801561315b573d5f803e3d5ffd5b505050506040513d5f823e3d601f19601f820116820180604052508101906131839190614749565b6131b3565b806131928461382f565b6040516020016131a39291906152ca565b6040516020818303038152906040525b915050919050565b5f8373ffffffffffffffffffffffffffffffffffffffff1663150b7a026131e061300d565b8786866040518563ffffffff1660e01b8152600401613202949392919061534a565b6020604051808303815f875af192505050801561323d57506040513d601f19601f8201168201806040525081019061323a91906153a8565b60015b613292573d805f811461326b576040519150601f19603f3d011682016040523d82523d5f602084013e613270565b606091505b505f81510361328a5761328963d1a57ed660e01b612272565b5b805181602001fd5b63150b7a0260e01b7bffffffffffffffffffffffffffffffffffffffffffffffffffffffff1916817bffffffffffffffffffffffffffffffffffffffffffffffffffffffff191614915050949350505050565b606060405180602001604052805f815250905090565b60606133068261209e565b61331b5761331a63a14c4b5060e01b612272565b5b5f6133246132e5565b90505f8151036133425760405180602001604052805f81525061336d565b8061334c846138f9565b60405160200161335d929190614da6565b6040516020818303038152906040525b915050919050565b5f7c0100000000000000000000000000000000000000000000000000000000821673ffffffffffffffffffffffffffffffffffffffff8316119050919050565b5f80600173__$3f3f7fbeed7f8e090b258bc8e3513c9e4b$__63a7cc0136856040518263ffffffff1660e01b81526004016133f0919061479f565b602060405180830381865af415801561340b573d5f803e3d5ffd5b505050506040513d601f19601f8201168201806040525081019061342f9190614809565b5f015191509150915091565b5f73ffffffffffffffffffffffffffffffffffffffff8316925073ffffffffffffffffffffffffffffffffffffffff821691508382148383141790509392505050565b50505050565b5f8060e883901c905060e861349a868684613948565b62ffffff16901b9150509392505050565b5f73ffffffffffffffffffffffffffffffffffffffff83169250814260a01b178317905092915050565b50505050565b73__$3f3f7fbeed7f8e090b258bc8e3513c9e4b$__63dbe0b21c826040518263ffffffff1660e01b8152600401613512919061479f565b5f6040518083038186803b158015613528575f80fd5b505af415801561353a573d5f803e3d5ffd5b5050505050565b73__$3f3f7fbeed7f8e090b258bc8e3513c9e4b$__63071bc71c83836135668661156e565b6040518463ffffffff1660e01b8152600401613584939291906153d3565b5f6040518083038186803b15801561359a575f80fd5b505af41580156135ac573d5f803e3d5ffd5b505050505050565b73__$3f3f7fbeed7f8e090b258bc8e3513c9e4b$__6340e02f5c826040518263ffffffff1660e01b81526004016135eb919061479f565b5f6040518083038186803b158015613601575f80fd5b505af4158015613613573d5f803e3d5ffd5b5050505050565b73__$3f3f7fbeed7f8e090b258bc8e3513c9e4b$__634f4979ed838360016136418761156e565b61364b9190615408565b6040518463ffffffff1660e01b8152600401613669939291906153d3565b5f6040518083038186803b15801561367f575f80fd5b505af4158015613691573d5f803e3d5ffd5b505050505050565b5f808290505f5b84518110156136dc576136cd828683815181106136c0576136bf61543b565b5b6020026020010151613950565b915080806001019150506136a0565b508091505092915050565b6136f1838361397a565b5f8373ffffffffffffffffffffffffffffffffffffffff163b1461382a575f73__$3f3f7fbeed7f8e090b258bc8e3513c9e4b$__639451c99a6040518163ffffffff1660e01b8152600401602060405180830381865af4158015613757573d5f803e3d5ffd5b505050506040513d601f19601f8201168201806040525081019061377b91906148db565b90505f83820390505b6137965f8683806001019450866131bb565b6137ab576137aa63d1a57ed660e01b612272565b5b818110613784578173__$3f3f7fbeed7f8e090b258bc8e3513c9e4b$__639451c99a6040518163ffffffff1660e01b8152600401602060405180830381865af41580156137fa573d5f803e3d5ffd5b505050506040513d601f19601f8201168201806040525081019061381e91906148db565b14613827575f80fd5b50505b505050565b60605f600161383d84613c95565b0190505f8167ffffffffffffffff81111561385b5761385a6140c5565b5b6040519080825280601f01601f19166020018201604052801561388d5781602001600182028036833780820191505090505b5090505f82602001820190505b6001156138ee578080600190039150507f3031323334353637383961626364656600000000000000000000000000000000600a86061a8153600a85816138e3576138e2615468565b5b0494505f850361389a575b819350505050919050565b606060a060405101806040526020810391505f825281835b60011561393357600184039350600a81066030018453600a8104905080613911575b50828103602084039350808452505050919050565b5f9392505050565b5f818310613967576139628284613de6565b613972565b6139718383613de6565b5b905092915050565b5f73__$3f3f7fbeed7f8e090b258bc8e3513c9e4b$__639451c99a6040518163ffffffff1660e01b8152600401602060405180830381865af41580156139c2573d5f803e3d5ffd5b505050506040513d601f19601f820116820180604052508101906139e691906148db565b90505f8203613a00576139ff63b562e8dd60e01b612272565b5b613a0c5f84838561347e565b73__$3f3f7fbeed7f8e090b258bc8e3513c9e4b$__63e68fdee182613a4586613a365f895f613484565b613a3f88613dfa565b176134ab565b6040518363ffffffff1660e01b8152600401613a62929190614ed1565b5f6040518083038186803b158015613a78575f80fd5b505af4158015613a8a573d5f803e3d5ffd5b5050505073__$3f3f7fbeed7f8e090b258bc8e3513c9e4b$__63a330117384600160406001901b17850273__$3f3f7fbeed7f8e090b258bc8e3513c9e4b$__6321b0ed7d886040518263ffffffff1660e01b8152600401613aeb9190614a6b565b602060405180830381865af4158015613b06573d5f803e3d5ffd5b505050506040513d601f19601f82011682018060405250810190613b2a91906148db565b016040518363ffffffff1660e01b8152600401613b489291906149e6565b5f6040518083038186803b158015613b5e575f80fd5b505af4158015613b70573d5f803e3d5ffd5b505050505f73ffffffffffffffffffffffffffffffffffffffff8473ffffffffffffffffffffffffffffffffffffffff161690505f8103613bbc57613bbb632e07630060e01b612272565b5b5f83830190505f839050613bce612467565b600183031115613be957613be86381647e3a60e01b612272565b5b5b80835f7fddf252ad1be2c89b69c2b068fc378daa952ba7f163c4a11628f55a4df523b3ef5f80a4818160010191508103613bea5773__$3f3f7fbeed7f8e090b258bc8e3513c9e4b$__63345e7b28836040518263ffffffff1660e01b8152600401613c55919061479f565b5f6040518083038186803b158015613c6b575f80fd5b505af4158015613c7d573d5f803e3d5ffd5b50505050505050613c905f8483856134d5565b505050565b5f805f90507a184f03e93ff9f4daa797ed6e38ed64bf6a1f0100000000000000008310613cf1577a184f03e93ff9f4daa797ed6e38ed64bf6a1f0100000000000000008381613ce757613ce6615468565b5b0492506040810190505b6d04ee2d6d415b85acef81000000008310613d2e576d04ee2d6d415b85acef81000000008381613d2457613d23615468565b5b0492506020810190505b662386f26fc100008310613d5d57662386f26fc100008381613d5357613d52615468565b5b0492506010810190505b6305f5e1008310613d86576305f5e1008381613d7c57613d7b615468565b5b0492506008810190505b6127108310613dab576127108381613da157613da0615468565b5b0492506004810190505b60648310613dce5760648381613dc457613dc3615468565b5b0492506002810190505b600a8310613ddd576001810190505b80915050919050565b5f825f528160205260405f20905092915050565b5f6001821460e11b9050919050565b5f604051905090565b5f80fd5b5f80fd5b5f7fffffffff0000000000000000000000000000000000000000000000000000000082169050919050565b613e4e81613e1a565b8114613e58575f80fd5b50565b5f81359050613e6981613e45565b92915050565b5f60208284031215613e8457613e83613e12565b5b5f613e9184828501613e5b565b91505092915050565b5f8115159050919050565b613eae81613e9a565b82525050565b5f602082019050613ec75f830184613ea5565b92915050565b5f81519050919050565b5f82825260208201905092915050565b5f5b83811015613f04578082015181840152602081019050613ee9565b5f8484015250505050565b5f601f19601f8301169050919050565b5f613f2982613ecd565b613f338185613ed7565b9350613f43818560208601613ee7565b613f4c81613f0f565b840191505092915050565b5f6020820190508181035f830152613f6f8184613f1f565b905092915050565b5f819050919050565b613f8981613f77565b8114613f93575f80fd5b50565b5f81359050613fa481613f80565b92915050565b5f60208284031215613fbf57613fbe613e12565b5b5f613fcc84828501613f96565b91505092915050565b5f73ffffffffffffffffffffffffffffffffffffffff82169050919050565b5f613ffe82613fd5565b9050919050565b61400e81613ff4565b82525050565b5f6020820190506140275f830184614005565b92915050565b61403681613ff4565b8114614040575f80fd5b50565b5f813590506140518161402d565b92915050565b5f806040838503121561406d5761406c613e12565b5b5f61407a85828601614043565b925050602061408b85828601613f96565b9150509250929050565b61409e81613f77565b82525050565b5f6020820190506140b75f830184614095565b92915050565b5f80fd5b5f80fd5b7f4e487b71000000000000000000000000000000000000000000000000000000005f52604160045260245ffd5b6140fb82613f0f565b810181811067ffffffffffffffff8211171561411a576141196140c5565b5b80604052505050565b5f61412c613e09565b905061413882826140f2565b919050565b5f67ffffffffffffffff821115614157576141566140c5565b5b61416082613f0f565b9050602081019050919050565b828183375f83830152505050565b5f61418d6141888461413d565b614123565b9050828152602081018484840111156141a9576141a86140c1565b5b6141b484828561416d565b509392505050565b5f82601f8301126141d0576141cf6140bd565b5b81356141e084826020860161417b565b91505092915050565b5f805f806080858703121561420157614200613e12565b5b5f61420e87828801614043565b945050602061421f87828801614043565b935050604061423087828801613f96565b925050606085013567ffffffffffffffff81111561425157614250613e16565b5b61425d878288016141bc565b91505092959194509250565b61427281613e1a565b82525050565b5f60208201905061428b5f830184614269565b92915050565b5f80fd5b5f80fd5b5f8083601f8401126142ae576142ad6140bd565b5b8235905067ffffffffffffffff8111156142cb576142ca614291565b5b6020830191508360018202830111156142e7576142e6614295565b5b9250929050565b5f805f6040848603121561430557614304613e12565b5b5f61431286828701613f96565b935050602084013567ffffffffffffffff81111561433357614332613e16565b5b61433f86828701614299565b92509250509250925092565b5f805f6060848603121561436257614361613e12565b5b5f61436f86828701614043565b935050602061438086828701614043565b925050604061439186828701613f96565b9150509250925092565b5f819050919050565b6143ad8161439b565b81146143b7575f80fd5b50565b5f813590506143c8816143a4565b92915050565b5f602082840312156143e3576143e2613e12565b5b5f6143f0848285016143ba565b91505092915050565b5f806020838503121561440f5761440e613e12565b5b5f83013567ffffffffffffffff81111561442c5761442b613e16565b5b61443885828601614299565b92509250509250929050565b5f67ffffffffffffffff82111561445e5761445d6140c5565b5b61446782613f0f565b9050602081019050919050565b5f61448661448184614444565b614123565b9050828152602081018484840111156144a2576144a16140c1565b5b6144ad84828561416d565b509392505050565b5f82601f8301126144c9576144c86140bd565b5b81356144d9848260208601614474565b91505092915050565b5f80604083850312156144f8576144f7613e12565b5b5f83013567ffffffffffffffff81111561451557614514613e16565b5b614521858286016144b5565b925050602083013567ffffffffffffffff81111561454257614541613e16565b5b61454e858286016144b5565b9150509250929050565b5f6020828403121561456d5761456c613e12565b5b5f61457a84828501614043565b91505092915050565b61458c81613e9a565b8114614596575f80fd5b50565b5f813590506145a781614583565b92915050565b5f80604083850312156145c3576145c2613e12565b5b5f6145d085828601614043565b92505060206145e185828601614599565b9150509250929050565b5f8083601f840112614600576145ff6140bd565b5b8235905067ffffffffffffffff81111561461d5761461c614291565b5b60208301915083602082028301111561463957614638614295565b5b9250929050565b5f805f6040848603121561465757614656613e12565b5b5f61466486828701614043565b935050602084013567ffffffffffffffff81111561468557614684613e16565b5b614691868287016145eb565b92509250509250925092565b5f80604083850312156146b3576146b2613e12565b5b5f6146c085828601614043565b92505060206146d185828601614043565b9150509250929050565b5f6146ed6146e884614444565b614123565b905082815260208101848484011115614709576147086140c1565b5b614714848285613ee7565b509392505050565b5f82601f8301126147305761472f6140bd565b5b81516147408482602086016146db565b91505092915050565b5f6020828403121561475e5761475d613e12565b5b5f82015167ffffffffffffffff81111561477b5761477a613e16565b5b6147878482850161471c565b91505092915050565b61479981613f77565b82525050565b5f6020820190506147b25f830184614790565b92915050565b5f80fd5b5f815190506147ca8161402d565b92915050565b5f602082840312156147e5576147e46147b8565b5b6147ef6020614123565b90505f6147fe848285016147bc565b5f8301525092915050565b5f6020828403121561481e5761481d613e12565b5b5f61482b848285016147d0565b91505092915050565b5f6020828403121561484957614848613e12565b5b5f614856848285016147bc565b91505092915050565b7f596f7520617265206e6f7420616e206f776e65720000000000000000000000005f82015250565b5f614893601483613ed7565b915061489e8261485f565b602082019050919050565b5f6020820190508181035f8301526148c081614887565b9050919050565b5f815190506148d581613f80565b92915050565b5f602082840312156148f0576148ef613e12565b5b5f6148fd848285016148c7565b91505092915050565b61490f8161439b565b82525050565b5f6020820190506149285f830184614906565b92915050565b5f81905092915050565b50565b5f6149465f8361492e565b915061495182614938565b5f82019050919050565b5f6149658261493b565b9150819050919050565b7f5472616e73666572206661696c65642e000000000000000000000000000000005f82015250565b5f6149a3601083613ed7565b91506149ae8261496f565b602082019050919050565b5f6020820190508181035f8301526149d081614997565b9050919050565b6149e081613ff4565b82525050565b5f6040820190506149f95f8301856149d7565b614a066020830184614790565b9392505050565b5f82825260208201905092915050565b5f614a288385614a0d565b9350614a3583858461416d565b614a3e83613f0f565b840190509392505050565b5f6020820190508181035f830152614a62818486614a1d565b90509392505050565b5f602082019050614a7e5f8301846149d7565b92915050565b614a8d81613e9a565b82525050565b5f606082019050614aa65f8301866149d7565b614ab360208301856149d7565b614ac06040830184614a84565b949350505050565b7f45786365656420616c6c6f6300000000000000000000000000000000000000005f82015250565b5f614afc600c83613ed7565b9150614b0782614ac8565b602082019050919050565b5f6020820190508181035f830152614b2981614af0565b9050919050565b5f81519050614b3e81614583565b92915050565b5f60208284031215614b5957614b58613e12565b5b5f614b6684828501614b30565b91505092915050565b7f416c7265616479206d696e7465640000000000000000000000000000000000005f82015250565b5f614ba3600e83613ed7565b9150614bae82614b6f565b602082019050919050565b5f6020820190508181035f830152614bd081614b97565b9050919050565b7f4e6f74206d6174636820707269636500000000000000000000000000000000005f82015250565b5f614c0b600f83613ed7565b9150614c1682614bd7565b602082019050919050565b5f6020820190508181035f830152614c3881614bff565b9050919050565b5f8160601b9050919050565b5f614c5582614c3f565b9050919050565b5f614c6682614c4b565b9050919050565b614c7e614c7982613ff4565b614c5c565b82525050565b5f614c8f8284614c6d565b60148201915081905092915050565b5f81519050614cac816143a4565b92915050565b5f60208284031215614cc757614cc6613e12565b5b5f614cd484828501614c9e565b91505092915050565b7f4e6f7420696e206d65726b6c65000000000000000000000000000000000000005f82015250565b5f614d11600d83613ed7565b9150614d1c82614cdd565b602082019050919050565b5f6020820190508181035f830152614d3e81614d05565b9050919050565b5f604082019050614d585f8301856149d7565b614d656020830184614a84565b9392505050565b5f81905092915050565b5f614d8082613ecd565b614d8a8185614d6c565b9350614d9a818560208601613ee7565b80840191505092915050565b5f614db18285614d76565b9150614dbd8284614d76565b91508190509392505050565b5f604082019050614ddc5f8301856149d7565b614de960208301846149d7565b9392505050565b7f4e487b71000000000000000000000000000000000000000000000000000000005f52601160045260245ffd5b5f614e2782613f77565b91505f8203614e3957614e38614df0565b5b600182039050919050565b5f604082019050614e575f830185614790565b614e6460208301846149d7565b9392505050565b5f614e7582613ecd565b614e7f8185614a0d565b9350614e8f818560208601613ee7565b614e9881613f0f565b840191505092915050565b5f6040820190508181035f830152614ebb8185614e6b565b9050614eca6020830184614790565b9392505050565b5f604082019050614ee45f830185614790565b614ef16020830184614790565b9392505050565b7f5265656e7472616e637947756172643a207265656e7472616e742063616c6c005f82015250565b5f614f2c601f83613ed7565b9150614f3782614ef8565b602082019050919050565b5f6020820190508181035f830152614f5981614f20565b9050919050565b7f68747470733a2f2f697066732e737765622e72752f697066732f516d62704e395f8201527f716578677a6e6b705445516d7264786e53665759434441624c6b42786d35764160208201527f4337316a7a52786f2f0000000000000000000000000000000000000000000000604082015250565b5f614fe0604983614a0d565b9150614feb82614f60565b606082019050919050565b5f6020820190508181035f83015261500d81614fd4565b9050919050565b7f68747470733a2f2f697066732e737765622e72752f697066732f516d595262535f8201527f4d3251617a47623551486f676f64714a666f505661536962333274745570764e60208201527f6b794a4b666858552f3f66696c656e616d653d736d65616d622e6a736f6e0000604082015250565b5f615094605e83614a0d565b915061509f82615014565b606082019050919050565b5f6020820190508181035f8301526150c181615088565b9050919050565b5f819050919050565b5f815f1b9050919050565b5f6150f66150f16150ec846150c8565b6150d1565b61439b565b9050919050565b615106816150dc565b82525050565b5f60208201905061511f5f8301846150fd565b92915050565b5f819050919050565b5f819050919050565b5f61515161514c61514784615125565b61512e565b613f77565b9050919050565b61516181615137565b82525050565b5f60208201905061517a5f830184615158565b92915050565b5f6020820190508181035f8301526151988184614e6b565b905092915050565b5f819050919050565b5f6151c36151be6151b9846151a0565b61512e565b613f77565b9050919050565b6151d3816151a9565b82525050565b5f6020820190506151ec5f8301846151ca565b92915050565b7f4552433732314d657461646174613a2055524920717565727920666f72206e6f5f8201527f6e6578697374656e7420746f6b656e0000000000000000000000000000000000602082015250565b5f61524c602f83613ed7565b9150615257826151f2565b604082019050919050565b5f6020820190508181035f83015261527981615240565b9050919050565b7f2e6a736f6e0000000000000000000000000000000000000000000000000000005f82015250565b5f6152b4600583614d6c565b91506152bf82615280565b600582019050919050565b5f6152d58285614d76565b91506152e18284614d76565b91506152ec826152a8565b91508190509392505050565b5f81519050919050565b5f82825260208201905092915050565b5f61531c826152f8565b6153268185615302565b9350615336818560208601613ee7565b61533f81613f0f565b840191505092915050565b5f60808201905061535d5f830187614005565b61536a6020830186614005565b6153776040830185614095565b81810360608301526153898184615312565b905095945050505050565b5f815190506153a281613e45565b92915050565b5f602082840312156153bd576153bc613e12565b5b5f6153ca84828501615394565b91505092915050565b5f6060820190506153e65f8301866149d7565b6153f36020830185614790565b6154006040830184614790565b949350505050565b5f61541282613f77565b915061541d83613f77565b925082820390508181111561543557615434614df0565b5b92915050565b7f4e487b71000000000000000000000000000000000000000000000000000000005f52603260045260245ffd5b7f4e487b71000000000000000000000000000000000000000000000000000000005f52601260045260245ffdfea2646970667358221220328eafd912cf7eeb8a56d7cb0cc4997b98433ea35a83617cfd92b9d93faf57e564736f6c63430008170033",
			"opcodes": "PUSH1 0xA0 PUSH1 0x40 MSTORE PUSH3 0x18 PUSH1 0x1 PUSH0 DUP1 PUSH3 0x209 PUSH1 0x20 SHL PUSH1 0x20 SHR JUMP JUMPDEST PUSH1 0x80 SWAP1 DUP2 MSTORE POP CALLVALUE DUP1 ISZERO PUSH3 0x2A JUMPI PUSH0 DUP1 REVERT JUMPDEST POP PUSH1 0x40 MLOAD PUSH3 0x62B1 CODESIZE SUB DUP1 PUSH3 0x62B1 DUP4 CODECOPY DUP2 DUP2 ADD PUSH1 0x40 MSTORE DUP2 ADD SWAP1 PUSH3 0x50 SWAP2 SWAP1 PUSH3 0x8DB JUMP JUMPDEST DUP2 DUP2 PUSH20 0x0 PUSH4 0x5B43BC99 DUP4 PUSH1 0x40 MLOAD DUP3 PUSH4 0xFFFFFFFF AND PUSH1 0xE0 SHL DUP2 MSTORE PUSH1 0x4 ADD PUSH3 0x8B SWAP2 SWAP1 PUSH3 0x9B8 JUMP JUMPDEST PUSH0 PUSH1 0x40 MLOAD DUP1 DUP4 SUB DUP2 DUP7 DUP1 EXTCODESIZE ISZERO DUP1 ISZERO PUSH3 0xA2 JUMPI PUSH0 DUP1 REVERT JUMPDEST POP GAS DELEGATECALL ISZERO DUP1 ISZERO PUSH3 0xB5 JUMPI RETURNDATASIZE PUSH0 DUP1 RETURNDATACOPY RETURNDATASIZE PUSH0 REVERT JUMPDEST POP POP POP POP PUSH20 0x0 PUSH4 0x41BB0559 DUP3 PUSH1 0x40 MLOAD DUP3 PUSH4 0xFFFFFFFF AND PUSH1 0xE0 SHL DUP2 MSTORE PUSH1 0x4 ADD PUSH3 0xF2 SWAP2 SWAP1 PUSH3 0x9B8 JUMP JUMPDEST PUSH0 PUSH1 0x40 MLOAD DUP1 DUP4 SUB DUP2 DUP7 DUP1 EXTCODESIZE ISZERO DUP1 ISZERO PUSH3 0x109 JUMPI PUSH0 DUP1 REVERT JUMPDEST POP GAS DELEGATECALL ISZERO DUP1 ISZERO PUSH3 0x11C JUMPI RETURNDATASIZE PUSH0 DUP1 RETURNDATACOPY RETURNDATASIZE PUSH0 REVERT JUMPDEST POP POP POP POP PUSH20 0x0 PUSH4 0x345E7B28 PUSH3 0x14A PUSH3 0x232 PUSH1 0x20 SHL PUSH1 0x20 SHR JUMP JUMPDEST PUSH1 0x40 MLOAD DUP3 PUSH4 0xFFFFFFFF AND PUSH1 0xE0 SHL DUP2 MSTORE PUSH1 0x4 ADD PUSH3 0x168 SWAP2 SWAP1 PUSH3 0x9F4 JUMP JUMPDEST PUSH0 PUSH1 0x40 MLOAD DUP1 DUP4 SUB DUP2 DUP7 DUP1 EXTCODESIZE ISZERO DUP1 ISZERO PUSH3 0x17F JUMPI PUSH0 DUP1 REVERT JUMPDEST POP GAS DELEGATECALL ISZERO DUP1 ISZERO PUSH3 0x192 JUMPI RETURNDATASIZE PUSH0 DUP1 RETURNDATACOPY RETURNDATASIZE PUSH0 REVERT JUMPDEST POP POP POP POP PUSH3 0x1A6 PUSH3 0x232 PUSH1 0x20 SHL PUSH1 0x20 SHR JUMP JUMPDEST PUSH3 0x1B6 PUSH3 0x23A PUSH1 0x20 SHL PUSH1 0x20 SHR JUMP JUMPDEST LT ISZERO PUSH3 0x1D6 JUMPI PUSH3 0x1D5 PUSH4 0xFED8210F PUSH1 0xE0 SHL PUSH3 0x261 PUSH1 0x20 SHL PUSH1 0x20 SHR JUMP JUMPDEST JUMPDEST POP POP PUSH1 0x1 PUSH0 DUP2 SWAP1 SSTORE POP PUSH3 0x1EF PUSH3 0x269 PUSH1 0x20 SHL PUSH1 0x20 SHR JUMP JUMPDEST PUSH3 0x201 DUP3 DUP3 PUSH3 0x3ED PUSH1 0x20 SHL PUSH1 0x20 SHR JUMP JUMPDEST POP POP PUSH3 0xDCD JUMP JUMPDEST PUSH0 DUP2 PUSH4 0xFFFFFFFF AND PUSH1 0x20 DUP5 PUSH4 0xFFFFFFFF AND SWAP1 SHL PUSH1 0x40 DUP7 PUSH4 0xFFFFFFFF AND SWAP1 SHL OR OR SWAP1 POP SWAP4 SWAP3 POP POP POP JUMP JUMPDEST PUSH0 PUSH1 0x1 SWAP1 POP SWAP1 JUMP JUMPDEST PUSH0 PUSH32 0xFFFFFFFFFFFFFFFFFFFFFFFFFFFFFFFFFFFFFFFFFFFFFFFFFFFFFFFFFFFFFFFF SWAP1 POP SWAP1 JUMP JUMPDEST DUP1 PUSH0 MSTORE PUSH1 0x4 PUSH0 REVERT JUMPDEST PUSH0 PUSH20 0xFFFFFFFFFFFFFFFFFFFFFFFFFFFFFFFFFFFFFFFF AND PUSH20 0x0 PUSH4 0x893D20E8 PUSH1 0x40 MLOAD DUP2 PUSH4 0xFFFFFFFF AND PUSH1 0xE0 SHL DUP2 MSTORE PUSH1 0x4 ADD PUSH1 0x20 PUSH1 0x40 MLOAD DUP1 DUP4 SUB DUP2 DUP7 GAS DELEGATECALL ISZERO DUP1 ISZERO PUSH3 0x2C8 JUMPI RETURNDATASIZE PUSH0 DUP1 RETURNDATACOPY RETURNDATASIZE PUSH0 REVERT JUMPDEST POP POP POP POP PUSH1 0x40 MLOAD RETURNDATASIZE PUSH1 0x1F NOT PUSH1 0x1F DUP3 ADD AND DUP3 ADD DUP1 PUSH1 0x40 MSTORE POP DUP2 ADD SWAP1 PUSH3 0x2EE SWAP2 SWAP1 PUSH3 0xA70 JUMP JUMPDEST PUSH20 0xFFFFFFFFFFFFFFFFFFFFFFFFFFFFFFFFFFFFFFFF AND SUB PUSH3 0x3EB JUMPI PUSH20 0x0 PUSH4 0x592BD705 PUSH3 0x334 PUSH3 0x74F PUSH1 0x20 SHL PUSH1 0x20 SHR JUMP JUMPDEST PUSH1 0x40 MLOAD DUP3 PUSH4 0xFFFFFFFF AND PUSH1 0xE0 SHL DUP2 MSTORE PUSH1 0x4 ADD PUSH3 0x352 SWAP2 SWAP1 PUSH3 0xAB1 JUMP JUMPDEST PUSH0 PUSH1 0x40 MLOAD DUP1 DUP4 SUB DUP2 DUP7 DUP1 EXTCODESIZE ISZERO DUP1 ISZERO PUSH3 0x369 JUMPI PUSH0 DUP1 REVERT JUMPDEST POP GAS DELEGATECALL ISZERO DUP1 ISZERO PUSH3 0x37C JUMPI RETURNDATASIZE PUSH0 DUP1 RETURNDATACOPY RETURNDATASIZE PUSH0 REVERT JUMPDEST POP POP POP POP PUSH20 0x0 PUSH4 0xF2F65960 PUSH3 0x93A80 PUSH1 0x40 MLOAD DUP3 PUSH4 0xFFFFFFFF AND PUSH1 0xE0 SHL DUP2 MSTORE PUSH1 0x4 ADD PUSH3 0x3BC SWAP2 SWAP1 PUSH3 0xB16 JUMP JUMPDEST PUSH0 PUSH1 0x40 MLOAD DUP1 DUP4 SUB DUP2 DUP7 DUP1 EXTCODESIZE ISZERO DUP1 ISZERO PUSH3 0x3D3 JUMPI PUSH0 DUP1 REVERT JUMPDEST POP GAS DELEGATECALL ISZERO DUP1 ISZERO PUSH3 0x3E6 JUMPI RETURNDATASIZE PUSH0 DUP1 RETURNDATACOPY RETURNDATASIZE PUSH0 REVERT JUMPDEST POP POP POP POP JUMPDEST JUMP JUMPDEST PUSH20 0x0 PUSH4 0xA05CC559 PUSH1 0x40 MLOAD DUP2 PUSH4 0xFFFFFFFF AND PUSH1 0xE0 SHL DUP2 MSTORE PUSH1 0x4 ADD PUSH3 0x424 SWAP1 PUSH3 0xBCB JUMP JUMPDEST PUSH0 PUSH1 0x40 MLOAD DUP1 DUP4 SUB DUP2 DUP7 DUP1 EXTCODESIZE ISZERO DUP1 ISZERO PUSH3 0x43B JUMPI PUSH0 DUP1 REVERT JUMPDEST POP GAS DELEGATECALL ISZERO DUP1 ISZERO PUSH3 0x44E JUMPI RETURNDATASIZE PUSH0 DUP1 RETURNDATACOPY RETURNDATASIZE PUSH0 REVERT JUMPDEST POP POP POP POP PUSH20 0x0 PUSH4 0x821ABC2D PUSH1 0x40 MLOAD DUP2 PUSH4 0xFFFFFFFF AND PUSH1 0xE0 SHL DUP2 MSTORE PUSH1 0x4 ADD PUSH3 0x489 SWAP1 PUSH3 0xC85 JUMP JUMPDEST PUSH0 PUSH1 0x40 MLOAD DUP1 DUP4 SUB DUP2 DUP7 DUP1 EXTCODESIZE ISZERO DUP1 ISZERO PUSH3 0x4A0 JUMPI PUSH0 DUP1 REVERT JUMPDEST POP GAS DELEGATECALL ISZERO DUP1 ISZERO PUSH3 0x4B3 JUMPI RETURNDATASIZE PUSH0 DUP1 RETURNDATACOPY RETURNDATASIZE PUSH0 REVERT JUMPDEST POP POP POP POP PUSH20 0x0 PUSH4 0x3802497B PUSH32 0xDFB96C060B2E58F09345A394FD8E994A6E7AC3539CDD256304C6E181A216752E PUSH1 0x40 MLOAD DUP3 PUSH4 0xFFFFFFFF AND PUSH1 0xE0 SHL DUP2 MSTORE PUSH1 0x4 ADD PUSH3 0x510 SWAP2 SWAP1 PUSH3 0xCFA JUMP JUMPDEST PUSH0 PUSH1 0x40 MLOAD DUP1 DUP4 SUB DUP2 DUP7 DUP1 EXTCODESIZE ISZERO DUP1 ISZERO PUSH3 0x527 JUMPI PUSH0 DUP1 REVERT JUMPDEST POP GAS DELEGATECALL ISZERO DUP1 ISZERO PUSH3 0x53A JUMPI RETURNDATASIZE PUSH0 DUP1 RETURNDATACOPY RETURNDATASIZE PUSH0 REVERT JUMPDEST POP POP POP POP PUSH20 0x0 PUSH4 0x39B37AB0 PUSH8 0xC93A592CFB2A0000 PUSH1 0x40 MLOAD DUP3 PUSH4 0xFFFFFFFF AND PUSH1 0xE0 SHL DUP2 MSTORE PUSH1 0x4 ADD PUSH3 0x57F SWAP2 SWAP1 PUSH3 0xD56 JUMP JUMPDEST PUSH0 PUSH1 0x40 MLOAD DUP1 DUP4 SUB DUP2 DUP7 DUP1 EXTCODESIZE ISZERO DUP1 ISZERO PUSH3 0x596 JUMPI PUSH0 DUP1 REVERT JUMPDEST POP GAS DELEGATECALL ISZERO DUP1 ISZERO PUSH3 0x5A9 JUMPI RETURNDATASIZE PUSH0 DUP1 RETURNDATACOPY RETURNDATASIZE PUSH0 REVERT JUMPDEST POP POP POP POP PUSH20 0x0 PUSH4 0x5B43BC99 DUP4 PUSH1 0x40 MLOAD DUP3 PUSH4 0xFFFFFFFF AND PUSH1 0xE0 SHL DUP2 MSTORE PUSH1 0x4 ADD PUSH3 0x5E6 SWAP2 SWAP1 PUSH3 0x9B8 JUMP JUMPDEST PUSH0 PUSH1 0x40 MLOAD DUP1 DUP4 SUB DUP2 DUP7 DUP1 EXTCODESIZE ISZERO DUP1 ISZERO PUSH3 0x5FD JUMPI PUSH0 DUP1 REVERT JUMPDEST POP GAS DELEGATECALL ISZERO DUP1 ISZERO PUSH3 0x610 JUMPI RETURNDATASIZE PUSH0 DUP1 RETURNDATACOPY RETURNDATASIZE PUSH0 REVERT JUMPDEST POP POP POP POP PUSH20 0x0 PUSH4 0x41BB0559 DUP3 PUSH1 0x40 MLOAD DUP3 PUSH4 0xFFFFFFFF AND PUSH1 0xE0 SHL DUP2 MSTORE PUSH1 0x4 ADD PUSH3 0x64D SWAP2 SWAP1 PUSH3 0x9B8 JUMP JUMPDEST PUSH0 PUSH1 0x40 MLOAD DUP1 DUP4 SUB DUP2 DUP7 DUP1 EXTCODESIZE ISZERO DUP1 ISZERO PUSH3 0x664 JUMPI PUSH0 DUP1 REVERT JUMPDEST POP GAS DELEGATECALL ISZERO DUP1 ISZERO PUSH3 0x677 JUMPI RETURNDATASIZE PUSH0 DUP1 RETURNDATACOPY RETURNDATASIZE PUSH0 REVERT JUMPDEST POP POP POP POP PUSH20 0x0 PUSH4 0x345E7B28 PUSH1 0x1 PUSH1 0x40 MLOAD DUP3 PUSH4 0xFFFFFFFF AND PUSH1 0xE0 SHL DUP2 MSTORE PUSH1 0x4 ADD PUSH3 0x6B5 SWAP2 SWAP1 PUSH3 0xDB2 JUMP JUMPDEST PUSH0 PUSH1 0x40 MLOAD DUP1 DUP4 SUB DUP2 DUP7 DUP1 EXTCODESIZE ISZERO DUP1 ISZERO PUSH3 0x6CC JUMPI PUSH0 DUP1 REVERT JUMPDEST POP GAS DELEGATECALL ISZERO DUP1 ISZERO PUSH3 0x6DF JUMPI RETURNDATASIZE PUSH0 DUP1 RETURNDATACOPY RETURNDATASIZE PUSH0 REVERT JUMPDEST POP POP POP POP PUSH20 0x0 PUSH4 0x32B07B43 PUSH1 0x1 PUSH1 0x40 MLOAD DUP3 PUSH4 0xFFFFFFFF AND PUSH1 0xE0 SHL DUP2 MSTORE PUSH1 0x4 ADD PUSH3 0x71D SWAP2 SWAP1 PUSH3 0xDB2 JUMP JUMPDEST PUSH0 PUSH1 0x40 MLOAD DUP1 DUP4 SUB DUP2 DUP7 DUP1 EXTCODESIZE ISZERO DUP1 ISZERO PUSH3 0x734 JUMPI PUSH0 DUP1 REVERT JUMPDEST POP GAS DELEGATECALL ISZERO DUP1 ISZERO PUSH3 0x747 JUMPI RETURNDATASIZE PUSH0 DUP1 RETURNDATACOPY RETURNDATASIZE PUSH0 REVERT JUMPDEST POP POP POP POP POP POP JUMP JUMPDEST PUSH0 CALLER SWAP1 POP SWAP1 JUMP JUMPDEST PUSH0 PUSH1 0x40 MLOAD SWAP1 POP SWAP1 JUMP JUMPDEST PUSH0 DUP1 REVERT JUMPDEST PUSH0 DUP1 REVERT JUMPDEST PUSH0 DUP1 REVERT JUMPDEST PUSH0 DUP1 REVERT JUMPDEST PUSH0 PUSH1 0x1F NOT PUSH1 0x1F DUP4 ADD AND SWAP1 POP SWAP2 SWAP1 POP JUMP JUMPDEST PUSH32 0x4E487B7100000000000000000000000000000000000000000000000000000000 PUSH0 MSTORE PUSH1 0x41 PUSH1 0x4 MSTORE PUSH1 0x24 PUSH0 REVERT JUMPDEST PUSH3 0x7B7 DUP3 PUSH3 0x76F JUMP JUMPDEST DUP2 ADD DUP2 DUP2 LT PUSH8 0xFFFFFFFFFFFFFFFF DUP3 GT OR ISZERO PUSH3 0x7D9 JUMPI PUSH3 0x7D8 PUSH3 0x77F JUMP JUMPDEST JUMPDEST DUP1 PUSH1 0x40 MSTORE POP POP POP JUMP JUMPDEST PUSH0 PUSH3 0x7ED PUSH3 0x756 JUMP JUMPDEST SWAP1 POP PUSH3 0x7FB DUP3 DUP3 PUSH3 0x7AC JUMP JUMPDEST SWAP2 SWAP1 POP JUMP JUMPDEST PUSH0 PUSH8 0xFFFFFFFFFFFFFFFF DUP3 GT ISZERO PUSH3 0x81D JUMPI PUSH3 0x81C PUSH3 0x77F JUMP JUMPDEST JUMPDEST PUSH3 0x828 DUP3 PUSH3 0x76F JUMP JUMPDEST SWAP1 POP PUSH1 0x20 DUP2 ADD SWAP1 POP SWAP2 SWAP1 POP JUMP JUMPDEST PUSH0 JUMPDEST DUP4 DUP2 LT ISZERO PUSH3 0x854 JUMPI DUP1 DUP3 ADD MLOAD DUP2 DUP5 ADD MSTORE PUSH1 0x20 DUP2 ADD SWAP1 POP PUSH3 0x837 JUMP JUMPDEST PUSH0 DUP5 DUP5 ADD MSTORE POP POP POP POP JUMP JUMPDEST PUSH0 PUSH3 0x875 PUSH3 0x86F DUP5 PUSH3 0x800 JUMP JUMPDEST PUSH3 0x7E2 JUMP JUMPDEST SWAP1 POP DUP3 DUP2 MSTORE PUSH1 0x20 DUP2 ADD DUP5 DUP5 DUP5 ADD GT ISZERO PUSH3 0x894 JUMPI PUSH3 0x893 PUSH3 0x76B JUMP JUMPDEST JUMPDEST PUSH3 0x8A1 DUP5 DUP3 DUP6 PUSH3 0x835 JUMP JUMPDEST POP SWAP4 SWAP3 POP POP POP JUMP JUMPDEST PUSH0 DUP3 PUSH1 0x1F DUP4 ADD SLT PUSH3 0x8C0 JUMPI PUSH3 0x8BF PUSH3 0x767 JUMP JUMPDEST JUMPDEST DUP2 MLOAD PUSH3 0x8D2 DUP5 DUP3 PUSH1 0x20 DUP7 ADD PUSH3 0x85F JUMP JUMPDEST SWAP2 POP POP SWAP3 SWAP2 POP POP JUMP JUMPDEST PUSH0 DUP1 PUSH1 0x40 DUP4 DUP6 SUB SLT ISZERO PUSH3 0x8F4 JUMPI PUSH3 0x8F3 PUSH3 0x75F JUMP JUMPDEST JUMPDEST PUSH0 DUP4 ADD MLOAD PUSH8 0xFFFFFFFFFFFFFFFF DUP2 GT ISZERO PUSH3 0x914 JUMPI PUSH3 0x913 PUSH3 0x763 JUMP JUMPDEST JUMPDEST PUSH3 0x922 DUP6 DUP3 DUP7 ADD PUSH3 0x8A9 JUMP JUMPDEST SWAP3 POP POP PUSH1 0x20 DUP4 ADD MLOAD PUSH8 0xFFFFFFFFFFFFFFFF DUP2 GT ISZERO PUSH3 0x946 JUMPI PUSH3 0x945 PUSH3 0x763 JUMP JUMPDEST JUMPDEST PUSH3 0x954 DUP6 DUP3 DUP7 ADD PUSH3 0x8A9 JUMP JUMPDEST SWAP2 POP POP SWAP3 POP SWAP3 SWAP1 POP JUMP JUMPDEST PUSH0 DUP2 MLOAD SWAP1 POP SWAP2 SWAP1 POP JUMP JUMPDEST PUSH0 DUP3 DUP3 MSTORE PUSH1 0x20 DUP3 ADD SWAP1 POP SWAP3 SWAP2 POP POP JUMP JUMPDEST PUSH0 PUSH3 0x984 DUP3 PUSH3 0x95E JUMP JUMPDEST PUSH3 0x990 DUP2 DUP6 PUSH3 0x968 JUMP JUMPDEST SWAP4 POP PUSH3 0x9A2 DUP2 DUP6 PUSH1 0x20 DUP7 ADD PUSH3 0x835 JUMP JUMPDEST PUSH3 0x9AD DUP2 PUSH3 0x76F JUMP JUMPDEST DUP5 ADD SWAP2 POP POP SWAP3 SWAP2 POP POP JUMP JUMPDEST PUSH0 PUSH1 0x20 DUP3 ADD SWAP1 POP DUP2 DUP2 SUB PUSH0 DUP4 ADD MSTORE PUSH3 0x9D2 DUP2 DUP5 PUSH3 0x978 JUMP JUMPDEST SWAP1 POP SWAP3 SWAP2 POP POP JUMP JUMPDEST PUSH0 DUP2 SWAP1 POP SWAP2 SWAP1 POP JUMP JUMPDEST PUSH3 0x9EE DUP2 PUSH3 0x9DA JUMP JUMPDEST DUP3 MSTORE POP POP JUMP JUMPDEST PUSH0 PUSH1 0x20 DUP3 ADD SWAP1 POP PUSH3 0xA09 PUSH0 DUP4 ADD DUP5 PUSH3 0x9E3 JUMP JUMPDEST SWAP3 SWAP2 POP POP JUMP JUMPDEST PUSH0 PUSH20 0xFFFFFFFFFFFFFFFFFFFFFFFFFFFFFFFFFFFFFFFF DUP3 AND SWAP1 POP SWAP2 SWAP1 POP JUMP JUMPDEST PUSH0 PUSH3 0xA3A DUP3 PUSH3 0xA0F JUMP JUMPDEST SWAP1 POP SWAP2 SWAP1 POP JUMP JUMPDEST PUSH3 0xA4C DUP2 PUSH3 0xA2E JUMP JUMPDEST DUP2 EQ PUSH3 0xA57 JUMPI PUSH0 DUP1 REVERT JUMPDEST POP JUMP JUMPDEST PUSH0 DUP2 MLOAD SWAP1 POP PUSH3 0xA6A DUP2 PUSH3 0xA41 JUMP JUMPDEST SWAP3 SWAP2 POP POP JUMP JUMPDEST PUSH0 PUSH1 0x20 DUP3 DUP5 SUB SLT ISZERO PUSH3 0xA88 JUMPI PUSH3 0xA87 PUSH3 0x75F JUMP JUMPDEST JUMPDEST PUSH0 PUSH3 0xA97 DUP5 DUP3 DUP6 ADD PUSH3 0xA5A JUMP JUMPDEST SWAP2 POP POP SWAP3 SWAP2 POP POP JUMP JUMPDEST PUSH3 0xAAB DUP2 PUSH3 0xA2E JUMP JUMPDEST DUP3 MSTORE POP POP JUMP JUMPDEST PUSH0 PUSH1 0x20 DUP3 ADD SWAP1 POP PUSH3 0xAC6 PUSH0 DUP4 ADD DUP5 PUSH3 0xAA0 JUMP JUMPDEST SWAP3 SWAP2 POP POP JUMP JUMPDEST PUSH0 DUP2 SWAP1 POP SWAP2 SWAP1 POP JUMP JUMPDEST PUSH0 DUP2 SWAP1 POP SWAP2 SWAP1 POP JUMP JUMPDEST PUSH0 PUSH3 0xAFE PUSH3 0xAF8 PUSH3 0xAF2 DUP5 PUSH3 0xACC JUMP JUMPDEST PUSH3 0xAD5 JUMP JUMPDEST PUSH3 0x9DA JUMP JUMPDEST SWAP1 POP SWAP2 SWAP1 POP JUMP JUMPDEST PUSH3 0xB10 DUP2 PUSH3 0xADE JUMP JUMPDEST DUP3 MSTORE POP POP JUMP JUMPDEST PUSH0 PUSH1 0x20 DUP3 ADD SWAP1 POP PUSH3 0xB2B PUSH0 DUP4 ADD DUP5 PUSH3 0xB05 JUMP JUMPDEST SWAP3 SWAP2 POP POP JUMP JUMPDEST PUSH32 0x68747470733A2F2F697066732E737765622E72752F697066732F516D62704E39 PUSH0 DUP3 ADD MSTORE PUSH32 0x716578677A6E6B705445516D7264786E53665759434441624C6B42786D357641 PUSH1 0x20 DUP3 ADD MSTORE PUSH32 0x4337316A7A52786F2F0000000000000000000000000000000000000000000000 PUSH1 0x40 DUP3 ADD MSTORE POP JUMP JUMPDEST PUSH0 PUSH3 0xBB3 PUSH1 0x49 DUP4 PUSH3 0x968 JUMP JUMPDEST SWAP2 POP PUSH3 0xBC0 DUP3 PUSH3 0xB31 JUMP JUMPDEST PUSH1 0x60 DUP3 ADD SWAP1 POP SWAP2 SWAP1 POP JUMP JUMPDEST PUSH0 PUSH1 0x20 DUP3 ADD SWAP1 POP DUP2 DUP2 SUB PUSH0 DUP4 ADD MSTORE PUSH3 0xBE4 DUP2 PUSH3 0xBA5 JUMP JUMPDEST SWAP1 POP SWAP2 SWAP1 POP JUMP JUMPDEST PUSH32 0x68747470733A2F2F697066732E737765622E72752F697066732F516D59526253 PUSH0 DUP3 ADD MSTORE PUSH32 0x4D3251617A47623551486F676F64714A666F505661536962333274745570764E PUSH1 0x20 DUP3 ADD MSTORE PUSH32 0x6B794A4B666858552F3F66696C656E616D653D736D65616D622E6A736F6E0000 PUSH1 0x40 DUP3 ADD MSTORE POP JUMP JUMPDEST PUSH0 PUSH3 0xC6D PUSH1 0x5E DUP4 PUSH3 0x968 JUMP JUMPDEST SWAP2 POP PUSH3 0xC7A DUP3 PUSH3 0xBEB JUMP JUMPDEST PUSH1 0x60 DUP3 ADD SWAP1 POP SWAP2 SWAP1 POP JUMP JUMPDEST PUSH0 PUSH1 0x20 DUP3 ADD SWAP1 POP DUP2 DUP2 SUB PUSH0 DUP4 ADD MSTORE PUSH3 0xC9E DUP2 PUSH3 0xC5F JUMP JUMPDEST SWAP1 POP SWAP2 SWAP1 POP JUMP JUMPDEST PUSH0 DUP2 SWAP1 POP SWAP2 SWAP1 POP JUMP JUMPDEST PUSH0 DUP2 SWAP1 POP SWAP2 SWAP1 POP JUMP JUMPDEST PUSH0 DUP2 PUSH0 SHL SWAP1 POP SWAP2 SWAP1 POP JUMP JUMPDEST PUSH0 PUSH3 0xCE2 PUSH3 0xCDC PUSH3 0xCD6 DUP5 PUSH3 0xCA5 JUMP JUMPDEST PUSH3 0xCB7 JUMP JUMPDEST PUSH3 0xCAE JUMP JUMPDEST SWAP1 POP SWAP2 SWAP1 POP JUMP JUMPDEST PUSH3 0xCF4 DUP2 PUSH3 0xCC2 JUMP JUMPDEST DUP3 MSTORE POP POP JUMP JUMPDEST PUSH0 PUSH1 0x20 DUP3 ADD SWAP1 POP PUSH3 0xD0F PUSH0 DUP4 ADD DUP5 PUSH3 0xCE9 JUMP JUMPDEST SWAP3 SWAP2 POP POP JUMP JUMPDEST PUSH0 DUP2 SWAP1 POP SWAP2 SWAP1 POP JUMP JUMPDEST PUSH0 PUSH3 0xD3E PUSH3 0xD38 PUSH3 0xD32 DUP5 PUSH3 0xD15 JUMP JUMPDEST PUSH3 0xAD5 JUMP JUMPDEST PUSH3 0x9DA JUMP JUMPDEST SWAP1 POP SWAP2 SWAP1 POP JUMP JUMPDEST PUSH3 0xD50 DUP2 PUSH3 0xD1E JUMP JUMPDEST DUP3 MSTORE POP POP JUMP JUMPDEST PUSH0 PUSH1 0x20 DUP3 ADD SWAP1 POP PUSH3 0xD6B PUSH0 DUP4 ADD DUP5 PUSH3 0xD45 JUMP JUMPDEST SWAP3 SWAP2 POP POP JUMP JUMPDEST PUSH0 DUP2 SWAP1 POP SWAP2 SWAP1 POP JUMP JUMPDEST PUSH0 PUSH3 0xD9A PUSH3 0xD94 PUSH3 0xD8E DUP5 PUSH3 0xD71 JUMP JUMPDEST PUSH3 0xAD5 JUMP JUMPDEST PUSH3 0x9DA JUMP JUMPDEST SWAP1 POP SWAP2 SWAP1 POP JUMP JUMPDEST PUSH3 0xDAC DUP2 PUSH3 0xD7A JUMP JUMPDEST DUP3 MSTORE POP POP JUMP JUMPDEST PUSH0 PUSH1 0x20 DUP3 ADD SWAP1 POP PUSH3 0xDC7 PUSH0 DUP4 ADD DUP5 PUSH3 0xDA1 JUMP JUMPDEST SWAP3 SWAP2 POP POP JUMP JUMPDEST PUSH1 0x80 MLOAD PUSH2 0x54CB PUSH3 0xDE6 PUSH0 CODECOPY PUSH0 PUSH2 0x16AD ADD MSTORE PUSH2 0x54CB PUSH0 RETURN INVALID PUSH1 0x80 PUSH1 0x40 MSTORE PUSH1 0x4 CALLDATASIZE LT PUSH2 0x203 JUMPI PUSH0 CALLDATALOAD PUSH1 0xE0 SHR DUP1 PUSH4 0x69FE0E2D GT PUSH2 0x117 JUMPI DUP1 PUSH4 0xA125C824 GT PUSH2 0x9F JUMPI DUP1 PUSH4 0xB88D4FDE GT PUSH2 0x6E JUMPI DUP1 PUSH4 0xB88D4FDE EQ PUSH2 0x715 JUMPI DUP1 PUSH4 0xC87B56DD EQ PUSH2 0x731 JUMPI DUP1 PUSH4 0xDDCA3F43 EQ PUSH2 0x76D JUMPI DUP1 PUSH4 0xDFBF2E67 EQ PUSH2 0x797 JUMPI DUP1 PUSH4 0xE985E9C5 EQ PUSH2 0x7BF JUMPI PUSH2 0x203 JUMP JUMPDEST DUP1 PUSH4 0xA125C824 EQ PUSH2 0x67F JUMPI DUP1 PUSH4 0xA22CB465 EQ PUSH2 0x6A7 JUMPI DUP1 PUSH4 0xAD5B1662 EQ PUSH2 0x6CF JUMPI DUP1 PUSH4 0xB31B2E13 EQ PUSH2 0x6F9 JUMPI PUSH2 0x203 JUMP JUMPDEST DUP1 PUSH4 0x75794A3C GT PUSH2 0xE6 JUMPI DUP1 PUSH4 0x75794A3C EQ PUSH2 0x5AD JUMPI DUP1 PUSH4 0x81ED9808 EQ PUSH2 0x5D7 JUMPI DUP1 PUSH4 0x90507C78 EQ PUSH2 0x601 JUMPI DUP1 PUSH4 0x95D89B41 EQ PUSH2 0x62B JUMPI DUP1 PUSH4 0x9B865B43 EQ PUSH2 0x655 JUMPI PUSH2 0x203 JUMP JUMPDEST DUP1 PUSH4 0x69FE0E2D EQ PUSH2 0x4F7 JUMPI DUP1 PUSH4 0x6C0360EB EQ PUSH2 0x51F JUMPI DUP1 PUSH4 0x7029144C EQ PUSH2 0x549 JUMPI DUP1 PUSH4 0x70A08231 EQ PUSH2 0x571 JUMPI PUSH2 0x203 JUMP JUMPDEST DUP1 PUSH4 0x23B872DD GT PUSH2 0x19A JUMPI DUP1 PUSH4 0x49E0F980 GT PUSH2 0x169 JUMPI DUP1 PUSH4 0x49E0F980 EQ PUSH2 0x3F3 JUMPI DUP1 PUSH4 0x4BCA8AA3 EQ PUSH2 0x41B JUMPI DUP1 PUSH4 0x4F558E79 EQ PUSH2 0x457 JUMPI DUP1 PUSH4 0x55F804B3 EQ PUSH2 0x493 JUMPI DUP1 PUSH4 0x6352211E EQ PUSH2 0x4BB JUMPI PUSH2 0x203 JUMP JUMPDEST DUP1 PUSH4 0x23B872DD EQ PUSH2 0x37D JUMPI DUP1 PUSH4 0x3BB04B1F EQ PUSH2 0x399 JUMPI DUP1 PUSH4 0x3CCFD60B EQ PUSH2 0x3C1 JUMPI DUP1 PUSH4 0x42842E0E EQ PUSH2 0x3D7 JUMPI PUSH2 0x203 JUMP JUMPDEST DUP1 PUSH4 0xC142A43 GT PUSH2 0x1D6 JUMPI DUP1 PUSH4 0xC142A43 EQ PUSH2 0x2C5 JUMPI DUP1 PUSH4 0x150B7A02 EQ PUSH2 0x2EF JUMPI DUP1 PUSH4 0x162094C4 EQ PUSH2 0x32B JUMPI DUP1 PUSH4 0x18160DDD EQ PUSH2 0x353 JUMPI PUSH2 0x203 JUMP JUMPDEST DUP1 PUSH4 0x1FFC9A7 EQ PUSH2 0x207 JUMPI DUP1 PUSH4 0x6FDDE03 EQ PUSH2 0x243 JUMPI DUP1 PUSH4 0x81812FC EQ PUSH2 0x26D JUMPI DUP1 PUSH4 0x95EA7B3 EQ PUSH2 0x2A9 JUMPI JUMPDEST PUSH0 DUP1 REVERT JUMPDEST CALLVALUE DUP1 ISZERO PUSH2 0x212 JUMPI PUSH0 DUP1 REVERT JUMPDEST POP PUSH2 0x22D PUSH1 0x4 DUP1 CALLDATASIZE SUB DUP2 ADD SWAP1 PUSH2 0x228 SWAP2 SWAP1 PUSH2 0x3E6F JUMP JUMPDEST PUSH2 0x7FB JUMP JUMPDEST PUSH1 0x40 MLOAD PUSH2 0x23A SWAP2 SWAP1 PUSH2 0x3EB4 JUMP JUMPDEST PUSH1 0x40 MLOAD DUP1 SWAP2 SUB SWAP1 RETURN JUMPDEST CALLVALUE DUP1 ISZERO PUSH2 0x24E JUMPI PUSH0 DUP1 REVERT JUMPDEST POP PUSH2 0x257 PUSH2 0x88C JUMP JUMPDEST PUSH1 0x40 MLOAD PUSH2 0x264 SWAP2 SWAP1 PUSH2 0x3F57 JUMP JUMPDEST PUSH1 0x40 MLOAD DUP1 SWAP2 SUB SWAP1 RETURN JUMPDEST CALLVALUE DUP1 ISZERO PUSH2 0x278 JUMPI PUSH0 DUP1 REVERT JUMPDEST POP PUSH2 0x293 PUSH1 0x4 DUP1 CALLDATASIZE SUB DUP2 ADD SWAP1 PUSH2 0x28E SWAP2 SWAP1 PUSH2 0x3FAA JUMP JUMPDEST PUSH2 0x901 JUMP JUMPDEST PUSH1 0x40 MLOAD PUSH2 0x2A0 SWAP2 SWAP1 PUSH2 0x4014 JUMP JUMPDEST PUSH1 0x40 MLOAD DUP1 SWAP2 SUB SWAP1 RETURN JUMPDEST PUSH2 0x2C3 PUSH1 0x4 DUP1 CALLDATASIZE SUB DUP2 ADD SWAP1 PUSH2 0x2BE SWAP2 SWAP1 PUSH2 0x4057 JUMP JUMPDEST PUSH2 0x9A0 JUMP JUMPDEST STOP JUMPDEST CALLVALUE DUP1 ISZERO PUSH2 0x2D0 JUMPI PUSH0 DUP1 REVERT JUMPDEST POP PUSH2 0x2D9 PUSH2 0x9B0 JUMP JUMPDEST PUSH1 0x40 MLOAD PUSH2 0x2E6 SWAP2 SWAP1 PUSH2 0x40A4 JUMP JUMPDEST PUSH1 0x40 MLOAD DUP1 SWAP2 SUB SWAP1 RETURN JUMPDEST CALLVALUE DUP1 ISZERO PUSH2 0x2FA JUMPI PUSH0 DUP1 REVERT JUMPDEST POP PUSH2 0x315 PUSH1 0x4 DUP1 CALLDATASIZE SUB DUP2 ADD SWAP1 PUSH2 0x310 SWAP2 SWAP1 PUSH2 0x41E9 JUMP JUMPDEST PUSH2 0x9B6 JUMP JUMPDEST PUSH1 0x40 MLOAD PUSH2 0x322 SWAP2 SWAP1 PUSH2 0x4278 JUMP JUMPDEST PUSH1 0x40 MLOAD DUP1 SWAP2 SUB SWAP1 RETURN JUMPDEST CALLVALUE DUP1 ISZERO PUSH2 0x336 JUMPI PUSH0 DUP1 REVERT JUMPDEST POP PUSH2 0x351 PUSH1 0x4 DUP1 CALLDATASIZE SUB DUP2 ADD SWAP1 PUSH2 0x34C SWAP2 SWAP1 PUSH2 0x42EE JUMP JUMPDEST PUSH2 0x9C9 JUMP JUMPDEST STOP JUMPDEST CALLVALUE DUP1 ISZERO PUSH2 0x35E JUMPI PUSH0 DUP1 REVERT JUMPDEST POP PUSH2 0x367 PUSH2 0xAFA JUMP JUMPDEST PUSH1 0x40 MLOAD PUSH2 0x374 SWAP2 SWAP1 PUSH2 0x40A4 JUMP JUMPDEST PUSH1 0x40 MLOAD DUP1 SWAP2 SUB SWAP1 RETURN JUMPDEST PUSH2 0x397 PUSH1 0x4 DUP1 CALLDATASIZE SUB DUP2 ADD SWAP1 PUSH2 0x392 SWAP2 SWAP1 PUSH2 0x434B JUMP JUMPDEST PUSH2 0xC7E JUMP JUMPDEST STOP JUMPDEST CALLVALUE DUP1 ISZERO PUSH2 0x3A4 JUMPI PUSH0 DUP1 REVERT JUMPDEST POP PUSH2 0x3BF PUSH1 0x4 DUP1 CALLDATASIZE SUB DUP2 ADD SWAP1 PUSH2 0x3BA SWAP2 SWAP1 PUSH2 0x43CE JUMP JUMPDEST PUSH2 0xC99 JUMP JUMPDEST STOP JUMPDEST CALLVALUE DUP1 ISZERO PUSH2 0x3CC JUMPI PUSH0 DUP1 REVERT JUMPDEST POP PUSH2 0x3D5 PUSH2 0xDDE JUMP JUMPDEST STOP JUMPDEST PUSH2 0x3F1 PUSH1 0x4 DUP1 CALLDATASIZE SUB DUP2 ADD SWAP1 PUSH2 0x3EC SWAP2 SWAP1 PUSH2 0x434B JUMP JUMPDEST PUSH2 0xF78 JUMP JUMPDEST STOP JUMPDEST CALLVALUE DUP1 ISZERO PUSH2 0x3FE JUMPI PUSH0 DUP1 REVERT JUMPDEST POP PUSH2 0x419 PUSH1 0x4 DUP1 CALLDATASIZE SUB DUP2 ADD SWAP1 PUSH2 0x414 SWAP2 SWAP1 PUSH2 0x43CE JUMP JUMPDEST PUSH2 0xF97 JUMP JUMPDEST STOP JUMPDEST CALLVALUE DUP1 ISZERO PUSH2 0x426 JUMPI PUSH0 DUP1 REVERT JUMPDEST POP PUSH2 0x441 PUSH1 0x4 DUP1 CALLDATASIZE SUB DUP2 ADD SWAP1 PUSH2 0x43C SWAP2 SWAP1 PUSH2 0x4057 JUMP JUMPDEST PUSH2 0x10DC JUMP JUMPDEST PUSH1 0x40 MLOAD PUSH2 0x44E SWAP2 SWAP1 PUSH2 0x40A4 JUMP JUMPDEST PUSH1 0x40 MLOAD DUP1 SWAP2 SUB SWAP1 RETURN JUMPDEST CALLVALUE DUP1 ISZERO PUSH2 0x462 JUMPI PUSH0 DUP1 REVERT JUMPDEST POP PUSH2 0x47D PUSH1 0x4 DUP1 CALLDATASIZE SUB DUP2 ADD SWAP1 PUSH2 0x478 SWAP2 SWAP1 PUSH2 0x3FAA JUMP JUMPDEST PUSH2 0x115D JUMP JUMPDEST PUSH1 0x40 MLOAD PUSH2 0x48A SWAP2 SWAP1 PUSH2 0x3EB4 JUMP JUMPDEST PUSH1 0x40 MLOAD DUP1 SWAP2 SUB SWAP1 RETURN JUMPDEST CALLVALUE DUP1 ISZERO PUSH2 0x49E JUMPI PUSH0 DUP1 REVERT JUMPDEST POP PUSH2 0x4B9 PUSH1 0x4 DUP1 CALLDATASIZE SUB DUP2 ADD SWAP1 PUSH2 0x4B4 SWAP2 SWAP1 PUSH2 0x43F9 JUMP JUMPDEST PUSH2 0x116E JUMP JUMPDEST STOP JUMPDEST CALLVALUE DUP1 ISZERO PUSH2 0x4C6 JUMPI PUSH0 DUP1 REVERT JUMPDEST POP PUSH2 0x4E1 PUSH1 0x4 DUP1 CALLDATASIZE SUB DUP2 ADD SWAP1 PUSH2 0x4DC SWAP2 SWAP1 PUSH2 0x3FAA JUMP JUMPDEST PUSH2 0x12B6 JUMP JUMPDEST PUSH1 0x40 MLOAD PUSH2 0x4EE SWAP2 SWAP1 PUSH2 0x4014 JUMP JUMPDEST PUSH1 0x40 MLOAD DUP1 SWAP2 SUB SWAP1 RETURN JUMPDEST CALLVALUE DUP1 ISZERO PUSH2 0x502 JUMPI PUSH0 DUP1 REVERT JUMPDEST POP PUSH2 0x51D PUSH1 0x4 DUP1 CALLDATASIZE SUB DUP2 ADD SWAP1 PUSH2 0x518 SWAP2 SWAP1 PUSH2 0x3FAA JUMP JUMPDEST PUSH2 0x12C7 JUMP JUMPDEST STOP JUMPDEST CALLVALUE DUP1 ISZERO PUSH2 0x52A JUMPI PUSH0 DUP1 REVERT JUMPDEST POP PUSH2 0x533 PUSH2 0x140C JUMP JUMPDEST PUSH1 0x40 MLOAD PUSH2 0x540 SWAP2 SWAP1 PUSH2 0x3F57 JUMP JUMPDEST PUSH1 0x40 MLOAD DUP1 SWAP2 SUB SWAP1 RETURN JUMPDEST CALLVALUE DUP1 ISZERO PUSH2 0x554 JUMPI PUSH0 DUP1 REVERT JUMPDEST POP PUSH2 0x56F PUSH1 0x4 DUP1 CALLDATASIZE SUB DUP2 ADD SWAP1 PUSH2 0x56A SWAP2 SWAP1 PUSH2 0x44E2 JUMP JUMPDEST PUSH2 0x1481 JUMP JUMPDEST STOP JUMPDEST CALLVALUE DUP1 ISZERO PUSH2 0x57C JUMPI PUSH0 DUP1 REVERT JUMPDEST POP PUSH2 0x597 PUSH1 0x4 DUP1 CALLDATASIZE SUB DUP2 ADD SWAP1 PUSH2 0x592 SWAP2 SWAP1 PUSH2 0x4558 JUMP JUMPDEST PUSH2 0x156E JUMP JUMPDEST PUSH1 0x40 MLOAD PUSH2 0x5A4 SWAP2 SWAP1 PUSH2 0x40A4 JUMP JUMPDEST PUSH1 0x40 MLOAD DUP1 SWAP2 SUB SWAP1 RETURN JUMPDEST CALLVALUE DUP1 ISZERO PUSH2 0x5B8 JUMPI PUSH0 DUP1 REVERT JUMPDEST POP PUSH2 0x5C1 PUSH2 0x163A JUMP JUMPDEST PUSH1 0x40 MLOAD PUSH2 0x5CE SWAP2 SWAP1 PUSH2 0x40A4 JUMP JUMPDEST PUSH1 0x40 MLOAD DUP1 SWAP2 SUB SWAP1 RETURN JUMPDEST CALLVALUE DUP1 ISZERO PUSH2 0x5E2 JUMPI PUSH0 DUP1 REVERT JUMPDEST POP PUSH2 0x5EB PUSH2 0x16AB JUMP JUMPDEST PUSH1 0x40 MLOAD PUSH2 0x5F8 SWAP2 SWAP1 PUSH2 0x40A4 JUMP JUMPDEST PUSH1 0x40 MLOAD DUP1 SWAP2 SUB SWAP1 RETURN JUMPDEST CALLVALUE DUP1 ISZERO PUSH2 0x60C JUMPI PUSH0 DUP1 REVERT JUMPDEST POP PUSH2 0x615 PUSH2 0x16CF JUMP JUMPDEST PUSH1 0x40 MLOAD PUSH2 0x622 SWAP2 SWAP1 PUSH2 0x40A4 JUMP JUMPDEST PUSH1 0x40 MLOAD DUP1 SWAP2 SUB SWAP1 RETURN JUMPDEST CALLVALUE DUP1 ISZERO PUSH2 0x636 JUMPI PUSH0 DUP1 REVERT JUMPDEST POP PUSH2 0x63F PUSH2 0x16D5 JUMP JUMPDEST PUSH1 0x40 MLOAD PUSH2 0x64C SWAP2 SWAP1 PUSH2 0x3F57 JUMP JUMPDEST PUSH1 0x40 MLOAD DUP1 SWAP2 SUB SWAP1 RETURN JUMPDEST CALLVALUE DUP1 ISZERO PUSH2 0x660 JUMPI PUSH0 DUP1 REVERT JUMPDEST POP PUSH2 0x669 PUSH2 0x174A JUMP JUMPDEST PUSH1 0x40 MLOAD PUSH2 0x676 SWAP2 SWAP1 PUSH2 0x3F57 JUMP JUMPDEST PUSH1 0x40 MLOAD DUP1 SWAP2 SUB SWAP1 RETURN JUMPDEST CALLVALUE DUP1 ISZERO PUSH2 0x68A JUMPI PUSH0 DUP1 REVERT JUMPDEST POP PUSH2 0x6A5 PUSH1 0x4 DUP1 CALLDATASIZE SUB DUP2 ADD SWAP1 PUSH2 0x6A0 SWAP2 SWAP1 PUSH2 0x43F9 JUMP JUMPDEST PUSH2 0x1783 JUMP JUMPDEST STOP JUMPDEST CALLVALUE DUP1 ISZERO PUSH2 0x6B2 JUMPI PUSH0 DUP1 REVERT JUMPDEST POP PUSH2 0x6CD PUSH1 0x4 DUP1 CALLDATASIZE SUB DUP2 ADD SWAP1 PUSH2 0x6C8 SWAP2 SWAP1 PUSH2 0x45AD JUMP JUMPDEST PUSH2 0x18CB JUMP JUMPDEST STOP JUMPDEST CALLVALUE DUP1 ISZERO PUSH2 0x6DA JUMPI PUSH0 DUP1 REVERT JUMPDEST POP PUSH2 0x6E3 PUSH2 0x19A9 JUMP JUMPDEST PUSH1 0x40 MLOAD PUSH2 0x6F0 SWAP2 SWAP1 PUSH2 0x40A4 JUMP JUMPDEST PUSH1 0x40 MLOAD DUP1 SWAP2 SUB SWAP1 RETURN JUMPDEST PUSH2 0x713 PUSH1 0x4 DUP1 CALLDATASIZE SUB DUP2 ADD SWAP1 PUSH2 0x70E SWAP2 SWAP1 PUSH2 0x4640 JUMP JUMPDEST PUSH2 0x19AF JUMP JUMPDEST STOP JUMPDEST PUSH2 0x72F PUSH1 0x4 DUP1 CALLDATASIZE SUB DUP2 ADD SWAP1 PUSH2 0x72A SWAP2 SWAP1 PUSH2 0x41E9 JUMP JUMPDEST PUSH2 0x1D34 JUMP JUMPDEST STOP JUMPDEST CALLVALUE DUP1 ISZERO PUSH2 0x73C JUMPI PUSH0 DUP1 REVERT JUMPDEST POP PUSH2 0x757 PUSH1 0x4 DUP1 CALLDATASIZE SUB DUP2 ADD SWAP1 PUSH2 0x752 SWAP2 SWAP1 PUSH2 0x3FAA JUMP JUMPDEST PUSH2 0x1D85 JUMP JUMPDEST PUSH1 0x40 MLOAD PUSH2 0x764 SWAP2 SWAP1 PUSH2 0x3F57 JUMP JUMPDEST PUSH1 0x40 MLOAD DUP1 SWAP2 SUB SWAP1 RETURN JUMPDEST CALLVALUE DUP1 ISZERO PUSH2 0x778 JUMPI PUSH0 DUP1 REVERT JUMPDEST POP PUSH2 0x781 PUSH2 0x1E67 JUMP JUMPDEST PUSH1 0x40 MLOAD PUSH2 0x78E SWAP2 SWAP1 PUSH2 0x40A4 JUMP JUMPDEST PUSH1 0x40 MLOAD DUP1 SWAP2 SUB SWAP1 RETURN JUMPDEST CALLVALUE DUP1 ISZERO PUSH2 0x7A2 JUMPI PUSH0 DUP1 REVERT JUMPDEST POP PUSH2 0x7BD PUSH1 0x4 DUP1 CALLDATASIZE SUB DUP2 ADD SWAP1 PUSH2 0x7B8 SWAP2 SWAP1 PUSH2 0x43CE JUMP JUMPDEST PUSH2 0x1ED8 JUMP JUMPDEST STOP JUMPDEST CALLVALUE DUP1 ISZERO PUSH2 0x7CA JUMPI PUSH0 DUP1 REVERT JUMPDEST POP PUSH2 0x7E5 PUSH1 0x4 DUP1 CALLDATASIZE SUB DUP2 ADD SWAP1 PUSH2 0x7E0 SWAP2 SWAP1 PUSH2 0x469D JUMP JUMPDEST PUSH2 0x201D JUMP JUMPDEST PUSH1 0x40 MLOAD PUSH2 0x7F2 SWAP2 SWAP1 PUSH2 0x3EB4 JUMP JUMPDEST PUSH1 0x40 MLOAD DUP1 SWAP2 SUB SWAP1 RETURN JUMPDEST PUSH0 PUSH4 0x1FFC9A7 PUSH1 0xE0 SHL DUP3 PUSH28 0xFFFFFFFFFFFFFFFFFFFFFFFFFFFFFFFFFFFFFFFFFFFFFFFFFFFFFFFF NOT AND EQ DUP1 PUSH2 0x855 JUMPI POP PUSH4 0x80AC58CD PUSH1 0xE0 SHL DUP3 PUSH28 0xFFFFFFFFFFFFFFFFFFFFFFFFFFFFFFFFFFFFFFFFFFFFFFFFFFFFFFFF NOT AND EQ JUMPDEST DUP1 PUSH2 0x885 JUMPI POP PUSH4 0x5B5E139F PUSH1 0xE0 SHL DUP3 PUSH28 0xFFFFFFFFFFFFFFFFFFFFFFFFFFFFFFFFFFFFFFFFFFFFFFFFFFFFFFFF NOT AND EQ JUMPDEST SWAP1 POP SWAP2 SWAP1 POP JUMP JUMPDEST PUSH1 0x60 PUSH20 0x0 PUSH4 0x6FDDE03 PUSH1 0x40 MLOAD DUP2 PUSH4 0xFFFFFFFF AND PUSH1 0xE0 SHL DUP2 MSTORE PUSH1 0x4 ADD PUSH0 PUSH1 0x40 MLOAD DUP1 DUP4 SUB DUP2 DUP7 GAS DELEGATECALL ISZERO DUP1 ISZERO PUSH2 0x8D4 JUMPI RETURNDATASIZE PUSH0 DUP1 RETURNDATACOPY RETURNDATASIZE PUSH0 REVERT JUMPDEST POP POP POP POP PUSH1 0x40 MLOAD RETURNDATASIZE PUSH0 DUP3 RETURNDATACOPY RETURNDATASIZE PUSH1 0x1F NOT PUSH1 0x1F DUP3 ADD AND DUP3 ADD DUP1 PUSH1 0x40 MSTORE POP DUP2 ADD SWAP1 PUSH2 0x8FC SWAP2 SWAP1 PUSH2 0x4749 JUMP JUMPDEST SWAP1 POP SWAP1 JUMP JUMPDEST PUSH0 PUSH2 0x90B DUP3 PUSH2 0x209E JUMP JUMPDEST PUSH2 0x920 JUMPI PUSH2 0x91F PUSH4 0xCF4700E4 PUSH1 0xE0 SHL PUSH2 0x2272 JUMP JUMPDEST JUMPDEST PUSH20 0x0 PUSH4 0xA7CC0136 DUP4 PUSH1 0x40 MLOAD DUP3 PUSH4 0xFFFFFFFF AND PUSH1 0xE0 SHL DUP2 MSTORE PUSH1 0x4 ADD PUSH2 0x957 SWAP2 SWAP1 PUSH2 0x479F JUMP JUMPDEST PUSH1 0x20 PUSH1 0x40 MLOAD DUP1 DUP4 SUB DUP2 DUP7 GAS DELEGATECALL ISZERO DUP1 ISZERO PUSH2 0x972 JUMPI RETURNDATASIZE PUSH0 DUP1 RETURNDATACOPY RETURNDATASIZE PUSH0 REVERT JUMPDEST POP POP POP POP PUSH1 0x40 MLOAD RETURNDATASIZE PUSH1 0x1F NOT PUSH1 0x1F DUP3 ADD AND DUP3 ADD DUP1 PUSH1 0x40 MSTORE POP DUP2 ADD SWAP1 PUSH2 0x996 SWAP2 SWAP1 PUSH2 0x4809 JUMP JUMPDEST PUSH0 ADD MLOAD SWAP1 POP SWAP2 SWAP1 POP JUMP JUMPDEST PUSH2 0x9AC DUP3 DUP3 PUSH1 0x1 PUSH2 0x227A JUMP JUMPDEST POP POP JUMP JUMPDEST PUSH2 0x4B0 DUP2 JUMP JUMPDEST PUSH0 PUSH4 0x150B7A02 PUSH1 0xE0 SHL SWAP1 POP SWAP5 SWAP4 POP POP POP POP JUMP JUMPDEST PUSH2 0x9D1 PUSH2 0x23B8 JUMP JUMPDEST PUSH20 0xFFFFFFFFFFFFFFFFFFFFFFFFFFFFFFFFFFFFFFFF AND PUSH20 0x0 PUSH4 0x893D20E8 PUSH1 0x40 MLOAD DUP2 PUSH4 0xFFFFFFFF AND PUSH1 0xE0 SHL DUP2 MSTORE PUSH1 0x4 ADD PUSH1 0x20 PUSH1 0x40 MLOAD DUP1 DUP4 SUB DUP2 DUP7 GAS DELEGATECALL ISZERO DUP1 ISZERO PUSH2 0xA2E JUMPI RETURNDATASIZE PUSH0 DUP1 RETURNDATACOPY RETURNDATASIZE PUSH0 REVERT JUMPDEST POP POP POP POP PUSH1 0x40 MLOAD RETURNDATASIZE PUSH1 0x1F NOT PUSH1 0x1F DUP3 ADD AND DUP3 ADD DUP1 PUSH1 0x40 MSTORE POP DUP2 ADD SWAP1 PUSH2 0xA52 SWAP2 SWAP1 PUSH2 0x4834 JUMP JUMPDEST PUSH20 0xFFFFFFFFFFFFFFFFFFFFFFFFFFFFFFFFFFFFFFFF AND EQ PUSH2 0xAA8 JUMPI PUSH1 0x40 MLOAD PUSH32 0x8C379A000000000000000000000000000000000000000000000000000000000 DUP2 MSTORE PUSH1 0x4 ADD PUSH2 0xA9F SWAP1 PUSH2 0x48A9 JUMP JUMPDEST PUSH1 0x40 MLOAD DUP1 SWAP2 SUB SWAP1 REVERT JUMPDEST PUSH2 0xAF5 DUP4 DUP4 DUP4 DUP1 DUP1 PUSH1 0x1F ADD PUSH1 0x20 DUP1 SWAP2 DIV MUL PUSH1 0x20 ADD PUSH1 0x40 MLOAD SWAP1 DUP2 ADD PUSH1 0x40 MSTORE DUP1 SWAP4 SWAP3 SWAP2 SWAP1 DUP2 DUP2 MSTORE PUSH1 0x20 ADD DUP4 DUP4 DUP1 DUP3 DUP5 CALLDATACOPY PUSH0 DUP2 DUP5 ADD MSTORE PUSH1 0x1F NOT PUSH1 0x1F DUP3 ADD AND SWAP1 POP DUP1 DUP4 ADD SWAP3 POP POP POP POP POP POP POP PUSH2 0x23BF JUMP JUMPDEST POP POP POP JUMP JUMPDEST PUSH0 PUSH2 0xB03 PUSH2 0x245F JUMP JUMPDEST PUSH20 0x0 PUSH4 0x44FAF255 PUSH1 0x40 MLOAD DUP2 PUSH4 0xFFFFFFFF AND PUSH1 0xE0 SHL DUP2 MSTORE PUSH1 0x4 ADD PUSH1 0x20 PUSH1 0x40 MLOAD DUP1 DUP4 SUB DUP2 DUP7 GAS DELEGATECALL ISZERO DUP1 ISZERO PUSH2 0xB4A JUMPI RETURNDATASIZE PUSH0 DUP1 RETURNDATACOPY RETURNDATASIZE PUSH0 REVERT JUMPDEST POP POP POP POP PUSH1 0x40 MLOAD RETURNDATASIZE PUSH1 0x1F NOT PUSH1 0x1F DUP3 ADD AND DUP3 ADD DUP1 PUSH1 0x40 MSTORE POP DUP2 ADD SWAP1 PUSH2 0xB6E SWAP2 SWAP1 PUSH2 0x48DB JUMP JUMPDEST PUSH20 0x0 PUSH4 0x9451C99A PUSH1 0x40 MLOAD DUP2 PUSH4 0xFFFFFFFF AND PUSH1 0xE0 SHL DUP2 MSTORE PUSH1 0x4 ADD PUSH1 0x20 PUSH1 0x40 MLOAD DUP1 DUP4 SUB DUP2 DUP7 GAS DELEGATECALL ISZERO DUP1 ISZERO PUSH2 0xBB5 JUMPI RETURNDATASIZE PUSH0 DUP1 RETURNDATACOPY RETURNDATASIZE PUSH0 REVERT JUMPDEST POP POP POP POP PUSH1 0x40 MLOAD RETURNDATASIZE PUSH1 0x1F NOT PUSH1 0x1F DUP3 ADD AND DUP3 ADD DUP1 PUSH1 0x40 MSTORE POP DUP2 ADD SWAP1 PUSH2 0xBD9 SWAP2 SWAP1 PUSH2 0x48DB JUMP JUMPDEST SUB SUB SWAP1 POP PUSH32 0xFFFFFFFFFFFFFFFFFFFFFFFFFFFFFFFFFFFFFFFFFFFFFFFFFFFFFFFFFFFFFFFF PUSH2 0xC06 PUSH2 0x2467 JUMP JUMPDEST EQ PUSH2 0xC7B JUMPI PUSH20 0x0 PUSH4 0xD20B6EE7 PUSH1 0x40 MLOAD DUP2 PUSH4 0xFFFFFFFF AND PUSH1 0xE0 SHL DUP2 MSTORE PUSH1 0x4 ADD PUSH1 0x20 PUSH1 0x40 MLOAD DUP1 DUP4 SUB DUP2 DUP7 GAS DELEGATECALL ISZERO DUP1 ISZERO PUSH2 0xC52 JUMPI RETURNDATASIZE PUSH0 DUP1 RETURNDATACOPY RETURNDATASIZE PUSH0 REVERT JUMPDEST POP POP POP POP PUSH1 0x40 MLOAD RETURNDATASIZE PUSH1 0x1F NOT PUSH1 0x1F DUP3 ADD AND DUP3 ADD DUP1 PUSH1 0x40 MSTORE POP DUP2 ADD SWAP1 PUSH2 0xC76 SWAP2 SWAP1 PUSH2 0x48DB JUMP JUMPDEST DUP2 ADD SWAP1 POP JUMPDEST SWAP1 JUMP JUMPDEST PUSH2 0xC89 DUP4 DUP4 DUP4 PUSH2 0x248E JUMP JUMPDEST PUSH2 0xC94 DUP4 DUP4 DUP4 PUSH2 0x2930 JUMP JUMPDEST POP POP POP JUMP JUMPDEST PUSH2 0xCA1 PUSH2 0x23B8 JUMP JUMPDEST PUSH20 0xFFFFFFFFFFFFFFFFFFFFFFFFFFFFFFFFFFFFFFFF AND PUSH20 0x0 PUSH4 0x893D20E8 PUSH1 0x40 MLOAD DUP2 PUSH4 0xFFFFFFFF AND PUSH1 0xE0 SHL DUP2 MSTORE PUSH1 0x4 ADD PUSH1 0x20 PUSH1 0x40 MLOAD DUP1 DUP4 SUB DUP2 DUP7 GAS DELEGATECALL ISZERO DUP1 ISZERO PUSH2 0xCFE JUMPI RETURNDATASIZE PUSH0 DUP1 RETURNDATACOPY RETURNDATASIZE PUSH0 REVERT JUMPDEST POP POP POP POP PUSH1 0x40 MLOAD RETURNDATASIZE PUSH1 0x1F NOT PUSH1 0x1F DUP3 ADD AND DUP3 ADD DUP1 PUSH1 0x40 MSTORE POP DUP2 ADD SWAP1 PUSH2 0xD22 SWAP2 SWAP1 PUSH2 0x4834 JUMP JUMPDEST PUSH20 0xFFFFFFFFFFFFFFFFFFFFFFFFFFFFFFFFFFFFFFFF AND EQ PUSH2 0xD78 JUMPI PUSH1 0x40 MLOAD PUSH32 0x8C379A000000000000000000000000000000000000000000000000000000000 DUP2 MSTORE PUSH1 0x4 ADD PUSH2 0xD6F SWAP1 PUSH2 0x48A9 JUMP JUMPDEST PUSH1 0x40 MLOAD DUP1 SWAP2 SUB SWAP1 REVERT JUMPDEST PUSH20 0x0 PUSH4 0x3802497B DUP3 PUSH1 0x40 MLOAD DUP3 PUSH4 0xFFFFFFFF AND PUSH1 0xE0 SHL DUP2 MSTORE PUSH1 0x4 ADD PUSH2 0xDAF SWAP2 SWAP1 PUSH2 0x4915 JUMP JUMPDEST PUSH0 PUSH1 0x40 MLOAD DUP1 DUP4 SUB DUP2 DUP7 DUP1 EXTCODESIZE ISZERO DUP1 ISZERO PUSH2 0xDC5 JUMPI PUSH0 DUP1 REVERT JUMPDEST POP GAS DELEGATECALL ISZERO DUP1 ISZERO PUSH2 0xDD7 JUMPI RETURNDATASIZE PUSH0 DUP1 RETURNDATACOPY RETURNDATASIZE PUSH0 REVERT JUMPDEST POP POP POP POP POP JUMP JUMPDEST PUSH2 0xDE6 PUSH2 0x23B8 JUMP JUMPDEST PUSH20 0xFFFFFFFFFFFFFFFFFFFFFFFFFFFFFFFFFFFFFFFF AND PUSH20 0x0 PUSH4 0x893D20E8 PUSH1 0x40 MLOAD DUP2 PUSH4 0xFFFFFFFF AND PUSH1 0xE0 SHL DUP2 MSTORE PUSH1 0x4 ADD PUSH1 0x20 PUSH1 0x40 MLOAD DUP1 DUP4 SUB DUP2 DUP7 GAS DELEGATECALL ISZERO DUP1 ISZERO PUSH2 0xE43 JUMPI RETURNDATASIZE PUSH0 DUP1 RETURNDATACOPY RETURNDATASIZE PUSH0 REVERT JUMPDEST POP POP POP POP PUSH1 0x40 MLOAD RETURNDATASIZE PUSH1 0x1F NOT PUSH1 0x1F DUP3 ADD AND DUP3 ADD DUP1 PUSH1 0x40 MSTORE POP DUP2 ADD SWAP1 PUSH2 0xE67 SWAP2 SWAP1 PUSH2 0x4834 JUMP JUMPDEST PUSH20 0xFFFFFFFFFFFFFFFFFFFFFFFFFFFFFFFFFFFFFFFF AND EQ PUSH2 0xEBD JUMPI PUSH1 0x40 MLOAD PUSH32 0x8C379A000000000000000000000000000000000000000000000000000000000 DUP2 MSTORE PUSH1 0x4 ADD PUSH2 0xEB4 SWAP1 PUSH2 0x48A9 JUMP JUMPDEST PUSH1 0x40 MLOAD DUP1 SWAP2 SUB SWAP1 REVERT JUMPDEST PUSH2 0xEC5 PUSH2 0x2A35 JUMP JUMPDEST PUSH0 CALLER PUSH20 0xFFFFFFFFFFFFFFFFFFFFFFFFFFFFFFFFFFFFFFFF AND SELFBALANCE PUSH1 0x40 MLOAD PUSH2 0xEEA SWAP1 PUSH2 0x495B JUMP JUMPDEST PUSH0 PUSH1 0x40 MLOAD DUP1 DUP4 SUB DUP2 DUP6 DUP8 GAS CALL SWAP3 POP POP POP RETURNDATASIZE DUP1 PUSH0 DUP2 EQ PUSH2 0xF24 JUMPI PUSH1 0x40 MLOAD SWAP2 POP PUSH1 0x1F NOT PUSH1 0x3F RETURNDATASIZE ADD AND DUP3 ADD PUSH1 0x40 MSTORE RETURNDATASIZE DUP3 MSTORE RETURNDATASIZE PUSH0 PUSH1 0x20 DUP5 ADD RETURNDATACOPY PUSH2 0xF29 JUMP JUMPDEST PUSH1 0x60 SWAP2 POP JUMPDEST POP POP SWAP1 POP DUP1 PUSH2 0xF6D JUMPI PUSH1 0x40 MLOAD PUSH32 0x8C379A000000000000000000000000000000000000000000000000000000000 DUP2 MSTORE PUSH1 0x4 ADD PUSH2 0xF64 SWAP1 PUSH2 0x49B9 JUMP JUMPDEST PUSH1 0x40 MLOAD DUP1 SWAP2 SUB SWAP1 REVERT JUMPDEST POP PUSH2 0xF76 PUSH2 0x2A82 JUMP JUMPDEST JUMP JUMPDEST PUSH2 0xF92 DUP4 DUP4 DUP4 PUSH1 0x40 MLOAD DUP1 PUSH1 0x20 ADD PUSH1 0x40 MSTORE DUP1 PUSH0 DUP2 MSTORE POP PUSH2 0x1D34 JUMP JUMPDEST POP POP POP JUMP JUMPDEST PUSH2 0xF9F PUSH2 0x23B8 JUMP JUMPDEST PUSH20 0xFFFFFFFFFFFFFFFFFFFFFFFFFFFFFFFFFFFFFFFF AND PUSH20 0x0 PUSH4 0x893D20E8 PUSH1 0x40 MLOAD DUP2 PUSH4 0xFFFFFFFF AND PUSH1 0xE0 SHL DUP2 MSTORE PUSH1 0x4 ADD PUSH1 0x20 PUSH1 0x40 MLOAD DUP1 DUP4 SUB DUP2 DUP7 GAS DELEGATECALL ISZERO DUP1 ISZERO PUSH2 0xFFC JUMPI RETURNDATASIZE PUSH0 DUP1 RETURNDATACOPY RETURNDATASIZE PUSH0 REVERT JUMPDEST POP POP POP POP PUSH1 0x40 MLOAD RETURNDATASIZE PUSH1 0x1F NOT PUSH1 0x1F DUP3 ADD AND DUP3 ADD DUP1 PUSH1 0x40 MSTORE POP DUP2 ADD SWAP1 PUSH2 0x1020 SWAP2 SWAP1 PUSH2 0x4834 JUMP JUMPDEST PUSH20 0xFFFFFFFFFFFFFFFFFFFFFFFFFFFFFFFFFFFFFFFF AND EQ PUSH2 0x1076 JUMPI PUSH1 0x40 MLOAD PUSH32 0x8C379A000000000000000000000000000000000000000000000000000000000 DUP2 MSTORE PUSH1 0x4 ADD PUSH2 0x106D SWAP1 PUSH2 0x48A9 JUMP JUMPDEST PUSH1 0x40 MLOAD DUP1 SWAP2 SUB SWAP1 REVERT JUMPDEST PUSH20 0x0 PUSH4 0x247C6CE0 DUP3 PUSH1 0x40 MLOAD DUP3 PUSH4 0xFFFFFFFF AND PUSH1 0xE0 SHL DUP2 MSTORE PUSH1 0x4 ADD PUSH2 0x10AD SWAP2 SWAP1 PUSH2 0x4915 JUMP JUMPDEST PUSH0 PUSH1 0x40 MLOAD DUP1 DUP4 SUB DUP2 DUP7 DUP1 EXTCODESIZE ISZERO DUP1 ISZERO PUSH2 0x10C3 JUMPI PUSH0 DUP1 REVERT JUMPDEST POP GAS DELEGATECALL ISZERO DUP1 ISZERO PUSH2 0x10D5 JUMPI RETURNDATASIZE PUSH0 DUP1 RETURNDATACOPY RETURNDATASIZE PUSH0 REVERT JUMPDEST POP POP POP POP POP JUMP JUMPDEST PUSH0 PUSH20 0x0 PUSH4 0xE149F036 DUP5 DUP5 PUSH1 0x40 MLOAD DUP4 PUSH4 0xFFFFFFFF AND PUSH1 0xE0 SHL DUP2 MSTORE PUSH1 0x4 ADD PUSH2 0x1116 SWAP3 SWAP2 SWAP1 PUSH2 0x49E6 JUMP JUMPDEST PUSH1 0x20 PUSH1 0x40 MLOAD DUP1 DUP4 SUB DUP2 DUP7 GAS DELEGATECALL ISZERO DUP1 ISZERO PUSH2 0x1131 JUMPI RETURNDATASIZE PUSH0 DUP1 RETURNDATACOPY RETURNDATASIZE PUSH0 REVERT JUMPDEST POP POP POP POP PUSH1 0x40 MLOAD RETURNDATASIZE PUSH1 0x1F NOT PUSH1 0x1F DUP3 ADD AND DUP3 ADD DUP1 PUSH1 0x40 MSTORE POP DUP2 ADD SWAP1 PUSH2 0x1155 SWAP2 SWAP1 PUSH2 0x48DB JUMP JUMPDEST SWAP1 POP SWAP3 SWAP2 POP POP JUMP JUMPDEST PUSH0 PUSH2 0x1167 DUP3 PUSH2 0x209E JUMP JUMPDEST SWAP1 POP SWAP2 SWAP1 POP JUMP JUMPDEST PUSH2 0x1176 PUSH2 0x23B8 JUMP JUMPDEST PUSH20 0xFFFFFFFFFFFFFFFFFFFFFFFFFFFFFFFFFFFFFFFF AND PUSH20 0x0 PUSH4 0x893D20E8 PUSH1 0x40 MLOAD DUP2 PUSH4 0xFFFFFFFF AND PUSH1 0xE0 SHL DUP2 MSTORE PUSH1 0x4 ADD PUSH1 0x20 PUSH1 0x40 MLOAD DUP1 DUP4 SUB DUP2 DUP7 GAS DELEGATECALL ISZERO DUP1 ISZERO PUSH2 0x11D3 JUMPI RETURNDATASIZE PUSH0 DUP1 RETURNDATACOPY RETURNDATASIZE PUSH0 REVERT JUMPDEST POP POP POP POP PUSH1 0x40 MLOAD RETURNDATASIZE PUSH1 0x1F NOT PUSH1 0x1F DUP3 ADD AND DUP3 ADD DUP1 PUSH1 0x40 MSTORE POP DUP2 ADD SWAP1 PUSH2 0x11F7 SWAP2 SWAP1 PUSH2 0x4834 JUMP JUMPDEST PUSH20 0xFFFFFFFFFFFFFFFFFFFFFFFFFFFFFFFFFFFFFFFF AND EQ PUSH2 0x124D JUMPI PUSH1 0x40 MLOAD PUSH32 0x8C379A000000000000000000000000000000000000000000000000000000000 DUP2 MSTORE PUSH1 0x4 ADD PUSH2 0x1244 SWAP1 PUSH2 0x48A9 JUMP JUMPDEST PUSH1 0x40 MLOAD DUP1 SWAP2 SUB SWAP1 REVERT JUMPDEST PUSH20 0x0 PUSH4 0xA05CC559 DUP4 DUP4 PUSH1 0x40 MLOAD DUP4 PUSH4 0xFFFFFFFF AND PUSH1 0xE0 SHL DUP2 MSTORE PUSH1 0x4 ADD PUSH2 0x1286 SWAP3 SWAP2 SWAP1 PUSH2 0x4A49 JUMP JUMPDEST PUSH0 PUSH1 0x40 MLOAD DUP1 DUP4 SUB DUP2 DUP7 DUP1 EXTCODESIZE ISZERO DUP1 ISZERO PUSH2 0x129C JUMPI PUSH0 DUP1 REVERT JUMPDEST POP GAS DELEGATECALL ISZERO DUP1 ISZERO PUSH2 0x12AE JUMPI RETURNDATASIZE PUSH0 DUP1 RETURNDATACOPY RETURNDATASIZE PUSH0 REVERT JUMPDEST POP POP POP POP POP POP JUMP JUMPDEST PUSH0 PUSH2 0x12C0 DUP3 PUSH2 0x2A8B JUMP JUMPDEST SWAP1 POP SWAP2 SWAP1 POP JUMP JUMPDEST PUSH2 0x12CF PUSH2 0x23B8 JUMP JUMPDEST PUSH20 0xFFFFFFFFFFFFFFFFFFFFFFFFFFFFFFFFFFFFFFFF AND PUSH20 0x0 PUSH4 0x893D20E8 PUSH1 0x40 MLOAD DUP2 PUSH4 0xFFFFFFFF AND PUSH1 0xE0 SHL DUP2 MSTORE PUSH1 0x4 ADD PUSH1 0x20 PUSH1 0x40 MLOAD DUP1 DUP4 SUB DUP2 DUP7 GAS DELEGATECALL ISZERO DUP1 ISZERO PUSH2 0x132C JUMPI RETURNDATASIZE PUSH0 DUP1 RETURNDATACOPY RETURNDATASIZE PUSH0 REVERT JUMPDEST POP POP POP POP PUSH1 0x40 MLOAD RETURNDATASIZE PUSH1 0x1F NOT PUSH1 0x1F DUP3 ADD AND DUP3 ADD DUP1 PUSH1 0x40 MSTORE POP DUP2 ADD SWAP1 PUSH2 0x1350 SWAP2 SWAP1 PUSH2 0x4834 JUMP JUMPDEST PUSH20 0xFFFFFFFFFFFFFFFFFFFFFFFFFFFFFFFFFFFFFFFF AND EQ PUSH2 0x13A6 JUMPI PUSH1 0x40 MLOAD PUSH32 0x8C379A000000000000000000000000000000000000000000000000000000000 DUP2 MSTORE PUSH1 0x4 ADD PUSH2 0x139D SWAP1 PUSH2 0x48A9 JUMP JUMPDEST PUSH1 0x40 MLOAD DUP1 SWAP2 SUB SWAP1 REVERT JUMPDEST PUSH20 0x0 PUSH4 0x39B37AB0 DUP3 PUSH1 0x40 MLOAD DUP3 PUSH4 0xFFFFFFFF AND PUSH1 0xE0 SHL DUP2 MSTORE PUSH1 0x4 ADD PUSH2 0x13DD SWAP2 SWAP1 PUSH2 0x479F JUMP JUMPDEST PUSH0 PUSH1 0x40 MLOAD DUP1 DUP4 SUB DUP2 DUP7 DUP1 EXTCODESIZE ISZERO DUP1 ISZERO PUSH2 0x13F3 JUMPI PUSH0 DUP1 REVERT JUMPDEST POP GAS DELEGATECALL ISZERO DUP1 ISZERO PUSH2 0x1405 JUMPI RETURNDATASIZE PUSH0 DUP1 RETURNDATACOPY RETURNDATASIZE PUSH0 REVERT JUMPDEST POP POP POP POP POP JUMP JUMPDEST PUSH1 0x60 PUSH20 0x0 PUSH4 0xD547CFB7 PUSH1 0x40 MLOAD DUP2 PUSH4 0xFFFFFFFF AND PUSH1 0xE0 SHL DUP2 MSTORE PUSH1 0x4 ADD PUSH0 PUSH1 0x40 MLOAD DUP1 DUP4 SUB DUP2 DUP7 GAS DELEGATECALL ISZERO DUP1 ISZERO PUSH2 0x1454 JUMPI RETURNDATASIZE PUSH0 DUP1 RETURNDATACOPY RETURNDATASIZE PUSH0 REVERT JUMPDEST POP POP POP POP PUSH1 0x40 MLOAD RETURNDATASIZE PUSH0 DUP3 RETURNDATACOPY RETURNDATASIZE PUSH1 0x1F NOT PUSH1 0x1F DUP3 ADD AND DUP3 ADD DUP1 PUSH1 0x40 MSTORE POP DUP2 ADD SWAP1 PUSH2 0x147C SWAP2 SWAP1 PUSH2 0x4749 JUMP JUMPDEST SWAP1 POP SWAP1 JUMP JUMPDEST PUSH2 0x1489 PUSH2 0x23B8 JUMP JUMPDEST PUSH20 0xFFFFFFFFFFFFFFFFFFFFFFFFFFFFFFFFFFFFFFFF AND PUSH20 0x0 PUSH4 0x893D20E8 PUSH1 0x40 MLOAD DUP2 PUSH4 0xFFFFFFFF AND PUSH1 0xE0 SHL DUP2 MSTORE PUSH1 0x4 ADD PUSH1 0x20 PUSH1 0x40 MLOAD DUP1 DUP4 SUB DUP2 DUP7 GAS DELEGATECALL ISZERO DUP1 ISZERO PUSH2 0x14E6 JUMPI RETURNDATASIZE PUSH0 DUP1 RETURNDATACOPY RETURNDATASIZE PUSH0 REVERT JUMPDEST POP POP POP POP PUSH1 0x40 MLOAD RETURNDATASIZE PUSH1 0x1F NOT PUSH1 0x1F DUP3 ADD AND DUP3 ADD DUP1 PUSH1 0x40 MSTORE POP DUP2 ADD SWAP1 PUSH2 0x150A SWAP2 SWAP1 PUSH2 0x4834 JUMP JUMPDEST PUSH20 0xFFFFFFFFFFFFFFFFFFFFFFFFFFFFFFFFFFFFFFFF AND EQ PUSH2 0x1560 JUMPI PUSH1 0x40 MLOAD PUSH32 0x8C379A000000000000000000000000000000000000000000000000000000000 DUP2 MSTORE PUSH1 0x4 ADD PUSH2 0x1557 SWAP1 PUSH2 0x48A9 JUMP JUMPDEST PUSH1 0x40 MLOAD DUP1 SWAP2 SUB SWAP1 REVERT JUMPDEST PUSH2 0x156A DUP3 DUP3 PUSH2 0x2CCB JUMP JUMPDEST POP POP JUMP JUMPDEST PUSH0 DUP1 PUSH20 0xFFFFFFFFFFFFFFFFFFFFFFFFFFFFFFFFFFFFFFFF AND DUP3 PUSH20 0xFFFFFFFFFFFFFFFFFFFFFFFFFFFFFFFFFFFFFFFF AND SUB PUSH2 0x15B3 JUMPI PUSH2 0x15B2 PUSH4 0x8F4EB604 PUSH1 0xE0 SHL PUSH2 0x2272 JUMP JUMPDEST JUMPDEST PUSH8 0xFFFFFFFFFFFFFFFF PUSH20 0x0 PUSH4 0x21B0ED7D DUP5 PUSH1 0x40 MLOAD DUP3 PUSH4 0xFFFFFFFF AND PUSH1 0xE0 SHL DUP2 MSTORE PUSH1 0x4 ADD PUSH2 0x15F3 SWAP2 SWAP1 PUSH2 0x4A6B JUMP JUMPDEST PUSH1 0x20 PUSH1 0x40 MLOAD DUP1 DUP4 SUB DUP2 DUP7 GAS DELEGATECALL ISZERO DUP1 ISZERO PUSH2 0x160E JUMPI RETURNDATASIZE PUSH0 DUP1 RETURNDATACOPY RETURNDATASIZE PUSH0 REVERT JUMPDEST POP POP POP POP PUSH1 0x40 MLOAD RETURNDATASIZE PUSH1 0x1F NOT PUSH1 0x1F DUP3 ADD AND DUP3 ADD DUP1 PUSH1 0x40 MSTORE POP DUP2 ADD SWAP1 PUSH2 0x1632 SWAP2 SWAP1 PUSH2 0x48DB JUMP JUMPDEST AND SWAP1 POP SWAP2 SWAP1 POP JUMP JUMPDEST PUSH0 PUSH20 0x0 PUSH4 0x9451C99A PUSH1 0x40 MLOAD DUP2 PUSH4 0xFFFFFFFF AND PUSH1 0xE0 SHL DUP2 MSTORE PUSH1 0x4 ADD PUSH1 0x20 PUSH1 0x40 MLOAD DUP1 DUP4 SUB DUP2 DUP7 GAS DELEGATECALL ISZERO DUP1 ISZERO PUSH2 0x1682 JUMPI RETURNDATASIZE PUSH0 DUP1 RETURNDATACOPY RETURNDATASIZE PUSH0 REVERT JUMPDEST POP POP POP POP PUSH1 0x40 MLOAD RETURNDATASIZE PUSH1 0x1F NOT PUSH1 0x1F DUP3 ADD AND DUP3 ADD DUP1 PUSH1 0x40 MSTORE POP DUP2 ADD SWAP1 PUSH2 0x16A6 SWAP2 SWAP1 PUSH2 0x48DB JUMP JUMPDEST SWAP1 POP SWAP1 JUMP JUMPDEST PUSH32 0x0 DUP2 JUMP JUMPDEST PUSH2 0x61A8 DUP2 JUMP JUMPDEST PUSH1 0x60 PUSH20 0x0 PUSH4 0x95D89B41 PUSH1 0x40 MLOAD DUP2 PUSH4 0xFFFFFFFF AND PUSH1 0xE0 SHL DUP2 MSTORE PUSH1 0x4 ADD PUSH0 PUSH1 0x40 MLOAD DUP1 DUP4 SUB DUP2 DUP7 GAS DELEGATECALL ISZERO DUP1 ISZERO PUSH2 0x171D JUMPI RETURNDATASIZE PUSH0 DUP1 RETURNDATACOPY RETURNDATASIZE PUSH0 REVERT JUMPDEST POP POP POP POP PUSH1 0x40 MLOAD RETURNDATASIZE PUSH0 DUP3 RETURNDATACOPY RETURNDATASIZE PUSH1 0x1F NOT PUSH1 0x1F DUP3 ADD AND DUP3 ADD DUP1 PUSH1 0x40 MSTORE POP DUP2 ADD SWAP1 PUSH2 0x1745 SWAP2 SWAP1 PUSH2 0x4749 JUMP JUMPDEST SWAP1 POP SWAP1 JUMP JUMPDEST PUSH1 0x40 MLOAD DUP1 PUSH1 0x40 ADD PUSH1 0x40 MSTORE DUP1 PUSH1 0x6 DUP2 MSTORE PUSH1 0x20 ADD PUSH32 0x534D45616D620000000000000000000000000000000000000000000000000000 DUP2 MSTORE POP DUP2 JUMP JUMPDEST PUSH2 0x178B PUSH2 0x23B8 JUMP JUMPDEST PUSH20 0xFFFFFFFFFFFFFFFFFFFFFFFFFFFFFFFFFFFFFFFF AND PUSH20 0x0 PUSH4 0x893D20E8 PUSH1 0x40 MLOAD DUP2 PUSH4 0xFFFFFFFF AND PUSH1 0xE0 SHL DUP2 MSTORE PUSH1 0x4 ADD PUSH1 0x20 PUSH1 0x40 MLOAD DUP1 DUP4 SUB DUP2 DUP7 GAS DELEGATECALL ISZERO DUP1 ISZERO PUSH2 0x17E8 JUMPI RETURNDATASIZE PUSH0 DUP1 RETURNDATACOPY RETURNDATASIZE PUSH0 REVERT JUMPDEST POP POP POP POP PUSH1 0x40 MLOAD RETURNDATASIZE PUSH1 0x1F NOT PUSH1 0x1F DUP3 ADD AND DUP3 ADD DUP1 PUSH1 0x40 MSTORE POP DUP2 ADD SWAP1 PUSH2 0x180C SWAP2 SWAP1 PUSH2 0x4834 JUMP JUMPDEST PUSH20 0xFFFFFFFFFFFFFFFFFFFFFFFFFFFFFFFFFFFFFFFF AND EQ PUSH2 0x1862 JUMPI PUSH1 0x40 MLOAD PUSH32 0x8C379A000000000000000000000000000000000000000000000000000000000 DUP2 MSTORE PUSH1 0x4 ADD PUSH2 0x1859 SWAP1 PUSH2 0x48A9 JUMP JUMPDEST PUSH1 0x40 MLOAD DUP1 SWAP2 SUB SWAP1 REVERT JUMPDEST PUSH20 0x0 PUSH4 0x821ABC2D DUP4 DUP4 PUSH1 0x40 MLOAD DUP4 PUSH4 0xFFFFFFFF AND PUSH1 0xE0 SHL DUP2 MSTORE PUSH1 0x4 ADD PUSH2 0x189B SWAP3 SWAP2 SWAP1 PUSH2 0x4A49 JUMP JUMPDEST PUSH0 PUSH1 0x40 MLOAD DUP1 DUP4 SUB DUP2 DUP7 DUP1 EXTCODESIZE ISZERO DUP1 ISZERO PUSH2 0x18B1 JUMPI PUSH0 DUP1 REVERT JUMPDEST POP GAS DELEGATECALL ISZERO DUP1 ISZERO PUSH2 0x18C3 JUMPI RETURNDATASIZE PUSH0 DUP1 RETURNDATACOPY RETURNDATASIZE PUSH0 REVERT JUMPDEST POP POP POP POP POP POP JUMP JUMPDEST PUSH20 0x0 PUSH4 0x830D4091 PUSH2 0x18ED PUSH2 0x300D JUMP JUMPDEST DUP5 DUP5 PUSH1 0x40 MLOAD DUP5 PUSH4 0xFFFFFFFF AND PUSH1 0xE0 SHL DUP2 MSTORE PUSH1 0x4 ADD PUSH2 0x190D SWAP4 SWAP3 SWAP2 SWAP1 PUSH2 0x4A93 JUMP JUMPDEST PUSH0 PUSH1 0x40 MLOAD DUP1 DUP4 SUB DUP2 DUP7 DUP1 EXTCODESIZE ISZERO DUP1 ISZERO PUSH2 0x1923 JUMPI PUSH0 DUP1 REVERT JUMPDEST POP GAS DELEGATECALL ISZERO DUP1 ISZERO PUSH2 0x1935 JUMPI RETURNDATASIZE PUSH0 DUP1 RETURNDATACOPY RETURNDATASIZE PUSH0 REVERT JUMPDEST POP POP POP POP DUP2 PUSH20 0xFFFFFFFFFFFFFFFFFFFFFFFFFFFFFFFFFFFFFFFF AND PUSH2 0x1958 PUSH2 0x300D JUMP JUMPDEST PUSH20 0xFFFFFFFFFFFFFFFFFFFFFFFFFFFFFFFFFFFFFFFF AND PUSH32 0x17307EAB39AB6107E8899845AD3D59BD9653F200F220920489CA2B5937696C31 DUP4 PUSH1 0x40 MLOAD PUSH2 0x199D SWAP2 SWAP1 PUSH2 0x3EB4 JUMP JUMPDEST PUSH1 0x40 MLOAD DUP1 SWAP2 SUB SWAP1 LOG3 POP POP JUMP JUMPDEST PUSH2 0x1388 DUP2 JUMP JUMPDEST PUSH2 0x19B7 PUSH2 0x2A35 JUMP JUMPDEST PUSH0 PUSH2 0x19C0 PUSH2 0x3014 JUMP JUMPDEST SWAP1 POP PUSH2 0x4B0 DUP2 LT PUSH2 0x1A06 JUMPI PUSH1 0x40 MLOAD PUSH32 0x8C379A000000000000000000000000000000000000000000000000000000000 DUP2 MSTORE PUSH1 0x4 ADD PUSH2 0x19FD SWAP1 PUSH2 0x4B12 JUMP JUMPDEST PUSH1 0x40 MLOAD DUP1 SWAP2 SUB SWAP1 REVERT JUMPDEST PUSH0 ISZERO ISZERO PUSH20 0x0 PUSH4 0xB62D8B91 DUP7 PUSH1 0x40 MLOAD DUP3 PUSH4 0xFFFFFFFF AND PUSH1 0xE0 SHL DUP2 MSTORE PUSH1 0x4 ADD PUSH2 0x1A40 SWAP2 SWAP1 PUSH2 0x4A6B JUMP JUMPDEST PUSH1 0x20 PUSH1 0x40 MLOAD DUP1 DUP4 SUB DUP2 DUP7 GAS DELEGATECALL ISZERO DUP1 ISZERO PUSH2 0x1A5B JUMPI RETURNDATASIZE PUSH0 DUP1 RETURNDATACOPY RETURNDATASIZE PUSH0 REVERT JUMPDEST POP POP POP POP PUSH1 0x40 MLOAD RETURNDATASIZE PUSH1 0x1F NOT PUSH1 0x1F DUP3 ADD AND DUP3 ADD DUP1 PUSH1 0x40 MSTORE POP DUP2 ADD SWAP1 PUSH2 0x1A7F SWAP2 SWAP1 PUSH2 0x4B44 JUMP JUMPDEST ISZERO ISZERO EQ PUSH2 0x1AC1 JUMPI PUSH1 0x40 MLOAD PUSH32 0x8C379A000000000000000000000000000000000000000000000000000000000 DUP2 MSTORE PUSH1 0x4 ADD PUSH2 0x1AB8 SWAP1 PUSH2 0x4BB9 JUMP JUMPDEST PUSH1 0x40 MLOAD DUP1 SWAP2 SUB SWAP1 REVERT JUMPDEST PUSH20 0x0 PUSH4 0xDDCA3F43 PUSH1 0x40 MLOAD DUP2 PUSH4 0xFFFFFFFF AND PUSH1 0xE0 SHL DUP2 MSTORE PUSH1 0x4 ADD PUSH1 0x20 PUSH1 0x40 MLOAD DUP1 DUP4 SUB DUP2 DUP7 GAS DELEGATECALL ISZERO DUP1 ISZERO PUSH2 0x1B08 JUMPI RETURNDATASIZE PUSH0 DUP1 RETURNDATACOPY RETURNDATASIZE PUSH0 REVERT JUMPDEST POP POP POP POP PUSH1 0x40 MLOAD RETURNDATASIZE PUSH1 0x1F NOT PUSH1 0x1F DUP3 ADD AND DUP3 ADD DUP1 PUSH1 0x40 MSTORE POP DUP2 ADD SWAP1 PUSH2 0x1B2C SWAP2 SWAP1 PUSH2 0x48DB JUMP JUMPDEST CALLVALUE EQ PUSH2 0x1B6D JUMPI PUSH1 0x40 MLOAD PUSH32 0x8C379A000000000000000000000000000000000000000000000000000000000 DUP2 MSTORE PUSH1 0x4 ADD PUSH2 0x1B64 SWAP1 PUSH2 0x4C21 JUMP JUMPDEST PUSH1 0x40 MLOAD DUP1 SWAP2 SUB SWAP1 REVERT JUMPDEST PUSH0 DUP5 PUSH1 0x40 MLOAD PUSH1 0x20 ADD PUSH2 0x1B7F SWAP2 SWAP1 PUSH2 0x4C84 JUMP JUMPDEST PUSH1 0x40 MLOAD PUSH1 0x20 DUP2 DUP4 SUB SUB DUP2 MSTORE SWAP1 PUSH1 0x40 MSTORE DUP1 MLOAD SWAP1 PUSH1 0x20 ADD KECCAK256 SWAP1 POP PUSH0 PUSH2 0x1C4D DUP6 DUP6 DUP1 DUP1 PUSH1 0x20 MUL PUSH1 0x20 ADD PUSH1 0x40 MLOAD SWAP1 DUP2 ADD PUSH1 0x40 MSTORE DUP1 SWAP4 SWAP3 SWAP2 SWAP1 DUP2 DUP2 MSTORE PUSH1 0x20 ADD DUP4 DUP4 PUSH1 0x20 MUL DUP1 DUP3 DUP5 CALLDATACOPY PUSH0 DUP2 DUP5 ADD MSTORE PUSH1 0x1F NOT PUSH1 0x1F DUP3 ADD AND SWAP1 POP DUP1 DUP4 ADD SWAP3 POP POP POP POP POP POP POP PUSH20 0x0 PUSH4 0x19F86200 PUSH1 0x40 MLOAD DUP2 PUSH4 0xFFFFFFFF AND PUSH1 0xE0 SHL DUP2 MSTORE PUSH1 0x4 ADD PUSH1 0x20 PUSH1 0x40 MLOAD DUP1 DUP4 SUB DUP2 DUP7 GAS DELEGATECALL ISZERO DUP1 ISZERO PUSH2 0x1C23 JUMPI RETURNDATASIZE PUSH0 DUP1 RETURNDATACOPY RETURNDATASIZE PUSH0 REVERT JUMPDEST POP POP POP POP PUSH1 0x40 MLOAD RETURNDATASIZE PUSH1 0x1F NOT PUSH1 0x1F DUP3 ADD AND DUP3 ADD DUP1 PUSH1 0x40 MSTORE POP DUP2 ADD SWAP1 PUSH2 0x1C47 SWAP2 SWAP1 PUSH2 0x4CB2 JUMP JUMPDEST DUP5 PUSH2 0x3085 JUMP JUMPDEST SWAP1 POP PUSH1 0x1 ISZERO ISZERO DUP2 ISZERO ISZERO EQ PUSH2 0x1C96 JUMPI PUSH1 0x40 MLOAD PUSH32 0x8C379A000000000000000000000000000000000000000000000000000000000 DUP2 MSTORE PUSH1 0x4 ADD PUSH2 0x1C8D SWAP1 PUSH2 0x4D27 JUMP JUMPDEST PUSH1 0x40 MLOAD DUP1 SWAP2 SUB SWAP1 REVERT JUMPDEST PUSH20 0x0 PUSH4 0xB0D4CE25 DUP8 PUSH1 0x1 PUSH1 0x40 MLOAD DUP4 PUSH4 0xFFFFFFFF AND PUSH1 0xE0 SHL DUP2 MSTORE PUSH1 0x4 ADD PUSH2 0x1CD0 SWAP3 SWAP2 SWAP1 PUSH2 0x4D45 JUMP JUMPDEST PUSH0 PUSH1 0x40 MLOAD DUP1 DUP4 SUB DUP2 DUP7 DUP1 EXTCODESIZE ISZERO DUP1 ISZERO PUSH2 0x1CE6 JUMPI PUSH0 DUP1 REVERT JUMPDEST POP GAS DELEGATECALL ISZERO DUP1 ISZERO PUSH2 0x1CF8 JUMPI RETURNDATASIZE PUSH0 DUP1 RETURNDATACOPY RETURNDATASIZE PUSH0 REVERT JUMPDEST POP POP POP POP PUSH2 0x1D07 DUP7 PUSH1 0x1 PUSH2 0x309B JUMP JUMPDEST PUSH2 0x1D19 DUP4 PUSH2 0x1D14 DUP6 PUSH2 0x30B8 JUMP JUMPDEST PUSH2 0x23BF JUMP JUMPDEST PUSH2 0x1D24 PUSH0 DUP8 DUP6 PUSH2 0x2930 JUMP JUMPDEST POP POP POP PUSH2 0x1D2F PUSH2 0x2A82 JUMP JUMPDEST POP POP POP JUMP JUMPDEST PUSH2 0x1D3F DUP5 DUP5 DUP5 PUSH2 0xC7E JUMP JUMPDEST PUSH0 DUP4 PUSH20 0xFFFFFFFFFFFFFFFFFFFFFFFFFFFFFFFFFFFFFFFF AND EXTCODESIZE EQ PUSH2 0x1D7F JUMPI PUSH2 0x1D69 DUP5 DUP5 DUP5 DUP5 PUSH2 0x31BB JUMP JUMPDEST PUSH2 0x1D7E JUMPI PUSH2 0x1D7D PUSH4 0xD1A57ED6 PUSH1 0xE0 SHL PUSH2 0x2272 JUMP JUMPDEST JUMPDEST JUMPDEST POP POP POP POP JUMP JUMPDEST PUSH1 0x60 PUSH0 PUSH20 0x0 PUSH4 0x6C8B703F DUP5 PUSH1 0x40 MLOAD DUP3 PUSH4 0xFFFFFFFF AND PUSH1 0xE0 SHL DUP2 MSTORE PUSH1 0x4 ADD PUSH2 0x1DBF SWAP2 SWAP1 PUSH2 0x479F JUMP JUMPDEST PUSH0 PUSH1 0x40 MLOAD DUP1 DUP4 SUB DUP2 DUP7 GAS DELEGATECALL ISZERO DUP1 ISZERO PUSH2 0x1DD9 JUMPI RETURNDATASIZE PUSH0 DUP1 RETURNDATACOPY RETURNDATASIZE PUSH0 REVERT JUMPDEST POP POP POP POP PUSH1 0x40 MLOAD RETURNDATASIZE PUSH0 DUP3 RETURNDATACOPY RETURNDATASIZE PUSH1 0x1F NOT PUSH1 0x1F DUP3 ADD AND DUP3 ADD DUP1 PUSH1 0x40 MSTORE POP DUP2 ADD SWAP1 PUSH2 0x1E01 SWAP2 SWAP1 PUSH2 0x4749 JUMP JUMPDEST SWAP1 POP PUSH0 PUSH2 0x1E0C PUSH2 0x32E5 JUMP JUMPDEST SWAP1 POP PUSH0 DUP2 MLOAD SUB PUSH2 0x1E20 JUMPI DUP2 SWAP3 POP POP POP PUSH2 0x1E62 JUMP JUMPDEST PUSH0 DUP3 MLOAD GT ISZERO PUSH2 0x1E54 JUMPI DUP1 DUP3 PUSH1 0x40 MLOAD PUSH1 0x20 ADD PUSH2 0x1E3C SWAP3 SWAP2 SWAP1 PUSH2 0x4DA6 JUMP JUMPDEST PUSH1 0x40 MLOAD PUSH1 0x20 DUP2 DUP4 SUB SUB DUP2 MSTORE SWAP1 PUSH1 0x40 MSTORE SWAP3 POP POP POP PUSH2 0x1E62 JUMP JUMPDEST PUSH2 0x1E5D DUP5 PUSH2 0x32FB JUMP JUMPDEST SWAP3 POP POP POP JUMPDEST SWAP2 SWAP1 POP JUMP JUMPDEST PUSH0 PUSH20 0x0 PUSH4 0xDDCA3F43 PUSH1 0x40 MLOAD DUP2 PUSH4 0xFFFFFFFF AND PUSH1 0xE0 SHL DUP2 MSTORE PUSH1 0x4 ADD PUSH1 0x20 PUSH1 0x40 MLOAD DUP1 DUP4 SUB DUP2 DUP7 GAS DELEGATECALL ISZERO DUP1 ISZERO PUSH2 0x1EAF JUMPI RETURNDATASIZE PUSH0 DUP1 RETURNDATACOPY RETURNDATASIZE PUSH0 REVERT JUMPDEST POP POP POP POP PUSH1 0x40 MLOAD RETURNDATASIZE PUSH1 0x1F NOT PUSH1 0x1F DUP3 ADD AND DUP3 ADD DUP1 PUSH1 0x40 MSTORE POP DUP2 ADD SWAP1 PUSH2 0x1ED3 SWAP2 SWAP1 PUSH2 0x48DB JUMP JUMPDEST SWAP1 POP SWAP1 JUMP JUMPDEST PUSH2 0x1EE0 PUSH2 0x23B8 JUMP JUMPDEST PUSH20 0xFFFFFFFFFFFFFFFFFFFFFFFFFFFFFFFFFFFFFFFF AND PUSH20 0x0 PUSH4 0x893D20E8 PUSH1 0x40 MLOAD DUP2 PUSH4 0xFFFFFFFF AND PUSH1 0xE0 SHL DUP2 MSTORE PUSH1 0x4 ADD PUSH1 0x20 PUSH1 0x40 MLOAD DUP1 DUP4 SUB DUP2 DUP7 GAS DELEGATECALL ISZERO DUP1 ISZERO PUSH2 0x1F3D JUMPI RETURNDATASIZE PUSH0 DUP1 RETURNDATACOPY RETURNDATASIZE PUSH0 REVERT JUMPDEST POP POP POP POP PUSH1 0x40 MLOAD RETURNDATASIZE PUSH1 0x1F NOT PUSH1 0x1F DUP3 ADD AND DUP3 ADD DUP1 PUSH1 0x40 MSTORE POP DUP2 ADD SWAP1 PUSH2 0x1F61 SWAP2 SWAP1 PUSH2 0x4834 JUMP JUMPDEST PUSH20 0xFFFFFFFFFFFFFFFFFFFFFFFFFFFFFFFFFFFFFFFF AND EQ PUSH2 0x1FB7 JUMPI PUSH1 0x40 MLOAD PUSH32 0x8C379A000000000000000000000000000000000000000000000000000000000 DUP2 MSTORE PUSH1 0x4 ADD PUSH2 0x1FAE SWAP1 PUSH2 0x48A9 JUMP JUMPDEST PUSH1 0x40 MLOAD DUP1 SWAP2 SUB SWAP1 REVERT JUMPDEST PUSH20 0x0 PUSH4 0x854F9DB9 DUP3 PUSH1 0x40 MLOAD DUP3 PUSH4 0xFFFFFFFF AND PUSH1 0xE0 SHL DUP2 MSTORE PUSH1 0x4 ADD PUSH2 0x1FEE SWAP2 SWAP1 PUSH2 0x4915 JUMP JUMPDEST PUSH0 PUSH1 0x40 MLOAD DUP1 DUP4 SUB DUP2 DUP7 DUP1 EXTCODESIZE ISZERO DUP1 ISZERO PUSH2 0x2004 JUMPI PUSH0 DUP1 REVERT JUMPDEST POP GAS DELEGATECALL ISZERO DUP1 ISZERO PUSH2 0x2016 JUMPI RETURNDATASIZE PUSH0 DUP1 RETURNDATACOPY RETURNDATASIZE PUSH0 REVERT JUMPDEST POP POP POP POP POP JUMP JUMPDEST PUSH0 PUSH20 0x0 PUSH4 0xEDC3BC3F DUP5 DUP5 PUSH1 0x40 MLOAD DUP4 PUSH4 0xFFFFFFFF AND PUSH1 0xE0 SHL DUP2 MSTORE PUSH1 0x4 ADD PUSH2 0x2057 SWAP3 SWAP2 SWAP1 PUSH2 0x4DC9 JUMP JUMPDEST PUSH1 0x20 PUSH1 0x40 MLOAD DUP1 DUP4 SUB DUP2 DUP7 GAS DELEGATECALL ISZERO DUP1 ISZERO PUSH2 0x2072 JUMPI RETURNDATASIZE PUSH0 DUP1 RETURNDATACOPY RETURNDATASIZE PUSH0 REVERT JUMPDEST POP POP POP POP PUSH1 0x40 MLOAD RETURNDATASIZE PUSH1 0x1F NOT PUSH1 0x1F DUP3 ADD AND DUP3 ADD DUP1 PUSH1 0x40 MSTORE POP DUP2 ADD SWAP1 PUSH2 0x2096 SWAP2 SWAP1 PUSH2 0x4B44 JUMP JUMPDEST SWAP1 POP SWAP3 SWAP2 POP POP JUMP JUMPDEST PUSH0 DUP2 PUSH2 0x20A8 PUSH2 0x245F JUMP JUMPDEST GT PUSH2 0x226C JUMPI PUSH2 0x20B5 PUSH2 0x2467 JUMP JUMPDEST DUP3 GT ISZERO PUSH2 0x2141 JUMPI PUSH2 0x213A PUSH20 0x0 PUSH4 0x47F69EBA DUP5 PUSH1 0x40 MLOAD DUP3 PUSH4 0xFFFFFFFF AND PUSH1 0xE0 SHL DUP2 MSTORE PUSH1 0x4 ADD PUSH2 0x20F6 SWAP2 SWAP1 PUSH2 0x479F JUMP JUMPDEST PUSH1 0x20 PUSH1 0x40 MLOAD DUP1 DUP4 SUB DUP2 DUP7 GAS DELEGATECALL ISZERO DUP1 ISZERO PUSH2 0x2111 JUMPI RETURNDATASIZE PUSH0 DUP1 RETURNDATACOPY RETURNDATASIZE PUSH0 REVERT JUMPDEST POP POP POP POP PUSH1 0x40 MLOAD RETURNDATASIZE PUSH1 0x1F NOT PUSH1 0x1F DUP3 ADD AND DUP3 ADD DUP1 PUSH1 0x40 MSTORE POP DUP2 ADD SWAP1 PUSH2 0x2135 SWAP2 SWAP1 PUSH2 0x48DB JUMP JUMPDEST PUSH2 0x3375 JUMP JUMPDEST SWAP1 POP PUSH2 0x226D JUMP JUMPDEST PUSH20 0x0 PUSH4 0x9451C99A PUSH1 0x40 MLOAD DUP2 PUSH4 0xFFFFFFFF AND PUSH1 0xE0 SHL DUP2 MSTORE PUSH1 0x4 ADD PUSH1 0x20 PUSH1 0x40 MLOAD DUP1 DUP4 SUB DUP2 DUP7 GAS DELEGATECALL ISZERO DUP1 ISZERO PUSH2 0x2188 JUMPI RETURNDATASIZE PUSH0 DUP1 RETURNDATACOPY RETURNDATASIZE PUSH0 REVERT JUMPDEST POP POP POP POP PUSH1 0x40 MLOAD RETURNDATASIZE PUSH1 0x1F NOT PUSH1 0x1F DUP3 ADD AND DUP3 ADD DUP1 PUSH1 0x40 MSTORE POP DUP2 ADD SWAP1 PUSH2 0x21AC SWAP2 SWAP1 PUSH2 0x48DB JUMP JUMPDEST DUP3 LT ISZERO PUSH2 0x226B JUMPI PUSH0 JUMPDEST PUSH0 PUSH20 0x0 PUSH4 0x47F69EBA DUP6 PUSH1 0x40 MLOAD DUP3 PUSH4 0xFFFFFFFF AND PUSH1 0xE0 SHL DUP2 MSTORE PUSH1 0x4 ADD PUSH2 0x21ED SWAP2 SWAP1 PUSH2 0x479F JUMP JUMPDEST PUSH1 0x20 PUSH1 0x40 MLOAD DUP1 DUP4 SUB DUP2 DUP7 GAS DELEGATECALL ISZERO DUP1 ISZERO PUSH2 0x2208 JUMPI RETURNDATASIZE PUSH0 DUP1 RETURNDATACOPY RETURNDATASIZE PUSH0 REVERT JUMPDEST POP POP POP POP PUSH1 0x40 MLOAD RETURNDATASIZE PUSH1 0x1F NOT PUSH1 0x1F DUP3 ADD AND DUP3 ADD DUP1 PUSH1 0x40 MSTORE POP DUP2 ADD SWAP1 PUSH2 0x222C SWAP2 SWAP1 PUSH2 0x48DB JUMP JUMPDEST SWAP2 POP DUP2 SUB PUSH2 0x2245 JUMPI DUP3 PUSH2 0x223E SWAP1 PUSH2 0x4E1D JUMP JUMPDEST SWAP3 POP PUSH2 0x21B5 JUMP JUMPDEST PUSH0 PUSH29 0x100000000000000000000000000000000000000000000000000000000 DUP3 AND EQ SWAP2 POP POP JUMPDEST JUMPDEST JUMPDEST SWAP2 SWAP1 POP JUMP JUMPDEST DUP1 PUSH0 MSTORE PUSH1 0x4 PUSH0 REVERT JUMPDEST PUSH0 PUSH2 0x2284 DUP4 PUSH2 0x12B6 JUMP JUMPDEST SWAP1 POP DUP2 DUP1 ISZERO PUSH2 0x22C6 JUMPI POP DUP1 PUSH20 0xFFFFFFFFFFFFFFFFFFFFFFFFFFFFFFFFFFFFFFFF AND PUSH2 0x22AD PUSH2 0x300D JUMP JUMPDEST PUSH20 0xFFFFFFFFFFFFFFFFFFFFFFFFFFFFFFFFFFFFFFFF AND EQ ISZERO JUMPDEST ISZERO PUSH2 0x22F2 JUMPI PUSH2 0x22DC DUP2 PUSH2 0x22D7 PUSH2 0x300D JUMP JUMPDEST PUSH2 0x201D JUMP JUMPDEST PUSH2 0x22F1 JUMPI PUSH2 0x22F0 PUSH4 0xCFB3B942 PUSH1 0xE0 SHL PUSH2 0x2272 JUMP JUMPDEST JUMPDEST JUMPDEST PUSH20 0x0 PUSH4 0x13C19FF6 DUP5 DUP7 PUSH1 0x40 MLOAD DUP4 PUSH4 0xFFFFFFFF AND PUSH1 0xE0 SHL DUP2 MSTORE PUSH1 0x4 ADD PUSH2 0x232B SWAP3 SWAP2 SWAP1 PUSH2 0x4E44 JUMP JUMPDEST PUSH0 PUSH1 0x40 MLOAD DUP1 DUP4 SUB DUP2 DUP7 DUP1 EXTCODESIZE ISZERO DUP1 ISZERO PUSH2 0x2341 JUMPI PUSH0 DUP1 REVERT JUMPDEST POP GAS DELEGATECALL ISZERO DUP1 ISZERO PUSH2 0x2353 JUMPI RETURNDATASIZE PUSH0 DUP1 RETURNDATACOPY RETURNDATASIZE PUSH0 REVERT JUMPDEST POP POP POP POP DUP3 DUP5 PUSH20 0xFFFFFFFFFFFFFFFFFFFFFFFFFFFFFFFFFFFFFFFF AND DUP3 PUSH20 0xFFFFFFFFFFFFFFFFFFFFFFFFFFFFFFFFFFFFFFFF AND PUSH32 0x8C5BE1E5EBEC7D5BD14F71427D1E84F3DD0314C0F7B2291E5B200AC8C7C3B925 PUSH1 0x40 MLOAD PUSH1 0x40 MLOAD DUP1 SWAP2 SUB SWAP1 LOG4 POP POP POP POP JUMP JUMPDEST PUSH0 CALLER SWAP1 POP SWAP1 JUMP JUMPDEST PUSH20 0x0 PUSH4 0xDEC84DB1 DUP3 DUP5 PUSH1 0x40 MLOAD DUP4 PUSH4 0xFFFFFFFF AND PUSH1 0xE0 SHL DUP2 MSTORE PUSH1 0x4 ADD PUSH2 0x23F8 SWAP3 SWAP2 SWAP1 PUSH2 0x4EA3 JUMP JUMPDEST PUSH0 PUSH1 0x40 MLOAD DUP1 DUP4 SUB DUP2 DUP7 DUP1 EXTCODESIZE ISZERO DUP1 ISZERO PUSH2 0x240E JUMPI PUSH0 DUP1 REVERT JUMPDEST POP GAS DELEGATECALL ISZERO DUP1 ISZERO PUSH2 0x2420 JUMPI RETURNDATASIZE PUSH0 DUP1 RETURNDATACOPY RETURNDATASIZE PUSH0 REVERT JUMPDEST POP POP POP POP PUSH32 0xF8E1A15ABA9398E019F0B49DF1A4FDE98EE17AE345CB5F6B5E2C27F5033E8CE7 DUP3 PUSH1 0x40 MLOAD PUSH2 0x2453 SWAP2 SWAP1 PUSH2 0x40A4 JUMP JUMPDEST PUSH1 0x40 MLOAD DUP1 SWAP2 SUB SWAP1 LOG1 POP POP JUMP JUMPDEST PUSH0 PUSH1 0x1 SWAP1 POP SWAP1 JUMP JUMPDEST PUSH0 PUSH32 0xFFFFFFFFFFFFFFFFFFFFFFFFFFFFFFFFFFFFFFFFFFFFFFFFFFFFFFFFFFFFFFFF SWAP1 POP SWAP1 JUMP JUMPDEST PUSH0 PUSH2 0x2498 DUP3 PUSH2 0x2A8B JUMP JUMPDEST SWAP1 POP PUSH20 0xFFFFFFFFFFFFFFFFFFFFFFFFFFFFFFFFFFFFFFFF DUP5 PUSH20 0xFFFFFFFFFFFFFFFFFFFFFFFFFFFFFFFFFFFFFFFF AND AND SWAP4 POP DUP4 PUSH20 0xFFFFFFFFFFFFFFFFFFFFFFFFFFFFFFFFFFFFFFFF AND DUP2 PUSH20 0xFFFFFFFFFFFFFFFFFFFFFFFFFFFFFFFFFFFFFFFF AND EQ PUSH2 0x250D JUMPI PUSH2 0x250C PUSH4 0xA1148100 PUSH1 0xE0 SHL PUSH2 0x2272 JUMP JUMPDEST JUMPDEST PUSH0 DUP1 PUSH2 0x2518 DUP5 PUSH2 0x33B5 JUMP JUMPDEST SWAP2 POP SWAP2 POP PUSH2 0x252E DUP2 DUP8 PUSH2 0x2529 PUSH2 0x300D JUMP JUMPDEST PUSH2 0x343B JUMP JUMPDEST PUSH2 0x2559 JUMPI PUSH2 0x2543 DUP7 PUSH2 0x253E PUSH2 0x300D JUMP JUMPDEST PUSH2 0x201D JUMP JUMPDEST PUSH2 0x2558 JUMPI PUSH2 0x2557 PUSH4 0x59C896BE PUSH1 0xE0 SHL PUSH2 0x2272 JUMP JUMPDEST JUMPDEST JUMPDEST PUSH2 0x2566 DUP7 DUP7 DUP7 PUSH1 0x1 PUSH2 0x347E JUMP JUMPDEST PUSH20 0x0 PUSH4 0x13C19FF6 DUP6 PUSH0 PUSH1 0x40 MLOAD DUP4 PUSH4 0xFFFFFFFF AND PUSH1 0xE0 SHL DUP2 MSTORE PUSH1 0x4 ADD PUSH2 0x259F SWAP3 SWAP2 SWAP1 PUSH2 0x4E44 JUMP JUMPDEST PUSH0 PUSH1 0x40 MLOAD DUP1 DUP4 SUB DUP2 DUP7 DUP1 EXTCODESIZE ISZERO DUP1 ISZERO PUSH2 0x25B5 JUMPI PUSH0 DUP1 REVERT JUMPDEST POP GAS DELEGATECALL ISZERO DUP1 ISZERO PUSH2 0x25C7 JUMPI RETURNDATASIZE PUSH0 DUP1 RETURNDATACOPY RETURNDATASIZE PUSH0 REVERT JUMPDEST POP POP POP POP PUSH20 0x0 PUSH4 0x31413EFC DUP8 PUSH1 0x40 MLOAD DUP3 PUSH4 0xFFFFFFFF AND PUSH1 0xE0 SHL DUP2 MSTORE PUSH1 0x4 ADD PUSH2 0x2602 SWAP2 SWAP1 PUSH2 0x4A6B JUMP JUMPDEST PUSH0 PUSH1 0x40 MLOAD DUP1 DUP4 SUB DUP2 DUP7 DUP1 EXTCODESIZE ISZERO DUP1 ISZERO PUSH2 0x2618 JUMPI PUSH0 DUP1 REVERT JUMPDEST POP GAS DELEGATECALL ISZERO DUP1 ISZERO PUSH2 0x262A JUMPI RETURNDATASIZE PUSH0 DUP1 RETURNDATACOPY RETURNDATASIZE PUSH0 REVERT JUMPDEST POP POP POP POP PUSH20 0x0 PUSH4 0xD0125152 DUP7 PUSH1 0x40 MLOAD DUP3 PUSH4 0xFFFFFFFF AND PUSH1 0xE0 SHL DUP2 MSTORE PUSH1 0x4 ADD PUSH2 0x2665 SWAP2 SWAP1 PUSH2 0x4A6B JUMP JUMPDEST PUSH0 PUSH1 0x40 MLOAD DUP1 DUP4 SUB DUP2 DUP7 DUP1 EXTCODESIZE ISZERO DUP1 ISZERO PUSH2 0x267B JUMPI PUSH0 DUP1 REVERT JUMPDEST POP GAS DELEGATECALL ISZERO DUP1 ISZERO PUSH2 0x268D JUMPI RETURNDATASIZE PUSH0 DUP1 RETURNDATACOPY RETURNDATASIZE PUSH0 REVERT JUMPDEST POP POP POP POP PUSH20 0x0 PUSH4 0xE68FDEE1 DUP6 PUSH2 0x26DF DUP9 PUSH2 0x26BB DUP12 DUP12 DUP11 PUSH2 0x3484 JUMP JUMPDEST PUSH29 0x200000000000000000000000000000000000000000000000000000000 OR PUSH2 0x34AB JUMP JUMPDEST PUSH1 0x40 MLOAD DUP4 PUSH4 0xFFFFFFFF AND PUSH1 0xE0 SHL DUP2 MSTORE PUSH1 0x4 ADD PUSH2 0x26FC SWAP3 SWAP2 SWAP1 PUSH2 0x4ED1 JUMP JUMPDEST PUSH0 PUSH1 0x40 MLOAD DUP1 DUP4 SUB DUP2 DUP7 DUP1 EXTCODESIZE ISZERO DUP1 ISZERO PUSH2 0x2712 JUMPI PUSH0 DUP1 REVERT JUMPDEST POP GAS DELEGATECALL ISZERO DUP1 ISZERO PUSH2 0x2724 JUMPI RETURNDATASIZE PUSH0 DUP1 RETURNDATACOPY RETURNDATASIZE PUSH0 REVERT JUMPDEST POP POP POP POP PUSH0 PUSH29 0x200000000000000000000000000000000000000000000000000000000 DUP5 AND SUB PUSH2 0x28AB JUMPI PUSH0 PUSH1 0x1 DUP6 ADD SWAP1 POP PUSH0 PUSH20 0x0 PUSH4 0x47F69EBA DUP4 PUSH1 0x40 MLOAD DUP3 PUSH4 0xFFFFFFFF AND PUSH1 0xE0 SHL DUP2 MSTORE PUSH1 0x4 ADD PUSH2 0x278D SWAP2 SWAP1 PUSH2 0x479F JUMP JUMPDEST PUSH1 0x20 PUSH1 0x40 MLOAD DUP1 DUP4 SUB DUP2 DUP7 GAS DELEGATECALL ISZERO DUP1 ISZERO PUSH2 0x27A8 JUMPI RETURNDATASIZE PUSH0 DUP1 RETURNDATACOPY RETURNDATASIZE PUSH0 REVERT JUMPDEST POP POP POP POP PUSH1 0x40 MLOAD RETURNDATASIZE PUSH1 0x1F NOT PUSH1 0x1F DUP3 ADD AND DUP3 ADD DUP1 PUSH1 0x40 MSTORE POP DUP2 ADD SWAP1 PUSH2 0x27CC SWAP2 SWAP1 PUSH2 0x48DB JUMP JUMPDEST SUB PUSH2 0x28A9 JUMPI PUSH20 0x0 PUSH4 0x9451C99A PUSH1 0x40 MLOAD DUP2 PUSH4 0xFFFFFFFF AND PUSH1 0xE0 SHL DUP2 MSTORE PUSH1 0x4 ADD PUSH1 0x20 PUSH1 0x40 MLOAD DUP1 DUP4 SUB DUP2 DUP7 GAS DELEGATECALL ISZERO DUP1 ISZERO PUSH2 0x2818 JUMPI RETURNDATASIZE PUSH0 DUP1 RETURNDATACOPY RETURNDATASIZE PUSH0 REVERT JUMPDEST POP POP POP POP PUSH1 0x40 MLOAD RETURNDATASIZE PUSH1 0x1F NOT PUSH1 0x1F DUP3 ADD AND DUP3 ADD DUP1 PUSH1 0x40 MSTORE POP DUP2 ADD SWAP1 PUSH2 0x283C SWAP2 SWAP1 PUSH2 0x48DB JUMP JUMPDEST DUP2 EQ PUSH2 0x28A8 JUMPI PUSH20 0x0 PUSH4 0xE68FDEE1 DUP3 DUP7 PUSH1 0x40 MLOAD DUP4 PUSH4 0xFFFFFFFF AND PUSH1 0xE0 SHL DUP2 MSTORE PUSH1 0x4 ADD PUSH2 0x287B SWAP3 SWAP2 SWAP1 PUSH2 0x4ED1 JUMP JUMPDEST PUSH0 PUSH1 0x40 MLOAD DUP1 DUP4 SUB DUP2 DUP7 DUP1 EXTCODESIZE ISZERO DUP1 ISZERO PUSH2 0x2891 JUMPI PUSH0 DUP1 REVERT JUMPDEST POP GAS DELEGATECALL ISZERO DUP1 ISZERO PUSH2 0x28A3 JUMPI RETURNDATASIZE PUSH0 DUP1 RETURNDATACOPY RETURNDATASIZE PUSH0 REVERT JUMPDEST POP POP POP POP JUMPDEST JUMPDEST POP JUMPDEST PUSH0 PUSH20 0xFFFFFFFFFFFFFFFFFFFFFFFFFFFFFFFFFFFFFFFF DUP7 PUSH20 0xFFFFFFFFFFFFFFFFFFFFFFFFFFFFFFFFFFFFFFFF AND AND SWAP1 POP DUP5 DUP2 DUP9 PUSH32 0xDDF252AD1BE2C89B69C2B068FC378DAA952BA7F163C4A11628F55A4DF523B3EF PUSH0 DUP1 LOG4 PUSH0 DUP2 SUB PUSH2 0x291A JUMPI PUSH2 0x2919 PUSH4 0xEA553B34 PUSH1 0xE0 SHL PUSH2 0x2272 JUMP JUMPDEST JUMPDEST PUSH2 0x2927 DUP8 DUP8 DUP8 PUSH1 0x1 PUSH2 0x34D5 JUMP JUMPDEST POP POP POP POP POP POP POP JUMP JUMPDEST PUSH0 PUSH20 0xFFFFFFFFFFFFFFFFFFFFFFFFFFFFFFFFFFFFFFFF AND DUP4 PUSH20 0xFFFFFFFFFFFFFFFFFFFFFFFFFFFFFFFFFFFFFFFF AND SUB PUSH2 0x2971 JUMPI PUSH2 0x296C DUP2 PUSH2 0x34DB JUMP JUMPDEST PUSH2 0x29B0 JUMP JUMPDEST DUP2 PUSH20 0xFFFFFFFFFFFFFFFFFFFFFFFFFFFFFFFFFFFFFFFF AND DUP4 PUSH20 0xFFFFFFFFFFFFFFFFFFFFFFFFFFFFFFFFFFFFFFFF AND EQ PUSH2 0x29AF JUMPI PUSH2 0x29AE DUP4 DUP3 PUSH2 0x3541 JUMP JUMPDEST JUMPDEST JUMPDEST PUSH0 PUSH20 0xFFFFFFFFFFFFFFFFFFFFFFFFFFFFFFFFFFFFFFFF AND DUP3 PUSH20 0xFFFFFFFFFFFFFFFFFFFFFFFFFFFFFFFFFFFFFFFF AND SUB PUSH2 0x29F1 JUMPI PUSH2 0x29EC DUP2 PUSH2 0x35B4 JUMP JUMPDEST PUSH2 0x2A30 JUMP JUMPDEST DUP2 PUSH20 0xFFFFFFFFFFFFFFFFFFFFFFFFFFFFFFFFFFFFFFFF AND DUP4 PUSH20 0xFFFFFFFFFFFFFFFFFFFFFFFFFFFFFFFFFFFFFFFF AND EQ PUSH2 0x2A2F JUMPI PUSH2 0x2A2E DUP3 DUP3 PUSH2 0x361A JUMP JUMPDEST JUMPDEST JUMPDEST POP POP POP JUMP JUMPDEST PUSH1 0x2 PUSH0 SLOAD SUB PUSH2 0x2A79 JUMPI PUSH1 0x40 MLOAD PUSH32 0x8C379A000000000000000000000000000000000000000000000000000000000 DUP2 MSTORE PUSH1 0x4 ADD PUSH2 0x2A70 SWAP1 PUSH2 0x4F42 JUMP JUMPDEST PUSH1 0x40 MLOAD DUP1 SWAP2 SUB SWAP1 REVERT JUMPDEST PUSH1 0x2 PUSH0 DUP2 SWAP1 SSTORE POP JUMP JUMPDEST PUSH1 0x1 PUSH0 DUP2 SWAP1 SSTORE POP JUMP JUMPDEST PUSH0 DUP2 PUSH2 0x2A95 PUSH2 0x245F JUMP JUMPDEST GT PUSH2 0x2CB5 JUMPI PUSH20 0x0 PUSH4 0x47F69EBA DUP4 PUSH1 0x40 MLOAD DUP3 PUSH4 0xFFFFFFFF AND PUSH1 0xE0 SHL DUP2 MSTORE PUSH1 0x4 ADD PUSH2 0x2AD1 SWAP2 SWAP1 PUSH2 0x479F JUMP JUMPDEST PUSH1 0x20 PUSH1 0x40 MLOAD DUP1 DUP4 SUB DUP2 DUP7 GAS DELEGATECALL ISZERO DUP1 ISZERO PUSH2 0x2AEC JUMPI RETURNDATASIZE PUSH0 DUP1 RETURNDATACOPY RETURNDATASIZE PUSH0 REVERT JUMPDEST POP POP POP POP PUSH1 0x40 MLOAD RETURNDATASIZE PUSH1 0x1F NOT PUSH1 0x1F DUP3 ADD AND DUP3 ADD DUP1 PUSH1 0x40 MSTORE POP DUP2 ADD SWAP1 PUSH2 0x2B10 SWAP2 SWAP1 PUSH2 0x48DB JUMP JUMPDEST SWAP1 POP PUSH2 0x2B1A PUSH2 0x2467 JUMP JUMPDEST DUP3 GT ISZERO PUSH2 0x2B3F JUMPI PUSH2 0x2B2A DUP2 PUSH2 0x3375 JUMP JUMPDEST PUSH2 0x2CC6 JUMPI PUSH2 0x2B3E PUSH4 0xDF2D9B42 PUSH1 0xE0 SHL PUSH2 0x2272 JUMP JUMPDEST JUMPDEST PUSH0 DUP2 SUB PUSH2 0x2C8D JUMPI PUSH20 0x0 PUSH4 0x9451C99A PUSH1 0x40 MLOAD DUP2 PUSH4 0xFFFFFFFF AND PUSH1 0xE0 SHL DUP2 MSTORE PUSH1 0x4 ADD PUSH1 0x20 PUSH1 0x40 MLOAD DUP1 DUP4 SUB DUP2 DUP7 GAS DELEGATECALL ISZERO DUP1 ISZERO PUSH2 0x2B8D JUMPI RETURNDATASIZE PUSH0 DUP1 RETURNDATACOPY RETURNDATASIZE PUSH0 REVERT JUMPDEST POP POP POP POP PUSH1 0x40 MLOAD RETURNDATASIZE PUSH1 0x1F NOT PUSH1 0x1F DUP3 ADD AND DUP3 ADD DUP1 PUSH1 0x40 MSTORE POP DUP2 ADD SWAP1 PUSH2 0x2BB1 SWAP2 SWAP1 PUSH2 0x48DB JUMP JUMPDEST DUP3 LT PUSH2 0x2BC8 JUMPI PUSH2 0x2BC7 PUSH4 0xDF2D9B42 PUSH1 0xE0 SHL PUSH2 0x2272 JUMP JUMPDEST JUMPDEST JUMPDEST PUSH20 0x0 PUSH4 0x47F69EBA DUP4 PUSH1 0x1 SWAP1 SUB SWAP4 POP DUP4 PUSH1 0x40 MLOAD DUP3 PUSH4 0xFFFFFFFF AND PUSH1 0xE0 SHL DUP2 MSTORE PUSH1 0x4 ADD PUSH2 0x2C07 SWAP2 SWAP1 PUSH2 0x479F JUMP JUMPDEST PUSH1 0x20 PUSH1 0x40 MLOAD DUP1 DUP4 SUB DUP2 DUP7 GAS DELEGATECALL ISZERO DUP1 ISZERO PUSH2 0x2C22 JUMPI RETURNDATASIZE PUSH0 DUP1 RETURNDATACOPY RETURNDATASIZE PUSH0 REVERT JUMPDEST POP POP POP POP PUSH1 0x40 MLOAD RETURNDATASIZE PUSH1 0x1F NOT PUSH1 0x1F DUP3 ADD AND DUP3 ADD DUP1 PUSH1 0x40 MSTORE POP DUP2 ADD SWAP1 PUSH2 0x2C46 SWAP2 SWAP1 PUSH2 0x48DB JUMP JUMPDEST SWAP1 POP PUSH0 DUP2 SUB ISZERO PUSH2 0x2C88 JUMPI PUSH0 PUSH29 0x100000000000000000000000000000000000000000000000000000000 DUP3 AND SUB ISZERO PUSH2 0x2CC6 JUMPI PUSH2 0x2C87 PUSH4 0xDF2D9B42 PUSH1 0xE0 SHL PUSH2 0x2272 JUMP JUMPDEST JUMPDEST PUSH2 0x2BC9 JUMP JUMPDEST PUSH0 PUSH29 0x100000000000000000000000000000000000000000000000000000000 DUP3 AND SUB ISZERO PUSH2 0x2CC6 JUMPI JUMPDEST PUSH2 0x2CC5 PUSH4 0xDF2D9B42 PUSH1 0xE0 SHL PUSH2 0x2272 JUMP JUMPDEST JUMPDEST SWAP2 SWAP1 POP JUMP JUMPDEST PUSH20 0x0 PUSH4 0xA05CC559 PUSH1 0x40 MLOAD DUP2 PUSH4 0xFFFFFFFF AND PUSH1 0xE0 SHL DUP2 MSTORE PUSH1 0x4 ADD PUSH2 0x2D00 SWAP1 PUSH2 0x4FF6 JUMP JUMPDEST PUSH0 PUSH1 0x40 MLOAD DUP1 DUP4 SUB DUP2 DUP7 DUP1 EXTCODESIZE ISZERO DUP1 ISZERO PUSH2 0x2D16 JUMPI PUSH0 DUP1 REVERT JUMPDEST POP GAS DELEGATECALL ISZERO DUP1 ISZERO PUSH2 0x2D28 JUMPI RETURNDATASIZE PUSH0 DUP1 RETURNDATACOPY RETURNDATASIZE PUSH0 REVERT JUMPDEST POP POP POP POP PUSH20 0x0 PUSH4 0x821ABC2D PUSH1 0x40 MLOAD DUP2 PUSH4 0xFFFFFFFF AND PUSH1 0xE0 SHL DUP2 MSTORE PUSH1 0x4 ADD PUSH2 0x2D61 SWAP1 PUSH2 0x50AA JUMP JUMPDEST PUSH0 PUSH1 0x40 MLOAD DUP1 DUP4 SUB DUP2 DUP7 DUP1 EXTCODESIZE ISZERO DUP1 ISZERO PUSH2 0x2D77 JUMPI PUSH0 DUP1 REVERT JUMPDEST POP GAS DELEGATECALL ISZERO DUP1 ISZERO PUSH2 0x2D89 JUMPI RETURNDATASIZE PUSH0 DUP1 RETURNDATACOPY RETURNDATASIZE PUSH0 REVERT JUMPDEST POP POP POP POP PUSH20 0x0 PUSH4 0x3802497B PUSH32 0xDFB96C060B2E58F09345A394FD8E994A6E7AC3539CDD256304C6E181A216752E PUSH1 0x40 MLOAD DUP3 PUSH4 0xFFFFFFFF AND PUSH1 0xE0 SHL DUP2 MSTORE PUSH1 0x4 ADD PUSH2 0x2DE4 SWAP2 SWAP1 PUSH2 0x510C JUMP JUMPDEST PUSH0 PUSH1 0x40 MLOAD DUP1 DUP4 SUB DUP2 DUP7 DUP1 EXTCODESIZE ISZERO DUP1 ISZERO PUSH2 0x2DFA JUMPI PUSH0 DUP1 REVERT JUMPDEST POP GAS DELEGATECALL ISZERO DUP1 ISZERO PUSH2 0x2E0C JUMPI RETURNDATASIZE PUSH0 DUP1 RETURNDATACOPY RETURNDATASIZE PUSH0 REVERT JUMPDEST POP POP POP POP PUSH20 0x0 PUSH4 0x39B37AB0 PUSH8 0xC93A592CFB2A0000 PUSH1 0x40 MLOAD DUP3 PUSH4 0xFFFFFFFF AND PUSH1 0xE0 SHL DUP2 MSTORE PUSH1 0x4 ADD PUSH2 0x2E4F SWAP2 SWAP1 PUSH2 0x5167 JUMP JUMPDEST PUSH0 PUSH1 0x40 MLOAD DUP1 DUP4 SUB DUP2 DUP7 DUP1 EXTCODESIZE ISZERO DUP1 ISZERO PUSH2 0x2E65 JUMPI PUSH0 DUP1 REVERT JUMPDEST POP GAS DELEGATECALL ISZERO DUP1 ISZERO PUSH2 0x2E77 JUMPI RETURNDATASIZE PUSH0 DUP1 RETURNDATACOPY RETURNDATASIZE PUSH0 REVERT JUMPDEST POP POP POP POP PUSH20 0x0 PUSH4 0x5B43BC99 DUP4 PUSH1 0x40 MLOAD DUP3 PUSH4 0xFFFFFFFF AND PUSH1 0xE0 SHL DUP2 MSTORE PUSH1 0x4 ADD PUSH2 0x2EB2 SWAP2 SWAP1 PUSH2 0x5180 JUMP JUMPDEST PUSH0 PUSH1 0x40 MLOAD DUP1 DUP4 SUB DUP2 DUP7 DUP1 EXTCODESIZE ISZERO DUP1 ISZERO PUSH2 0x2EC8 JUMPI PUSH0 DUP1 REVERT JUMPDEST POP GAS DELEGATECALL ISZERO DUP1 ISZERO PUSH2 0x2EDA JUMPI RETURNDATASIZE PUSH0 DUP1 RETURNDATACOPY RETURNDATASIZE PUSH0 REVERT JUMPDEST POP POP POP POP PUSH20 0x0 PUSH4 0x41BB0559 DUP3 PUSH1 0x40 MLOAD DUP3 PUSH4 0xFFFFFFFF AND PUSH1 0xE0 SHL DUP2 MSTORE PUSH1 0x4 ADD PUSH2 0x2F15 SWAP2 SWAP1 PUSH2 0x5180 JUMP JUMPDEST PUSH0 PUSH1 0x40 MLOAD DUP1 DUP4 SUB DUP2 DUP7 DUP1 EXTCODESIZE ISZERO DUP1 ISZERO PUSH2 0x2F2B JUMPI PUSH0 DUP1 REVERT JUMPDEST POP GAS DELEGATECALL ISZERO DUP1 ISZERO PUSH2 0x2F3D JUMPI RETURNDATASIZE PUSH0 DUP1 RETURNDATACOPY RETURNDATASIZE PUSH0 REVERT JUMPDEST POP POP POP POP PUSH20 0x0 PUSH4 0x345E7B28 PUSH1 0x1 PUSH1 0x40 MLOAD DUP3 PUSH4 0xFFFFFFFF AND PUSH1 0xE0 SHL DUP2 MSTORE PUSH1 0x4 ADD PUSH2 0x2F79 SWAP2 SWAP1 PUSH2 0x51D9 JUMP JUMPDEST PUSH0 PUSH1 0x40 MLOAD DUP1 DUP4 SUB DUP2 DUP7 DUP1 EXTCODESIZE ISZERO DUP1 ISZERO PUSH2 0x2F8F JUMPI PUSH0 DUP1 REVERT JUMPDEST POP GAS DELEGATECALL ISZERO DUP1 ISZERO PUSH2 0x2FA1 JUMPI RETURNDATASIZE PUSH0 DUP1 RETURNDATACOPY RETURNDATASIZE PUSH0 REVERT JUMPDEST POP POP POP POP PUSH20 0x0 PUSH4 0x32B07B43 PUSH1 0x1 PUSH1 0x40 MLOAD DUP3 PUSH4 0xFFFFFFFF AND PUSH1 0xE0 SHL DUP2 MSTORE PUSH1 0x4 ADD PUSH2 0x2FDD SWAP2 SWAP1 PUSH2 0x51D9 JUMP JUMPDEST PUSH0 PUSH1 0x40 MLOAD DUP1 DUP4 SUB DUP2 DUP7 DUP1 EXTCODESIZE ISZERO DUP1 ISZERO PUSH2 0x2FF3 JUMPI PUSH0 DUP1 REVERT JUMPDEST POP GAS DELEGATECALL ISZERO DUP1 ISZERO PUSH2 0x3005 JUMPI RETURNDATASIZE PUSH0 DUP1 RETURNDATACOPY RETURNDATASIZE PUSH0 REVERT JUMPDEST POP POP POP POP POP POP JUMP JUMPDEST PUSH0 CALLER SWAP1 POP SWAP1 JUMP JUMPDEST PUSH0 PUSH20 0x0 PUSH4 0x9451C99A PUSH1 0x40 MLOAD DUP2 PUSH4 0xFFFFFFFF AND PUSH1 0xE0 SHL DUP2 MSTORE PUSH1 0x4 ADD PUSH1 0x20 PUSH1 0x40 MLOAD DUP1 DUP4 SUB DUP2 DUP7 GAS DELEGATECALL ISZERO DUP1 ISZERO PUSH2 0x305C JUMPI RETURNDATASIZE PUSH0 DUP1 RETURNDATACOPY RETURNDATASIZE PUSH0 REVERT JUMPDEST POP POP POP POP PUSH1 0x40 MLOAD RETURNDATASIZE PUSH1 0x1F NOT PUSH1 0x1F DUP3 ADD AND DUP3 ADD DUP1 PUSH1 0x40 MSTORE POP DUP2 ADD SWAP1 PUSH2 0x3080 SWAP2 SWAP1 PUSH2 0x48DB JUMP JUMPDEST SWAP1 POP SWAP1 JUMP JUMPDEST PUSH0 DUP3 PUSH2 0x3091 DUP6 DUP5 PUSH2 0x3699 JUMP JUMPDEST EQ SWAP1 POP SWAP4 SWAP3 POP POP POP JUMP JUMPDEST PUSH2 0x30B4 DUP3 DUP3 PUSH1 0x40 MLOAD DUP1 PUSH1 0x20 ADD PUSH1 0x40 MSTORE DUP1 PUSH0 DUP2 MSTORE POP PUSH2 0x36E7 JUMP JUMPDEST POP POP JUMP JUMPDEST PUSH1 0x60 PUSH2 0x30C3 DUP3 PUSH2 0x209E JUMP JUMPDEST PUSH2 0x3102 JUMPI PUSH1 0x40 MLOAD PUSH32 0x8C379A000000000000000000000000000000000000000000000000000000000 DUP2 MSTORE PUSH1 0x4 ADD PUSH2 0x30F9 SWAP1 PUSH2 0x5262 JUMP JUMPDEST PUSH1 0x40 MLOAD DUP1 SWAP2 SUB SWAP1 REVERT JUMPDEST PUSH0 PUSH2 0x310B PUSH2 0x140C JUMP JUMPDEST SWAP1 POP PUSH0 DUP2 MLOAD GT PUSH2 0x3188 JUMPI PUSH20 0x0 PUSH4 0x963BFE12 PUSH1 0x40 MLOAD DUP2 PUSH4 0xFFFFFFFF AND PUSH1 0xE0 SHL DUP2 MSTORE PUSH1 0x4 ADD PUSH0 PUSH1 0x40 MLOAD DUP1 DUP4 SUB DUP2 DUP7 GAS DELEGATECALL ISZERO DUP1 ISZERO PUSH2 0x315B JUMPI RETURNDATASIZE PUSH0 DUP1 RETURNDATACOPY RETURNDATASIZE PUSH0 REVERT JUMPDEST POP POP POP POP PUSH1 0x40 MLOAD RETURNDATASIZE PUSH0 DUP3 RETURNDATACOPY RETURNDATASIZE PUSH1 0x1F NOT PUSH1 0x1F DUP3 ADD AND DUP3 ADD DUP1 PUSH1 0x40 MSTORE POP DUP2 ADD SWAP1 PUSH2 0x3183 SWAP2 SWAP1 PUSH2 0x4749 JUMP JUMPDEST PUSH2 0x31B3 JUMP JUMPDEST DUP1 PUSH2 0x3192 DUP5 PUSH2 0x382F JUMP JUMPDEST PUSH1 0x40 MLOAD PUSH1 0x20 ADD PUSH2 0x31A3 SWAP3 SWAP2 SWAP1 PUSH2 0x52CA JUMP JUMPDEST PUSH1 0x40 MLOAD PUSH1 0x20 DUP2 DUP4 SUB SUB DUP2 MSTORE SWAP1 PUSH1 0x40 MSTORE JUMPDEST SWAP2 POP POP SWAP2 SWAP1 POP JUMP JUMPDEST PUSH0 DUP4 PUSH20 0xFFFFFFFFFFFFFFFFFFFFFFFFFFFFFFFFFFFFFFFF AND PUSH4 0x150B7A02 PUSH2 0x31E0 PUSH2 0x300D JUMP JUMPDEST DUP8 DUP7 DUP7 PUSH1 0x40 MLOAD DUP6 PUSH4 0xFFFFFFFF AND PUSH1 0xE0 SHL DUP2 MSTORE PUSH1 0x4 ADD PUSH2 0x3202 SWAP5 SWAP4 SWAP3 SWAP2 SWAP1 PUSH2 0x534A JUMP JUMPDEST PUSH1 0x20 PUSH1 0x40 MLOAD DUP1 DUP4 SUB DUP2 PUSH0 DUP8 GAS CALL SWAP3 POP POP POP DUP1 ISZERO PUSH2 0x323D JUMPI POP PUSH1 0x40 MLOAD RETURNDATASIZE PUSH1 0x1F NOT PUSH1 0x1F DUP3 ADD AND DUP3 ADD DUP1 PUSH1 0x40 MSTORE POP DUP2 ADD SWAP1 PUSH2 0x323A SWAP2 SWAP1 PUSH2 0x53A8 JUMP JUMPDEST PUSH1 0x1 JUMPDEST PUSH2 0x3292 JUMPI RETURNDATASIZE DUP1 PUSH0 DUP2 EQ PUSH2 0x326B JUMPI PUSH1 0x40 MLOAD SWAP2 POP PUSH1 0x1F NOT PUSH1 0x3F RETURNDATASIZE ADD AND DUP3 ADD PUSH1 0x40 MSTORE RETURNDATASIZE DUP3 MSTORE RETURNDATASIZE PUSH0 PUSH1 0x20 DUP5 ADD RETURNDATACOPY PUSH2 0x3270 JUMP JUMPDEST PUSH1 0x60 SWAP2 POP JUMPDEST POP PUSH0 DUP2 MLOAD SUB PUSH2 0x328A JUMPI PUSH2 0x3289 PUSH4 0xD1A57ED6 PUSH1 0xE0 SHL PUSH2 0x2272 JUMP JUMPDEST JUMPDEST DUP1 MLOAD DUP2 PUSH1 0x20 ADD REVERT JUMPDEST PUSH4 0x150B7A02 PUSH1 0xE0 SHL PUSH28 0xFFFFFFFFFFFFFFFFFFFFFFFFFFFFFFFFFFFFFFFFFFFFFFFFFFFFFFFF NOT AND DUP2 PUSH28 0xFFFFFFFFFFFFFFFFFFFFFFFFFFFFFFFFFFFFFFFFFFFFFFFFFFFFFFFF NOT AND EQ SWAP2 POP POP SWAP5 SWAP4 POP POP POP POP JUMP JUMPDEST PUSH1 0x60 PUSH1 0x40 MLOAD DUP1 PUSH1 0x20 ADD PUSH1 0x40 MSTORE DUP1 PUSH0 DUP2 MSTORE POP SWAP1 POP SWAP1 JUMP JUMPDEST PUSH1 0x60 PUSH2 0x3306 DUP3 PUSH2 0x209E JUMP JUMPDEST PUSH2 0x331B JUMPI PUSH2 0x331A PUSH4 0xA14C4B50 PUSH1 0xE0 SHL PUSH2 0x2272 JUMP JUMPDEST JUMPDEST PUSH0 PUSH2 0x3324 PUSH2 0x32E5 JUMP JUMPDEST SWAP1 POP PUSH0 DUP2 MLOAD SUB PUSH2 0x3342 JUMPI PUSH1 0x40 MLOAD DUP1 PUSH1 0x20 ADD PUSH1 0x40 MSTORE DUP1 PUSH0 DUP2 MSTORE POP PUSH2 0x336D JUMP JUMPDEST DUP1 PUSH2 0x334C DUP5 PUSH2 0x38F9 JUMP JUMPDEST PUSH1 0x40 MLOAD PUSH1 0x20 ADD PUSH2 0x335D SWAP3 SWAP2 SWAP1 PUSH2 0x4DA6 JUMP JUMPDEST PUSH1 0x40 MLOAD PUSH1 0x20 DUP2 DUP4 SUB SUB DUP2 MSTORE SWAP1 PUSH1 0x40 MSTORE JUMPDEST SWAP2 POP POP SWAP2 SWAP1 POP JUMP JUMPDEST PUSH0 PUSH29 0x100000000000000000000000000000000000000000000000000000000 DUP3 AND PUSH20 0xFFFFFFFFFFFFFFFFFFFFFFFFFFFFFFFFFFFFFFFF DUP4 AND GT SWAP1 POP SWAP2 SWAP1 POP JUMP JUMPDEST PUSH0 DUP1 PUSH1 0x1 PUSH20 0x0 PUSH4 0xA7CC0136 DUP6 PUSH1 0x40 MLOAD DUP3 PUSH4 0xFFFFFFFF AND PUSH1 0xE0 SHL DUP2 MSTORE PUSH1 0x4 ADD PUSH2 0x33F0 SWAP2 SWAP1 PUSH2 0x479F JUMP JUMPDEST PUSH1 0x20 PUSH1 0x40 MLOAD DUP1 DUP4 SUB DUP2 DUP7 GAS DELEGATECALL ISZERO DUP1 ISZERO PUSH2 0x340B JUMPI RETURNDATASIZE PUSH0 DUP1 RETURNDATACOPY RETURNDATASIZE PUSH0 REVERT JUMPDEST POP POP POP POP PUSH1 0x40 MLOAD RETURNDATASIZE PUSH1 0x1F NOT PUSH1 0x1F DUP3 ADD AND DUP3 ADD DUP1 PUSH1 0x40 MSTORE POP DUP2 ADD SWAP1 PUSH2 0x342F SWAP2 SWAP1 PUSH2 0x4809 JUMP JUMPDEST PUSH0 ADD MLOAD SWAP2 POP SWAP2 POP SWAP2 POP SWAP2 JUMP JUMPDEST PUSH0 PUSH20 0xFFFFFFFFFFFFFFFFFFFFFFFFFFFFFFFFFFFFFFFF DUP4 AND SWAP3 POP PUSH20 0xFFFFFFFFFFFFFFFFFFFFFFFFFFFFFFFFFFFFFFFF DUP3 AND SWAP2 POP DUP4 DUP3 EQ DUP4 DUP4 EQ OR SWAP1 POP SWAP4 SWAP3 POP POP POP JUMP JUMPDEST POP POP POP POP JUMP JUMPDEST PUSH0 DUP1 PUSH1 0xE8 DUP4 SWAP1 SHR SWAP1 POP PUSH1 0xE8 PUSH2 0x349A DUP7 DUP7 DUP5 PUSH2 0x3948 JUMP JUMPDEST PUSH3 0xFFFFFF AND SWAP1 SHL SWAP2 POP POP SWAP4 SWAP3 POP POP POP JUMP JUMPDEST PUSH0 PUSH20 0xFFFFFFFFFFFFFFFFFFFFFFFFFFFFFFFFFFFFFFFF DUP4 AND SWAP3 POP DUP2 TIMESTAMP PUSH1 0xA0 SHL OR DUP4 OR SWAP1 POP SWAP3 SWAP2 POP POP JUMP JUMPDEST POP POP POP POP JUMP JUMPDEST PUSH20 0x0 PUSH4 0xDBE0B21C DUP3 PUSH1 0x40 MLOAD DUP3 PUSH4 0xFFFFFFFF AND PUSH1 0xE0 SHL DUP2 MSTORE PUSH1 0x4 ADD PUSH2 0x3512 SWAP2 SWAP1 PUSH2 0x479F JUMP JUMPDEST PUSH0 PUSH1 0x40 MLOAD DUP1 DUP4 SUB DUP2 DUP7 DUP1 EXTCODESIZE ISZERO DUP1 ISZERO PUSH2 0x3528 JUMPI PUSH0 DUP1 REVERT JUMPDEST POP GAS DELEGATECALL ISZERO DUP1 ISZERO PUSH2 0x353A JUMPI RETURNDATASIZE PUSH0 DUP1 RETURNDATACOPY RETURNDATASIZE PUSH0 REVERT JUMPDEST POP POP POP POP POP JUMP JUMPDEST PUSH20 0x0 PUSH4 0x71BC71C DUP4 DUP4 PUSH2 0x3566 DUP7 PUSH2 0x156E JUMP JUMPDEST PUSH1 0x40 MLOAD DUP5 PUSH4 0xFFFFFFFF AND PUSH1 0xE0 SHL DUP2 MSTORE PUSH1 0x4 ADD PUSH2 0x3584 SWAP4 SWAP3 SWAP2 SWAP1 PUSH2 0x53D3 JUMP JUMPDEST PUSH0 PUSH1 0x40 MLOAD DUP1 DUP4 SUB DUP2 DUP7 DUP1 EXTCODESIZE ISZERO DUP1 ISZERO PUSH2 0x359A JUMPI PUSH0 DUP1 REVERT JUMPDEST POP GAS DELEGATECALL ISZERO DUP1 ISZERO PUSH2 0x35AC JUMPI RETURNDATASIZE PUSH0 DUP1 RETURNDATACOPY RETURNDATASIZE PUSH0 REVERT JUMPDEST POP POP POP POP POP POP JUMP JUMPDEST PUSH20 0x0 PUSH4 0x40E02F5C DUP3 PUSH1 0x40 MLOAD DUP3 PUSH4 0xFFFFFFFF AND PUSH1 0xE0 SHL DUP2 MSTORE PUSH1 0x4 ADD PUSH2 0x35EB SWAP2 SWAP1 PUSH2 0x479F JUMP JUMPDEST PUSH0 PUSH1 0x40 MLOAD DUP1 DUP4 SUB DUP2 DUP7 DUP1 EXTCODESIZE ISZERO DUP1 ISZERO PUSH2 0x3601 JUMPI PUSH0 DUP1 REVERT JUMPDEST POP GAS DELEGATECALL ISZERO DUP1 ISZERO PUSH2 0x3613 JUMPI RETURNDATASIZE PUSH0 DUP1 RETURNDATACOPY RETURNDATASIZE PUSH0 REVERT JUMPDEST POP POP POP POP POP JUMP JUMPDEST PUSH20 0x0 PUSH4 0x4F4979ED DUP4 DUP4 PUSH1 0x1 PUSH2 0x3641 DUP8 PUSH2 0x156E JUMP JUMPDEST PUSH2 0x364B SWAP2 SWAP1 PUSH2 0x5408 JUMP JUMPDEST PUSH1 0x40 MLOAD DUP5 PUSH4 0xFFFFFFFF AND PUSH1 0xE0 SHL DUP2 MSTORE PUSH1 0x4 ADD PUSH2 0x3669 SWAP4 SWAP3 SWAP2 SWAP1 PUSH2 0x53D3 JUMP JUMPDEST PUSH0 PUSH1 0x40 MLOAD DUP1 DUP4 SUB DUP2 DUP7 DUP1 EXTCODESIZE ISZERO DUP1 ISZERO PUSH2 0x367F JUMPI PUSH0 DUP1 REVERT JUMPDEST POP GAS DELEGATECALL ISZERO DUP1 ISZERO PUSH2 0x3691 JUMPI RETURNDATASIZE PUSH0 DUP1 RETURNDATACOPY RETURNDATASIZE PUSH0 REVERT JUMPDEST POP POP POP POP POP POP JUMP JUMPDEST PUSH0 DUP1 DUP3 SWAP1 POP PUSH0 JUMPDEST DUP5 MLOAD DUP2 LT ISZERO PUSH2 0x36DC JUMPI PUSH2 0x36CD DUP3 DUP7 DUP4 DUP2 MLOAD DUP2 LT PUSH2 0x36C0 JUMPI PUSH2 0x36BF PUSH2 0x543B JUMP JUMPDEST JUMPDEST PUSH1 0x20 MUL PUSH1 0x20 ADD ADD MLOAD PUSH2 0x3950 JUMP JUMPDEST SWAP2 POP DUP1 DUP1 PUSH1 0x1 ADD SWAP2 POP POP PUSH2 0x36A0 JUMP JUMPDEST POP DUP1 SWAP2 POP POP SWAP3 SWAP2 POP POP JUMP JUMPDEST PUSH2 0x36F1 DUP4 DUP4 PUSH2 0x397A JUMP JUMPDEST PUSH0 DUP4 PUSH20 0xFFFFFFFFFFFFFFFFFFFFFFFFFFFFFFFFFFFFFFFF AND EXTCODESIZE EQ PUSH2 0x382A JUMPI PUSH0 PUSH20 0x0 PUSH4 0x9451C99A PUSH1 0x40 MLOAD DUP2 PUSH4 0xFFFFFFFF AND PUSH1 0xE0 SHL DUP2 MSTORE PUSH1 0x4 ADD PUSH1 0x20 PUSH1 0x40 MLOAD DUP1 DUP4 SUB DUP2 DUP7 GAS DELEGATECALL ISZERO DUP1 ISZERO PUSH2 0x3757 JUMPI RETURNDATASIZE PUSH0 DUP1 RETURNDATACOPY RETURNDATASIZE PUSH0 REVERT JUMPDEST POP POP POP POP PUSH1 0x40 MLOAD RETURNDATASIZE PUSH1 0x1F NOT PUSH1 0x1F DUP3 ADD AND DUP3 ADD DUP1 PUSH1 0x40 MSTORE POP DUP2 ADD SWAP1 PUSH2 0x377B SWAP2 SWAP1 PUSH2 0x48DB JUMP JUMPDEST SWAP1 POP PUSH0 DUP4 DUP3 SUB SWAP1 POP JUMPDEST PUSH2 0x3796 PUSH0 DUP7 DUP4 DUP1 PUSH1 0x1 ADD SWAP5 POP DUP7 PUSH2 0x31BB JUMP JUMPDEST PUSH2 0x37AB JUMPI PUSH2 0x37AA PUSH4 0xD1A57ED6 PUSH1 0xE0 SHL PUSH2 0x2272 JUMP JUMPDEST JUMPDEST DUP2 DUP2 LT PUSH2 0x3784 JUMPI DUP2 PUSH20 0x0 PUSH4 0x9451C99A PUSH1 0x40 MLOAD DUP2 PUSH4 0xFFFFFFFF AND PUSH1 0xE0 SHL DUP2 MSTORE PUSH1 0x4 ADD PUSH1 0x20 PUSH1 0x40 MLOAD DUP1 DUP4 SUB DUP2 DUP7 GAS DELEGATECALL ISZERO DUP1 ISZERO PUSH2 0x37FA JUMPI RETURNDATASIZE PUSH0 DUP1 RETURNDATACOPY RETURNDATASIZE PUSH0 REVERT JUMPDEST POP POP POP POP PUSH1 0x40 MLOAD RETURNDATASIZE PUSH1 0x1F NOT PUSH1 0x1F DUP3 ADD AND DUP3 ADD DUP1 PUSH1 0x40 MSTORE POP DUP2 ADD SWAP1 PUSH2 0x381E SWAP2 SWAP1 PUSH2 0x48DB JUMP JUMPDEST EQ PUSH2 0x3827 JUMPI PUSH0 DUP1 REVERT JUMPDEST POP POP JUMPDEST POP POP POP JUMP JUMPDEST PUSH1 0x60 PUSH0 PUSH1 0x1 PUSH2 0x383D DUP5 PUSH2 0x3C95 JUMP JUMPDEST ADD SWAP1 POP PUSH0 DUP2 PUSH8 0xFFFFFFFFFFFFFFFF DUP2 GT ISZERO PUSH2 0x385B JUMPI PUSH2 0x385A PUSH2 0x40C5 JUMP JUMPDEST JUMPDEST PUSH1 0x40 MLOAD SWAP1 DUP1 DUP3 MSTORE DUP1 PUSH1 0x1F ADD PUSH1 0x1F NOT AND PUSH1 0x20 ADD DUP3 ADD PUSH1 0x40 MSTORE DUP1 ISZERO PUSH2 0x388D JUMPI DUP2 PUSH1 0x20 ADD PUSH1 0x1 DUP3 MUL DUP1 CALLDATASIZE DUP4 CALLDATACOPY DUP1 DUP3 ADD SWAP2 POP POP SWAP1 POP JUMPDEST POP SWAP1 POP PUSH0 DUP3 PUSH1 0x20 ADD DUP3 ADD SWAP1 POP JUMPDEST PUSH1 0x1 ISZERO PUSH2 0x38EE JUMPI DUP1 DUP1 PUSH1 0x1 SWAP1 SUB SWAP2 POP POP PUSH32 0x3031323334353637383961626364656600000000000000000000000000000000 PUSH1 0xA DUP7 MOD BYTE DUP2 MSTORE8 PUSH1 0xA DUP6 DUP2 PUSH2 0x38E3 JUMPI PUSH2 0x38E2 PUSH2 0x5468 JUMP JUMPDEST JUMPDEST DIV SWAP5 POP PUSH0 DUP6 SUB PUSH2 0x389A JUMPI JUMPDEST DUP2 SWAP4 POP POP POP POP SWAP2 SWAP1 POP JUMP JUMPDEST PUSH1 0x60 PUSH1 0xA0 PUSH1 0x40 MLOAD ADD DUP1 PUSH1 0x40 MSTORE PUSH1 0x20 DUP2 SUB SWAP2 POP PUSH0 DUP3 MSTORE DUP2 DUP4 JUMPDEST PUSH1 0x1 ISZERO PUSH2 0x3933 JUMPI PUSH1 0x1 DUP5 SUB SWAP4 POP PUSH1 0xA DUP2 MOD PUSH1 0x30 ADD DUP5 MSTORE8 PUSH1 0xA DUP2 DIV SWAP1 POP DUP1 PUSH2 0x3911 JUMPI JUMPDEST POP DUP3 DUP2 SUB PUSH1 0x20 DUP5 SUB SWAP4 POP DUP1 DUP5 MSTORE POP POP POP SWAP2 SWAP1 POP JUMP JUMPDEST PUSH0 SWAP4 SWAP3 POP POP POP JUMP JUMPDEST PUSH0 DUP2 DUP4 LT PUSH2 0x3967 JUMPI PUSH2 0x3962 DUP3 DUP5 PUSH2 0x3DE6 JUMP JUMPDEST PUSH2 0x3972 JUMP JUMPDEST PUSH2 0x3971 DUP4 DUP4 PUSH2 0x3DE6 JUMP JUMPDEST JUMPDEST SWAP1 POP SWAP3 SWAP2 POP POP JUMP JUMPDEST PUSH0 PUSH20 0x0 PUSH4 0x9451C99A PUSH1 0x40 MLOAD DUP2 PUSH4 0xFFFFFFFF AND PUSH1 0xE0 SHL DUP2 MSTORE PUSH1 0x4 ADD PUSH1 0x20 PUSH1 0x40 MLOAD DUP1 DUP4 SUB DUP2 DUP7 GAS DELEGATECALL ISZERO DUP1 ISZERO PUSH2 0x39C2 JUMPI RETURNDATASIZE PUSH0 DUP1 RETURNDATACOPY RETURNDATASIZE PUSH0 REVERT JUMPDEST POP POP POP POP PUSH1 0x40 MLOAD RETURNDATASIZE PUSH1 0x1F NOT PUSH1 0x1F DUP3 ADD AND DUP3 ADD DUP1 PUSH1 0x40 MSTORE POP DUP2 ADD SWAP1 PUSH2 0x39E6 SWAP2 SWAP1 PUSH2 0x48DB JUMP JUMPDEST SWAP1 POP PUSH0 DUP3 SUB PUSH2 0x3A00 JUMPI PUSH2 0x39FF PUSH4 0xB562E8DD PUSH1 0xE0 SHL PUSH2 0x2272 JUMP JUMPDEST JUMPDEST PUSH2 0x3A0C PUSH0 DUP5 DUP4 DUP6 PUSH2 0x347E JUMP JUMPDEST PUSH20 0x0 PUSH4 0xE68FDEE1 DUP3 PUSH2 0x3A45 DUP7 PUSH2 0x3A36 PUSH0 DUP10 PUSH0 PUSH2 0x3484 JUMP JUMPDEST PUSH2 0x3A3F DUP9 PUSH2 0x3DFA JUMP JUMPDEST OR PUSH2 0x34AB JUMP JUMPDEST PUSH1 0x40 MLOAD DUP4 PUSH4 0xFFFFFFFF AND PUSH1 0xE0 SHL DUP2 MSTORE PUSH1 0x4 ADD PUSH2 0x3A62 SWAP3 SWAP2 SWAP1 PUSH2 0x4ED1 JUMP JUMPDEST PUSH0 PUSH1 0x40 MLOAD DUP1 DUP4 SUB DUP2 DUP7 DUP1 EXTCODESIZE ISZERO DUP1 ISZERO PUSH2 0x3A78 JUMPI PUSH0 DUP1 REVERT JUMPDEST POP GAS DELEGATECALL ISZERO DUP1 ISZERO PUSH2 0x3A8A JUMPI RETURNDATASIZE PUSH0 DUP1 RETURNDATACOPY RETURNDATASIZE PUSH0 REVERT JUMPDEST POP POP POP POP PUSH20 0x0 PUSH4 0xA3301173 DUP5 PUSH1 0x1 PUSH1 0x40 PUSH1 0x1 SWAP1 SHL OR DUP6 MUL PUSH20 0x0 PUSH4 0x21B0ED7D DUP9 PUSH1 0x40 MLOAD DUP3 PUSH4 0xFFFFFFFF AND PUSH1 0xE0 SHL DUP2 MSTORE PUSH1 0x4 ADD PUSH2 0x3AEB SWAP2 SWAP1 PUSH2 0x4A6B JUMP JUMPDEST PUSH1 0x20 PUSH1 0x40 MLOAD DUP1 DUP4 SUB DUP2 DUP7 GAS DELEGATECALL ISZERO DUP1 ISZERO PUSH2 0x3B06 JUMPI RETURNDATASIZE PUSH0 DUP1 RETURNDATACOPY RETURNDATASIZE PUSH0 REVERT JUMPDEST POP POP POP POP PUSH1 0x40 MLOAD RETURNDATASIZE PUSH1 0x1F NOT PUSH1 0x1F DUP3 ADD AND DUP3 ADD DUP1 PUSH1 0x40 MSTORE POP DUP2 ADD SWAP1 PUSH2 0x3B2A SWAP2 SWAP1 PUSH2 0x48DB JUMP JUMPDEST ADD PUSH1 0x40 MLOAD DUP4 PUSH4 0xFFFFFFFF AND PUSH1 0xE0 SHL DUP2 MSTORE PUSH1 0x4 ADD PUSH2 0x3B48 SWAP3 SWAP2 SWAP1 PUSH2 0x49E6 JUMP JUMPDEST PUSH0 PUSH1 0x40 MLOAD DUP1 DUP4 SUB DUP2 DUP7 DUP1 EXTCODESIZE ISZERO DUP1 ISZERO PUSH2 0x3B5E JUMPI PUSH0 DUP1 REVERT JUMPDEST POP GAS DELEGATECALL ISZERO DUP1 ISZERO PUSH2 0x3B70 JUMPI RETURNDATASIZE PUSH0 DUP1 RETURNDATACOPY RETURNDATASIZE PUSH0 REVERT JUMPDEST POP POP POP POP PUSH0 PUSH20 0xFFFFFFFFFFFFFFFFFFFFFFFFFFFFFFFFFFFFFFFF DUP5 PUSH20 0xFFFFFFFFFFFFFFFFFFFFFFFFFFFFFFFFFFFFFFFF AND AND SWAP1 POP PUSH0 DUP2 SUB PUSH2 0x3BBC JUMPI PUSH2 0x3BBB PUSH4 0x2E076300 PUSH1 0xE0 SHL PUSH2 0x2272 JUMP JUMPDEST JUMPDEST PUSH0 DUP4 DUP4 ADD SWAP1 POP PUSH0 DUP4 SWAP1 POP PUSH2 0x3BCE PUSH2 0x2467 JUMP JUMPDEST PUSH1 0x1 DUP4 SUB GT ISZERO PUSH2 0x3BE9 JUMPI PUSH2 0x3BE8 PUSH4 0x81647E3A PUSH1 0xE0 SHL PUSH2 0x2272 JUMP JUMPDEST JUMPDEST JUMPDEST DUP1 DUP4 PUSH0 PUSH32 0xDDF252AD1BE2C89B69C2B068FC378DAA952BA7F163C4A11628F55A4DF523B3EF PUSH0 DUP1 LOG4 DUP2 DUP2 PUSH1 0x1 ADD SWAP2 POP DUP2 SUB PUSH2 0x3BEA JUMPI PUSH20 0x0 PUSH4 0x345E7B28 DUP4 PUSH1 0x40 MLOAD DUP3 PUSH4 0xFFFFFFFF AND PUSH1 0xE0 SHL DUP2 MSTORE PUSH1 0x4 ADD PUSH2 0x3C55 SWAP2 SWAP1 PUSH2 0x479F JUMP JUMPDEST PUSH0 PUSH1 0x40 MLOAD DUP1 DUP4 SUB DUP2 DUP7 DUP1 EXTCODESIZE ISZERO DUP1 ISZERO PUSH2 0x3C6B JUMPI PUSH0 DUP1 REVERT JUMPDEST POP GAS DELEGATECALL ISZERO DUP1 ISZERO PUSH2 0x3C7D JUMPI RETURNDATASIZE PUSH0 DUP1 RETURNDATACOPY RETURNDATASIZE PUSH0 REVERT JUMPDEST POP POP POP POP POP POP POP PUSH2 0x3C90 PUSH0 DUP5 DUP4 DUP6 PUSH2 0x34D5 JUMP JUMPDEST POP POP POP JUMP JUMPDEST PUSH0 DUP1 PUSH0 SWAP1 POP PUSH27 0x184F03E93FF9F4DAA797ED6E38ED64BF6A1F010000000000000000 DUP4 LT PUSH2 0x3CF1 JUMPI PUSH27 0x184F03E93FF9F4DAA797ED6E38ED64BF6A1F010000000000000000 DUP4 DUP2 PUSH2 0x3CE7 JUMPI PUSH2 0x3CE6 PUSH2 0x5468 JUMP JUMPDEST JUMPDEST DIV SWAP3 POP PUSH1 0x40 DUP2 ADD SWAP1 POP JUMPDEST PUSH14 0x4EE2D6D415B85ACEF8100000000 DUP4 LT PUSH2 0x3D2E JUMPI PUSH14 0x4EE2D6D415B85ACEF8100000000 DUP4 DUP2 PUSH2 0x3D24 JUMPI PUSH2 0x3D23 PUSH2 0x5468 JUMP JUMPDEST JUMPDEST DIV SWAP3 POP PUSH1 0x20 DUP2 ADD SWAP1 POP JUMPDEST PUSH7 0x2386F26FC10000 DUP4 LT PUSH2 0x3D5D JUMPI PUSH7 0x2386F26FC10000 DUP4 DUP2 PUSH2 0x3D53 JUMPI PUSH2 0x3D52 PUSH2 0x5468 JUMP JUMPDEST JUMPDEST DIV SWAP3 POP PUSH1 0x10 DUP2 ADD SWAP1 POP JUMPDEST PUSH4 0x5F5E100 DUP4 LT PUSH2 0x3D86 JUMPI PUSH4 0x5F5E100 DUP4 DUP2 PUSH2 0x3D7C JUMPI PUSH2 0x3D7B PUSH2 0x5468 JUMP JUMPDEST JUMPDEST DIV SWAP3 POP PUSH1 0x8 DUP2 ADD SWAP1 POP JUMPDEST PUSH2 0x2710 DUP4 LT PUSH2 0x3DAB JUMPI PUSH2 0x2710 DUP4 DUP2 PUSH2 0x3DA1 JUMPI PUSH2 0x3DA0 PUSH2 0x5468 JUMP JUMPDEST JUMPDEST DIV SWAP3 POP PUSH1 0x4 DUP2 ADD SWAP1 POP JUMPDEST PUSH1 0x64 DUP4 LT PUSH2 0x3DCE JUMPI PUSH1 0x64 DUP4 DUP2 PUSH2 0x3DC4 JUMPI PUSH2 0x3DC3 PUSH2 0x5468 JUMP JUMPDEST JUMPDEST DIV SWAP3 POP PUSH1 0x2 DUP2 ADD SWAP1 POP JUMPDEST PUSH1 0xA DUP4 LT PUSH2 0x3DDD JUMPI PUSH1 0x1 DUP2 ADD SWAP1 POP JUMPDEST DUP1 SWAP2 POP POP SWAP2 SWAP1 POP JUMP JUMPDEST PUSH0 DUP3 PUSH0 MSTORE DUP2 PUSH1 0x20 MSTORE PUSH1 0x40 PUSH0 KECCAK256 SWAP1 POP SWAP3 SWAP2 POP POP JUMP JUMPDEST PUSH0 PUSH1 0x1 DUP3 EQ PUSH1 0xE1 SHL SWAP1 POP SWAP2 SWAP1 POP JUMP JUMPDEST PUSH0 PUSH1 0x40 MLOAD SWAP1 POP SWAP1 JUMP JUMPDEST PUSH0 DUP1 REVERT JUMPDEST PUSH0 DUP1 REVERT JUMPDEST PUSH0 PUSH32 0xFFFFFFFF00000000000000000000000000000000000000000000000000000000 DUP3 AND SWAP1 POP SWAP2 SWAP1 POP JUMP JUMPDEST PUSH2 0x3E4E DUP2 PUSH2 0x3E1A JUMP JUMPDEST DUP2 EQ PUSH2 0x3E58 JUMPI PUSH0 DUP1 REVERT JUMPDEST POP JUMP JUMPDEST PUSH0 DUP2 CALLDATALOAD SWAP1 POP PUSH2 0x3E69 DUP2 PUSH2 0x3E45 JUMP JUMPDEST SWAP3 SWAP2 POP POP JUMP JUMPDEST PUSH0 PUSH1 0x20 DUP3 DUP5 SUB SLT ISZERO PUSH2 0x3E84 JUMPI PUSH2 0x3E83 PUSH2 0x3E12 JUMP JUMPDEST JUMPDEST PUSH0 PUSH2 0x3E91 DUP5 DUP3 DUP6 ADD PUSH2 0x3E5B JUMP JUMPDEST SWAP2 POP POP SWAP3 SWAP2 POP POP JUMP JUMPDEST PUSH0 DUP2 ISZERO ISZERO SWAP1 POP SWAP2 SWAP1 POP JUMP JUMPDEST PUSH2 0x3EAE DUP2 PUSH2 0x3E9A JUMP JUMPDEST DUP3 MSTORE POP POP JUMP JUMPDEST PUSH0 PUSH1 0x20 DUP3 ADD SWAP1 POP PUSH2 0x3EC7 PUSH0 DUP4 ADD DUP5 PUSH2 0x3EA5 JUMP JUMPDEST SWAP3 SWAP2 POP POP JUMP JUMPDEST PUSH0 DUP2 MLOAD SWAP1 POP SWAP2 SWAP1 POP JUMP JUMPDEST PUSH0 DUP3 DUP3 MSTORE PUSH1 0x20 DUP3 ADD SWAP1 POP SWAP3 SWAP2 POP POP JUMP JUMPDEST PUSH0 JUMPDEST DUP4 DUP2 LT ISZERO PUSH2 0x3F04 JUMPI DUP1 DUP3 ADD MLOAD DUP2 DUP5 ADD MSTORE PUSH1 0x20 DUP2 ADD SWAP1 POP PUSH2 0x3EE9 JUMP JUMPDEST PUSH0 DUP5 DUP5 ADD MSTORE POP POP POP POP JUMP JUMPDEST PUSH0 PUSH1 0x1F NOT PUSH1 0x1F DUP4 ADD AND SWAP1 POP SWAP2 SWAP1 POP JUMP JUMPDEST PUSH0 PUSH2 0x3F29 DUP3 PUSH2 0x3ECD JUMP JUMPDEST PUSH2 0x3F33 DUP2 DUP6 PUSH2 0x3ED7 JUMP JUMPDEST SWAP4 POP PUSH2 0x3F43 DUP2 DUP6 PUSH1 0x20 DUP7 ADD PUSH2 0x3EE7 JUMP JUMPDEST PUSH2 0x3F4C DUP2 PUSH2 0x3F0F JUMP JUMPDEST DUP5 ADD SWAP2 POP POP SWAP3 SWAP2 POP POP JUMP JUMPDEST PUSH0 PUSH1 0x20 DUP3 ADD SWAP1 POP DUP2 DUP2 SUB PUSH0 DUP4 ADD MSTORE PUSH2 0x3F6F DUP2 DUP5 PUSH2 0x3F1F JUMP JUMPDEST SWAP1 POP SWAP3 SWAP2 POP POP JUMP JUMPDEST PUSH0 DUP2 SWAP1 POP SWAP2 SWAP1 POP JUMP JUMPDEST PUSH2 0x3F89 DUP2 PUSH2 0x3F77 JUMP JUMPDEST DUP2 EQ PUSH2 0x3F93 JUMPI PUSH0 DUP1 REVERT JUMPDEST POP JUMP JUMPDEST PUSH0 DUP2 CALLDATALOAD SWAP1 POP PUSH2 0x3FA4 DUP2 PUSH2 0x3F80 JUMP JUMPDEST SWAP3 SWAP2 POP POP JUMP JUMPDEST PUSH0 PUSH1 0x20 DUP3 DUP5 SUB SLT ISZERO PUSH2 0x3FBF JUMPI PUSH2 0x3FBE PUSH2 0x3E12 JUMP JUMPDEST JUMPDEST PUSH0 PUSH2 0x3FCC DUP5 DUP3 DUP6 ADD PUSH2 0x3F96 JUMP JUMPDEST SWAP2 POP POP SWAP3 SWAP2 POP POP JUMP JUMPDEST PUSH0 PUSH20 0xFFFFFFFFFFFFFFFFFFFFFFFFFFFFFFFFFFFFFFFF DUP3 AND SWAP1 POP SWAP2 SWAP1 POP JUMP JUMPDEST PUSH0 PUSH2 0x3FFE DUP3 PUSH2 0x3FD5 JUMP JUMPDEST SWAP1 POP SWAP2 SWAP1 POP JUMP JUMPDEST PUSH2 0x400E DUP2 PUSH2 0x3FF4 JUMP JUMPDEST DUP3 MSTORE POP POP JUMP JUMPDEST PUSH0 PUSH1 0x20 DUP3 ADD SWAP1 POP PUSH2 0x4027 PUSH0 DUP4 ADD DUP5 PUSH2 0x4005 JUMP JUMPDEST SWAP3 SWAP2 POP POP JUMP JUMPDEST PUSH2 0x4036 DUP2 PUSH2 0x3FF4 JUMP JUMPDEST DUP2 EQ PUSH2 0x4040 JUMPI PUSH0 DUP1 REVERT JUMPDEST POP JUMP JUMPDEST PUSH0 DUP2 CALLDATALOAD SWAP1 POP PUSH2 0x4051 DUP2 PUSH2 0x402D JUMP JUMPDEST SWAP3 SWAP2 POP POP JUMP JUMPDEST PUSH0 DUP1 PUSH1 0x40 DUP4 DUP6 SUB SLT ISZERO PUSH2 0x406D JUMPI PUSH2 0x406C PUSH2 0x3E12 JUMP JUMPDEST JUMPDEST PUSH0 PUSH2 0x407A DUP6 DUP3 DUP7 ADD PUSH2 0x4043 JUMP JUMPDEST SWAP3 POP POP PUSH1 0x20 PUSH2 0x408B DUP6 DUP3 DUP7 ADD PUSH2 0x3F96 JUMP JUMPDEST SWAP2 POP POP SWAP3 POP SWAP3 SWAP1 POP JUMP JUMPDEST PUSH2 0x409E DUP2 PUSH2 0x3F77 JUMP JUMPDEST DUP3 MSTORE POP POP JUMP JUMPDEST PUSH0 PUSH1 0x20 DUP3 ADD SWAP1 POP PUSH2 0x40B7 PUSH0 DUP4 ADD DUP5 PUSH2 0x4095 JUMP JUMPDEST SWAP3 SWAP2 POP POP JUMP JUMPDEST PUSH0 DUP1 REVERT JUMPDEST PUSH0 DUP1 REVERT JUMPDEST PUSH32 0x4E487B7100000000000000000000000000000000000000000000000000000000 PUSH0 MSTORE PUSH1 0x41 PUSH1 0x4 MSTORE PUSH1 0x24 PUSH0 REVERT JUMPDEST PUSH2 0x40FB DUP3 PUSH2 0x3F0F JUMP JUMPDEST DUP2 ADD DUP2 DUP2 LT PUSH8 0xFFFFFFFFFFFFFFFF DUP3 GT OR ISZERO PUSH2 0x411A JUMPI PUSH2 0x4119 PUSH2 0x40C5 JUMP JUMPDEST JUMPDEST DUP1 PUSH1 0x40 MSTORE POP POP POP JUMP JUMPDEST PUSH0 PUSH2 0x412C PUSH2 0x3E09 JUMP JUMPDEST SWAP1 POP PUSH2 0x4138 DUP3 DUP3 PUSH2 0x40F2 JUMP JUMPDEST SWAP2 SWAP1 POP JUMP JUMPDEST PUSH0 PUSH8 0xFFFFFFFFFFFFFFFF DUP3 GT ISZERO PUSH2 0x4157 JUMPI PUSH2 0x4156 PUSH2 0x40C5 JUMP JUMPDEST JUMPDEST PUSH2 0x4160 DUP3 PUSH2 0x3F0F JUMP JUMPDEST SWAP1 POP PUSH1 0x20 DUP2 ADD SWAP1 POP SWAP2 SWAP1 POP JUMP JUMPDEST DUP3 DUP2 DUP4 CALLDATACOPY PUSH0 DUP4 DUP4 ADD MSTORE POP POP POP JUMP JUMPDEST PUSH0 PUSH2 0x418D PUSH2 0x4188 DUP5 PUSH2 0x413D JUMP JUMPDEST PUSH2 0x4123 JUMP JUMPDEST SWAP1 POP DUP3 DUP2 MSTORE PUSH1 0x20 DUP2 ADD DUP5 DUP5 DUP5 ADD GT ISZERO PUSH2 0x41A9 JUMPI PUSH2 0x41A8 PUSH2 0x40C1 JUMP JUMPDEST JUMPDEST PUSH2 0x41B4 DUP5 DUP3 DUP6 PUSH2 0x416D JUMP JUMPDEST POP SWAP4 SWAP3 POP POP POP JUMP JUMPDEST PUSH0 DUP3 PUSH1 0x1F DUP4 ADD SLT PUSH2 0x41D0 JUMPI PUSH2 0x41CF PUSH2 0x40BD JUMP JUMPDEST JUMPDEST DUP2 CALLDATALOAD PUSH2 0x41E0 DUP5 DUP3 PUSH1 0x20 DUP7 ADD PUSH2 0x417B JUMP JUMPDEST SWAP2 POP POP SWAP3 SWAP2 POP POP JUMP JUMPDEST PUSH0 DUP1 PUSH0 DUP1 PUSH1 0x80 DUP6 DUP8 SUB SLT ISZERO PUSH2 0x4201 JUMPI PUSH2 0x4200 PUSH2 0x3E12 JUMP JUMPDEST JUMPDEST PUSH0 PUSH2 0x420E DUP8 DUP3 DUP9 ADD PUSH2 0x4043 JUMP JUMPDEST SWAP5 POP POP PUSH1 0x20 PUSH2 0x421F DUP8 DUP3 DUP9 ADD PUSH2 0x4043 JUMP JUMPDEST SWAP4 POP POP PUSH1 0x40 PUSH2 0x4230 DUP8 DUP3 DUP9 ADD PUSH2 0x3F96 JUMP JUMPDEST SWAP3 POP POP PUSH1 0x60 DUP6 ADD CALLDATALOAD PUSH8 0xFFFFFFFFFFFFFFFF DUP2 GT ISZERO PUSH2 0x4251 JUMPI PUSH2 0x4250 PUSH2 0x3E16 JUMP JUMPDEST JUMPDEST PUSH2 0x425D DUP8 DUP3 DUP9 ADD PUSH2 0x41BC JUMP JUMPDEST SWAP2 POP POP SWAP3 SWAP6 SWAP2 SWAP5 POP SWAP3 POP JUMP JUMPDEST PUSH2 0x4272 DUP2 PUSH2 0x3E1A JUMP JUMPDEST DUP3 MSTORE POP POP JUMP JUMPDEST PUSH0 PUSH1 0x20 DUP3 ADD SWAP1 POP PUSH2 0x428B PUSH0 DUP4 ADD DUP5 PUSH2 0x4269 JUMP JUMPDEST SWAP3 SWAP2 POP POP JUMP JUMPDEST PUSH0 DUP1 REVERT JUMPDEST PUSH0 DUP1 REVERT JUMPDEST PUSH0 DUP1 DUP4 PUSH1 0x1F DUP5 ADD SLT PUSH2 0x42AE JUMPI PUSH2 0x42AD PUSH2 0x40BD JUMP JUMPDEST JUMPDEST DUP3 CALLDATALOAD SWAP1 POP PUSH8 0xFFFFFFFFFFFFFFFF DUP2 GT ISZERO PUSH2 0x42CB JUMPI PUSH2 0x42CA PUSH2 0x4291 JUMP JUMPDEST JUMPDEST PUSH1 0x20 DUP4 ADD SWAP2 POP DUP4 PUSH1 0x1 DUP3 MUL DUP4 ADD GT ISZERO PUSH2 0x42E7 JUMPI PUSH2 0x42E6 PUSH2 0x4295 JUMP JUMPDEST JUMPDEST SWAP3 POP SWAP3 SWAP1 POP JUMP JUMPDEST PUSH0 DUP1 PUSH0 PUSH1 0x40 DUP5 DUP7 SUB SLT ISZERO PUSH2 0x4305 JUMPI PUSH2 0x4304 PUSH2 0x3E12 JUMP JUMPDEST JUMPDEST PUSH0 PUSH2 0x4312 DUP7 DUP3 DUP8 ADD PUSH2 0x3F96 JUMP JUMPDEST SWAP4 POP POP PUSH1 0x20 DUP5 ADD CALLDATALOAD PUSH8 0xFFFFFFFFFFFFFFFF DUP2 GT ISZERO PUSH2 0x4333 JUMPI PUSH2 0x4332 PUSH2 0x3E16 JUMP JUMPDEST JUMPDEST PUSH2 0x433F DUP7 DUP3 DUP8 ADD PUSH2 0x4299 JUMP JUMPDEST SWAP3 POP SWAP3 POP POP SWAP3 POP SWAP3 POP SWAP3 JUMP JUMPDEST PUSH0 DUP1 PUSH0 PUSH1 0x60 DUP5 DUP7 SUB SLT ISZERO PUSH2 0x4362 JUMPI PUSH2 0x4361 PUSH2 0x3E12 JUMP JUMPDEST JUMPDEST PUSH0 PUSH2 0x436F DUP7 DUP3 DUP8 ADD PUSH2 0x4043 JUMP JUMPDEST SWAP4 POP POP PUSH1 0x20 PUSH2 0x4380 DUP7 DUP3 DUP8 ADD PUSH2 0x4043 JUMP JUMPDEST SWAP3 POP POP PUSH1 0x40 PUSH2 0x4391 DUP7 DUP3 DUP8 ADD PUSH2 0x3F96 JUMP JUMPDEST SWAP2 POP POP SWAP3 POP SWAP3 POP SWAP3 JUMP JUMPDEST PUSH0 DUP2 SWAP1 POP SWAP2 SWAP1 POP JUMP JUMPDEST PUSH2 0x43AD DUP2 PUSH2 0x439B JUMP JUMPDEST DUP2 EQ PUSH2 0x43B7 JUMPI PUSH0 DUP1 REVERT JUMPDEST POP JUMP JUMPDEST PUSH0 DUP2 CALLDATALOAD SWAP1 POP PUSH2 0x43C8 DUP2 PUSH2 0x43A4 JUMP JUMPDEST SWAP3 SWAP2 POP POP JUMP JUMPDEST PUSH0 PUSH1 0x20 DUP3 DUP5 SUB SLT ISZERO PUSH2 0x43E3 JUMPI PUSH2 0x43E2 PUSH2 0x3E12 JUMP JUMPDEST JUMPDEST PUSH0 PUSH2 0x43F0 DUP5 DUP3 DUP6 ADD PUSH2 0x43BA JUMP JUMPDEST SWAP2 POP POP SWAP3 SWAP2 POP POP JUMP JUMPDEST PUSH0 DUP1 PUSH1 0x20 DUP4 DUP6 SUB SLT ISZERO PUSH2 0x440F JUMPI PUSH2 0x440E PUSH2 0x3E12 JUMP JUMPDEST JUMPDEST PUSH0 DUP4 ADD CALLDATALOAD PUSH8 0xFFFFFFFFFFFFFFFF DUP2 GT ISZERO PUSH2 0x442C JUMPI PUSH2 0x442B PUSH2 0x3E16 JUMP JUMPDEST JUMPDEST PUSH2 0x4438 DUP6 DUP3 DUP7 ADD PUSH2 0x4299 JUMP JUMPDEST SWAP3 POP SWAP3 POP POP SWAP3 POP SWAP3 SWAP1 POP JUMP JUMPDEST PUSH0 PUSH8 0xFFFFFFFFFFFFFFFF DUP3 GT ISZERO PUSH2 0x445E JUMPI PUSH2 0x445D PUSH2 0x40C5 JUMP JUMPDEST JUMPDEST PUSH2 0x4467 DUP3 PUSH2 0x3F0F JUMP JUMPDEST SWAP1 POP PUSH1 0x20 DUP2 ADD SWAP1 POP SWAP2 SWAP1 POP JUMP JUMPDEST PUSH0 PUSH2 0x4486 PUSH2 0x4481 DUP5 PUSH2 0x4444 JUMP JUMPDEST PUSH2 0x4123 JUMP JUMPDEST SWAP1 POP DUP3 DUP2 MSTORE PUSH1 0x20 DUP2 ADD DUP5 DUP5 DUP5 ADD GT ISZERO PUSH2 0x44A2 JUMPI PUSH2 0x44A1 PUSH2 0x40C1 JUMP JUMPDEST JUMPDEST PUSH2 0x44AD DUP5 DUP3 DUP6 PUSH2 0x416D JUMP JUMPDEST POP SWAP4 SWAP3 POP POP POP JUMP JUMPDEST PUSH0 DUP3 PUSH1 0x1F DUP4 ADD SLT PUSH2 0x44C9 JUMPI PUSH2 0x44C8 PUSH2 0x40BD JUMP JUMPDEST JUMPDEST DUP2 CALLDATALOAD PUSH2 0x44D9 DUP5 DUP3 PUSH1 0x20 DUP7 ADD PUSH2 0x4474 JUMP JUMPDEST SWAP2 POP POP SWAP3 SWAP2 POP POP JUMP JUMPDEST PUSH0 DUP1 PUSH1 0x40 DUP4 DUP6 SUB SLT ISZERO PUSH2 0x44F8 JUMPI PUSH2 0x44F7 PUSH2 0x3E12 JUMP JUMPDEST JUMPDEST PUSH0 DUP4 ADD CALLDATALOAD PUSH8 0xFFFFFFFFFFFFFFFF DUP2 GT ISZERO PUSH2 0x4515 JUMPI PUSH2 0x4514 PUSH2 0x3E16 JUMP JUMPDEST JUMPDEST PUSH2 0x4521 DUP6 DUP3 DUP7 ADD PUSH2 0x44B5 JUMP JUMPDEST SWAP3 POP POP PUSH1 0x20 DUP4 ADD CALLDATALOAD PUSH8 0xFFFFFFFFFFFFFFFF DUP2 GT ISZERO PUSH2 0x4542 JUMPI PUSH2 0x4541 PUSH2 0x3E16 JUMP JUMPDEST JUMPDEST PUSH2 0x454E DUP6 DUP3 DUP7 ADD PUSH2 0x44B5 JUMP JUMPDEST SWAP2 POP POP SWAP3 POP SWAP3 SWAP1 POP JUMP JUMPDEST PUSH0 PUSH1 0x20 DUP3 DUP5 SUB SLT ISZERO PUSH2 0x456D JUMPI PUSH2 0x456C PUSH2 0x3E12 JUMP JUMPDEST JUMPDEST PUSH0 PUSH2 0x457A DUP5 DUP3 DUP6 ADD PUSH2 0x4043 JUMP JUMPDEST SWAP2 POP POP SWAP3 SWAP2 POP POP JUMP JUMPDEST PUSH2 0x458C DUP2 PUSH2 0x3E9A JUMP JUMPDEST DUP2 EQ PUSH2 0x4596 JUMPI PUSH0 DUP1 REVERT JUMPDEST POP JUMP JUMPDEST PUSH0 DUP2 CALLDATALOAD SWAP1 POP PUSH2 0x45A7 DUP2 PUSH2 0x4583 JUMP JUMPDEST SWAP3 SWAP2 POP POP JUMP JUMPDEST PUSH0 DUP1 PUSH1 0x40 DUP4 DUP6 SUB SLT ISZERO PUSH2 0x45C3 JUMPI PUSH2 0x45C2 PUSH2 0x3E12 JUMP JUMPDEST JUMPDEST PUSH0 PUSH2 0x45D0 DUP6 DUP3 DUP7 ADD PUSH2 0x4043 JUMP JUMPDEST SWAP3 POP POP PUSH1 0x20 PUSH2 0x45E1 DUP6 DUP3 DUP7 ADD PUSH2 0x4599 JUMP JUMPDEST SWAP2 POP POP SWAP3 POP SWAP3 SWAP1 POP JUMP JUMPDEST PUSH0 DUP1 DUP4 PUSH1 0x1F DUP5 ADD SLT PUSH2 0x4600 JUMPI PUSH2 0x45FF PUSH2 0x40BD JUMP JUMPDEST JUMPDEST DUP3 CALLDATALOAD SWAP1 POP PUSH8 0xFFFFFFFFFFFFFFFF DUP2 GT ISZERO PUSH2 0x461D JUMPI PUSH2 0x461C PUSH2 0x4291 JUMP JUMPDEST JUMPDEST PUSH1 0x20 DUP4 ADD SWAP2 POP DUP4 PUSH1 0x20 DUP3 MUL DUP4 ADD GT ISZERO PUSH2 0x4639 JUMPI PUSH2 0x4638 PUSH2 0x4295 JUMP JUMPDEST JUMPDEST SWAP3 POP SWAP3 SWAP1 POP JUMP JUMPDEST PUSH0 DUP1 PUSH0 PUSH1 0x40 DUP5 DUP7 SUB SLT ISZERO PUSH2 0x4657 JUMPI PUSH2 0x4656 PUSH2 0x3E12 JUMP JUMPDEST JUMPDEST PUSH0 PUSH2 0x4664 DUP7 DUP3 DUP8 ADD PUSH2 0x4043 JUMP JUMPDEST SWAP4 POP POP PUSH1 0x20 DUP5 ADD CALLDATALOAD PUSH8 0xFFFFFFFFFFFFFFFF DUP2 GT ISZERO PUSH2 0x4685 JUMPI PUSH2 0x4684 PUSH2 0x3E16 JUMP JUMPDEST JUMPDEST PUSH2 0x4691 DUP7 DUP3 DUP8 ADD PUSH2 0x45EB JUMP JUMPDEST SWAP3 POP SWAP3 POP POP SWAP3 POP SWAP3 POP SWAP3 JUMP JUMPDEST PUSH0 DUP1 PUSH1 0x40 DUP4 DUP6 SUB SLT ISZERO PUSH2 0x46B3 JUMPI PUSH2 0x46B2 PUSH2 0x3E12 JUMP JUMPDEST JUMPDEST PUSH0 PUSH2 0x46C0 DUP6 DUP3 DUP7 ADD PUSH2 0x4043 JUMP JUMPDEST SWAP3 POP POP PUSH1 0x20 PUSH2 0x46D1 DUP6 DUP3 DUP7 ADD PUSH2 0x4043 JUMP JUMPDEST SWAP2 POP POP SWAP3 POP SWAP3 SWAP1 POP JUMP JUMPDEST PUSH0 PUSH2 0x46ED PUSH2 0x46E8 DUP5 PUSH2 0x4444 JUMP JUMPDEST PUSH2 0x4123 JUMP JUMPDEST SWAP1 POP DUP3 DUP2 MSTORE PUSH1 0x20 DUP2 ADD DUP5 DUP5 DUP5 ADD GT ISZERO PUSH2 0x4709 JUMPI PUSH2 0x4708 PUSH2 0x40C1 JUMP JUMPDEST JUMPDEST PUSH2 0x4714 DUP5 DUP3 DUP6 PUSH2 0x3EE7 JUMP JUMPDEST POP SWAP4 SWAP3 POP POP POP JUMP JUMPDEST PUSH0 DUP3 PUSH1 0x1F DUP4 ADD SLT PUSH2 0x4730 JUMPI PUSH2 0x472F PUSH2 0x40BD JUMP JUMPDEST JUMPDEST DUP2 MLOAD PUSH2 0x4740 DUP5 DUP3 PUSH1 0x20 DUP7 ADD PUSH2 0x46DB JUMP JUMPDEST SWAP2 POP POP SWAP3 SWAP2 POP POP JUMP JUMPDEST PUSH0 PUSH1 0x20 DUP3 DUP5 SUB SLT ISZERO PUSH2 0x475E JUMPI PUSH2 0x475D PUSH2 0x3E12 JUMP JUMPDEST JUMPDEST PUSH0 DUP3 ADD MLOAD PUSH8 0xFFFFFFFFFFFFFFFF DUP2 GT ISZERO PUSH2 0x477B JUMPI PUSH2 0x477A PUSH2 0x3E16 JUMP JUMPDEST JUMPDEST PUSH2 0x4787 DUP5 DUP3 DUP6 ADD PUSH2 0x471C JUMP JUMPDEST SWAP2 POP POP SWAP3 SWAP2 POP POP JUMP JUMPDEST PUSH2 0x4799 DUP2 PUSH2 0x3F77 JUMP JUMPDEST DUP3 MSTORE POP POP JUMP JUMPDEST PUSH0 PUSH1 0x20 DUP3 ADD SWAP1 POP PUSH2 0x47B2 PUSH0 DUP4 ADD DUP5 PUSH2 0x4790 JUMP JUMPDEST SWAP3 SWAP2 POP POP JUMP JUMPDEST PUSH0 DUP1 REVERT JUMPDEST PUSH0 DUP2 MLOAD SWAP1 POP PUSH2 0x47CA DUP2 PUSH2 0x402D JUMP JUMPDEST SWAP3 SWAP2 POP POP JUMP JUMPDEST PUSH0 PUSH1 0x20 DUP3 DUP5 SUB SLT ISZERO PUSH2 0x47E5 JUMPI PUSH2 0x47E4 PUSH2 0x47B8 JUMP JUMPDEST JUMPDEST PUSH2 0x47EF PUSH1 0x20 PUSH2 0x4123 JUMP JUMPDEST SWAP1 POP PUSH0 PUSH2 0x47FE DUP5 DUP3 DUP6 ADD PUSH2 0x47BC JUMP JUMPDEST PUSH0 DUP4 ADD MSTORE POP SWAP3 SWAP2 POP POP JUMP JUMPDEST PUSH0 PUSH1 0x20 DUP3 DUP5 SUB SLT ISZERO PUSH2 0x481E JUMPI PUSH2 0x481D PUSH2 0x3E12 JUMP JUMPDEST JUMPDEST PUSH0 PUSH2 0x482B DUP5 DUP3 DUP6 ADD PUSH2 0x47D0 JUMP JUMPDEST SWAP2 POP POP SWAP3 SWAP2 POP POP JUMP JUMPDEST PUSH0 PUSH1 0x20 DUP3 DUP5 SUB SLT ISZERO PUSH2 0x4849 JUMPI PUSH2 0x4848 PUSH2 0x3E12 JUMP JUMPDEST JUMPDEST PUSH0 PUSH2 0x4856 DUP5 DUP3 DUP6 ADD PUSH2 0x47BC JUMP JUMPDEST SWAP2 POP POP SWAP3 SWAP2 POP POP JUMP JUMPDEST PUSH32 0x596F7520617265206E6F7420616E206F776E6572000000000000000000000000 PUSH0 DUP3 ADD MSTORE POP JUMP JUMPDEST PUSH0 PUSH2 0x4893 PUSH1 0x14 DUP4 PUSH2 0x3ED7 JUMP JUMPDEST SWAP2 POP PUSH2 0x489E DUP3 PUSH2 0x485F JUMP JUMPDEST PUSH1 0x20 DUP3 ADD SWAP1 POP SWAP2 SWAP1 POP JUMP JUMPDEST PUSH0 PUSH1 0x20 DUP3 ADD SWAP1 POP DUP2 DUP2 SUB PUSH0 DUP4 ADD MSTORE PUSH2 0x48C0 DUP2 PUSH2 0x4887 JUMP JUMPDEST SWAP1 POP SWAP2 SWAP1 POP JUMP JUMPDEST PUSH0 DUP2 MLOAD SWAP1 POP PUSH2 0x48D5 DUP2 PUSH2 0x3F80 JUMP JUMPDEST SWAP3 SWAP2 POP POP JUMP JUMPDEST PUSH0 PUSH1 0x20 DUP3 DUP5 SUB SLT ISZERO PUSH2 0x48F0 JUMPI PUSH2 0x48EF PUSH2 0x3E12 JUMP JUMPDEST JUMPDEST PUSH0 PUSH2 0x48FD DUP5 DUP3 DUP6 ADD PUSH2 0x48C7 JUMP JUMPDEST SWAP2 POP POP SWAP3 SWAP2 POP POP JUMP JUMPDEST PUSH2 0x490F DUP2 PUSH2 0x439B JUMP JUMPDEST DUP3 MSTORE POP POP JUMP JUMPDEST PUSH0 PUSH1 0x20 DUP3 ADD SWAP1 POP PUSH2 0x4928 PUSH0 DUP4 ADD DUP5 PUSH2 0x4906 JUMP JUMPDEST SWAP3 SWAP2 POP POP JUMP JUMPDEST PUSH0 DUP2 SWAP1 POP SWAP3 SWAP2 POP POP JUMP JUMPDEST POP JUMP JUMPDEST PUSH0 PUSH2 0x4946 PUSH0 DUP4 PUSH2 0x492E JUMP JUMPDEST SWAP2 POP PUSH2 0x4951 DUP3 PUSH2 0x4938 JUMP JUMPDEST PUSH0 DUP3 ADD SWAP1 POP SWAP2 SWAP1 POP JUMP JUMPDEST PUSH0 PUSH2 0x4965 DUP3 PUSH2 0x493B JUMP JUMPDEST SWAP2 POP DUP2 SWAP1 POP SWAP2 SWAP1 POP JUMP JUMPDEST PUSH32 0x5472616E73666572206661696C65642E00000000000000000000000000000000 PUSH0 DUP3 ADD MSTORE POP JUMP JUMPDEST PUSH0 PUSH2 0x49A3 PUSH1 0x10 DUP4 PUSH2 0x3ED7 JUMP JUMPDEST SWAP2 POP PUSH2 0x49AE DUP3 PUSH2 0x496F JUMP JUMPDEST PUSH1 0x20 DUP3 ADD SWAP1 POP SWAP2 SWAP1 POP JUMP JUMPDEST PUSH0 PUSH1 0x20 DUP3 ADD SWAP1 POP DUP2 DUP2 SUB PUSH0 DUP4 ADD MSTORE PUSH2 0x49D0 DUP2 PUSH2 0x4997 JUMP JUMPDEST SWAP1 POP SWAP2 SWAP1 POP JUMP JUMPDEST PUSH2 0x49E0 DUP2 PUSH2 0x3FF4 JUMP JUMPDEST DUP3 MSTORE POP POP JUMP JUMPDEST PUSH0 PUSH1 0x40 DUP3 ADD SWAP1 POP PUSH2 0x49F9 PUSH0 DUP4 ADD DUP6 PUSH2 0x49D7 JUMP JUMPDEST PUSH2 0x4A06 PUSH1 0x20 DUP4 ADD DUP5 PUSH2 0x4790 JUMP JUMPDEST SWAP4 SWAP3 POP POP POP JUMP JUMPDEST PUSH0 DUP3 DUP3 MSTORE PUSH1 0x20 DUP3 ADD SWAP1 POP SWAP3 SWAP2 POP POP JUMP JUMPDEST PUSH0 PUSH2 0x4A28 DUP4 DUP6 PUSH2 0x4A0D JUMP JUMPDEST SWAP4 POP PUSH2 0x4A35 DUP4 DUP6 DUP5 PUSH2 0x416D JUMP JUMPDEST PUSH2 0x4A3E DUP4 PUSH2 0x3F0F JUMP JUMPDEST DUP5 ADD SWAP1 POP SWAP4 SWAP3 POP POP POP JUMP JUMPDEST PUSH0 PUSH1 0x20 DUP3 ADD SWAP1 POP DUP2 DUP2 SUB PUSH0 DUP4 ADD MSTORE PUSH2 0x4A62 DUP2 DUP5 DUP7 PUSH2 0x4A1D JUMP JUMPDEST SWAP1 POP SWAP4 SWAP3 POP POP POP JUMP JUMPDEST PUSH0 PUSH1 0x20 DUP3 ADD SWAP1 POP PUSH2 0x4A7E PUSH0 DUP4 ADD DUP5 PUSH2 0x49D7 JUMP JUMPDEST SWAP3 SWAP2 POP POP JUMP JUMPDEST PUSH2 0x4A8D DUP2 PUSH2 0x3E9A JUMP JUMPDEST DUP3 MSTORE POP POP JUMP JUMPDEST PUSH0 PUSH1 0x60 DUP3 ADD SWAP1 POP PUSH2 0x4AA6 PUSH0 DUP4 ADD DUP7 PUSH2 0x49D7 JUMP JUMPDEST PUSH2 0x4AB3 PUSH1 0x20 DUP4 ADD DUP6 PUSH2 0x49D7 JUMP JUMPDEST PUSH2 0x4AC0 PUSH1 0x40 DUP4 ADD DUP5 PUSH2 0x4A84 JUMP JUMPDEST SWAP5 SWAP4 POP POP POP POP JUMP JUMPDEST PUSH32 0x45786365656420616C6C6F630000000000000000000000000000000000000000 PUSH0 DUP3 ADD MSTORE POP JUMP JUMPDEST PUSH0 PUSH2 0x4AFC PUSH1 0xC DUP4 PUSH2 0x3ED7 JUMP JUMPDEST SWAP2 POP PUSH2 0x4B07 DUP3 PUSH2 0x4AC8 JUMP JUMPDEST PUSH1 0x20 DUP3 ADD SWAP1 POP SWAP2 SWAP1 POP JUMP JUMPDEST PUSH0 PUSH1 0x20 DUP3 ADD SWAP1 POP DUP2 DUP2 SUB PUSH0 DUP4 ADD MSTORE PUSH2 0x4B29 DUP2 PUSH2 0x4AF0 JUMP JUMPDEST SWAP1 POP SWAP2 SWAP1 POP JUMP JUMPDEST PUSH0 DUP2 MLOAD SWAP1 POP PUSH2 0x4B3E DUP2 PUSH2 0x4583 JUMP JUMPDEST SWAP3 SWAP2 POP POP JUMP JUMPDEST PUSH0 PUSH1 0x20 DUP3 DUP5 SUB SLT ISZERO PUSH2 0x4B59 JUMPI PUSH2 0x4B58 PUSH2 0x3E12 JUMP JUMPDEST JUMPDEST PUSH0 PUSH2 0x4B66 DUP5 DUP3 DUP6 ADD PUSH2 0x4B30 JUMP JUMPDEST SWAP2 POP POP SWAP3 SWAP2 POP POP JUMP JUMPDEST PUSH32 0x416C7265616479206D696E746564000000000000000000000000000000000000 PUSH0 DUP3 ADD MSTORE POP JUMP JUMPDEST PUSH0 PUSH2 0x4BA3 PUSH1 0xE DUP4 PUSH2 0x3ED7 JUMP JUMPDEST SWAP2 POP PUSH2 0x4BAE DUP3 PUSH2 0x4B6F JUMP JUMPDEST PUSH1 0x20 DUP3 ADD SWAP1 POP SWAP2 SWAP1 POP JUMP JUMPDEST PUSH0 PUSH1 0x20 DUP3 ADD SWAP1 POP DUP2 DUP2 SUB PUSH0 DUP4 ADD MSTORE PUSH2 0x4BD0 DUP2 PUSH2 0x4B97 JUMP JUMPDEST SWAP1 POP SWAP2 SWAP1 POP JUMP JUMPDEST PUSH32 0x4E6F74206D617463682070726963650000000000000000000000000000000000 PUSH0 DUP3 ADD MSTORE POP JUMP JUMPDEST PUSH0 PUSH2 0x4C0B PUSH1 0xF DUP4 PUSH2 0x3ED7 JUMP JUMPDEST SWAP2 POP PUSH2 0x4C16 DUP3 PUSH2 0x4BD7 JUMP JUMPDEST PUSH1 0x20 DUP3 ADD SWAP1 POP SWAP2 SWAP1 POP JUMP JUMPDEST PUSH0 PUSH1 0x20 DUP3 ADD SWAP1 POP DUP2 DUP2 SUB PUSH0 DUP4 ADD MSTORE PUSH2 0x4C38 DUP2 PUSH2 0x4BFF JUMP JUMPDEST SWAP1 POP SWAP2 SWAP1 POP JUMP JUMPDEST PUSH0 DUP2 PUSH1 0x60 SHL SWAP1 POP SWAP2 SWAP1 POP JUMP JUMPDEST PUSH0 PUSH2 0x4C55 DUP3 PUSH2 0x4C3F JUMP JUMPDEST SWAP1 POP SWAP2 SWAP1 POP JUMP JUMPDEST PUSH0 PUSH2 0x4C66 DUP3 PUSH2 0x4C4B JUMP JUMPDEST SWAP1 POP SWAP2 SWAP1 POP JUMP JUMPDEST PUSH2 0x4C7E PUSH2 0x4C79 DUP3 PUSH2 0x3FF4 JUMP JUMPDEST PUSH2 0x4C5C JUMP JUMPDEST DUP3 MSTORE POP POP JUMP JUMPDEST PUSH0 PUSH2 0x4C8F DUP3 DUP5 PUSH2 0x4C6D JUMP JUMPDEST PUSH1 0x14 DUP3 ADD SWAP2 POP DUP2 SWAP1 POP SWAP3 SWAP2 POP POP JUMP JUMPDEST PUSH0 DUP2 MLOAD SWAP1 POP PUSH2 0x4CAC DUP2 PUSH2 0x43A4 JUMP JUMPDEST SWAP3 SWAP2 POP POP JUMP JUMPDEST PUSH0 PUSH1 0x20 DUP3 DUP5 SUB SLT ISZERO PUSH2 0x4CC7 JUMPI PUSH2 0x4CC6 PUSH2 0x3E12 JUMP JUMPDEST JUMPDEST PUSH0 PUSH2 0x4CD4 DUP5 DUP3 DUP6 ADD PUSH2 0x4C9E JUMP JUMPDEST SWAP2 POP POP SWAP3 SWAP2 POP POP JUMP JUMPDEST PUSH32 0x4E6F7420696E206D65726B6C6500000000000000000000000000000000000000 PUSH0 DUP3 ADD MSTORE POP JUMP JUMPDEST PUSH0 PUSH2 0x4D11 PUSH1 0xD DUP4 PUSH2 0x3ED7 JUMP JUMPDEST SWAP2 POP PUSH2 0x4D1C DUP3 PUSH2 0x4CDD JUMP JUMPDEST PUSH1 0x20 DUP3 ADD SWAP1 POP SWAP2 SWAP1 POP JUMP JUMPDEST PUSH0 PUSH1 0x20 DUP3 ADD SWAP1 POP DUP2 DUP2 SUB PUSH0 DUP4 ADD MSTORE PUSH2 0x4D3E DUP2 PUSH2 0x4D05 JUMP JUMPDEST SWAP1 POP SWAP2 SWAP1 POP JUMP JUMPDEST PUSH0 PUSH1 0x40 DUP3 ADD SWAP1 POP PUSH2 0x4D58 PUSH0 DUP4 ADD DUP6 PUSH2 0x49D7 JUMP JUMPDEST PUSH2 0x4D65 PUSH1 0x20 DUP4 ADD DUP5 PUSH2 0x4A84 JUMP JUMPDEST SWAP4 SWAP3 POP POP POP JUMP JUMPDEST PUSH0 DUP2 SWAP1 POP SWAP3 SWAP2 POP POP JUMP JUMPDEST PUSH0 PUSH2 0x4D80 DUP3 PUSH2 0x3ECD JUMP JUMPDEST PUSH2 0x4D8A DUP2 DUP6 PUSH2 0x4D6C JUMP JUMPDEST SWAP4 POP PUSH2 0x4D9A DUP2 DUP6 PUSH1 0x20 DUP7 ADD PUSH2 0x3EE7 JUMP JUMPDEST DUP1 DUP5 ADD SWAP2 POP POP SWAP3 SWAP2 POP POP JUMP JUMPDEST PUSH0 PUSH2 0x4DB1 DUP3 DUP6 PUSH2 0x4D76 JUMP JUMPDEST SWAP2 POP PUSH2 0x4DBD DUP3 DUP5 PUSH2 0x4D76 JUMP JUMPDEST SWAP2 POP DUP2 SWAP1 POP SWAP4 SWAP3 POP POP POP JUMP JUMPDEST PUSH0 PUSH1 0x40 DUP3 ADD SWAP1 POP PUSH2 0x4DDC PUSH0 DUP4 ADD DUP6 PUSH2 0x49D7 JUMP JUMPDEST PUSH2 0x4DE9 PUSH1 0x20 DUP4 ADD DUP5 PUSH2 0x49D7 JUMP JUMPDEST SWAP4 SWAP3 POP POP POP JUMP JUMPDEST PUSH32 0x4E487B7100000000000000000000000000000000000000000000000000000000 PUSH0 MSTORE PUSH1 0x11 PUSH1 0x4 MSTORE PUSH1 0x24 PUSH0 REVERT JUMPDEST PUSH0 PUSH2 0x4E27 DUP3 PUSH2 0x3F77 JUMP JUMPDEST SWAP2 POP PUSH0 DUP3 SUB PUSH2 0x4E39 JUMPI PUSH2 0x4E38 PUSH2 0x4DF0 JUMP JUMPDEST JUMPDEST PUSH1 0x1 DUP3 SUB SWAP1 POP SWAP2 SWAP1 POP JUMP JUMPDEST PUSH0 PUSH1 0x40 DUP3 ADD SWAP1 POP PUSH2 0x4E57 PUSH0 DUP4 ADD DUP6 PUSH2 0x4790 JUMP JUMPDEST PUSH2 0x4E64 PUSH1 0x20 DUP4 ADD DUP5 PUSH2 0x49D7 JUMP JUMPDEST SWAP4 SWAP3 POP POP POP JUMP JUMPDEST PUSH0 PUSH2 0x4E75 DUP3 PUSH2 0x3ECD JUMP JUMPDEST PUSH2 0x4E7F DUP2 DUP6 PUSH2 0x4A0D JUMP JUMPDEST SWAP4 POP PUSH2 0x4E8F DUP2 DUP6 PUSH1 0x20 DUP7 ADD PUSH2 0x3EE7 JUMP JUMPDEST PUSH2 0x4E98 DUP2 PUSH2 0x3F0F JUMP JUMPDEST DUP5 ADD SWAP2 POP POP SWAP3 SWAP2 POP POP JUMP JUMPDEST PUSH0 PUSH1 0x40 DUP3 ADD SWAP1 POP DUP2 DUP2 SUB PUSH0 DUP4 ADD MSTORE PUSH2 0x4EBB DUP2 DUP6 PUSH2 0x4E6B JUMP JUMPDEST SWAP1 POP PUSH2 0x4ECA PUSH1 0x20 DUP4 ADD DUP5 PUSH2 0x4790 JUMP JUMPDEST SWAP4 SWAP3 POP POP POP JUMP JUMPDEST PUSH0 PUSH1 0x40 DUP3 ADD SWAP1 POP PUSH2 0x4EE4 PUSH0 DUP4 ADD DUP6 PUSH2 0x4790 JUMP JUMPDEST PUSH2 0x4EF1 PUSH1 0x20 DUP4 ADD DUP5 PUSH2 0x4790 JUMP JUMPDEST SWAP4 SWAP3 POP POP POP JUMP JUMPDEST PUSH32 0x5265656E7472616E637947756172643A207265656E7472616E742063616C6C00 PUSH0 DUP3 ADD MSTORE POP JUMP JUMPDEST PUSH0 PUSH2 0x4F2C PUSH1 0x1F DUP4 PUSH2 0x3ED7 JUMP JUMPDEST SWAP2 POP PUSH2 0x4F37 DUP3 PUSH2 0x4EF8 JUMP JUMPDEST PUSH1 0x20 DUP3 ADD SWAP1 POP SWAP2 SWAP1 POP JUMP JUMPDEST PUSH0 PUSH1 0x20 DUP3 ADD SWAP1 POP DUP2 DUP2 SUB PUSH0 DUP4 ADD MSTORE PUSH2 0x4F59 DUP2 PUSH2 0x4F20 JUMP JUMPDEST SWAP1 POP SWAP2 SWAP1 POP JUMP JUMPDEST PUSH32 0x68747470733A2F2F697066732E737765622E72752F697066732F516D62704E39 PUSH0 DUP3 ADD MSTORE PUSH32 0x716578677A6E6B705445516D7264786E53665759434441624C6B42786D357641 PUSH1 0x20 DUP3 ADD MSTORE PUSH32 0x4337316A7A52786F2F0000000000000000000000000000000000000000000000 PUSH1 0x40 DUP3 ADD MSTORE POP JUMP JUMPDEST PUSH0 PUSH2 0x4FE0 PUSH1 0x49 DUP4 PUSH2 0x4A0D JUMP JUMPDEST SWAP2 POP PUSH2 0x4FEB DUP3 PUSH2 0x4F60 JUMP JUMPDEST PUSH1 0x60 DUP3 ADD SWAP1 POP SWAP2 SWAP1 POP JUMP JUMPDEST PUSH0 PUSH1 0x20 DUP3 ADD SWAP1 POP DUP2 DUP2 SUB PUSH0 DUP4 ADD MSTORE PUSH2 0x500D DUP2 PUSH2 0x4FD4 JUMP JUMPDEST SWAP1 POP SWAP2 SWAP1 POP JUMP JUMPDEST PUSH32 0x68747470733A2F2F697066732E737765622E72752F697066732F516D59526253 PUSH0 DUP3 ADD MSTORE PUSH32 0x4D3251617A47623551486F676F64714A666F505661536962333274745570764E PUSH1 0x20 DUP3 ADD MSTORE PUSH32 0x6B794A4B666858552F3F66696C656E616D653D736D65616D622E6A736F6E0000 PUSH1 0x40 DUP3 ADD MSTORE POP JUMP JUMPDEST PUSH0 PUSH2 0x5094 PUSH1 0x5E DUP4 PUSH2 0x4A0D JUMP JUMPDEST SWAP2 POP PUSH2 0x509F DUP3 PUSH2 0x5014 JUMP JUMPDEST PUSH1 0x60 DUP3 ADD SWAP1 POP SWAP2 SWAP1 POP JUMP JUMPDEST PUSH0 PUSH1 0x20 DUP3 ADD SWAP1 POP DUP2 DUP2 SUB PUSH0 DUP4 ADD MSTORE PUSH2 0x50C1 DUP2 PUSH2 0x5088 JUMP JUMPDEST SWAP1 POP SWAP2 SWAP1 POP JUMP JUMPDEST PUSH0 DUP2 SWAP1 POP SWAP2 SWAP1 POP JUMP JUMPDEST PUSH0 DUP2 PUSH0 SHL SWAP1 POP SWAP2 SWAP1 POP JUMP JUMPDEST PUSH0 PUSH2 0x50F6 PUSH2 0x50F1 PUSH2 0x50EC DUP5 PUSH2 0x50C8 JUMP JUMPDEST PUSH2 0x50D1 JUMP JUMPDEST PUSH2 0x439B JUMP JUMPDEST SWAP1 POP SWAP2 SWAP1 POP JUMP JUMPDEST PUSH2 0x5106 DUP2 PUSH2 0x50DC JUMP JUMPDEST DUP3 MSTORE POP POP JUMP JUMPDEST PUSH0 PUSH1 0x20 DUP3 ADD SWAP1 POP PUSH2 0x511F PUSH0 DUP4 ADD DUP5 PUSH2 0x50FD JUMP JUMPDEST SWAP3 SWAP2 POP POP JUMP JUMPDEST PUSH0 DUP2 SWAP1 POP SWAP2 SWAP1 POP JUMP JUMPDEST PUSH0 DUP2 SWAP1 POP SWAP2 SWAP1 POP JUMP JUMPDEST PUSH0 PUSH2 0x5151 PUSH2 0x514C PUSH2 0x5147 DUP5 PUSH2 0x5125 JUMP JUMPDEST PUSH2 0x512E JUMP JUMPDEST PUSH2 0x3F77 JUMP JUMPDEST SWAP1 POP SWAP2 SWAP1 POP JUMP JUMPDEST PUSH2 0x5161 DUP2 PUSH2 0x5137 JUMP JUMPDEST DUP3 MSTORE POP POP JUMP JUMPDEST PUSH0 PUSH1 0x20 DUP3 ADD SWAP1 POP PUSH2 0x517A PUSH0 DUP4 ADD DUP5 PUSH2 0x5158 JUMP JUMPDEST SWAP3 SWAP2 POP POP JUMP JUMPDEST PUSH0 PUSH1 0x20 DUP3 ADD SWAP1 POP DUP2 DUP2 SUB PUSH0 DUP4 ADD MSTORE PUSH2 0x5198 DUP2 DUP5 PUSH2 0x4E6B JUMP JUMPDEST SWAP1 POP SWAP3 SWAP2 POP POP JUMP JUMPDEST PUSH0 DUP2 SWAP1 POP SWAP2 SWAP1 POP JUMP JUMPDEST PUSH0 PUSH2 0x51C3 PUSH2 0x51BE PUSH2 0x51B9 DUP5 PUSH2 0x51A0 JUMP JUMPDEST PUSH2 0x512E JUMP JUMPDEST PUSH2 0x3F77 JUMP JUMPDEST SWAP1 POP SWAP2 SWAP1 POP JUMP JUMPDEST PUSH2 0x51D3 DUP2 PUSH2 0x51A9 JUMP JUMPDEST DUP3 MSTORE POP POP JUMP JUMPDEST PUSH0 PUSH1 0x20 DUP3 ADD SWAP1 POP PUSH2 0x51EC PUSH0 DUP4 ADD DUP5 PUSH2 0x51CA JUMP JUMPDEST SWAP3 SWAP2 POP POP JUMP JUMPDEST PUSH32 0x4552433732314D657461646174613A2055524920717565727920666F72206E6F PUSH0 DUP3 ADD MSTORE PUSH32 0x6E6578697374656E7420746F6B656E0000000000000000000000000000000000 PUSH1 0x20 DUP3 ADD MSTORE POP JUMP JUMPDEST PUSH0 PUSH2 0x524C PUSH1 0x2F DUP4 PUSH2 0x3ED7 JUMP JUMPDEST SWAP2 POP PUSH2 0x5257 DUP3 PUSH2 0x51F2 JUMP JUMPDEST PUSH1 0x40 DUP3 ADD SWAP1 POP SWAP2 SWAP1 POP JUMP JUMPDEST PUSH0 PUSH1 0x20 DUP3 ADD SWAP1 POP DUP2 DUP2 SUB PUSH0 DUP4 ADD MSTORE PUSH2 0x5279 DUP2 PUSH2 0x5240 JUMP JUMPDEST SWAP1 POP SWAP2 SWAP1 POP JUMP JUMPDEST PUSH32 0x2E6A736F6E000000000000000000000000000000000000000000000000000000 PUSH0 DUP3 ADD MSTORE POP JUMP JUMPDEST PUSH0 PUSH2 0x52B4 PUSH1 0x5 DUP4 PUSH2 0x4D6C JUMP JUMPDEST SWAP2 POP PUSH2 0x52BF DUP3 PUSH2 0x5280 JUMP JUMPDEST PUSH1 0x5 DUP3 ADD SWAP1 POP SWAP2 SWAP1 POP JUMP JUMPDEST PUSH0 PUSH2 0x52D5 DUP3 DUP6 PUSH2 0x4D76 JUMP JUMPDEST SWAP2 POP PUSH2 0x52E1 DUP3 DUP5 PUSH2 0x4D76 JUMP JUMPDEST SWAP2 POP PUSH2 0x52EC DUP3 PUSH2 0x52A8 JUMP JUMPDEST SWAP2 POP DUP2 SWAP1 POP SWAP4 SWAP3 POP POP POP JUMP JUMPDEST PUSH0 DUP2 MLOAD SWAP1 POP SWAP2 SWAP1 POP JUMP JUMPDEST PUSH0 DUP3 DUP3 MSTORE PUSH1 0x20 DUP3 ADD SWAP1 POP SWAP3 SWAP2 POP POP JUMP JUMPDEST PUSH0 PUSH2 0x531C DUP3 PUSH2 0x52F8 JUMP JUMPDEST PUSH2 0x5326 DUP2 DUP6 PUSH2 0x5302 JUMP JUMPDEST SWAP4 POP PUSH2 0x5336 DUP2 DUP6 PUSH1 0x20 DUP7 ADD PUSH2 0x3EE7 JUMP JUMPDEST PUSH2 0x533F DUP2 PUSH2 0x3F0F JUMP JUMPDEST DUP5 ADD SWAP2 POP POP SWAP3 SWAP2 POP POP JUMP JUMPDEST PUSH0 PUSH1 0x80 DUP3 ADD SWAP1 POP PUSH2 0x535D PUSH0 DUP4 ADD DUP8 PUSH2 0x4005 JUMP JUMPDEST PUSH2 0x536A PUSH1 0x20 DUP4 ADD DUP7 PUSH2 0x4005 JUMP JUMPDEST PUSH2 0x5377 PUSH1 0x40 DUP4 ADD DUP6 PUSH2 0x4095 JUMP JUMPDEST DUP2 DUP2 SUB PUSH1 0x60 DUP4 ADD MSTORE PUSH2 0x5389 DUP2 DUP5 PUSH2 0x5312 JUMP JUMPDEST SWAP1 POP SWAP6 SWAP5 POP POP POP POP POP JUMP JUMPDEST PUSH0 DUP2 MLOAD SWAP1 POP PUSH2 0x53A2 DUP2 PUSH2 0x3E45 JUMP JUMPDEST SWAP3 SWAP2 POP POP JUMP JUMPDEST PUSH0 PUSH1 0x20 DUP3 DUP5 SUB SLT ISZERO PUSH2 0x53BD JUMPI PUSH2 0x53BC PUSH2 0x3E12 JUMP JUMPDEST JUMPDEST PUSH0 PUSH2 0x53CA DUP5 DUP3 DUP6 ADD PUSH2 0x5394 JUMP JUMPDEST SWAP2 POP POP SWAP3 SWAP2 POP POP JUMP JUMPDEST PUSH0 PUSH1 0x60 DUP3 ADD SWAP1 POP PUSH2 0x53E6 PUSH0 DUP4 ADD DUP7 PUSH2 0x49D7 JUMP JUMPDEST PUSH2 0x53F3 PUSH1 0x20 DUP4 ADD DUP6 PUSH2 0x4790 JUMP JUMPDEST PUSH2 0x5400 PUSH1 0x40 DUP4 ADD DUP5 PUSH2 0x4790 JUMP JUMPDEST SWAP5 SWAP4 POP POP POP POP JUMP JUMPDEST PUSH0 PUSH2 0x5412 DUP3 PUSH2 0x3F77 JUMP JUMPDEST SWAP2 POP PUSH2 0x541D DUP4 PUSH2 0x3F77 JUMP JUMPDEST SWAP3 POP DUP3 DUP3 SUB SWAP1 POP DUP2 DUP2 GT ISZERO PUSH2 0x5435 JUMPI PUSH2 0x5434 PUSH2 0x4DF0 JUMP JUMPDEST JUMPDEST SWAP3 SWAP2 POP POP JUMP JUMPDEST PUSH32 0x4E487B7100000000000000000000000000000000000000000000000000000000 PUSH0 MSTORE PUSH1 0x32 PUSH1 0x4 MSTORE PUSH1 0x24 PUSH0 REVERT JUMPDEST PUSH32 0x4E487B7100000000000000000000000000000000000000000000000000000000 PUSH0 MSTORE PUSH1 0x12 PUSH1 0x4 MSTORE PUSH1 0x24 PUSH0 REVERT INVALID LOG2 PUSH5 0x6970667358 0x22 SLT KECCAK256 ORIGIN DUP15 0xAF 0xD9 SLT 0xCF PUSH31 0xEB8A56D7CB0CC4997B98433EA35A83617CFD92B9D93FAF57E564736F6C6343 STOP ADDMOD OR STOP CALLER "
		},
		"gasEstimates": {
			"creation": {
				"codeDepositCost": "4341400",
				"executionCost": "infinite",
				"totalCost": "infinite"
			},
			"external": {
				"MAX_SUPPLY_EPIC()": "414",
				"MAX_SUPPLY_GENESIS()": "371",
				"MAX_SUPPLY_LEGEND()": "414",
				"MODULE_NAME()": "infinite",
				"MODULE_VERSION()": "infinite",
				"approve(address,uint256)": "infinite",
				"balanceOf(address)": "infinite",
				"balanceOfId(address,uint256)": "infinite",
				"baseURI()": "infinite",
				"exists(uint256)": "infinite",
				"fee()": "infinite",
				"genesisMint(address,bytes32[])": "infinite",
				"getApproved(uint256)": "infinite",
				"init(string,string)": "infinite",
				"isApprovedForAll(address,address)": "infinite",
				"name()": "infinite",
				"nextTokenId()": "infinite",
				"onERC721Received(address,address,uint256,bytes)": "infinite",
				"ownerOf(uint256)": "infinite",
				"safeTransferFrom(address,address,uint256)": "infinite",
				"safeTransferFrom(address,address,uint256,bytes)": "infinite",
				"setApprovalForAll(address,bool)": "infinite",
				"setBaseURI(string)": "infinite",
				"setDefaultTokenURI(string)": "infinite",
				"setEpiclistRoot(bytes32)": "infinite",
				"setFee(uint256)": "infinite",
				"setGenesislistRoot(bytes32)": "infinite",
				"setLegendlistRoot(bytes32)": "infinite",
				"setTokenURI(uint256,string)": "infinite",
				"supportsInterface(bytes4)": "759",
				"symbol()": "infinite",
				"tokenURI(uint256)": "infinite",
				"totalSupply()": "infinite",
				"transferFrom(address,address,uint256)": "infinite",
				"withdraw()": "infinite"
			},
			"internal": {
				"_addTokenToAllTokensEnumeration(uint256)": "infinite",
				"_addTokenToOwnerEnumeration(address,uint256)": "infinite",
				"_init(string memory,string memory)": "infinite",
				"_removeTokenFromAllTokensEnumeration(uint256)": "infinite",
				"_removeTokenFromOwnerEnumeration(address,uint256)": "infinite",
				"_setTokenURI(uint256,string memory)": "infinite",
				"_startTokenId()": "22",
				"_tokenURI(uint256)": "infinite",
				"_updateOwner(address,address,uint256)": "infinite"
			}
		},
		"methodIdentifiers": {
			"MAX_SUPPLY_EPIC()": "90507c78",
			"MAX_SUPPLY_GENESIS()": "0c142a43",
			"MAX_SUPPLY_LEGEND()": "ad5b1662",
			"MODULE_NAME()": "9b865b43",
			"MODULE_VERSION()": "81ed9808",
			"approve(address,uint256)": "095ea7b3",
			"balanceOf(address)": "70a08231",
			"balanceOfId(address,uint256)": "4bca8aa3",
			"baseURI()": "6c0360eb",
			"exists(uint256)": "4f558e79",
			"fee()": "ddca3f43",
			"genesisMint(address,bytes32[])": "b31b2e13",
			"getApproved(uint256)": "081812fc",
			"init(string,string)": "7029144c",
			"isApprovedForAll(address,address)": "e985e9c5",
			"name()": "06fdde03",
			"nextTokenId()": "75794a3c",
			"onERC721Received(address,address,uint256,bytes)": "150b7a02",
			"ownerOf(uint256)": "6352211e",
			"safeTransferFrom(address,address,uint256)": "42842e0e",
			"safeTransferFrom(address,address,uint256,bytes)": "b88d4fde",
			"setApprovalForAll(address,bool)": "a22cb465",
			"setBaseURI(string)": "55f804b3",
			"setDefaultTokenURI(string)": "a125c824",
			"setEpiclistRoot(bytes32)": "49e0f980",
			"setFee(uint256)": "69fe0e2d",
			"setGenesislistRoot(bytes32)": "3bb04b1f",
			"setLegendlistRoot(bytes32)": "dfbf2e67",
			"setTokenURI(uint256,string)": "162094c4",
			"supportsInterface(bytes4)": "01ffc9a7",
			"symbol()": "95d89b41",
			"tokenURI(uint256)": "c87b56dd",
			"totalSupply()": "18160ddd",
			"transferFrom(address,address,uint256)": "23b872dd",
			"withdraw()": "3ccfd60b"
		}
	},
	"abi": [
		{
			"inputs": [
				{
					"internalType": "string",
					"name": "name",
					"type": "string"
				},
				{
					"internalType": "string",
					"name": "symbol",
					"type": "string"
				}
			],
			"stateMutability": "nonpayable",
			"type": "constructor"
		},
		{
			"inputs": [],
			"name": "ApprovalCallerNotOwnerNorApproved",
			"type": "error"
		},
		{
			"inputs": [],
			"name": "ApprovalQueryForNonexistentToken",
			"type": "error"
		},
		{
			"inputs": [],
			"name": "BalanceQueryForZeroAddress",
			"type": "error"
		},
		{
			"inputs": [],
			"name": "MintERC2309QuantityExceedsLimit",
			"type": "error"
		},
		{
			"inputs": [],
			"name": "MintToZeroAddress",
			"type": "error"
		},
		{
			"inputs": [],
			"name": "MintZeroQuantity",
			"type": "error"
		},
		{
			"inputs": [],
			"name": "NotCompatibleWithSpotMints",
			"type": "error"
		},
		{
			"inputs": [],
			"name": "OwnerQueryForNonexistentToken",
			"type": "error"
		},
		{
			"inputs": [],
			"name": "OwnershipNotInitializedForExtraData",
			"type": "error"
		},
		{
			"inputs": [],
			"name": "SequentialMintExceedsLimit",
			"type": "error"
		},
		{
			"inputs": [],
			"name": "SequentialUpToTooSmall",
			"type": "error"
		},
		{
			"inputs": [],
			"name": "SpotMintTokenIdTooSmall",
			"type": "error"
		},
		{
			"inputs": [],
			"name": "TokenAlreadyExists",
			"type": "error"
		},
		{
			"inputs": [],
			"name": "TransferCallerNotOwnerNorApproved",
			"type": "error"
		},
		{
			"inputs": [],
			"name": "TransferFromIncorrectOwner",
			"type": "error"
		},
		{
			"inputs": [],
			"name": "TransferToNonERC721ReceiverImplementer",
			"type": "error"
		},
		{
			"inputs": [],
			"name": "TransferToZeroAddress",
			"type": "error"
		},
		{
			"inputs": [],
			"name": "URIQueryForNonexistentToken",
			"type": "error"
		},
		{
			"anonymous": false,
			"inputs": [
				{
					"indexed": true,
					"internalType": "address",
					"name": "owner",
					"type": "address"
				},
				{
					"indexed": true,
					"internalType": "address",
					"name": "approved",
					"type": "address"
				},
				{
					"indexed": true,
					"internalType": "uint256",
					"name": "tokenId",
					"type": "uint256"
				}
			],
			"name": "Approval",
			"type": "event"
		},
		{
			"anonymous": false,
			"inputs": [
				{
					"indexed": true,
					"internalType": "address",
					"name": "owner",
					"type": "address"
				},
				{
					"indexed": true,
					"internalType": "address",
					"name": "operator",
					"type": "address"
				},
				{
					"indexed": false,
					"internalType": "bool",
					"name": "approved",
					"type": "bool"
				}
			],
			"name": "ApprovalForAll",
			"type": "event"
		},
		{
			"anonymous": false,
			"inputs": [
				{
					"indexed": true,
					"internalType": "uint256",
					"name": "fromTokenId",
					"type": "uint256"
				},
				{
					"indexed": false,
					"internalType": "uint256",
					"name": "toTokenId",
					"type": "uint256"
				},
				{
					"indexed": true,
					"internalType": "address",
					"name": "from",
					"type": "address"
				},
				{
					"indexed": true,
					"internalType": "address",
					"name": "to",
					"type": "address"
				}
			],
			"name": "ConsecutiveTransfer",
			"type": "event"
		},
		{
			"anonymous": false,
			"inputs": [
				{
					"indexed": false,
					"internalType": "uint256",
					"name": "_tokenId",
					"type": "uint256"
				}
			],
			"name": "MetadataUpdate",
			"type": "event"
		},
		{
			"anonymous": false,
			"inputs": [
				{
					"indexed": true,
					"internalType": "address",
					"name": "from",
					"type": "address"
				},
				{
					"indexed": true,
					"internalType": "address",
					"name": "to",
					"type": "address"
				},
				{
					"indexed": true,
					"internalType": "uint256",
					"name": "tokenId",
					"type": "uint256"
				}
			],
			"name": "Transfer",
			"type": "event"
		},
		{
			"inputs": [],
			"name": "MAX_SUPPLY_EPIC",
			"outputs": [
				{
					"internalType": "uint256",
					"name": "",
					"type": "uint256"
				}
			],
			"stateMutability": "view",
			"type": "function"
		},
		{
			"inputs": [],
			"name": "MAX_SUPPLY_GENESIS",
			"outputs": [
				{
					"internalType": "uint256",
					"name": "",
					"type": "uint256"
				}
			],
			"stateMutability": "view",
			"type": "function"
		},
		{
			"inputs": [],
			"name": "MAX_SUPPLY_LEGEND",
			"outputs": [
				{
					"internalType": "uint256",
					"name": "",
					"type": "uint256"
				}
			],
			"stateMutability": "view",
			"type": "function"
		},
		{
			"inputs": [],
			"name": "MODULE_NAME",
			"outputs": [
				{
					"internalType": "string",
					"name": "",
					"type": "string"
				}
			],
			"stateMutability": "view",
			"type": "function"
		},
		{
			"inputs": [],
			"name": "MODULE_VERSION",
			"outputs": [
				{
					"internalType": "uint256",
					"name": "",
					"type": "uint256"
				}
			],
			"stateMutability": "view",
			"type": "function"
		},
		{
			"inputs": [
				{
					"internalType": "address",
					"name": "to",
					"type": "address"
				},
				{
					"internalType": "uint256",
					"name": "tokenId",
					"type": "uint256"
				}
			],
			"name": "approve",
			"outputs": [],
			"stateMutability": "payable",
			"type": "function"
		},
		{
			"inputs": [
				{
					"internalType": "address",
					"name": "owner",
					"type": "address"
				}
			],
			"name": "balanceOf",
			"outputs": [
				{
					"internalType": "uint256",
					"name": "",
					"type": "uint256"
				}
			],
			"stateMutability": "view",
			"type": "function"
		},
		{
			"inputs": [
				{
					"internalType": "address",
					"name": "owner",
					"type": "address"
				},
				{
					"internalType": "uint256",
					"name": "index",
					"type": "uint256"
				}
			],
			"name": "balanceOfId",
			"outputs": [
				{
					"internalType": "uint256",
					"name": "",
					"type": "uint256"
				}
			],
			"stateMutability": "view",
			"type": "function"
		},
		{
			"inputs": [],
			"name": "baseURI",
			"outputs": [
				{
					"internalType": "string",
					"name": "",
					"type": "string"
				}
			],
			"stateMutability": "view",
			"type": "function"
		},
		{
			"inputs": [
				{
					"internalType": "uint256",
					"name": "tokenId",
					"type": "uint256"
				}
			],
			"name": "exists",
			"outputs": [
				{
					"internalType": "bool",
					"name": "result",
					"type": "bool"
				}
			],
			"stateMutability": "view",
			"type": "function"
		},
		{
			"inputs": [],
			"name": "fee",
			"outputs": [
				{
					"internalType": "uint256",
					"name": "",
					"type": "uint256"
				}
			],
			"stateMutability": "view",
			"type": "function"
		},
		{
			"inputs": [
				{
					"internalType": "address",
					"name": "to",
					"type": "address"
				},
				{
					"internalType": "bytes32[]",
					"name": "proof",
					"type": "bytes32[]"
				}
			],
			"name": "genesisMint",
			"outputs": [],
			"stateMutability": "payable",
			"type": "function"
		},
		{
			"inputs": [
				{
					"internalType": "uint256",
					"name": "tokenId",
					"type": "uint256"
				}
			],
			"name": "getApproved",
			"outputs": [
				{
					"internalType": "address",
					"name": "",
					"type": "address"
				}
			],
			"stateMutability": "view",
			"type": "function"
		},
		{
			"inputs": [
				{
					"internalType": "string",
					"name": "name",
					"type": "string"
				},
				{
					"internalType": "string",
					"name": "symbol",
					"type": "string"
				}
			],
			"name": "init",
			"outputs": [],
			"stateMutability": "nonpayable",
			"type": "function"
		},
		{
			"inputs": [
				{
					"internalType": "address",
					"name": "owner",
					"type": "address"
				},
				{
					"internalType": "address",
					"name": "operator",
					"type": "address"
				}
			],
			"name": "isApprovedForAll",
			"outputs": [
				{
					"internalType": "bool",
					"name": "",
					"type": "bool"
				}
			],
			"stateMutability": "view",
			"type": "function"
		},
		{
			"inputs": [],
			"name": "name",
			"outputs": [
				{
					"internalType": "string",
					"name": "",
					"type": "string"
				}
			],
			"stateMutability": "view",
			"type": "function"
		},
		{
			"inputs": [],
			"name": "nextTokenId",
			"outputs": [
				{
					"internalType": "uint256",
					"name": "",
					"type": "uint256"
				}
			],
			"stateMutability": "view",
			"type": "function"
		},
		{
			"inputs": [
				{
					"internalType": "address",
					"name": "operator",
					"type": "address"
				},
				{
					"internalType": "address",
					"name": "from",
					"type": "address"
				},
				{
					"internalType": "uint256",
					"name": "tokenId",
					"type": "uint256"
				},
				{
					"internalType": "bytes",
					"name": "data",
					"type": "bytes"
				}
			],
			"name": "onERC721Received",
			"outputs": [
				{
					"internalType": "bytes4",
					"name": "",
					"type": "bytes4"
				}
			],
			"stateMutability": "nonpayable",
			"type": "function"
		},
		{
			"inputs": [
				{
					"internalType": "uint256",
					"name": "tokenId",
					"type": "uint256"
				}
			],
			"name": "ownerOf",
			"outputs": [
				{
					"internalType": "address",
					"name": "",
					"type": "address"
				}
			],
			"stateMutability": "view",
			"type": "function"
		},
		{
			"inputs": [
				{
					"internalType": "address",
					"name": "from",
					"type": "address"
				},
				{
					"internalType": "address",
					"name": "to",
					"type": "address"
				},
				{
					"internalType": "uint256",
					"name": "tokenId",
					"type": "uint256"
				}
			],
			"name": "safeTransferFrom",
			"outputs": [],
			"stateMutability": "payable",
			"type": "function"
		},
		{
			"inputs": [
				{
					"internalType": "address",
					"name": "from",
					"type": "address"
				},
				{
					"internalType": "address",
					"name": "to",
					"type": "address"
				},
				{
					"internalType": "uint256",
					"name": "tokenId",
					"type": "uint256"
				},
				{
					"internalType": "bytes",
					"name": "_data",
					"type": "bytes"
				}
			],
			"name": "safeTransferFrom",
			"outputs": [],
			"stateMutability": "payable",
			"type": "function"
		},
		{
			"inputs": [
				{
					"internalType": "address",
					"name": "operator",
					"type": "address"
				},
				{
					"internalType": "bool",
					"name": "approved",
					"type": "bool"
				}
			],
			"name": "setApprovalForAll",
			"outputs": [],
			"stateMutability": "nonpayable",
			"type": "function"
		},
		{
			"inputs": [
				{
					"internalType": "string",
					"name": "URI",
					"type": "string"
				}
			],
			"name": "setBaseURI",
			"outputs": [],
			"stateMutability": "nonpayable",
			"type": "function"
		},
		{
			"inputs": [
				{
					"internalType": "string",
					"name": "URI",
					"type": "string"
				}
			],
			"name": "setDefaultTokenURI",
			"outputs": [],
			"stateMutability": "nonpayable",
			"type": "function"
		},
		{
			"inputs": [
				{
					"internalType": "bytes32",
					"name": "merkleroot",
					"type": "bytes32"
				}
			],
			"name": "setEpiclistRoot",
			"outputs": [],
			"stateMutability": "nonpayable",
			"type": "function"
		},
		{
			"inputs": [
				{
					"internalType": "uint256",
					"name": "_fee",
					"type": "uint256"
				}
			],
			"name": "setFee",
			"outputs": [],
			"stateMutability": "nonpayable",
			"type": "function"
		},
		{
			"inputs": [
				{
					"internalType": "bytes32",
					"name": "merkleroot",
					"type": "bytes32"
				}
			],
			"name": "setGenesislistRoot",
			"outputs": [],
			"stateMutability": "nonpayable",
			"type": "function"
		},
		{
			"inputs": [
				{
					"internalType": "bytes32",
					"name": "merkleroot",
					"type": "bytes32"
				}
			],
			"name": "setLegendlistRoot",
			"outputs": [],
			"stateMutability": "nonpayable",
			"type": "function"
		},
		{
			"inputs": [
				{
					"internalType": "uint256",
					"name": "tokenId",
					"type": "uint256"
				},
				{
					"internalType": "string",
					"name": "URI",
					"type": "string"
				}
			],
			"name": "setTokenURI",
			"outputs": [],
			"stateMutability": "nonpayable",
			"type": "function"
		},
		{
			"inputs": [
				{
					"internalType": "bytes4",
					"name": "interfaceId",
					"type": "bytes4"
				}
			],
			"name": "supportsInterface",
			"outputs": [
				{
					"internalType": "bool",
					"name": "",
					"type": "bool"
				}
			],
			"stateMutability": "view",
			"type": "function"
		},
		{
			"inputs": [],
			"name": "symbol",
			"outputs": [
				{
					"internalType": "string",
					"name": "",
					"type": "string"
				}
			],
			"stateMutability": "view",
			"type": "function"
		},
		{
			"inputs": [
				{
					"internalType": "uint256",
					"name": "tokenId",
					"type": "uint256"
				}
			],
			"name": "tokenURI",
			"outputs": [
				{
					"internalType": "string",
					"name": "",
					"type": "string"
				}
			],
			"stateMutability": "view",
			"type": "function"
		},
		{
			"inputs": [],
			"name": "totalSupply",
			"outputs": [
				{
					"internalType": "uint256",
					"name": "result",
					"type": "uint256"
				}
			],
			"stateMutability": "view",
			"type": "function"
		},
		{
			"inputs": [
				{
					"internalType": "address",
					"name": "from",
					"type": "address"
				},
				{
					"internalType": "address",
					"name": "to",
					"type": "address"
				},
				{
					"internalType": "uint256",
					"name": "tokenId",
					"type": "uint256"
				}
			],
			"name": "transferFrom",
			"outputs": [],
			"stateMutability": "payable",
			"type": "function"
		},
		{
			"inputs": [],
			"name": "withdraw",
			"outputs": [],
			"stateMutability": "nonpayable",
			"type": "function"
		}
	]
}