{
	"/contracts/storage/LibDynamicRouterStorage.sol": {
		"DynamicRouterStorage": {
			"abi": [
				{
					"anonymous": false,
					"inputs": [
						{
							"indexed": false,
							"internalType": "address",
							"name": "_initialized",
							"type": "address"
						},
						{
							"indexed": false,
							"internalType": "address",
							"name": "_module",
							"type": "address"
						},
						{
							"indexed": false,
							"internalType": "bytes4",
							"name": "_selector",
							"type": "bytes4"
						}
					],
					"name": "UpdateModule",
					"type": "event"
				},
				{
					"inputs": [
						{
							"internalType": "bytes4",
							"name": "_selector",
							"type": "bytes4"
						}
					],
					"name": "getImp",
					"outputs": [
						{
							"internalType": "address",
							"name": "",
							"type": "address"
						}
					],
					"stateMutability": "view",
					"type": "function"
				}
			],
			"devdoc": {
				"custom:version": "1.0.0",
				"details": "В DynamicRouterStorage находятся функции работы с хранилищем     Отделены от имплементации модуля для более безопасного обновления     всех последующих имплементаций. Не имеет зависимостей.     ",
				"events": {
					"UpdateModule(address,address,bytes4)": {
						"details": "Событие обновления имплементации модуля"
					}
				},
				"kind": "dev",
				"methods": {
					"getImp(bytes4)": {
						"details": "Возвращает по селектору адрес имплементации"
					},
					"updateModules(DynamicRouterStorage.moduleDefinition[])": {
						"details": "Обновление модулей ",
						"params": {
							"modules": "- структура moduleDefinition:     address module - адрес имплементации     bytes4[] selectors - селектор функции"
						}
					}
				},
				"stateVariables": {
					"SLOT": {
						"details": "Слот хранилища"
					}
				},
				"title": "DynamicRouterStorage",
				"version": 1
			},
			"evm": {
				"assembly": "    /* \"/contracts/storage/LibDynamicRouterStorage.sol\":504:3499  library DynamicRouterStorage {... */\n  dataSize(sub_0)\n  dataOffset(sub_0)\n  0x0b\n  dup3\n  dup3\n  dup3\n  codecopy\n  dup1\n  mload\n  0x00\n  byte\n  0x73\n  eq\n  tag_1\n  jumpi\n  mstore(0x00, 0x4e487b7100000000000000000000000000000000000000000000000000000000)\n  mstore(0x04, 0x00)\n  revert(0x00, 0x24)\ntag_1:\n  mstore(0x00, address)\n  0x73\n  dup2\n  mstore8\n  dup3\n  dup2\n  return\nstop\n\nsub_0: assembly {\n        /* \"/contracts/storage/LibDynamicRouterStorage.sol\":504:3499  library DynamicRouterStorage {... */\n      eq(address, deployTimeAddress())\n      mstore(0x40, 0x80)\n      jumpi(tag_1, lt(calldatasize, 0x04))\n      shr(0xe0, calldataload(0x00))\n      dup1\n      0x20e63d2a\n      eq\n      tag_2\n      jumpi\n      dup1\n      0xa8f64352\n      eq\n      tag_3\n      jumpi\n    tag_1:\n      0x00\n      dup1\n      revert\n        /* \"/contracts/storage/LibDynamicRouterStorage.sol\":2243:2363  function getImp(bytes4 _selector) external view returns(address){... */\n    tag_2:\n      tag_4\n      0x04\n      dup1\n      calldatasize\n      sub\n      dup2\n      add\n      swap1\n      tag_5\n      swap2\n      swap1\n      tag_6\n      jump\t// in\n    tag_5:\n      tag_7\n      jump\t// in\n    tag_4:\n      mload(0x40)\n      tag_8\n      swap2\n      swap1\n      tag_9\n      jump\t// in\n    tag_8:\n      mload(0x40)\n      dup1\n      swap2\n      sub\n      swap1\n      return\n        /* \"/contracts/storage/LibDynamicRouterStorage.sol\":1430:2141  function updateModules(moduleDefinition[] memory modules) external {... */\n    tag_3:\n      dup2\n      dup1\n      iszero\n      tag_10\n      jumpi\n      0x00\n      dup1\n      revert\n    tag_10:\n      pop\n      tag_11\n      0x04\n      dup1\n      calldatasize\n      sub\n      dup2\n      add\n      swap1\n      tag_12\n      swap2\n      swap1\n      tag_13\n      jump\t// in\n    tag_12:\n      tag_14\n      jump\t// in\n    tag_11:\n      stop\n        /* \"/contracts/storage/LibDynamicRouterStorage.sol\":2243:2363  function getImp(bytes4 _selector) external view returns(address){... */\n    tag_7:\n        /* \"/contracts/storage/LibDynamicRouterStorage.sol\":2299:2306  address */\n      0x00\n        /* \"/contracts/storage/LibDynamicRouterStorage.sol\":2321:2338  _getStorage(SLOT) */\n      tag_16\n        /* \"/contracts/storage/LibDynamicRouterStorage.sol\":614:636  bytes('DynamicRouter') */\n      mload(0x40)\n      dup1\n      0x40\n      add\n      0x40\n      mstore\n      dup1\n      0x0d\n      dup2\n      mstore\n      0x20\n      add\n      0x44796e616d6963526f7574657200000000000000000000000000000000000000\n      dup2\n      mstore\n      pop\n        /* \"/contracts/storage/LibDynamicRouterStorage.sol\":604:637  keccak256(bytes('DynamicRouter')) */\n      dup1\n      mload\n      swap1\n      0x20\n      add\n      keccak256\n        /* \"/contracts/storage/LibDynamicRouterStorage.sol\":2321:2332  _getStorage */\n      tag_17\n        /* \"/contracts/storage/LibDynamicRouterStorage.sol\":2321:2338  _getStorage(SLOT) */\n      jump\t// in\n    tag_16:\n        /* \"/contracts/storage/LibDynamicRouterStorage.sol\":2321:2346  _getStorage(SLOT).modules */\n      0x00\n      add\n        /* \"/contracts/storage/LibDynamicRouterStorage.sol\":2321:2357  _getStorage(SLOT).modules[_selector] */\n      0x00\n        /* \"/contracts/storage/LibDynamicRouterStorage.sol\":2347:2356  _selector */\n      dup4\n        /* \"/contracts/storage/LibDynamicRouterStorage.sol\":2321:2357  _getStorage(SLOT).modules[_selector] */\n      not(0xffffffffffffffffffffffffffffffffffffffffffffffffffffffff)\n      and\n      not(0xffffffffffffffffffffffffffffffffffffffffffffffffffffffff)\n      and\n      dup2\n      mstore\n      0x20\n      add\n      swap1\n      dup2\n      mstore\n      0x20\n      add\n      0x00\n      keccak256\n      0x00\n      swap1\n      sload\n      swap1\n      0x0100\n      exp\n      swap1\n      div\n      0xffffffffffffffffffffffffffffffffffffffff\n      and\n        /* \"/contracts/storage/LibDynamicRouterStorage.sol\":2314:2357  return _getStorage(SLOT).modules[_selector] */\n      swap1\n      pop\n        /* \"/contracts/storage/LibDynamicRouterStorage.sol\":2243:2363  function getImp(bytes4 _selector) external view returns(address){... */\n      swap2\n      swap1\n      pop\n      jump\t// out\n        /* \"/contracts/storage/LibDynamicRouterStorage.sol\":1430:2141  function updateModules(moduleDefinition[] memory modules) external {... */\n    tag_14:\n        /* \"/contracts/storage/LibDynamicRouterStorage.sol\":1504:1541  dynamicRouterStorage storage _storage */\n      0x00\n        /* \"/contracts/storage/LibDynamicRouterStorage.sol\":1544:1561  _getStorage(SLOT) */\n      tag_19\n        /* \"/contracts/storage/LibDynamicRouterStorage.sol\":614:636  bytes('DynamicRouter') */\n      mload(0x40)\n      dup1\n      0x40\n      add\n      0x40\n      mstore\n      dup1\n      0x0d\n      dup2\n      mstore\n      0x20\n      add\n      0x44796e616d6963526f7574657200000000000000000000000000000000000000\n      dup2\n      mstore\n      pop\n        /* \"/contracts/storage/LibDynamicRouterStorage.sol\":604:637  keccak256(bytes('DynamicRouter')) */\n      dup1\n      mload\n      swap1\n      0x20\n      add\n      keccak256\n        /* \"/contracts/storage/LibDynamicRouterStorage.sol\":1544:1555  _getStorage */\n      tag_17\n        /* \"/contracts/storage/LibDynamicRouterStorage.sol\":1544:1561  _getStorage(SLOT) */\n      jump\t// in\n    tag_19:\n        /* \"/contracts/storage/LibDynamicRouterStorage.sol\":1504:1561  dynamicRouterStorage storage _storage = _getStorage(SLOT) */\n      swap1\n      pop\n        /* \"/contracts/storage/LibDynamicRouterStorage.sol\":1573:1582  uint256 i */\n      0x00\n        /* \"/contracts/storage/LibDynamicRouterStorage.sol\":1568:2136  for (uint256 i = 0; i < modules.length; ++i) {... */\n    tag_20:\n        /* \"/contracts/storage/LibDynamicRouterStorage.sol\":1592:1599  modules */\n      dup3\n        /* \"/contracts/storage/LibDynamicRouterStorage.sol\":1592:1606  modules.length */\n      mload\n        /* \"/contracts/storage/LibDynamicRouterStorage.sol\":1588:1589  i */\n      dup2\n        /* \"/contracts/storage/LibDynamicRouterStorage.sol\":1588:1606  i < modules.length */\n      lt\n        /* \"/contracts/storage/LibDynamicRouterStorage.sol\":1568:2136  for (uint256 i = 0; i < modules.length; ++i) {... */\n      iszero\n      tag_21\n      jumpi\n        /* \"/contracts/storage/LibDynamicRouterStorage.sol\":1622:1652  moduleDefinition memory module */\n      0x00\n        /* \"/contracts/storage/LibDynamicRouterStorage.sol\":1655:1662  modules */\n      dup4\n        /* \"/contracts/storage/LibDynamicRouterStorage.sol\":1663:1664  i */\n      dup3\n        /* \"/contracts/storage/LibDynamicRouterStorage.sol\":1655:1665  modules[i] */\n      dup2\n      mload\n      dup2\n      lt\n      tag_23\n      jumpi\n      tag_24\n      tag_25\n      jump\t// in\n    tag_24:\n    tag_23:\n      0x20\n      mul\n      0x20\n      add\n      add\n      mload\n        /* \"/contracts/storage/LibDynamicRouterStorage.sol\":1622:1665  moduleDefinition memory module = modules[i] */\n      swap1\n      pop\n        /* \"/contracts/storage/LibDynamicRouterStorage.sol\":1681:1690  uint256 j */\n      0x00\n        /* \"/contracts/storage/LibDynamicRouterStorage.sol\":1676:2129  for (uint256 j = 0; j < module.selectors.length; ++j) {... */\n    tag_26:\n        /* \"/contracts/storage/LibDynamicRouterStorage.sol\":1700:1706  module */\n      dup2\n        /* \"/contracts/storage/LibDynamicRouterStorage.sol\":1700:1716  module.selectors */\n      0x20\n      add\n      mload\n        /* \"/contracts/storage/LibDynamicRouterStorage.sol\":1700:1723  module.selectors.length */\n      mload\n        /* \"/contracts/storage/LibDynamicRouterStorage.sol\":1696:1697  j */\n      dup2\n        /* \"/contracts/storage/LibDynamicRouterStorage.sol\":1696:1723  j < module.selectors.length */\n      lt\n        /* \"/contracts/storage/LibDynamicRouterStorage.sol\":1676:2129  for (uint256 j = 0; j < module.selectors.length; ++j) {... */\n      iszero\n      tag_27\n      jumpi\n        /* \"/contracts/storage/LibDynamicRouterStorage.sol\":1741:1757  bytes4 _selector */\n      0x00\n        /* \"/contracts/storage/LibDynamicRouterStorage.sol\":1760:1766  module */\n      dup3\n        /* \"/contracts/storage/LibDynamicRouterStorage.sol\":1760:1776  module.selectors */\n      0x20\n      add\n      mload\n        /* \"/contracts/storage/LibDynamicRouterStorage.sol\":1777:1778  j */\n      dup3\n        /* \"/contracts/storage/LibDynamicRouterStorage.sol\":1760:1779  module.selectors[j] */\n      dup2\n      mload\n      dup2\n      lt\n      tag_29\n      jumpi\n      tag_30\n      tag_25\n      jump\t// in\n    tag_30:\n    tag_29:\n      0x20\n      mul\n      0x20\n      add\n      add\n      mload\n        /* \"/contracts/storage/LibDynamicRouterStorage.sol\":1741:1779  bytes4 _selector = module.selectors[j] */\n      swap1\n      pop\n        /* \"/contracts/storage/LibDynamicRouterStorage.sol\":1790:1805  address _module */\n      0x00\n        /* \"/contracts/storage/LibDynamicRouterStorage.sol\":1808:1814  module */\n      dup4\n        /* \"/contracts/storage/LibDynamicRouterStorage.sol\":1808:1821  module.module */\n      0x00\n      add\n      mload\n        /* \"/contracts/storage/LibDynamicRouterStorage.sol\":1790:1821  address _module = module.module */\n      swap1\n      pop\n        /* \"/contracts/storage/LibDynamicRouterStorage.sol\":1836:1860  _findSelector(_selector) */\n      tag_31\n        /* \"/contracts/storage/LibDynamicRouterStorage.sol\":1850:1859  _selector */\n      dup3\n        /* \"/contracts/storage/LibDynamicRouterStorage.sol\":1836:1849  _findSelector */\n      tag_32\n        /* \"/contracts/storage/LibDynamicRouterStorage.sol\":1836:1860  _findSelector(_selector) */\n      jump\t// in\n    tag_31:\n        /* \"/contracts/storage/LibDynamicRouterStorage.sol\":1835:1860  !_findSelector(_selector) */\n      iszero\n        /* \"/contracts/storage/LibDynamicRouterStorage.sol\":1835:1885  !_findSelector(_selector) && _module != address(0) */\n      dup1\n      iszero\n      tag_33\n      jumpi\n      pop\n        /* \"/contracts/storage/LibDynamicRouterStorage.sol\":1883:1884  0 */\n      0x00\n        /* \"/contracts/storage/LibDynamicRouterStorage.sol\":1864:1885  _module != address(0) */\n      0xffffffffffffffffffffffffffffffffffffffff\n      and\n        /* \"/contracts/storage/LibDynamicRouterStorage.sol\":1864:1871  _module */\n      dup2\n        /* \"/contracts/storage/LibDynamicRouterStorage.sol\":1864:1885  _module != address(0) */\n      0xffffffffffffffffffffffffffffffffffffffff\n      and\n      eq\n      iszero\n        /* \"/contracts/storage/LibDynamicRouterStorage.sol\":1835:1885  !_findSelector(_selector) && _module != address(0) */\n    tag_33:\n        /* \"/contracts/storage/LibDynamicRouterStorage.sol\":1832:1921  if(!_findSelector(_selector) && _module != address(0)) _storage.selectors.push(_selector) */\n      iszero\n      tag_34\n      jumpi\n        /* \"/contracts/storage/LibDynamicRouterStorage.sol\":1887:1895  _storage */\n      dup6\n        /* \"/contracts/storage/LibDynamicRouterStorage.sol\":1887:1905  _storage.selectors */\n      0x01\n      add\n        /* \"/contracts/storage/LibDynamicRouterStorage.sol\":1911:1920  _selector */\n      dup3\n        /* \"/contracts/storage/LibDynamicRouterStorage.sol\":1887:1921  _storage.selectors.push(_selector) */\n      swap1\n      dup1\n      0x01\n      dup2\n      sload\n      add\n      dup1\n      dup3\n      sstore\n      dup1\n      swap2\n      pop\n      pop\n      0x01\n      swap1\n      sub\n      swap1\n      0x00\n      mstore\n      keccak256(0x00, 0x20)\n      swap1\n      0x08\n      swap2\n      dup3\n      dup3\n      div\n      add\n      swap2\n      swap1\n      mod\n      0x04\n      mul\n      swap1\n      swap2\n      swap1\n      swap2\n      swap1\n      swap2\n      0x0100\n      exp\n      dup2\n      sload\n      dup2\n      0xffffffff\n      mul\n      not\n      and\n      swap1\n      dup4\n      0xe0\n      shr\n      mul\n      or\n      swap1\n      sstore\n      pop\n        /* \"/contracts/storage/LibDynamicRouterStorage.sol\":1832:1921  if(!_findSelector(_selector) && _module != address(0)) _storage.selectors.push(_selector) */\n    tag_34:\n        /* \"/contracts/storage/LibDynamicRouterStorage.sol\":1936:1956  _findModule(_module) */\n      tag_36\n        /* \"/contracts/storage/LibDynamicRouterStorage.sol\":1948:1955  _module */\n      dup2\n        /* \"/contracts/storage/LibDynamicRouterStorage.sol\":1936:1947  _findModule */\n      tag_37\n        /* \"/contracts/storage/LibDynamicRouterStorage.sol\":1936:1956  _findModule(_module) */\n      jump\t// in\n    tag_36:\n        /* \"/contracts/storage/LibDynamicRouterStorage.sol\":1935:1956  !_findModule(_module) */\n      iszero\n        /* \"/contracts/storage/LibDynamicRouterStorage.sol\":1935:1981  !_findModule(_module) && _module != address(0) */\n      dup1\n      iszero\n      tag_38\n      jumpi\n      pop\n        /* \"/contracts/storage/LibDynamicRouterStorage.sol\":1979:1980  0 */\n      0x00\n        /* \"/contracts/storage/LibDynamicRouterStorage.sol\":1960:1981  _module != address(0) */\n      0xffffffffffffffffffffffffffffffffffffffff\n      and\n        /* \"/contracts/storage/LibDynamicRouterStorage.sol\":1960:1967  _module */\n      dup2\n        /* \"/contracts/storage/LibDynamicRouterStorage.sol\":1960:1981  _module != address(0) */\n      0xffffffffffffffffffffffffffffffffffffffff\n      and\n      eq\n      iszero\n        /* \"/contracts/storage/LibDynamicRouterStorage.sol\":1935:1981  !_findModule(_module) && _module != address(0) */\n    tag_38:\n        /* \"/contracts/storage/LibDynamicRouterStorage.sol\":1932:2009  if(!_findModule(_module) && _module != address(0))_storage.impl.push(_module) */\n      iszero\n      tag_39\n      jumpi\n        /* \"/contracts/storage/LibDynamicRouterStorage.sol\":1982:1990  _storage */\n      dup6\n        /* \"/contracts/storage/LibDynamicRouterStorage.sol\":1982:1995  _storage.impl */\n      0x02\n      add\n        /* \"/contracts/storage/LibDynamicRouterStorage.sol\":2001:2008  _module */\n      dup2\n        /* \"/contracts/storage/LibDynamicRouterStorage.sol\":1982:2009  _storage.impl.push(_module) */\n      swap1\n      dup1\n      0x01\n      dup2\n      sload\n      add\n      dup1\n      dup3\n      sstore\n      dup1\n      swap2\n      pop\n      pop\n      0x01\n      swap1\n      sub\n      swap1\n      0x00\n      mstore\n      keccak256(0x00, 0x20)\n      add\n      0x00\n      swap1\n      swap2\n      swap1\n      swap2\n      swap1\n      swap2\n      0x0100\n      exp\n      dup2\n      sload\n      dup2\n      0xffffffffffffffffffffffffffffffffffffffff\n      mul\n      not\n      and\n      swap1\n      dup4\n      0xffffffffffffffffffffffffffffffffffffffff\n      and\n      mul\n      or\n      swap1\n      sstore\n      pop\n        /* \"/contracts/storage/LibDynamicRouterStorage.sol\":1932:2009  if(!_findModule(_module) && _module != address(0))_storage.impl.push(_module) */\n    tag_39:\n        /* \"/contracts/storage/LibDynamicRouterStorage.sol\":2050:2057  _module */\n      dup1\n        /* \"/contracts/storage/LibDynamicRouterStorage.sol\":2020:2028  _storage */\n      dup7\n        /* \"/contracts/storage/LibDynamicRouterStorage.sol\":2020:2036  _storage.modules */\n      0x00\n      add\n        /* \"/contracts/storage/LibDynamicRouterStorage.sol\":2020:2047  _storage.modules[_selector] */\n      0x00\n        /* \"/contracts/storage/LibDynamicRouterStorage.sol\":2037:2046  _selector */\n      dup5\n        /* \"/contracts/storage/LibDynamicRouterStorage.sol\":2020:2047  _storage.modules[_selector] */\n      not(0xffffffffffffffffffffffffffffffffffffffffffffffffffffffff)\n      and\n      not(0xffffffffffffffffffffffffffffffffffffffffffffffffffffffff)\n      and\n      dup2\n      mstore\n      0x20\n      add\n      swap1\n      dup2\n      mstore\n      0x20\n      add\n      0x00\n      keccak256\n      0x00\n        /* \"/contracts/storage/LibDynamicRouterStorage.sol\":2020:2057  _storage.modules[_selector] = _module */\n      0x0100\n      exp\n      dup2\n      sload\n      dup2\n      0xffffffffffffffffffffffffffffffffffffffff\n      mul\n      not\n      and\n      swap1\n      dup4\n      0xffffffffffffffffffffffffffffffffffffffff\n      and\n      mul\n      or\n      swap1\n      sstore\n      pop\n        /* \"/contracts/storage/LibDynamicRouterStorage.sol\":2073:2117  UpdateModule(msg.sender, _module, _selector) */\n      0x314760e63cd5315a4cf28c679a1885b84249533d4156a7ebd02675626493a255\n        /* \"/contracts/storage/LibDynamicRouterStorage.sol\":2086:2096  msg.sender */\n      caller\n        /* \"/contracts/storage/LibDynamicRouterStorage.sol\":2098:2105  _module */\n      dup3\n        /* \"/contracts/storage/LibDynamicRouterStorage.sol\":2107:2116  _selector */\n      dup5\n        /* \"/contracts/storage/LibDynamicRouterStorage.sol\":2073:2117  UpdateModule(msg.sender, _module, _selector) */\n      mload(0x40)\n      tag_41\n      swap4\n      swap3\n      swap2\n      swap1\n      tag_42\n      jump\t// in\n    tag_41:\n      mload(0x40)\n      dup1\n      swap2\n      sub\n      swap1\n      log1\n        /* \"/contracts/storage/LibDynamicRouterStorage.sol\":1730:2129  {... */\n      pop\n      pop\n        /* \"/contracts/storage/LibDynamicRouterStorage.sol\":1725:1728  ++j */\n      dup1\n      0x01\n      add\n      swap1\n      pop\n        /* \"/contracts/storage/LibDynamicRouterStorage.sol\":1676:2129  for (uint256 j = 0; j < module.selectors.length; ++j) {... */\n      jump(tag_26)\n    tag_27:\n      pop\n        /* \"/contracts/storage/LibDynamicRouterStorage.sol\":1613:2136  {... */\n      pop\n        /* \"/contracts/storage/LibDynamicRouterStorage.sol\":1608:1611  ++i */\n      dup1\n      0x01\n      add\n      swap1\n      pop\n        /* \"/contracts/storage/LibDynamicRouterStorage.sol\":1568:2136  for (uint256 i = 0; i < modules.length; ++i) {... */\n      jump(tag_20)\n    tag_21:\n      pop\n        /* \"/contracts/storage/LibDynamicRouterStorage.sol\":1497:2141  {... */\n      pop\n        /* \"/contracts/storage/LibDynamicRouterStorage.sol\":1430:2141  function updateModules(moduleDefinition[] memory modules) external {... */\n      pop\n      jump\t// out\n        /* \"/contracts/storage/LibDynamicRouterStorage.sol\":3348:3496  function _getStorage(bytes32 _storage) private pure returns (dynamicRouterStorage storage s){... */\n    tag_17:\n        /* \"/contracts/storage/LibDynamicRouterStorage.sol\":3409:3439  dynamicRouterStorage storage s */\n      0x00\n        /* \"/contracts/storage/LibDynamicRouterStorage.sol\":3476:3484  _storage */\n      dup2\n        /* \"/contracts/storage/LibDynamicRouterStorage.sol\":3466:3484  s.slot := _storage */\n      swap1\n      pop\n        /* \"/contracts/storage/LibDynamicRouterStorage.sol\":3348:3496  function _getStorage(bytes32 _storage) private pure returns (dynamicRouterStorage storage s){... */\n      swap2\n      swap1\n      pop\n      jump\t// out\n        /* \"/contracts/storage/LibDynamicRouterStorage.sol\":2446:2731  function _findSelector(bytes4 _selector) private view returns(bool){... */\n    tag_32:\n        /* \"/contracts/storage/LibDynamicRouterStorage.sol\":2508:2512  bool */\n      0x00\n        /* \"/contracts/storage/LibDynamicRouterStorage.sol\":2520:2557  dynamicRouterStorage storage _storage */\n      dup1\n        /* \"/contracts/storage/LibDynamicRouterStorage.sol\":2560:2577  _getStorage(SLOT) */\n      tag_45\n        /* \"/contracts/storage/LibDynamicRouterStorage.sol\":614:636  bytes('DynamicRouter') */\n      mload(0x40)\n      dup1\n      0x40\n      add\n      0x40\n      mstore\n      dup1\n      0x0d\n      dup2\n      mstore\n      0x20\n      add\n      0x44796e616d6963526f7574657200000000000000000000000000000000000000\n      dup2\n      mstore\n      pop\n        /* \"/contracts/storage/LibDynamicRouterStorage.sol\":604:637  keccak256(bytes('DynamicRouter')) */\n      dup1\n      mload\n      swap1\n      0x20\n      add\n      keccak256\n        /* \"/contracts/storage/LibDynamicRouterStorage.sol\":2560:2571  _getStorage */\n      tag_17\n        /* \"/contracts/storage/LibDynamicRouterStorage.sol\":2560:2577  _getStorage(SLOT) */\n      jump\t// in\n    tag_45:\n        /* \"/contracts/storage/LibDynamicRouterStorage.sol\":2520:2577  dynamicRouterStorage storage _storage = _getStorage(SLOT) */\n      swap1\n      pop\n        /* \"/contracts/storage/LibDynamicRouterStorage.sol\":2589:2598  uint256 i */\n      0x00\n        /* \"/contracts/storage/LibDynamicRouterStorage.sol\":2584:2707  for (uint256 i = 0; i < _storage.selectors.length; ++i) {... */\n    tag_46:\n        /* \"/contracts/storage/LibDynamicRouterStorage.sol\":2608:2616  _storage */\n      dup2\n        /* \"/contracts/storage/LibDynamicRouterStorage.sol\":2608:2626  _storage.selectors */\n      0x01\n      add\n        /* \"/contracts/storage/LibDynamicRouterStorage.sol\":2608:2633  _storage.selectors.length */\n      dup1\n      sload\n      swap1\n      pop\n        /* \"/contracts/storage/LibDynamicRouterStorage.sol\":2604:2605  i */\n      dup2\n        /* \"/contracts/storage/LibDynamicRouterStorage.sol\":2604:2633  i < _storage.selectors.length */\n      lt\n        /* \"/contracts/storage/LibDynamicRouterStorage.sol\":2584:2707  for (uint256 i = 0; i < _storage.selectors.length; ++i) {... */\n      iszero\n      tag_47\n      jumpi\n        /* \"/contracts/storage/LibDynamicRouterStorage.sol\":2665:2673  _storage */\n      dup2\n        /* \"/contracts/storage/LibDynamicRouterStorage.sol\":2665:2683  _storage.selectors */\n      0x01\n      add\n        /* \"/contracts/storage/LibDynamicRouterStorage.sol\":2684:2685  i */\n      dup2\n        /* \"/contracts/storage/LibDynamicRouterStorage.sol\":2665:2686  _storage.selectors[i] */\n      dup2\n      sload\n      dup2\n      lt\n      tag_49\n      jumpi\n      tag_50\n      tag_25\n      jump\t// in\n    tag_50:\n    tag_49:\n      swap1\n      0x00\n      mstore\n      keccak256(0x00, 0x20)\n      swap1\n      0x08\n      swap2\n      dup3\n      dup3\n      div\n      add\n      swap2\n      swap1\n      mod\n      0x04\n      mul\n      swap1\n      sload\n      swap1\n      0x0100\n      exp\n      swap1\n      div\n      0xe0\n      shl\n        /* \"/contracts/storage/LibDynamicRouterStorage.sol\":2652:2686  _selector == _storage.selectors[i] */\n      not(0xffffffffffffffffffffffffffffffffffffffffffffffffffffffff)\n      and\n        /* \"/contracts/storage/LibDynamicRouterStorage.sol\":2652:2661  _selector */\n      dup5\n        /* \"/contracts/storage/LibDynamicRouterStorage.sol\":2652:2686  _selector == _storage.selectors[i] */\n      not(0xffffffffffffffffffffffffffffffffffffffffffffffffffffffff)\n      and\n      sub\n        /* \"/contracts/storage/LibDynamicRouterStorage.sol\":2649:2699  if(_selector == _storage.selectors[i]) return true */\n      tag_52\n      jumpi\n        /* \"/contracts/storage/LibDynamicRouterStorage.sol\":2695:2699  true */\n      0x01\n        /* \"/contracts/storage/LibDynamicRouterStorage.sol\":2688:2699  return true */\n      swap3\n      pop\n      pop\n      pop\n      jump(tag_44)\n        /* \"/contracts/storage/LibDynamicRouterStorage.sol\":2649:2699  if(_selector == _storage.selectors[i]) return true */\n    tag_52:\n        /* \"/contracts/storage/LibDynamicRouterStorage.sol\":2635:2638  ++i */\n      dup1\n      0x01\n      add\n      swap1\n      pop\n        /* \"/contracts/storage/LibDynamicRouterStorage.sol\":2584:2707  for (uint256 i = 0; i < _storage.selectors.length; ++i) {... */\n      jump(tag_46)\n    tag_47:\n      pop\n        /* \"/contracts/storage/LibDynamicRouterStorage.sol\":2720:2725  false */\n      0x00\n        /* \"/contracts/storage/LibDynamicRouterStorage.sol\":2713:2725  return false */\n      swap2\n      pop\n      pop\n        /* \"/contracts/storage/LibDynamicRouterStorage.sol\":2446:2731  function _findSelector(bytes4 _selector) private view returns(bool){... */\n    tag_44:\n      swap2\n      swap1\n      pop\n      jump\t// out\n        /* \"/contracts/storage/LibDynamicRouterStorage.sol\":2811:3081  function _findModule(address _module) private view returns(bool){... */\n    tag_37:\n        /* \"/contracts/storage/LibDynamicRouterStorage.sol\":2870:2874  bool */\n      0x00\n        /* \"/contracts/storage/LibDynamicRouterStorage.sol\":2882:2919  dynamicRouterStorage storage _storage */\n      dup1\n        /* \"/contracts/storage/LibDynamicRouterStorage.sol\":2922:2939  _getStorage(SLOT) */\n      tag_54\n        /* \"/contracts/storage/LibDynamicRouterStorage.sol\":614:636  bytes('DynamicRouter') */\n      mload(0x40)\n      dup1\n      0x40\n      add\n      0x40\n      mstore\n      dup1\n      0x0d\n      dup2\n      mstore\n      0x20\n      add\n      0x44796e616d6963526f7574657200000000000000000000000000000000000000\n      dup2\n      mstore\n      pop\n        /* \"/contracts/storage/LibDynamicRouterStorage.sol\":604:637  keccak256(bytes('DynamicRouter')) */\n      dup1\n      mload\n      swap1\n      0x20\n      add\n      keccak256\n        /* \"/contracts/storage/LibDynamicRouterStorage.sol\":2922:2933  _getStorage */\n      tag_17\n        /* \"/contracts/storage/LibDynamicRouterStorage.sol\":2922:2939  _getStorage(SLOT) */\n      jump\t// in\n    tag_54:\n        /* \"/contracts/storage/LibDynamicRouterStorage.sol\":2882:2939  dynamicRouterStorage storage _storage = _getStorage(SLOT) */\n      swap1\n      pop\n        /* \"/contracts/storage/LibDynamicRouterStorage.sol\":2951:2960  uint256 i */\n      0x00\n        /* \"/contracts/storage/LibDynamicRouterStorage.sol\":2946:3057  for (uint256 i = 0; i < _storage.impl.length; ++i) {... */\n    tag_55:\n        /* \"/contracts/storage/LibDynamicRouterStorage.sol\":2970:2978  _storage */\n      dup2\n        /* \"/contracts/storage/LibDynamicRouterStorage.sol\":2970:2983  _storage.impl */\n      0x02\n      add\n        /* \"/contracts/storage/LibDynamicRouterStorage.sol\":2970:2990  _storage.impl.length */\n      dup1\n      sload\n      swap1\n      pop\n        /* \"/contracts/storage/LibDynamicRouterStorage.sol\":2966:2967  i */\n      dup2\n        /* \"/contracts/storage/LibDynamicRouterStorage.sol\":2966:2990  i < _storage.impl.length */\n      lt\n        /* \"/contracts/storage/LibDynamicRouterStorage.sol\":2946:3057  for (uint256 i = 0; i < _storage.impl.length; ++i) {... */\n      iszero\n      tag_56\n      jumpi\n        /* \"/contracts/storage/LibDynamicRouterStorage.sol\":3020:3028  _storage */\n      dup2\n        /* \"/contracts/storage/LibDynamicRouterStorage.sol\":3020:3033  _storage.impl */\n      0x02\n      add\n        /* \"/contracts/storage/LibDynamicRouterStorage.sol\":3034:3035  i */\n      dup2\n        /* \"/contracts/storage/LibDynamicRouterStorage.sol\":3020:3036  _storage.impl[i] */\n      dup2\n      sload\n      dup2\n      lt\n      tag_58\n      jumpi\n      tag_59\n      tag_25\n      jump\t// in\n    tag_59:\n    tag_58:\n      swap1\n      0x00\n      mstore\n      keccak256(0x00, 0x20)\n      add\n      0x00\n      swap1\n      sload\n      swap1\n      0x0100\n      exp\n      swap1\n      div\n      0xffffffffffffffffffffffffffffffffffffffff\n      and\n        /* \"/contracts/storage/LibDynamicRouterStorage.sol\":3009:3036  _module == _storage.impl[i] */\n      0xffffffffffffffffffffffffffffffffffffffff\n      and\n        /* \"/contracts/storage/LibDynamicRouterStorage.sol\":3009:3016  _module */\n      dup5\n        /* \"/contracts/storage/LibDynamicRouterStorage.sol\":3009:3036  _module == _storage.impl[i] */\n      0xffffffffffffffffffffffffffffffffffffffff\n      and\n      sub\n        /* \"/contracts/storage/LibDynamicRouterStorage.sol\":3006:3049  if(_module == _storage.impl[i]) return true */\n      tag_61\n      jumpi\n        /* \"/contracts/storage/LibDynamicRouterStorage.sol\":3045:3049  true */\n      0x01\n        /* \"/contracts/storage/LibDynamicRouterStorage.sol\":3038:3049  return true */\n      swap3\n      pop\n      pop\n      pop\n      jump(tag_53)\n        /* \"/contracts/storage/LibDynamicRouterStorage.sol\":3006:3049  if(_module == _storage.impl[i]) return true */\n    tag_61:\n        /* \"/contracts/storage/LibDynamicRouterStorage.sol\":2992:2995  ++i */\n      dup1\n      0x01\n      add\n      swap1\n      pop\n        /* \"/contracts/storage/LibDynamicRouterStorage.sol\":2946:3057  for (uint256 i = 0; i < _storage.impl.length; ++i) {... */\n      jump(tag_55)\n    tag_56:\n      pop\n        /* \"/contracts/storage/LibDynamicRouterStorage.sol\":3070:3075  false */\n      0x00\n        /* \"/contracts/storage/LibDynamicRouterStorage.sol\":3063:3075  return false */\n      swap2\n      pop\n      pop\n        /* \"/contracts/storage/LibDynamicRouterStorage.sol\":2811:3081  function _findModule(address _module) private view returns(bool){... */\n    tag_53:\n      swap2\n      swap1\n      pop\n      jump\t// out\n        /* \"#utility.yul\":7:82   */\n    tag_62:\n        /* \"#utility.yul\":40:46   */\n      0x00\n        /* \"#utility.yul\":73:75   */\n      0x40\n        /* \"#utility.yul\":67:76   */\n      mload\n        /* \"#utility.yul\":57:76   */\n      swap1\n      pop\n        /* \"#utility.yul\":7:82   */\n      swap1\n      jump\t// out\n        /* \"#utility.yul\":88:205   */\n    tag_63:\n        /* \"#utility.yul\":197:198   */\n      0x00\n        /* \"#utility.yul\":194:195   */\n      dup1\n        /* \"#utility.yul\":187:199   */\n      revert\n        /* \"#utility.yul\":211:328   */\n    tag_64:\n        /* \"#utility.yul\":320:321   */\n      0x00\n        /* \"#utility.yul\":317:318   */\n      dup1\n        /* \"#utility.yul\":310:322   */\n      revert\n        /* \"#utility.yul\":334:483   */\n    tag_65:\n        /* \"#utility.yul\":370:377   */\n      0x00\n        /* \"#utility.yul\":410:476   */\n      0xffffffff00000000000000000000000000000000000000000000000000000000\n        /* \"#utility.yul\":403:408   */\n      dup3\n        /* \"#utility.yul\":399:477   */\n      and\n        /* \"#utility.yul\":388:477   */\n      swap1\n      pop\n        /* \"#utility.yul\":334:483   */\n      swap2\n      swap1\n      pop\n      jump\t// out\n        /* \"#utility.yul\":489:609   */\n    tag_66:\n        /* \"#utility.yul\":561:584   */\n      tag_96\n        /* \"#utility.yul\":578:583   */\n      dup2\n        /* \"#utility.yul\":561:584   */\n      tag_65\n      jump\t// in\n    tag_96:\n        /* \"#utility.yul\":554:559   */\n      dup2\n        /* \"#utility.yul\":551:585   */\n      eq\n        /* \"#utility.yul\":541:603   */\n      tag_97\n      jumpi\n        /* \"#utility.yul\":599:600   */\n      0x00\n        /* \"#utility.yul\":596:597   */\n      dup1\n        /* \"#utility.yul\":589:601   */\n      revert\n        /* \"#utility.yul\":541:603   */\n    tag_97:\n        /* \"#utility.yul\":489:609   */\n      pop\n      jump\t// out\n        /* \"#utility.yul\":615:752   */\n    tag_67:\n        /* \"#utility.yul\":660:665   */\n      0x00\n        /* \"#utility.yul\":698:704   */\n      dup2\n        /* \"#utility.yul\":685:705   */\n      calldataload\n        /* \"#utility.yul\":676:705   */\n      swap1\n      pop\n        /* \"#utility.yul\":714:746   */\n      tag_99\n        /* \"#utility.yul\":740:745   */\n      dup2\n        /* \"#utility.yul\":714:746   */\n      tag_66\n      jump\t// in\n    tag_99:\n        /* \"#utility.yul\":615:752   */\n      swap3\n      swap2\n      pop\n      pop\n      jump\t// out\n        /* \"#utility.yul\":758:1085   */\n    tag_6:\n        /* \"#utility.yul\":816:822   */\n      0x00\n        /* \"#utility.yul\":865:867   */\n      0x20\n        /* \"#utility.yul\":853:862   */\n      dup3\n        /* \"#utility.yul\":844:851   */\n      dup5\n        /* \"#utility.yul\":840:863   */\n      sub\n        /* \"#utility.yul\":836:868   */\n      slt\n        /* \"#utility.yul\":833:952   */\n      iszero\n      tag_101\n      jumpi\n        /* \"#utility.yul\":871:950   */\n      tag_102\n      tag_63\n      jump\t// in\n    tag_102:\n        /* \"#utility.yul\":833:952   */\n    tag_101:\n        /* \"#utility.yul\":991:992   */\n      0x00\n        /* \"#utility.yul\":1016:1068   */\n      tag_103\n        /* \"#utility.yul\":1060:1067   */\n      dup5\n        /* \"#utility.yul\":1051:1057   */\n      dup3\n        /* \"#utility.yul\":1040:1049   */\n      dup6\n        /* \"#utility.yul\":1036:1058   */\n      add\n        /* \"#utility.yul\":1016:1068   */\n      tag_67\n      jump\t// in\n    tag_103:\n        /* \"#utility.yul\":1006:1068   */\n      swap2\n      pop\n        /* \"#utility.yul\":962:1078   */\n      pop\n        /* \"#utility.yul\":758:1085   */\n      swap3\n      swap2\n      pop\n      pop\n      jump\t// out\n        /* \"#utility.yul\":1091:1217   */\n    tag_68:\n        /* \"#utility.yul\":1128:1135   */\n      0x00\n        /* \"#utility.yul\":1168:1210   */\n      0xffffffffffffffffffffffffffffffffffffffff\n        /* \"#utility.yul\":1161:1166   */\n      dup3\n        /* \"#utility.yul\":1157:1211   */\n      and\n        /* \"#utility.yul\":1146:1211   */\n      swap1\n      pop\n        /* \"#utility.yul\":1091:1217   */\n      swap2\n      swap1\n      pop\n      jump\t// out\n        /* \"#utility.yul\":1223:1319   */\n    tag_69:\n        /* \"#utility.yul\":1260:1267   */\n      0x00\n        /* \"#utility.yul\":1289:1313   */\n      tag_106\n        /* \"#utility.yul\":1307:1312   */\n      dup3\n        /* \"#utility.yul\":1289:1313   */\n      tag_68\n      jump\t// in\n    tag_106:\n        /* \"#utility.yul\":1278:1313   */\n      swap1\n      pop\n        /* \"#utility.yul\":1223:1319   */\n      swap2\n      swap1\n      pop\n      jump\t// out\n        /* \"#utility.yul\":1325:1451   */\n    tag_70:\n        /* \"#utility.yul\":1420:1444   */\n      tag_108\n        /* \"#utility.yul\":1438:1443   */\n      dup2\n        /* \"#utility.yul\":1420:1444   */\n      tag_69\n      jump\t// in\n    tag_108:\n        /* \"#utility.yul\":1415:1418   */\n      dup3\n        /* \"#utility.yul\":1408:1445   */\n      mstore\n        /* \"#utility.yul\":1325:1451   */\n      pop\n      pop\n      jump\t// out\n        /* \"#utility.yul\":1457:1695   */\n    tag_9:\n        /* \"#utility.yul\":1558:1562   */\n      0x00\n        /* \"#utility.yul\":1596:1598   */\n      0x20\n        /* \"#utility.yul\":1585:1594   */\n      dup3\n        /* \"#utility.yul\":1581:1599   */\n      add\n        /* \"#utility.yul\":1573:1599   */\n      swap1\n      pop\n        /* \"#utility.yul\":1609:1688   */\n      tag_110\n        /* \"#utility.yul\":1685:1686   */\n      0x00\n        /* \"#utility.yul\":1674:1683   */\n      dup4\n        /* \"#utility.yul\":1670:1687   */\n      add\n        /* \"#utility.yul\":1661:1667   */\n      dup5\n        /* \"#utility.yul\":1609:1688   */\n      tag_70\n      jump\t// in\n    tag_110:\n        /* \"#utility.yul\":1457:1695   */\n      swap3\n      swap2\n      pop\n      pop\n      jump\t// out\n        /* \"#utility.yul\":1701:1818   */\n    tag_71:\n        /* \"#utility.yul\":1810:1811   */\n      0x00\n        /* \"#utility.yul\":1807:1808   */\n      dup1\n        /* \"#utility.yul\":1800:1812   */\n      revert\n        /* \"#utility.yul\":1824:1926   */\n    tag_72:\n        /* \"#utility.yul\":1865:1871   */\n      0x00\n        /* \"#utility.yul\":1916:1918   */\n      0x1f\n        /* \"#utility.yul\":1912:1919   */\n      not\n        /* \"#utility.yul\":1907:1909   */\n      0x1f\n        /* \"#utility.yul\":1900:1905   */\n      dup4\n        /* \"#utility.yul\":1896:1910   */\n      add\n        /* \"#utility.yul\":1892:1920   */\n      and\n        /* \"#utility.yul\":1882:1920   */\n      swap1\n      pop\n        /* \"#utility.yul\":1824:1926   */\n      swap2\n      swap1\n      pop\n      jump\t// out\n        /* \"#utility.yul\":1932:2112   */\n    tag_73:\n        /* \"#utility.yul\":1980:2057   */\n      0x4e487b7100000000000000000000000000000000000000000000000000000000\n        /* \"#utility.yul\":1977:1978   */\n      0x00\n        /* \"#utility.yul\":1970:2058   */\n      mstore\n        /* \"#utility.yul\":2077:2081   */\n      0x41\n        /* \"#utility.yul\":2074:2075   */\n      0x04\n        /* \"#utility.yul\":2067:2082   */\n      mstore\n        /* \"#utility.yul\":2101:2105   */\n      0x24\n        /* \"#utility.yul\":2098:2099   */\n      0x00\n        /* \"#utility.yul\":2091:2106   */\n      revert\n        /* \"#utility.yul\":2118:2399   */\n    tag_74:\n        /* \"#utility.yul\":2201:2228   */\n      tag_115\n        /* \"#utility.yul\":2223:2227   */\n      dup3\n        /* \"#utility.yul\":2201:2228   */\n      tag_72\n      jump\t// in\n    tag_115:\n        /* \"#utility.yul\":2193:2199   */\n      dup2\n        /* \"#utility.yul\":2189:2229   */\n      add\n        /* \"#utility.yul\":2331:2337   */\n      dup2\n        /* \"#utility.yul\":2319:2329   */\n      dup2\n        /* \"#utility.yul\":2316:2338   */\n      lt\n        /* \"#utility.yul\":2295:2313   */\n      0xffffffffffffffff\n        /* \"#utility.yul\":2283:2293   */\n      dup3\n        /* \"#utility.yul\":2280:2314   */\n      gt\n        /* \"#utility.yul\":2277:2339   */\n      or\n        /* \"#utility.yul\":2274:2362   */\n      iszero\n      tag_116\n      jumpi\n        /* \"#utility.yul\":2342:2360   */\n      tag_117\n      tag_73\n      jump\t// in\n    tag_117:\n        /* \"#utility.yul\":2274:2362   */\n    tag_116:\n        /* \"#utility.yul\":2382:2392   */\n      dup1\n        /* \"#utility.yul\":2378:2380   */\n      0x40\n        /* \"#utility.yul\":2371:2393   */\n      mstore\n        /* \"#utility.yul\":2161:2399   */\n      pop\n        /* \"#utility.yul\":2118:2399   */\n      pop\n      pop\n      jump\t// out\n        /* \"#utility.yul\":2405:2534   */\n    tag_75:\n        /* \"#utility.yul\":2439:2445   */\n      0x00\n        /* \"#utility.yul\":2466:2486   */\n      tag_119\n      tag_62\n      jump\t// in\n    tag_119:\n        /* \"#utility.yul\":2456:2486   */\n      swap1\n      pop\n        /* \"#utility.yul\":2495:2528   */\n      tag_120\n        /* \"#utility.yul\":2523:2527   */\n      dup3\n        /* \"#utility.yul\":2515:2521   */\n      dup3\n        /* \"#utility.yul\":2495:2528   */\n      tag_74\n      jump\t// in\n    tag_120:\n        /* \"#utility.yul\":2405:2534   */\n      swap2\n      swap1\n      pop\n      jump\t// out\n        /* \"#utility.yul\":2540:2883   */\n    tag_76:\n        /* \"#utility.yul\":2649:2653   */\n      0x00\n        /* \"#utility.yul\":2739:2757   */\n      0xffffffffffffffff\n        /* \"#utility.yul\":2731:2737   */\n      dup3\n        /* \"#utility.yul\":2728:2758   */\n      gt\n        /* \"#utility.yul\":2725:2781   */\n      iszero\n      tag_122\n      jumpi\n        /* \"#utility.yul\":2761:2779   */\n      tag_123\n      tag_73\n      jump\t// in\n    tag_123:\n        /* \"#utility.yul\":2725:2781   */\n    tag_122:\n        /* \"#utility.yul\":2811:2815   */\n      0x20\n        /* \"#utility.yul\":2803:2809   */\n      dup3\n        /* \"#utility.yul\":2799:2816   */\n      mul\n        /* \"#utility.yul\":2791:2816   */\n      swap1\n      pop\n        /* \"#utility.yul\":2871:2875   */\n      0x20\n        /* \"#utility.yul\":2865:2869   */\n      dup2\n        /* \"#utility.yul\":2861:2876   */\n      add\n        /* \"#utility.yul\":2853:2876   */\n      swap1\n      pop\n        /* \"#utility.yul\":2540:2883   */\n      swap2\n      swap1\n      pop\n      jump\t// out\n        /* \"#utility.yul\":2889:3006   */\n    tag_77:\n        /* \"#utility.yul\":2998:2999   */\n      0x00\n        /* \"#utility.yul\":2995:2996   */\n      dup1\n        /* \"#utility.yul\":2988:3000   */\n      revert\n        /* \"#utility.yul\":3012:3129   */\n    tag_78:\n        /* \"#utility.yul\":3121:3122   */\n      0x00\n        /* \"#utility.yul\":3118:3119   */\n      dup1\n        /* \"#utility.yul\":3111:3123   */\n      revert\n        /* \"#utility.yul\":3135:3252   */\n    tag_79:\n        /* \"#utility.yul\":3244:3245   */\n      0x00\n        /* \"#utility.yul\":3241:3242   */\n      dup1\n        /* \"#utility.yul\":3234:3246   */\n      revert\n        /* \"#utility.yul\":3258:3380   */\n    tag_80:\n        /* \"#utility.yul\":3331:3355   */\n      tag_128\n        /* \"#utility.yul\":3349:3354   */\n      dup2\n        /* \"#utility.yul\":3331:3355   */\n      tag_69\n      jump\t// in\n    tag_128:\n        /* \"#utility.yul\":3324:3329   */\n      dup2\n        /* \"#utility.yul\":3321:3356   */\n      eq\n        /* \"#utility.yul\":3311:3374   */\n      tag_129\n      jumpi\n        /* \"#utility.yul\":3370:3371   */\n      0x00\n        /* \"#utility.yul\":3367:3368   */\n      dup1\n        /* \"#utility.yul\":3360:3372   */\n      revert\n        /* \"#utility.yul\":3311:3374   */\n    tag_129:\n        /* \"#utility.yul\":3258:3380   */\n      pop\n      jump\t// out\n        /* \"#utility.yul\":3386:3525   */\n    tag_81:\n        /* \"#utility.yul\":3432:3437   */\n      0x00\n        /* \"#utility.yul\":3470:3476   */\n      dup2\n        /* \"#utility.yul\":3457:3477   */\n      calldataload\n        /* \"#utility.yul\":3448:3477   */\n      swap1\n      pop\n        /* \"#utility.yul\":3486:3519   */\n      tag_131\n        /* \"#utility.yul\":3513:3518   */\n      dup2\n        /* \"#utility.yul\":3486:3519   */\n      tag_80\n      jump\t// in\n    tag_131:\n        /* \"#utility.yul\":3386:3525   */\n      swap3\n      swap2\n      pop\n      pop\n      jump\t// out\n        /* \"#utility.yul\":3531:3841   */\n    tag_82:\n        /* \"#utility.yul\":3607:3611   */\n      0x00\n        /* \"#utility.yul\":3697:3715   */\n      0xffffffffffffffff\n        /* \"#utility.yul\":3689:3695   */\n      dup3\n        /* \"#utility.yul\":3686:3716   */\n      gt\n        /* \"#utility.yul\":3683:3739   */\n      iszero\n      tag_133\n      jumpi\n        /* \"#utility.yul\":3719:3737   */\n      tag_134\n      tag_73\n      jump\t// in\n    tag_134:\n        /* \"#utility.yul\":3683:3739   */\n    tag_133:\n        /* \"#utility.yul\":3769:3773   */\n      0x20\n        /* \"#utility.yul\":3761:3767   */\n      dup3\n        /* \"#utility.yul\":3757:3774   */\n      mul\n        /* \"#utility.yul\":3749:3774   */\n      swap1\n      pop\n        /* \"#utility.yul\":3829:3833   */\n      0x20\n        /* \"#utility.yul\":3823:3827   */\n      dup2\n        /* \"#utility.yul\":3819:3834   */\n      add\n        /* \"#utility.yul\":3811:3834   */\n      swap1\n      pop\n        /* \"#utility.yul\":3531:3841   */\n      swap2\n      swap1\n      pop\n      jump\t// out\n        /* \"#utility.yul\":3863:4570   */\n    tag_83:\n        /* \"#utility.yul\":3958:3963   */\n      0x00\n        /* \"#utility.yul\":3983:4063   */\n      tag_136\n        /* \"#utility.yul\":3999:4062   */\n      tag_137\n        /* \"#utility.yul\":4055:4061   */\n      dup5\n        /* \"#utility.yul\":3999:4062   */\n      tag_82\n      jump\t// in\n    tag_137:\n        /* \"#utility.yul\":3983:4063   */\n      tag_75\n      jump\t// in\n    tag_136:\n        /* \"#utility.yul\":3974:4063   */\n      swap1\n      pop\n        /* \"#utility.yul\":4083:4088   */\n      dup1\n        /* \"#utility.yul\":4112:4118   */\n      dup4\n        /* \"#utility.yul\":4105:4110   */\n      dup3\n        /* \"#utility.yul\":4098:4119   */\n      mstore\n        /* \"#utility.yul\":4146:4150   */\n      0x20\n        /* \"#utility.yul\":4139:4144   */\n      dup3\n        /* \"#utility.yul\":4135:4151   */\n      add\n        /* \"#utility.yul\":4128:4151   */\n      swap1\n      pop\n        /* \"#utility.yul\":4199:4203   */\n      0x20\n        /* \"#utility.yul\":4191:4197   */\n      dup5\n        /* \"#utility.yul\":4187:4204   */\n      mul\n        /* \"#utility.yul\":4179:4185   */\n      dup4\n        /* \"#utility.yul\":4175:4205   */\n      add\n        /* \"#utility.yul\":4228:4231   */\n      dup6\n        /* \"#utility.yul\":4220:4226   */\n      dup2\n        /* \"#utility.yul\":4217:4232   */\n      gt\n        /* \"#utility.yul\":4214:4336   */\n      iszero\n      tag_138\n      jumpi\n        /* \"#utility.yul\":4247:4326   */\n      tag_139\n      tag_77\n      jump\t// in\n    tag_139:\n        /* \"#utility.yul\":4214:4336   */\n    tag_138:\n        /* \"#utility.yul\":4362:4368   */\n      dup4\n        /* \"#utility.yul\":4345:4564   */\n    tag_140:\n        /* \"#utility.yul\":4379:4385   */\n      dup2\n        /* \"#utility.yul\":4374:4377   */\n      dup2\n        /* \"#utility.yul\":4371:4386   */\n      lt\n        /* \"#utility.yul\":4345:4564   */\n      iszero\n      tag_142\n      jumpi\n        /* \"#utility.yul\":4454:4457   */\n      dup1\n        /* \"#utility.yul\":4483:4519   */\n      tag_143\n        /* \"#utility.yul\":4515:4518   */\n      dup9\n        /* \"#utility.yul\":4503:4513   */\n      dup3\n        /* \"#utility.yul\":4483:4519   */\n      tag_67\n      jump\t// in\n    tag_143:\n        /* \"#utility.yul\":4478:4481   */\n      dup5\n        /* \"#utility.yul\":4471:4520   */\n      mstore\n        /* \"#utility.yul\":4549:4553   */\n      0x20\n        /* \"#utility.yul\":4544:4547   */\n      dup5\n        /* \"#utility.yul\":4540:4554   */\n      add\n        /* \"#utility.yul\":4533:4554   */\n      swap4\n      pop\n        /* \"#utility.yul\":4421:4564   */\n      pop\n        /* \"#utility.yul\":4405:4409   */\n      0x20\n        /* \"#utility.yul\":4400:4403   */\n      dup2\n        /* \"#utility.yul\":4396:4410   */\n      add\n        /* \"#utility.yul\":4389:4410   */\n      swap1\n      pop\n        /* \"#utility.yul\":4345:4564   */\n      jump(tag_140)\n    tag_142:\n        /* \"#utility.yul\":4349:4370   */\n      pop\n        /* \"#utility.yul\":3964:4570   */\n      pop\n      pop\n        /* \"#utility.yul\":3863:4570   */\n      swap4\n      swap3\n      pop\n      pop\n      pop\n      jump\t// out\n        /* \"#utility.yul\":4592:4960   */\n    tag_84:\n        /* \"#utility.yul\":4662:4667   */\n      0x00\n        /* \"#utility.yul\":4711:4714   */\n      dup3\n        /* \"#utility.yul\":4704:4708   */\n      0x1f\n        /* \"#utility.yul\":4696:4702   */\n      dup4\n        /* \"#utility.yul\":4692:4709   */\n      add\n        /* \"#utility.yul\":4688:4715   */\n      slt\n        /* \"#utility.yul\":4678:4800   */\n      tag_145\n      jumpi\n        /* \"#utility.yul\":4719:4798   */\n      tag_146\n      tag_71\n      jump\t// in\n    tag_146:\n        /* \"#utility.yul\":4678:4800   */\n    tag_145:\n        /* \"#utility.yul\":4836:4842   */\n      dup2\n        /* \"#utility.yul\":4823:4843   */\n      calldataload\n        /* \"#utility.yul\":4861:4954   */\n      tag_147\n        /* \"#utility.yul\":4950:4953   */\n      dup5\n        /* \"#utility.yul\":4942:4948   */\n      dup3\n        /* \"#utility.yul\":4935:4939   */\n      0x20\n        /* \"#utility.yul\":4927:4933   */\n      dup7\n        /* \"#utility.yul\":4923:4940   */\n      add\n        /* \"#utility.yul\":4861:4954   */\n      tag_83\n      jump\t// in\n    tag_147:\n        /* \"#utility.yul\":4852:4954   */\n      swap2\n      pop\n        /* \"#utility.yul\":4668:4960   */\n      pop\n        /* \"#utility.yul\":4592:4960   */\n      swap3\n      swap2\n      pop\n      pop\n      jump\t// out\n        /* \"#utility.yul\":5018:5790   */\n    tag_85:\n        /* \"#utility.yul\":5099:5104   */\n      0x00\n        /* \"#utility.yul\":5143:5147   */\n      0x40\n        /* \"#utility.yul\":5131:5140   */\n      dup3\n        /* \"#utility.yul\":5126:5129   */\n      dup5\n        /* \"#utility.yul\":5122:5141   */\n      sub\n        /* \"#utility.yul\":5118:5148   */\n      slt\n        /* \"#utility.yul\":5115:5232   */\n      iszero\n      tag_149\n      jumpi\n        /* \"#utility.yul\":5151:5230   */\n      tag_150\n      tag_78\n      jump\t// in\n    tag_150:\n        /* \"#utility.yul\":5115:5232   */\n    tag_149:\n        /* \"#utility.yul\":5250:5271   */\n      tag_151\n        /* \"#utility.yul\":5266:5270   */\n      0x40\n        /* \"#utility.yul\":5250:5271   */\n      tag_75\n      jump\t// in\n    tag_151:\n        /* \"#utility.yul\":5241:5271   */\n      swap1\n      pop\n        /* \"#utility.yul\":5332:5333   */\n      0x00\n        /* \"#utility.yul\":5372:5421   */\n      tag_152\n        /* \"#utility.yul\":5417:5420   */\n      dup5\n        /* \"#utility.yul\":5408:5414   */\n      dup3\n        /* \"#utility.yul\":5397:5406   */\n      dup6\n        /* \"#utility.yul\":5393:5415   */\n      add\n        /* \"#utility.yul\":5372:5421   */\n      tag_81\n      jump\t// in\n    tag_152:\n        /* \"#utility.yul\":5365:5369   */\n      0x00\n        /* \"#utility.yul\":5358:5363   */\n      dup4\n        /* \"#utility.yul\":5354:5370   */\n      add\n        /* \"#utility.yul\":5347:5422   */\n      mstore\n        /* \"#utility.yul\":5281:5433   */\n      pop\n        /* \"#utility.yul\":5525:5527   */\n      0x20\n        /* \"#utility.yul\":5514:5523   */\n      dup3\n        /* \"#utility.yul\":5510:5528   */\n      add\n        /* \"#utility.yul\":5497:5529   */\n      calldataload\n        /* \"#utility.yul\":5556:5574   */\n      0xffffffffffffffff\n        /* \"#utility.yul\":5548:5554   */\n      dup2\n        /* \"#utility.yul\":5545:5575   */\n      gt\n        /* \"#utility.yul\":5542:5659   */\n      iszero\n      tag_153\n      jumpi\n        /* \"#utility.yul\":5578:5657   */\n      tag_154\n      tag_79\n      jump\t// in\n    tag_154:\n        /* \"#utility.yul\":5542:5659   */\n    tag_153:\n        /* \"#utility.yul\":5698:5771   */\n      tag_155\n        /* \"#utility.yul\":5767:5770   */\n      dup5\n        /* \"#utility.yul\":5758:5764   */\n      dup3\n        /* \"#utility.yul\":5747:5756   */\n      dup6\n        /* \"#utility.yul\":5743:5765   */\n      add\n        /* \"#utility.yul\":5698:5771   */\n      tag_84\n      jump\t// in\n    tag_155:\n        /* \"#utility.yul\":5691:5695   */\n      0x20\n        /* \"#utility.yul\":5684:5689   */\n      dup4\n        /* \"#utility.yul\":5680:5696   */\n      add\n        /* \"#utility.yul\":5673:5772   */\n      mstore\n        /* \"#utility.yul\":5443:5783   */\n      pop\n        /* \"#utility.yul\":5018:5790   */\n      swap3\n      swap2\n      pop\n      pop\n      jump\t// out\n        /* \"#utility.yul\":5850:6861   */\n    tag_86:\n        /* \"#utility.yul\":5978:5983   */\n      0x00\n        /* \"#utility.yul\":6003:6116   */\n      tag_157\n        /* \"#utility.yul\":6019:6115   */\n      tag_158\n        /* \"#utility.yul\":6108:6114   */\n      dup5\n        /* \"#utility.yul\":6019:6115   */\n      tag_76\n      jump\t// in\n    tag_158:\n        /* \"#utility.yul\":6003:6116   */\n      tag_75\n      jump\t// in\n    tag_157:\n        /* \"#utility.yul\":5994:6116   */\n      swap1\n      pop\n        /* \"#utility.yul\":6136:6141   */\n      dup1\n        /* \"#utility.yul\":6165:6171   */\n      dup4\n        /* \"#utility.yul\":6158:6163   */\n      dup3\n        /* \"#utility.yul\":6151:6172   */\n      mstore\n        /* \"#utility.yul\":6199:6203   */\n      0x20\n        /* \"#utility.yul\":6192:6197   */\n      dup3\n        /* \"#utility.yul\":6188:6204   */\n      add\n        /* \"#utility.yul\":6181:6204   */\n      swap1\n      pop\n        /* \"#utility.yul\":6252:6256   */\n      0x20\n        /* \"#utility.yul\":6244:6250   */\n      dup5\n        /* \"#utility.yul\":6240:6257   */\n      mul\n        /* \"#utility.yul\":6232:6238   */\n      dup4\n        /* \"#utility.yul\":6228:6258   */\n      add\n        /* \"#utility.yul\":6281:6284   */\n      dup6\n        /* \"#utility.yul\":6273:6279   */\n      dup2\n        /* \"#utility.yul\":6270:6285   */\n      gt\n        /* \"#utility.yul\":6267:6389   */\n      iszero\n      tag_159\n      jumpi\n        /* \"#utility.yul\":6300:6379   */\n      tag_160\n      tag_77\n      jump\t// in\n    tag_160:\n        /* \"#utility.yul\":6267:6389   */\n    tag_159:\n        /* \"#utility.yul\":6415:6421   */\n      dup4\n        /* \"#utility.yul\":6398:6855   */\n    tag_161:\n        /* \"#utility.yul\":6432:6438   */\n      dup2\n        /* \"#utility.yul\":6427:6430   */\n      dup2\n        /* \"#utility.yul\":6424:6439   */\n      lt\n        /* \"#utility.yul\":6398:6855   */\n      iszero\n      tag_163\n      jumpi\n        /* \"#utility.yul\":6521:6524   */\n      dup1\n        /* \"#utility.yul\":6508:6525   */\n      calldataload\n        /* \"#utility.yul\":6557:6575   */\n      0xffffffffffffffff\n        /* \"#utility.yul\":6544:6555   */\n      dup2\n        /* \"#utility.yul\":6541:6576   */\n      gt\n        /* \"#utility.yul\":6538:6660   */\n      iszero\n      tag_164\n      jumpi\n        /* \"#utility.yul\":6579:6658   */\n      tag_165\n      tag_71\n      jump\t// in\n    tag_165:\n        /* \"#utility.yul\":6538:6660   */\n    tag_164:\n        /* \"#utility.yul\":6703:6714   */\n      dup1\n        /* \"#utility.yul\":6695:6701   */\n      dup7\n        /* \"#utility.yul\":6691:6715   */\n      add\n        /* \"#utility.yul\":6741:6810   */\n      tag_166\n        /* \"#utility.yul\":6806:6809   */\n      dup10\n        /* \"#utility.yul\":6794:6804   */\n      dup3\n        /* \"#utility.yul\":6741:6810   */\n      tag_85\n      jump\t// in\n    tag_166:\n        /* \"#utility.yul\":6736:6739   */\n      dup6\n        /* \"#utility.yul\":6729:6811   */\n      mstore\n        /* \"#utility.yul\":6840:6844   */\n      0x20\n        /* \"#utility.yul\":6835:6838   */\n      dup6\n        /* \"#utility.yul\":6831:6845   */\n      add\n        /* \"#utility.yul\":6824:6845   */\n      swap5\n      pop\n        /* \"#utility.yul\":6474:6855   */\n      pop\n      pop\n        /* \"#utility.yul\":6458:6462   */\n      0x20\n        /* \"#utility.yul\":6453:6456   */\n      dup2\n        /* \"#utility.yul\":6449:6463   */\n      add\n        /* \"#utility.yul\":6442:6463   */\n      swap1\n      pop\n        /* \"#utility.yul\":6398:6855   */\n      jump(tag_161)\n    tag_163:\n        /* \"#utility.yul\":6402:6423   */\n      pop\n        /* \"#utility.yul\":5984:6861   */\n      pop\n      pop\n        /* \"#utility.yul\":5850:6861   */\n      swap4\n      swap3\n      pop\n      pop\n      pop\n      jump\t// out\n        /* \"#utility.yul\":6921:7355   */\n    tag_87:\n        /* \"#utility.yul\":7024:7029   */\n      0x00\n        /* \"#utility.yul\":7073:7076   */\n      dup3\n        /* \"#utility.yul\":7066:7070   */\n      0x1f\n        /* \"#utility.yul\":7058:7064   */\n      dup4\n        /* \"#utility.yul\":7054:7071   */\n      add\n        /* \"#utility.yul\":7050:7077   */\n      slt\n        /* \"#utility.yul\":7040:7162   */\n      tag_168\n      jumpi\n        /* \"#utility.yul\":7081:7160   */\n      tag_169\n      tag_71\n      jump\t// in\n    tag_169:\n        /* \"#utility.yul\":7040:7162   */\n    tag_168:\n        /* \"#utility.yul\":7198:7204   */\n      dup2\n        /* \"#utility.yul\":7185:7205   */\n      calldataload\n        /* \"#utility.yul\":7223:7349   */\n      tag_170\n        /* \"#utility.yul\":7345:7348   */\n      dup5\n        /* \"#utility.yul\":7337:7343   */\n      dup3\n        /* \"#utility.yul\":7330:7334   */\n      0x20\n        /* \"#utility.yul\":7322:7328   */\n      dup7\n        /* \"#utility.yul\":7318:7335   */\n      add\n        /* \"#utility.yul\":7223:7349   */\n      tag_86\n      jump\t// in\n    tag_170:\n        /* \"#utility.yul\":7214:7349   */\n      swap2\n      pop\n        /* \"#utility.yul\":7030:7355   */\n      pop\n        /* \"#utility.yul\":6921:7355   */\n      swap3\n      swap2\n      pop\n      pop\n      jump\t// out\n        /* \"#utility.yul\":7361:7964   */\n    tag_13:\n        /* \"#utility.yul\":7477:7483   */\n      0x00\n        /* \"#utility.yul\":7526:7528   */\n      0x20\n        /* \"#utility.yul\":7514:7523   */\n      dup3\n        /* \"#utility.yul\":7505:7512   */\n      dup5\n        /* \"#utility.yul\":7501:7524   */\n      sub\n        /* \"#utility.yul\":7497:7529   */\n      slt\n        /* \"#utility.yul\":7494:7613   */\n      iszero\n      tag_172\n      jumpi\n        /* \"#utility.yul\":7532:7611   */\n      tag_173\n      tag_63\n      jump\t// in\n    tag_173:\n        /* \"#utility.yul\":7494:7613   */\n    tag_172:\n        /* \"#utility.yul\":7680:7681   */\n      0x00\n        /* \"#utility.yul\":7669:7678   */\n      dup3\n        /* \"#utility.yul\":7665:7682   */\n      add\n        /* \"#utility.yul\":7652:7683   */\n      calldataload\n        /* \"#utility.yul\":7710:7728   */\n      0xffffffffffffffff\n        /* \"#utility.yul\":7702:7708   */\n      dup2\n        /* \"#utility.yul\":7699:7729   */\n      gt\n        /* \"#utility.yul\":7696:7813   */\n      iszero\n      tag_174\n      jumpi\n        /* \"#utility.yul\":7732:7811   */\n      tag_175\n      tag_64\n      jump\t// in\n    tag_175:\n        /* \"#utility.yul\":7696:7813   */\n    tag_174:\n        /* \"#utility.yul\":7837:7947   */\n      tag_176\n        /* \"#utility.yul\":7939:7946   */\n      dup5\n        /* \"#utility.yul\":7930:7936   */\n      dup3\n        /* \"#utility.yul\":7919:7928   */\n      dup6\n        /* \"#utility.yul\":7915:7937   */\n      add\n        /* \"#utility.yul\":7837:7947   */\n      tag_87\n      jump\t// in\n    tag_176:\n        /* \"#utility.yul\":7827:7947   */\n      swap2\n      pop\n        /* \"#utility.yul\":7623:7957   */\n      pop\n        /* \"#utility.yul\":7361:7964   */\n      swap3\n      swap2\n      pop\n      pop\n      jump\t// out\n        /* \"#utility.yul\":7970:8150   */\n    tag_25:\n        /* \"#utility.yul\":8018:8095   */\n      0x4e487b7100000000000000000000000000000000000000000000000000000000\n        /* \"#utility.yul\":8015:8016   */\n      0x00\n        /* \"#utility.yul\":8008:8096   */\n      mstore\n        /* \"#utility.yul\":8115:8119   */\n      0x32\n        /* \"#utility.yul\":8112:8113   */\n      0x04\n        /* \"#utility.yul\":8105:8120   */\n      mstore\n        /* \"#utility.yul\":8139:8143   */\n      0x24\n        /* \"#utility.yul\":8136:8137   */\n      0x00\n        /* \"#utility.yul\":8129:8144   */\n      revert\n        /* \"#utility.yul\":8156:8274   */\n    tag_88:\n        /* \"#utility.yul\":8243:8267   */\n      tag_179\n        /* \"#utility.yul\":8261:8266   */\n      dup2\n        /* \"#utility.yul\":8243:8267   */\n      tag_69\n      jump\t// in\n    tag_179:\n        /* \"#utility.yul\":8238:8241   */\n      dup3\n        /* \"#utility.yul\":8231:8268   */\n      mstore\n        /* \"#utility.yul\":8156:8274   */\n      pop\n      pop\n      jump\t// out\n        /* \"#utility.yul\":8280:8395   */\n    tag_89:\n        /* \"#utility.yul\":8365:8388   */\n      tag_181\n        /* \"#utility.yul\":8382:8387   */\n      dup2\n        /* \"#utility.yul\":8365:8388   */\n      tag_65\n      jump\t// in\n    tag_181:\n        /* \"#utility.yul\":8360:8363   */\n      dup3\n        /* \"#utility.yul\":8353:8389   */\n      mstore\n        /* \"#utility.yul\":8280:8395   */\n      pop\n      pop\n      jump\t// out\n        /* \"#utility.yul\":8401:8839   */\n    tag_42:\n        /* \"#utility.yul\":8548:8552   */\n      0x00\n        /* \"#utility.yul\":8586:8588   */\n      0x60\n        /* \"#utility.yul\":8575:8584   */\n      dup3\n        /* \"#utility.yul\":8571:8589   */\n      add\n        /* \"#utility.yul\":8563:8589   */\n      swap1\n      pop\n        /* \"#utility.yul\":8599:8670   */\n      tag_183\n        /* \"#utility.yul\":8667:8668   */\n      0x00\n        /* \"#utility.yul\":8656:8665   */\n      dup4\n        /* \"#utility.yul\":8652:8669   */\n      add\n        /* \"#utility.yul\":8643:8649   */\n      dup7\n        /* \"#utility.yul\":8599:8670   */\n      tag_88\n      jump\t// in\n    tag_183:\n        /* \"#utility.yul\":8680:8752   */\n      tag_184\n        /* \"#utility.yul\":8748:8750   */\n      0x20\n        /* \"#utility.yul\":8737:8746   */\n      dup4\n        /* \"#utility.yul\":8733:8751   */\n      add\n        /* \"#utility.yul\":8724:8730   */\n      dup6\n        /* \"#utility.yul\":8680:8752   */\n      tag_88\n      jump\t// in\n    tag_184:\n        /* \"#utility.yul\":8762:8832   */\n      tag_185\n        /* \"#utility.yul\":8828:8830   */\n      0x40\n        /* \"#utility.yul\":8817:8826   */\n      dup4\n        /* \"#utility.yul\":8813:8831   */\n      add\n        /* \"#utility.yul\":8804:8810   */\n      dup5\n        /* \"#utility.yul\":8762:8832   */\n      tag_89\n      jump\t// in\n    tag_185:\n        /* \"#utility.yul\":8401:8839   */\n      swap5\n      swap4\n      pop\n      pop\n      pop\n      pop\n      jump\t// out\n\n    auxdata: 0xa264697066735822122020c138357e7bb562d6bc4d698e26ac096c94454cef9ea9b05fd97742b7421fc364736f6c63430008170033\n}\n",
				"bytecode": {
					"linkReferences": {},
					"object": "610abe61004e600b8282823980515f1a607314610042577f4e487b71000000000000000000000000000000000000000000000000000000005f525f60045260245ffd5b305f52607381538281f3fe730000000000000000000000000000000000000000301460806040526004361061003f575f3560e01c806320e63d2a14610043578063a8f6435214610073575b5f80fd5b61005d60048036038101906100589190610675565b61009b565b60405161006a91906106df565b60405180910390f35b81801561007e575f80fd5b50610099600480360381019061009491906109c1565b610157565b005b5f6100e16040518060400160405280600d81526020017f44796e616d6963526f757465720000000000000000000000000000000000000081525080519060200120610425565b5f015f837bffffffffffffffffffffffffffffffffffffffffffffffffffffffff19167bffffffffffffffffffffffffffffffffffffffffffffffffffffffff191681526020019081526020015f205f9054906101000a900473ffffffffffffffffffffffffffffffffffffffff169050919050565b5f61019d6040518060400160405280600d81526020017f44796e616d6963526f757465720000000000000000000000000000000000000081525080519060200120610425565b90505f5b8251811015610420575f8382815181106101be576101bd610a08565b5b602002602001015190505f5b816020015151811015610413575f826020015182815181106101ef576101ee610a08565b5b602002602001015190505f835f015190506102098261042e565b15801561024257505f73ffffffffffffffffffffffffffffffffffffffff168173ffffffffffffffffffffffffffffffffffffffff1614155b15610293578560010182908060018154018082558091505060019003905f5260205f2090600891828204019190066004029091909190916101000a81548163ffffffff021916908360e01c02179055505b61029c81610524565b1580156102d557505f73ffffffffffffffffffffffffffffffffffffffff168173ffffffffffffffffffffffffffffffffffffffff1614155b1561033d578560020181908060018154018082558091505060019003905f5260205f20015f9091909190916101000a81548173ffffffffffffffffffffffffffffffffffffffff021916908373ffffffffffffffffffffffffffffffffffffffff1602179055505b80865f015f847bffffffffffffffffffffffffffffffffffffffffffffffffffffffff19167bffffffffffffffffffffffffffffffffffffffffffffffffffffffff191681526020019081526020015f205f6101000a81548173ffffffffffffffffffffffffffffffffffffffff021916908373ffffffffffffffffffffffffffffffffffffffff1602179055507f314760e63cd5315a4cf28c679a1885b84249533d4156a7ebd02675626493a2553382846040516103fe93929190610a53565b60405180910390a150508060010190506101ca565b50508060010190506101a1565b505050565b5f819050919050565b5f806104756040518060400160405280600d81526020017f44796e616d6963526f757465720000000000000000000000000000000000000081525080519060200120610425565b90505f5b81600101805490508110156105195781600101818154811061049e5761049d610a08565b5b905f5260205f2090600891828204019190066004029054906101000a900460e01b7bffffffffffffffffffffffffffffffffffffffffffffffffffffffff1916847bffffffffffffffffffffffffffffffffffffffffffffffffffffffff19160361050e5760019250505061051f565b806001019050610479565b505f9150505b919050565b5f8061056b6040518060400160405280600d81526020017f44796e616d6963526f757465720000000000000000000000000000000000000081525080519060200120610425565b90505f5b81600201805490508110156106045781600201818154811061059457610593610a08565b5b905f5260205f20015f9054906101000a900473ffffffffffffffffffffffffffffffffffffffff1673ffffffffffffffffffffffffffffffffffffffff168473ffffffffffffffffffffffffffffffffffffffff16036105f95760019250505061060a565b80600101905061056f565b505f9150505b919050565b5f604051905090565b5f80fd5b5f80fd5b5f7fffffffff0000000000000000000000000000000000000000000000000000000082169050919050565b61065481610620565b811461065e575f80fd5b50565b5f8135905061066f8161064b565b92915050565b5f6020828403121561068a57610689610618565b5b5f61069784828501610661565b91505092915050565b5f73ffffffffffffffffffffffffffffffffffffffff82169050919050565b5f6106c9826106a0565b9050919050565b6106d9816106bf565b82525050565b5f6020820190506106f25f8301846106d0565b92915050565b5f80fd5b5f601f19601f8301169050919050565b7f4e487b71000000000000000000000000000000000000000000000000000000005f52604160045260245ffd5b610742826106fc565b810181811067ffffffffffffffff821117156107615761076061070c565b5b80604052505050565b5f61077361060f565b905061077f8282610739565b919050565b5f67ffffffffffffffff82111561079e5761079d61070c565b5b602082029050602081019050919050565b5f80fd5b5f80fd5b5f80fd5b6107c4816106bf565b81146107ce575f80fd5b50565b5f813590506107df816107bb565b92915050565b5f67ffffffffffffffff8211156107ff576107fe61070c565b5b602082029050602081019050919050565b5f61082261081d846107e5565b61076a565b90508083825260208201905060208402830185811115610845576108446107af565b5b835b8181101561086e578061085a8882610661565b845260208401935050602081019050610847565b5050509392505050565b5f82601f83011261088c5761088b6106f8565b5b813561089c848260208601610810565b91505092915050565b5f604082840312156108ba576108b96107b3565b5b6108c4604061076a565b90505f6108d3848285016107d1565b5f83015250602082013567ffffffffffffffff8111156108f6576108f56107b7565b5b61090284828501610878565b60208301525092915050565b5f61092061091b84610784565b61076a565b90508083825260208201905060208402830185811115610943576109426107af565b5b835b8181101561098a57803567ffffffffffffffff811115610968576109676106f8565b5b80860161097589826108a5565b85526020850194505050602081019050610945565b5050509392505050565b5f82601f8301126109a8576109a76106f8565b5b81356109b884826020860161090e565b91505092915050565b5f602082840312156109d6576109d5610618565b5b5f82013567ffffffffffffffff8111156109f3576109f261061c565b5b6109ff84828501610994565b91505092915050565b7f4e487b71000000000000000000000000000000000000000000000000000000005f52603260045260245ffd5b610a3e816106bf565b82525050565b610a4d81610620565b82525050565b5f606082019050610a665f830186610a35565b610a736020830185610a35565b610a806040830184610a44565b94935050505056fea264697066735822122020c138357e7bb562d6bc4d698e26ac096c94454cef9ea9b05fd97742b7421fc364736f6c63430008170033",
					"opcodes": "PUSH2 0xABE PUSH2 0x4E PUSH1 0xB DUP3 DUP3 DUP3 CODECOPY DUP1 MLOAD PUSH0 BYTE PUSH1 0x73 EQ PUSH2 0x42 JUMPI PUSH32 0x4E487B7100000000000000000000000000000000000000000000000000000000 PUSH0 MSTORE PUSH0 PUSH1 0x4 MSTORE PUSH1 0x24 PUSH0 REVERT JUMPDEST ADDRESS PUSH0 MSTORE PUSH1 0x73 DUP2 MSTORE8 DUP3 DUP2 RETURN INVALID PUSH20 0x0 ADDRESS EQ PUSH1 0x80 PUSH1 0x40 MSTORE PUSH1 0x4 CALLDATASIZE LT PUSH2 0x3F JUMPI PUSH0 CALLDATALOAD PUSH1 0xE0 SHR DUP1 PUSH4 0x20E63D2A EQ PUSH2 0x43 JUMPI DUP1 PUSH4 0xA8F64352 EQ PUSH2 0x73 JUMPI JUMPDEST PUSH0 DUP1 REVERT JUMPDEST PUSH2 0x5D PUSH1 0x4 DUP1 CALLDATASIZE SUB DUP2 ADD SWAP1 PUSH2 0x58 SWAP2 SWAP1 PUSH2 0x675 JUMP JUMPDEST PUSH2 0x9B JUMP JUMPDEST PUSH1 0x40 MLOAD PUSH2 0x6A SWAP2 SWAP1 PUSH2 0x6DF JUMP JUMPDEST PUSH1 0x40 MLOAD DUP1 SWAP2 SUB SWAP1 RETURN JUMPDEST DUP2 DUP1 ISZERO PUSH2 0x7E JUMPI PUSH0 DUP1 REVERT JUMPDEST POP PUSH2 0x99 PUSH1 0x4 DUP1 CALLDATASIZE SUB DUP2 ADD SWAP1 PUSH2 0x94 SWAP2 SWAP1 PUSH2 0x9C1 JUMP JUMPDEST PUSH2 0x157 JUMP JUMPDEST STOP JUMPDEST PUSH0 PUSH2 0xE1 PUSH1 0x40 MLOAD DUP1 PUSH1 0x40 ADD PUSH1 0x40 MSTORE DUP1 PUSH1 0xD DUP2 MSTORE PUSH1 0x20 ADD PUSH32 0x44796E616D6963526F7574657200000000000000000000000000000000000000 DUP2 MSTORE POP DUP1 MLOAD SWAP1 PUSH1 0x20 ADD KECCAK256 PUSH2 0x425 JUMP JUMPDEST PUSH0 ADD PUSH0 DUP4 PUSH28 0xFFFFFFFFFFFFFFFFFFFFFFFFFFFFFFFFFFFFFFFFFFFFFFFFFFFFFFFF NOT AND PUSH28 0xFFFFFFFFFFFFFFFFFFFFFFFFFFFFFFFFFFFFFFFFFFFFFFFFFFFFFFFF NOT AND DUP2 MSTORE PUSH1 0x20 ADD SWAP1 DUP2 MSTORE PUSH1 0x20 ADD PUSH0 KECCAK256 PUSH0 SWAP1 SLOAD SWAP1 PUSH2 0x100 EXP SWAP1 DIV PUSH20 0xFFFFFFFFFFFFFFFFFFFFFFFFFFFFFFFFFFFFFFFF AND SWAP1 POP SWAP2 SWAP1 POP JUMP JUMPDEST PUSH0 PUSH2 0x19D PUSH1 0x40 MLOAD DUP1 PUSH1 0x40 ADD PUSH1 0x40 MSTORE DUP1 PUSH1 0xD DUP2 MSTORE PUSH1 0x20 ADD PUSH32 0x44796E616D6963526F7574657200000000000000000000000000000000000000 DUP2 MSTORE POP DUP1 MLOAD SWAP1 PUSH1 0x20 ADD KECCAK256 PUSH2 0x425 JUMP JUMPDEST SWAP1 POP PUSH0 JUMPDEST DUP3 MLOAD DUP2 LT ISZERO PUSH2 0x420 JUMPI PUSH0 DUP4 DUP3 DUP2 MLOAD DUP2 LT PUSH2 0x1BE JUMPI PUSH2 0x1BD PUSH2 0xA08 JUMP JUMPDEST JUMPDEST PUSH1 0x20 MUL PUSH1 0x20 ADD ADD MLOAD SWAP1 POP PUSH0 JUMPDEST DUP2 PUSH1 0x20 ADD MLOAD MLOAD DUP2 LT ISZERO PUSH2 0x413 JUMPI PUSH0 DUP3 PUSH1 0x20 ADD MLOAD DUP3 DUP2 MLOAD DUP2 LT PUSH2 0x1EF JUMPI PUSH2 0x1EE PUSH2 0xA08 JUMP JUMPDEST JUMPDEST PUSH1 0x20 MUL PUSH1 0x20 ADD ADD MLOAD SWAP1 POP PUSH0 DUP4 PUSH0 ADD MLOAD SWAP1 POP PUSH2 0x209 DUP3 PUSH2 0x42E JUMP JUMPDEST ISZERO DUP1 ISZERO PUSH2 0x242 JUMPI POP PUSH0 PUSH20 0xFFFFFFFFFFFFFFFFFFFFFFFFFFFFFFFFFFFFFFFF AND DUP2 PUSH20 0xFFFFFFFFFFFFFFFFFFFFFFFFFFFFFFFFFFFFFFFF AND EQ ISZERO JUMPDEST ISZERO PUSH2 0x293 JUMPI DUP6 PUSH1 0x1 ADD DUP3 SWAP1 DUP1 PUSH1 0x1 DUP2 SLOAD ADD DUP1 DUP3 SSTORE DUP1 SWAP2 POP POP PUSH1 0x1 SWAP1 SUB SWAP1 PUSH0 MSTORE PUSH1 0x20 PUSH0 KECCAK256 SWAP1 PUSH1 0x8 SWAP2 DUP3 DUP3 DIV ADD SWAP2 SWAP1 MOD PUSH1 0x4 MUL SWAP1 SWAP2 SWAP1 SWAP2 SWAP1 SWAP2 PUSH2 0x100 EXP DUP2 SLOAD DUP2 PUSH4 0xFFFFFFFF MUL NOT AND SWAP1 DUP4 PUSH1 0xE0 SHR MUL OR SWAP1 SSTORE POP JUMPDEST PUSH2 0x29C DUP2 PUSH2 0x524 JUMP JUMPDEST ISZERO DUP1 ISZERO PUSH2 0x2D5 JUMPI POP PUSH0 PUSH20 0xFFFFFFFFFFFFFFFFFFFFFFFFFFFFFFFFFFFFFFFF AND DUP2 PUSH20 0xFFFFFFFFFFFFFFFFFFFFFFFFFFFFFFFFFFFFFFFF AND EQ ISZERO JUMPDEST ISZERO PUSH2 0x33D JUMPI DUP6 PUSH1 0x2 ADD DUP2 SWAP1 DUP1 PUSH1 0x1 DUP2 SLOAD ADD DUP1 DUP3 SSTORE DUP1 SWAP2 POP POP PUSH1 0x1 SWAP1 SUB SWAP1 PUSH0 MSTORE PUSH1 0x20 PUSH0 KECCAK256 ADD PUSH0 SWAP1 SWAP2 SWAP1 SWAP2 SWAP1 SWAP2 PUSH2 0x100 EXP DUP2 SLOAD DUP2 PUSH20 0xFFFFFFFFFFFFFFFFFFFFFFFFFFFFFFFFFFFFFFFF MUL NOT AND SWAP1 DUP4 PUSH20 0xFFFFFFFFFFFFFFFFFFFFFFFFFFFFFFFFFFFFFFFF AND MUL OR SWAP1 SSTORE POP JUMPDEST DUP1 DUP7 PUSH0 ADD PUSH0 DUP5 PUSH28 0xFFFFFFFFFFFFFFFFFFFFFFFFFFFFFFFFFFFFFFFFFFFFFFFFFFFFFFFF NOT AND PUSH28 0xFFFFFFFFFFFFFFFFFFFFFFFFFFFFFFFFFFFFFFFFFFFFFFFFFFFFFFFF NOT AND DUP2 MSTORE PUSH1 0x20 ADD SWAP1 DUP2 MSTORE PUSH1 0x20 ADD PUSH0 KECCAK256 PUSH0 PUSH2 0x100 EXP DUP2 SLOAD DUP2 PUSH20 0xFFFFFFFFFFFFFFFFFFFFFFFFFFFFFFFFFFFFFFFF MUL NOT AND SWAP1 DUP4 PUSH20 0xFFFFFFFFFFFFFFFFFFFFFFFFFFFFFFFFFFFFFFFF AND MUL OR SWAP1 SSTORE POP PUSH32 0x314760E63CD5315A4CF28C679A1885B84249533D4156A7EBD02675626493A255 CALLER DUP3 DUP5 PUSH1 0x40 MLOAD PUSH2 0x3FE SWAP4 SWAP3 SWAP2 SWAP1 PUSH2 0xA53 JUMP JUMPDEST PUSH1 0x40 MLOAD DUP1 SWAP2 SUB SWAP1 LOG1 POP POP DUP1 PUSH1 0x1 ADD SWAP1 POP PUSH2 0x1CA JUMP JUMPDEST POP POP DUP1 PUSH1 0x1 ADD SWAP1 POP PUSH2 0x1A1 JUMP JUMPDEST POP POP POP JUMP JUMPDEST PUSH0 DUP2 SWAP1 POP SWAP2 SWAP1 POP JUMP JUMPDEST PUSH0 DUP1 PUSH2 0x475 PUSH1 0x40 MLOAD DUP1 PUSH1 0x40 ADD PUSH1 0x40 MSTORE DUP1 PUSH1 0xD DUP2 MSTORE PUSH1 0x20 ADD PUSH32 0x44796E616D6963526F7574657200000000000000000000000000000000000000 DUP2 MSTORE POP DUP1 MLOAD SWAP1 PUSH1 0x20 ADD KECCAK256 PUSH2 0x425 JUMP JUMPDEST SWAP1 POP PUSH0 JUMPDEST DUP2 PUSH1 0x1 ADD DUP1 SLOAD SWAP1 POP DUP2 LT ISZERO PUSH2 0x519 JUMPI DUP2 PUSH1 0x1 ADD DUP2 DUP2 SLOAD DUP2 LT PUSH2 0x49E JUMPI PUSH2 0x49D PUSH2 0xA08 JUMP JUMPDEST JUMPDEST SWAP1 PUSH0 MSTORE PUSH1 0x20 PUSH0 KECCAK256 SWAP1 PUSH1 0x8 SWAP2 DUP3 DUP3 DIV ADD SWAP2 SWAP1 MOD PUSH1 0x4 MUL SWAP1 SLOAD SWAP1 PUSH2 0x100 EXP SWAP1 DIV PUSH1 0xE0 SHL PUSH28 0xFFFFFFFFFFFFFFFFFFFFFFFFFFFFFFFFFFFFFFFFFFFFFFFFFFFFFFFF NOT AND DUP5 PUSH28 0xFFFFFFFFFFFFFFFFFFFFFFFFFFFFFFFFFFFFFFFFFFFFFFFFFFFFFFFF NOT AND SUB PUSH2 0x50E JUMPI PUSH1 0x1 SWAP3 POP POP POP PUSH2 0x51F JUMP JUMPDEST DUP1 PUSH1 0x1 ADD SWAP1 POP PUSH2 0x479 JUMP JUMPDEST POP PUSH0 SWAP2 POP POP JUMPDEST SWAP2 SWAP1 POP JUMP JUMPDEST PUSH0 DUP1 PUSH2 0x56B PUSH1 0x40 MLOAD DUP1 PUSH1 0x40 ADD PUSH1 0x40 MSTORE DUP1 PUSH1 0xD DUP2 MSTORE PUSH1 0x20 ADD PUSH32 0x44796E616D6963526F7574657200000000000000000000000000000000000000 DUP2 MSTORE POP DUP1 MLOAD SWAP1 PUSH1 0x20 ADD KECCAK256 PUSH2 0x425 JUMP JUMPDEST SWAP1 POP PUSH0 JUMPDEST DUP2 PUSH1 0x2 ADD DUP1 SLOAD SWAP1 POP DUP2 LT ISZERO PUSH2 0x604 JUMPI DUP2 PUSH1 0x2 ADD DUP2 DUP2 SLOAD DUP2 LT PUSH2 0x594 JUMPI PUSH2 0x593 PUSH2 0xA08 JUMP JUMPDEST JUMPDEST SWAP1 PUSH0 MSTORE PUSH1 0x20 PUSH0 KECCAK256 ADD PUSH0 SWAP1 SLOAD SWAP1 PUSH2 0x100 EXP SWAP1 DIV PUSH20 0xFFFFFFFFFFFFFFFFFFFFFFFFFFFFFFFFFFFFFFFF AND PUSH20 0xFFFFFFFFFFFFFFFFFFFFFFFFFFFFFFFFFFFFFFFF AND DUP5 PUSH20 0xFFFFFFFFFFFFFFFFFFFFFFFFFFFFFFFFFFFFFFFF AND SUB PUSH2 0x5F9 JUMPI PUSH1 0x1 SWAP3 POP POP POP PUSH2 0x60A JUMP JUMPDEST DUP1 PUSH1 0x1 ADD SWAP1 POP PUSH2 0x56F JUMP JUMPDEST POP PUSH0 SWAP2 POP POP JUMPDEST SWAP2 SWAP1 POP JUMP JUMPDEST PUSH0 PUSH1 0x40 MLOAD SWAP1 POP SWAP1 JUMP JUMPDEST PUSH0 DUP1 REVERT JUMPDEST PUSH0 DUP1 REVERT JUMPDEST PUSH0 PUSH32 0xFFFFFFFF00000000000000000000000000000000000000000000000000000000 DUP3 AND SWAP1 POP SWAP2 SWAP1 POP JUMP JUMPDEST PUSH2 0x654 DUP2 PUSH2 0x620 JUMP JUMPDEST DUP2 EQ PUSH2 0x65E JUMPI PUSH0 DUP1 REVERT JUMPDEST POP JUMP JUMPDEST PUSH0 DUP2 CALLDATALOAD SWAP1 POP PUSH2 0x66F DUP2 PUSH2 0x64B JUMP JUMPDEST SWAP3 SWAP2 POP POP JUMP JUMPDEST PUSH0 PUSH1 0x20 DUP3 DUP5 SUB SLT ISZERO PUSH2 0x68A JUMPI PUSH2 0x689 PUSH2 0x618 JUMP JUMPDEST JUMPDEST PUSH0 PUSH2 0x697 DUP5 DUP3 DUP6 ADD PUSH2 0x661 JUMP JUMPDEST SWAP2 POP POP SWAP3 SWAP2 POP POP JUMP JUMPDEST PUSH0 PUSH20 0xFFFFFFFFFFFFFFFFFFFFFFFFFFFFFFFFFFFFFFFF DUP3 AND SWAP1 POP SWAP2 SWAP1 POP JUMP JUMPDEST PUSH0 PUSH2 0x6C9 DUP3 PUSH2 0x6A0 JUMP JUMPDEST SWAP1 POP SWAP2 SWAP1 POP JUMP JUMPDEST PUSH2 0x6D9 DUP2 PUSH2 0x6BF JUMP JUMPDEST DUP3 MSTORE POP POP JUMP JUMPDEST PUSH0 PUSH1 0x20 DUP3 ADD SWAP1 POP PUSH2 0x6F2 PUSH0 DUP4 ADD DUP5 PUSH2 0x6D0 JUMP JUMPDEST SWAP3 SWAP2 POP POP JUMP JUMPDEST PUSH0 DUP1 REVERT JUMPDEST PUSH0 PUSH1 0x1F NOT PUSH1 0x1F DUP4 ADD AND SWAP1 POP SWAP2 SWAP1 POP JUMP JUMPDEST PUSH32 0x4E487B7100000000000000000000000000000000000000000000000000000000 PUSH0 MSTORE PUSH1 0x41 PUSH1 0x4 MSTORE PUSH1 0x24 PUSH0 REVERT JUMPDEST PUSH2 0x742 DUP3 PUSH2 0x6FC JUMP JUMPDEST DUP2 ADD DUP2 DUP2 LT PUSH8 0xFFFFFFFFFFFFFFFF DUP3 GT OR ISZERO PUSH2 0x761 JUMPI PUSH2 0x760 PUSH2 0x70C JUMP JUMPDEST JUMPDEST DUP1 PUSH1 0x40 MSTORE POP POP POP JUMP JUMPDEST PUSH0 PUSH2 0x773 PUSH2 0x60F JUMP JUMPDEST SWAP1 POP PUSH2 0x77F DUP3 DUP3 PUSH2 0x739 JUMP JUMPDEST SWAP2 SWAP1 POP JUMP JUMPDEST PUSH0 PUSH8 0xFFFFFFFFFFFFFFFF DUP3 GT ISZERO PUSH2 0x79E JUMPI PUSH2 0x79D PUSH2 0x70C JUMP JUMPDEST JUMPDEST PUSH1 0x20 DUP3 MUL SWAP1 POP PUSH1 0x20 DUP2 ADD SWAP1 POP SWAP2 SWAP1 POP JUMP JUMPDEST PUSH0 DUP1 REVERT JUMPDEST PUSH0 DUP1 REVERT JUMPDEST PUSH0 DUP1 REVERT JUMPDEST PUSH2 0x7C4 DUP2 PUSH2 0x6BF JUMP JUMPDEST DUP2 EQ PUSH2 0x7CE JUMPI PUSH0 DUP1 REVERT JUMPDEST POP JUMP JUMPDEST PUSH0 DUP2 CALLDATALOAD SWAP1 POP PUSH2 0x7DF DUP2 PUSH2 0x7BB JUMP JUMPDEST SWAP3 SWAP2 POP POP JUMP JUMPDEST PUSH0 PUSH8 0xFFFFFFFFFFFFFFFF DUP3 GT ISZERO PUSH2 0x7FF JUMPI PUSH2 0x7FE PUSH2 0x70C JUMP JUMPDEST JUMPDEST PUSH1 0x20 DUP3 MUL SWAP1 POP PUSH1 0x20 DUP2 ADD SWAP1 POP SWAP2 SWAP1 POP JUMP JUMPDEST PUSH0 PUSH2 0x822 PUSH2 0x81D DUP5 PUSH2 0x7E5 JUMP JUMPDEST PUSH2 0x76A JUMP JUMPDEST SWAP1 POP DUP1 DUP4 DUP3 MSTORE PUSH1 0x20 DUP3 ADD SWAP1 POP PUSH1 0x20 DUP5 MUL DUP4 ADD DUP6 DUP2 GT ISZERO PUSH2 0x845 JUMPI PUSH2 0x844 PUSH2 0x7AF JUMP JUMPDEST JUMPDEST DUP4 JUMPDEST DUP2 DUP2 LT ISZERO PUSH2 0x86E JUMPI DUP1 PUSH2 0x85A DUP9 DUP3 PUSH2 0x661 JUMP JUMPDEST DUP5 MSTORE PUSH1 0x20 DUP5 ADD SWAP4 POP POP PUSH1 0x20 DUP2 ADD SWAP1 POP PUSH2 0x847 JUMP JUMPDEST POP POP POP SWAP4 SWAP3 POP POP POP JUMP JUMPDEST PUSH0 DUP3 PUSH1 0x1F DUP4 ADD SLT PUSH2 0x88C JUMPI PUSH2 0x88B PUSH2 0x6F8 JUMP JUMPDEST JUMPDEST DUP2 CALLDATALOAD PUSH2 0x89C DUP5 DUP3 PUSH1 0x20 DUP7 ADD PUSH2 0x810 JUMP JUMPDEST SWAP2 POP POP SWAP3 SWAP2 POP POP JUMP JUMPDEST PUSH0 PUSH1 0x40 DUP3 DUP5 SUB SLT ISZERO PUSH2 0x8BA JUMPI PUSH2 0x8B9 PUSH2 0x7B3 JUMP JUMPDEST JUMPDEST PUSH2 0x8C4 PUSH1 0x40 PUSH2 0x76A JUMP JUMPDEST SWAP1 POP PUSH0 PUSH2 0x8D3 DUP5 DUP3 DUP6 ADD PUSH2 0x7D1 JUMP JUMPDEST PUSH0 DUP4 ADD MSTORE POP PUSH1 0x20 DUP3 ADD CALLDATALOAD PUSH8 0xFFFFFFFFFFFFFFFF DUP2 GT ISZERO PUSH2 0x8F6 JUMPI PUSH2 0x8F5 PUSH2 0x7B7 JUMP JUMPDEST JUMPDEST PUSH2 0x902 DUP5 DUP3 DUP6 ADD PUSH2 0x878 JUMP JUMPDEST PUSH1 0x20 DUP4 ADD MSTORE POP SWAP3 SWAP2 POP POP JUMP JUMPDEST PUSH0 PUSH2 0x920 PUSH2 0x91B DUP5 PUSH2 0x784 JUMP JUMPDEST PUSH2 0x76A JUMP JUMPDEST SWAP1 POP DUP1 DUP4 DUP3 MSTORE PUSH1 0x20 DUP3 ADD SWAP1 POP PUSH1 0x20 DUP5 MUL DUP4 ADD DUP6 DUP2 GT ISZERO PUSH2 0x943 JUMPI PUSH2 0x942 PUSH2 0x7AF JUMP JUMPDEST JUMPDEST DUP4 JUMPDEST DUP2 DUP2 LT ISZERO PUSH2 0x98A JUMPI DUP1 CALLDATALOAD PUSH8 0xFFFFFFFFFFFFFFFF DUP2 GT ISZERO PUSH2 0x968 JUMPI PUSH2 0x967 PUSH2 0x6F8 JUMP JUMPDEST JUMPDEST DUP1 DUP7 ADD PUSH2 0x975 DUP10 DUP3 PUSH2 0x8A5 JUMP JUMPDEST DUP6 MSTORE PUSH1 0x20 DUP6 ADD SWAP5 POP POP POP PUSH1 0x20 DUP2 ADD SWAP1 POP PUSH2 0x945 JUMP JUMPDEST POP POP POP SWAP4 SWAP3 POP POP POP JUMP JUMPDEST PUSH0 DUP3 PUSH1 0x1F DUP4 ADD SLT PUSH2 0x9A8 JUMPI PUSH2 0x9A7 PUSH2 0x6F8 JUMP JUMPDEST JUMPDEST DUP2 CALLDATALOAD PUSH2 0x9B8 DUP5 DUP3 PUSH1 0x20 DUP7 ADD PUSH2 0x90E JUMP JUMPDEST SWAP2 POP POP SWAP3 SWAP2 POP POP JUMP JUMPDEST PUSH0 PUSH1 0x20 DUP3 DUP5 SUB SLT ISZERO PUSH2 0x9D6 JUMPI PUSH2 0x9D5 PUSH2 0x618 JUMP JUMPDEST JUMPDEST PUSH0 DUP3 ADD CALLDATALOAD PUSH8 0xFFFFFFFFFFFFFFFF DUP2 GT ISZERO PUSH2 0x9F3 JUMPI PUSH2 0x9F2 PUSH2 0x61C JUMP JUMPDEST JUMPDEST PUSH2 0x9FF DUP5 DUP3 DUP6 ADD PUSH2 0x994 JUMP JUMPDEST SWAP2 POP POP SWAP3 SWAP2 POP POP JUMP JUMPDEST PUSH32 0x4E487B7100000000000000000000000000000000000000000000000000000000 PUSH0 MSTORE PUSH1 0x32 PUSH1 0x4 MSTORE PUSH1 0x24 PUSH0 REVERT JUMPDEST PUSH2 0xA3E DUP2 PUSH2 0x6BF JUMP JUMPDEST DUP3 MSTORE POP POP JUMP JUMPDEST PUSH2 0xA4D DUP2 PUSH2 0x620 JUMP JUMPDEST DUP3 MSTORE POP POP JUMP JUMPDEST PUSH0 PUSH1 0x60 DUP3 ADD SWAP1 POP PUSH2 0xA66 PUSH0 DUP4 ADD DUP7 PUSH2 0xA35 JUMP JUMPDEST PUSH2 0xA73 PUSH1 0x20 DUP4 ADD DUP6 PUSH2 0xA35 JUMP JUMPDEST PUSH2 0xA80 PUSH1 0x40 DUP4 ADD DUP5 PUSH2 0xA44 JUMP JUMPDEST SWAP5 SWAP4 POP POP POP POP JUMP INVALID LOG2 PUSH5 0x6970667358 0x22 SLT KECCAK256 KECCAK256 0xC1 CODESIZE CALLDATALOAD PUSH31 0x7BB562D6BC4D698E26AC096C94454CEF9EA9B05FD97742B7421FC364736F6C PUSH4 0x43000817 STOP CALLER "
				},
				"gasEstimates": {
					"creation": {
						"codeDepositCost": "550000",
						"executionCost": "607",
						"totalCost": "550607"
					},
					"external": {
						"getImp(bytes4)": "2989",
						"updateModules(DynamicRouterStorage.moduleDefinition[])": "infinite"
					},
					"internal": {
						"_findModule(address)": "infinite",
						"_findSelector(bytes4)": "infinite",
						"_getModule(bytes4)": "infinite",
						"_getStorage(bytes32)": "27"
					}
				},
				"methodIdentifiers": {
					"getImp(bytes4)": "20e63d2a",
					"updateModules(DynamicRouterStorage.moduleDefinition[])": "a8f64352"
				}
			},
			"storageLayout": {
				"storage": [],
				"types": null
			},
			"userdoc": {
				"kind": "user",
				"methods": {},
				"version": 1
			}
		}
	}
}