{
	"/contracts/storage/LibDynamicRouterStorage.sol": {
		"DynamicRouterStorage": {
			"abi": [
				{
					"anonymous": false,
					"inputs": [
						{
							"indexed": false,
							"internalType": "address",
							"name": "_initialized",
							"type": "address"
						},
						{
							"indexed": false,
							"internalType": "address",
							"name": "_module",
							"type": "address"
						},
						{
							"indexed": false,
							"internalType": "bytes4",
							"name": "_selector",
							"type": "bytes4"
						}
					],
					"name": "UpdateModule",
					"type": "event"
				},
				{
					"inputs": [
						{
							"internalType": "bytes4",
							"name": "_selector",
							"type": "bytes4"
						}
					],
					"name": "getImp",
					"outputs": [
						{
							"internalType": "address",
							"name": "",
							"type": "address"
						}
					],
					"stateMutability": "view",
					"type": "function"
				},
				{
					"inputs": [],
					"name": "getImpl",
					"outputs": [
						{
							"internalType": "address[]",
							"name": "",
							"type": "address[]"
						}
					],
					"stateMutability": "view",
					"type": "function"
				},
				{
					"inputs": [
						{
							"internalType": "bytes4",
							"name": "_selector",
							"type": "bytes4"
						}
					],
					"name": "getModule",
					"outputs": [
						{
							"internalType": "address",
							"name": "",
							"type": "address"
						}
					],
					"stateMutability": "view",
					"type": "function"
				},
				{
					"inputs": [],
					"name": "getSelectors",
					"outputs": [
						{
							"internalType": "bytes4[]",
							"name": "",
							"type": "bytes4[]"
						}
					],
					"stateMutability": "view",
					"type": "function"
				}
			],
			"devdoc": {
				"custom:version": "1.0.0",
				"details": "В DynamicRouterStorage находятся функции работы с хранилищем     Отделены от имплементации модуля для более безопасного обновления     всех последующих имплементаций. Не имеет зависимостей.     Для корректного обновления модуля реализована функция updateModules.",
				"events": {
					"UpdateModule(address,address,bytes4)": {
						"details": "Событие обновления имплементации модуля"
					}
				},
				"kind": "dev",
				"methods": {
					"getImp(bytes4)": {
						"details": "Возвращает по селектору адрес имплементации"
					},
					"getImpl()": {
						"details": "Возвращает имплементации"
					},
					"getModule(bytes4)": {
						"details": "Возвращает модуль по селектору"
					},
					"getSelectors()": {
						"details": "Возвращает массив селекторов"
					},
					"updateModules(DynamicRouterStorage.moduleDefinition[])": {
						"details": "Обновление модулей ",
						"params": {
							"modules": "- структура moduleDefinition:     address module - адрес имплементации     bytes4[] selectors - селектор функции"
						}
					}
				},
				"stateVariables": {
					"SLOT": {
						"details": "Слот хранилища"
					}
				},
				"title": "DynamicRouterStorage",
				"version": 1
			},
			"evm": {
				"assembly": "    /* \"/contracts/storage/LibDynamicRouterStorage.sol\":630:4177  library DynamicRouterStorage {... */\n  dataSize(sub_0)\n  dataOffset(sub_0)\n  0x0b\n  dup3\n  dup3\n  dup3\n  codecopy\n  dup1\n  mload\n  0x00\n  byte\n  0x73\n  eq\n  tag_1\n  jumpi\n  mstore(0x00, 0x4e487b7100000000000000000000000000000000000000000000000000000000)\n  mstore(0x04, 0x00)\n  revert(0x00, 0x24)\ntag_1:\n  mstore(0x00, address)\n  0x73\n  dup2\n  mstore8\n  dup3\n  dup2\n  return\nstop\n\nsub_0: assembly {\n        /* \"/contracts/storage/LibDynamicRouterStorage.sol\":630:4177  library DynamicRouterStorage {... */\n      eq(address, deployTimeAddress())\n      mstore(0x40, 0x80)\n      jumpi(tag_1, lt(calldatasize, 0x04))\n      shr(0xe0, calldataload(0x00))\n      dup1\n      0x20e63d2a\n      eq\n      tag_2\n      jumpi\n      dup1\n      0x4b503f0b\n      eq\n      tag_3\n      jumpi\n      dup1\n      0xa8f64352\n      eq\n      tag_4\n      jumpi\n      dup1\n      0xdcef0069\n      eq\n      tag_5\n      jumpi\n      dup1\n      0xdfb80831\n      eq\n      tag_6\n      jumpi\n    tag_1:\n      revert(0x00, 0x00)\n        /* \"/contracts/storage/LibDynamicRouterStorage.sol\":2921:3041  function getImp(bytes4 _selector) external view returns(address){... */\n    tag_2:\n      tag_7\n      0x04\n      dup1\n      calldatasize\n      sub\n      dup2\n      add\n      swap1\n      tag_8\n      swap2\n      swap1\n      tag_9\n      jump\t// in\n    tag_8:\n      tag_10\n      jump\t// in\n    tag_7:\n      mload(0x40)\n      tag_11\n      swap2\n      swap1\n      tag_12\n      jump\t// in\n    tag_11:\n      mload(0x40)\n      dup1\n      swap2\n      sub\n      swap1\n      return\n        /* \"/contracts/storage/LibDynamicRouterStorage.sol\":2542:2651  function getSelectors() external view returns(bytes4[] memory){... */\n    tag_3:\n      tag_13\n      tag_14\n      jump\t// in\n    tag_13:\n      mload(0x40)\n      tag_15\n      swap2\n      swap1\n      tag_16\n      jump\t// in\n    tag_15:\n      mload(0x40)\n      dup1\n      swap2\n      sub\n      swap1\n      return\n        /* \"/contracts/storage/LibDynamicRouterStorage.sol\":1556:2267  function updateModules(moduleDefinition[] memory modules) external {... */\n    tag_4:\n      dup2\n      dup1\n      iszero\n      tag_17\n      jumpi\n      revert(0x00, 0x00)\n    tag_17:\n      pop\n      tag_18\n      0x04\n      dup1\n      calldatasize\n      sub\n      dup2\n      add\n      swap1\n      tag_19\n      swap2\n      swap1\n      tag_20\n      jump\t// in\n    tag_19:\n      tag_21\n      jump\t// in\n    tag_18:\n      stop\n        /* \"/contracts/storage/LibDynamicRouterStorage.sol\":2346:2469  function getModule(bytes4 _selector) external view returns(address){... */\n    tag_5:\n      tag_22\n      0x04\n      dup1\n      calldatasize\n      sub\n      dup2\n      add\n      swap1\n      tag_23\n      swap2\n      swap1\n      tag_9\n      jump\t// in\n    tag_23:\n      tag_24\n      jump\t// in\n    tag_22:\n      mload(0x40)\n      tag_25\n      swap2\n      swap1\n      tag_12\n      jump\t// in\n    tag_25:\n      mload(0x40)\n      dup1\n      swap2\n      sub\n      swap1\n      return\n        /* \"/contracts/storage/LibDynamicRouterStorage.sol\":2719:2820  function getImpl() external view returns (address[] memory){... */\n    tag_6:\n      tag_26\n      tag_27\n      jump\t// in\n    tag_26:\n      mload(0x40)\n      tag_28\n      swap2\n      swap1\n      tag_29\n      jump\t// in\n    tag_28:\n      mload(0x40)\n      dup1\n      swap2\n      sub\n      swap1\n      return\n        /* \"/contracts/storage/LibDynamicRouterStorage.sol\":2921:3041  function getImp(bytes4 _selector) external view returns(address){... */\n    tag_10:\n        /* \"/contracts/storage/LibDynamicRouterStorage.sol\":2977:2984  address */\n      0x00\n        /* \"/contracts/storage/LibDynamicRouterStorage.sol\":2999:3016  _getStorage(SLOT) */\n      tag_31\n        /* \"/contracts/storage/LibDynamicRouterStorage.sol\":740:762  bytes('DynamicRouter') */\n      mload(0x40)\n      dup1\n      0x40\n      add\n      0x40\n      mstore\n      dup1\n      0x0d\n      dup2\n      mstore\n      0x20\n      add\n      0x44796e616d6963526f7574657200000000000000000000000000000000000000\n      dup2\n      mstore\n      pop\n        /* \"/contracts/storage/LibDynamicRouterStorage.sol\":730:763  keccak256(bytes('DynamicRouter')) */\n      dup1\n      mload\n      swap1\n      0x20\n      add\n      keccak256\n        /* \"/contracts/storage/LibDynamicRouterStorage.sol\":2999:3010  _getStorage */\n      tag_32\n        /* \"/contracts/storage/LibDynamicRouterStorage.sol\":2999:3016  _getStorage(SLOT) */\n      jump\t// in\n    tag_31:\n        /* \"/contracts/storage/LibDynamicRouterStorage.sol\":2999:3024  _getStorage(SLOT).modules */\n      0x00\n      add\n        /* \"/contracts/storage/LibDynamicRouterStorage.sol\":2999:3035  _getStorage(SLOT).modules[_selector] */\n      0x00\n        /* \"/contracts/storage/LibDynamicRouterStorage.sol\":3025:3034  _selector */\n      dup4\n        /* \"/contracts/storage/LibDynamicRouterStorage.sol\":2999:3035  _getStorage(SLOT).modules[_selector] */\n      not(0xffffffffffffffffffffffffffffffffffffffffffffffffffffffff)\n      and\n      not(0xffffffffffffffffffffffffffffffffffffffffffffffffffffffff)\n      and\n      dup2\n      mstore\n      0x20\n      add\n      swap1\n      dup2\n      mstore\n      0x20\n      add\n      0x00\n      keccak256\n      0x00\n      swap1\n      sload\n      swap1\n      0x0100\n      exp\n      swap1\n      div\n      0xffffffffffffffffffffffffffffffffffffffff\n      and\n        /* \"/contracts/storage/LibDynamicRouterStorage.sol\":2992:3035  return _getStorage(SLOT).modules[_selector] */\n      swap1\n      pop\n        /* \"/contracts/storage/LibDynamicRouterStorage.sol\":2921:3041  function getImp(bytes4 _selector) external view returns(address){... */\n      swap2\n      swap1\n      pop\n      jump\t// out\n        /* \"/contracts/storage/LibDynamicRouterStorage.sol\":2542:2651  function getSelectors() external view returns(bytes4[] memory){... */\n    tag_14:\n        /* \"/contracts/storage/LibDynamicRouterStorage.sol\":2588:2603  bytes4[] memory */\n      0x60\n        /* \"/contracts/storage/LibDynamicRouterStorage.sol\":2618:2635  _getStorage(SLOT) */\n      tag_34\n        /* \"/contracts/storage/LibDynamicRouterStorage.sol\":740:762  bytes('DynamicRouter') */\n      mload(0x40)\n      dup1\n      0x40\n      add\n      0x40\n      mstore\n      dup1\n      0x0d\n      dup2\n      mstore\n      0x20\n      add\n      0x44796e616d6963526f7574657200000000000000000000000000000000000000\n      dup2\n      mstore\n      pop\n        /* \"/contracts/storage/LibDynamicRouterStorage.sol\":730:763  keccak256(bytes('DynamicRouter')) */\n      dup1\n      mload\n      swap1\n      0x20\n      add\n      keccak256\n        /* \"/contracts/storage/LibDynamicRouterStorage.sol\":2618:2629  _getStorage */\n      tag_32\n        /* \"/contracts/storage/LibDynamicRouterStorage.sol\":2618:2635  _getStorage(SLOT) */\n      jump\t// in\n    tag_34:\n        /* \"/contracts/storage/LibDynamicRouterStorage.sol\":2618:2645  _getStorage(SLOT).selectors */\n      0x01\n      add\n        /* \"/contracts/storage/LibDynamicRouterStorage.sol\":2611:2645  return _getStorage(SLOT).selectors */\n      dup1\n      sload\n      dup1\n      0x20\n      mul\n      0x20\n      add\n      mload(0x40)\n      swap1\n      dup2\n      add\n      0x40\n      mstore\n      dup1\n      swap3\n      swap2\n      swap1\n      dup2\n      dup2\n      mstore\n      0x20\n      add\n      dup3\n      dup1\n      sload\n      dup1\n      iszero\n      tag_35\n      jumpi\n      0x20\n      mul\n      dup3\n      add\n      swap2\n      swap1\n      0x00\n      mstore\n      keccak256(0x00, 0x20)\n      swap1\n      0x00\n      swap1\n    tag_36:\n      dup3\n      dup3\n      swap1\n      sload\n      swap1\n      0x0100\n      exp\n      swap1\n      div\n      0xe0\n      shl\n      not(0xffffffffffffffffffffffffffffffffffffffffffffffffffffffff)\n      and\n      dup2\n      mstore\n      0x20\n      add\n      swap1\n      0x04\n      add\n      swap1\n      0x20\n      dup3\n      0x03\n      add\n      div\n      swap3\n      dup4\n      add\n      swap3\n      0x01\n      sub\n      dup3\n      mul\n      swap2\n      pop\n      dup1\n      dup5\n      gt\n      tag_36\n      jumpi\n      swap1\n      pop\n    tag_35:\n      pop\n      pop\n      pop\n      pop\n      pop\n      swap1\n      pop\n        /* \"/contracts/storage/LibDynamicRouterStorage.sol\":2542:2651  function getSelectors() external view returns(bytes4[] memory){... */\n      swap1\n      jump\t// out\n        /* \"/contracts/storage/LibDynamicRouterStorage.sol\":1556:2267  function updateModules(moduleDefinition[] memory modules) external {... */\n    tag_21:\n        /* \"/contracts/storage/LibDynamicRouterStorage.sol\":1630:1667  dynamicRouterStorage storage _storage */\n      0x00\n        /* \"/contracts/storage/LibDynamicRouterStorage.sol\":1670:1687  _getStorage(SLOT) */\n      tag_38\n        /* \"/contracts/storage/LibDynamicRouterStorage.sol\":740:762  bytes('DynamicRouter') */\n      mload(0x40)\n      dup1\n      0x40\n      add\n      0x40\n      mstore\n      dup1\n      0x0d\n      dup2\n      mstore\n      0x20\n      add\n      0x44796e616d6963526f7574657200000000000000000000000000000000000000\n      dup2\n      mstore\n      pop\n        /* \"/contracts/storage/LibDynamicRouterStorage.sol\":730:763  keccak256(bytes('DynamicRouter')) */\n      dup1\n      mload\n      swap1\n      0x20\n      add\n      keccak256\n        /* \"/contracts/storage/LibDynamicRouterStorage.sol\":1670:1681  _getStorage */\n      tag_32\n        /* \"/contracts/storage/LibDynamicRouterStorage.sol\":1670:1687  _getStorage(SLOT) */\n      jump\t// in\n    tag_38:\n        /* \"/contracts/storage/LibDynamicRouterStorage.sol\":1630:1687  dynamicRouterStorage storage _storage = _getStorage(SLOT) */\n      swap1\n      pop\n        /* \"/contracts/storage/LibDynamicRouterStorage.sol\":1699:1708  uint256 i */\n      0x00\n        /* \"/contracts/storage/LibDynamicRouterStorage.sol\":1711:1712  0 */\n      0x00\n        /* \"/contracts/storage/LibDynamicRouterStorage.sol\":1699:1712  uint256 i = 0 */\n      swap1\n      pop\n        /* \"/contracts/storage/LibDynamicRouterStorage.sol\":1694:2262  for (uint256 i = 0; i < modules.length; ++i) {... */\n    tag_39:\n        /* \"/contracts/storage/LibDynamicRouterStorage.sol\":1718:1725  modules */\n      dup3\n        /* \"/contracts/storage/LibDynamicRouterStorage.sol\":1718:1732  modules.length */\n      mload\n        /* \"/contracts/storage/LibDynamicRouterStorage.sol\":1714:1715  i */\n      dup2\n        /* \"/contracts/storage/LibDynamicRouterStorage.sol\":1714:1732  i < modules.length */\n      lt\n        /* \"/contracts/storage/LibDynamicRouterStorage.sol\":1694:2262  for (uint256 i = 0; i < modules.length; ++i) {... */\n      iszero\n      tag_40\n      jumpi\n        /* \"/contracts/storage/LibDynamicRouterStorage.sol\":1748:1778  moduleDefinition memory module */\n      0x00\n        /* \"/contracts/storage/LibDynamicRouterStorage.sol\":1781:1788  modules */\n      dup4\n        /* \"/contracts/storage/LibDynamicRouterStorage.sol\":1789:1790  i */\n      dup3\n        /* \"/contracts/storage/LibDynamicRouterStorage.sol\":1781:1791  modules[i] */\n      dup2\n      mload\n      dup2\n      lt\n      tag_42\n      jumpi\n      tag_43\n      tag_44\n      jump\t// in\n    tag_43:\n    tag_42:\n      0x20\n      mul\n      0x20\n      add\n      add\n      mload\n        /* \"/contracts/storage/LibDynamicRouterStorage.sol\":1748:1791  moduleDefinition memory module = modules[i] */\n      swap1\n      pop\n        /* \"/contracts/storage/LibDynamicRouterStorage.sol\":1807:1816  uint256 j */\n      0x00\n        /* \"/contracts/storage/LibDynamicRouterStorage.sol\":1819:1820  0 */\n      0x00\n        /* \"/contracts/storage/LibDynamicRouterStorage.sol\":1807:1820  uint256 j = 0 */\n      swap1\n      pop\n        /* \"/contracts/storage/LibDynamicRouterStorage.sol\":1802:2255  for (uint256 j = 0; j < module.selectors.length; ++j) {... */\n    tag_45:\n        /* \"/contracts/storage/LibDynamicRouterStorage.sol\":1826:1832  module */\n      dup2\n        /* \"/contracts/storage/LibDynamicRouterStorage.sol\":1826:1842  module.selectors */\n      0x20\n      add\n      mload\n        /* \"/contracts/storage/LibDynamicRouterStorage.sol\":1826:1849  module.selectors.length */\n      mload\n        /* \"/contracts/storage/LibDynamicRouterStorage.sol\":1822:1823  j */\n      dup2\n        /* \"/contracts/storage/LibDynamicRouterStorage.sol\":1822:1849  j < module.selectors.length */\n      lt\n        /* \"/contracts/storage/LibDynamicRouterStorage.sol\":1802:2255  for (uint256 j = 0; j < module.selectors.length; ++j) {... */\n      iszero\n      tag_46\n      jumpi\n        /* \"/contracts/storage/LibDynamicRouterStorage.sol\":1867:1883  bytes4 _selector */\n      0x00\n        /* \"/contracts/storage/LibDynamicRouterStorage.sol\":1886:1892  module */\n      dup3\n        /* \"/contracts/storage/LibDynamicRouterStorage.sol\":1886:1902  module.selectors */\n      0x20\n      add\n      mload\n        /* \"/contracts/storage/LibDynamicRouterStorage.sol\":1903:1904  j */\n      dup3\n        /* \"/contracts/storage/LibDynamicRouterStorage.sol\":1886:1905  module.selectors[j] */\n      dup2\n      mload\n      dup2\n      lt\n      tag_48\n      jumpi\n      tag_49\n      tag_44\n      jump\t// in\n    tag_49:\n    tag_48:\n      0x20\n      mul\n      0x20\n      add\n      add\n      mload\n        /* \"/contracts/storage/LibDynamicRouterStorage.sol\":1867:1905  bytes4 _selector = module.selectors[j] */\n      swap1\n      pop\n        /* \"/contracts/storage/LibDynamicRouterStorage.sol\":1916:1931  address _module */\n      0x00\n        /* \"/contracts/storage/LibDynamicRouterStorage.sol\":1934:1940  module */\n      dup4\n        /* \"/contracts/storage/LibDynamicRouterStorage.sol\":1934:1947  module.module */\n      0x00\n      add\n      mload\n        /* \"/contracts/storage/LibDynamicRouterStorage.sol\":1916:1947  address _module = module.module */\n      swap1\n      pop\n        /* \"/contracts/storage/LibDynamicRouterStorage.sol\":1962:1986  _findSelector(_selector) */\n      tag_50\n        /* \"/contracts/storage/LibDynamicRouterStorage.sol\":1976:1985  _selector */\n      dup3\n        /* \"/contracts/storage/LibDynamicRouterStorage.sol\":1962:1975  _findSelector */\n      tag_51\n        /* \"/contracts/storage/LibDynamicRouterStorage.sol\":1962:1986  _findSelector(_selector) */\n      jump\t// in\n    tag_50:\n        /* \"/contracts/storage/LibDynamicRouterStorage.sol\":1961:1986  !_findSelector(_selector) */\n      iszero\n        /* \"/contracts/storage/LibDynamicRouterStorage.sol\":1961:2011  !_findSelector(_selector) && _module != address(0) */\n      dup1\n      iszero\n      tag_52\n      jumpi\n      pop\n        /* \"/contracts/storage/LibDynamicRouterStorage.sol\":2009:2010  0 */\n      0x00\n        /* \"/contracts/storage/LibDynamicRouterStorage.sol\":1990:2011  _module != address(0) */\n      0xffffffffffffffffffffffffffffffffffffffff\n      and\n        /* \"/contracts/storage/LibDynamicRouterStorage.sol\":1990:1997  _module */\n      dup2\n        /* \"/contracts/storage/LibDynamicRouterStorage.sol\":1990:2011  _module != address(0) */\n      0xffffffffffffffffffffffffffffffffffffffff\n      and\n      eq\n      iszero\n        /* \"/contracts/storage/LibDynamicRouterStorage.sol\":1961:2011  !_findSelector(_selector) && _module != address(0) */\n    tag_52:\n        /* \"/contracts/storage/LibDynamicRouterStorage.sol\":1958:2047  if(!_findSelector(_selector) && _module != address(0)) _storage.selectors.push(_selector) */\n      iszero\n      tag_53\n      jumpi\n        /* \"/contracts/storage/LibDynamicRouterStorage.sol\":2013:2021  _storage */\n      dup6\n        /* \"/contracts/storage/LibDynamicRouterStorage.sol\":2013:2031  _storage.selectors */\n      0x01\n      add\n        /* \"/contracts/storage/LibDynamicRouterStorage.sol\":2037:2046  _selector */\n      dup3\n        /* \"/contracts/storage/LibDynamicRouterStorage.sol\":2013:2047  _storage.selectors.push(_selector) */\n      swap1\n      dup1\n      0x01\n      dup2\n      sload\n      add\n      dup1\n      dup3\n      sstore\n      dup1\n      swap2\n      pop\n      pop\n      0x01\n      swap1\n      sub\n      swap1\n      0x00\n      mstore\n      keccak256(0x00, 0x20)\n      swap1\n      0x08\n      swap2\n      dup3\n      dup3\n      div\n      add\n      swap2\n      swap1\n      mod\n      0x04\n      mul\n      swap1\n      swap2\n      swap1\n      swap2\n      swap1\n      swap2\n      0x0100\n      exp\n      dup2\n      sload\n      dup2\n      0xffffffff\n      mul\n      not\n      and\n      swap1\n      dup4\n      0xe0\n      shr\n      mul\n      or\n      swap1\n      sstore\n      pop\n        /* \"/contracts/storage/LibDynamicRouterStorage.sol\":1958:2047  if(!_findSelector(_selector) && _module != address(0)) _storage.selectors.push(_selector) */\n    tag_53:\n        /* \"/contracts/storage/LibDynamicRouterStorage.sol\":2062:2082  _findModule(_module) */\n      tag_55\n        /* \"/contracts/storage/LibDynamicRouterStorage.sol\":2074:2081  _module */\n      dup2\n        /* \"/contracts/storage/LibDynamicRouterStorage.sol\":2062:2073  _findModule */\n      tag_56\n        /* \"/contracts/storage/LibDynamicRouterStorage.sol\":2062:2082  _findModule(_module) */\n      jump\t// in\n    tag_55:\n        /* \"/contracts/storage/LibDynamicRouterStorage.sol\":2061:2082  !_findModule(_module) */\n      iszero\n        /* \"/contracts/storage/LibDynamicRouterStorage.sol\":2061:2107  !_findModule(_module) && _module != address(0) */\n      dup1\n      iszero\n      tag_57\n      jumpi\n      pop\n        /* \"/contracts/storage/LibDynamicRouterStorage.sol\":2105:2106  0 */\n      0x00\n        /* \"/contracts/storage/LibDynamicRouterStorage.sol\":2086:2107  _module != address(0) */\n      0xffffffffffffffffffffffffffffffffffffffff\n      and\n        /* \"/contracts/storage/LibDynamicRouterStorage.sol\":2086:2093  _module */\n      dup2\n        /* \"/contracts/storage/LibDynamicRouterStorage.sol\":2086:2107  _module != address(0) */\n      0xffffffffffffffffffffffffffffffffffffffff\n      and\n      eq\n      iszero\n        /* \"/contracts/storage/LibDynamicRouterStorage.sol\":2061:2107  !_findModule(_module) && _module != address(0) */\n    tag_57:\n        /* \"/contracts/storage/LibDynamicRouterStorage.sol\":2058:2135  if(!_findModule(_module) && _module != address(0))_storage.impl.push(_module) */\n      iszero\n      tag_58\n      jumpi\n        /* \"/contracts/storage/LibDynamicRouterStorage.sol\":2108:2116  _storage */\n      dup6\n        /* \"/contracts/storage/LibDynamicRouterStorage.sol\":2108:2121  _storage.impl */\n      0x02\n      add\n        /* \"/contracts/storage/LibDynamicRouterStorage.sol\":2127:2134  _module */\n      dup2\n        /* \"/contracts/storage/LibDynamicRouterStorage.sol\":2108:2135  _storage.impl.push(_module) */\n      swap1\n      dup1\n      0x01\n      dup2\n      sload\n      add\n      dup1\n      dup3\n      sstore\n      dup1\n      swap2\n      pop\n      pop\n      0x01\n      swap1\n      sub\n      swap1\n      0x00\n      mstore\n      keccak256(0x00, 0x20)\n      add\n      0x00\n      swap1\n      swap2\n      swap1\n      swap2\n      swap1\n      swap2\n      0x0100\n      exp\n      dup2\n      sload\n      dup2\n      0xffffffffffffffffffffffffffffffffffffffff\n      mul\n      not\n      and\n      swap1\n      dup4\n      0xffffffffffffffffffffffffffffffffffffffff\n      and\n      mul\n      or\n      swap1\n      sstore\n      pop\n        /* \"/contracts/storage/LibDynamicRouterStorage.sol\":2058:2135  if(!_findModule(_module) && _module != address(0))_storage.impl.push(_module) */\n    tag_58:\n        /* \"/contracts/storage/LibDynamicRouterStorage.sol\":2176:2183  _module */\n      dup1\n        /* \"/contracts/storage/LibDynamicRouterStorage.sol\":2146:2154  _storage */\n      dup7\n        /* \"/contracts/storage/LibDynamicRouterStorage.sol\":2146:2162  _storage.modules */\n      0x00\n      add\n        /* \"/contracts/storage/LibDynamicRouterStorage.sol\":2146:2173  _storage.modules[_selector] */\n      0x00\n        /* \"/contracts/storage/LibDynamicRouterStorage.sol\":2163:2172  _selector */\n      dup5\n        /* \"/contracts/storage/LibDynamicRouterStorage.sol\":2146:2173  _storage.modules[_selector] */\n      not(0xffffffffffffffffffffffffffffffffffffffffffffffffffffffff)\n      and\n      not(0xffffffffffffffffffffffffffffffffffffffffffffffffffffffff)\n      and\n      dup2\n      mstore\n      0x20\n      add\n      swap1\n      dup2\n      mstore\n      0x20\n      add\n      0x00\n      keccak256\n      0x00\n        /* \"/contracts/storage/LibDynamicRouterStorage.sol\":2146:2183  _storage.modules[_selector] = _module */\n      0x0100\n      exp\n      dup2\n      sload\n      dup2\n      0xffffffffffffffffffffffffffffffffffffffff\n      mul\n      not\n      and\n      swap1\n      dup4\n      0xffffffffffffffffffffffffffffffffffffffff\n      and\n      mul\n      or\n      swap1\n      sstore\n      pop\n        /* \"/contracts/storage/LibDynamicRouterStorage.sol\":2199:2243  UpdateModule(msg.sender, _module, _selector) */\n      0x314760e63cd5315a4cf28c679a1885b84249533d4156a7ebd02675626493a255\n        /* \"/contracts/storage/LibDynamicRouterStorage.sol\":2212:2222  msg.sender */\n      caller\n        /* \"/contracts/storage/LibDynamicRouterStorage.sol\":2224:2231  _module */\n      dup3\n        /* \"/contracts/storage/LibDynamicRouterStorage.sol\":2233:2242  _selector */\n      dup5\n        /* \"/contracts/storage/LibDynamicRouterStorage.sol\":2199:2243  UpdateModule(msg.sender, _module, _selector) */\n      mload(0x40)\n      tag_60\n      swap4\n      swap3\n      swap2\n      swap1\n      tag_61\n      jump\t// in\n    tag_60:\n      mload(0x40)\n      dup1\n      swap2\n      sub\n      swap1\n      log1\n        /* \"/contracts/storage/LibDynamicRouterStorage.sol\":1856:2255  {... */\n      pop\n      pop\n        /* \"/contracts/storage/LibDynamicRouterStorage.sol\":1851:1854  ++j */\n      dup1\n      0x01\n      add\n      swap1\n      pop\n        /* \"/contracts/storage/LibDynamicRouterStorage.sol\":1802:2255  for (uint256 j = 0; j < module.selectors.length; ++j) {... */\n      jump(tag_45)\n    tag_46:\n      pop\n        /* \"/contracts/storage/LibDynamicRouterStorage.sol\":1739:2262  {... */\n      pop\n        /* \"/contracts/storage/LibDynamicRouterStorage.sol\":1734:1737  ++i */\n      dup1\n      0x01\n      add\n      swap1\n      pop\n        /* \"/contracts/storage/LibDynamicRouterStorage.sol\":1694:2262  for (uint256 i = 0; i < modules.length; ++i) {... */\n      jump(tag_39)\n    tag_40:\n      pop\n        /* \"/contracts/storage/LibDynamicRouterStorage.sol\":1623:2267  {... */\n      pop\n        /* \"/contracts/storage/LibDynamicRouterStorage.sol\":1556:2267  function updateModules(moduleDefinition[] memory modules) external {... */\n      pop\n      jump\t// out\n        /* \"/contracts/storage/LibDynamicRouterStorage.sol\":2346:2469  function getModule(bytes4 _selector) external view returns(address){... */\n    tag_24:\n        /* \"/contracts/storage/LibDynamicRouterStorage.sol\":2405:2412  address */\n      0x00\n        /* \"/contracts/storage/LibDynamicRouterStorage.sol\":2427:2444  _getStorage(SLOT) */\n      tag_63\n        /* \"/contracts/storage/LibDynamicRouterStorage.sol\":740:762  bytes('DynamicRouter') */\n      mload(0x40)\n      dup1\n      0x40\n      add\n      0x40\n      mstore\n      dup1\n      0x0d\n      dup2\n      mstore\n      0x20\n      add\n      0x44796e616d6963526f7574657200000000000000000000000000000000000000\n      dup2\n      mstore\n      pop\n        /* \"/contracts/storage/LibDynamicRouterStorage.sol\":730:763  keccak256(bytes('DynamicRouter')) */\n      dup1\n      mload\n      swap1\n      0x20\n      add\n      keccak256\n        /* \"/contracts/storage/LibDynamicRouterStorage.sol\":2427:2438  _getStorage */\n      tag_32\n        /* \"/contracts/storage/LibDynamicRouterStorage.sol\":2427:2444  _getStorage(SLOT) */\n      jump\t// in\n    tag_63:\n        /* \"/contracts/storage/LibDynamicRouterStorage.sol\":2427:2452  _getStorage(SLOT).modules */\n      0x00\n      add\n        /* \"/contracts/storage/LibDynamicRouterStorage.sol\":2427:2463  _getStorage(SLOT).modules[_selector] */\n      0x00\n        /* \"/contracts/storage/LibDynamicRouterStorage.sol\":2453:2462  _selector */\n      dup4\n        /* \"/contracts/storage/LibDynamicRouterStorage.sol\":2427:2463  _getStorage(SLOT).modules[_selector] */\n      not(0xffffffffffffffffffffffffffffffffffffffffffffffffffffffff)\n      and\n      not(0xffffffffffffffffffffffffffffffffffffffffffffffffffffffff)\n      and\n      dup2\n      mstore\n      0x20\n      add\n      swap1\n      dup2\n      mstore\n      0x20\n      add\n      0x00\n      keccak256\n      0x00\n      swap1\n      sload\n      swap1\n      0x0100\n      exp\n      swap1\n      div\n      0xffffffffffffffffffffffffffffffffffffffff\n      and\n        /* \"/contracts/storage/LibDynamicRouterStorage.sol\":2420:2463  return _getStorage(SLOT).modules[_selector] */\n      swap1\n      pop\n        /* \"/contracts/storage/LibDynamicRouterStorage.sol\":2346:2469  function getModule(bytes4 _selector) external view returns(address){... */\n      swap2\n      swap1\n      pop\n      jump\t// out\n        /* \"/contracts/storage/LibDynamicRouterStorage.sol\":2719:2820  function getImpl() external view returns (address[] memory){... */\n    tag_27:\n        /* \"/contracts/storage/LibDynamicRouterStorage.sol\":2761:2777  address[] memory */\n      0x60\n        /* \"/contracts/storage/LibDynamicRouterStorage.sol\":2792:2809  _getStorage(SLOT) */\n      tag_65\n        /* \"/contracts/storage/LibDynamicRouterStorage.sol\":740:762  bytes('DynamicRouter') */\n      mload(0x40)\n      dup1\n      0x40\n      add\n      0x40\n      mstore\n      dup1\n      0x0d\n      dup2\n      mstore\n      0x20\n      add\n      0x44796e616d6963526f7574657200000000000000000000000000000000000000\n      dup2\n      mstore\n      pop\n        /* \"/contracts/storage/LibDynamicRouterStorage.sol\":730:763  keccak256(bytes('DynamicRouter')) */\n      dup1\n      mload\n      swap1\n      0x20\n      add\n      keccak256\n        /* \"/contracts/storage/LibDynamicRouterStorage.sol\":2792:2803  _getStorage */\n      tag_32\n        /* \"/contracts/storage/LibDynamicRouterStorage.sol\":2792:2809  _getStorage(SLOT) */\n      jump\t// in\n    tag_65:\n        /* \"/contracts/storage/LibDynamicRouterStorage.sol\":2792:2814  _getStorage(SLOT).impl */\n      0x02\n      add\n        /* \"/contracts/storage/LibDynamicRouterStorage.sol\":2785:2814  return _getStorage(SLOT).impl */\n      dup1\n      sload\n      dup1\n      0x20\n      mul\n      0x20\n      add\n      mload(0x40)\n      swap1\n      dup2\n      add\n      0x40\n      mstore\n      dup1\n      swap3\n      swap2\n      swap1\n      dup2\n      dup2\n      mstore\n      0x20\n      add\n      dup3\n      dup1\n      sload\n      dup1\n      iszero\n      tag_66\n      jumpi\n      0x20\n      mul\n      dup3\n      add\n      swap2\n      swap1\n      0x00\n      mstore\n      keccak256(0x00, 0x20)\n      swap1\n    tag_67:\n      dup2\n      0x00\n      swap1\n      sload\n      swap1\n      0x0100\n      exp\n      swap1\n      div\n      0xffffffffffffffffffffffffffffffffffffffff\n      and\n      0xffffffffffffffffffffffffffffffffffffffff\n      and\n      dup2\n      mstore\n      0x20\n      add\n      swap1\n      0x01\n      add\n      swap1\n      dup1\n      dup4\n      gt\n      tag_67\n      jumpi\n    tag_66:\n      pop\n      pop\n      pop\n      pop\n      pop\n      swap1\n      pop\n        /* \"/contracts/storage/LibDynamicRouterStorage.sol\":2719:2820  function getImpl() external view returns (address[] memory){... */\n      swap1\n      jump\t// out\n        /* \"/contracts/storage/LibDynamicRouterStorage.sol\":4026:4174  function _getStorage(bytes32 _storage) private pure returns (dynamicRouterStorage storage s){... */\n    tag_32:\n        /* \"/contracts/storage/LibDynamicRouterStorage.sol\":4087:4117  dynamicRouterStorage storage s */\n      0x00\n        /* \"/contracts/storage/LibDynamicRouterStorage.sol\":4154:4162  _storage */\n      dup2\n        /* \"/contracts/storage/LibDynamicRouterStorage.sol\":4144:4162  s.slot := _storage */\n      swap1\n      pop\n        /* \"/contracts/storage/LibDynamicRouterStorage.sol\":4026:4174  function _getStorage(bytes32 _storage) private pure returns (dynamicRouterStorage storage s){... */\n      swap2\n      swap1\n      pop\n      jump\t// out\n        /* \"/contracts/storage/LibDynamicRouterStorage.sol\":3124:3409  function _findSelector(bytes4 _selector) private view returns(bool){... */\n    tag_51:\n        /* \"/contracts/storage/LibDynamicRouterStorage.sol\":3186:3190  bool */\n      0x00\n        /* \"/contracts/storage/LibDynamicRouterStorage.sol\":3198:3235  dynamicRouterStorage storage _storage */\n      0x00\n        /* \"/contracts/storage/LibDynamicRouterStorage.sol\":3238:3255  _getStorage(SLOT) */\n      tag_70\n        /* \"/contracts/storage/LibDynamicRouterStorage.sol\":740:762  bytes('DynamicRouter') */\n      mload(0x40)\n      dup1\n      0x40\n      add\n      0x40\n      mstore\n      dup1\n      0x0d\n      dup2\n      mstore\n      0x20\n      add\n      0x44796e616d6963526f7574657200000000000000000000000000000000000000\n      dup2\n      mstore\n      pop\n        /* \"/contracts/storage/LibDynamicRouterStorage.sol\":730:763  keccak256(bytes('DynamicRouter')) */\n      dup1\n      mload\n      swap1\n      0x20\n      add\n      keccak256\n        /* \"/contracts/storage/LibDynamicRouterStorage.sol\":3238:3249  _getStorage */\n      tag_32\n        /* \"/contracts/storage/LibDynamicRouterStorage.sol\":3238:3255  _getStorage(SLOT) */\n      jump\t// in\n    tag_70:\n        /* \"/contracts/storage/LibDynamicRouterStorage.sol\":3198:3255  dynamicRouterStorage storage _storage = _getStorage(SLOT) */\n      swap1\n      pop\n        /* \"/contracts/storage/LibDynamicRouterStorage.sol\":3267:3276  uint256 i */\n      0x00\n        /* \"/contracts/storage/LibDynamicRouterStorage.sol\":3279:3280  0 */\n      0x00\n        /* \"/contracts/storage/LibDynamicRouterStorage.sol\":3267:3280  uint256 i = 0 */\n      swap1\n      pop\n        /* \"/contracts/storage/LibDynamicRouterStorage.sol\":3262:3385  for (uint256 i = 0; i < _storage.selectors.length; ++i) {... */\n    tag_71:\n        /* \"/contracts/storage/LibDynamicRouterStorage.sol\":3286:3294  _storage */\n      dup2\n        /* \"/contracts/storage/LibDynamicRouterStorage.sol\":3286:3304  _storage.selectors */\n      0x01\n      add\n        /* \"/contracts/storage/LibDynamicRouterStorage.sol\":3286:3311  _storage.selectors.length */\n      dup1\n      sload\n      swap1\n      pop\n        /* \"/contracts/storage/LibDynamicRouterStorage.sol\":3282:3283  i */\n      dup2\n        /* \"/contracts/storage/LibDynamicRouterStorage.sol\":3282:3311  i < _storage.selectors.length */\n      lt\n        /* \"/contracts/storage/LibDynamicRouterStorage.sol\":3262:3385  for (uint256 i = 0; i < _storage.selectors.length; ++i) {... */\n      iszero\n      tag_72\n      jumpi\n        /* \"/contracts/storage/LibDynamicRouterStorage.sol\":3343:3351  _storage */\n      dup2\n        /* \"/contracts/storage/LibDynamicRouterStorage.sol\":3343:3361  _storage.selectors */\n      0x01\n      add\n        /* \"/contracts/storage/LibDynamicRouterStorage.sol\":3362:3363  i */\n      dup2\n        /* \"/contracts/storage/LibDynamicRouterStorage.sol\":3343:3364  _storage.selectors[i] */\n      dup2\n      sload\n      dup2\n      lt\n      tag_74\n      jumpi\n      tag_75\n      tag_44\n      jump\t// in\n    tag_75:\n    tag_74:\n      swap1\n      0x00\n      mstore\n      keccak256(0x00, 0x20)\n      swap1\n      0x08\n      swap2\n      dup3\n      dup3\n      div\n      add\n      swap2\n      swap1\n      mod\n      0x04\n      mul\n      swap1\n      sload\n      swap1\n      0x0100\n      exp\n      swap1\n      div\n      0xe0\n      shl\n        /* \"/contracts/storage/LibDynamicRouterStorage.sol\":3330:3364  _selector == _storage.selectors[i] */\n      not(0xffffffffffffffffffffffffffffffffffffffffffffffffffffffff)\n      and\n        /* \"/contracts/storage/LibDynamicRouterStorage.sol\":3330:3339  _selector */\n      dup5\n        /* \"/contracts/storage/LibDynamicRouterStorage.sol\":3330:3364  _selector == _storage.selectors[i] */\n      not(0xffffffffffffffffffffffffffffffffffffffffffffffffffffffff)\n      and\n      sub\n        /* \"/contracts/storage/LibDynamicRouterStorage.sol\":3327:3377  if(_selector == _storage.selectors[i]) return true */\n      tag_77\n      jumpi\n        /* \"/contracts/storage/LibDynamicRouterStorage.sol\":3373:3377  true */\n      0x01\n        /* \"/contracts/storage/LibDynamicRouterStorage.sol\":3366:3377  return true */\n      swap3\n      pop\n      pop\n      pop\n      jump(tag_69)\n        /* \"/contracts/storage/LibDynamicRouterStorage.sol\":3327:3377  if(_selector == _storage.selectors[i]) return true */\n    tag_77:\n        /* \"/contracts/storage/LibDynamicRouterStorage.sol\":3313:3316  ++i */\n      dup1\n      0x01\n      add\n      swap1\n      pop\n        /* \"/contracts/storage/LibDynamicRouterStorage.sol\":3262:3385  for (uint256 i = 0; i < _storage.selectors.length; ++i) {... */\n      jump(tag_71)\n    tag_72:\n      pop\n        /* \"/contracts/storage/LibDynamicRouterStorage.sol\":3398:3403  false */\n      0x00\n        /* \"/contracts/storage/LibDynamicRouterStorage.sol\":3391:3403  return false */\n      swap2\n      pop\n      pop\n        /* \"/contracts/storage/LibDynamicRouterStorage.sol\":3124:3409  function _findSelector(bytes4 _selector) private view returns(bool){... */\n    tag_69:\n      swap2\n      swap1\n      pop\n      jump\t// out\n        /* \"/contracts/storage/LibDynamicRouterStorage.sol\":3489:3759  function _findModule(address _module) private view returns(bool){... */\n    tag_56:\n        /* \"/contracts/storage/LibDynamicRouterStorage.sol\":3548:3552  bool */\n      0x00\n        /* \"/contracts/storage/LibDynamicRouterStorage.sol\":3560:3597  dynamicRouterStorage storage _storage */\n      0x00\n        /* \"/contracts/storage/LibDynamicRouterStorage.sol\":3600:3617  _getStorage(SLOT) */\n      tag_79\n        /* \"/contracts/storage/LibDynamicRouterStorage.sol\":740:762  bytes('DynamicRouter') */\n      mload(0x40)\n      dup1\n      0x40\n      add\n      0x40\n      mstore\n      dup1\n      0x0d\n      dup2\n      mstore\n      0x20\n      add\n      0x44796e616d6963526f7574657200000000000000000000000000000000000000\n      dup2\n      mstore\n      pop\n        /* \"/contracts/storage/LibDynamicRouterStorage.sol\":730:763  keccak256(bytes('DynamicRouter')) */\n      dup1\n      mload\n      swap1\n      0x20\n      add\n      keccak256\n        /* \"/contracts/storage/LibDynamicRouterStorage.sol\":3600:3611  _getStorage */\n      tag_32\n        /* \"/contracts/storage/LibDynamicRouterStorage.sol\":3600:3617  _getStorage(SLOT) */\n      jump\t// in\n    tag_79:\n        /* \"/contracts/storage/LibDynamicRouterStorage.sol\":3560:3617  dynamicRouterStorage storage _storage = _getStorage(SLOT) */\n      swap1\n      pop\n        /* \"/contracts/storage/LibDynamicRouterStorage.sol\":3629:3638  uint256 i */\n      0x00\n        /* \"/contracts/storage/LibDynamicRouterStorage.sol\":3641:3642  0 */\n      0x00\n        /* \"/contracts/storage/LibDynamicRouterStorage.sol\":3629:3642  uint256 i = 0 */\n      swap1\n      pop\n        /* \"/contracts/storage/LibDynamicRouterStorage.sol\":3624:3735  for (uint256 i = 0; i < _storage.impl.length; ++i) {... */\n    tag_80:\n        /* \"/contracts/storage/LibDynamicRouterStorage.sol\":3648:3656  _storage */\n      dup2\n        /* \"/contracts/storage/LibDynamicRouterStorage.sol\":3648:3661  _storage.impl */\n      0x02\n      add\n        /* \"/contracts/storage/LibDynamicRouterStorage.sol\":3648:3668  _storage.impl.length */\n      dup1\n      sload\n      swap1\n      pop\n        /* \"/contracts/storage/LibDynamicRouterStorage.sol\":3644:3645  i */\n      dup2\n        /* \"/contracts/storage/LibDynamicRouterStorage.sol\":3644:3668  i < _storage.impl.length */\n      lt\n        /* \"/contracts/storage/LibDynamicRouterStorage.sol\":3624:3735  for (uint256 i = 0; i < _storage.impl.length; ++i) {... */\n      iszero\n      tag_81\n      jumpi\n        /* \"/contracts/storage/LibDynamicRouterStorage.sol\":3698:3706  _storage */\n      dup2\n        /* \"/contracts/storage/LibDynamicRouterStorage.sol\":3698:3711  _storage.impl */\n      0x02\n      add\n        /* \"/contracts/storage/LibDynamicRouterStorage.sol\":3712:3713  i */\n      dup2\n        /* \"/contracts/storage/LibDynamicRouterStorage.sol\":3698:3714  _storage.impl[i] */\n      dup2\n      sload\n      dup2\n      lt\n      tag_83\n      jumpi\n      tag_84\n      tag_44\n      jump\t// in\n    tag_84:\n    tag_83:\n      swap1\n      0x00\n      mstore\n      keccak256(0x00, 0x20)\n      add\n      0x00\n      swap1\n      sload\n      swap1\n      0x0100\n      exp\n      swap1\n      div\n      0xffffffffffffffffffffffffffffffffffffffff\n      and\n        /* \"/contracts/storage/LibDynamicRouterStorage.sol\":3687:3714  _module == _storage.impl[i] */\n      0xffffffffffffffffffffffffffffffffffffffff\n      and\n        /* \"/contracts/storage/LibDynamicRouterStorage.sol\":3687:3694  _module */\n      dup5\n        /* \"/contracts/storage/LibDynamicRouterStorage.sol\":3687:3714  _module == _storage.impl[i] */\n      0xffffffffffffffffffffffffffffffffffffffff\n      and\n      sub\n        /* \"/contracts/storage/LibDynamicRouterStorage.sol\":3684:3727  if(_module == _storage.impl[i]) return true */\n      tag_86\n      jumpi\n        /* \"/contracts/storage/LibDynamicRouterStorage.sol\":3723:3727  true */\n      0x01\n        /* \"/contracts/storage/LibDynamicRouterStorage.sol\":3716:3727  return true */\n      swap3\n      pop\n      pop\n      pop\n      jump(tag_78)\n        /* \"/contracts/storage/LibDynamicRouterStorage.sol\":3684:3727  if(_module == _storage.impl[i]) return true */\n    tag_86:\n        /* \"/contracts/storage/LibDynamicRouterStorage.sol\":3670:3673  ++i */\n      dup1\n      0x01\n      add\n      swap1\n      pop\n        /* \"/contracts/storage/LibDynamicRouterStorage.sol\":3624:3735  for (uint256 i = 0; i < _storage.impl.length; ++i) {... */\n      jump(tag_80)\n    tag_81:\n      pop\n        /* \"/contracts/storage/LibDynamicRouterStorage.sol\":3748:3753  false */\n      0x00\n        /* \"/contracts/storage/LibDynamicRouterStorage.sol\":3741:3753  return false */\n      swap2\n      pop\n      pop\n        /* \"/contracts/storage/LibDynamicRouterStorage.sol\":3489:3759  function _findModule(address _module) private view returns(bool){... */\n    tag_78:\n      swap2\n      swap1\n      pop\n      jump\t// out\n        /* \"#utility.yul\":7:82   */\n    tag_87:\n        /* \"#utility.yul\":40:46   */\n      0x00\n        /* \"#utility.yul\":73:75   */\n      0x40\n        /* \"#utility.yul\":67:76   */\n      mload\n        /* \"#utility.yul\":57:76   */\n      swap1\n      pop\n        /* \"#utility.yul\":7:82   */\n      swap1\n      jump\t// out\n        /* \"#utility.yul\":88:205   */\n    tag_88:\n        /* \"#utility.yul\":197:198   */\n      0x00\n        /* \"#utility.yul\":194:195   */\n      0x00\n        /* \"#utility.yul\":187:199   */\n      revert\n        /* \"#utility.yul\":211:328   */\n    tag_89:\n        /* \"#utility.yul\":320:321   */\n      0x00\n        /* \"#utility.yul\":317:318   */\n      0x00\n        /* \"#utility.yul\":310:322   */\n      revert\n        /* \"#utility.yul\":334:483   */\n    tag_90:\n        /* \"#utility.yul\":370:377   */\n      0x00\n        /* \"#utility.yul\":410:476   */\n      0xffffffff00000000000000000000000000000000000000000000000000000000\n        /* \"#utility.yul\":403:408   */\n      dup3\n        /* \"#utility.yul\":399:477   */\n      and\n        /* \"#utility.yul\":388:477   */\n      swap1\n      pop\n        /* \"#utility.yul\":334:483   */\n      swap2\n      swap1\n      pop\n      jump\t// out\n        /* \"#utility.yul\":489:609   */\n    tag_91:\n        /* \"#utility.yul\":561:584   */\n      tag_135\n        /* \"#utility.yul\":578:583   */\n      dup2\n        /* \"#utility.yul\":561:584   */\n      tag_90\n      jump\t// in\n    tag_135:\n        /* \"#utility.yul\":554:559   */\n      dup2\n        /* \"#utility.yul\":551:585   */\n      eq\n        /* \"#utility.yul\":541:603   */\n      tag_136\n      jumpi\n        /* \"#utility.yul\":599:600   */\n      0x00\n        /* \"#utility.yul\":596:597   */\n      0x00\n        /* \"#utility.yul\":589:601   */\n      revert\n        /* \"#utility.yul\":541:603   */\n    tag_136:\n        /* \"#utility.yul\":489:609   */\n      pop\n      jump\t// out\n        /* \"#utility.yul\":615:752   */\n    tag_92:\n        /* \"#utility.yul\":660:665   */\n      0x00\n        /* \"#utility.yul\":698:704   */\n      dup2\n        /* \"#utility.yul\":685:705   */\n      calldataload\n        /* \"#utility.yul\":676:705   */\n      swap1\n      pop\n        /* \"#utility.yul\":714:746   */\n      tag_138\n        /* \"#utility.yul\":740:745   */\n      dup2\n        /* \"#utility.yul\":714:746   */\n      tag_91\n      jump\t// in\n    tag_138:\n        /* \"#utility.yul\":615:752   */\n      swap3\n      swap2\n      pop\n      pop\n      jump\t// out\n        /* \"#utility.yul\":758:1085   */\n    tag_9:\n        /* \"#utility.yul\":816:822   */\n      0x00\n        /* \"#utility.yul\":865:867   */\n      0x20\n        /* \"#utility.yul\":853:862   */\n      dup3\n        /* \"#utility.yul\":844:851   */\n      dup5\n        /* \"#utility.yul\":840:863   */\n      sub\n        /* \"#utility.yul\":836:868   */\n      slt\n        /* \"#utility.yul\":833:952   */\n      iszero\n      tag_140\n      jumpi\n        /* \"#utility.yul\":871:950   */\n      tag_141\n      tag_88\n      jump\t// in\n    tag_141:\n        /* \"#utility.yul\":833:952   */\n    tag_140:\n        /* \"#utility.yul\":991:992   */\n      0x00\n        /* \"#utility.yul\":1016:1068   */\n      tag_142\n        /* \"#utility.yul\":1060:1067   */\n      dup5\n        /* \"#utility.yul\":1051:1057   */\n      dup3\n        /* \"#utility.yul\":1040:1049   */\n      dup6\n        /* \"#utility.yul\":1036:1058   */\n      add\n        /* \"#utility.yul\":1016:1068   */\n      tag_92\n      jump\t// in\n    tag_142:\n        /* \"#utility.yul\":1006:1068   */\n      swap2\n      pop\n        /* \"#utility.yul\":962:1078   */\n      pop\n        /* \"#utility.yul\":758:1085   */\n      swap3\n      swap2\n      pop\n      pop\n      jump\t// out\n        /* \"#utility.yul\":1091:1217   */\n    tag_93:\n        /* \"#utility.yul\":1128:1135   */\n      0x00\n        /* \"#utility.yul\":1168:1210   */\n      0xffffffffffffffffffffffffffffffffffffffff\n        /* \"#utility.yul\":1161:1166   */\n      dup3\n        /* \"#utility.yul\":1157:1211   */\n      and\n        /* \"#utility.yul\":1146:1211   */\n      swap1\n      pop\n        /* \"#utility.yul\":1091:1217   */\n      swap2\n      swap1\n      pop\n      jump\t// out\n        /* \"#utility.yul\":1223:1319   */\n    tag_94:\n        /* \"#utility.yul\":1260:1267   */\n      0x00\n        /* \"#utility.yul\":1289:1313   */\n      tag_145\n        /* \"#utility.yul\":1307:1312   */\n      dup3\n        /* \"#utility.yul\":1289:1313   */\n      tag_93\n      jump\t// in\n    tag_145:\n        /* \"#utility.yul\":1278:1313   */\n      swap1\n      pop\n        /* \"#utility.yul\":1223:1319   */\n      swap2\n      swap1\n      pop\n      jump\t// out\n        /* \"#utility.yul\":1325:1451   */\n    tag_95:\n        /* \"#utility.yul\":1420:1444   */\n      tag_147\n        /* \"#utility.yul\":1438:1443   */\n      dup2\n        /* \"#utility.yul\":1420:1444   */\n      tag_94\n      jump\t// in\n    tag_147:\n        /* \"#utility.yul\":1415:1418   */\n      dup3\n        /* \"#utility.yul\":1408:1445   */\n      mstore\n        /* \"#utility.yul\":1325:1451   */\n      pop\n      pop\n      jump\t// out\n        /* \"#utility.yul\":1457:1695   */\n    tag_12:\n        /* \"#utility.yul\":1558:1562   */\n      0x00\n        /* \"#utility.yul\":1596:1598   */\n      0x20\n        /* \"#utility.yul\":1585:1594   */\n      dup3\n        /* \"#utility.yul\":1581:1599   */\n      add\n        /* \"#utility.yul\":1573:1599   */\n      swap1\n      pop\n        /* \"#utility.yul\":1609:1688   */\n      tag_149\n        /* \"#utility.yul\":1685:1686   */\n      0x00\n        /* \"#utility.yul\":1674:1683   */\n      dup4\n        /* \"#utility.yul\":1670:1687   */\n      add\n        /* \"#utility.yul\":1661:1667   */\n      dup5\n        /* \"#utility.yul\":1609:1688   */\n      tag_95\n      jump\t// in\n    tag_149:\n        /* \"#utility.yul\":1457:1695   */\n      swap3\n      swap2\n      pop\n      pop\n      jump\t// out\n        /* \"#utility.yul\":1701:1814   */\n    tag_96:\n        /* \"#utility.yul\":1767:1773   */\n      0x00\n        /* \"#utility.yul\":1801:1806   */\n      dup2\n        /* \"#utility.yul\":1795:1807   */\n      mload\n        /* \"#utility.yul\":1785:1807   */\n      swap1\n      pop\n        /* \"#utility.yul\":1701:1814   */\n      swap2\n      swap1\n      pop\n      jump\t// out\n        /* \"#utility.yul\":1820:2011   */\n    tag_97:\n        /* \"#utility.yul\":1926:1937   */\n      0x00\n        /* \"#utility.yul\":1960:1966   */\n      dup3\n        /* \"#utility.yul\":1955:1958   */\n      dup3\n        /* \"#utility.yul\":1948:1967   */\n      mstore\n        /* \"#utility.yul\":2000:2004   */\n      0x20\n        /* \"#utility.yul\":1995:1998   */\n      dup3\n        /* \"#utility.yul\":1991:2005   */\n      add\n        /* \"#utility.yul\":1976:2005   */\n      swap1\n      pop\n        /* \"#utility.yul\":1820:2011   */\n      swap3\n      swap2\n      pop\n      pop\n      jump\t// out\n        /* \"#utility.yul\":2017:2148   */\n    tag_98:\n        /* \"#utility.yul\":2083:2087   */\n      0x00\n        /* \"#utility.yul\":2106:2109   */\n      dup2\n        /* \"#utility.yul\":2098:2109   */\n      swap1\n      pop\n        /* \"#utility.yul\":2136:2140   */\n      0x20\n        /* \"#utility.yul\":2131:2134   */\n      dup3\n        /* \"#utility.yul\":2127:2141   */\n      add\n        /* \"#utility.yul\":2119:2141   */\n      swap1\n      pop\n        /* \"#utility.yul\":2017:2148   */\n      swap2\n      swap1\n      pop\n      jump\t// out\n        /* \"#utility.yul\":2154:2267   */\n    tag_99:\n        /* \"#utility.yul\":2237:2260   */\n      tag_154\n        /* \"#utility.yul\":2254:2259   */\n      dup2\n        /* \"#utility.yul\":2237:2260   */\n      tag_90\n      jump\t// in\n    tag_154:\n        /* \"#utility.yul\":2232:2235   */\n      dup3\n        /* \"#utility.yul\":2225:2261   */\n      mstore\n        /* \"#utility.yul\":2154:2267   */\n      pop\n      pop\n      jump\t// out\n        /* \"#utility.yul\":2273:2464   */\n    tag_100:\n        /* \"#utility.yul\":2348:2358   */\n      0x00\n        /* \"#utility.yul\":2369:2421   */\n      tag_156\n        /* \"#utility.yul\":2417:2420   */\n      dup4\n        /* \"#utility.yul\":2409:2415   */\n      dup4\n        /* \"#utility.yul\":2369:2421   */\n      tag_99\n      jump\t// in\n    tag_156:\n        /* \"#utility.yul\":2453:2457   */\n      0x20\n        /* \"#utility.yul\":2448:2451   */\n      dup4\n        /* \"#utility.yul\":2444:2458   */\n      add\n        /* \"#utility.yul\":2430:2458   */\n      swap1\n      pop\n        /* \"#utility.yul\":2273:2464   */\n      swap3\n      swap2\n      pop\n      pop\n      jump\t// out\n        /* \"#utility.yul\":2470:2582   */\n    tag_101:\n        /* \"#utility.yul\":2539:2543   */\n      0x00\n        /* \"#utility.yul\":2571:2575   */\n      0x20\n        /* \"#utility.yul\":2566:2569   */\n      dup3\n        /* \"#utility.yul\":2562:2576   */\n      add\n        /* \"#utility.yul\":2554:2576   */\n      swap1\n      pop\n        /* \"#utility.yul\":2470:2582   */\n      swap2\n      swap1\n      pop\n      jump\t// out\n        /* \"#utility.yul\":2616:3364   */\n    tag_102:\n        /* \"#utility.yul\":2741:2744   */\n      0x00\n        /* \"#utility.yul\":2770:2823   */\n      tag_159\n        /* \"#utility.yul\":2817:2822   */\n      dup3\n        /* \"#utility.yul\":2770:2823   */\n      tag_96\n      jump\t// in\n    tag_159:\n        /* \"#utility.yul\":2839:2932   */\n      tag_160\n        /* \"#utility.yul\":2925:2931   */\n      dup2\n        /* \"#utility.yul\":2920:2923   */\n      dup6\n        /* \"#utility.yul\":2839:2932   */\n      tag_97\n      jump\t// in\n    tag_160:\n        /* \"#utility.yul\":2832:2932   */\n      swap4\n      pop\n        /* \"#utility.yul\":2956:3011   */\n      tag_161\n        /* \"#utility.yul\":3005:3010   */\n      dup4\n        /* \"#utility.yul\":2956:3011   */\n      tag_98\n      jump\t// in\n    tag_161:\n        /* \"#utility.yul\":3034:3041   */\n      dup1\n        /* \"#utility.yul\":3065:3066   */\n      0x00\n        /* \"#utility.yul\":3050:3339   */\n    tag_162:\n        /* \"#utility.yul\":3075:3081   */\n      dup4\n        /* \"#utility.yul\":3072:3073   */\n      dup2\n        /* \"#utility.yul\":3069:3082   */\n      lt\n        /* \"#utility.yul\":3050:3339   */\n      iszero\n      tag_164\n      jumpi\n        /* \"#utility.yul\":3151:3157   */\n      dup2\n        /* \"#utility.yul\":3145:3158   */\n      mload\n        /* \"#utility.yul\":3178:3247   */\n      tag_165\n        /* \"#utility.yul\":3243:3246   */\n      dup9\n        /* \"#utility.yul\":3228:3241   */\n      dup3\n        /* \"#utility.yul\":3178:3247   */\n      tag_100\n      jump\t// in\n    tag_165:\n        /* \"#utility.yul\":3171:3247   */\n      swap8\n      pop\n        /* \"#utility.yul\":3270:3329   */\n      tag_166\n        /* \"#utility.yul\":3322:3328   */\n      dup4\n        /* \"#utility.yul\":3270:3329   */\n      tag_101\n      jump\t// in\n    tag_166:\n        /* \"#utility.yul\":3260:3329   */\n      swap3\n      pop\n        /* \"#utility.yul\":3110:3339   */\n      pop\n        /* \"#utility.yul\":3097:3098   */\n      0x01\n        /* \"#utility.yul\":3094:3095   */\n      dup2\n        /* \"#utility.yul\":3090:3099   */\n      add\n        /* \"#utility.yul\":3085:3099   */\n      swap1\n      pop\n        /* \"#utility.yul\":3050:3339   */\n      jump(tag_162)\n    tag_164:\n        /* \"#utility.yul\":3054:3068   */\n      pop\n        /* \"#utility.yul\":3355:3358   */\n      dup6\n        /* \"#utility.yul\":3348:3358   */\n      swap4\n      pop\n        /* \"#utility.yul\":2746:3364   */\n      pop\n      pop\n      pop\n        /* \"#utility.yul\":2616:3364   */\n      swap3\n      swap2\n      pop\n      pop\n      jump\t// out\n        /* \"#utility.yul\":3370:3755   */\n    tag_16:\n        /* \"#utility.yul\":3519:3523   */\n      0x00\n        /* \"#utility.yul\":3557:3559   */\n      0x20\n        /* \"#utility.yul\":3546:3555   */\n      dup3\n        /* \"#utility.yul\":3542:3560   */\n      add\n        /* \"#utility.yul\":3534:3560   */\n      swap1\n      pop\n        /* \"#utility.yul\":3606:3615   */\n      dup2\n        /* \"#utility.yul\":3600:3604   */\n      dup2\n        /* \"#utility.yul\":3596:3616   */\n      sub\n        /* \"#utility.yul\":3592:3593   */\n      0x00\n        /* \"#utility.yul\":3581:3590   */\n      dup4\n        /* \"#utility.yul\":3577:3594   */\n      add\n        /* \"#utility.yul\":3570:3617   */\n      mstore\n        /* \"#utility.yul\":3634:3748   */\n      tag_168\n        /* \"#utility.yul\":3743:3747   */\n      dup2\n        /* \"#utility.yul\":3734:3740   */\n      dup5\n        /* \"#utility.yul\":3634:3748   */\n      tag_102\n      jump\t// in\n    tag_168:\n        /* \"#utility.yul\":3626:3748   */\n      swap1\n      pop\n        /* \"#utility.yul\":3370:3755   */\n      swap3\n      swap2\n      pop\n      pop\n      jump\t// out\n        /* \"#utility.yul\":3761:3878   */\n    tag_103:\n        /* \"#utility.yul\":3870:3871   */\n      0x00\n        /* \"#utility.yul\":3867:3868   */\n      0x00\n        /* \"#utility.yul\":3860:3872   */\n      revert\n        /* \"#utility.yul\":3884:3986   */\n    tag_104:\n        /* \"#utility.yul\":3925:3931   */\n      0x00\n        /* \"#utility.yul\":3976:3978   */\n      0x1f\n        /* \"#utility.yul\":3972:3979   */\n      not\n        /* \"#utility.yul\":3967:3969   */\n      0x1f\n        /* \"#utility.yul\":3960:3965   */\n      dup4\n        /* \"#utility.yul\":3956:3970   */\n      add\n        /* \"#utility.yul\":3952:3980   */\n      and\n        /* \"#utility.yul\":3942:3980   */\n      swap1\n      pop\n        /* \"#utility.yul\":3884:3986   */\n      swap2\n      swap1\n      pop\n      jump\t// out\n        /* \"#utility.yul\":3992:4172   */\n    tag_105:\n        /* \"#utility.yul\":4040:4117   */\n      0x4e487b7100000000000000000000000000000000000000000000000000000000\n        /* \"#utility.yul\":4037:4038   */\n      0x00\n        /* \"#utility.yul\":4030:4118   */\n      mstore\n        /* \"#utility.yul\":4137:4141   */\n      0x41\n        /* \"#utility.yul\":4134:4135   */\n      0x04\n        /* \"#utility.yul\":4127:4142   */\n      mstore\n        /* \"#utility.yul\":4161:4165   */\n      0x24\n        /* \"#utility.yul\":4158:4159   */\n      0x00\n        /* \"#utility.yul\":4151:4166   */\n      revert\n        /* \"#utility.yul\":4178:4459   */\n    tag_106:\n        /* \"#utility.yul\":4261:4288   */\n      tag_173\n        /* \"#utility.yul\":4283:4287   */\n      dup3\n        /* \"#utility.yul\":4261:4288   */\n      tag_104\n      jump\t// in\n    tag_173:\n        /* \"#utility.yul\":4253:4259   */\n      dup2\n        /* \"#utility.yul\":4249:4289   */\n      add\n        /* \"#utility.yul\":4391:4397   */\n      dup2\n        /* \"#utility.yul\":4379:4389   */\n      dup2\n        /* \"#utility.yul\":4376:4398   */\n      lt\n        /* \"#utility.yul\":4355:4373   */\n      0xffffffffffffffff\n        /* \"#utility.yul\":4343:4353   */\n      dup3\n        /* \"#utility.yul\":4340:4374   */\n      gt\n        /* \"#utility.yul\":4337:4399   */\n      or\n        /* \"#utility.yul\":4334:4422   */\n      iszero\n      tag_174\n      jumpi\n        /* \"#utility.yul\":4402:4420   */\n      tag_175\n      tag_105\n      jump\t// in\n    tag_175:\n        /* \"#utility.yul\":4334:4422   */\n    tag_174:\n        /* \"#utility.yul\":4442:4452   */\n      dup1\n        /* \"#utility.yul\":4438:4440   */\n      0x40\n        /* \"#utility.yul\":4431:4453   */\n      mstore\n        /* \"#utility.yul\":4221:4459   */\n      pop\n        /* \"#utility.yul\":4178:4459   */\n      pop\n      pop\n      jump\t// out\n        /* \"#utility.yul\":4465:4594   */\n    tag_107:\n        /* \"#utility.yul\":4499:4505   */\n      0x00\n        /* \"#utility.yul\":4526:4546   */\n      tag_177\n      tag_87\n      jump\t// in\n    tag_177:\n        /* \"#utility.yul\":4516:4546   */\n      swap1\n      pop\n        /* \"#utility.yul\":4555:4588   */\n      tag_178\n        /* \"#utility.yul\":4583:4587   */\n      dup3\n        /* \"#utility.yul\":4575:4581   */\n      dup3\n        /* \"#utility.yul\":4555:4588   */\n      tag_106\n      jump\t// in\n    tag_178:\n        /* \"#utility.yul\":4465:4594   */\n      swap2\n      swap1\n      pop\n      jump\t// out\n        /* \"#utility.yul\":4600:4943   */\n    tag_108:\n        /* \"#utility.yul\":4709:4713   */\n      0x00\n        /* \"#utility.yul\":4799:4817   */\n      0xffffffffffffffff\n        /* \"#utility.yul\":4791:4797   */\n      dup3\n        /* \"#utility.yul\":4788:4818   */\n      gt\n        /* \"#utility.yul\":4785:4841   */\n      iszero\n      tag_180\n      jumpi\n        /* \"#utility.yul\":4821:4839   */\n      tag_181\n      tag_105\n      jump\t// in\n    tag_181:\n        /* \"#utility.yul\":4785:4841   */\n    tag_180:\n        /* \"#utility.yul\":4871:4875   */\n      0x20\n        /* \"#utility.yul\":4863:4869   */\n      dup3\n        /* \"#utility.yul\":4859:4876   */\n      mul\n        /* \"#utility.yul\":4851:4876   */\n      swap1\n      pop\n        /* \"#utility.yul\":4931:4935   */\n      0x20\n        /* \"#utility.yul\":4925:4929   */\n      dup2\n        /* \"#utility.yul\":4921:4936   */\n      add\n        /* \"#utility.yul\":4913:4936   */\n      swap1\n      pop\n        /* \"#utility.yul\":4600:4943   */\n      swap2\n      swap1\n      pop\n      jump\t// out\n        /* \"#utility.yul\":4949:5066   */\n    tag_109:\n        /* \"#utility.yul\":5058:5059   */\n      0x00\n        /* \"#utility.yul\":5055:5056   */\n      0x00\n        /* \"#utility.yul\":5048:5060   */\n      revert\n        /* \"#utility.yul\":5072:5189   */\n    tag_110:\n        /* \"#utility.yul\":5181:5182   */\n      0x00\n        /* \"#utility.yul\":5178:5179   */\n      0x00\n        /* \"#utility.yul\":5171:5183   */\n      revert\n        /* \"#utility.yul\":5195:5312   */\n    tag_111:\n        /* \"#utility.yul\":5304:5305   */\n      0x00\n        /* \"#utility.yul\":5301:5302   */\n      0x00\n        /* \"#utility.yul\":5294:5306   */\n      revert\n        /* \"#utility.yul\":5318:5440   */\n    tag_112:\n        /* \"#utility.yul\":5391:5415   */\n      tag_186\n        /* \"#utility.yul\":5409:5414   */\n      dup2\n        /* \"#utility.yul\":5391:5415   */\n      tag_94\n      jump\t// in\n    tag_186:\n        /* \"#utility.yul\":5384:5389   */\n      dup2\n        /* \"#utility.yul\":5381:5416   */\n      eq\n        /* \"#utility.yul\":5371:5434   */\n      tag_187\n      jumpi\n        /* \"#utility.yul\":5430:5431   */\n      0x00\n        /* \"#utility.yul\":5427:5428   */\n      0x00\n        /* \"#utility.yul\":5420:5432   */\n      revert\n        /* \"#utility.yul\":5371:5434   */\n    tag_187:\n        /* \"#utility.yul\":5318:5440   */\n      pop\n      jump\t// out\n        /* \"#utility.yul\":5446:5585   */\n    tag_113:\n        /* \"#utility.yul\":5492:5497   */\n      0x00\n        /* \"#utility.yul\":5530:5536   */\n      dup2\n        /* \"#utility.yul\":5517:5537   */\n      calldataload\n        /* \"#utility.yul\":5508:5537   */\n      swap1\n      pop\n        /* \"#utility.yul\":5546:5579   */\n      tag_189\n        /* \"#utility.yul\":5573:5578   */\n      dup2\n        /* \"#utility.yul\":5546:5579   */\n      tag_112\n      jump\t// in\n    tag_189:\n        /* \"#utility.yul\":5446:5585   */\n      swap3\n      swap2\n      pop\n      pop\n      jump\t// out\n        /* \"#utility.yul\":5591:5901   */\n    tag_114:\n        /* \"#utility.yul\":5667:5671   */\n      0x00\n        /* \"#utility.yul\":5757:5775   */\n      0xffffffffffffffff\n        /* \"#utility.yul\":5749:5755   */\n      dup3\n        /* \"#utility.yul\":5746:5776   */\n      gt\n        /* \"#utility.yul\":5743:5799   */\n      iszero\n      tag_191\n      jumpi\n        /* \"#utility.yul\":5779:5797   */\n      tag_192\n      tag_105\n      jump\t// in\n    tag_192:\n        /* \"#utility.yul\":5743:5799   */\n    tag_191:\n        /* \"#utility.yul\":5829:5833   */\n      0x20\n        /* \"#utility.yul\":5821:5827   */\n      dup3\n        /* \"#utility.yul\":5817:5834   */\n      mul\n        /* \"#utility.yul\":5809:5834   */\n      swap1\n      pop\n        /* \"#utility.yul\":5889:5893   */\n      0x20\n        /* \"#utility.yul\":5883:5887   */\n      dup2\n        /* \"#utility.yul\":5879:5894   */\n      add\n        /* \"#utility.yul\":5871:5894   */\n      swap1\n      pop\n        /* \"#utility.yul\":5591:5901   */\n      swap2\n      swap1\n      pop\n      jump\t// out\n        /* \"#utility.yul\":5923:6630   */\n    tag_115:\n        /* \"#utility.yul\":6018:6023   */\n      0x00\n        /* \"#utility.yul\":6043:6123   */\n      tag_194\n        /* \"#utility.yul\":6059:6122   */\n      tag_195\n        /* \"#utility.yul\":6115:6121   */\n      dup5\n        /* \"#utility.yul\":6059:6122   */\n      tag_114\n      jump\t// in\n    tag_195:\n        /* \"#utility.yul\":6043:6123   */\n      tag_107\n      jump\t// in\n    tag_194:\n        /* \"#utility.yul\":6034:6123   */\n      swap1\n      pop\n        /* \"#utility.yul\":6143:6148   */\n      dup1\n        /* \"#utility.yul\":6172:6178   */\n      dup4\n        /* \"#utility.yul\":6165:6170   */\n      dup3\n        /* \"#utility.yul\":6158:6179   */\n      mstore\n        /* \"#utility.yul\":6206:6210   */\n      0x20\n        /* \"#utility.yul\":6199:6204   */\n      dup3\n        /* \"#utility.yul\":6195:6211   */\n      add\n        /* \"#utility.yul\":6188:6211   */\n      swap1\n      pop\n        /* \"#utility.yul\":6259:6263   */\n      0x20\n        /* \"#utility.yul\":6251:6257   */\n      dup5\n        /* \"#utility.yul\":6247:6264   */\n      mul\n        /* \"#utility.yul\":6239:6245   */\n      dup4\n        /* \"#utility.yul\":6235:6265   */\n      add\n        /* \"#utility.yul\":6288:6291   */\n      dup6\n        /* \"#utility.yul\":6280:6286   */\n      dup2\n        /* \"#utility.yul\":6277:6292   */\n      gt\n        /* \"#utility.yul\":6274:6396   */\n      iszero\n      tag_196\n      jumpi\n        /* \"#utility.yul\":6307:6386   */\n      tag_197\n      tag_109\n      jump\t// in\n    tag_197:\n        /* \"#utility.yul\":6274:6396   */\n    tag_196:\n        /* \"#utility.yul\":6422:6428   */\n      dup4\n        /* \"#utility.yul\":6405:6624   */\n    tag_198:\n        /* \"#utility.yul\":6439:6445   */\n      dup2\n        /* \"#utility.yul\":6434:6437   */\n      dup2\n        /* \"#utility.yul\":6431:6446   */\n      lt\n        /* \"#utility.yul\":6405:6624   */\n      iszero\n      tag_200\n      jumpi\n        /* \"#utility.yul\":6514:6517   */\n      dup1\n        /* \"#utility.yul\":6543:6579   */\n      tag_201\n        /* \"#utility.yul\":6575:6578   */\n      dup9\n        /* \"#utility.yul\":6563:6573   */\n      dup3\n        /* \"#utility.yul\":6543:6579   */\n      tag_92\n      jump\t// in\n    tag_201:\n        /* \"#utility.yul\":6538:6541   */\n      dup5\n        /* \"#utility.yul\":6531:6580   */\n      mstore\n        /* \"#utility.yul\":6609:6613   */\n      0x20\n        /* \"#utility.yul\":6604:6607   */\n      dup5\n        /* \"#utility.yul\":6600:6614   */\n      add\n        /* \"#utility.yul\":6593:6614   */\n      swap4\n      pop\n        /* \"#utility.yul\":6481:6624   */\n      pop\n        /* \"#utility.yul\":6465:6469   */\n      0x20\n        /* \"#utility.yul\":6460:6463   */\n      dup2\n        /* \"#utility.yul\":6456:6470   */\n      add\n        /* \"#utility.yul\":6449:6470   */\n      swap1\n      pop\n        /* \"#utility.yul\":6405:6624   */\n      jump(tag_198)\n    tag_200:\n        /* \"#utility.yul\":6409:6430   */\n      pop\n        /* \"#utility.yul\":6024:6630   */\n      pop\n      pop\n        /* \"#utility.yul\":5923:6630   */\n      swap4\n      swap3\n      pop\n      pop\n      pop\n      jump\t// out\n        /* \"#utility.yul\":6652:7020   */\n    tag_116:\n        /* \"#utility.yul\":6722:6727   */\n      0x00\n        /* \"#utility.yul\":6771:6774   */\n      dup3\n        /* \"#utility.yul\":6764:6768   */\n      0x1f\n        /* \"#utility.yul\":6756:6762   */\n      dup4\n        /* \"#utility.yul\":6752:6769   */\n      add\n        /* \"#utility.yul\":6748:6775   */\n      slt\n        /* \"#utility.yul\":6738:6860   */\n      tag_203\n      jumpi\n        /* \"#utility.yul\":6779:6858   */\n      tag_204\n      tag_103\n      jump\t// in\n    tag_204:\n        /* \"#utility.yul\":6738:6860   */\n    tag_203:\n        /* \"#utility.yul\":6896:6902   */\n      dup2\n        /* \"#utility.yul\":6883:6903   */\n      calldataload\n        /* \"#utility.yul\":6921:7014   */\n      tag_205\n        /* \"#utility.yul\":7010:7013   */\n      dup5\n        /* \"#utility.yul\":7002:7008   */\n      dup3\n        /* \"#utility.yul\":6995:6999   */\n      0x20\n        /* \"#utility.yul\":6987:6993   */\n      dup7\n        /* \"#utility.yul\":6983:7000   */\n      add\n        /* \"#utility.yul\":6921:7014   */\n      tag_115\n      jump\t// in\n    tag_205:\n        /* \"#utility.yul\":6912:7014   */\n      swap2\n      pop\n        /* \"#utility.yul\":6728:7020   */\n      pop\n        /* \"#utility.yul\":6652:7020   */\n      swap3\n      swap2\n      pop\n      pop\n      jump\t// out\n        /* \"#utility.yul\":7078:7850   */\n    tag_117:\n        /* \"#utility.yul\":7159:7164   */\n      0x00\n        /* \"#utility.yul\":7203:7207   */\n      0x40\n        /* \"#utility.yul\":7191:7200   */\n      dup3\n        /* \"#utility.yul\":7186:7189   */\n      dup5\n        /* \"#utility.yul\":7182:7201   */\n      sub\n        /* \"#utility.yul\":7178:7208   */\n      slt\n        /* \"#utility.yul\":7175:7292   */\n      iszero\n      tag_207\n      jumpi\n        /* \"#utility.yul\":7211:7290   */\n      tag_208\n      tag_110\n      jump\t// in\n    tag_208:\n        /* \"#utility.yul\":7175:7292   */\n    tag_207:\n        /* \"#utility.yul\":7310:7331   */\n      tag_209\n        /* \"#utility.yul\":7326:7330   */\n      0x40\n        /* \"#utility.yul\":7310:7331   */\n      tag_107\n      jump\t// in\n    tag_209:\n        /* \"#utility.yul\":7301:7331   */\n      swap1\n      pop\n        /* \"#utility.yul\":7392:7393   */\n      0x00\n        /* \"#utility.yul\":7432:7481   */\n      tag_210\n        /* \"#utility.yul\":7477:7480   */\n      dup5\n        /* \"#utility.yul\":7468:7474   */\n      dup3\n        /* \"#utility.yul\":7457:7466   */\n      dup6\n        /* \"#utility.yul\":7453:7475   */\n      add\n        /* \"#utility.yul\":7432:7481   */\n      tag_113\n      jump\t// in\n    tag_210:\n        /* \"#utility.yul\":7425:7429   */\n      0x00\n        /* \"#utility.yul\":7418:7423   */\n      dup4\n        /* \"#utility.yul\":7414:7430   */\n      add\n        /* \"#utility.yul\":7407:7482   */\n      mstore\n        /* \"#utility.yul\":7341:7493   */\n      pop\n        /* \"#utility.yul\":7585:7587   */\n      0x20\n        /* \"#utility.yul\":7574:7583   */\n      dup3\n        /* \"#utility.yul\":7570:7588   */\n      add\n        /* \"#utility.yul\":7557:7589   */\n      calldataload\n        /* \"#utility.yul\":7616:7634   */\n      0xffffffffffffffff\n        /* \"#utility.yul\":7608:7614   */\n      dup2\n        /* \"#utility.yul\":7605:7635   */\n      gt\n        /* \"#utility.yul\":7602:7719   */\n      iszero\n      tag_211\n      jumpi\n        /* \"#utility.yul\":7638:7717   */\n      tag_212\n      tag_111\n      jump\t// in\n    tag_212:\n        /* \"#utility.yul\":7602:7719   */\n    tag_211:\n        /* \"#utility.yul\":7758:7831   */\n      tag_213\n        /* \"#utility.yul\":7827:7830   */\n      dup5\n        /* \"#utility.yul\":7818:7824   */\n      dup3\n        /* \"#utility.yul\":7807:7816   */\n      dup6\n        /* \"#utility.yul\":7803:7825   */\n      add\n        /* \"#utility.yul\":7758:7831   */\n      tag_116\n      jump\t// in\n    tag_213:\n        /* \"#utility.yul\":7751:7755   */\n      0x20\n        /* \"#utility.yul\":7744:7749   */\n      dup4\n        /* \"#utility.yul\":7740:7756   */\n      add\n        /* \"#utility.yul\":7733:7832   */\n      mstore\n        /* \"#utility.yul\":7503:7843   */\n      pop\n        /* \"#utility.yul\":7078:7850   */\n      swap3\n      swap2\n      pop\n      pop\n      jump\t// out\n        /* \"#utility.yul\":7910:8921   */\n    tag_118:\n        /* \"#utility.yul\":8038:8043   */\n      0x00\n        /* \"#utility.yul\":8063:8176   */\n      tag_215\n        /* \"#utility.yul\":8079:8175   */\n      tag_216\n        /* \"#utility.yul\":8168:8174   */\n      dup5\n        /* \"#utility.yul\":8079:8175   */\n      tag_108\n      jump\t// in\n    tag_216:\n        /* \"#utility.yul\":8063:8176   */\n      tag_107\n      jump\t// in\n    tag_215:\n        /* \"#utility.yul\":8054:8176   */\n      swap1\n      pop\n        /* \"#utility.yul\":8196:8201   */\n      dup1\n        /* \"#utility.yul\":8225:8231   */\n      dup4\n        /* \"#utility.yul\":8218:8223   */\n      dup3\n        /* \"#utility.yul\":8211:8232   */\n      mstore\n        /* \"#utility.yul\":8259:8263   */\n      0x20\n        /* \"#utility.yul\":8252:8257   */\n      dup3\n        /* \"#utility.yul\":8248:8264   */\n      add\n        /* \"#utility.yul\":8241:8264   */\n      swap1\n      pop\n        /* \"#utility.yul\":8312:8316   */\n      0x20\n        /* \"#utility.yul\":8304:8310   */\n      dup5\n        /* \"#utility.yul\":8300:8317   */\n      mul\n        /* \"#utility.yul\":8292:8298   */\n      dup4\n        /* \"#utility.yul\":8288:8318   */\n      add\n        /* \"#utility.yul\":8341:8344   */\n      dup6\n        /* \"#utility.yul\":8333:8339   */\n      dup2\n        /* \"#utility.yul\":8330:8345   */\n      gt\n        /* \"#utility.yul\":8327:8449   */\n      iszero\n      tag_217\n      jumpi\n        /* \"#utility.yul\":8360:8439   */\n      tag_218\n      tag_109\n      jump\t// in\n    tag_218:\n        /* \"#utility.yul\":8327:8449   */\n    tag_217:\n        /* \"#utility.yul\":8475:8481   */\n      dup4\n        /* \"#utility.yul\":8458:8915   */\n    tag_219:\n        /* \"#utility.yul\":8492:8498   */\n      dup2\n        /* \"#utility.yul\":8487:8490   */\n      dup2\n        /* \"#utility.yul\":8484:8499   */\n      lt\n        /* \"#utility.yul\":8458:8915   */\n      iszero\n      tag_221\n      jumpi\n        /* \"#utility.yul\":8581:8584   */\n      dup1\n        /* \"#utility.yul\":8568:8585   */\n      calldataload\n        /* \"#utility.yul\":8617:8635   */\n      0xffffffffffffffff\n        /* \"#utility.yul\":8604:8615   */\n      dup2\n        /* \"#utility.yul\":8601:8636   */\n      gt\n        /* \"#utility.yul\":8598:8720   */\n      iszero\n      tag_222\n      jumpi\n        /* \"#utility.yul\":8639:8718   */\n      tag_223\n      tag_103\n      jump\t// in\n    tag_223:\n        /* \"#utility.yul\":8598:8720   */\n    tag_222:\n        /* \"#utility.yul\":8763:8774   */\n      dup1\n        /* \"#utility.yul\":8755:8761   */\n      dup7\n        /* \"#utility.yul\":8751:8775   */\n      add\n        /* \"#utility.yul\":8801:8870   */\n      tag_224\n        /* \"#utility.yul\":8866:8869   */\n      dup10\n        /* \"#utility.yul\":8854:8864   */\n      dup3\n        /* \"#utility.yul\":8801:8870   */\n      tag_117\n      jump\t// in\n    tag_224:\n        /* \"#utility.yul\":8796:8799   */\n      dup6\n        /* \"#utility.yul\":8789:8871   */\n      mstore\n        /* \"#utility.yul\":8900:8904   */\n      0x20\n        /* \"#utility.yul\":8895:8898   */\n      dup6\n        /* \"#utility.yul\":8891:8905   */\n      add\n        /* \"#utility.yul\":8884:8905   */\n      swap5\n      pop\n        /* \"#utility.yul\":8534:8915   */\n      pop\n      pop\n        /* \"#utility.yul\":8518:8522   */\n      0x20\n        /* \"#utility.yul\":8513:8516   */\n      dup2\n        /* \"#utility.yul\":8509:8523   */\n      add\n        /* \"#utility.yul\":8502:8523   */\n      swap1\n      pop\n        /* \"#utility.yul\":8458:8915   */\n      jump(tag_219)\n    tag_221:\n        /* \"#utility.yul\":8462:8483   */\n      pop\n        /* \"#utility.yul\":8044:8921   */\n      pop\n      pop\n        /* \"#utility.yul\":7910:8921   */\n      swap4\n      swap3\n      pop\n      pop\n      pop\n      jump\t// out\n        /* \"#utility.yul\":8981:9415   */\n    tag_119:\n        /* \"#utility.yul\":9084:9089   */\n      0x00\n        /* \"#utility.yul\":9133:9136   */\n      dup3\n        /* \"#utility.yul\":9126:9130   */\n      0x1f\n        /* \"#utility.yul\":9118:9124   */\n      dup4\n        /* \"#utility.yul\":9114:9131   */\n      add\n        /* \"#utility.yul\":9110:9137   */\n      slt\n        /* \"#utility.yul\":9100:9222   */\n      tag_226\n      jumpi\n        /* \"#utility.yul\":9141:9220   */\n      tag_227\n      tag_103\n      jump\t// in\n    tag_227:\n        /* \"#utility.yul\":9100:9222   */\n    tag_226:\n        /* \"#utility.yul\":9258:9264   */\n      dup2\n        /* \"#utility.yul\":9245:9265   */\n      calldataload\n        /* \"#utility.yul\":9283:9409   */\n      tag_228\n        /* \"#utility.yul\":9405:9408   */\n      dup5\n        /* \"#utility.yul\":9397:9403   */\n      dup3\n        /* \"#utility.yul\":9390:9394   */\n      0x20\n        /* \"#utility.yul\":9382:9388   */\n      dup7\n        /* \"#utility.yul\":9378:9395   */\n      add\n        /* \"#utility.yul\":9283:9409   */\n      tag_118\n      jump\t// in\n    tag_228:\n        /* \"#utility.yul\":9274:9409   */\n      swap2\n      pop\n        /* \"#utility.yul\":9090:9415   */\n      pop\n        /* \"#utility.yul\":8981:9415   */\n      swap3\n      swap2\n      pop\n      pop\n      jump\t// out\n        /* \"#utility.yul\":9421:10024   */\n    tag_20:\n        /* \"#utility.yul\":9537:9543   */\n      0x00\n        /* \"#utility.yul\":9586:9588   */\n      0x20\n        /* \"#utility.yul\":9574:9583   */\n      dup3\n        /* \"#utility.yul\":9565:9572   */\n      dup5\n        /* \"#utility.yul\":9561:9584   */\n      sub\n        /* \"#utility.yul\":9557:9589   */\n      slt\n        /* \"#utility.yul\":9554:9673   */\n      iszero\n      tag_230\n      jumpi\n        /* \"#utility.yul\":9592:9671   */\n      tag_231\n      tag_88\n      jump\t// in\n    tag_231:\n        /* \"#utility.yul\":9554:9673   */\n    tag_230:\n        /* \"#utility.yul\":9740:9741   */\n      0x00\n        /* \"#utility.yul\":9729:9738   */\n      dup3\n        /* \"#utility.yul\":9725:9742   */\n      add\n        /* \"#utility.yul\":9712:9743   */\n      calldataload\n        /* \"#utility.yul\":9770:9788   */\n      0xffffffffffffffff\n        /* \"#utility.yul\":9762:9768   */\n      dup2\n        /* \"#utility.yul\":9759:9789   */\n      gt\n        /* \"#utility.yul\":9756:9873   */\n      iszero\n      tag_232\n      jumpi\n        /* \"#utility.yul\":9792:9871   */\n      tag_233\n      tag_89\n      jump\t// in\n    tag_233:\n        /* \"#utility.yul\":9756:9873   */\n    tag_232:\n        /* \"#utility.yul\":9897:10007   */\n      tag_234\n        /* \"#utility.yul\":9999:10006   */\n      dup5\n        /* \"#utility.yul\":9990:9996   */\n      dup3\n        /* \"#utility.yul\":9979:9988   */\n      dup6\n        /* \"#utility.yul\":9975:9997   */\n      add\n        /* \"#utility.yul\":9897:10007   */\n      tag_119\n      jump\t// in\n    tag_234:\n        /* \"#utility.yul\":9887:10007   */\n      swap2\n      pop\n        /* \"#utility.yul\":9683:10017   */\n      pop\n        /* \"#utility.yul\":9421:10024   */\n      swap3\n      swap2\n      pop\n      pop\n      jump\t// out\n        /* \"#utility.yul\":10030:10144   */\n    tag_120:\n        /* \"#utility.yul\":10097:10103   */\n      0x00\n        /* \"#utility.yul\":10131:10136   */\n      dup2\n        /* \"#utility.yul\":10125:10137   */\n      mload\n        /* \"#utility.yul\":10115:10137   */\n      swap1\n      pop\n        /* \"#utility.yul\":10030:10144   */\n      swap2\n      swap1\n      pop\n      jump\t// out\n        /* \"#utility.yul\":10150:10342   */\n    tag_121:\n        /* \"#utility.yul\":10257:10268   */\n      0x00\n        /* \"#utility.yul\":10291:10297   */\n      dup3\n        /* \"#utility.yul\":10286:10289   */\n      dup3\n        /* \"#utility.yul\":10279:10298   */\n      mstore\n        /* \"#utility.yul\":10331:10335   */\n      0x20\n        /* \"#utility.yul\":10326:10329   */\n      dup3\n        /* \"#utility.yul\":10322:10336   */\n      add\n        /* \"#utility.yul\":10307:10336   */\n      swap1\n      pop\n        /* \"#utility.yul\":10150:10342   */\n      swap3\n      swap2\n      pop\n      pop\n      jump\t// out\n        /* \"#utility.yul\":10348:10480   */\n    tag_122:\n        /* \"#utility.yul\":10415:10419   */\n      0x00\n        /* \"#utility.yul\":10438:10441   */\n      dup2\n        /* \"#utility.yul\":10430:10441   */\n      swap1\n      pop\n        /* \"#utility.yul\":10468:10472   */\n      0x20\n        /* \"#utility.yul\":10463:10466   */\n      dup3\n        /* \"#utility.yul\":10459:10473   */\n      add\n        /* \"#utility.yul\":10451:10473   */\n      swap1\n      pop\n        /* \"#utility.yul\":10348:10480   */\n      swap2\n      swap1\n      pop\n      jump\t// out\n        /* \"#utility.yul\":10486:10602   */\n    tag_123:\n        /* \"#utility.yul\":10571:10595   */\n      tag_239\n        /* \"#utility.yul\":10589:10594   */\n      dup2\n        /* \"#utility.yul\":10571:10595   */\n      tag_94\n      jump\t// in\n    tag_239:\n        /* \"#utility.yul\":10566:10569   */\n      dup3\n        /* \"#utility.yul\":10559:10596   */\n      mstore\n        /* \"#utility.yul\":10486:10602   */\n      pop\n      pop\n      jump\t// out\n        /* \"#utility.yul\":10608:10803   */\n    tag_124:\n        /* \"#utility.yul\":10685:10695   */\n      0x00\n        /* \"#utility.yul\":10706:10760   */\n      tag_241\n        /* \"#utility.yul\":10756:10759   */\n      dup4\n        /* \"#utility.yul\":10748:10754   */\n      dup4\n        /* \"#utility.yul\":10706:10760   */\n      tag_123\n      jump\t// in\n    tag_241:\n        /* \"#utility.yul\":10792:10796   */\n      0x20\n        /* \"#utility.yul\":10787:10790   */\n      dup4\n        /* \"#utility.yul\":10783:10797   */\n      add\n        /* \"#utility.yul\":10769:10797   */\n      swap1\n      pop\n        /* \"#utility.yul\":10608:10803   */\n      swap3\n      swap2\n      pop\n      pop\n      jump\t// out\n        /* \"#utility.yul\":10809:10922   */\n    tag_125:\n        /* \"#utility.yul\":10879:10883   */\n      0x00\n        /* \"#utility.yul\":10911:10915   */\n      0x20\n        /* \"#utility.yul\":10906:10909   */\n      dup3\n        /* \"#utility.yul\":10902:10916   */\n      add\n        /* \"#utility.yul\":10894:10916   */\n      swap1\n      pop\n        /* \"#utility.yul\":10809:10922   */\n      swap2\n      swap1\n      pop\n      jump\t// out\n        /* \"#utility.yul\":10958:11714   */\n    tag_126:\n        /* \"#utility.yul\":11085:11088   */\n      0x00\n        /* \"#utility.yul\":11114:11168   */\n      tag_244\n        /* \"#utility.yul\":11162:11167   */\n      dup3\n        /* \"#utility.yul\":11114:11168   */\n      tag_120\n      jump\t// in\n    tag_244:\n        /* \"#utility.yul\":11184:11278   */\n      tag_245\n        /* \"#utility.yul\":11271:11277   */\n      dup2\n        /* \"#utility.yul\":11266:11269   */\n      dup6\n        /* \"#utility.yul\":11184:11278   */\n      tag_121\n      jump\t// in\n    tag_245:\n        /* \"#utility.yul\":11177:11278   */\n      swap4\n      pop\n        /* \"#utility.yul\":11302:11358   */\n      tag_246\n        /* \"#utility.yul\":11352:11357   */\n      dup4\n        /* \"#utility.yul\":11302:11358   */\n      tag_122\n      jump\t// in\n    tag_246:\n        /* \"#utility.yul\":11381:11388   */\n      dup1\n        /* \"#utility.yul\":11412:11413   */\n      0x00\n        /* \"#utility.yul\":11397:11689   */\n    tag_247:\n        /* \"#utility.yul\":11422:11428   */\n      dup4\n        /* \"#utility.yul\":11419:11420   */\n      dup2\n        /* \"#utility.yul\":11416:11429   */\n      lt\n        /* \"#utility.yul\":11397:11689   */\n      iszero\n      tag_249\n      jumpi\n        /* \"#utility.yul\":11498:11504   */\n      dup2\n        /* \"#utility.yul\":11492:11505   */\n      mload\n        /* \"#utility.yul\":11525:11596   */\n      tag_250\n        /* \"#utility.yul\":11592:11595   */\n      dup9\n        /* \"#utility.yul\":11577:11590   */\n      dup3\n        /* \"#utility.yul\":11525:11596   */\n      tag_124\n      jump\t// in\n    tag_250:\n        /* \"#utility.yul\":11518:11596   */\n      swap8\n      pop\n        /* \"#utility.yul\":11619:11679   */\n      tag_251\n        /* \"#utility.yul\":11672:11678   */\n      dup4\n        /* \"#utility.yul\":11619:11679   */\n      tag_125\n      jump\t// in\n    tag_251:\n        /* \"#utility.yul\":11609:11679   */\n      swap3\n      pop\n        /* \"#utility.yul\":11457:11689   */\n      pop\n        /* \"#utility.yul\":11444:11445   */\n      0x01\n        /* \"#utility.yul\":11441:11442   */\n      dup2\n        /* \"#utility.yul\":11437:11446   */\n      add\n        /* \"#utility.yul\":11432:11446   */\n      swap1\n      pop\n        /* \"#utility.yul\":11397:11689   */\n      jump(tag_247)\n    tag_249:\n        /* \"#utility.yul\":11401:11415   */\n      pop\n        /* \"#utility.yul\":11705:11708   */\n      dup6\n        /* \"#utility.yul\":11698:11708   */\n      swap4\n      pop\n        /* \"#utility.yul\":11090:11714   */\n      pop\n      pop\n      pop\n        /* \"#utility.yul\":10958:11714   */\n      swap3\n      swap2\n      pop\n      pop\n      jump\t// out\n        /* \"#utility.yul\":11720:12109   */\n    tag_29:\n        /* \"#utility.yul\":11871:11875   */\n      0x00\n        /* \"#utility.yul\":11909:11911   */\n      0x20\n        /* \"#utility.yul\":11898:11907   */\n      dup3\n        /* \"#utility.yul\":11894:11912   */\n      add\n        /* \"#utility.yul\":11886:11912   */\n      swap1\n      pop\n        /* \"#utility.yul\":11958:11967   */\n      dup2\n        /* \"#utility.yul\":11952:11956   */\n      dup2\n        /* \"#utility.yul\":11948:11968   */\n      sub\n        /* \"#utility.yul\":11944:11945   */\n      0x00\n        /* \"#utility.yul\":11933:11942   */\n      dup4\n        /* \"#utility.yul\":11929:11946   */\n      add\n        /* \"#utility.yul\":11922:11969   */\n      mstore\n        /* \"#utility.yul\":11986:12102   */\n      tag_253\n        /* \"#utility.yul\":12097:12101   */\n      dup2\n        /* \"#utility.yul\":12088:12094   */\n      dup5\n        /* \"#utility.yul\":11986:12102   */\n      tag_126\n      jump\t// in\n    tag_253:\n        /* \"#utility.yul\":11978:12102   */\n      swap1\n      pop\n        /* \"#utility.yul\":11720:12109   */\n      swap3\n      swap2\n      pop\n      pop\n      jump\t// out\n        /* \"#utility.yul\":12115:12295   */\n    tag_44:\n        /* \"#utility.yul\":12163:12240   */\n      0x4e487b7100000000000000000000000000000000000000000000000000000000\n        /* \"#utility.yul\":12160:12161   */\n      0x00\n        /* \"#utility.yul\":12153:12241   */\n      mstore\n        /* \"#utility.yul\":12260:12264   */\n      0x32\n        /* \"#utility.yul\":12257:12258   */\n      0x04\n        /* \"#utility.yul\":12250:12265   */\n      mstore\n        /* \"#utility.yul\":12284:12288   */\n      0x24\n        /* \"#utility.yul\":12281:12282   */\n      0x00\n        /* \"#utility.yul\":12274:12289   */\n      revert\n        /* \"#utility.yul\":12301:12419   */\n    tag_127:\n        /* \"#utility.yul\":12388:12412   */\n      tag_256\n        /* \"#utility.yul\":12406:12411   */\n      dup2\n        /* \"#utility.yul\":12388:12412   */\n      tag_94\n      jump\t// in\n    tag_256:\n        /* \"#utility.yul\":12383:12386   */\n      dup3\n        /* \"#utility.yul\":12376:12413   */\n      mstore\n        /* \"#utility.yul\":12301:12419   */\n      pop\n      pop\n      jump\t// out\n        /* \"#utility.yul\":12425:12540   */\n    tag_128:\n        /* \"#utility.yul\":12510:12533   */\n      tag_258\n        /* \"#utility.yul\":12527:12532   */\n      dup2\n        /* \"#utility.yul\":12510:12533   */\n      tag_90\n      jump\t// in\n    tag_258:\n        /* \"#utility.yul\":12505:12508   */\n      dup3\n        /* \"#utility.yul\":12498:12534   */\n      mstore\n        /* \"#utility.yul\":12425:12540   */\n      pop\n      pop\n      jump\t// out\n        /* \"#utility.yul\":12546:12984   */\n    tag_61:\n        /* \"#utility.yul\":12693:12697   */\n      0x00\n        /* \"#utility.yul\":12731:12733   */\n      0x60\n        /* \"#utility.yul\":12720:12729   */\n      dup3\n        /* \"#utility.yul\":12716:12734   */\n      add\n        /* \"#utility.yul\":12708:12734   */\n      swap1\n      pop\n        /* \"#utility.yul\":12744:12815   */\n      tag_260\n        /* \"#utility.yul\":12812:12813   */\n      0x00\n        /* \"#utility.yul\":12801:12810   */\n      dup4\n        /* \"#utility.yul\":12797:12814   */\n      add\n        /* \"#utility.yul\":12788:12794   */\n      dup7\n        /* \"#utility.yul\":12744:12815   */\n      tag_127\n      jump\t// in\n    tag_260:\n        /* \"#utility.yul\":12825:12897   */\n      tag_261\n        /* \"#utility.yul\":12893:12895   */\n      0x20\n        /* \"#utility.yul\":12882:12891   */\n      dup4\n        /* \"#utility.yul\":12878:12896   */\n      add\n        /* \"#utility.yul\":12869:12875   */\n      dup6\n        /* \"#utility.yul\":12825:12897   */\n      tag_127\n      jump\t// in\n    tag_261:\n        /* \"#utility.yul\":12907:12977   */\n      tag_262\n        /* \"#utility.yul\":12973:12975   */\n      0x40\n        /* \"#utility.yul\":12962:12971   */\n      dup4\n        /* \"#utility.yul\":12958:12976   */\n      add\n        /* \"#utility.yul\":12949:12955   */\n      dup5\n        /* \"#utility.yul\":12907:12977   */\n      tag_128\n      jump\t// in\n    tag_262:\n        /* \"#utility.yul\":12546:12984   */\n      swap5\n      swap4\n      pop\n      pop\n      pop\n      pop\n      jump\t// out\n\n    auxdata: 0xa2646970667358221220ee523965697dc5106a46004ed4d5d59e433fbb150879375495fdb1c1c023a8a264736f6c634300081e0033\n}\n",
				"bytecode": {
					"linkReferences": {},
					"object": "610f6f61004d600b8282823980515f1a6073146041577f4e487b71000000000000000000000000000000000000000000000000000000005f525f60045260245ffd5b305f52607381538281f3fe7300000000000000000000000000000000000000003014608060405260043610610060575f3560e01c806320e63d2a146100645780634b503f0b14610094578063a8f64352146100b2578063dcef0069146100da578063dfb808311461010a575b5f5ffd5b61007e60048036038101906100799190610978565b610128565b60405161008b91906109e2565b60405180910390f35b61009c6101e4565b6040516100a99190610ab2565b60405180910390f35b8180156100bd575f5ffd5b506100d860048036038101906100d39190610d9b565b6102c1565b005b6100f460048036038101906100ef9190610978565b610595565b60405161010191906109e2565b60405180910390f35b610112610651565b60405161011f9190610e99565b60405180910390f35b5f61016e6040518060400160405280600d81526020017f44796e616d6963526f757465720000000000000000000000000000000000000081525080519060200120610722565b5f015f837bffffffffffffffffffffffffffffffffffffffffffffffffffffffff19167bffffffffffffffffffffffffffffffffffffffffffffffffffffffff191681526020019081526020015f205f9054906101000a900473ffffffffffffffffffffffffffffffffffffffff169050919050565b606061022b6040518060400160405280600d81526020017f44796e616d6963526f757465720000000000000000000000000000000000000081525080519060200120610722565b6001018054806020026020016040519081016040528092919081815260200182805480156102b757602002820191905f5260205f20905f905b82829054906101000a900460e01b7bffffffffffffffffffffffffffffffffffffffffffffffffffffffff1916815260200190600401906020826003010492830192600103820291508084116102645790505b5050505050905090565b5f6103076040518060400160405280600d81526020017f44796e616d6963526f757465720000000000000000000000000000000000000081525080519060200120610722565b90505f5f90505b8251811015610590575f83828151811061032b5761032a610eb9565b5b602002602001015190505f5f90505b816020015151811015610583575f8260200151828151811061035f5761035e610eb9565b5b602002602001015190505f835f015190506103798261072b565b1580156103b257505f73ffffffffffffffffffffffffffffffffffffffff168173ffffffffffffffffffffffffffffffffffffffff1614155b15610403578560010182908060018154018082558091505060019003905f5260205f2090600891828204019190066004029091909190916101000a81548163ffffffff021916908360e01c02179055505b61040c81610824565b15801561044557505f73ffffffffffffffffffffffffffffffffffffffff168173ffffffffffffffffffffffffffffffffffffffff1614155b156104ad578560020181908060018154018082558091505060019003905f5260205f20015f9091909190916101000a81548173ffffffffffffffffffffffffffffffffffffffff021916908373ffffffffffffffffffffffffffffffffffffffff1602179055505b80865f015f847bffffffffffffffffffffffffffffffffffffffffffffffffffffffff19167bffffffffffffffffffffffffffffffffffffffffffffffffffffffff191681526020019081526020015f205f6101000a81548173ffffffffffffffffffffffffffffffffffffffff021916908373ffffffffffffffffffffffffffffffffffffffff1602179055507f314760e63cd5315a4cf28c679a1885b84249533d4156a7ebd02675626493a25533828460405161056e93929190610f04565b60405180910390a1505080600101905061033a565b505080600101905061030e565b505050565b5f6105db6040518060400160405280600d81526020017f44796e616d6963526f757465720000000000000000000000000000000000000081525080519060200120610722565b5f015f837bffffffffffffffffffffffffffffffffffffffffffffffffffffffff19167bffffffffffffffffffffffffffffffffffffffffffffffffffffffff191681526020019081526020015f205f9054906101000a900473ffffffffffffffffffffffffffffffffffffffff169050919050565b60606106986040518060400160405280600d81526020017f44796e616d6963526f757465720000000000000000000000000000000000000081525080519060200120610722565b60020180548060200260200160405190810160405280929190818152602001828054801561071857602002820191905f5260205f20905b815f9054906101000a900473ffffffffffffffffffffffffffffffffffffffff1673ffffffffffffffffffffffffffffffffffffffff16815260200190600101908083116106cf575b5050505050905090565b5f819050919050565b5f5f6107726040518060400160405280600d81526020017f44796e616d6963526f757465720000000000000000000000000000000000000081525080519060200120610722565b90505f5f90505b81600101805490508110156108195781600101818154811061079e5761079d610eb9565b5b905f5260205f2090600891828204019190066004029054906101000a900460e01b7bffffffffffffffffffffffffffffffffffffffffffffffffffffffff1916847bffffffffffffffffffffffffffffffffffffffffffffffffffffffff19160361080e5760019250505061081f565b806001019050610779565b505f9150505b919050565b5f5f61086b6040518060400160405280600d81526020017f44796e616d6963526f757465720000000000000000000000000000000000000081525080519060200120610722565b90505f5f90505b81600201805490508110156109075781600201818154811061089757610896610eb9565b5b905f5260205f20015f9054906101000a900473ffffffffffffffffffffffffffffffffffffffff1673ffffffffffffffffffffffffffffffffffffffff168473ffffffffffffffffffffffffffffffffffffffff16036108fc5760019250505061090d565b806001019050610872565b505f9150505b919050565b5f604051905090565b5f5ffd5b5f5ffd5b5f7fffffffff0000000000000000000000000000000000000000000000000000000082169050919050565b61095781610923565b8114610961575f5ffd5b50565b5f813590506109728161094e565b92915050565b5f6020828403121561098d5761098c61091b565b5b5f61099a84828501610964565b91505092915050565b5f73ffffffffffffffffffffffffffffffffffffffff82169050919050565b5f6109cc826109a3565b9050919050565b6109dc816109c2565b82525050565b5f6020820190506109f55f8301846109d3565b92915050565b5f81519050919050565b5f82825260208201905092915050565b5f819050602082019050919050565b610a2d81610923565b82525050565b5f610a3e8383610a24565b60208301905092915050565b5f602082019050919050565b5f610a60826109fb565b610a6a8185610a05565b9350610a7583610a15565b805f5b83811015610aa5578151610a8c8882610a33565b9750610a9783610a4a565b925050600181019050610a78565b5085935050505092915050565b5f6020820190508181035f830152610aca8184610a56565b905092915050565b5f5ffd5b5f601f19601f8301169050919050565b7f4e487b71000000000000000000000000000000000000000000000000000000005f52604160045260245ffd5b610b1c82610ad6565b810181811067ffffffffffffffff82111715610b3b57610b3a610ae6565b5b80604052505050565b5f610b4d610912565b9050610b598282610b13565b919050565b5f67ffffffffffffffff821115610b7857610b77610ae6565b5b602082029050602081019050919050565b5f5ffd5b5f5ffd5b5f5ffd5b610b9e816109c2565b8114610ba8575f5ffd5b50565b5f81359050610bb981610b95565b92915050565b5f67ffffffffffffffff821115610bd957610bd8610ae6565b5b602082029050602081019050919050565b5f610bfc610bf784610bbf565b610b44565b90508083825260208201905060208402830185811115610c1f57610c1e610b89565b5b835b81811015610c485780610c348882610964565b845260208401935050602081019050610c21565b5050509392505050565b5f82601f830112610c6657610c65610ad2565b5b8135610c76848260208601610bea565b91505092915050565b5f60408284031215610c9457610c93610b8d565b5b610c9e6040610b44565b90505f610cad84828501610bab565b5f83015250602082013567ffffffffffffffff811115610cd057610ccf610b91565b5b610cdc84828501610c52565b60208301525092915050565b5f610cfa610cf584610b5e565b610b44565b90508083825260208201905060208402830185811115610d1d57610d1c610b89565b5b835b81811015610d6457803567ffffffffffffffff811115610d4257610d41610ad2565b5b808601610d4f8982610c7f565b85526020850194505050602081019050610d1f565b5050509392505050565b5f82601f830112610d8257610d81610ad2565b5b8135610d92848260208601610ce8565b91505092915050565b5f60208284031215610db057610daf61091b565b5b5f82013567ffffffffffffffff811115610dcd57610dcc61091f565b5b610dd984828501610d6e565b91505092915050565b5f81519050919050565b5f82825260208201905092915050565b5f819050602082019050919050565b610e14816109c2565b82525050565b5f610e258383610e0b565b60208301905092915050565b5f602082019050919050565b5f610e4782610de2565b610e518185610dec565b9350610e5c83610dfc565b805f5b83811015610e8c578151610e738882610e1a565b9750610e7e83610e31565b925050600181019050610e5f565b5085935050505092915050565b5f6020820190508181035f830152610eb18184610e3d565b905092915050565b7f4e487b71000000000000000000000000000000000000000000000000000000005f52603260045260245ffd5b610eef816109c2565b82525050565b610efe81610923565b82525050565b5f606082019050610f175f830186610ee6565b610f246020830185610ee6565b610f316040830184610ef5565b94935050505056fea2646970667358221220ee523965697dc5106a46004ed4d5d59e433fbb150879375495fdb1c1c023a8a264736f6c634300081e0033",
					"opcodes": "PUSH2 0xF6F PUSH2 0x4D PUSH1 0xB DUP3 DUP3 DUP3 CODECOPY DUP1 MLOAD PUSH0 BYTE PUSH1 0x73 EQ PUSH1 0x41 JUMPI PUSH32 0x4E487B7100000000000000000000000000000000000000000000000000000000 PUSH0 MSTORE PUSH0 PUSH1 0x4 MSTORE PUSH1 0x24 PUSH0 REVERT JUMPDEST ADDRESS PUSH0 MSTORE PUSH1 0x73 DUP2 MSTORE8 DUP3 DUP2 RETURN INVALID PUSH20 0x0 ADDRESS EQ PUSH1 0x80 PUSH1 0x40 MSTORE PUSH1 0x4 CALLDATASIZE LT PUSH2 0x60 JUMPI PUSH0 CALLDATALOAD PUSH1 0xE0 SHR DUP1 PUSH4 0x20E63D2A EQ PUSH2 0x64 JUMPI DUP1 PUSH4 0x4B503F0B EQ PUSH2 0x94 JUMPI DUP1 PUSH4 0xA8F64352 EQ PUSH2 0xB2 JUMPI DUP1 PUSH4 0xDCEF0069 EQ PUSH2 0xDA JUMPI DUP1 PUSH4 0xDFB80831 EQ PUSH2 0x10A JUMPI JUMPDEST PUSH0 PUSH0 REVERT JUMPDEST PUSH2 0x7E PUSH1 0x4 DUP1 CALLDATASIZE SUB DUP2 ADD SWAP1 PUSH2 0x79 SWAP2 SWAP1 PUSH2 0x978 JUMP JUMPDEST PUSH2 0x128 JUMP JUMPDEST PUSH1 0x40 MLOAD PUSH2 0x8B SWAP2 SWAP1 PUSH2 0x9E2 JUMP JUMPDEST PUSH1 0x40 MLOAD DUP1 SWAP2 SUB SWAP1 RETURN JUMPDEST PUSH2 0x9C PUSH2 0x1E4 JUMP JUMPDEST PUSH1 0x40 MLOAD PUSH2 0xA9 SWAP2 SWAP1 PUSH2 0xAB2 JUMP JUMPDEST PUSH1 0x40 MLOAD DUP1 SWAP2 SUB SWAP1 RETURN JUMPDEST DUP2 DUP1 ISZERO PUSH2 0xBD JUMPI PUSH0 PUSH0 REVERT JUMPDEST POP PUSH2 0xD8 PUSH1 0x4 DUP1 CALLDATASIZE SUB DUP2 ADD SWAP1 PUSH2 0xD3 SWAP2 SWAP1 PUSH2 0xD9B JUMP JUMPDEST PUSH2 0x2C1 JUMP JUMPDEST STOP JUMPDEST PUSH2 0xF4 PUSH1 0x4 DUP1 CALLDATASIZE SUB DUP2 ADD SWAP1 PUSH2 0xEF SWAP2 SWAP1 PUSH2 0x978 JUMP JUMPDEST PUSH2 0x595 JUMP JUMPDEST PUSH1 0x40 MLOAD PUSH2 0x101 SWAP2 SWAP1 PUSH2 0x9E2 JUMP JUMPDEST PUSH1 0x40 MLOAD DUP1 SWAP2 SUB SWAP1 RETURN JUMPDEST PUSH2 0x112 PUSH2 0x651 JUMP JUMPDEST PUSH1 0x40 MLOAD PUSH2 0x11F SWAP2 SWAP1 PUSH2 0xE99 JUMP JUMPDEST PUSH1 0x40 MLOAD DUP1 SWAP2 SUB SWAP1 RETURN JUMPDEST PUSH0 PUSH2 0x16E PUSH1 0x40 MLOAD DUP1 PUSH1 0x40 ADD PUSH1 0x40 MSTORE DUP1 PUSH1 0xD DUP2 MSTORE PUSH1 0x20 ADD PUSH32 0x44796E616D6963526F7574657200000000000000000000000000000000000000 DUP2 MSTORE POP DUP1 MLOAD SWAP1 PUSH1 0x20 ADD KECCAK256 PUSH2 0x722 JUMP JUMPDEST PUSH0 ADD PUSH0 DUP4 PUSH28 0xFFFFFFFFFFFFFFFFFFFFFFFFFFFFFFFFFFFFFFFFFFFFFFFFFFFFFFFF NOT AND PUSH28 0xFFFFFFFFFFFFFFFFFFFFFFFFFFFFFFFFFFFFFFFFFFFFFFFFFFFFFFFF NOT AND DUP2 MSTORE PUSH1 0x20 ADD SWAP1 DUP2 MSTORE PUSH1 0x20 ADD PUSH0 KECCAK256 PUSH0 SWAP1 SLOAD SWAP1 PUSH2 0x100 EXP SWAP1 DIV PUSH20 0xFFFFFFFFFFFFFFFFFFFFFFFFFFFFFFFFFFFFFFFF AND SWAP1 POP SWAP2 SWAP1 POP JUMP JUMPDEST PUSH1 0x60 PUSH2 0x22B PUSH1 0x40 MLOAD DUP1 PUSH1 0x40 ADD PUSH1 0x40 MSTORE DUP1 PUSH1 0xD DUP2 MSTORE PUSH1 0x20 ADD PUSH32 0x44796E616D6963526F7574657200000000000000000000000000000000000000 DUP2 MSTORE POP DUP1 MLOAD SWAP1 PUSH1 0x20 ADD KECCAK256 PUSH2 0x722 JUMP JUMPDEST PUSH1 0x1 ADD DUP1 SLOAD DUP1 PUSH1 0x20 MUL PUSH1 0x20 ADD PUSH1 0x40 MLOAD SWAP1 DUP2 ADD PUSH1 0x40 MSTORE DUP1 SWAP3 SWAP2 SWAP1 DUP2 DUP2 MSTORE PUSH1 0x20 ADD DUP3 DUP1 SLOAD DUP1 ISZERO PUSH2 0x2B7 JUMPI PUSH1 0x20 MUL DUP3 ADD SWAP2 SWAP1 PUSH0 MSTORE PUSH1 0x20 PUSH0 KECCAK256 SWAP1 PUSH0 SWAP1 JUMPDEST DUP3 DUP3 SWAP1 SLOAD SWAP1 PUSH2 0x100 EXP SWAP1 DIV PUSH1 0xE0 SHL PUSH28 0xFFFFFFFFFFFFFFFFFFFFFFFFFFFFFFFFFFFFFFFFFFFFFFFFFFFFFFFF NOT AND DUP2 MSTORE PUSH1 0x20 ADD SWAP1 PUSH1 0x4 ADD SWAP1 PUSH1 0x20 DUP3 PUSH1 0x3 ADD DIV SWAP3 DUP4 ADD SWAP3 PUSH1 0x1 SUB DUP3 MUL SWAP2 POP DUP1 DUP5 GT PUSH2 0x264 JUMPI SWAP1 POP JUMPDEST POP POP POP POP POP SWAP1 POP SWAP1 JUMP JUMPDEST PUSH0 PUSH2 0x307 PUSH1 0x40 MLOAD DUP1 PUSH1 0x40 ADD PUSH1 0x40 MSTORE DUP1 PUSH1 0xD DUP2 MSTORE PUSH1 0x20 ADD PUSH32 0x44796E616D6963526F7574657200000000000000000000000000000000000000 DUP2 MSTORE POP DUP1 MLOAD SWAP1 PUSH1 0x20 ADD KECCAK256 PUSH2 0x722 JUMP JUMPDEST SWAP1 POP PUSH0 PUSH0 SWAP1 POP JUMPDEST DUP3 MLOAD DUP2 LT ISZERO PUSH2 0x590 JUMPI PUSH0 DUP4 DUP3 DUP2 MLOAD DUP2 LT PUSH2 0x32B JUMPI PUSH2 0x32A PUSH2 0xEB9 JUMP JUMPDEST JUMPDEST PUSH1 0x20 MUL PUSH1 0x20 ADD ADD MLOAD SWAP1 POP PUSH0 PUSH0 SWAP1 POP JUMPDEST DUP2 PUSH1 0x20 ADD MLOAD MLOAD DUP2 LT ISZERO PUSH2 0x583 JUMPI PUSH0 DUP3 PUSH1 0x20 ADD MLOAD DUP3 DUP2 MLOAD DUP2 LT PUSH2 0x35F JUMPI PUSH2 0x35E PUSH2 0xEB9 JUMP JUMPDEST JUMPDEST PUSH1 0x20 MUL PUSH1 0x20 ADD ADD MLOAD SWAP1 POP PUSH0 DUP4 PUSH0 ADD MLOAD SWAP1 POP PUSH2 0x379 DUP3 PUSH2 0x72B JUMP JUMPDEST ISZERO DUP1 ISZERO PUSH2 0x3B2 JUMPI POP PUSH0 PUSH20 0xFFFFFFFFFFFFFFFFFFFFFFFFFFFFFFFFFFFFFFFF AND DUP2 PUSH20 0xFFFFFFFFFFFFFFFFFFFFFFFFFFFFFFFFFFFFFFFF AND EQ ISZERO JUMPDEST ISZERO PUSH2 0x403 JUMPI DUP6 PUSH1 0x1 ADD DUP3 SWAP1 DUP1 PUSH1 0x1 DUP2 SLOAD ADD DUP1 DUP3 SSTORE DUP1 SWAP2 POP POP PUSH1 0x1 SWAP1 SUB SWAP1 PUSH0 MSTORE PUSH1 0x20 PUSH0 KECCAK256 SWAP1 PUSH1 0x8 SWAP2 DUP3 DUP3 DIV ADD SWAP2 SWAP1 MOD PUSH1 0x4 MUL SWAP1 SWAP2 SWAP1 SWAP2 SWAP1 SWAP2 PUSH2 0x100 EXP DUP2 SLOAD DUP2 PUSH4 0xFFFFFFFF MUL NOT AND SWAP1 DUP4 PUSH1 0xE0 SHR MUL OR SWAP1 SSTORE POP JUMPDEST PUSH2 0x40C DUP2 PUSH2 0x824 JUMP JUMPDEST ISZERO DUP1 ISZERO PUSH2 0x445 JUMPI POP PUSH0 PUSH20 0xFFFFFFFFFFFFFFFFFFFFFFFFFFFFFFFFFFFFFFFF AND DUP2 PUSH20 0xFFFFFFFFFFFFFFFFFFFFFFFFFFFFFFFFFFFFFFFF AND EQ ISZERO JUMPDEST ISZERO PUSH2 0x4AD JUMPI DUP6 PUSH1 0x2 ADD DUP2 SWAP1 DUP1 PUSH1 0x1 DUP2 SLOAD ADD DUP1 DUP3 SSTORE DUP1 SWAP2 POP POP PUSH1 0x1 SWAP1 SUB SWAP1 PUSH0 MSTORE PUSH1 0x20 PUSH0 KECCAK256 ADD PUSH0 SWAP1 SWAP2 SWAP1 SWAP2 SWAP1 SWAP2 PUSH2 0x100 EXP DUP2 SLOAD DUP2 PUSH20 0xFFFFFFFFFFFFFFFFFFFFFFFFFFFFFFFFFFFFFFFF MUL NOT AND SWAP1 DUP4 PUSH20 0xFFFFFFFFFFFFFFFFFFFFFFFFFFFFFFFFFFFFFFFF AND MUL OR SWAP1 SSTORE POP JUMPDEST DUP1 DUP7 PUSH0 ADD PUSH0 DUP5 PUSH28 0xFFFFFFFFFFFFFFFFFFFFFFFFFFFFFFFFFFFFFFFFFFFFFFFFFFFFFFFF NOT AND PUSH28 0xFFFFFFFFFFFFFFFFFFFFFFFFFFFFFFFFFFFFFFFFFFFFFFFFFFFFFFFF NOT AND DUP2 MSTORE PUSH1 0x20 ADD SWAP1 DUP2 MSTORE PUSH1 0x20 ADD PUSH0 KECCAK256 PUSH0 PUSH2 0x100 EXP DUP2 SLOAD DUP2 PUSH20 0xFFFFFFFFFFFFFFFFFFFFFFFFFFFFFFFFFFFFFFFF MUL NOT AND SWAP1 DUP4 PUSH20 0xFFFFFFFFFFFFFFFFFFFFFFFFFFFFFFFFFFFFFFFF AND MUL OR SWAP1 SSTORE POP PUSH32 0x314760E63CD5315A4CF28C679A1885B84249533D4156A7EBD02675626493A255 CALLER DUP3 DUP5 PUSH1 0x40 MLOAD PUSH2 0x56E SWAP4 SWAP3 SWAP2 SWAP1 PUSH2 0xF04 JUMP JUMPDEST PUSH1 0x40 MLOAD DUP1 SWAP2 SUB SWAP1 LOG1 POP POP DUP1 PUSH1 0x1 ADD SWAP1 POP PUSH2 0x33A JUMP JUMPDEST POP POP DUP1 PUSH1 0x1 ADD SWAP1 POP PUSH2 0x30E JUMP JUMPDEST POP POP POP JUMP JUMPDEST PUSH0 PUSH2 0x5DB PUSH1 0x40 MLOAD DUP1 PUSH1 0x40 ADD PUSH1 0x40 MSTORE DUP1 PUSH1 0xD DUP2 MSTORE PUSH1 0x20 ADD PUSH32 0x44796E616D6963526F7574657200000000000000000000000000000000000000 DUP2 MSTORE POP DUP1 MLOAD SWAP1 PUSH1 0x20 ADD KECCAK256 PUSH2 0x722 JUMP JUMPDEST PUSH0 ADD PUSH0 DUP4 PUSH28 0xFFFFFFFFFFFFFFFFFFFFFFFFFFFFFFFFFFFFFFFFFFFFFFFFFFFFFFFF NOT AND PUSH28 0xFFFFFFFFFFFFFFFFFFFFFFFFFFFFFFFFFFFFFFFFFFFFFFFFFFFFFFFF NOT AND DUP2 MSTORE PUSH1 0x20 ADD SWAP1 DUP2 MSTORE PUSH1 0x20 ADD PUSH0 KECCAK256 PUSH0 SWAP1 SLOAD SWAP1 PUSH2 0x100 EXP SWAP1 DIV PUSH20 0xFFFFFFFFFFFFFFFFFFFFFFFFFFFFFFFFFFFFFFFF AND SWAP1 POP SWAP2 SWAP1 POP JUMP JUMPDEST PUSH1 0x60 PUSH2 0x698 PUSH1 0x40 MLOAD DUP1 PUSH1 0x40 ADD PUSH1 0x40 MSTORE DUP1 PUSH1 0xD DUP2 MSTORE PUSH1 0x20 ADD PUSH32 0x44796E616D6963526F7574657200000000000000000000000000000000000000 DUP2 MSTORE POP DUP1 MLOAD SWAP1 PUSH1 0x20 ADD KECCAK256 PUSH2 0x722 JUMP JUMPDEST PUSH1 0x2 ADD DUP1 SLOAD DUP1 PUSH1 0x20 MUL PUSH1 0x20 ADD PUSH1 0x40 MLOAD SWAP1 DUP2 ADD PUSH1 0x40 MSTORE DUP1 SWAP3 SWAP2 SWAP1 DUP2 DUP2 MSTORE PUSH1 0x20 ADD DUP3 DUP1 SLOAD DUP1 ISZERO PUSH2 0x718 JUMPI PUSH1 0x20 MUL DUP3 ADD SWAP2 SWAP1 PUSH0 MSTORE PUSH1 0x20 PUSH0 KECCAK256 SWAP1 JUMPDEST DUP2 PUSH0 SWAP1 SLOAD SWAP1 PUSH2 0x100 EXP SWAP1 DIV PUSH20 0xFFFFFFFFFFFFFFFFFFFFFFFFFFFFFFFFFFFFFFFF AND PUSH20 0xFFFFFFFFFFFFFFFFFFFFFFFFFFFFFFFFFFFFFFFF AND DUP2 MSTORE PUSH1 0x20 ADD SWAP1 PUSH1 0x1 ADD SWAP1 DUP1 DUP4 GT PUSH2 0x6CF JUMPI JUMPDEST POP POP POP POP POP SWAP1 POP SWAP1 JUMP JUMPDEST PUSH0 DUP2 SWAP1 POP SWAP2 SWAP1 POP JUMP JUMPDEST PUSH0 PUSH0 PUSH2 0x772 PUSH1 0x40 MLOAD DUP1 PUSH1 0x40 ADD PUSH1 0x40 MSTORE DUP1 PUSH1 0xD DUP2 MSTORE PUSH1 0x20 ADD PUSH32 0x44796E616D6963526F7574657200000000000000000000000000000000000000 DUP2 MSTORE POP DUP1 MLOAD SWAP1 PUSH1 0x20 ADD KECCAK256 PUSH2 0x722 JUMP JUMPDEST SWAP1 POP PUSH0 PUSH0 SWAP1 POP JUMPDEST DUP2 PUSH1 0x1 ADD DUP1 SLOAD SWAP1 POP DUP2 LT ISZERO PUSH2 0x819 JUMPI DUP2 PUSH1 0x1 ADD DUP2 DUP2 SLOAD DUP2 LT PUSH2 0x79E JUMPI PUSH2 0x79D PUSH2 0xEB9 JUMP JUMPDEST JUMPDEST SWAP1 PUSH0 MSTORE PUSH1 0x20 PUSH0 KECCAK256 SWAP1 PUSH1 0x8 SWAP2 DUP3 DUP3 DIV ADD SWAP2 SWAP1 MOD PUSH1 0x4 MUL SWAP1 SLOAD SWAP1 PUSH2 0x100 EXP SWAP1 DIV PUSH1 0xE0 SHL PUSH28 0xFFFFFFFFFFFFFFFFFFFFFFFFFFFFFFFFFFFFFFFFFFFFFFFFFFFFFFFF NOT AND DUP5 PUSH28 0xFFFFFFFFFFFFFFFFFFFFFFFFFFFFFFFFFFFFFFFFFFFFFFFFFFFFFFFF NOT AND SUB PUSH2 0x80E JUMPI PUSH1 0x1 SWAP3 POP POP POP PUSH2 0x81F JUMP JUMPDEST DUP1 PUSH1 0x1 ADD SWAP1 POP PUSH2 0x779 JUMP JUMPDEST POP PUSH0 SWAP2 POP POP JUMPDEST SWAP2 SWAP1 POP JUMP JUMPDEST PUSH0 PUSH0 PUSH2 0x86B PUSH1 0x40 MLOAD DUP1 PUSH1 0x40 ADD PUSH1 0x40 MSTORE DUP1 PUSH1 0xD DUP2 MSTORE PUSH1 0x20 ADD PUSH32 0x44796E616D6963526F7574657200000000000000000000000000000000000000 DUP2 MSTORE POP DUP1 MLOAD SWAP1 PUSH1 0x20 ADD KECCAK256 PUSH2 0x722 JUMP JUMPDEST SWAP1 POP PUSH0 PUSH0 SWAP1 POP JUMPDEST DUP2 PUSH1 0x2 ADD DUP1 SLOAD SWAP1 POP DUP2 LT ISZERO PUSH2 0x907 JUMPI DUP2 PUSH1 0x2 ADD DUP2 DUP2 SLOAD DUP2 LT PUSH2 0x897 JUMPI PUSH2 0x896 PUSH2 0xEB9 JUMP JUMPDEST JUMPDEST SWAP1 PUSH0 MSTORE PUSH1 0x20 PUSH0 KECCAK256 ADD PUSH0 SWAP1 SLOAD SWAP1 PUSH2 0x100 EXP SWAP1 DIV PUSH20 0xFFFFFFFFFFFFFFFFFFFFFFFFFFFFFFFFFFFFFFFF AND PUSH20 0xFFFFFFFFFFFFFFFFFFFFFFFFFFFFFFFFFFFFFFFF AND DUP5 PUSH20 0xFFFFFFFFFFFFFFFFFFFFFFFFFFFFFFFFFFFFFFFF AND SUB PUSH2 0x8FC JUMPI PUSH1 0x1 SWAP3 POP POP POP PUSH2 0x90D JUMP JUMPDEST DUP1 PUSH1 0x1 ADD SWAP1 POP PUSH2 0x872 JUMP JUMPDEST POP PUSH0 SWAP2 POP POP JUMPDEST SWAP2 SWAP1 POP JUMP JUMPDEST PUSH0 PUSH1 0x40 MLOAD SWAP1 POP SWAP1 JUMP JUMPDEST PUSH0 PUSH0 REVERT JUMPDEST PUSH0 PUSH0 REVERT JUMPDEST PUSH0 PUSH32 0xFFFFFFFF00000000000000000000000000000000000000000000000000000000 DUP3 AND SWAP1 POP SWAP2 SWAP1 POP JUMP JUMPDEST PUSH2 0x957 DUP2 PUSH2 0x923 JUMP JUMPDEST DUP2 EQ PUSH2 0x961 JUMPI PUSH0 PUSH0 REVERT JUMPDEST POP JUMP JUMPDEST PUSH0 DUP2 CALLDATALOAD SWAP1 POP PUSH2 0x972 DUP2 PUSH2 0x94E JUMP JUMPDEST SWAP3 SWAP2 POP POP JUMP JUMPDEST PUSH0 PUSH1 0x20 DUP3 DUP5 SUB SLT ISZERO PUSH2 0x98D JUMPI PUSH2 0x98C PUSH2 0x91B JUMP JUMPDEST JUMPDEST PUSH0 PUSH2 0x99A DUP5 DUP3 DUP6 ADD PUSH2 0x964 JUMP JUMPDEST SWAP2 POP POP SWAP3 SWAP2 POP POP JUMP JUMPDEST PUSH0 PUSH20 0xFFFFFFFFFFFFFFFFFFFFFFFFFFFFFFFFFFFFFFFF DUP3 AND SWAP1 POP SWAP2 SWAP1 POP JUMP JUMPDEST PUSH0 PUSH2 0x9CC DUP3 PUSH2 0x9A3 JUMP JUMPDEST SWAP1 POP SWAP2 SWAP1 POP JUMP JUMPDEST PUSH2 0x9DC DUP2 PUSH2 0x9C2 JUMP JUMPDEST DUP3 MSTORE POP POP JUMP JUMPDEST PUSH0 PUSH1 0x20 DUP3 ADD SWAP1 POP PUSH2 0x9F5 PUSH0 DUP4 ADD DUP5 PUSH2 0x9D3 JUMP JUMPDEST SWAP3 SWAP2 POP POP JUMP JUMPDEST PUSH0 DUP2 MLOAD SWAP1 POP SWAP2 SWAP1 POP JUMP JUMPDEST PUSH0 DUP3 DUP3 MSTORE PUSH1 0x20 DUP3 ADD SWAP1 POP SWAP3 SWAP2 POP POP JUMP JUMPDEST PUSH0 DUP2 SWAP1 POP PUSH1 0x20 DUP3 ADD SWAP1 POP SWAP2 SWAP1 POP JUMP JUMPDEST PUSH2 0xA2D DUP2 PUSH2 0x923 JUMP JUMPDEST DUP3 MSTORE POP POP JUMP JUMPDEST PUSH0 PUSH2 0xA3E DUP4 DUP4 PUSH2 0xA24 JUMP JUMPDEST PUSH1 0x20 DUP4 ADD SWAP1 POP SWAP3 SWAP2 POP POP JUMP JUMPDEST PUSH0 PUSH1 0x20 DUP3 ADD SWAP1 POP SWAP2 SWAP1 POP JUMP JUMPDEST PUSH0 PUSH2 0xA60 DUP3 PUSH2 0x9FB JUMP JUMPDEST PUSH2 0xA6A DUP2 DUP6 PUSH2 0xA05 JUMP JUMPDEST SWAP4 POP PUSH2 0xA75 DUP4 PUSH2 0xA15 JUMP JUMPDEST DUP1 PUSH0 JUMPDEST DUP4 DUP2 LT ISZERO PUSH2 0xAA5 JUMPI DUP2 MLOAD PUSH2 0xA8C DUP9 DUP3 PUSH2 0xA33 JUMP JUMPDEST SWAP8 POP PUSH2 0xA97 DUP4 PUSH2 0xA4A JUMP JUMPDEST SWAP3 POP POP PUSH1 0x1 DUP2 ADD SWAP1 POP PUSH2 0xA78 JUMP JUMPDEST POP DUP6 SWAP4 POP POP POP POP SWAP3 SWAP2 POP POP JUMP JUMPDEST PUSH0 PUSH1 0x20 DUP3 ADD SWAP1 POP DUP2 DUP2 SUB PUSH0 DUP4 ADD MSTORE PUSH2 0xACA DUP2 DUP5 PUSH2 0xA56 JUMP JUMPDEST SWAP1 POP SWAP3 SWAP2 POP POP JUMP JUMPDEST PUSH0 PUSH0 REVERT JUMPDEST PUSH0 PUSH1 0x1F NOT PUSH1 0x1F DUP4 ADD AND SWAP1 POP SWAP2 SWAP1 POP JUMP JUMPDEST PUSH32 0x4E487B7100000000000000000000000000000000000000000000000000000000 PUSH0 MSTORE PUSH1 0x41 PUSH1 0x4 MSTORE PUSH1 0x24 PUSH0 REVERT JUMPDEST PUSH2 0xB1C DUP3 PUSH2 0xAD6 JUMP JUMPDEST DUP2 ADD DUP2 DUP2 LT PUSH8 0xFFFFFFFFFFFFFFFF DUP3 GT OR ISZERO PUSH2 0xB3B JUMPI PUSH2 0xB3A PUSH2 0xAE6 JUMP JUMPDEST JUMPDEST DUP1 PUSH1 0x40 MSTORE POP POP POP JUMP JUMPDEST PUSH0 PUSH2 0xB4D PUSH2 0x912 JUMP JUMPDEST SWAP1 POP PUSH2 0xB59 DUP3 DUP3 PUSH2 0xB13 JUMP JUMPDEST SWAP2 SWAP1 POP JUMP JUMPDEST PUSH0 PUSH8 0xFFFFFFFFFFFFFFFF DUP3 GT ISZERO PUSH2 0xB78 JUMPI PUSH2 0xB77 PUSH2 0xAE6 JUMP JUMPDEST JUMPDEST PUSH1 0x20 DUP3 MUL SWAP1 POP PUSH1 0x20 DUP2 ADD SWAP1 POP SWAP2 SWAP1 POP JUMP JUMPDEST PUSH0 PUSH0 REVERT JUMPDEST PUSH0 PUSH0 REVERT JUMPDEST PUSH0 PUSH0 REVERT JUMPDEST PUSH2 0xB9E DUP2 PUSH2 0x9C2 JUMP JUMPDEST DUP2 EQ PUSH2 0xBA8 JUMPI PUSH0 PUSH0 REVERT JUMPDEST POP JUMP JUMPDEST PUSH0 DUP2 CALLDATALOAD SWAP1 POP PUSH2 0xBB9 DUP2 PUSH2 0xB95 JUMP JUMPDEST SWAP3 SWAP2 POP POP JUMP JUMPDEST PUSH0 PUSH8 0xFFFFFFFFFFFFFFFF DUP3 GT ISZERO PUSH2 0xBD9 JUMPI PUSH2 0xBD8 PUSH2 0xAE6 JUMP JUMPDEST JUMPDEST PUSH1 0x20 DUP3 MUL SWAP1 POP PUSH1 0x20 DUP2 ADD SWAP1 POP SWAP2 SWAP1 POP JUMP JUMPDEST PUSH0 PUSH2 0xBFC PUSH2 0xBF7 DUP5 PUSH2 0xBBF JUMP JUMPDEST PUSH2 0xB44 JUMP JUMPDEST SWAP1 POP DUP1 DUP4 DUP3 MSTORE PUSH1 0x20 DUP3 ADD SWAP1 POP PUSH1 0x20 DUP5 MUL DUP4 ADD DUP6 DUP2 GT ISZERO PUSH2 0xC1F JUMPI PUSH2 0xC1E PUSH2 0xB89 JUMP JUMPDEST JUMPDEST DUP4 JUMPDEST DUP2 DUP2 LT ISZERO PUSH2 0xC48 JUMPI DUP1 PUSH2 0xC34 DUP9 DUP3 PUSH2 0x964 JUMP JUMPDEST DUP5 MSTORE PUSH1 0x20 DUP5 ADD SWAP4 POP POP PUSH1 0x20 DUP2 ADD SWAP1 POP PUSH2 0xC21 JUMP JUMPDEST POP POP POP SWAP4 SWAP3 POP POP POP JUMP JUMPDEST PUSH0 DUP3 PUSH1 0x1F DUP4 ADD SLT PUSH2 0xC66 JUMPI PUSH2 0xC65 PUSH2 0xAD2 JUMP JUMPDEST JUMPDEST DUP2 CALLDATALOAD PUSH2 0xC76 DUP5 DUP3 PUSH1 0x20 DUP7 ADD PUSH2 0xBEA JUMP JUMPDEST SWAP2 POP POP SWAP3 SWAP2 POP POP JUMP JUMPDEST PUSH0 PUSH1 0x40 DUP3 DUP5 SUB SLT ISZERO PUSH2 0xC94 JUMPI PUSH2 0xC93 PUSH2 0xB8D JUMP JUMPDEST JUMPDEST PUSH2 0xC9E PUSH1 0x40 PUSH2 0xB44 JUMP JUMPDEST SWAP1 POP PUSH0 PUSH2 0xCAD DUP5 DUP3 DUP6 ADD PUSH2 0xBAB JUMP JUMPDEST PUSH0 DUP4 ADD MSTORE POP PUSH1 0x20 DUP3 ADD CALLDATALOAD PUSH8 0xFFFFFFFFFFFFFFFF DUP2 GT ISZERO PUSH2 0xCD0 JUMPI PUSH2 0xCCF PUSH2 0xB91 JUMP JUMPDEST JUMPDEST PUSH2 0xCDC DUP5 DUP3 DUP6 ADD PUSH2 0xC52 JUMP JUMPDEST PUSH1 0x20 DUP4 ADD MSTORE POP SWAP3 SWAP2 POP POP JUMP JUMPDEST PUSH0 PUSH2 0xCFA PUSH2 0xCF5 DUP5 PUSH2 0xB5E JUMP JUMPDEST PUSH2 0xB44 JUMP JUMPDEST SWAP1 POP DUP1 DUP4 DUP3 MSTORE PUSH1 0x20 DUP3 ADD SWAP1 POP PUSH1 0x20 DUP5 MUL DUP4 ADD DUP6 DUP2 GT ISZERO PUSH2 0xD1D JUMPI PUSH2 0xD1C PUSH2 0xB89 JUMP JUMPDEST JUMPDEST DUP4 JUMPDEST DUP2 DUP2 LT ISZERO PUSH2 0xD64 JUMPI DUP1 CALLDATALOAD PUSH8 0xFFFFFFFFFFFFFFFF DUP2 GT ISZERO PUSH2 0xD42 JUMPI PUSH2 0xD41 PUSH2 0xAD2 JUMP JUMPDEST JUMPDEST DUP1 DUP7 ADD PUSH2 0xD4F DUP10 DUP3 PUSH2 0xC7F JUMP JUMPDEST DUP6 MSTORE PUSH1 0x20 DUP6 ADD SWAP5 POP POP POP PUSH1 0x20 DUP2 ADD SWAP1 POP PUSH2 0xD1F JUMP JUMPDEST POP POP POP SWAP4 SWAP3 POP POP POP JUMP JUMPDEST PUSH0 DUP3 PUSH1 0x1F DUP4 ADD SLT PUSH2 0xD82 JUMPI PUSH2 0xD81 PUSH2 0xAD2 JUMP JUMPDEST JUMPDEST DUP2 CALLDATALOAD PUSH2 0xD92 DUP5 DUP3 PUSH1 0x20 DUP7 ADD PUSH2 0xCE8 JUMP JUMPDEST SWAP2 POP POP SWAP3 SWAP2 POP POP JUMP JUMPDEST PUSH0 PUSH1 0x20 DUP3 DUP5 SUB SLT ISZERO PUSH2 0xDB0 JUMPI PUSH2 0xDAF PUSH2 0x91B JUMP JUMPDEST JUMPDEST PUSH0 DUP3 ADD CALLDATALOAD PUSH8 0xFFFFFFFFFFFFFFFF DUP2 GT ISZERO PUSH2 0xDCD JUMPI PUSH2 0xDCC PUSH2 0x91F JUMP JUMPDEST JUMPDEST PUSH2 0xDD9 DUP5 DUP3 DUP6 ADD PUSH2 0xD6E JUMP JUMPDEST SWAP2 POP POP SWAP3 SWAP2 POP POP JUMP JUMPDEST PUSH0 DUP2 MLOAD SWAP1 POP SWAP2 SWAP1 POP JUMP JUMPDEST PUSH0 DUP3 DUP3 MSTORE PUSH1 0x20 DUP3 ADD SWAP1 POP SWAP3 SWAP2 POP POP JUMP JUMPDEST PUSH0 DUP2 SWAP1 POP PUSH1 0x20 DUP3 ADD SWAP1 POP SWAP2 SWAP1 POP JUMP JUMPDEST PUSH2 0xE14 DUP2 PUSH2 0x9C2 JUMP JUMPDEST DUP3 MSTORE POP POP JUMP JUMPDEST PUSH0 PUSH2 0xE25 DUP4 DUP4 PUSH2 0xE0B JUMP JUMPDEST PUSH1 0x20 DUP4 ADD SWAP1 POP SWAP3 SWAP2 POP POP JUMP JUMPDEST PUSH0 PUSH1 0x20 DUP3 ADD SWAP1 POP SWAP2 SWAP1 POP JUMP JUMPDEST PUSH0 PUSH2 0xE47 DUP3 PUSH2 0xDE2 JUMP JUMPDEST PUSH2 0xE51 DUP2 DUP6 PUSH2 0xDEC JUMP JUMPDEST SWAP4 POP PUSH2 0xE5C DUP4 PUSH2 0xDFC JUMP JUMPDEST DUP1 PUSH0 JUMPDEST DUP4 DUP2 LT ISZERO PUSH2 0xE8C JUMPI DUP2 MLOAD PUSH2 0xE73 DUP9 DUP3 PUSH2 0xE1A JUMP JUMPDEST SWAP8 POP PUSH2 0xE7E DUP4 PUSH2 0xE31 JUMP JUMPDEST SWAP3 POP POP PUSH1 0x1 DUP2 ADD SWAP1 POP PUSH2 0xE5F JUMP JUMPDEST POP DUP6 SWAP4 POP POP POP POP SWAP3 SWAP2 POP POP JUMP JUMPDEST PUSH0 PUSH1 0x20 DUP3 ADD SWAP1 POP DUP2 DUP2 SUB PUSH0 DUP4 ADD MSTORE PUSH2 0xEB1 DUP2 DUP5 PUSH2 0xE3D JUMP JUMPDEST SWAP1 POP SWAP3 SWAP2 POP POP JUMP JUMPDEST PUSH32 0x4E487B7100000000000000000000000000000000000000000000000000000000 PUSH0 MSTORE PUSH1 0x32 PUSH1 0x4 MSTORE PUSH1 0x24 PUSH0 REVERT JUMPDEST PUSH2 0xEEF DUP2 PUSH2 0x9C2 JUMP JUMPDEST DUP3 MSTORE POP POP JUMP JUMPDEST PUSH2 0xEFE DUP2 PUSH2 0x923 JUMP JUMPDEST DUP3 MSTORE POP POP JUMP JUMPDEST PUSH0 PUSH1 0x60 DUP3 ADD SWAP1 POP PUSH2 0xF17 PUSH0 DUP4 ADD DUP7 PUSH2 0xEE6 JUMP JUMPDEST PUSH2 0xF24 PUSH1 0x20 DUP4 ADD DUP6 PUSH2 0xEE6 JUMP JUMPDEST PUSH2 0xF31 PUSH1 0x40 DUP4 ADD DUP5 PUSH2 0xEF5 JUMP JUMPDEST SWAP5 SWAP4 POP POP POP POP JUMP INVALID LOG2 PUSH5 0x6970667358 0x22 SLT KECCAK256 RETURNCONTRACT 0x52 CODECOPY PUSH6 0x697DC5106A46 STOP 0x4E 0xD4 0xD5 0xD5 SWAP15 NUMBER EXTCODEHASH 0xBB ISZERO ADDMOD PUSH26 0x375495FDB1C1C023A8A264736F6C634300081E00330000000000 "
				},
				"gasEstimates": {
					"creation": {
						"codeDepositCost": "790200",
						"executionCost": "848",
						"totalCost": "791048"
					},
					"external": {
						"getImp(bytes4)": "2989",
						"getImpl()": "infinite",
						"getModule(bytes4)": "3055",
						"getSelectors()": "infinite",
						"updateModules(DynamicRouterStorage.moduleDefinition[])": "infinite"
					},
					"internal": {
						"_findModule(address)": "infinite",
						"_findSelector(bytes4)": "infinite",
						"_getModule(bytes4)": "infinite",
						"_getStorage(bytes32)": "27"
					}
				},
				"methodIdentifiers": {
					"getImp(bytes4)": "20e63d2a",
					"getImpl()": "dfb80831",
					"getModule(bytes4)": "dcef0069",
					"getSelectors()": "4b503f0b",
					"updateModules(DynamicRouterStorage.moduleDefinition[])": "a8f64352"
				}
			},
			"storageLayout": {
				"storage": [],
				"types": null
			},
			"userdoc": {
				"kind": "user",
				"methods": {},
				"version": 1
			}
		}
	}
}