{
	"data": {
		"bytecode": {
			"linkReferences": {},
			"object": "6132e961004d600b8282823980515f1a6073146041577f4e487b71000000000000000000000000000000000000000000000000000000005f525f60045260245ffd5b305f52607381538281f3fe730000000000000000000000000000000000000000301460806040526004361061029e575f3560e01c8063821abc2d11610170578063b0d4ce25116100d7578063ddca3f4311610090578063ddca3f43146108ba578063dec84db1146108d8578063e149f03614610900578063e68fdee114610930578063edc3bc3f14610958578063f589b754146109885761029e565b8063b0d4ce25146107d6578063b62d8b91146107fe578063d01251521461082e578063d20b6ee714610856578063d547cfb714610874578063dbe0b21c146108925761029e565b8063963bfe1211610129578063963bfe12146106f257806398995f7714610710578063a05cc5591461072e578063a330117314610756578063a7cc01361461077e578063ad715f2e146107ae5761029e565b8063821abc2d14610616578063830d40911461063e578063854f9db9146106665780638fca4dbe1461068e5780639451c99a146106b657806395d89b41146106d45761029e565b806339b37ab0116102145780634f4979ed116101cd5780634f4979ed146105325780635b43bc991461055a5780636c8b703f146105825780636ff97f1d146105b257806374e24367146105d0578063810536ec146106005761029e565b806339b37ab01461044457806340e02f5c1461046c57806341bb05591461049457806344faf255146104bc57806347f69eba146104da57806349a0a50e1461050a5761029e565b8063247c6ce011610266578063247c6ce01461035e57806331413efc1461038657806332b07b43146103ae57806333171809146103d6578063345e7b28146103f45780633802497b1461041c5761029e565b806306fdde03146102a2578063071bc71c146102c057806313c19ff6146102e857806319f862001461031057806321b0ed7d1461032e575b5f5ffd5b6102aa6109a6565b6040516102b7919061281f565b60405180910390f35b8180156102cb575f5ffd5b506102e660048036038101906102e191906128dd565b610a7c565b005b8180156102f3575f5ffd5b5061030e6004803603810190610309919061292d565b610d5e565b005b610318610df9565b6040516103259190612983565b60405180910390f35b6103486004803603810190610343919061299c565b610e48565b60405161035591906129d6565b60405180910390f35b818015610369575f5ffd5b50610384600480360381019061037f9190612a19565b610ed4565b005b818015610391575f5ffd5b506103ac60048036038101906103a7919061299c565b610f24565b005b8180156103b9575f5ffd5b506103d460048036038101906103cf9190612a44565b61103e565b005b6103de61108e565b6040516103eb9190612983565b60405180910390f35b8180156103ff575f5ffd5b5061041a60048036038101906104159190612a44565b6110dd565b005b818015610427575f5ffd5b50610442600480360381019061043d9190612a19565b61112d565b005b81801561044f575f5ffd5b5061046a60048036038101906104659190612a44565b61117d565b005b818015610477575f5ffd5b50610492600480360381019061048d9190612a44565b6111cd565b005b81801561049f575f5ffd5b506104ba60048036038101906104b59190612b9b565b611477565b005b6104c46114d0565b6040516104d191906129d6565b60405180910390f35b6104f460048036038101906104ef9190612a44565b61151f565b60405161050191906129d6565b60405180910390f35b818015610515575f5ffd5b50610530600480360381019061052b91906128dd565b61157f565b005b81801561053d575f5ffd5b50610558600480360381019061055391906128dd565b61161b565b005b818015610565575f5ffd5b50610580600480360381019061057b9190612b9b565b611713565b005b61059c60048036038101906105979190612a44565b61176c565b6040516105a9919061281f565b60405180910390f35b6105ba611853565b6040516105c79190612c99565b60405180910390f35b6105ea60048036038101906105e59190612a44565b6118ef565b6040516105f791906129d6565b60405180910390f35b81801561060b575f5ffd5b5061061461194f565b005b818015610621575f5ffd5b5061063c60048036038101906106379190612b9b565b6119f7565b005b818015610649575f5ffd5b50610664600480360381019061065f9190612cee565b611a50565b005b818015610671575f5ffd5b5061068c60048036038101906106879190612a19565b611b2a565b005b818015610699575f5ffd5b506106b460048036038101906106af9190612a44565b611b7a565b005b6106be611bca565b6040516106cb91906129d6565b60405180910390f35b6106dc611c19565b6040516106e9919061281f565b60405180910390f35b6106fa611cef565b604051610707919061281f565b60405180910390f35b610718611dc5565b60405161072591906129d6565b60405180910390f35b818015610739575f5ffd5b50610754600480360381019061074f9190612b9b565b611e14565b005b818015610761575f5ffd5b5061077c60048036038101906107779190612d3e565b611e6c565b005b61079860048036038101906107939190612a44565b611ef8565b6040516107a59190612da5565b60405180910390f35b8180156107b9575f5ffd5b506107d460048036038101906107cf9190612dbe565b611fbd565b005b8180156107e1575f5ffd5b506107fc60048036038101906107f79190612dfc565b61201d565b005b6108186004803603810190610813919061299c565b6120bb565b6040516108259190612e49565b60405180910390f35b818015610839575f5ffd5b50610854600480360381019061084f919061299c565b612153565b005b61085e61226d565b60405161086b91906129d6565b60405180910390f35b61087c6122bc565b604051610889919061281f565b60405180910390f35b81801561089d575f5ffd5b506108b860048036038101906108b39190612a44565b612391565b005b6108c26124a7565b6040516108cf91906129d6565b60405180910390f35b8180156108e3575f5ffd5b506108fe60048036038101906108f99190612e62565b6124f6565b005b61091a60048036038101906109159190612d3e565b61255f565b60405161092791906129d6565b60405180910390f35b81801561093b575f5ffd5b5061095660048036038101906109519190612dbe565b6125fb565b005b610972600480360381019061096d9190612ebc565b61265b565b60405161097f9190612e49565b60405180910390f35b61099061272f565b60405161099d9190612983565b60405180910390f35b60606109ed6040518060400160405280600681526020017f534d45616d6200000000000000000000000000000000000000000000000000008152508051906020012061277e565b600e0180546109fb90612f27565b80601f0160208091040260200160405190810160405280929190818152602001828054610a2790612f27565b8015610a725780601f10610a4957610100808354040283529160200191610a72565b820191905f5260205f20905b815481529060010190602001808311610a5557829003601f168201915b5050505050905090565b5f610ac26040518060400160405280600681526020017f534d45616d6200000000000000000000000000000000000000000000000000008152508051906020012061277e565b6004015f8481526020019081526020015f20549050818114610c69575f610b246040518060400160405280600681526020017f534d45616d6200000000000000000000000000000000000000000000000000008152508051906020012061277e565b6003015f8673ffffffffffffffffffffffffffffffffffffffff1673ffffffffffffffffffffffffffffffffffffffff1681526020019081526020015f205f8481526020019081526020015f2054905080610bba6040518060400160405280600681526020017f534d45616d6200000000000000000000000000000000000000000000000000008152508051906020012061277e565b6003015f8773ffffffffffffffffffffffffffffffffffffffff1673ffffffffffffffffffffffffffffffffffffffff1681526020019081526020015f205f8481526020019081526020015f208190555081610c516040518060400160405280600681526020017f534d45616d6200000000000000000000000000000000000000000000000000008152508051906020012061277e565b6004015f8381526020019081526020015f2081905550505b610cae6040518060400160405280600681526020017f534d45616d6200000000000000000000000000000000000000000000000000008152508051906020012061277e565b6004015f8481526020019081526020015f205f9055610d086040518060400160405280600681526020017f534d45616d6200000000000000000000000000000000000000000000000000008152508051906020012061277e565b6003015f8573ffffffffffffffffffffffffffffffffffffffff1673ffffffffffffffffffffffffffffffffffffffff1681526020019081526020015f205f8381526020019081526020015f205f905550505050565b80610da46040518060400160405280600681526020017f534d45616d6200000000000000000000000000000000000000000000000000008152508051906020012061277e565b6012015f8481526020019081526020015f205f015f6101000a81548173ffffffffffffffffffffffffffffffffffffffff021916908373ffffffffffffffffffffffffffffffffffffffff1602179055505050565b5f610e3f6040518060400160405280600681526020017f534d45616d6200000000000000000000000000000000000000000000000000008152508051906020012061277e565b60070154905090565b5f610e8e6040518060400160405280600681526020017f534d45616d6200000000000000000000000000000000000000000000000000008152508051906020012061277e565b6011015f8373ffffffffffffffffffffffffffffffffffffffff1673ffffffffffffffffffffffffffffffffffffffff1681526020019081526020015f20549050919050565b80610f1a6040518060400160405280600681526020017f534d45616d6200000000000000000000000000000000000000000000000000008152508051906020012061277e565b6009018190555050565b6001610f6b6040518060400160405280600681526020017f534d45616d6200000000000000000000000000000000000000000000000000008152508051906020012061277e565b6011015f8373ffffffffffffffffffffffffffffffffffffffff1673ffffffffffffffffffffffffffffffffffffffff1681526020019081526020015f2054610fb49190612f84565b610ff96040518060400160405280600681526020017f534d45616d6200000000000000000000000000000000000000000000000000008152508051906020012061277e565b6011015f8373ffffffffffffffffffffffffffffffffffffffff1673ffffffffffffffffffffffffffffffffffffffff1681526020019081526020015f208190555050565b806110846040518060400160405280600681526020017f534d45616d6200000000000000000000000000000000000000000000000000008152508051906020012061277e565b6015018190555050565b5f6110d46040518060400160405280600681526020017f534d45616d6200000000000000000000000000000000000000000000000000008152508051906020012061277e565b60090154905090565b806111236040518060400160405280600681526020017f534d45616d6200000000000000000000000000000000000000000000000000008152508051906020012061277e565b600c018190555050565b806111736040518060400160405280600681526020017f534d45616d6200000000000000000000000000000000000000000000000000008152508051906020012061277e565b6007018190555050565b806111c36040518060400160405280600681526020017f534d45616d6200000000000000000000000000000000000000000000000000008152508051906020012061277e565b600a018190555050565b5f60016112156040518060400160405280600681526020017f534d45616d6200000000000000000000000000000000000000000000000000008152508051906020012061277e565b600501805490506112269190612f84565b90505f61126e6040518060400160405280600681526020017f534d45616d6200000000000000000000000000000000000000000000000000008152508051906020012061277e565b6006015f8481526020019081526020015f205490505f6112c96040518060400160405280600681526020017f534d45616d6200000000000000000000000000000000000000000000000000008152508051906020012061277e565b60050183815481106112de576112dd612fb7565b5b905f5260205f20015490508061132f6040518060400160405280600681526020017f534d45616d6200000000000000000000000000000000000000000000000000008152508051906020012061277e565b600501838154811061134457611343612fb7565b5b905f5260205f200181905550816113966040518060400160405280600681526020017f534d45616d6200000000000000000000000000000000000000000000000000008152508051906020012061277e565b6006015f8381526020019081526020015f20819055506113f16040518060400160405280600681526020017f534d45616d6200000000000000000000000000000000000000000000000000008152508051906020012061277e565b6006015f8581526020019081526020015f205f905561144b6040518060400160405280600681526020017f534d45616d6200000000000000000000000000000000000000000000000000008152508051906020012061277e565b60050180548061145e5761145d612fe4565b5b600190038181905f5260205f20015f9055905550505050565b806114bd6040518060400160405280600681526020017f534d45616d6200000000000000000000000000000000000000000000000000008152508051906020012061277e565b600f0190816114cc91906131b1565b5050565b5f6115166040518060400160405280600681526020017f534d45616d6200000000000000000000000000000000000000000000000000008152508051906020012061277e565b600d0154905090565b5f6115656040518060400160405280600681526020017f534d45616d6200000000000000000000000000000000000000000000000000008152508051906020012061277e565b6010015f8381526020019081526020015f20549050919050565b806115c56040518060400160405280600681526020017f534d45616d6200000000000000000000000000000000000000000000000000008152508051906020012061277e565b6003015f8573ffffffffffffffffffffffffffffffffffffffff1673ffffffffffffffffffffffffffffffffffffffff1681526020019081526020015f205f8481526020019081526020015f2081905550505050565b816116616040518060400160405280600681526020017f534d45616d6200000000000000000000000000000000000000000000000000008152508051906020012061277e565b6003015f8573ffffffffffffffffffffffffffffffffffffffff1673ffffffffffffffffffffffffffffffffffffffff1681526020019081526020015f205f8381526020019081526020015f2081905550806116f86040518060400160405280600681526020017f534d45616d6200000000000000000000000000000000000000000000000000008152508051906020012061277e565b6004015f8481526020019081526020015f2081905550505050565b806117596040518060400160405280600681526020017f534d45616d6200000000000000000000000000000000000000000000000000008152508051906020012061277e565b600e01908161176891906131b1565b5050565b60606117b36040518060400160405280600681526020017f534d45616d6200000000000000000000000000000000000000000000000000008152508051906020012061277e565b6002015f8381526020019081526020015f2080546117d090612f27565b80601f01602080910402602001604051908101604052809291908181526020018280546117fc90612f27565b80156118475780601f1061181e57610100808354040283529160200191611847565b820191905f5260205f20905b81548152906001019060200180831161182a57829003601f168201915b50505050509050919050565b606061189a6040518060400160405280600681526020017f534d45616d6200000000000000000000000000000000000000000000000000008152508051906020012061277e565b6005018054806020026020016040519081016040528092919081815260200182805480156118e557602002820191905f5260205f20905b8154815260200190600101908083116118d1575b5050505050905090565b5f6119356040518060400160405280600681526020017f534d45616d6200000000000000000000000000000000000000000000000000008152508051906020012061277e565b6004015f8381526020019081526020015f20549050919050565b5f6119956040518060400160405280600681526020017f534d45616d6200000000000000000000000000000000000000000000000000008152508051906020012061277e565b6014015490506001816119a89190613280565b6119ed6040518060400160405280600681526020017f534d45616d6200000000000000000000000000000000000000000000000000008152508051906020012061277e565b6014018190555050565b80611a3d6040518060400160405280600681526020017f534d45616d6200000000000000000000000000000000000000000000000000008152508051906020012061277e565b6001019081611a4c91906131b1565b5050565b80611a966040518060400160405280600681526020017f534d45616d6200000000000000000000000000000000000000000000000000008152508051906020012061277e565b6013015f8573ffffffffffffffffffffffffffffffffffffffff1673ffffffffffffffffffffffffffffffffffffffff1681526020019081526020015f205f8473ffffffffffffffffffffffffffffffffffffffff1673ffffffffffffffffffffffffffffffffffffffff1681526020019081526020015f205f6101000a81548160ff021916908315150217905550505050565b80611b706040518060400160405280600681526020017f534d45616d6200000000000000000000000000000000000000000000000000008152508051906020012061277e565b6008018190555050565b80611bc06040518060400160405280600681526020017f534d45616d6200000000000000000000000000000000000000000000000000008152508051906020012061277e565b600d018190555050565b5f611c106040518060400160405280600681526020017f534d45616d6200000000000000000000000000000000000000000000000000008152508051906020012061277e565b600c0154905090565b6060611c606040518060400160405280600681526020017f534d45616d6200000000000000000000000000000000000000000000000000008152508051906020012061277e565b600f018054611c6e90612f27565b80601f0160208091040260200160405190810160405280929190818152602001828054611c9a90612f27565b8015611ce55780601f10611cbc57610100808354040283529160200191611ce5565b820191905f5260205f20905b815481529060010190602001808311611cc857829003601f168201915b5050505050905090565b6060611d366040518060400160405280600681526020017f534d45616d6200000000000000000000000000000000000000000000000000008152508051906020012061277e565b6001018054611d4490612f27565b80601f0160208091040260200160405190810160405280929190818152602001828054611d7090612f27565b8015611dbb5780601f10611d9257610100808354040283529160200191611dbb565b820191905f5260205f20905b815481529060010190602001808311611d9e57829003601f168201915b5050505050905090565b5f611e0b6040518060400160405280600681526020017f534d45616d6200000000000000000000000000000000000000000000000000008152508051906020012061277e565b60150154905090565b80611e5a6040518060400160405280600681526020017f534d45616d6200000000000000000000000000000000000000000000000000008152508051906020012061277e565b5f019081611e6891906131b1565b5050565b80611eb26040518060400160405280600681526020017f534d45616d6200000000000000000000000000000000000000000000000000008152508051906020012061277e565b6011015f8473ffffffffffffffffffffffffffffffffffffffff1673ffffffffffffffffffffffffffffffffffffffff1681526020019081526020015f20819055505050565b611f00612787565b611f456040518060400160405280600681526020017f534d45616d6200000000000000000000000000000000000000000000000000008152508051906020012061277e565b6012015f8381526020019081526020015f206040518060200160405290815f82015f9054906101000a900473ffffffffffffffffffffffffffffffffffffffff1673ffffffffffffffffffffffffffffffffffffffff1673ffffffffffffffffffffffffffffffffffffffff16815250509050919050565b806120036040518060400160405280600681526020017f534d45616d6200000000000000000000000000000000000000000000000000008152508051906020012061277e565b6004015f8481526020019081526020015f20819055505050565b806120636040518060400160405280600681526020017f534d45616d6200000000000000000000000000000000000000000000000000008152508051906020012061277e565b600b015f8473ffffffffffffffffffffffffffffffffffffffff1673ffffffffffffffffffffffffffffffffffffffff1681526020019081526020015f205f6101000a81548160ff0219169083151502179055505050565b5f6121016040518060400160405280600681526020017f534d45616d6200000000000000000000000000000000000000000000000000008152508051906020012061277e565b600b015f8373ffffffffffffffffffffffffffffffffffffffff1673ffffffffffffffffffffffffffffffffffffffff1681526020019081526020015f205f9054906101000a900460ff169050919050565b600161219a6040518060400160405280600681526020017f534d45616d6200000000000000000000000000000000000000000000000000008152508051906020012061277e565b6011015f8373ffffffffffffffffffffffffffffffffffffffff1673ffffffffffffffffffffffffffffffffffffffff1681526020019081526020015f20546121e39190613280565b6122286040518060400160405280600681526020017f534d45616d6200000000000000000000000000000000000000000000000000008152508051906020012061277e565b6011015f8373ffffffffffffffffffffffffffffffffffffffff1673ffffffffffffffffffffffffffffffffffffffff1681526020019081526020015f208190555050565b5f6122b36040518060400160405280600681526020017f534d45616d6200000000000000000000000000000000000000000000000000008152508051906020012061277e565b60140154905090565b60606123036040518060400160405280600681526020017f534d45616d6200000000000000000000000000000000000000000000000000008152508051906020012061277e565b5f01805461231090612f27565b80601f016020809104026020016040519081016040528092919081815260200182805461233c90612f27565b80156123875780601f1061235e57610100808354040283529160200191612387565b820191905f5260205f20905b81548152906001019060200180831161236a57829003601f168201915b5050505050905090565b6123d66040518060400160405280600681526020017f534d45616d6200000000000000000000000000000000000000000000000000008152508051906020012061277e565b600501805490506124226040518060400160405280600681526020017f534d45616d6200000000000000000000000000000000000000000000000000008152508051906020012061277e565b6006015f8381526020019081526020015f208190555061247d6040518060400160405280600681526020017f534d45616d6200000000000000000000000000000000000000000000000000008152508051906020012061277e565b60050181908060018154018082558091505060019003905f5260205f20015f909190919091505550565b5f6124ed6040518060400160405280600681526020017f534d45616d6200000000000000000000000000000000000000000000000000008152508051906020012061277e565b600a0154905090565b8161253c6040518060400160405280600681526020017f534d45616d6200000000000000000000000000000000000000000000000000008152508051906020012061277e565b6002015f8381526020019081526020015f20908161255a91906131b1565b505050565b5f6125a56040518060400160405280600681526020017f534d45616d6200000000000000000000000000000000000000000000000000008152508051906020012061277e565b6003015f8473ffffffffffffffffffffffffffffffffffffffff1673ffffffffffffffffffffffffffffffffffffffff1681526020019081526020015f205f8381526020019081526020015f2054905092915050565b806126416040518060400160405280600681526020017f534d45616d6200000000000000000000000000000000000000000000000000008152508051906020012061277e565b6010015f8481526020019081526020015f20819055505050565b5f6126a16040518060400160405280600681526020017f534d45616d6200000000000000000000000000000000000000000000000000008152508051906020012061277e565b6013015f8473ffffffffffffffffffffffffffffffffffffffff1673ffffffffffffffffffffffffffffffffffffffff1681526020019081526020015f205f8373ffffffffffffffffffffffffffffffffffffffff1673ffffffffffffffffffffffffffffffffffffffff1681526020019081526020015f205f9054906101000a900460ff16905092915050565b5f6127756040518060400160405280600681526020017f534d45616d6200000000000000000000000000000000000000000000000000008152508051906020012061277e565b60080154905090565b5f819050919050565b60405180602001604052805f73ffffffffffffffffffffffffffffffffffffffff1681525090565b5f81519050919050565b5f82825260208201905092915050565b8281835e5f83830152505050565b5f601f19601f8301169050919050565b5f6127f1826127af565b6127fb81856127b9565b935061280b8185602086016127c9565b612814816127d7565b840191505092915050565b5f6020820190508181035f83015261283781846127e7565b905092915050565b5f604051905090565b5f5ffd5b5f5ffd5b5f73ffffffffffffffffffffffffffffffffffffffff82169050919050565b5f61287982612850565b9050919050565b6128898161286f565b8114612893575f5ffd5b50565b5f813590506128a481612880565b92915050565b5f819050919050565b6128bc816128aa565b81146128c6575f5ffd5b50565b5f813590506128d7816128b3565b92915050565b5f5f5f606084860312156128f4576128f3612848565b5b5f61290186828701612896565b9350506020612912868287016128c9565b9250506040612923868287016128c9565b9150509250925092565b5f5f6040838503121561294357612942612848565b5b5f612950858286016128c9565b925050602061296185828601612896565b9150509250929050565b5f819050919050565b61297d8161296b565b82525050565b5f6020820190506129965f830184612974565b92915050565b5f602082840312156129b1576129b0612848565b5b5f6129be84828501612896565b91505092915050565b6129d0816128aa565b82525050565b5f6020820190506129e95f8301846129c7565b92915050565b6129f88161296b565b8114612a02575f5ffd5b50565b5f81359050612a13816129ef565b92915050565b5f60208284031215612a2e57612a2d612848565b5b5f612a3b84828501612a05565b91505092915050565b5f60208284031215612a5957612a58612848565b5b5f612a66848285016128c9565b91505092915050565b5f5ffd5b5f5ffd5b7f4e487b71000000000000000000000000000000000000000000000000000000005f52604160045260245ffd5b612aad826127d7565b810181811067ffffffffffffffff82111715612acc57612acb612a77565b5b80604052505050565b5f612ade61283f565b9050612aea8282612aa4565b919050565b5f67ffffffffffffffff821115612b0957612b08612a77565b5b612b12826127d7565b9050602081019050919050565b828183375f83830152505050565b5f612b3f612b3a84612aef565b612ad5565b905082815260208101848484011115612b5b57612b5a612a73565b5b612b66848285612b1f565b509392505050565b5f82601f830112612b8257612b81612a6f565b5b8135612b92848260208601612b2d565b91505092915050565b5f60208284031215612bb057612baf612848565b5b5f82013567ffffffffffffffff811115612bcd57612bcc61284c565b5b612bd984828501612b6e565b91505092915050565b5f81519050919050565b5f82825260208201905092915050565b5f819050602082019050919050565b612c14816128aa565b82525050565b5f612c258383612c0b565b60208301905092915050565b5f602082019050919050565b5f612c4782612be2565b612c518185612bec565b9350612c5c83612bfc565b805f5b83811015612c8c578151612c738882612c1a565b9750612c7e83612c31565b925050600181019050612c5f565b5085935050505092915050565b5f6020820190508181035f830152612cb18184612c3d565b905092915050565b5f8115159050919050565b612ccd81612cb9565b8114612cd7575f5ffd5b50565b5f81359050612ce881612cc4565b92915050565b5f5f5f60608486031215612d0557612d04612848565b5b5f612d1286828701612896565b9350506020612d2386828701612896565b9250506040612d3486828701612cda565b9150509250925092565b5f5f60408385031215612d5457612d53612848565b5b5f612d6185828601612896565b9250506020612d72858286016128c9565b9150509250929050565b612d858161286f565b82525050565b602082015f820151612d9f5f850182612d7c565b50505050565b5f602082019050612db85f830184612d8b565b92915050565b5f5f60408385031215612dd457612dd3612848565b5b5f612de1858286016128c9565b9250506020612df2858286016128c9565b9150509250929050565b5f5f60408385031215612e1257612e11612848565b5b5f612e1f85828601612896565b9250506020612e3085828601612cda565b9150509250929050565b612e4381612cb9565b82525050565b5f602082019050612e5c5f830184612e3a565b92915050565b5f5f60408385031215612e7857612e77612848565b5b5f83013567ffffffffffffffff811115612e9557612e9461284c565b5b612ea185828601612b6e565b9250506020612eb2858286016128c9565b9150509250929050565b5f5f60408385031215612ed257612ed1612848565b5b5f612edf85828601612896565b9250506020612ef085828601612896565b9150509250929050565b7f4e487b71000000000000000000000000000000000000000000000000000000005f52602260045260245ffd5b5f6002820490506001821680612f3e57607f821691505b602082108103612f5157612f50612efa565b5b50919050565b7f4e487b71000000000000000000000000000000000000000000000000000000005f52601160045260245ffd5b5f612f8e826128aa565b9150612f99836128aa565b9250828203905081811115612fb157612fb0612f57565b5b92915050565b7f4e487b71000000000000000000000000000000000000000000000000000000005f52603260045260245ffd5b7f4e487b71000000000000000000000000000000000000000000000000000000005f52603160045260245ffd5b5f819050815f5260205f209050919050565b5f6020601f8301049050919050565b5f82821b905092915050565b5f6008830261306d7fffffffffffffffffffffffffffffffffffffffffffffffffffffffffffffffff82613032565b6130778683613032565b95508019841693508086168417925050509392505050565b5f819050919050565b5f6130b26130ad6130a8846128aa565b61308f565b6128aa565b9050919050565b5f819050919050565b6130cb83613098565b6130df6130d7826130b9565b84845461303e565b825550505050565b5f5f905090565b6130f66130e7565b6131018184846130c2565b505050565b5b81811015613124576131195f826130ee565b600181019050613107565b5050565b601f8211156131695761313a81613011565b61314384613023565b81016020851015613152578190505b61316661315e85613023565b830182613106565b50505b505050565b5f82821c905092915050565b5f6131895f198460080261316e565b1980831691505092915050565b5f6131a1838361317a565b9150826002028217905092915050565b6131ba826127af565b67ffffffffffffffff8111156131d3576131d2612a77565b5b6131dd8254612f27565b6131e8828285613128565b5f60209050601f831160018114613219575f8415613207578287015190505b6132118582613196565b865550613278565b601f19841661322786613011565b5f5b8281101561324e57848901518255600182019150602085019450602081019050613229565b8683101561326b5784890151613267601f89168261317a565b8355505b6001600288020188555050505b505050505050565b5f61328a826128aa565b9150613295836128aa565b92508282019050808211156132ad576132ac612f57565b5b9291505056fea2646970667358221220bac70a13ce4e5ee6a23b867380681aa0f5fe7020ecb489a6953a467e88382a4764736f6c634300081e0033",
			"opcodes": "PUSH2 0x32E9 PUSH2 0x4D PUSH1 0xB DUP3 DUP3 DUP3 CODECOPY DUP1 MLOAD PUSH0 BYTE PUSH1 0x73 EQ PUSH1 0x41 JUMPI PUSH32 0x4E487B7100000000000000000000000000000000000000000000000000000000 PUSH0 MSTORE PUSH0 PUSH1 0x4 MSTORE PUSH1 0x24 PUSH0 REVERT JUMPDEST ADDRESS PUSH0 MSTORE PUSH1 0x73 DUP2 MSTORE8 DUP3 DUP2 RETURN INVALID PUSH20 0x0 ADDRESS EQ PUSH1 0x80 PUSH1 0x40 MSTORE PUSH1 0x4 CALLDATASIZE LT PUSH2 0x29E JUMPI PUSH0 CALLDATALOAD PUSH1 0xE0 SHR DUP1 PUSH4 0x821ABC2D GT PUSH2 0x170 JUMPI DUP1 PUSH4 0xB0D4CE25 GT PUSH2 0xD7 JUMPI DUP1 PUSH4 0xDDCA3F43 GT PUSH2 0x90 JUMPI DUP1 PUSH4 0xDDCA3F43 EQ PUSH2 0x8BA JUMPI DUP1 PUSH4 0xDEC84DB1 EQ PUSH2 0x8D8 JUMPI DUP1 PUSH4 0xE149F036 EQ PUSH2 0x900 JUMPI DUP1 PUSH4 0xE68FDEE1 EQ PUSH2 0x930 JUMPI DUP1 PUSH4 0xEDC3BC3F EQ PUSH2 0x958 JUMPI DUP1 PUSH4 0xF589B754 EQ PUSH2 0x988 JUMPI PUSH2 0x29E JUMP JUMPDEST DUP1 PUSH4 0xB0D4CE25 EQ PUSH2 0x7D6 JUMPI DUP1 PUSH4 0xB62D8B91 EQ PUSH2 0x7FE JUMPI DUP1 PUSH4 0xD0125152 EQ PUSH2 0x82E JUMPI DUP1 PUSH4 0xD20B6EE7 EQ PUSH2 0x856 JUMPI DUP1 PUSH4 0xD547CFB7 EQ PUSH2 0x874 JUMPI DUP1 PUSH4 0xDBE0B21C EQ PUSH2 0x892 JUMPI PUSH2 0x29E JUMP JUMPDEST DUP1 PUSH4 0x963BFE12 GT PUSH2 0x129 JUMPI DUP1 PUSH4 0x963BFE12 EQ PUSH2 0x6F2 JUMPI DUP1 PUSH4 0x98995F77 EQ PUSH2 0x710 JUMPI DUP1 PUSH4 0xA05CC559 EQ PUSH2 0x72E JUMPI DUP1 PUSH4 0xA3301173 EQ PUSH2 0x756 JUMPI DUP1 PUSH4 0xA7CC0136 EQ PUSH2 0x77E JUMPI DUP1 PUSH4 0xAD715F2E EQ PUSH2 0x7AE JUMPI PUSH2 0x29E JUMP JUMPDEST DUP1 PUSH4 0x821ABC2D EQ PUSH2 0x616 JUMPI DUP1 PUSH4 0x830D4091 EQ PUSH2 0x63E JUMPI DUP1 PUSH4 0x854F9DB9 EQ PUSH2 0x666 JUMPI DUP1 PUSH4 0x8FCA4DBE EQ PUSH2 0x68E JUMPI DUP1 PUSH4 0x9451C99A EQ PUSH2 0x6B6 JUMPI DUP1 PUSH4 0x95D89B41 EQ PUSH2 0x6D4 JUMPI PUSH2 0x29E JUMP JUMPDEST DUP1 PUSH4 0x39B37AB0 GT PUSH2 0x214 JUMPI DUP1 PUSH4 0x4F4979ED GT PUSH2 0x1CD JUMPI DUP1 PUSH4 0x4F4979ED EQ PUSH2 0x532 JUMPI DUP1 PUSH4 0x5B43BC99 EQ PUSH2 0x55A JUMPI DUP1 PUSH4 0x6C8B703F EQ PUSH2 0x582 JUMPI DUP1 PUSH4 0x6FF97F1D EQ PUSH2 0x5B2 JUMPI DUP1 PUSH4 0x74E24367 EQ PUSH2 0x5D0 JUMPI DUP1 PUSH4 0x810536EC EQ PUSH2 0x600 JUMPI PUSH2 0x29E JUMP JUMPDEST DUP1 PUSH4 0x39B37AB0 EQ PUSH2 0x444 JUMPI DUP1 PUSH4 0x40E02F5C EQ PUSH2 0x46C JUMPI DUP1 PUSH4 0x41BB0559 EQ PUSH2 0x494 JUMPI DUP1 PUSH4 0x44FAF255 EQ PUSH2 0x4BC JUMPI DUP1 PUSH4 0x47F69EBA EQ PUSH2 0x4DA JUMPI DUP1 PUSH4 0x49A0A50E EQ PUSH2 0x50A JUMPI PUSH2 0x29E JUMP JUMPDEST DUP1 PUSH4 0x247C6CE0 GT PUSH2 0x266 JUMPI DUP1 PUSH4 0x247C6CE0 EQ PUSH2 0x35E JUMPI DUP1 PUSH4 0x31413EFC EQ PUSH2 0x386 JUMPI DUP1 PUSH4 0x32B07B43 EQ PUSH2 0x3AE JUMPI DUP1 PUSH4 0x33171809 EQ PUSH2 0x3D6 JUMPI DUP1 PUSH4 0x345E7B28 EQ PUSH2 0x3F4 JUMPI DUP1 PUSH4 0x3802497B EQ PUSH2 0x41C JUMPI PUSH2 0x29E JUMP JUMPDEST DUP1 PUSH4 0x6FDDE03 EQ PUSH2 0x2A2 JUMPI DUP1 PUSH4 0x71BC71C EQ PUSH2 0x2C0 JUMPI DUP1 PUSH4 0x13C19FF6 EQ PUSH2 0x2E8 JUMPI DUP1 PUSH4 0x19F86200 EQ PUSH2 0x310 JUMPI DUP1 PUSH4 0x21B0ED7D EQ PUSH2 0x32E JUMPI JUMPDEST PUSH0 PUSH0 REVERT JUMPDEST PUSH2 0x2AA PUSH2 0x9A6 JUMP JUMPDEST PUSH1 0x40 MLOAD PUSH2 0x2B7 SWAP2 SWAP1 PUSH2 0x281F JUMP JUMPDEST PUSH1 0x40 MLOAD DUP1 SWAP2 SUB SWAP1 RETURN JUMPDEST DUP2 DUP1 ISZERO PUSH2 0x2CB JUMPI PUSH0 PUSH0 REVERT JUMPDEST POP PUSH2 0x2E6 PUSH1 0x4 DUP1 CALLDATASIZE SUB DUP2 ADD SWAP1 PUSH2 0x2E1 SWAP2 SWAP1 PUSH2 0x28DD JUMP JUMPDEST PUSH2 0xA7C JUMP JUMPDEST STOP JUMPDEST DUP2 DUP1 ISZERO PUSH2 0x2F3 JUMPI PUSH0 PUSH0 REVERT JUMPDEST POP PUSH2 0x30E PUSH1 0x4 DUP1 CALLDATASIZE SUB DUP2 ADD SWAP1 PUSH2 0x309 SWAP2 SWAP1 PUSH2 0x292D JUMP JUMPDEST PUSH2 0xD5E JUMP JUMPDEST STOP JUMPDEST PUSH2 0x318 PUSH2 0xDF9 JUMP JUMPDEST PUSH1 0x40 MLOAD PUSH2 0x325 SWAP2 SWAP1 PUSH2 0x2983 JUMP JUMPDEST PUSH1 0x40 MLOAD DUP1 SWAP2 SUB SWAP1 RETURN JUMPDEST PUSH2 0x348 PUSH1 0x4 DUP1 CALLDATASIZE SUB DUP2 ADD SWAP1 PUSH2 0x343 SWAP2 SWAP1 PUSH2 0x299C JUMP JUMPDEST PUSH2 0xE48 JUMP JUMPDEST PUSH1 0x40 MLOAD PUSH2 0x355 SWAP2 SWAP1 PUSH2 0x29D6 JUMP JUMPDEST PUSH1 0x40 MLOAD DUP1 SWAP2 SUB SWAP1 RETURN JUMPDEST DUP2 DUP1 ISZERO PUSH2 0x369 JUMPI PUSH0 PUSH0 REVERT JUMPDEST POP PUSH2 0x384 PUSH1 0x4 DUP1 CALLDATASIZE SUB DUP2 ADD SWAP1 PUSH2 0x37F SWAP2 SWAP1 PUSH2 0x2A19 JUMP JUMPDEST PUSH2 0xED4 JUMP JUMPDEST STOP JUMPDEST DUP2 DUP1 ISZERO PUSH2 0x391 JUMPI PUSH0 PUSH0 REVERT JUMPDEST POP PUSH2 0x3AC PUSH1 0x4 DUP1 CALLDATASIZE SUB DUP2 ADD SWAP1 PUSH2 0x3A7 SWAP2 SWAP1 PUSH2 0x299C JUMP JUMPDEST PUSH2 0xF24 JUMP JUMPDEST STOP JUMPDEST DUP2 DUP1 ISZERO PUSH2 0x3B9 JUMPI PUSH0 PUSH0 REVERT JUMPDEST POP PUSH2 0x3D4 PUSH1 0x4 DUP1 CALLDATASIZE SUB DUP2 ADD SWAP1 PUSH2 0x3CF SWAP2 SWAP1 PUSH2 0x2A44 JUMP JUMPDEST PUSH2 0x103E JUMP JUMPDEST STOP JUMPDEST PUSH2 0x3DE PUSH2 0x108E JUMP JUMPDEST PUSH1 0x40 MLOAD PUSH2 0x3EB SWAP2 SWAP1 PUSH2 0x2983 JUMP JUMPDEST PUSH1 0x40 MLOAD DUP1 SWAP2 SUB SWAP1 RETURN JUMPDEST DUP2 DUP1 ISZERO PUSH2 0x3FF JUMPI PUSH0 PUSH0 REVERT JUMPDEST POP PUSH2 0x41A PUSH1 0x4 DUP1 CALLDATASIZE SUB DUP2 ADD SWAP1 PUSH2 0x415 SWAP2 SWAP1 PUSH2 0x2A44 JUMP JUMPDEST PUSH2 0x10DD JUMP JUMPDEST STOP JUMPDEST DUP2 DUP1 ISZERO PUSH2 0x427 JUMPI PUSH0 PUSH0 REVERT JUMPDEST POP PUSH2 0x442 PUSH1 0x4 DUP1 CALLDATASIZE SUB DUP2 ADD SWAP1 PUSH2 0x43D SWAP2 SWAP1 PUSH2 0x2A19 JUMP JUMPDEST PUSH2 0x112D JUMP JUMPDEST STOP JUMPDEST DUP2 DUP1 ISZERO PUSH2 0x44F JUMPI PUSH0 PUSH0 REVERT JUMPDEST POP PUSH2 0x46A PUSH1 0x4 DUP1 CALLDATASIZE SUB DUP2 ADD SWAP1 PUSH2 0x465 SWAP2 SWAP1 PUSH2 0x2A44 JUMP JUMPDEST PUSH2 0x117D JUMP JUMPDEST STOP JUMPDEST DUP2 DUP1 ISZERO PUSH2 0x477 JUMPI PUSH0 PUSH0 REVERT JUMPDEST POP PUSH2 0x492 PUSH1 0x4 DUP1 CALLDATASIZE SUB DUP2 ADD SWAP1 PUSH2 0x48D SWAP2 SWAP1 PUSH2 0x2A44 JUMP JUMPDEST PUSH2 0x11CD JUMP JUMPDEST STOP JUMPDEST DUP2 DUP1 ISZERO PUSH2 0x49F JUMPI PUSH0 PUSH0 REVERT JUMPDEST POP PUSH2 0x4BA PUSH1 0x4 DUP1 CALLDATASIZE SUB DUP2 ADD SWAP1 PUSH2 0x4B5 SWAP2 SWAP1 PUSH2 0x2B9B JUMP JUMPDEST PUSH2 0x1477 JUMP JUMPDEST STOP JUMPDEST PUSH2 0x4C4 PUSH2 0x14D0 JUMP JUMPDEST PUSH1 0x40 MLOAD PUSH2 0x4D1 SWAP2 SWAP1 PUSH2 0x29D6 JUMP JUMPDEST PUSH1 0x40 MLOAD DUP1 SWAP2 SUB SWAP1 RETURN JUMPDEST PUSH2 0x4F4 PUSH1 0x4 DUP1 CALLDATASIZE SUB DUP2 ADD SWAP1 PUSH2 0x4EF SWAP2 SWAP1 PUSH2 0x2A44 JUMP JUMPDEST PUSH2 0x151F JUMP JUMPDEST PUSH1 0x40 MLOAD PUSH2 0x501 SWAP2 SWAP1 PUSH2 0x29D6 JUMP JUMPDEST PUSH1 0x40 MLOAD DUP1 SWAP2 SUB SWAP1 RETURN JUMPDEST DUP2 DUP1 ISZERO PUSH2 0x515 JUMPI PUSH0 PUSH0 REVERT JUMPDEST POP PUSH2 0x530 PUSH1 0x4 DUP1 CALLDATASIZE SUB DUP2 ADD SWAP1 PUSH2 0x52B SWAP2 SWAP1 PUSH2 0x28DD JUMP JUMPDEST PUSH2 0x157F JUMP JUMPDEST STOP JUMPDEST DUP2 DUP1 ISZERO PUSH2 0x53D JUMPI PUSH0 PUSH0 REVERT JUMPDEST POP PUSH2 0x558 PUSH1 0x4 DUP1 CALLDATASIZE SUB DUP2 ADD SWAP1 PUSH2 0x553 SWAP2 SWAP1 PUSH2 0x28DD JUMP JUMPDEST PUSH2 0x161B JUMP JUMPDEST STOP JUMPDEST DUP2 DUP1 ISZERO PUSH2 0x565 JUMPI PUSH0 PUSH0 REVERT JUMPDEST POP PUSH2 0x580 PUSH1 0x4 DUP1 CALLDATASIZE SUB DUP2 ADD SWAP1 PUSH2 0x57B SWAP2 SWAP1 PUSH2 0x2B9B JUMP JUMPDEST PUSH2 0x1713 JUMP JUMPDEST STOP JUMPDEST PUSH2 0x59C PUSH1 0x4 DUP1 CALLDATASIZE SUB DUP2 ADD SWAP1 PUSH2 0x597 SWAP2 SWAP1 PUSH2 0x2A44 JUMP JUMPDEST PUSH2 0x176C JUMP JUMPDEST PUSH1 0x40 MLOAD PUSH2 0x5A9 SWAP2 SWAP1 PUSH2 0x281F JUMP JUMPDEST PUSH1 0x40 MLOAD DUP1 SWAP2 SUB SWAP1 RETURN JUMPDEST PUSH2 0x5BA PUSH2 0x1853 JUMP JUMPDEST PUSH1 0x40 MLOAD PUSH2 0x5C7 SWAP2 SWAP1 PUSH2 0x2C99 JUMP JUMPDEST PUSH1 0x40 MLOAD DUP1 SWAP2 SUB SWAP1 RETURN JUMPDEST PUSH2 0x5EA PUSH1 0x4 DUP1 CALLDATASIZE SUB DUP2 ADD SWAP1 PUSH2 0x5E5 SWAP2 SWAP1 PUSH2 0x2A44 JUMP JUMPDEST PUSH2 0x18EF JUMP JUMPDEST PUSH1 0x40 MLOAD PUSH2 0x5F7 SWAP2 SWAP1 PUSH2 0x29D6 JUMP JUMPDEST PUSH1 0x40 MLOAD DUP1 SWAP2 SUB SWAP1 RETURN JUMPDEST DUP2 DUP1 ISZERO PUSH2 0x60B JUMPI PUSH0 PUSH0 REVERT JUMPDEST POP PUSH2 0x614 PUSH2 0x194F JUMP JUMPDEST STOP JUMPDEST DUP2 DUP1 ISZERO PUSH2 0x621 JUMPI PUSH0 PUSH0 REVERT JUMPDEST POP PUSH2 0x63C PUSH1 0x4 DUP1 CALLDATASIZE SUB DUP2 ADD SWAP1 PUSH2 0x637 SWAP2 SWAP1 PUSH2 0x2B9B JUMP JUMPDEST PUSH2 0x19F7 JUMP JUMPDEST STOP JUMPDEST DUP2 DUP1 ISZERO PUSH2 0x649 JUMPI PUSH0 PUSH0 REVERT JUMPDEST POP PUSH2 0x664 PUSH1 0x4 DUP1 CALLDATASIZE SUB DUP2 ADD SWAP1 PUSH2 0x65F SWAP2 SWAP1 PUSH2 0x2CEE JUMP JUMPDEST PUSH2 0x1A50 JUMP JUMPDEST STOP JUMPDEST DUP2 DUP1 ISZERO PUSH2 0x671 JUMPI PUSH0 PUSH0 REVERT JUMPDEST POP PUSH2 0x68C PUSH1 0x4 DUP1 CALLDATASIZE SUB DUP2 ADD SWAP1 PUSH2 0x687 SWAP2 SWAP1 PUSH2 0x2A19 JUMP JUMPDEST PUSH2 0x1B2A JUMP JUMPDEST STOP JUMPDEST DUP2 DUP1 ISZERO PUSH2 0x699 JUMPI PUSH0 PUSH0 REVERT JUMPDEST POP PUSH2 0x6B4 PUSH1 0x4 DUP1 CALLDATASIZE SUB DUP2 ADD SWAP1 PUSH2 0x6AF SWAP2 SWAP1 PUSH2 0x2A44 JUMP JUMPDEST PUSH2 0x1B7A JUMP JUMPDEST STOP JUMPDEST PUSH2 0x6BE PUSH2 0x1BCA JUMP JUMPDEST PUSH1 0x40 MLOAD PUSH2 0x6CB SWAP2 SWAP1 PUSH2 0x29D6 JUMP JUMPDEST PUSH1 0x40 MLOAD DUP1 SWAP2 SUB SWAP1 RETURN JUMPDEST PUSH2 0x6DC PUSH2 0x1C19 JUMP JUMPDEST PUSH1 0x40 MLOAD PUSH2 0x6E9 SWAP2 SWAP1 PUSH2 0x281F JUMP JUMPDEST PUSH1 0x40 MLOAD DUP1 SWAP2 SUB SWAP1 RETURN JUMPDEST PUSH2 0x6FA PUSH2 0x1CEF JUMP JUMPDEST PUSH1 0x40 MLOAD PUSH2 0x707 SWAP2 SWAP1 PUSH2 0x281F JUMP JUMPDEST PUSH1 0x40 MLOAD DUP1 SWAP2 SUB SWAP1 RETURN JUMPDEST PUSH2 0x718 PUSH2 0x1DC5 JUMP JUMPDEST PUSH1 0x40 MLOAD PUSH2 0x725 SWAP2 SWAP1 PUSH2 0x29D6 JUMP JUMPDEST PUSH1 0x40 MLOAD DUP1 SWAP2 SUB SWAP1 RETURN JUMPDEST DUP2 DUP1 ISZERO PUSH2 0x739 JUMPI PUSH0 PUSH0 REVERT JUMPDEST POP PUSH2 0x754 PUSH1 0x4 DUP1 CALLDATASIZE SUB DUP2 ADD SWAP1 PUSH2 0x74F SWAP2 SWAP1 PUSH2 0x2B9B JUMP JUMPDEST PUSH2 0x1E14 JUMP JUMPDEST STOP JUMPDEST DUP2 DUP1 ISZERO PUSH2 0x761 JUMPI PUSH0 PUSH0 REVERT JUMPDEST POP PUSH2 0x77C PUSH1 0x4 DUP1 CALLDATASIZE SUB DUP2 ADD SWAP1 PUSH2 0x777 SWAP2 SWAP1 PUSH2 0x2D3E JUMP JUMPDEST PUSH2 0x1E6C JUMP JUMPDEST STOP JUMPDEST PUSH2 0x798 PUSH1 0x4 DUP1 CALLDATASIZE SUB DUP2 ADD SWAP1 PUSH2 0x793 SWAP2 SWAP1 PUSH2 0x2A44 JUMP JUMPDEST PUSH2 0x1EF8 JUMP JUMPDEST PUSH1 0x40 MLOAD PUSH2 0x7A5 SWAP2 SWAP1 PUSH2 0x2DA5 JUMP JUMPDEST PUSH1 0x40 MLOAD DUP1 SWAP2 SUB SWAP1 RETURN JUMPDEST DUP2 DUP1 ISZERO PUSH2 0x7B9 JUMPI PUSH0 PUSH0 REVERT JUMPDEST POP PUSH2 0x7D4 PUSH1 0x4 DUP1 CALLDATASIZE SUB DUP2 ADD SWAP1 PUSH2 0x7CF SWAP2 SWAP1 PUSH2 0x2DBE JUMP JUMPDEST PUSH2 0x1FBD JUMP JUMPDEST STOP JUMPDEST DUP2 DUP1 ISZERO PUSH2 0x7E1 JUMPI PUSH0 PUSH0 REVERT JUMPDEST POP PUSH2 0x7FC PUSH1 0x4 DUP1 CALLDATASIZE SUB DUP2 ADD SWAP1 PUSH2 0x7F7 SWAP2 SWAP1 PUSH2 0x2DFC JUMP JUMPDEST PUSH2 0x201D JUMP JUMPDEST STOP JUMPDEST PUSH2 0x818 PUSH1 0x4 DUP1 CALLDATASIZE SUB DUP2 ADD SWAP1 PUSH2 0x813 SWAP2 SWAP1 PUSH2 0x299C JUMP JUMPDEST PUSH2 0x20BB JUMP JUMPDEST PUSH1 0x40 MLOAD PUSH2 0x825 SWAP2 SWAP1 PUSH2 0x2E49 JUMP JUMPDEST PUSH1 0x40 MLOAD DUP1 SWAP2 SUB SWAP1 RETURN JUMPDEST DUP2 DUP1 ISZERO PUSH2 0x839 JUMPI PUSH0 PUSH0 REVERT JUMPDEST POP PUSH2 0x854 PUSH1 0x4 DUP1 CALLDATASIZE SUB DUP2 ADD SWAP1 PUSH2 0x84F SWAP2 SWAP1 PUSH2 0x299C JUMP JUMPDEST PUSH2 0x2153 JUMP JUMPDEST STOP JUMPDEST PUSH2 0x85E PUSH2 0x226D JUMP JUMPDEST PUSH1 0x40 MLOAD PUSH2 0x86B SWAP2 SWAP1 PUSH2 0x29D6 JUMP JUMPDEST PUSH1 0x40 MLOAD DUP1 SWAP2 SUB SWAP1 RETURN JUMPDEST PUSH2 0x87C PUSH2 0x22BC JUMP JUMPDEST PUSH1 0x40 MLOAD PUSH2 0x889 SWAP2 SWAP1 PUSH2 0x281F JUMP JUMPDEST PUSH1 0x40 MLOAD DUP1 SWAP2 SUB SWAP1 RETURN JUMPDEST DUP2 DUP1 ISZERO PUSH2 0x89D JUMPI PUSH0 PUSH0 REVERT JUMPDEST POP PUSH2 0x8B8 PUSH1 0x4 DUP1 CALLDATASIZE SUB DUP2 ADD SWAP1 PUSH2 0x8B3 SWAP2 SWAP1 PUSH2 0x2A44 JUMP JUMPDEST PUSH2 0x2391 JUMP JUMPDEST STOP JUMPDEST PUSH2 0x8C2 PUSH2 0x24A7 JUMP JUMPDEST PUSH1 0x40 MLOAD PUSH2 0x8CF SWAP2 SWAP1 PUSH2 0x29D6 JUMP JUMPDEST PUSH1 0x40 MLOAD DUP1 SWAP2 SUB SWAP1 RETURN JUMPDEST DUP2 DUP1 ISZERO PUSH2 0x8E3 JUMPI PUSH0 PUSH0 REVERT JUMPDEST POP PUSH2 0x8FE PUSH1 0x4 DUP1 CALLDATASIZE SUB DUP2 ADD SWAP1 PUSH2 0x8F9 SWAP2 SWAP1 PUSH2 0x2E62 JUMP JUMPDEST PUSH2 0x24F6 JUMP JUMPDEST STOP JUMPDEST PUSH2 0x91A PUSH1 0x4 DUP1 CALLDATASIZE SUB DUP2 ADD SWAP1 PUSH2 0x915 SWAP2 SWAP1 PUSH2 0x2D3E JUMP JUMPDEST PUSH2 0x255F JUMP JUMPDEST PUSH1 0x40 MLOAD PUSH2 0x927 SWAP2 SWAP1 PUSH2 0x29D6 JUMP JUMPDEST PUSH1 0x40 MLOAD DUP1 SWAP2 SUB SWAP1 RETURN JUMPDEST DUP2 DUP1 ISZERO PUSH2 0x93B JUMPI PUSH0 PUSH0 REVERT JUMPDEST POP PUSH2 0x956 PUSH1 0x4 DUP1 CALLDATASIZE SUB DUP2 ADD SWAP1 PUSH2 0x951 SWAP2 SWAP1 PUSH2 0x2DBE JUMP JUMPDEST PUSH2 0x25FB JUMP JUMPDEST STOP JUMPDEST PUSH2 0x972 PUSH1 0x4 DUP1 CALLDATASIZE SUB DUP2 ADD SWAP1 PUSH2 0x96D SWAP2 SWAP1 PUSH2 0x2EBC JUMP JUMPDEST PUSH2 0x265B JUMP JUMPDEST PUSH1 0x40 MLOAD PUSH2 0x97F SWAP2 SWAP1 PUSH2 0x2E49 JUMP JUMPDEST PUSH1 0x40 MLOAD DUP1 SWAP2 SUB SWAP1 RETURN JUMPDEST PUSH2 0x990 PUSH2 0x272F JUMP JUMPDEST PUSH1 0x40 MLOAD PUSH2 0x99D SWAP2 SWAP1 PUSH2 0x2983 JUMP JUMPDEST PUSH1 0x40 MLOAD DUP1 SWAP2 SUB SWAP1 RETURN JUMPDEST PUSH1 0x60 PUSH2 0x9ED PUSH1 0x40 MLOAD DUP1 PUSH1 0x40 ADD PUSH1 0x40 MSTORE DUP1 PUSH1 0x6 DUP2 MSTORE PUSH1 0x20 ADD PUSH32 0x534D45616D620000000000000000000000000000000000000000000000000000 DUP2 MSTORE POP DUP1 MLOAD SWAP1 PUSH1 0x20 ADD KECCAK256 PUSH2 0x277E JUMP JUMPDEST PUSH1 0xE ADD DUP1 SLOAD PUSH2 0x9FB SWAP1 PUSH2 0x2F27 JUMP JUMPDEST DUP1 PUSH1 0x1F ADD PUSH1 0x20 DUP1 SWAP2 DIV MUL PUSH1 0x20 ADD PUSH1 0x40 MLOAD SWAP1 DUP2 ADD PUSH1 0x40 MSTORE DUP1 SWAP3 SWAP2 SWAP1 DUP2 DUP2 MSTORE PUSH1 0x20 ADD DUP3 DUP1 SLOAD PUSH2 0xA27 SWAP1 PUSH2 0x2F27 JUMP JUMPDEST DUP1 ISZERO PUSH2 0xA72 JUMPI DUP1 PUSH1 0x1F LT PUSH2 0xA49 JUMPI PUSH2 0x100 DUP1 DUP4 SLOAD DIV MUL DUP4 MSTORE SWAP2 PUSH1 0x20 ADD SWAP2 PUSH2 0xA72 JUMP JUMPDEST DUP3 ADD SWAP2 SWAP1 PUSH0 MSTORE PUSH1 0x20 PUSH0 KECCAK256 SWAP1 JUMPDEST DUP2 SLOAD DUP2 MSTORE SWAP1 PUSH1 0x1 ADD SWAP1 PUSH1 0x20 ADD DUP1 DUP4 GT PUSH2 0xA55 JUMPI DUP3 SWAP1 SUB PUSH1 0x1F AND DUP3 ADD SWAP2 JUMPDEST POP POP POP POP POP SWAP1 POP SWAP1 JUMP JUMPDEST PUSH0 PUSH2 0xAC2 PUSH1 0x40 MLOAD DUP1 PUSH1 0x40 ADD PUSH1 0x40 MSTORE DUP1 PUSH1 0x6 DUP2 MSTORE PUSH1 0x20 ADD PUSH32 0x534D45616D620000000000000000000000000000000000000000000000000000 DUP2 MSTORE POP DUP1 MLOAD SWAP1 PUSH1 0x20 ADD KECCAK256 PUSH2 0x277E JUMP JUMPDEST PUSH1 0x4 ADD PUSH0 DUP5 DUP2 MSTORE PUSH1 0x20 ADD SWAP1 DUP2 MSTORE PUSH1 0x20 ADD PUSH0 KECCAK256 SLOAD SWAP1 POP DUP2 DUP2 EQ PUSH2 0xC69 JUMPI PUSH0 PUSH2 0xB24 PUSH1 0x40 MLOAD DUP1 PUSH1 0x40 ADD PUSH1 0x40 MSTORE DUP1 PUSH1 0x6 DUP2 MSTORE PUSH1 0x20 ADD PUSH32 0x534D45616D620000000000000000000000000000000000000000000000000000 DUP2 MSTORE POP DUP1 MLOAD SWAP1 PUSH1 0x20 ADD KECCAK256 PUSH2 0x277E JUMP JUMPDEST PUSH1 0x3 ADD PUSH0 DUP7 PUSH20 0xFFFFFFFFFFFFFFFFFFFFFFFFFFFFFFFFFFFFFFFF AND PUSH20 0xFFFFFFFFFFFFFFFFFFFFFFFFFFFFFFFFFFFFFFFF AND DUP2 MSTORE PUSH1 0x20 ADD SWAP1 DUP2 MSTORE PUSH1 0x20 ADD PUSH0 KECCAK256 PUSH0 DUP5 DUP2 MSTORE PUSH1 0x20 ADD SWAP1 DUP2 MSTORE PUSH1 0x20 ADD PUSH0 KECCAK256 SLOAD SWAP1 POP DUP1 PUSH2 0xBBA PUSH1 0x40 MLOAD DUP1 PUSH1 0x40 ADD PUSH1 0x40 MSTORE DUP1 PUSH1 0x6 DUP2 MSTORE PUSH1 0x20 ADD PUSH32 0x534D45616D620000000000000000000000000000000000000000000000000000 DUP2 MSTORE POP DUP1 MLOAD SWAP1 PUSH1 0x20 ADD KECCAK256 PUSH2 0x277E JUMP JUMPDEST PUSH1 0x3 ADD PUSH0 DUP8 PUSH20 0xFFFFFFFFFFFFFFFFFFFFFFFFFFFFFFFFFFFFFFFF AND PUSH20 0xFFFFFFFFFFFFFFFFFFFFFFFFFFFFFFFFFFFFFFFF AND DUP2 MSTORE PUSH1 0x20 ADD SWAP1 DUP2 MSTORE PUSH1 0x20 ADD PUSH0 KECCAK256 PUSH0 DUP5 DUP2 MSTORE PUSH1 0x20 ADD SWAP1 DUP2 MSTORE PUSH1 0x20 ADD PUSH0 KECCAK256 DUP2 SWAP1 SSTORE POP DUP2 PUSH2 0xC51 PUSH1 0x40 MLOAD DUP1 PUSH1 0x40 ADD PUSH1 0x40 MSTORE DUP1 PUSH1 0x6 DUP2 MSTORE PUSH1 0x20 ADD PUSH32 0x534D45616D620000000000000000000000000000000000000000000000000000 DUP2 MSTORE POP DUP1 MLOAD SWAP1 PUSH1 0x20 ADD KECCAK256 PUSH2 0x277E JUMP JUMPDEST PUSH1 0x4 ADD PUSH0 DUP4 DUP2 MSTORE PUSH1 0x20 ADD SWAP1 DUP2 MSTORE PUSH1 0x20 ADD PUSH0 KECCAK256 DUP2 SWAP1 SSTORE POP POP JUMPDEST PUSH2 0xCAE PUSH1 0x40 MLOAD DUP1 PUSH1 0x40 ADD PUSH1 0x40 MSTORE DUP1 PUSH1 0x6 DUP2 MSTORE PUSH1 0x20 ADD PUSH32 0x534D45616D620000000000000000000000000000000000000000000000000000 DUP2 MSTORE POP DUP1 MLOAD SWAP1 PUSH1 0x20 ADD KECCAK256 PUSH2 0x277E JUMP JUMPDEST PUSH1 0x4 ADD PUSH0 DUP5 DUP2 MSTORE PUSH1 0x20 ADD SWAP1 DUP2 MSTORE PUSH1 0x20 ADD PUSH0 KECCAK256 PUSH0 SWAP1 SSTORE PUSH2 0xD08 PUSH1 0x40 MLOAD DUP1 PUSH1 0x40 ADD PUSH1 0x40 MSTORE DUP1 PUSH1 0x6 DUP2 MSTORE PUSH1 0x20 ADD PUSH32 0x534D45616D620000000000000000000000000000000000000000000000000000 DUP2 MSTORE POP DUP1 MLOAD SWAP1 PUSH1 0x20 ADD KECCAK256 PUSH2 0x277E JUMP JUMPDEST PUSH1 0x3 ADD PUSH0 DUP6 PUSH20 0xFFFFFFFFFFFFFFFFFFFFFFFFFFFFFFFFFFFFFFFF AND PUSH20 0xFFFFFFFFFFFFFFFFFFFFFFFFFFFFFFFFFFFFFFFF AND DUP2 MSTORE PUSH1 0x20 ADD SWAP1 DUP2 MSTORE PUSH1 0x20 ADD PUSH0 KECCAK256 PUSH0 DUP4 DUP2 MSTORE PUSH1 0x20 ADD SWAP1 DUP2 MSTORE PUSH1 0x20 ADD PUSH0 KECCAK256 PUSH0 SWAP1 SSTORE POP POP POP POP JUMP JUMPDEST DUP1 PUSH2 0xDA4 PUSH1 0x40 MLOAD DUP1 PUSH1 0x40 ADD PUSH1 0x40 MSTORE DUP1 PUSH1 0x6 DUP2 MSTORE PUSH1 0x20 ADD PUSH32 0x534D45616D620000000000000000000000000000000000000000000000000000 DUP2 MSTORE POP DUP1 MLOAD SWAP1 PUSH1 0x20 ADD KECCAK256 PUSH2 0x277E JUMP JUMPDEST PUSH1 0x12 ADD PUSH0 DUP5 DUP2 MSTORE PUSH1 0x20 ADD SWAP1 DUP2 MSTORE PUSH1 0x20 ADD PUSH0 KECCAK256 PUSH0 ADD PUSH0 PUSH2 0x100 EXP DUP2 SLOAD DUP2 PUSH20 0xFFFFFFFFFFFFFFFFFFFFFFFFFFFFFFFFFFFFFFFF MUL NOT AND SWAP1 DUP4 PUSH20 0xFFFFFFFFFFFFFFFFFFFFFFFFFFFFFFFFFFFFFFFF AND MUL OR SWAP1 SSTORE POP POP POP JUMP JUMPDEST PUSH0 PUSH2 0xE3F PUSH1 0x40 MLOAD DUP1 PUSH1 0x40 ADD PUSH1 0x40 MSTORE DUP1 PUSH1 0x6 DUP2 MSTORE PUSH1 0x20 ADD PUSH32 0x534D45616D620000000000000000000000000000000000000000000000000000 DUP2 MSTORE POP DUP1 MLOAD SWAP1 PUSH1 0x20 ADD KECCAK256 PUSH2 0x277E JUMP JUMPDEST PUSH1 0x7 ADD SLOAD SWAP1 POP SWAP1 JUMP JUMPDEST PUSH0 PUSH2 0xE8E PUSH1 0x40 MLOAD DUP1 PUSH1 0x40 ADD PUSH1 0x40 MSTORE DUP1 PUSH1 0x6 DUP2 MSTORE PUSH1 0x20 ADD PUSH32 0x534D45616D620000000000000000000000000000000000000000000000000000 DUP2 MSTORE POP DUP1 MLOAD SWAP1 PUSH1 0x20 ADD KECCAK256 PUSH2 0x277E JUMP JUMPDEST PUSH1 0x11 ADD PUSH0 DUP4 PUSH20 0xFFFFFFFFFFFFFFFFFFFFFFFFFFFFFFFFFFFFFFFF AND PUSH20 0xFFFFFFFFFFFFFFFFFFFFFFFFFFFFFFFFFFFFFFFF AND DUP2 MSTORE PUSH1 0x20 ADD SWAP1 DUP2 MSTORE PUSH1 0x20 ADD PUSH0 KECCAK256 SLOAD SWAP1 POP SWAP2 SWAP1 POP JUMP JUMPDEST DUP1 PUSH2 0xF1A PUSH1 0x40 MLOAD DUP1 PUSH1 0x40 ADD PUSH1 0x40 MSTORE DUP1 PUSH1 0x6 DUP2 MSTORE PUSH1 0x20 ADD PUSH32 0x534D45616D620000000000000000000000000000000000000000000000000000 DUP2 MSTORE POP DUP1 MLOAD SWAP1 PUSH1 0x20 ADD KECCAK256 PUSH2 0x277E JUMP JUMPDEST PUSH1 0x9 ADD DUP2 SWAP1 SSTORE POP POP JUMP JUMPDEST PUSH1 0x1 PUSH2 0xF6B PUSH1 0x40 MLOAD DUP1 PUSH1 0x40 ADD PUSH1 0x40 MSTORE DUP1 PUSH1 0x6 DUP2 MSTORE PUSH1 0x20 ADD PUSH32 0x534D45616D620000000000000000000000000000000000000000000000000000 DUP2 MSTORE POP DUP1 MLOAD SWAP1 PUSH1 0x20 ADD KECCAK256 PUSH2 0x277E JUMP JUMPDEST PUSH1 0x11 ADD PUSH0 DUP4 PUSH20 0xFFFFFFFFFFFFFFFFFFFFFFFFFFFFFFFFFFFFFFFF AND PUSH20 0xFFFFFFFFFFFFFFFFFFFFFFFFFFFFFFFFFFFFFFFF AND DUP2 MSTORE PUSH1 0x20 ADD SWAP1 DUP2 MSTORE PUSH1 0x20 ADD PUSH0 KECCAK256 SLOAD PUSH2 0xFB4 SWAP2 SWAP1 PUSH2 0x2F84 JUMP JUMPDEST PUSH2 0xFF9 PUSH1 0x40 MLOAD DUP1 PUSH1 0x40 ADD PUSH1 0x40 MSTORE DUP1 PUSH1 0x6 DUP2 MSTORE PUSH1 0x20 ADD PUSH32 0x534D45616D620000000000000000000000000000000000000000000000000000 DUP2 MSTORE POP DUP1 MLOAD SWAP1 PUSH1 0x20 ADD KECCAK256 PUSH2 0x277E JUMP JUMPDEST PUSH1 0x11 ADD PUSH0 DUP4 PUSH20 0xFFFFFFFFFFFFFFFFFFFFFFFFFFFFFFFFFFFFFFFF AND PUSH20 0xFFFFFFFFFFFFFFFFFFFFFFFFFFFFFFFFFFFFFFFF AND DUP2 MSTORE PUSH1 0x20 ADD SWAP1 DUP2 MSTORE PUSH1 0x20 ADD PUSH0 KECCAK256 DUP2 SWAP1 SSTORE POP POP JUMP JUMPDEST DUP1 PUSH2 0x1084 PUSH1 0x40 MLOAD DUP1 PUSH1 0x40 ADD PUSH1 0x40 MSTORE DUP1 PUSH1 0x6 DUP2 MSTORE PUSH1 0x20 ADD PUSH32 0x534D45616D620000000000000000000000000000000000000000000000000000 DUP2 MSTORE POP DUP1 MLOAD SWAP1 PUSH1 0x20 ADD KECCAK256 PUSH2 0x277E JUMP JUMPDEST PUSH1 0x15 ADD DUP2 SWAP1 SSTORE POP POP JUMP JUMPDEST PUSH0 PUSH2 0x10D4 PUSH1 0x40 MLOAD DUP1 PUSH1 0x40 ADD PUSH1 0x40 MSTORE DUP1 PUSH1 0x6 DUP2 MSTORE PUSH1 0x20 ADD PUSH32 0x534D45616D620000000000000000000000000000000000000000000000000000 DUP2 MSTORE POP DUP1 MLOAD SWAP1 PUSH1 0x20 ADD KECCAK256 PUSH2 0x277E JUMP JUMPDEST PUSH1 0x9 ADD SLOAD SWAP1 POP SWAP1 JUMP JUMPDEST DUP1 PUSH2 0x1123 PUSH1 0x40 MLOAD DUP1 PUSH1 0x40 ADD PUSH1 0x40 MSTORE DUP1 PUSH1 0x6 DUP2 MSTORE PUSH1 0x20 ADD PUSH32 0x534D45616D620000000000000000000000000000000000000000000000000000 DUP2 MSTORE POP DUP1 MLOAD SWAP1 PUSH1 0x20 ADD KECCAK256 PUSH2 0x277E JUMP JUMPDEST PUSH1 0xC ADD DUP2 SWAP1 SSTORE POP POP JUMP JUMPDEST DUP1 PUSH2 0x1173 PUSH1 0x40 MLOAD DUP1 PUSH1 0x40 ADD PUSH1 0x40 MSTORE DUP1 PUSH1 0x6 DUP2 MSTORE PUSH1 0x20 ADD PUSH32 0x534D45616D620000000000000000000000000000000000000000000000000000 DUP2 MSTORE POP DUP1 MLOAD SWAP1 PUSH1 0x20 ADD KECCAK256 PUSH2 0x277E JUMP JUMPDEST PUSH1 0x7 ADD DUP2 SWAP1 SSTORE POP POP JUMP JUMPDEST DUP1 PUSH2 0x11C3 PUSH1 0x40 MLOAD DUP1 PUSH1 0x40 ADD PUSH1 0x40 MSTORE DUP1 PUSH1 0x6 DUP2 MSTORE PUSH1 0x20 ADD PUSH32 0x534D45616D620000000000000000000000000000000000000000000000000000 DUP2 MSTORE POP DUP1 MLOAD SWAP1 PUSH1 0x20 ADD KECCAK256 PUSH2 0x277E JUMP JUMPDEST PUSH1 0xA ADD DUP2 SWAP1 SSTORE POP POP JUMP JUMPDEST PUSH0 PUSH1 0x1 PUSH2 0x1215 PUSH1 0x40 MLOAD DUP1 PUSH1 0x40 ADD PUSH1 0x40 MSTORE DUP1 PUSH1 0x6 DUP2 MSTORE PUSH1 0x20 ADD PUSH32 0x534D45616D620000000000000000000000000000000000000000000000000000 DUP2 MSTORE POP DUP1 MLOAD SWAP1 PUSH1 0x20 ADD KECCAK256 PUSH2 0x277E JUMP JUMPDEST PUSH1 0x5 ADD DUP1 SLOAD SWAP1 POP PUSH2 0x1226 SWAP2 SWAP1 PUSH2 0x2F84 JUMP JUMPDEST SWAP1 POP PUSH0 PUSH2 0x126E PUSH1 0x40 MLOAD DUP1 PUSH1 0x40 ADD PUSH1 0x40 MSTORE DUP1 PUSH1 0x6 DUP2 MSTORE PUSH1 0x20 ADD PUSH32 0x534D45616D620000000000000000000000000000000000000000000000000000 DUP2 MSTORE POP DUP1 MLOAD SWAP1 PUSH1 0x20 ADD KECCAK256 PUSH2 0x277E JUMP JUMPDEST PUSH1 0x6 ADD PUSH0 DUP5 DUP2 MSTORE PUSH1 0x20 ADD SWAP1 DUP2 MSTORE PUSH1 0x20 ADD PUSH0 KECCAK256 SLOAD SWAP1 POP PUSH0 PUSH2 0x12C9 PUSH1 0x40 MLOAD DUP1 PUSH1 0x40 ADD PUSH1 0x40 MSTORE DUP1 PUSH1 0x6 DUP2 MSTORE PUSH1 0x20 ADD PUSH32 0x534D45616D620000000000000000000000000000000000000000000000000000 DUP2 MSTORE POP DUP1 MLOAD SWAP1 PUSH1 0x20 ADD KECCAK256 PUSH2 0x277E JUMP JUMPDEST PUSH1 0x5 ADD DUP4 DUP2 SLOAD DUP2 LT PUSH2 0x12DE JUMPI PUSH2 0x12DD PUSH2 0x2FB7 JUMP JUMPDEST JUMPDEST SWAP1 PUSH0 MSTORE PUSH1 0x20 PUSH0 KECCAK256 ADD SLOAD SWAP1 POP DUP1 PUSH2 0x132F PUSH1 0x40 MLOAD DUP1 PUSH1 0x40 ADD PUSH1 0x40 MSTORE DUP1 PUSH1 0x6 DUP2 MSTORE PUSH1 0x20 ADD PUSH32 0x534D45616D620000000000000000000000000000000000000000000000000000 DUP2 MSTORE POP DUP1 MLOAD SWAP1 PUSH1 0x20 ADD KECCAK256 PUSH2 0x277E JUMP JUMPDEST PUSH1 0x5 ADD DUP4 DUP2 SLOAD DUP2 LT PUSH2 0x1344 JUMPI PUSH2 0x1343 PUSH2 0x2FB7 JUMP JUMPDEST JUMPDEST SWAP1 PUSH0 MSTORE PUSH1 0x20 PUSH0 KECCAK256 ADD DUP2 SWAP1 SSTORE POP DUP2 PUSH2 0x1396 PUSH1 0x40 MLOAD DUP1 PUSH1 0x40 ADD PUSH1 0x40 MSTORE DUP1 PUSH1 0x6 DUP2 MSTORE PUSH1 0x20 ADD PUSH32 0x534D45616D620000000000000000000000000000000000000000000000000000 DUP2 MSTORE POP DUP1 MLOAD SWAP1 PUSH1 0x20 ADD KECCAK256 PUSH2 0x277E JUMP JUMPDEST PUSH1 0x6 ADD PUSH0 DUP4 DUP2 MSTORE PUSH1 0x20 ADD SWAP1 DUP2 MSTORE PUSH1 0x20 ADD PUSH0 KECCAK256 DUP2 SWAP1 SSTORE POP PUSH2 0x13F1 PUSH1 0x40 MLOAD DUP1 PUSH1 0x40 ADD PUSH1 0x40 MSTORE DUP1 PUSH1 0x6 DUP2 MSTORE PUSH1 0x20 ADD PUSH32 0x534D45616D620000000000000000000000000000000000000000000000000000 DUP2 MSTORE POP DUP1 MLOAD SWAP1 PUSH1 0x20 ADD KECCAK256 PUSH2 0x277E JUMP JUMPDEST PUSH1 0x6 ADD PUSH0 DUP6 DUP2 MSTORE PUSH1 0x20 ADD SWAP1 DUP2 MSTORE PUSH1 0x20 ADD PUSH0 KECCAK256 PUSH0 SWAP1 SSTORE PUSH2 0x144B PUSH1 0x40 MLOAD DUP1 PUSH1 0x40 ADD PUSH1 0x40 MSTORE DUP1 PUSH1 0x6 DUP2 MSTORE PUSH1 0x20 ADD PUSH32 0x534D45616D620000000000000000000000000000000000000000000000000000 DUP2 MSTORE POP DUP1 MLOAD SWAP1 PUSH1 0x20 ADD KECCAK256 PUSH2 0x277E JUMP JUMPDEST PUSH1 0x5 ADD DUP1 SLOAD DUP1 PUSH2 0x145E JUMPI PUSH2 0x145D PUSH2 0x2FE4 JUMP JUMPDEST JUMPDEST PUSH1 0x1 SWAP1 SUB DUP2 DUP2 SWAP1 PUSH0 MSTORE PUSH1 0x20 PUSH0 KECCAK256 ADD PUSH0 SWAP1 SSTORE SWAP1 SSTORE POP POP POP POP JUMP JUMPDEST DUP1 PUSH2 0x14BD PUSH1 0x40 MLOAD DUP1 PUSH1 0x40 ADD PUSH1 0x40 MSTORE DUP1 PUSH1 0x6 DUP2 MSTORE PUSH1 0x20 ADD PUSH32 0x534D45616D620000000000000000000000000000000000000000000000000000 DUP2 MSTORE POP DUP1 MLOAD SWAP1 PUSH1 0x20 ADD KECCAK256 PUSH2 0x277E JUMP JUMPDEST PUSH1 0xF ADD SWAP1 DUP2 PUSH2 0x14CC SWAP2 SWAP1 PUSH2 0x31B1 JUMP JUMPDEST POP POP JUMP JUMPDEST PUSH0 PUSH2 0x1516 PUSH1 0x40 MLOAD DUP1 PUSH1 0x40 ADD PUSH1 0x40 MSTORE DUP1 PUSH1 0x6 DUP2 MSTORE PUSH1 0x20 ADD PUSH32 0x534D45616D620000000000000000000000000000000000000000000000000000 DUP2 MSTORE POP DUP1 MLOAD SWAP1 PUSH1 0x20 ADD KECCAK256 PUSH2 0x277E JUMP JUMPDEST PUSH1 0xD ADD SLOAD SWAP1 POP SWAP1 JUMP JUMPDEST PUSH0 PUSH2 0x1565 PUSH1 0x40 MLOAD DUP1 PUSH1 0x40 ADD PUSH1 0x40 MSTORE DUP1 PUSH1 0x6 DUP2 MSTORE PUSH1 0x20 ADD PUSH32 0x534D45616D620000000000000000000000000000000000000000000000000000 DUP2 MSTORE POP DUP1 MLOAD SWAP1 PUSH1 0x20 ADD KECCAK256 PUSH2 0x277E JUMP JUMPDEST PUSH1 0x10 ADD PUSH0 DUP4 DUP2 MSTORE PUSH1 0x20 ADD SWAP1 DUP2 MSTORE PUSH1 0x20 ADD PUSH0 KECCAK256 SLOAD SWAP1 POP SWAP2 SWAP1 POP JUMP JUMPDEST DUP1 PUSH2 0x15C5 PUSH1 0x40 MLOAD DUP1 PUSH1 0x40 ADD PUSH1 0x40 MSTORE DUP1 PUSH1 0x6 DUP2 MSTORE PUSH1 0x20 ADD PUSH32 0x534D45616D620000000000000000000000000000000000000000000000000000 DUP2 MSTORE POP DUP1 MLOAD SWAP1 PUSH1 0x20 ADD KECCAK256 PUSH2 0x277E JUMP JUMPDEST PUSH1 0x3 ADD PUSH0 DUP6 PUSH20 0xFFFFFFFFFFFFFFFFFFFFFFFFFFFFFFFFFFFFFFFF AND PUSH20 0xFFFFFFFFFFFFFFFFFFFFFFFFFFFFFFFFFFFFFFFF AND DUP2 MSTORE PUSH1 0x20 ADD SWAP1 DUP2 MSTORE PUSH1 0x20 ADD PUSH0 KECCAK256 PUSH0 DUP5 DUP2 MSTORE PUSH1 0x20 ADD SWAP1 DUP2 MSTORE PUSH1 0x20 ADD PUSH0 KECCAK256 DUP2 SWAP1 SSTORE POP POP POP POP JUMP JUMPDEST DUP2 PUSH2 0x1661 PUSH1 0x40 MLOAD DUP1 PUSH1 0x40 ADD PUSH1 0x40 MSTORE DUP1 PUSH1 0x6 DUP2 MSTORE PUSH1 0x20 ADD PUSH32 0x534D45616D620000000000000000000000000000000000000000000000000000 DUP2 MSTORE POP DUP1 MLOAD SWAP1 PUSH1 0x20 ADD KECCAK256 PUSH2 0x277E JUMP JUMPDEST PUSH1 0x3 ADD PUSH0 DUP6 PUSH20 0xFFFFFFFFFFFFFFFFFFFFFFFFFFFFFFFFFFFFFFFF AND PUSH20 0xFFFFFFFFFFFFFFFFFFFFFFFFFFFFFFFFFFFFFFFF AND DUP2 MSTORE PUSH1 0x20 ADD SWAP1 DUP2 MSTORE PUSH1 0x20 ADD PUSH0 KECCAK256 PUSH0 DUP4 DUP2 MSTORE PUSH1 0x20 ADD SWAP1 DUP2 MSTORE PUSH1 0x20 ADD PUSH0 KECCAK256 DUP2 SWAP1 SSTORE POP DUP1 PUSH2 0x16F8 PUSH1 0x40 MLOAD DUP1 PUSH1 0x40 ADD PUSH1 0x40 MSTORE DUP1 PUSH1 0x6 DUP2 MSTORE PUSH1 0x20 ADD PUSH32 0x534D45616D620000000000000000000000000000000000000000000000000000 DUP2 MSTORE POP DUP1 MLOAD SWAP1 PUSH1 0x20 ADD KECCAK256 PUSH2 0x277E JUMP JUMPDEST PUSH1 0x4 ADD PUSH0 DUP5 DUP2 MSTORE PUSH1 0x20 ADD SWAP1 DUP2 MSTORE PUSH1 0x20 ADD PUSH0 KECCAK256 DUP2 SWAP1 SSTORE POP POP POP POP JUMP JUMPDEST DUP1 PUSH2 0x1759 PUSH1 0x40 MLOAD DUP1 PUSH1 0x40 ADD PUSH1 0x40 MSTORE DUP1 PUSH1 0x6 DUP2 MSTORE PUSH1 0x20 ADD PUSH32 0x534D45616D620000000000000000000000000000000000000000000000000000 DUP2 MSTORE POP DUP1 MLOAD SWAP1 PUSH1 0x20 ADD KECCAK256 PUSH2 0x277E JUMP JUMPDEST PUSH1 0xE ADD SWAP1 DUP2 PUSH2 0x1768 SWAP2 SWAP1 PUSH2 0x31B1 JUMP JUMPDEST POP POP JUMP JUMPDEST PUSH1 0x60 PUSH2 0x17B3 PUSH1 0x40 MLOAD DUP1 PUSH1 0x40 ADD PUSH1 0x40 MSTORE DUP1 PUSH1 0x6 DUP2 MSTORE PUSH1 0x20 ADD PUSH32 0x534D45616D620000000000000000000000000000000000000000000000000000 DUP2 MSTORE POP DUP1 MLOAD SWAP1 PUSH1 0x20 ADD KECCAK256 PUSH2 0x277E JUMP JUMPDEST PUSH1 0x2 ADD PUSH0 DUP4 DUP2 MSTORE PUSH1 0x20 ADD SWAP1 DUP2 MSTORE PUSH1 0x20 ADD PUSH0 KECCAK256 DUP1 SLOAD PUSH2 0x17D0 SWAP1 PUSH2 0x2F27 JUMP JUMPDEST DUP1 PUSH1 0x1F ADD PUSH1 0x20 DUP1 SWAP2 DIV MUL PUSH1 0x20 ADD PUSH1 0x40 MLOAD SWAP1 DUP2 ADD PUSH1 0x40 MSTORE DUP1 SWAP3 SWAP2 SWAP1 DUP2 DUP2 MSTORE PUSH1 0x20 ADD DUP3 DUP1 SLOAD PUSH2 0x17FC SWAP1 PUSH2 0x2F27 JUMP JUMPDEST DUP1 ISZERO PUSH2 0x1847 JUMPI DUP1 PUSH1 0x1F LT PUSH2 0x181E JUMPI PUSH2 0x100 DUP1 DUP4 SLOAD DIV MUL DUP4 MSTORE SWAP2 PUSH1 0x20 ADD SWAP2 PUSH2 0x1847 JUMP JUMPDEST DUP3 ADD SWAP2 SWAP1 PUSH0 MSTORE PUSH1 0x20 PUSH0 KECCAK256 SWAP1 JUMPDEST DUP2 SLOAD DUP2 MSTORE SWAP1 PUSH1 0x1 ADD SWAP1 PUSH1 0x20 ADD DUP1 DUP4 GT PUSH2 0x182A JUMPI DUP3 SWAP1 SUB PUSH1 0x1F AND DUP3 ADD SWAP2 JUMPDEST POP POP POP POP POP SWAP1 POP SWAP2 SWAP1 POP JUMP JUMPDEST PUSH1 0x60 PUSH2 0x189A PUSH1 0x40 MLOAD DUP1 PUSH1 0x40 ADD PUSH1 0x40 MSTORE DUP1 PUSH1 0x6 DUP2 MSTORE PUSH1 0x20 ADD PUSH32 0x534D45616D620000000000000000000000000000000000000000000000000000 DUP2 MSTORE POP DUP1 MLOAD SWAP1 PUSH1 0x20 ADD KECCAK256 PUSH2 0x277E JUMP JUMPDEST PUSH1 0x5 ADD DUP1 SLOAD DUP1 PUSH1 0x20 MUL PUSH1 0x20 ADD PUSH1 0x40 MLOAD SWAP1 DUP2 ADD PUSH1 0x40 MSTORE DUP1 SWAP3 SWAP2 SWAP1 DUP2 DUP2 MSTORE PUSH1 0x20 ADD DUP3 DUP1 SLOAD DUP1 ISZERO PUSH2 0x18E5 JUMPI PUSH1 0x20 MUL DUP3 ADD SWAP2 SWAP1 PUSH0 MSTORE PUSH1 0x20 PUSH0 KECCAK256 SWAP1 JUMPDEST DUP2 SLOAD DUP2 MSTORE PUSH1 0x20 ADD SWAP1 PUSH1 0x1 ADD SWAP1 DUP1 DUP4 GT PUSH2 0x18D1 JUMPI JUMPDEST POP POP POP POP POP SWAP1 POP SWAP1 JUMP JUMPDEST PUSH0 PUSH2 0x1935 PUSH1 0x40 MLOAD DUP1 PUSH1 0x40 ADD PUSH1 0x40 MSTORE DUP1 PUSH1 0x6 DUP2 MSTORE PUSH1 0x20 ADD PUSH32 0x534D45616D620000000000000000000000000000000000000000000000000000 DUP2 MSTORE POP DUP1 MLOAD SWAP1 PUSH1 0x20 ADD KECCAK256 PUSH2 0x277E JUMP JUMPDEST PUSH1 0x4 ADD PUSH0 DUP4 DUP2 MSTORE PUSH1 0x20 ADD SWAP1 DUP2 MSTORE PUSH1 0x20 ADD PUSH0 KECCAK256 SLOAD SWAP1 POP SWAP2 SWAP1 POP JUMP JUMPDEST PUSH0 PUSH2 0x1995 PUSH1 0x40 MLOAD DUP1 PUSH1 0x40 ADD PUSH1 0x40 MSTORE DUP1 PUSH1 0x6 DUP2 MSTORE PUSH1 0x20 ADD PUSH32 0x534D45616D620000000000000000000000000000000000000000000000000000 DUP2 MSTORE POP DUP1 MLOAD SWAP1 PUSH1 0x20 ADD KECCAK256 PUSH2 0x277E JUMP JUMPDEST PUSH1 0x14 ADD SLOAD SWAP1 POP PUSH1 0x1 DUP2 PUSH2 0x19A8 SWAP2 SWAP1 PUSH2 0x3280 JUMP JUMPDEST PUSH2 0x19ED PUSH1 0x40 MLOAD DUP1 PUSH1 0x40 ADD PUSH1 0x40 MSTORE DUP1 PUSH1 0x6 DUP2 MSTORE PUSH1 0x20 ADD PUSH32 0x534D45616D620000000000000000000000000000000000000000000000000000 DUP2 MSTORE POP DUP1 MLOAD SWAP1 PUSH1 0x20 ADD KECCAK256 PUSH2 0x277E JUMP JUMPDEST PUSH1 0x14 ADD DUP2 SWAP1 SSTORE POP POP JUMP JUMPDEST DUP1 PUSH2 0x1A3D PUSH1 0x40 MLOAD DUP1 PUSH1 0x40 ADD PUSH1 0x40 MSTORE DUP1 PUSH1 0x6 DUP2 MSTORE PUSH1 0x20 ADD PUSH32 0x534D45616D620000000000000000000000000000000000000000000000000000 DUP2 MSTORE POP DUP1 MLOAD SWAP1 PUSH1 0x20 ADD KECCAK256 PUSH2 0x277E JUMP JUMPDEST PUSH1 0x1 ADD SWAP1 DUP2 PUSH2 0x1A4C SWAP2 SWAP1 PUSH2 0x31B1 JUMP JUMPDEST POP POP JUMP JUMPDEST DUP1 PUSH2 0x1A96 PUSH1 0x40 MLOAD DUP1 PUSH1 0x40 ADD PUSH1 0x40 MSTORE DUP1 PUSH1 0x6 DUP2 MSTORE PUSH1 0x20 ADD PUSH32 0x534D45616D620000000000000000000000000000000000000000000000000000 DUP2 MSTORE POP DUP1 MLOAD SWAP1 PUSH1 0x20 ADD KECCAK256 PUSH2 0x277E JUMP JUMPDEST PUSH1 0x13 ADD PUSH0 DUP6 PUSH20 0xFFFFFFFFFFFFFFFFFFFFFFFFFFFFFFFFFFFFFFFF AND PUSH20 0xFFFFFFFFFFFFFFFFFFFFFFFFFFFFFFFFFFFFFFFF AND DUP2 MSTORE PUSH1 0x20 ADD SWAP1 DUP2 MSTORE PUSH1 0x20 ADD PUSH0 KECCAK256 PUSH0 DUP5 PUSH20 0xFFFFFFFFFFFFFFFFFFFFFFFFFFFFFFFFFFFFFFFF AND PUSH20 0xFFFFFFFFFFFFFFFFFFFFFFFFFFFFFFFFFFFFFFFF AND DUP2 MSTORE PUSH1 0x20 ADD SWAP1 DUP2 MSTORE PUSH1 0x20 ADD PUSH0 KECCAK256 PUSH0 PUSH2 0x100 EXP DUP2 SLOAD DUP2 PUSH1 0xFF MUL NOT AND SWAP1 DUP4 ISZERO ISZERO MUL OR SWAP1 SSTORE POP POP POP POP JUMP JUMPDEST DUP1 PUSH2 0x1B70 PUSH1 0x40 MLOAD DUP1 PUSH1 0x40 ADD PUSH1 0x40 MSTORE DUP1 PUSH1 0x6 DUP2 MSTORE PUSH1 0x20 ADD PUSH32 0x534D45616D620000000000000000000000000000000000000000000000000000 DUP2 MSTORE POP DUP1 MLOAD SWAP1 PUSH1 0x20 ADD KECCAK256 PUSH2 0x277E JUMP JUMPDEST PUSH1 0x8 ADD DUP2 SWAP1 SSTORE POP POP JUMP JUMPDEST DUP1 PUSH2 0x1BC0 PUSH1 0x40 MLOAD DUP1 PUSH1 0x40 ADD PUSH1 0x40 MSTORE DUP1 PUSH1 0x6 DUP2 MSTORE PUSH1 0x20 ADD PUSH32 0x534D45616D620000000000000000000000000000000000000000000000000000 DUP2 MSTORE POP DUP1 MLOAD SWAP1 PUSH1 0x20 ADD KECCAK256 PUSH2 0x277E JUMP JUMPDEST PUSH1 0xD ADD DUP2 SWAP1 SSTORE POP POP JUMP JUMPDEST PUSH0 PUSH2 0x1C10 PUSH1 0x40 MLOAD DUP1 PUSH1 0x40 ADD PUSH1 0x40 MSTORE DUP1 PUSH1 0x6 DUP2 MSTORE PUSH1 0x20 ADD PUSH32 0x534D45616D620000000000000000000000000000000000000000000000000000 DUP2 MSTORE POP DUP1 MLOAD SWAP1 PUSH1 0x20 ADD KECCAK256 PUSH2 0x277E JUMP JUMPDEST PUSH1 0xC ADD SLOAD SWAP1 POP SWAP1 JUMP JUMPDEST PUSH1 0x60 PUSH2 0x1C60 PUSH1 0x40 MLOAD DUP1 PUSH1 0x40 ADD PUSH1 0x40 MSTORE DUP1 PUSH1 0x6 DUP2 MSTORE PUSH1 0x20 ADD PUSH32 0x534D45616D620000000000000000000000000000000000000000000000000000 DUP2 MSTORE POP DUP1 MLOAD SWAP1 PUSH1 0x20 ADD KECCAK256 PUSH2 0x277E JUMP JUMPDEST PUSH1 0xF ADD DUP1 SLOAD PUSH2 0x1C6E SWAP1 PUSH2 0x2F27 JUMP JUMPDEST DUP1 PUSH1 0x1F ADD PUSH1 0x20 DUP1 SWAP2 DIV MUL PUSH1 0x20 ADD PUSH1 0x40 MLOAD SWAP1 DUP2 ADD PUSH1 0x40 MSTORE DUP1 SWAP3 SWAP2 SWAP1 DUP2 DUP2 MSTORE PUSH1 0x20 ADD DUP3 DUP1 SLOAD PUSH2 0x1C9A SWAP1 PUSH2 0x2F27 JUMP JUMPDEST DUP1 ISZERO PUSH2 0x1CE5 JUMPI DUP1 PUSH1 0x1F LT PUSH2 0x1CBC JUMPI PUSH2 0x100 DUP1 DUP4 SLOAD DIV MUL DUP4 MSTORE SWAP2 PUSH1 0x20 ADD SWAP2 PUSH2 0x1CE5 JUMP JUMPDEST DUP3 ADD SWAP2 SWAP1 PUSH0 MSTORE PUSH1 0x20 PUSH0 KECCAK256 SWAP1 JUMPDEST DUP2 SLOAD DUP2 MSTORE SWAP1 PUSH1 0x1 ADD SWAP1 PUSH1 0x20 ADD DUP1 DUP4 GT PUSH2 0x1CC8 JUMPI DUP3 SWAP1 SUB PUSH1 0x1F AND DUP3 ADD SWAP2 JUMPDEST POP POP POP POP POP SWAP1 POP SWAP1 JUMP JUMPDEST PUSH1 0x60 PUSH2 0x1D36 PUSH1 0x40 MLOAD DUP1 PUSH1 0x40 ADD PUSH1 0x40 MSTORE DUP1 PUSH1 0x6 DUP2 MSTORE PUSH1 0x20 ADD PUSH32 0x534D45616D620000000000000000000000000000000000000000000000000000 DUP2 MSTORE POP DUP1 MLOAD SWAP1 PUSH1 0x20 ADD KECCAK256 PUSH2 0x277E JUMP JUMPDEST PUSH1 0x1 ADD DUP1 SLOAD PUSH2 0x1D44 SWAP1 PUSH2 0x2F27 JUMP JUMPDEST DUP1 PUSH1 0x1F ADD PUSH1 0x20 DUP1 SWAP2 DIV MUL PUSH1 0x20 ADD PUSH1 0x40 MLOAD SWAP1 DUP2 ADD PUSH1 0x40 MSTORE DUP1 SWAP3 SWAP2 SWAP1 DUP2 DUP2 MSTORE PUSH1 0x20 ADD DUP3 DUP1 SLOAD PUSH2 0x1D70 SWAP1 PUSH2 0x2F27 JUMP JUMPDEST DUP1 ISZERO PUSH2 0x1DBB JUMPI DUP1 PUSH1 0x1F LT PUSH2 0x1D92 JUMPI PUSH2 0x100 DUP1 DUP4 SLOAD DIV MUL DUP4 MSTORE SWAP2 PUSH1 0x20 ADD SWAP2 PUSH2 0x1DBB JUMP JUMPDEST DUP3 ADD SWAP2 SWAP1 PUSH0 MSTORE PUSH1 0x20 PUSH0 KECCAK256 SWAP1 JUMPDEST DUP2 SLOAD DUP2 MSTORE SWAP1 PUSH1 0x1 ADD SWAP1 PUSH1 0x20 ADD DUP1 DUP4 GT PUSH2 0x1D9E JUMPI DUP3 SWAP1 SUB PUSH1 0x1F AND DUP3 ADD SWAP2 JUMPDEST POP POP POP POP POP SWAP1 POP SWAP1 JUMP JUMPDEST PUSH0 PUSH2 0x1E0B PUSH1 0x40 MLOAD DUP1 PUSH1 0x40 ADD PUSH1 0x40 MSTORE DUP1 PUSH1 0x6 DUP2 MSTORE PUSH1 0x20 ADD PUSH32 0x534D45616D620000000000000000000000000000000000000000000000000000 DUP2 MSTORE POP DUP1 MLOAD SWAP1 PUSH1 0x20 ADD KECCAK256 PUSH2 0x277E JUMP JUMPDEST PUSH1 0x15 ADD SLOAD SWAP1 POP SWAP1 JUMP JUMPDEST DUP1 PUSH2 0x1E5A PUSH1 0x40 MLOAD DUP1 PUSH1 0x40 ADD PUSH1 0x40 MSTORE DUP1 PUSH1 0x6 DUP2 MSTORE PUSH1 0x20 ADD PUSH32 0x534D45616D620000000000000000000000000000000000000000000000000000 DUP2 MSTORE POP DUP1 MLOAD SWAP1 PUSH1 0x20 ADD KECCAK256 PUSH2 0x277E JUMP JUMPDEST PUSH0 ADD SWAP1 DUP2 PUSH2 0x1E68 SWAP2 SWAP1 PUSH2 0x31B1 JUMP JUMPDEST POP POP JUMP JUMPDEST DUP1 PUSH2 0x1EB2 PUSH1 0x40 MLOAD DUP1 PUSH1 0x40 ADD PUSH1 0x40 MSTORE DUP1 PUSH1 0x6 DUP2 MSTORE PUSH1 0x20 ADD PUSH32 0x534D45616D620000000000000000000000000000000000000000000000000000 DUP2 MSTORE POP DUP1 MLOAD SWAP1 PUSH1 0x20 ADD KECCAK256 PUSH2 0x277E JUMP JUMPDEST PUSH1 0x11 ADD PUSH0 DUP5 PUSH20 0xFFFFFFFFFFFFFFFFFFFFFFFFFFFFFFFFFFFFFFFF AND PUSH20 0xFFFFFFFFFFFFFFFFFFFFFFFFFFFFFFFFFFFFFFFF AND DUP2 MSTORE PUSH1 0x20 ADD SWAP1 DUP2 MSTORE PUSH1 0x20 ADD PUSH0 KECCAK256 DUP2 SWAP1 SSTORE POP POP POP JUMP JUMPDEST PUSH2 0x1F00 PUSH2 0x2787 JUMP JUMPDEST PUSH2 0x1F45 PUSH1 0x40 MLOAD DUP1 PUSH1 0x40 ADD PUSH1 0x40 MSTORE DUP1 PUSH1 0x6 DUP2 MSTORE PUSH1 0x20 ADD PUSH32 0x534D45616D620000000000000000000000000000000000000000000000000000 DUP2 MSTORE POP DUP1 MLOAD SWAP1 PUSH1 0x20 ADD KECCAK256 PUSH2 0x277E JUMP JUMPDEST PUSH1 0x12 ADD PUSH0 DUP4 DUP2 MSTORE PUSH1 0x20 ADD SWAP1 DUP2 MSTORE PUSH1 0x20 ADD PUSH0 KECCAK256 PUSH1 0x40 MLOAD DUP1 PUSH1 0x20 ADD PUSH1 0x40 MSTORE SWAP1 DUP2 PUSH0 DUP3 ADD PUSH0 SWAP1 SLOAD SWAP1 PUSH2 0x100 EXP SWAP1 DIV PUSH20 0xFFFFFFFFFFFFFFFFFFFFFFFFFFFFFFFFFFFFFFFF AND PUSH20 0xFFFFFFFFFFFFFFFFFFFFFFFFFFFFFFFFFFFFFFFF AND PUSH20 0xFFFFFFFFFFFFFFFFFFFFFFFFFFFFFFFFFFFFFFFF AND DUP2 MSTORE POP POP SWAP1 POP SWAP2 SWAP1 POP JUMP JUMPDEST DUP1 PUSH2 0x2003 PUSH1 0x40 MLOAD DUP1 PUSH1 0x40 ADD PUSH1 0x40 MSTORE DUP1 PUSH1 0x6 DUP2 MSTORE PUSH1 0x20 ADD PUSH32 0x534D45616D620000000000000000000000000000000000000000000000000000 DUP2 MSTORE POP DUP1 MLOAD SWAP1 PUSH1 0x20 ADD KECCAK256 PUSH2 0x277E JUMP JUMPDEST PUSH1 0x4 ADD PUSH0 DUP5 DUP2 MSTORE PUSH1 0x20 ADD SWAP1 DUP2 MSTORE PUSH1 0x20 ADD PUSH0 KECCAK256 DUP2 SWAP1 SSTORE POP POP POP JUMP JUMPDEST DUP1 PUSH2 0x2063 PUSH1 0x40 MLOAD DUP1 PUSH1 0x40 ADD PUSH1 0x40 MSTORE DUP1 PUSH1 0x6 DUP2 MSTORE PUSH1 0x20 ADD PUSH32 0x534D45616D620000000000000000000000000000000000000000000000000000 DUP2 MSTORE POP DUP1 MLOAD SWAP1 PUSH1 0x20 ADD KECCAK256 PUSH2 0x277E JUMP JUMPDEST PUSH1 0xB ADD PUSH0 DUP5 PUSH20 0xFFFFFFFFFFFFFFFFFFFFFFFFFFFFFFFFFFFFFFFF AND PUSH20 0xFFFFFFFFFFFFFFFFFFFFFFFFFFFFFFFFFFFFFFFF AND DUP2 MSTORE PUSH1 0x20 ADD SWAP1 DUP2 MSTORE PUSH1 0x20 ADD PUSH0 KECCAK256 PUSH0 PUSH2 0x100 EXP DUP2 SLOAD DUP2 PUSH1 0xFF MUL NOT AND SWAP1 DUP4 ISZERO ISZERO MUL OR SWAP1 SSTORE POP POP POP JUMP JUMPDEST PUSH0 PUSH2 0x2101 PUSH1 0x40 MLOAD DUP1 PUSH1 0x40 ADD PUSH1 0x40 MSTORE DUP1 PUSH1 0x6 DUP2 MSTORE PUSH1 0x20 ADD PUSH32 0x534D45616D620000000000000000000000000000000000000000000000000000 DUP2 MSTORE POP DUP1 MLOAD SWAP1 PUSH1 0x20 ADD KECCAK256 PUSH2 0x277E JUMP JUMPDEST PUSH1 0xB ADD PUSH0 DUP4 PUSH20 0xFFFFFFFFFFFFFFFFFFFFFFFFFFFFFFFFFFFFFFFF AND PUSH20 0xFFFFFFFFFFFFFFFFFFFFFFFFFFFFFFFFFFFFFFFF AND DUP2 MSTORE PUSH1 0x20 ADD SWAP1 DUP2 MSTORE PUSH1 0x20 ADD PUSH0 KECCAK256 PUSH0 SWAP1 SLOAD SWAP1 PUSH2 0x100 EXP SWAP1 DIV PUSH1 0xFF AND SWAP1 POP SWAP2 SWAP1 POP JUMP JUMPDEST PUSH1 0x1 PUSH2 0x219A PUSH1 0x40 MLOAD DUP1 PUSH1 0x40 ADD PUSH1 0x40 MSTORE DUP1 PUSH1 0x6 DUP2 MSTORE PUSH1 0x20 ADD PUSH32 0x534D45616D620000000000000000000000000000000000000000000000000000 DUP2 MSTORE POP DUP1 MLOAD SWAP1 PUSH1 0x20 ADD KECCAK256 PUSH2 0x277E JUMP JUMPDEST PUSH1 0x11 ADD PUSH0 DUP4 PUSH20 0xFFFFFFFFFFFFFFFFFFFFFFFFFFFFFFFFFFFFFFFF AND PUSH20 0xFFFFFFFFFFFFFFFFFFFFFFFFFFFFFFFFFFFFFFFF AND DUP2 MSTORE PUSH1 0x20 ADD SWAP1 DUP2 MSTORE PUSH1 0x20 ADD PUSH0 KECCAK256 SLOAD PUSH2 0x21E3 SWAP2 SWAP1 PUSH2 0x3280 JUMP JUMPDEST PUSH2 0x2228 PUSH1 0x40 MLOAD DUP1 PUSH1 0x40 ADD PUSH1 0x40 MSTORE DUP1 PUSH1 0x6 DUP2 MSTORE PUSH1 0x20 ADD PUSH32 0x534D45616D620000000000000000000000000000000000000000000000000000 DUP2 MSTORE POP DUP1 MLOAD SWAP1 PUSH1 0x20 ADD KECCAK256 PUSH2 0x277E JUMP JUMPDEST PUSH1 0x11 ADD PUSH0 DUP4 PUSH20 0xFFFFFFFFFFFFFFFFFFFFFFFFFFFFFFFFFFFFFFFF AND PUSH20 0xFFFFFFFFFFFFFFFFFFFFFFFFFFFFFFFFFFFFFFFF AND DUP2 MSTORE PUSH1 0x20 ADD SWAP1 DUP2 MSTORE PUSH1 0x20 ADD PUSH0 KECCAK256 DUP2 SWAP1 SSTORE POP POP JUMP JUMPDEST PUSH0 PUSH2 0x22B3 PUSH1 0x40 MLOAD DUP1 PUSH1 0x40 ADD PUSH1 0x40 MSTORE DUP1 PUSH1 0x6 DUP2 MSTORE PUSH1 0x20 ADD PUSH32 0x534D45616D620000000000000000000000000000000000000000000000000000 DUP2 MSTORE POP DUP1 MLOAD SWAP1 PUSH1 0x20 ADD KECCAK256 PUSH2 0x277E JUMP JUMPDEST PUSH1 0x14 ADD SLOAD SWAP1 POP SWAP1 JUMP JUMPDEST PUSH1 0x60 PUSH2 0x2303 PUSH1 0x40 MLOAD DUP1 PUSH1 0x40 ADD PUSH1 0x40 MSTORE DUP1 PUSH1 0x6 DUP2 MSTORE PUSH1 0x20 ADD PUSH32 0x534D45616D620000000000000000000000000000000000000000000000000000 DUP2 MSTORE POP DUP1 MLOAD SWAP1 PUSH1 0x20 ADD KECCAK256 PUSH2 0x277E JUMP JUMPDEST PUSH0 ADD DUP1 SLOAD PUSH2 0x2310 SWAP1 PUSH2 0x2F27 JUMP JUMPDEST DUP1 PUSH1 0x1F ADD PUSH1 0x20 DUP1 SWAP2 DIV MUL PUSH1 0x20 ADD PUSH1 0x40 MLOAD SWAP1 DUP2 ADD PUSH1 0x40 MSTORE DUP1 SWAP3 SWAP2 SWAP1 DUP2 DUP2 MSTORE PUSH1 0x20 ADD DUP3 DUP1 SLOAD PUSH2 0x233C SWAP1 PUSH2 0x2F27 JUMP JUMPDEST DUP1 ISZERO PUSH2 0x2387 JUMPI DUP1 PUSH1 0x1F LT PUSH2 0x235E JUMPI PUSH2 0x100 DUP1 DUP4 SLOAD DIV MUL DUP4 MSTORE SWAP2 PUSH1 0x20 ADD SWAP2 PUSH2 0x2387 JUMP JUMPDEST DUP3 ADD SWAP2 SWAP1 PUSH0 MSTORE PUSH1 0x20 PUSH0 KECCAK256 SWAP1 JUMPDEST DUP2 SLOAD DUP2 MSTORE SWAP1 PUSH1 0x1 ADD SWAP1 PUSH1 0x20 ADD DUP1 DUP4 GT PUSH2 0x236A JUMPI DUP3 SWAP1 SUB PUSH1 0x1F AND DUP3 ADD SWAP2 JUMPDEST POP POP POP POP POP SWAP1 POP SWAP1 JUMP JUMPDEST PUSH2 0x23D6 PUSH1 0x40 MLOAD DUP1 PUSH1 0x40 ADD PUSH1 0x40 MSTORE DUP1 PUSH1 0x6 DUP2 MSTORE PUSH1 0x20 ADD PUSH32 0x534D45616D620000000000000000000000000000000000000000000000000000 DUP2 MSTORE POP DUP1 MLOAD SWAP1 PUSH1 0x20 ADD KECCAK256 PUSH2 0x277E JUMP JUMPDEST PUSH1 0x5 ADD DUP1 SLOAD SWAP1 POP PUSH2 0x2422 PUSH1 0x40 MLOAD DUP1 PUSH1 0x40 ADD PUSH1 0x40 MSTORE DUP1 PUSH1 0x6 DUP2 MSTORE PUSH1 0x20 ADD PUSH32 0x534D45616D620000000000000000000000000000000000000000000000000000 DUP2 MSTORE POP DUP1 MLOAD SWAP1 PUSH1 0x20 ADD KECCAK256 PUSH2 0x277E JUMP JUMPDEST PUSH1 0x6 ADD PUSH0 DUP4 DUP2 MSTORE PUSH1 0x20 ADD SWAP1 DUP2 MSTORE PUSH1 0x20 ADD PUSH0 KECCAK256 DUP2 SWAP1 SSTORE POP PUSH2 0x247D PUSH1 0x40 MLOAD DUP1 PUSH1 0x40 ADD PUSH1 0x40 MSTORE DUP1 PUSH1 0x6 DUP2 MSTORE PUSH1 0x20 ADD PUSH32 0x534D45616D620000000000000000000000000000000000000000000000000000 DUP2 MSTORE POP DUP1 MLOAD SWAP1 PUSH1 0x20 ADD KECCAK256 PUSH2 0x277E JUMP JUMPDEST PUSH1 0x5 ADD DUP2 SWAP1 DUP1 PUSH1 0x1 DUP2 SLOAD ADD DUP1 DUP3 SSTORE DUP1 SWAP2 POP POP PUSH1 0x1 SWAP1 SUB SWAP1 PUSH0 MSTORE PUSH1 0x20 PUSH0 KECCAK256 ADD PUSH0 SWAP1 SWAP2 SWAP1 SWAP2 SWAP1 SWAP2 POP SSTORE POP JUMP JUMPDEST PUSH0 PUSH2 0x24ED PUSH1 0x40 MLOAD DUP1 PUSH1 0x40 ADD PUSH1 0x40 MSTORE DUP1 PUSH1 0x6 DUP2 MSTORE PUSH1 0x20 ADD PUSH32 0x534D45616D620000000000000000000000000000000000000000000000000000 DUP2 MSTORE POP DUP1 MLOAD SWAP1 PUSH1 0x20 ADD KECCAK256 PUSH2 0x277E JUMP JUMPDEST PUSH1 0xA ADD SLOAD SWAP1 POP SWAP1 JUMP JUMPDEST DUP2 PUSH2 0x253C PUSH1 0x40 MLOAD DUP1 PUSH1 0x40 ADD PUSH1 0x40 MSTORE DUP1 PUSH1 0x6 DUP2 MSTORE PUSH1 0x20 ADD PUSH32 0x534D45616D620000000000000000000000000000000000000000000000000000 DUP2 MSTORE POP DUP1 MLOAD SWAP1 PUSH1 0x20 ADD KECCAK256 PUSH2 0x277E JUMP JUMPDEST PUSH1 0x2 ADD PUSH0 DUP4 DUP2 MSTORE PUSH1 0x20 ADD SWAP1 DUP2 MSTORE PUSH1 0x20 ADD PUSH0 KECCAK256 SWAP1 DUP2 PUSH2 0x255A SWAP2 SWAP1 PUSH2 0x31B1 JUMP JUMPDEST POP POP POP JUMP JUMPDEST PUSH0 PUSH2 0x25A5 PUSH1 0x40 MLOAD DUP1 PUSH1 0x40 ADD PUSH1 0x40 MSTORE DUP1 PUSH1 0x6 DUP2 MSTORE PUSH1 0x20 ADD PUSH32 0x534D45616D620000000000000000000000000000000000000000000000000000 DUP2 MSTORE POP DUP1 MLOAD SWAP1 PUSH1 0x20 ADD KECCAK256 PUSH2 0x277E JUMP JUMPDEST PUSH1 0x3 ADD PUSH0 DUP5 PUSH20 0xFFFFFFFFFFFFFFFFFFFFFFFFFFFFFFFFFFFFFFFF AND PUSH20 0xFFFFFFFFFFFFFFFFFFFFFFFFFFFFFFFFFFFFFFFF AND DUP2 MSTORE PUSH1 0x20 ADD SWAP1 DUP2 MSTORE PUSH1 0x20 ADD PUSH0 KECCAK256 PUSH0 DUP4 DUP2 MSTORE PUSH1 0x20 ADD SWAP1 DUP2 MSTORE PUSH1 0x20 ADD PUSH0 KECCAK256 SLOAD SWAP1 POP SWAP3 SWAP2 POP POP JUMP JUMPDEST DUP1 PUSH2 0x2641 PUSH1 0x40 MLOAD DUP1 PUSH1 0x40 ADD PUSH1 0x40 MSTORE DUP1 PUSH1 0x6 DUP2 MSTORE PUSH1 0x20 ADD PUSH32 0x534D45616D620000000000000000000000000000000000000000000000000000 DUP2 MSTORE POP DUP1 MLOAD SWAP1 PUSH1 0x20 ADD KECCAK256 PUSH2 0x277E JUMP JUMPDEST PUSH1 0x10 ADD PUSH0 DUP5 DUP2 MSTORE PUSH1 0x20 ADD SWAP1 DUP2 MSTORE PUSH1 0x20 ADD PUSH0 KECCAK256 DUP2 SWAP1 SSTORE POP POP POP JUMP JUMPDEST PUSH0 PUSH2 0x26A1 PUSH1 0x40 MLOAD DUP1 PUSH1 0x40 ADD PUSH1 0x40 MSTORE DUP1 PUSH1 0x6 DUP2 MSTORE PUSH1 0x20 ADD PUSH32 0x534D45616D620000000000000000000000000000000000000000000000000000 DUP2 MSTORE POP DUP1 MLOAD SWAP1 PUSH1 0x20 ADD KECCAK256 PUSH2 0x277E JUMP JUMPDEST PUSH1 0x13 ADD PUSH0 DUP5 PUSH20 0xFFFFFFFFFFFFFFFFFFFFFFFFFFFFFFFFFFFFFFFF AND PUSH20 0xFFFFFFFFFFFFFFFFFFFFFFFFFFFFFFFFFFFFFFFF AND DUP2 MSTORE PUSH1 0x20 ADD SWAP1 DUP2 MSTORE PUSH1 0x20 ADD PUSH0 KECCAK256 PUSH0 DUP4 PUSH20 0xFFFFFFFFFFFFFFFFFFFFFFFFFFFFFFFFFFFFFFFF AND PUSH20 0xFFFFFFFFFFFFFFFFFFFFFFFFFFFFFFFFFFFFFFFF AND DUP2 MSTORE PUSH1 0x20 ADD SWAP1 DUP2 MSTORE PUSH1 0x20 ADD PUSH0 KECCAK256 PUSH0 SWAP1 SLOAD SWAP1 PUSH2 0x100 EXP SWAP1 DIV PUSH1 0xFF AND SWAP1 POP SWAP3 SWAP2 POP POP JUMP JUMPDEST PUSH0 PUSH2 0x2775 PUSH1 0x40 MLOAD DUP1 PUSH1 0x40 ADD PUSH1 0x40 MSTORE DUP1 PUSH1 0x6 DUP2 MSTORE PUSH1 0x20 ADD PUSH32 0x534D45616D620000000000000000000000000000000000000000000000000000 DUP2 MSTORE POP DUP1 MLOAD SWAP1 PUSH1 0x20 ADD KECCAK256 PUSH2 0x277E JUMP JUMPDEST PUSH1 0x8 ADD SLOAD SWAP1 POP SWAP1 JUMP JUMPDEST PUSH0 DUP2 SWAP1 POP SWAP2 SWAP1 POP JUMP JUMPDEST PUSH1 0x40 MLOAD DUP1 PUSH1 0x20 ADD PUSH1 0x40 MSTORE DUP1 PUSH0 PUSH20 0xFFFFFFFFFFFFFFFFFFFFFFFFFFFFFFFFFFFFFFFF AND DUP2 MSTORE POP SWAP1 JUMP JUMPDEST PUSH0 DUP2 MLOAD SWAP1 POP SWAP2 SWAP1 POP JUMP JUMPDEST PUSH0 DUP3 DUP3 MSTORE PUSH1 0x20 DUP3 ADD SWAP1 POP SWAP3 SWAP2 POP POP JUMP JUMPDEST DUP3 DUP2 DUP4 MCOPY PUSH0 DUP4 DUP4 ADD MSTORE POP POP POP JUMP JUMPDEST PUSH0 PUSH1 0x1F NOT PUSH1 0x1F DUP4 ADD AND SWAP1 POP SWAP2 SWAP1 POP JUMP JUMPDEST PUSH0 PUSH2 0x27F1 DUP3 PUSH2 0x27AF JUMP JUMPDEST PUSH2 0x27FB DUP2 DUP6 PUSH2 0x27B9 JUMP JUMPDEST SWAP4 POP PUSH2 0x280B DUP2 DUP6 PUSH1 0x20 DUP7 ADD PUSH2 0x27C9 JUMP JUMPDEST PUSH2 0x2814 DUP2 PUSH2 0x27D7 JUMP JUMPDEST DUP5 ADD SWAP2 POP POP SWAP3 SWAP2 POP POP JUMP JUMPDEST PUSH0 PUSH1 0x20 DUP3 ADD SWAP1 POP DUP2 DUP2 SUB PUSH0 DUP4 ADD MSTORE PUSH2 0x2837 DUP2 DUP5 PUSH2 0x27E7 JUMP JUMPDEST SWAP1 POP SWAP3 SWAP2 POP POP JUMP JUMPDEST PUSH0 PUSH1 0x40 MLOAD SWAP1 POP SWAP1 JUMP JUMPDEST PUSH0 PUSH0 REVERT JUMPDEST PUSH0 PUSH0 REVERT JUMPDEST PUSH0 PUSH20 0xFFFFFFFFFFFFFFFFFFFFFFFFFFFFFFFFFFFFFFFF DUP3 AND SWAP1 POP SWAP2 SWAP1 POP JUMP JUMPDEST PUSH0 PUSH2 0x2879 DUP3 PUSH2 0x2850 JUMP JUMPDEST SWAP1 POP SWAP2 SWAP1 POP JUMP JUMPDEST PUSH2 0x2889 DUP2 PUSH2 0x286F JUMP JUMPDEST DUP2 EQ PUSH2 0x2893 JUMPI PUSH0 PUSH0 REVERT JUMPDEST POP JUMP JUMPDEST PUSH0 DUP2 CALLDATALOAD SWAP1 POP PUSH2 0x28A4 DUP2 PUSH2 0x2880 JUMP JUMPDEST SWAP3 SWAP2 POP POP JUMP JUMPDEST PUSH0 DUP2 SWAP1 POP SWAP2 SWAP1 POP JUMP JUMPDEST PUSH2 0x28BC DUP2 PUSH2 0x28AA JUMP JUMPDEST DUP2 EQ PUSH2 0x28C6 JUMPI PUSH0 PUSH0 REVERT JUMPDEST POP JUMP JUMPDEST PUSH0 DUP2 CALLDATALOAD SWAP1 POP PUSH2 0x28D7 DUP2 PUSH2 0x28B3 JUMP JUMPDEST SWAP3 SWAP2 POP POP JUMP JUMPDEST PUSH0 PUSH0 PUSH0 PUSH1 0x60 DUP5 DUP7 SUB SLT ISZERO PUSH2 0x28F4 JUMPI PUSH2 0x28F3 PUSH2 0x2848 JUMP JUMPDEST JUMPDEST PUSH0 PUSH2 0x2901 DUP7 DUP3 DUP8 ADD PUSH2 0x2896 JUMP JUMPDEST SWAP4 POP POP PUSH1 0x20 PUSH2 0x2912 DUP7 DUP3 DUP8 ADD PUSH2 0x28C9 JUMP JUMPDEST SWAP3 POP POP PUSH1 0x40 PUSH2 0x2923 DUP7 DUP3 DUP8 ADD PUSH2 0x28C9 JUMP JUMPDEST SWAP2 POP POP SWAP3 POP SWAP3 POP SWAP3 JUMP JUMPDEST PUSH0 PUSH0 PUSH1 0x40 DUP4 DUP6 SUB SLT ISZERO PUSH2 0x2943 JUMPI PUSH2 0x2942 PUSH2 0x2848 JUMP JUMPDEST JUMPDEST PUSH0 PUSH2 0x2950 DUP6 DUP3 DUP7 ADD PUSH2 0x28C9 JUMP JUMPDEST SWAP3 POP POP PUSH1 0x20 PUSH2 0x2961 DUP6 DUP3 DUP7 ADD PUSH2 0x2896 JUMP JUMPDEST SWAP2 POP POP SWAP3 POP SWAP3 SWAP1 POP JUMP JUMPDEST PUSH0 DUP2 SWAP1 POP SWAP2 SWAP1 POP JUMP JUMPDEST PUSH2 0x297D DUP2 PUSH2 0x296B JUMP JUMPDEST DUP3 MSTORE POP POP JUMP JUMPDEST PUSH0 PUSH1 0x20 DUP3 ADD SWAP1 POP PUSH2 0x2996 PUSH0 DUP4 ADD DUP5 PUSH2 0x2974 JUMP JUMPDEST SWAP3 SWAP2 POP POP JUMP JUMPDEST PUSH0 PUSH1 0x20 DUP3 DUP5 SUB SLT ISZERO PUSH2 0x29B1 JUMPI PUSH2 0x29B0 PUSH2 0x2848 JUMP JUMPDEST JUMPDEST PUSH0 PUSH2 0x29BE DUP5 DUP3 DUP6 ADD PUSH2 0x2896 JUMP JUMPDEST SWAP2 POP POP SWAP3 SWAP2 POP POP JUMP JUMPDEST PUSH2 0x29D0 DUP2 PUSH2 0x28AA JUMP JUMPDEST DUP3 MSTORE POP POP JUMP JUMPDEST PUSH0 PUSH1 0x20 DUP3 ADD SWAP1 POP PUSH2 0x29E9 PUSH0 DUP4 ADD DUP5 PUSH2 0x29C7 JUMP JUMPDEST SWAP3 SWAP2 POP POP JUMP JUMPDEST PUSH2 0x29F8 DUP2 PUSH2 0x296B JUMP JUMPDEST DUP2 EQ PUSH2 0x2A02 JUMPI PUSH0 PUSH0 REVERT JUMPDEST POP JUMP JUMPDEST PUSH0 DUP2 CALLDATALOAD SWAP1 POP PUSH2 0x2A13 DUP2 PUSH2 0x29EF JUMP JUMPDEST SWAP3 SWAP2 POP POP JUMP JUMPDEST PUSH0 PUSH1 0x20 DUP3 DUP5 SUB SLT ISZERO PUSH2 0x2A2E JUMPI PUSH2 0x2A2D PUSH2 0x2848 JUMP JUMPDEST JUMPDEST PUSH0 PUSH2 0x2A3B DUP5 DUP3 DUP6 ADD PUSH2 0x2A05 JUMP JUMPDEST SWAP2 POP POP SWAP3 SWAP2 POP POP JUMP JUMPDEST PUSH0 PUSH1 0x20 DUP3 DUP5 SUB SLT ISZERO PUSH2 0x2A59 JUMPI PUSH2 0x2A58 PUSH2 0x2848 JUMP JUMPDEST JUMPDEST PUSH0 PUSH2 0x2A66 DUP5 DUP3 DUP6 ADD PUSH2 0x28C9 JUMP JUMPDEST SWAP2 POP POP SWAP3 SWAP2 POP POP JUMP JUMPDEST PUSH0 PUSH0 REVERT JUMPDEST PUSH0 PUSH0 REVERT JUMPDEST PUSH32 0x4E487B7100000000000000000000000000000000000000000000000000000000 PUSH0 MSTORE PUSH1 0x41 PUSH1 0x4 MSTORE PUSH1 0x24 PUSH0 REVERT JUMPDEST PUSH2 0x2AAD DUP3 PUSH2 0x27D7 JUMP JUMPDEST DUP2 ADD DUP2 DUP2 LT PUSH8 0xFFFFFFFFFFFFFFFF DUP3 GT OR ISZERO PUSH2 0x2ACC JUMPI PUSH2 0x2ACB PUSH2 0x2A77 JUMP JUMPDEST JUMPDEST DUP1 PUSH1 0x40 MSTORE POP POP POP JUMP JUMPDEST PUSH0 PUSH2 0x2ADE PUSH2 0x283F JUMP JUMPDEST SWAP1 POP PUSH2 0x2AEA DUP3 DUP3 PUSH2 0x2AA4 JUMP JUMPDEST SWAP2 SWAP1 POP JUMP JUMPDEST PUSH0 PUSH8 0xFFFFFFFFFFFFFFFF DUP3 GT ISZERO PUSH2 0x2B09 JUMPI PUSH2 0x2B08 PUSH2 0x2A77 JUMP JUMPDEST JUMPDEST PUSH2 0x2B12 DUP3 PUSH2 0x27D7 JUMP JUMPDEST SWAP1 POP PUSH1 0x20 DUP2 ADD SWAP1 POP SWAP2 SWAP1 POP JUMP JUMPDEST DUP3 DUP2 DUP4 CALLDATACOPY PUSH0 DUP4 DUP4 ADD MSTORE POP POP POP JUMP JUMPDEST PUSH0 PUSH2 0x2B3F PUSH2 0x2B3A DUP5 PUSH2 0x2AEF JUMP JUMPDEST PUSH2 0x2AD5 JUMP JUMPDEST SWAP1 POP DUP3 DUP2 MSTORE PUSH1 0x20 DUP2 ADD DUP5 DUP5 DUP5 ADD GT ISZERO PUSH2 0x2B5B JUMPI PUSH2 0x2B5A PUSH2 0x2A73 JUMP JUMPDEST JUMPDEST PUSH2 0x2B66 DUP5 DUP3 DUP6 PUSH2 0x2B1F JUMP JUMPDEST POP SWAP4 SWAP3 POP POP POP JUMP JUMPDEST PUSH0 DUP3 PUSH1 0x1F DUP4 ADD SLT PUSH2 0x2B82 JUMPI PUSH2 0x2B81 PUSH2 0x2A6F JUMP JUMPDEST JUMPDEST DUP2 CALLDATALOAD PUSH2 0x2B92 DUP5 DUP3 PUSH1 0x20 DUP7 ADD PUSH2 0x2B2D JUMP JUMPDEST SWAP2 POP POP SWAP3 SWAP2 POP POP JUMP JUMPDEST PUSH0 PUSH1 0x20 DUP3 DUP5 SUB SLT ISZERO PUSH2 0x2BB0 JUMPI PUSH2 0x2BAF PUSH2 0x2848 JUMP JUMPDEST JUMPDEST PUSH0 DUP3 ADD CALLDATALOAD PUSH8 0xFFFFFFFFFFFFFFFF DUP2 GT ISZERO PUSH2 0x2BCD JUMPI PUSH2 0x2BCC PUSH2 0x284C JUMP JUMPDEST JUMPDEST PUSH2 0x2BD9 DUP5 DUP3 DUP6 ADD PUSH2 0x2B6E JUMP JUMPDEST SWAP2 POP POP SWAP3 SWAP2 POP POP JUMP JUMPDEST PUSH0 DUP2 MLOAD SWAP1 POP SWAP2 SWAP1 POP JUMP JUMPDEST PUSH0 DUP3 DUP3 MSTORE PUSH1 0x20 DUP3 ADD SWAP1 POP SWAP3 SWAP2 POP POP JUMP JUMPDEST PUSH0 DUP2 SWAP1 POP PUSH1 0x20 DUP3 ADD SWAP1 POP SWAP2 SWAP1 POP JUMP JUMPDEST PUSH2 0x2C14 DUP2 PUSH2 0x28AA JUMP JUMPDEST DUP3 MSTORE POP POP JUMP JUMPDEST PUSH0 PUSH2 0x2C25 DUP4 DUP4 PUSH2 0x2C0B JUMP JUMPDEST PUSH1 0x20 DUP4 ADD SWAP1 POP SWAP3 SWAP2 POP POP JUMP JUMPDEST PUSH0 PUSH1 0x20 DUP3 ADD SWAP1 POP SWAP2 SWAP1 POP JUMP JUMPDEST PUSH0 PUSH2 0x2C47 DUP3 PUSH2 0x2BE2 JUMP JUMPDEST PUSH2 0x2C51 DUP2 DUP6 PUSH2 0x2BEC JUMP JUMPDEST SWAP4 POP PUSH2 0x2C5C DUP4 PUSH2 0x2BFC JUMP JUMPDEST DUP1 PUSH0 JUMPDEST DUP4 DUP2 LT ISZERO PUSH2 0x2C8C JUMPI DUP2 MLOAD PUSH2 0x2C73 DUP9 DUP3 PUSH2 0x2C1A JUMP JUMPDEST SWAP8 POP PUSH2 0x2C7E DUP4 PUSH2 0x2C31 JUMP JUMPDEST SWAP3 POP POP PUSH1 0x1 DUP2 ADD SWAP1 POP PUSH2 0x2C5F JUMP JUMPDEST POP DUP6 SWAP4 POP POP POP POP SWAP3 SWAP2 POP POP JUMP JUMPDEST PUSH0 PUSH1 0x20 DUP3 ADD SWAP1 POP DUP2 DUP2 SUB PUSH0 DUP4 ADD MSTORE PUSH2 0x2CB1 DUP2 DUP5 PUSH2 0x2C3D JUMP JUMPDEST SWAP1 POP SWAP3 SWAP2 POP POP JUMP JUMPDEST PUSH0 DUP2 ISZERO ISZERO SWAP1 POP SWAP2 SWAP1 POP JUMP JUMPDEST PUSH2 0x2CCD DUP2 PUSH2 0x2CB9 JUMP JUMPDEST DUP2 EQ PUSH2 0x2CD7 JUMPI PUSH0 PUSH0 REVERT JUMPDEST POP JUMP JUMPDEST PUSH0 DUP2 CALLDATALOAD SWAP1 POP PUSH2 0x2CE8 DUP2 PUSH2 0x2CC4 JUMP JUMPDEST SWAP3 SWAP2 POP POP JUMP JUMPDEST PUSH0 PUSH0 PUSH0 PUSH1 0x60 DUP5 DUP7 SUB SLT ISZERO PUSH2 0x2D05 JUMPI PUSH2 0x2D04 PUSH2 0x2848 JUMP JUMPDEST JUMPDEST PUSH0 PUSH2 0x2D12 DUP7 DUP3 DUP8 ADD PUSH2 0x2896 JUMP JUMPDEST SWAP4 POP POP PUSH1 0x20 PUSH2 0x2D23 DUP7 DUP3 DUP8 ADD PUSH2 0x2896 JUMP JUMPDEST SWAP3 POP POP PUSH1 0x40 PUSH2 0x2D34 DUP7 DUP3 DUP8 ADD PUSH2 0x2CDA JUMP JUMPDEST SWAP2 POP POP SWAP3 POP SWAP3 POP SWAP3 JUMP JUMPDEST PUSH0 PUSH0 PUSH1 0x40 DUP4 DUP6 SUB SLT ISZERO PUSH2 0x2D54 JUMPI PUSH2 0x2D53 PUSH2 0x2848 JUMP JUMPDEST JUMPDEST PUSH0 PUSH2 0x2D61 DUP6 DUP3 DUP7 ADD PUSH2 0x2896 JUMP JUMPDEST SWAP3 POP POP PUSH1 0x20 PUSH2 0x2D72 DUP6 DUP3 DUP7 ADD PUSH2 0x28C9 JUMP JUMPDEST SWAP2 POP POP SWAP3 POP SWAP3 SWAP1 POP JUMP JUMPDEST PUSH2 0x2D85 DUP2 PUSH2 0x286F JUMP JUMPDEST DUP3 MSTORE POP POP JUMP JUMPDEST PUSH1 0x20 DUP3 ADD PUSH0 DUP3 ADD MLOAD PUSH2 0x2D9F PUSH0 DUP6 ADD DUP3 PUSH2 0x2D7C JUMP JUMPDEST POP POP POP POP JUMP JUMPDEST PUSH0 PUSH1 0x20 DUP3 ADD SWAP1 POP PUSH2 0x2DB8 PUSH0 DUP4 ADD DUP5 PUSH2 0x2D8B JUMP JUMPDEST SWAP3 SWAP2 POP POP JUMP JUMPDEST PUSH0 PUSH0 PUSH1 0x40 DUP4 DUP6 SUB SLT ISZERO PUSH2 0x2DD4 JUMPI PUSH2 0x2DD3 PUSH2 0x2848 JUMP JUMPDEST JUMPDEST PUSH0 PUSH2 0x2DE1 DUP6 DUP3 DUP7 ADD PUSH2 0x28C9 JUMP JUMPDEST SWAP3 POP POP PUSH1 0x20 PUSH2 0x2DF2 DUP6 DUP3 DUP7 ADD PUSH2 0x28C9 JUMP JUMPDEST SWAP2 POP POP SWAP3 POP SWAP3 SWAP1 POP JUMP JUMPDEST PUSH0 PUSH0 PUSH1 0x40 DUP4 DUP6 SUB SLT ISZERO PUSH2 0x2E12 JUMPI PUSH2 0x2E11 PUSH2 0x2848 JUMP JUMPDEST JUMPDEST PUSH0 PUSH2 0x2E1F DUP6 DUP3 DUP7 ADD PUSH2 0x2896 JUMP JUMPDEST SWAP3 POP POP PUSH1 0x20 PUSH2 0x2E30 DUP6 DUP3 DUP7 ADD PUSH2 0x2CDA JUMP JUMPDEST SWAP2 POP POP SWAP3 POP SWAP3 SWAP1 POP JUMP JUMPDEST PUSH2 0x2E43 DUP2 PUSH2 0x2CB9 JUMP JUMPDEST DUP3 MSTORE POP POP JUMP JUMPDEST PUSH0 PUSH1 0x20 DUP3 ADD SWAP1 POP PUSH2 0x2E5C PUSH0 DUP4 ADD DUP5 PUSH2 0x2E3A JUMP JUMPDEST SWAP3 SWAP2 POP POP JUMP JUMPDEST PUSH0 PUSH0 PUSH1 0x40 DUP4 DUP6 SUB SLT ISZERO PUSH2 0x2E78 JUMPI PUSH2 0x2E77 PUSH2 0x2848 JUMP JUMPDEST JUMPDEST PUSH0 DUP4 ADD CALLDATALOAD PUSH8 0xFFFFFFFFFFFFFFFF DUP2 GT ISZERO PUSH2 0x2E95 JUMPI PUSH2 0x2E94 PUSH2 0x284C JUMP JUMPDEST JUMPDEST PUSH2 0x2EA1 DUP6 DUP3 DUP7 ADD PUSH2 0x2B6E JUMP JUMPDEST SWAP3 POP POP PUSH1 0x20 PUSH2 0x2EB2 DUP6 DUP3 DUP7 ADD PUSH2 0x28C9 JUMP JUMPDEST SWAP2 POP POP SWAP3 POP SWAP3 SWAP1 POP JUMP JUMPDEST PUSH0 PUSH0 PUSH1 0x40 DUP4 DUP6 SUB SLT ISZERO PUSH2 0x2ED2 JUMPI PUSH2 0x2ED1 PUSH2 0x2848 JUMP JUMPDEST JUMPDEST PUSH0 PUSH2 0x2EDF DUP6 DUP3 DUP7 ADD PUSH2 0x2896 JUMP JUMPDEST SWAP3 POP POP PUSH1 0x20 PUSH2 0x2EF0 DUP6 DUP3 DUP7 ADD PUSH2 0x2896 JUMP JUMPDEST SWAP2 POP POP SWAP3 POP SWAP3 SWAP1 POP JUMP JUMPDEST PUSH32 0x4E487B7100000000000000000000000000000000000000000000000000000000 PUSH0 MSTORE PUSH1 0x22 PUSH1 0x4 MSTORE PUSH1 0x24 PUSH0 REVERT JUMPDEST PUSH0 PUSH1 0x2 DUP3 DIV SWAP1 POP PUSH1 0x1 DUP3 AND DUP1 PUSH2 0x2F3E JUMPI PUSH1 0x7F DUP3 AND SWAP2 POP JUMPDEST PUSH1 0x20 DUP3 LT DUP2 SUB PUSH2 0x2F51 JUMPI PUSH2 0x2F50 PUSH2 0x2EFA JUMP JUMPDEST JUMPDEST POP SWAP2 SWAP1 POP JUMP JUMPDEST PUSH32 0x4E487B7100000000000000000000000000000000000000000000000000000000 PUSH0 MSTORE PUSH1 0x11 PUSH1 0x4 MSTORE PUSH1 0x24 PUSH0 REVERT JUMPDEST PUSH0 PUSH2 0x2F8E DUP3 PUSH2 0x28AA JUMP JUMPDEST SWAP2 POP PUSH2 0x2F99 DUP4 PUSH2 0x28AA JUMP JUMPDEST SWAP3 POP DUP3 DUP3 SUB SWAP1 POP DUP2 DUP2 GT ISZERO PUSH2 0x2FB1 JUMPI PUSH2 0x2FB0 PUSH2 0x2F57 JUMP JUMPDEST JUMPDEST SWAP3 SWAP2 POP POP JUMP JUMPDEST PUSH32 0x4E487B7100000000000000000000000000000000000000000000000000000000 PUSH0 MSTORE PUSH1 0x32 PUSH1 0x4 MSTORE PUSH1 0x24 PUSH0 REVERT JUMPDEST PUSH32 0x4E487B7100000000000000000000000000000000000000000000000000000000 PUSH0 MSTORE PUSH1 0x31 PUSH1 0x4 MSTORE PUSH1 0x24 PUSH0 REVERT JUMPDEST PUSH0 DUP2 SWAP1 POP DUP2 PUSH0 MSTORE PUSH1 0x20 PUSH0 KECCAK256 SWAP1 POP SWAP2 SWAP1 POP JUMP JUMPDEST PUSH0 PUSH1 0x20 PUSH1 0x1F DUP4 ADD DIV SWAP1 POP SWAP2 SWAP1 POP JUMP JUMPDEST PUSH0 DUP3 DUP3 SHL SWAP1 POP SWAP3 SWAP2 POP POP JUMP JUMPDEST PUSH0 PUSH1 0x8 DUP4 MUL PUSH2 0x306D PUSH32 0xFFFFFFFFFFFFFFFFFFFFFFFFFFFFFFFFFFFFFFFFFFFFFFFFFFFFFFFFFFFFFFFF DUP3 PUSH2 0x3032 JUMP JUMPDEST PUSH2 0x3077 DUP7 DUP4 PUSH2 0x3032 JUMP JUMPDEST SWAP6 POP DUP1 NOT DUP5 AND SWAP4 POP DUP1 DUP7 AND DUP5 OR SWAP3 POP POP POP SWAP4 SWAP3 POP POP POP JUMP JUMPDEST PUSH0 DUP2 SWAP1 POP SWAP2 SWAP1 POP JUMP JUMPDEST PUSH0 PUSH2 0x30B2 PUSH2 0x30AD PUSH2 0x30A8 DUP5 PUSH2 0x28AA JUMP JUMPDEST PUSH2 0x308F JUMP JUMPDEST PUSH2 0x28AA JUMP JUMPDEST SWAP1 POP SWAP2 SWAP1 POP JUMP JUMPDEST PUSH0 DUP2 SWAP1 POP SWAP2 SWAP1 POP JUMP JUMPDEST PUSH2 0x30CB DUP4 PUSH2 0x3098 JUMP JUMPDEST PUSH2 0x30DF PUSH2 0x30D7 DUP3 PUSH2 0x30B9 JUMP JUMPDEST DUP5 DUP5 SLOAD PUSH2 0x303E JUMP JUMPDEST DUP3 SSTORE POP POP POP POP JUMP JUMPDEST PUSH0 PUSH0 SWAP1 POP SWAP1 JUMP JUMPDEST PUSH2 0x30F6 PUSH2 0x30E7 JUMP JUMPDEST PUSH2 0x3101 DUP2 DUP5 DUP5 PUSH2 0x30C2 JUMP JUMPDEST POP POP POP JUMP JUMPDEST JUMPDEST DUP2 DUP2 LT ISZERO PUSH2 0x3124 JUMPI PUSH2 0x3119 PUSH0 DUP3 PUSH2 0x30EE JUMP JUMPDEST PUSH1 0x1 DUP2 ADD SWAP1 POP PUSH2 0x3107 JUMP JUMPDEST POP POP JUMP JUMPDEST PUSH1 0x1F DUP3 GT ISZERO PUSH2 0x3169 JUMPI PUSH2 0x313A DUP2 PUSH2 0x3011 JUMP JUMPDEST PUSH2 0x3143 DUP5 PUSH2 0x3023 JUMP JUMPDEST DUP2 ADD PUSH1 0x20 DUP6 LT ISZERO PUSH2 0x3152 JUMPI DUP2 SWAP1 POP JUMPDEST PUSH2 0x3166 PUSH2 0x315E DUP6 PUSH2 0x3023 JUMP JUMPDEST DUP4 ADD DUP3 PUSH2 0x3106 JUMP JUMPDEST POP POP JUMPDEST POP POP POP JUMP JUMPDEST PUSH0 DUP3 DUP3 SHR SWAP1 POP SWAP3 SWAP2 POP POP JUMP JUMPDEST PUSH0 PUSH2 0x3189 PUSH0 NOT DUP5 PUSH1 0x8 MUL PUSH2 0x316E JUMP JUMPDEST NOT DUP1 DUP4 AND SWAP2 POP POP SWAP3 SWAP2 POP POP JUMP JUMPDEST PUSH0 PUSH2 0x31A1 DUP4 DUP4 PUSH2 0x317A JUMP JUMPDEST SWAP2 POP DUP3 PUSH1 0x2 MUL DUP3 OR SWAP1 POP SWAP3 SWAP2 POP POP JUMP JUMPDEST PUSH2 0x31BA DUP3 PUSH2 0x27AF JUMP JUMPDEST PUSH8 0xFFFFFFFFFFFFFFFF DUP2 GT ISZERO PUSH2 0x31D3 JUMPI PUSH2 0x31D2 PUSH2 0x2A77 JUMP JUMPDEST JUMPDEST PUSH2 0x31DD DUP3 SLOAD PUSH2 0x2F27 JUMP JUMPDEST PUSH2 0x31E8 DUP3 DUP3 DUP6 PUSH2 0x3128 JUMP JUMPDEST PUSH0 PUSH1 0x20 SWAP1 POP PUSH1 0x1F DUP4 GT PUSH1 0x1 DUP2 EQ PUSH2 0x3219 JUMPI PUSH0 DUP5 ISZERO PUSH2 0x3207 JUMPI DUP3 DUP8 ADD MLOAD SWAP1 POP JUMPDEST PUSH2 0x3211 DUP6 DUP3 PUSH2 0x3196 JUMP JUMPDEST DUP7 SSTORE POP PUSH2 0x3278 JUMP JUMPDEST PUSH1 0x1F NOT DUP5 AND PUSH2 0x3227 DUP7 PUSH2 0x3011 JUMP JUMPDEST PUSH0 JUMPDEST DUP3 DUP2 LT ISZERO PUSH2 0x324E JUMPI DUP5 DUP10 ADD MLOAD DUP3 SSTORE PUSH1 0x1 DUP3 ADD SWAP2 POP PUSH1 0x20 DUP6 ADD SWAP5 POP PUSH1 0x20 DUP2 ADD SWAP1 POP PUSH2 0x3229 JUMP JUMPDEST DUP7 DUP4 LT ISZERO PUSH2 0x326B JUMPI DUP5 DUP10 ADD MLOAD PUSH2 0x3267 PUSH1 0x1F DUP10 AND DUP3 PUSH2 0x317A JUMP JUMPDEST DUP4 SSTORE POP JUMPDEST PUSH1 0x1 PUSH1 0x2 DUP9 MUL ADD DUP9 SSTORE POP POP POP JUMPDEST POP POP POP POP POP POP JUMP JUMPDEST PUSH0 PUSH2 0x328A DUP3 PUSH2 0x28AA JUMP JUMPDEST SWAP2 POP PUSH2 0x3295 DUP4 PUSH2 0x28AA JUMP JUMPDEST SWAP3 POP DUP3 DUP3 ADD SWAP1 POP DUP1 DUP3 GT ISZERO PUSH2 0x32AD JUMPI PUSH2 0x32AC PUSH2 0x2F57 JUMP JUMPDEST JUMPDEST SWAP3 SWAP2 POP POP JUMP INVALID LOG2 PUSH5 0x6970667358 0x22 SLT KECCAK256 0xBA 0xC7 EXP SGT 0xCE 0x4E MCOPY DUPN 0xA2 EXTCODESIZE DUP7 PUSH20 0x80681AA0F5FE7020ECB489A6953A467E88382A47 PUSH5 0x736F6C6343 STOP ADDMOD 0x1E STOP CALLER "
		},
		"gasEstimates": {
			"creation": {
				"codeDepositCost": "2606600",
				"executionCost": "2847",
				"totalCost": "2609447"
			},
			"external": {
				"_burnCounter()": "2680",
				"_burnCounter(uint256)": "22791",
				"_currentIndex()": "2702",
				"_currentIndex(uint256)": "22813",
				"_operatorApprovals(address,address)": "infinite",
				"_operatorApprovals(address,address,bool)": "infinite",
				"_packedAddressData(address)": "3100",
				"_packedAddressData(address,uint256)": "23096",
				"_packedAddressDataDecr(address)": "infinite",
				"_packedAddressDataIncr(address)": "infinite",
				"_packedOwnerships(uint256)": "infinite",
				"_packedOwnerships(uint256,uint256)": "infinite",
				"_spotMinted()": "2679",
				"_spotMintedIncr()": "infinite",
				"_startTokenId()": "2635",
				"_startTokenId(uint256)": "22769",
				"_tokenApprovals(uint256)": "3312",
				"_tokenApprovals(uint256,address)": "25221",
				"addTokenToAllTokensEnumeration(uint256)": "infinite",
				"addTokenToOwnerEnumeration(address,uint256,uint256)": "infinite",
				"allTokens()": "infinite",
				"baseTokenURI()": "infinite",
				"baseTokenURI(string)": "infinite",
				"defaultTokenURI()": "infinite",
				"defaultTokenURI(string)": "infinite",
				"epiclistRoot()": "2680",
				"epiclistRoot(bytes32)": "22725",
				"fee()": "2612",
				"fee(uint256)": "22725",
				"genesislistRoot()": "2681",
				"genesislistRoot(bytes32)": "22835",
				"guaranteed_minted(address)": "3073",
				"guaranteed_minted(address,bool)": "25188",
				"legendlistRoot()": "2722",
				"legendlistRoot(bytes32)": "22769",
				"name()": "infinite",
				"name(string)": "infinite",
				"ownedTokens(address,uint256)": "infinite",
				"ownedTokens(address,uint256,uint256)": "infinite",
				"ownedTokensIndex(uint256)": "infinite",
				"ownedTokensIndex(uint256,uint256)": "infinite",
				"removeTokenFromAllTokensEnumeration(uint256)": "infinite",
				"removeTokenFromOwnerEnumeration(address,uint256,uint256)": "infinite",
				"symbol()": "infinite",
				"symbol(string)": "infinite",
				"tokenURIs(string,uint256)": "infinite",
				"tokenURIs(uint256)": "infinite"
			},
			"internal": {
				"_getStorage(bytes32)": "27"
			}
		},
		"methodIdentifiers": {
			"_burnCounter()": "44faf255",
			"_burnCounter(uint256)": "8fca4dbe",
			"_currentIndex()": "9451c99a",
			"_currentIndex(uint256)": "345e7b28",
			"_operatorApprovals(address,address)": "edc3bc3f",
			"_operatorApprovals(address,address,bool)": "830d4091",
			"_packedAddressData(address)": "21b0ed7d",
			"_packedAddressData(address,uint256)": "a3301173",
			"_packedAddressDataDecr(address)": "31413efc",
			"_packedAddressDataIncr(address)": "d0125152",
			"_packedOwnerships(uint256)": "47f69eba",
			"_packedOwnerships(uint256,uint256)": "e68fdee1",
			"_spotMinted()": "d20b6ee7",
			"_spotMintedIncr()": "810536ec",
			"_startTokenId()": "98995f77",
			"_startTokenId(uint256)": "32b07b43",
			"_tokenApprovals(uint256)": "a7cc0136",
			"_tokenApprovals(uint256,address)": "13c19ff6",
			"addTokenToAllTokensEnumeration(uint256)": "dbe0b21c",
			"addTokenToOwnerEnumeration(address,uint256,uint256)": "4f4979ed",
			"allTokens()": "6ff97f1d",
			"baseTokenURI()": "d547cfb7",
			"baseTokenURI(string)": "a05cc559",
			"defaultTokenURI()": "963bfe12",
			"defaultTokenURI(string)": "821abc2d",
			"epiclistRoot()": "33171809",
			"epiclistRoot(bytes32)": "247c6ce0",
			"fee()": "ddca3f43",
			"fee(uint256)": "39b37ab0",
			"genesislistRoot()": "19f86200",
			"genesislistRoot(bytes32)": "3802497b",
			"guaranteed_minted(address)": "b62d8b91",
			"guaranteed_minted(address,bool)": "b0d4ce25",
			"legendlistRoot()": "f589b754",
			"legendlistRoot(bytes32)": "854f9db9",
			"name()": "06fdde03",
			"name(string)": "5b43bc99",
			"ownedTokens(address,uint256)": "e149f036",
			"ownedTokens(address,uint256,uint256)": "49a0a50e",
			"ownedTokensIndex(uint256)": "74e24367",
			"ownedTokensIndex(uint256,uint256)": "ad715f2e",
			"removeTokenFromAllTokensEnumeration(uint256)": "40e02f5c",
			"removeTokenFromOwnerEnumeration(address,uint256,uint256)": "071bc71c",
			"symbol()": "95d89b41",
			"symbol(string)": "41bb0559",
			"tokenURIs(string,uint256)": "dec84db1",
			"tokenURIs(uint256)": "6c8b703f"
		}
	},
	"abi": [
		{
			"inputs": [],
			"name": "_burnCounter",
			"outputs": [
				{
					"internalType": "uint256",
					"name": "",
					"type": "uint256"
				}
			],
			"stateMutability": "view",
			"type": "function"
		},
		{
			"inputs": [],
			"name": "_currentIndex",
			"outputs": [
				{
					"internalType": "uint256",
					"name": "",
					"type": "uint256"
				}
			],
			"stateMutability": "view",
			"type": "function"
		},
		{
			"inputs": [
				{
					"internalType": "address",
					"name": "owner",
					"type": "address"
				},
				{
					"internalType": "address",
					"name": "operator",
					"type": "address"
				}
			],
			"name": "_operatorApprovals",
			"outputs": [
				{
					"internalType": "bool",
					"name": "",
					"type": "bool"
				}
			],
			"stateMutability": "view",
			"type": "function"
		},
		{
			"inputs": [
				{
					"internalType": "address",
					"name": "_owner",
					"type": "address"
				}
			],
			"name": "_packedAddressData",
			"outputs": [
				{
					"internalType": "uint256",
					"name": "",
					"type": "uint256"
				}
			],
			"stateMutability": "view",
			"type": "function"
		},
		{
			"inputs": [
				{
					"internalType": "uint256",
					"name": "_tokenId",
					"type": "uint256"
				}
			],
			"name": "_packedOwnerships",
			"outputs": [
				{
					"internalType": "uint256",
					"name": "",
					"type": "uint256"
				}
			],
			"stateMutability": "view",
			"type": "function"
		},
		{
			"inputs": [],
			"name": "_spotMinted",
			"outputs": [
				{
					"internalType": "uint256",
					"name": "",
					"type": "uint256"
				}
			],
			"stateMutability": "view",
			"type": "function"
		},
		{
			"inputs": [],
			"name": "_startTokenId",
			"outputs": [
				{
					"internalType": "uint256",
					"name": "",
					"type": "uint256"
				}
			],
			"stateMutability": "view",
			"type": "function"
		},
		{
			"inputs": [
				{
					"internalType": "uint256",
					"name": "_tokenId",
					"type": "uint256"
				}
			],
			"name": "_tokenApprovals",
			"outputs": [
				{
					"components": [
						{
							"internalType": "address",
							"name": "value",
							"type": "address"
						}
					],
					"internalType": "struct LibSMElegendaryStorage.TokenApprovalRef",
					"name": "",
					"type": "tuple"
				}
			],
			"stateMutability": "view",
			"type": "function"
		},
		{
			"inputs": [],
			"name": "allTokens",
			"outputs": [
				{
					"internalType": "uint256[]",
					"name": "",
					"type": "uint256[]"
				}
			],
			"stateMutability": "view",
			"type": "function"
		},
		{
			"inputs": [],
			"name": "baseTokenURI",
			"outputs": [
				{
					"internalType": "string",
					"name": "",
					"type": "string"
				}
			],
			"stateMutability": "view",
			"type": "function"
		},
		{
			"inputs": [],
			"name": "defaultTokenURI",
			"outputs": [
				{
					"internalType": "string",
					"name": "",
					"type": "string"
				}
			],
			"stateMutability": "view",
			"type": "function"
		},
		{
			"inputs": [],
			"name": "epiclistRoot",
			"outputs": [
				{
					"internalType": "bytes32",
					"name": "",
					"type": "bytes32"
				}
			],
			"stateMutability": "view",
			"type": "function"
		},
		{
			"inputs": [],
			"name": "fee",
			"outputs": [
				{
					"internalType": "uint256",
					"name": "",
					"type": "uint256"
				}
			],
			"stateMutability": "view",
			"type": "function"
		},
		{
			"inputs": [],
			"name": "genesislistRoot",
			"outputs": [
				{
					"internalType": "bytes32",
					"name": "",
					"type": "bytes32"
				}
			],
			"stateMutability": "view",
			"type": "function"
		},
		{
			"inputs": [
				{
					"internalType": "address",
					"name": "owner",
					"type": "address"
				}
			],
			"name": "guaranteed_minted",
			"outputs": [
				{
					"internalType": "bool",
					"name": "",
					"type": "bool"
				}
			],
			"stateMutability": "view",
			"type": "function"
		},
		{
			"inputs": [],
			"name": "legendlistRoot",
			"outputs": [
				{
					"internalType": "bytes32",
					"name": "",
					"type": "bytes32"
				}
			],
			"stateMutability": "view",
			"type": "function"
		},
		{
			"inputs": [],
			"name": "name",
			"outputs": [
				{
					"internalType": "string",
					"name": "",
					"type": "string"
				}
			],
			"stateMutability": "view",
			"type": "function"
		},
		{
			"inputs": [
				{
					"internalType": "address",
					"name": "owner",
					"type": "address"
				},
				{
					"internalType": "uint256",
					"name": "index",
					"type": "uint256"
				}
			],
			"name": "ownedTokens",
			"outputs": [
				{
					"internalType": "uint256",
					"name": "",
					"type": "uint256"
				}
			],
			"stateMutability": "view",
			"type": "function"
		},
		{
			"inputs": [
				{
					"internalType": "uint256",
					"name": "tokenId",
					"type": "uint256"
				}
			],
			"name": "ownedTokensIndex",
			"outputs": [
				{
					"internalType": "uint256",
					"name": "",
					"type": "uint256"
				}
			],
			"stateMutability": "view",
			"type": "function"
		},
		{
			"inputs": [],
			"name": "symbol",
			"outputs": [
				{
					"internalType": "string",
					"name": "",
					"type": "string"
				}
			],
			"stateMutability": "view",
			"type": "function"
		},
		{
			"inputs": [
				{
					"internalType": "uint256",
					"name": "tokenId",
					"type": "uint256"
				}
			],
			"name": "tokenURIs",
			"outputs": [
				{
					"internalType": "string",
					"name": "",
					"type": "string"
				}
			],
			"stateMutability": "view",
			"type": "function"
		}
	]
}