{
	"data": {
		"bytecode": {
			"linkReferences": {},
			"object": "61025661004d600b8282823980515f1a6073146041577f4e487b71000000000000000000000000000000000000000000000000000000005f525f60045260245ffd5b305f52607381538281f3fe730000000000000000000000000000000000000000301460806040526004361061003f575f3560e01c80633244a8c01461004357806389d47d3b14610073575b5f5ffd5b61005d6004803603810190610058919061016a565b6100a3565b60405161006a91906101c9565b60405180910390f35b61008d600480360381019061008891906101e2565b6100ee565b60405161009a91906101c9565b60405180910390f35b5f81156100b857826001901b841793506100e4565b826001901b7fffffffffffffffffffffffffffffffffffffffffffffffffffffffffffffffff18841693505b8390509392505050565b5f816001901b8316905092915050565b5f5ffd5b5f819050919050565b61011481610102565b811461011e575f5ffd5b50565b5f8135905061012f8161010b565b92915050565b5f8115159050919050565b61014981610135565b8114610153575f5ffd5b50565b5f8135905061016481610140565b92915050565b5f5f5f60608486031215610181576101806100fe565b5b5f61018e86828701610121565b935050602061019f86828701610121565b92505060406101b086828701610156565b9150509250925092565b6101c381610102565b82525050565b5f6020820190506101dc5f8301846101ba565b92915050565b5f5f604083850312156101f8576101f76100fe565b5b5f61020585828601610121565b925050602061021685828601610121565b915050925092905056fea2646970667358221220414f2a28dec970116a2e2346822f98855ed8924a7771f697751caf84bfd4545364736f6c634300081e0033",
			"opcodes": "PUSH2 0x256 PUSH2 0x4D PUSH1 0xB DUP3 DUP3 DUP3 CODECOPY DUP1 MLOAD PUSH0 BYTE PUSH1 0x73 EQ PUSH1 0x41 JUMPI PUSH32 0x4E487B7100000000000000000000000000000000000000000000000000000000 PUSH0 MSTORE PUSH0 PUSH1 0x4 MSTORE PUSH1 0x24 PUSH0 REVERT JUMPDEST ADDRESS PUSH0 MSTORE PUSH1 0x73 DUP2 MSTORE8 DUP3 DUP2 RETURN INVALID PUSH20 0x0 ADDRESS EQ PUSH1 0x80 PUSH1 0x40 MSTORE PUSH1 0x4 CALLDATASIZE LT PUSH2 0x3F JUMPI PUSH0 CALLDATALOAD PUSH1 0xE0 SHR DUP1 PUSH4 0x3244A8C0 EQ PUSH2 0x43 JUMPI DUP1 PUSH4 0x89D47D3B EQ PUSH2 0x73 JUMPI JUMPDEST PUSH0 PUSH0 REVERT JUMPDEST PUSH2 0x5D PUSH1 0x4 DUP1 CALLDATASIZE SUB DUP2 ADD SWAP1 PUSH2 0x58 SWAP2 SWAP1 PUSH2 0x16A JUMP JUMPDEST PUSH2 0xA3 JUMP JUMPDEST PUSH1 0x40 MLOAD PUSH2 0x6A SWAP2 SWAP1 PUSH2 0x1C9 JUMP JUMPDEST PUSH1 0x40 MLOAD DUP1 SWAP2 SUB SWAP1 RETURN JUMPDEST PUSH2 0x8D PUSH1 0x4 DUP1 CALLDATASIZE SUB DUP2 ADD SWAP1 PUSH2 0x88 SWAP2 SWAP1 PUSH2 0x1E2 JUMP JUMPDEST PUSH2 0xEE JUMP JUMPDEST PUSH1 0x40 MLOAD PUSH2 0x9A SWAP2 SWAP1 PUSH2 0x1C9 JUMP JUMPDEST PUSH1 0x40 MLOAD DUP1 SWAP2 SUB SWAP1 RETURN JUMPDEST PUSH0 DUP2 ISZERO PUSH2 0xB8 JUMPI DUP3 PUSH1 0x1 SWAP1 SHL DUP5 OR SWAP4 POP PUSH2 0xE4 JUMP JUMPDEST DUP3 PUSH1 0x1 SWAP1 SHL PUSH32 0xFFFFFFFFFFFFFFFFFFFFFFFFFFFFFFFFFFFFFFFFFFFFFFFFFFFFFFFFFFFFFFFF XOR DUP5 AND SWAP4 POP JUMPDEST DUP4 SWAP1 POP SWAP4 SWAP3 POP POP POP JUMP JUMPDEST PUSH0 DUP2 PUSH1 0x1 SWAP1 SHL DUP4 AND SWAP1 POP SWAP3 SWAP2 POP POP JUMP JUMPDEST PUSH0 PUSH0 REVERT JUMPDEST PUSH0 DUP2 SWAP1 POP SWAP2 SWAP1 POP JUMP JUMPDEST PUSH2 0x114 DUP2 PUSH2 0x102 JUMP JUMPDEST DUP2 EQ PUSH2 0x11E JUMPI PUSH0 PUSH0 REVERT JUMPDEST POP JUMP JUMPDEST PUSH0 DUP2 CALLDATALOAD SWAP1 POP PUSH2 0x12F DUP2 PUSH2 0x10B JUMP JUMPDEST SWAP3 SWAP2 POP POP JUMP JUMPDEST PUSH0 DUP2 ISZERO ISZERO SWAP1 POP SWAP2 SWAP1 POP JUMP JUMPDEST PUSH2 0x149 DUP2 PUSH2 0x135 JUMP JUMPDEST DUP2 EQ PUSH2 0x153 JUMPI PUSH0 PUSH0 REVERT JUMPDEST POP JUMP JUMPDEST PUSH0 DUP2 CALLDATALOAD SWAP1 POP PUSH2 0x164 DUP2 PUSH2 0x140 JUMP JUMPDEST SWAP3 SWAP2 POP POP JUMP JUMPDEST PUSH0 PUSH0 PUSH0 PUSH1 0x60 DUP5 DUP7 SUB SLT ISZERO PUSH2 0x181 JUMPI PUSH2 0x180 PUSH2 0xFE JUMP JUMPDEST JUMPDEST PUSH0 PUSH2 0x18E DUP7 DUP3 DUP8 ADD PUSH2 0x121 JUMP JUMPDEST SWAP4 POP POP PUSH1 0x20 PUSH2 0x19F DUP7 DUP3 DUP8 ADD PUSH2 0x121 JUMP JUMPDEST SWAP3 POP POP PUSH1 0x40 PUSH2 0x1B0 DUP7 DUP3 DUP8 ADD PUSH2 0x156 JUMP JUMPDEST SWAP2 POP POP SWAP3 POP SWAP3 POP SWAP3 JUMP JUMPDEST PUSH2 0x1C3 DUP2 PUSH2 0x102 JUMP JUMPDEST DUP3 MSTORE POP POP JUMP JUMPDEST PUSH0 PUSH1 0x20 DUP3 ADD SWAP1 POP PUSH2 0x1DC PUSH0 DUP4 ADD DUP5 PUSH2 0x1BA JUMP JUMPDEST SWAP3 SWAP2 POP POP JUMP JUMPDEST PUSH0 PUSH0 PUSH1 0x40 DUP4 DUP6 SUB SLT ISZERO PUSH2 0x1F8 JUMPI PUSH2 0x1F7 PUSH2 0xFE JUMP JUMPDEST JUMPDEST PUSH0 PUSH2 0x205 DUP6 DUP3 DUP7 ADD PUSH2 0x121 JUMP JUMPDEST SWAP3 POP POP PUSH1 0x20 PUSH2 0x216 DUP6 DUP3 DUP7 ADD PUSH2 0x121 JUMP JUMPDEST SWAP2 POP POP SWAP3 POP SWAP3 SWAP1 POP JUMP INVALID LOG2 PUSH5 0x6970667358 0x22 SLT KECCAK256 COINBASE 0x4F 0x2A 0x28 0xDE 0xC9 PUSH17 0x116A2E2346822F98855ED8924A7771F697 PUSH22 0x1CAF84BFD4545364736F6C634300081E003300000000 "
		},
		"gasEstimates": {
			"creation": {
				"codeDepositCost": "119600",
				"executionCost": "191",
				"totalCost": "119791"
			},
			"external": {
				"getBitmap(uint256,uint256)": "infinite",
				"setBitmap(uint256,uint256,bool)": "infinite"
			},
			"internal": {
				"selectorStorage(string memory)": "infinite"
			}
		},
		"methodIdentifiers": {
			"getBitmap(uint256,uint256)": "89d47d3b",
			"setBitmap(uint256,uint256,bool)": "3244a8c0"
		}
	},
	"abi": [
		{
			"inputs": [
				{
					"internalType": "uint256",
					"name": "bitmap",
					"type": "uint256"
				},
				{
					"internalType": "uint256",
					"name": "index",
					"type": "uint256"
				}
			],
			"name": "getBitmap",
			"outputs": [
				{
					"internalType": "uint256",
					"name": "",
					"type": "uint256"
				}
			],
			"stateMutability": "pure",
			"type": "function"
		},
		{
			"inputs": [
				{
					"internalType": "uint256",
					"name": "bitmap",
					"type": "uint256"
				},
				{
					"internalType": "uint256",
					"name": "index",
					"type": "uint256"
				},
				{
					"internalType": "bool",
					"name": "value",
					"type": "bool"
				}
			],
			"name": "setBitmap",
			"outputs": [
				{
					"internalType": "uint256",
					"name": "",
					"type": "uint256"
				}
			],
			"stateMutability": "pure",
			"type": "function"
		}
	]
}