{
	"contracts/Proxy.sol": {
		"Proxy": {
			"abi": [
				{
					"inputs": [
						{
							"components": [
								{
									"internalType": "address",
									"name": "module",
									"type": "address"
								},
								{
									"internalType": "bytes4[]",
									"name": "selectors",
									"type": "bytes4[]"
								}
							],
							"internalType": "struct DynamicRouterStorage.moduleDefinition[]",
							"name": "modules",
							"type": "tuple[]"
						}
					],
					"stateMutability": "nonpayable",
					"type": "constructor"
				},
				{
					"inputs": [
						{
							"internalType": "bytes4",
							"name": "",
							"type": "bytes4"
						}
					],
					"name": "UnknownSelector",
					"type": "error"
				},
				{
					"stateMutability": "payable",
					"type": "fallback"
				},
				{
					"inputs": [],
					"name": "MODULE_NAME",
					"outputs": [
						{
							"internalType": "string",
							"name": "",
							"type": "string"
						}
					],
					"stateMutability": "view",
					"type": "function"
				},
				{
					"inputs": [],
					"name": "MODULE_VERSION",
					"outputs": [
						{
							"internalType": "uint256",
							"name": "",
							"type": "uint256"
						}
					],
					"stateMutability": "view",
					"type": "function"
				},
				{
					"stateMutability": "payable",
					"type": "receive"
				}
			],
			"devdoc": {
				"author": "ACTPOHABT denis.aka.wolf@gmail.com",
				"custom:version": "0.1",
				"details": "free - свободные функции      lib - все внешние библиотеки      mixins - миксины      modules - имплементации модулей и функций      storage - все библиотеки работы с хранилищем ",
				"errors": {
					"UnknownSelector(bytes4)": [
						{
							"details": "Неизвестный селектор"
						}
					]
				},
				"kind": "dev",
				"methods": {
					"constructor": {
						"details": "Пример структуры UpdateProxy - [[0xdd875e44bf1d52823b242cc06ba0c798a33729d6,[0x9f889b6e,0xdfb80831,0x63de14fc,0xb2494df3,0x4b503f0b,0x0abe1796]]] "
					}
				},
				"title": "Proxy",
				"version": 1
			},
			"evm": {
				"assembly": "    /* \"contracts/Proxy.sol\":1115:1420  contract Proxy is DynamicRouter{... */\n  mstore(0x40, 0xa0)\n    /* \"/contracts/modules/dynamicRouter/DynamicRouter.sol\":715:738  _encodeVersion(1, 0, 0) */\n  tag_1\n    /* \"/contracts/modules/dynamicRouter/DynamicRouter.sol\":730:731  1 */\n  0x01\n    /* \"/contracts/modules/dynamicRouter/DynamicRouter.sol\":733:734  0 */\n  0x00\n    /* \"/contracts/modules/dynamicRouter/DynamicRouter.sol\":736:737  0 */\n  dup1\n    /* \"/contracts/modules/dynamicRouter/DynamicRouter.sol\":715:729  _encodeVersion */\n  shl(0x20, tag_2)\n    /* \"/contracts/modules/dynamicRouter/DynamicRouter.sol\":715:738  _encodeVersion(1, 0, 0) */\n  0x20\n  shr\n  jump\t// in\ntag_1:\n    /* \"/contracts/modules/dynamicRouter/DynamicRouter.sol\":673:738  uint256 public immutable MODULE_VERSION = _encodeVersion(1, 0, 0) */\n  0x80\n  swap1\n  dup2\n  mstore\n  pop\n    /* \"contracts/Proxy.sol\":1324:1416  constructor(DynamicRouterStorage.moduleDefinition[] memory modules) DynamicRouter(modules){} */\n  callvalue\n  dup1\n  iszero\n  tag_3\n  jumpi\n  0x00\n  dup1\n  revert\ntag_3:\n  pop\n  mload(0x40)\n  sub(codesize, bytecodeSize)\n  dup1\n  bytecodeSize\n  dup4\n  codecopy\n  dup2\n  dup2\n  add\n  0x40\n  mstore\n  dup2\n  add\n  swap1\n  tag_4\n  swap2\n  swap1\n  tag_5\n  jump\t// in\ntag_4:\n    /* \"contracts/Proxy.sol\":1406:1413  modules */\n  dup1\n    /* \"/contracts/modules/dynamicRouter/DynamicRouter.sol\":938:958  DynamicRouterStorage */\n  linkerSymbol(\"f07e73ab50fdc244a807a505d0c4602bfdea304d7b80dae92ab9a9efeb94329a\")\n    /* \"/contracts/modules/dynamicRouter/DynamicRouter.sol\":938:972  DynamicRouterStorage.updateModules */\n  0xa8f64352\n    /* \"/contracts/modules/dynamicRouter/DynamicRouter.sol\":973:980  modules */\n  dup3\n    /* \"/contracts/modules/dynamicRouter/DynamicRouter.sol\":938:981  DynamicRouterStorage.updateModules(modules) */\n  mload(0x40)\n  dup3\n  0xffffffff\n  and\n  0xe0\n  shl\n  dup2\n  mstore\n  0x04\n  add\n  tag_9\n  swap2\n  swap1\n  tag_10\n  jump\t// in\ntag_9:\n  0x00\n  mload(0x40)\n  dup1\n  dup4\n  sub\n  dup2\n  dup7\n  dup1\n  extcodesize\n  iszero\n  dup1\n  iszero\n  tag_11\n  jumpi\n  0x00\n  dup1\n  revert\ntag_11:\n  pop\n  gas\n  delegatecall\n  iszero\n  dup1\n  iszero\n  tag_13\n  jumpi\n  returndatasize\n  0x00\n  dup1\n  returndatacopy\n  revert(0x00, returndatasize)\ntag_13:\n  pop\n  pop\n  pop\n  pop\n    /* \"/contracts/modules/dynamicRouter/DynamicRouter.sol\":988:1002  OwnableStorage */\n  linkerSymbol(\"eb9c0828cb3946c6500b9206079c1e521642274c1965f08e91164501921ca395\")\n    /* \"/contracts/modules/dynamicRouter/DynamicRouter.sol\":988:1011  OwnableStorage.setowner */\n  0x592bd705\n    /* \"/contracts/modules/dynamicRouter/DynamicRouter.sol\":1012:1022  msg.sender */\n  caller\n    /* \"/contracts/modules/dynamicRouter/DynamicRouter.sol\":988:1023  OwnableStorage.setowner(msg.sender) */\n  mload(0x40)\n  dup3\n  0xffffffff\n  and\n  0xe0\n  shl\n  dup2\n  mstore\n  0x04\n  add\n  tag_14\n  swap2\n  swap1\n  tag_15\n  jump\t// in\ntag_14:\n  0x00\n  mload(0x40)\n  dup1\n  dup4\n  sub\n  dup2\n  dup7\n  dup1\n  extcodesize\n  iszero\n  dup1\n  iszero\n  tag_16\n  jumpi\n  0x00\n  dup1\n  revert\ntag_16:\n  pop\n  gas\n  delegatecall\n  iszero\n  dup1\n  iszero\n  tag_18\n  jumpi\n  returndatasize\n  0x00\n  dup1\n  returndatacopy\n  revert(0x00, returndatasize)\ntag_18:\n  pop\n  pop\n  pop\n  pop\n    /* \"/contracts/modules/dynamicRouter/DynamicRouter.sol\":864:1029  constructor(DynamicRouterStorage.moduleDefinition[] memory modules){... */\n  pop\n    /* \"contracts/Proxy.sol\":1324:1416  constructor(DynamicRouterStorage.moduleDefinition[] memory modules) DynamicRouter(modules){} */\n  pop\n    /* \"contracts/Proxy.sol\":1115:1420  contract Proxy is DynamicRouter{... */\n  jump(tag_20)\n    /* \"/contracts/free/FreeVersion.sol\":488:679  function _encodeVersion(uint32 major, uint32 minor, uint32 revision) pure returns (uint256 encodedVersion){... */\ntag_2:\n    /* \"/contracts/free/FreeVersion.sol\":571:593  uint256 encodedVersion */\n  0x00\n    /* \"/contracts/free/FreeVersion.sol\":666:674  revision */\n  dup2\n    /* \"/contracts/free/FreeVersion.sol\":658:675  uint256(revision) */\n  0xffffffff\n  and\n    /* \"/contracts/free/FreeVersion.sol\":652:654  32 */\n  0x20\n    /* \"/contracts/free/FreeVersion.sol\":642:647  minor */\n  dup5\n    /* \"/contracts/free/FreeVersion.sol\":634:648  uint256(minor) */\n  0xffffffff\n  and\n    /* \"/contracts/free/FreeVersion.sol\":634:654  uint256(minor) << 32 */\n  swap1\n  shl\n    /* \"/contracts/free/FreeVersion.sol\":627:629  64 */\n  0x40\n    /* \"/contracts/free/FreeVersion.sol\":617:622  major */\n  dup7\n    /* \"/contracts/free/FreeVersion.sol\":609:623  uint256(major) */\n  0xffffffff\n  and\n    /* \"/contracts/free/FreeVersion.sol\":609:629  uint256(major) << 64 */\n  swap1\n  shl\n    /* \"/contracts/free/FreeVersion.sol\":608:655  (uint256(major) << 64) | (uint256(minor) << 32) */\n  or\n    /* \"/contracts/free/FreeVersion.sol\":608:675  (uint256(major) << 64) | (uint256(minor) << 32) | uint256(revision) */\n  or\n    /* \"/contracts/free/FreeVersion.sol\":601:675  return (uint256(major) << 64) | (uint256(minor) << 32) | uint256(revision) */\n  swap1\n  pop\n    /* \"/contracts/free/FreeVersion.sol\":488:679  function _encodeVersion(uint32 major, uint32 minor, uint32 revision) pure returns (uint256 encodedVersion){... */\n  swap4\n  swap3\n  pop\n  pop\n  pop\n  jump\t// out\n    /* \"#utility.yul\":7:82   */\ntag_22:\n    /* \"#utility.yul\":40:46   */\n  0x00\n    /* \"#utility.yul\":73:75   */\n  0x40\n    /* \"#utility.yul\":67:76   */\n  mload\n    /* \"#utility.yul\":57:76   */\n  swap1\n  pop\n    /* \"#utility.yul\":7:82   */\n  swap1\n  jump\t// out\n    /* \"#utility.yul\":88:205   */\ntag_23:\n    /* \"#utility.yul\":197:198   */\n  0x00\n    /* \"#utility.yul\":194:195   */\n  dup1\n    /* \"#utility.yul\":187:199   */\n  revert\n    /* \"#utility.yul\":211:328   */\ntag_24:\n    /* \"#utility.yul\":320:321   */\n  0x00\n    /* \"#utility.yul\":317:318   */\n  dup1\n    /* \"#utility.yul\":310:322   */\n  revert\n    /* \"#utility.yul\":334:451   */\ntag_25:\n    /* \"#utility.yul\":443:444   */\n  0x00\n    /* \"#utility.yul\":440:441   */\n  dup1\n    /* \"#utility.yul\":433:445   */\n  revert\n    /* \"#utility.yul\":457:559   */\ntag_26:\n    /* \"#utility.yul\":498:504   */\n  0x00\n    /* \"#utility.yul\":549:551   */\n  0x1f\n    /* \"#utility.yul\":545:552   */\n  not\n    /* \"#utility.yul\":540:542   */\n  0x1f\n    /* \"#utility.yul\":533:538   */\n  dup4\n    /* \"#utility.yul\":529:543   */\n  add\n    /* \"#utility.yul\":525:553   */\n  and\n    /* \"#utility.yul\":515:553   */\n  swap1\n  pop\n    /* \"#utility.yul\":457:559   */\n  swap2\n  swap1\n  pop\n  jump\t// out\n    /* \"#utility.yul\":565:745   */\ntag_27:\n    /* \"#utility.yul\":613:690   */\n  0x4e487b7100000000000000000000000000000000000000000000000000000000\n    /* \"#utility.yul\":610:611   */\n  0x00\n    /* \"#utility.yul\":603:691   */\n  mstore\n    /* \"#utility.yul\":710:714   */\n  0x41\n    /* \"#utility.yul\":707:708   */\n  0x04\n    /* \"#utility.yul\":700:715   */\n  mstore\n    /* \"#utility.yul\":734:738   */\n  0x24\n    /* \"#utility.yul\":731:732   */\n  0x00\n    /* \"#utility.yul\":724:739   */\n  revert\n    /* \"#utility.yul\":751:1032   */\ntag_28:\n    /* \"#utility.yul\":834:861   */\n  tag_71\n    /* \"#utility.yul\":856:860   */\n  dup3\n    /* \"#utility.yul\":834:861   */\n  tag_26\n  jump\t// in\ntag_71:\n    /* \"#utility.yul\":826:832   */\n  dup2\n    /* \"#utility.yul\":822:862   */\n  add\n    /* \"#utility.yul\":964:970   */\n  dup2\n    /* \"#utility.yul\":952:962   */\n  dup2\n    /* \"#utility.yul\":949:971   */\n  lt\n    /* \"#utility.yul\":928:946   */\n  0xffffffffffffffff\n    /* \"#utility.yul\":916:926   */\n  dup3\n    /* \"#utility.yul\":913:947   */\n  gt\n    /* \"#utility.yul\":910:972   */\n  or\n    /* \"#utility.yul\":907:995   */\n  iszero\n  tag_72\n  jumpi\n    /* \"#utility.yul\":975:993   */\n  tag_73\n  tag_27\n  jump\t// in\ntag_73:\n    /* \"#utility.yul\":907:995   */\ntag_72:\n    /* \"#utility.yul\":1015:1025   */\n  dup1\n    /* \"#utility.yul\":1011:1013   */\n  0x40\n    /* \"#utility.yul\":1004:1026   */\n  mstore\n    /* \"#utility.yul\":794:1032   */\n  pop\n    /* \"#utility.yul\":751:1032   */\n  pop\n  pop\n  jump\t// out\n    /* \"#utility.yul\":1038:1167   */\ntag_29:\n    /* \"#utility.yul\":1072:1078   */\n  0x00\n    /* \"#utility.yul\":1099:1119   */\n  tag_75\n  tag_22\n  jump\t// in\ntag_75:\n    /* \"#utility.yul\":1089:1119   */\n  swap1\n  pop\n    /* \"#utility.yul\":1128:1161   */\n  tag_76\n    /* \"#utility.yul\":1156:1160   */\n  dup3\n    /* \"#utility.yul\":1148:1154   */\n  dup3\n    /* \"#utility.yul\":1128:1161   */\n  tag_28\n  jump\t// in\ntag_76:\n    /* \"#utility.yul\":1038:1167   */\n  swap2\n  swap1\n  pop\n  jump\t// out\n    /* \"#utility.yul\":1173:1517   */\ntag_30:\n    /* \"#utility.yul\":1283:1287   */\n  0x00\n    /* \"#utility.yul\":1373:1391   */\n  0xffffffffffffffff\n    /* \"#utility.yul\":1365:1371   */\n  dup3\n    /* \"#utility.yul\":1362:1392   */\n  gt\n    /* \"#utility.yul\":1359:1415   */\n  iszero\n  tag_78\n  jumpi\n    /* \"#utility.yul\":1395:1413   */\n  tag_79\n  tag_27\n  jump\t// in\ntag_79:\n    /* \"#utility.yul\":1359:1415   */\ntag_78:\n    /* \"#utility.yul\":1445:1449   */\n  0x20\n    /* \"#utility.yul\":1437:1443   */\n  dup3\n    /* \"#utility.yul\":1433:1450   */\n  mul\n    /* \"#utility.yul\":1425:1450   */\n  swap1\n  pop\n    /* \"#utility.yul\":1505:1509   */\n  0x20\n    /* \"#utility.yul\":1499:1503   */\n  dup2\n    /* \"#utility.yul\":1495:1510   */\n  add\n    /* \"#utility.yul\":1487:1510   */\n  swap1\n  pop\n    /* \"#utility.yul\":1173:1517   */\n  swap2\n  swap1\n  pop\n  jump\t// out\n    /* \"#utility.yul\":1523:1640   */\ntag_31:\n    /* \"#utility.yul\":1632:1633   */\n  0x00\n    /* \"#utility.yul\":1629:1630   */\n  dup1\n    /* \"#utility.yul\":1622:1634   */\n  revert\n    /* \"#utility.yul\":1646:1763   */\ntag_32:\n    /* \"#utility.yul\":1755:1756   */\n  0x00\n    /* \"#utility.yul\":1752:1753   */\n  dup1\n    /* \"#utility.yul\":1745:1757   */\n  revert\n    /* \"#utility.yul\":1769:1886   */\ntag_33:\n    /* \"#utility.yul\":1878:1879   */\n  0x00\n    /* \"#utility.yul\":1875:1876   */\n  dup1\n    /* \"#utility.yul\":1868:1880   */\n  revert\n    /* \"#utility.yul\":1892:2018   */\ntag_34:\n    /* \"#utility.yul\":1929:1936   */\n  0x00\n    /* \"#utility.yul\":1969:2011   */\n  0xffffffffffffffffffffffffffffffffffffffff\n    /* \"#utility.yul\":1962:1967   */\n  dup3\n    /* \"#utility.yul\":1958:2012   */\n  and\n    /* \"#utility.yul\":1947:2012   */\n  swap1\n  pop\n    /* \"#utility.yul\":1892:2018   */\n  swap2\n  swap1\n  pop\n  jump\t// out\n    /* \"#utility.yul\":2024:2120   */\ntag_35:\n    /* \"#utility.yul\":2061:2068   */\n  0x00\n    /* \"#utility.yul\":2090:2114   */\n  tag_85\n    /* \"#utility.yul\":2108:2113   */\n  dup3\n    /* \"#utility.yul\":2090:2114   */\n  tag_34\n  jump\t// in\ntag_85:\n    /* \"#utility.yul\":2079:2114   */\n  swap1\n  pop\n    /* \"#utility.yul\":2024:2120   */\n  swap2\n  swap1\n  pop\n  jump\t// out\n    /* \"#utility.yul\":2126:2248   */\ntag_36:\n    /* \"#utility.yul\":2199:2223   */\n  tag_87\n    /* \"#utility.yul\":2217:2222   */\n  dup2\n    /* \"#utility.yul\":2199:2223   */\n  tag_35\n  jump\t// in\ntag_87:\n    /* \"#utility.yul\":2192:2197   */\n  dup2\n    /* \"#utility.yul\":2189:2224   */\n  eq\n    /* \"#utility.yul\":2179:2242   */\n  tag_88\n  jumpi\n    /* \"#utility.yul\":2238:2239   */\n  0x00\n    /* \"#utility.yul\":2235:2236   */\n  dup1\n    /* \"#utility.yul\":2228:2240   */\n  revert\n    /* \"#utility.yul\":2179:2242   */\ntag_88:\n    /* \"#utility.yul\":2126:2248   */\n  pop\n  jump\t// out\n    /* \"#utility.yul\":2254:2397   */\ntag_37:\n    /* \"#utility.yul\":2311:2316   */\n  0x00\n    /* \"#utility.yul\":2342:2348   */\n  dup2\n    /* \"#utility.yul\":2336:2349   */\n  mload\n    /* \"#utility.yul\":2327:2349   */\n  swap1\n  pop\n    /* \"#utility.yul\":2358:2391   */\n  tag_90\n    /* \"#utility.yul\":2385:2390   */\n  dup2\n    /* \"#utility.yul\":2358:2391   */\n  tag_36\n  jump\t// in\ntag_90:\n    /* \"#utility.yul\":2254:2397   */\n  swap3\n  swap2\n  pop\n  pop\n  jump\t// out\n    /* \"#utility.yul\":2403:2713   */\ntag_38:\n    /* \"#utility.yul\":2479:2483   */\n  0x00\n    /* \"#utility.yul\":2569:2587   */\n  0xffffffffffffffff\n    /* \"#utility.yul\":2561:2567   */\n  dup3\n    /* \"#utility.yul\":2558:2588   */\n  gt\n    /* \"#utility.yul\":2555:2611   */\n  iszero\n  tag_92\n  jumpi\n    /* \"#utility.yul\":2591:2609   */\n  tag_93\n  tag_27\n  jump\t// in\ntag_93:\n    /* \"#utility.yul\":2555:2611   */\ntag_92:\n    /* \"#utility.yul\":2641:2645   */\n  0x20\n    /* \"#utility.yul\":2633:2639   */\n  dup3\n    /* \"#utility.yul\":2629:2646   */\n  mul\n    /* \"#utility.yul\":2621:2646   */\n  swap1\n  pop\n    /* \"#utility.yul\":2701:2705   */\n  0x20\n    /* \"#utility.yul\":2695:2699   */\n  dup2\n    /* \"#utility.yul\":2691:2706   */\n  add\n    /* \"#utility.yul\":2683:2706   */\n  swap1\n  pop\n    /* \"#utility.yul\":2403:2713   */\n  swap2\n  swap1\n  pop\n  jump\t// out\n    /* \"#utility.yul\":2719:2868   */\ntag_39:\n    /* \"#utility.yul\":2755:2762   */\n  0x00\n    /* \"#utility.yul\":2795:2861   */\n  0xffffffff00000000000000000000000000000000000000000000000000000000\n    /* \"#utility.yul\":2788:2793   */\n  dup3\n    /* \"#utility.yul\":2784:2862   */\n  and\n    /* \"#utility.yul\":2773:2862   */\n  swap1\n  pop\n    /* \"#utility.yul\":2719:2868   */\n  swap2\n  swap1\n  pop\n  jump\t// out\n    /* \"#utility.yul\":2874:2994   */\ntag_40:\n    /* \"#utility.yul\":2946:2969   */\n  tag_96\n    /* \"#utility.yul\":2963:2968   */\n  dup2\n    /* \"#utility.yul\":2946:2969   */\n  tag_39\n  jump\t// in\ntag_96:\n    /* \"#utility.yul\":2939:2944   */\n  dup2\n    /* \"#utility.yul\":2936:2970   */\n  eq\n    /* \"#utility.yul\":2926:2988   */\n  tag_97\n  jumpi\n    /* \"#utility.yul\":2984:2985   */\n  0x00\n    /* \"#utility.yul\":2981:2982   */\n  dup1\n    /* \"#utility.yul\":2974:2986   */\n  revert\n    /* \"#utility.yul\":2926:2988   */\ntag_97:\n    /* \"#utility.yul\":2874:2994   */\n  pop\n  jump\t// out\n    /* \"#utility.yul\":3000:3141   */\ntag_41:\n    /* \"#utility.yul\":3056:3061   */\n  0x00\n    /* \"#utility.yul\":3087:3093   */\n  dup2\n    /* \"#utility.yul\":3081:3094   */\n  mload\n    /* \"#utility.yul\":3072:3094   */\n  swap1\n  pop\n    /* \"#utility.yul\":3103:3135   */\n  tag_99\n    /* \"#utility.yul\":3129:3134   */\n  dup2\n    /* \"#utility.yul\":3103:3135   */\n  tag_40\n  jump\t// in\ntag_99:\n    /* \"#utility.yul\":3000:3141   */\n  swap3\n  swap2\n  pop\n  pop\n  jump\t// out\n    /* \"#utility.yul\":3163:3892   */\ntag_42:\n    /* \"#utility.yul\":3269:3274   */\n  0x00\n    /* \"#utility.yul\":3294:3374   */\n  tag_101\n    /* \"#utility.yul\":3310:3373   */\n  tag_102\n    /* \"#utility.yul\":3366:3372   */\n  dup5\n    /* \"#utility.yul\":3310:3373   */\n  tag_38\n  jump\t// in\ntag_102:\n    /* \"#utility.yul\":3294:3374   */\n  tag_29\n  jump\t// in\ntag_101:\n    /* \"#utility.yul\":3285:3374   */\n  swap1\n  pop\n    /* \"#utility.yul\":3394:3399   */\n  dup1\n    /* \"#utility.yul\":3423:3429   */\n  dup4\n    /* \"#utility.yul\":3416:3421   */\n  dup3\n    /* \"#utility.yul\":3409:3430   */\n  mstore\n    /* \"#utility.yul\":3457:3461   */\n  0x20\n    /* \"#utility.yul\":3450:3455   */\n  dup3\n    /* \"#utility.yul\":3446:3462   */\n  add\n    /* \"#utility.yul\":3439:3462   */\n  swap1\n  pop\n    /* \"#utility.yul\":3510:3514   */\n  0x20\n    /* \"#utility.yul\":3502:3508   */\n  dup5\n    /* \"#utility.yul\":3498:3515   */\n  mul\n    /* \"#utility.yul\":3490:3496   */\n  dup4\n    /* \"#utility.yul\":3486:3516   */\n  add\n    /* \"#utility.yul\":3539:3542   */\n  dup6\n    /* \"#utility.yul\":3531:3537   */\n  dup2\n    /* \"#utility.yul\":3528:3543   */\n  gt\n    /* \"#utility.yul\":3525:3647   */\n  iszero\n  tag_103\n  jumpi\n    /* \"#utility.yul\":3558:3637   */\n  tag_104\n  tag_31\n  jump\t// in\ntag_104:\n    /* \"#utility.yul\":3525:3647   */\ntag_103:\n    /* \"#utility.yul\":3673:3679   */\n  dup4\n    /* \"#utility.yul\":3656:3886   */\ntag_105:\n    /* \"#utility.yul\":3690:3696   */\n  dup2\n    /* \"#utility.yul\":3685:3688   */\n  dup2\n    /* \"#utility.yul\":3682:3697   */\n  lt\n    /* \"#utility.yul\":3656:3886   */\n  iszero\n  tag_107\n  jumpi\n    /* \"#utility.yul\":3765:3768   */\n  dup1\n    /* \"#utility.yul\":3794:3841   */\n  tag_108\n    /* \"#utility.yul\":3837:3840   */\n  dup9\n    /* \"#utility.yul\":3825:3835   */\n  dup3\n    /* \"#utility.yul\":3794:3841   */\n  tag_41\n  jump\t// in\ntag_108:\n    /* \"#utility.yul\":3789:3792   */\n  dup5\n    /* \"#utility.yul\":3782:3842   */\n  mstore\n    /* \"#utility.yul\":3871:3875   */\n  0x20\n    /* \"#utility.yul\":3866:3869   */\n  dup5\n    /* \"#utility.yul\":3862:3876   */\n  add\n    /* \"#utility.yul\":3855:3876   */\n  swap4\n  pop\n    /* \"#utility.yul\":3732:3886   */\n  pop\n    /* \"#utility.yul\":3716:3720   */\n  0x20\n    /* \"#utility.yul\":3711:3714   */\n  dup2\n    /* \"#utility.yul\":3707:3721   */\n  add\n    /* \"#utility.yul\":3700:3721   */\n  swap1\n  pop\n    /* \"#utility.yul\":3656:3886   */\n  jump(tag_105)\ntag_107:\n    /* \"#utility.yul\":3660:3681   */\n  pop\n    /* \"#utility.yul\":3275:3892   */\n  pop\n  pop\n    /* \"#utility.yul\":3163:3892   */\n  swap4\n  swap3\n  pop\n  pop\n  pop\n  jump\t// out\n    /* \"#utility.yul\":3914:4297   */\ntag_43:\n    /* \"#utility.yul\":3995:4000   */\n  0x00\n    /* \"#utility.yul\":4044:4047   */\n  dup3\n    /* \"#utility.yul\":4037:4041   */\n  0x1f\n    /* \"#utility.yul\":4029:4035   */\n  dup4\n    /* \"#utility.yul\":4025:4042   */\n  add\n    /* \"#utility.yul\":4021:4048   */\n  slt\n    /* \"#utility.yul\":4011:4133   */\n  tag_110\n  jumpi\n    /* \"#utility.yul\":4052:4131   */\n  tag_111\n  tag_25\n  jump\t// in\ntag_111:\n    /* \"#utility.yul\":4011:4133   */\ntag_110:\n    /* \"#utility.yul\":4162:4168   */\n  dup2\n    /* \"#utility.yul\":4156:4169   */\n  mload\n    /* \"#utility.yul\":4187:4291   */\n  tag_112\n    /* \"#utility.yul\":4287:4290   */\n  dup5\n    /* \"#utility.yul\":4279:4285   */\n  dup3\n    /* \"#utility.yul\":4272:4276   */\n  0x20\n    /* \"#utility.yul\":4264:4270   */\n  dup7\n    /* \"#utility.yul\":4260:4277   */\n  add\n    /* \"#utility.yul\":4187:4291   */\n  tag_42\n  jump\t// in\ntag_112:\n    /* \"#utility.yul\":4178:4291   */\n  swap2\n  pop\n    /* \"#utility.yul\":4001:4297   */\n  pop\n    /* \"#utility.yul\":3914:4297   */\n  swap3\n  swap2\n  pop\n  pop\n  jump\t// out\n    /* \"#utility.yul\":4355:5154   */\ntag_44:\n    /* \"#utility.yul\":4448:4453   */\n  0x00\n    /* \"#utility.yul\":4492:4496   */\n  0x40\n    /* \"#utility.yul\":4480:4489   */\n  dup3\n    /* \"#utility.yul\":4475:4478   */\n  dup5\n    /* \"#utility.yul\":4471:4490   */\n  sub\n    /* \"#utility.yul\":4467:4497   */\n  slt\n    /* \"#utility.yul\":4464:4581   */\n  iszero\n  tag_114\n  jumpi\n    /* \"#utility.yul\":4500:4579   */\n  tag_115\n  tag_32\n  jump\t// in\ntag_115:\n    /* \"#utility.yul\":4464:4581   */\ntag_114:\n    /* \"#utility.yul\":4599:4620   */\n  tag_116\n    /* \"#utility.yul\":4615:4619   */\n  0x40\n    /* \"#utility.yul\":4599:4620   */\n  tag_29\n  jump\t// in\ntag_116:\n    /* \"#utility.yul\":4590:4620   */\n  swap1\n  pop\n    /* \"#utility.yul\":4681:4682   */\n  0x00\n    /* \"#utility.yul\":4721:4781   */\n  tag_117\n    /* \"#utility.yul\":4777:4780   */\n  dup5\n    /* \"#utility.yul\":4768:4774   */\n  dup3\n    /* \"#utility.yul\":4757:4766   */\n  dup6\n    /* \"#utility.yul\":4753:4775   */\n  add\n    /* \"#utility.yul\":4721:4781   */\n  tag_37\n  jump\t// in\ntag_117:\n    /* \"#utility.yul\":4714:4718   */\n  0x00\n    /* \"#utility.yul\":4707:4712   */\n  dup4\n    /* \"#utility.yul\":4703:4719   */\n  add\n    /* \"#utility.yul\":4696:4782   */\n  mstore\n    /* \"#utility.yul\":4630:4793   */\n  pop\n    /* \"#utility.yul\":4878:4880   */\n  0x20\n    /* \"#utility.yul\":4867:4876   */\n  dup3\n    /* \"#utility.yul\":4863:4881   */\n  add\n    /* \"#utility.yul\":4857:4882   */\n  mload\n    /* \"#utility.yul\":4909:4927   */\n  0xffffffffffffffff\n    /* \"#utility.yul\":4901:4907   */\n  dup2\n    /* \"#utility.yul\":4898:4928   */\n  gt\n    /* \"#utility.yul\":4895:5012   */\n  iszero\n  tag_118\n  jumpi\n    /* \"#utility.yul\":4931:5010   */\n  tag_119\n  tag_33\n  jump\t// in\ntag_119:\n    /* \"#utility.yul\":4895:5012   */\ntag_118:\n    /* \"#utility.yul\":5051:5135   */\n  tag_120\n    /* \"#utility.yul\":5131:5134   */\n  dup5\n    /* \"#utility.yul\":5122:5128   */\n  dup3\n    /* \"#utility.yul\":5111:5120   */\n  dup6\n    /* \"#utility.yul\":5107:5129   */\n  add\n    /* \"#utility.yul\":5051:5135   */\n  tag_43\n  jump\t// in\ntag_120:\n    /* \"#utility.yul\":5044:5048   */\n  0x20\n    /* \"#utility.yul\":5037:5042   */\n  dup4\n    /* \"#utility.yul\":5033:5049   */\n  add\n    /* \"#utility.yul\":5026:5136   */\n  mstore\n    /* \"#utility.yul\":4803:5147   */\n  pop\n    /* \"#utility.yul\":4355:5154   */\n  swap3\n  swap2\n  pop\n  pop\n  jump\t// out\n    /* \"#utility.yul\":5214:6243   */\ntag_45:\n    /* \"#utility.yul\":5354:5359   */\n  0x00\n    /* \"#utility.yul\":5379:5493   */\n  tag_122\n    /* \"#utility.yul\":5395:5492   */\n  tag_123\n    /* \"#utility.yul\":5485:5491   */\n  dup5\n    /* \"#utility.yul\":5395:5492   */\n  tag_30\n  jump\t// in\ntag_123:\n    /* \"#utility.yul\":5379:5493   */\n  tag_29\n  jump\t// in\ntag_122:\n    /* \"#utility.yul\":5370:5493   */\n  swap1\n  pop\n    /* \"#utility.yul\":5513:5518   */\n  dup1\n    /* \"#utility.yul\":5542:5548   */\n  dup4\n    /* \"#utility.yul\":5535:5540   */\n  dup3\n    /* \"#utility.yul\":5528:5549   */\n  mstore\n    /* \"#utility.yul\":5576:5580   */\n  0x20\n    /* \"#utility.yul\":5569:5574   */\n  dup3\n    /* \"#utility.yul\":5565:5581   */\n  add\n    /* \"#utility.yul\":5558:5581   */\n  swap1\n  pop\n    /* \"#utility.yul\":5629:5633   */\n  0x20\n    /* \"#utility.yul\":5621:5627   */\n  dup5\n    /* \"#utility.yul\":5617:5634   */\n  mul\n    /* \"#utility.yul\":5609:5615   */\n  dup4\n    /* \"#utility.yul\":5605:5635   */\n  add\n    /* \"#utility.yul\":5658:5661   */\n  dup6\n    /* \"#utility.yul\":5650:5656   */\n  dup2\n    /* \"#utility.yul\":5647:5662   */\n  gt\n    /* \"#utility.yul\":5644:5766   */\n  iszero\n  tag_124\n  jumpi\n    /* \"#utility.yul\":5677:5756   */\n  tag_125\n  tag_31\n  jump\t// in\ntag_125:\n    /* \"#utility.yul\":5644:5766   */\ntag_124:\n    /* \"#utility.yul\":5792:5798   */\n  dup4\n    /* \"#utility.yul\":5775:6237   */\ntag_126:\n    /* \"#utility.yul\":5809:5815   */\n  dup2\n    /* \"#utility.yul\":5804:5807   */\n  dup2\n    /* \"#utility.yul\":5801:5816   */\n  lt\n    /* \"#utility.yul\":5775:6237   */\n  iszero\n  tag_128\n  jumpi\n    /* \"#utility.yul\":5891:5894   */\n  dup1\n    /* \"#utility.yul\":5885:5895   */\n  mload\n    /* \"#utility.yul\":5927:5945   */\n  0xffffffffffffffff\n    /* \"#utility.yul\":5914:5925   */\n  dup2\n    /* \"#utility.yul\":5911:5946   */\n  gt\n    /* \"#utility.yul\":5908:6030   */\n  iszero\n  tag_129\n  jumpi\n    /* \"#utility.yul\":5949:6028   */\n  tag_130\n  tag_25\n  jump\t// in\ntag_130:\n    /* \"#utility.yul\":5908:6030   */\ntag_129:\n    /* \"#utility.yul\":6073:6084   */\n  dup1\n    /* \"#utility.yul\":6065:6071   */\n  dup7\n    /* \"#utility.yul\":6061:6085   */\n  add\n    /* \"#utility.yul\":6111:6192   */\n  tag_131\n    /* \"#utility.yul\":6188:6191   */\n  dup10\n    /* \"#utility.yul\":6176:6186   */\n  dup3\n    /* \"#utility.yul\":6111:6192   */\n  tag_44\n  jump\t// in\ntag_131:\n    /* \"#utility.yul\":6106:6109   */\n  dup6\n    /* \"#utility.yul\":6099:6193   */\n  mstore\n    /* \"#utility.yul\":6222:6226   */\n  0x20\n    /* \"#utility.yul\":6217:6220   */\n  dup6\n    /* \"#utility.yul\":6213:6227   */\n  add\n    /* \"#utility.yul\":6206:6227   */\n  swap5\n  pop\n    /* \"#utility.yul\":5851:6237   */\n  pop\n  pop\n    /* \"#utility.yul\":5835:5839   */\n  0x20\n    /* \"#utility.yul\":5830:5833   */\n  dup2\n    /* \"#utility.yul\":5826:5840   */\n  add\n    /* \"#utility.yul\":5819:5840   */\n  swap1\n  pop\n    /* \"#utility.yul\":5775:6237   */\n  jump(tag_126)\ntag_128:\n    /* \"#utility.yul\":5779:5800   */\n  pop\n    /* \"#utility.yul\":5360:6243   */\n  pop\n  pop\n    /* \"#utility.yul\":5214:6243   */\n  swap4\n  swap3\n  pop\n  pop\n  pop\n  jump\t// out\n    /* \"#utility.yul\":6303:6754   */\ntag_46:\n    /* \"#utility.yul\":6418:6423   */\n  0x00\n    /* \"#utility.yul\":6467:6470   */\n  dup3\n    /* \"#utility.yul\":6460:6464   */\n  0x1f\n    /* \"#utility.yul\":6452:6458   */\n  dup4\n    /* \"#utility.yul\":6448:6465   */\n  add\n    /* \"#utility.yul\":6444:6471   */\n  slt\n    /* \"#utility.yul\":6434:6556   */\n  tag_133\n  jumpi\n    /* \"#utility.yul\":6475:6554   */\n  tag_134\n  tag_25\n  jump\t// in\ntag_134:\n    /* \"#utility.yul\":6434:6556   */\ntag_133:\n    /* \"#utility.yul\":6585:6591   */\n  dup2\n    /* \"#utility.yul\":6579:6592   */\n  mload\n    /* \"#utility.yul\":6610:6748   */\n  tag_135\n    /* \"#utility.yul\":6744:6747   */\n  dup5\n    /* \"#utility.yul\":6736:6742   */\n  dup3\n    /* \"#utility.yul\":6729:6733   */\n  0x20\n    /* \"#utility.yul\":6721:6727   */\n  dup7\n    /* \"#utility.yul\":6717:6734   */\n  add\n    /* \"#utility.yul\":6610:6748   */\n  tag_45\n  jump\t// in\ntag_135:\n    /* \"#utility.yul\":6601:6748   */\n  swap2\n  pop\n    /* \"#utility.yul\":6424:6754   */\n  pop\n    /* \"#utility.yul\":6303:6754   */\n  swap3\n  swap2\n  pop\n  pop\n  jump\t// out\n    /* \"#utility.yul\":6760:7380   */\ntag_5:\n    /* \"#utility.yul\":6888:6894   */\n  0x00\n    /* \"#utility.yul\":6937:6939   */\n  0x20\n    /* \"#utility.yul\":6925:6934   */\n  dup3\n    /* \"#utility.yul\":6916:6923   */\n  dup5\n    /* \"#utility.yul\":6912:6935   */\n  sub\n    /* \"#utility.yul\":6908:6940   */\n  slt\n    /* \"#utility.yul\":6905:7024   */\n  iszero\n  tag_137\n  jumpi\n    /* \"#utility.yul\":6943:7022   */\n  tag_138\n  tag_23\n  jump\t// in\ntag_138:\n    /* \"#utility.yul\":6905:7024   */\ntag_137:\n    /* \"#utility.yul\":7084:7085   */\n  0x00\n    /* \"#utility.yul\":7073:7082   */\n  dup3\n    /* \"#utility.yul\":7069:7086   */\n  add\n    /* \"#utility.yul\":7063:7087   */\n  mload\n    /* \"#utility.yul\":7114:7132   */\n  0xffffffffffffffff\n    /* \"#utility.yul\":7106:7112   */\n  dup2\n    /* \"#utility.yul\":7103:7133   */\n  gt\n    /* \"#utility.yul\":7100:7217   */\n  iszero\n  tag_139\n  jumpi\n    /* \"#utility.yul\":7136:7215   */\n  tag_140\n  tag_24\n  jump\t// in\ntag_140:\n    /* \"#utility.yul\":7100:7217   */\ntag_139:\n    /* \"#utility.yul\":7241:7363   */\n  tag_141\n    /* \"#utility.yul\":7355:7362   */\n  dup5\n    /* \"#utility.yul\":7346:7352   */\n  dup3\n    /* \"#utility.yul\":7335:7344   */\n  dup6\n    /* \"#utility.yul\":7331:7353   */\n  add\n    /* \"#utility.yul\":7241:7363   */\n  tag_46\n  jump\t// in\ntag_141:\n    /* \"#utility.yul\":7231:7363   */\n  swap2\n  pop\n    /* \"#utility.yul\":7034:7373   */\n  pop\n    /* \"#utility.yul\":6760:7380   */\n  swap3\n  swap2\n  pop\n  pop\n  jump\t// out\n    /* \"#utility.yul\":7386:7533   */\ntag_47:\n    /* \"#utility.yul\":7486:7492   */\n  0x00\n    /* \"#utility.yul\":7520:7525   */\n  dup2\n    /* \"#utility.yul\":7514:7526   */\n  mload\n    /* \"#utility.yul\":7504:7526   */\n  swap1\n  pop\n    /* \"#utility.yul\":7386:7533   */\n  swap2\n  swap1\n  pop\n  jump\t// out\n    /* \"#utility.yul\":7539:7764   */\ntag_48:\n    /* \"#utility.yul\":7679:7690   */\n  0x00\n    /* \"#utility.yul\":7713:7719   */\n  dup3\n    /* \"#utility.yul\":7708:7711   */\n  dup3\n    /* \"#utility.yul\":7701:7720   */\n  mstore\n    /* \"#utility.yul\":7753:7757   */\n  0x20\n    /* \"#utility.yul\":7748:7751   */\n  dup3\n    /* \"#utility.yul\":7744:7758   */\n  add\n    /* \"#utility.yul\":7729:7758   */\n  swap1\n  pop\n    /* \"#utility.yul\":7539:7764   */\n  swap3\n  swap2\n  pop\n  pop\n  jump\t// out\n    /* \"#utility.yul\":7770:7935   */\ntag_49:\n    /* \"#utility.yul\":7870:7874   */\n  0x00\n    /* \"#utility.yul\":7893:7896   */\n  dup2\n    /* \"#utility.yul\":7885:7896   */\n  swap1\n  pop\n    /* \"#utility.yul\":7923:7927   */\n  0x20\n    /* \"#utility.yul\":7918:7921   */\n  dup3\n    /* \"#utility.yul\":7914:7928   */\n  add\n    /* \"#utility.yul\":7906:7928   */\n  swap1\n  pop\n    /* \"#utility.yul\":7770:7935   */\n  swap2\n  swap1\n  pop\n  jump\t// out\n    /* \"#utility.yul\":7941:8057   */\ntag_50:\n    /* \"#utility.yul\":8026:8050   */\n  tag_146\n    /* \"#utility.yul\":8044:8049   */\n  dup2\n    /* \"#utility.yul\":8026:8050   */\n  tag_35\n  jump\t// in\ntag_146:\n    /* \"#utility.yul\":8021:8024   */\n  dup3\n    /* \"#utility.yul\":8014:8051   */\n  mstore\n    /* \"#utility.yul\":7941:8057   */\n  pop\n  pop\n  jump\t// out\n    /* \"#utility.yul\":8063:8176   */\ntag_51:\n    /* \"#utility.yul\":8129:8135   */\n  0x00\n    /* \"#utility.yul\":8163:8168   */\n  dup2\n    /* \"#utility.yul\":8157:8169   */\n  mload\n    /* \"#utility.yul\":8147:8169   */\n  swap1\n  pop\n    /* \"#utility.yul\":8063:8176   */\n  swap2\n  swap1\n  pop\n  jump\t// out\n    /* \"#utility.yul\":8182:8363   */\ntag_52:\n    /* \"#utility.yul\":8278:8289   */\n  0x00\n    /* \"#utility.yul\":8312:8318   */\n  dup3\n    /* \"#utility.yul\":8307:8310   */\n  dup3\n    /* \"#utility.yul\":8300:8319   */\n  mstore\n    /* \"#utility.yul\":8352:8356   */\n  0x20\n    /* \"#utility.yul\":8347:8350   */\n  dup3\n    /* \"#utility.yul\":8343:8357   */\n  add\n    /* \"#utility.yul\":8328:8357   */\n  swap1\n  pop\n    /* \"#utility.yul\":8182:8363   */\n  swap3\n  swap2\n  pop\n  pop\n  jump\t// out\n    /* \"#utility.yul\":8369:8500   */\ntag_53:\n    /* \"#utility.yul\":8435:8439   */\n  0x00\n    /* \"#utility.yul\":8458:8461   */\n  dup2\n    /* \"#utility.yul\":8450:8461   */\n  swap1\n  pop\n    /* \"#utility.yul\":8488:8492   */\n  0x20\n    /* \"#utility.yul\":8483:8486   */\n  dup3\n    /* \"#utility.yul\":8479:8493   */\n  add\n    /* \"#utility.yul\":8471:8493   */\n  swap1\n  pop\n    /* \"#utility.yul\":8369:8500   */\n  swap2\n  swap1\n  pop\n  jump\t// out\n    /* \"#utility.yul\":8506:8619   */\ntag_54:\n    /* \"#utility.yul\":8589:8612   */\n  tag_151\n    /* \"#utility.yul\":8606:8611   */\n  dup2\n    /* \"#utility.yul\":8589:8612   */\n  tag_39\n  jump\t// in\ntag_151:\n    /* \"#utility.yul\":8584:8587   */\n  dup3\n    /* \"#utility.yul\":8577:8613   */\n  mstore\n    /* \"#utility.yul\":8506:8619   */\n  pop\n  pop\n  jump\t// out\n    /* \"#utility.yul\":8625:8816   */\ntag_55:\n    /* \"#utility.yul\":8700:8710   */\n  0x00\n    /* \"#utility.yul\":8721:8773   */\n  tag_153\n    /* \"#utility.yul\":8769:8772   */\n  dup4\n    /* \"#utility.yul\":8761:8767   */\n  dup4\n    /* \"#utility.yul\":8721:8773   */\n  tag_54\n  jump\t// in\ntag_153:\n    /* \"#utility.yul\":8805:8809   */\n  0x20\n    /* \"#utility.yul\":8800:8803   */\n  dup4\n    /* \"#utility.yul\":8796:8810   */\n  add\n    /* \"#utility.yul\":8782:8810   */\n  swap1\n  pop\n    /* \"#utility.yul\":8625:8816   */\n  swap3\n  swap2\n  pop\n  pop\n  jump\t// out\n    /* \"#utility.yul\":8822:8934   */\ntag_56:\n    /* \"#utility.yul\":8891:8895   */\n  0x00\n    /* \"#utility.yul\":8923:8927   */\n  0x20\n    /* \"#utility.yul\":8918:8921   */\n  dup3\n    /* \"#utility.yul\":8914:8928   */\n  add\n    /* \"#utility.yul\":8906:8928   */\n  swap1\n  pop\n    /* \"#utility.yul\":8822:8934   */\n  swap2\n  swap1\n  pop\n  jump\t// out\n    /* \"#utility.yul\":8968:9696   */\ntag_57:\n    /* \"#utility.yul\":9083:9086   */\n  0x00\n    /* \"#utility.yul\":9112:9165   */\n  tag_156\n    /* \"#utility.yul\":9159:9164   */\n  dup3\n    /* \"#utility.yul\":9112:9165   */\n  tag_51\n  jump\t// in\ntag_156:\n    /* \"#utility.yul\":9181:9264   */\n  tag_157\n    /* \"#utility.yul\":9257:9263   */\n  dup2\n    /* \"#utility.yul\":9252:9255   */\n  dup6\n    /* \"#utility.yul\":9181:9264   */\n  tag_52\n  jump\t// in\ntag_157:\n    /* \"#utility.yul\":9174:9264   */\n  swap4\n  pop\n    /* \"#utility.yul\":9288:9343   */\n  tag_158\n    /* \"#utility.yul\":9337:9342   */\n  dup4\n    /* \"#utility.yul\":9288:9343   */\n  tag_53\n  jump\t// in\ntag_158:\n    /* \"#utility.yul\":9366:9373   */\n  dup1\n    /* \"#utility.yul\":9397:9398   */\n  0x00\n    /* \"#utility.yul\":9382:9671   */\ntag_159:\n    /* \"#utility.yul\":9407:9413   */\n  dup4\n    /* \"#utility.yul\":9404:9405   */\n  dup2\n    /* \"#utility.yul\":9401:9414   */\n  lt\n    /* \"#utility.yul\":9382:9671   */\n  iszero\n  tag_161\n  jumpi\n    /* \"#utility.yul\":9483:9489   */\n  dup2\n    /* \"#utility.yul\":9477:9490   */\n  mload\n    /* \"#utility.yul\":9510:9579   */\n  tag_162\n    /* \"#utility.yul\":9575:9578   */\n  dup9\n    /* \"#utility.yul\":9560:9573   */\n  dup3\n    /* \"#utility.yul\":9510:9579   */\n  tag_55\n  jump\t// in\ntag_162:\n    /* \"#utility.yul\":9503:9579   */\n  swap8\n  pop\n    /* \"#utility.yul\":9602:9661   */\n  tag_163\n    /* \"#utility.yul\":9654:9660   */\n  dup4\n    /* \"#utility.yul\":9602:9661   */\n  tag_56\n  jump\t// in\ntag_163:\n    /* \"#utility.yul\":9592:9661   */\n  swap3\n  pop\n    /* \"#utility.yul\":9442:9671   */\n  pop\n    /* \"#utility.yul\":9429:9430   */\n  0x01\n    /* \"#utility.yul\":9426:9427   */\n  dup2\n    /* \"#utility.yul\":9422:9431   */\n  add\n    /* \"#utility.yul\":9417:9431   */\n  swap1\n  pop\n    /* \"#utility.yul\":9382:9671   */\n  jump(tag_159)\ntag_161:\n    /* \"#utility.yul\":9386:9400   */\n  pop\n    /* \"#utility.yul\":9687:9690   */\n  dup6\n    /* \"#utility.yul\":9680:9690   */\n  swap4\n  pop\n    /* \"#utility.yul\":9088:9696   */\n  pop\n  pop\n  pop\n    /* \"#utility.yul\":8968:9696   */\n  swap3\n  swap2\n  pop\n  pop\n  jump\t// out\n    /* \"#utility.yul\":9802:10473   */\ntag_58:\n    /* \"#utility.yul\":9935:9938   */\n  0x00\n    /* \"#utility.yul\":9971:9975   */\n  0x40\n    /* \"#utility.yul\":9966:9969   */\n  dup4\n    /* \"#utility.yul\":9962:9976   */\n  add\n    /* \"#utility.yul\":10060:10064   */\n  0x00\n    /* \"#utility.yul\":10053:10058   */\n  dup4\n    /* \"#utility.yul\":10049:10065   */\n  add\n    /* \"#utility.yul\":10043:10066   */\n  mload\n    /* \"#utility.yul\":10079:10150   */\n  tag_165\n    /* \"#utility.yul\":10144:10148   */\n  0x00\n    /* \"#utility.yul\":10139:10142   */\n  dup7\n    /* \"#utility.yul\":10135:10149   */\n  add\n    /* \"#utility.yul\":10121:10133   */\n  dup3\n    /* \"#utility.yul\":10079:10150   */\n  tag_50\n  jump\t// in\ntag_165:\n    /* \"#utility.yul\":9986:10160   */\n  pop\n    /* \"#utility.yul\":10247:10251   */\n  0x20\n    /* \"#utility.yul\":10240:10245   */\n  dup4\n    /* \"#utility.yul\":10236:10252   */\n  add\n    /* \"#utility.yul\":10230:10253   */\n  mload\n    /* \"#utility.yul\":10300:10303   */\n  dup5\n    /* \"#utility.yul\":10294:10298   */\n  dup3\n    /* \"#utility.yul\":10290:10304   */\n  sub\n    /* \"#utility.yul\":10283:10287   */\n  0x20\n    /* \"#utility.yul\":10278:10281   */\n  dup7\n    /* \"#utility.yul\":10274:10288   */\n  add\n    /* \"#utility.yul\":10267:10305   */\n  mstore\n    /* \"#utility.yul\":10326:10435   */\n  tag_166\n    /* \"#utility.yul\":10430:10434   */\n  dup3\n    /* \"#utility.yul\":10416:10428   */\n  dup3\n    /* \"#utility.yul\":10326:10435   */\n  tag_57\n  jump\t// in\ntag_166:\n    /* \"#utility.yul\":10318:10435   */\n  swap2\n  pop\n    /* \"#utility.yul\":10170:10446   */\n  pop\n    /* \"#utility.yul\":10463:10467   */\n  dup1\n    /* \"#utility.yul\":10456:10467   */\n  swap2\n  pop\n    /* \"#utility.yul\":9940:10473   */\n  pop\n    /* \"#utility.yul\":9802:10473   */\n  swap3\n  swap2\n  pop\n  pop\n  jump\t// out\n    /* \"#utility.yul\":10479:10783   */\ntag_59:\n    /* \"#utility.yul\":10622:10632   */\n  0x00\n    /* \"#utility.yul\":10657:10777   */\n  tag_168\n    /* \"#utility.yul\":10773:10776   */\n  dup4\n    /* \"#utility.yul\":10765:10771   */\n  dup4\n    /* \"#utility.yul\":10657:10777   */\n  tag_58\n  jump\t// in\ntag_168:\n    /* \"#utility.yul\":10643:10777   */\n  swap1\n  pop\n    /* \"#utility.yul\":10479:10783   */\n  swap3\n  swap2\n  pop\n  pop\n  jump\t// out\n    /* \"#utility.yul\":10789:10935   */\ntag_60:\n    /* \"#utility.yul\":10892:10896   */\n  0x00\n    /* \"#utility.yul\":10924:10928   */\n  0x20\n    /* \"#utility.yul\":10919:10922   */\n  dup3\n    /* \"#utility.yul\":10915:10929   */\n  add\n    /* \"#utility.yul\":10907:10929   */\n  swap1\n  pop\n    /* \"#utility.yul\":10789:10935   */\n  swap2\n  swap1\n  pop\n  jump\t// out\n    /* \"#utility.yul\":11045:12244   */\ntag_61:\n    /* \"#utility.yul\":11238:11241   */\n  0x00\n    /* \"#utility.yul\":11267:11354   */\n  tag_171\n    /* \"#utility.yul\":11348:11353   */\n  dup3\n    /* \"#utility.yul\":11267:11354   */\n  tag_47\n  jump\t// in\ntag_171:\n    /* \"#utility.yul\":11370:11497   */\n  tag_172\n    /* \"#utility.yul\":11490:11496   */\n  dup2\n    /* \"#utility.yul\":11485:11488   */\n  dup6\n    /* \"#utility.yul\":11370:11497   */\n  tag_48\n  jump\t// in\ntag_172:\n    /* \"#utility.yul\":11363:11497   */\n  swap4\n  pop\n    /* \"#utility.yul\":11523:11526   */\n  dup4\n    /* \"#utility.yul\":11568:11572   */\n  0x20\n    /* \"#utility.yul\":11560:11566   */\n  dup3\n    /* \"#utility.yul\":11556:11573   */\n  mul\n    /* \"#utility.yul\":11551:11554   */\n  dup6\n    /* \"#utility.yul\":11547:11574   */\n  add\n    /* \"#utility.yul\":11598:11687   */\n  tag_173\n    /* \"#utility.yul\":11681:11686   */\n  dup6\n    /* \"#utility.yul\":11598:11687   */\n  tag_49\n  jump\t// in\ntag_173:\n    /* \"#utility.yul\":11710:11717   */\n  dup1\n    /* \"#utility.yul\":11741:11742   */\n  0x00\n    /* \"#utility.yul\":11726:12199   */\ntag_174:\n    /* \"#utility.yul\":11751:11757   */\n  dup6\n    /* \"#utility.yul\":11748:11749   */\n  dup2\n    /* \"#utility.yul\":11745:11758   */\n  lt\n    /* \"#utility.yul\":11726:12199   */\n  iszero\n  tag_176\n  jumpi\n    /* \"#utility.yul\":11822:11831   */\n  dup5\n    /* \"#utility.yul\":11816:11820   */\n  dup5\n    /* \"#utility.yul\":11812:11832   */\n  sub\n    /* \"#utility.yul\":11807:11810   */\n  dup10\n    /* \"#utility.yul\":11800:11833   */\n  mstore\n    /* \"#utility.yul\":11873:11879   */\n  dup2\n    /* \"#utility.yul\":11867:11880   */\n  mload\n    /* \"#utility.yul\":11901:12039   */\n  tag_177\n    /* \"#utility.yul\":12034:12038   */\n  dup6\n    /* \"#utility.yul\":12019:12032   */\n  dup3\n    /* \"#utility.yul\":11901:12039   */\n  tag_59\n  jump\t// in\ntag_177:\n    /* \"#utility.yul\":11893:12039   */\n  swap5\n  pop\n    /* \"#utility.yul\":12062:12155   */\n  tag_178\n    /* \"#utility.yul\":12148:12154   */\n  dup4\n    /* \"#utility.yul\":12062:12155   */\n  tag_60\n  jump\t// in\ntag_178:\n    /* \"#utility.yul\":12052:12155   */\n  swap3\n  pop\n    /* \"#utility.yul\":12184:12188   */\n  0x20\n    /* \"#utility.yul\":12179:12182   */\n  dup11\n    /* \"#utility.yul\":12175:12189   */\n  add\n    /* \"#utility.yul\":12168:12189   */\n  swap10\n  pop\n    /* \"#utility.yul\":11786:12199   */\n  pop\n    /* \"#utility.yul\":11773:11774   */\n  0x01\n    /* \"#utility.yul\":11770:11771   */\n  dup2\n    /* \"#utility.yul\":11766:11775   */\n  add\n    /* \"#utility.yul\":11761:11775   */\n  swap1\n  pop\n    /* \"#utility.yul\":11726:12199   */\n  jump(tag_174)\ntag_176:\n    /* \"#utility.yul\":11730:11744   */\n  pop\n    /* \"#utility.yul\":12215:12219   */\n  dup3\n    /* \"#utility.yul\":12208:12219   */\n  swap8\n  pop\n    /* \"#utility.yul\":12235:12238   */\n  dup8\n    /* \"#utility.yul\":12228:12238   */\n  swap6\n  pop\n    /* \"#utility.yul\":11243:12244   */\n  pop\n  pop\n  pop\n  pop\n  pop\n    /* \"#utility.yul\":11045:12244   */\n  swap3\n  swap2\n  pop\n  pop\n  jump\t// out\n    /* \"#utility.yul\":12250:12771   */\ntag_10:\n    /* \"#utility.yul\":12467:12471   */\n  0x00\n    /* \"#utility.yul\":12505:12507   */\n  0x20\n    /* \"#utility.yul\":12494:12503   */\n  dup3\n    /* \"#utility.yul\":12490:12508   */\n  add\n    /* \"#utility.yul\":12482:12508   */\n  swap1\n  pop\n    /* \"#utility.yul\":12554:12563   */\n  dup2\n    /* \"#utility.yul\":12548:12552   */\n  dup2\n    /* \"#utility.yul\":12544:12564   */\n  sub\n    /* \"#utility.yul\":12540:12541   */\n  0x00\n    /* \"#utility.yul\":12529:12538   */\n  dup4\n    /* \"#utility.yul\":12525:12542   */\n  add\n    /* \"#utility.yul\":12518:12565   */\n  mstore\n    /* \"#utility.yul\":12582:12764   */\n  tag_180\n    /* \"#utility.yul\":12759:12763   */\n  dup2\n    /* \"#utility.yul\":12750:12756   */\n  dup5\n    /* \"#utility.yul\":12582:12764   */\n  tag_61\n  jump\t// in\ntag_180:\n    /* \"#utility.yul\":12574:12764   */\n  swap1\n  pop\n    /* \"#utility.yul\":12250:12771   */\n  swap3\n  swap2\n  pop\n  pop\n  jump\t// out\n    /* \"#utility.yul\":12777:12903   */\ntag_62:\n    /* \"#utility.yul\":12872:12896   */\n  tag_182\n    /* \"#utility.yul\":12890:12895   */\n  dup2\n    /* \"#utility.yul\":12872:12896   */\n  tag_35\n  jump\t// in\ntag_182:\n    /* \"#utility.yul\":12867:12870   */\n  dup3\n    /* \"#utility.yul\":12860:12897   */\n  mstore\n    /* \"#utility.yul\":12777:12903   */\n  pop\n  pop\n  jump\t// out\n    /* \"#utility.yul\":12909:13147   */\ntag_15:\n    /* \"#utility.yul\":13010:13014   */\n  0x00\n    /* \"#utility.yul\":13048:13050   */\n  0x20\n    /* \"#utility.yul\":13037:13046   */\n  dup3\n    /* \"#utility.yul\":13033:13051   */\n  add\n    /* \"#utility.yul\":13025:13051   */\n  swap1\n  pop\n    /* \"#utility.yul\":13061:13140   */\n  tag_184\n    /* \"#utility.yul\":13137:13138   */\n  0x00\n    /* \"#utility.yul\":13126:13135   */\n  dup4\n    /* \"#utility.yul\":13122:13139   */\n  add\n    /* \"#utility.yul\":13113:13119   */\n  dup5\n    /* \"#utility.yul\":13061:13140   */\n  tag_62\n  jump\t// in\ntag_184:\n    /* \"#utility.yul\":12909:13147   */\n  swap3\n  swap2\n  pop\n  pop\n  jump\t// out\n    /* \"contracts/Proxy.sol\":1115:1420  contract Proxy is DynamicRouter{... */\ntag_20:\n  mload(0x80)\n  codecopy(0x00, dataOffset(sub_0), dataSize(sub_0))\n  0x00\n  assignImmutable(\"0x7fe86492ed9171487feeb17b76d71244c5fb104d897816bb03a924e5871f3fa3\")\n  return(0x00, dataSize(sub_0))\nstop\n\nsub_0: assembly {\n        /* \"contracts/Proxy.sol\":1115:1420  contract Proxy is DynamicRouter{... */\n      mstore(0x40, 0x80)\n      jumpi(tag_1, lt(calldatasize, 0x04))\n      shr(0xe0, calldataload(0x00))\n      dup1\n      0x81ed9808\n      eq\n      tag_3\n      jumpi\n      dup1\n      0x9b865b43\n      eq\n      tag_4\n      jumpi\n      jump(tag_2)\n    tag_1:\n      jumpi(tag_2, calldatasize)\n      stop\n    tag_2:\n        /* \"/contracts/modules/dynamicRouter/DynamicRouter.sol\":1067:1077  _forward() */\n      tag_9\n        /* \"/contracts/modules/dynamicRouter/DynamicRouter.sol\":1067:1075  _forward */\n      tag_10\n        /* \"/contracts/modules/dynamicRouter/DynamicRouter.sol\":1067:1077  _forward() */\n      jump\t// in\n    tag_9:\n        /* \"contracts/Proxy.sol\":1115:1420  contract Proxy is DynamicRouter{... */\n      stop\n        /* \"/contracts/modules/dynamicRouter/DynamicRouter.sol\":673:738  uint256 public immutable MODULE_VERSION = _encodeVersion(1, 0, 0) */\n    tag_3:\n      callvalue\n      dup1\n      iszero\n      tag_11\n      jumpi\n      0x00\n      dup1\n      revert\n    tag_11:\n      pop\n      tag_12\n      tag_13\n      jump\t// in\n    tag_12:\n      mload(0x40)\n      tag_14\n      swap2\n      swap1\n      tag_15\n      jump\t// in\n    tag_14:\n      mload(0x40)\n      dup1\n      swap2\n      sub\n      swap1\n      return\n        /* \"/contracts/modules/dynamicRouter/DynamicRouter.sol\":578:630  string public constant MODULE_NAME = \"DynamicRouter\" */\n    tag_4:\n      callvalue\n      dup1\n      iszero\n      tag_16\n      jumpi\n      0x00\n      dup1\n      revert\n    tag_16:\n      pop\n      tag_17\n      tag_18\n      jump\t// in\n    tag_17:\n      mload(0x40)\n      tag_19\n      swap2\n      swap1\n      tag_20\n      jump\t// in\n    tag_19:\n      mload(0x40)\n      dup1\n      swap2\n      sub\n      swap1\n      return\n        /* \"/contracts/modules/dynamicRouter/DynamicRouter.sol\":1197:1704  function _forward() private{... */\n    tag_10:\n        /* \"/contracts/modules/dynamicRouter/DynamicRouter.sol\":1231:1247  bytes4 _selector */\n      0x00\n        /* \"/contracts/modules/dynamicRouter/DynamicRouter.sol\":1250:1257  msg.sig */\n      dup1\n      calldataload\n      0xffffffff00000000000000000000000000000000000000000000000000000000\n      and\n        /* \"/contracts/modules/dynamicRouter/DynamicRouter.sol\":1231:1257  bytes4 _selector = msg.sig */\n      swap1\n      pop\n        /* \"/contracts/modules/dynamicRouter/DynamicRouter.sol\":1264:1277  address _impl */\n      0x00\n        /* \"/contracts/modules/dynamicRouter/DynamicRouter.sol\":1280:1300  DynamicRouterStorage */\n      linkerSymbol(\"f07e73ab50fdc244a807a505d0c4602bfdea304d7b80dae92ab9a9efeb94329a\")\n        /* \"/contracts/modules/dynamicRouter/DynamicRouter.sol\":1280:1307  DynamicRouterStorage.getImp */\n      0x20e63d2a\n        /* \"/contracts/modules/dynamicRouter/DynamicRouter.sol\":1308:1317  _selector */\n      dup4\n        /* \"/contracts/modules/dynamicRouter/DynamicRouter.sol\":1280:1318  DynamicRouterStorage.getImp(_selector) */\n      mload(0x40)\n      dup3\n      0xffffffff\n      and\n      0xe0\n      shl\n      dup2\n      mstore\n      0x04\n      add\n      tag_22\n      swap2\n      swap1\n      tag_23\n      jump\t// in\n    tag_22:\n      0x20\n      mload(0x40)\n      dup1\n      dup4\n      sub\n      dup2\n      dup7\n      gas\n      delegatecall\n      iszero\n      dup1\n      iszero\n      tag_25\n      jumpi\n      returndatasize\n      0x00\n      dup1\n      returndatacopy\n      revert(0x00, returndatasize)\n    tag_25:\n      pop\n      pop\n      pop\n      pop\n      mload(0x40)\n      returndatasize\n      not(0x1f)\n      0x1f\n      dup3\n      add\n      and\n      dup3\n      add\n      dup1\n      0x40\n      mstore\n      pop\n      dup2\n      add\n      swap1\n      tag_26\n      swap2\n      swap1\n      tag_27\n      jump\t// in\n    tag_26:\n        /* \"/contracts/modules/dynamicRouter/DynamicRouter.sol\":1264:1318  address _impl = DynamicRouterStorage.getImp(_selector) */\n      swap1\n      pop\n        /* \"/contracts/modules/dynamicRouter/DynamicRouter.sol\":1352:1353  0 */\n      0x00\n        /* \"/contracts/modules/dynamicRouter/DynamicRouter.sol\":1335:1354  _impl == address(0) */\n      0xffffffffffffffffffffffffffffffffffffffff\n      and\n        /* \"/contracts/modules/dynamicRouter/DynamicRouter.sol\":1335:1340  _impl */\n      dup2\n        /* \"/contracts/modules/dynamicRouter/DynamicRouter.sol\":1335:1354  _impl == address(0) */\n      0xffffffffffffffffffffffffffffffffffffffff\n      and\n      sub\n        /* \"/contracts/modules/dynamicRouter/DynamicRouter.sol\":1332:1391  if(_impl == address(0)){revert UnknownSelector(_selector);} */\n      tag_28\n      jumpi\n        /* \"/contracts/modules/dynamicRouter/DynamicRouter.sol\":1379:1388  _selector */\n      dup2\n        /* \"/contracts/modules/dynamicRouter/DynamicRouter.sol\":1363:1389  UnknownSelector(_selector) */\n      mload(0x40)\n      0xc2a825f500000000000000000000000000000000000000000000000000000000\n      dup2\n      mstore\n      0x04\n      add\n      tag_29\n      swap2\n      swap1\n      tag_30\n      jump\t// in\n    tag_29:\n      mload(0x40)\n      dup1\n      swap2\n      sub\n      swap1\n      revert\n        /* \"/contracts/modules/dynamicRouter/DynamicRouter.sol\":1332:1391  if(_impl == address(0)){revert UnknownSelector(_selector);} */\n    tag_28:\n        /* \"/contracts/modules/dynamicRouter/DynamicRouter.sol\":1436:1450  calldatasize() */\n      calldatasize\n        /* \"/contracts/modules/dynamicRouter/DynamicRouter.sol\":1433:1434  0 */\n      0x00\n        /* \"/contracts/modules/dynamicRouter/DynamicRouter.sol\":1430:1431  0 */\n      dup1\n        /* \"/contracts/modules/dynamicRouter/DynamicRouter.sol\":1417:1451  calldatacopy(0, 0, calldatasize()) */\n      calldatacopy\n        /* \"/contracts/modules/dynamicRouter/DynamicRouter.sol\":1524:1525  0 */\n      0x00\n        /* \"/contracts/modules/dynamicRouter/DynamicRouter.sol\":1521:1522  0 */\n      dup1\n        /* \"/contracts/modules/dynamicRouter/DynamicRouter.sol\":1505:1519  calldatasize() */\n      calldatasize\n        /* \"/contracts/modules/dynamicRouter/DynamicRouter.sol\":1502:1503  0 */\n      0x00\n        /* \"/contracts/modules/dynamicRouter/DynamicRouter.sol\":1495:1500  _impl */\n      dup5\n        /* \"/contracts/modules/dynamicRouter/DynamicRouter.sol\":1488:1493  gas() */\n      gas\n        /* \"/contracts/modules/dynamicRouter/DynamicRouter.sol\":1475:1526  delegatecall(gas(), _impl, 0, calldatasize(), 0, 0) */\n      delegatecall\n        /* \"/contracts/modules/dynamicRouter/DynamicRouter.sol\":1557:1573  returndatasize() */\n      returndatasize\n        /* \"/contracts/modules/dynamicRouter/DynamicRouter.sol\":1554:1555  0 */\n      0x00\n        /* \"/contracts/modules/dynamicRouter/DynamicRouter.sol\":1551:1552  0 */\n      dup1\n        /* \"/contracts/modules/dynamicRouter/DynamicRouter.sol\":1536:1574  returndatacopy(0, 0, returndatasize()) */\n      returndatacopy\n        /* \"/contracts/modules/dynamicRouter/DynamicRouter.sol\":1591:1597  result */\n      dup1\n        /* \"/contracts/modules/dynamicRouter/DynamicRouter.sol\":1612:1613  0 */\n      0x00\n        /* \"/contracts/modules/dynamicRouter/DynamicRouter.sol\":1607:1644  case 0 {revert (0, returndatasize())} */\n      dup2\n      eq\n      tag_32\n      jumpi\n        /* \"/contracts/modules/dynamicRouter/DynamicRouter.sol\":1674:1690  returndatasize() */\n      returndatasize\n        /* \"/contracts/modules/dynamicRouter/DynamicRouter.sol\":1671:1672  0 */\n      0x00\n        /* \"/contracts/modules/dynamicRouter/DynamicRouter.sol\":1663:1691  return (0, returndatasize()) */\n      return\n        /* \"/contracts/modules/dynamicRouter/DynamicRouter.sol\":1607:1644  case 0 {revert (0, returndatasize())} */\n    tag_32:\n        /* \"/contracts/modules/dynamicRouter/DynamicRouter.sol\":1626:1642  returndatasize() */\n      returndatasize\n        /* \"/contracts/modules/dynamicRouter/DynamicRouter.sol\":1623:1624  0 */\n      0x00\n        /* \"/contracts/modules/dynamicRouter/DynamicRouter.sol\":1615:1643  revert (0, returndatasize()) */\n      revert\n        /* \"/contracts/modules/dynamicRouter/DynamicRouter.sol\":673:738  uint256 public immutable MODULE_VERSION = _encodeVersion(1, 0, 0) */\n    tag_13:\n      immutable(\"0x7fe86492ed9171487feeb17b76d71244c5fb104d897816bb03a924e5871f3fa3\")\n      dup2\n      jump\t// out\n        /* \"/contracts/modules/dynamicRouter/DynamicRouter.sol\":578:630  string public constant MODULE_NAME = \"DynamicRouter\" */\n    tag_18:\n      mload(0x40)\n      dup1\n      0x40\n      add\n      0x40\n      mstore\n      dup1\n      0x0d\n      dup2\n      mstore\n      0x20\n      add\n      0x44796e616d6963526f7574657200000000000000000000000000000000000000\n      dup2\n      mstore\n      pop\n      dup2\n      jump\t// out\n        /* \"#utility.yul\":7:84   */\n    tag_33:\n        /* \"#utility.yul\":44:51   */\n      0x00\n        /* \"#utility.yul\":73:78   */\n      dup2\n        /* \"#utility.yul\":62:78   */\n      swap1\n      pop\n        /* \"#utility.yul\":7:84   */\n      swap2\n      swap1\n      pop\n      jump\t// out\n        /* \"#utility.yul\":90:208   */\n    tag_34:\n        /* \"#utility.yul\":177:201   */\n      tag_53\n        /* \"#utility.yul\":195:200   */\n      dup2\n        /* \"#utility.yul\":177:201   */\n      tag_33\n      jump\t// in\n    tag_53:\n        /* \"#utility.yul\":172:175   */\n      dup3\n        /* \"#utility.yul\":165:202   */\n      mstore\n        /* \"#utility.yul\":90:208   */\n      pop\n      pop\n      jump\t// out\n        /* \"#utility.yul\":214:436   */\n    tag_15:\n        /* \"#utility.yul\":307:311   */\n      0x00\n        /* \"#utility.yul\":345:347   */\n      0x20\n        /* \"#utility.yul\":334:343   */\n      dup3\n        /* \"#utility.yul\":330:348   */\n      add\n        /* \"#utility.yul\":322:348   */\n      swap1\n      pop\n        /* \"#utility.yul\":358:429   */\n      tag_55\n        /* \"#utility.yul\":426:427   */\n      0x00\n        /* \"#utility.yul\":415:424   */\n      dup4\n        /* \"#utility.yul\":411:428   */\n      add\n        /* \"#utility.yul\":402:408   */\n      dup5\n        /* \"#utility.yul\":358:429   */\n      tag_34\n      jump\t// in\n    tag_55:\n        /* \"#utility.yul\":214:436   */\n      swap3\n      swap2\n      pop\n      pop\n      jump\t// out\n        /* \"#utility.yul\":442:541   */\n    tag_35:\n        /* \"#utility.yul\":494:500   */\n      0x00\n        /* \"#utility.yul\":528:533   */\n      dup2\n        /* \"#utility.yul\":522:534   */\n      mload\n        /* \"#utility.yul\":512:534   */\n      swap1\n      pop\n        /* \"#utility.yul\":442:541   */\n      swap2\n      swap1\n      pop\n      jump\t// out\n        /* \"#utility.yul\":547:716   */\n    tag_36:\n        /* \"#utility.yul\":631:642   */\n      0x00\n        /* \"#utility.yul\":665:671   */\n      dup3\n        /* \"#utility.yul\":660:663   */\n      dup3\n        /* \"#utility.yul\":653:672   */\n      mstore\n        /* \"#utility.yul\":705:709   */\n      0x20\n        /* \"#utility.yul\":700:703   */\n      dup3\n        /* \"#utility.yul\":696:710   */\n      add\n        /* \"#utility.yul\":681:710   */\n      swap1\n      pop\n        /* \"#utility.yul\":547:716   */\n      swap3\n      swap2\n      pop\n      pop\n      jump\t// out\n        /* \"#utility.yul\":722:968   */\n    tag_37:\n        /* \"#utility.yul\":803:804   */\n      0x00\n        /* \"#utility.yul\":813:926   */\n    tag_59:\n        /* \"#utility.yul\":827:833   */\n      dup4\n        /* \"#utility.yul\":824:825   */\n      dup2\n        /* \"#utility.yul\":821:834   */\n      lt\n        /* \"#utility.yul\":813:926   */\n      iszero\n      tag_61\n      jumpi\n        /* \"#utility.yul\":912:913   */\n      dup1\n        /* \"#utility.yul\":907:910   */\n      dup3\n        /* \"#utility.yul\":903:914   */\n      add\n        /* \"#utility.yul\":897:915   */\n      mload\n        /* \"#utility.yul\":893:894   */\n      dup2\n        /* \"#utility.yul\":888:891   */\n      dup5\n        /* \"#utility.yul\":884:895   */\n      add\n        /* \"#utility.yul\":877:916   */\n      mstore\n        /* \"#utility.yul\":849:851   */\n      0x20\n        /* \"#utility.yul\":846:847   */\n      dup2\n        /* \"#utility.yul\":842:852   */\n      add\n        /* \"#utility.yul\":837:852   */\n      swap1\n      pop\n        /* \"#utility.yul\":813:926   */\n      jump(tag_59)\n    tag_61:\n        /* \"#utility.yul\":960:961   */\n      0x00\n        /* \"#utility.yul\":951:957   */\n      dup5\n        /* \"#utility.yul\":946:949   */\n      dup5\n        /* \"#utility.yul\":942:958   */\n      add\n        /* \"#utility.yul\":935:962   */\n      mstore\n        /* \"#utility.yul\":784:968   */\n      pop\n        /* \"#utility.yul\":722:968   */\n      pop\n      pop\n      pop\n      jump\t// out\n        /* \"#utility.yul\":974:1076   */\n    tag_38:\n        /* \"#utility.yul\":1015:1021   */\n      0x00\n        /* \"#utility.yul\":1066:1068   */\n      0x1f\n        /* \"#utility.yul\":1062:1069   */\n      not\n        /* \"#utility.yul\":1057:1059   */\n      0x1f\n        /* \"#utility.yul\":1050:1055   */\n      dup4\n        /* \"#utility.yul\":1046:1060   */\n      add\n        /* \"#utility.yul\":1042:1070   */\n      and\n        /* \"#utility.yul\":1032:1070   */\n      swap1\n      pop\n        /* \"#utility.yul\":974:1076   */\n      swap2\n      swap1\n      pop\n      jump\t// out\n        /* \"#utility.yul\":1082:1459   */\n    tag_39:\n        /* \"#utility.yul\":1170:1173   */\n      0x00\n        /* \"#utility.yul\":1198:1237   */\n      tag_64\n        /* \"#utility.yul\":1231:1236   */\n      dup3\n        /* \"#utility.yul\":1198:1237   */\n      tag_35\n      jump\t// in\n    tag_64:\n        /* \"#utility.yul\":1253:1324   */\n      tag_65\n        /* \"#utility.yul\":1317:1323   */\n      dup2\n        /* \"#utility.yul\":1312:1315   */\n      dup6\n        /* \"#utility.yul\":1253:1324   */\n      tag_36\n      jump\t// in\n    tag_65:\n        /* \"#utility.yul\":1246:1324   */\n      swap4\n      pop\n        /* \"#utility.yul\":1333:1398   */\n      tag_66\n        /* \"#utility.yul\":1391:1397   */\n      dup2\n        /* \"#utility.yul\":1386:1389   */\n      dup6\n        /* \"#utility.yul\":1379:1383   */\n      0x20\n        /* \"#utility.yul\":1372:1377   */\n      dup7\n        /* \"#utility.yul\":1368:1384   */\n      add\n        /* \"#utility.yul\":1333:1398   */\n      tag_37\n      jump\t// in\n    tag_66:\n        /* \"#utility.yul\":1423:1452   */\n      tag_67\n        /* \"#utility.yul\":1445:1451   */\n      dup2\n        /* \"#utility.yul\":1423:1452   */\n      tag_38\n      jump\t// in\n    tag_67:\n        /* \"#utility.yul\":1418:1421   */\n      dup5\n        /* \"#utility.yul\":1414:1453   */\n      add\n        /* \"#utility.yul\":1407:1453   */\n      swap2\n      pop\n        /* \"#utility.yul\":1174:1459   */\n      pop\n        /* \"#utility.yul\":1082:1459   */\n      swap3\n      swap2\n      pop\n      pop\n      jump\t// out\n        /* \"#utility.yul\":1465:1778   */\n    tag_20:\n        /* \"#utility.yul\":1578:1582   */\n      0x00\n        /* \"#utility.yul\":1616:1618   */\n      0x20\n        /* \"#utility.yul\":1605:1614   */\n      dup3\n        /* \"#utility.yul\":1601:1619   */\n      add\n        /* \"#utility.yul\":1593:1619   */\n      swap1\n      pop\n        /* \"#utility.yul\":1665:1674   */\n      dup2\n        /* \"#utility.yul\":1659:1663   */\n      dup2\n        /* \"#utility.yul\":1655:1675   */\n      sub\n        /* \"#utility.yul\":1651:1652   */\n      0x00\n        /* \"#utility.yul\":1640:1649   */\n      dup4\n        /* \"#utility.yul\":1636:1653   */\n      add\n        /* \"#utility.yul\":1629:1676   */\n      mstore\n        /* \"#utility.yul\":1693:1771   */\n      tag_69\n        /* \"#utility.yul\":1766:1770   */\n      dup2\n        /* \"#utility.yul\":1757:1763   */\n      dup5\n        /* \"#utility.yul\":1693:1771   */\n      tag_39\n      jump\t// in\n    tag_69:\n        /* \"#utility.yul\":1685:1771   */\n      swap1\n      pop\n        /* \"#utility.yul\":1465:1778   */\n      swap3\n      swap2\n      pop\n      pop\n      jump\t// out\n        /* \"#utility.yul\":1784:1933   */\n    tag_40:\n        /* \"#utility.yul\":1820:1827   */\n      0x00\n        /* \"#utility.yul\":1860:1926   */\n      0xffffffff00000000000000000000000000000000000000000000000000000000\n        /* \"#utility.yul\":1853:1858   */\n      dup3\n        /* \"#utility.yul\":1849:1927   */\n      and\n        /* \"#utility.yul\":1838:1927   */\n      swap1\n      pop\n        /* \"#utility.yul\":1784:1933   */\n      swap2\n      swap1\n      pop\n      jump\t// out\n        /* \"#utility.yul\":1939:2062   */\n    tag_41:\n        /* \"#utility.yul\":2032:2055   */\n      tag_72\n        /* \"#utility.yul\":2049:2054   */\n      dup2\n        /* \"#utility.yul\":2032:2055   */\n      tag_40\n      jump\t// in\n    tag_72:\n        /* \"#utility.yul\":2027:2030   */\n      dup3\n        /* \"#utility.yul\":2020:2056   */\n      mstore\n        /* \"#utility.yul\":1939:2062   */\n      pop\n      pop\n      jump\t// out\n        /* \"#utility.yul\":2068:2302   */\n    tag_23:\n        /* \"#utility.yul\":2167:2171   */\n      0x00\n        /* \"#utility.yul\":2205:2207   */\n      0x20\n        /* \"#utility.yul\":2194:2203   */\n      dup3\n        /* \"#utility.yul\":2190:2208   */\n      add\n        /* \"#utility.yul\":2182:2208   */\n      swap1\n      pop\n        /* \"#utility.yul\":2218:2295   */\n      tag_74\n        /* \"#utility.yul\":2292:2293   */\n      0x00\n        /* \"#utility.yul\":2281:2290   */\n      dup4\n        /* \"#utility.yul\":2277:2294   */\n      add\n        /* \"#utility.yul\":2268:2274   */\n      dup5\n        /* \"#utility.yul\":2218:2295   */\n      tag_41\n      jump\t// in\n    tag_74:\n        /* \"#utility.yul\":2068:2302   */\n      swap3\n      swap2\n      pop\n      pop\n      jump\t// out\n        /* \"#utility.yul\":2389:2506   */\n    tag_43:\n        /* \"#utility.yul\":2498:2499   */\n      0x00\n        /* \"#utility.yul\":2495:2496   */\n      dup1\n        /* \"#utility.yul\":2488:2500   */\n      revert\n        /* \"#utility.yul\":2635:2761   */\n    tag_45:\n        /* \"#utility.yul\":2672:2679   */\n      0x00\n        /* \"#utility.yul\":2712:2754   */\n      0xffffffffffffffffffffffffffffffffffffffff\n        /* \"#utility.yul\":2705:2710   */\n      dup3\n        /* \"#utility.yul\":2701:2755   */\n      and\n        /* \"#utility.yul\":2690:2755   */\n      swap1\n      pop\n        /* \"#utility.yul\":2635:2761   */\n      swap2\n      swap1\n      pop\n      jump\t// out\n        /* \"#utility.yul\":2767:2863   */\n    tag_46:\n        /* \"#utility.yul\":2804:2811   */\n      0x00\n        /* \"#utility.yul\":2833:2857   */\n      tag_80\n        /* \"#utility.yul\":2851:2856   */\n      dup3\n        /* \"#utility.yul\":2833:2857   */\n      tag_45\n      jump\t// in\n    tag_80:\n        /* \"#utility.yul\":2822:2857   */\n      swap1\n      pop\n        /* \"#utility.yul\":2767:2863   */\n      swap2\n      swap1\n      pop\n      jump\t// out\n        /* \"#utility.yul\":2869:2991   */\n    tag_47:\n        /* \"#utility.yul\":2942:2966   */\n      tag_82\n        /* \"#utility.yul\":2960:2965   */\n      dup2\n        /* \"#utility.yul\":2942:2966   */\n      tag_46\n      jump\t// in\n    tag_82:\n        /* \"#utility.yul\":2935:2940   */\n      dup2\n        /* \"#utility.yul\":2932:2967   */\n      eq\n        /* \"#utility.yul\":2922:2985   */\n      tag_83\n      jumpi\n        /* \"#utility.yul\":2981:2982   */\n      0x00\n        /* \"#utility.yul\":2978:2979   */\n      dup1\n        /* \"#utility.yul\":2971:2983   */\n      revert\n        /* \"#utility.yul\":2922:2985   */\n    tag_83:\n        /* \"#utility.yul\":2869:2991   */\n      pop\n      jump\t// out\n        /* \"#utility.yul\":2997:3140   */\n    tag_48:\n        /* \"#utility.yul\":3054:3059   */\n      0x00\n        /* \"#utility.yul\":3085:3091   */\n      dup2\n        /* \"#utility.yul\":3079:3092   */\n      mload\n        /* \"#utility.yul\":3070:3092   */\n      swap1\n      pop\n        /* \"#utility.yul\":3101:3134   */\n      tag_85\n        /* \"#utility.yul\":3128:3133   */\n      dup2\n        /* \"#utility.yul\":3101:3134   */\n      tag_47\n      jump\t// in\n    tag_85:\n        /* \"#utility.yul\":2997:3140   */\n      swap3\n      swap2\n      pop\n      pop\n      jump\t// out\n        /* \"#utility.yul\":3146:3497   */\n    tag_27:\n        /* \"#utility.yul\":3216:3222   */\n      0x00\n        /* \"#utility.yul\":3265:3267   */\n      0x20\n        /* \"#utility.yul\":3253:3262   */\n      dup3\n        /* \"#utility.yul\":3244:3251   */\n      dup5\n        /* \"#utility.yul\":3240:3263   */\n      sub\n        /* \"#utility.yul\":3236:3268   */\n      slt\n        /* \"#utility.yul\":3233:3352   */\n      iszero\n      tag_87\n      jumpi\n        /* \"#utility.yul\":3271:3350   */\n      tag_88\n      tag_43\n      jump\t// in\n    tag_88:\n        /* \"#utility.yul\":3233:3352   */\n    tag_87:\n        /* \"#utility.yul\":3391:3392   */\n      0x00\n        /* \"#utility.yul\":3416:3480   */\n      tag_89\n        /* \"#utility.yul\":3472:3479   */\n      dup5\n        /* \"#utility.yul\":3463:3469   */\n      dup3\n        /* \"#utility.yul\":3452:3461   */\n      dup6\n        /* \"#utility.yul\":3448:3470   */\n      add\n        /* \"#utility.yul\":3416:3480   */\n      tag_48\n      jump\t// in\n    tag_89:\n        /* \"#utility.yul\":3406:3480   */\n      swap2\n      pop\n        /* \"#utility.yul\":3362:3490   */\n      pop\n        /* \"#utility.yul\":3146:3497   */\n      swap3\n      swap2\n      pop\n      pop\n      jump\t// out\n        /* \"#utility.yul\":3503:3618   */\n    tag_49:\n        /* \"#utility.yul\":3588:3611   */\n      tag_91\n        /* \"#utility.yul\":3605:3610   */\n      dup2\n        /* \"#utility.yul\":3588:3611   */\n      tag_40\n      jump\t// in\n    tag_91:\n        /* \"#utility.yul\":3583:3586   */\n      dup3\n        /* \"#utility.yul\":3576:3612   */\n      mstore\n        /* \"#utility.yul\":3503:3618   */\n      pop\n      pop\n      jump\t// out\n        /* \"#utility.yul\":3624:3842   */\n    tag_30:\n        /* \"#utility.yul\":3715:3719   */\n      0x00\n        /* \"#utility.yul\":3753:3755   */\n      0x20\n        /* \"#utility.yul\":3742:3751   */\n      dup3\n        /* \"#utility.yul\":3738:3756   */\n      add\n        /* \"#utility.yul\":3730:3756   */\n      swap1\n      pop\n        /* \"#utility.yul\":3766:3835   */\n      tag_93\n        /* \"#utility.yul\":3832:3833   */\n      0x00\n        /* \"#utility.yul\":3821:3830   */\n      dup4\n        /* \"#utility.yul\":3817:3834   */\n      add\n        /* \"#utility.yul\":3808:3814   */\n      dup5\n        /* \"#utility.yul\":3766:3835   */\n      tag_49\n      jump\t// in\n    tag_93:\n        /* \"#utility.yul\":3624:3842   */\n      swap3\n      swap2\n      pop\n      pop\n      jump\t// out\n\n    auxdata: 0xa26469706673582212202445e40cfa1bbca9798f9acb30beca4c097a3501349d949b2e1435c1f2ba27a264736f6c63430008170033\n}\n",
				"bytecode": {
					"linkReferences": {
						"/contracts/storage/LibDynamicRouterStorage.sol": {
							"DynamicRouterStorage": [
								{
									"length": 20,
									"start": 83
								},
								{
									"length": 20,
									"start": 2121
								}
							]
						},
						"/contracts/storage/LibOwnableStorage.sol": {
							"OwnableStorage": [
								{
									"length": 20,
									"start": 186
								}
							]
						}
					},
					"object": "60a06040526200001860015f806200012760201b60201c565b6080908152503480156200002a575f80fd5b5060405162000bc038038062000bc08339818101604052810190620000509190620004f9565b8073__$f07e73ab50fdc244a807a505d0c4602bfd$__63a8f64352826040518263ffffffff1660e01b81526004016200008a919062000727565b5f6040518083038186803b158015620000a1575f80fd5b505af4158015620000b4573d5f803e3d5ffd5b5050505073__$eb9c0828cb3946c6500b9206079c1e5216$__63592bd705336040518263ffffffff1660e01b8152600401620000f191906200075a565b5f6040518083038186803b15801562000108575f80fd5b505af41580156200011b573d5f803e3d5ffd5b50505050505062000775565b5f8163ffffffff1660208463ffffffff16901b60408663ffffffff16901b171790509392505050565b5f604051905090565b5f80fd5b5f80fd5b5f80fd5b5f601f19601f8301169050919050565b7f4e487b71000000000000000000000000000000000000000000000000000000005f52604160045260245ffd5b620001ad8262000165565b810181811067ffffffffffffffff82111715620001cf57620001ce62000175565b5b80604052505050565b5f620001e362000150565b9050620001f18282620001a2565b919050565b5f67ffffffffffffffff82111562000213576200021262000175565b5b602082029050602081019050919050565b5f80fd5b5f80fd5b5f80fd5b5f73ffffffffffffffffffffffffffffffffffffffff82169050919050565b5f6200025b8262000230565b9050919050565b6200026d816200024f565b811462000278575f80fd5b50565b5f815190506200028b8162000262565b92915050565b5f67ffffffffffffffff821115620002ae57620002ad62000175565b5b602082029050602081019050919050565b5f7fffffffff0000000000000000000000000000000000000000000000000000000082169050919050565b620002f581620002bf565b811462000300575f80fd5b50565b5f815190506200031381620002ea565b92915050565b5f6200032f620003298462000291565b620001d8565b9050808382526020820190506020840283018581111562000355576200035462000224565b5b835b818110156200038257806200036d888262000303565b84526020840193505060208101905062000357565b5050509392505050565b5f82601f830112620003a357620003a262000161565b5b8151620003b584826020860162000319565b91505092915050565b5f60408284031215620003d657620003d562000228565b5b620003e26040620001d8565b90505f620003f3848285016200027b565b5f83015250602082015167ffffffffffffffff8111156200041957620004186200022c565b5b62000427848285016200038c565b60208301525092915050565b5f620004496200044384620001f6565b620001d8565b905080838252602082019050602084028301858111156200046f576200046e62000224565b5b835b81811015620004bd57805167ffffffffffffffff81111562000498576200049762000161565b5b808601620004a78982620003be565b8552602085019450505060208101905062000471565b5050509392505050565b5f82601f830112620004de57620004dd62000161565b5b8151620004f084826020860162000433565b91505092915050565b5f6020828403121562000511576200051062000159565b5b5f82015167ffffffffffffffff8111156200053157620005306200015d565b5b6200053f84828501620004c7565b91505092915050565b5f81519050919050565b5f82825260208201905092915050565b5f819050602082019050919050565b6200057c816200024f565b82525050565b5f81519050919050565b5f82825260208201905092915050565b5f819050602082019050919050565b620005b681620002bf565b82525050565b5f620005c98383620005ab565b60208301905092915050565b5f602082019050919050565b5f620005ed8262000582565b620005f981856200058c565b935062000606836200059c565b805f5b838110156200063c578151620006208882620005bc565b97506200062d83620005d5565b92505060018101905062000609565b5085935050505092915050565b5f604083015f830151620006605f86018262000571565b50602083015184820360208601526200067a8282620005e1565b9150508091505092915050565b5f62000694838362000649565b905092915050565b5f602082019050919050565b5f620006b48262000548565b620006c0818562000552565b935083602082028501620006d48562000562565b805f5b85811015620007155784840389528151620006f3858262000687565b945062000700836200069c565b925060208a01995050600181019050620006d7565b50829750879550505050505092915050565b5f6020820190508181035f830152620007418184620006a8565b905092915050565b62000754816200024f565b82525050565b5f6020820190506200076f5f83018462000749565b92915050565b6080516104326200078e5f395f6101c201526104325ff3fe60806040526004361061002c575f3560e01c806381ed98081461003d5780639b865b431461006757610033565b3661003357005b61003b610091565b005b348015610048575f80fd5b506100516101c0565b60405161005e9190610235565b60405180910390f35b348015610072575f80fd5b5061007b6101e4565b60405161008891906102d8565b60405180910390f35b5f80357fffffffff000000000000000000000000000000000000000000000000000000001690505f73__$f07e73ab50fdc244a807a505d0c4602bfd$__6320e63d2a836040518263ffffffff1660e01b81526004016100f09190610332565b602060405180830381865af415801561010b573d5f803e3d5ffd5b505050506040513d601f19601f8201168201806040525081019061012f91906103a9565b90505f73ffffffffffffffffffffffffffffffffffffffff168173ffffffffffffffffffffffffffffffffffffffff16036101a157816040517fc2a825f500000000000000000000000000000000000000000000000000000000815260040161019891906103e3565b60405180910390fd5b365f80375f80365f845af43d5f803e805f81146101bc573d5ff35b3d5ffd5b7f000000000000000000000000000000000000000000000000000000000000000081565b6040518060400160405280600d81526020017f44796e616d6963526f757465720000000000000000000000000000000000000081525081565b5f819050919050565b61022f8161021d565b82525050565b5f6020820190506102485f830184610226565b92915050565b5f81519050919050565b5f82825260208201905092915050565b5f5b8381101561028557808201518184015260208101905061026a565b5f8484015250505050565b5f601f19601f8301169050919050565b5f6102aa8261024e565b6102b48185610258565b93506102c4818560208601610268565b6102cd81610290565b840191505092915050565b5f6020820190508181035f8301526102f081846102a0565b905092915050565b5f7fffffffff0000000000000000000000000000000000000000000000000000000082169050919050565b61032c816102f8565b82525050565b5f6020820190506103455f830184610323565b92915050565b5f80fd5b5f73ffffffffffffffffffffffffffffffffffffffff82169050919050565b5f6103788261034f565b9050919050565b6103888161036e565b8114610392575f80fd5b50565b5f815190506103a38161037f565b92915050565b5f602082840312156103be576103bd61034b565b5b5f6103cb84828501610395565b91505092915050565b6103dd816102f8565b82525050565b5f6020820190506103f65f8301846103d4565b9291505056fea26469706673582212202445e40cfa1bbca9798f9acb30beca4c097a3501349d949b2e1435c1f2ba27a264736f6c63430008170033",
					"opcodes": "PUSH1 0xA0 PUSH1 0x40 MSTORE PUSH3 0x18 PUSH1 0x1 PUSH0 DUP1 PUSH3 0x127 PUSH1 0x20 SHL PUSH1 0x20 SHR JUMP JUMPDEST PUSH1 0x80 SWAP1 DUP2 MSTORE POP CALLVALUE DUP1 ISZERO PUSH3 0x2A JUMPI PUSH0 DUP1 REVERT JUMPDEST POP PUSH1 0x40 MLOAD PUSH3 0xBC0 CODESIZE SUB DUP1 PUSH3 0xBC0 DUP4 CODECOPY DUP2 DUP2 ADD PUSH1 0x40 MSTORE DUP2 ADD SWAP1 PUSH3 0x50 SWAP2 SWAP1 PUSH3 0x4F9 JUMP JUMPDEST DUP1 PUSH20 0x0 PUSH4 0xA8F64352 DUP3 PUSH1 0x40 MLOAD DUP3 PUSH4 0xFFFFFFFF AND PUSH1 0xE0 SHL DUP2 MSTORE PUSH1 0x4 ADD PUSH3 0x8A SWAP2 SWAP1 PUSH3 0x727 JUMP JUMPDEST PUSH0 PUSH1 0x40 MLOAD DUP1 DUP4 SUB DUP2 DUP7 DUP1 EXTCODESIZE ISZERO DUP1 ISZERO PUSH3 0xA1 JUMPI PUSH0 DUP1 REVERT JUMPDEST POP GAS DELEGATECALL ISZERO DUP1 ISZERO PUSH3 0xB4 JUMPI RETURNDATASIZE PUSH0 DUP1 RETURNDATACOPY RETURNDATASIZE PUSH0 REVERT JUMPDEST POP POP POP POP PUSH20 0x0 PUSH4 0x592BD705 CALLER PUSH1 0x40 MLOAD DUP3 PUSH4 0xFFFFFFFF AND PUSH1 0xE0 SHL DUP2 MSTORE PUSH1 0x4 ADD PUSH3 0xF1 SWAP2 SWAP1 PUSH3 0x75A JUMP JUMPDEST PUSH0 PUSH1 0x40 MLOAD DUP1 DUP4 SUB DUP2 DUP7 DUP1 EXTCODESIZE ISZERO DUP1 ISZERO PUSH3 0x108 JUMPI PUSH0 DUP1 REVERT JUMPDEST POP GAS DELEGATECALL ISZERO DUP1 ISZERO PUSH3 0x11B JUMPI RETURNDATASIZE PUSH0 DUP1 RETURNDATACOPY RETURNDATASIZE PUSH0 REVERT JUMPDEST POP POP POP POP POP POP PUSH3 0x775 JUMP JUMPDEST PUSH0 DUP2 PUSH4 0xFFFFFFFF AND PUSH1 0x20 DUP5 PUSH4 0xFFFFFFFF AND SWAP1 SHL PUSH1 0x40 DUP7 PUSH4 0xFFFFFFFF AND SWAP1 SHL OR OR SWAP1 POP SWAP4 SWAP3 POP POP POP JUMP JUMPDEST PUSH0 PUSH1 0x40 MLOAD SWAP1 POP SWAP1 JUMP JUMPDEST PUSH0 DUP1 REVERT JUMPDEST PUSH0 DUP1 REVERT JUMPDEST PUSH0 DUP1 REVERT JUMPDEST PUSH0 PUSH1 0x1F NOT PUSH1 0x1F DUP4 ADD AND SWAP1 POP SWAP2 SWAP1 POP JUMP JUMPDEST PUSH32 0x4E487B7100000000000000000000000000000000000000000000000000000000 PUSH0 MSTORE PUSH1 0x41 PUSH1 0x4 MSTORE PUSH1 0x24 PUSH0 REVERT JUMPDEST PUSH3 0x1AD DUP3 PUSH3 0x165 JUMP JUMPDEST DUP2 ADD DUP2 DUP2 LT PUSH8 0xFFFFFFFFFFFFFFFF DUP3 GT OR ISZERO PUSH3 0x1CF JUMPI PUSH3 0x1CE PUSH3 0x175 JUMP JUMPDEST JUMPDEST DUP1 PUSH1 0x40 MSTORE POP POP POP JUMP JUMPDEST PUSH0 PUSH3 0x1E3 PUSH3 0x150 JUMP JUMPDEST SWAP1 POP PUSH3 0x1F1 DUP3 DUP3 PUSH3 0x1A2 JUMP JUMPDEST SWAP2 SWAP1 POP JUMP JUMPDEST PUSH0 PUSH8 0xFFFFFFFFFFFFFFFF DUP3 GT ISZERO PUSH3 0x213 JUMPI PUSH3 0x212 PUSH3 0x175 JUMP JUMPDEST JUMPDEST PUSH1 0x20 DUP3 MUL SWAP1 POP PUSH1 0x20 DUP2 ADD SWAP1 POP SWAP2 SWAP1 POP JUMP JUMPDEST PUSH0 DUP1 REVERT JUMPDEST PUSH0 DUP1 REVERT JUMPDEST PUSH0 DUP1 REVERT JUMPDEST PUSH0 PUSH20 0xFFFFFFFFFFFFFFFFFFFFFFFFFFFFFFFFFFFFFFFF DUP3 AND SWAP1 POP SWAP2 SWAP1 POP JUMP JUMPDEST PUSH0 PUSH3 0x25B DUP3 PUSH3 0x230 JUMP JUMPDEST SWAP1 POP SWAP2 SWAP1 POP JUMP JUMPDEST PUSH3 0x26D DUP2 PUSH3 0x24F JUMP JUMPDEST DUP2 EQ PUSH3 0x278 JUMPI PUSH0 DUP1 REVERT JUMPDEST POP JUMP JUMPDEST PUSH0 DUP2 MLOAD SWAP1 POP PUSH3 0x28B DUP2 PUSH3 0x262 JUMP JUMPDEST SWAP3 SWAP2 POP POP JUMP JUMPDEST PUSH0 PUSH8 0xFFFFFFFFFFFFFFFF DUP3 GT ISZERO PUSH3 0x2AE JUMPI PUSH3 0x2AD PUSH3 0x175 JUMP JUMPDEST JUMPDEST PUSH1 0x20 DUP3 MUL SWAP1 POP PUSH1 0x20 DUP2 ADD SWAP1 POP SWAP2 SWAP1 POP JUMP JUMPDEST PUSH0 PUSH32 0xFFFFFFFF00000000000000000000000000000000000000000000000000000000 DUP3 AND SWAP1 POP SWAP2 SWAP1 POP JUMP JUMPDEST PUSH3 0x2F5 DUP2 PUSH3 0x2BF JUMP JUMPDEST DUP2 EQ PUSH3 0x300 JUMPI PUSH0 DUP1 REVERT JUMPDEST POP JUMP JUMPDEST PUSH0 DUP2 MLOAD SWAP1 POP PUSH3 0x313 DUP2 PUSH3 0x2EA JUMP JUMPDEST SWAP3 SWAP2 POP POP JUMP JUMPDEST PUSH0 PUSH3 0x32F PUSH3 0x329 DUP5 PUSH3 0x291 JUMP JUMPDEST PUSH3 0x1D8 JUMP JUMPDEST SWAP1 POP DUP1 DUP4 DUP3 MSTORE PUSH1 0x20 DUP3 ADD SWAP1 POP PUSH1 0x20 DUP5 MUL DUP4 ADD DUP6 DUP2 GT ISZERO PUSH3 0x355 JUMPI PUSH3 0x354 PUSH3 0x224 JUMP JUMPDEST JUMPDEST DUP4 JUMPDEST DUP2 DUP2 LT ISZERO PUSH3 0x382 JUMPI DUP1 PUSH3 0x36D DUP9 DUP3 PUSH3 0x303 JUMP JUMPDEST DUP5 MSTORE PUSH1 0x20 DUP5 ADD SWAP4 POP POP PUSH1 0x20 DUP2 ADD SWAP1 POP PUSH3 0x357 JUMP JUMPDEST POP POP POP SWAP4 SWAP3 POP POP POP JUMP JUMPDEST PUSH0 DUP3 PUSH1 0x1F DUP4 ADD SLT PUSH3 0x3A3 JUMPI PUSH3 0x3A2 PUSH3 0x161 JUMP JUMPDEST JUMPDEST DUP2 MLOAD PUSH3 0x3B5 DUP5 DUP3 PUSH1 0x20 DUP7 ADD PUSH3 0x319 JUMP JUMPDEST SWAP2 POP POP SWAP3 SWAP2 POP POP JUMP JUMPDEST PUSH0 PUSH1 0x40 DUP3 DUP5 SUB SLT ISZERO PUSH3 0x3D6 JUMPI PUSH3 0x3D5 PUSH3 0x228 JUMP JUMPDEST JUMPDEST PUSH3 0x3E2 PUSH1 0x40 PUSH3 0x1D8 JUMP JUMPDEST SWAP1 POP PUSH0 PUSH3 0x3F3 DUP5 DUP3 DUP6 ADD PUSH3 0x27B JUMP JUMPDEST PUSH0 DUP4 ADD MSTORE POP PUSH1 0x20 DUP3 ADD MLOAD PUSH8 0xFFFFFFFFFFFFFFFF DUP2 GT ISZERO PUSH3 0x419 JUMPI PUSH3 0x418 PUSH3 0x22C JUMP JUMPDEST JUMPDEST PUSH3 0x427 DUP5 DUP3 DUP6 ADD PUSH3 0x38C JUMP JUMPDEST PUSH1 0x20 DUP4 ADD MSTORE POP SWAP3 SWAP2 POP POP JUMP JUMPDEST PUSH0 PUSH3 0x449 PUSH3 0x443 DUP5 PUSH3 0x1F6 JUMP JUMPDEST PUSH3 0x1D8 JUMP JUMPDEST SWAP1 POP DUP1 DUP4 DUP3 MSTORE PUSH1 0x20 DUP3 ADD SWAP1 POP PUSH1 0x20 DUP5 MUL DUP4 ADD DUP6 DUP2 GT ISZERO PUSH3 0x46F JUMPI PUSH3 0x46E PUSH3 0x224 JUMP JUMPDEST JUMPDEST DUP4 JUMPDEST DUP2 DUP2 LT ISZERO PUSH3 0x4BD JUMPI DUP1 MLOAD PUSH8 0xFFFFFFFFFFFFFFFF DUP2 GT ISZERO PUSH3 0x498 JUMPI PUSH3 0x497 PUSH3 0x161 JUMP JUMPDEST JUMPDEST DUP1 DUP7 ADD PUSH3 0x4A7 DUP10 DUP3 PUSH3 0x3BE JUMP JUMPDEST DUP6 MSTORE PUSH1 0x20 DUP6 ADD SWAP5 POP POP POP PUSH1 0x20 DUP2 ADD SWAP1 POP PUSH3 0x471 JUMP JUMPDEST POP POP POP SWAP4 SWAP3 POP POP POP JUMP JUMPDEST PUSH0 DUP3 PUSH1 0x1F DUP4 ADD SLT PUSH3 0x4DE JUMPI PUSH3 0x4DD PUSH3 0x161 JUMP JUMPDEST JUMPDEST DUP2 MLOAD PUSH3 0x4F0 DUP5 DUP3 PUSH1 0x20 DUP7 ADD PUSH3 0x433 JUMP JUMPDEST SWAP2 POP POP SWAP3 SWAP2 POP POP JUMP JUMPDEST PUSH0 PUSH1 0x20 DUP3 DUP5 SUB SLT ISZERO PUSH3 0x511 JUMPI PUSH3 0x510 PUSH3 0x159 JUMP JUMPDEST JUMPDEST PUSH0 DUP3 ADD MLOAD PUSH8 0xFFFFFFFFFFFFFFFF DUP2 GT ISZERO PUSH3 0x531 JUMPI PUSH3 0x530 PUSH3 0x15D JUMP JUMPDEST JUMPDEST PUSH3 0x53F DUP5 DUP3 DUP6 ADD PUSH3 0x4C7 JUMP JUMPDEST SWAP2 POP POP SWAP3 SWAP2 POP POP JUMP JUMPDEST PUSH0 DUP2 MLOAD SWAP1 POP SWAP2 SWAP1 POP JUMP JUMPDEST PUSH0 DUP3 DUP3 MSTORE PUSH1 0x20 DUP3 ADD SWAP1 POP SWAP3 SWAP2 POP POP JUMP JUMPDEST PUSH0 DUP2 SWAP1 POP PUSH1 0x20 DUP3 ADD SWAP1 POP SWAP2 SWAP1 POP JUMP JUMPDEST PUSH3 0x57C DUP2 PUSH3 0x24F JUMP JUMPDEST DUP3 MSTORE POP POP JUMP JUMPDEST PUSH0 DUP2 MLOAD SWAP1 POP SWAP2 SWAP1 POP JUMP JUMPDEST PUSH0 DUP3 DUP3 MSTORE PUSH1 0x20 DUP3 ADD SWAP1 POP SWAP3 SWAP2 POP POP JUMP JUMPDEST PUSH0 DUP2 SWAP1 POP PUSH1 0x20 DUP3 ADD SWAP1 POP SWAP2 SWAP1 POP JUMP JUMPDEST PUSH3 0x5B6 DUP2 PUSH3 0x2BF JUMP JUMPDEST DUP3 MSTORE POP POP JUMP JUMPDEST PUSH0 PUSH3 0x5C9 DUP4 DUP4 PUSH3 0x5AB JUMP JUMPDEST PUSH1 0x20 DUP4 ADD SWAP1 POP SWAP3 SWAP2 POP POP JUMP JUMPDEST PUSH0 PUSH1 0x20 DUP3 ADD SWAP1 POP SWAP2 SWAP1 POP JUMP JUMPDEST PUSH0 PUSH3 0x5ED DUP3 PUSH3 0x582 JUMP JUMPDEST PUSH3 0x5F9 DUP2 DUP6 PUSH3 0x58C JUMP JUMPDEST SWAP4 POP PUSH3 0x606 DUP4 PUSH3 0x59C JUMP JUMPDEST DUP1 PUSH0 JUMPDEST DUP4 DUP2 LT ISZERO PUSH3 0x63C JUMPI DUP2 MLOAD PUSH3 0x620 DUP9 DUP3 PUSH3 0x5BC JUMP JUMPDEST SWAP8 POP PUSH3 0x62D DUP4 PUSH3 0x5D5 JUMP JUMPDEST SWAP3 POP POP PUSH1 0x1 DUP2 ADD SWAP1 POP PUSH3 0x609 JUMP JUMPDEST POP DUP6 SWAP4 POP POP POP POP SWAP3 SWAP2 POP POP JUMP JUMPDEST PUSH0 PUSH1 0x40 DUP4 ADD PUSH0 DUP4 ADD MLOAD PUSH3 0x660 PUSH0 DUP7 ADD DUP3 PUSH3 0x571 JUMP JUMPDEST POP PUSH1 0x20 DUP4 ADD MLOAD DUP5 DUP3 SUB PUSH1 0x20 DUP7 ADD MSTORE PUSH3 0x67A DUP3 DUP3 PUSH3 0x5E1 JUMP JUMPDEST SWAP2 POP POP DUP1 SWAP2 POP POP SWAP3 SWAP2 POP POP JUMP JUMPDEST PUSH0 PUSH3 0x694 DUP4 DUP4 PUSH3 0x649 JUMP JUMPDEST SWAP1 POP SWAP3 SWAP2 POP POP JUMP JUMPDEST PUSH0 PUSH1 0x20 DUP3 ADD SWAP1 POP SWAP2 SWAP1 POP JUMP JUMPDEST PUSH0 PUSH3 0x6B4 DUP3 PUSH3 0x548 JUMP JUMPDEST PUSH3 0x6C0 DUP2 DUP6 PUSH3 0x552 JUMP JUMPDEST SWAP4 POP DUP4 PUSH1 0x20 DUP3 MUL DUP6 ADD PUSH3 0x6D4 DUP6 PUSH3 0x562 JUMP JUMPDEST DUP1 PUSH0 JUMPDEST DUP6 DUP2 LT ISZERO PUSH3 0x715 JUMPI DUP5 DUP5 SUB DUP10 MSTORE DUP2 MLOAD PUSH3 0x6F3 DUP6 DUP3 PUSH3 0x687 JUMP JUMPDEST SWAP5 POP PUSH3 0x700 DUP4 PUSH3 0x69C JUMP JUMPDEST SWAP3 POP PUSH1 0x20 DUP11 ADD SWAP10 POP POP PUSH1 0x1 DUP2 ADD SWAP1 POP PUSH3 0x6D7 JUMP JUMPDEST POP DUP3 SWAP8 POP DUP8 SWAP6 POP POP POP POP POP POP SWAP3 SWAP2 POP POP JUMP JUMPDEST PUSH0 PUSH1 0x20 DUP3 ADD SWAP1 POP DUP2 DUP2 SUB PUSH0 DUP4 ADD MSTORE PUSH3 0x741 DUP2 DUP5 PUSH3 0x6A8 JUMP JUMPDEST SWAP1 POP SWAP3 SWAP2 POP POP JUMP JUMPDEST PUSH3 0x754 DUP2 PUSH3 0x24F JUMP JUMPDEST DUP3 MSTORE POP POP JUMP JUMPDEST PUSH0 PUSH1 0x20 DUP3 ADD SWAP1 POP PUSH3 0x76F PUSH0 DUP4 ADD DUP5 PUSH3 0x749 JUMP JUMPDEST SWAP3 SWAP2 POP POP JUMP JUMPDEST PUSH1 0x80 MLOAD PUSH2 0x432 PUSH3 0x78E PUSH0 CODECOPY PUSH0 PUSH2 0x1C2 ADD MSTORE PUSH2 0x432 PUSH0 RETURN INVALID PUSH1 0x80 PUSH1 0x40 MSTORE PUSH1 0x4 CALLDATASIZE LT PUSH2 0x2C JUMPI PUSH0 CALLDATALOAD PUSH1 0xE0 SHR DUP1 PUSH4 0x81ED9808 EQ PUSH2 0x3D JUMPI DUP1 PUSH4 0x9B865B43 EQ PUSH2 0x67 JUMPI PUSH2 0x33 JUMP JUMPDEST CALLDATASIZE PUSH2 0x33 JUMPI STOP JUMPDEST PUSH2 0x3B PUSH2 0x91 JUMP JUMPDEST STOP JUMPDEST CALLVALUE DUP1 ISZERO PUSH2 0x48 JUMPI PUSH0 DUP1 REVERT JUMPDEST POP PUSH2 0x51 PUSH2 0x1C0 JUMP JUMPDEST PUSH1 0x40 MLOAD PUSH2 0x5E SWAP2 SWAP1 PUSH2 0x235 JUMP JUMPDEST PUSH1 0x40 MLOAD DUP1 SWAP2 SUB SWAP1 RETURN JUMPDEST CALLVALUE DUP1 ISZERO PUSH2 0x72 JUMPI PUSH0 DUP1 REVERT JUMPDEST POP PUSH2 0x7B PUSH2 0x1E4 JUMP JUMPDEST PUSH1 0x40 MLOAD PUSH2 0x88 SWAP2 SWAP1 PUSH2 0x2D8 JUMP JUMPDEST PUSH1 0x40 MLOAD DUP1 SWAP2 SUB SWAP1 RETURN JUMPDEST PUSH0 DUP1 CALLDATALOAD PUSH32 0xFFFFFFFF00000000000000000000000000000000000000000000000000000000 AND SWAP1 POP PUSH0 PUSH20 0x0 PUSH4 0x20E63D2A DUP4 PUSH1 0x40 MLOAD DUP3 PUSH4 0xFFFFFFFF AND PUSH1 0xE0 SHL DUP2 MSTORE PUSH1 0x4 ADD PUSH2 0xF0 SWAP2 SWAP1 PUSH2 0x332 JUMP JUMPDEST PUSH1 0x20 PUSH1 0x40 MLOAD DUP1 DUP4 SUB DUP2 DUP7 GAS DELEGATECALL ISZERO DUP1 ISZERO PUSH2 0x10B JUMPI RETURNDATASIZE PUSH0 DUP1 RETURNDATACOPY RETURNDATASIZE PUSH0 REVERT JUMPDEST POP POP POP POP PUSH1 0x40 MLOAD RETURNDATASIZE PUSH1 0x1F NOT PUSH1 0x1F DUP3 ADD AND DUP3 ADD DUP1 PUSH1 0x40 MSTORE POP DUP2 ADD SWAP1 PUSH2 0x12F SWAP2 SWAP1 PUSH2 0x3A9 JUMP JUMPDEST SWAP1 POP PUSH0 PUSH20 0xFFFFFFFFFFFFFFFFFFFFFFFFFFFFFFFFFFFFFFFF AND DUP2 PUSH20 0xFFFFFFFFFFFFFFFFFFFFFFFFFFFFFFFFFFFFFFFF AND SUB PUSH2 0x1A1 JUMPI DUP2 PUSH1 0x40 MLOAD PUSH32 0xC2A825F500000000000000000000000000000000000000000000000000000000 DUP2 MSTORE PUSH1 0x4 ADD PUSH2 0x198 SWAP2 SWAP1 PUSH2 0x3E3 JUMP JUMPDEST PUSH1 0x40 MLOAD DUP1 SWAP2 SUB SWAP1 REVERT JUMPDEST CALLDATASIZE PUSH0 DUP1 CALLDATACOPY PUSH0 DUP1 CALLDATASIZE PUSH0 DUP5 GAS DELEGATECALL RETURNDATASIZE PUSH0 DUP1 RETURNDATACOPY DUP1 PUSH0 DUP2 EQ PUSH2 0x1BC JUMPI RETURNDATASIZE PUSH0 RETURN JUMPDEST RETURNDATASIZE PUSH0 REVERT JUMPDEST PUSH32 0x0 DUP2 JUMP JUMPDEST PUSH1 0x40 MLOAD DUP1 PUSH1 0x40 ADD PUSH1 0x40 MSTORE DUP1 PUSH1 0xD DUP2 MSTORE PUSH1 0x20 ADD PUSH32 0x44796E616D6963526F7574657200000000000000000000000000000000000000 DUP2 MSTORE POP DUP2 JUMP JUMPDEST PUSH0 DUP2 SWAP1 POP SWAP2 SWAP1 POP JUMP JUMPDEST PUSH2 0x22F DUP2 PUSH2 0x21D JUMP JUMPDEST DUP3 MSTORE POP POP JUMP JUMPDEST PUSH0 PUSH1 0x20 DUP3 ADD SWAP1 POP PUSH2 0x248 PUSH0 DUP4 ADD DUP5 PUSH2 0x226 JUMP JUMPDEST SWAP3 SWAP2 POP POP JUMP JUMPDEST PUSH0 DUP2 MLOAD SWAP1 POP SWAP2 SWAP1 POP JUMP JUMPDEST PUSH0 DUP3 DUP3 MSTORE PUSH1 0x20 DUP3 ADD SWAP1 POP SWAP3 SWAP2 POP POP JUMP JUMPDEST PUSH0 JUMPDEST DUP4 DUP2 LT ISZERO PUSH2 0x285 JUMPI DUP1 DUP3 ADD MLOAD DUP2 DUP5 ADD MSTORE PUSH1 0x20 DUP2 ADD SWAP1 POP PUSH2 0x26A JUMP JUMPDEST PUSH0 DUP5 DUP5 ADD MSTORE POP POP POP POP JUMP JUMPDEST PUSH0 PUSH1 0x1F NOT PUSH1 0x1F DUP4 ADD AND SWAP1 POP SWAP2 SWAP1 POP JUMP JUMPDEST PUSH0 PUSH2 0x2AA DUP3 PUSH2 0x24E JUMP JUMPDEST PUSH2 0x2B4 DUP2 DUP6 PUSH2 0x258 JUMP JUMPDEST SWAP4 POP PUSH2 0x2C4 DUP2 DUP6 PUSH1 0x20 DUP7 ADD PUSH2 0x268 JUMP JUMPDEST PUSH2 0x2CD DUP2 PUSH2 0x290 JUMP JUMPDEST DUP5 ADD SWAP2 POP POP SWAP3 SWAP2 POP POP JUMP JUMPDEST PUSH0 PUSH1 0x20 DUP3 ADD SWAP1 POP DUP2 DUP2 SUB PUSH0 DUP4 ADD MSTORE PUSH2 0x2F0 DUP2 DUP5 PUSH2 0x2A0 JUMP JUMPDEST SWAP1 POP SWAP3 SWAP2 POP POP JUMP JUMPDEST PUSH0 PUSH32 0xFFFFFFFF00000000000000000000000000000000000000000000000000000000 DUP3 AND SWAP1 POP SWAP2 SWAP1 POP JUMP JUMPDEST PUSH2 0x32C DUP2 PUSH2 0x2F8 JUMP JUMPDEST DUP3 MSTORE POP POP JUMP JUMPDEST PUSH0 PUSH1 0x20 DUP3 ADD SWAP1 POP PUSH2 0x345 PUSH0 DUP4 ADD DUP5 PUSH2 0x323 JUMP JUMPDEST SWAP3 SWAP2 POP POP JUMP JUMPDEST PUSH0 DUP1 REVERT JUMPDEST PUSH0 PUSH20 0xFFFFFFFFFFFFFFFFFFFFFFFFFFFFFFFFFFFFFFFF DUP3 AND SWAP1 POP SWAP2 SWAP1 POP JUMP JUMPDEST PUSH0 PUSH2 0x378 DUP3 PUSH2 0x34F JUMP JUMPDEST SWAP1 POP SWAP2 SWAP1 POP JUMP JUMPDEST PUSH2 0x388 DUP2 PUSH2 0x36E JUMP JUMPDEST DUP2 EQ PUSH2 0x392 JUMPI PUSH0 DUP1 REVERT JUMPDEST POP JUMP JUMPDEST PUSH0 DUP2 MLOAD SWAP1 POP PUSH2 0x3A3 DUP2 PUSH2 0x37F JUMP JUMPDEST SWAP3 SWAP2 POP POP JUMP JUMPDEST PUSH0 PUSH1 0x20 DUP3 DUP5 SUB SLT ISZERO PUSH2 0x3BE JUMPI PUSH2 0x3BD PUSH2 0x34B JUMP JUMPDEST JUMPDEST PUSH0 PUSH2 0x3CB DUP5 DUP3 DUP6 ADD PUSH2 0x395 JUMP JUMPDEST SWAP2 POP POP SWAP3 SWAP2 POP POP JUMP JUMPDEST PUSH2 0x3DD DUP2 PUSH2 0x2F8 JUMP JUMPDEST DUP3 MSTORE POP POP JUMP JUMPDEST PUSH0 PUSH1 0x20 DUP3 ADD SWAP1 POP PUSH2 0x3F6 PUSH0 DUP4 ADD DUP5 PUSH2 0x3D4 JUMP JUMPDEST SWAP3 SWAP2 POP POP JUMP INVALID LOG2 PUSH5 0x6970667358 0x22 SLT KECCAK256 0x24 GASLIMIT 0xE4 0xC STATICCALL SHL 0xBC 0xA9 PUSH26 0x8F9ACB30BECA4C097A3501349D949B2E1435C1F2BA27A264736F PUSH13 0x63430008170033000000000000 "
				},
				"gasEstimates": {
					"creation": {
						"codeDepositCost": "214800",
						"executionCost": "infinite",
						"totalCost": "infinite"
					},
					"external": {
						"": "infinite",
						"MODULE_NAME()": "infinite",
						"MODULE_VERSION()": "infinite"
					}
				},
				"methodIdentifiers": {
					"MODULE_NAME()": "9b865b43",
					"MODULE_VERSION()": "81ed9808"
				}
			},
			"storageLayout": {
				"storage": [],
				"types": null
			},
			"userdoc": {
				"kind": "user",
				"methods": {},
				"notice": "Точка входа в экосистему - динамический маршрутизатор      Все имплементации отделены друг от друга и от хранилища.      Логика описывается модулями, в то время как работа с хранилищем производится       только через библиотеки для раздельных хранилищ*",
				"version": 1
			}
		}
	}
}