{
	"/contracts/storage/LibDynamicRouterStorage.sol": {
		"DynamicRouterStorage": {
			"abi": [
				{
					"anonymous": false,
					"inputs": [
						{
							"indexed": false,
							"internalType": "address",
							"name": "_initialized",
							"type": "address"
						},
						{
							"indexed": false,
							"internalType": "address",
							"name": "_module",
							"type": "address"
						},
						{
							"indexed": false,
							"internalType": "bytes4",
							"name": "_selector",
							"type": "bytes4"
						}
					],
					"name": "UpdateModule",
					"type": "event"
				},
				{
					"inputs": [
						{
							"internalType": "bytes4",
							"name": "_selector",
							"type": "bytes4"
						}
					],
					"name": "getImp",
					"outputs": [
						{
							"internalType": "address",
							"name": "",
							"type": "address"
						}
					],
					"stateMutability": "view",
					"type": "function"
				},
				{
					"inputs": [],
					"name": "getImpl",
					"outputs": [
						{
							"internalType": "address[]",
							"name": "",
							"type": "address[]"
						}
					],
					"stateMutability": "view",
					"type": "function"
				},
				{
					"inputs": [
						{
							"internalType": "bytes4",
							"name": "_selector",
							"type": "bytes4"
						}
					],
					"name": "getModule",
					"outputs": [
						{
							"internalType": "address",
							"name": "",
							"type": "address"
						}
					],
					"stateMutability": "view",
					"type": "function"
				},
				{
					"inputs": [],
					"name": "getSelectors",
					"outputs": [
						{
							"internalType": "bytes4[]",
							"name": "",
							"type": "bytes4[]"
						}
					],
					"stateMutability": "view",
					"type": "function"
				}
			],
			"devdoc": {
				"custom:version": "1.0.0",
				"details": "В DynamicRouterStorage находятся функции работы с хранилищем     Отделены от имплементации модуля для более безопасного обновления     всех последующих имплементаций. Не имеет зависимостей.     Для корректного обновления модуля реализована функция updateModules.",
				"events": {
					"UpdateModule(address,address,bytes4)": {
						"details": "Событие обновления имплементации модуля"
					}
				},
				"kind": "dev",
				"methods": {
					"getImp(bytes4)": {
						"details": "Возвращает по селектору адрес имплементации"
					},
					"getImpl()": {
						"details": "Возвращает имплементации"
					},
					"getModule(bytes4)": {
						"details": "Возвращает модуль по селектору"
					},
					"getSelectors()": {
						"details": "Возвращает массив селекторов"
					},
					"updateModules(DynamicRouterStorage.moduleDefinition[])": {
						"details": "Обновление модулей ",
						"params": {
							"modules": "- структура moduleDefinition:     address module - адрес имплементации     bytes4[] selectors - селектор функции"
						}
					}
				},
				"stateVariables": {
					"SLOT": {
						"details": "Слот хранилища"
					}
				},
				"title": "DynamicRouterStorage",
				"version": 1
			},
			"evm": {
				"assembly": "    /* \"/contracts/storage/LibDynamicRouterStorage.sol\":620:4167  library DynamicRouterStorage {... */\n  dataSize(sub_0)\n  dataOffset(sub_0)\n  0x0b\n  dup3\n  dup3\n  dup3\n  codecopy\n  dup1\n  mload\n  0x00\n  byte\n  0x73\n  eq\n  tag_1\n  jumpi\n  mstore(0x00, 0x4e487b7100000000000000000000000000000000000000000000000000000000)\n  mstore(0x04, 0x00)\n  revert(0x00, 0x24)\ntag_1:\n  mstore(0x00, address)\n  0x73\n  dup2\n  mstore8\n  dup3\n  dup2\n  return\nstop\n\nsub_0: assembly {\n        /* \"/contracts/storage/LibDynamicRouterStorage.sol\":620:4167  library DynamicRouterStorage {... */\n      eq(address, deployTimeAddress())\n      mstore(0x40, 0x80)\n      jumpi(tag_1, lt(calldatasize, 0x04))\n      shr(0xe0, calldataload(0x00))\n      dup1\n      0x20e63d2a\n      eq\n      tag_2\n      jumpi\n      dup1\n      0x4b503f0b\n      eq\n      tag_3\n      jumpi\n      dup1\n      0xa8f64352\n      eq\n      tag_4\n      jumpi\n      dup1\n      0xdcef0069\n      eq\n      tag_5\n      jumpi\n      dup1\n      0xdfb80831\n      eq\n      tag_6\n      jumpi\n    tag_1:\n      0x00\n      dup1\n      revert\n        /* \"/contracts/storage/LibDynamicRouterStorage.sol\":2911:3031  function getImp(bytes4 _selector) external view returns(address){... */\n    tag_2:\n      tag_7\n      0x04\n      dup1\n      calldatasize\n      sub\n      dup2\n      add\n      swap1\n      tag_8\n      swap2\n      swap1\n      tag_9\n      jump\t// in\n    tag_8:\n      tag_10\n      jump\t// in\n    tag_7:\n      mload(0x40)\n      tag_11\n      swap2\n      swap1\n      tag_12\n      jump\t// in\n    tag_11:\n      mload(0x40)\n      dup1\n      swap2\n      sub\n      swap1\n      return\n        /* \"/contracts/storage/LibDynamicRouterStorage.sol\":2532:2641  function getSelectors() external view returns(bytes4[] memory){... */\n    tag_3:\n      tag_13\n      tag_14\n      jump\t// in\n    tag_13:\n      mload(0x40)\n      tag_15\n      swap2\n      swap1\n      tag_16\n      jump\t// in\n    tag_15:\n      mload(0x40)\n      dup1\n      swap2\n      sub\n      swap1\n      return\n        /* \"/contracts/storage/LibDynamicRouterStorage.sol\":1546:2257  function updateModules(moduleDefinition[] memory modules) external {... */\n    tag_4:\n      dup2\n      dup1\n      iszero\n      tag_17\n      jumpi\n      0x00\n      dup1\n      revert\n    tag_17:\n      pop\n      tag_18\n      0x04\n      dup1\n      calldatasize\n      sub\n      dup2\n      add\n      swap1\n      tag_19\n      swap2\n      swap1\n      tag_20\n      jump\t// in\n    tag_19:\n      tag_21\n      jump\t// in\n    tag_18:\n      stop\n        /* \"/contracts/storage/LibDynamicRouterStorage.sol\":2336:2459  function getModule(bytes4 _selector) external view returns(address){... */\n    tag_5:\n      tag_22\n      0x04\n      dup1\n      calldatasize\n      sub\n      dup2\n      add\n      swap1\n      tag_23\n      swap2\n      swap1\n      tag_9\n      jump\t// in\n    tag_23:\n      tag_24\n      jump\t// in\n    tag_22:\n      mload(0x40)\n      tag_25\n      swap2\n      swap1\n      tag_12\n      jump\t// in\n    tag_25:\n      mload(0x40)\n      dup1\n      swap2\n      sub\n      swap1\n      return\n        /* \"/contracts/storage/LibDynamicRouterStorage.sol\":2709:2810  function getImpl() external view returns (address[] memory){... */\n    tag_6:\n      tag_26\n      tag_27\n      jump\t// in\n    tag_26:\n      mload(0x40)\n      tag_28\n      swap2\n      swap1\n      tag_29\n      jump\t// in\n    tag_28:\n      mload(0x40)\n      dup1\n      swap2\n      sub\n      swap1\n      return\n        /* \"/contracts/storage/LibDynamicRouterStorage.sol\":2911:3031  function getImp(bytes4 _selector) external view returns(address){... */\n    tag_10:\n        /* \"/contracts/storage/LibDynamicRouterStorage.sol\":2967:2974  address */\n      0x00\n        /* \"/contracts/storage/LibDynamicRouterStorage.sol\":2989:3006  _getStorage(SLOT) */\n      tag_31\n        /* \"/contracts/storage/LibDynamicRouterStorage.sol\":730:752  bytes('DynamicRouter') */\n      mload(0x40)\n      dup1\n      0x40\n      add\n      0x40\n      mstore\n      dup1\n      0x0d\n      dup2\n      mstore\n      0x20\n      add\n      0x44796e616d6963526f7574657200000000000000000000000000000000000000\n      dup2\n      mstore\n      pop\n        /* \"/contracts/storage/LibDynamicRouterStorage.sol\":720:753  keccak256(bytes('DynamicRouter')) */\n      dup1\n      mload\n      swap1\n      0x20\n      add\n      keccak256\n        /* \"/contracts/storage/LibDynamicRouterStorage.sol\":2989:3000  _getStorage */\n      tag_32\n        /* \"/contracts/storage/LibDynamicRouterStorage.sol\":2989:3006  _getStorage(SLOT) */\n      jump\t// in\n    tag_31:\n        /* \"/contracts/storage/LibDynamicRouterStorage.sol\":2989:3014  _getStorage(SLOT).modules */\n      0x00\n      add\n        /* \"/contracts/storage/LibDynamicRouterStorage.sol\":2989:3025  _getStorage(SLOT).modules[_selector] */\n      0x00\n        /* \"/contracts/storage/LibDynamicRouterStorage.sol\":3015:3024  _selector */\n      dup4\n        /* \"/contracts/storage/LibDynamicRouterStorage.sol\":2989:3025  _getStorage(SLOT).modules[_selector] */\n      not(0xffffffffffffffffffffffffffffffffffffffffffffffffffffffff)\n      and\n      not(0xffffffffffffffffffffffffffffffffffffffffffffffffffffffff)\n      and\n      dup2\n      mstore\n      0x20\n      add\n      swap1\n      dup2\n      mstore\n      0x20\n      add\n      0x00\n      keccak256\n      0x00\n      swap1\n      sload\n      swap1\n      0x0100\n      exp\n      swap1\n      div\n      0xffffffffffffffffffffffffffffffffffffffff\n      and\n        /* \"/contracts/storage/LibDynamicRouterStorage.sol\":2982:3025  return _getStorage(SLOT).modules[_selector] */\n      swap1\n      pop\n        /* \"/contracts/storage/LibDynamicRouterStorage.sol\":2911:3031  function getImp(bytes4 _selector) external view returns(address){... */\n      swap2\n      swap1\n      pop\n      jump\t// out\n        /* \"/contracts/storage/LibDynamicRouterStorage.sol\":2532:2641  function getSelectors() external view returns(bytes4[] memory){... */\n    tag_14:\n        /* \"/contracts/storage/LibDynamicRouterStorage.sol\":2578:2593  bytes4[] memory */\n      0x60\n        /* \"/contracts/storage/LibDynamicRouterStorage.sol\":2608:2625  _getStorage(SLOT) */\n      tag_34\n        /* \"/contracts/storage/LibDynamicRouterStorage.sol\":730:752  bytes('DynamicRouter') */\n      mload(0x40)\n      dup1\n      0x40\n      add\n      0x40\n      mstore\n      dup1\n      0x0d\n      dup2\n      mstore\n      0x20\n      add\n      0x44796e616d6963526f7574657200000000000000000000000000000000000000\n      dup2\n      mstore\n      pop\n        /* \"/contracts/storage/LibDynamicRouterStorage.sol\":720:753  keccak256(bytes('DynamicRouter')) */\n      dup1\n      mload\n      swap1\n      0x20\n      add\n      keccak256\n        /* \"/contracts/storage/LibDynamicRouterStorage.sol\":2608:2619  _getStorage */\n      tag_32\n        /* \"/contracts/storage/LibDynamicRouterStorage.sol\":2608:2625  _getStorage(SLOT) */\n      jump\t// in\n    tag_34:\n        /* \"/contracts/storage/LibDynamicRouterStorage.sol\":2608:2635  _getStorage(SLOT).selectors */\n      0x01\n      add\n        /* \"/contracts/storage/LibDynamicRouterStorage.sol\":2601:2635  return _getStorage(SLOT).selectors */\n      dup1\n      sload\n      dup1\n      0x20\n      mul\n      0x20\n      add\n      mload(0x40)\n      swap1\n      dup2\n      add\n      0x40\n      mstore\n      dup1\n      swap3\n      swap2\n      swap1\n      dup2\n      dup2\n      mstore\n      0x20\n      add\n      dup3\n      dup1\n      sload\n      dup1\n      iszero\n      tag_35\n      jumpi\n      0x20\n      mul\n      dup3\n      add\n      swap2\n      swap1\n      0x00\n      mstore\n      keccak256(0x00, 0x20)\n      swap1\n      0x00\n      swap1\n    tag_36:\n      dup3\n      dup3\n      swap1\n      sload\n      swap1\n      0x0100\n      exp\n      swap1\n      div\n      0xe0\n      shl\n      not(0xffffffffffffffffffffffffffffffffffffffffffffffffffffffff)\n      and\n      dup2\n      mstore\n      0x20\n      add\n      swap1\n      0x04\n      add\n      swap1\n      0x20\n      dup3\n      0x03\n      add\n      div\n      swap3\n      dup4\n      add\n      swap3\n      0x01\n      sub\n      dup3\n      mul\n      swap2\n      pop\n      dup1\n      dup5\n      gt\n      tag_36\n      jumpi\n      swap1\n      pop\n    tag_35:\n      pop\n      pop\n      pop\n      pop\n      pop\n      swap1\n      pop\n        /* \"/contracts/storage/LibDynamicRouterStorage.sol\":2532:2641  function getSelectors() external view returns(bytes4[] memory){... */\n      swap1\n      jump\t// out\n        /* \"/contracts/storage/LibDynamicRouterStorage.sol\":1546:2257  function updateModules(moduleDefinition[] memory modules) external {... */\n    tag_21:\n        /* \"/contracts/storage/LibDynamicRouterStorage.sol\":1620:1657  dynamicRouterStorage storage _storage */\n      0x00\n        /* \"/contracts/storage/LibDynamicRouterStorage.sol\":1660:1677  _getStorage(SLOT) */\n      tag_38\n        /* \"/contracts/storage/LibDynamicRouterStorage.sol\":730:752  bytes('DynamicRouter') */\n      mload(0x40)\n      dup1\n      0x40\n      add\n      0x40\n      mstore\n      dup1\n      0x0d\n      dup2\n      mstore\n      0x20\n      add\n      0x44796e616d6963526f7574657200000000000000000000000000000000000000\n      dup2\n      mstore\n      pop\n        /* \"/contracts/storage/LibDynamicRouterStorage.sol\":720:753  keccak256(bytes('DynamicRouter')) */\n      dup1\n      mload\n      swap1\n      0x20\n      add\n      keccak256\n        /* \"/contracts/storage/LibDynamicRouterStorage.sol\":1660:1671  _getStorage */\n      tag_32\n        /* \"/contracts/storage/LibDynamicRouterStorage.sol\":1660:1677  _getStorage(SLOT) */\n      jump\t// in\n    tag_38:\n        /* \"/contracts/storage/LibDynamicRouterStorage.sol\":1620:1677  dynamicRouterStorage storage _storage = _getStorage(SLOT) */\n      swap1\n      pop\n        /* \"/contracts/storage/LibDynamicRouterStorage.sol\":1689:1698  uint256 i */\n      0x00\n        /* \"/contracts/storage/LibDynamicRouterStorage.sol\":1684:2252  for (uint256 i = 0; i < modules.length; ++i) {... */\n    tag_39:\n        /* \"/contracts/storage/LibDynamicRouterStorage.sol\":1708:1715  modules */\n      dup3\n        /* \"/contracts/storage/LibDynamicRouterStorage.sol\":1708:1722  modules.length */\n      mload\n        /* \"/contracts/storage/LibDynamicRouterStorage.sol\":1704:1705  i */\n      dup2\n        /* \"/contracts/storage/LibDynamicRouterStorage.sol\":1704:1722  i < modules.length */\n      lt\n        /* \"/contracts/storage/LibDynamicRouterStorage.sol\":1684:2252  for (uint256 i = 0; i < modules.length; ++i) {... */\n      iszero\n      tag_40\n      jumpi\n        /* \"/contracts/storage/LibDynamicRouterStorage.sol\":1738:1768  moduleDefinition memory module */\n      0x00\n        /* \"/contracts/storage/LibDynamicRouterStorage.sol\":1771:1778  modules */\n      dup4\n        /* \"/contracts/storage/LibDynamicRouterStorage.sol\":1779:1780  i */\n      dup3\n        /* \"/contracts/storage/LibDynamicRouterStorage.sol\":1771:1781  modules[i] */\n      dup2\n      mload\n      dup2\n      lt\n      tag_42\n      jumpi\n      tag_43\n      tag_44\n      jump\t// in\n    tag_43:\n    tag_42:\n      0x20\n      mul\n      0x20\n      add\n      add\n      mload\n        /* \"/contracts/storage/LibDynamicRouterStorage.sol\":1738:1781  moduleDefinition memory module = modules[i] */\n      swap1\n      pop\n        /* \"/contracts/storage/LibDynamicRouterStorage.sol\":1797:1806  uint256 j */\n      0x00\n        /* \"/contracts/storage/LibDynamicRouterStorage.sol\":1792:2245  for (uint256 j = 0; j < module.selectors.length; ++j) {... */\n    tag_45:\n        /* \"/contracts/storage/LibDynamicRouterStorage.sol\":1816:1822  module */\n      dup2\n        /* \"/contracts/storage/LibDynamicRouterStorage.sol\":1816:1832  module.selectors */\n      0x20\n      add\n      mload\n        /* \"/contracts/storage/LibDynamicRouterStorage.sol\":1816:1839  module.selectors.length */\n      mload\n        /* \"/contracts/storage/LibDynamicRouterStorage.sol\":1812:1813  j */\n      dup2\n        /* \"/contracts/storage/LibDynamicRouterStorage.sol\":1812:1839  j < module.selectors.length */\n      lt\n        /* \"/contracts/storage/LibDynamicRouterStorage.sol\":1792:2245  for (uint256 j = 0; j < module.selectors.length; ++j) {... */\n      iszero\n      tag_46\n      jumpi\n        /* \"/contracts/storage/LibDynamicRouterStorage.sol\":1857:1873  bytes4 _selector */\n      0x00\n        /* \"/contracts/storage/LibDynamicRouterStorage.sol\":1876:1882  module */\n      dup3\n        /* \"/contracts/storage/LibDynamicRouterStorage.sol\":1876:1892  module.selectors */\n      0x20\n      add\n      mload\n        /* \"/contracts/storage/LibDynamicRouterStorage.sol\":1893:1894  j */\n      dup3\n        /* \"/contracts/storage/LibDynamicRouterStorage.sol\":1876:1895  module.selectors[j] */\n      dup2\n      mload\n      dup2\n      lt\n      tag_48\n      jumpi\n      tag_49\n      tag_44\n      jump\t// in\n    tag_49:\n    tag_48:\n      0x20\n      mul\n      0x20\n      add\n      add\n      mload\n        /* \"/contracts/storage/LibDynamicRouterStorage.sol\":1857:1895  bytes4 _selector = module.selectors[j] */\n      swap1\n      pop\n        /* \"/contracts/storage/LibDynamicRouterStorage.sol\":1906:1921  address _module */\n      0x00\n        /* \"/contracts/storage/LibDynamicRouterStorage.sol\":1924:1930  module */\n      dup4\n        /* \"/contracts/storage/LibDynamicRouterStorage.sol\":1924:1937  module.module */\n      0x00\n      add\n      mload\n        /* \"/contracts/storage/LibDynamicRouterStorage.sol\":1906:1937  address _module = module.module */\n      swap1\n      pop\n        /* \"/contracts/storage/LibDynamicRouterStorage.sol\":1952:1976  _findSelector(_selector) */\n      tag_50\n        /* \"/contracts/storage/LibDynamicRouterStorage.sol\":1966:1975  _selector */\n      dup3\n        /* \"/contracts/storage/LibDynamicRouterStorage.sol\":1952:1965  _findSelector */\n      tag_51\n        /* \"/contracts/storage/LibDynamicRouterStorage.sol\":1952:1976  _findSelector(_selector) */\n      jump\t// in\n    tag_50:\n        /* \"/contracts/storage/LibDynamicRouterStorage.sol\":1951:1976  !_findSelector(_selector) */\n      iszero\n        /* \"/contracts/storage/LibDynamicRouterStorage.sol\":1951:2001  !_findSelector(_selector) && _module != address(0) */\n      dup1\n      iszero\n      tag_52\n      jumpi\n      pop\n        /* \"/contracts/storage/LibDynamicRouterStorage.sol\":1999:2000  0 */\n      0x00\n        /* \"/contracts/storage/LibDynamicRouterStorage.sol\":1980:2001  _module != address(0) */\n      0xffffffffffffffffffffffffffffffffffffffff\n      and\n        /* \"/contracts/storage/LibDynamicRouterStorage.sol\":1980:1987  _module */\n      dup2\n        /* \"/contracts/storage/LibDynamicRouterStorage.sol\":1980:2001  _module != address(0) */\n      0xffffffffffffffffffffffffffffffffffffffff\n      and\n      eq\n      iszero\n        /* \"/contracts/storage/LibDynamicRouterStorage.sol\":1951:2001  !_findSelector(_selector) && _module != address(0) */\n    tag_52:\n        /* \"/contracts/storage/LibDynamicRouterStorage.sol\":1948:2037  if(!_findSelector(_selector) && _module != address(0)) _storage.selectors.push(_selector) */\n      iszero\n      tag_53\n      jumpi\n        /* \"/contracts/storage/LibDynamicRouterStorage.sol\":2003:2011  _storage */\n      dup6\n        /* \"/contracts/storage/LibDynamicRouterStorage.sol\":2003:2021  _storage.selectors */\n      0x01\n      add\n        /* \"/contracts/storage/LibDynamicRouterStorage.sol\":2027:2036  _selector */\n      dup3\n        /* \"/contracts/storage/LibDynamicRouterStorage.sol\":2003:2037  _storage.selectors.push(_selector) */\n      swap1\n      dup1\n      0x01\n      dup2\n      sload\n      add\n      dup1\n      dup3\n      sstore\n      dup1\n      swap2\n      pop\n      pop\n      0x01\n      swap1\n      sub\n      swap1\n      0x00\n      mstore\n      keccak256(0x00, 0x20)\n      swap1\n      0x08\n      swap2\n      dup3\n      dup3\n      div\n      add\n      swap2\n      swap1\n      mod\n      0x04\n      mul\n      swap1\n      swap2\n      swap1\n      swap2\n      swap1\n      swap2\n      0x0100\n      exp\n      dup2\n      sload\n      dup2\n      0xffffffff\n      mul\n      not\n      and\n      swap1\n      dup4\n      0xe0\n      shr\n      mul\n      or\n      swap1\n      sstore\n      pop\n        /* \"/contracts/storage/LibDynamicRouterStorage.sol\":1948:2037  if(!_findSelector(_selector) && _module != address(0)) _storage.selectors.push(_selector) */\n    tag_53:\n        /* \"/contracts/storage/LibDynamicRouterStorage.sol\":2052:2072  _findModule(_module) */\n      tag_55\n        /* \"/contracts/storage/LibDynamicRouterStorage.sol\":2064:2071  _module */\n      dup2\n        /* \"/contracts/storage/LibDynamicRouterStorage.sol\":2052:2063  _findModule */\n      tag_56\n        /* \"/contracts/storage/LibDynamicRouterStorage.sol\":2052:2072  _findModule(_module) */\n      jump\t// in\n    tag_55:\n        /* \"/contracts/storage/LibDynamicRouterStorage.sol\":2051:2072  !_findModule(_module) */\n      iszero\n        /* \"/contracts/storage/LibDynamicRouterStorage.sol\":2051:2097  !_findModule(_module) && _module != address(0) */\n      dup1\n      iszero\n      tag_57\n      jumpi\n      pop\n        /* \"/contracts/storage/LibDynamicRouterStorage.sol\":2095:2096  0 */\n      0x00\n        /* \"/contracts/storage/LibDynamicRouterStorage.sol\":2076:2097  _module != address(0) */\n      0xffffffffffffffffffffffffffffffffffffffff\n      and\n        /* \"/contracts/storage/LibDynamicRouterStorage.sol\":2076:2083  _module */\n      dup2\n        /* \"/contracts/storage/LibDynamicRouterStorage.sol\":2076:2097  _module != address(0) */\n      0xffffffffffffffffffffffffffffffffffffffff\n      and\n      eq\n      iszero\n        /* \"/contracts/storage/LibDynamicRouterStorage.sol\":2051:2097  !_findModule(_module) && _module != address(0) */\n    tag_57:\n        /* \"/contracts/storage/LibDynamicRouterStorage.sol\":2048:2125  if(!_findModule(_module) && _module != address(0))_storage.impl.push(_module) */\n      iszero\n      tag_58\n      jumpi\n        /* \"/contracts/storage/LibDynamicRouterStorage.sol\":2098:2106  _storage */\n      dup6\n        /* \"/contracts/storage/LibDynamicRouterStorage.sol\":2098:2111  _storage.impl */\n      0x02\n      add\n        /* \"/contracts/storage/LibDynamicRouterStorage.sol\":2117:2124  _module */\n      dup2\n        /* \"/contracts/storage/LibDynamicRouterStorage.sol\":2098:2125  _storage.impl.push(_module) */\n      swap1\n      dup1\n      0x01\n      dup2\n      sload\n      add\n      dup1\n      dup3\n      sstore\n      dup1\n      swap2\n      pop\n      pop\n      0x01\n      swap1\n      sub\n      swap1\n      0x00\n      mstore\n      keccak256(0x00, 0x20)\n      add\n      0x00\n      swap1\n      swap2\n      swap1\n      swap2\n      swap1\n      swap2\n      0x0100\n      exp\n      dup2\n      sload\n      dup2\n      0xffffffffffffffffffffffffffffffffffffffff\n      mul\n      not\n      and\n      swap1\n      dup4\n      0xffffffffffffffffffffffffffffffffffffffff\n      and\n      mul\n      or\n      swap1\n      sstore\n      pop\n        /* \"/contracts/storage/LibDynamicRouterStorage.sol\":2048:2125  if(!_findModule(_module) && _module != address(0))_storage.impl.push(_module) */\n    tag_58:\n        /* \"/contracts/storage/LibDynamicRouterStorage.sol\":2166:2173  _module */\n      dup1\n        /* \"/contracts/storage/LibDynamicRouterStorage.sol\":2136:2144  _storage */\n      dup7\n        /* \"/contracts/storage/LibDynamicRouterStorage.sol\":2136:2152  _storage.modules */\n      0x00\n      add\n        /* \"/contracts/storage/LibDynamicRouterStorage.sol\":2136:2163  _storage.modules[_selector] */\n      0x00\n        /* \"/contracts/storage/LibDynamicRouterStorage.sol\":2153:2162  _selector */\n      dup5\n        /* \"/contracts/storage/LibDynamicRouterStorage.sol\":2136:2163  _storage.modules[_selector] */\n      not(0xffffffffffffffffffffffffffffffffffffffffffffffffffffffff)\n      and\n      not(0xffffffffffffffffffffffffffffffffffffffffffffffffffffffff)\n      and\n      dup2\n      mstore\n      0x20\n      add\n      swap1\n      dup2\n      mstore\n      0x20\n      add\n      0x00\n      keccak256\n      0x00\n        /* \"/contracts/storage/LibDynamicRouterStorage.sol\":2136:2173  _storage.modules[_selector] = _module */\n      0x0100\n      exp\n      dup2\n      sload\n      dup2\n      0xffffffffffffffffffffffffffffffffffffffff\n      mul\n      not\n      and\n      swap1\n      dup4\n      0xffffffffffffffffffffffffffffffffffffffff\n      and\n      mul\n      or\n      swap1\n      sstore\n      pop\n        /* \"/contracts/storage/LibDynamicRouterStorage.sol\":2189:2233  UpdateModule(msg.sender, _module, _selector) */\n      0x314760e63cd5315a4cf28c679a1885b84249533d4156a7ebd02675626493a255\n        /* \"/contracts/storage/LibDynamicRouterStorage.sol\":2202:2212  msg.sender */\n      caller\n        /* \"/contracts/storage/LibDynamicRouterStorage.sol\":2214:2221  _module */\n      dup3\n        /* \"/contracts/storage/LibDynamicRouterStorage.sol\":2223:2232  _selector */\n      dup5\n        /* \"/contracts/storage/LibDynamicRouterStorage.sol\":2189:2233  UpdateModule(msg.sender, _module, _selector) */\n      mload(0x40)\n      tag_60\n      swap4\n      swap3\n      swap2\n      swap1\n      tag_61\n      jump\t// in\n    tag_60:\n      mload(0x40)\n      dup1\n      swap2\n      sub\n      swap1\n      log1\n        /* \"/contracts/storage/LibDynamicRouterStorage.sol\":1846:2245  {... */\n      pop\n      pop\n        /* \"/contracts/storage/LibDynamicRouterStorage.sol\":1841:1844  ++j */\n      dup1\n      0x01\n      add\n      swap1\n      pop\n        /* \"/contracts/storage/LibDynamicRouterStorage.sol\":1792:2245  for (uint256 j = 0; j < module.selectors.length; ++j) {... */\n      jump(tag_45)\n    tag_46:\n      pop\n        /* \"/contracts/storage/LibDynamicRouterStorage.sol\":1729:2252  {... */\n      pop\n        /* \"/contracts/storage/LibDynamicRouterStorage.sol\":1724:1727  ++i */\n      dup1\n      0x01\n      add\n      swap1\n      pop\n        /* \"/contracts/storage/LibDynamicRouterStorage.sol\":1684:2252  for (uint256 i = 0; i < modules.length; ++i) {... */\n      jump(tag_39)\n    tag_40:\n      pop\n        /* \"/contracts/storage/LibDynamicRouterStorage.sol\":1613:2257  {... */\n      pop\n        /* \"/contracts/storage/LibDynamicRouterStorage.sol\":1546:2257  function updateModules(moduleDefinition[] memory modules) external {... */\n      pop\n      jump\t// out\n        /* \"/contracts/storage/LibDynamicRouterStorage.sol\":2336:2459  function getModule(bytes4 _selector) external view returns(address){... */\n    tag_24:\n        /* \"/contracts/storage/LibDynamicRouterStorage.sol\":2395:2402  address */\n      0x00\n        /* \"/contracts/storage/LibDynamicRouterStorage.sol\":2417:2434  _getStorage(SLOT) */\n      tag_63\n        /* \"/contracts/storage/LibDynamicRouterStorage.sol\":730:752  bytes('DynamicRouter') */\n      mload(0x40)\n      dup1\n      0x40\n      add\n      0x40\n      mstore\n      dup1\n      0x0d\n      dup2\n      mstore\n      0x20\n      add\n      0x44796e616d6963526f7574657200000000000000000000000000000000000000\n      dup2\n      mstore\n      pop\n        /* \"/contracts/storage/LibDynamicRouterStorage.sol\":720:753  keccak256(bytes('DynamicRouter')) */\n      dup1\n      mload\n      swap1\n      0x20\n      add\n      keccak256\n        /* \"/contracts/storage/LibDynamicRouterStorage.sol\":2417:2428  _getStorage */\n      tag_32\n        /* \"/contracts/storage/LibDynamicRouterStorage.sol\":2417:2434  _getStorage(SLOT) */\n      jump\t// in\n    tag_63:\n        /* \"/contracts/storage/LibDynamicRouterStorage.sol\":2417:2442  _getStorage(SLOT).modules */\n      0x00\n      add\n        /* \"/contracts/storage/LibDynamicRouterStorage.sol\":2417:2453  _getStorage(SLOT).modules[_selector] */\n      0x00\n        /* \"/contracts/storage/LibDynamicRouterStorage.sol\":2443:2452  _selector */\n      dup4\n        /* \"/contracts/storage/LibDynamicRouterStorage.sol\":2417:2453  _getStorage(SLOT).modules[_selector] */\n      not(0xffffffffffffffffffffffffffffffffffffffffffffffffffffffff)\n      and\n      not(0xffffffffffffffffffffffffffffffffffffffffffffffffffffffff)\n      and\n      dup2\n      mstore\n      0x20\n      add\n      swap1\n      dup2\n      mstore\n      0x20\n      add\n      0x00\n      keccak256\n      0x00\n      swap1\n      sload\n      swap1\n      0x0100\n      exp\n      swap1\n      div\n      0xffffffffffffffffffffffffffffffffffffffff\n      and\n        /* \"/contracts/storage/LibDynamicRouterStorage.sol\":2410:2453  return _getStorage(SLOT).modules[_selector] */\n      swap1\n      pop\n        /* \"/contracts/storage/LibDynamicRouterStorage.sol\":2336:2459  function getModule(bytes4 _selector) external view returns(address){... */\n      swap2\n      swap1\n      pop\n      jump\t// out\n        /* \"/contracts/storage/LibDynamicRouterStorage.sol\":2709:2810  function getImpl() external view returns (address[] memory){... */\n    tag_27:\n        /* \"/contracts/storage/LibDynamicRouterStorage.sol\":2751:2767  address[] memory */\n      0x60\n        /* \"/contracts/storage/LibDynamicRouterStorage.sol\":2782:2799  _getStorage(SLOT) */\n      tag_65\n        /* \"/contracts/storage/LibDynamicRouterStorage.sol\":730:752  bytes('DynamicRouter') */\n      mload(0x40)\n      dup1\n      0x40\n      add\n      0x40\n      mstore\n      dup1\n      0x0d\n      dup2\n      mstore\n      0x20\n      add\n      0x44796e616d6963526f7574657200000000000000000000000000000000000000\n      dup2\n      mstore\n      pop\n        /* \"/contracts/storage/LibDynamicRouterStorage.sol\":720:753  keccak256(bytes('DynamicRouter')) */\n      dup1\n      mload\n      swap1\n      0x20\n      add\n      keccak256\n        /* \"/contracts/storage/LibDynamicRouterStorage.sol\":2782:2793  _getStorage */\n      tag_32\n        /* \"/contracts/storage/LibDynamicRouterStorage.sol\":2782:2799  _getStorage(SLOT) */\n      jump\t// in\n    tag_65:\n        /* \"/contracts/storage/LibDynamicRouterStorage.sol\":2782:2804  _getStorage(SLOT).impl */\n      0x02\n      add\n        /* \"/contracts/storage/LibDynamicRouterStorage.sol\":2775:2804  return _getStorage(SLOT).impl */\n      dup1\n      sload\n      dup1\n      0x20\n      mul\n      0x20\n      add\n      mload(0x40)\n      swap1\n      dup2\n      add\n      0x40\n      mstore\n      dup1\n      swap3\n      swap2\n      swap1\n      dup2\n      dup2\n      mstore\n      0x20\n      add\n      dup3\n      dup1\n      sload\n      dup1\n      iszero\n      tag_66\n      jumpi\n      0x20\n      mul\n      dup3\n      add\n      swap2\n      swap1\n      0x00\n      mstore\n      keccak256(0x00, 0x20)\n      swap1\n    tag_67:\n      dup2\n      0x00\n      swap1\n      sload\n      swap1\n      0x0100\n      exp\n      swap1\n      div\n      0xffffffffffffffffffffffffffffffffffffffff\n      and\n      0xffffffffffffffffffffffffffffffffffffffff\n      and\n      dup2\n      mstore\n      0x20\n      add\n      swap1\n      0x01\n      add\n      swap1\n      dup1\n      dup4\n      gt\n      tag_67\n      jumpi\n    tag_66:\n      pop\n      pop\n      pop\n      pop\n      pop\n      swap1\n      pop\n        /* \"/contracts/storage/LibDynamicRouterStorage.sol\":2709:2810  function getImpl() external view returns (address[] memory){... */\n      swap1\n      jump\t// out\n        /* \"/contracts/storage/LibDynamicRouterStorage.sol\":4016:4164  function _getStorage(bytes32 _storage) private pure returns (dynamicRouterStorage storage s){... */\n    tag_32:\n        /* \"/contracts/storage/LibDynamicRouterStorage.sol\":4077:4107  dynamicRouterStorage storage s */\n      0x00\n        /* \"/contracts/storage/LibDynamicRouterStorage.sol\":4144:4152  _storage */\n      dup2\n        /* \"/contracts/storage/LibDynamicRouterStorage.sol\":4134:4152  s.slot := _storage */\n      swap1\n      pop\n        /* \"/contracts/storage/LibDynamicRouterStorage.sol\":4016:4164  function _getStorage(bytes32 _storage) private pure returns (dynamicRouterStorage storage s){... */\n      swap2\n      swap1\n      pop\n      jump\t// out\n        /* \"/contracts/storage/LibDynamicRouterStorage.sol\":3114:3399  function _findSelector(bytes4 _selector) private view returns(bool){... */\n    tag_51:\n        /* \"/contracts/storage/LibDynamicRouterStorage.sol\":3176:3180  bool */\n      0x00\n        /* \"/contracts/storage/LibDynamicRouterStorage.sol\":3188:3225  dynamicRouterStorage storage _storage */\n      dup1\n        /* \"/contracts/storage/LibDynamicRouterStorage.sol\":3228:3245  _getStorage(SLOT) */\n      tag_70\n        /* \"/contracts/storage/LibDynamicRouterStorage.sol\":730:752  bytes('DynamicRouter') */\n      mload(0x40)\n      dup1\n      0x40\n      add\n      0x40\n      mstore\n      dup1\n      0x0d\n      dup2\n      mstore\n      0x20\n      add\n      0x44796e616d6963526f7574657200000000000000000000000000000000000000\n      dup2\n      mstore\n      pop\n        /* \"/contracts/storage/LibDynamicRouterStorage.sol\":720:753  keccak256(bytes('DynamicRouter')) */\n      dup1\n      mload\n      swap1\n      0x20\n      add\n      keccak256\n        /* \"/contracts/storage/LibDynamicRouterStorage.sol\":3228:3239  _getStorage */\n      tag_32\n        /* \"/contracts/storage/LibDynamicRouterStorage.sol\":3228:3245  _getStorage(SLOT) */\n      jump\t// in\n    tag_70:\n        /* \"/contracts/storage/LibDynamicRouterStorage.sol\":3188:3245  dynamicRouterStorage storage _storage = _getStorage(SLOT) */\n      swap1\n      pop\n        /* \"/contracts/storage/LibDynamicRouterStorage.sol\":3257:3266  uint256 i */\n      0x00\n        /* \"/contracts/storage/LibDynamicRouterStorage.sol\":3252:3375  for (uint256 i = 0; i < _storage.selectors.length; ++i) {... */\n    tag_71:\n        /* \"/contracts/storage/LibDynamicRouterStorage.sol\":3276:3284  _storage */\n      dup2\n        /* \"/contracts/storage/LibDynamicRouterStorage.sol\":3276:3294  _storage.selectors */\n      0x01\n      add\n        /* \"/contracts/storage/LibDynamicRouterStorage.sol\":3276:3301  _storage.selectors.length */\n      dup1\n      sload\n      swap1\n      pop\n        /* \"/contracts/storage/LibDynamicRouterStorage.sol\":3272:3273  i */\n      dup2\n        /* \"/contracts/storage/LibDynamicRouterStorage.sol\":3272:3301  i < _storage.selectors.length */\n      lt\n        /* \"/contracts/storage/LibDynamicRouterStorage.sol\":3252:3375  for (uint256 i = 0; i < _storage.selectors.length; ++i) {... */\n      iszero\n      tag_72\n      jumpi\n        /* \"/contracts/storage/LibDynamicRouterStorage.sol\":3333:3341  _storage */\n      dup2\n        /* \"/contracts/storage/LibDynamicRouterStorage.sol\":3333:3351  _storage.selectors */\n      0x01\n      add\n        /* \"/contracts/storage/LibDynamicRouterStorage.sol\":3352:3353  i */\n      dup2\n        /* \"/contracts/storage/LibDynamicRouterStorage.sol\":3333:3354  _storage.selectors[i] */\n      dup2\n      sload\n      dup2\n      lt\n      tag_74\n      jumpi\n      tag_75\n      tag_44\n      jump\t// in\n    tag_75:\n    tag_74:\n      swap1\n      0x00\n      mstore\n      keccak256(0x00, 0x20)\n      swap1\n      0x08\n      swap2\n      dup3\n      dup3\n      div\n      add\n      swap2\n      swap1\n      mod\n      0x04\n      mul\n      swap1\n      sload\n      swap1\n      0x0100\n      exp\n      swap1\n      div\n      0xe0\n      shl\n        /* \"/contracts/storage/LibDynamicRouterStorage.sol\":3320:3354  _selector == _storage.selectors[i] */\n      not(0xffffffffffffffffffffffffffffffffffffffffffffffffffffffff)\n      and\n        /* \"/contracts/storage/LibDynamicRouterStorage.sol\":3320:3329  _selector */\n      dup5\n        /* \"/contracts/storage/LibDynamicRouterStorage.sol\":3320:3354  _selector == _storage.selectors[i] */\n      not(0xffffffffffffffffffffffffffffffffffffffffffffffffffffffff)\n      and\n      sub\n        /* \"/contracts/storage/LibDynamicRouterStorage.sol\":3317:3367  if(_selector == _storage.selectors[i]) return true */\n      tag_77\n      jumpi\n        /* \"/contracts/storage/LibDynamicRouterStorage.sol\":3363:3367  true */\n      0x01\n        /* \"/contracts/storage/LibDynamicRouterStorage.sol\":3356:3367  return true */\n      swap3\n      pop\n      pop\n      pop\n      jump(tag_69)\n        /* \"/contracts/storage/LibDynamicRouterStorage.sol\":3317:3367  if(_selector == _storage.selectors[i]) return true */\n    tag_77:\n        /* \"/contracts/storage/LibDynamicRouterStorage.sol\":3303:3306  ++i */\n      dup1\n      0x01\n      add\n      swap1\n      pop\n        /* \"/contracts/storage/LibDynamicRouterStorage.sol\":3252:3375  for (uint256 i = 0; i < _storage.selectors.length; ++i) {... */\n      jump(tag_71)\n    tag_72:\n      pop\n        /* \"/contracts/storage/LibDynamicRouterStorage.sol\":3388:3393  false */\n      0x00\n        /* \"/contracts/storage/LibDynamicRouterStorage.sol\":3381:3393  return false */\n      swap2\n      pop\n      pop\n        /* \"/contracts/storage/LibDynamicRouterStorage.sol\":3114:3399  function _findSelector(bytes4 _selector) private view returns(bool){... */\n    tag_69:\n      swap2\n      swap1\n      pop\n      jump\t// out\n        /* \"/contracts/storage/LibDynamicRouterStorage.sol\":3479:3749  function _findModule(address _module) private view returns(bool){... */\n    tag_56:\n        /* \"/contracts/storage/LibDynamicRouterStorage.sol\":3538:3542  bool */\n      0x00\n        /* \"/contracts/storage/LibDynamicRouterStorage.sol\":3550:3587  dynamicRouterStorage storage _storage */\n      dup1\n        /* \"/contracts/storage/LibDynamicRouterStorage.sol\":3590:3607  _getStorage(SLOT) */\n      tag_79\n        /* \"/contracts/storage/LibDynamicRouterStorage.sol\":730:752  bytes('DynamicRouter') */\n      mload(0x40)\n      dup1\n      0x40\n      add\n      0x40\n      mstore\n      dup1\n      0x0d\n      dup2\n      mstore\n      0x20\n      add\n      0x44796e616d6963526f7574657200000000000000000000000000000000000000\n      dup2\n      mstore\n      pop\n        /* \"/contracts/storage/LibDynamicRouterStorage.sol\":720:753  keccak256(bytes('DynamicRouter')) */\n      dup1\n      mload\n      swap1\n      0x20\n      add\n      keccak256\n        /* \"/contracts/storage/LibDynamicRouterStorage.sol\":3590:3601  _getStorage */\n      tag_32\n        /* \"/contracts/storage/LibDynamicRouterStorage.sol\":3590:3607  _getStorage(SLOT) */\n      jump\t// in\n    tag_79:\n        /* \"/contracts/storage/LibDynamicRouterStorage.sol\":3550:3607  dynamicRouterStorage storage _storage = _getStorage(SLOT) */\n      swap1\n      pop\n        /* \"/contracts/storage/LibDynamicRouterStorage.sol\":3619:3628  uint256 i */\n      0x00\n        /* \"/contracts/storage/LibDynamicRouterStorage.sol\":3614:3725  for (uint256 i = 0; i < _storage.impl.length; ++i) {... */\n    tag_80:\n        /* \"/contracts/storage/LibDynamicRouterStorage.sol\":3638:3646  _storage */\n      dup2\n        /* \"/contracts/storage/LibDynamicRouterStorage.sol\":3638:3651  _storage.impl */\n      0x02\n      add\n        /* \"/contracts/storage/LibDynamicRouterStorage.sol\":3638:3658  _storage.impl.length */\n      dup1\n      sload\n      swap1\n      pop\n        /* \"/contracts/storage/LibDynamicRouterStorage.sol\":3634:3635  i */\n      dup2\n        /* \"/contracts/storage/LibDynamicRouterStorage.sol\":3634:3658  i < _storage.impl.length */\n      lt\n        /* \"/contracts/storage/LibDynamicRouterStorage.sol\":3614:3725  for (uint256 i = 0; i < _storage.impl.length; ++i) {... */\n      iszero\n      tag_81\n      jumpi\n        /* \"/contracts/storage/LibDynamicRouterStorage.sol\":3688:3696  _storage */\n      dup2\n        /* \"/contracts/storage/LibDynamicRouterStorage.sol\":3688:3701  _storage.impl */\n      0x02\n      add\n        /* \"/contracts/storage/LibDynamicRouterStorage.sol\":3702:3703  i */\n      dup2\n        /* \"/contracts/storage/LibDynamicRouterStorage.sol\":3688:3704  _storage.impl[i] */\n      dup2\n      sload\n      dup2\n      lt\n      tag_83\n      jumpi\n      tag_84\n      tag_44\n      jump\t// in\n    tag_84:\n    tag_83:\n      swap1\n      0x00\n      mstore\n      keccak256(0x00, 0x20)\n      add\n      0x00\n      swap1\n      sload\n      swap1\n      0x0100\n      exp\n      swap1\n      div\n      0xffffffffffffffffffffffffffffffffffffffff\n      and\n        /* \"/contracts/storage/LibDynamicRouterStorage.sol\":3677:3704  _module == _storage.impl[i] */\n      0xffffffffffffffffffffffffffffffffffffffff\n      and\n        /* \"/contracts/storage/LibDynamicRouterStorage.sol\":3677:3684  _module */\n      dup5\n        /* \"/contracts/storage/LibDynamicRouterStorage.sol\":3677:3704  _module == _storage.impl[i] */\n      0xffffffffffffffffffffffffffffffffffffffff\n      and\n      sub\n        /* \"/contracts/storage/LibDynamicRouterStorage.sol\":3674:3717  if(_module == _storage.impl[i]) return true */\n      tag_86\n      jumpi\n        /* \"/contracts/storage/LibDynamicRouterStorage.sol\":3713:3717  true */\n      0x01\n        /* \"/contracts/storage/LibDynamicRouterStorage.sol\":3706:3717  return true */\n      swap3\n      pop\n      pop\n      pop\n      jump(tag_78)\n        /* \"/contracts/storage/LibDynamicRouterStorage.sol\":3674:3717  if(_module == _storage.impl[i]) return true */\n    tag_86:\n        /* \"/contracts/storage/LibDynamicRouterStorage.sol\":3660:3663  ++i */\n      dup1\n      0x01\n      add\n      swap1\n      pop\n        /* \"/contracts/storage/LibDynamicRouterStorage.sol\":3614:3725  for (uint256 i = 0; i < _storage.impl.length; ++i) {... */\n      jump(tag_80)\n    tag_81:\n      pop\n        /* \"/contracts/storage/LibDynamicRouterStorage.sol\":3738:3743  false */\n      0x00\n        /* \"/contracts/storage/LibDynamicRouterStorage.sol\":3731:3743  return false */\n      swap2\n      pop\n      pop\n        /* \"/contracts/storage/LibDynamicRouterStorage.sol\":3479:3749  function _findModule(address _module) private view returns(bool){... */\n    tag_78:\n      swap2\n      swap1\n      pop\n      jump\t// out\n        /* \"#utility.yul\":7:82   */\n    tag_87:\n        /* \"#utility.yul\":40:46   */\n      0x00\n        /* \"#utility.yul\":73:75   */\n      0x40\n        /* \"#utility.yul\":67:76   */\n      mload\n        /* \"#utility.yul\":57:76   */\n      swap1\n      pop\n        /* \"#utility.yul\":7:82   */\n      swap1\n      jump\t// out\n        /* \"#utility.yul\":88:205   */\n    tag_88:\n        /* \"#utility.yul\":197:198   */\n      0x00\n        /* \"#utility.yul\":194:195   */\n      dup1\n        /* \"#utility.yul\":187:199   */\n      revert\n        /* \"#utility.yul\":211:328   */\n    tag_89:\n        /* \"#utility.yul\":320:321   */\n      0x00\n        /* \"#utility.yul\":317:318   */\n      dup1\n        /* \"#utility.yul\":310:322   */\n      revert\n        /* \"#utility.yul\":334:483   */\n    tag_90:\n        /* \"#utility.yul\":370:377   */\n      0x00\n        /* \"#utility.yul\":410:476   */\n      0xffffffff00000000000000000000000000000000000000000000000000000000\n        /* \"#utility.yul\":403:408   */\n      dup3\n        /* \"#utility.yul\":399:477   */\n      and\n        /* \"#utility.yul\":388:477   */\n      swap1\n      pop\n        /* \"#utility.yul\":334:483   */\n      swap2\n      swap1\n      pop\n      jump\t// out\n        /* \"#utility.yul\":489:609   */\n    tag_91:\n        /* \"#utility.yul\":561:584   */\n      tag_135\n        /* \"#utility.yul\":578:583   */\n      dup2\n        /* \"#utility.yul\":561:584   */\n      tag_90\n      jump\t// in\n    tag_135:\n        /* \"#utility.yul\":554:559   */\n      dup2\n        /* \"#utility.yul\":551:585   */\n      eq\n        /* \"#utility.yul\":541:603   */\n      tag_136\n      jumpi\n        /* \"#utility.yul\":599:600   */\n      0x00\n        /* \"#utility.yul\":596:597   */\n      dup1\n        /* \"#utility.yul\":589:601   */\n      revert\n        /* \"#utility.yul\":541:603   */\n    tag_136:\n        /* \"#utility.yul\":489:609   */\n      pop\n      jump\t// out\n        /* \"#utility.yul\":615:752   */\n    tag_92:\n        /* \"#utility.yul\":660:665   */\n      0x00\n        /* \"#utility.yul\":698:704   */\n      dup2\n        /* \"#utility.yul\":685:705   */\n      calldataload\n        /* \"#utility.yul\":676:705   */\n      swap1\n      pop\n        /* \"#utility.yul\":714:746   */\n      tag_138\n        /* \"#utility.yul\":740:745   */\n      dup2\n        /* \"#utility.yul\":714:746   */\n      tag_91\n      jump\t// in\n    tag_138:\n        /* \"#utility.yul\":615:752   */\n      swap3\n      swap2\n      pop\n      pop\n      jump\t// out\n        /* \"#utility.yul\":758:1085   */\n    tag_9:\n        /* \"#utility.yul\":816:822   */\n      0x00\n        /* \"#utility.yul\":865:867   */\n      0x20\n        /* \"#utility.yul\":853:862   */\n      dup3\n        /* \"#utility.yul\":844:851   */\n      dup5\n        /* \"#utility.yul\":840:863   */\n      sub\n        /* \"#utility.yul\":836:868   */\n      slt\n        /* \"#utility.yul\":833:952   */\n      iszero\n      tag_140\n      jumpi\n        /* \"#utility.yul\":871:950   */\n      tag_141\n      tag_88\n      jump\t// in\n    tag_141:\n        /* \"#utility.yul\":833:952   */\n    tag_140:\n        /* \"#utility.yul\":991:992   */\n      0x00\n        /* \"#utility.yul\":1016:1068   */\n      tag_142\n        /* \"#utility.yul\":1060:1067   */\n      dup5\n        /* \"#utility.yul\":1051:1057   */\n      dup3\n        /* \"#utility.yul\":1040:1049   */\n      dup6\n        /* \"#utility.yul\":1036:1058   */\n      add\n        /* \"#utility.yul\":1016:1068   */\n      tag_92\n      jump\t// in\n    tag_142:\n        /* \"#utility.yul\":1006:1068   */\n      swap2\n      pop\n        /* \"#utility.yul\":962:1078   */\n      pop\n        /* \"#utility.yul\":758:1085   */\n      swap3\n      swap2\n      pop\n      pop\n      jump\t// out\n        /* \"#utility.yul\":1091:1217   */\n    tag_93:\n        /* \"#utility.yul\":1128:1135   */\n      0x00\n        /* \"#utility.yul\":1168:1210   */\n      0xffffffffffffffffffffffffffffffffffffffff\n        /* \"#utility.yul\":1161:1166   */\n      dup3\n        /* \"#utility.yul\":1157:1211   */\n      and\n        /* \"#utility.yul\":1146:1211   */\n      swap1\n      pop\n        /* \"#utility.yul\":1091:1217   */\n      swap2\n      swap1\n      pop\n      jump\t// out\n        /* \"#utility.yul\":1223:1319   */\n    tag_94:\n        /* \"#utility.yul\":1260:1267   */\n      0x00\n        /* \"#utility.yul\":1289:1313   */\n      tag_145\n        /* \"#utility.yul\":1307:1312   */\n      dup3\n        /* \"#utility.yul\":1289:1313   */\n      tag_93\n      jump\t// in\n    tag_145:\n        /* \"#utility.yul\":1278:1313   */\n      swap1\n      pop\n        /* \"#utility.yul\":1223:1319   */\n      swap2\n      swap1\n      pop\n      jump\t// out\n        /* \"#utility.yul\":1325:1451   */\n    tag_95:\n        /* \"#utility.yul\":1420:1444   */\n      tag_147\n        /* \"#utility.yul\":1438:1443   */\n      dup2\n        /* \"#utility.yul\":1420:1444   */\n      tag_94\n      jump\t// in\n    tag_147:\n        /* \"#utility.yul\":1415:1418   */\n      dup3\n        /* \"#utility.yul\":1408:1445   */\n      mstore\n        /* \"#utility.yul\":1325:1451   */\n      pop\n      pop\n      jump\t// out\n        /* \"#utility.yul\":1457:1695   */\n    tag_12:\n        /* \"#utility.yul\":1558:1562   */\n      0x00\n        /* \"#utility.yul\":1596:1598   */\n      0x20\n        /* \"#utility.yul\":1585:1594   */\n      dup3\n        /* \"#utility.yul\":1581:1599   */\n      add\n        /* \"#utility.yul\":1573:1599   */\n      swap1\n      pop\n        /* \"#utility.yul\":1609:1688   */\n      tag_149\n        /* \"#utility.yul\":1685:1686   */\n      0x00\n        /* \"#utility.yul\":1674:1683   */\n      dup4\n        /* \"#utility.yul\":1670:1687   */\n      add\n        /* \"#utility.yul\":1661:1667   */\n      dup5\n        /* \"#utility.yul\":1609:1688   */\n      tag_95\n      jump\t// in\n    tag_149:\n        /* \"#utility.yul\":1457:1695   */\n      swap3\n      swap2\n      pop\n      pop\n      jump\t// out\n        /* \"#utility.yul\":1701:1814   */\n    tag_96:\n        /* \"#utility.yul\":1767:1773   */\n      0x00\n        /* \"#utility.yul\":1801:1806   */\n      dup2\n        /* \"#utility.yul\":1795:1807   */\n      mload\n        /* \"#utility.yul\":1785:1807   */\n      swap1\n      pop\n        /* \"#utility.yul\":1701:1814   */\n      swap2\n      swap1\n      pop\n      jump\t// out\n        /* \"#utility.yul\":1820:2011   */\n    tag_97:\n        /* \"#utility.yul\":1926:1937   */\n      0x00\n        /* \"#utility.yul\":1960:1966   */\n      dup3\n        /* \"#utility.yul\":1955:1958   */\n      dup3\n        /* \"#utility.yul\":1948:1967   */\n      mstore\n        /* \"#utility.yul\":2000:2004   */\n      0x20\n        /* \"#utility.yul\":1995:1998   */\n      dup3\n        /* \"#utility.yul\":1991:2005   */\n      add\n        /* \"#utility.yul\":1976:2005   */\n      swap1\n      pop\n        /* \"#utility.yul\":1820:2011   */\n      swap3\n      swap2\n      pop\n      pop\n      jump\t// out\n        /* \"#utility.yul\":2017:2148   */\n    tag_98:\n        /* \"#utility.yul\":2083:2087   */\n      0x00\n        /* \"#utility.yul\":2106:2109   */\n      dup2\n        /* \"#utility.yul\":2098:2109   */\n      swap1\n      pop\n        /* \"#utility.yul\":2136:2140   */\n      0x20\n        /* \"#utility.yul\":2131:2134   */\n      dup3\n        /* \"#utility.yul\":2127:2141   */\n      add\n        /* \"#utility.yul\":2119:2141   */\n      swap1\n      pop\n        /* \"#utility.yul\":2017:2148   */\n      swap2\n      swap1\n      pop\n      jump\t// out\n        /* \"#utility.yul\":2154:2267   */\n    tag_99:\n        /* \"#utility.yul\":2237:2260   */\n      tag_154\n        /* \"#utility.yul\":2254:2259   */\n      dup2\n        /* \"#utility.yul\":2237:2260   */\n      tag_90\n      jump\t// in\n    tag_154:\n        /* \"#utility.yul\":2232:2235   */\n      dup3\n        /* \"#utility.yul\":2225:2261   */\n      mstore\n        /* \"#utility.yul\":2154:2267   */\n      pop\n      pop\n      jump\t// out\n        /* \"#utility.yul\":2273:2464   */\n    tag_100:\n        /* \"#utility.yul\":2348:2358   */\n      0x00\n        /* \"#utility.yul\":2369:2421   */\n      tag_156\n        /* \"#utility.yul\":2417:2420   */\n      dup4\n        /* \"#utility.yul\":2409:2415   */\n      dup4\n        /* \"#utility.yul\":2369:2421   */\n      tag_99\n      jump\t// in\n    tag_156:\n        /* \"#utility.yul\":2453:2457   */\n      0x20\n        /* \"#utility.yul\":2448:2451   */\n      dup4\n        /* \"#utility.yul\":2444:2458   */\n      add\n        /* \"#utility.yul\":2430:2458   */\n      swap1\n      pop\n        /* \"#utility.yul\":2273:2464   */\n      swap3\n      swap2\n      pop\n      pop\n      jump\t// out\n        /* \"#utility.yul\":2470:2582   */\n    tag_101:\n        /* \"#utility.yul\":2539:2543   */\n      0x00\n        /* \"#utility.yul\":2571:2575   */\n      0x20\n        /* \"#utility.yul\":2566:2569   */\n      dup3\n        /* \"#utility.yul\":2562:2576   */\n      add\n        /* \"#utility.yul\":2554:2576   */\n      swap1\n      pop\n        /* \"#utility.yul\":2470:2582   */\n      swap2\n      swap1\n      pop\n      jump\t// out\n        /* \"#utility.yul\":2616:3364   */\n    tag_102:\n        /* \"#utility.yul\":2741:2744   */\n      0x00\n        /* \"#utility.yul\":2770:2823   */\n      tag_159\n        /* \"#utility.yul\":2817:2822   */\n      dup3\n        /* \"#utility.yul\":2770:2823   */\n      tag_96\n      jump\t// in\n    tag_159:\n        /* \"#utility.yul\":2839:2932   */\n      tag_160\n        /* \"#utility.yul\":2925:2931   */\n      dup2\n        /* \"#utility.yul\":2920:2923   */\n      dup6\n        /* \"#utility.yul\":2839:2932   */\n      tag_97\n      jump\t// in\n    tag_160:\n        /* \"#utility.yul\":2832:2932   */\n      swap4\n      pop\n        /* \"#utility.yul\":2956:3011   */\n      tag_161\n        /* \"#utility.yul\":3005:3010   */\n      dup4\n        /* \"#utility.yul\":2956:3011   */\n      tag_98\n      jump\t// in\n    tag_161:\n        /* \"#utility.yul\":3034:3041   */\n      dup1\n        /* \"#utility.yul\":3065:3066   */\n      0x00\n        /* \"#utility.yul\":3050:3339   */\n    tag_162:\n        /* \"#utility.yul\":3075:3081   */\n      dup4\n        /* \"#utility.yul\":3072:3073   */\n      dup2\n        /* \"#utility.yul\":3069:3082   */\n      lt\n        /* \"#utility.yul\":3050:3339   */\n      iszero\n      tag_164\n      jumpi\n        /* \"#utility.yul\":3151:3157   */\n      dup2\n        /* \"#utility.yul\":3145:3158   */\n      mload\n        /* \"#utility.yul\":3178:3247   */\n      tag_165\n        /* \"#utility.yul\":3243:3246   */\n      dup9\n        /* \"#utility.yul\":3228:3241   */\n      dup3\n        /* \"#utility.yul\":3178:3247   */\n      tag_100\n      jump\t// in\n    tag_165:\n        /* \"#utility.yul\":3171:3247   */\n      swap8\n      pop\n        /* \"#utility.yul\":3270:3329   */\n      tag_166\n        /* \"#utility.yul\":3322:3328   */\n      dup4\n        /* \"#utility.yul\":3270:3329   */\n      tag_101\n      jump\t// in\n    tag_166:\n        /* \"#utility.yul\":3260:3329   */\n      swap3\n      pop\n        /* \"#utility.yul\":3110:3339   */\n      pop\n        /* \"#utility.yul\":3097:3098   */\n      0x01\n        /* \"#utility.yul\":3094:3095   */\n      dup2\n        /* \"#utility.yul\":3090:3099   */\n      add\n        /* \"#utility.yul\":3085:3099   */\n      swap1\n      pop\n        /* \"#utility.yul\":3050:3339   */\n      jump(tag_162)\n    tag_164:\n        /* \"#utility.yul\":3054:3068   */\n      pop\n        /* \"#utility.yul\":3355:3358   */\n      dup6\n        /* \"#utility.yul\":3348:3358   */\n      swap4\n      pop\n        /* \"#utility.yul\":2746:3364   */\n      pop\n      pop\n      pop\n        /* \"#utility.yul\":2616:3364   */\n      swap3\n      swap2\n      pop\n      pop\n      jump\t// out\n        /* \"#utility.yul\":3370:3755   */\n    tag_16:\n        /* \"#utility.yul\":3519:3523   */\n      0x00\n        /* \"#utility.yul\":3557:3559   */\n      0x20\n        /* \"#utility.yul\":3546:3555   */\n      dup3\n        /* \"#utility.yul\":3542:3560   */\n      add\n        /* \"#utility.yul\":3534:3560   */\n      swap1\n      pop\n        /* \"#utility.yul\":3606:3615   */\n      dup2\n        /* \"#utility.yul\":3600:3604   */\n      dup2\n        /* \"#utility.yul\":3596:3616   */\n      sub\n        /* \"#utility.yul\":3592:3593   */\n      0x00\n        /* \"#utility.yul\":3581:3590   */\n      dup4\n        /* \"#utility.yul\":3577:3594   */\n      add\n        /* \"#utility.yul\":3570:3617   */\n      mstore\n        /* \"#utility.yul\":3634:3748   */\n      tag_168\n        /* \"#utility.yul\":3743:3747   */\n      dup2\n        /* \"#utility.yul\":3734:3740   */\n      dup5\n        /* \"#utility.yul\":3634:3748   */\n      tag_102\n      jump\t// in\n    tag_168:\n        /* \"#utility.yul\":3626:3748   */\n      swap1\n      pop\n        /* \"#utility.yul\":3370:3755   */\n      swap3\n      swap2\n      pop\n      pop\n      jump\t// out\n        /* \"#utility.yul\":3761:3878   */\n    tag_103:\n        /* \"#utility.yul\":3870:3871   */\n      0x00\n        /* \"#utility.yul\":3867:3868   */\n      dup1\n        /* \"#utility.yul\":3860:3872   */\n      revert\n        /* \"#utility.yul\":3884:3986   */\n    tag_104:\n        /* \"#utility.yul\":3925:3931   */\n      0x00\n        /* \"#utility.yul\":3976:3978   */\n      0x1f\n        /* \"#utility.yul\":3972:3979   */\n      not\n        /* \"#utility.yul\":3967:3969   */\n      0x1f\n        /* \"#utility.yul\":3960:3965   */\n      dup4\n        /* \"#utility.yul\":3956:3970   */\n      add\n        /* \"#utility.yul\":3952:3980   */\n      and\n        /* \"#utility.yul\":3942:3980   */\n      swap1\n      pop\n        /* \"#utility.yul\":3884:3986   */\n      swap2\n      swap1\n      pop\n      jump\t// out\n        /* \"#utility.yul\":3992:4172   */\n    tag_105:\n        /* \"#utility.yul\":4040:4117   */\n      0x4e487b7100000000000000000000000000000000000000000000000000000000\n        /* \"#utility.yul\":4037:4038   */\n      0x00\n        /* \"#utility.yul\":4030:4118   */\n      mstore\n        /* \"#utility.yul\":4137:4141   */\n      0x41\n        /* \"#utility.yul\":4134:4135   */\n      0x04\n        /* \"#utility.yul\":4127:4142   */\n      mstore\n        /* \"#utility.yul\":4161:4165   */\n      0x24\n        /* \"#utility.yul\":4158:4159   */\n      0x00\n        /* \"#utility.yul\":4151:4166   */\n      revert\n        /* \"#utility.yul\":4178:4459   */\n    tag_106:\n        /* \"#utility.yul\":4261:4288   */\n      tag_173\n        /* \"#utility.yul\":4283:4287   */\n      dup3\n        /* \"#utility.yul\":4261:4288   */\n      tag_104\n      jump\t// in\n    tag_173:\n        /* \"#utility.yul\":4253:4259   */\n      dup2\n        /* \"#utility.yul\":4249:4289   */\n      add\n        /* \"#utility.yul\":4391:4397   */\n      dup2\n        /* \"#utility.yul\":4379:4389   */\n      dup2\n        /* \"#utility.yul\":4376:4398   */\n      lt\n        /* \"#utility.yul\":4355:4373   */\n      0xffffffffffffffff\n        /* \"#utility.yul\":4343:4353   */\n      dup3\n        /* \"#utility.yul\":4340:4374   */\n      gt\n        /* \"#utility.yul\":4337:4399   */\n      or\n        /* \"#utility.yul\":4334:4422   */\n      iszero\n      tag_174\n      jumpi\n        /* \"#utility.yul\":4402:4420   */\n      tag_175\n      tag_105\n      jump\t// in\n    tag_175:\n        /* \"#utility.yul\":4334:4422   */\n    tag_174:\n        /* \"#utility.yul\":4442:4452   */\n      dup1\n        /* \"#utility.yul\":4438:4440   */\n      0x40\n        /* \"#utility.yul\":4431:4453   */\n      mstore\n        /* \"#utility.yul\":4221:4459   */\n      pop\n        /* \"#utility.yul\":4178:4459   */\n      pop\n      pop\n      jump\t// out\n        /* \"#utility.yul\":4465:4594   */\n    tag_107:\n        /* \"#utility.yul\":4499:4505   */\n      0x00\n        /* \"#utility.yul\":4526:4546   */\n      tag_177\n      tag_87\n      jump\t// in\n    tag_177:\n        /* \"#utility.yul\":4516:4546   */\n      swap1\n      pop\n        /* \"#utility.yul\":4555:4588   */\n      tag_178\n        /* \"#utility.yul\":4583:4587   */\n      dup3\n        /* \"#utility.yul\":4575:4581   */\n      dup3\n        /* \"#utility.yul\":4555:4588   */\n      tag_106\n      jump\t// in\n    tag_178:\n        /* \"#utility.yul\":4465:4594   */\n      swap2\n      swap1\n      pop\n      jump\t// out\n        /* \"#utility.yul\":4600:4944   */\n    tag_108:\n        /* \"#utility.yul\":4710:4714   */\n      0x00\n        /* \"#utility.yul\":4800:4818   */\n      0xffffffffffffffff\n        /* \"#utility.yul\":4792:4798   */\n      dup3\n        /* \"#utility.yul\":4789:4819   */\n      gt\n        /* \"#utility.yul\":4786:4842   */\n      iszero\n      tag_180\n      jumpi\n        /* \"#utility.yul\":4822:4840   */\n      tag_181\n      tag_105\n      jump\t// in\n    tag_181:\n        /* \"#utility.yul\":4786:4842   */\n    tag_180:\n        /* \"#utility.yul\":4872:4876   */\n      0x20\n        /* \"#utility.yul\":4864:4870   */\n      dup3\n        /* \"#utility.yul\":4860:4877   */\n      mul\n        /* \"#utility.yul\":4852:4877   */\n      swap1\n      pop\n        /* \"#utility.yul\":4932:4936   */\n      0x20\n        /* \"#utility.yul\":4926:4930   */\n      dup2\n        /* \"#utility.yul\":4922:4937   */\n      add\n        /* \"#utility.yul\":4914:4937   */\n      swap1\n      pop\n        /* \"#utility.yul\":4600:4944   */\n      swap2\n      swap1\n      pop\n      jump\t// out\n        /* \"#utility.yul\":4950:5067   */\n    tag_109:\n        /* \"#utility.yul\":5059:5060   */\n      0x00\n        /* \"#utility.yul\":5056:5057   */\n      dup1\n        /* \"#utility.yul\":5049:5061   */\n      revert\n        /* \"#utility.yul\":5073:5190   */\n    tag_110:\n        /* \"#utility.yul\":5182:5183   */\n      0x00\n        /* \"#utility.yul\":5179:5180   */\n      dup1\n        /* \"#utility.yul\":5172:5184   */\n      revert\n        /* \"#utility.yul\":5196:5313   */\n    tag_111:\n        /* \"#utility.yul\":5305:5306   */\n      0x00\n        /* \"#utility.yul\":5302:5303   */\n      dup1\n        /* \"#utility.yul\":5295:5307   */\n      revert\n        /* \"#utility.yul\":5319:5441   */\n    tag_112:\n        /* \"#utility.yul\":5392:5416   */\n      tag_186\n        /* \"#utility.yul\":5410:5415   */\n      dup2\n        /* \"#utility.yul\":5392:5416   */\n      tag_94\n      jump\t// in\n    tag_186:\n        /* \"#utility.yul\":5385:5390   */\n      dup2\n        /* \"#utility.yul\":5382:5417   */\n      eq\n        /* \"#utility.yul\":5372:5435   */\n      tag_187\n      jumpi\n        /* \"#utility.yul\":5431:5432   */\n      0x00\n        /* \"#utility.yul\":5428:5429   */\n      dup1\n        /* \"#utility.yul\":5421:5433   */\n      revert\n        /* \"#utility.yul\":5372:5435   */\n    tag_187:\n        /* \"#utility.yul\":5319:5441   */\n      pop\n      jump\t// out\n        /* \"#utility.yul\":5447:5586   */\n    tag_113:\n        /* \"#utility.yul\":5493:5498   */\n      0x00\n        /* \"#utility.yul\":5531:5537   */\n      dup2\n        /* \"#utility.yul\":5518:5538   */\n      calldataload\n        /* \"#utility.yul\":5509:5538   */\n      swap1\n      pop\n        /* \"#utility.yul\":5547:5580   */\n      tag_189\n        /* \"#utility.yul\":5574:5579   */\n      dup2\n        /* \"#utility.yul\":5547:5580   */\n      tag_112\n      jump\t// in\n    tag_189:\n        /* \"#utility.yul\":5447:5586   */\n      swap3\n      swap2\n      pop\n      pop\n      jump\t// out\n        /* \"#utility.yul\":5592:5902   */\n    tag_114:\n        /* \"#utility.yul\":5668:5672   */\n      0x00\n        /* \"#utility.yul\":5758:5776   */\n      0xffffffffffffffff\n        /* \"#utility.yul\":5750:5756   */\n      dup3\n        /* \"#utility.yul\":5747:5777   */\n      gt\n        /* \"#utility.yul\":5744:5800   */\n      iszero\n      tag_191\n      jumpi\n        /* \"#utility.yul\":5780:5798   */\n      tag_192\n      tag_105\n      jump\t// in\n    tag_192:\n        /* \"#utility.yul\":5744:5800   */\n    tag_191:\n        /* \"#utility.yul\":5830:5834   */\n      0x20\n        /* \"#utility.yul\":5822:5828   */\n      dup3\n        /* \"#utility.yul\":5818:5835   */\n      mul\n        /* \"#utility.yul\":5810:5835   */\n      swap1\n      pop\n        /* \"#utility.yul\":5890:5894   */\n      0x20\n        /* \"#utility.yul\":5884:5888   */\n      dup2\n        /* \"#utility.yul\":5880:5895   */\n      add\n        /* \"#utility.yul\":5872:5895   */\n      swap1\n      pop\n        /* \"#utility.yul\":5592:5902   */\n      swap2\n      swap1\n      pop\n      jump\t// out\n        /* \"#utility.yul\":5924:6631   */\n    tag_115:\n        /* \"#utility.yul\":6019:6024   */\n      0x00\n        /* \"#utility.yul\":6044:6124   */\n      tag_194\n        /* \"#utility.yul\":6060:6123   */\n      tag_195\n        /* \"#utility.yul\":6116:6122   */\n      dup5\n        /* \"#utility.yul\":6060:6123   */\n      tag_114\n      jump\t// in\n    tag_195:\n        /* \"#utility.yul\":6044:6124   */\n      tag_107\n      jump\t// in\n    tag_194:\n        /* \"#utility.yul\":6035:6124   */\n      swap1\n      pop\n        /* \"#utility.yul\":6144:6149   */\n      dup1\n        /* \"#utility.yul\":6173:6179   */\n      dup4\n        /* \"#utility.yul\":6166:6171   */\n      dup3\n        /* \"#utility.yul\":6159:6180   */\n      mstore\n        /* \"#utility.yul\":6207:6211   */\n      0x20\n        /* \"#utility.yul\":6200:6205   */\n      dup3\n        /* \"#utility.yul\":6196:6212   */\n      add\n        /* \"#utility.yul\":6189:6212   */\n      swap1\n      pop\n        /* \"#utility.yul\":6260:6264   */\n      0x20\n        /* \"#utility.yul\":6252:6258   */\n      dup5\n        /* \"#utility.yul\":6248:6265   */\n      mul\n        /* \"#utility.yul\":6240:6246   */\n      dup4\n        /* \"#utility.yul\":6236:6266   */\n      add\n        /* \"#utility.yul\":6289:6292   */\n      dup6\n        /* \"#utility.yul\":6281:6287   */\n      dup2\n        /* \"#utility.yul\":6278:6293   */\n      gt\n        /* \"#utility.yul\":6275:6397   */\n      iszero\n      tag_196\n      jumpi\n        /* \"#utility.yul\":6308:6387   */\n      tag_197\n      tag_109\n      jump\t// in\n    tag_197:\n        /* \"#utility.yul\":6275:6397   */\n    tag_196:\n        /* \"#utility.yul\":6423:6429   */\n      dup4\n        /* \"#utility.yul\":6406:6625   */\n    tag_198:\n        /* \"#utility.yul\":6440:6446   */\n      dup2\n        /* \"#utility.yul\":6435:6438   */\n      dup2\n        /* \"#utility.yul\":6432:6447   */\n      lt\n        /* \"#utility.yul\":6406:6625   */\n      iszero\n      tag_200\n      jumpi\n        /* \"#utility.yul\":6515:6518   */\n      dup1\n        /* \"#utility.yul\":6544:6580   */\n      tag_201\n        /* \"#utility.yul\":6576:6579   */\n      dup9\n        /* \"#utility.yul\":6564:6574   */\n      dup3\n        /* \"#utility.yul\":6544:6580   */\n      tag_92\n      jump\t// in\n    tag_201:\n        /* \"#utility.yul\":6539:6542   */\n      dup5\n        /* \"#utility.yul\":6532:6581   */\n      mstore\n        /* \"#utility.yul\":6610:6614   */\n      0x20\n        /* \"#utility.yul\":6605:6608   */\n      dup5\n        /* \"#utility.yul\":6601:6615   */\n      add\n        /* \"#utility.yul\":6594:6615   */\n      swap4\n      pop\n        /* \"#utility.yul\":6482:6625   */\n      pop\n        /* \"#utility.yul\":6466:6470   */\n      0x20\n        /* \"#utility.yul\":6461:6464   */\n      dup2\n        /* \"#utility.yul\":6457:6471   */\n      add\n        /* \"#utility.yul\":6450:6471   */\n      swap1\n      pop\n        /* \"#utility.yul\":6406:6625   */\n      jump(tag_198)\n    tag_200:\n        /* \"#utility.yul\":6410:6431   */\n      pop\n        /* \"#utility.yul\":6025:6631   */\n      pop\n      pop\n        /* \"#utility.yul\":5924:6631   */\n      swap4\n      swap3\n      pop\n      pop\n      pop\n      jump\t// out\n        /* \"#utility.yul\":6653:7021   */\n    tag_116:\n        /* \"#utility.yul\":6723:6728   */\n      0x00\n        /* \"#utility.yul\":6772:6775   */\n      dup3\n        /* \"#utility.yul\":6765:6769   */\n      0x1f\n        /* \"#utility.yul\":6757:6763   */\n      dup4\n        /* \"#utility.yul\":6753:6770   */\n      add\n        /* \"#utility.yul\":6749:6776   */\n      slt\n        /* \"#utility.yul\":6739:6861   */\n      tag_203\n      jumpi\n        /* \"#utility.yul\":6780:6859   */\n      tag_204\n      tag_103\n      jump\t// in\n    tag_204:\n        /* \"#utility.yul\":6739:6861   */\n    tag_203:\n        /* \"#utility.yul\":6897:6903   */\n      dup2\n        /* \"#utility.yul\":6884:6904   */\n      calldataload\n        /* \"#utility.yul\":6922:7015   */\n      tag_205\n        /* \"#utility.yul\":7011:7014   */\n      dup5\n        /* \"#utility.yul\":7003:7009   */\n      dup3\n        /* \"#utility.yul\":6996:7000   */\n      0x20\n        /* \"#utility.yul\":6988:6994   */\n      dup7\n        /* \"#utility.yul\":6984:7001   */\n      add\n        /* \"#utility.yul\":6922:7015   */\n      tag_115\n      jump\t// in\n    tag_205:\n        /* \"#utility.yul\":6913:7015   */\n      swap2\n      pop\n        /* \"#utility.yul\":6729:7021   */\n      pop\n        /* \"#utility.yul\":6653:7021   */\n      swap3\n      swap2\n      pop\n      pop\n      jump\t// out\n        /* \"#utility.yul\":7079:7852   */\n    tag_117:\n        /* \"#utility.yul\":7161:7166   */\n      0x00\n        /* \"#utility.yul\":7205:7209   */\n      0x40\n        /* \"#utility.yul\":7193:7202   */\n      dup3\n        /* \"#utility.yul\":7188:7191   */\n      dup5\n        /* \"#utility.yul\":7184:7203   */\n      sub\n        /* \"#utility.yul\":7180:7210   */\n      slt\n        /* \"#utility.yul\":7177:7294   */\n      iszero\n      tag_207\n      jumpi\n        /* \"#utility.yul\":7213:7292   */\n      tag_208\n      tag_110\n      jump\t// in\n    tag_208:\n        /* \"#utility.yul\":7177:7294   */\n    tag_207:\n        /* \"#utility.yul\":7312:7333   */\n      tag_209\n        /* \"#utility.yul\":7328:7332   */\n      0x40\n        /* \"#utility.yul\":7312:7333   */\n      tag_107\n      jump\t// in\n    tag_209:\n        /* \"#utility.yul\":7303:7333   */\n      swap1\n      pop\n        /* \"#utility.yul\":7394:7395   */\n      0x00\n        /* \"#utility.yul\":7434:7483   */\n      tag_210\n        /* \"#utility.yul\":7479:7482   */\n      dup5\n        /* \"#utility.yul\":7470:7476   */\n      dup3\n        /* \"#utility.yul\":7459:7468   */\n      dup6\n        /* \"#utility.yul\":7455:7477   */\n      add\n        /* \"#utility.yul\":7434:7483   */\n      tag_113\n      jump\t// in\n    tag_210:\n        /* \"#utility.yul\":7427:7431   */\n      0x00\n        /* \"#utility.yul\":7420:7425   */\n      dup4\n        /* \"#utility.yul\":7416:7432   */\n      add\n        /* \"#utility.yul\":7409:7484   */\n      mstore\n        /* \"#utility.yul\":7343:7495   */\n      pop\n        /* \"#utility.yul\":7587:7589   */\n      0x20\n        /* \"#utility.yul\":7576:7585   */\n      dup3\n        /* \"#utility.yul\":7572:7590   */\n      add\n        /* \"#utility.yul\":7559:7591   */\n      calldataload\n        /* \"#utility.yul\":7618:7636   */\n      0xffffffffffffffff\n        /* \"#utility.yul\":7610:7616   */\n      dup2\n        /* \"#utility.yul\":7607:7637   */\n      gt\n        /* \"#utility.yul\":7604:7721   */\n      iszero\n      tag_211\n      jumpi\n        /* \"#utility.yul\":7640:7719   */\n      tag_212\n      tag_111\n      jump\t// in\n    tag_212:\n        /* \"#utility.yul\":7604:7721   */\n    tag_211:\n        /* \"#utility.yul\":7760:7833   */\n      tag_213\n        /* \"#utility.yul\":7829:7832   */\n      dup5\n        /* \"#utility.yul\":7820:7826   */\n      dup3\n        /* \"#utility.yul\":7809:7818   */\n      dup6\n        /* \"#utility.yul\":7805:7827   */\n      add\n        /* \"#utility.yul\":7760:7833   */\n      tag_116\n      jump\t// in\n    tag_213:\n        /* \"#utility.yul\":7753:7757   */\n      0x20\n        /* \"#utility.yul\":7746:7751   */\n      dup4\n        /* \"#utility.yul\":7742:7758   */\n      add\n        /* \"#utility.yul\":7735:7834   */\n      mstore\n        /* \"#utility.yul\":7505:7845   */\n      pop\n        /* \"#utility.yul\":7079:7852   */\n      swap3\n      swap2\n      pop\n      pop\n      jump\t// out\n        /* \"#utility.yul\":7912:8926   */\n    tag_118:\n        /* \"#utility.yul\":8041:8046   */\n      0x00\n        /* \"#utility.yul\":8066:8180   */\n      tag_215\n        /* \"#utility.yul\":8082:8179   */\n      tag_216\n        /* \"#utility.yul\":8172:8178   */\n      dup5\n        /* \"#utility.yul\":8082:8179   */\n      tag_108\n      jump\t// in\n    tag_216:\n        /* \"#utility.yul\":8066:8180   */\n      tag_107\n      jump\t// in\n    tag_215:\n        /* \"#utility.yul\":8057:8180   */\n      swap1\n      pop\n        /* \"#utility.yul\":8200:8205   */\n      dup1\n        /* \"#utility.yul\":8229:8235   */\n      dup4\n        /* \"#utility.yul\":8222:8227   */\n      dup3\n        /* \"#utility.yul\":8215:8236   */\n      mstore\n        /* \"#utility.yul\":8263:8267   */\n      0x20\n        /* \"#utility.yul\":8256:8261   */\n      dup3\n        /* \"#utility.yul\":8252:8268   */\n      add\n        /* \"#utility.yul\":8245:8268   */\n      swap1\n      pop\n        /* \"#utility.yul\":8316:8320   */\n      0x20\n        /* \"#utility.yul\":8308:8314   */\n      dup5\n        /* \"#utility.yul\":8304:8321   */\n      mul\n        /* \"#utility.yul\":8296:8302   */\n      dup4\n        /* \"#utility.yul\":8292:8322   */\n      add\n        /* \"#utility.yul\":8345:8348   */\n      dup6\n        /* \"#utility.yul\":8337:8343   */\n      dup2\n        /* \"#utility.yul\":8334:8349   */\n      gt\n        /* \"#utility.yul\":8331:8453   */\n      iszero\n      tag_217\n      jumpi\n        /* \"#utility.yul\":8364:8443   */\n      tag_218\n      tag_109\n      jump\t// in\n    tag_218:\n        /* \"#utility.yul\":8331:8453   */\n    tag_217:\n        /* \"#utility.yul\":8479:8485   */\n      dup4\n        /* \"#utility.yul\":8462:8920   */\n    tag_219:\n        /* \"#utility.yul\":8496:8502   */\n      dup2\n        /* \"#utility.yul\":8491:8494   */\n      dup2\n        /* \"#utility.yul\":8488:8503   */\n      lt\n        /* \"#utility.yul\":8462:8920   */\n      iszero\n      tag_221\n      jumpi\n        /* \"#utility.yul\":8585:8588   */\n      dup1\n        /* \"#utility.yul\":8572:8589   */\n      calldataload\n        /* \"#utility.yul\":8621:8639   */\n      0xffffffffffffffff\n        /* \"#utility.yul\":8608:8619   */\n      dup2\n        /* \"#utility.yul\":8605:8640   */\n      gt\n        /* \"#utility.yul\":8602:8724   */\n      iszero\n      tag_222\n      jumpi\n        /* \"#utility.yul\":8643:8722   */\n      tag_223\n      tag_103\n      jump\t// in\n    tag_223:\n        /* \"#utility.yul\":8602:8724   */\n    tag_222:\n        /* \"#utility.yul\":8767:8778   */\n      dup1\n        /* \"#utility.yul\":8759:8765   */\n      dup7\n        /* \"#utility.yul\":8755:8779   */\n      add\n        /* \"#utility.yul\":8805:8875   */\n      tag_224\n        /* \"#utility.yul\":8871:8874   */\n      dup10\n        /* \"#utility.yul\":8859:8869   */\n      dup3\n        /* \"#utility.yul\":8805:8875   */\n      tag_117\n      jump\t// in\n    tag_224:\n        /* \"#utility.yul\":8800:8803   */\n      dup6\n        /* \"#utility.yul\":8793:8876   */\n      mstore\n        /* \"#utility.yul\":8905:8909   */\n      0x20\n        /* \"#utility.yul\":8900:8903   */\n      dup6\n        /* \"#utility.yul\":8896:8910   */\n      add\n        /* \"#utility.yul\":8889:8910   */\n      swap5\n      pop\n        /* \"#utility.yul\":8538:8920   */\n      pop\n      pop\n        /* \"#utility.yul\":8522:8526   */\n      0x20\n        /* \"#utility.yul\":8517:8520   */\n      dup2\n        /* \"#utility.yul\":8513:8527   */\n      add\n        /* \"#utility.yul\":8506:8527   */\n      swap1\n      pop\n        /* \"#utility.yul\":8462:8920   */\n      jump(tag_219)\n    tag_221:\n        /* \"#utility.yul\":8466:8487   */\n      pop\n        /* \"#utility.yul\":8047:8926   */\n      pop\n      pop\n        /* \"#utility.yul\":7912:8926   */\n      swap4\n      swap3\n      pop\n      pop\n      pop\n      jump\t// out\n        /* \"#utility.yul\":8986:9422   */\n    tag_119:\n        /* \"#utility.yul\":9090:9095   */\n      0x00\n        /* \"#utility.yul\":9139:9142   */\n      dup3\n        /* \"#utility.yul\":9132:9136   */\n      0x1f\n        /* \"#utility.yul\":9124:9130   */\n      dup4\n        /* \"#utility.yul\":9120:9137   */\n      add\n        /* \"#utility.yul\":9116:9143   */\n      slt\n        /* \"#utility.yul\":9106:9228   */\n      tag_226\n      jumpi\n        /* \"#utility.yul\":9147:9226   */\n      tag_227\n      tag_103\n      jump\t// in\n    tag_227:\n        /* \"#utility.yul\":9106:9228   */\n    tag_226:\n        /* \"#utility.yul\":9264:9270   */\n      dup2\n        /* \"#utility.yul\":9251:9271   */\n      calldataload\n        /* \"#utility.yul\":9289:9416   */\n      tag_228\n        /* \"#utility.yul\":9412:9415   */\n      dup5\n        /* \"#utility.yul\":9404:9410   */\n      dup3\n        /* \"#utility.yul\":9397:9401   */\n      0x20\n        /* \"#utility.yul\":9389:9395   */\n      dup7\n        /* \"#utility.yul\":9385:9402   */\n      add\n        /* \"#utility.yul\":9289:9416   */\n      tag_118\n      jump\t// in\n    tag_228:\n        /* \"#utility.yul\":9280:9416   */\n      swap2\n      pop\n        /* \"#utility.yul\":9096:9422   */\n      pop\n        /* \"#utility.yul\":8986:9422   */\n      swap3\n      swap2\n      pop\n      pop\n      jump\t// out\n        /* \"#utility.yul\":9428:10033   */\n    tag_20:\n        /* \"#utility.yul\":9545:9551   */\n      0x00\n        /* \"#utility.yul\":9594:9596   */\n      0x20\n        /* \"#utility.yul\":9582:9591   */\n      dup3\n        /* \"#utility.yul\":9573:9580   */\n      dup5\n        /* \"#utility.yul\":9569:9592   */\n      sub\n        /* \"#utility.yul\":9565:9597   */\n      slt\n        /* \"#utility.yul\":9562:9681   */\n      iszero\n      tag_230\n      jumpi\n        /* \"#utility.yul\":9600:9679   */\n      tag_231\n      tag_88\n      jump\t// in\n    tag_231:\n        /* \"#utility.yul\":9562:9681   */\n    tag_230:\n        /* \"#utility.yul\":9748:9749   */\n      0x00\n        /* \"#utility.yul\":9737:9746   */\n      dup3\n        /* \"#utility.yul\":9733:9750   */\n      add\n        /* \"#utility.yul\":9720:9751   */\n      calldataload\n        /* \"#utility.yul\":9778:9796   */\n      0xffffffffffffffff\n        /* \"#utility.yul\":9770:9776   */\n      dup2\n        /* \"#utility.yul\":9767:9797   */\n      gt\n        /* \"#utility.yul\":9764:9881   */\n      iszero\n      tag_232\n      jumpi\n        /* \"#utility.yul\":9800:9879   */\n      tag_233\n      tag_89\n      jump\t// in\n    tag_233:\n        /* \"#utility.yul\":9764:9881   */\n    tag_232:\n        /* \"#utility.yul\":9905:10016   */\n      tag_234\n        /* \"#utility.yul\":10008:10015   */\n      dup5\n        /* \"#utility.yul\":9999:10005   */\n      dup3\n        /* \"#utility.yul\":9988:9997   */\n      dup6\n        /* \"#utility.yul\":9984:10006   */\n      add\n        /* \"#utility.yul\":9905:10016   */\n      tag_119\n      jump\t// in\n    tag_234:\n        /* \"#utility.yul\":9895:10016   */\n      swap2\n      pop\n        /* \"#utility.yul\":9691:10026   */\n      pop\n        /* \"#utility.yul\":9428:10033   */\n      swap3\n      swap2\n      pop\n      pop\n      jump\t// out\n        /* \"#utility.yul\":10039:10153   */\n    tag_120:\n        /* \"#utility.yul\":10106:10112   */\n      0x00\n        /* \"#utility.yul\":10140:10145   */\n      dup2\n        /* \"#utility.yul\":10134:10146   */\n      mload\n        /* \"#utility.yul\":10124:10146   */\n      swap1\n      pop\n        /* \"#utility.yul\":10039:10153   */\n      swap2\n      swap1\n      pop\n      jump\t// out\n        /* \"#utility.yul\":10159:10351   */\n    tag_121:\n        /* \"#utility.yul\":10266:10277   */\n      0x00\n        /* \"#utility.yul\":10300:10306   */\n      dup3\n        /* \"#utility.yul\":10295:10298   */\n      dup3\n        /* \"#utility.yul\":10288:10307   */\n      mstore\n        /* \"#utility.yul\":10340:10344   */\n      0x20\n        /* \"#utility.yul\":10335:10338   */\n      dup3\n        /* \"#utility.yul\":10331:10345   */\n      add\n        /* \"#utility.yul\":10316:10345   */\n      swap1\n      pop\n        /* \"#utility.yul\":10159:10351   */\n      swap3\n      swap2\n      pop\n      pop\n      jump\t// out\n        /* \"#utility.yul\":10357:10489   */\n    tag_122:\n        /* \"#utility.yul\":10424:10428   */\n      0x00\n        /* \"#utility.yul\":10447:10450   */\n      dup2\n        /* \"#utility.yul\":10439:10450   */\n      swap1\n      pop\n        /* \"#utility.yul\":10477:10481   */\n      0x20\n        /* \"#utility.yul\":10472:10475   */\n      dup3\n        /* \"#utility.yul\":10468:10482   */\n      add\n        /* \"#utility.yul\":10460:10482   */\n      swap1\n      pop\n        /* \"#utility.yul\":10357:10489   */\n      swap2\n      swap1\n      pop\n      jump\t// out\n        /* \"#utility.yul\":10495:10611   */\n    tag_123:\n        /* \"#utility.yul\":10580:10604   */\n      tag_239\n        /* \"#utility.yul\":10598:10603   */\n      dup2\n        /* \"#utility.yul\":10580:10604   */\n      tag_94\n      jump\t// in\n    tag_239:\n        /* \"#utility.yul\":10575:10578   */\n      dup3\n        /* \"#utility.yul\":10568:10605   */\n      mstore\n        /* \"#utility.yul\":10495:10611   */\n      pop\n      pop\n      jump\t// out\n        /* \"#utility.yul\":10617:10812   */\n    tag_124:\n        /* \"#utility.yul\":10694:10704   */\n      0x00\n        /* \"#utility.yul\":10715:10769   */\n      tag_241\n        /* \"#utility.yul\":10765:10768   */\n      dup4\n        /* \"#utility.yul\":10757:10763   */\n      dup4\n        /* \"#utility.yul\":10715:10769   */\n      tag_123\n      jump\t// in\n    tag_241:\n        /* \"#utility.yul\":10801:10805   */\n      0x20\n        /* \"#utility.yul\":10796:10799   */\n      dup4\n        /* \"#utility.yul\":10792:10806   */\n      add\n        /* \"#utility.yul\":10778:10806   */\n      swap1\n      pop\n        /* \"#utility.yul\":10617:10812   */\n      swap3\n      swap2\n      pop\n      pop\n      jump\t// out\n        /* \"#utility.yul\":10818:10931   */\n    tag_125:\n        /* \"#utility.yul\":10888:10892   */\n      0x00\n        /* \"#utility.yul\":10920:10924   */\n      0x20\n        /* \"#utility.yul\":10915:10918   */\n      dup3\n        /* \"#utility.yul\":10911:10925   */\n      add\n        /* \"#utility.yul\":10903:10925   */\n      swap1\n      pop\n        /* \"#utility.yul\":10818:10931   */\n      swap2\n      swap1\n      pop\n      jump\t// out\n        /* \"#utility.yul\":10967:11723   */\n    tag_126:\n        /* \"#utility.yul\":11094:11097   */\n      0x00\n        /* \"#utility.yul\":11123:11177   */\n      tag_244\n        /* \"#utility.yul\":11171:11176   */\n      dup3\n        /* \"#utility.yul\":11123:11177   */\n      tag_120\n      jump\t// in\n    tag_244:\n        /* \"#utility.yul\":11193:11287   */\n      tag_245\n        /* \"#utility.yul\":11280:11286   */\n      dup2\n        /* \"#utility.yul\":11275:11278   */\n      dup6\n        /* \"#utility.yul\":11193:11287   */\n      tag_121\n      jump\t// in\n    tag_245:\n        /* \"#utility.yul\":11186:11287   */\n      swap4\n      pop\n        /* \"#utility.yul\":11311:11367   */\n      tag_246\n        /* \"#utility.yul\":11361:11366   */\n      dup4\n        /* \"#utility.yul\":11311:11367   */\n      tag_122\n      jump\t// in\n    tag_246:\n        /* \"#utility.yul\":11390:11397   */\n      dup1\n        /* \"#utility.yul\":11421:11422   */\n      0x00\n        /* \"#utility.yul\":11406:11698   */\n    tag_247:\n        /* \"#utility.yul\":11431:11437   */\n      dup4\n        /* \"#utility.yul\":11428:11429   */\n      dup2\n        /* \"#utility.yul\":11425:11438   */\n      lt\n        /* \"#utility.yul\":11406:11698   */\n      iszero\n      tag_249\n      jumpi\n        /* \"#utility.yul\":11507:11513   */\n      dup2\n        /* \"#utility.yul\":11501:11514   */\n      mload\n        /* \"#utility.yul\":11534:11605   */\n      tag_250\n        /* \"#utility.yul\":11601:11604   */\n      dup9\n        /* \"#utility.yul\":11586:11599   */\n      dup3\n        /* \"#utility.yul\":11534:11605   */\n      tag_124\n      jump\t// in\n    tag_250:\n        /* \"#utility.yul\":11527:11605   */\n      swap8\n      pop\n        /* \"#utility.yul\":11628:11688   */\n      tag_251\n        /* \"#utility.yul\":11681:11687   */\n      dup4\n        /* \"#utility.yul\":11628:11688   */\n      tag_125\n      jump\t// in\n    tag_251:\n        /* \"#utility.yul\":11618:11688   */\n      swap3\n      pop\n        /* \"#utility.yul\":11466:11698   */\n      pop\n        /* \"#utility.yul\":11453:11454   */\n      0x01\n        /* \"#utility.yul\":11450:11451   */\n      dup2\n        /* \"#utility.yul\":11446:11455   */\n      add\n        /* \"#utility.yul\":11441:11455   */\n      swap1\n      pop\n        /* \"#utility.yul\":11406:11698   */\n      jump(tag_247)\n    tag_249:\n        /* \"#utility.yul\":11410:11424   */\n      pop\n        /* \"#utility.yul\":11714:11717   */\n      dup6\n        /* \"#utility.yul\":11707:11717   */\n      swap4\n      pop\n        /* \"#utility.yul\":11099:11723   */\n      pop\n      pop\n      pop\n        /* \"#utility.yul\":10967:11723   */\n      swap3\n      swap2\n      pop\n      pop\n      jump\t// out\n        /* \"#utility.yul\":11729:12118   */\n    tag_29:\n        /* \"#utility.yul\":11880:11884   */\n      0x00\n        /* \"#utility.yul\":11918:11920   */\n      0x20\n        /* \"#utility.yul\":11907:11916   */\n      dup3\n        /* \"#utility.yul\":11903:11921   */\n      add\n        /* \"#utility.yul\":11895:11921   */\n      swap1\n      pop\n        /* \"#utility.yul\":11967:11976   */\n      dup2\n        /* \"#utility.yul\":11961:11965   */\n      dup2\n        /* \"#utility.yul\":11957:11977   */\n      sub\n        /* \"#utility.yul\":11953:11954   */\n      0x00\n        /* \"#utility.yul\":11942:11951   */\n      dup4\n        /* \"#utility.yul\":11938:11955   */\n      add\n        /* \"#utility.yul\":11931:11978   */\n      mstore\n        /* \"#utility.yul\":11995:12111   */\n      tag_253\n        /* \"#utility.yul\":12106:12110   */\n      dup2\n        /* \"#utility.yul\":12097:12103   */\n      dup5\n        /* \"#utility.yul\":11995:12111   */\n      tag_126\n      jump\t// in\n    tag_253:\n        /* \"#utility.yul\":11987:12111   */\n      swap1\n      pop\n        /* \"#utility.yul\":11729:12118   */\n      swap3\n      swap2\n      pop\n      pop\n      jump\t// out\n        /* \"#utility.yul\":12124:12304   */\n    tag_44:\n        /* \"#utility.yul\":12172:12249   */\n      0x4e487b7100000000000000000000000000000000000000000000000000000000\n        /* \"#utility.yul\":12169:12170   */\n      0x00\n        /* \"#utility.yul\":12162:12250   */\n      mstore\n        /* \"#utility.yul\":12269:12273   */\n      0x32\n        /* \"#utility.yul\":12266:12267   */\n      0x04\n        /* \"#utility.yul\":12259:12274   */\n      mstore\n        /* \"#utility.yul\":12293:12297   */\n      0x24\n        /* \"#utility.yul\":12290:12291   */\n      0x00\n        /* \"#utility.yul\":12283:12298   */\n      revert\n        /* \"#utility.yul\":12310:12428   */\n    tag_127:\n        /* \"#utility.yul\":12397:12421   */\n      tag_256\n        /* \"#utility.yul\":12415:12420   */\n      dup2\n        /* \"#utility.yul\":12397:12421   */\n      tag_94\n      jump\t// in\n    tag_256:\n        /* \"#utility.yul\":12392:12395   */\n      dup3\n        /* \"#utility.yul\":12385:12422   */\n      mstore\n        /* \"#utility.yul\":12310:12428   */\n      pop\n      pop\n      jump\t// out\n        /* \"#utility.yul\":12434:12549   */\n    tag_128:\n        /* \"#utility.yul\":12519:12542   */\n      tag_258\n        /* \"#utility.yul\":12536:12541   */\n      dup2\n        /* \"#utility.yul\":12519:12542   */\n      tag_90\n      jump\t// in\n    tag_258:\n        /* \"#utility.yul\":12514:12517   */\n      dup3\n        /* \"#utility.yul\":12507:12543   */\n      mstore\n        /* \"#utility.yul\":12434:12549   */\n      pop\n      pop\n      jump\t// out\n        /* \"#utility.yul\":12555:12993   */\n    tag_61:\n        /* \"#utility.yul\":12702:12706   */\n      0x00\n        /* \"#utility.yul\":12740:12742   */\n      0x60\n        /* \"#utility.yul\":12729:12738   */\n      dup3\n        /* \"#utility.yul\":12725:12743   */\n      add\n        /* \"#utility.yul\":12717:12743   */\n      swap1\n      pop\n        /* \"#utility.yul\":12753:12824   */\n      tag_260\n        /* \"#utility.yul\":12821:12822   */\n      0x00\n        /* \"#utility.yul\":12810:12819   */\n      dup4\n        /* \"#utility.yul\":12806:12823   */\n      add\n        /* \"#utility.yul\":12797:12803   */\n      dup7\n        /* \"#utility.yul\":12753:12824   */\n      tag_127\n      jump\t// in\n    tag_260:\n        /* \"#utility.yul\":12834:12906   */\n      tag_261\n        /* \"#utility.yul\":12902:12904   */\n      0x20\n        /* \"#utility.yul\":12891:12900   */\n      dup4\n        /* \"#utility.yul\":12887:12905   */\n      add\n        /* \"#utility.yul\":12878:12884   */\n      dup6\n        /* \"#utility.yul\":12834:12906   */\n      tag_127\n      jump\t// in\n    tag_261:\n        /* \"#utility.yul\":12916:12986   */\n      tag_262\n        /* \"#utility.yul\":12982:12984   */\n      0x40\n        /* \"#utility.yul\":12971:12980   */\n      dup4\n        /* \"#utility.yul\":12967:12985   */\n      add\n        /* \"#utility.yul\":12958:12964   */\n      dup5\n        /* \"#utility.yul\":12916:12986   */\n      tag_128\n      jump\t// in\n    tag_262:\n        /* \"#utility.yul\":12555:12993   */\n      swap5\n      swap4\n      pop\n      pop\n      pop\n      pop\n      jump\t// out\n\n    auxdata: 0xa26469706673582212204308bbfef9c1d65e8f9de7fb1b1231ecba22879edd4c8f22b3aed8ef224633c264736f6c63430008170033\n}\n",
				"bytecode": {
					"linkReferences": {},
					"object": "610f6361004e600b8282823980515f1a607314610042577f4e487b71000000000000000000000000000000000000000000000000000000005f525f60045260245ffd5b305f52607381538281f3fe7300000000000000000000000000000000000000003014608060405260043610610060575f3560e01c806320e63d2a146100645780634b503f0b14610094578063a8f64352146100b2578063dcef0069146100da578063dfb808311461010a575b5f80fd5b61007e6004803603810190610079919061096c565b610128565b60405161008b91906109d6565b60405180910390f35b61009c6101e4565b6040516100a99190610aa6565b60405180910390f35b8180156100bd575f80fd5b506100d860048036038101906100d39190610d8f565b6102c1565b005b6100f460048036038101906100ef919061096c565b61058f565b60405161010191906109d6565b60405180910390f35b61011261064b565b60405161011f9190610e8d565b60405180910390f35b5f61016e6040518060400160405280600d81526020017f44796e616d6963526f75746572000000000000000000000000000000000000008152508051906020012061071c565b5f015f837bffffffffffffffffffffffffffffffffffffffffffffffffffffffff19167bffffffffffffffffffffffffffffffffffffffffffffffffffffffff191681526020019081526020015f205f9054906101000a900473ffffffffffffffffffffffffffffffffffffffff169050919050565b606061022b6040518060400160405280600d81526020017f44796e616d6963526f75746572000000000000000000000000000000000000008152508051906020012061071c565b6001018054806020026020016040519081016040528092919081815260200182805480156102b757602002820191905f5260205f20905f905b82829054906101000a900460e01b7bffffffffffffffffffffffffffffffffffffffffffffffffffffffff1916815260200190600401906020826003010492830192600103820291508084116102645790505b5050505050905090565b5f6103076040518060400160405280600d81526020017f44796e616d6963526f75746572000000000000000000000000000000000000008152508051906020012061071c565b90505f5b825181101561058a575f83828151811061032857610327610ead565b5b602002602001015190505f5b81602001515181101561057d575f8260200151828151811061035957610358610ead565b5b602002602001015190505f835f0151905061037382610725565b1580156103ac57505f73ffffffffffffffffffffffffffffffffffffffff168173ffffffffffffffffffffffffffffffffffffffff1614155b156103fd578560010182908060018154018082558091505060019003905f5260205f2090600891828204019190066004029091909190916101000a81548163ffffffff021916908360e01c02179055505b6104068161081b565b15801561043f57505f73ffffffffffffffffffffffffffffffffffffffff168173ffffffffffffffffffffffffffffffffffffffff1614155b156104a7578560020181908060018154018082558091505060019003905f5260205f20015f9091909190916101000a81548173ffffffffffffffffffffffffffffffffffffffff021916908373ffffffffffffffffffffffffffffffffffffffff1602179055505b80865f015f847bffffffffffffffffffffffffffffffffffffffffffffffffffffffff19167bffffffffffffffffffffffffffffffffffffffffffffffffffffffff191681526020019081526020015f205f6101000a81548173ffffffffffffffffffffffffffffffffffffffff021916908373ffffffffffffffffffffffffffffffffffffffff1602179055507f314760e63cd5315a4cf28c679a1885b84249533d4156a7ebd02675626493a25533828460405161056893929190610ef8565b60405180910390a15050806001019050610334565b505080600101905061030b565b505050565b5f6105d56040518060400160405280600d81526020017f44796e616d6963526f75746572000000000000000000000000000000000000008152508051906020012061071c565b5f015f837bffffffffffffffffffffffffffffffffffffffffffffffffffffffff19167bffffffffffffffffffffffffffffffffffffffffffffffffffffffff191681526020019081526020015f205f9054906101000a900473ffffffffffffffffffffffffffffffffffffffff169050919050565b60606106926040518060400160405280600d81526020017f44796e616d6963526f75746572000000000000000000000000000000000000008152508051906020012061071c565b60020180548060200260200160405190810160405280929190818152602001828054801561071257602002820191905f5260205f20905b815f9054906101000a900473ffffffffffffffffffffffffffffffffffffffff1673ffffffffffffffffffffffffffffffffffffffff16815260200190600101908083116106c9575b5050505050905090565b5f819050919050565b5f8061076c6040518060400160405280600d81526020017f44796e616d6963526f75746572000000000000000000000000000000000000008152508051906020012061071c565b90505f5b81600101805490508110156108105781600101818154811061079557610794610ead565b5b905f5260205f2090600891828204019190066004029054906101000a900460e01b7bffffffffffffffffffffffffffffffffffffffffffffffffffffffff1916847bffffffffffffffffffffffffffffffffffffffffffffffffffffffff19160361080557600192505050610816565b806001019050610770565b505f9150505b919050565b5f806108626040518060400160405280600d81526020017f44796e616d6963526f75746572000000000000000000000000000000000000008152508051906020012061071c565b90505f5b81600201805490508110156108fb5781600201818154811061088b5761088a610ead565b5b905f5260205f20015f9054906101000a900473ffffffffffffffffffffffffffffffffffffffff1673ffffffffffffffffffffffffffffffffffffffff168473ffffffffffffffffffffffffffffffffffffffff16036108f057600192505050610901565b806001019050610866565b505f9150505b919050565b5f604051905090565b5f80fd5b5f80fd5b5f7fffffffff0000000000000000000000000000000000000000000000000000000082169050919050565b61094b81610917565b8114610955575f80fd5b50565b5f8135905061096681610942565b92915050565b5f602082840312156109815761098061090f565b5b5f61098e84828501610958565b91505092915050565b5f73ffffffffffffffffffffffffffffffffffffffff82169050919050565b5f6109c082610997565b9050919050565b6109d0816109b6565b82525050565b5f6020820190506109e95f8301846109c7565b92915050565b5f81519050919050565b5f82825260208201905092915050565b5f819050602082019050919050565b610a2181610917565b82525050565b5f610a328383610a18565b60208301905092915050565b5f602082019050919050565b5f610a54826109ef565b610a5e81856109f9565b9350610a6983610a09565b805f5b83811015610a99578151610a808882610a27565b9750610a8b83610a3e565b925050600181019050610a6c565b5085935050505092915050565b5f6020820190508181035f830152610abe8184610a4a565b905092915050565b5f80fd5b5f601f19601f8301169050919050565b7f4e487b71000000000000000000000000000000000000000000000000000000005f52604160045260245ffd5b610b1082610aca565b810181811067ffffffffffffffff82111715610b2f57610b2e610ada565b5b80604052505050565b5f610b41610906565b9050610b4d8282610b07565b919050565b5f67ffffffffffffffff821115610b6c57610b6b610ada565b5b602082029050602081019050919050565b5f80fd5b5f80fd5b5f80fd5b610b92816109b6565b8114610b9c575f80fd5b50565b5f81359050610bad81610b89565b92915050565b5f67ffffffffffffffff821115610bcd57610bcc610ada565b5b602082029050602081019050919050565b5f610bf0610beb84610bb3565b610b38565b90508083825260208201905060208402830185811115610c1357610c12610b7d565b5b835b81811015610c3c5780610c288882610958565b845260208401935050602081019050610c15565b5050509392505050565b5f82601f830112610c5a57610c59610ac6565b5b8135610c6a848260208601610bde565b91505092915050565b5f60408284031215610c8857610c87610b81565b5b610c926040610b38565b90505f610ca184828501610b9f565b5f83015250602082013567ffffffffffffffff811115610cc457610cc3610b85565b5b610cd084828501610c46565b60208301525092915050565b5f610cee610ce984610b52565b610b38565b90508083825260208201905060208402830185811115610d1157610d10610b7d565b5b835b81811015610d5857803567ffffffffffffffff811115610d3657610d35610ac6565b5b808601610d438982610c73565b85526020850194505050602081019050610d13565b5050509392505050565b5f82601f830112610d7657610d75610ac6565b5b8135610d86848260208601610cdc565b91505092915050565b5f60208284031215610da457610da361090f565b5b5f82013567ffffffffffffffff811115610dc157610dc0610913565b5b610dcd84828501610d62565b91505092915050565b5f81519050919050565b5f82825260208201905092915050565b5f819050602082019050919050565b610e08816109b6565b82525050565b5f610e198383610dff565b60208301905092915050565b5f602082019050919050565b5f610e3b82610dd6565b610e458185610de0565b9350610e5083610df0565b805f5b83811015610e80578151610e678882610e0e565b9750610e7283610e25565b925050600181019050610e53565b5085935050505092915050565b5f6020820190508181035f830152610ea58184610e31565b905092915050565b7f4e487b71000000000000000000000000000000000000000000000000000000005f52603260045260245ffd5b610ee3816109b6565b82525050565b610ef281610917565b82525050565b5f606082019050610f0b5f830186610eda565b610f186020830185610eda565b610f256040830184610ee9565b94935050505056fea26469706673582212204308bbfef9c1d65e8f9de7fb1b1231ecba22879edd4c8f22b3aed8ef224633c264736f6c63430008170033",
					"opcodes": "PUSH2 0xF63 PUSH2 0x4E PUSH1 0xB DUP3 DUP3 DUP3 CODECOPY DUP1 MLOAD PUSH0 BYTE PUSH1 0x73 EQ PUSH2 0x42 JUMPI PUSH32 0x4E487B7100000000000000000000000000000000000000000000000000000000 PUSH0 MSTORE PUSH0 PUSH1 0x4 MSTORE PUSH1 0x24 PUSH0 REVERT JUMPDEST ADDRESS PUSH0 MSTORE PUSH1 0x73 DUP2 MSTORE8 DUP3 DUP2 RETURN INVALID PUSH20 0x0 ADDRESS EQ PUSH1 0x80 PUSH1 0x40 MSTORE PUSH1 0x4 CALLDATASIZE LT PUSH2 0x60 JUMPI PUSH0 CALLDATALOAD PUSH1 0xE0 SHR DUP1 PUSH4 0x20E63D2A EQ PUSH2 0x64 JUMPI DUP1 PUSH4 0x4B503F0B EQ PUSH2 0x94 JUMPI DUP1 PUSH4 0xA8F64352 EQ PUSH2 0xB2 JUMPI DUP1 PUSH4 0xDCEF0069 EQ PUSH2 0xDA JUMPI DUP1 PUSH4 0xDFB80831 EQ PUSH2 0x10A JUMPI JUMPDEST PUSH0 DUP1 REVERT JUMPDEST PUSH2 0x7E PUSH1 0x4 DUP1 CALLDATASIZE SUB DUP2 ADD SWAP1 PUSH2 0x79 SWAP2 SWAP1 PUSH2 0x96C JUMP JUMPDEST PUSH2 0x128 JUMP JUMPDEST PUSH1 0x40 MLOAD PUSH2 0x8B SWAP2 SWAP1 PUSH2 0x9D6 JUMP JUMPDEST PUSH1 0x40 MLOAD DUP1 SWAP2 SUB SWAP1 RETURN JUMPDEST PUSH2 0x9C PUSH2 0x1E4 JUMP JUMPDEST PUSH1 0x40 MLOAD PUSH2 0xA9 SWAP2 SWAP1 PUSH2 0xAA6 JUMP JUMPDEST PUSH1 0x40 MLOAD DUP1 SWAP2 SUB SWAP1 RETURN JUMPDEST DUP2 DUP1 ISZERO PUSH2 0xBD JUMPI PUSH0 DUP1 REVERT JUMPDEST POP PUSH2 0xD8 PUSH1 0x4 DUP1 CALLDATASIZE SUB DUP2 ADD SWAP1 PUSH2 0xD3 SWAP2 SWAP1 PUSH2 0xD8F JUMP JUMPDEST PUSH2 0x2C1 JUMP JUMPDEST STOP JUMPDEST PUSH2 0xF4 PUSH1 0x4 DUP1 CALLDATASIZE SUB DUP2 ADD SWAP1 PUSH2 0xEF SWAP2 SWAP1 PUSH2 0x96C JUMP JUMPDEST PUSH2 0x58F JUMP JUMPDEST PUSH1 0x40 MLOAD PUSH2 0x101 SWAP2 SWAP1 PUSH2 0x9D6 JUMP JUMPDEST PUSH1 0x40 MLOAD DUP1 SWAP2 SUB SWAP1 RETURN JUMPDEST PUSH2 0x112 PUSH2 0x64B JUMP JUMPDEST PUSH1 0x40 MLOAD PUSH2 0x11F SWAP2 SWAP1 PUSH2 0xE8D JUMP JUMPDEST PUSH1 0x40 MLOAD DUP1 SWAP2 SUB SWAP1 RETURN JUMPDEST PUSH0 PUSH2 0x16E PUSH1 0x40 MLOAD DUP1 PUSH1 0x40 ADD PUSH1 0x40 MSTORE DUP1 PUSH1 0xD DUP2 MSTORE PUSH1 0x20 ADD PUSH32 0x44796E616D6963526F7574657200000000000000000000000000000000000000 DUP2 MSTORE POP DUP1 MLOAD SWAP1 PUSH1 0x20 ADD KECCAK256 PUSH2 0x71C JUMP JUMPDEST PUSH0 ADD PUSH0 DUP4 PUSH28 0xFFFFFFFFFFFFFFFFFFFFFFFFFFFFFFFFFFFFFFFFFFFFFFFFFFFFFFFF NOT AND PUSH28 0xFFFFFFFFFFFFFFFFFFFFFFFFFFFFFFFFFFFFFFFFFFFFFFFFFFFFFFFF NOT AND DUP2 MSTORE PUSH1 0x20 ADD SWAP1 DUP2 MSTORE PUSH1 0x20 ADD PUSH0 KECCAK256 PUSH0 SWAP1 SLOAD SWAP1 PUSH2 0x100 EXP SWAP1 DIV PUSH20 0xFFFFFFFFFFFFFFFFFFFFFFFFFFFFFFFFFFFFFFFF AND SWAP1 POP SWAP2 SWAP1 POP JUMP JUMPDEST PUSH1 0x60 PUSH2 0x22B PUSH1 0x40 MLOAD DUP1 PUSH1 0x40 ADD PUSH1 0x40 MSTORE DUP1 PUSH1 0xD DUP2 MSTORE PUSH1 0x20 ADD PUSH32 0x44796E616D6963526F7574657200000000000000000000000000000000000000 DUP2 MSTORE POP DUP1 MLOAD SWAP1 PUSH1 0x20 ADD KECCAK256 PUSH2 0x71C JUMP JUMPDEST PUSH1 0x1 ADD DUP1 SLOAD DUP1 PUSH1 0x20 MUL PUSH1 0x20 ADD PUSH1 0x40 MLOAD SWAP1 DUP2 ADD PUSH1 0x40 MSTORE DUP1 SWAP3 SWAP2 SWAP1 DUP2 DUP2 MSTORE PUSH1 0x20 ADD DUP3 DUP1 SLOAD DUP1 ISZERO PUSH2 0x2B7 JUMPI PUSH1 0x20 MUL DUP3 ADD SWAP2 SWAP1 PUSH0 MSTORE PUSH1 0x20 PUSH0 KECCAK256 SWAP1 PUSH0 SWAP1 JUMPDEST DUP3 DUP3 SWAP1 SLOAD SWAP1 PUSH2 0x100 EXP SWAP1 DIV PUSH1 0xE0 SHL PUSH28 0xFFFFFFFFFFFFFFFFFFFFFFFFFFFFFFFFFFFFFFFFFFFFFFFFFFFFFFFF NOT AND DUP2 MSTORE PUSH1 0x20 ADD SWAP1 PUSH1 0x4 ADD SWAP1 PUSH1 0x20 DUP3 PUSH1 0x3 ADD DIV SWAP3 DUP4 ADD SWAP3 PUSH1 0x1 SUB DUP3 MUL SWAP2 POP DUP1 DUP5 GT PUSH2 0x264 JUMPI SWAP1 POP JUMPDEST POP POP POP POP POP SWAP1 POP SWAP1 JUMP JUMPDEST PUSH0 PUSH2 0x307 PUSH1 0x40 MLOAD DUP1 PUSH1 0x40 ADD PUSH1 0x40 MSTORE DUP1 PUSH1 0xD DUP2 MSTORE PUSH1 0x20 ADD PUSH32 0x44796E616D6963526F7574657200000000000000000000000000000000000000 DUP2 MSTORE POP DUP1 MLOAD SWAP1 PUSH1 0x20 ADD KECCAK256 PUSH2 0x71C JUMP JUMPDEST SWAP1 POP PUSH0 JUMPDEST DUP3 MLOAD DUP2 LT ISZERO PUSH2 0x58A JUMPI PUSH0 DUP4 DUP3 DUP2 MLOAD DUP2 LT PUSH2 0x328 JUMPI PUSH2 0x327 PUSH2 0xEAD JUMP JUMPDEST JUMPDEST PUSH1 0x20 MUL PUSH1 0x20 ADD ADD MLOAD SWAP1 POP PUSH0 JUMPDEST DUP2 PUSH1 0x20 ADD MLOAD MLOAD DUP2 LT ISZERO PUSH2 0x57D JUMPI PUSH0 DUP3 PUSH1 0x20 ADD MLOAD DUP3 DUP2 MLOAD DUP2 LT PUSH2 0x359 JUMPI PUSH2 0x358 PUSH2 0xEAD JUMP JUMPDEST JUMPDEST PUSH1 0x20 MUL PUSH1 0x20 ADD ADD MLOAD SWAP1 POP PUSH0 DUP4 PUSH0 ADD MLOAD SWAP1 POP PUSH2 0x373 DUP3 PUSH2 0x725 JUMP JUMPDEST ISZERO DUP1 ISZERO PUSH2 0x3AC JUMPI POP PUSH0 PUSH20 0xFFFFFFFFFFFFFFFFFFFFFFFFFFFFFFFFFFFFFFFF AND DUP2 PUSH20 0xFFFFFFFFFFFFFFFFFFFFFFFFFFFFFFFFFFFFFFFF AND EQ ISZERO JUMPDEST ISZERO PUSH2 0x3FD JUMPI DUP6 PUSH1 0x1 ADD DUP3 SWAP1 DUP1 PUSH1 0x1 DUP2 SLOAD ADD DUP1 DUP3 SSTORE DUP1 SWAP2 POP POP PUSH1 0x1 SWAP1 SUB SWAP1 PUSH0 MSTORE PUSH1 0x20 PUSH0 KECCAK256 SWAP1 PUSH1 0x8 SWAP2 DUP3 DUP3 DIV ADD SWAP2 SWAP1 MOD PUSH1 0x4 MUL SWAP1 SWAP2 SWAP1 SWAP2 SWAP1 SWAP2 PUSH2 0x100 EXP DUP2 SLOAD DUP2 PUSH4 0xFFFFFFFF MUL NOT AND SWAP1 DUP4 PUSH1 0xE0 SHR MUL OR SWAP1 SSTORE POP JUMPDEST PUSH2 0x406 DUP2 PUSH2 0x81B JUMP JUMPDEST ISZERO DUP1 ISZERO PUSH2 0x43F JUMPI POP PUSH0 PUSH20 0xFFFFFFFFFFFFFFFFFFFFFFFFFFFFFFFFFFFFFFFF AND DUP2 PUSH20 0xFFFFFFFFFFFFFFFFFFFFFFFFFFFFFFFFFFFFFFFF AND EQ ISZERO JUMPDEST ISZERO PUSH2 0x4A7 JUMPI DUP6 PUSH1 0x2 ADD DUP2 SWAP1 DUP1 PUSH1 0x1 DUP2 SLOAD ADD DUP1 DUP3 SSTORE DUP1 SWAP2 POP POP PUSH1 0x1 SWAP1 SUB SWAP1 PUSH0 MSTORE PUSH1 0x20 PUSH0 KECCAK256 ADD PUSH0 SWAP1 SWAP2 SWAP1 SWAP2 SWAP1 SWAP2 PUSH2 0x100 EXP DUP2 SLOAD DUP2 PUSH20 0xFFFFFFFFFFFFFFFFFFFFFFFFFFFFFFFFFFFFFFFF MUL NOT AND SWAP1 DUP4 PUSH20 0xFFFFFFFFFFFFFFFFFFFFFFFFFFFFFFFFFFFFFFFF AND MUL OR SWAP1 SSTORE POP JUMPDEST DUP1 DUP7 PUSH0 ADD PUSH0 DUP5 PUSH28 0xFFFFFFFFFFFFFFFFFFFFFFFFFFFFFFFFFFFFFFFFFFFFFFFFFFFFFFFF NOT AND PUSH28 0xFFFFFFFFFFFFFFFFFFFFFFFFFFFFFFFFFFFFFFFFFFFFFFFFFFFFFFFF NOT AND DUP2 MSTORE PUSH1 0x20 ADD SWAP1 DUP2 MSTORE PUSH1 0x20 ADD PUSH0 KECCAK256 PUSH0 PUSH2 0x100 EXP DUP2 SLOAD DUP2 PUSH20 0xFFFFFFFFFFFFFFFFFFFFFFFFFFFFFFFFFFFFFFFF MUL NOT AND SWAP1 DUP4 PUSH20 0xFFFFFFFFFFFFFFFFFFFFFFFFFFFFFFFFFFFFFFFF AND MUL OR SWAP1 SSTORE POP PUSH32 0x314760E63CD5315A4CF28C679A1885B84249533D4156A7EBD02675626493A255 CALLER DUP3 DUP5 PUSH1 0x40 MLOAD PUSH2 0x568 SWAP4 SWAP3 SWAP2 SWAP1 PUSH2 0xEF8 JUMP JUMPDEST PUSH1 0x40 MLOAD DUP1 SWAP2 SUB SWAP1 LOG1 POP POP DUP1 PUSH1 0x1 ADD SWAP1 POP PUSH2 0x334 JUMP JUMPDEST POP POP DUP1 PUSH1 0x1 ADD SWAP1 POP PUSH2 0x30B JUMP JUMPDEST POP POP POP JUMP JUMPDEST PUSH0 PUSH2 0x5D5 PUSH1 0x40 MLOAD DUP1 PUSH1 0x40 ADD PUSH1 0x40 MSTORE DUP1 PUSH1 0xD DUP2 MSTORE PUSH1 0x20 ADD PUSH32 0x44796E616D6963526F7574657200000000000000000000000000000000000000 DUP2 MSTORE POP DUP1 MLOAD SWAP1 PUSH1 0x20 ADD KECCAK256 PUSH2 0x71C JUMP JUMPDEST PUSH0 ADD PUSH0 DUP4 PUSH28 0xFFFFFFFFFFFFFFFFFFFFFFFFFFFFFFFFFFFFFFFFFFFFFFFFFFFFFFFF NOT AND PUSH28 0xFFFFFFFFFFFFFFFFFFFFFFFFFFFFFFFFFFFFFFFFFFFFFFFFFFFFFFFF NOT AND DUP2 MSTORE PUSH1 0x20 ADD SWAP1 DUP2 MSTORE PUSH1 0x20 ADD PUSH0 KECCAK256 PUSH0 SWAP1 SLOAD SWAP1 PUSH2 0x100 EXP SWAP1 DIV PUSH20 0xFFFFFFFFFFFFFFFFFFFFFFFFFFFFFFFFFFFFFFFF AND SWAP1 POP SWAP2 SWAP1 POP JUMP JUMPDEST PUSH1 0x60 PUSH2 0x692 PUSH1 0x40 MLOAD DUP1 PUSH1 0x40 ADD PUSH1 0x40 MSTORE DUP1 PUSH1 0xD DUP2 MSTORE PUSH1 0x20 ADD PUSH32 0x44796E616D6963526F7574657200000000000000000000000000000000000000 DUP2 MSTORE POP DUP1 MLOAD SWAP1 PUSH1 0x20 ADD KECCAK256 PUSH2 0x71C JUMP JUMPDEST PUSH1 0x2 ADD DUP1 SLOAD DUP1 PUSH1 0x20 MUL PUSH1 0x20 ADD PUSH1 0x40 MLOAD SWAP1 DUP2 ADD PUSH1 0x40 MSTORE DUP1 SWAP3 SWAP2 SWAP1 DUP2 DUP2 MSTORE PUSH1 0x20 ADD DUP3 DUP1 SLOAD DUP1 ISZERO PUSH2 0x712 JUMPI PUSH1 0x20 MUL DUP3 ADD SWAP2 SWAP1 PUSH0 MSTORE PUSH1 0x20 PUSH0 KECCAK256 SWAP1 JUMPDEST DUP2 PUSH0 SWAP1 SLOAD SWAP1 PUSH2 0x100 EXP SWAP1 DIV PUSH20 0xFFFFFFFFFFFFFFFFFFFFFFFFFFFFFFFFFFFFFFFF AND PUSH20 0xFFFFFFFFFFFFFFFFFFFFFFFFFFFFFFFFFFFFFFFF AND DUP2 MSTORE PUSH1 0x20 ADD SWAP1 PUSH1 0x1 ADD SWAP1 DUP1 DUP4 GT PUSH2 0x6C9 JUMPI JUMPDEST POP POP POP POP POP SWAP1 POP SWAP1 JUMP JUMPDEST PUSH0 DUP2 SWAP1 POP SWAP2 SWAP1 POP JUMP JUMPDEST PUSH0 DUP1 PUSH2 0x76C PUSH1 0x40 MLOAD DUP1 PUSH1 0x40 ADD PUSH1 0x40 MSTORE DUP1 PUSH1 0xD DUP2 MSTORE PUSH1 0x20 ADD PUSH32 0x44796E616D6963526F7574657200000000000000000000000000000000000000 DUP2 MSTORE POP DUP1 MLOAD SWAP1 PUSH1 0x20 ADD KECCAK256 PUSH2 0x71C JUMP JUMPDEST SWAP1 POP PUSH0 JUMPDEST DUP2 PUSH1 0x1 ADD DUP1 SLOAD SWAP1 POP DUP2 LT ISZERO PUSH2 0x810 JUMPI DUP2 PUSH1 0x1 ADD DUP2 DUP2 SLOAD DUP2 LT PUSH2 0x795 JUMPI PUSH2 0x794 PUSH2 0xEAD JUMP JUMPDEST JUMPDEST SWAP1 PUSH0 MSTORE PUSH1 0x20 PUSH0 KECCAK256 SWAP1 PUSH1 0x8 SWAP2 DUP3 DUP3 DIV ADD SWAP2 SWAP1 MOD PUSH1 0x4 MUL SWAP1 SLOAD SWAP1 PUSH2 0x100 EXP SWAP1 DIV PUSH1 0xE0 SHL PUSH28 0xFFFFFFFFFFFFFFFFFFFFFFFFFFFFFFFFFFFFFFFFFFFFFFFFFFFFFFFF NOT AND DUP5 PUSH28 0xFFFFFFFFFFFFFFFFFFFFFFFFFFFFFFFFFFFFFFFFFFFFFFFFFFFFFFFF NOT AND SUB PUSH2 0x805 JUMPI PUSH1 0x1 SWAP3 POP POP POP PUSH2 0x816 JUMP JUMPDEST DUP1 PUSH1 0x1 ADD SWAP1 POP PUSH2 0x770 JUMP JUMPDEST POP PUSH0 SWAP2 POP POP JUMPDEST SWAP2 SWAP1 POP JUMP JUMPDEST PUSH0 DUP1 PUSH2 0x862 PUSH1 0x40 MLOAD DUP1 PUSH1 0x40 ADD PUSH1 0x40 MSTORE DUP1 PUSH1 0xD DUP2 MSTORE PUSH1 0x20 ADD PUSH32 0x44796E616D6963526F7574657200000000000000000000000000000000000000 DUP2 MSTORE POP DUP1 MLOAD SWAP1 PUSH1 0x20 ADD KECCAK256 PUSH2 0x71C JUMP JUMPDEST SWAP1 POP PUSH0 JUMPDEST DUP2 PUSH1 0x2 ADD DUP1 SLOAD SWAP1 POP DUP2 LT ISZERO PUSH2 0x8FB JUMPI DUP2 PUSH1 0x2 ADD DUP2 DUP2 SLOAD DUP2 LT PUSH2 0x88B JUMPI PUSH2 0x88A PUSH2 0xEAD JUMP JUMPDEST JUMPDEST SWAP1 PUSH0 MSTORE PUSH1 0x20 PUSH0 KECCAK256 ADD PUSH0 SWAP1 SLOAD SWAP1 PUSH2 0x100 EXP SWAP1 DIV PUSH20 0xFFFFFFFFFFFFFFFFFFFFFFFFFFFFFFFFFFFFFFFF AND PUSH20 0xFFFFFFFFFFFFFFFFFFFFFFFFFFFFFFFFFFFFFFFF AND DUP5 PUSH20 0xFFFFFFFFFFFFFFFFFFFFFFFFFFFFFFFFFFFFFFFF AND SUB PUSH2 0x8F0 JUMPI PUSH1 0x1 SWAP3 POP POP POP PUSH2 0x901 JUMP JUMPDEST DUP1 PUSH1 0x1 ADD SWAP1 POP PUSH2 0x866 JUMP JUMPDEST POP PUSH0 SWAP2 POP POP JUMPDEST SWAP2 SWAP1 POP JUMP JUMPDEST PUSH0 PUSH1 0x40 MLOAD SWAP1 POP SWAP1 JUMP JUMPDEST PUSH0 DUP1 REVERT JUMPDEST PUSH0 DUP1 REVERT JUMPDEST PUSH0 PUSH32 0xFFFFFFFF00000000000000000000000000000000000000000000000000000000 DUP3 AND SWAP1 POP SWAP2 SWAP1 POP JUMP JUMPDEST PUSH2 0x94B DUP2 PUSH2 0x917 JUMP JUMPDEST DUP2 EQ PUSH2 0x955 JUMPI PUSH0 DUP1 REVERT JUMPDEST POP JUMP JUMPDEST PUSH0 DUP2 CALLDATALOAD SWAP1 POP PUSH2 0x966 DUP2 PUSH2 0x942 JUMP JUMPDEST SWAP3 SWAP2 POP POP JUMP JUMPDEST PUSH0 PUSH1 0x20 DUP3 DUP5 SUB SLT ISZERO PUSH2 0x981 JUMPI PUSH2 0x980 PUSH2 0x90F JUMP JUMPDEST JUMPDEST PUSH0 PUSH2 0x98E DUP5 DUP3 DUP6 ADD PUSH2 0x958 JUMP JUMPDEST SWAP2 POP POP SWAP3 SWAP2 POP POP JUMP JUMPDEST PUSH0 PUSH20 0xFFFFFFFFFFFFFFFFFFFFFFFFFFFFFFFFFFFFFFFF DUP3 AND SWAP1 POP SWAP2 SWAP1 POP JUMP JUMPDEST PUSH0 PUSH2 0x9C0 DUP3 PUSH2 0x997 JUMP JUMPDEST SWAP1 POP SWAP2 SWAP1 POP JUMP JUMPDEST PUSH2 0x9D0 DUP2 PUSH2 0x9B6 JUMP JUMPDEST DUP3 MSTORE POP POP JUMP JUMPDEST PUSH0 PUSH1 0x20 DUP3 ADD SWAP1 POP PUSH2 0x9E9 PUSH0 DUP4 ADD DUP5 PUSH2 0x9C7 JUMP JUMPDEST SWAP3 SWAP2 POP POP JUMP JUMPDEST PUSH0 DUP2 MLOAD SWAP1 POP SWAP2 SWAP1 POP JUMP JUMPDEST PUSH0 DUP3 DUP3 MSTORE PUSH1 0x20 DUP3 ADD SWAP1 POP SWAP3 SWAP2 POP POP JUMP JUMPDEST PUSH0 DUP2 SWAP1 POP PUSH1 0x20 DUP3 ADD SWAP1 POP SWAP2 SWAP1 POP JUMP JUMPDEST PUSH2 0xA21 DUP2 PUSH2 0x917 JUMP JUMPDEST DUP3 MSTORE POP POP JUMP JUMPDEST PUSH0 PUSH2 0xA32 DUP4 DUP4 PUSH2 0xA18 JUMP JUMPDEST PUSH1 0x20 DUP4 ADD SWAP1 POP SWAP3 SWAP2 POP POP JUMP JUMPDEST PUSH0 PUSH1 0x20 DUP3 ADD SWAP1 POP SWAP2 SWAP1 POP JUMP JUMPDEST PUSH0 PUSH2 0xA54 DUP3 PUSH2 0x9EF JUMP JUMPDEST PUSH2 0xA5E DUP2 DUP6 PUSH2 0x9F9 JUMP JUMPDEST SWAP4 POP PUSH2 0xA69 DUP4 PUSH2 0xA09 JUMP JUMPDEST DUP1 PUSH0 JUMPDEST DUP4 DUP2 LT ISZERO PUSH2 0xA99 JUMPI DUP2 MLOAD PUSH2 0xA80 DUP9 DUP3 PUSH2 0xA27 JUMP JUMPDEST SWAP8 POP PUSH2 0xA8B DUP4 PUSH2 0xA3E JUMP JUMPDEST SWAP3 POP POP PUSH1 0x1 DUP2 ADD SWAP1 POP PUSH2 0xA6C JUMP JUMPDEST POP DUP6 SWAP4 POP POP POP POP SWAP3 SWAP2 POP POP JUMP JUMPDEST PUSH0 PUSH1 0x20 DUP3 ADD SWAP1 POP DUP2 DUP2 SUB PUSH0 DUP4 ADD MSTORE PUSH2 0xABE DUP2 DUP5 PUSH2 0xA4A JUMP JUMPDEST SWAP1 POP SWAP3 SWAP2 POP POP JUMP JUMPDEST PUSH0 DUP1 REVERT JUMPDEST PUSH0 PUSH1 0x1F NOT PUSH1 0x1F DUP4 ADD AND SWAP1 POP SWAP2 SWAP1 POP JUMP JUMPDEST PUSH32 0x4E487B7100000000000000000000000000000000000000000000000000000000 PUSH0 MSTORE PUSH1 0x41 PUSH1 0x4 MSTORE PUSH1 0x24 PUSH0 REVERT JUMPDEST PUSH2 0xB10 DUP3 PUSH2 0xACA JUMP JUMPDEST DUP2 ADD DUP2 DUP2 LT PUSH8 0xFFFFFFFFFFFFFFFF DUP3 GT OR ISZERO PUSH2 0xB2F JUMPI PUSH2 0xB2E PUSH2 0xADA JUMP JUMPDEST JUMPDEST DUP1 PUSH1 0x40 MSTORE POP POP POP JUMP JUMPDEST PUSH0 PUSH2 0xB41 PUSH2 0x906 JUMP JUMPDEST SWAP1 POP PUSH2 0xB4D DUP3 DUP3 PUSH2 0xB07 JUMP JUMPDEST SWAP2 SWAP1 POP JUMP JUMPDEST PUSH0 PUSH8 0xFFFFFFFFFFFFFFFF DUP3 GT ISZERO PUSH2 0xB6C JUMPI PUSH2 0xB6B PUSH2 0xADA JUMP JUMPDEST JUMPDEST PUSH1 0x20 DUP3 MUL SWAP1 POP PUSH1 0x20 DUP2 ADD SWAP1 POP SWAP2 SWAP1 POP JUMP JUMPDEST PUSH0 DUP1 REVERT JUMPDEST PUSH0 DUP1 REVERT JUMPDEST PUSH0 DUP1 REVERT JUMPDEST PUSH2 0xB92 DUP2 PUSH2 0x9B6 JUMP JUMPDEST DUP2 EQ PUSH2 0xB9C JUMPI PUSH0 DUP1 REVERT JUMPDEST POP JUMP JUMPDEST PUSH0 DUP2 CALLDATALOAD SWAP1 POP PUSH2 0xBAD DUP2 PUSH2 0xB89 JUMP JUMPDEST SWAP3 SWAP2 POP POP JUMP JUMPDEST PUSH0 PUSH8 0xFFFFFFFFFFFFFFFF DUP3 GT ISZERO PUSH2 0xBCD JUMPI PUSH2 0xBCC PUSH2 0xADA JUMP JUMPDEST JUMPDEST PUSH1 0x20 DUP3 MUL SWAP1 POP PUSH1 0x20 DUP2 ADD SWAP1 POP SWAP2 SWAP1 POP JUMP JUMPDEST PUSH0 PUSH2 0xBF0 PUSH2 0xBEB DUP5 PUSH2 0xBB3 JUMP JUMPDEST PUSH2 0xB38 JUMP JUMPDEST SWAP1 POP DUP1 DUP4 DUP3 MSTORE PUSH1 0x20 DUP3 ADD SWAP1 POP PUSH1 0x20 DUP5 MUL DUP4 ADD DUP6 DUP2 GT ISZERO PUSH2 0xC13 JUMPI PUSH2 0xC12 PUSH2 0xB7D JUMP JUMPDEST JUMPDEST DUP4 JUMPDEST DUP2 DUP2 LT ISZERO PUSH2 0xC3C JUMPI DUP1 PUSH2 0xC28 DUP9 DUP3 PUSH2 0x958 JUMP JUMPDEST DUP5 MSTORE PUSH1 0x20 DUP5 ADD SWAP4 POP POP PUSH1 0x20 DUP2 ADD SWAP1 POP PUSH2 0xC15 JUMP JUMPDEST POP POP POP SWAP4 SWAP3 POP POP POP JUMP JUMPDEST PUSH0 DUP3 PUSH1 0x1F DUP4 ADD SLT PUSH2 0xC5A JUMPI PUSH2 0xC59 PUSH2 0xAC6 JUMP JUMPDEST JUMPDEST DUP2 CALLDATALOAD PUSH2 0xC6A DUP5 DUP3 PUSH1 0x20 DUP7 ADD PUSH2 0xBDE JUMP JUMPDEST SWAP2 POP POP SWAP3 SWAP2 POP POP JUMP JUMPDEST PUSH0 PUSH1 0x40 DUP3 DUP5 SUB SLT ISZERO PUSH2 0xC88 JUMPI PUSH2 0xC87 PUSH2 0xB81 JUMP JUMPDEST JUMPDEST PUSH2 0xC92 PUSH1 0x40 PUSH2 0xB38 JUMP JUMPDEST SWAP1 POP PUSH0 PUSH2 0xCA1 DUP5 DUP3 DUP6 ADD PUSH2 0xB9F JUMP JUMPDEST PUSH0 DUP4 ADD MSTORE POP PUSH1 0x20 DUP3 ADD CALLDATALOAD PUSH8 0xFFFFFFFFFFFFFFFF DUP2 GT ISZERO PUSH2 0xCC4 JUMPI PUSH2 0xCC3 PUSH2 0xB85 JUMP JUMPDEST JUMPDEST PUSH2 0xCD0 DUP5 DUP3 DUP6 ADD PUSH2 0xC46 JUMP JUMPDEST PUSH1 0x20 DUP4 ADD MSTORE POP SWAP3 SWAP2 POP POP JUMP JUMPDEST PUSH0 PUSH2 0xCEE PUSH2 0xCE9 DUP5 PUSH2 0xB52 JUMP JUMPDEST PUSH2 0xB38 JUMP JUMPDEST SWAP1 POP DUP1 DUP4 DUP3 MSTORE PUSH1 0x20 DUP3 ADD SWAP1 POP PUSH1 0x20 DUP5 MUL DUP4 ADD DUP6 DUP2 GT ISZERO PUSH2 0xD11 JUMPI PUSH2 0xD10 PUSH2 0xB7D JUMP JUMPDEST JUMPDEST DUP4 JUMPDEST DUP2 DUP2 LT ISZERO PUSH2 0xD58 JUMPI DUP1 CALLDATALOAD PUSH8 0xFFFFFFFFFFFFFFFF DUP2 GT ISZERO PUSH2 0xD36 JUMPI PUSH2 0xD35 PUSH2 0xAC6 JUMP JUMPDEST JUMPDEST DUP1 DUP7 ADD PUSH2 0xD43 DUP10 DUP3 PUSH2 0xC73 JUMP JUMPDEST DUP6 MSTORE PUSH1 0x20 DUP6 ADD SWAP5 POP POP POP PUSH1 0x20 DUP2 ADD SWAP1 POP PUSH2 0xD13 JUMP JUMPDEST POP POP POP SWAP4 SWAP3 POP POP POP JUMP JUMPDEST PUSH0 DUP3 PUSH1 0x1F DUP4 ADD SLT PUSH2 0xD76 JUMPI PUSH2 0xD75 PUSH2 0xAC6 JUMP JUMPDEST JUMPDEST DUP2 CALLDATALOAD PUSH2 0xD86 DUP5 DUP3 PUSH1 0x20 DUP7 ADD PUSH2 0xCDC JUMP JUMPDEST SWAP2 POP POP SWAP3 SWAP2 POP POP JUMP JUMPDEST PUSH0 PUSH1 0x20 DUP3 DUP5 SUB SLT ISZERO PUSH2 0xDA4 JUMPI PUSH2 0xDA3 PUSH2 0x90F JUMP JUMPDEST JUMPDEST PUSH0 DUP3 ADD CALLDATALOAD PUSH8 0xFFFFFFFFFFFFFFFF DUP2 GT ISZERO PUSH2 0xDC1 JUMPI PUSH2 0xDC0 PUSH2 0x913 JUMP JUMPDEST JUMPDEST PUSH2 0xDCD DUP5 DUP3 DUP6 ADD PUSH2 0xD62 JUMP JUMPDEST SWAP2 POP POP SWAP3 SWAP2 POP POP JUMP JUMPDEST PUSH0 DUP2 MLOAD SWAP1 POP SWAP2 SWAP1 POP JUMP JUMPDEST PUSH0 DUP3 DUP3 MSTORE PUSH1 0x20 DUP3 ADD SWAP1 POP SWAP3 SWAP2 POP POP JUMP JUMPDEST PUSH0 DUP2 SWAP1 POP PUSH1 0x20 DUP3 ADD SWAP1 POP SWAP2 SWAP1 POP JUMP JUMPDEST PUSH2 0xE08 DUP2 PUSH2 0x9B6 JUMP JUMPDEST DUP3 MSTORE POP POP JUMP JUMPDEST PUSH0 PUSH2 0xE19 DUP4 DUP4 PUSH2 0xDFF JUMP JUMPDEST PUSH1 0x20 DUP4 ADD SWAP1 POP SWAP3 SWAP2 POP POP JUMP JUMPDEST PUSH0 PUSH1 0x20 DUP3 ADD SWAP1 POP SWAP2 SWAP1 POP JUMP JUMPDEST PUSH0 PUSH2 0xE3B DUP3 PUSH2 0xDD6 JUMP JUMPDEST PUSH2 0xE45 DUP2 DUP6 PUSH2 0xDE0 JUMP JUMPDEST SWAP4 POP PUSH2 0xE50 DUP4 PUSH2 0xDF0 JUMP JUMPDEST DUP1 PUSH0 JUMPDEST DUP4 DUP2 LT ISZERO PUSH2 0xE80 JUMPI DUP2 MLOAD PUSH2 0xE67 DUP9 DUP3 PUSH2 0xE0E JUMP JUMPDEST SWAP8 POP PUSH2 0xE72 DUP4 PUSH2 0xE25 JUMP JUMPDEST SWAP3 POP POP PUSH1 0x1 DUP2 ADD SWAP1 POP PUSH2 0xE53 JUMP JUMPDEST POP DUP6 SWAP4 POP POP POP POP SWAP3 SWAP2 POP POP JUMP JUMPDEST PUSH0 PUSH1 0x20 DUP3 ADD SWAP1 POP DUP2 DUP2 SUB PUSH0 DUP4 ADD MSTORE PUSH2 0xEA5 DUP2 DUP5 PUSH2 0xE31 JUMP JUMPDEST SWAP1 POP SWAP3 SWAP2 POP POP JUMP JUMPDEST PUSH32 0x4E487B7100000000000000000000000000000000000000000000000000000000 PUSH0 MSTORE PUSH1 0x32 PUSH1 0x4 MSTORE PUSH1 0x24 PUSH0 REVERT JUMPDEST PUSH2 0xEE3 DUP2 PUSH2 0x9B6 JUMP JUMPDEST DUP3 MSTORE POP POP JUMP JUMPDEST PUSH2 0xEF2 DUP2 PUSH2 0x917 JUMP JUMPDEST DUP3 MSTORE POP POP JUMP JUMPDEST PUSH0 PUSH1 0x60 DUP3 ADD SWAP1 POP PUSH2 0xF0B PUSH0 DUP4 ADD DUP7 PUSH2 0xEDA JUMP JUMPDEST PUSH2 0xF18 PUSH1 0x20 DUP4 ADD DUP6 PUSH2 0xEDA JUMP JUMPDEST PUSH2 0xF25 PUSH1 0x40 DUP4 ADD DUP5 PUSH2 0xEE9 JUMP JUMPDEST SWAP5 SWAP4 POP POP POP POP JUMP INVALID LOG2 PUSH5 0x6970667358 0x22 SLT KECCAK256 NUMBER ADDMOD 0xBB INVALID 0xF9 0xC1 0xD6 0x5E DUP16 SWAP14 0xE7 0xFB SHL SLT BALANCE 0xEC 0xBA 0x22 DUP8 SWAP15 0xDD 0x4C DUP16 0x22 0xB3 0xAE 0xD8 0xEF 0x22 CHAINID CALLER 0xC2 PUSH5 0x736F6C6343 STOP ADDMOD OR STOP CALLER "
				},
				"gasEstimates": {
					"creation": {
						"codeDepositCost": "787800",
						"executionCost": "848",
						"totalCost": "788648"
					},
					"external": {
						"getImp(bytes4)": "2989",
						"getImpl()": "infinite",
						"getModule(bytes4)": "3055",
						"getSelectors()": "infinite",
						"updateModules(DynamicRouterStorage.moduleDefinition[])": "infinite"
					},
					"internal": {
						"_findModule(address)": "infinite",
						"_findSelector(bytes4)": "infinite",
						"_getModule(bytes4)": "infinite",
						"_getStorage(bytes32)": "27"
					}
				},
				"methodIdentifiers": {
					"getImp(bytes4)": "20e63d2a",
					"getImpl()": "dfb80831",
					"getModule(bytes4)": "dcef0069",
					"getSelectors()": "4b503f0b",
					"updateModules(DynamicRouterStorage.moduleDefinition[])": "a8f64352"
				}
			},
			"storageLayout": {
				"storage": [],
				"types": null
			},
			"userdoc": {
				"kind": "user",
				"methods": {},
				"version": 1
			}
		}
	}
}