{
	"contracts/test.sol": {
		"test": {
			"abi": [
				{
					"inputs": [],
					"name": "ApprovalCallerNotOwnerNorApproved",
					"type": "error"
				},
				{
					"inputs": [],
					"name": "ApprovalQueryForNonexistentToken",
					"type": "error"
				},
				{
					"inputs": [],
					"name": "BalanceQueryForZeroAddress",
					"type": "error"
				},
				{
					"inputs": [],
					"name": "MintERC2309QuantityExceedsLimit",
					"type": "error"
				},
				{
					"inputs": [],
					"name": "MintToZeroAddress",
					"type": "error"
				},
				{
					"inputs": [],
					"name": "MintZeroQuantity",
					"type": "error"
				},
				{
					"inputs": [],
					"name": "NotCompatibleWithSpotMints",
					"type": "error"
				},
				{
					"inputs": [],
					"name": "OwnerQueryForNonexistentToken",
					"type": "error"
				},
				{
					"inputs": [],
					"name": "OwnershipNotInitializedForExtraData",
					"type": "error"
				},
				{
					"inputs": [],
					"name": "SequentialMintExceedsLimit",
					"type": "error"
				},
				{
					"inputs": [],
					"name": "SequentialUpToTooSmall",
					"type": "error"
				},
				{
					"inputs": [],
					"name": "SpotMintTokenIdTooSmall",
					"type": "error"
				},
				{
					"inputs": [],
					"name": "TokenAlreadyExists",
					"type": "error"
				},
				{
					"inputs": [],
					"name": "TransferCallerNotOwnerNorApproved",
					"type": "error"
				},
				{
					"inputs": [],
					"name": "TransferFromIncorrectOwner",
					"type": "error"
				},
				{
					"inputs": [],
					"name": "TransferToNonERC721ReceiverImplementer",
					"type": "error"
				},
				{
					"inputs": [],
					"name": "TransferToZeroAddress",
					"type": "error"
				},
				{
					"inputs": [],
					"name": "URIQueryForNonexistentToken",
					"type": "error"
				},
				{
					"inputs": [],
					"name": "_BITMASK_ADDRESS",
					"outputs": [
						{
							"internalType": "uint256",
							"name": "",
							"type": "uint256"
						}
					],
					"stateMutability": "view",
					"type": "function"
				},
				{
					"inputs": [],
					"name": "_BITMASK_ADDRESS_DATA_ENTRY",
					"outputs": [
						{
							"internalType": "uint256",
							"name": "",
							"type": "uint256"
						}
					],
					"stateMutability": "view",
					"type": "function"
				},
				{
					"inputs": [],
					"name": "_BITMASK_AUX_COMPLEMENT",
					"outputs": [
						{
							"internalType": "uint256",
							"name": "",
							"type": "uint256"
						}
					],
					"stateMutability": "view",
					"type": "function"
				},
				{
					"inputs": [],
					"name": "_BITMASK_BURNED",
					"outputs": [
						{
							"internalType": "uint256",
							"name": "",
							"type": "uint256"
						}
					],
					"stateMutability": "view",
					"type": "function"
				},
				{
					"inputs": [],
					"name": "_BITMASK_EXTRA_DATA_COMPLEMENT",
					"outputs": [
						{
							"internalType": "uint256",
							"name": "",
							"type": "uint256"
						}
					],
					"stateMutability": "view",
					"type": "function"
				},
				{
					"inputs": [],
					"name": "_BITMASK_NEXT_INITIALIZED",
					"outputs": [
						{
							"internalType": "uint256",
							"name": "",
							"type": "uint256"
						}
					],
					"stateMutability": "view",
					"type": "function"
				},
				{
					"inputs": [],
					"name": "_BITPOS_AUX",
					"outputs": [
						{
							"internalType": "uint256",
							"name": "",
							"type": "uint256"
						}
					],
					"stateMutability": "view",
					"type": "function"
				},
				{
					"inputs": [],
					"name": "_BITPOS_EXTRA_DATA",
					"outputs": [
						{
							"internalType": "uint256",
							"name": "",
							"type": "uint256"
						}
					],
					"stateMutability": "view",
					"type": "function"
				},
				{
					"inputs": [],
					"name": "_BITPOS_NEXT_INITIALIZED",
					"outputs": [
						{
							"internalType": "uint256",
							"name": "",
							"type": "uint256"
						}
					],
					"stateMutability": "view",
					"type": "function"
				},
				{
					"inputs": [],
					"name": "_BITPOS_NUMBER_BURNED",
					"outputs": [
						{
							"internalType": "uint256",
							"name": "",
							"type": "uint256"
						}
					],
					"stateMutability": "view",
					"type": "function"
				},
				{
					"inputs": [],
					"name": "_BITPOS_NUMBER_MINTED",
					"outputs": [
						{
							"internalType": "uint256",
							"name": "",
							"type": "uint256"
						}
					],
					"stateMutability": "view",
					"type": "function"
				},
				{
					"inputs": [],
					"name": "_BITPOS_START_TIMESTAMP",
					"outputs": [
						{
							"internalType": "uint256",
							"name": "",
							"type": "uint256"
						}
					],
					"stateMutability": "view",
					"type": "function"
				},
				{
					"inputs": [],
					"name": "_MAX_MINT_ERC2309_QUANTITY_LIMIT",
					"outputs": [
						{
							"internalType": "uint256",
							"name": "",
							"type": "uint256"
						}
					],
					"stateMutability": "view",
					"type": "function"
				},
				{
					"inputs": [],
					"name": "_TRANSFER_EVENT_SIGNATURE",
					"outputs": [
						{
							"internalType": "bytes32",
							"name": "",
							"type": "bytes32"
						}
					],
					"stateMutability": "view",
					"type": "function"
				},
				{
					"inputs": [
						{
							"internalType": "uint256",
							"name": "index",
							"type": "uint256"
						}
					],
					"name": "_ownershipAt",
					"outputs": [
						{
							"components": [
								{
									"internalType": "address",
									"name": "addr",
									"type": "address"
								},
								{
									"internalType": "uint64",
									"name": "startTimestamp",
									"type": "uint64"
								},
								{
									"internalType": "bool",
									"name": "burned",
									"type": "bool"
								},
								{
									"internalType": "uint24",
									"name": "extraData",
									"type": "uint24"
								}
							],
							"internalType": "struct test.TokenOwnership",
							"name": "",
							"type": "tuple"
						}
					],
					"stateMutability": "view",
					"type": "function"
				},
				{
					"inputs": [
						{
							"internalType": "uint256",
							"name": "packed",
							"type": "uint256"
						}
					],
					"name": "_packedOwnershipExists",
					"outputs": [
						{
							"internalType": "bool",
							"name": "result",
							"type": "bool"
						}
					],
					"stateMutability": "pure",
					"type": "function"
				},
				{
					"inputs": [
						{
							"internalType": "uint256",
							"name": "tokenId",
							"type": "uint256"
						}
					],
					"name": "_packedOwnershipOf",
					"outputs": [
						{
							"internalType": "uint256",
							"name": "packed",
							"type": "uint256"
						}
					],
					"stateMutability": "view",
					"type": "function"
				},
				{
					"inputs": [],
					"name": "_sequentialUpTo",
					"outputs": [
						{
							"internalType": "uint256",
							"name": "",
							"type": "uint256"
						}
					],
					"stateMutability": "view",
					"type": "function"
				},
				{
					"inputs": [
						{
							"internalType": "uint256",
							"name": "packed",
							"type": "uint256"
						}
					],
					"name": "_unpackedOwnership",
					"outputs": [
						{
							"components": [
								{
									"internalType": "address",
									"name": "addr",
									"type": "address"
								},
								{
									"internalType": "uint64",
									"name": "startTimestamp",
									"type": "uint64"
								},
								{
									"internalType": "bool",
									"name": "burned",
									"type": "bool"
								},
								{
									"internalType": "uint24",
									"name": "extraData",
									"type": "uint24"
								}
							],
							"internalType": "struct test.TokenOwnership",
							"name": "ownership",
							"type": "tuple"
						}
					],
					"stateMutability": "pure",
					"type": "function"
				},
				{
					"inputs": [
						{
							"internalType": "uint256",
							"name": "tokenId",
							"type": "uint256"
						}
					],
					"name": "ownerOf2",
					"outputs": [
						{
							"internalType": "address",
							"name": "",
							"type": "address"
						}
					],
					"stateMutability": "view",
					"type": "function"
				},
				{
					"inputs": [
						{
							"internalType": "address",
							"name": "_owner",
							"type": "address"
						}
					],
					"name": "packedAddressData",
					"outputs": [
						{
							"internalType": "uint256",
							"name": "",
							"type": "uint256"
						}
					],
					"stateMutability": "view",
					"type": "function"
				},
				{
					"inputs": [
						{
							"internalType": "address",
							"name": "_owner",
							"type": "address"
						},
						{
							"internalType": "uint256",
							"name": "_tokenId",
							"type": "uint256"
						}
					],
					"name": "packedAddressData",
					"outputs": [],
					"stateMutability": "nonpayable",
					"type": "function"
				},
				{
					"inputs": [
						{
							"internalType": "uint256",
							"name": "_tokenId",
							"type": "uint256"
						},
						{
							"internalType": "uint256",
							"name": "_index",
							"type": "uint256"
						}
					],
					"name": "packedOwnerships",
					"outputs": [],
					"stateMutability": "nonpayable",
					"type": "function"
				},
				{
					"inputs": [
						{
							"internalType": "uint256",
							"name": "_tokenId",
							"type": "uint256"
						}
					],
					"name": "packedOwnerships",
					"outputs": [
						{
							"internalType": "uint256",
							"name": "",
							"type": "uint256"
						}
					],
					"stateMutability": "view",
					"type": "function"
				}
			],
			"devdoc": {
				"kind": "dev",
				"methods": {
					"_ownershipAt(uint256)": {
						"details": "Returns the unpacked `TokenOwnership` struct at `index`."
					},
					"_packedOwnershipExists(uint256)": {
						"details": "Returns whether `packed` represents a token that exists."
					},
					"_packedOwnershipOf(uint256)": {
						"details": "Returns the packed ownership data of `tokenId`."
					},
					"_unpackedOwnership(uint256)": {
						"details": "Returns the unpacked `TokenOwnership` struct from `packed`."
					}
				},
				"version": 1
			},
			"evm": {
				"assembly": "    /* \"contracts/test.sol\":1441:8242  contract test{... */\n  mstore(0x40, 0x80)\n  callvalue\n  dup1\n  iszero\n  tag_1\n  jumpi\n  0x00\n  dup1\n  revert\ntag_1:\n  pop\n  dataSize(sub_0)\n  dup1\n  dataOffset(sub_0)\n  0x00\n  codecopy\n  0x00\n  return\nstop\n\nsub_0: assembly {\n        /* \"contracts/test.sol\":1441:8242  contract test{... */\n      mstore(0x40, 0x80)\n      callvalue\n      dup1\n      iszero\n      tag_1\n      jumpi\n      0x00\n      dup1\n      revert\n    tag_1:\n      pop\n      jumpi(tag_2, lt(calldatasize, 0x04))\n      shr(0xe0, calldataload(0x00))\n      dup1\n      0x9862e50f\n      gt\n      tag_27\n      jumpi\n      dup1\n      0xd611367b\n      gt\n      tag_28\n      jumpi\n      dup1\n      0xd611367b\n      eq\n      tag_21\n      jumpi\n      dup1\n      0xd9d21c63\n      eq\n      tag_22\n      jumpi\n      dup1\n      0xdc3bd0fd\n      eq\n      tag_23\n      jumpi\n      dup1\n      0xf3ef17ac\n      eq\n      tag_24\n      jumpi\n      dup1\n      0xf41523ae\n      eq\n      tag_25\n      jumpi\n      dup1\n      0xfe0bc95a\n      eq\n      tag_26\n      jumpi\n      jump(tag_2)\n    tag_28:\n      dup1\n      0x9862e50f\n      eq\n      tag_15\n      jumpi\n      dup1\n      0x9cea3d20\n      eq\n      tag_16\n      jumpi\n      dup1\n      0x9f07fba1\n      eq\n      tag_17\n      jumpi\n      dup1\n      0xc70059bf\n      eq\n      tag_18\n      jumpi\n      dup1\n      0xcbaf28ce\n      eq\n      tag_19\n      jumpi\n      dup1\n      0xd0ddbbfa\n      eq\n      tag_20\n      jumpi\n      jump(tag_2)\n    tag_27:\n      dup1\n      0x625553e2\n      gt\n      tag_29\n      jumpi\n      dup1\n      0x625553e2\n      eq\n      tag_9\n      jumpi\n      dup1\n      0x753f8406\n      eq\n      tag_10\n      jumpi\n      dup1\n      0x76dd3c44\n      eq\n      tag_11\n      jumpi\n      dup1\n      0x84ed1377\n      eq\n      tag_12\n      jumpi\n      dup1\n      0x89566257\n      eq\n      tag_13\n      jumpi\n      dup1\n      0x8bdb7e0f\n      eq\n      tag_14\n      jumpi\n      jump(tag_2)\n    tag_29:\n      dup1\n      0x068e4d51\n      eq\n      tag_3\n      jumpi\n      dup1\n      0x1086568e\n      eq\n      tag_4\n      jumpi\n      dup1\n      0x2a2745b6\n      eq\n      tag_5\n      jumpi\n      dup1\n      0x36a141c9\n      eq\n      tag_6\n      jumpi\n      dup1\n      0x444996c1\n      eq\n      tag_7\n      jumpi\n      dup1\n      0x4fe3c13e\n      eq\n      tag_8\n      jumpi\n    tag_2:\n      0x00\n      dup1\n      revert\n        /* \"contracts/test.sol\":3840:3958  function packedOwnerships(uint256 _tokenId, uint256 _index) public{SMEambStorage._packedOwnerships(_tokenId, _index);} */\n    tag_3:\n      tag_30\n      0x04\n      dup1\n      calldatasize\n      sub\n      dup2\n      add\n      swap1\n      tag_31\n      swap2\n      swap1\n      tag_32\n      jump\t// in\n    tag_31:\n      tag_33\n      jump\t// in\n    tag_30:\n      stop\n        /* \"contracts/test.sol\":2765:2813  uint256 public constant _BITPOS_EXTRA_DATA = 232 */\n    tag_4:\n      tag_34\n      tag_35\n      jump\t// in\n    tag_34:\n      mload(0x40)\n      tag_36\n      swap2\n      swap1\n      tag_37\n      jump\t// in\n    tag_36:\n      mload(0x40)\n      dup1\n      swap2\n      sub\n      swap1\n      return\n        /* \"contracts/test.sol\":7899:8007  function _sequentialUpTo() public view virtual returns (uint256) {... */\n    tag_5:\n      tag_38\n      tag_39\n      jump\t// in\n    tag_38:\n      mload(0x40)\n      tag_40\n      swap2\n      swap1\n      tag_37\n      jump\t// in\n    tag_40:\n      mload(0x40)\n      dup1\n      swap2\n      sub\n      swap1\n      return\n        /* \"contracts/test.sol\":2520:2573  uint256 public constant _BITPOS_START_TIMESTAMP = 160 */\n    tag_6:\n      tag_41\n      tag_42\n      jump\t// in\n    tag_41:\n      mload(0x40)\n      tag_43\n      swap2\n      swap1\n      tag_37\n      jump\t// in\n    tag_43:\n      mload(0x40)\n      dup1\n      swap2\n      sub\n      swap1\n      return\n        /* \"contracts/test.sol\":5187:7457  function _packedOwnershipOf(uint256 tokenId) public view returns (uint256 packed) {... */\n    tag_7:\n      tag_44\n      0x04\n      dup1\n      calldatasize\n      sub\n      dup2\n      add\n      swap1\n      tag_45\n      swap2\n      swap1\n      tag_46\n      jump\t// in\n    tag_45:\n      tag_47\n      jump\t// in\n    tag_44:\n      mload(0x40)\n      tag_48\n      swap2\n      swap1\n      tag_37\n      jump\t// in\n    tag_48:\n      mload(0x40)\n      dup1\n      swap2\n      sub\n      swap1\n      return\n        /* \"contracts/test.sol\":4735:5100  function _unpackedOwnership(uint256 packed) public pure returns (TokenOwnership memory ownership) {... */\n    tag_8:\n      tag_49\n      0x04\n      dup1\n      calldatasize\n      sub\n      dup2\n      add\n      swap1\n      tag_50\n      swap2\n      swap1\n      tag_46\n      jump\t// in\n    tag_50:\n      tag_51\n      jump\t// in\n    tag_49:\n      mload(0x40)\n      tag_52\n      swap2\n      swap1\n      tag_53\n      jump\t// in\n    tag_52:\n      mload(0x40)\n      dup1\n      swap2\n      sub\n      swap1\n      return\n        /* \"contracts/test.sol\":2698:2758  uint256 public constant _BITMASK_NEXT_INITIALIZED = 1 << 225 */\n    tag_9:\n      tag_54\n      tag_55\n      jump\t// in\n    tag_54:\n      mload(0x40)\n      tag_56\n      swap2\n      swap1\n      tag_37\n      jump\t// in\n    tag_56:\n      mload(0x40)\n      dup1\n      swap2\n      sub\n      swap1\n      return\n        /* \"contracts/test.sol\":7557:7891  function _packedOwnershipExists(uint256 packed) public pure returns (bool result) {... */\n    tag_10:\n      tag_57\n      0x04\n      dup1\n      calldatasize\n      sub\n      dup2\n      add\n      swap1\n      tag_58\n      swap2\n      swap1\n      tag_46\n      jump\t// in\n    tag_58:\n      tag_59\n      jump\t// in\n    tag_57:\n      mload(0x40)\n      tag_60\n      swap2\n      swap1\n      tag_61\n      jump\t// in\n    tag_60:\n      mload(0x40)\n      dup1\n      swap2\n      sub\n      swap1\n      return\n        /* \"contracts/test.sol\":2820:2891  uint256 public constant _BITMASK_EXTRA_DATA_COMPLEMENT = (1 << 232) - 1 */\n    tag_11:\n      tag_62\n      tag_63\n      jump\t// in\n    tag_62:\n      mload(0x40)\n      tag_64\n      swap2\n      swap1\n      tag_37\n      jump\t// in\n    tag_64:\n      mload(0x40)\n      dup1\n      swap2\n      sub\n      swap1\n      return\n        /* \"contracts/test.sol\":3964:4085  function packedAddressData(address _owner) public view returns(uint256){return SMEambStorage._packedAddressData(_owner);} */\n    tag_12:\n      tag_65\n      0x04\n      dup1\n      calldatasize\n      sub\n      dup2\n      add\n      swap1\n      tag_66\n      swap2\n      swap1\n      tag_67\n      jump\t// in\n    tag_66:\n      tag_68\n      jump\t// in\n    tag_65:\n      mload(0x40)\n      tag_69\n      swap2\n      swap1\n      tag_37\n      jump\t// in\n    tag_69:\n      mload(0x40)\n      dup1\n      swap2\n      sub\n      swap1\n      return\n        /* \"contracts/test.sol\":2449:2513  uint256 public constant _BITMASK_AUX_COMPLEMENT = (1 << 192) - 1 */\n    tag_13:\n      tag_70\n      tag_71\n      jump\t// in\n    tag_70:\n      mload(0x40)\n      tag_72\n      swap2\n      swap1\n      tag_37\n      jump\t// in\n    tag_72:\n      mload(0x40)\n      dup1\n      swap2\n      sub\n      swap1\n      return\n        /* \"contracts/test.sol\":3032:3159  bytes32 public constant _TRANSFER_EVENT_SIGNATURE =... */\n    tag_14:\n      tag_73\n      tag_74\n      jump\t// in\n    tag_73:\n      mload(0x40)\n      tag_75\n      swap2\n      swap1\n      tag_76\n      jump\t// in\n    tag_75:\n      mload(0x40)\n      dup1\n      swap2\n      sub\n      swap1\n      return\n        /* \"contracts/test.sol\":2286:2336  uint256 public constant _BITPOS_NUMBER_MINTED = 64 */\n    tag_15:\n      tag_77\n      tag_78\n      jump\t// in\n    tag_77:\n      mload(0x40)\n      tag_79\n      swap2\n      swap1\n      tag_37\n      jump\t// in\n    tag_79:\n      mload(0x40)\n      dup1\n      swap2\n      sub\n      swap1\n      return\n        /* \"contracts/test.sol\":2401:2442  uint256 public constant _BITPOS_AUX = 192 */\n    tag_16:\n      tag_80\n      tag_81\n      jump\t// in\n    tag_80:\n      mload(0x40)\n      tag_82\n      swap2\n      swap1\n      tag_37\n      jump\t// in\n    tag_82:\n      mload(0x40)\n      dup1\n      swap2\n      sub\n      swap1\n      return\n        /* \"contracts/test.sol\":2962:3025  uint256 public constant _MAX_MINT_ERC2309_QUANTITY_LIMIT = 5000 */\n    tag_17:\n      tag_83\n      tag_84\n      jump\t// in\n    tag_83:\n      mload(0x40)\n      tag_85\n      swap2\n      swap1\n      tag_37\n      jump\t// in\n    tag_85:\n      mload(0x40)\n      dup1\n      swap2\n      sub\n      swap1\n      return\n        /* \"contracts/test.sol\":2637:2691  uint256 public constant _BITPOS_NEXT_INITIALIZED = 225 */\n    tag_18:\n      tag_86\n      tag_87\n      jump\t// in\n    tag_86:\n      mload(0x40)\n      tag_88\n      swap2\n      swap1\n      tag_37\n      jump\t// in\n    tag_88:\n      mload(0x40)\n      dup1\n      swap2\n      sub\n      swap1\n      return\n        /* \"contracts/test.sol\":4463:4636  function _ownershipAt(uint256 index) public view virtual returns (TokenOwnership memory) {... */\n    tag_19:\n      tag_89\n      0x04\n      dup1\n      calldatasize\n      sub\n      dup2\n      add\n      swap1\n      tag_90\n      swap2\n      swap1\n      tag_46\n      jump\t// in\n    tag_90:\n      tag_91\n      jump\t// in\n    tag_89:\n      mload(0x40)\n      tag_92\n      swap2\n      swap1\n      tag_53\n      jump\t// in\n    tag_92:\n      mload(0x40)\n      dup1\n      swap2\n      sub\n      swap1\n      return\n        /* \"contracts/test.sol\":3711:3834  function packedOwnerships(uint256 _tokenId) public view returns(uint256){return SMEambStorage._packedOwnerships(_tokenId);} */\n    tag_20:\n      tag_93\n      0x04\n      dup1\n      calldatasize\n      sub\n      dup2\n      add\n      swap1\n      tag_94\n      swap2\n      swap1\n      tag_46\n      jump\t// in\n    tag_94:\n      tag_95\n      jump\t// in\n    tag_93:\n      mload(0x40)\n      tag_96\n      swap2\n      swap1\n      tag_37\n      jump\t// in\n    tag_96:\n      mload(0x40)\n      dup1\n      swap2\n      sub\n      swap1\n      return\n        /* \"contracts/test.sol\":2343:2394  uint256 public constant _BITPOS_NUMBER_BURNED = 128 */\n    tag_21:\n      tag_97\n      tag_98\n      jump\t// in\n    tag_97:\n      mload(0x40)\n      tag_99\n      swap2\n      swap1\n      tag_37\n      jump\t// in\n    tag_99:\n      mload(0x40)\n      dup1\n      swap2\n      sub\n      swap1\n      return\n        /* \"contracts/test.sol\":2580:2630  uint256 public constant _BITMASK_BURNED = 1 << 224 */\n    tag_22:\n      tag_100\n      tag_101\n      jump\t// in\n    tag_100:\n      mload(0x40)\n      tag_102\n      swap2\n      swap1\n      tag_37\n      jump\t// in\n    tag_102:\n      mload(0x40)\n      dup1\n      swap2\n      sub\n      swap1\n      return\n        /* \"contracts/test.sol\":4219:4363  function ownerOf2(uint256 tokenId) public view virtual returns (address) {... */\n    tag_23:\n      tag_103\n      0x04\n      dup1\n      calldatasize\n      sub\n      dup2\n      add\n      swap1\n      tag_104\n      swap2\n      swap1\n      tag_46\n      jump\t// in\n    tag_104:\n      tag_105\n      jump\t// in\n    tag_103:\n      mload(0x40)\n      tag_106\n      swap2\n      swap1\n      tag_107\n      jump\t// in\n    tag_106:\n      mload(0x40)\n      dup1\n      swap2\n      sub\n      swap1\n      return\n        /* \"contracts/test.sol\":2898:2955  uint256 public constant _BITMASK_ADDRESS = (1 << 160) - 1 */\n    tag_24:\n      tag_108\n      tag_109\n      jump\t// in\n    tag_108:\n      mload(0x40)\n      tag_110\n      swap2\n      swap1\n      tag_37\n      jump\t// in\n    tag_110:\n      mload(0x40)\n      dup1\n      swap2\n      sub\n      swap1\n      return\n        /* \"contracts/test.sol\":2212:2279  uint256 public constant _BITMASK_ADDRESS_DATA_ENTRY = (1 << 64) - 1 */\n    tag_25:\n      tag_111\n      tag_112\n      jump\t// in\n    tag_111:\n      mload(0x40)\n      tag_113\n      swap2\n      swap1\n      tag_37\n      jump\t// in\n    tag_113:\n      mload(0x40)\n      dup1\n      swap2\n      sub\n      swap1\n      return\n        /* \"contracts/test.sol\":4091:4211  function packedAddressData(address _owner, uint256 _tokenId) public{SMEambStorage._packedAddressData(_owner, _tokenId);} */\n    tag_26:\n      tag_114\n      0x04\n      dup1\n      calldatasize\n      sub\n      dup2\n      add\n      swap1\n      tag_115\n      swap2\n      swap1\n      tag_116\n      jump\t// in\n    tag_115:\n      tag_117\n      jump\t// in\n    tag_114:\n      stop\n        /* \"contracts/test.sol\":3840:3958  function packedOwnerships(uint256 _tokenId, uint256 _index) public{SMEambStorage._packedOwnerships(_tokenId, _index);} */\n    tag_33:\n        /* \"contracts/test.sol\":3907:3920  SMEambStorage */\n      linkerSymbol(\"3f3f7fbeed7f8e090b258bc8e3513c9e4bcb5f18daa28f35805a2adace14cdcd\")\n        /* \"contracts/test.sol\":3907:3938  SMEambStorage._packedOwnerships */\n      0xe68fdee1\n        /* \"contracts/test.sol\":3939:3947  _tokenId */\n      dup4\n        /* \"contracts/test.sol\":3949:3955  _index */\n      dup4\n        /* \"contracts/test.sol\":3907:3956  SMEambStorage._packedOwnerships(_tokenId, _index) */\n      mload(0x40)\n      dup4\n      0xffffffff\n      and\n      0xe0\n      shl\n      dup2\n      mstore\n      0x04\n      add\n      tag_119\n      swap3\n      swap2\n      swap1\n      tag_120\n      jump\t// in\n    tag_119:\n      0x00\n      mload(0x40)\n      dup1\n      dup4\n      sub\n      dup2\n      dup7\n      dup1\n      extcodesize\n      iszero\n      dup1\n      iszero\n      tag_121\n      jumpi\n      0x00\n      dup1\n      revert\n    tag_121:\n      pop\n      gas\n      delegatecall\n      iszero\n      dup1\n      iszero\n      tag_123\n      jumpi\n      returndatasize\n      0x00\n      dup1\n      returndatacopy\n      revert(0x00, returndatasize)\n    tag_123:\n      pop\n      pop\n      pop\n      pop\n        /* \"contracts/test.sol\":3840:3958  function packedOwnerships(uint256 _tokenId, uint256 _index) public{SMEambStorage._packedOwnerships(_tokenId, _index);} */\n      pop\n      pop\n      jump\t// out\n        /* \"contracts/test.sol\":2765:2813  uint256 public constant _BITPOS_EXTRA_DATA = 232 */\n    tag_35:\n        /* \"contracts/test.sol\":2810:2813  232 */\n      0xe8\n        /* \"contracts/test.sol\":2765:2813  uint256 public constant _BITPOS_EXTRA_DATA = 232 */\n      dup2\n      jump\t// out\n        /* \"contracts/test.sol\":7899:8007  function _sequentialUpTo() public view virtual returns (uint256) {... */\n    tag_39:\n        /* \"contracts/test.sol\":7955:7962  uint256 */\n      0x00\n        /* \"contracts/test.sol\":7982:7999  type(uint256).max */\n      0xffffffffffffffffffffffffffffffffffffffffffffffffffffffffffffffff\n        /* \"contracts/test.sol\":7975:7999  return type(uint256).max */\n      swap1\n      pop\n        /* \"contracts/test.sol\":7899:8007  function _sequentialUpTo() public view virtual returns (uint256) {... */\n      swap1\n      jump\t// out\n        /* \"contracts/test.sol\":2520:2573  uint256 public constant _BITPOS_START_TIMESTAMP = 160 */\n    tag_42:\n        /* \"contracts/test.sol\":2570:2573  160 */\n      0xa0\n        /* \"contracts/test.sol\":2520:2573  uint256 public constant _BITPOS_START_TIMESTAMP = 160 */\n      dup2\n      jump\t// out\n        /* \"contracts/test.sol\":5187:7457  function _packedOwnershipOf(uint256 tokenId) public view returns (uint256 packed) {... */\n    tag_47:\n        /* \"contracts/test.sol\":5253:5267  uint256 packed */\n      0x00\n        /* \"contracts/test.sol\":5317:5324  tokenId */\n      dup2\n        /* \"contracts/test.sol\":5284:5297  SMEambStorage */\n      linkerSymbol(\"3f3f7fbeed7f8e090b258bc8e3513c9e4bcb5f18daa28f35805a2adace14cdcd\")\n        /* \"contracts/test.sol\":5284:5311  SMEambStorage._startTokenId */\n      0x98995f77\n        /* \"contracts/test.sol\":5284:5313  SMEambStorage._startTokenId() */\n      mload(0x40)\n      dup2\n      0xffffffff\n      and\n      0xe0\n      shl\n      dup2\n      mstore\n      0x04\n      add\n      0x20\n      mload(0x40)\n      dup1\n      dup4\n      sub\n      dup2\n      dup7\n      gas\n      delegatecall\n      iszero\n      dup1\n      iszero\n      tag_127\n      jumpi\n      returndatasize\n      0x00\n      dup1\n      returndatacopy\n      revert(0x00, returndatasize)\n    tag_127:\n      pop\n      pop\n      pop\n      pop\n      mload(0x40)\n      returndatasize\n      not(0x1f)\n      0x1f\n      dup3\n      add\n      and\n      dup3\n      add\n      dup1\n      0x40\n      mstore\n      pop\n      dup2\n      add\n      swap1\n      tag_128\n      swap2\n      swap1\n      tag_129\n      jump\t// in\n    tag_128:\n        /* \"contracts/test.sol\":5284:5324  SMEambStorage._startTokenId() <= tokenId */\n      gt\n        /* \"contracts/test.sol\":5280:7392  if (SMEambStorage._startTokenId() <= tokenId) {... */\n      tag_130\n      jumpi\n        /* \"contracts/test.sol\":5350:5363  SMEambStorage */\n      linkerSymbol(\"3f3f7fbeed7f8e090b258bc8e3513c9e4bcb5f18daa28f35805a2adace14cdcd\")\n        /* \"contracts/test.sol\":5350:5381  SMEambStorage._packedOwnerships */\n      0x47f69eba\n        /* \"contracts/test.sol\":5382:5389  tokenId */\n      dup4\n        /* \"contracts/test.sol\":5350:5390  SMEambStorage._packedOwnerships(tokenId) */\n      mload(0x40)\n      dup3\n      0xffffffff\n      and\n      0xe0\n      shl\n      dup2\n      mstore\n      0x04\n      add\n      tag_131\n      swap2\n      swap1\n      tag_132\n      jump\t// in\n    tag_131:\n      0x20\n      mload(0x40)\n      dup1\n      dup4\n      sub\n      dup2\n      dup7\n      gas\n      delegatecall\n      iszero\n      dup1\n      iszero\n      tag_134\n      jumpi\n      returndatasize\n      0x00\n      dup1\n      returndatacopy\n      revert(0x00, returndatasize)\n    tag_134:\n      pop\n      pop\n      pop\n      pop\n      mload(0x40)\n      returndatasize\n      not(0x1f)\n      0x1f\n      dup3\n      add\n      and\n      dup3\n      add\n      dup1\n      0x40\n      mstore\n      pop\n      dup2\n      add\n      swap1\n      tag_135\n      swap2\n      swap1\n      tag_129\n      jump\t// in\n    tag_135:\n        /* \"contracts/test.sol\":5341:5390  packed = SMEambStorage._packedOwnerships(tokenId) */\n      swap1\n      pop\n        /* \"contracts/test.sol\":5421:5438  _sequentialUpTo() */\n      tag_136\n        /* \"contracts/test.sol\":5421:5436  _sequentialUpTo */\n      tag_39\n        /* \"contracts/test.sol\":5421:5438  _sequentialUpTo() */\n      jump\t// in\n    tag_136:\n        /* \"contracts/test.sol\":5411:5418  tokenId */\n      dup3\n        /* \"contracts/test.sol\":5411:5438  tokenId > _sequentialUpTo() */\n      gt\n        /* \"contracts/test.sol\":5407:5590  if (tokenId > _sequentialUpTo()) {... */\n      iszero\n      tag_137\n      jumpi\n        /* \"contracts/test.sol\":5463:5493  _packedOwnershipExists(packed) */\n      tag_138\n        /* \"contracts/test.sol\":5486:5492  packed */\n      dup2\n        /* \"contracts/test.sol\":5463:5485  _packedOwnershipExists */\n      tag_59\n        /* \"contracts/test.sol\":5463:5493  _packedOwnershipExists(packed) */\n      jump\t// in\n    tag_138:\n        /* \"contracts/test.sol\":5495:5508  return packed */\n      tag_125\n        /* \"contracts/test.sol\":5459:5508  if (_packedOwnershipExists(packed)) return packed */\n      jumpi\n        /* \"contracts/test.sol\":5527:5574  _revert(OwnerQueryForNonexistentToken.selector) */\n      tag_140\n        /* \"contracts/test.sol\":5535:5573  OwnerQueryForNonexistentToken.selector */\n      shl(0xe0, 0xdf2d9b42)\n        /* \"contracts/test.sol\":5527:5534  _revert */\n      tag_141\n        /* \"contracts/test.sol\":5527:5574  _revert(OwnerQueryForNonexistentToken.selector) */\n      jump\t// in\n    tag_140:\n        /* \"contracts/test.sol\":5407:5590  if (tokenId > _sequentialUpTo()) {... */\n    tag_137:\n        /* \"contracts/test.sol\":5701:5702  0 */\n      0x00\n        /* \"contracts/test.sol\":5691:5697  packed */\n      dup2\n        /* \"contracts/test.sol\":5691:5702  packed == 0 */\n      sub\n        /* \"contracts/test.sol\":5687:7009  if (packed == 0) {... */\n      tag_142\n      jumpi\n        /* \"contracts/test.sol\":5738:5751  SMEambStorage */\n      linkerSymbol(\"3f3f7fbeed7f8e090b258bc8e3513c9e4bcb5f18daa28f35805a2adace14cdcd\")\n        /* \"contracts/test.sol\":5738:5765  SMEambStorage._currentIndex */\n      0x9451c99a\n        /* \"contracts/test.sol\":5738:5767  SMEambStorage._currentIndex() */\n      mload(0x40)\n      dup2\n      0xffffffff\n      and\n      0xe0\n      shl\n      dup2\n      mstore\n      0x04\n      add\n      0x20\n      mload(0x40)\n      dup1\n      dup4\n      sub\n      dup2\n      dup7\n      gas\n      delegatecall\n      iszero\n      dup1\n      iszero\n      tag_144\n      jumpi\n      returndatasize\n      0x00\n      dup1\n      returndatacopy\n      revert(0x00, returndatasize)\n    tag_144:\n      pop\n      pop\n      pop\n      pop\n      mload(0x40)\n      returndatasize\n      not(0x1f)\n      0x1f\n      dup3\n      add\n      and\n      dup3\n      add\n      dup1\n      0x40\n      mstore\n      pop\n      dup2\n      add\n      swap1\n      tag_145\n      swap2\n      swap1\n      tag_129\n      jump\t// in\n    tag_145:\n        /* \"contracts/test.sol\":5727:5734  tokenId */\n      dup3\n        /* \"contracts/test.sol\":5727:5767  tokenId >= SMEambStorage._currentIndex() */\n      lt\n        /* \"contracts/test.sol\":5723:5816  if (tokenId >= SMEambStorage._currentIndex()) _revert(OwnerQueryForNonexistentToken.selector) */\n      tag_146\n      jumpi\n        /* \"contracts/test.sol\":5769:5816  _revert(OwnerQueryForNonexistentToken.selector) */\n      tag_147\n        /* \"contracts/test.sol\":5777:5815  OwnerQueryForNonexistentToken.selector */\n      shl(0xe0, 0xdf2d9b42)\n        /* \"contracts/test.sol\":5769:5776  _revert */\n      tag_141\n        /* \"contracts/test.sol\":5769:5816  _revert(OwnerQueryForNonexistentToken.selector) */\n      jump\t// in\n    tag_147:\n        /* \"contracts/test.sol\":5723:5816  if (tokenId >= SMEambStorage._currentIndex()) _revert(OwnerQueryForNonexistentToken.selector) */\n    tag_146:\n        /* \"contracts/test.sol\":6373:6994  for (;;) {... */\n    tag_148:\n        /* \"contracts/test.sol\":6451:6464  SMEambStorage */\n      linkerSymbol(\"3f3f7fbeed7f8e090b258bc8e3513c9e4bcb5f18daa28f35805a2adace14cdcd\")\n        /* \"contracts/test.sol\":6451:6482  SMEambStorage._packedOwnerships */\n      0x47f69eba\n        /* \"contracts/test.sol\":6483:6492  --tokenId */\n      dup4\n      0x01\n      swap1\n      sub\n      swap4\n      pop\n      dup4\n        /* \"contracts/test.sol\":6451:6493  SMEambStorage._packedOwnerships(--tokenId) */\n      mload(0x40)\n      dup3\n      0xffffffff\n      and\n      0xe0\n      shl\n      dup2\n      mstore\n      0x04\n      add\n      tag_151\n      swap2\n      swap1\n      tag_132\n      jump\t// in\n    tag_151:\n      0x20\n      mload(0x40)\n      dup1\n      dup4\n      sub\n      dup2\n      dup7\n      gas\n      delegatecall\n      iszero\n      dup1\n      iszero\n      tag_153\n      jumpi\n      returndatasize\n      0x00\n      dup1\n      returndatacopy\n      revert(0x00, returndatasize)\n    tag_153:\n      pop\n      pop\n      pop\n      pop\n      mload(0x40)\n      returndatasize\n      not(0x1f)\n      0x1f\n      dup3\n      add\n      and\n      dup3\n      add\n      dup1\n      0x40\n      mstore\n      pop\n      dup2\n      add\n      swap1\n      tag_154\n      swap2\n      swap1\n      tag_129\n      jump\t// in\n    tag_154:\n        /* \"contracts/test.sol\":6442:6493  packed = SMEambStorage._packedOwnerships(--tokenId) */\n      swap1\n      pop\n        /* \"contracts/test.sol\":6553:6554  0 */\n      0x00\n        /* \"contracts/test.sol\":6543:6549  packed */\n      dup2\n        /* \"contracts/test.sol\":6543:6554  packed == 0 */\n      sub\n        /* \"contracts/test.sol\":6539:6564  if (packed == 0) continue */\n      iszero\n        /* \"contracts/test.sol\":6556:6564  continue */\n      tag_150\n        /* \"contracts/test.sol\":6539:6564  if (packed == 0) continue */\n      jumpi\n        /* \"contracts/test.sol\":6619:6620  0 */\n      0x00\n        /* \"contracts/test.sol\":2622:2630  1 << 224 */\n      0x0100000000000000000000000000000000000000000000000000000000\n        /* \"contracts/test.sol\":6591:6597  packed */\n      dup3\n        /* \"contracts/test.sol\":6591:6615  packed & _BITMASK_BURNED */\n      and\n        /* \"contracts/test.sol\":6591:6620  packed & _BITMASK_BURNED == 0 */\n      sub\n        /* \"contracts/test.sol\":6587:6635  if (packed & _BITMASK_BURNED == 0) return packed */\n      iszero\n        /* \"contracts/test.sol\":6622:6635  return packed */\n      tag_125\n        /* \"contracts/test.sol\":6587:6635  if (packed & _BITMASK_BURNED == 0) return packed */\n      jumpi\n        /* \"contracts/test.sol\":6927:6974  _revert(OwnerQueryForNonexistentToken.selector) */\n      tag_157\n        /* \"contracts/test.sol\":6935:6973  OwnerQueryForNonexistentToken.selector */\n      shl(0xe0, 0xdf2d9b42)\n        /* \"contracts/test.sol\":6927:6934  _revert */\n      tag_141\n        /* \"contracts/test.sol\":6927:6974  _revert(OwnerQueryForNonexistentToken.selector) */\n      jump\t// in\n    tag_157:\n        /* \"contracts/test.sol\":6373:6994  for (;;) {... */\n    tag_150:\n      jump(tag_148)\n        /* \"contracts/test.sol\":5687:7009  if (packed == 0) {... */\n    tag_142:\n        /* \"contracts/test.sol\":7364:7365  0 */\n      0x00\n        /* \"contracts/test.sol\":2622:2630  1 << 224 */\n      0x0100000000000000000000000000000000000000000000000000000000\n        /* \"contracts/test.sol\":7336:7342  packed */\n      dup3\n        /* \"contracts/test.sol\":7336:7360  packed & _BITMASK_BURNED */\n      and\n        /* \"contracts/test.sol\":7336:7365  packed & _BITMASK_BURNED == 0 */\n      sub\n        /* \"contracts/test.sol\":7332:7380  if (packed & _BITMASK_BURNED == 0) return packed */\n      iszero\n        /* \"contracts/test.sol\":7367:7380  return packed */\n      tag_125\n        /* \"contracts/test.sol\":7332:7380  if (packed & _BITMASK_BURNED == 0) return packed */\n      jumpi\n        /* \"contracts/test.sol\":5280:7392  if (SMEambStorage._startTokenId() <= tokenId) {... */\n    tag_130:\n        /* \"contracts/test.sol\":7402:7449  _revert(OwnerQueryForNonexistentToken.selector) */\n      tag_159\n        /* \"contracts/test.sol\":7410:7448  OwnerQueryForNonexistentToken.selector */\n      shl(0xe0, 0xdf2d9b42)\n        /* \"contracts/test.sol\":7402:7409  _revert */\n      tag_141\n        /* \"contracts/test.sol\":7402:7449  _revert(OwnerQueryForNonexistentToken.selector) */\n      jump\t// in\n    tag_159:\n        /* \"contracts/test.sol\":5187:7457  function _packedOwnershipOf(uint256 tokenId) public view returns (uint256 packed) {... */\n    tag_125:\n      swap2\n      swap1\n      pop\n      jump\t// out\n        /* \"contracts/test.sol\":4735:5100  function _unpackedOwnership(uint256 packed) public pure returns (TokenOwnership memory ownership) {... */\n    tag_51:\n        /* \"contracts/test.sol\":4800:4831  TokenOwnership memory ownership */\n      tag_160\n      tag_161\n      jump\t// in\n    tag_160:\n        /* \"contracts/test.sol\":4877:4883  packed */\n      dup2\n        /* \"contracts/test.sol\":4844:4853  ownership */\n      dup2\n        /* \"contracts/test.sol\":4844:4858  ownership.addr */\n      0x00\n      add\n        /* \"contracts/test.sol\":4844:4885  ownership.addr = address(uint160(packed)) */\n      swap1\n      0xffffffffffffffffffffffffffffffffffffffff\n      and\n      swap1\n      dup2\n      0xffffffffffffffffffffffffffffffffffffffff\n      and\n      dup2\n      mstore\n      pop\n      pop\n        /* \"contracts/test.sol\":2570:2573  160 */\n      0xa0\n        /* \"contracts/test.sol\":4930:4936  packed */\n      dup3\n        /* \"contracts/test.sol\":4930:4963  packed >> _BITPOS_START_TIMESTAMP */\n      swap1\n      shr\n        /* \"contracts/test.sol\":4896:4905  ownership */\n      dup2\n        /* \"contracts/test.sol\":4896:4920  ownership.startTimestamp */\n      0x20\n      add\n        /* \"contracts/test.sol\":4896:4964  ownership.startTimestamp = uint64(packed >> _BITPOS_START_TIMESTAMP) */\n      swap1\n      0xffffffffffffffff\n      and\n      swap1\n      dup2\n      0xffffffffffffffff\n      and\n      dup2\n      mstore\n      pop\n      pop\n        /* \"contracts/test.sol\":5022:5023  0 */\n      0x00\n        /* \"contracts/test.sol\":2622:2630  1 << 224 */\n      0x0100000000000000000000000000000000000000000000000000000000\n        /* \"contracts/test.sol\":4994:5000  packed */\n      dup4\n        /* \"contracts/test.sol\":4994:5018  packed & _BITMASK_BURNED */\n      and\n        /* \"contracts/test.sol\":4994:5023  packed & _BITMASK_BURNED != 0 */\n      eq\n      iszero\n        /* \"contracts/test.sol\":4975:4984  ownership */\n      dup2\n        /* \"contracts/test.sol\":4975:4991  ownership.burned */\n      0x40\n      add\n        /* \"contracts/test.sol\":4975:5023  ownership.burned = packed & _BITMASK_BURNED != 0 */\n      swap1\n      iszero\n      iszero\n      swap1\n      dup2\n      iszero\n      iszero\n      dup2\n      mstore\n      pop\n      pop\n        /* \"contracts/test.sol\":2810:2813  232 */\n      0xe8\n        /* \"contracts/test.sol\":5063:5069  packed */\n      dup3\n        /* \"contracts/test.sol\":5063:5091  packed >> _BITPOS_EXTRA_DATA */\n      swap1\n      shr\n        /* \"contracts/test.sol\":5034:5043  ownership */\n      dup2\n        /* \"contracts/test.sol\":5034:5053  ownership.extraData */\n      0x60\n      add\n        /* \"contracts/test.sol\":5034:5092  ownership.extraData = uint24(packed >> _BITPOS_EXTRA_DATA) */\n      swap1\n      0xffffff\n      and\n      swap1\n      dup2\n      0xffffff\n      and\n      dup2\n      mstore\n      pop\n      pop\n        /* \"contracts/test.sol\":4735:5100  function _unpackedOwnership(uint256 packed) public pure returns (TokenOwnership memory ownership) {... */\n      swap2\n      swap1\n      pop\n      jump\t// out\n        /* \"contracts/test.sol\":2698:2758  uint256 public constant _BITMASK_NEXT_INITIALIZED = 1 << 225 */\n    tag_55:\n        /* \"contracts/test.sol\":2750:2758  1 << 225 */\n      0x0200000000000000000000000000000000000000000000000000000000\n        /* \"contracts/test.sol\":2698:2758  uint256 public constant _BITMASK_NEXT_INITIALIZED = 1 << 225 */\n      dup2\n      jump\t// out\n        /* \"contracts/test.sol\":7557:7891  function _packedOwnershipExists(uint256 packed) public pure returns (bool result) {... */\n    tag_59:\n        /* \"contracts/test.sol\":7626:7637  bool result */\n      0x00\n        /* \"contracts/test.sol\":7856:7871  _BITMASK_BURNED */\n      0x0100000000000000000000000000000000000000000000000000000000\n        /* \"contracts/test.sol\":7848:7854  packed */\n      dup3\n        /* \"contracts/test.sol\":7844:7872  and(packed, _BITMASK_BURNED) */\n      and\n        /* \"contracts/test.sol\":7825:7841  _BITMASK_ADDRESS */\n      0xffffffffffffffffffffffffffffffffffffffff\n        /* \"contracts/test.sol\":7817:7823  packed */\n      dup4\n        /* \"contracts/test.sol\":7813:7842  and(packed, _BITMASK_ADDRESS) */\n      and\n        /* \"contracts/test.sol\":7810:7873  gt(and(packed, _BITMASK_ADDRESS), and(packed, _BITMASK_BURNED)) */\n      gt\n        /* \"contracts/test.sol\":7800:7873  result := gt(and(packed, _BITMASK_ADDRESS), and(packed, _BITMASK_BURNED)) */\n      swap1\n      pop\n        /* \"contracts/test.sol\":7557:7891  function _packedOwnershipExists(uint256 packed) public pure returns (bool result) {... */\n      swap2\n      swap1\n      pop\n      jump\t// out\n        /* \"contracts/test.sol\":2820:2891  uint256 public constant _BITMASK_EXTRA_DATA_COMPLEMENT = (1 << 232) - 1 */\n    tag_63:\n        /* \"contracts/test.sol\":2877:2891  (1 << 232) - 1 */\n      0xffffffffffffffffffffffffffffffffffffffffffffffffffffffffff\n        /* \"contracts/test.sol\":2820:2891  uint256 public constant _BITMASK_EXTRA_DATA_COMPLEMENT = (1 << 232) - 1 */\n      dup2\n      jump\t// out\n        /* \"contracts/test.sol\":3964:4085  function packedAddressData(address _owner) public view returns(uint256){return SMEambStorage._packedAddressData(_owner);} */\n    tag_68:\n        /* \"contracts/test.sol\":4027:4034  uint256 */\n      0x00\n        /* \"contracts/test.sol\":4043:4056  SMEambStorage */\n      linkerSymbol(\"3f3f7fbeed7f8e090b258bc8e3513c9e4bcb5f18daa28f35805a2adace14cdcd\")\n        /* \"contracts/test.sol\":4043:4075  SMEambStorage._packedAddressData */\n      0x21b0ed7d\n        /* \"contracts/test.sol\":4076:4082  _owner */\n      dup4\n        /* \"contracts/test.sol\":4043:4083  SMEambStorage._packedAddressData(_owner) */\n      mload(0x40)\n      dup3\n      0xffffffff\n      and\n      0xe0\n      shl\n      dup2\n      mstore\n      0x04\n      add\n      tag_165\n      swap2\n      swap1\n      tag_166\n      jump\t// in\n    tag_165:\n      0x20\n      mload(0x40)\n      dup1\n      dup4\n      sub\n      dup2\n      dup7\n      gas\n      delegatecall\n      iszero\n      dup1\n      iszero\n      tag_168\n      jumpi\n      returndatasize\n      0x00\n      dup1\n      returndatacopy\n      revert(0x00, returndatasize)\n    tag_168:\n      pop\n      pop\n      pop\n      pop\n      mload(0x40)\n      returndatasize\n      not(0x1f)\n      0x1f\n      dup3\n      add\n      and\n      dup3\n      add\n      dup1\n      0x40\n      mstore\n      pop\n      dup2\n      add\n      swap1\n      tag_169\n      swap2\n      swap1\n      tag_129\n      jump\t// in\n    tag_169:\n        /* \"contracts/test.sol\":4036:4083  return SMEambStorage._packedAddressData(_owner) */\n      swap1\n      pop\n        /* \"contracts/test.sol\":3964:4085  function packedAddressData(address _owner) public view returns(uint256){return SMEambStorage._packedAddressData(_owner);} */\n      swap2\n      swap1\n      pop\n      jump\t// out\n        /* \"contracts/test.sol\":2449:2513  uint256 public constant _BITMASK_AUX_COMPLEMENT = (1 << 192) - 1 */\n    tag_71:\n        /* \"contracts/test.sol\":2499:2513  (1 << 192) - 1 */\n      0xffffffffffffffffffffffffffffffffffffffffffffffff\n        /* \"contracts/test.sol\":2449:2513  uint256 public constant _BITMASK_AUX_COMPLEMENT = (1 << 192) - 1 */\n      dup2\n      jump\t// out\n        /* \"contracts/test.sol\":3032:3159  bytes32 public constant _TRANSFER_EVENT_SIGNATURE =... */\n    tag_74:\n        /* \"contracts/test.sol\":3093:3159  0xddf252ad1be2c89b69c2b068fc378daa952ba7f163c4a11628f55a4df523b3ef */\n      0xddf252ad1be2c89b69c2b068fc378daa952ba7f163c4a11628f55a4df523b3ef\n        /* \"contracts/test.sol\":3032:3159  bytes32 public constant _TRANSFER_EVENT_SIGNATURE =... */\n      0x00\n      shl\n      dup2\n      jump\t// out\n        /* \"contracts/test.sol\":2286:2336  uint256 public constant _BITPOS_NUMBER_MINTED = 64 */\n    tag_78:\n        /* \"contracts/test.sol\":2334:2336  64 */\n      0x40\n        /* \"contracts/test.sol\":2286:2336  uint256 public constant _BITPOS_NUMBER_MINTED = 64 */\n      dup2\n      jump\t// out\n        /* \"contracts/test.sol\":2401:2442  uint256 public constant _BITPOS_AUX = 192 */\n    tag_81:\n        /* \"contracts/test.sol\":2439:2442  192 */\n      0xc0\n        /* \"contracts/test.sol\":2401:2442  uint256 public constant _BITPOS_AUX = 192 */\n      dup2\n      jump\t// out\n        /* \"contracts/test.sol\":2962:3025  uint256 public constant _MAX_MINT_ERC2309_QUANTITY_LIMIT = 5000 */\n    tag_84:\n        /* \"contracts/test.sol\":3021:3025  5000 */\n      0x1388\n        /* \"contracts/test.sol\":2962:3025  uint256 public constant _MAX_MINT_ERC2309_QUANTITY_LIMIT = 5000 */\n      dup2\n      jump\t// out\n        /* \"contracts/test.sol\":2637:2691  uint256 public constant _BITPOS_NEXT_INITIALIZED = 225 */\n    tag_87:\n        /* \"contracts/test.sol\":2688:2691  225 */\n      0xe1\n        /* \"contracts/test.sol\":2637:2691  uint256 public constant _BITPOS_NEXT_INITIALIZED = 225 */\n      dup2\n      jump\t// out\n        /* \"contracts/test.sol\":4463:4636  function _ownershipAt(uint256 index) public view virtual returns (TokenOwnership memory) {... */\n    tag_91:\n        /* \"contracts/test.sol\":4529:4550  TokenOwnership memory */\n      tag_170\n      tag_161\n      jump\t// in\n    tag_170:\n        /* \"contracts/test.sol\":4570:4628  _unpackedOwnership(SMEambStorage._packedOwnerships(index)) */\n      tag_172\n        /* \"contracts/test.sol\":4589:4602  SMEambStorage */\n      linkerSymbol(\"3f3f7fbeed7f8e090b258bc8e3513c9e4bcb5f18daa28f35805a2adace14cdcd\")\n        /* \"contracts/test.sol\":4589:4620  SMEambStorage._packedOwnerships */\n      0x47f69eba\n        /* \"contracts/test.sol\":4621:4626  index */\n      dup5\n        /* \"contracts/test.sol\":4589:4627  SMEambStorage._packedOwnerships(index) */\n      mload(0x40)\n      dup3\n      0xffffffff\n      and\n      0xe0\n      shl\n      dup2\n      mstore\n      0x04\n      add\n      tag_173\n      swap2\n      swap1\n      tag_132\n      jump\t// in\n    tag_173:\n      0x20\n      mload(0x40)\n      dup1\n      dup4\n      sub\n      dup2\n      dup7\n      gas\n      delegatecall\n      iszero\n      dup1\n      iszero\n      tag_175\n      jumpi\n      returndatasize\n      0x00\n      dup1\n      returndatacopy\n      revert(0x00, returndatasize)\n    tag_175:\n      pop\n      pop\n      pop\n      pop\n      mload(0x40)\n      returndatasize\n      not(0x1f)\n      0x1f\n      dup3\n      add\n      and\n      dup3\n      add\n      dup1\n      0x40\n      mstore\n      pop\n      dup2\n      add\n      swap1\n      tag_176\n      swap2\n      swap1\n      tag_129\n      jump\t// in\n    tag_176:\n        /* \"contracts/test.sol\":4570:4588  _unpackedOwnership */\n      tag_51\n        /* \"contracts/test.sol\":4570:4628  _unpackedOwnership(SMEambStorage._packedOwnerships(index)) */\n      jump\t// in\n    tag_172:\n        /* \"contracts/test.sol\":4563:4628  return _unpackedOwnership(SMEambStorage._packedOwnerships(index)) */\n      swap1\n      pop\n        /* \"contracts/test.sol\":4463:4636  function _ownershipAt(uint256 index) public view virtual returns (TokenOwnership memory) {... */\n      swap2\n      swap1\n      pop\n      jump\t// out\n        /* \"contracts/test.sol\":3711:3834  function packedOwnerships(uint256 _tokenId) public view returns(uint256){return SMEambStorage._packedOwnerships(_tokenId);} */\n    tag_95:\n        /* \"contracts/test.sol\":3775:3782  uint256 */\n      0x00\n        /* \"contracts/test.sol\":3791:3804  SMEambStorage */\n      linkerSymbol(\"3f3f7fbeed7f8e090b258bc8e3513c9e4bcb5f18daa28f35805a2adace14cdcd\")\n        /* \"contracts/test.sol\":3791:3822  SMEambStorage._packedOwnerships */\n      0x47f69eba\n        /* \"contracts/test.sol\":3823:3831  _tokenId */\n      dup4\n        /* \"contracts/test.sol\":3791:3832  SMEambStorage._packedOwnerships(_tokenId) */\n      mload(0x40)\n      dup3\n      0xffffffff\n      and\n      0xe0\n      shl\n      dup2\n      mstore\n      0x04\n      add\n      tag_178\n      swap2\n      swap1\n      tag_132\n      jump\t// in\n    tag_178:\n      0x20\n      mload(0x40)\n      dup1\n      dup4\n      sub\n      dup2\n      dup7\n      gas\n      delegatecall\n      iszero\n      dup1\n      iszero\n      tag_180\n      jumpi\n      returndatasize\n      0x00\n      dup1\n      returndatacopy\n      revert(0x00, returndatasize)\n    tag_180:\n      pop\n      pop\n      pop\n      pop\n      mload(0x40)\n      returndatasize\n      not(0x1f)\n      0x1f\n      dup3\n      add\n      and\n      dup3\n      add\n      dup1\n      0x40\n      mstore\n      pop\n      dup2\n      add\n      swap1\n      tag_181\n      swap2\n      swap1\n      tag_129\n      jump\t// in\n    tag_181:\n        /* \"contracts/test.sol\":3784:3832  return SMEambStorage._packedOwnerships(_tokenId) */\n      swap1\n      pop\n        /* \"contracts/test.sol\":3711:3834  function packedOwnerships(uint256 _tokenId) public view returns(uint256){return SMEambStorage._packedOwnerships(_tokenId);} */\n      swap2\n      swap1\n      pop\n      jump\t// out\n        /* \"contracts/test.sol\":2343:2394  uint256 public constant _BITPOS_NUMBER_BURNED = 128 */\n    tag_98:\n        /* \"contracts/test.sol\":2391:2394  128 */\n      0x80\n        /* \"contracts/test.sol\":2343:2394  uint256 public constant _BITPOS_NUMBER_BURNED = 128 */\n      dup2\n      jump\t// out\n        /* \"contracts/test.sol\":2580:2630  uint256 public constant _BITMASK_BURNED = 1 << 224 */\n    tag_101:\n        /* \"contracts/test.sol\":2622:2630  1 << 224 */\n      0x0100000000000000000000000000000000000000000000000000000000\n        /* \"contracts/test.sol\":2580:2630  uint256 public constant _BITMASK_BURNED = 1 << 224 */\n      dup2\n      jump\t// out\n        /* \"contracts/test.sol\":4219:4363  function ownerOf2(uint256 tokenId) public view virtual returns (address) {... */\n    tag_105:\n        /* \"contracts/test.sol\":4283:4290  address */\n      0x00\n        /* \"contracts/test.sol\":4326:4353  _packedOwnershipOf(tokenId) */\n      tag_183\n        /* \"contracts/test.sol\":4345:4352  tokenId */\n      dup3\n        /* \"contracts/test.sol\":4326:4344  _packedOwnershipOf */\n      tag_47\n        /* \"contracts/test.sol\":4326:4353  _packedOwnershipOf(tokenId) */\n      jump\t// in\n    tag_183:\n        /* \"contracts/test.sol\":4303:4355  return address(uint160(_packedOwnershipOf(tokenId))) */\n      swap1\n      pop\n        /* \"contracts/test.sol\":4219:4363  function ownerOf2(uint256 tokenId) public view virtual returns (address) {... */\n      swap2\n      swap1\n      pop\n      jump\t// out\n        /* \"contracts/test.sol\":2898:2955  uint256 public constant _BITMASK_ADDRESS = (1 << 160) - 1 */\n    tag_109:\n        /* \"contracts/test.sol\":2941:2955  (1 << 160) - 1 */\n      0xffffffffffffffffffffffffffffffffffffffff\n        /* \"contracts/test.sol\":2898:2955  uint256 public constant _BITMASK_ADDRESS = (1 << 160) - 1 */\n      dup2\n      jump\t// out\n        /* \"contracts/test.sol\":2212:2279  uint256 public constant _BITMASK_ADDRESS_DATA_ENTRY = (1 << 64) - 1 */\n    tag_112:\n        /* \"contracts/test.sol\":2266:2279  (1 << 64) - 1 */\n      0xffffffffffffffff\n        /* \"contracts/test.sol\":2212:2279  uint256 public constant _BITMASK_ADDRESS_DATA_ENTRY = (1 << 64) - 1 */\n      dup2\n      jump\t// out\n        /* \"contracts/test.sol\":4091:4211  function packedAddressData(address _owner, uint256 _tokenId) public{SMEambStorage._packedAddressData(_owner, _tokenId);} */\n    tag_117:\n        /* \"contracts/test.sol\":4159:4172  SMEambStorage */\n      linkerSymbol(\"3f3f7fbeed7f8e090b258bc8e3513c9e4bcb5f18daa28f35805a2adace14cdcd\")\n        /* \"contracts/test.sol\":4159:4191  SMEambStorage._packedAddressData */\n      0xa3301173\n        /* \"contracts/test.sol\":4192:4198  _owner */\n      dup4\n        /* \"contracts/test.sol\":4200:4208  _tokenId */\n      dup4\n        /* \"contracts/test.sol\":4159:4209  SMEambStorage._packedAddressData(_owner, _tokenId) */\n      mload(0x40)\n      dup4\n      0xffffffff\n      and\n      0xe0\n      shl\n      dup2\n      mstore\n      0x04\n      add\n      tag_185\n      swap3\n      swap2\n      swap1\n      tag_186\n      jump\t// in\n    tag_185:\n      0x00\n      mload(0x40)\n      dup1\n      dup4\n      sub\n      dup2\n      dup7\n      dup1\n      extcodesize\n      iszero\n      dup1\n      iszero\n      tag_187\n      jumpi\n      0x00\n      dup1\n      revert\n    tag_187:\n      pop\n      gas\n      delegatecall\n      iszero\n      dup1\n      iszero\n      tag_189\n      jumpi\n      returndatasize\n      0x00\n      dup1\n      returndatacopy\n      revert(0x00, returndatasize)\n    tag_189:\n      pop\n      pop\n      pop\n      pop\n        /* \"contracts/test.sol\":4091:4211  function packedAddressData(address _owner, uint256 _tokenId) public{SMEambStorage._packedAddressData(_owner, _tokenId);} */\n      pop\n      pop\n      jump\t// out\n        /* \"contracts/test.sol\":8074:8239  function _revert(bytes4 errorSelector) internal pure {... */\n    tag_141:\n        /* \"contracts/test.sol\":8175:8188  errorSelector */\n      dup1\n        /* \"contracts/test.sol\":8169:8173  0x00 */\n      0x00\n        /* \"contracts/test.sol\":8162:8189  mstore(0x00, errorSelector) */\n      mstore\n        /* \"contracts/test.sol\":8216:8220  0x04 */\n      0x04\n        /* \"contracts/test.sol\":8210:8214  0x00 */\n      0x00\n        /* \"contracts/test.sol\":8203:8221  revert(0x00, 0x04) */\n      revert\n    tag_161:\n      mload(0x40)\n      dup1\n      0x80\n      add\n      0x40\n      mstore\n      dup1\n      and(0xffffffffffffffffffffffffffffffffffffffff, 0x00)\n      dup2\n      mstore\n      0x20\n      add\n      and(0xffffffffffffffff, 0x00)\n      dup2\n      mstore\n      0x20\n      add\n      iszero(iszero(0x00))\n      dup2\n      mstore\n      0x20\n      add\n      and(0xffffff, 0x00)\n      dup2\n      mstore\n      pop\n      swap1\n      jump\t// out\n        /* \"#utility.yul\":88:205   */\n    tag_192:\n        /* \"#utility.yul\":197:198   */\n      0x00\n        /* \"#utility.yul\":194:195   */\n      dup1\n        /* \"#utility.yul\":187:199   */\n      revert\n        /* \"#utility.yul\":334:411   */\n    tag_194:\n        /* \"#utility.yul\":371:378   */\n      0x00\n        /* \"#utility.yul\":400:405   */\n      dup2\n        /* \"#utility.yul\":389:405   */\n      swap1\n      pop\n        /* \"#utility.yul\":334:411   */\n      swap2\n      swap1\n      pop\n      jump\t// out\n        /* \"#utility.yul\":417:539   */\n    tag_195:\n        /* \"#utility.yul\":490:514   */\n      tag_223\n        /* \"#utility.yul\":508:513   */\n      dup2\n        /* \"#utility.yul\":490:514   */\n      tag_194\n      jump\t// in\n    tag_223:\n        /* \"#utility.yul\":483:488   */\n      dup2\n        /* \"#utility.yul\":480:515   */\n      eq\n        /* \"#utility.yul\":470:533   */\n      tag_224\n      jumpi\n        /* \"#utility.yul\":529:530   */\n      0x00\n        /* \"#utility.yul\":526:527   */\n      dup1\n        /* \"#utility.yul\":519:531   */\n      revert\n        /* \"#utility.yul\":470:533   */\n    tag_224:\n        /* \"#utility.yul\":417:539   */\n      pop\n      jump\t// out\n        /* \"#utility.yul\":545:684   */\n    tag_196:\n        /* \"#utility.yul\":591:596   */\n      0x00\n        /* \"#utility.yul\":629:635   */\n      dup2\n        /* \"#utility.yul\":616:636   */\n      calldataload\n        /* \"#utility.yul\":607:636   */\n      swap1\n      pop\n        /* \"#utility.yul\":645:678   */\n      tag_226\n        /* \"#utility.yul\":672:677   */\n      dup2\n        /* \"#utility.yul\":645:678   */\n      tag_195\n      jump\t// in\n    tag_226:\n        /* \"#utility.yul\":545:684   */\n      swap3\n      swap2\n      pop\n      pop\n      jump\t// out\n        /* \"#utility.yul\":690:1164   */\n    tag_32:\n        /* \"#utility.yul\":758:764   */\n      0x00\n        /* \"#utility.yul\":766:772   */\n      dup1\n        /* \"#utility.yul\":815:817   */\n      0x40\n        /* \"#utility.yul\":803:812   */\n      dup4\n        /* \"#utility.yul\":794:801   */\n      dup6\n        /* \"#utility.yul\":790:813   */\n      sub\n        /* \"#utility.yul\":786:818   */\n      slt\n        /* \"#utility.yul\":783:902   */\n      iszero\n      tag_228\n      jumpi\n        /* \"#utility.yul\":821:900   */\n      tag_229\n      tag_192\n      jump\t// in\n    tag_229:\n        /* \"#utility.yul\":783:902   */\n    tag_228:\n        /* \"#utility.yul\":941:942   */\n      0x00\n        /* \"#utility.yul\":966:1019   */\n      tag_230\n        /* \"#utility.yul\":1011:1018   */\n      dup6\n        /* \"#utility.yul\":1002:1008   */\n      dup3\n        /* \"#utility.yul\":991:1000   */\n      dup7\n        /* \"#utility.yul\":987:1009   */\n      add\n        /* \"#utility.yul\":966:1019   */\n      tag_196\n      jump\t// in\n    tag_230:\n        /* \"#utility.yul\":956:1019   */\n      swap3\n      pop\n        /* \"#utility.yul\":912:1029   */\n      pop\n        /* \"#utility.yul\":1068:1070   */\n      0x20\n        /* \"#utility.yul\":1094:1147   */\n      tag_231\n        /* \"#utility.yul\":1139:1146   */\n      dup6\n        /* \"#utility.yul\":1130:1136   */\n      dup3\n        /* \"#utility.yul\":1119:1128   */\n      dup7\n        /* \"#utility.yul\":1115:1137   */\n      add\n        /* \"#utility.yul\":1094:1147   */\n      tag_196\n      jump\t// in\n    tag_231:\n        /* \"#utility.yul\":1084:1147   */\n      swap2\n      pop\n        /* \"#utility.yul\":1039:1157   */\n      pop\n        /* \"#utility.yul\":690:1164   */\n      swap3\n      pop\n      swap3\n      swap1\n      pop\n      jump\t// out\n        /* \"#utility.yul\":1170:1288   */\n    tag_197:\n        /* \"#utility.yul\":1257:1281   */\n      tag_233\n        /* \"#utility.yul\":1275:1280   */\n      dup2\n        /* \"#utility.yul\":1257:1281   */\n      tag_194\n      jump\t// in\n    tag_233:\n        /* \"#utility.yul\":1252:1255   */\n      dup3\n        /* \"#utility.yul\":1245:1282   */\n      mstore\n        /* \"#utility.yul\":1170:1288   */\n      pop\n      pop\n      jump\t// out\n        /* \"#utility.yul\":1294:1516   */\n    tag_37:\n        /* \"#utility.yul\":1387:1391   */\n      0x00\n        /* \"#utility.yul\":1425:1427   */\n      0x20\n        /* \"#utility.yul\":1414:1423   */\n      dup3\n        /* \"#utility.yul\":1410:1428   */\n      add\n        /* \"#utility.yul\":1402:1428   */\n      swap1\n      pop\n        /* \"#utility.yul\":1438:1509   */\n      tag_235\n        /* \"#utility.yul\":1506:1507   */\n      0x00\n        /* \"#utility.yul\":1495:1504   */\n      dup4\n        /* \"#utility.yul\":1491:1508   */\n      add\n        /* \"#utility.yul\":1482:1488   */\n      dup5\n        /* \"#utility.yul\":1438:1509   */\n      tag_197\n      jump\t// in\n    tag_235:\n        /* \"#utility.yul\":1294:1516   */\n      swap3\n      swap2\n      pop\n      pop\n      jump\t// out\n        /* \"#utility.yul\":1522:1851   */\n    tag_46:\n        /* \"#utility.yul\":1581:1587   */\n      0x00\n        /* \"#utility.yul\":1630:1632   */\n      0x20\n        /* \"#utility.yul\":1618:1627   */\n      dup3\n        /* \"#utility.yul\":1609:1616   */\n      dup5\n        /* \"#utility.yul\":1605:1628   */\n      sub\n        /* \"#utility.yul\":1601:1633   */\n      slt\n        /* \"#utility.yul\":1598:1717   */\n      iszero\n      tag_237\n      jumpi\n        /* \"#utility.yul\":1636:1715   */\n      tag_238\n      tag_192\n      jump\t// in\n    tag_238:\n        /* \"#utility.yul\":1598:1717   */\n    tag_237:\n        /* \"#utility.yul\":1756:1757   */\n      0x00\n        /* \"#utility.yul\":1781:1834   */\n      tag_239\n        /* \"#utility.yul\":1826:1833   */\n      dup5\n        /* \"#utility.yul\":1817:1823   */\n      dup3\n        /* \"#utility.yul\":1806:1815   */\n      dup6\n        /* \"#utility.yul\":1802:1824   */\n      add\n        /* \"#utility.yul\":1781:1834   */\n      tag_196\n      jump\t// in\n    tag_239:\n        /* \"#utility.yul\":1771:1834   */\n      swap2\n      pop\n        /* \"#utility.yul\":1727:1844   */\n      pop\n        /* \"#utility.yul\":1522:1851   */\n      swap3\n      swap2\n      pop\n      pop\n      jump\t// out\n        /* \"#utility.yul\":1857:1983   */\n    tag_198:\n        /* \"#utility.yul\":1894:1901   */\n      0x00\n        /* \"#utility.yul\":1934:1976   */\n      0xffffffffffffffffffffffffffffffffffffffff\n        /* \"#utility.yul\":1927:1932   */\n      dup3\n        /* \"#utility.yul\":1923:1977   */\n      and\n        /* \"#utility.yul\":1912:1977   */\n      swap1\n      pop\n        /* \"#utility.yul\":1857:1983   */\n      swap2\n      swap1\n      pop\n      jump\t// out\n        /* \"#utility.yul\":1989:2085   */\n    tag_199:\n        /* \"#utility.yul\":2026:2033   */\n      0x00\n        /* \"#utility.yul\":2055:2079   */\n      tag_242\n        /* \"#utility.yul\":2073:2078   */\n      dup3\n        /* \"#utility.yul\":2055:2079   */\n      tag_198\n      jump\t// in\n    tag_242:\n        /* \"#utility.yul\":2044:2079   */\n      swap1\n      pop\n        /* \"#utility.yul\":1989:2085   */\n      swap2\n      swap1\n      pop\n      jump\t// out\n        /* \"#utility.yul\":2091:2199   */\n    tag_200:\n        /* \"#utility.yul\":2168:2192   */\n      tag_244\n        /* \"#utility.yul\":2186:2191   */\n      dup2\n        /* \"#utility.yul\":2168:2192   */\n      tag_199\n      jump\t// in\n    tag_244:\n        /* \"#utility.yul\":2163:2166   */\n      dup3\n        /* \"#utility.yul\":2156:2193   */\n      mstore\n        /* \"#utility.yul\":2091:2199   */\n      pop\n      pop\n      jump\t// out\n        /* \"#utility.yul\":2205:2306   */\n    tag_201:\n        /* \"#utility.yul\":2241:2248   */\n      0x00\n        /* \"#utility.yul\":2281:2299   */\n      0xffffffffffffffff\n        /* \"#utility.yul\":2274:2279   */\n      dup3\n        /* \"#utility.yul\":2270:2300   */\n      and\n        /* \"#utility.yul\":2259:2300   */\n      swap1\n      pop\n        /* \"#utility.yul\":2205:2306   */\n      swap2\n      swap1\n      pop\n      jump\t// out\n        /* \"#utility.yul\":2312:2417   */\n    tag_202:\n        /* \"#utility.yul\":2387:2410   */\n      tag_247\n        /* \"#utility.yul\":2404:2409   */\n      dup2\n        /* \"#utility.yul\":2387:2410   */\n      tag_201\n      jump\t// in\n    tag_247:\n        /* \"#utility.yul\":2382:2385   */\n      dup3\n        /* \"#utility.yul\":2375:2411   */\n      mstore\n        /* \"#utility.yul\":2312:2417   */\n      pop\n      pop\n      jump\t// out\n        /* \"#utility.yul\":2423:2513   */\n    tag_203:\n        /* \"#utility.yul\":2457:2464   */\n      0x00\n        /* \"#utility.yul\":2500:2505   */\n      dup2\n        /* \"#utility.yul\":2493:2506   */\n      iszero\n        /* \"#utility.yul\":2486:2507   */\n      iszero\n        /* \"#utility.yul\":2475:2507   */\n      swap1\n      pop\n        /* \"#utility.yul\":2423:2513   */\n      swap2\n      swap1\n      pop\n      jump\t// out\n        /* \"#utility.yul\":2519:2618   */\n    tag_204:\n        /* \"#utility.yul\":2590:2611   */\n      tag_250\n        /* \"#utility.yul\":2605:2610   */\n      dup2\n        /* \"#utility.yul\":2590:2611   */\n      tag_203\n      jump\t// in\n    tag_250:\n        /* \"#utility.yul\":2585:2588   */\n      dup3\n        /* \"#utility.yul\":2578:2612   */\n      mstore\n        /* \"#utility.yul\":2519:2618   */\n      pop\n      pop\n      jump\t// out\n        /* \"#utility.yul\":2624:2715   */\n    tag_205:\n        /* \"#utility.yul\":2660:2667   */\n      0x00\n        /* \"#utility.yul\":2700:2708   */\n      0xffffff\n        /* \"#utility.yul\":2693:2698   */\n      dup3\n        /* \"#utility.yul\":2689:2709   */\n      and\n        /* \"#utility.yul\":2678:2709   */\n      swap1\n      pop\n        /* \"#utility.yul\":2624:2715   */\n      swap2\n      swap1\n      pop\n      jump\t// out\n        /* \"#utility.yul\":2721:2826   */\n    tag_206:\n        /* \"#utility.yul\":2796:2819   */\n      tag_253\n        /* \"#utility.yul\":2813:2818   */\n      dup2\n        /* \"#utility.yul\":2796:2819   */\n      tag_205\n      jump\t// in\n    tag_253:\n        /* \"#utility.yul\":2791:2794   */\n      dup3\n        /* \"#utility.yul\":2784:2820   */\n      mstore\n        /* \"#utility.yul\":2721:2826   */\n      pop\n      pop\n      jump\t// out\n        /* \"#utility.yul\":2896:3772   */\n    tag_207:\n        /* \"#utility.yul\":3057:3061   */\n      0x80\n        /* \"#utility.yul\":3052:3055   */\n      dup3\n        /* \"#utility.yul\":3048:3062   */\n      add\n        /* \"#utility.yul\":3144:3148   */\n      0x00\n        /* \"#utility.yul\":3137:3142   */\n      dup3\n        /* \"#utility.yul\":3133:3149   */\n      add\n        /* \"#utility.yul\":3127:3150   */\n      mload\n        /* \"#utility.yul\":3163:3226   */\n      tag_255\n        /* \"#utility.yul\":3220:3224   */\n      0x00\n        /* \"#utility.yul\":3215:3218   */\n      dup6\n        /* \"#utility.yul\":3211:3225   */\n      add\n        /* \"#utility.yul\":3197:3209   */\n      dup3\n        /* \"#utility.yul\":3163:3226   */\n      tag_200\n      jump\t// in\n    tag_255:\n        /* \"#utility.yul\":3072:3236   */\n      pop\n        /* \"#utility.yul\":3328:3332   */\n      0x20\n        /* \"#utility.yul\":3321:3326   */\n      dup3\n        /* \"#utility.yul\":3317:3333   */\n      add\n        /* \"#utility.yul\":3311:3334   */\n      mload\n        /* \"#utility.yul\":3347:3408   */\n      tag_256\n        /* \"#utility.yul\":3402:3406   */\n      0x20\n        /* \"#utility.yul\":3397:3400   */\n      dup6\n        /* \"#utility.yul\":3393:3407   */\n      add\n        /* \"#utility.yul\":3379:3391   */\n      dup3\n        /* \"#utility.yul\":3347:3408   */\n      tag_202\n      jump\t// in\n    tag_256:\n        /* \"#utility.yul\":3246:3418   */\n      pop\n        /* \"#utility.yul\":3502:3506   */\n      0x40\n        /* \"#utility.yul\":3495:3500   */\n      dup3\n        /* \"#utility.yul\":3491:3507   */\n      add\n        /* \"#utility.yul\":3485:3508   */\n      mload\n        /* \"#utility.yul\":3521:3578   */\n      tag_257\n        /* \"#utility.yul\":3572:3576   */\n      0x40\n        /* \"#utility.yul\":3567:3570   */\n      dup6\n        /* \"#utility.yul\":3563:3577   */\n      add\n        /* \"#utility.yul\":3549:3561   */\n      dup3\n        /* \"#utility.yul\":3521:3578   */\n      tag_204\n      jump\t// in\n    tag_257:\n        /* \"#utility.yul\":3428:3588   */\n      pop\n        /* \"#utility.yul\":3675:3679   */\n      0x60\n        /* \"#utility.yul\":3668:3673   */\n      dup3\n        /* \"#utility.yul\":3664:3680   */\n      add\n        /* \"#utility.yul\":3658:3681   */\n      mload\n        /* \"#utility.yul\":3694:3755   */\n      tag_258\n        /* \"#utility.yul\":3749:3753   */\n      0x60\n        /* \"#utility.yul\":3744:3747   */\n      dup6\n        /* \"#utility.yul\":3740:3754   */\n      add\n        /* \"#utility.yul\":3726:3738   */\n      dup3\n        /* \"#utility.yul\":3694:3755   */\n      tag_206\n      jump\t// in\n    tag_258:\n        /* \"#utility.yul\":3598:3765   */\n      pop\n        /* \"#utility.yul\":3026:3772   */\n      pop\n        /* \"#utility.yul\":2896:3772   */\n      pop\n      pop\n      jump\t// out\n        /* \"#utility.yul\":3778:4129   */\n    tag_53:\n        /* \"#utility.yul\":3935:3939   */\n      0x00\n        /* \"#utility.yul\":3973:3976   */\n      0x80\n        /* \"#utility.yul\":3962:3971   */\n      dup3\n        /* \"#utility.yul\":3958:3977   */\n      add\n        /* \"#utility.yul\":3950:3977   */\n      swap1\n      pop\n        /* \"#utility.yul\":3987:4122   */\n      tag_260\n        /* \"#utility.yul\":4119:4120   */\n      0x00\n        /* \"#utility.yul\":4108:4117   */\n      dup4\n        /* \"#utility.yul\":4104:4121   */\n      add\n        /* \"#utility.yul\":4095:4101   */\n      dup5\n        /* \"#utility.yul\":3987:4122   */\n      tag_207\n      jump\t// in\n    tag_260:\n        /* \"#utility.yul\":3778:4129   */\n      swap3\n      swap2\n      pop\n      pop\n      jump\t// out\n        /* \"#utility.yul\":4135:4244   */\n    tag_208:\n        /* \"#utility.yul\":4216:4237   */\n      tag_262\n        /* \"#utility.yul\":4231:4236   */\n      dup2\n        /* \"#utility.yul\":4216:4237   */\n      tag_203\n      jump\t// in\n    tag_262:\n        /* \"#utility.yul\":4211:4214   */\n      dup3\n        /* \"#utility.yul\":4204:4238   */\n      mstore\n        /* \"#utility.yul\":4135:4244   */\n      pop\n      pop\n      jump\t// out\n        /* \"#utility.yul\":4250:4460   */\n    tag_61:\n        /* \"#utility.yul\":4337:4341   */\n      0x00\n        /* \"#utility.yul\":4375:4377   */\n      0x20\n        /* \"#utility.yul\":4364:4373   */\n      dup3\n        /* \"#utility.yul\":4360:4378   */\n      add\n        /* \"#utility.yul\":4352:4378   */\n      swap1\n      pop\n        /* \"#utility.yul\":4388:4453   */\n      tag_264\n        /* \"#utility.yul\":4450:4451   */\n      0x00\n        /* \"#utility.yul\":4439:4448   */\n      dup4\n        /* \"#utility.yul\":4435:4452   */\n      add\n        /* \"#utility.yul\":4426:4432   */\n      dup5\n        /* \"#utility.yul\":4388:4453   */\n      tag_208\n      jump\t// in\n    tag_264:\n        /* \"#utility.yul\":4250:4460   */\n      swap3\n      swap2\n      pop\n      pop\n      jump\t// out\n        /* \"#utility.yul\":4466:4588   */\n    tag_209:\n        /* \"#utility.yul\":4539:4563   */\n      tag_266\n        /* \"#utility.yul\":4557:4562   */\n      dup2\n        /* \"#utility.yul\":4539:4563   */\n      tag_199\n      jump\t// in\n    tag_266:\n        /* \"#utility.yul\":4532:4537   */\n      dup2\n        /* \"#utility.yul\":4529:4564   */\n      eq\n        /* \"#utility.yul\":4519:4582   */\n      tag_267\n      jumpi\n        /* \"#utility.yul\":4578:4579   */\n      0x00\n        /* \"#utility.yul\":4575:4576   */\n      dup1\n        /* \"#utility.yul\":4568:4580   */\n      revert\n        /* \"#utility.yul\":4519:4582   */\n    tag_267:\n        /* \"#utility.yul\":4466:4588   */\n      pop\n      jump\t// out\n        /* \"#utility.yul\":4594:4733   */\n    tag_210:\n        /* \"#utility.yul\":4640:4645   */\n      0x00\n        /* \"#utility.yul\":4678:4684   */\n      dup2\n        /* \"#utility.yul\":4665:4685   */\n      calldataload\n        /* \"#utility.yul\":4656:4685   */\n      swap1\n      pop\n        /* \"#utility.yul\":4694:4727   */\n      tag_269\n        /* \"#utility.yul\":4721:4726   */\n      dup2\n        /* \"#utility.yul\":4694:4727   */\n      tag_209\n      jump\t// in\n    tag_269:\n        /* \"#utility.yul\":4594:4733   */\n      swap3\n      swap2\n      pop\n      pop\n      jump\t// out\n        /* \"#utility.yul\":4739:5068   */\n    tag_67:\n        /* \"#utility.yul\":4798:4804   */\n      0x00\n        /* \"#utility.yul\":4847:4849   */\n      0x20\n        /* \"#utility.yul\":4835:4844   */\n      dup3\n        /* \"#utility.yul\":4826:4833   */\n      dup5\n        /* \"#utility.yul\":4822:4845   */\n      sub\n        /* \"#utility.yul\":4818:4850   */\n      slt\n        /* \"#utility.yul\":4815:4934   */\n      iszero\n      tag_271\n      jumpi\n        /* \"#utility.yul\":4853:4932   */\n      tag_272\n      tag_192\n      jump\t// in\n    tag_272:\n        /* \"#utility.yul\":4815:4934   */\n    tag_271:\n        /* \"#utility.yul\":4973:4974   */\n      0x00\n        /* \"#utility.yul\":4998:5051   */\n      tag_273\n        /* \"#utility.yul\":5043:5050   */\n      dup5\n        /* \"#utility.yul\":5034:5040   */\n      dup3\n        /* \"#utility.yul\":5023:5032   */\n      dup6\n        /* \"#utility.yul\":5019:5041   */\n      add\n        /* \"#utility.yul\":4998:5051   */\n      tag_210\n      jump\t// in\n    tag_273:\n        /* \"#utility.yul\":4988:5051   */\n      swap2\n      pop\n        /* \"#utility.yul\":4944:5061   */\n      pop\n        /* \"#utility.yul\":4739:5068   */\n      swap3\n      swap2\n      pop\n      pop\n      jump\t// out\n        /* \"#utility.yul\":5074:5151   */\n    tag_211:\n        /* \"#utility.yul\":5111:5118   */\n      0x00\n        /* \"#utility.yul\":5140:5145   */\n      dup2\n        /* \"#utility.yul\":5129:5145   */\n      swap1\n      pop\n        /* \"#utility.yul\":5074:5151   */\n      swap2\n      swap1\n      pop\n      jump\t// out\n        /* \"#utility.yul\":5157:5275   */\n    tag_212:\n        /* \"#utility.yul\":5244:5268   */\n      tag_276\n        /* \"#utility.yul\":5262:5267   */\n      dup2\n        /* \"#utility.yul\":5244:5268   */\n      tag_211\n      jump\t// in\n    tag_276:\n        /* \"#utility.yul\":5239:5242   */\n      dup3\n        /* \"#utility.yul\":5232:5269   */\n      mstore\n        /* \"#utility.yul\":5157:5275   */\n      pop\n      pop\n      jump\t// out\n        /* \"#utility.yul\":5281:5503   */\n    tag_76:\n        /* \"#utility.yul\":5374:5378   */\n      0x00\n        /* \"#utility.yul\":5412:5414   */\n      0x20\n        /* \"#utility.yul\":5401:5410   */\n      dup3\n        /* \"#utility.yul\":5397:5415   */\n      add\n        /* \"#utility.yul\":5389:5415   */\n      swap1\n      pop\n        /* \"#utility.yul\":5425:5496   */\n      tag_278\n        /* \"#utility.yul\":5493:5494   */\n      0x00\n        /* \"#utility.yul\":5482:5491   */\n      dup4\n        /* \"#utility.yul\":5478:5495   */\n      add\n        /* \"#utility.yul\":5469:5475   */\n      dup5\n        /* \"#utility.yul\":5425:5496   */\n      tag_212\n      jump\t// in\n    tag_278:\n        /* \"#utility.yul\":5281:5503   */\n      swap3\n      swap2\n      pop\n      pop\n      jump\t// out\n        /* \"#utility.yul\":5509:5627   */\n    tag_213:\n        /* \"#utility.yul\":5596:5620   */\n      tag_280\n        /* \"#utility.yul\":5614:5619   */\n      dup2\n        /* \"#utility.yul\":5596:5620   */\n      tag_199\n      jump\t// in\n    tag_280:\n        /* \"#utility.yul\":5591:5594   */\n      dup3\n        /* \"#utility.yul\":5584:5621   */\n      mstore\n        /* \"#utility.yul\":5509:5627   */\n      pop\n      pop\n      jump\t// out\n        /* \"#utility.yul\":5633:5855   */\n    tag_107:\n        /* \"#utility.yul\":5726:5730   */\n      0x00\n        /* \"#utility.yul\":5764:5766   */\n      0x20\n        /* \"#utility.yul\":5753:5762   */\n      dup3\n        /* \"#utility.yul\":5749:5767   */\n      add\n        /* \"#utility.yul\":5741:5767   */\n      swap1\n      pop\n        /* \"#utility.yul\":5777:5848   */\n      tag_282\n        /* \"#utility.yul\":5845:5846   */\n      0x00\n        /* \"#utility.yul\":5834:5843   */\n      dup4\n        /* \"#utility.yul\":5830:5847   */\n      add\n        /* \"#utility.yul\":5821:5827   */\n      dup5\n        /* \"#utility.yul\":5777:5848   */\n      tag_213\n      jump\t// in\n    tag_282:\n        /* \"#utility.yul\":5633:5855   */\n      swap3\n      swap2\n      pop\n      pop\n      jump\t// out\n        /* \"#utility.yul\":5861:6335   */\n    tag_116:\n        /* \"#utility.yul\":5929:5935   */\n      0x00\n        /* \"#utility.yul\":5937:5943   */\n      dup1\n        /* \"#utility.yul\":5986:5988   */\n      0x40\n        /* \"#utility.yul\":5974:5983   */\n      dup4\n        /* \"#utility.yul\":5965:5972   */\n      dup6\n        /* \"#utility.yul\":5961:5984   */\n      sub\n        /* \"#utility.yul\":5957:5989   */\n      slt\n        /* \"#utility.yul\":5954:6073   */\n      iszero\n      tag_284\n      jumpi\n        /* \"#utility.yul\":5992:6071   */\n      tag_285\n      tag_192\n      jump\t// in\n    tag_285:\n        /* \"#utility.yul\":5954:6073   */\n    tag_284:\n        /* \"#utility.yul\":6112:6113   */\n      0x00\n        /* \"#utility.yul\":6137:6190   */\n      tag_286\n        /* \"#utility.yul\":6182:6189   */\n      dup6\n        /* \"#utility.yul\":6173:6179   */\n      dup3\n        /* \"#utility.yul\":6162:6171   */\n      dup7\n        /* \"#utility.yul\":6158:6180   */\n      add\n        /* \"#utility.yul\":6137:6190   */\n      tag_210\n      jump\t// in\n    tag_286:\n        /* \"#utility.yul\":6127:6190   */\n      swap3\n      pop\n        /* \"#utility.yul\":6083:6200   */\n      pop\n        /* \"#utility.yul\":6239:6241   */\n      0x20\n        /* \"#utility.yul\":6265:6318   */\n      tag_287\n        /* \"#utility.yul\":6310:6317   */\n      dup6\n        /* \"#utility.yul\":6301:6307   */\n      dup3\n        /* \"#utility.yul\":6290:6299   */\n      dup7\n        /* \"#utility.yul\":6286:6308   */\n      add\n        /* \"#utility.yul\":6265:6318   */\n      tag_196\n      jump\t// in\n    tag_287:\n        /* \"#utility.yul\":6255:6318   */\n      swap2\n      pop\n        /* \"#utility.yul\":6210:6328   */\n      pop\n        /* \"#utility.yul\":5861:6335   */\n      swap3\n      pop\n      swap3\n      swap1\n      pop\n      jump\t// out\n        /* \"#utility.yul\":6341:6467   */\n    tag_214:\n        /* \"#utility.yul\":6436:6460   */\n      tag_289\n        /* \"#utility.yul\":6454:6459   */\n      dup2\n        /* \"#utility.yul\":6436:6460   */\n      tag_194\n      jump\t// in\n    tag_289:\n        /* \"#utility.yul\":6431:6434   */\n      dup3\n        /* \"#utility.yul\":6424:6461   */\n      mstore\n        /* \"#utility.yul\":6341:6467   */\n      pop\n      pop\n      jump\t// out\n        /* \"#utility.yul\":6473:6829   */\n    tag_120:\n        /* \"#utility.yul\":6602:6606   */\n      0x00\n        /* \"#utility.yul\":6640:6642   */\n      0x40\n        /* \"#utility.yul\":6629:6638   */\n      dup3\n        /* \"#utility.yul\":6625:6643   */\n      add\n        /* \"#utility.yul\":6617:6643   */\n      swap1\n      pop\n        /* \"#utility.yul\":6653:6732   */\n      tag_291\n        /* \"#utility.yul\":6729:6730   */\n      0x00\n        /* \"#utility.yul\":6718:6727   */\n      dup4\n        /* \"#utility.yul\":6714:6731   */\n      add\n        /* \"#utility.yul\":6705:6711   */\n      dup6\n        /* \"#utility.yul\":6653:6732   */\n      tag_214\n      jump\t// in\n    tag_291:\n        /* \"#utility.yul\":6742:6822   */\n      tag_292\n        /* \"#utility.yul\":6818:6820   */\n      0x20\n        /* \"#utility.yul\":6807:6816   */\n      dup4\n        /* \"#utility.yul\":6803:6821   */\n      add\n        /* \"#utility.yul\":6794:6800   */\n      dup5\n        /* \"#utility.yul\":6742:6822   */\n      tag_214\n      jump\t// in\n    tag_292:\n        /* \"#utility.yul\":6473:6829   */\n      swap4\n      swap3\n      pop\n      pop\n      pop\n      jump\t// out\n        /* \"#utility.yul\":6835:6978   */\n    tag_215:\n        /* \"#utility.yul\":6892:6897   */\n      0x00\n        /* \"#utility.yul\":6923:6929   */\n      dup2\n        /* \"#utility.yul\":6917:6930   */\n      mload\n        /* \"#utility.yul\":6908:6930   */\n      swap1\n      pop\n        /* \"#utility.yul\":6939:6972   */\n      tag_294\n        /* \"#utility.yul\":6966:6971   */\n      dup2\n        /* \"#utility.yul\":6939:6972   */\n      tag_195\n      jump\t// in\n    tag_294:\n        /* \"#utility.yul\":6835:6978   */\n      swap3\n      swap2\n      pop\n      pop\n      jump\t// out\n        /* \"#utility.yul\":6984:7335   */\n    tag_129:\n        /* \"#utility.yul\":7054:7060   */\n      0x00\n        /* \"#utility.yul\":7103:7105   */\n      0x20\n        /* \"#utility.yul\":7091:7100   */\n      dup3\n        /* \"#utility.yul\":7082:7089   */\n      dup5\n        /* \"#utility.yul\":7078:7101   */\n      sub\n        /* \"#utility.yul\":7074:7106   */\n      slt\n        /* \"#utility.yul\":7071:7190   */\n      iszero\n      tag_296\n      jumpi\n        /* \"#utility.yul\":7109:7188   */\n      tag_297\n      tag_192\n      jump\t// in\n    tag_297:\n        /* \"#utility.yul\":7071:7190   */\n    tag_296:\n        /* \"#utility.yul\":7229:7230   */\n      0x00\n        /* \"#utility.yul\":7254:7318   */\n      tag_298\n        /* \"#utility.yul\":7310:7317   */\n      dup5\n        /* \"#utility.yul\":7301:7307   */\n      dup3\n        /* \"#utility.yul\":7290:7299   */\n      dup6\n        /* \"#utility.yul\":7286:7308   */\n      add\n        /* \"#utility.yul\":7254:7318   */\n      tag_215\n      jump\t// in\n    tag_298:\n        /* \"#utility.yul\":7244:7318   */\n      swap2\n      pop\n        /* \"#utility.yul\":7200:7328   */\n      pop\n        /* \"#utility.yul\":6984:7335   */\n      swap3\n      swap2\n      pop\n      pop\n      jump\t// out\n        /* \"#utility.yul\":7341:7579   */\n    tag_132:\n        /* \"#utility.yul\":7442:7446   */\n      0x00\n        /* \"#utility.yul\":7480:7482   */\n      0x20\n        /* \"#utility.yul\":7469:7478   */\n      dup3\n        /* \"#utility.yul\":7465:7483   */\n      add\n        /* \"#utility.yul\":7457:7483   */\n      swap1\n      pop\n        /* \"#utility.yul\":7493:7572   */\n      tag_300\n        /* \"#utility.yul\":7569:7570   */\n      0x00\n        /* \"#utility.yul\":7558:7567   */\n      dup4\n        /* \"#utility.yul\":7554:7571   */\n      add\n        /* \"#utility.yul\":7545:7551   */\n      dup5\n        /* \"#utility.yul\":7493:7572   */\n      tag_214\n      jump\t// in\n    tag_300:\n        /* \"#utility.yul\":7341:7579   */\n      swap3\n      swap2\n      pop\n      pop\n      jump\t// out\n        /* \"#utility.yul\":7585:7711   */\n    tag_216:\n        /* \"#utility.yul\":7680:7704   */\n      tag_302\n        /* \"#utility.yul\":7698:7703   */\n      dup2\n        /* \"#utility.yul\":7680:7704   */\n      tag_199\n      jump\t// in\n    tag_302:\n        /* \"#utility.yul\":7675:7678   */\n      dup3\n        /* \"#utility.yul\":7668:7705   */\n      mstore\n        /* \"#utility.yul\":7585:7711   */\n      pop\n      pop\n      jump\t// out\n        /* \"#utility.yul\":7717:7955   */\n    tag_166:\n        /* \"#utility.yul\":7818:7822   */\n      0x00\n        /* \"#utility.yul\":7856:7858   */\n      0x20\n        /* \"#utility.yul\":7845:7854   */\n      dup3\n        /* \"#utility.yul\":7841:7859   */\n      add\n        /* \"#utility.yul\":7833:7859   */\n      swap1\n      pop\n        /* \"#utility.yul\":7869:7948   */\n      tag_304\n        /* \"#utility.yul\":7945:7946   */\n      0x00\n        /* \"#utility.yul\":7934:7943   */\n      dup4\n        /* \"#utility.yul\":7930:7947   */\n      add\n        /* \"#utility.yul\":7921:7927   */\n      dup5\n        /* \"#utility.yul\":7869:7948   */\n      tag_216\n      jump\t// in\n    tag_304:\n        /* \"#utility.yul\":7717:7955   */\n      swap3\n      swap2\n      pop\n      pop\n      jump\t// out\n        /* \"#utility.yul\":7961:8317   */\n    tag_186:\n        /* \"#utility.yul\":8090:8094   */\n      0x00\n        /* \"#utility.yul\":8128:8130   */\n      0x40\n        /* \"#utility.yul\":8117:8126   */\n      dup3\n        /* \"#utility.yul\":8113:8131   */\n      add\n        /* \"#utility.yul\":8105:8131   */\n      swap1\n      pop\n        /* \"#utility.yul\":8141:8220   */\n      tag_306\n        /* \"#utility.yul\":8217:8218   */\n      0x00\n        /* \"#utility.yul\":8206:8215   */\n      dup4\n        /* \"#utility.yul\":8202:8219   */\n      add\n        /* \"#utility.yul\":8193:8199   */\n      dup6\n        /* \"#utility.yul\":8141:8220   */\n      tag_216\n      jump\t// in\n    tag_306:\n        /* \"#utility.yul\":8230:8310   */\n      tag_307\n        /* \"#utility.yul\":8306:8308   */\n      0x20\n        /* \"#utility.yul\":8295:8304   */\n      dup4\n        /* \"#utility.yul\":8291:8309   */\n      add\n        /* \"#utility.yul\":8282:8288   */\n      dup5\n        /* \"#utility.yul\":8230:8310   */\n      tag_214\n      jump\t// in\n    tag_307:\n        /* \"#utility.yul\":7961:8317   */\n      swap4\n      swap3\n      pop\n      pop\n      pop\n      jump\t// out\n\n    auxdata: 0xa2646970667358221220ce5347ad53fab631c836bbd18a87bc12d215692160393143a638ca8852ddc5e764736f6c63430008170033\n}\n",
				"bytecode": {
					"linkReferences": {
						"contracts/storage/LibSMEambStorage.sol": {
							"SMEambStorage": [
								{
									"length": 20,
									"start": 1219
								},
								{
									"length": 20,
									"start": 1375
								},
								{
									"length": 20,
									"start": 1487
								},
								{
									"length": 20,
									"start": 1659
								},
								{
									"length": 20,
									"start": 1790
								},
								{
									"length": 20,
									"start": 2359
								},
								{
									"length": 20,
									"start": 2582
								},
								{
									"length": 20,
									"start": 2713
								},
								{
									"length": 20,
									"start": 2929
								}
							]
						}
					},
					"object": "608060405234801561000f575f80fd5b506110018061001d5f395ff3fe608060405234801561000f575f80fd5b5060043610610156575f3560e01c80639862e50f116100c1578063d611367b1161007a578063d611367b146103e0578063d9d21c63146103fe578063dc3bd0fd1461041c578063f3ef17ac1461044c578063f41523ae1461046a578063fe0bc95a1461048857610156565b80639862e50f146103085780639cea3d20146103265780639f07fba114610344578063c70059bf14610362578063cbaf28ce14610380578063d0ddbbfa146103b057610156565b8063625553e211610113578063625553e214610230578063753f84061461024e57806376dd3c441461027e57806384ed13771461029c57806389566257146102cc5780638bdb7e0f146102ea57610156565b8063068e4d511461015a5780631086568e146101765780632a2745b61461019457806336a141c9146101b2578063444996c1146101d05780634fe3c13e14610200575b5f80fd5b610174600480360381019061016f9190610c45565b6104a4565b005b61017e61050d565b60405161018b9190610c92565b60405180910390f35b61019c610512565b6040516101a99190610c92565b60405180910390f35b6101ba610539565b6040516101c79190610c92565b60405180910390f35b6101ea60048036038101906101e59190610cab565b61053e565b6040516101f79190610c92565b60405180910390f35b61021a60048036038101906102159190610cab565b6107e1565b6040516102279190610dc1565b60405180910390f35b610238610895565b6040516102459190610c92565b60405180910390f35b61026860048036038101906102639190610cab565b6108b6565b6040516102759190610de9565b60405180910390f35b6102866108f6565b6040516102939190610c92565b60405180910390f35b6102b660048036038101906102b19190610e2c565b610917565b6040516102c39190610c92565b60405180910390f35b6102d4610995565b6040516102e19190610c92565b60405180910390f35b6102f26109b1565b6040516102ff9190610e6f565b60405180910390f35b6103106109d7565b60405161031d9190610c92565b60405180910390f35b61032e6109dc565b60405161033b9190610c92565b60405180910390f35b61034c6109e1565b6040516103599190610c92565b60405180910390f35b61036a6109e7565b6040516103779190610c92565b60405180910390f35b61039a60048036038101906103959190610cab565b6109ec565b6040516103a79190610dc1565b60405180910390f35b6103ca60048036038101906103c59190610cab565b610a79565b6040516103d79190610c92565b60405180910390f35b6103e8610af7565b6040516103f59190610c92565b60405180910390f35b610406610afc565b6040516104139190610c92565b60405180910390f35b61043660048036038101906104319190610cab565b610b1d565b6040516104439190610e97565b60405180910390f35b610454610b2e565b6040516104619190610c92565b60405180910390f35b610472610b46565b60405161047f9190610c92565b60405180910390f35b6104a2600480360381019061049d9190610eb0565b610b52565b005b73__$3f3f7fbeed7f8e090b258bc8e3513c9e4b$__63e68fdee183836040518363ffffffff1660e01b81526004016104dd929190610efd565b5f6040518083038186803b1580156104f3575f80fd5b505af4158015610505573d5f803e3d5ffd5b505050505050565b60e881565b5f7fffffffffffffffffffffffffffffffffffffffffffffffffffffffffffffffff905090565b60a081565b5f8173__$3f3f7fbeed7f8e090b258bc8e3513c9e4b$__6398995f776040518163ffffffff1660e01b8152600401602060405180830381865af4158015610587573d5f803e3d5ffd5b505050506040513d601f19601f820116820180604052508101906105ab9190610f38565b116107cb5773__$3f3f7fbeed7f8e090b258bc8e3513c9e4b$__6347f69eba836040518263ffffffff1660e01b81526004016105e79190610f63565b602060405180830381865af4158015610602573d5f803e3d5ffd5b505050506040513d601f19601f820116820180604052508101906106269190610f38565b9050610630610512565b82111561065557610640816108b6565b6107dc5761065463df2d9b4260e01b610bbb565b5b5f81036107a35773__$3f3f7fbeed7f8e090b258bc8e3513c9e4b$__639451c99a6040518163ffffffff1660e01b8152600401602060405180830381865af41580156106a3573d5f803e3d5ffd5b505050506040513d601f19601f820116820180604052508101906106c79190610f38565b82106106de576106dd63df2d9b4260e01b610bbb565b5b5b73__$3f3f7fbeed7f8e090b258bc8e3513c9e4b$__6347f69eba83600190039350836040518263ffffffff1660e01b815260040161071d9190610f63565b602060405180830381865af4158015610738573d5f803e3d5ffd5b505050506040513d601f19601f8201168201806040525081019061075c9190610f38565b90505f81031561079e575f7c0100000000000000000000000000000000000000000000000000000000821603156107dc5761079d63df2d9b4260e01b610bbb565b5b6106df565b5f7c0100000000000000000000000000000000000000000000000000000000821603156107dc575b6107db63df2d9b4260e01b610bbb565b5b919050565b6107e9610bc3565b81815f019073ffffffffffffffffffffffffffffffffffffffff16908173ffffffffffffffffffffffffffffffffffffffff168152505060a082901c816020019067ffffffffffffffff16908167ffffffffffffffff16815250505f7c01000000000000000000000000000000000000000000000000000000008316141581604001901515908115158152505060e882901c816060019062ffffff16908162ffffff1681525050919050565b7c020000000000000000000000000000000000000000000000000000000081565b5f7c0100000000000000000000000000000000000000000000000000000000821673ffffffffffffffffffffffffffffffffffffffff8316119050919050565b7cffffffffffffffffffffffffffffffffffffffffffffffffffffffffff81565b5f73__$3f3f7fbeed7f8e090b258bc8e3513c9e4b$__6321b0ed7d836040518263ffffffff1660e01b815260040161094f9190610f8b565b602060405180830381865af415801561096a573d5f803e3d5ffd5b505050506040513d601f19601f8201168201806040525081019061098e9190610f38565b9050919050565b77ffffffffffffffffffffffffffffffffffffffffffffffff81565b7fddf252ad1be2c89b69c2b068fc378daa952ba7f163c4a11628f55a4df523b3ef5f1b81565b604081565b60c081565b61138881565b60e181565b6109f4610bc3565b610a7273__$3f3f7fbeed7f8e090b258bc8e3513c9e4b$__6347f69eba846040518263ffffffff1660e01b8152600401610a2e9190610f63565b602060405180830381865af4158015610a49573d5f803e3d5ffd5b505050506040513d601f19601f82011682018060405250810190610a6d9190610f38565b6107e1565b9050919050565b5f73__$3f3f7fbeed7f8e090b258bc8e3513c9e4b$__6347f69eba836040518263ffffffff1660e01b8152600401610ab19190610f63565b602060405180830381865af4158015610acc573d5f803e3d5ffd5b505050506040513d601f19601f82011682018060405250810190610af09190610f38565b9050919050565b608081565b7c010000000000000000000000000000000000000000000000000000000081565b5f610b278261053e565b9050919050565b73ffffffffffffffffffffffffffffffffffffffff81565b67ffffffffffffffff81565b73__$3f3f7fbeed7f8e090b258bc8e3513c9e4b$__63a330117383836040518363ffffffff1660e01b8152600401610b8b929190610fa4565b5f6040518083038186803b158015610ba1575f80fd5b505af4158015610bb3573d5f803e3d5ffd5b505050505050565b805f5260045ffd5b60405180608001604052805f73ffffffffffffffffffffffffffffffffffffffff1681526020015f67ffffffffffffffff1681526020015f151581526020015f62ffffff1681525090565b5f80fd5b5f819050919050565b610c2481610c12565b8114610c2e575f80fd5b50565b5f81359050610c3f81610c1b565b92915050565b5f8060408385031215610c5b57610c5a610c0e565b5b5f610c6885828601610c31565b9250506020610c7985828601610c31565b9150509250929050565b610c8c81610c12565b82525050565b5f602082019050610ca55f830184610c83565b92915050565b5f60208284031215610cc057610cbf610c0e565b5b5f610ccd84828501610c31565b91505092915050565b5f73ffffffffffffffffffffffffffffffffffffffff82169050919050565b5f610cff82610cd6565b9050919050565b610d0f81610cf5565b82525050565b5f67ffffffffffffffff82169050919050565b610d3181610d15565b82525050565b5f8115159050919050565b610d4b81610d37565b82525050565b5f62ffffff82169050919050565b610d6881610d51565b82525050565b608082015f820151610d825f850182610d06565b506020820151610d956020850182610d28565b506040820151610da86040850182610d42565b506060820151610dbb6060850182610d5f565b50505050565b5f608082019050610dd45f830184610d6e565b92915050565b610de381610d37565b82525050565b5f602082019050610dfc5f830184610dda565b92915050565b610e0b81610cf5565b8114610e15575f80fd5b50565b5f81359050610e2681610e02565b92915050565b5f60208284031215610e4157610e40610c0e565b5b5f610e4e84828501610e18565b91505092915050565b5f819050919050565b610e6981610e57565b82525050565b5f602082019050610e825f830184610e60565b92915050565b610e9181610cf5565b82525050565b5f602082019050610eaa5f830184610e88565b92915050565b5f8060408385031215610ec657610ec5610c0e565b5b5f610ed385828601610e18565b9250506020610ee485828601610c31565b9150509250929050565b610ef781610c12565b82525050565b5f604082019050610f105f830185610eee565b610f1d6020830184610eee565b9392505050565b5f81519050610f3281610c1b565b92915050565b5f60208284031215610f4d57610f4c610c0e565b5b5f610f5a84828501610f24565b91505092915050565b5f602082019050610f765f830184610eee565b92915050565b610f8581610cf5565b82525050565b5f602082019050610f9e5f830184610f7c565b92915050565b5f604082019050610fb75f830185610f7c565b610fc46020830184610eee565b939250505056fea2646970667358221220ce5347ad53fab631c836bbd18a87bc12d215692160393143a638ca8852ddc5e764736f6c63430008170033",
					"opcodes": "PUSH1 0x80 PUSH1 0x40 MSTORE CALLVALUE DUP1 ISZERO PUSH2 0xF JUMPI PUSH0 DUP1 REVERT JUMPDEST POP PUSH2 0x1001 DUP1 PUSH2 0x1D PUSH0 CODECOPY PUSH0 RETURN INVALID PUSH1 0x80 PUSH1 0x40 MSTORE CALLVALUE DUP1 ISZERO PUSH2 0xF JUMPI PUSH0 DUP1 REVERT JUMPDEST POP PUSH1 0x4 CALLDATASIZE LT PUSH2 0x156 JUMPI PUSH0 CALLDATALOAD PUSH1 0xE0 SHR DUP1 PUSH4 0x9862E50F GT PUSH2 0xC1 JUMPI DUP1 PUSH4 0xD611367B GT PUSH2 0x7A JUMPI DUP1 PUSH4 0xD611367B EQ PUSH2 0x3E0 JUMPI DUP1 PUSH4 0xD9D21C63 EQ PUSH2 0x3FE JUMPI DUP1 PUSH4 0xDC3BD0FD EQ PUSH2 0x41C JUMPI DUP1 PUSH4 0xF3EF17AC EQ PUSH2 0x44C JUMPI DUP1 PUSH4 0xF41523AE EQ PUSH2 0x46A JUMPI DUP1 PUSH4 0xFE0BC95A EQ PUSH2 0x488 JUMPI PUSH2 0x156 JUMP JUMPDEST DUP1 PUSH4 0x9862E50F EQ PUSH2 0x308 JUMPI DUP1 PUSH4 0x9CEA3D20 EQ PUSH2 0x326 JUMPI DUP1 PUSH4 0x9F07FBA1 EQ PUSH2 0x344 JUMPI DUP1 PUSH4 0xC70059BF EQ PUSH2 0x362 JUMPI DUP1 PUSH4 0xCBAF28CE EQ PUSH2 0x380 JUMPI DUP1 PUSH4 0xD0DDBBFA EQ PUSH2 0x3B0 JUMPI PUSH2 0x156 JUMP JUMPDEST DUP1 PUSH4 0x625553E2 GT PUSH2 0x113 JUMPI DUP1 PUSH4 0x625553E2 EQ PUSH2 0x230 JUMPI DUP1 PUSH4 0x753F8406 EQ PUSH2 0x24E JUMPI DUP1 PUSH4 0x76DD3C44 EQ PUSH2 0x27E JUMPI DUP1 PUSH4 0x84ED1377 EQ PUSH2 0x29C JUMPI DUP1 PUSH4 0x89566257 EQ PUSH2 0x2CC JUMPI DUP1 PUSH4 0x8BDB7E0F EQ PUSH2 0x2EA JUMPI PUSH2 0x156 JUMP JUMPDEST DUP1 PUSH4 0x68E4D51 EQ PUSH2 0x15A JUMPI DUP1 PUSH4 0x1086568E EQ PUSH2 0x176 JUMPI DUP1 PUSH4 0x2A2745B6 EQ PUSH2 0x194 JUMPI DUP1 PUSH4 0x36A141C9 EQ PUSH2 0x1B2 JUMPI DUP1 PUSH4 0x444996C1 EQ PUSH2 0x1D0 JUMPI DUP1 PUSH4 0x4FE3C13E EQ PUSH2 0x200 JUMPI JUMPDEST PUSH0 DUP1 REVERT JUMPDEST PUSH2 0x174 PUSH1 0x4 DUP1 CALLDATASIZE SUB DUP2 ADD SWAP1 PUSH2 0x16F SWAP2 SWAP1 PUSH2 0xC45 JUMP JUMPDEST PUSH2 0x4A4 JUMP JUMPDEST STOP JUMPDEST PUSH2 0x17E PUSH2 0x50D JUMP JUMPDEST PUSH1 0x40 MLOAD PUSH2 0x18B SWAP2 SWAP1 PUSH2 0xC92 JUMP JUMPDEST PUSH1 0x40 MLOAD DUP1 SWAP2 SUB SWAP1 RETURN JUMPDEST PUSH2 0x19C PUSH2 0x512 JUMP JUMPDEST PUSH1 0x40 MLOAD PUSH2 0x1A9 SWAP2 SWAP1 PUSH2 0xC92 JUMP JUMPDEST PUSH1 0x40 MLOAD DUP1 SWAP2 SUB SWAP1 RETURN JUMPDEST PUSH2 0x1BA PUSH2 0x539 JUMP JUMPDEST PUSH1 0x40 MLOAD PUSH2 0x1C7 SWAP2 SWAP1 PUSH2 0xC92 JUMP JUMPDEST PUSH1 0x40 MLOAD DUP1 SWAP2 SUB SWAP1 RETURN JUMPDEST PUSH2 0x1EA PUSH1 0x4 DUP1 CALLDATASIZE SUB DUP2 ADD SWAP1 PUSH2 0x1E5 SWAP2 SWAP1 PUSH2 0xCAB JUMP JUMPDEST PUSH2 0x53E JUMP JUMPDEST PUSH1 0x40 MLOAD PUSH2 0x1F7 SWAP2 SWAP1 PUSH2 0xC92 JUMP JUMPDEST PUSH1 0x40 MLOAD DUP1 SWAP2 SUB SWAP1 RETURN JUMPDEST PUSH2 0x21A PUSH1 0x4 DUP1 CALLDATASIZE SUB DUP2 ADD SWAP1 PUSH2 0x215 SWAP2 SWAP1 PUSH2 0xCAB JUMP JUMPDEST PUSH2 0x7E1 JUMP JUMPDEST PUSH1 0x40 MLOAD PUSH2 0x227 SWAP2 SWAP1 PUSH2 0xDC1 JUMP JUMPDEST PUSH1 0x40 MLOAD DUP1 SWAP2 SUB SWAP1 RETURN JUMPDEST PUSH2 0x238 PUSH2 0x895 JUMP JUMPDEST PUSH1 0x40 MLOAD PUSH2 0x245 SWAP2 SWAP1 PUSH2 0xC92 JUMP JUMPDEST PUSH1 0x40 MLOAD DUP1 SWAP2 SUB SWAP1 RETURN JUMPDEST PUSH2 0x268 PUSH1 0x4 DUP1 CALLDATASIZE SUB DUP2 ADD SWAP1 PUSH2 0x263 SWAP2 SWAP1 PUSH2 0xCAB JUMP JUMPDEST PUSH2 0x8B6 JUMP JUMPDEST PUSH1 0x40 MLOAD PUSH2 0x275 SWAP2 SWAP1 PUSH2 0xDE9 JUMP JUMPDEST PUSH1 0x40 MLOAD DUP1 SWAP2 SUB SWAP1 RETURN JUMPDEST PUSH2 0x286 PUSH2 0x8F6 JUMP JUMPDEST PUSH1 0x40 MLOAD PUSH2 0x293 SWAP2 SWAP1 PUSH2 0xC92 JUMP JUMPDEST PUSH1 0x40 MLOAD DUP1 SWAP2 SUB SWAP1 RETURN JUMPDEST PUSH2 0x2B6 PUSH1 0x4 DUP1 CALLDATASIZE SUB DUP2 ADD SWAP1 PUSH2 0x2B1 SWAP2 SWAP1 PUSH2 0xE2C JUMP JUMPDEST PUSH2 0x917 JUMP JUMPDEST PUSH1 0x40 MLOAD PUSH2 0x2C3 SWAP2 SWAP1 PUSH2 0xC92 JUMP JUMPDEST PUSH1 0x40 MLOAD DUP1 SWAP2 SUB SWAP1 RETURN JUMPDEST PUSH2 0x2D4 PUSH2 0x995 JUMP JUMPDEST PUSH1 0x40 MLOAD PUSH2 0x2E1 SWAP2 SWAP1 PUSH2 0xC92 JUMP JUMPDEST PUSH1 0x40 MLOAD DUP1 SWAP2 SUB SWAP1 RETURN JUMPDEST PUSH2 0x2F2 PUSH2 0x9B1 JUMP JUMPDEST PUSH1 0x40 MLOAD PUSH2 0x2FF SWAP2 SWAP1 PUSH2 0xE6F JUMP JUMPDEST PUSH1 0x40 MLOAD DUP1 SWAP2 SUB SWAP1 RETURN JUMPDEST PUSH2 0x310 PUSH2 0x9D7 JUMP JUMPDEST PUSH1 0x40 MLOAD PUSH2 0x31D SWAP2 SWAP1 PUSH2 0xC92 JUMP JUMPDEST PUSH1 0x40 MLOAD DUP1 SWAP2 SUB SWAP1 RETURN JUMPDEST PUSH2 0x32E PUSH2 0x9DC JUMP JUMPDEST PUSH1 0x40 MLOAD PUSH2 0x33B SWAP2 SWAP1 PUSH2 0xC92 JUMP JUMPDEST PUSH1 0x40 MLOAD DUP1 SWAP2 SUB SWAP1 RETURN JUMPDEST PUSH2 0x34C PUSH2 0x9E1 JUMP JUMPDEST PUSH1 0x40 MLOAD PUSH2 0x359 SWAP2 SWAP1 PUSH2 0xC92 JUMP JUMPDEST PUSH1 0x40 MLOAD DUP1 SWAP2 SUB SWAP1 RETURN JUMPDEST PUSH2 0x36A PUSH2 0x9E7 JUMP JUMPDEST PUSH1 0x40 MLOAD PUSH2 0x377 SWAP2 SWAP1 PUSH2 0xC92 JUMP JUMPDEST PUSH1 0x40 MLOAD DUP1 SWAP2 SUB SWAP1 RETURN JUMPDEST PUSH2 0x39A PUSH1 0x4 DUP1 CALLDATASIZE SUB DUP2 ADD SWAP1 PUSH2 0x395 SWAP2 SWAP1 PUSH2 0xCAB JUMP JUMPDEST PUSH2 0x9EC JUMP JUMPDEST PUSH1 0x40 MLOAD PUSH2 0x3A7 SWAP2 SWAP1 PUSH2 0xDC1 JUMP JUMPDEST PUSH1 0x40 MLOAD DUP1 SWAP2 SUB SWAP1 RETURN JUMPDEST PUSH2 0x3CA PUSH1 0x4 DUP1 CALLDATASIZE SUB DUP2 ADD SWAP1 PUSH2 0x3C5 SWAP2 SWAP1 PUSH2 0xCAB JUMP JUMPDEST PUSH2 0xA79 JUMP JUMPDEST PUSH1 0x40 MLOAD PUSH2 0x3D7 SWAP2 SWAP1 PUSH2 0xC92 JUMP JUMPDEST PUSH1 0x40 MLOAD DUP1 SWAP2 SUB SWAP1 RETURN JUMPDEST PUSH2 0x3E8 PUSH2 0xAF7 JUMP JUMPDEST PUSH1 0x40 MLOAD PUSH2 0x3F5 SWAP2 SWAP1 PUSH2 0xC92 JUMP JUMPDEST PUSH1 0x40 MLOAD DUP1 SWAP2 SUB SWAP1 RETURN JUMPDEST PUSH2 0x406 PUSH2 0xAFC JUMP JUMPDEST PUSH1 0x40 MLOAD PUSH2 0x413 SWAP2 SWAP1 PUSH2 0xC92 JUMP JUMPDEST PUSH1 0x40 MLOAD DUP1 SWAP2 SUB SWAP1 RETURN JUMPDEST PUSH2 0x436 PUSH1 0x4 DUP1 CALLDATASIZE SUB DUP2 ADD SWAP1 PUSH2 0x431 SWAP2 SWAP1 PUSH2 0xCAB JUMP JUMPDEST PUSH2 0xB1D JUMP JUMPDEST PUSH1 0x40 MLOAD PUSH2 0x443 SWAP2 SWAP1 PUSH2 0xE97 JUMP JUMPDEST PUSH1 0x40 MLOAD DUP1 SWAP2 SUB SWAP1 RETURN JUMPDEST PUSH2 0x454 PUSH2 0xB2E JUMP JUMPDEST PUSH1 0x40 MLOAD PUSH2 0x461 SWAP2 SWAP1 PUSH2 0xC92 JUMP JUMPDEST PUSH1 0x40 MLOAD DUP1 SWAP2 SUB SWAP1 RETURN JUMPDEST PUSH2 0x472 PUSH2 0xB46 JUMP JUMPDEST PUSH1 0x40 MLOAD PUSH2 0x47F SWAP2 SWAP1 PUSH2 0xC92 JUMP JUMPDEST PUSH1 0x40 MLOAD DUP1 SWAP2 SUB SWAP1 RETURN JUMPDEST PUSH2 0x4A2 PUSH1 0x4 DUP1 CALLDATASIZE SUB DUP2 ADD SWAP1 PUSH2 0x49D SWAP2 SWAP1 PUSH2 0xEB0 JUMP JUMPDEST PUSH2 0xB52 JUMP JUMPDEST STOP JUMPDEST PUSH20 0x0 PUSH4 0xE68FDEE1 DUP4 DUP4 PUSH1 0x40 MLOAD DUP4 PUSH4 0xFFFFFFFF AND PUSH1 0xE0 SHL DUP2 MSTORE PUSH1 0x4 ADD PUSH2 0x4DD SWAP3 SWAP2 SWAP1 PUSH2 0xEFD JUMP JUMPDEST PUSH0 PUSH1 0x40 MLOAD DUP1 DUP4 SUB DUP2 DUP7 DUP1 EXTCODESIZE ISZERO DUP1 ISZERO PUSH2 0x4F3 JUMPI PUSH0 DUP1 REVERT JUMPDEST POP GAS DELEGATECALL ISZERO DUP1 ISZERO PUSH2 0x505 JUMPI RETURNDATASIZE PUSH0 DUP1 RETURNDATACOPY RETURNDATASIZE PUSH0 REVERT JUMPDEST POP POP POP POP POP POP JUMP JUMPDEST PUSH1 0xE8 DUP2 JUMP JUMPDEST PUSH0 PUSH32 0xFFFFFFFFFFFFFFFFFFFFFFFFFFFFFFFFFFFFFFFFFFFFFFFFFFFFFFFFFFFFFFFF SWAP1 POP SWAP1 JUMP JUMPDEST PUSH1 0xA0 DUP2 JUMP JUMPDEST PUSH0 DUP2 PUSH20 0x0 PUSH4 0x98995F77 PUSH1 0x40 MLOAD DUP2 PUSH4 0xFFFFFFFF AND PUSH1 0xE0 SHL DUP2 MSTORE PUSH1 0x4 ADD PUSH1 0x20 PUSH1 0x40 MLOAD DUP1 DUP4 SUB DUP2 DUP7 GAS DELEGATECALL ISZERO DUP1 ISZERO PUSH2 0x587 JUMPI RETURNDATASIZE PUSH0 DUP1 RETURNDATACOPY RETURNDATASIZE PUSH0 REVERT JUMPDEST POP POP POP POP PUSH1 0x40 MLOAD RETURNDATASIZE PUSH1 0x1F NOT PUSH1 0x1F DUP3 ADD AND DUP3 ADD DUP1 PUSH1 0x40 MSTORE POP DUP2 ADD SWAP1 PUSH2 0x5AB SWAP2 SWAP1 PUSH2 0xF38 JUMP JUMPDEST GT PUSH2 0x7CB JUMPI PUSH20 0x0 PUSH4 0x47F69EBA DUP4 PUSH1 0x40 MLOAD DUP3 PUSH4 0xFFFFFFFF AND PUSH1 0xE0 SHL DUP2 MSTORE PUSH1 0x4 ADD PUSH2 0x5E7 SWAP2 SWAP1 PUSH2 0xF63 JUMP JUMPDEST PUSH1 0x20 PUSH1 0x40 MLOAD DUP1 DUP4 SUB DUP2 DUP7 GAS DELEGATECALL ISZERO DUP1 ISZERO PUSH2 0x602 JUMPI RETURNDATASIZE PUSH0 DUP1 RETURNDATACOPY RETURNDATASIZE PUSH0 REVERT JUMPDEST POP POP POP POP PUSH1 0x40 MLOAD RETURNDATASIZE PUSH1 0x1F NOT PUSH1 0x1F DUP3 ADD AND DUP3 ADD DUP1 PUSH1 0x40 MSTORE POP DUP2 ADD SWAP1 PUSH2 0x626 SWAP2 SWAP1 PUSH2 0xF38 JUMP JUMPDEST SWAP1 POP PUSH2 0x630 PUSH2 0x512 JUMP JUMPDEST DUP3 GT ISZERO PUSH2 0x655 JUMPI PUSH2 0x640 DUP2 PUSH2 0x8B6 JUMP JUMPDEST PUSH2 0x7DC JUMPI PUSH2 0x654 PUSH4 0xDF2D9B42 PUSH1 0xE0 SHL PUSH2 0xBBB JUMP JUMPDEST JUMPDEST PUSH0 DUP2 SUB PUSH2 0x7A3 JUMPI PUSH20 0x0 PUSH4 0x9451C99A PUSH1 0x40 MLOAD DUP2 PUSH4 0xFFFFFFFF AND PUSH1 0xE0 SHL DUP2 MSTORE PUSH1 0x4 ADD PUSH1 0x20 PUSH1 0x40 MLOAD DUP1 DUP4 SUB DUP2 DUP7 GAS DELEGATECALL ISZERO DUP1 ISZERO PUSH2 0x6A3 JUMPI RETURNDATASIZE PUSH0 DUP1 RETURNDATACOPY RETURNDATASIZE PUSH0 REVERT JUMPDEST POP POP POP POP PUSH1 0x40 MLOAD RETURNDATASIZE PUSH1 0x1F NOT PUSH1 0x1F DUP3 ADD AND DUP3 ADD DUP1 PUSH1 0x40 MSTORE POP DUP2 ADD SWAP1 PUSH2 0x6C7 SWAP2 SWAP1 PUSH2 0xF38 JUMP JUMPDEST DUP3 LT PUSH2 0x6DE JUMPI PUSH2 0x6DD PUSH4 0xDF2D9B42 PUSH1 0xE0 SHL PUSH2 0xBBB JUMP JUMPDEST JUMPDEST JUMPDEST PUSH20 0x0 PUSH4 0x47F69EBA DUP4 PUSH1 0x1 SWAP1 SUB SWAP4 POP DUP4 PUSH1 0x40 MLOAD DUP3 PUSH4 0xFFFFFFFF AND PUSH1 0xE0 SHL DUP2 MSTORE PUSH1 0x4 ADD PUSH2 0x71D SWAP2 SWAP1 PUSH2 0xF63 JUMP JUMPDEST PUSH1 0x20 PUSH1 0x40 MLOAD DUP1 DUP4 SUB DUP2 DUP7 GAS DELEGATECALL ISZERO DUP1 ISZERO PUSH2 0x738 JUMPI RETURNDATASIZE PUSH0 DUP1 RETURNDATACOPY RETURNDATASIZE PUSH0 REVERT JUMPDEST POP POP POP POP PUSH1 0x40 MLOAD RETURNDATASIZE PUSH1 0x1F NOT PUSH1 0x1F DUP3 ADD AND DUP3 ADD DUP1 PUSH1 0x40 MSTORE POP DUP2 ADD SWAP1 PUSH2 0x75C SWAP2 SWAP1 PUSH2 0xF38 JUMP JUMPDEST SWAP1 POP PUSH0 DUP2 SUB ISZERO PUSH2 0x79E JUMPI PUSH0 PUSH29 0x100000000000000000000000000000000000000000000000000000000 DUP3 AND SUB ISZERO PUSH2 0x7DC JUMPI PUSH2 0x79D PUSH4 0xDF2D9B42 PUSH1 0xE0 SHL PUSH2 0xBBB JUMP JUMPDEST JUMPDEST PUSH2 0x6DF JUMP JUMPDEST PUSH0 PUSH29 0x100000000000000000000000000000000000000000000000000000000 DUP3 AND SUB ISZERO PUSH2 0x7DC JUMPI JUMPDEST PUSH2 0x7DB PUSH4 0xDF2D9B42 PUSH1 0xE0 SHL PUSH2 0xBBB JUMP JUMPDEST JUMPDEST SWAP2 SWAP1 POP JUMP JUMPDEST PUSH2 0x7E9 PUSH2 0xBC3 JUMP JUMPDEST DUP2 DUP2 PUSH0 ADD SWAP1 PUSH20 0xFFFFFFFFFFFFFFFFFFFFFFFFFFFFFFFFFFFFFFFF AND SWAP1 DUP2 PUSH20 0xFFFFFFFFFFFFFFFFFFFFFFFFFFFFFFFFFFFFFFFF AND DUP2 MSTORE POP POP PUSH1 0xA0 DUP3 SWAP1 SHR DUP2 PUSH1 0x20 ADD SWAP1 PUSH8 0xFFFFFFFFFFFFFFFF AND SWAP1 DUP2 PUSH8 0xFFFFFFFFFFFFFFFF AND DUP2 MSTORE POP POP PUSH0 PUSH29 0x100000000000000000000000000000000000000000000000000000000 DUP4 AND EQ ISZERO DUP2 PUSH1 0x40 ADD SWAP1 ISZERO ISZERO SWAP1 DUP2 ISZERO ISZERO DUP2 MSTORE POP POP PUSH1 0xE8 DUP3 SWAP1 SHR DUP2 PUSH1 0x60 ADD SWAP1 PUSH3 0xFFFFFF AND SWAP1 DUP2 PUSH3 0xFFFFFF AND DUP2 MSTORE POP POP SWAP2 SWAP1 POP JUMP JUMPDEST PUSH29 0x200000000000000000000000000000000000000000000000000000000 DUP2 JUMP JUMPDEST PUSH0 PUSH29 0x100000000000000000000000000000000000000000000000000000000 DUP3 AND PUSH20 0xFFFFFFFFFFFFFFFFFFFFFFFFFFFFFFFFFFFFFFFF DUP4 AND GT SWAP1 POP SWAP2 SWAP1 POP JUMP JUMPDEST PUSH29 0xFFFFFFFFFFFFFFFFFFFFFFFFFFFFFFFFFFFFFFFFFFFFFFFFFFFFFFFFFF DUP2 JUMP JUMPDEST PUSH0 PUSH20 0x0 PUSH4 0x21B0ED7D DUP4 PUSH1 0x40 MLOAD DUP3 PUSH4 0xFFFFFFFF AND PUSH1 0xE0 SHL DUP2 MSTORE PUSH1 0x4 ADD PUSH2 0x94F SWAP2 SWAP1 PUSH2 0xF8B JUMP JUMPDEST PUSH1 0x20 PUSH1 0x40 MLOAD DUP1 DUP4 SUB DUP2 DUP7 GAS DELEGATECALL ISZERO DUP1 ISZERO PUSH2 0x96A JUMPI RETURNDATASIZE PUSH0 DUP1 RETURNDATACOPY RETURNDATASIZE PUSH0 REVERT JUMPDEST POP POP POP POP PUSH1 0x40 MLOAD RETURNDATASIZE PUSH1 0x1F NOT PUSH1 0x1F DUP3 ADD AND DUP3 ADD DUP1 PUSH1 0x40 MSTORE POP DUP2 ADD SWAP1 PUSH2 0x98E SWAP2 SWAP1 PUSH2 0xF38 JUMP JUMPDEST SWAP1 POP SWAP2 SWAP1 POP JUMP JUMPDEST PUSH24 0xFFFFFFFFFFFFFFFFFFFFFFFFFFFFFFFFFFFFFFFFFFFFFFFF DUP2 JUMP JUMPDEST PUSH32 0xDDF252AD1BE2C89B69C2B068FC378DAA952BA7F163C4A11628F55A4DF523B3EF PUSH0 SHL DUP2 JUMP JUMPDEST PUSH1 0x40 DUP2 JUMP JUMPDEST PUSH1 0xC0 DUP2 JUMP JUMPDEST PUSH2 0x1388 DUP2 JUMP JUMPDEST PUSH1 0xE1 DUP2 JUMP JUMPDEST PUSH2 0x9F4 PUSH2 0xBC3 JUMP JUMPDEST PUSH2 0xA72 PUSH20 0x0 PUSH4 0x47F69EBA DUP5 PUSH1 0x40 MLOAD DUP3 PUSH4 0xFFFFFFFF AND PUSH1 0xE0 SHL DUP2 MSTORE PUSH1 0x4 ADD PUSH2 0xA2E SWAP2 SWAP1 PUSH2 0xF63 JUMP JUMPDEST PUSH1 0x20 PUSH1 0x40 MLOAD DUP1 DUP4 SUB DUP2 DUP7 GAS DELEGATECALL ISZERO DUP1 ISZERO PUSH2 0xA49 JUMPI RETURNDATASIZE PUSH0 DUP1 RETURNDATACOPY RETURNDATASIZE PUSH0 REVERT JUMPDEST POP POP POP POP PUSH1 0x40 MLOAD RETURNDATASIZE PUSH1 0x1F NOT PUSH1 0x1F DUP3 ADD AND DUP3 ADD DUP1 PUSH1 0x40 MSTORE POP DUP2 ADD SWAP1 PUSH2 0xA6D SWAP2 SWAP1 PUSH2 0xF38 JUMP JUMPDEST PUSH2 0x7E1 JUMP JUMPDEST SWAP1 POP SWAP2 SWAP1 POP JUMP JUMPDEST PUSH0 PUSH20 0x0 PUSH4 0x47F69EBA DUP4 PUSH1 0x40 MLOAD DUP3 PUSH4 0xFFFFFFFF AND PUSH1 0xE0 SHL DUP2 MSTORE PUSH1 0x4 ADD PUSH2 0xAB1 SWAP2 SWAP1 PUSH2 0xF63 JUMP JUMPDEST PUSH1 0x20 PUSH1 0x40 MLOAD DUP1 DUP4 SUB DUP2 DUP7 GAS DELEGATECALL ISZERO DUP1 ISZERO PUSH2 0xACC JUMPI RETURNDATASIZE PUSH0 DUP1 RETURNDATACOPY RETURNDATASIZE PUSH0 REVERT JUMPDEST POP POP POP POP PUSH1 0x40 MLOAD RETURNDATASIZE PUSH1 0x1F NOT PUSH1 0x1F DUP3 ADD AND DUP3 ADD DUP1 PUSH1 0x40 MSTORE POP DUP2 ADD SWAP1 PUSH2 0xAF0 SWAP2 SWAP1 PUSH2 0xF38 JUMP JUMPDEST SWAP1 POP SWAP2 SWAP1 POP JUMP JUMPDEST PUSH1 0x80 DUP2 JUMP JUMPDEST PUSH29 0x100000000000000000000000000000000000000000000000000000000 DUP2 JUMP JUMPDEST PUSH0 PUSH2 0xB27 DUP3 PUSH2 0x53E JUMP JUMPDEST SWAP1 POP SWAP2 SWAP1 POP JUMP JUMPDEST PUSH20 0xFFFFFFFFFFFFFFFFFFFFFFFFFFFFFFFFFFFFFFFF DUP2 JUMP JUMPDEST PUSH8 0xFFFFFFFFFFFFFFFF DUP2 JUMP JUMPDEST PUSH20 0x0 PUSH4 0xA3301173 DUP4 DUP4 PUSH1 0x40 MLOAD DUP4 PUSH4 0xFFFFFFFF AND PUSH1 0xE0 SHL DUP2 MSTORE PUSH1 0x4 ADD PUSH2 0xB8B SWAP3 SWAP2 SWAP1 PUSH2 0xFA4 JUMP JUMPDEST PUSH0 PUSH1 0x40 MLOAD DUP1 DUP4 SUB DUP2 DUP7 DUP1 EXTCODESIZE ISZERO DUP1 ISZERO PUSH2 0xBA1 JUMPI PUSH0 DUP1 REVERT JUMPDEST POP GAS DELEGATECALL ISZERO DUP1 ISZERO PUSH2 0xBB3 JUMPI RETURNDATASIZE PUSH0 DUP1 RETURNDATACOPY RETURNDATASIZE PUSH0 REVERT JUMPDEST POP POP POP POP POP POP JUMP JUMPDEST DUP1 PUSH0 MSTORE PUSH1 0x4 PUSH0 REVERT JUMPDEST PUSH1 0x40 MLOAD DUP1 PUSH1 0x80 ADD PUSH1 0x40 MSTORE DUP1 PUSH0 PUSH20 0xFFFFFFFFFFFFFFFFFFFFFFFFFFFFFFFFFFFFFFFF AND DUP2 MSTORE PUSH1 0x20 ADD PUSH0 PUSH8 0xFFFFFFFFFFFFFFFF AND DUP2 MSTORE PUSH1 0x20 ADD PUSH0 ISZERO ISZERO DUP2 MSTORE PUSH1 0x20 ADD PUSH0 PUSH3 0xFFFFFF AND DUP2 MSTORE POP SWAP1 JUMP JUMPDEST PUSH0 DUP1 REVERT JUMPDEST PUSH0 DUP2 SWAP1 POP SWAP2 SWAP1 POP JUMP JUMPDEST PUSH2 0xC24 DUP2 PUSH2 0xC12 JUMP JUMPDEST DUP2 EQ PUSH2 0xC2E JUMPI PUSH0 DUP1 REVERT JUMPDEST POP JUMP JUMPDEST PUSH0 DUP2 CALLDATALOAD SWAP1 POP PUSH2 0xC3F DUP2 PUSH2 0xC1B JUMP JUMPDEST SWAP3 SWAP2 POP POP JUMP JUMPDEST PUSH0 DUP1 PUSH1 0x40 DUP4 DUP6 SUB SLT ISZERO PUSH2 0xC5B JUMPI PUSH2 0xC5A PUSH2 0xC0E JUMP JUMPDEST JUMPDEST PUSH0 PUSH2 0xC68 DUP6 DUP3 DUP7 ADD PUSH2 0xC31 JUMP JUMPDEST SWAP3 POP POP PUSH1 0x20 PUSH2 0xC79 DUP6 DUP3 DUP7 ADD PUSH2 0xC31 JUMP JUMPDEST SWAP2 POP POP SWAP3 POP SWAP3 SWAP1 POP JUMP JUMPDEST PUSH2 0xC8C DUP2 PUSH2 0xC12 JUMP JUMPDEST DUP3 MSTORE POP POP JUMP JUMPDEST PUSH0 PUSH1 0x20 DUP3 ADD SWAP1 POP PUSH2 0xCA5 PUSH0 DUP4 ADD DUP5 PUSH2 0xC83 JUMP JUMPDEST SWAP3 SWAP2 POP POP JUMP JUMPDEST PUSH0 PUSH1 0x20 DUP3 DUP5 SUB SLT ISZERO PUSH2 0xCC0 JUMPI PUSH2 0xCBF PUSH2 0xC0E JUMP JUMPDEST JUMPDEST PUSH0 PUSH2 0xCCD DUP5 DUP3 DUP6 ADD PUSH2 0xC31 JUMP JUMPDEST SWAP2 POP POP SWAP3 SWAP2 POP POP JUMP JUMPDEST PUSH0 PUSH20 0xFFFFFFFFFFFFFFFFFFFFFFFFFFFFFFFFFFFFFFFF DUP3 AND SWAP1 POP SWAP2 SWAP1 POP JUMP JUMPDEST PUSH0 PUSH2 0xCFF DUP3 PUSH2 0xCD6 JUMP JUMPDEST SWAP1 POP SWAP2 SWAP1 POP JUMP JUMPDEST PUSH2 0xD0F DUP2 PUSH2 0xCF5 JUMP JUMPDEST DUP3 MSTORE POP POP JUMP JUMPDEST PUSH0 PUSH8 0xFFFFFFFFFFFFFFFF DUP3 AND SWAP1 POP SWAP2 SWAP1 POP JUMP JUMPDEST PUSH2 0xD31 DUP2 PUSH2 0xD15 JUMP JUMPDEST DUP3 MSTORE POP POP JUMP JUMPDEST PUSH0 DUP2 ISZERO ISZERO SWAP1 POP SWAP2 SWAP1 POP JUMP JUMPDEST PUSH2 0xD4B DUP2 PUSH2 0xD37 JUMP JUMPDEST DUP3 MSTORE POP POP JUMP JUMPDEST PUSH0 PUSH3 0xFFFFFF DUP3 AND SWAP1 POP SWAP2 SWAP1 POP JUMP JUMPDEST PUSH2 0xD68 DUP2 PUSH2 0xD51 JUMP JUMPDEST DUP3 MSTORE POP POP JUMP JUMPDEST PUSH1 0x80 DUP3 ADD PUSH0 DUP3 ADD MLOAD PUSH2 0xD82 PUSH0 DUP6 ADD DUP3 PUSH2 0xD06 JUMP JUMPDEST POP PUSH1 0x20 DUP3 ADD MLOAD PUSH2 0xD95 PUSH1 0x20 DUP6 ADD DUP3 PUSH2 0xD28 JUMP JUMPDEST POP PUSH1 0x40 DUP3 ADD MLOAD PUSH2 0xDA8 PUSH1 0x40 DUP6 ADD DUP3 PUSH2 0xD42 JUMP JUMPDEST POP PUSH1 0x60 DUP3 ADD MLOAD PUSH2 0xDBB PUSH1 0x60 DUP6 ADD DUP3 PUSH2 0xD5F JUMP JUMPDEST POP POP POP POP JUMP JUMPDEST PUSH0 PUSH1 0x80 DUP3 ADD SWAP1 POP PUSH2 0xDD4 PUSH0 DUP4 ADD DUP5 PUSH2 0xD6E JUMP JUMPDEST SWAP3 SWAP2 POP POP JUMP JUMPDEST PUSH2 0xDE3 DUP2 PUSH2 0xD37 JUMP JUMPDEST DUP3 MSTORE POP POP JUMP JUMPDEST PUSH0 PUSH1 0x20 DUP3 ADD SWAP1 POP PUSH2 0xDFC PUSH0 DUP4 ADD DUP5 PUSH2 0xDDA JUMP JUMPDEST SWAP3 SWAP2 POP POP JUMP JUMPDEST PUSH2 0xE0B DUP2 PUSH2 0xCF5 JUMP JUMPDEST DUP2 EQ PUSH2 0xE15 JUMPI PUSH0 DUP1 REVERT JUMPDEST POP JUMP JUMPDEST PUSH0 DUP2 CALLDATALOAD SWAP1 POP PUSH2 0xE26 DUP2 PUSH2 0xE02 JUMP JUMPDEST SWAP3 SWAP2 POP POP JUMP JUMPDEST PUSH0 PUSH1 0x20 DUP3 DUP5 SUB SLT ISZERO PUSH2 0xE41 JUMPI PUSH2 0xE40 PUSH2 0xC0E JUMP JUMPDEST JUMPDEST PUSH0 PUSH2 0xE4E DUP5 DUP3 DUP6 ADD PUSH2 0xE18 JUMP JUMPDEST SWAP2 POP POP SWAP3 SWAP2 POP POP JUMP JUMPDEST PUSH0 DUP2 SWAP1 POP SWAP2 SWAP1 POP JUMP JUMPDEST PUSH2 0xE69 DUP2 PUSH2 0xE57 JUMP JUMPDEST DUP3 MSTORE POP POP JUMP JUMPDEST PUSH0 PUSH1 0x20 DUP3 ADD SWAP1 POP PUSH2 0xE82 PUSH0 DUP4 ADD DUP5 PUSH2 0xE60 JUMP JUMPDEST SWAP3 SWAP2 POP POP JUMP JUMPDEST PUSH2 0xE91 DUP2 PUSH2 0xCF5 JUMP JUMPDEST DUP3 MSTORE POP POP JUMP JUMPDEST PUSH0 PUSH1 0x20 DUP3 ADD SWAP1 POP PUSH2 0xEAA PUSH0 DUP4 ADD DUP5 PUSH2 0xE88 JUMP JUMPDEST SWAP3 SWAP2 POP POP JUMP JUMPDEST PUSH0 DUP1 PUSH1 0x40 DUP4 DUP6 SUB SLT ISZERO PUSH2 0xEC6 JUMPI PUSH2 0xEC5 PUSH2 0xC0E JUMP JUMPDEST JUMPDEST PUSH0 PUSH2 0xED3 DUP6 DUP3 DUP7 ADD PUSH2 0xE18 JUMP JUMPDEST SWAP3 POP POP PUSH1 0x20 PUSH2 0xEE4 DUP6 DUP3 DUP7 ADD PUSH2 0xC31 JUMP JUMPDEST SWAP2 POP POP SWAP3 POP SWAP3 SWAP1 POP JUMP JUMPDEST PUSH2 0xEF7 DUP2 PUSH2 0xC12 JUMP JUMPDEST DUP3 MSTORE POP POP JUMP JUMPDEST PUSH0 PUSH1 0x40 DUP3 ADD SWAP1 POP PUSH2 0xF10 PUSH0 DUP4 ADD DUP6 PUSH2 0xEEE JUMP JUMPDEST PUSH2 0xF1D PUSH1 0x20 DUP4 ADD DUP5 PUSH2 0xEEE JUMP JUMPDEST SWAP4 SWAP3 POP POP POP JUMP JUMPDEST PUSH0 DUP2 MLOAD SWAP1 POP PUSH2 0xF32 DUP2 PUSH2 0xC1B JUMP JUMPDEST SWAP3 SWAP2 POP POP JUMP JUMPDEST PUSH0 PUSH1 0x20 DUP3 DUP5 SUB SLT ISZERO PUSH2 0xF4D JUMPI PUSH2 0xF4C PUSH2 0xC0E JUMP JUMPDEST JUMPDEST PUSH0 PUSH2 0xF5A DUP5 DUP3 DUP6 ADD PUSH2 0xF24 JUMP JUMPDEST SWAP2 POP POP SWAP3 SWAP2 POP POP JUMP JUMPDEST PUSH0 PUSH1 0x20 DUP3 ADD SWAP1 POP PUSH2 0xF76 PUSH0 DUP4 ADD DUP5 PUSH2 0xEEE JUMP JUMPDEST SWAP3 SWAP2 POP POP JUMP JUMPDEST PUSH2 0xF85 DUP2 PUSH2 0xCF5 JUMP JUMPDEST DUP3 MSTORE POP POP JUMP JUMPDEST PUSH0 PUSH1 0x20 DUP3 ADD SWAP1 POP PUSH2 0xF9E PUSH0 DUP4 ADD DUP5 PUSH2 0xF7C JUMP JUMPDEST SWAP3 SWAP2 POP POP JUMP JUMPDEST PUSH0 PUSH1 0x40 DUP3 ADD SWAP1 POP PUSH2 0xFB7 PUSH0 DUP4 ADD DUP6 PUSH2 0xF7C JUMP JUMPDEST PUSH2 0xFC4 PUSH1 0x20 DUP4 ADD DUP5 PUSH2 0xEEE JUMP JUMPDEST SWAP4 SWAP3 POP POP POP JUMP INVALID LOG2 PUSH5 0x6970667358 0x22 SLT KECCAK256 0xCE MSTORE8 SELFBALANCE 0xAD MSTORE8 STATICCALL 0xB6 BALANCE 0xC8 CALLDATASIZE 0xBB 0xD1 DUP11 DUP8 0xBC SLT 0xD2 ISZERO PUSH10 0x2160393143A638CA8852 0xDD 0xC5 0xE7 PUSH5 0x736F6C6343 STOP ADDMOD OR STOP CALLER "
				},
				"gasEstimates": {
					"creation": {
						"codeDepositCost": "819400",
						"executionCost": "855",
						"totalCost": "820255"
					},
					"external": {
						"_BITMASK_ADDRESS()": "413",
						"_BITMASK_ADDRESS_DATA_ENTRY()": "435",
						"_BITMASK_AUX_COMPLEMENT()": "436",
						"_BITMASK_BURNED()": "369",
						"_BITMASK_EXTRA_DATA_COMPLEMENT()": "392",
						"_BITMASK_NEXT_INITIALIZED()": "348",
						"_BITPOS_AUX()": "370",
						"_BITPOS_EXTRA_DATA()": "371",
						"_BITPOS_NEXT_INITIALIZED()": "414",
						"_BITPOS_NUMBER_BURNED()": "347",
						"_BITPOS_NUMBER_MINTED()": "348",
						"_BITPOS_START_TIMESTAMP()": "415",
						"_MAX_MINT_ERC2309_QUANTITY_LIMIT()": "392",
						"_TRANSFER_EVENT_SIGNATURE()": "463",
						"_ownershipAt(uint256)": "infinite",
						"_packedOwnershipExists(uint256)": "662",
						"_packedOwnershipOf(uint256)": "infinite",
						"_sequentialUpTo()": "400",
						"_unpackedOwnership(uint256)": "1512",
						"ownerOf2(uint256)": "infinite",
						"packedAddressData(address)": "infinite",
						"packedAddressData(address,uint256)": "infinite",
						"packedOwnerships(uint256)": "infinite",
						"packedOwnerships(uint256,uint256)": "infinite"
					},
					"internal": {
						"_revert(bytes4)": "17"
					}
				},
				"methodIdentifiers": {
					"_BITMASK_ADDRESS()": "f3ef17ac",
					"_BITMASK_ADDRESS_DATA_ENTRY()": "f41523ae",
					"_BITMASK_AUX_COMPLEMENT()": "89566257",
					"_BITMASK_BURNED()": "d9d21c63",
					"_BITMASK_EXTRA_DATA_COMPLEMENT()": "76dd3c44",
					"_BITMASK_NEXT_INITIALIZED()": "625553e2",
					"_BITPOS_AUX()": "9cea3d20",
					"_BITPOS_EXTRA_DATA()": "1086568e",
					"_BITPOS_NEXT_INITIALIZED()": "c70059bf",
					"_BITPOS_NUMBER_BURNED()": "d611367b",
					"_BITPOS_NUMBER_MINTED()": "9862e50f",
					"_BITPOS_START_TIMESTAMP()": "36a141c9",
					"_MAX_MINT_ERC2309_QUANTITY_LIMIT()": "9f07fba1",
					"_TRANSFER_EVENT_SIGNATURE()": "8bdb7e0f",
					"_ownershipAt(uint256)": "cbaf28ce",
					"_packedOwnershipExists(uint256)": "753f8406",
					"_packedOwnershipOf(uint256)": "444996c1",
					"_sequentialUpTo()": "2a2745b6",
					"_unpackedOwnership(uint256)": "4fe3c13e",
					"ownerOf2(uint256)": "dc3bd0fd",
					"packedAddressData(address)": "84ed1377",
					"packedAddressData(address,uint256)": "fe0bc95a",
					"packedOwnerships(uint256)": "d0ddbbfa",
					"packedOwnerships(uint256,uint256)": "068e4d51"
				}
			},
			"storageLayout": {
				"storage": [],
				"types": null
			},
			"userdoc": {
				"kind": "user",
				"methods": {},
				"version": 1
			}
		}
	}
}