{
	"contracts/storage/LibSMEambStorage.sol": {
		"SMEambStorage": {
			"abi": [
				{
					"inputs": [],
					"name": "_burnCounter",
					"outputs": [
						{
							"internalType": "uint256",
							"name": "",
							"type": "uint256"
						}
					],
					"stateMutability": "view",
					"type": "function"
				},
				{
					"inputs": [],
					"name": "_currentIndex",
					"outputs": [
						{
							"internalType": "uint256",
							"name": "",
							"type": "uint256"
						}
					],
					"stateMutability": "view",
					"type": "function"
				},
				{
					"inputs": [
						{
							"internalType": "uint256",
							"name": "tokenId",
							"type": "uint256"
						}
					],
					"name": "_getApprovedSlotAndAddress",
					"outputs": [
						{
							"internalType": "uint256",
							"name": "approvedAddressSlot",
							"type": "uint256"
						},
						{
							"internalType": "address",
							"name": "approvedAddress",
							"type": "address"
						}
					],
					"stateMutability": "view",
					"type": "function"
				},
				{
					"inputs": [
						{
							"internalType": "address",
							"name": "owner",
							"type": "address"
						},
						{
							"internalType": "address",
							"name": "operator",
							"type": "address"
						}
					],
					"name": "_operatorApprovals",
					"outputs": [
						{
							"internalType": "bool",
							"name": "",
							"type": "bool"
						}
					],
					"stateMutability": "view",
					"type": "function"
				},
				{
					"inputs": [
						{
							"internalType": "address",
							"name": "_owner",
							"type": "address"
						}
					],
					"name": "_packedAddressData",
					"outputs": [
						{
							"internalType": "uint256",
							"name": "",
							"type": "uint256"
						}
					],
					"stateMutability": "view",
					"type": "function"
				},
				{
					"inputs": [
						{
							"internalType": "uint256",
							"name": "_tokenId",
							"type": "uint256"
						}
					],
					"name": "_packedOwnerships",
					"outputs": [
						{
							"internalType": "uint256",
							"name": "",
							"type": "uint256"
						}
					],
					"stateMutability": "view",
					"type": "function"
				},
				{
					"inputs": [],
					"name": "_spotMinted",
					"outputs": [
						{
							"internalType": "uint256",
							"name": "",
							"type": "uint256"
						}
					],
					"stateMutability": "view",
					"type": "function"
				},
				{
					"inputs": [],
					"name": "_startTokenId",
					"outputs": [
						{
							"internalType": "uint256",
							"name": "",
							"type": "uint256"
						}
					],
					"stateMutability": "view",
					"type": "function"
				},
				{
					"inputs": [
						{
							"internalType": "uint256",
							"name": "_tokenId",
							"type": "uint256"
						}
					],
					"name": "_tokenApprovals",
					"outputs": [
						{
							"components": [
								{
									"internalType": "address",
									"name": "value",
									"type": "address"
								}
							],
							"internalType": "struct SMEambStorage.TokenApprovalRef",
							"name": "",
							"type": "tuple"
						}
					],
					"stateMutability": "view",
					"type": "function"
				},
				{
					"inputs": [],
					"name": "allTokens",
					"outputs": [
						{
							"internalType": "uint256[]",
							"name": "",
							"type": "uint256[]"
						}
					],
					"stateMutability": "view",
					"type": "function"
				},
				{
					"inputs": [],
					"name": "baseTokenURI",
					"outputs": [
						{
							"internalType": "string",
							"name": "",
							"type": "string"
						}
					],
					"stateMutability": "view",
					"type": "function"
				},
				{
					"inputs": [],
					"name": "defaultTokenURI",
					"outputs": [
						{
							"internalType": "string",
							"name": "",
							"type": "string"
						}
					],
					"stateMutability": "view",
					"type": "function"
				},
				{
					"inputs": [],
					"name": "epiclistRoot",
					"outputs": [
						{
							"internalType": "bytes32",
							"name": "",
							"type": "bytes32"
						}
					],
					"stateMutability": "view",
					"type": "function"
				},
				{
					"inputs": [],
					"name": "fee",
					"outputs": [
						{
							"internalType": "uint256",
							"name": "",
							"type": "uint256"
						}
					],
					"stateMutability": "view",
					"type": "function"
				},
				{
					"inputs": [],
					"name": "genesislistRoot",
					"outputs": [
						{
							"internalType": "bytes32",
							"name": "",
							"type": "bytes32"
						}
					],
					"stateMutability": "view",
					"type": "function"
				},
				{
					"inputs": [
						{
							"internalType": "address",
							"name": "owner",
							"type": "address"
						}
					],
					"name": "guaranteed_minted",
					"outputs": [
						{
							"internalType": "bool",
							"name": "",
							"type": "bool"
						}
					],
					"stateMutability": "view",
					"type": "function"
				},
				{
					"inputs": [],
					"name": "legendlistRoot",
					"outputs": [
						{
							"internalType": "bytes32",
							"name": "",
							"type": "bytes32"
						}
					],
					"stateMutability": "view",
					"type": "function"
				},
				{
					"inputs": [],
					"name": "name",
					"outputs": [
						{
							"internalType": "string",
							"name": "",
							"type": "string"
						}
					],
					"stateMutability": "view",
					"type": "function"
				},
				{
					"inputs": [
						{
							"internalType": "address",
							"name": "owner",
							"type": "address"
						},
						{
							"internalType": "uint256",
							"name": "index",
							"type": "uint256"
						}
					],
					"name": "ownedTokens",
					"outputs": [
						{
							"internalType": "uint256",
							"name": "",
							"type": "uint256"
						}
					],
					"stateMutability": "view",
					"type": "function"
				},
				{
					"inputs": [
						{
							"internalType": "uint256",
							"name": "tokenId",
							"type": "uint256"
						}
					],
					"name": "ownedTokensIndex",
					"outputs": [
						{
							"internalType": "uint256",
							"name": "",
							"type": "uint256"
						}
					],
					"stateMutability": "view",
					"type": "function"
				},
				{
					"inputs": [],
					"name": "symbol",
					"outputs": [
						{
							"internalType": "string",
							"name": "",
							"type": "string"
						}
					],
					"stateMutability": "view",
					"type": "function"
				},
				{
					"inputs": [
						{
							"internalType": "uint256",
							"name": "tokenId",
							"type": "uint256"
						}
					],
					"name": "tokenURIs",
					"outputs": [
						{
							"internalType": "string",
							"name": "",
							"type": "string"
						}
					],
					"stateMutability": "view",
					"type": "function"
				}
			],
			"devdoc": {
				"custom:version": "1.1.0",
				"details": "Логику смотри в модуле SMEamb",
				"kind": "dev",
				"methods": {
					"_getApprovedSlotAndAddress(uint256)": {
						"details": "Returns the storage slot and value for the approved address of `tokenId`."
					},
					"addTokenToAllTokensEnumeration(uint256)": {
						"details": "Добавление токена в структуры для отслеживания",
						"params": {
							"tokenId": "uint256 идентификатор токена"
						}
					},
					"addTokenToOwnerEnumeration(address,uint256,uint256)": {
						"details": "Private function to add a token to this extension's ownership-tracking data structures.",
						"params": {
							"to": "address representing the new owner of the given token ID",
							"tokenId": "uint256 ID of the token to be added to the tokens list of the given address"
						}
					},
					"baseTokenURI()": {
						"details": "геттеры"
					},
					"baseTokenURI(string)": {
						"details": "Сеттеры"
					},
					"name()": {
						"details": "ERC721"
					},
					"removeTokenFromAllTokensEnumeration(uint256)": {
						"details": "Private function to remove a token from this extension's token tracking data structures. This has O(1) time complexity, but alters the order of the _allTokens array.",
						"params": {
							"tokenId": "uint256 ID of the token to be removed from the tokens list"
						}
					},
					"removeTokenFromOwnerEnumeration(address,uint256,uint256)": {
						"details": "Private function to remove a token from this extension's ownership-tracking data structures. Note that while the token is not assigned a new owner, the `_ownedTokensIndex` mapping is _not_ updated: this allows for gas optimizations e.g. when performing a transfer operation (avoiding double writes). This has O(1) time complexity, but alters the order of the _ownedTokens array.",
						"params": {
							"from": "address representing the previous owner of the given token ID",
							"tokenId": "uint256 ID of the token to be removed from the tokens list of the given address"
						}
					}
				},
				"stateVariables": {
					"SLOT": {
						"details": "Слот хранилища"
					}
				},
				"title": "OwnableStorage",
				"version": 1
			},
			"evm": {
				"assembly": "    /* \"contracts/storage/LibSMEambStorage.sol\":279:12984  library SMEambStorage{... */\n  dataSize(sub_0)\n  dataOffset(sub_0)\n  0x0b\n  dup3\n  dup3\n  dup3\n  codecopy\n  dup1\n  mload\n  0x00\n  byte\n  0x73\n  eq\n  tag_1\n  jumpi\n  mstore(0x00, 0x4e487b7100000000000000000000000000000000000000000000000000000000)\n  mstore(0x04, 0x00)\n  revert(0x00, 0x24)\ntag_1:\n  mstore(0x00, address)\n  0x73\n  dup2\n  mstore8\n  dup3\n  dup2\n  return\nstop\n\nsub_0: assembly {\n        /* \"contracts/storage/LibSMEambStorage.sol\":279:12984  library SMEambStorage{... */\n      eq(address, deployTimeAddress())\n      mstore(0x40, 0x80)\n      jumpi(tag_1, lt(calldatasize, 0x04))\n      shr(0xe0, calldataload(0x00))\n      dup1\n      0x830d4091\n      gt\n      tag_48\n      jumpi\n      dup1\n      0xb0d4ce25\n      gt\n      tag_49\n      jumpi\n      dup1\n      0xdec84db1\n      gt\n      tag_50\n      jumpi\n      dup1\n      0xdec84db1\n      eq\n      tag_42\n      jumpi\n      dup1\n      0xe149f036\n      eq\n      tag_43\n      jumpi\n      dup1\n      0xe68fdee1\n      eq\n      tag_44\n      jumpi\n      dup1\n      0xedc3bc3f\n      eq\n      tag_45\n      jumpi\n      dup1\n      0xf112a2af\n      eq\n      tag_46\n      jumpi\n      dup1\n      0xf589b754\n      eq\n      tag_47\n      jumpi\n      jump(tag_1)\n    tag_50:\n      dup1\n      0xb0d4ce25\n      eq\n      tag_36\n      jumpi\n      dup1\n      0xb62d8b91\n      eq\n      tag_37\n      jumpi\n      dup1\n      0xd20b6ee7\n      eq\n      tag_38\n      jumpi\n      dup1\n      0xd547cfb7\n      eq\n      tag_39\n      jumpi\n      dup1\n      0xdbe0b21c\n      eq\n      tag_40\n      jumpi\n      dup1\n      0xddca3f43\n      eq\n      tag_41\n      jumpi\n      jump(tag_1)\n    tag_49:\n      dup1\n      0x963bfe12\n      gt\n      tag_51\n      jumpi\n      dup1\n      0x963bfe12\n      eq\n      tag_30\n      jumpi\n      dup1\n      0x98995f77\n      eq\n      tag_31\n      jumpi\n      dup1\n      0xa05cc559\n      eq\n      tag_32\n      jumpi\n      dup1\n      0xa3301173\n      eq\n      tag_33\n      jumpi\n      dup1\n      0xa7cc0136\n      eq\n      tag_34\n      jumpi\n      dup1\n      0xad715f2e\n      eq\n      tag_35\n      jumpi\n      jump(tag_1)\n    tag_51:\n      dup1\n      0x830d4091\n      eq\n      tag_25\n      jumpi\n      dup1\n      0x854f9db9\n      eq\n      tag_26\n      jumpi\n      dup1\n      0x8fca4dbe\n      eq\n      tag_27\n      jumpi\n      dup1\n      0x9451c99a\n      eq\n      tag_28\n      jumpi\n      dup1\n      0x95d89b41\n      eq\n      tag_29\n      jumpi\n      jump(tag_1)\n    tag_48:\n      dup1\n      0x40e02f5c\n      gt\n      tag_52\n      jumpi\n      dup1\n      0x5b43bc99\n      gt\n      tag_53\n      jumpi\n      dup1\n      0x5b43bc99\n      eq\n      tag_19\n      jumpi\n      dup1\n      0x6c8b703f\n      eq\n      tag_20\n      jumpi\n      dup1\n      0x6ff97f1d\n      eq\n      tag_21\n      jumpi\n      dup1\n      0x74e24367\n      eq\n      tag_22\n      jumpi\n      dup1\n      0x810536ec\n      eq\n      tag_23\n      jumpi\n      dup1\n      0x821abc2d\n      eq\n      tag_24\n      jumpi\n      jump(tag_1)\n    tag_53:\n      dup1\n      0x40e02f5c\n      eq\n      tag_13\n      jumpi\n      dup1\n      0x41bb0559\n      eq\n      tag_14\n      jumpi\n      dup1\n      0x44faf255\n      eq\n      tag_15\n      jumpi\n      dup1\n      0x47f69eba\n      eq\n      tag_16\n      jumpi\n      dup1\n      0x49a0a50e\n      eq\n      tag_17\n      jumpi\n      dup1\n      0x4f4979ed\n      eq\n      tag_18\n      jumpi\n      jump(tag_1)\n    tag_52:\n      dup1\n      0x247c6ce0\n      gt\n      tag_54\n      jumpi\n      dup1\n      0x247c6ce0\n      eq\n      tag_7\n      jumpi\n      dup1\n      0x32b07b43\n      eq\n      tag_8\n      jumpi\n      dup1\n      0x33171809\n      eq\n      tag_9\n      jumpi\n      dup1\n      0x345e7b28\n      eq\n      tag_10\n      jumpi\n      dup1\n      0x3802497b\n      eq\n      tag_11\n      jumpi\n      dup1\n      0x39b37ab0\n      eq\n      tag_12\n      jumpi\n      jump(tag_1)\n    tag_54:\n      dup1\n      0x06fdde03\n      eq\n      tag_2\n      jumpi\n      dup1\n      0x071bc71c\n      eq\n      tag_3\n      jumpi\n      dup1\n      0x13c19ff6\n      eq\n      tag_4\n      jumpi\n      dup1\n      0x19f86200\n      eq\n      tag_5\n      jumpi\n      dup1\n      0x21b0ed7d\n      eq\n      tag_6\n      jumpi\n    tag_1:\n      0x00\n      dup1\n      revert\n        /* \"contracts/storage/LibSMEambStorage.sol\":3216:3301  function name() external view returns(string memory){return _getStorage(SLOT)._name;} */\n    tag_2:\n      tag_55\n      tag_56\n      jump\t// in\n    tag_55:\n      mload(0x40)\n      tag_57\n      swap2\n      swap1\n      tag_58\n      jump\t// in\n    tag_57:\n      mload(0x40)\n      dup1\n      swap2\n      sub\n      swap1\n      return\n        /* \"contracts/storage/LibSMEambStorage.sol\":11181:12233  function removeTokenFromOwnerEnumeration(address from, uint256 tokenId, uint256 lastTokenIndex) external {... */\n    tag_3:\n      dup2\n      dup1\n      iszero\n      tag_59\n      jumpi\n      0x00\n      dup1\n      revert\n    tag_59:\n      pop\n      tag_60\n      0x04\n      dup1\n      calldatasize\n      sub\n      dup2\n      add\n      swap1\n      tag_61\n      swap2\n      swap1\n      tag_62\n      jump\t// in\n    tag_61:\n      tag_63\n      jump\t// in\n    tag_60:\n      stop\n        /* \"contracts/storage/LibSMEambStorage.sol\":4843:4975  function _tokenApprovals(uint256 _tokenId, address _address) external{_getStorage(SLOT)._tokenApprovals[_tokenId].value = _address;} */\n    tag_4:\n      dup2\n      dup1\n      iszero\n      tag_64\n      jumpi\n      0x00\n      dup1\n      revert\n    tag_64:\n      pop\n      tag_65\n      0x04\n      dup1\n      calldatasize\n      sub\n      dup2\n      add\n      swap1\n      tag_66\n      swap2\n      swap1\n      tag_67\n      jump\t// in\n    tag_66:\n      tag_68\n      jump\t// in\n    tag_65:\n      stop\n        /* \"contracts/storage/LibSMEambStorage.sol\":6903:7003  function genesislistRoot() external view returns(bytes32){return _getStorage(SLOT).genesislistRoot;} */\n    tag_5:\n      tag_69\n      tag_70\n      jump\t// in\n    tag_69:\n      mload(0x40)\n      tag_71\n      swap2\n      swap1\n      tag_72\n      jump\t// in\n    tag_71:\n      mload(0x40)\n      dup1\n      swap2\n      sub\n      swap1\n      return\n        /* \"contracts/storage/LibSMEambStorage.sol\":4427:4555  function _packedAddressData(address _owner) external view returns(uint256){return _getStorage(SLOT)._packedAddressData[_owner];} */\n    tag_6:\n      tag_73\n      0x04\n      dup1\n      calldatasize\n      sub\n      dup2\n      add\n      swap1\n      tag_74\n      swap2\n      swap1\n      tag_75\n      jump\t// in\n    tag_74:\n      tag_76\n      jump\t// in\n    tag_73:\n      mload(0x40)\n      tag_77\n      swap2\n      swap1\n      tag_78\n      jump\t// in\n    tag_77:\n      mload(0x40)\n      dup1\n      swap2\n      sub\n      swap1\n      return\n        /* \"contracts/storage/LibSMEambStorage.sol\":8339:8441  function epiclistRoot(bytes32 _epiclistRoot) external{_getStorage(SLOT).epiclistRoot = _epiclistRoot;} */\n    tag_7:\n      dup2\n      dup1\n      iszero\n      tag_79\n      jumpi\n      0x00\n      dup1\n      revert\n    tag_79:\n      pop\n      tag_80\n      0x04\n      dup1\n      calldatasize\n      sub\n      dup2\n      add\n      swap1\n      tag_81\n      swap2\n      swap1\n      tag_82\n      jump\t// in\n    tag_81:\n      tag_83\n      jump\t// in\n    tag_80:\n      stop\n        /* \"contracts/storage/LibSMEambStorage.sol\":3879:3964  function _startTokenId(uint256 _id) external {_getStorage(SLOT)._startTokenId = _id;} */\n    tag_8:\n      dup2\n      dup1\n      iszero\n      tag_84\n      jumpi\n      0x00\n      dup1\n      revert\n    tag_84:\n      pop\n      tag_85\n      0x04\n      dup1\n      calldatasize\n      sub\n      dup2\n      add\n      swap1\n      tag_86\n      swap2\n      swap1\n      tag_87\n      jump\t// in\n    tag_86:\n      tag_88\n      jump\t// in\n    tag_85:\n      stop\n        /* \"contracts/storage/LibSMEambStorage.sol\":7113:7207  function epiclistRoot() external view returns(bytes32){return _getStorage(SLOT).epiclistRoot;} */\n    tag_9:\n      tag_89\n      tag_90\n      jump\t// in\n    tag_89:\n      mload(0x40)\n      tag_91\n      swap2\n      swap1\n      tag_72\n      jump\t// in\n    tag_91:\n      mload(0x40)\n      dup1\n      swap2\n      sub\n      swap1\n      return\n        /* \"contracts/storage/LibSMEambStorage.sol\":3680:3771  function _currentIndex(uint256 _index) external {_getStorage(SLOT)._currentIndex = _index;} */\n    tag_10:\n      dup2\n      dup1\n      iszero\n      tag_92\n      jumpi\n      0x00\n      dup1\n      revert\n    tag_92:\n      pop\n      tag_93\n      0x04\n      dup1\n      calldatasize\n      sub\n      dup2\n      add\n      swap1\n      tag_94\n      swap2\n      swap1\n      tag_87\n      jump\t// in\n    tag_94:\n      tag_95\n      jump\t// in\n    tag_93:\n      stop\n        /* \"contracts/storage/LibSMEambStorage.sol\":8103:8217  function genesislistRoot(bytes32 _genesislistRoot) external{_getStorage(SLOT).genesislistRoot = _genesislistRoot;} */\n    tag_11:\n      dup2\n      dup1\n      iszero\n      tag_96\n      jumpi\n      0x00\n      dup1\n      revert\n    tag_96:\n      pop\n      tag_97\n      0x04\n      dup1\n      calldatasize\n      sub\n      dup2\n      add\n      swap1\n      tag_98\n      swap2\n      swap1\n      tag_82\n      jump\t// in\n    tag_98:\n      tag_99\n      jump\t// in\n    tag_97:\n      stop\n        /* \"contracts/storage/LibSMEambStorage.sol\":8447:8513  function fee(uint256 _fee) external{_getStorage(SLOT).fee = _fee;} */\n    tag_12:\n      dup2\n      dup1\n      iszero\n      tag_100\n      jumpi\n      0x00\n      dup1\n      revert\n    tag_100:\n      pop\n      tag_101\n      0x04\n      dup1\n      calldatasize\n      sub\n      dup2\n      add\n      swap1\n      tag_102\n      swap2\n      swap1\n      tag_87\n      jump\t// in\n    tag_102:\n      tag_103\n      jump\t// in\n    tag_101:\n      stop\n        /* \"contracts/storage/LibSMEambStorage.sol\":8935:10137  function removeTokenFromAllTokensEnumeration(uint256 tokenId) external {... */\n    tag_13:\n      dup2\n      dup1\n      iszero\n      tag_104\n      jumpi\n      0x00\n      dup1\n      revert\n    tag_104:\n      pop\n      tag_105\n      0x04\n      dup1\n      calldatasize\n      sub\n      dup2\n      add\n      swap1\n      tag_106\n      swap2\n      swap1\n      tag_87\n      jump\t// in\n    tag_106:\n      tag_107\n      jump\t// in\n    tag_105:\n      stop\n        /* \"contracts/storage/LibSMEambStorage.sol\":3486:3572  function symbol(string memory _symbol) external {_getStorage(SLOT)._symbol = _symbol;} */\n    tag_14:\n      dup2\n      dup1\n      iszero\n      tag_108\n      jumpi\n      0x00\n      dup1\n      revert\n    tag_108:\n      pop\n      tag_109\n      0x04\n      dup1\n      calldatasize\n      sub\n      dup2\n      add\n      swap1\n      tag_110\n      swap2\n      swap1\n      tag_111\n      jump\t// in\n    tag_110:\n      tag_112\n      jump\t// in\n    tag_109:\n      stop\n        /* \"contracts/storage/LibSMEambStorage.sol\":3970:4064  function _burnCounter() external view returns(uint256){return _getStorage(SLOT)._burnCounter;} */\n    tag_15:\n      tag_113\n      tag_114\n      jump\t// in\n    tag_113:\n      mload(0x40)\n      tag_115\n      swap2\n      swap1\n      tag_78\n      jump\t// in\n    tag_115:\n      mload(0x40)\n      dup1\n      swap2\n      sub\n      swap1\n      return\n        /* \"contracts/storage/LibSMEambStorage.sol\":4159:4289  function _packedOwnerships(uint256 _tokenId) external view returns(uint256){return _getStorage(SLOT)._packedOwnerships[_tokenId];} */\n    tag_16:\n      tag_116\n      0x04\n      dup1\n      calldatasize\n      sub\n      dup2\n      add\n      swap1\n      tag_117\n      swap2\n      swap1\n      tag_87\n      jump\t// in\n    tag_117:\n      tag_118\n      jump\t// in\n    tag_116:\n      mload(0x40)\n      tag_119\n      swap2\n      swap1\n      tag_78\n      jump\t// in\n    tag_119:\n      mload(0x40)\n      dup1\n      swap2\n      sub\n      swap1\n      return\n        /* \"contracts/storage/LibSMEambStorage.sol\":7829:7967  function ownedTokens(address _owner, uint256 _index, uint256 _tokenId) external{_getStorage(SLOT).ownedTokens[_owner][_index] = _tokenId;} */\n    tag_17:\n      dup2\n      dup1\n      iszero\n      tag_120\n      jumpi\n      0x00\n      dup1\n      revert\n    tag_120:\n      pop\n      tag_121\n      0x04\n      dup1\n      calldatasize\n      sub\n      dup2\n      add\n      swap1\n      tag_122\n      swap2\n      swap1\n      tag_62\n      jump\t// in\n    tag_122:\n      tag_123\n      jump\t// in\n    tag_121:\n      stop\n        /* \"contracts/storage/LibSMEambStorage.sol\":12534:12757  function addTokenToOwnerEnumeration(address to, uint256 tokenId, uint256 length) external {... */\n    tag_18:\n      dup2\n      dup1\n      iszero\n      tag_124\n      jumpi\n      0x00\n      dup1\n      revert\n    tag_124:\n      pop\n      tag_125\n      0x04\n      dup1\n      calldatasize\n      sub\n      dup2\n      add\n      swap1\n      tag_126\n      swap2\n      swap1\n      tag_62\n      jump\t// in\n    tag_126:\n      tag_127\n      jump\t// in\n    tag_125:\n      stop\n        /* \"contracts/storage/LibSMEambStorage.sol\":3307:3385  function name(string memory _name) external {_getStorage(SLOT)._name = _name;} */\n    tag_19:\n      dup2\n      dup1\n      iszero\n      tag_128\n      jumpi\n      0x00\n      dup1\n      revert\n    tag_128:\n      pop\n      tag_129\n      0x04\n      dup1\n      calldatasize\n      sub\n      dup2\n      add\n      swap1\n      tag_130\n      swap2\n      swap1\n      tag_111\n      jump\t// in\n    tag_130:\n      tag_131\n      jump\t// in\n    tag_129:\n      stop\n        /* \"contracts/storage/LibSMEambStorage.sol\":6404:6522  function tokenURIs(uint256 tokenId) external view returns(string memory){return _getStorage(SLOT).tokenURIs[tokenId];} */\n    tag_20:\n      tag_132\n      0x04\n      dup1\n      calldatasize\n      sub\n      dup2\n      add\n      swap1\n      tag_133\n      swap2\n      swap1\n      tag_87\n      jump\t// in\n    tag_133:\n      tag_134\n      jump\t// in\n    tag_132:\n      mload(0x40)\n      tag_135\n      swap2\n      swap1\n      tag_58\n      jump\t// in\n    tag_135:\n      mload(0x40)\n      dup1\n      swap2\n      sub\n      swap1\n      return\n        /* \"contracts/storage/LibSMEambStorage.sol\":6800:6897  function allTokens() external view returns(uint256[] memory){return _getStorage(SLOT).allTokens;} */\n    tag_21:\n      tag_136\n      tag_137\n      jump\t// in\n    tag_136:\n      mload(0x40)\n      tag_138\n      swap2\n      swap1\n      tag_139\n      jump\t// in\n    tag_138:\n      mload(0x40)\n      dup1\n      swap2\n      sub\n      swap1\n      return\n        /* \"contracts/storage/LibSMEambStorage.sol\":6668:6794  function ownedTokensIndex(uint256 tokenId) external view returns(uint256){return _getStorage(SLOT).ownedTokensIndex[tokenId];} */\n    tag_22:\n      tag_140\n      0x04\n      dup1\n      calldatasize\n      sub\n      dup2\n      add\n      swap1\n      tag_141\n      swap2\n      swap1\n      tag_87\n      jump\t// in\n    tag_141:\n      tag_142\n      jump\t// in\n    tag_140:\n      mload(0x40)\n      tag_143\n      swap2\n      swap1\n      tag_78\n      jump\t// in\n    tag_143:\n      mload(0x40)\n      dup1\n      swap2\n      sub\n      swap1\n      return\n        /* \"contracts/storage/LibSMEambStorage.sol\":6008:6145  function _spotMintedIncr() external {uint256 _spotMinted = _getStorage(SLOT)._spotMinted; _getStorage(SLOT)._spotMinted = _spotMinted+1;} */\n    tag_23:\n      dup2\n      dup1\n      iszero\n      tag_144\n      jumpi\n      0x00\n      dup1\n      revert\n    tag_144:\n      pop\n      tag_145\n      tag_146\n      jump\t// in\n    tag_145:\n      stop\n        /* \"contracts/storage/LibSMEambStorage.sol\":7573:7693  function defaultTokenURI(string memory _defaultTokenURI) external{_getStorage(SLOT).defaultTokenURI = _defaultTokenURI;} */\n    tag_24:\n      dup2\n      dup1\n      iszero\n      tag_147\n      jumpi\n      0x00\n      dup1\n      revert\n    tag_147:\n      pop\n      tag_148\n      0x04\n      dup1\n      calldatasize\n      sub\n      dup2\n      add\n      swap1\n      tag_149\n      swap2\n      swap1\n      tag_111\n      jump\t// in\n    tag_149:\n      tag_150\n      jump\t// in\n    tag_148:\n      stop\n        /* \"contracts/storage/LibSMEambStorage.sol\":5753:5904  function _operatorApprovals(address owner, address operator, bool approved) external{_getStorage(SLOT)._operatorApprovals[owner][operator] = approved;} */\n    tag_25:\n      dup2\n      dup1\n      iszero\n      tag_151\n      jumpi\n      0x00\n      dup1\n      revert\n    tag_151:\n      pop\n      tag_152\n      0x04\n      dup1\n      calldatasize\n      sub\n      dup2\n      add\n      swap1\n      tag_153\n      swap2\n      swap1\n      tag_154\n      jump\t// in\n    tag_153:\n      tag_155\n      jump\t// in\n    tag_152:\n      stop\n        /* \"contracts/storage/LibSMEambStorage.sol\":8223:8333  function legendlistRoot(bytes32 _legendlistRoot) external{_getStorage(SLOT).legendlistRoot = _legendlistRoot;} */\n    tag_26:\n      dup2\n      dup1\n      iszero\n      tag_156\n      jumpi\n      0x00\n      dup1\n      revert\n    tag_156:\n      pop\n      tag_157\n      0x04\n      dup1\n      calldatasize\n      sub\n      dup2\n      add\n      swap1\n      tag_158\n      swap2\n      swap1\n      tag_82\n      jump\t// in\n    tag_158:\n      tag_159\n      jump\t// in\n    tag_157:\n      stop\n        /* \"contracts/storage/LibSMEambStorage.sol\":4070:4153  function _burnCounter(uint256 _id) external {_getStorage(SLOT)._burnCounter = _id;} */\n    tag_27:\n      dup2\n      dup1\n      iszero\n      tag_160\n      jumpi\n      0x00\n      dup1\n      revert\n    tag_160:\n      pop\n      tag_161\n      0x04\n      dup1\n      calldatasize\n      sub\n      dup2\n      add\n      swap1\n      tag_162\n      swap2\n      swap1\n      tag_87\n      jump\t// in\n    tag_162:\n      tag_163\n      jump\t// in\n    tag_161:\n      stop\n        /* \"contracts/storage/LibSMEambStorage.sol\":3578:3674  function _currentIndex() external view returns(uint256){return _getStorage(SLOT)._currentIndex;} */\n    tag_28:\n      tag_164\n      tag_165\n      jump\t// in\n    tag_164:\n      mload(0x40)\n      tag_166\n      swap2\n      swap1\n      tag_78\n      jump\t// in\n    tag_166:\n      mload(0x40)\n      dup1\n      swap2\n      sub\n      swap1\n      return\n        /* \"contracts/storage/LibSMEambStorage.sol\":3391:3480  function symbol() external view returns(string memory){return _getStorage(SLOT)._symbol;} */\n    tag_29:\n      tag_167\n      tag_168\n      jump\t// in\n    tag_167:\n      mload(0x40)\n      tag_169\n      swap2\n      swap1\n      tag_58\n      jump\t// in\n    tag_169:\n      mload(0x40)\n      dup1\n      swap2\n      sub\n      swap1\n      return\n        /* \"contracts/storage/LibSMEambStorage.sol\":6292:6398  function defaultTokenURI() external view returns(string memory){return _getStorage(SLOT).defaultTokenURI;} */\n    tag_30:\n      tag_170\n      tag_171\n      jump\t// in\n    tag_170:\n      mload(0x40)\n      tag_172\n      swap2\n      swap1\n      tag_58\n      jump\t// in\n    tag_172:\n      mload(0x40)\n      dup1\n      swap2\n      sub\n      swap1\n      return\n        /* \"contracts/storage/LibSMEambStorage.sol\":3777:3873  function _startTokenId() external view returns(uint256){return _getStorage(SLOT)._startTokenId;} */\n    tag_31:\n      tag_173\n      tag_174\n      jump\t// in\n    tag_173:\n      mload(0x40)\n      tag_175\n      swap2\n      swap1\n      tag_78\n      jump\t// in\n    tag_175:\n      mload(0x40)\n      dup1\n      swap2\n      sub\n      swap1\n      return\n        /* \"contracts/storage/LibSMEambStorage.sol\":7459:7567  function baseTokenURI(string memory _baseTokenURI) external{_getStorage(SLOT).baseTokenURI = _baseTokenURI;} */\n    tag_32:\n      dup2\n      dup1\n      iszero\n      tag_176\n      jumpi\n      0x00\n      dup1\n      revert\n    tag_176:\n      pop\n      tag_177\n      0x04\n      dup1\n      calldatasize\n      sub\n      dup2\n      add\n      swap1\n      tag_178\n      swap2\n      swap1\n      tag_111\n      jump\t// in\n    tag_178:\n      tag_179\n      jump\t// in\n    tag_177:\n      stop\n        /* \"contracts/storage/LibSMEambStorage.sol\":4561:4689  function _packedAddressData(address _owner, uint256 _tokenId) external{_getStorage(SLOT)._packedAddressData[_owner] = _tokenId;} */\n    tag_33:\n      dup2\n      dup1\n      iszero\n      tag_180\n      jumpi\n      0x00\n      dup1\n      revert\n    tag_180:\n      pop\n      tag_181\n      0x04\n      dup1\n      calldatasize\n      sub\n      dup2\n      add\n      swap1\n      tag_182\n      swap2\n      swap1\n      tag_183\n      jump\t// in\n    tag_182:\n      tag_184\n      jump\t// in\n    tag_181:\n      stop\n        /* \"contracts/storage/LibSMEambStorage.sol\":4695:4837  function _tokenApprovals(uint256 _tokenId) external view returns(TokenApprovalRef memory){return _getStorage(SLOT)._tokenApprovals[_tokenId];} */\n    tag_34:\n      tag_185\n      0x04\n      dup1\n      calldatasize\n      sub\n      dup2\n      add\n      swap1\n      tag_186\n      swap2\n      swap1\n      tag_87\n      jump\t// in\n    tag_186:\n      tag_187\n      jump\t// in\n    tag_185:\n      mload(0x40)\n      tag_188\n      swap2\n      swap1\n      tag_189\n      jump\t// in\n    tag_188:\n      mload(0x40)\n      dup1\n      swap2\n      sub\n      swap1\n      return\n        /* \"contracts/storage/LibSMEambStorage.sol\":7973:8097  function ownedTokensIndex(uint256 _tokenId, uint256 _index) external{_getStorage(SLOT).ownedTokensIndex[_tokenId] = _index;} */\n    tag_35:\n      dup2\n      dup1\n      iszero\n      tag_190\n      jumpi\n      0x00\n      dup1\n      revert\n    tag_190:\n      pop\n      tag_191\n      0x04\n      dup1\n      calldatasize\n      sub\n      dup2\n      add\n      swap1\n      tag_192\n      swap2\n      swap1\n      tag_193\n      jump\t// in\n    tag_192:\n      tag_194\n      jump\t// in\n    tag_191:\n      stop\n        /* \"contracts/storage/LibSMEambStorage.sol\":8519:8636  function guaranteed_minted(address _owner, bool _bool) external{_getStorage(SLOT).guaranteed_minted[_owner] = _bool;} */\n    tag_36:\n      dup2\n      dup1\n      iszero\n      tag_195\n      jumpi\n      0x00\n      dup1\n      revert\n    tag_195:\n      pop\n      tag_196\n      0x04\n      dup1\n      calldatasize\n      sub\n      dup2\n      add\n      swap1\n      tag_197\n      swap2\n      swap1\n      tag_198\n      jump\t// in\n    tag_197:\n      tag_199\n      jump\t// in\n    tag_196:\n      stop\n        /* \"contracts/storage/LibSMEambStorage.sol\":7295:7416  function guaranteed_minted(address owner) external view returns(bool){return _getStorage(SLOT).guaranteed_minted[owner];} */\n    tag_37:\n      tag_200\n      0x04\n      dup1\n      calldatasize\n      sub\n      dup2\n      add\n      swap1\n      tag_201\n      swap2\n      swap1\n      tag_75\n      jump\t// in\n    tag_201:\n      tag_202\n      jump\t// in\n    tag_200:\n      mload(0x40)\n      tag_203\n      swap2\n      swap1\n      tag_204\n      jump\t// in\n    tag_203:\n      mload(0x40)\n      dup1\n      swap2\n      sub\n      swap1\n      return\n        /* \"contracts/storage/LibSMEambStorage.sol\":5910:6002  function _spotMinted() external view returns(uint256){return _getStorage(SLOT)._spotMinted;} */\n    tag_38:\n      tag_205\n      tag_206\n      jump\t// in\n    tag_205:\n      mload(0x40)\n      tag_207\n      swap2\n      swap1\n      tag_78\n      jump\t// in\n    tag_207:\n      mload(0x40)\n      dup1\n      swap2\n      sub\n      swap1\n      return\n        /* \"contracts/storage/LibSMEambStorage.sol\":6186:6286  function baseTokenURI() external view returns(string memory){return _getStorage(SLOT).baseTokenURI;} */\n    tag_39:\n      tag_208\n      tag_209\n      jump\t// in\n    tag_208:\n      mload(0x40)\n      tag_210\n      swap2\n      swap1\n      tag_58\n      jump\t// in\n    tag_210:\n      mload(0x40)\n      dup1\n      swap2\n      sub\n      swap1\n      return\n        /* \"contracts/storage/LibSMEambStorage.sol\":10339:10554  function addTokenToAllTokensEnumeration(uint256 tokenId) external {... */\n    tag_40:\n      dup2\n      dup1\n      iszero\n      tag_211\n      jumpi\n      0x00\n      dup1\n      revert\n    tag_211:\n      pop\n      tag_212\n      0x04\n      dup1\n      calldatasize\n      sub\n      dup2\n      add\n      swap1\n      tag_213\n      swap2\n      swap1\n      tag_87\n      jump\t// in\n    tag_213:\n      tag_214\n      jump\t// in\n    tag_212:\n      stop\n        /* \"contracts/storage/LibSMEambStorage.sol\":7213:7289  function fee() external view returns(uint256){return _getStorage(SLOT).fee;} */\n    tag_41:\n      tag_215\n      tag_216\n      jump\t// in\n    tag_215:\n      mload(0x40)\n      tag_217\n      swap2\n      swap1\n      tag_78\n      jump\t// in\n    tag_217:\n      mload(0x40)\n      dup1\n      swap2\n      sub\n      swap1\n      return\n        /* \"contracts/storage/LibSMEambStorage.sol\":7699:7823  function tokenURIs(string memory _tokenURIs, uint256 _tokenId) external{_getStorage(SLOT).tokenURIs[_tokenId] = _tokenURIs;} */\n    tag_42:\n      dup2\n      dup1\n      iszero\n      tag_218\n      jumpi\n      0x00\n      dup1\n      revert\n    tag_218:\n      pop\n      tag_219\n      0x04\n      dup1\n      calldatasize\n      sub\n      dup2\n      add\n      swap1\n      tag_220\n      swap2\n      swap1\n      tag_221\n      jump\t// in\n    tag_220:\n      tag_222\n      jump\t// in\n    tag_219:\n      stop\n        /* \"contracts/storage/LibSMEambStorage.sol\":6528:6662  function ownedTokens(address owner, uint256 index) external view returns(uint256){return _getStorage(SLOT).ownedTokens[owner][index];} */\n    tag_43:\n      tag_223\n      0x04\n      dup1\n      calldatasize\n      sub\n      dup2\n      add\n      swap1\n      tag_224\n      swap2\n      swap1\n      tag_183\n      jump\t// in\n    tag_224:\n      tag_225\n      jump\t// in\n    tag_223:\n      mload(0x40)\n      tag_226\n      swap2\n      swap1\n      tag_78\n      jump\t// in\n    tag_226:\n      mload(0x40)\n      dup1\n      swap2\n      sub\n      swap1\n      return\n        /* \"contracts/storage/LibSMEambStorage.sol\":4295:4421  function _packedOwnerships(uint256 _tokenId, uint256 _index) external{_getStorage(SLOT)._packedOwnerships[_tokenId] = _index;} */\n    tag_44:\n      dup2\n      dup1\n      iszero\n      tag_227\n      jumpi\n      0x00\n      dup1\n      revert\n    tag_227:\n      pop\n      tag_228\n      0x04\n      dup1\n      calldatasize\n      sub\n      dup2\n      add\n      swap1\n      tag_229\n      swap2\n      swap1\n      tag_193\n      jump\t// in\n    tag_229:\n      tag_230\n      jump\t// in\n    tag_228:\n      stop\n        /* \"contracts/storage/LibSMEambStorage.sol\":5596:5747  function _operatorApprovals(address owner, address operator) external view returns(bool){return _getStorage(SLOT)._operatorApprovals[owner][operator];} */\n    tag_45:\n      tag_231\n      0x04\n      dup1\n      calldatasize\n      sub\n      dup2\n      add\n      swap1\n      tag_232\n      swap2\n      swap1\n      tag_233\n      jump\t// in\n    tag_232:\n      tag_234\n      jump\t// in\n    tag_231:\n      mload(0x40)\n      tag_235\n      swap2\n      swap1\n      tag_204\n      jump\t// in\n    tag_235:\n      mload(0x40)\n      dup1\n      swap2\n      sub\n      swap1\n      return\n        /* \"contracts/storage/LibSMEambStorage.sol\":5086:5590  function _getApprovedSlotAndAddress(uint256 tokenId)... */\n    tag_46:\n      tag_236\n      0x04\n      dup1\n      calldatasize\n      sub\n      dup2\n      add\n      swap1\n      tag_237\n      swap2\n      swap1\n      tag_87\n      jump\t// in\n    tag_237:\n      tag_238\n      jump\t// in\n    tag_236:\n      mload(0x40)\n      tag_239\n      swap3\n      swap2\n      swap1\n      tag_240\n      jump\t// in\n    tag_239:\n      mload(0x40)\n      dup1\n      swap2\n      sub\n      swap1\n      return\n        /* \"contracts/storage/LibSMEambStorage.sol\":7009:7107  function legendlistRoot() external view returns(bytes32){return _getStorage(SLOT).legendlistRoot;} */\n    tag_47:\n      tag_241\n      tag_242\n      jump\t// in\n    tag_241:\n      mload(0x40)\n      tag_243\n      swap2\n      swap1\n      tag_72\n      jump\t// in\n    tag_243:\n      mload(0x40)\n      dup1\n      swap2\n      sub\n      swap1\n      return\n        /* \"contracts/storage/LibSMEambStorage.sol\":3216:3301  function name() external view returns(string memory){return _getStorage(SLOT)._name;} */\n    tag_56:\n        /* \"contracts/storage/LibSMEambStorage.sol\":3254:3267  string memory */\n      0x60\n        /* \"contracts/storage/LibSMEambStorage.sol\":3276:3293  _getStorage(SLOT) */\n      tag_245\n        /* \"contracts/storage/LibSMEambStorage.sol\":385:400  bytes('SMEamb') */\n      mload(0x40)\n      dup1\n      0x40\n      add\n      0x40\n      mstore\n      dup1\n      0x06\n      dup2\n      mstore\n      0x20\n      add\n      0x534d45616d620000000000000000000000000000000000000000000000000000\n      dup2\n      mstore\n      pop\n        /* \"contracts/storage/LibSMEambStorage.sol\":375:401  keccak256(bytes('SMEamb')) */\n      dup1\n      mload\n      swap1\n      0x20\n      add\n      keccak256\n        /* \"contracts/storage/LibSMEambStorage.sol\":3276:3287  _getStorage */\n      tag_246\n        /* \"contracts/storage/LibSMEambStorage.sol\":3276:3293  _getStorage(SLOT) */\n      jump\t// in\n    tag_245:\n        /* \"contracts/storage/LibSMEambStorage.sol\":3276:3299  _getStorage(SLOT)._name */\n      0x0e\n      add\n        /* \"contracts/storage/LibSMEambStorage.sol\":3269:3299  return _getStorage(SLOT)._name */\n      dup1\n      sload\n      tag_247\n      swap1\n      tag_248\n      jump\t// in\n    tag_247:\n      dup1\n      0x1f\n      add\n      0x20\n      dup1\n      swap2\n      div\n      mul\n      0x20\n      add\n      mload(0x40)\n      swap1\n      dup2\n      add\n      0x40\n      mstore\n      dup1\n      swap3\n      swap2\n      swap1\n      dup2\n      dup2\n      mstore\n      0x20\n      add\n      dup3\n      dup1\n      sload\n      tag_249\n      swap1\n      tag_248\n      jump\t// in\n    tag_249:\n      dup1\n      iszero\n      tag_250\n      jumpi\n      dup1\n      0x1f\n      lt\n      tag_251\n      jumpi\n      0x0100\n      dup1\n      dup4\n      sload\n      div\n      mul\n      dup4\n      mstore\n      swap2\n      0x20\n      add\n      swap2\n      jump(tag_250)\n    tag_251:\n      dup3\n      add\n      swap2\n      swap1\n      0x00\n      mstore\n      keccak256(0x00, 0x20)\n      swap1\n    tag_252:\n      dup2\n      sload\n      dup2\n      mstore\n      swap1\n      0x01\n      add\n      swap1\n      0x20\n      add\n      dup1\n      dup4\n      gt\n      tag_252\n      jumpi\n      dup3\n      swap1\n      sub\n      0x1f\n      and\n      dup3\n      add\n      swap2\n    tag_250:\n      pop\n      pop\n      pop\n      pop\n      pop\n      swap1\n      pop\n        /* \"contracts/storage/LibSMEambStorage.sol\":3216:3301  function name() external view returns(string memory){return _getStorage(SLOT)._name;} */\n      swap1\n      jump\t// out\n        /* \"contracts/storage/LibSMEambStorage.sol\":11181:12233  function removeTokenFromOwnerEnumeration(address from, uint256 tokenId, uint256 lastTokenIndex) external {... */\n    tag_63:\n        /* \"contracts/storage/LibSMEambStorage.sol\":11471:11489  uint256 tokenIndex */\n      0x00\n        /* \"contracts/storage/LibSMEambStorage.sol\":11492:11509  _getStorage(SLOT) */\n      tag_254\n        /* \"contracts/storage/LibSMEambStorage.sol\":385:400  bytes('SMEamb') */\n      mload(0x40)\n      dup1\n      0x40\n      add\n      0x40\n      mstore\n      dup1\n      0x06\n      dup2\n      mstore\n      0x20\n      add\n      0x534d45616d620000000000000000000000000000000000000000000000000000\n      dup2\n      mstore\n      pop\n        /* \"contracts/storage/LibSMEambStorage.sol\":375:401  keccak256(bytes('SMEamb')) */\n      dup1\n      mload\n      swap1\n      0x20\n      add\n      keccak256\n        /* \"contracts/storage/LibSMEambStorage.sol\":11492:11503  _getStorage */\n      tag_246\n        /* \"contracts/storage/LibSMEambStorage.sol\":11492:11509  _getStorage(SLOT) */\n      jump\t// in\n    tag_254:\n        /* \"contracts/storage/LibSMEambStorage.sol\":11492:11526  _getStorage(SLOT).ownedTokensIndex */\n      0x04\n      add\n        /* \"contracts/storage/LibSMEambStorage.sol\":11492:11535  _getStorage(SLOT).ownedTokensIndex[tokenId] */\n      0x00\n        /* \"contracts/storage/LibSMEambStorage.sol\":11527:11534  tokenId */\n      dup5\n        /* \"contracts/storage/LibSMEambStorage.sol\":11492:11535  _getStorage(SLOT).ownedTokensIndex[tokenId] */\n      dup2\n      mstore\n      0x20\n      add\n      swap1\n      dup2\n      mstore\n      0x20\n      add\n      0x00\n      keccak256\n      sload\n        /* \"contracts/storage/LibSMEambStorage.sol\":11471:11535  uint256 tokenIndex = _getStorage(SLOT).ownedTokensIndex[tokenId] */\n      swap1\n      pop\n        /* \"contracts/storage/LibSMEambStorage.sol\":11656:11670  lastTokenIndex */\n      dup2\n        /* \"contracts/storage/LibSMEambStorage.sol\":11642:11652  tokenIndex */\n      dup2\n        /* \"contracts/storage/LibSMEambStorage.sol\":11642:11670  tokenIndex != lastTokenIndex */\n      eq\n        /* \"contracts/storage/LibSMEambStorage.sol\":11638:12017  if (tokenIndex != lastTokenIndex) {... */\n      tag_255\n      jumpi\n        /* \"contracts/storage/LibSMEambStorage.sol\":11687:11706  uint256 lastTokenId */\n      0x00\n        /* \"contracts/storage/LibSMEambStorage.sol\":11709:11726  _getStorage(SLOT) */\n      tag_256\n        /* \"contracts/storage/LibSMEambStorage.sol\":385:400  bytes('SMEamb') */\n      mload(0x40)\n      dup1\n      0x40\n      add\n      0x40\n      mstore\n      dup1\n      0x06\n      dup2\n      mstore\n      0x20\n      add\n      0x534d45616d620000000000000000000000000000000000000000000000000000\n      dup2\n      mstore\n      pop\n        /* \"contracts/storage/LibSMEambStorage.sol\":375:401  keccak256(bytes('SMEamb')) */\n      dup1\n      mload\n      swap1\n      0x20\n      add\n      keccak256\n        /* \"contracts/storage/LibSMEambStorage.sol\":11709:11720  _getStorage */\n      tag_246\n        /* \"contracts/storage/LibSMEambStorage.sol\":11709:11726  _getStorage(SLOT) */\n      jump\t// in\n    tag_256:\n        /* \"contracts/storage/LibSMEambStorage.sol\":11709:11738  _getStorage(SLOT).ownedTokens */\n      0x03\n      add\n        /* \"contracts/storage/LibSMEambStorage.sol\":11709:11744  _getStorage(SLOT).ownedTokens[from] */\n      0x00\n        /* \"contracts/storage/LibSMEambStorage.sol\":11739:11743  from */\n      dup7\n        /* \"contracts/storage/LibSMEambStorage.sol\":11709:11744  _getStorage(SLOT).ownedTokens[from] */\n      0xffffffffffffffffffffffffffffffffffffffff\n      and\n      0xffffffffffffffffffffffffffffffffffffffff\n      and\n      dup2\n      mstore\n      0x20\n      add\n      swap1\n      dup2\n      mstore\n      0x20\n      add\n      0x00\n      keccak256\n        /* \"contracts/storage/LibSMEambStorage.sol\":11709:11760  _getStorage(SLOT).ownedTokens[from][lastTokenIndex] */\n      0x00\n        /* \"contracts/storage/LibSMEambStorage.sol\":11745:11759  lastTokenIndex */\n      dup5\n        /* \"contracts/storage/LibSMEambStorage.sol\":11709:11760  _getStorage(SLOT).ownedTokens[from][lastTokenIndex] */\n      dup2\n      mstore\n      0x20\n      add\n      swap1\n      dup2\n      mstore\n      0x20\n      add\n      0x00\n      keccak256\n      sload\n        /* \"contracts/storage/LibSMEambStorage.sol\":11687:11760  uint256 lastTokenId = _getStorage(SLOT).ownedTokens[from][lastTokenIndex] */\n      swap1\n      pop\n        /* \"contracts/storage/LibSMEambStorage.sol\":11827:11838  lastTokenId */\n      dup1\n        /* \"contracts/storage/LibSMEambStorage.sol\":11777:11794  _getStorage(SLOT) */\n      tag_257\n        /* \"contracts/storage/LibSMEambStorage.sol\":385:400  bytes('SMEamb') */\n      mload(0x40)\n      dup1\n      0x40\n      add\n      0x40\n      mstore\n      dup1\n      0x06\n      dup2\n      mstore\n      0x20\n      add\n      0x534d45616d620000000000000000000000000000000000000000000000000000\n      dup2\n      mstore\n      pop\n        /* \"contracts/storage/LibSMEambStorage.sol\":375:401  keccak256(bytes('SMEamb')) */\n      dup1\n      mload\n      swap1\n      0x20\n      add\n      keccak256\n        /* \"contracts/storage/LibSMEambStorage.sol\":11777:11788  _getStorage */\n      tag_246\n        /* \"contracts/storage/LibSMEambStorage.sol\":11777:11794  _getStorage(SLOT) */\n      jump\t// in\n    tag_257:\n        /* \"contracts/storage/LibSMEambStorage.sol\":11777:11806  _getStorage(SLOT).ownedTokens */\n      0x03\n      add\n        /* \"contracts/storage/LibSMEambStorage.sol\":11777:11812  _getStorage(SLOT).ownedTokens[from] */\n      0x00\n        /* \"contracts/storage/LibSMEambStorage.sol\":11807:11811  from */\n      dup8\n        /* \"contracts/storage/LibSMEambStorage.sol\":11777:11812  _getStorage(SLOT).ownedTokens[from] */\n      0xffffffffffffffffffffffffffffffffffffffff\n      and\n      0xffffffffffffffffffffffffffffffffffffffff\n      and\n      dup2\n      mstore\n      0x20\n      add\n      swap1\n      dup2\n      mstore\n      0x20\n      add\n      0x00\n      keccak256\n        /* \"contracts/storage/LibSMEambStorage.sol\":11777:11824  _getStorage(SLOT).ownedTokens[from][tokenIndex] */\n      0x00\n        /* \"contracts/storage/LibSMEambStorage.sol\":11813:11823  tokenIndex */\n      dup5\n        /* \"contracts/storage/LibSMEambStorage.sol\":11777:11824  _getStorage(SLOT).ownedTokens[from][tokenIndex] */\n      dup2\n      mstore\n      0x20\n      add\n      swap1\n      dup2\n      mstore\n      0x20\n      add\n      0x00\n      keccak256\n        /* \"contracts/storage/LibSMEambStorage.sol\":11777:11838  _getStorage(SLOT).ownedTokens[from][tokenIndex] = lastTokenId */\n      dup2\n      swap1\n      sstore\n      pop\n        /* \"contracts/storage/LibSMEambStorage.sol\":11961:11971  tokenIndex */\n      dup2\n        /* \"contracts/storage/LibSMEambStorage.sol\":11911:11928  _getStorage(SLOT) */\n      tag_258\n        /* \"contracts/storage/LibSMEambStorage.sol\":385:400  bytes('SMEamb') */\n      mload(0x40)\n      dup1\n      0x40\n      add\n      0x40\n      mstore\n      dup1\n      0x06\n      dup2\n      mstore\n      0x20\n      add\n      0x534d45616d620000000000000000000000000000000000000000000000000000\n      dup2\n      mstore\n      pop\n        /* \"contracts/storage/LibSMEambStorage.sol\":375:401  keccak256(bytes('SMEamb')) */\n      dup1\n      mload\n      swap1\n      0x20\n      add\n      keccak256\n        /* \"contracts/storage/LibSMEambStorage.sol\":11911:11922  _getStorage */\n      tag_246\n        /* \"contracts/storage/LibSMEambStorage.sol\":11911:11928  _getStorage(SLOT) */\n      jump\t// in\n    tag_258:\n        /* \"contracts/storage/LibSMEambStorage.sol\":11911:11945  _getStorage(SLOT).ownedTokensIndex */\n      0x04\n      add\n        /* \"contracts/storage/LibSMEambStorage.sol\":11911:11958  _getStorage(SLOT).ownedTokensIndex[lastTokenId] */\n      0x00\n        /* \"contracts/storage/LibSMEambStorage.sol\":11946:11957  lastTokenId */\n      dup4\n        /* \"contracts/storage/LibSMEambStorage.sol\":11911:11958  _getStorage(SLOT).ownedTokensIndex[lastTokenId] */\n      dup2\n      mstore\n      0x20\n      add\n      swap1\n      dup2\n      mstore\n      0x20\n      add\n      0x00\n      keccak256\n        /* \"contracts/storage/LibSMEambStorage.sol\":11911:11971  _getStorage(SLOT).ownedTokensIndex[lastTokenId] = tokenIndex */\n      dup2\n      swap1\n      sstore\n      pop\n        /* \"contracts/storage/LibSMEambStorage.sol\":11672:12017  {... */\n      pop\n        /* \"contracts/storage/LibSMEambStorage.sol\":11638:12017  if (tokenIndex != lastTokenIndex) {... */\n    tag_255:\n        /* \"contracts/storage/LibSMEambStorage.sol\":12113:12130  _getStorage(SLOT) */\n      tag_259\n        /* \"contracts/storage/LibSMEambStorage.sol\":385:400  bytes('SMEamb') */\n      mload(0x40)\n      dup1\n      0x40\n      add\n      0x40\n      mstore\n      dup1\n      0x06\n      dup2\n      mstore\n      0x20\n      add\n      0x534d45616d620000000000000000000000000000000000000000000000000000\n      dup2\n      mstore\n      pop\n        /* \"contracts/storage/LibSMEambStorage.sol\":375:401  keccak256(bytes('SMEamb')) */\n      dup1\n      mload\n      swap1\n      0x20\n      add\n      keccak256\n        /* \"contracts/storage/LibSMEambStorage.sol\":12113:12124  _getStorage */\n      tag_246\n        /* \"contracts/storage/LibSMEambStorage.sol\":12113:12130  _getStorage(SLOT) */\n      jump\t// in\n    tag_259:\n        /* \"contracts/storage/LibSMEambStorage.sol\":12113:12147  _getStorage(SLOT).ownedTokensIndex */\n      0x04\n      add\n        /* \"contracts/storage/LibSMEambStorage.sol\":12113:12156  _getStorage(SLOT).ownedTokensIndex[tokenId] */\n      0x00\n        /* \"contracts/storage/LibSMEambStorage.sol\":12148:12155  tokenId */\n      dup5\n        /* \"contracts/storage/LibSMEambStorage.sol\":12113:12156  _getStorage(SLOT).ownedTokensIndex[tokenId] */\n      dup2\n      mstore\n      0x20\n      add\n      swap1\n      dup2\n      mstore\n      0x20\n      add\n      0x00\n      keccak256\n        /* \"contracts/storage/LibSMEambStorage.sol\":12106:12156  delete _getStorage(SLOT).ownedTokensIndex[tokenId] */\n      0x00\n      swap1\n      sstore\n        /* \"contracts/storage/LibSMEambStorage.sol\":12174:12191  _getStorage(SLOT) */\n      tag_260\n        /* \"contracts/storage/LibSMEambStorage.sol\":385:400  bytes('SMEamb') */\n      mload(0x40)\n      dup1\n      0x40\n      add\n      0x40\n      mstore\n      dup1\n      0x06\n      dup2\n      mstore\n      0x20\n      add\n      0x534d45616d620000000000000000000000000000000000000000000000000000\n      dup2\n      mstore\n      pop\n        /* \"contracts/storage/LibSMEambStorage.sol\":375:401  keccak256(bytes('SMEamb')) */\n      dup1\n      mload\n      swap1\n      0x20\n      add\n      keccak256\n        /* \"contracts/storage/LibSMEambStorage.sol\":12174:12185  _getStorage */\n      tag_246\n        /* \"contracts/storage/LibSMEambStorage.sol\":12174:12191  _getStorage(SLOT) */\n      jump\t// in\n    tag_260:\n        /* \"contracts/storage/LibSMEambStorage.sol\":12174:12203  _getStorage(SLOT).ownedTokens */\n      0x03\n      add\n        /* \"contracts/storage/LibSMEambStorage.sol\":12174:12209  _getStorage(SLOT).ownedTokens[from] */\n      0x00\n        /* \"contracts/storage/LibSMEambStorage.sol\":12204:12208  from */\n      dup6\n        /* \"contracts/storage/LibSMEambStorage.sol\":12174:12209  _getStorage(SLOT).ownedTokens[from] */\n      0xffffffffffffffffffffffffffffffffffffffff\n      and\n      0xffffffffffffffffffffffffffffffffffffffff\n      and\n      dup2\n      mstore\n      0x20\n      add\n      swap1\n      dup2\n      mstore\n      0x20\n      add\n      0x00\n      keccak256\n        /* \"contracts/storage/LibSMEambStorage.sol\":12174:12225  _getStorage(SLOT).ownedTokens[from][lastTokenIndex] */\n      0x00\n        /* \"contracts/storage/LibSMEambStorage.sol\":12210:12224  lastTokenIndex */\n      dup4\n        /* \"contracts/storage/LibSMEambStorage.sol\":12174:12225  _getStorage(SLOT).ownedTokens[from][lastTokenIndex] */\n      dup2\n      mstore\n      0x20\n      add\n      swap1\n      dup2\n      mstore\n      0x20\n      add\n      0x00\n      keccak256\n        /* \"contracts/storage/LibSMEambStorage.sol\":12167:12225  delete _getStorage(SLOT).ownedTokens[from][lastTokenIndex] */\n      0x00\n      swap1\n      sstore\n        /* \"contracts/storage/LibSMEambStorage.sol\":11286:12233  {... */\n      pop\n        /* \"contracts/storage/LibSMEambStorage.sol\":11181:12233  function removeTokenFromOwnerEnumeration(address from, uint256 tokenId, uint256 lastTokenIndex) external {... */\n      pop\n      pop\n      pop\n      jump\t// out\n        /* \"contracts/storage/LibSMEambStorage.sol\":4843:4975  function _tokenApprovals(uint256 _tokenId, address _address) external{_getStorage(SLOT)._tokenApprovals[_tokenId].value = _address;} */\n    tag_68:\n        /* \"contracts/storage/LibSMEambStorage.sol\":4965:4973  _address */\n      dup1\n        /* \"contracts/storage/LibSMEambStorage.sol\":4913:4930  _getStorage(SLOT) */\n      tag_262\n        /* \"contracts/storage/LibSMEambStorage.sol\":385:400  bytes('SMEamb') */\n      mload(0x40)\n      dup1\n      0x40\n      add\n      0x40\n      mstore\n      dup1\n      0x06\n      dup2\n      mstore\n      0x20\n      add\n      0x534d45616d620000000000000000000000000000000000000000000000000000\n      dup2\n      mstore\n      pop\n        /* \"contracts/storage/LibSMEambStorage.sol\":375:401  keccak256(bytes('SMEamb')) */\n      dup1\n      mload\n      swap1\n      0x20\n      add\n      keccak256\n        /* \"contracts/storage/LibSMEambStorage.sol\":4913:4924  _getStorage */\n      tag_246\n        /* \"contracts/storage/LibSMEambStorage.sol\":4913:4930  _getStorage(SLOT) */\n      jump\t// in\n    tag_262:\n        /* \"contracts/storage/LibSMEambStorage.sol\":4913:4946  _getStorage(SLOT)._tokenApprovals */\n      0x12\n      add\n        /* \"contracts/storage/LibSMEambStorage.sol\":4913:4956  _getStorage(SLOT)._tokenApprovals[_tokenId] */\n      0x00\n        /* \"contracts/storage/LibSMEambStorage.sol\":4947:4955  _tokenId */\n      dup5\n        /* \"contracts/storage/LibSMEambStorage.sol\":4913:4956  _getStorage(SLOT)._tokenApprovals[_tokenId] */\n      dup2\n      mstore\n      0x20\n      add\n      swap1\n      dup2\n      mstore\n      0x20\n      add\n      0x00\n      keccak256\n        /* \"contracts/storage/LibSMEambStorage.sol\":4913:4962  _getStorage(SLOT)._tokenApprovals[_tokenId].value */\n      0x00\n      add\n      0x00\n        /* \"contracts/storage/LibSMEambStorage.sol\":4913:4973  _getStorage(SLOT)._tokenApprovals[_tokenId].value = _address */\n      0x0100\n      exp\n      dup2\n      sload\n      dup2\n      0xffffffffffffffffffffffffffffffffffffffff\n      mul\n      not\n      and\n      swap1\n      dup4\n      0xffffffffffffffffffffffffffffffffffffffff\n      and\n      mul\n      or\n      swap1\n      sstore\n      pop\n        /* \"contracts/storage/LibSMEambStorage.sol\":4843:4975  function _tokenApprovals(uint256 _tokenId, address _address) external{_getStorage(SLOT)._tokenApprovals[_tokenId].value = _address;} */\n      pop\n      pop\n      jump\t// out\n        /* \"contracts/storage/LibSMEambStorage.sol\":6903:7003  function genesislistRoot() external view returns(bytes32){return _getStorage(SLOT).genesislistRoot;} */\n    tag_70:\n        /* \"contracts/storage/LibSMEambStorage.sol\":6952:6959  bytes32 */\n      0x00\n        /* \"contracts/storage/LibSMEambStorage.sol\":6968:6985  _getStorage(SLOT) */\n      tag_264\n        /* \"contracts/storage/LibSMEambStorage.sol\":385:400  bytes('SMEamb') */\n      mload(0x40)\n      dup1\n      0x40\n      add\n      0x40\n      mstore\n      dup1\n      0x06\n      dup2\n      mstore\n      0x20\n      add\n      0x534d45616d620000000000000000000000000000000000000000000000000000\n      dup2\n      mstore\n      pop\n        /* \"contracts/storage/LibSMEambStorage.sol\":375:401  keccak256(bytes('SMEamb')) */\n      dup1\n      mload\n      swap1\n      0x20\n      add\n      keccak256\n        /* \"contracts/storage/LibSMEambStorage.sol\":6968:6979  _getStorage */\n      tag_246\n        /* \"contracts/storage/LibSMEambStorage.sol\":6968:6985  _getStorage(SLOT) */\n      jump\t// in\n    tag_264:\n        /* \"contracts/storage/LibSMEambStorage.sol\":6968:7001  _getStorage(SLOT).genesislistRoot */\n      0x07\n      add\n      sload\n        /* \"contracts/storage/LibSMEambStorage.sol\":6961:7001  return _getStorage(SLOT).genesislistRoot */\n      swap1\n      pop\n        /* \"contracts/storage/LibSMEambStorage.sol\":6903:7003  function genesislistRoot() external view returns(bytes32){return _getStorage(SLOT).genesislistRoot;} */\n      swap1\n      jump\t// out\n        /* \"contracts/storage/LibSMEambStorage.sol\":4427:4555  function _packedAddressData(address _owner) external view returns(uint256){return _getStorage(SLOT)._packedAddressData[_owner];} */\n    tag_76:\n        /* \"contracts/storage/LibSMEambStorage.sol\":4493:4500  uint256 */\n      0x00\n        /* \"contracts/storage/LibSMEambStorage.sol\":4509:4526  _getStorage(SLOT) */\n      tag_266\n        /* \"contracts/storage/LibSMEambStorage.sol\":385:400  bytes('SMEamb') */\n      mload(0x40)\n      dup1\n      0x40\n      add\n      0x40\n      mstore\n      dup1\n      0x06\n      dup2\n      mstore\n      0x20\n      add\n      0x534d45616d620000000000000000000000000000000000000000000000000000\n      dup2\n      mstore\n      pop\n        /* \"contracts/storage/LibSMEambStorage.sol\":375:401  keccak256(bytes('SMEamb')) */\n      dup1\n      mload\n      swap1\n      0x20\n      add\n      keccak256\n        /* \"contracts/storage/LibSMEambStorage.sol\":4509:4520  _getStorage */\n      tag_246\n        /* \"contracts/storage/LibSMEambStorage.sol\":4509:4526  _getStorage(SLOT) */\n      jump\t// in\n    tag_266:\n        /* \"contracts/storage/LibSMEambStorage.sol\":4509:4545  _getStorage(SLOT)._packedAddressData */\n      0x11\n      add\n        /* \"contracts/storage/LibSMEambStorage.sol\":4509:4553  _getStorage(SLOT)._packedAddressData[_owner] */\n      0x00\n        /* \"contracts/storage/LibSMEambStorage.sol\":4546:4552  _owner */\n      dup4\n        /* \"contracts/storage/LibSMEambStorage.sol\":4509:4553  _getStorage(SLOT)._packedAddressData[_owner] */\n      0xffffffffffffffffffffffffffffffffffffffff\n      and\n      0xffffffffffffffffffffffffffffffffffffffff\n      and\n      dup2\n      mstore\n      0x20\n      add\n      swap1\n      dup2\n      mstore\n      0x20\n      add\n      0x00\n      keccak256\n      sload\n        /* \"contracts/storage/LibSMEambStorage.sol\":4502:4553  return _getStorage(SLOT)._packedAddressData[_owner] */\n      swap1\n      pop\n        /* \"contracts/storage/LibSMEambStorage.sol\":4427:4555  function _packedAddressData(address _owner) external view returns(uint256){return _getStorage(SLOT)._packedAddressData[_owner];} */\n      swap2\n      swap1\n      pop\n      jump\t// out\n        /* \"contracts/storage/LibSMEambStorage.sol\":8339:8441  function epiclistRoot(bytes32 _epiclistRoot) external{_getStorage(SLOT).epiclistRoot = _epiclistRoot;} */\n    tag_83:\n        /* \"contracts/storage/LibSMEambStorage.sol\":8426:8439  _epiclistRoot */\n      dup1\n        /* \"contracts/storage/LibSMEambStorage.sol\":8393:8410  _getStorage(SLOT) */\n      tag_268\n        /* \"contracts/storage/LibSMEambStorage.sol\":385:400  bytes('SMEamb') */\n      mload(0x40)\n      dup1\n      0x40\n      add\n      0x40\n      mstore\n      dup1\n      0x06\n      dup2\n      mstore\n      0x20\n      add\n      0x534d45616d620000000000000000000000000000000000000000000000000000\n      dup2\n      mstore\n      pop\n        /* \"contracts/storage/LibSMEambStorage.sol\":375:401  keccak256(bytes('SMEamb')) */\n      dup1\n      mload\n      swap1\n      0x20\n      add\n      keccak256\n        /* \"contracts/storage/LibSMEambStorage.sol\":8393:8404  _getStorage */\n      tag_246\n        /* \"contracts/storage/LibSMEambStorage.sol\":8393:8410  _getStorage(SLOT) */\n      jump\t// in\n    tag_268:\n        /* \"contracts/storage/LibSMEambStorage.sol\":8393:8423  _getStorage(SLOT).epiclistRoot */\n      0x09\n      add\n        /* \"contracts/storage/LibSMEambStorage.sol\":8393:8439  _getStorage(SLOT).epiclistRoot = _epiclistRoot */\n      dup2\n      swap1\n      sstore\n      pop\n        /* \"contracts/storage/LibSMEambStorage.sol\":8339:8441  function epiclistRoot(bytes32 _epiclistRoot) external{_getStorage(SLOT).epiclistRoot = _epiclistRoot;} */\n      pop\n      jump\t// out\n        /* \"contracts/storage/LibSMEambStorage.sol\":3879:3964  function _startTokenId(uint256 _id) external {_getStorage(SLOT)._startTokenId = _id;} */\n    tag_88:\n        /* \"contracts/storage/LibSMEambStorage.sol\":3959:3962  _id */\n      dup1\n        /* \"contracts/storage/LibSMEambStorage.sol\":3925:3942  _getStorage(SLOT) */\n      tag_270\n        /* \"contracts/storage/LibSMEambStorage.sol\":385:400  bytes('SMEamb') */\n      mload(0x40)\n      dup1\n      0x40\n      add\n      0x40\n      mstore\n      dup1\n      0x06\n      dup2\n      mstore\n      0x20\n      add\n      0x534d45616d620000000000000000000000000000000000000000000000000000\n      dup2\n      mstore\n      pop\n        /* \"contracts/storage/LibSMEambStorage.sol\":375:401  keccak256(bytes('SMEamb')) */\n      dup1\n      mload\n      swap1\n      0x20\n      add\n      keccak256\n        /* \"contracts/storage/LibSMEambStorage.sol\":3925:3936  _getStorage */\n      tag_246\n        /* \"contracts/storage/LibSMEambStorage.sol\":3925:3942  _getStorage(SLOT) */\n      jump\t// in\n    tag_270:\n        /* \"contracts/storage/LibSMEambStorage.sol\":3925:3956  _getStorage(SLOT)._startTokenId */\n      0x15\n      add\n        /* \"contracts/storage/LibSMEambStorage.sol\":3925:3962  _getStorage(SLOT)._startTokenId = _id */\n      dup2\n      swap1\n      sstore\n      pop\n        /* \"contracts/storage/LibSMEambStorage.sol\":3879:3964  function _startTokenId(uint256 _id) external {_getStorage(SLOT)._startTokenId = _id;} */\n      pop\n      jump\t// out\n        /* \"contracts/storage/LibSMEambStorage.sol\":7113:7207  function epiclistRoot() external view returns(bytes32){return _getStorage(SLOT).epiclistRoot;} */\n    tag_90:\n        /* \"contracts/storage/LibSMEambStorage.sol\":7159:7166  bytes32 */\n      0x00\n        /* \"contracts/storage/LibSMEambStorage.sol\":7175:7192  _getStorage(SLOT) */\n      tag_272\n        /* \"contracts/storage/LibSMEambStorage.sol\":385:400  bytes('SMEamb') */\n      mload(0x40)\n      dup1\n      0x40\n      add\n      0x40\n      mstore\n      dup1\n      0x06\n      dup2\n      mstore\n      0x20\n      add\n      0x534d45616d620000000000000000000000000000000000000000000000000000\n      dup2\n      mstore\n      pop\n        /* \"contracts/storage/LibSMEambStorage.sol\":375:401  keccak256(bytes('SMEamb')) */\n      dup1\n      mload\n      swap1\n      0x20\n      add\n      keccak256\n        /* \"contracts/storage/LibSMEambStorage.sol\":7175:7186  _getStorage */\n      tag_246\n        /* \"contracts/storage/LibSMEambStorage.sol\":7175:7192  _getStorage(SLOT) */\n      jump\t// in\n    tag_272:\n        /* \"contracts/storage/LibSMEambStorage.sol\":7175:7205  _getStorage(SLOT).epiclistRoot */\n      0x09\n      add\n      sload\n        /* \"contracts/storage/LibSMEambStorage.sol\":7168:7205  return _getStorage(SLOT).epiclistRoot */\n      swap1\n      pop\n        /* \"contracts/storage/LibSMEambStorage.sol\":7113:7207  function epiclistRoot() external view returns(bytes32){return _getStorage(SLOT).epiclistRoot;} */\n      swap1\n      jump\t// out\n        /* \"contracts/storage/LibSMEambStorage.sol\":3680:3771  function _currentIndex(uint256 _index) external {_getStorage(SLOT)._currentIndex = _index;} */\n    tag_95:\n        /* \"contracts/storage/LibSMEambStorage.sol\":3763:3769  _index */\n      dup1\n        /* \"contracts/storage/LibSMEambStorage.sol\":3729:3746  _getStorage(SLOT) */\n      tag_274\n        /* \"contracts/storage/LibSMEambStorage.sol\":385:400  bytes('SMEamb') */\n      mload(0x40)\n      dup1\n      0x40\n      add\n      0x40\n      mstore\n      dup1\n      0x06\n      dup2\n      mstore\n      0x20\n      add\n      0x534d45616d620000000000000000000000000000000000000000000000000000\n      dup2\n      mstore\n      pop\n        /* \"contracts/storage/LibSMEambStorage.sol\":375:401  keccak256(bytes('SMEamb')) */\n      dup1\n      mload\n      swap1\n      0x20\n      add\n      keccak256\n        /* \"contracts/storage/LibSMEambStorage.sol\":3729:3740  _getStorage */\n      tag_246\n        /* \"contracts/storage/LibSMEambStorage.sol\":3729:3746  _getStorage(SLOT) */\n      jump\t// in\n    tag_274:\n        /* \"contracts/storage/LibSMEambStorage.sol\":3729:3760  _getStorage(SLOT)._currentIndex */\n      0x0c\n      add\n        /* \"contracts/storage/LibSMEambStorage.sol\":3729:3769  _getStorage(SLOT)._currentIndex = _index */\n      dup2\n      swap1\n      sstore\n      pop\n        /* \"contracts/storage/LibSMEambStorage.sol\":3680:3771  function _currentIndex(uint256 _index) external {_getStorage(SLOT)._currentIndex = _index;} */\n      pop\n      jump\t// out\n        /* \"contracts/storage/LibSMEambStorage.sol\":8103:8217  function genesislistRoot(bytes32 _genesislistRoot) external{_getStorage(SLOT).genesislistRoot = _genesislistRoot;} */\n    tag_99:\n        /* \"contracts/storage/LibSMEambStorage.sol\":8199:8215  _genesislistRoot */\n      dup1\n        /* \"contracts/storage/LibSMEambStorage.sol\":8163:8180  _getStorage(SLOT) */\n      tag_276\n        /* \"contracts/storage/LibSMEambStorage.sol\":385:400  bytes('SMEamb') */\n      mload(0x40)\n      dup1\n      0x40\n      add\n      0x40\n      mstore\n      dup1\n      0x06\n      dup2\n      mstore\n      0x20\n      add\n      0x534d45616d620000000000000000000000000000000000000000000000000000\n      dup2\n      mstore\n      pop\n        /* \"contracts/storage/LibSMEambStorage.sol\":375:401  keccak256(bytes('SMEamb')) */\n      dup1\n      mload\n      swap1\n      0x20\n      add\n      keccak256\n        /* \"contracts/storage/LibSMEambStorage.sol\":8163:8174  _getStorage */\n      tag_246\n        /* \"contracts/storage/LibSMEambStorage.sol\":8163:8180  _getStorage(SLOT) */\n      jump\t// in\n    tag_276:\n        /* \"contracts/storage/LibSMEambStorage.sol\":8163:8196  _getStorage(SLOT).genesislistRoot */\n      0x07\n      add\n        /* \"contracts/storage/LibSMEambStorage.sol\":8163:8215  _getStorage(SLOT).genesislistRoot = _genesislistRoot */\n      dup2\n      swap1\n      sstore\n      pop\n        /* \"contracts/storage/LibSMEambStorage.sol\":8103:8217  function genesislistRoot(bytes32 _genesislistRoot) external{_getStorage(SLOT).genesislistRoot = _genesislistRoot;} */\n      pop\n      jump\t// out\n        /* \"contracts/storage/LibSMEambStorage.sol\":8447:8513  function fee(uint256 _fee) external{_getStorage(SLOT).fee = _fee;} */\n    tag_103:\n        /* \"contracts/storage/LibSMEambStorage.sol\":8507:8511  _fee */\n      dup1\n        /* \"contracts/storage/LibSMEambStorage.sol\":8483:8500  _getStorage(SLOT) */\n      tag_278\n        /* \"contracts/storage/LibSMEambStorage.sol\":385:400  bytes('SMEamb') */\n      mload(0x40)\n      dup1\n      0x40\n      add\n      0x40\n      mstore\n      dup1\n      0x06\n      dup2\n      mstore\n      0x20\n      add\n      0x534d45616d620000000000000000000000000000000000000000000000000000\n      dup2\n      mstore\n      pop\n        /* \"contracts/storage/LibSMEambStorage.sol\":375:401  keccak256(bytes('SMEamb')) */\n      dup1\n      mload\n      swap1\n      0x20\n      add\n      keccak256\n        /* \"contracts/storage/LibSMEambStorage.sol\":8483:8494  _getStorage */\n      tag_246\n        /* \"contracts/storage/LibSMEambStorage.sol\":8483:8500  _getStorage(SLOT) */\n      jump\t// in\n    tag_278:\n        /* \"contracts/storage/LibSMEambStorage.sol\":8483:8504  _getStorage(SLOT).fee */\n      0x0a\n      add\n        /* \"contracts/storage/LibSMEambStorage.sol\":8483:8511  _getStorage(SLOT).fee = _fee */\n      dup2\n      swap1\n      sstore\n      pop\n        /* \"contracts/storage/LibSMEambStorage.sol\":8447:8513  function fee(uint256 _fee) external{_getStorage(SLOT).fee = _fee;} */\n      pop\n      jump\t// out\n        /* \"contracts/storage/LibSMEambStorage.sol\":8935:10137  function removeTokenFromAllTokensEnumeration(uint256 tokenId) external {... */\n    tag_107:\n        /* \"contracts/storage/LibSMEambStorage.sol\":9192:9214  uint256 lastTokenIndex */\n      0x00\n        /* \"contracts/storage/LibSMEambStorage.sol\":9254:9255  1 */\n      0x01\n        /* \"contracts/storage/LibSMEambStorage.sol\":9217:9234  _getStorage(SLOT) */\n      tag_280\n        /* \"contracts/storage/LibSMEambStorage.sol\":385:400  bytes('SMEamb') */\n      mload(0x40)\n      dup1\n      0x40\n      add\n      0x40\n      mstore\n      dup1\n      0x06\n      dup2\n      mstore\n      0x20\n      add\n      0x534d45616d620000000000000000000000000000000000000000000000000000\n      dup2\n      mstore\n      pop\n        /* \"contracts/storage/LibSMEambStorage.sol\":375:401  keccak256(bytes('SMEamb')) */\n      dup1\n      mload\n      swap1\n      0x20\n      add\n      keccak256\n        /* \"contracts/storage/LibSMEambStorage.sol\":9217:9228  _getStorage */\n      tag_246\n        /* \"contracts/storage/LibSMEambStorage.sol\":9217:9234  _getStorage(SLOT) */\n      jump\t// in\n    tag_280:\n        /* \"contracts/storage/LibSMEambStorage.sol\":9217:9244  _getStorage(SLOT).allTokens */\n      0x05\n      add\n        /* \"contracts/storage/LibSMEambStorage.sol\":9217:9251  _getStorage(SLOT).allTokens.length */\n      dup1\n      sload\n      swap1\n      pop\n        /* \"contracts/storage/LibSMEambStorage.sol\":9217:9255  _getStorage(SLOT).allTokens.length - 1 */\n      tag_281\n      swap2\n      swap1\n      tag_282\n      jump\t// in\n    tag_281:\n        /* \"contracts/storage/LibSMEambStorage.sol\":9192:9255  uint256 lastTokenIndex = _getStorage(SLOT).allTokens.length - 1 */\n      swap1\n      pop\n        /* \"contracts/storage/LibSMEambStorage.sol\":9266:9284  uint256 tokenIndex */\n      0x00\n        /* \"contracts/storage/LibSMEambStorage.sol\":9287:9304  _getStorage(SLOT) */\n      tag_283\n        /* \"contracts/storage/LibSMEambStorage.sol\":385:400  bytes('SMEamb') */\n      mload(0x40)\n      dup1\n      0x40\n      add\n      0x40\n      mstore\n      dup1\n      0x06\n      dup2\n      mstore\n      0x20\n      add\n      0x534d45616d620000000000000000000000000000000000000000000000000000\n      dup2\n      mstore\n      pop\n        /* \"contracts/storage/LibSMEambStorage.sol\":375:401  keccak256(bytes('SMEamb')) */\n      dup1\n      mload\n      swap1\n      0x20\n      add\n      keccak256\n        /* \"contracts/storage/LibSMEambStorage.sol\":9287:9298  _getStorage */\n      tag_246\n        /* \"contracts/storage/LibSMEambStorage.sol\":9287:9304  _getStorage(SLOT) */\n      jump\t// in\n    tag_283:\n        /* \"contracts/storage/LibSMEambStorage.sol\":9287:9319  _getStorage(SLOT).allTokensIndex */\n      0x06\n      add\n        /* \"contracts/storage/LibSMEambStorage.sol\":9287:9328  _getStorage(SLOT).allTokensIndex[tokenId] */\n      0x00\n        /* \"contracts/storage/LibSMEambStorage.sol\":9320:9327  tokenId */\n      dup5\n        /* \"contracts/storage/LibSMEambStorage.sol\":9287:9328  _getStorage(SLOT).allTokensIndex[tokenId] */\n      dup2\n      mstore\n      0x20\n      add\n      swap1\n      dup2\n      mstore\n      0x20\n      add\n      0x00\n      keccak256\n      sload\n        /* \"contracts/storage/LibSMEambStorage.sol\":9266:9328  uint256 tokenIndex = _getStorage(SLOT).allTokensIndex[tokenId] */\n      swap1\n      pop\n        /* \"contracts/storage/LibSMEambStorage.sol\":9655:9674  uint256 lastTokenId */\n      0x00\n        /* \"contracts/storage/LibSMEambStorage.sol\":9677:9694  _getStorage(SLOT) */\n      tag_284\n        /* \"contracts/storage/LibSMEambStorage.sol\":385:400  bytes('SMEamb') */\n      mload(0x40)\n      dup1\n      0x40\n      add\n      0x40\n      mstore\n      dup1\n      0x06\n      dup2\n      mstore\n      0x20\n      add\n      0x534d45616d620000000000000000000000000000000000000000000000000000\n      dup2\n      mstore\n      pop\n        /* \"contracts/storage/LibSMEambStorage.sol\":375:401  keccak256(bytes('SMEamb')) */\n      dup1\n      mload\n      swap1\n      0x20\n      add\n      keccak256\n        /* \"contracts/storage/LibSMEambStorage.sol\":9677:9688  _getStorage */\n      tag_246\n        /* \"contracts/storage/LibSMEambStorage.sol\":9677:9694  _getStorage(SLOT) */\n      jump\t// in\n    tag_284:\n        /* \"contracts/storage/LibSMEambStorage.sol\":9677:9704  _getStorage(SLOT).allTokens */\n      0x05\n      add\n        /* \"contracts/storage/LibSMEambStorage.sol\":9705:9719  lastTokenIndex */\n      dup4\n        /* \"contracts/storage/LibSMEambStorage.sol\":9677:9720  _getStorage(SLOT).allTokens[lastTokenIndex] */\n      dup2\n      sload\n      dup2\n      lt\n      tag_285\n      jumpi\n      tag_286\n      tag_287\n      jump\t// in\n    tag_286:\n    tag_285:\n      swap1\n      0x00\n      mstore\n      keccak256(0x00, 0x20)\n      add\n      sload\n        /* \"contracts/storage/LibSMEambStorage.sol\":9655:9720  uint256 lastTokenId = _getStorage(SLOT).allTokens[lastTokenIndex] */\n      swap1\n      pop\n        /* \"contracts/storage/LibSMEambStorage.sol\":9775:9786  lastTokenId */\n      dup1\n        /* \"contracts/storage/LibSMEambStorage.sol\":9733:9750  _getStorage(SLOT) */\n      tag_289\n        /* \"contracts/storage/LibSMEambStorage.sol\":385:400  bytes('SMEamb') */\n      mload(0x40)\n      dup1\n      0x40\n      add\n      0x40\n      mstore\n      dup1\n      0x06\n      dup2\n      mstore\n      0x20\n      add\n      0x534d45616d620000000000000000000000000000000000000000000000000000\n      dup2\n      mstore\n      pop\n        /* \"contracts/storage/LibSMEambStorage.sol\":375:401  keccak256(bytes('SMEamb')) */\n      dup1\n      mload\n      swap1\n      0x20\n      add\n      keccak256\n        /* \"contracts/storage/LibSMEambStorage.sol\":9733:9744  _getStorage */\n      tag_246\n        /* \"contracts/storage/LibSMEambStorage.sol\":9733:9750  _getStorage(SLOT) */\n      jump\t// in\n    tag_289:\n        /* \"contracts/storage/LibSMEambStorage.sol\":9733:9760  _getStorage(SLOT).allTokens */\n      0x05\n      add\n        /* \"contracts/storage/LibSMEambStorage.sol\":9761:9771  tokenIndex */\n      dup4\n        /* \"contracts/storage/LibSMEambStorage.sol\":9733:9772  _getStorage(SLOT).allTokens[tokenIndex] */\n      dup2\n      sload\n      dup2\n      lt\n      tag_290\n      jumpi\n      tag_291\n      tag_287\n      jump\t// in\n    tag_291:\n    tag_290:\n      swap1\n      0x00\n      mstore\n      keccak256(0x00, 0x20)\n      add\n        /* \"contracts/storage/LibSMEambStorage.sol\":9733:9786  _getStorage(SLOT).allTokens[tokenIndex] = lastTokenId */\n      dup2\n      swap1\n      sstore\n      pop\n        /* \"contracts/storage/LibSMEambStorage.sol\":9903:9913  tokenIndex */\n      dup2\n        /* \"contracts/storage/LibSMEambStorage.sol\":9855:9872  _getStorage(SLOT) */\n      tag_293\n        /* \"contracts/storage/LibSMEambStorage.sol\":385:400  bytes('SMEamb') */\n      mload(0x40)\n      dup1\n      0x40\n      add\n      0x40\n      mstore\n      dup1\n      0x06\n      dup2\n      mstore\n      0x20\n      add\n      0x534d45616d620000000000000000000000000000000000000000000000000000\n      dup2\n      mstore\n      pop\n        /* \"contracts/storage/LibSMEambStorage.sol\":375:401  keccak256(bytes('SMEamb')) */\n      dup1\n      mload\n      swap1\n      0x20\n      add\n      keccak256\n        /* \"contracts/storage/LibSMEambStorage.sol\":9855:9866  _getStorage */\n      tag_246\n        /* \"contracts/storage/LibSMEambStorage.sol\":9855:9872  _getStorage(SLOT) */\n      jump\t// in\n    tag_293:\n        /* \"contracts/storage/LibSMEambStorage.sol\":9855:9887  _getStorage(SLOT).allTokensIndex */\n      0x06\n      add\n        /* \"contracts/storage/LibSMEambStorage.sol\":9855:9900  _getStorage(SLOT).allTokensIndex[lastTokenId] */\n      0x00\n        /* \"contracts/storage/LibSMEambStorage.sol\":9888:9899  lastTokenId */\n      dup4\n        /* \"contracts/storage/LibSMEambStorage.sol\":9855:9900  _getStorage(SLOT).allTokensIndex[lastTokenId] */\n      dup2\n      mstore\n      0x20\n      add\n      swap1\n      dup2\n      mstore\n      0x20\n      add\n      0x00\n      keccak256\n        /* \"contracts/storage/LibSMEambStorage.sol\":9855:9913  _getStorage(SLOT).allTokensIndex[lastTokenId] = tokenIndex */\n      dup2\n      swap1\n      sstore\n      pop\n        /* \"contracts/storage/LibSMEambStorage.sol\":10044:10061  _getStorage(SLOT) */\n      tag_294\n        /* \"contracts/storage/LibSMEambStorage.sol\":385:400  bytes('SMEamb') */\n      mload(0x40)\n      dup1\n      0x40\n      add\n      0x40\n      mstore\n      dup1\n      0x06\n      dup2\n      mstore\n      0x20\n      add\n      0x534d45616d620000000000000000000000000000000000000000000000000000\n      dup2\n      mstore\n      pop\n        /* \"contracts/storage/LibSMEambStorage.sol\":375:401  keccak256(bytes('SMEamb')) */\n      dup1\n      mload\n      swap1\n      0x20\n      add\n      keccak256\n        /* \"contracts/storage/LibSMEambStorage.sol\":10044:10055  _getStorage */\n      tag_246\n        /* \"contracts/storage/LibSMEambStorage.sol\":10044:10061  _getStorage(SLOT) */\n      jump\t// in\n    tag_294:\n        /* \"contracts/storage/LibSMEambStorage.sol\":10044:10076  _getStorage(SLOT).allTokensIndex */\n      0x06\n      add\n        /* \"contracts/storage/LibSMEambStorage.sol\":10044:10085  _getStorage(SLOT).allTokensIndex[tokenId] */\n      0x00\n        /* \"contracts/storage/LibSMEambStorage.sol\":10077:10084  tokenId */\n      dup6\n        /* \"contracts/storage/LibSMEambStorage.sol\":10044:10085  _getStorage(SLOT).allTokensIndex[tokenId] */\n      dup2\n      mstore\n      0x20\n      add\n      swap1\n      dup2\n      mstore\n      0x20\n      add\n      0x00\n      keccak256\n        /* \"contracts/storage/LibSMEambStorage.sol\":10037:10085  delete _getStorage(SLOT).allTokensIndex[tokenId] */\n      0x00\n      swap1\n      sstore\n        /* \"contracts/storage/LibSMEambStorage.sol\":10096:10113  _getStorage(SLOT) */\n      tag_295\n        /* \"contracts/storage/LibSMEambStorage.sol\":385:400  bytes('SMEamb') */\n      mload(0x40)\n      dup1\n      0x40\n      add\n      0x40\n      mstore\n      dup1\n      0x06\n      dup2\n      mstore\n      0x20\n      add\n      0x534d45616d620000000000000000000000000000000000000000000000000000\n      dup2\n      mstore\n      pop\n        /* \"contracts/storage/LibSMEambStorage.sol\":375:401  keccak256(bytes('SMEamb')) */\n      dup1\n      mload\n      swap1\n      0x20\n      add\n      keccak256\n        /* \"contracts/storage/LibSMEambStorage.sol\":10096:10107  _getStorage */\n      tag_246\n        /* \"contracts/storage/LibSMEambStorage.sol\":10096:10113  _getStorage(SLOT) */\n      jump\t// in\n    tag_295:\n        /* \"contracts/storage/LibSMEambStorage.sol\":10096:10123  _getStorage(SLOT).allTokens */\n      0x05\n      add\n        /* \"contracts/storage/LibSMEambStorage.sol\":10096:10129  _getStorage(SLOT).allTokens.pop() */\n      dup1\n      sload\n      dup1\n      tag_296\n      jumpi\n      tag_297\n      tag_298\n      jump\t// in\n    tag_297:\n    tag_296:\n      0x01\n      swap1\n      sub\n      dup2\n      dup2\n      swap1\n      0x00\n      mstore\n      keccak256(0x00, 0x20)\n      add\n      0x00\n      swap1\n      sstore\n      swap1\n      sstore\n        /* \"contracts/storage/LibSMEambStorage.sol\":9006:10137  {... */\n      pop\n      pop\n      pop\n        /* \"contracts/storage/LibSMEambStorage.sol\":8935:10137  function removeTokenFromAllTokensEnumeration(uint256 tokenId) external {... */\n      pop\n      jump\t// out\n        /* \"contracts/storage/LibSMEambStorage.sol\":3486:3572  function symbol(string memory _symbol) external {_getStorage(SLOT)._symbol = _symbol;} */\n    tag_112:\n        /* \"contracts/storage/LibSMEambStorage.sol\":3563:3570  _symbol */\n      dup1\n        /* \"contracts/storage/LibSMEambStorage.sol\":3535:3552  _getStorage(SLOT) */\n      tag_301\n        /* \"contracts/storage/LibSMEambStorage.sol\":385:400  bytes('SMEamb') */\n      mload(0x40)\n      dup1\n      0x40\n      add\n      0x40\n      mstore\n      dup1\n      0x06\n      dup2\n      mstore\n      0x20\n      add\n      0x534d45616d620000000000000000000000000000000000000000000000000000\n      dup2\n      mstore\n      pop\n        /* \"contracts/storage/LibSMEambStorage.sol\":375:401  keccak256(bytes('SMEamb')) */\n      dup1\n      mload\n      swap1\n      0x20\n      add\n      keccak256\n        /* \"contracts/storage/LibSMEambStorage.sol\":3535:3546  _getStorage */\n      tag_246\n        /* \"contracts/storage/LibSMEambStorage.sol\":3535:3552  _getStorage(SLOT) */\n      jump\t// in\n    tag_301:\n        /* \"contracts/storage/LibSMEambStorage.sol\":3535:3560  _getStorage(SLOT)._symbol */\n      0x0f\n      add\n        /* \"contracts/storage/LibSMEambStorage.sol\":3535:3570  _getStorage(SLOT)._symbol = _symbol */\n      swap1\n      dup2\n      tag_302\n      swap2\n      swap1\n      tag_303\n      jump\t// in\n    tag_302:\n      pop\n        /* \"contracts/storage/LibSMEambStorage.sol\":3486:3572  function symbol(string memory _symbol) external {_getStorage(SLOT)._symbol = _symbol;} */\n      pop\n      jump\t// out\n        /* \"contracts/storage/LibSMEambStorage.sol\":3970:4064  function _burnCounter() external view returns(uint256){return _getStorage(SLOT)._burnCounter;} */\n    tag_114:\n        /* \"contracts/storage/LibSMEambStorage.sol\":4016:4023  uint256 */\n      0x00\n        /* \"contracts/storage/LibSMEambStorage.sol\":4032:4049  _getStorage(SLOT) */\n      tag_305\n        /* \"contracts/storage/LibSMEambStorage.sol\":385:400  bytes('SMEamb') */\n      mload(0x40)\n      dup1\n      0x40\n      add\n      0x40\n      mstore\n      dup1\n      0x06\n      dup2\n      mstore\n      0x20\n      add\n      0x534d45616d620000000000000000000000000000000000000000000000000000\n      dup2\n      mstore\n      pop\n        /* \"contracts/storage/LibSMEambStorage.sol\":375:401  keccak256(bytes('SMEamb')) */\n      dup1\n      mload\n      swap1\n      0x20\n      add\n      keccak256\n        /* \"contracts/storage/LibSMEambStorage.sol\":4032:4043  _getStorage */\n      tag_246\n        /* \"contracts/storage/LibSMEambStorage.sol\":4032:4049  _getStorage(SLOT) */\n      jump\t// in\n    tag_305:\n        /* \"contracts/storage/LibSMEambStorage.sol\":4032:4062  _getStorage(SLOT)._burnCounter */\n      0x0d\n      add\n      sload\n        /* \"contracts/storage/LibSMEambStorage.sol\":4025:4062  return _getStorage(SLOT)._burnCounter */\n      swap1\n      pop\n        /* \"contracts/storage/LibSMEambStorage.sol\":3970:4064  function _burnCounter() external view returns(uint256){return _getStorage(SLOT)._burnCounter;} */\n      swap1\n      jump\t// out\n        /* \"contracts/storage/LibSMEambStorage.sol\":4159:4289  function _packedOwnerships(uint256 _tokenId) external view returns(uint256){return _getStorage(SLOT)._packedOwnerships[_tokenId];} */\n    tag_118:\n        /* \"contracts/storage/LibSMEambStorage.sol\":4226:4233  uint256 */\n      0x00\n        /* \"contracts/storage/LibSMEambStorage.sol\":4242:4259  _getStorage(SLOT) */\n      tag_307\n        /* \"contracts/storage/LibSMEambStorage.sol\":385:400  bytes('SMEamb') */\n      mload(0x40)\n      dup1\n      0x40\n      add\n      0x40\n      mstore\n      dup1\n      0x06\n      dup2\n      mstore\n      0x20\n      add\n      0x534d45616d620000000000000000000000000000000000000000000000000000\n      dup2\n      mstore\n      pop\n        /* \"contracts/storage/LibSMEambStorage.sol\":375:401  keccak256(bytes('SMEamb')) */\n      dup1\n      mload\n      swap1\n      0x20\n      add\n      keccak256\n        /* \"contracts/storage/LibSMEambStorage.sol\":4242:4253  _getStorage */\n      tag_246\n        /* \"contracts/storage/LibSMEambStorage.sol\":4242:4259  _getStorage(SLOT) */\n      jump\t// in\n    tag_307:\n        /* \"contracts/storage/LibSMEambStorage.sol\":4242:4277  _getStorage(SLOT)._packedOwnerships */\n      0x10\n      add\n        /* \"contracts/storage/LibSMEambStorage.sol\":4242:4287  _getStorage(SLOT)._packedOwnerships[_tokenId] */\n      0x00\n        /* \"contracts/storage/LibSMEambStorage.sol\":4278:4286  _tokenId */\n      dup4\n        /* \"contracts/storage/LibSMEambStorage.sol\":4242:4287  _getStorage(SLOT)._packedOwnerships[_tokenId] */\n      dup2\n      mstore\n      0x20\n      add\n      swap1\n      dup2\n      mstore\n      0x20\n      add\n      0x00\n      keccak256\n      sload\n        /* \"contracts/storage/LibSMEambStorage.sol\":4235:4287  return _getStorage(SLOT)._packedOwnerships[_tokenId] */\n      swap1\n      pop\n        /* \"contracts/storage/LibSMEambStorage.sol\":4159:4289  function _packedOwnerships(uint256 _tokenId) external view returns(uint256){return _getStorage(SLOT)._packedOwnerships[_tokenId];} */\n      swap2\n      swap1\n      pop\n      jump\t// out\n        /* \"contracts/storage/LibSMEambStorage.sol\":7829:7967  function ownedTokens(address _owner, uint256 _index, uint256 _tokenId) external{_getStorage(SLOT).ownedTokens[_owner][_index] = _tokenId;} */\n    tag_123:\n        /* \"contracts/storage/LibSMEambStorage.sol\":7957:7965  _tokenId */\n      dup1\n        /* \"contracts/storage/LibSMEambStorage.sol\":7909:7926  _getStorage(SLOT) */\n      tag_309\n        /* \"contracts/storage/LibSMEambStorage.sol\":385:400  bytes('SMEamb') */\n      mload(0x40)\n      dup1\n      0x40\n      add\n      0x40\n      mstore\n      dup1\n      0x06\n      dup2\n      mstore\n      0x20\n      add\n      0x534d45616d620000000000000000000000000000000000000000000000000000\n      dup2\n      mstore\n      pop\n        /* \"contracts/storage/LibSMEambStorage.sol\":375:401  keccak256(bytes('SMEamb')) */\n      dup1\n      mload\n      swap1\n      0x20\n      add\n      keccak256\n        /* \"contracts/storage/LibSMEambStorage.sol\":7909:7920  _getStorage */\n      tag_246\n        /* \"contracts/storage/LibSMEambStorage.sol\":7909:7926  _getStorage(SLOT) */\n      jump\t// in\n    tag_309:\n        /* \"contracts/storage/LibSMEambStorage.sol\":7909:7938  _getStorage(SLOT).ownedTokens */\n      0x03\n      add\n        /* \"contracts/storage/LibSMEambStorage.sol\":7909:7946  _getStorage(SLOT).ownedTokens[_owner] */\n      0x00\n        /* \"contracts/storage/LibSMEambStorage.sol\":7939:7945  _owner */\n      dup6\n        /* \"contracts/storage/LibSMEambStorage.sol\":7909:7946  _getStorage(SLOT).ownedTokens[_owner] */\n      0xffffffffffffffffffffffffffffffffffffffff\n      and\n      0xffffffffffffffffffffffffffffffffffffffff\n      and\n      dup2\n      mstore\n      0x20\n      add\n      swap1\n      dup2\n      mstore\n      0x20\n      add\n      0x00\n      keccak256\n        /* \"contracts/storage/LibSMEambStorage.sol\":7909:7954  _getStorage(SLOT).ownedTokens[_owner][_index] */\n      0x00\n        /* \"contracts/storage/LibSMEambStorage.sol\":7947:7953  _index */\n      dup5\n        /* \"contracts/storage/LibSMEambStorage.sol\":7909:7954  _getStorage(SLOT).ownedTokens[_owner][_index] */\n      dup2\n      mstore\n      0x20\n      add\n      swap1\n      dup2\n      mstore\n      0x20\n      add\n      0x00\n      keccak256\n        /* \"contracts/storage/LibSMEambStorage.sol\":7909:7965  _getStorage(SLOT).ownedTokens[_owner][_index] = _tokenId */\n      dup2\n      swap1\n      sstore\n      pop\n        /* \"contracts/storage/LibSMEambStorage.sol\":7829:7967  function ownedTokens(address _owner, uint256 _index, uint256 _tokenId) external{_getStorage(SLOT).ownedTokens[_owner][_index] = _tokenId;} */\n      pop\n      pop\n      pop\n      jump\t// out\n        /* \"contracts/storage/LibSMEambStorage.sol\":12534:12757  function addTokenToOwnerEnumeration(address to, uint256 tokenId, uint256 length) external {... */\n    tag_127:\n        /* \"contracts/storage/LibSMEambStorage.sol\":12679:12686  tokenId */\n      dup2\n        /* \"contracts/storage/LibSMEambStorage.sol\":12635:12652  _getStorage(SLOT) */\n      tag_311\n        /* \"contracts/storage/LibSMEambStorage.sol\":385:400  bytes('SMEamb') */\n      mload(0x40)\n      dup1\n      0x40\n      add\n      0x40\n      mstore\n      dup1\n      0x06\n      dup2\n      mstore\n      0x20\n      add\n      0x534d45616d620000000000000000000000000000000000000000000000000000\n      dup2\n      mstore\n      pop\n        /* \"contracts/storage/LibSMEambStorage.sol\":375:401  keccak256(bytes('SMEamb')) */\n      dup1\n      mload\n      swap1\n      0x20\n      add\n      keccak256\n        /* \"contracts/storage/LibSMEambStorage.sol\":12635:12646  _getStorage */\n      tag_246\n        /* \"contracts/storage/LibSMEambStorage.sol\":12635:12652  _getStorage(SLOT) */\n      jump\t// in\n    tag_311:\n        /* \"contracts/storage/LibSMEambStorage.sol\":12635:12664  _getStorage(SLOT).ownedTokens */\n      0x03\n      add\n        /* \"contracts/storage/LibSMEambStorage.sol\":12635:12668  _getStorage(SLOT).ownedTokens[to] */\n      0x00\n        /* \"contracts/storage/LibSMEambStorage.sol\":12665:12667  to */\n      dup6\n        /* \"contracts/storage/LibSMEambStorage.sol\":12635:12668  _getStorage(SLOT).ownedTokens[to] */\n      0xffffffffffffffffffffffffffffffffffffffff\n      and\n      0xffffffffffffffffffffffffffffffffffffffff\n      and\n      dup2\n      mstore\n      0x20\n      add\n      swap1\n      dup2\n      mstore\n      0x20\n      add\n      0x00\n      keccak256\n        /* \"contracts/storage/LibSMEambStorage.sol\":12635:12676  _getStorage(SLOT).ownedTokens[to][length] */\n      0x00\n        /* \"contracts/storage/LibSMEambStorage.sol\":12669:12675  length */\n      dup4\n        /* \"contracts/storage/LibSMEambStorage.sol\":12635:12676  _getStorage(SLOT).ownedTokens[to][length] */\n      dup2\n      mstore\n      0x20\n      add\n      swap1\n      dup2\n      mstore\n      0x20\n      add\n      0x00\n      keccak256\n        /* \"contracts/storage/LibSMEambStorage.sol\":12635:12686  _getStorage(SLOT).ownedTokens[to][length] = tokenId */\n      dup2\n      swap1\n      sstore\n      pop\n        /* \"contracts/storage/LibSMEambStorage.sol\":12743:12749  length */\n      dup1\n        /* \"contracts/storage/LibSMEambStorage.sol\":12697:12714  _getStorage(SLOT) */\n      tag_312\n        /* \"contracts/storage/LibSMEambStorage.sol\":385:400  bytes('SMEamb') */\n      mload(0x40)\n      dup1\n      0x40\n      add\n      0x40\n      mstore\n      dup1\n      0x06\n      dup2\n      mstore\n      0x20\n      add\n      0x534d45616d620000000000000000000000000000000000000000000000000000\n      dup2\n      mstore\n      pop\n        /* \"contracts/storage/LibSMEambStorage.sol\":375:401  keccak256(bytes('SMEamb')) */\n      dup1\n      mload\n      swap1\n      0x20\n      add\n      keccak256\n        /* \"contracts/storage/LibSMEambStorage.sol\":12697:12708  _getStorage */\n      tag_246\n        /* \"contracts/storage/LibSMEambStorage.sol\":12697:12714  _getStorage(SLOT) */\n      jump\t// in\n    tag_312:\n        /* \"contracts/storage/LibSMEambStorage.sol\":12697:12731  _getStorage(SLOT).ownedTokensIndex */\n      0x04\n      add\n        /* \"contracts/storage/LibSMEambStorage.sol\":12697:12740  _getStorage(SLOT).ownedTokensIndex[tokenId] */\n      0x00\n        /* \"contracts/storage/LibSMEambStorage.sol\":12732:12739  tokenId */\n      dup5\n        /* \"contracts/storage/LibSMEambStorage.sol\":12697:12740  _getStorage(SLOT).ownedTokensIndex[tokenId] */\n      dup2\n      mstore\n      0x20\n      add\n      swap1\n      dup2\n      mstore\n      0x20\n      add\n      0x00\n      keccak256\n        /* \"contracts/storage/LibSMEambStorage.sol\":12697:12749  _getStorage(SLOT).ownedTokensIndex[tokenId] = length */\n      dup2\n      swap1\n      sstore\n      pop\n        /* \"contracts/storage/LibSMEambStorage.sol\":12534:12757  function addTokenToOwnerEnumeration(address to, uint256 tokenId, uint256 length) external {... */\n      pop\n      pop\n      pop\n      jump\t// out\n        /* \"contracts/storage/LibSMEambStorage.sol\":3307:3385  function name(string memory _name) external {_getStorage(SLOT)._name = _name;} */\n    tag_131:\n        /* \"contracts/storage/LibSMEambStorage.sol\":3378:3383  _name */\n      dup1\n        /* \"contracts/storage/LibSMEambStorage.sol\":3352:3369  _getStorage(SLOT) */\n      tag_314\n        /* \"contracts/storage/LibSMEambStorage.sol\":385:400  bytes('SMEamb') */\n      mload(0x40)\n      dup1\n      0x40\n      add\n      0x40\n      mstore\n      dup1\n      0x06\n      dup2\n      mstore\n      0x20\n      add\n      0x534d45616d620000000000000000000000000000000000000000000000000000\n      dup2\n      mstore\n      pop\n        /* \"contracts/storage/LibSMEambStorage.sol\":375:401  keccak256(bytes('SMEamb')) */\n      dup1\n      mload\n      swap1\n      0x20\n      add\n      keccak256\n        /* \"contracts/storage/LibSMEambStorage.sol\":3352:3363  _getStorage */\n      tag_246\n        /* \"contracts/storage/LibSMEambStorage.sol\":3352:3369  _getStorage(SLOT) */\n      jump\t// in\n    tag_314:\n        /* \"contracts/storage/LibSMEambStorage.sol\":3352:3375  _getStorage(SLOT)._name */\n      0x0e\n      add\n        /* \"contracts/storage/LibSMEambStorage.sol\":3352:3383  _getStorage(SLOT)._name = _name */\n      swap1\n      dup2\n      tag_315\n      swap2\n      swap1\n      tag_303\n      jump\t// in\n    tag_315:\n      pop\n        /* \"contracts/storage/LibSMEambStorage.sol\":3307:3385  function name(string memory _name) external {_getStorage(SLOT)._name = _name;} */\n      pop\n      jump\t// out\n        /* \"contracts/storage/LibSMEambStorage.sol\":6404:6522  function tokenURIs(uint256 tokenId) external view returns(string memory){return _getStorage(SLOT).tokenURIs[tokenId];} */\n    tag_134:\n        /* \"contracts/storage/LibSMEambStorage.sol\":6462:6475  string memory */\n      0x60\n        /* \"contracts/storage/LibSMEambStorage.sol\":6484:6501  _getStorage(SLOT) */\n      tag_317\n        /* \"contracts/storage/LibSMEambStorage.sol\":385:400  bytes('SMEamb') */\n      mload(0x40)\n      dup1\n      0x40\n      add\n      0x40\n      mstore\n      dup1\n      0x06\n      dup2\n      mstore\n      0x20\n      add\n      0x534d45616d620000000000000000000000000000000000000000000000000000\n      dup2\n      mstore\n      pop\n        /* \"contracts/storage/LibSMEambStorage.sol\":375:401  keccak256(bytes('SMEamb')) */\n      dup1\n      mload\n      swap1\n      0x20\n      add\n      keccak256\n        /* \"contracts/storage/LibSMEambStorage.sol\":6484:6495  _getStorage */\n      tag_246\n        /* \"contracts/storage/LibSMEambStorage.sol\":6484:6501  _getStorage(SLOT) */\n      jump\t// in\n    tag_317:\n        /* \"contracts/storage/LibSMEambStorage.sol\":6484:6511  _getStorage(SLOT).tokenURIs */\n      0x02\n      add\n        /* \"contracts/storage/LibSMEambStorage.sol\":6484:6520  _getStorage(SLOT).tokenURIs[tokenId] */\n      0x00\n        /* \"contracts/storage/LibSMEambStorage.sol\":6512:6519  tokenId */\n      dup4\n        /* \"contracts/storage/LibSMEambStorage.sol\":6484:6520  _getStorage(SLOT).tokenURIs[tokenId] */\n      dup2\n      mstore\n      0x20\n      add\n      swap1\n      dup2\n      mstore\n      0x20\n      add\n      0x00\n      keccak256\n        /* \"contracts/storage/LibSMEambStorage.sol\":6477:6520  return _getStorage(SLOT).tokenURIs[tokenId] */\n      dup1\n      sload\n      tag_318\n      swap1\n      tag_248\n      jump\t// in\n    tag_318:\n      dup1\n      0x1f\n      add\n      0x20\n      dup1\n      swap2\n      div\n      mul\n      0x20\n      add\n      mload(0x40)\n      swap1\n      dup2\n      add\n      0x40\n      mstore\n      dup1\n      swap3\n      swap2\n      swap1\n      dup2\n      dup2\n      mstore\n      0x20\n      add\n      dup3\n      dup1\n      sload\n      tag_319\n      swap1\n      tag_248\n      jump\t// in\n    tag_319:\n      dup1\n      iszero\n      tag_320\n      jumpi\n      dup1\n      0x1f\n      lt\n      tag_321\n      jumpi\n      0x0100\n      dup1\n      dup4\n      sload\n      div\n      mul\n      dup4\n      mstore\n      swap2\n      0x20\n      add\n      swap2\n      jump(tag_320)\n    tag_321:\n      dup3\n      add\n      swap2\n      swap1\n      0x00\n      mstore\n      keccak256(0x00, 0x20)\n      swap1\n    tag_322:\n      dup2\n      sload\n      dup2\n      mstore\n      swap1\n      0x01\n      add\n      swap1\n      0x20\n      add\n      dup1\n      dup4\n      gt\n      tag_322\n      jumpi\n      dup3\n      swap1\n      sub\n      0x1f\n      and\n      dup3\n      add\n      swap2\n    tag_320:\n      pop\n      pop\n      pop\n      pop\n      pop\n      swap1\n      pop\n        /* \"contracts/storage/LibSMEambStorage.sol\":6404:6522  function tokenURIs(uint256 tokenId) external view returns(string memory){return _getStorage(SLOT).tokenURIs[tokenId];} */\n      swap2\n      swap1\n      pop\n      jump\t// out\n        /* \"contracts/storage/LibSMEambStorage.sol\":6800:6897  function allTokens() external view returns(uint256[] memory){return _getStorage(SLOT).allTokens;} */\n    tag_137:\n        /* \"contracts/storage/LibSMEambStorage.sol\":6843:6859  uint256[] memory */\n      0x60\n        /* \"contracts/storage/LibSMEambStorage.sol\":6868:6885  _getStorage(SLOT) */\n      tag_324\n        /* \"contracts/storage/LibSMEambStorage.sol\":385:400  bytes('SMEamb') */\n      mload(0x40)\n      dup1\n      0x40\n      add\n      0x40\n      mstore\n      dup1\n      0x06\n      dup2\n      mstore\n      0x20\n      add\n      0x534d45616d620000000000000000000000000000000000000000000000000000\n      dup2\n      mstore\n      pop\n        /* \"contracts/storage/LibSMEambStorage.sol\":375:401  keccak256(bytes('SMEamb')) */\n      dup1\n      mload\n      swap1\n      0x20\n      add\n      keccak256\n        /* \"contracts/storage/LibSMEambStorage.sol\":6868:6879  _getStorage */\n      tag_246\n        /* \"contracts/storage/LibSMEambStorage.sol\":6868:6885  _getStorage(SLOT) */\n      jump\t// in\n    tag_324:\n        /* \"contracts/storage/LibSMEambStorage.sol\":6868:6895  _getStorage(SLOT).allTokens */\n      0x05\n      add\n        /* \"contracts/storage/LibSMEambStorage.sol\":6861:6895  return _getStorage(SLOT).allTokens */\n      dup1\n      sload\n      dup1\n      0x20\n      mul\n      0x20\n      add\n      mload(0x40)\n      swap1\n      dup2\n      add\n      0x40\n      mstore\n      dup1\n      swap3\n      swap2\n      swap1\n      dup2\n      dup2\n      mstore\n      0x20\n      add\n      dup3\n      dup1\n      sload\n      dup1\n      iszero\n      tag_325\n      jumpi\n      0x20\n      mul\n      dup3\n      add\n      swap2\n      swap1\n      0x00\n      mstore\n      keccak256(0x00, 0x20)\n      swap1\n    tag_326:\n      dup2\n      sload\n      dup2\n      mstore\n      0x20\n      add\n      swap1\n      0x01\n      add\n      swap1\n      dup1\n      dup4\n      gt\n      tag_326\n      jumpi\n    tag_325:\n      pop\n      pop\n      pop\n      pop\n      pop\n      swap1\n      pop\n        /* \"contracts/storage/LibSMEambStorage.sol\":6800:6897  function allTokens() external view returns(uint256[] memory){return _getStorage(SLOT).allTokens;} */\n      swap1\n      jump\t// out\n        /* \"contracts/storage/LibSMEambStorage.sol\":6668:6794  function ownedTokensIndex(uint256 tokenId) external view returns(uint256){return _getStorage(SLOT).ownedTokensIndex[tokenId];} */\n    tag_142:\n        /* \"contracts/storage/LibSMEambStorage.sol\":6733:6740  uint256 */\n      0x00\n        /* \"contracts/storage/LibSMEambStorage.sol\":6749:6766  _getStorage(SLOT) */\n      tag_328\n        /* \"contracts/storage/LibSMEambStorage.sol\":385:400  bytes('SMEamb') */\n      mload(0x40)\n      dup1\n      0x40\n      add\n      0x40\n      mstore\n      dup1\n      0x06\n      dup2\n      mstore\n      0x20\n      add\n      0x534d45616d620000000000000000000000000000000000000000000000000000\n      dup2\n      mstore\n      pop\n        /* \"contracts/storage/LibSMEambStorage.sol\":375:401  keccak256(bytes('SMEamb')) */\n      dup1\n      mload\n      swap1\n      0x20\n      add\n      keccak256\n        /* \"contracts/storage/LibSMEambStorage.sol\":6749:6760  _getStorage */\n      tag_246\n        /* \"contracts/storage/LibSMEambStorage.sol\":6749:6766  _getStorage(SLOT) */\n      jump\t// in\n    tag_328:\n        /* \"contracts/storage/LibSMEambStorage.sol\":6749:6783  _getStorage(SLOT).ownedTokensIndex */\n      0x04\n      add\n        /* \"contracts/storage/LibSMEambStorage.sol\":6749:6792  _getStorage(SLOT).ownedTokensIndex[tokenId] */\n      0x00\n        /* \"contracts/storage/LibSMEambStorage.sol\":6784:6791  tokenId */\n      dup4\n        /* \"contracts/storage/LibSMEambStorage.sol\":6749:6792  _getStorage(SLOT).ownedTokensIndex[tokenId] */\n      dup2\n      mstore\n      0x20\n      add\n      swap1\n      dup2\n      mstore\n      0x20\n      add\n      0x00\n      keccak256\n      sload\n        /* \"contracts/storage/LibSMEambStorage.sol\":6742:6792  return _getStorage(SLOT).ownedTokensIndex[tokenId] */\n      swap1\n      pop\n        /* \"contracts/storage/LibSMEambStorage.sol\":6668:6794  function ownedTokensIndex(uint256 tokenId) external view returns(uint256){return _getStorage(SLOT).ownedTokensIndex[tokenId];} */\n      swap2\n      swap1\n      pop\n      jump\t// out\n        /* \"contracts/storage/LibSMEambStorage.sol\":6008:6145  function _spotMintedIncr() external {uint256 _spotMinted = _getStorage(SLOT)._spotMinted; _getStorage(SLOT)._spotMinted = _spotMinted+1;} */\n    tag_146:\n        /* \"contracts/storage/LibSMEambStorage.sol\":6045:6064  uint256 _spotMinted */\n      0x00\n        /* \"contracts/storage/LibSMEambStorage.sol\":6067:6084  _getStorage(SLOT) */\n      tag_330\n        /* \"contracts/storage/LibSMEambStorage.sol\":385:400  bytes('SMEamb') */\n      mload(0x40)\n      dup1\n      0x40\n      add\n      0x40\n      mstore\n      dup1\n      0x06\n      dup2\n      mstore\n      0x20\n      add\n      0x534d45616d620000000000000000000000000000000000000000000000000000\n      dup2\n      mstore\n      pop\n        /* \"contracts/storage/LibSMEambStorage.sol\":375:401  keccak256(bytes('SMEamb')) */\n      dup1\n      mload\n      swap1\n      0x20\n      add\n      keccak256\n        /* \"contracts/storage/LibSMEambStorage.sol\":6067:6078  _getStorage */\n      tag_246\n        /* \"contracts/storage/LibSMEambStorage.sol\":6067:6084  _getStorage(SLOT) */\n      jump\t// in\n    tag_330:\n        /* \"contracts/storage/LibSMEambStorage.sol\":6067:6096  _getStorage(SLOT)._spotMinted */\n      0x14\n      add\n      sload\n        /* \"contracts/storage/LibSMEambStorage.sol\":6045:6096  uint256 _spotMinted = _getStorage(SLOT)._spotMinted */\n      swap1\n      pop\n        /* \"contracts/storage/LibSMEambStorage.sol\":6142:6143  1 */\n      0x01\n        /* \"contracts/storage/LibSMEambStorage.sol\":6130:6141  _spotMinted */\n      dup2\n        /* \"contracts/storage/LibSMEambStorage.sol\":6130:6143  _spotMinted+1 */\n      tag_331\n      swap2\n      swap1\n      tag_332\n      jump\t// in\n    tag_331:\n        /* \"contracts/storage/LibSMEambStorage.sol\":6098:6115  _getStorage(SLOT) */\n      tag_333\n        /* \"contracts/storage/LibSMEambStorage.sol\":385:400  bytes('SMEamb') */\n      mload(0x40)\n      dup1\n      0x40\n      add\n      0x40\n      mstore\n      dup1\n      0x06\n      dup2\n      mstore\n      0x20\n      add\n      0x534d45616d620000000000000000000000000000000000000000000000000000\n      dup2\n      mstore\n      pop\n        /* \"contracts/storage/LibSMEambStorage.sol\":375:401  keccak256(bytes('SMEamb')) */\n      dup1\n      mload\n      swap1\n      0x20\n      add\n      keccak256\n        /* \"contracts/storage/LibSMEambStorage.sol\":6098:6109  _getStorage */\n      tag_246\n        /* \"contracts/storage/LibSMEambStorage.sol\":6098:6115  _getStorage(SLOT) */\n      jump\t// in\n    tag_333:\n        /* \"contracts/storage/LibSMEambStorage.sol\":6098:6127  _getStorage(SLOT)._spotMinted */\n      0x14\n      add\n        /* \"contracts/storage/LibSMEambStorage.sol\":6098:6143  _getStorage(SLOT)._spotMinted = _spotMinted+1 */\n      dup2\n      swap1\n      sstore\n      pop\n        /* \"contracts/storage/LibSMEambStorage.sol\":6044:6145  {uint256 _spotMinted = _getStorage(SLOT)._spotMinted; _getStorage(SLOT)._spotMinted = _spotMinted+1;} */\n      pop\n        /* \"contracts/storage/LibSMEambStorage.sol\":6008:6145  function _spotMintedIncr() external {uint256 _spotMinted = _getStorage(SLOT)._spotMinted; _getStorage(SLOT)._spotMinted = _spotMinted+1;} */\n      jump\t// out\n        /* \"contracts/storage/LibSMEambStorage.sol\":7573:7693  function defaultTokenURI(string memory _defaultTokenURI) external{_getStorage(SLOT).defaultTokenURI = _defaultTokenURI;} */\n    tag_150:\n        /* \"contracts/storage/LibSMEambStorage.sol\":7675:7691  _defaultTokenURI */\n      dup1\n        /* \"contracts/storage/LibSMEambStorage.sol\":7639:7656  _getStorage(SLOT) */\n      tag_335\n        /* \"contracts/storage/LibSMEambStorage.sol\":385:400  bytes('SMEamb') */\n      mload(0x40)\n      dup1\n      0x40\n      add\n      0x40\n      mstore\n      dup1\n      0x06\n      dup2\n      mstore\n      0x20\n      add\n      0x534d45616d620000000000000000000000000000000000000000000000000000\n      dup2\n      mstore\n      pop\n        /* \"contracts/storage/LibSMEambStorage.sol\":375:401  keccak256(bytes('SMEamb')) */\n      dup1\n      mload\n      swap1\n      0x20\n      add\n      keccak256\n        /* \"contracts/storage/LibSMEambStorage.sol\":7639:7650  _getStorage */\n      tag_246\n        /* \"contracts/storage/LibSMEambStorage.sol\":7639:7656  _getStorage(SLOT) */\n      jump\t// in\n    tag_335:\n        /* \"contracts/storage/LibSMEambStorage.sol\":7639:7672  _getStorage(SLOT).defaultTokenURI */\n      0x01\n      add\n        /* \"contracts/storage/LibSMEambStorage.sol\":7639:7691  _getStorage(SLOT).defaultTokenURI = _defaultTokenURI */\n      swap1\n      dup2\n      tag_336\n      swap2\n      swap1\n      tag_303\n      jump\t// in\n    tag_336:\n      pop\n        /* \"contracts/storage/LibSMEambStorage.sol\":7573:7693  function defaultTokenURI(string memory _defaultTokenURI) external{_getStorage(SLOT).defaultTokenURI = _defaultTokenURI;} */\n      pop\n      jump\t// out\n        /* \"contracts/storage/LibSMEambStorage.sol\":5753:5904  function _operatorApprovals(address owner, address operator, bool approved) external{_getStorage(SLOT)._operatorApprovals[owner][operator] = approved;} */\n    tag_155:\n        /* \"contracts/storage/LibSMEambStorage.sol\":5894:5902  approved */\n      dup1\n        /* \"contracts/storage/LibSMEambStorage.sol\":5838:5855  _getStorage(SLOT) */\n      tag_338\n        /* \"contracts/storage/LibSMEambStorage.sol\":385:400  bytes('SMEamb') */\n      mload(0x40)\n      dup1\n      0x40\n      add\n      0x40\n      mstore\n      dup1\n      0x06\n      dup2\n      mstore\n      0x20\n      add\n      0x534d45616d620000000000000000000000000000000000000000000000000000\n      dup2\n      mstore\n      pop\n        /* \"contracts/storage/LibSMEambStorage.sol\":375:401  keccak256(bytes('SMEamb')) */\n      dup1\n      mload\n      swap1\n      0x20\n      add\n      keccak256\n        /* \"contracts/storage/LibSMEambStorage.sol\":5838:5849  _getStorage */\n      tag_246\n        /* \"contracts/storage/LibSMEambStorage.sol\":5838:5855  _getStorage(SLOT) */\n      jump\t// in\n    tag_338:\n        /* \"contracts/storage/LibSMEambStorage.sol\":5838:5874  _getStorage(SLOT)._operatorApprovals */\n      0x13\n      add\n        /* \"contracts/storage/LibSMEambStorage.sol\":5838:5881  _getStorage(SLOT)._operatorApprovals[owner] */\n      0x00\n        /* \"contracts/storage/LibSMEambStorage.sol\":5875:5880  owner */\n      dup6\n        /* \"contracts/storage/LibSMEambStorage.sol\":5838:5881  _getStorage(SLOT)._operatorApprovals[owner] */\n      0xffffffffffffffffffffffffffffffffffffffff\n      and\n      0xffffffffffffffffffffffffffffffffffffffff\n      and\n      dup2\n      mstore\n      0x20\n      add\n      swap1\n      dup2\n      mstore\n      0x20\n      add\n      0x00\n      keccak256\n        /* \"contracts/storage/LibSMEambStorage.sol\":5838:5891  _getStorage(SLOT)._operatorApprovals[owner][operator] */\n      0x00\n        /* \"contracts/storage/LibSMEambStorage.sol\":5882:5890  operator */\n      dup5\n        /* \"contracts/storage/LibSMEambStorage.sol\":5838:5891  _getStorage(SLOT)._operatorApprovals[owner][operator] */\n      0xffffffffffffffffffffffffffffffffffffffff\n      and\n      0xffffffffffffffffffffffffffffffffffffffff\n      and\n      dup2\n      mstore\n      0x20\n      add\n      swap1\n      dup2\n      mstore\n      0x20\n      add\n      0x00\n      keccak256\n      0x00\n        /* \"contracts/storage/LibSMEambStorage.sol\":5838:5902  _getStorage(SLOT)._operatorApprovals[owner][operator] = approved */\n      0x0100\n      exp\n      dup2\n      sload\n      dup2\n      0xff\n      mul\n      not\n      and\n      swap1\n      dup4\n      iszero\n      iszero\n      mul\n      or\n      swap1\n      sstore\n      pop\n        /* \"contracts/storage/LibSMEambStorage.sol\":5753:5904  function _operatorApprovals(address owner, address operator, bool approved) external{_getStorage(SLOT)._operatorApprovals[owner][operator] = approved;} */\n      pop\n      pop\n      pop\n      jump\t// out\n        /* \"contracts/storage/LibSMEambStorage.sol\":8223:8333  function legendlistRoot(bytes32 _legendlistRoot) external{_getStorage(SLOT).legendlistRoot = _legendlistRoot;} */\n    tag_159:\n        /* \"contracts/storage/LibSMEambStorage.sol\":8316:8331  _legendlistRoot */\n      dup1\n        /* \"contracts/storage/LibSMEambStorage.sol\":8281:8298  _getStorage(SLOT) */\n      tag_340\n        /* \"contracts/storage/LibSMEambStorage.sol\":385:400  bytes('SMEamb') */\n      mload(0x40)\n      dup1\n      0x40\n      add\n      0x40\n      mstore\n      dup1\n      0x06\n      dup2\n      mstore\n      0x20\n      add\n      0x534d45616d620000000000000000000000000000000000000000000000000000\n      dup2\n      mstore\n      pop\n        /* \"contracts/storage/LibSMEambStorage.sol\":375:401  keccak256(bytes('SMEamb')) */\n      dup1\n      mload\n      swap1\n      0x20\n      add\n      keccak256\n        /* \"contracts/storage/LibSMEambStorage.sol\":8281:8292  _getStorage */\n      tag_246\n        /* \"contracts/storage/LibSMEambStorage.sol\":8281:8298  _getStorage(SLOT) */\n      jump\t// in\n    tag_340:\n        /* \"contracts/storage/LibSMEambStorage.sol\":8281:8313  _getStorage(SLOT).legendlistRoot */\n      0x08\n      add\n        /* \"contracts/storage/LibSMEambStorage.sol\":8281:8331  _getStorage(SLOT).legendlistRoot = _legendlistRoot */\n      dup2\n      swap1\n      sstore\n      pop\n        /* \"contracts/storage/LibSMEambStorage.sol\":8223:8333  function legendlistRoot(bytes32 _legendlistRoot) external{_getStorage(SLOT).legendlistRoot = _legendlistRoot;} */\n      pop\n      jump\t// out\n        /* \"contracts/storage/LibSMEambStorage.sol\":4070:4153  function _burnCounter(uint256 _id) external {_getStorage(SLOT)._burnCounter = _id;} */\n    tag_163:\n        /* \"contracts/storage/LibSMEambStorage.sol\":4148:4151  _id */\n      dup1\n        /* \"contracts/storage/LibSMEambStorage.sol\":4115:4132  _getStorage(SLOT) */\n      tag_342\n        /* \"contracts/storage/LibSMEambStorage.sol\":385:400  bytes('SMEamb') */\n      mload(0x40)\n      dup1\n      0x40\n      add\n      0x40\n      mstore\n      dup1\n      0x06\n      dup2\n      mstore\n      0x20\n      add\n      0x534d45616d620000000000000000000000000000000000000000000000000000\n      dup2\n      mstore\n      pop\n        /* \"contracts/storage/LibSMEambStorage.sol\":375:401  keccak256(bytes('SMEamb')) */\n      dup1\n      mload\n      swap1\n      0x20\n      add\n      keccak256\n        /* \"contracts/storage/LibSMEambStorage.sol\":4115:4126  _getStorage */\n      tag_246\n        /* \"contracts/storage/LibSMEambStorage.sol\":4115:4132  _getStorage(SLOT) */\n      jump\t// in\n    tag_342:\n        /* \"contracts/storage/LibSMEambStorage.sol\":4115:4145  _getStorage(SLOT)._burnCounter */\n      0x0d\n      add\n        /* \"contracts/storage/LibSMEambStorage.sol\":4115:4151  _getStorage(SLOT)._burnCounter = _id */\n      dup2\n      swap1\n      sstore\n      pop\n        /* \"contracts/storage/LibSMEambStorage.sol\":4070:4153  function _burnCounter(uint256 _id) external {_getStorage(SLOT)._burnCounter = _id;} */\n      pop\n      jump\t// out\n        /* \"contracts/storage/LibSMEambStorage.sol\":3578:3674  function _currentIndex() external view returns(uint256){return _getStorage(SLOT)._currentIndex;} */\n    tag_165:\n        /* \"contracts/storage/LibSMEambStorage.sol\":3625:3632  uint256 */\n      0x00\n        /* \"contracts/storage/LibSMEambStorage.sol\":3641:3658  _getStorage(SLOT) */\n      tag_344\n        /* \"contracts/storage/LibSMEambStorage.sol\":385:400  bytes('SMEamb') */\n      mload(0x40)\n      dup1\n      0x40\n      add\n      0x40\n      mstore\n      dup1\n      0x06\n      dup2\n      mstore\n      0x20\n      add\n      0x534d45616d620000000000000000000000000000000000000000000000000000\n      dup2\n      mstore\n      pop\n        /* \"contracts/storage/LibSMEambStorage.sol\":375:401  keccak256(bytes('SMEamb')) */\n      dup1\n      mload\n      swap1\n      0x20\n      add\n      keccak256\n        /* \"contracts/storage/LibSMEambStorage.sol\":3641:3652  _getStorage */\n      tag_246\n        /* \"contracts/storage/LibSMEambStorage.sol\":3641:3658  _getStorage(SLOT) */\n      jump\t// in\n    tag_344:\n        /* \"contracts/storage/LibSMEambStorage.sol\":3641:3672  _getStorage(SLOT)._currentIndex */\n      0x0c\n      add\n      sload\n        /* \"contracts/storage/LibSMEambStorage.sol\":3634:3672  return _getStorage(SLOT)._currentIndex */\n      swap1\n      pop\n        /* \"contracts/storage/LibSMEambStorage.sol\":3578:3674  function _currentIndex() external view returns(uint256){return _getStorage(SLOT)._currentIndex;} */\n      swap1\n      jump\t// out\n        /* \"contracts/storage/LibSMEambStorage.sol\":3391:3480  function symbol() external view returns(string memory){return _getStorage(SLOT)._symbol;} */\n    tag_168:\n        /* \"contracts/storage/LibSMEambStorage.sol\":3431:3444  string memory */\n      0x60\n        /* \"contracts/storage/LibSMEambStorage.sol\":3453:3470  _getStorage(SLOT) */\n      tag_346\n        /* \"contracts/storage/LibSMEambStorage.sol\":385:400  bytes('SMEamb') */\n      mload(0x40)\n      dup1\n      0x40\n      add\n      0x40\n      mstore\n      dup1\n      0x06\n      dup2\n      mstore\n      0x20\n      add\n      0x534d45616d620000000000000000000000000000000000000000000000000000\n      dup2\n      mstore\n      pop\n        /* \"contracts/storage/LibSMEambStorage.sol\":375:401  keccak256(bytes('SMEamb')) */\n      dup1\n      mload\n      swap1\n      0x20\n      add\n      keccak256\n        /* \"contracts/storage/LibSMEambStorage.sol\":3453:3464  _getStorage */\n      tag_246\n        /* \"contracts/storage/LibSMEambStorage.sol\":3453:3470  _getStorage(SLOT) */\n      jump\t// in\n    tag_346:\n        /* \"contracts/storage/LibSMEambStorage.sol\":3453:3478  _getStorage(SLOT)._symbol */\n      0x0f\n      add\n        /* \"contracts/storage/LibSMEambStorage.sol\":3446:3478  return _getStorage(SLOT)._symbol */\n      dup1\n      sload\n      tag_347\n      swap1\n      tag_248\n      jump\t// in\n    tag_347:\n      dup1\n      0x1f\n      add\n      0x20\n      dup1\n      swap2\n      div\n      mul\n      0x20\n      add\n      mload(0x40)\n      swap1\n      dup2\n      add\n      0x40\n      mstore\n      dup1\n      swap3\n      swap2\n      swap1\n      dup2\n      dup2\n      mstore\n      0x20\n      add\n      dup3\n      dup1\n      sload\n      tag_348\n      swap1\n      tag_248\n      jump\t// in\n    tag_348:\n      dup1\n      iszero\n      tag_349\n      jumpi\n      dup1\n      0x1f\n      lt\n      tag_350\n      jumpi\n      0x0100\n      dup1\n      dup4\n      sload\n      div\n      mul\n      dup4\n      mstore\n      swap2\n      0x20\n      add\n      swap2\n      jump(tag_349)\n    tag_350:\n      dup3\n      add\n      swap2\n      swap1\n      0x00\n      mstore\n      keccak256(0x00, 0x20)\n      swap1\n    tag_351:\n      dup2\n      sload\n      dup2\n      mstore\n      swap1\n      0x01\n      add\n      swap1\n      0x20\n      add\n      dup1\n      dup4\n      gt\n      tag_351\n      jumpi\n      dup3\n      swap1\n      sub\n      0x1f\n      and\n      dup3\n      add\n      swap2\n    tag_349:\n      pop\n      pop\n      pop\n      pop\n      pop\n      swap1\n      pop\n        /* \"contracts/storage/LibSMEambStorage.sol\":3391:3480  function symbol() external view returns(string memory){return _getStorage(SLOT)._symbol;} */\n      swap1\n      jump\t// out\n        /* \"contracts/storage/LibSMEambStorage.sol\":6292:6398  function defaultTokenURI() external view returns(string memory){return _getStorage(SLOT).defaultTokenURI;} */\n    tag_171:\n        /* \"contracts/storage/LibSMEambStorage.sol\":6341:6354  string memory */\n      0x60\n        /* \"contracts/storage/LibSMEambStorage.sol\":6363:6380  _getStorage(SLOT) */\n      tag_353\n        /* \"contracts/storage/LibSMEambStorage.sol\":385:400  bytes('SMEamb') */\n      mload(0x40)\n      dup1\n      0x40\n      add\n      0x40\n      mstore\n      dup1\n      0x06\n      dup2\n      mstore\n      0x20\n      add\n      0x534d45616d620000000000000000000000000000000000000000000000000000\n      dup2\n      mstore\n      pop\n        /* \"contracts/storage/LibSMEambStorage.sol\":375:401  keccak256(bytes('SMEamb')) */\n      dup1\n      mload\n      swap1\n      0x20\n      add\n      keccak256\n        /* \"contracts/storage/LibSMEambStorage.sol\":6363:6374  _getStorage */\n      tag_246\n        /* \"contracts/storage/LibSMEambStorage.sol\":6363:6380  _getStorage(SLOT) */\n      jump\t// in\n    tag_353:\n        /* \"contracts/storage/LibSMEambStorage.sol\":6363:6396  _getStorage(SLOT).defaultTokenURI */\n      0x01\n      add\n        /* \"contracts/storage/LibSMEambStorage.sol\":6356:6396  return _getStorage(SLOT).defaultTokenURI */\n      dup1\n      sload\n      tag_354\n      swap1\n      tag_248\n      jump\t// in\n    tag_354:\n      dup1\n      0x1f\n      add\n      0x20\n      dup1\n      swap2\n      div\n      mul\n      0x20\n      add\n      mload(0x40)\n      swap1\n      dup2\n      add\n      0x40\n      mstore\n      dup1\n      swap3\n      swap2\n      swap1\n      dup2\n      dup2\n      mstore\n      0x20\n      add\n      dup3\n      dup1\n      sload\n      tag_355\n      swap1\n      tag_248\n      jump\t// in\n    tag_355:\n      dup1\n      iszero\n      tag_356\n      jumpi\n      dup1\n      0x1f\n      lt\n      tag_357\n      jumpi\n      0x0100\n      dup1\n      dup4\n      sload\n      div\n      mul\n      dup4\n      mstore\n      swap2\n      0x20\n      add\n      swap2\n      jump(tag_356)\n    tag_357:\n      dup3\n      add\n      swap2\n      swap1\n      0x00\n      mstore\n      keccak256(0x00, 0x20)\n      swap1\n    tag_358:\n      dup2\n      sload\n      dup2\n      mstore\n      swap1\n      0x01\n      add\n      swap1\n      0x20\n      add\n      dup1\n      dup4\n      gt\n      tag_358\n      jumpi\n      dup3\n      swap1\n      sub\n      0x1f\n      and\n      dup3\n      add\n      swap2\n    tag_356:\n      pop\n      pop\n      pop\n      pop\n      pop\n      swap1\n      pop\n        /* \"contracts/storage/LibSMEambStorage.sol\":6292:6398  function defaultTokenURI() external view returns(string memory){return _getStorage(SLOT).defaultTokenURI;} */\n      swap1\n      jump\t// out\n        /* \"contracts/storage/LibSMEambStorage.sol\":3777:3873  function _startTokenId() external view returns(uint256){return _getStorage(SLOT)._startTokenId;} */\n    tag_174:\n        /* \"contracts/storage/LibSMEambStorage.sol\":3824:3831  uint256 */\n      0x00\n        /* \"contracts/storage/LibSMEambStorage.sol\":3840:3857  _getStorage(SLOT) */\n      tag_360\n        /* \"contracts/storage/LibSMEambStorage.sol\":385:400  bytes('SMEamb') */\n      mload(0x40)\n      dup1\n      0x40\n      add\n      0x40\n      mstore\n      dup1\n      0x06\n      dup2\n      mstore\n      0x20\n      add\n      0x534d45616d620000000000000000000000000000000000000000000000000000\n      dup2\n      mstore\n      pop\n        /* \"contracts/storage/LibSMEambStorage.sol\":375:401  keccak256(bytes('SMEamb')) */\n      dup1\n      mload\n      swap1\n      0x20\n      add\n      keccak256\n        /* \"contracts/storage/LibSMEambStorage.sol\":3840:3851  _getStorage */\n      tag_246\n        /* \"contracts/storage/LibSMEambStorage.sol\":3840:3857  _getStorage(SLOT) */\n      jump\t// in\n    tag_360:\n        /* \"contracts/storage/LibSMEambStorage.sol\":3840:3871  _getStorage(SLOT)._startTokenId */\n      0x15\n      add\n      sload\n        /* \"contracts/storage/LibSMEambStorage.sol\":3833:3871  return _getStorage(SLOT)._startTokenId */\n      swap1\n      pop\n        /* \"contracts/storage/LibSMEambStorage.sol\":3777:3873  function _startTokenId() external view returns(uint256){return _getStorage(SLOT)._startTokenId;} */\n      swap1\n      jump\t// out\n        /* \"contracts/storage/LibSMEambStorage.sol\":7459:7567  function baseTokenURI(string memory _baseTokenURI) external{_getStorage(SLOT).baseTokenURI = _baseTokenURI;} */\n    tag_179:\n        /* \"contracts/storage/LibSMEambStorage.sol\":7552:7565  _baseTokenURI */\n      dup1\n        /* \"contracts/storage/LibSMEambStorage.sol\":7519:7536  _getStorage(SLOT) */\n      tag_362\n        /* \"contracts/storage/LibSMEambStorage.sol\":385:400  bytes('SMEamb') */\n      mload(0x40)\n      dup1\n      0x40\n      add\n      0x40\n      mstore\n      dup1\n      0x06\n      dup2\n      mstore\n      0x20\n      add\n      0x534d45616d620000000000000000000000000000000000000000000000000000\n      dup2\n      mstore\n      pop\n        /* \"contracts/storage/LibSMEambStorage.sol\":375:401  keccak256(bytes('SMEamb')) */\n      dup1\n      mload\n      swap1\n      0x20\n      add\n      keccak256\n        /* \"contracts/storage/LibSMEambStorage.sol\":7519:7530  _getStorage */\n      tag_246\n        /* \"contracts/storage/LibSMEambStorage.sol\":7519:7536  _getStorage(SLOT) */\n      jump\t// in\n    tag_362:\n        /* \"contracts/storage/LibSMEambStorage.sol\":7519:7549  _getStorage(SLOT).baseTokenURI */\n      0x00\n      add\n        /* \"contracts/storage/LibSMEambStorage.sol\":7519:7565  _getStorage(SLOT).baseTokenURI = _baseTokenURI */\n      swap1\n      dup2\n      tag_363\n      swap2\n      swap1\n      tag_303\n      jump\t// in\n    tag_363:\n      pop\n        /* \"contracts/storage/LibSMEambStorage.sol\":7459:7567  function baseTokenURI(string memory _baseTokenURI) external{_getStorage(SLOT).baseTokenURI = _baseTokenURI;} */\n      pop\n      jump\t// out\n        /* \"contracts/storage/LibSMEambStorage.sol\":4561:4689  function _packedAddressData(address _owner, uint256 _tokenId) external{_getStorage(SLOT)._packedAddressData[_owner] = _tokenId;} */\n    tag_184:\n        /* \"contracts/storage/LibSMEambStorage.sol\":4679:4687  _tokenId */\n      dup1\n        /* \"contracts/storage/LibSMEambStorage.sol\":4632:4649  _getStorage(SLOT) */\n      tag_365\n        /* \"contracts/storage/LibSMEambStorage.sol\":385:400  bytes('SMEamb') */\n      mload(0x40)\n      dup1\n      0x40\n      add\n      0x40\n      mstore\n      dup1\n      0x06\n      dup2\n      mstore\n      0x20\n      add\n      0x534d45616d620000000000000000000000000000000000000000000000000000\n      dup2\n      mstore\n      pop\n        /* \"contracts/storage/LibSMEambStorage.sol\":375:401  keccak256(bytes('SMEamb')) */\n      dup1\n      mload\n      swap1\n      0x20\n      add\n      keccak256\n        /* \"contracts/storage/LibSMEambStorage.sol\":4632:4643  _getStorage */\n      tag_246\n        /* \"contracts/storage/LibSMEambStorage.sol\":4632:4649  _getStorage(SLOT) */\n      jump\t// in\n    tag_365:\n        /* \"contracts/storage/LibSMEambStorage.sol\":4632:4668  _getStorage(SLOT)._packedAddressData */\n      0x11\n      add\n        /* \"contracts/storage/LibSMEambStorage.sol\":4632:4676  _getStorage(SLOT)._packedAddressData[_owner] */\n      0x00\n        /* \"contracts/storage/LibSMEambStorage.sol\":4669:4675  _owner */\n      dup5\n        /* \"contracts/storage/LibSMEambStorage.sol\":4632:4676  _getStorage(SLOT)._packedAddressData[_owner] */\n      0xffffffffffffffffffffffffffffffffffffffff\n      and\n      0xffffffffffffffffffffffffffffffffffffffff\n      and\n      dup2\n      mstore\n      0x20\n      add\n      swap1\n      dup2\n      mstore\n      0x20\n      add\n      0x00\n      keccak256\n        /* \"contracts/storage/LibSMEambStorage.sol\":4632:4687  _getStorage(SLOT)._packedAddressData[_owner] = _tokenId */\n      dup2\n      swap1\n      sstore\n      pop\n        /* \"contracts/storage/LibSMEambStorage.sol\":4561:4689  function _packedAddressData(address _owner, uint256 _tokenId) external{_getStorage(SLOT)._packedAddressData[_owner] = _tokenId;} */\n      pop\n      pop\n      jump\t// out\n        /* \"contracts/storage/LibSMEambStorage.sol\":4695:4837  function _tokenApprovals(uint256 _tokenId) external view returns(TokenApprovalRef memory){return _getStorage(SLOT)._tokenApprovals[_tokenId];} */\n    tag_187:\n        /* \"contracts/storage/LibSMEambStorage.sol\":4760:4783  TokenApprovalRef memory */\n      tag_366\n      tag_367\n      jump\t// in\n    tag_366:\n        /* \"contracts/storage/LibSMEambStorage.sol\":4792:4809  _getStorage(SLOT) */\n      tag_369\n        /* \"contracts/storage/LibSMEambStorage.sol\":385:400  bytes('SMEamb') */\n      mload(0x40)\n      dup1\n      0x40\n      add\n      0x40\n      mstore\n      dup1\n      0x06\n      dup2\n      mstore\n      0x20\n      add\n      0x534d45616d620000000000000000000000000000000000000000000000000000\n      dup2\n      mstore\n      pop\n        /* \"contracts/storage/LibSMEambStorage.sol\":375:401  keccak256(bytes('SMEamb')) */\n      dup1\n      mload\n      swap1\n      0x20\n      add\n      keccak256\n        /* \"contracts/storage/LibSMEambStorage.sol\":4792:4803  _getStorage */\n      tag_246\n        /* \"contracts/storage/LibSMEambStorage.sol\":4792:4809  _getStorage(SLOT) */\n      jump\t// in\n    tag_369:\n        /* \"contracts/storage/LibSMEambStorage.sol\":4792:4825  _getStorage(SLOT)._tokenApprovals */\n      0x12\n      add\n        /* \"contracts/storage/LibSMEambStorage.sol\":4792:4835  _getStorage(SLOT)._tokenApprovals[_tokenId] */\n      0x00\n        /* \"contracts/storage/LibSMEambStorage.sol\":4826:4834  _tokenId */\n      dup4\n        /* \"contracts/storage/LibSMEambStorage.sol\":4792:4835  _getStorage(SLOT)._tokenApprovals[_tokenId] */\n      dup2\n      mstore\n      0x20\n      add\n      swap1\n      dup2\n      mstore\n      0x20\n      add\n      0x00\n      keccak256\n        /* \"contracts/storage/LibSMEambStorage.sol\":4785:4835  return _getStorage(SLOT)._tokenApprovals[_tokenId] */\n      mload(0x40)\n      dup1\n      0x20\n      add\n      0x40\n      mstore\n      swap1\n      dup2\n      0x00\n      dup3\n      add\n      0x00\n      swap1\n      sload\n      swap1\n      0x0100\n      exp\n      swap1\n      div\n      0xffffffffffffffffffffffffffffffffffffffff\n      and\n      0xffffffffffffffffffffffffffffffffffffffff\n      and\n      0xffffffffffffffffffffffffffffffffffffffff\n      and\n      dup2\n      mstore\n      pop\n      pop\n      swap1\n      pop\n        /* \"contracts/storage/LibSMEambStorage.sol\":4695:4837  function _tokenApprovals(uint256 _tokenId) external view returns(TokenApprovalRef memory){return _getStorage(SLOT)._tokenApprovals[_tokenId];} */\n      swap2\n      swap1\n      pop\n      jump\t// out\n        /* \"contracts/storage/LibSMEambStorage.sol\":7973:8097  function ownedTokensIndex(uint256 _tokenId, uint256 _index) external{_getStorage(SLOT).ownedTokensIndex[_tokenId] = _index;} */\n    tag_194:\n        /* \"contracts/storage/LibSMEambStorage.sol\":8089:8095  _index */\n      dup1\n        /* \"contracts/storage/LibSMEambStorage.sol\":8042:8059  _getStorage(SLOT) */\n      tag_371\n        /* \"contracts/storage/LibSMEambStorage.sol\":385:400  bytes('SMEamb') */\n      mload(0x40)\n      dup1\n      0x40\n      add\n      0x40\n      mstore\n      dup1\n      0x06\n      dup2\n      mstore\n      0x20\n      add\n      0x534d45616d620000000000000000000000000000000000000000000000000000\n      dup2\n      mstore\n      pop\n        /* \"contracts/storage/LibSMEambStorage.sol\":375:401  keccak256(bytes('SMEamb')) */\n      dup1\n      mload\n      swap1\n      0x20\n      add\n      keccak256\n        /* \"contracts/storage/LibSMEambStorage.sol\":8042:8053  _getStorage */\n      tag_246\n        /* \"contracts/storage/LibSMEambStorage.sol\":8042:8059  _getStorage(SLOT) */\n      jump\t// in\n    tag_371:\n        /* \"contracts/storage/LibSMEambStorage.sol\":8042:8076  _getStorage(SLOT).ownedTokensIndex */\n      0x04\n      add\n        /* \"contracts/storage/LibSMEambStorage.sol\":8042:8086  _getStorage(SLOT).ownedTokensIndex[_tokenId] */\n      0x00\n        /* \"contracts/storage/LibSMEambStorage.sol\":8077:8085  _tokenId */\n      dup5\n        /* \"contracts/storage/LibSMEambStorage.sol\":8042:8086  _getStorage(SLOT).ownedTokensIndex[_tokenId] */\n      dup2\n      mstore\n      0x20\n      add\n      swap1\n      dup2\n      mstore\n      0x20\n      add\n      0x00\n      keccak256\n        /* \"contracts/storage/LibSMEambStorage.sol\":8042:8095  _getStorage(SLOT).ownedTokensIndex[_tokenId] = _index */\n      dup2\n      swap1\n      sstore\n      pop\n        /* \"contracts/storage/LibSMEambStorage.sol\":7973:8097  function ownedTokensIndex(uint256 _tokenId, uint256 _index) external{_getStorage(SLOT).ownedTokensIndex[_tokenId] = _index;} */\n      pop\n      pop\n      jump\t// out\n        /* \"contracts/storage/LibSMEambStorage.sol\":8519:8636  function guaranteed_minted(address _owner, bool _bool) external{_getStorage(SLOT).guaranteed_minted[_owner] = _bool;} */\n    tag_199:\n        /* \"contracts/storage/LibSMEambStorage.sol\":8629:8634  _bool */\n      dup1\n        /* \"contracts/storage/LibSMEambStorage.sol\":8583:8600  _getStorage(SLOT) */\n      tag_373\n        /* \"contracts/storage/LibSMEambStorage.sol\":385:400  bytes('SMEamb') */\n      mload(0x40)\n      dup1\n      0x40\n      add\n      0x40\n      mstore\n      dup1\n      0x06\n      dup2\n      mstore\n      0x20\n      add\n      0x534d45616d620000000000000000000000000000000000000000000000000000\n      dup2\n      mstore\n      pop\n        /* \"contracts/storage/LibSMEambStorage.sol\":375:401  keccak256(bytes('SMEamb')) */\n      dup1\n      mload\n      swap1\n      0x20\n      add\n      keccak256\n        /* \"contracts/storage/LibSMEambStorage.sol\":8583:8594  _getStorage */\n      tag_246\n        /* \"contracts/storage/LibSMEambStorage.sol\":8583:8600  _getStorage(SLOT) */\n      jump\t// in\n    tag_373:\n        /* \"contracts/storage/LibSMEambStorage.sol\":8583:8618  _getStorage(SLOT).guaranteed_minted */\n      0x0b\n      add\n        /* \"contracts/storage/LibSMEambStorage.sol\":8583:8626  _getStorage(SLOT).guaranteed_minted[_owner] */\n      0x00\n        /* \"contracts/storage/LibSMEambStorage.sol\":8619:8625  _owner */\n      dup5\n        /* \"contracts/storage/LibSMEambStorage.sol\":8583:8626  _getStorage(SLOT).guaranteed_minted[_owner] */\n      0xffffffffffffffffffffffffffffffffffffffff\n      and\n      0xffffffffffffffffffffffffffffffffffffffff\n      and\n      dup2\n      mstore\n      0x20\n      add\n      swap1\n      dup2\n      mstore\n      0x20\n      add\n      0x00\n      keccak256\n      0x00\n        /* \"contracts/storage/LibSMEambStorage.sol\":8583:8634  _getStorage(SLOT).guaranteed_minted[_owner] = _bool */\n      0x0100\n      exp\n      dup2\n      sload\n      dup2\n      0xff\n      mul\n      not\n      and\n      swap1\n      dup4\n      iszero\n      iszero\n      mul\n      or\n      swap1\n      sstore\n      pop\n        /* \"contracts/storage/LibSMEambStorage.sol\":8519:8636  function guaranteed_minted(address _owner, bool _bool) external{_getStorage(SLOT).guaranteed_minted[_owner] = _bool;} */\n      pop\n      pop\n      jump\t// out\n        /* \"contracts/storage/LibSMEambStorage.sol\":7295:7416  function guaranteed_minted(address owner) external view returns(bool){return _getStorage(SLOT).guaranteed_minted[owner];} */\n    tag_202:\n        /* \"contracts/storage/LibSMEambStorage.sol\":7359:7363  bool */\n      0x00\n        /* \"contracts/storage/LibSMEambStorage.sol\":7372:7389  _getStorage(SLOT) */\n      tag_375\n        /* \"contracts/storage/LibSMEambStorage.sol\":385:400  bytes('SMEamb') */\n      mload(0x40)\n      dup1\n      0x40\n      add\n      0x40\n      mstore\n      dup1\n      0x06\n      dup2\n      mstore\n      0x20\n      add\n      0x534d45616d620000000000000000000000000000000000000000000000000000\n      dup2\n      mstore\n      pop\n        /* \"contracts/storage/LibSMEambStorage.sol\":375:401  keccak256(bytes('SMEamb')) */\n      dup1\n      mload\n      swap1\n      0x20\n      add\n      keccak256\n        /* \"contracts/storage/LibSMEambStorage.sol\":7372:7383  _getStorage */\n      tag_246\n        /* \"contracts/storage/LibSMEambStorage.sol\":7372:7389  _getStorage(SLOT) */\n      jump\t// in\n    tag_375:\n        /* \"contracts/storage/LibSMEambStorage.sol\":7372:7407  _getStorage(SLOT).guaranteed_minted */\n      0x0b\n      add\n        /* \"contracts/storage/LibSMEambStorage.sol\":7372:7414  _getStorage(SLOT).guaranteed_minted[owner] */\n      0x00\n        /* \"contracts/storage/LibSMEambStorage.sol\":7408:7413  owner */\n      dup4\n        /* \"contracts/storage/LibSMEambStorage.sol\":7372:7414  _getStorage(SLOT).guaranteed_minted[owner] */\n      0xffffffffffffffffffffffffffffffffffffffff\n      and\n      0xffffffffffffffffffffffffffffffffffffffff\n      and\n      dup2\n      mstore\n      0x20\n      add\n      swap1\n      dup2\n      mstore\n      0x20\n      add\n      0x00\n      keccak256\n      0x00\n      swap1\n      sload\n      swap1\n      0x0100\n      exp\n      swap1\n      div\n      0xff\n      and\n        /* \"contracts/storage/LibSMEambStorage.sol\":7365:7414  return _getStorage(SLOT).guaranteed_minted[owner] */\n      swap1\n      pop\n        /* \"contracts/storage/LibSMEambStorage.sol\":7295:7416  function guaranteed_minted(address owner) external view returns(bool){return _getStorage(SLOT).guaranteed_minted[owner];} */\n      swap2\n      swap1\n      pop\n      jump\t// out\n        /* \"contracts/storage/LibSMEambStorage.sol\":5910:6002  function _spotMinted() external view returns(uint256){return _getStorage(SLOT)._spotMinted;} */\n    tag_206:\n        /* \"contracts/storage/LibSMEambStorage.sol\":5955:5962  uint256 */\n      0x00\n        /* \"contracts/storage/LibSMEambStorage.sol\":5971:5988  _getStorage(SLOT) */\n      tag_377\n        /* \"contracts/storage/LibSMEambStorage.sol\":385:400  bytes('SMEamb') */\n      mload(0x40)\n      dup1\n      0x40\n      add\n      0x40\n      mstore\n      dup1\n      0x06\n      dup2\n      mstore\n      0x20\n      add\n      0x534d45616d620000000000000000000000000000000000000000000000000000\n      dup2\n      mstore\n      pop\n        /* \"contracts/storage/LibSMEambStorage.sol\":375:401  keccak256(bytes('SMEamb')) */\n      dup1\n      mload\n      swap1\n      0x20\n      add\n      keccak256\n        /* \"contracts/storage/LibSMEambStorage.sol\":5971:5982  _getStorage */\n      tag_246\n        /* \"contracts/storage/LibSMEambStorage.sol\":5971:5988  _getStorage(SLOT) */\n      jump\t// in\n    tag_377:\n        /* \"contracts/storage/LibSMEambStorage.sol\":5971:6000  _getStorage(SLOT)._spotMinted */\n      0x14\n      add\n      sload\n        /* \"contracts/storage/LibSMEambStorage.sol\":5964:6000  return _getStorage(SLOT)._spotMinted */\n      swap1\n      pop\n        /* \"contracts/storage/LibSMEambStorage.sol\":5910:6002  function _spotMinted() external view returns(uint256){return _getStorage(SLOT)._spotMinted;} */\n      swap1\n      jump\t// out\n        /* \"contracts/storage/LibSMEambStorage.sol\":6186:6286  function baseTokenURI() external view returns(string memory){return _getStorage(SLOT).baseTokenURI;} */\n    tag_209:\n        /* \"contracts/storage/LibSMEambStorage.sol\":6232:6245  string memory */\n      0x60\n        /* \"contracts/storage/LibSMEambStorage.sol\":6254:6271  _getStorage(SLOT) */\n      tag_379\n        /* \"contracts/storage/LibSMEambStorage.sol\":385:400  bytes('SMEamb') */\n      mload(0x40)\n      dup1\n      0x40\n      add\n      0x40\n      mstore\n      dup1\n      0x06\n      dup2\n      mstore\n      0x20\n      add\n      0x534d45616d620000000000000000000000000000000000000000000000000000\n      dup2\n      mstore\n      pop\n        /* \"contracts/storage/LibSMEambStorage.sol\":375:401  keccak256(bytes('SMEamb')) */\n      dup1\n      mload\n      swap1\n      0x20\n      add\n      keccak256\n        /* \"contracts/storage/LibSMEambStorage.sol\":6254:6265  _getStorage */\n      tag_246\n        /* \"contracts/storage/LibSMEambStorage.sol\":6254:6271  _getStorage(SLOT) */\n      jump\t// in\n    tag_379:\n        /* \"contracts/storage/LibSMEambStorage.sol\":6254:6284  _getStorage(SLOT).baseTokenURI */\n      0x00\n      add\n        /* \"contracts/storage/LibSMEambStorage.sol\":6247:6284  return _getStorage(SLOT).baseTokenURI */\n      dup1\n      sload\n      tag_380\n      swap1\n      tag_248\n      jump\t// in\n    tag_380:\n      dup1\n      0x1f\n      add\n      0x20\n      dup1\n      swap2\n      div\n      mul\n      0x20\n      add\n      mload(0x40)\n      swap1\n      dup2\n      add\n      0x40\n      mstore\n      dup1\n      swap3\n      swap2\n      swap1\n      dup2\n      dup2\n      mstore\n      0x20\n      add\n      dup3\n      dup1\n      sload\n      tag_381\n      swap1\n      tag_248\n      jump\t// in\n    tag_381:\n      dup1\n      iszero\n      tag_382\n      jumpi\n      dup1\n      0x1f\n      lt\n      tag_383\n      jumpi\n      0x0100\n      dup1\n      dup4\n      sload\n      div\n      mul\n      dup4\n      mstore\n      swap2\n      0x20\n      add\n      swap2\n      jump(tag_382)\n    tag_383:\n      dup3\n      add\n      swap2\n      swap1\n      0x00\n      mstore\n      keccak256(0x00, 0x20)\n      swap1\n    tag_384:\n      dup2\n      sload\n      dup2\n      mstore\n      swap1\n      0x01\n      add\n      swap1\n      0x20\n      add\n      dup1\n      dup4\n      gt\n      tag_384\n      jumpi\n      dup3\n      swap1\n      sub\n      0x1f\n      and\n      dup3\n      add\n      swap2\n    tag_382:\n      pop\n      pop\n      pop\n      pop\n      pop\n      swap1\n      pop\n        /* \"contracts/storage/LibSMEambStorage.sol\":6186:6286  function baseTokenURI() external view returns(string memory){return _getStorage(SLOT).baseTokenURI;} */\n      swap1\n      jump\t// out\n        /* \"contracts/storage/LibSMEambStorage.sol\":10339:10554  function addTokenToAllTokensEnumeration(uint256 tokenId) external {... */\n    tag_214:\n        /* \"contracts/storage/LibSMEambStorage.sol\":10460:10477  _getStorage(SLOT) */\n      tag_386\n        /* \"contracts/storage/LibSMEambStorage.sol\":385:400  bytes('SMEamb') */\n      mload(0x40)\n      dup1\n      0x40\n      add\n      0x40\n      mstore\n      dup1\n      0x06\n      dup2\n      mstore\n      0x20\n      add\n      0x534d45616d620000000000000000000000000000000000000000000000000000\n      dup2\n      mstore\n      pop\n        /* \"contracts/storage/LibSMEambStorage.sol\":375:401  keccak256(bytes('SMEamb')) */\n      dup1\n      mload\n      swap1\n      0x20\n      add\n      keccak256\n        /* \"contracts/storage/LibSMEambStorage.sol\":10460:10471  _getStorage */\n      tag_246\n        /* \"contracts/storage/LibSMEambStorage.sol\":10460:10477  _getStorage(SLOT) */\n      jump\t// in\n    tag_386:\n        /* \"contracts/storage/LibSMEambStorage.sol\":10460:10487  _getStorage(SLOT).allTokens */\n      0x05\n      add\n        /* \"contracts/storage/LibSMEambStorage.sol\":10460:10494  _getStorage(SLOT).allTokens.length */\n      dup1\n      sload\n      swap1\n      pop\n        /* \"contracts/storage/LibSMEambStorage.sol\":10416:10433  _getStorage(SLOT) */\n      tag_387\n        /* \"contracts/storage/LibSMEambStorage.sol\":385:400  bytes('SMEamb') */\n      mload(0x40)\n      dup1\n      0x40\n      add\n      0x40\n      mstore\n      dup1\n      0x06\n      dup2\n      mstore\n      0x20\n      add\n      0x534d45616d620000000000000000000000000000000000000000000000000000\n      dup2\n      mstore\n      pop\n        /* \"contracts/storage/LibSMEambStorage.sol\":375:401  keccak256(bytes('SMEamb')) */\n      dup1\n      mload\n      swap1\n      0x20\n      add\n      keccak256\n        /* \"contracts/storage/LibSMEambStorage.sol\":10416:10427  _getStorage */\n      tag_246\n        /* \"contracts/storage/LibSMEambStorage.sol\":10416:10433  _getStorage(SLOT) */\n      jump\t// in\n    tag_387:\n        /* \"contracts/storage/LibSMEambStorage.sol\":10416:10448  _getStorage(SLOT).allTokensIndex */\n      0x06\n      add\n        /* \"contracts/storage/LibSMEambStorage.sol\":10416:10457  _getStorage(SLOT).allTokensIndex[tokenId] */\n      0x00\n        /* \"contracts/storage/LibSMEambStorage.sol\":10449:10456  tokenId */\n      dup4\n        /* \"contracts/storage/LibSMEambStorage.sol\":10416:10457  _getStorage(SLOT).allTokensIndex[tokenId] */\n      dup2\n      mstore\n      0x20\n      add\n      swap1\n      dup2\n      mstore\n      0x20\n      add\n      0x00\n      keccak256\n        /* \"contracts/storage/LibSMEambStorage.sol\":10416:10494  _getStorage(SLOT).allTokensIndex[tokenId] = _getStorage(SLOT).allTokens.length */\n      dup2\n      swap1\n      sstore\n      pop\n        /* \"contracts/storage/LibSMEambStorage.sol\":10505:10522  _getStorage(SLOT) */\n      tag_388\n        /* \"contracts/storage/LibSMEambStorage.sol\":385:400  bytes('SMEamb') */\n      mload(0x40)\n      dup1\n      0x40\n      add\n      0x40\n      mstore\n      dup1\n      0x06\n      dup2\n      mstore\n      0x20\n      add\n      0x534d45616d620000000000000000000000000000000000000000000000000000\n      dup2\n      mstore\n      pop\n        /* \"contracts/storage/LibSMEambStorage.sol\":375:401  keccak256(bytes('SMEamb')) */\n      dup1\n      mload\n      swap1\n      0x20\n      add\n      keccak256\n        /* \"contracts/storage/LibSMEambStorage.sol\":10505:10516  _getStorage */\n      tag_246\n        /* \"contracts/storage/LibSMEambStorage.sol\":10505:10522  _getStorage(SLOT) */\n      jump\t// in\n    tag_388:\n        /* \"contracts/storage/LibSMEambStorage.sol\":10505:10532  _getStorage(SLOT).allTokens */\n      0x05\n      add\n        /* \"contracts/storage/LibSMEambStorage.sol\":10538:10545  tokenId */\n      dup2\n        /* \"contracts/storage/LibSMEambStorage.sol\":10505:10546  _getStorage(SLOT).allTokens.push(tokenId) */\n      swap1\n      dup1\n      0x01\n      dup2\n      sload\n      add\n      dup1\n      dup3\n      sstore\n      dup1\n      swap2\n      pop\n      pop\n      0x01\n      swap1\n      sub\n      swap1\n      0x00\n      mstore\n      keccak256(0x00, 0x20)\n      add\n      0x00\n      swap1\n      swap2\n      swap1\n      swap2\n      swap1\n      swap2\n      pop\n      sstore\n        /* \"contracts/storage/LibSMEambStorage.sol\":10339:10554  function addTokenToAllTokensEnumeration(uint256 tokenId) external {... */\n      pop\n      jump\t// out\n        /* \"contracts/storage/LibSMEambStorage.sol\":7213:7289  function fee() external view returns(uint256){return _getStorage(SLOT).fee;} */\n    tag_216:\n        /* \"contracts/storage/LibSMEambStorage.sol\":7250:7257  uint256 */\n      0x00\n        /* \"contracts/storage/LibSMEambStorage.sol\":7266:7283  _getStorage(SLOT) */\n      tag_391\n        /* \"contracts/storage/LibSMEambStorage.sol\":385:400  bytes('SMEamb') */\n      mload(0x40)\n      dup1\n      0x40\n      add\n      0x40\n      mstore\n      dup1\n      0x06\n      dup2\n      mstore\n      0x20\n      add\n      0x534d45616d620000000000000000000000000000000000000000000000000000\n      dup2\n      mstore\n      pop\n        /* \"contracts/storage/LibSMEambStorage.sol\":375:401  keccak256(bytes('SMEamb')) */\n      dup1\n      mload\n      swap1\n      0x20\n      add\n      keccak256\n        /* \"contracts/storage/LibSMEambStorage.sol\":7266:7277  _getStorage */\n      tag_246\n        /* \"contracts/storage/LibSMEambStorage.sol\":7266:7283  _getStorage(SLOT) */\n      jump\t// in\n    tag_391:\n        /* \"contracts/storage/LibSMEambStorage.sol\":7266:7287  _getStorage(SLOT).fee */\n      0x0a\n      add\n      sload\n        /* \"contracts/storage/LibSMEambStorage.sol\":7259:7287  return _getStorage(SLOT).fee */\n      swap1\n      pop\n        /* \"contracts/storage/LibSMEambStorage.sol\":7213:7289  function fee() external view returns(uint256){return _getStorage(SLOT).fee;} */\n      swap1\n      jump\t// out\n        /* \"contracts/storage/LibSMEambStorage.sol\":7699:7823  function tokenURIs(string memory _tokenURIs, uint256 _tokenId) external{_getStorage(SLOT).tokenURIs[_tokenId] = _tokenURIs;} */\n    tag_222:\n        /* \"contracts/storage/LibSMEambStorage.sol\":7811:7821  _tokenURIs */\n      dup2\n        /* \"contracts/storage/LibSMEambStorage.sol\":7771:7788  _getStorage(SLOT) */\n      tag_393\n        /* \"contracts/storage/LibSMEambStorage.sol\":385:400  bytes('SMEamb') */\n      mload(0x40)\n      dup1\n      0x40\n      add\n      0x40\n      mstore\n      dup1\n      0x06\n      dup2\n      mstore\n      0x20\n      add\n      0x534d45616d620000000000000000000000000000000000000000000000000000\n      dup2\n      mstore\n      pop\n        /* \"contracts/storage/LibSMEambStorage.sol\":375:401  keccak256(bytes('SMEamb')) */\n      dup1\n      mload\n      swap1\n      0x20\n      add\n      keccak256\n        /* \"contracts/storage/LibSMEambStorage.sol\":7771:7782  _getStorage */\n      tag_246\n        /* \"contracts/storage/LibSMEambStorage.sol\":7771:7788  _getStorage(SLOT) */\n      jump\t// in\n    tag_393:\n        /* \"contracts/storage/LibSMEambStorage.sol\":7771:7798  _getStorage(SLOT).tokenURIs */\n      0x02\n      add\n        /* \"contracts/storage/LibSMEambStorage.sol\":7771:7808  _getStorage(SLOT).tokenURIs[_tokenId] */\n      0x00\n        /* \"contracts/storage/LibSMEambStorage.sol\":7799:7807  _tokenId */\n      dup4\n        /* \"contracts/storage/LibSMEambStorage.sol\":7771:7808  _getStorage(SLOT).tokenURIs[_tokenId] */\n      dup2\n      mstore\n      0x20\n      add\n      swap1\n      dup2\n      mstore\n      0x20\n      add\n      0x00\n      keccak256\n        /* \"contracts/storage/LibSMEambStorage.sol\":7771:7821  _getStorage(SLOT).tokenURIs[_tokenId] = _tokenURIs */\n      swap1\n      dup2\n      tag_394\n      swap2\n      swap1\n      tag_303\n      jump\t// in\n    tag_394:\n      pop\n        /* \"contracts/storage/LibSMEambStorage.sol\":7699:7823  function tokenURIs(string memory _tokenURIs, uint256 _tokenId) external{_getStorage(SLOT).tokenURIs[_tokenId] = _tokenURIs;} */\n      pop\n      pop\n      jump\t// out\n        /* \"contracts/storage/LibSMEambStorage.sol\":6528:6662  function ownedTokens(address owner, uint256 index) external view returns(uint256){return _getStorage(SLOT).ownedTokens[owner][index];} */\n    tag_225:\n        /* \"contracts/storage/LibSMEambStorage.sol\":6601:6608  uint256 */\n      0x00\n        /* \"contracts/storage/LibSMEambStorage.sol\":6617:6634  _getStorage(SLOT) */\n      tag_396\n        /* \"contracts/storage/LibSMEambStorage.sol\":385:400  bytes('SMEamb') */\n      mload(0x40)\n      dup1\n      0x40\n      add\n      0x40\n      mstore\n      dup1\n      0x06\n      dup2\n      mstore\n      0x20\n      add\n      0x534d45616d620000000000000000000000000000000000000000000000000000\n      dup2\n      mstore\n      pop\n        /* \"contracts/storage/LibSMEambStorage.sol\":375:401  keccak256(bytes('SMEamb')) */\n      dup1\n      mload\n      swap1\n      0x20\n      add\n      keccak256\n        /* \"contracts/storage/LibSMEambStorage.sol\":6617:6628  _getStorage */\n      tag_246\n        /* \"contracts/storage/LibSMEambStorage.sol\":6617:6634  _getStorage(SLOT) */\n      jump\t// in\n    tag_396:\n        /* \"contracts/storage/LibSMEambStorage.sol\":6617:6646  _getStorage(SLOT).ownedTokens */\n      0x03\n      add\n        /* \"contracts/storage/LibSMEambStorage.sol\":6617:6653  _getStorage(SLOT).ownedTokens[owner] */\n      0x00\n        /* \"contracts/storage/LibSMEambStorage.sol\":6647:6652  owner */\n      dup5\n        /* \"contracts/storage/LibSMEambStorage.sol\":6617:6653  _getStorage(SLOT).ownedTokens[owner] */\n      0xffffffffffffffffffffffffffffffffffffffff\n      and\n      0xffffffffffffffffffffffffffffffffffffffff\n      and\n      dup2\n      mstore\n      0x20\n      add\n      swap1\n      dup2\n      mstore\n      0x20\n      add\n      0x00\n      keccak256\n        /* \"contracts/storage/LibSMEambStorage.sol\":6617:6660  _getStorage(SLOT).ownedTokens[owner][index] */\n      0x00\n        /* \"contracts/storage/LibSMEambStorage.sol\":6654:6659  index */\n      dup4\n        /* \"contracts/storage/LibSMEambStorage.sol\":6617:6660  _getStorage(SLOT).ownedTokens[owner][index] */\n      dup2\n      mstore\n      0x20\n      add\n      swap1\n      dup2\n      mstore\n      0x20\n      add\n      0x00\n      keccak256\n      sload\n        /* \"contracts/storage/LibSMEambStorage.sol\":6610:6660  return _getStorage(SLOT).ownedTokens[owner][index] */\n      swap1\n      pop\n        /* \"contracts/storage/LibSMEambStorage.sol\":6528:6662  function ownedTokens(address owner, uint256 index) external view returns(uint256){return _getStorage(SLOT).ownedTokens[owner][index];} */\n      swap3\n      swap2\n      pop\n      pop\n      jump\t// out\n        /* \"contracts/storage/LibSMEambStorage.sol\":4295:4421  function _packedOwnerships(uint256 _tokenId, uint256 _index) external{_getStorage(SLOT)._packedOwnerships[_tokenId] = _index;} */\n    tag_230:\n        /* \"contracts/storage/LibSMEambStorage.sol\":4413:4419  _index */\n      dup1\n        /* \"contracts/storage/LibSMEambStorage.sol\":4365:4382  _getStorage(SLOT) */\n      tag_398\n        /* \"contracts/storage/LibSMEambStorage.sol\":385:400  bytes('SMEamb') */\n      mload(0x40)\n      dup1\n      0x40\n      add\n      0x40\n      mstore\n      dup1\n      0x06\n      dup2\n      mstore\n      0x20\n      add\n      0x534d45616d620000000000000000000000000000000000000000000000000000\n      dup2\n      mstore\n      pop\n        /* \"contracts/storage/LibSMEambStorage.sol\":375:401  keccak256(bytes('SMEamb')) */\n      dup1\n      mload\n      swap1\n      0x20\n      add\n      keccak256\n        /* \"contracts/storage/LibSMEambStorage.sol\":4365:4376  _getStorage */\n      tag_246\n        /* \"contracts/storage/LibSMEambStorage.sol\":4365:4382  _getStorage(SLOT) */\n      jump\t// in\n    tag_398:\n        /* \"contracts/storage/LibSMEambStorage.sol\":4365:4400  _getStorage(SLOT)._packedOwnerships */\n      0x10\n      add\n        /* \"contracts/storage/LibSMEambStorage.sol\":4365:4410  _getStorage(SLOT)._packedOwnerships[_tokenId] */\n      0x00\n        /* \"contracts/storage/LibSMEambStorage.sol\":4401:4409  _tokenId */\n      dup5\n        /* \"contracts/storage/LibSMEambStorage.sol\":4365:4410  _getStorage(SLOT)._packedOwnerships[_tokenId] */\n      dup2\n      mstore\n      0x20\n      add\n      swap1\n      dup2\n      mstore\n      0x20\n      add\n      0x00\n      keccak256\n        /* \"contracts/storage/LibSMEambStorage.sol\":4365:4419  _getStorage(SLOT)._packedOwnerships[_tokenId] = _index */\n      dup2\n      swap1\n      sstore\n      pop\n        /* \"contracts/storage/LibSMEambStorage.sol\":4295:4421  function _packedOwnerships(uint256 _tokenId, uint256 _index) external{_getStorage(SLOT)._packedOwnerships[_tokenId] = _index;} */\n      pop\n      pop\n      jump\t// out\n        /* \"contracts/storage/LibSMEambStorage.sol\":5596:5747  function _operatorApprovals(address owner, address operator) external view returns(bool){return _getStorage(SLOT)._operatorApprovals[owner][operator];} */\n    tag_234:\n        /* \"contracts/storage/LibSMEambStorage.sol\":5679:5683  bool */\n      0x00\n        /* \"contracts/storage/LibSMEambStorage.sol\":5692:5709  _getStorage(SLOT) */\n      tag_400\n        /* \"contracts/storage/LibSMEambStorage.sol\":385:400  bytes('SMEamb') */\n      mload(0x40)\n      dup1\n      0x40\n      add\n      0x40\n      mstore\n      dup1\n      0x06\n      dup2\n      mstore\n      0x20\n      add\n      0x534d45616d620000000000000000000000000000000000000000000000000000\n      dup2\n      mstore\n      pop\n        /* \"contracts/storage/LibSMEambStorage.sol\":375:401  keccak256(bytes('SMEamb')) */\n      dup1\n      mload\n      swap1\n      0x20\n      add\n      keccak256\n        /* \"contracts/storage/LibSMEambStorage.sol\":5692:5703  _getStorage */\n      tag_246\n        /* \"contracts/storage/LibSMEambStorage.sol\":5692:5709  _getStorage(SLOT) */\n      jump\t// in\n    tag_400:\n        /* \"contracts/storage/LibSMEambStorage.sol\":5692:5728  _getStorage(SLOT)._operatorApprovals */\n      0x13\n      add\n        /* \"contracts/storage/LibSMEambStorage.sol\":5692:5735  _getStorage(SLOT)._operatorApprovals[owner] */\n      0x00\n        /* \"contracts/storage/LibSMEambStorage.sol\":5729:5734  owner */\n      dup5\n        /* \"contracts/storage/LibSMEambStorage.sol\":5692:5735  _getStorage(SLOT)._operatorApprovals[owner] */\n      0xffffffffffffffffffffffffffffffffffffffff\n      and\n      0xffffffffffffffffffffffffffffffffffffffff\n      and\n      dup2\n      mstore\n      0x20\n      add\n      swap1\n      dup2\n      mstore\n      0x20\n      add\n      0x00\n      keccak256\n        /* \"contracts/storage/LibSMEambStorage.sol\":5692:5745  _getStorage(SLOT)._operatorApprovals[owner][operator] */\n      0x00\n        /* \"contracts/storage/LibSMEambStorage.sol\":5736:5744  operator */\n      dup4\n        /* \"contracts/storage/LibSMEambStorage.sol\":5692:5745  _getStorage(SLOT)._operatorApprovals[owner][operator] */\n      0xffffffffffffffffffffffffffffffffffffffff\n      and\n      0xffffffffffffffffffffffffffffffffffffffff\n      and\n      dup2\n      mstore\n      0x20\n      add\n      swap1\n      dup2\n      mstore\n      0x20\n      add\n      0x00\n      keccak256\n      0x00\n      swap1\n      sload\n      swap1\n      0x0100\n      exp\n      swap1\n      div\n      0xff\n      and\n        /* \"contracts/storage/LibSMEambStorage.sol\":5685:5745  return _getStorage(SLOT)._operatorApprovals[owner][operator] */\n      swap1\n      pop\n        /* \"contracts/storage/LibSMEambStorage.sol\":5596:5747  function _operatorApprovals(address owner, address operator) external view returns(bool){return _getStorage(SLOT)._operatorApprovals[owner][operator];} */\n      swap3\n      swap2\n      pop\n      pop\n      jump\t// out\n        /* \"contracts/storage/LibSMEambStorage.sol\":5086:5590  function _getApprovedSlotAndAddress(uint256 tokenId)... */\n    tag_238:\n        /* \"contracts/storage/LibSMEambStorage.sol\":5189:5216  uint256 approvedAddressSlot */\n      0x00\n        /* \"contracts/storage/LibSMEambStorage.sol\":5218:5241  address approvedAddress */\n      dup1\n        /* \"contracts/storage/LibSMEambStorage.sol\":5259:5297  TokenApprovalRef storage tokenApproval */\n      0x00\n        /* \"contracts/storage/LibSMEambStorage.sol\":5300:5317  _getStorage(SLOT) */\n      tag_402\n        /* \"contracts/storage/LibSMEambStorage.sol\":385:400  bytes('SMEamb') */\n      mload(0x40)\n      dup1\n      0x40\n      add\n      0x40\n      mstore\n      dup1\n      0x06\n      dup2\n      mstore\n      0x20\n      add\n      0x534d45616d620000000000000000000000000000000000000000000000000000\n      dup2\n      mstore\n      pop\n        /* \"contracts/storage/LibSMEambStorage.sol\":375:401  keccak256(bytes('SMEamb')) */\n      dup1\n      mload\n      swap1\n      0x20\n      add\n      keccak256\n        /* \"contracts/storage/LibSMEambStorage.sol\":5300:5311  _getStorage */\n      tag_246\n        /* \"contracts/storage/LibSMEambStorage.sol\":5300:5317  _getStorage(SLOT) */\n      jump\t// in\n    tag_402:\n        /* \"contracts/storage/LibSMEambStorage.sol\":5300:5333  _getStorage(SLOT)._tokenApprovals */\n      0x12\n      add\n        /* \"contracts/storage/LibSMEambStorage.sol\":5300:5342  _getStorage(SLOT)._tokenApprovals[tokenId] */\n      0x00\n        /* \"contracts/storage/LibSMEambStorage.sol\":5334:5341  tokenId */\n      dup6\n        /* \"contracts/storage/LibSMEambStorage.sol\":5300:5342  _getStorage(SLOT)._tokenApprovals[tokenId] */\n      dup2\n      mstore\n      0x20\n      add\n      swap1\n      dup2\n      mstore\n      0x20\n      add\n      0x00\n      keccak256\n        /* \"contracts/storage/LibSMEambStorage.sol\":5259:5342  TokenApprovalRef storage tokenApproval = _getStorage(SLOT)._tokenApprovals[tokenId] */\n      swap1\n      pop\n        /* \"contracts/storage/LibSMEambStorage.sol\":5495:5513  tokenApproval.slot */\n      dup1\n        /* \"contracts/storage/LibSMEambStorage.sol\":5472:5513  approvedAddressSlot := tokenApproval.slot */\n      swap3\n      pop\n        /* \"contracts/storage/LibSMEambStorage.sol\":5552:5571  approvedAddressSlot */\n      dup3\n        /* \"contracts/storage/LibSMEambStorage.sol\":5546:5572  sload(approvedAddressSlot) */\n      sload\n        /* \"contracts/storage/LibSMEambStorage.sol\":5527:5572  approvedAddress := sload(approvedAddressSlot) */\n      swap2\n      pop\n        /* \"contracts/storage/LibSMEambStorage.sol\":5457:5583  {... */\n      pop\n        /* \"contracts/storage/LibSMEambStorage.sol\":5086:5590  function _getApprovedSlotAndAddress(uint256 tokenId)... */\n      swap2\n      pop\n      swap2\n      jump\t// out\n        /* \"contracts/storage/LibSMEambStorage.sol\":7009:7107  function legendlistRoot() external view returns(bytes32){return _getStorage(SLOT).legendlistRoot;} */\n    tag_242:\n        /* \"contracts/storage/LibSMEambStorage.sol\":7057:7064  bytes32 */\n      0x00\n        /* \"contracts/storage/LibSMEambStorage.sol\":7073:7090  _getStorage(SLOT) */\n      tag_404\n        /* \"contracts/storage/LibSMEambStorage.sol\":385:400  bytes('SMEamb') */\n      mload(0x40)\n      dup1\n      0x40\n      add\n      0x40\n      mstore\n      dup1\n      0x06\n      dup2\n      mstore\n      0x20\n      add\n      0x534d45616d620000000000000000000000000000000000000000000000000000\n      dup2\n      mstore\n      pop\n        /* \"contracts/storage/LibSMEambStorage.sol\":375:401  keccak256(bytes('SMEamb')) */\n      dup1\n      mload\n      swap1\n      0x20\n      add\n      keccak256\n        /* \"contracts/storage/LibSMEambStorage.sol\":7073:7084  _getStorage */\n      tag_246\n        /* \"contracts/storage/LibSMEambStorage.sol\":7073:7090  _getStorage(SLOT) */\n      jump\t// in\n    tag_404:\n        /* \"contracts/storage/LibSMEambStorage.sol\":7073:7105  _getStorage(SLOT).legendlistRoot */\n      0x08\n      add\n      sload\n        /* \"contracts/storage/LibSMEambStorage.sol\":7066:7105  return _getStorage(SLOT).legendlistRoot */\n      swap1\n      pop\n        /* \"contracts/storage/LibSMEambStorage.sol\":7009:7107  function legendlistRoot() external view returns(bytes32){return _getStorage(SLOT).legendlistRoot;} */\n      swap1\n      jump\t// out\n        /* \"contracts/storage/LibSMEambStorage.sol\":12826:12981  function _getStorage(bytes32 _storage) private pure returns (smeAmbStorage storage s){... */\n    tag_246:\n        /* \"contracts/storage/LibSMEambStorage.sol\":12887:12910  smeAmbStorage storage s */\n      0x00\n        /* \"contracts/storage/LibSMEambStorage.sol\":12955:12963  _storage */\n      dup2\n        /* \"contracts/storage/LibSMEambStorage.sol\":12945:12963  s.slot := _storage */\n      swap1\n      pop\n        /* \"contracts/storage/LibSMEambStorage.sol\":12826:12981  function _getStorage(bytes32 _storage) private pure returns (smeAmbStorage storage s){... */\n      swap2\n      swap1\n      pop\n      jump\t// out\n    tag_367:\n      mload(0x40)\n      dup1\n      0x20\n      add\n      0x40\n      mstore\n      dup1\n      and(0xffffffffffffffffffffffffffffffffffffffff, 0x00)\n      dup2\n      mstore\n      pop\n      swap1\n      jump\t// out\n        /* \"#utility.yul\":7:106   */\n    tag_406:\n        /* \"#utility.yul\":59:65   */\n      0x00\n        /* \"#utility.yul\":93:98   */\n      dup2\n        /* \"#utility.yul\":87:99   */\n      mload\n        /* \"#utility.yul\":77:99   */\n      swap1\n      pop\n        /* \"#utility.yul\":7:106   */\n      swap2\n      swap1\n      pop\n      jump\t// out\n        /* \"#utility.yul\":112:289   */\n    tag_407:\n        /* \"#utility.yul\":204:215   */\n      0x00\n        /* \"#utility.yul\":238:244   */\n      dup3\n        /* \"#utility.yul\":233:236   */\n      dup3\n        /* \"#utility.yul\":226:245   */\n      mstore\n        /* \"#utility.yul\":278:282   */\n      0x20\n        /* \"#utility.yul\":273:276   */\n      dup3\n        /* \"#utility.yul\":269:283   */\n      add\n        /* \"#utility.yul\":254:283   */\n      swap1\n      pop\n        /* \"#utility.yul\":112:289   */\n      swap3\n      swap2\n      pop\n      pop\n      jump\t// out\n        /* \"#utility.yul\":295:541   */\n    tag_408:\n        /* \"#utility.yul\":376:377   */\n      0x00\n        /* \"#utility.yul\":386:499   */\n    tag_470:\n        /* \"#utility.yul\":400:406   */\n      dup4\n        /* \"#utility.yul\":397:398   */\n      dup2\n        /* \"#utility.yul\":394:407   */\n      lt\n        /* \"#utility.yul\":386:499   */\n      iszero\n      tag_472\n      jumpi\n        /* \"#utility.yul\":485:486   */\n      dup1\n        /* \"#utility.yul\":480:483   */\n      dup3\n        /* \"#utility.yul\":476:487   */\n      add\n        /* \"#utility.yul\":470:488   */\n      mload\n        /* \"#utility.yul\":466:467   */\n      dup2\n        /* \"#utility.yul\":461:464   */\n      dup5\n        /* \"#utility.yul\":457:468   */\n      add\n        /* \"#utility.yul\":450:489   */\n      mstore\n        /* \"#utility.yul\":422:424   */\n      0x20\n        /* \"#utility.yul\":419:420   */\n      dup2\n        /* \"#utility.yul\":415:425   */\n      add\n        /* \"#utility.yul\":410:425   */\n      swap1\n      pop\n        /* \"#utility.yul\":386:499   */\n      jump(tag_470)\n    tag_472:\n        /* \"#utility.yul\":533:534   */\n      0x00\n        /* \"#utility.yul\":524:530   */\n      dup5\n        /* \"#utility.yul\":519:522   */\n      dup5\n        /* \"#utility.yul\":515:531   */\n      add\n        /* \"#utility.yul\":508:535   */\n      mstore\n        /* \"#utility.yul\":357:541   */\n      pop\n        /* \"#utility.yul\":295:541   */\n      pop\n      pop\n      pop\n      jump\t// out\n        /* \"#utility.yul\":547:649   */\n    tag_409:\n        /* \"#utility.yul\":588:594   */\n      0x00\n        /* \"#utility.yul\":639:641   */\n      0x1f\n        /* \"#utility.yul\":635:642   */\n      not\n        /* \"#utility.yul\":630:632   */\n      0x1f\n        /* \"#utility.yul\":623:628   */\n      dup4\n        /* \"#utility.yul\":619:633   */\n      add\n        /* \"#utility.yul\":615:643   */\n      and\n        /* \"#utility.yul\":605:643   */\n      swap1\n      pop\n        /* \"#utility.yul\":547:649   */\n      swap2\n      swap1\n      pop\n      jump\t// out\n        /* \"#utility.yul\":655:1048   */\n    tag_410:\n        /* \"#utility.yul\":751:754   */\n      0x00\n        /* \"#utility.yul\":779:818   */\n      tag_475\n        /* \"#utility.yul\":812:817   */\n      dup3\n        /* \"#utility.yul\":779:818   */\n      tag_406\n      jump\t// in\n    tag_475:\n        /* \"#utility.yul\":834:913   */\n      tag_476\n        /* \"#utility.yul\":906:912   */\n      dup2\n        /* \"#utility.yul\":901:904   */\n      dup6\n        /* \"#utility.yul\":834:913   */\n      tag_407\n      jump\t// in\n    tag_476:\n        /* \"#utility.yul\":827:913   */\n      swap4\n      pop\n        /* \"#utility.yul\":922:987   */\n      tag_477\n        /* \"#utility.yul\":980:986   */\n      dup2\n        /* \"#utility.yul\":975:978   */\n      dup6\n        /* \"#utility.yul\":968:972   */\n      0x20\n        /* \"#utility.yul\":961:966   */\n      dup7\n        /* \"#utility.yul\":957:973   */\n      add\n        /* \"#utility.yul\":922:987   */\n      tag_408\n      jump\t// in\n    tag_477:\n        /* \"#utility.yul\":1012:1041   */\n      tag_478\n        /* \"#utility.yul\":1034:1040   */\n      dup2\n        /* \"#utility.yul\":1012:1041   */\n      tag_409\n      jump\t// in\n    tag_478:\n        /* \"#utility.yul\":1007:1010   */\n      dup5\n        /* \"#utility.yul\":1003:1042   */\n      add\n        /* \"#utility.yul\":996:1042   */\n      swap2\n      pop\n        /* \"#utility.yul\":755:1048   */\n      pop\n        /* \"#utility.yul\":655:1048   */\n      swap3\n      swap2\n      pop\n      pop\n      jump\t// out\n        /* \"#utility.yul\":1054:1383   */\n    tag_58:\n        /* \"#utility.yul\":1175:1179   */\n      0x00\n        /* \"#utility.yul\":1213:1215   */\n      0x20\n        /* \"#utility.yul\":1202:1211   */\n      dup3\n        /* \"#utility.yul\":1198:1216   */\n      add\n        /* \"#utility.yul\":1190:1216   */\n      swap1\n      pop\n        /* \"#utility.yul\":1262:1271   */\n      dup2\n        /* \"#utility.yul\":1256:1260   */\n      dup2\n        /* \"#utility.yul\":1252:1272   */\n      sub\n        /* \"#utility.yul\":1248:1249   */\n      0x00\n        /* \"#utility.yul\":1237:1246   */\n      dup4\n        /* \"#utility.yul\":1233:1250   */\n      add\n        /* \"#utility.yul\":1226:1273   */\n      mstore\n        /* \"#utility.yul\":1290:1376   */\n      tag_480\n        /* \"#utility.yul\":1371:1375   */\n      dup2\n        /* \"#utility.yul\":1362:1368   */\n      dup5\n        /* \"#utility.yul\":1290:1376   */\n      tag_410\n      jump\t// in\n    tag_480:\n        /* \"#utility.yul\":1282:1376   */\n      swap1\n      pop\n        /* \"#utility.yul\":1054:1383   */\n      swap3\n      swap2\n      pop\n      pop\n      jump\t// out\n        /* \"#utility.yul\":1389:1464   */\n    tag_411:\n        /* \"#utility.yul\":1422:1428   */\n      0x00\n        /* \"#utility.yul\":1455:1457   */\n      0x40\n        /* \"#utility.yul\":1449:1458   */\n      mload\n        /* \"#utility.yul\":1439:1458   */\n      swap1\n      pop\n        /* \"#utility.yul\":1389:1464   */\n      swap1\n      jump\t// out\n        /* \"#utility.yul\":1470:1587   */\n    tag_412:\n        /* \"#utility.yul\":1579:1580   */\n      0x00\n        /* \"#utility.yul\":1576:1577   */\n      dup1\n        /* \"#utility.yul\":1569:1581   */\n      revert\n        /* \"#utility.yul\":1593:1710   */\n    tag_413:\n        /* \"#utility.yul\":1702:1703   */\n      0x00\n        /* \"#utility.yul\":1699:1700   */\n      dup1\n        /* \"#utility.yul\":1692:1704   */\n      revert\n        /* \"#utility.yul\":1716:1842   */\n    tag_414:\n        /* \"#utility.yul\":1753:1760   */\n      0x00\n        /* \"#utility.yul\":1793:1835   */\n      0xffffffffffffffffffffffffffffffffffffffff\n        /* \"#utility.yul\":1786:1791   */\n      dup3\n        /* \"#utility.yul\":1782:1836   */\n      and\n        /* \"#utility.yul\":1771:1836   */\n      swap1\n      pop\n        /* \"#utility.yul\":1716:1842   */\n      swap2\n      swap1\n      pop\n      jump\t// out\n        /* \"#utility.yul\":1848:1944   */\n    tag_415:\n        /* \"#utility.yul\":1885:1892   */\n      0x00\n        /* \"#utility.yul\":1914:1938   */\n      tag_486\n        /* \"#utility.yul\":1932:1937   */\n      dup3\n        /* \"#utility.yul\":1914:1938   */\n      tag_414\n      jump\t// in\n    tag_486:\n        /* \"#utility.yul\":1903:1938   */\n      swap1\n      pop\n        /* \"#utility.yul\":1848:1944   */\n      swap2\n      swap1\n      pop\n      jump\t// out\n        /* \"#utility.yul\":1950:2072   */\n    tag_416:\n        /* \"#utility.yul\":2023:2047   */\n      tag_488\n        /* \"#utility.yul\":2041:2046   */\n      dup2\n        /* \"#utility.yul\":2023:2047   */\n      tag_415\n      jump\t// in\n    tag_488:\n        /* \"#utility.yul\":2016:2021   */\n      dup2\n        /* \"#utility.yul\":2013:2048   */\n      eq\n        /* \"#utility.yul\":2003:2066   */\n      tag_489\n      jumpi\n        /* \"#utility.yul\":2062:2063   */\n      0x00\n        /* \"#utility.yul\":2059:2060   */\n      dup1\n        /* \"#utility.yul\":2052:2064   */\n      revert\n        /* \"#utility.yul\":2003:2066   */\n    tag_489:\n        /* \"#utility.yul\":1950:2072   */\n      pop\n      jump\t// out\n        /* \"#utility.yul\":2078:2217   */\n    tag_417:\n        /* \"#utility.yul\":2124:2129   */\n      0x00\n        /* \"#utility.yul\":2162:2168   */\n      dup2\n        /* \"#utility.yul\":2149:2169   */\n      calldataload\n        /* \"#utility.yul\":2140:2169   */\n      swap1\n      pop\n        /* \"#utility.yul\":2178:2211   */\n      tag_491\n        /* \"#utility.yul\":2205:2210   */\n      dup2\n        /* \"#utility.yul\":2178:2211   */\n      tag_416\n      jump\t// in\n    tag_491:\n        /* \"#utility.yul\":2078:2217   */\n      swap3\n      swap2\n      pop\n      pop\n      jump\t// out\n        /* \"#utility.yul\":2223:2300   */\n    tag_418:\n        /* \"#utility.yul\":2260:2267   */\n      0x00\n        /* \"#utility.yul\":2289:2294   */\n      dup2\n        /* \"#utility.yul\":2278:2294   */\n      swap1\n      pop\n        /* \"#utility.yul\":2223:2300   */\n      swap2\n      swap1\n      pop\n      jump\t// out\n        /* \"#utility.yul\":2306:2428   */\n    tag_419:\n        /* \"#utility.yul\":2379:2403   */\n      tag_494\n        /* \"#utility.yul\":2397:2402   */\n      dup2\n        /* \"#utility.yul\":2379:2403   */\n      tag_418\n      jump\t// in\n    tag_494:\n        /* \"#utility.yul\":2372:2377   */\n      dup2\n        /* \"#utility.yul\":2369:2404   */\n      eq\n        /* \"#utility.yul\":2359:2422   */\n      tag_495\n      jumpi\n        /* \"#utility.yul\":2418:2419   */\n      0x00\n        /* \"#utility.yul\":2415:2416   */\n      dup1\n        /* \"#utility.yul\":2408:2420   */\n      revert\n        /* \"#utility.yul\":2359:2422   */\n    tag_495:\n        /* \"#utility.yul\":2306:2428   */\n      pop\n      jump\t// out\n        /* \"#utility.yul\":2434:2573   */\n    tag_420:\n        /* \"#utility.yul\":2480:2485   */\n      0x00\n        /* \"#utility.yul\":2518:2524   */\n      dup2\n        /* \"#utility.yul\":2505:2525   */\n      calldataload\n        /* \"#utility.yul\":2496:2525   */\n      swap1\n      pop\n        /* \"#utility.yul\":2534:2567   */\n      tag_497\n        /* \"#utility.yul\":2561:2566   */\n      dup2\n        /* \"#utility.yul\":2534:2567   */\n      tag_419\n      jump\t// in\n    tag_497:\n        /* \"#utility.yul\":2434:2573   */\n      swap3\n      swap2\n      pop\n      pop\n      jump\t// out\n        /* \"#utility.yul\":2579:3198   */\n    tag_62:\n        /* \"#utility.yul\":2656:2662   */\n      0x00\n        /* \"#utility.yul\":2664:2670   */\n      dup1\n        /* \"#utility.yul\":2672:2678   */\n      0x00\n        /* \"#utility.yul\":2721:2723   */\n      0x60\n        /* \"#utility.yul\":2709:2718   */\n      dup5\n        /* \"#utility.yul\":2700:2707   */\n      dup7\n        /* \"#utility.yul\":2696:2719   */\n      sub\n        /* \"#utility.yul\":2692:2724   */\n      slt\n        /* \"#utility.yul\":2689:2808   */\n      iszero\n      tag_499\n      jumpi\n        /* \"#utility.yul\":2727:2806   */\n      tag_500\n      tag_412\n      jump\t// in\n    tag_500:\n        /* \"#utility.yul\":2689:2808   */\n    tag_499:\n        /* \"#utility.yul\":2847:2848   */\n      0x00\n        /* \"#utility.yul\":2872:2925   */\n      tag_501\n        /* \"#utility.yul\":2917:2924   */\n      dup7\n        /* \"#utility.yul\":2908:2914   */\n      dup3\n        /* \"#utility.yul\":2897:2906   */\n      dup8\n        /* \"#utility.yul\":2893:2915   */\n      add\n        /* \"#utility.yul\":2872:2925   */\n      tag_417\n      jump\t// in\n    tag_501:\n        /* \"#utility.yul\":2862:2925   */\n      swap4\n      pop\n        /* \"#utility.yul\":2818:2935   */\n      pop\n        /* \"#utility.yul\":2974:2976   */\n      0x20\n        /* \"#utility.yul\":3000:3053   */\n      tag_502\n        /* \"#utility.yul\":3045:3052   */\n      dup7\n        /* \"#utility.yul\":3036:3042   */\n      dup3\n        /* \"#utility.yul\":3025:3034   */\n      dup8\n        /* \"#utility.yul\":3021:3043   */\n      add\n        /* \"#utility.yul\":3000:3053   */\n      tag_420\n      jump\t// in\n    tag_502:\n        /* \"#utility.yul\":2990:3053   */\n      swap3\n      pop\n        /* \"#utility.yul\":2945:3063   */\n      pop\n        /* \"#utility.yul\":3102:3104   */\n      0x40\n        /* \"#utility.yul\":3128:3181   */\n      tag_503\n        /* \"#utility.yul\":3173:3180   */\n      dup7\n        /* \"#utility.yul\":3164:3170   */\n      dup3\n        /* \"#utility.yul\":3153:3162   */\n      dup8\n        /* \"#utility.yul\":3149:3171   */\n      add\n        /* \"#utility.yul\":3128:3181   */\n      tag_420\n      jump\t// in\n    tag_503:\n        /* \"#utility.yul\":3118:3181   */\n      swap2\n      pop\n        /* \"#utility.yul\":3073:3191   */\n      pop\n        /* \"#utility.yul\":2579:3198   */\n      swap3\n      pop\n      swap3\n      pop\n      swap3\n      jump\t// out\n        /* \"#utility.yul\":3204:3678   */\n    tag_67:\n        /* \"#utility.yul\":3272:3278   */\n      0x00\n        /* \"#utility.yul\":3280:3286   */\n      dup1\n        /* \"#utility.yul\":3329:3331   */\n      0x40\n        /* \"#utility.yul\":3317:3326   */\n      dup4\n        /* \"#utility.yul\":3308:3315   */\n      dup6\n        /* \"#utility.yul\":3304:3327   */\n      sub\n        /* \"#utility.yul\":3300:3332   */\n      slt\n        /* \"#utility.yul\":3297:3416   */\n      iszero\n      tag_505\n      jumpi\n        /* \"#utility.yul\":3335:3414   */\n      tag_506\n      tag_412\n      jump\t// in\n    tag_506:\n        /* \"#utility.yul\":3297:3416   */\n    tag_505:\n        /* \"#utility.yul\":3455:3456   */\n      0x00\n        /* \"#utility.yul\":3480:3533   */\n      tag_507\n        /* \"#utility.yul\":3525:3532   */\n      dup6\n        /* \"#utility.yul\":3516:3522   */\n      dup3\n        /* \"#utility.yul\":3505:3514   */\n      dup7\n        /* \"#utility.yul\":3501:3523   */\n      add\n        /* \"#utility.yul\":3480:3533   */\n      tag_420\n      jump\t// in\n    tag_507:\n        /* \"#utility.yul\":3470:3533   */\n      swap3\n      pop\n        /* \"#utility.yul\":3426:3543   */\n      pop\n        /* \"#utility.yul\":3582:3584   */\n      0x20\n        /* \"#utility.yul\":3608:3661   */\n      tag_508\n        /* \"#utility.yul\":3653:3660   */\n      dup6\n        /* \"#utility.yul\":3644:3650   */\n      dup3\n        /* \"#utility.yul\":3633:3642   */\n      dup7\n        /* \"#utility.yul\":3629:3651   */\n      add\n        /* \"#utility.yul\":3608:3661   */\n      tag_417\n      jump\t// in\n    tag_508:\n        /* \"#utility.yul\":3598:3661   */\n      swap2\n      pop\n        /* \"#utility.yul\":3553:3671   */\n      pop\n        /* \"#utility.yul\":3204:3678   */\n      swap3\n      pop\n      swap3\n      swap1\n      pop\n      jump\t// out\n        /* \"#utility.yul\":3684:3761   */\n    tag_421:\n        /* \"#utility.yul\":3721:3728   */\n      0x00\n        /* \"#utility.yul\":3750:3755   */\n      dup2\n        /* \"#utility.yul\":3739:3755   */\n      swap1\n      pop\n        /* \"#utility.yul\":3684:3761   */\n      swap2\n      swap1\n      pop\n      jump\t// out\n        /* \"#utility.yul\":3767:3893   */\n    tag_422:\n        /* \"#utility.yul\":3862:3886   */\n      tag_511\n        /* \"#utility.yul\":3880:3885   */\n      dup2\n        /* \"#utility.yul\":3862:3886   */\n      tag_421\n      jump\t// in\n    tag_511:\n        /* \"#utility.yul\":3857:3860   */\n      dup3\n        /* \"#utility.yul\":3850:3887   */\n      mstore\n        /* \"#utility.yul\":3767:3893   */\n      pop\n      pop\n      jump\t// out\n        /* \"#utility.yul\":3899:4137   */\n    tag_72:\n        /* \"#utility.yul\":4000:4004   */\n      0x00\n        /* \"#utility.yul\":4038:4040   */\n      0x20\n        /* \"#utility.yul\":4027:4036   */\n      dup3\n        /* \"#utility.yul\":4023:4041   */\n      add\n        /* \"#utility.yul\":4015:4041   */\n      swap1\n      pop\n        /* \"#utility.yul\":4051:4130   */\n      tag_513\n        /* \"#utility.yul\":4127:4128   */\n      0x00\n        /* \"#utility.yul\":4116:4125   */\n      dup4\n        /* \"#utility.yul\":4112:4129   */\n      add\n        /* \"#utility.yul\":4103:4109   */\n      dup5\n        /* \"#utility.yul\":4051:4130   */\n      tag_422\n      jump\t// in\n    tag_513:\n        /* \"#utility.yul\":3899:4137   */\n      swap3\n      swap2\n      pop\n      pop\n      jump\t// out\n        /* \"#utility.yul\":4143:4472   */\n    tag_75:\n        /* \"#utility.yul\":4202:4208   */\n      0x00\n        /* \"#utility.yul\":4251:4253   */\n      0x20\n        /* \"#utility.yul\":4239:4248   */\n      dup3\n        /* \"#utility.yul\":4230:4237   */\n      dup5\n        /* \"#utility.yul\":4226:4249   */\n      sub\n        /* \"#utility.yul\":4222:4254   */\n      slt\n        /* \"#utility.yul\":4219:4338   */\n      iszero\n      tag_515\n      jumpi\n        /* \"#utility.yul\":4257:4336   */\n      tag_516\n      tag_412\n      jump\t// in\n    tag_516:\n        /* \"#utility.yul\":4219:4338   */\n    tag_515:\n        /* \"#utility.yul\":4377:4378   */\n      0x00\n        /* \"#utility.yul\":4402:4455   */\n      tag_517\n        /* \"#utility.yul\":4447:4454   */\n      dup5\n        /* \"#utility.yul\":4438:4444   */\n      dup3\n        /* \"#utility.yul\":4427:4436   */\n      dup6\n        /* \"#utility.yul\":4423:4445   */\n      add\n        /* \"#utility.yul\":4402:4455   */\n      tag_417\n      jump\t// in\n    tag_517:\n        /* \"#utility.yul\":4392:4455   */\n      swap2\n      pop\n        /* \"#utility.yul\":4348:4465   */\n      pop\n        /* \"#utility.yul\":4143:4472   */\n      swap3\n      swap2\n      pop\n      pop\n      jump\t// out\n        /* \"#utility.yul\":4478:4604   */\n    tag_423:\n        /* \"#utility.yul\":4573:4597   */\n      tag_519\n        /* \"#utility.yul\":4591:4596   */\n      dup2\n        /* \"#utility.yul\":4573:4597   */\n      tag_418\n      jump\t// in\n    tag_519:\n        /* \"#utility.yul\":4568:4571   */\n      dup3\n        /* \"#utility.yul\":4561:4598   */\n      mstore\n        /* \"#utility.yul\":4478:4604   */\n      pop\n      pop\n      jump\t// out\n        /* \"#utility.yul\":4610:4848   */\n    tag_78:\n        /* \"#utility.yul\":4711:4715   */\n      0x00\n        /* \"#utility.yul\":4749:4751   */\n      0x20\n        /* \"#utility.yul\":4738:4747   */\n      dup3\n        /* \"#utility.yul\":4734:4752   */\n      add\n        /* \"#utility.yul\":4726:4752   */\n      swap1\n      pop\n        /* \"#utility.yul\":4762:4841   */\n      tag_521\n        /* \"#utility.yul\":4838:4839   */\n      0x00\n        /* \"#utility.yul\":4827:4836   */\n      dup4\n        /* \"#utility.yul\":4823:4840   */\n      add\n        /* \"#utility.yul\":4814:4820   */\n      dup5\n        /* \"#utility.yul\":4762:4841   */\n      tag_423\n      jump\t// in\n    tag_521:\n        /* \"#utility.yul\":4610:4848   */\n      swap3\n      swap2\n      pop\n      pop\n      jump\t// out\n        /* \"#utility.yul\":4854:4976   */\n    tag_424:\n        /* \"#utility.yul\":4927:4951   */\n      tag_523\n        /* \"#utility.yul\":4945:4950   */\n      dup2\n        /* \"#utility.yul\":4927:4951   */\n      tag_421\n      jump\t// in\n    tag_523:\n        /* \"#utility.yul\":4920:4925   */\n      dup2\n        /* \"#utility.yul\":4917:4952   */\n      eq\n        /* \"#utility.yul\":4907:4970   */\n      tag_524\n      jumpi\n        /* \"#utility.yul\":4966:4967   */\n      0x00\n        /* \"#utility.yul\":4963:4964   */\n      dup1\n        /* \"#utility.yul\":4956:4968   */\n      revert\n        /* \"#utility.yul\":4907:4970   */\n    tag_524:\n        /* \"#utility.yul\":4854:4976   */\n      pop\n      jump\t// out\n        /* \"#utility.yul\":4982:5121   */\n    tag_425:\n        /* \"#utility.yul\":5028:5033   */\n      0x00\n        /* \"#utility.yul\":5066:5072   */\n      dup2\n        /* \"#utility.yul\":5053:5073   */\n      calldataload\n        /* \"#utility.yul\":5044:5073   */\n      swap1\n      pop\n        /* \"#utility.yul\":5082:5115   */\n      tag_526\n        /* \"#utility.yul\":5109:5114   */\n      dup2\n        /* \"#utility.yul\":5082:5115   */\n      tag_424\n      jump\t// in\n    tag_526:\n        /* \"#utility.yul\":4982:5121   */\n      swap3\n      swap2\n      pop\n      pop\n      jump\t// out\n        /* \"#utility.yul\":5127:5456   */\n    tag_82:\n        /* \"#utility.yul\":5186:5192   */\n      0x00\n        /* \"#utility.yul\":5235:5237   */\n      0x20\n        /* \"#utility.yul\":5223:5232   */\n      dup3\n        /* \"#utility.yul\":5214:5221   */\n      dup5\n        /* \"#utility.yul\":5210:5233   */\n      sub\n        /* \"#utility.yul\":5206:5238   */\n      slt\n        /* \"#utility.yul\":5203:5322   */\n      iszero\n      tag_528\n      jumpi\n        /* \"#utility.yul\":5241:5320   */\n      tag_529\n      tag_412\n      jump\t// in\n    tag_529:\n        /* \"#utility.yul\":5203:5322   */\n    tag_528:\n        /* \"#utility.yul\":5361:5362   */\n      0x00\n        /* \"#utility.yul\":5386:5439   */\n      tag_530\n        /* \"#utility.yul\":5431:5438   */\n      dup5\n        /* \"#utility.yul\":5422:5428   */\n      dup3\n        /* \"#utility.yul\":5411:5420   */\n      dup6\n        /* \"#utility.yul\":5407:5429   */\n      add\n        /* \"#utility.yul\":5386:5439   */\n      tag_425\n      jump\t// in\n    tag_530:\n        /* \"#utility.yul\":5376:5439   */\n      swap2\n      pop\n        /* \"#utility.yul\":5332:5449   */\n      pop\n        /* \"#utility.yul\":5127:5456   */\n      swap3\n      swap2\n      pop\n      pop\n      jump\t// out\n        /* \"#utility.yul\":5462:5791   */\n    tag_87:\n        /* \"#utility.yul\":5521:5527   */\n      0x00\n        /* \"#utility.yul\":5570:5572   */\n      0x20\n        /* \"#utility.yul\":5558:5567   */\n      dup3\n        /* \"#utility.yul\":5549:5556   */\n      dup5\n        /* \"#utility.yul\":5545:5568   */\n      sub\n        /* \"#utility.yul\":5541:5573   */\n      slt\n        /* \"#utility.yul\":5538:5657   */\n      iszero\n      tag_532\n      jumpi\n        /* \"#utility.yul\":5576:5655   */\n      tag_533\n      tag_412\n      jump\t// in\n    tag_533:\n        /* \"#utility.yul\":5538:5657   */\n    tag_532:\n        /* \"#utility.yul\":5696:5697   */\n      0x00\n        /* \"#utility.yul\":5721:5774   */\n      tag_534\n        /* \"#utility.yul\":5766:5773   */\n      dup5\n        /* \"#utility.yul\":5757:5763   */\n      dup3\n        /* \"#utility.yul\":5746:5755   */\n      dup6\n        /* \"#utility.yul\":5742:5764   */\n      add\n        /* \"#utility.yul\":5721:5774   */\n      tag_420\n      jump\t// in\n    tag_534:\n        /* \"#utility.yul\":5711:5774   */\n      swap2\n      pop\n        /* \"#utility.yul\":5667:5784   */\n      pop\n        /* \"#utility.yul\":5462:5791   */\n      swap3\n      swap2\n      pop\n      pop\n      jump\t// out\n        /* \"#utility.yul\":5797:5914   */\n    tag_426:\n        /* \"#utility.yul\":5906:5907   */\n      0x00\n        /* \"#utility.yul\":5903:5904   */\n      dup1\n        /* \"#utility.yul\":5896:5908   */\n      revert\n        /* \"#utility.yul\":5920:6037   */\n    tag_427:\n        /* \"#utility.yul\":6029:6030   */\n      0x00\n        /* \"#utility.yul\":6026:6027   */\n      dup1\n        /* \"#utility.yul\":6019:6031   */\n      revert\n        /* \"#utility.yul\":6043:6223   */\n    tag_428:\n        /* \"#utility.yul\":6091:6168   */\n      0x4e487b7100000000000000000000000000000000000000000000000000000000\n        /* \"#utility.yul\":6088:6089   */\n      0x00\n        /* \"#utility.yul\":6081:6169   */\n      mstore\n        /* \"#utility.yul\":6188:6192   */\n      0x41\n        /* \"#utility.yul\":6185:6186   */\n      0x04\n        /* \"#utility.yul\":6178:6193   */\n      mstore\n        /* \"#utility.yul\":6212:6216   */\n      0x24\n        /* \"#utility.yul\":6209:6210   */\n      0x00\n        /* \"#utility.yul\":6202:6217   */\n      revert\n        /* \"#utility.yul\":6229:6510   */\n    tag_429:\n        /* \"#utility.yul\":6312:6339   */\n      tag_539\n        /* \"#utility.yul\":6334:6338   */\n      dup3\n        /* \"#utility.yul\":6312:6339   */\n      tag_409\n      jump\t// in\n    tag_539:\n        /* \"#utility.yul\":6304:6310   */\n      dup2\n        /* \"#utility.yul\":6300:6340   */\n      add\n        /* \"#utility.yul\":6442:6448   */\n      dup2\n        /* \"#utility.yul\":6430:6440   */\n      dup2\n        /* \"#utility.yul\":6427:6449   */\n      lt\n        /* \"#utility.yul\":6406:6424   */\n      0xffffffffffffffff\n        /* \"#utility.yul\":6394:6404   */\n      dup3\n        /* \"#utility.yul\":6391:6425   */\n      gt\n        /* \"#utility.yul\":6388:6450   */\n      or\n        /* \"#utility.yul\":6385:6473   */\n      iszero\n      tag_540\n      jumpi\n        /* \"#utility.yul\":6453:6471   */\n      tag_541\n      tag_428\n      jump\t// in\n    tag_541:\n        /* \"#utility.yul\":6385:6473   */\n    tag_540:\n        /* \"#utility.yul\":6493:6503   */\n      dup1\n        /* \"#utility.yul\":6489:6491   */\n      0x40\n        /* \"#utility.yul\":6482:6504   */\n      mstore\n        /* \"#utility.yul\":6272:6510   */\n      pop\n        /* \"#utility.yul\":6229:6510   */\n      pop\n      pop\n      jump\t// out\n        /* \"#utility.yul\":6516:6645   */\n    tag_430:\n        /* \"#utility.yul\":6550:6556   */\n      0x00\n        /* \"#utility.yul\":6577:6597   */\n      tag_543\n      tag_411\n      jump\t// in\n    tag_543:\n        /* \"#utility.yul\":6567:6597   */\n      swap1\n      pop\n        /* \"#utility.yul\":6606:6639   */\n      tag_544\n        /* \"#utility.yul\":6634:6638   */\n      dup3\n        /* \"#utility.yul\":6626:6632   */\n      dup3\n        /* \"#utility.yul\":6606:6639   */\n      tag_429\n      jump\t// in\n    tag_544:\n        /* \"#utility.yul\":6516:6645   */\n      swap2\n      swap1\n      pop\n      jump\t// out\n        /* \"#utility.yul\":6651:6959   */\n    tag_431:\n        /* \"#utility.yul\":6713:6717   */\n      0x00\n        /* \"#utility.yul\":6803:6821   */\n      0xffffffffffffffff\n        /* \"#utility.yul\":6795:6801   */\n      dup3\n        /* \"#utility.yul\":6792:6822   */\n      gt\n        /* \"#utility.yul\":6789:6845   */\n      iszero\n      tag_546\n      jumpi\n        /* \"#utility.yul\":6825:6843   */\n      tag_547\n      tag_428\n      jump\t// in\n    tag_547:\n        /* \"#utility.yul\":6789:6845   */\n    tag_546:\n        /* \"#utility.yul\":6863:6892   */\n      tag_548\n        /* \"#utility.yul\":6885:6891   */\n      dup3\n        /* \"#utility.yul\":6863:6892   */\n      tag_409\n      jump\t// in\n    tag_548:\n        /* \"#utility.yul\":6855:6892   */\n      swap1\n      pop\n        /* \"#utility.yul\":6947:6951   */\n      0x20\n        /* \"#utility.yul\":6941:6945   */\n      dup2\n        /* \"#utility.yul\":6937:6952   */\n      add\n        /* \"#utility.yul\":6929:6952   */\n      swap1\n      pop\n        /* \"#utility.yul\":6651:6959   */\n      swap2\n      swap1\n      pop\n      jump\t// out\n        /* \"#utility.yul\":6965:7111   */\n    tag_432:\n        /* \"#utility.yul\":7062:7068   */\n      dup3\n        /* \"#utility.yul\":7057:7060   */\n      dup2\n        /* \"#utility.yul\":7052:7055   */\n      dup4\n        /* \"#utility.yul\":7039:7069   */\n      calldatacopy\n        /* \"#utility.yul\":7103:7104   */\n      0x00\n        /* \"#utility.yul\":7094:7100   */\n      dup4\n        /* \"#utility.yul\":7089:7092   */\n      dup4\n        /* \"#utility.yul\":7085:7101   */\n      add\n        /* \"#utility.yul\":7078:7105   */\n      mstore\n        /* \"#utility.yul\":6965:7111   */\n      pop\n      pop\n      pop\n      jump\t// out\n        /* \"#utility.yul\":7117:7542   */\n    tag_433:\n        /* \"#utility.yul\":7195:7200   */\n      0x00\n        /* \"#utility.yul\":7220:7286   */\n      tag_551\n        /* \"#utility.yul\":7236:7285   */\n      tag_552\n        /* \"#utility.yul\":7278:7284   */\n      dup5\n        /* \"#utility.yul\":7236:7285   */\n      tag_431\n      jump\t// in\n    tag_552:\n        /* \"#utility.yul\":7220:7286   */\n      tag_430\n      jump\t// in\n    tag_551:\n        /* \"#utility.yul\":7211:7286   */\n      swap1\n      pop\n        /* \"#utility.yul\":7309:7315   */\n      dup3\n        /* \"#utility.yul\":7302:7307   */\n      dup2\n        /* \"#utility.yul\":7295:7316   */\n      mstore\n        /* \"#utility.yul\":7347:7351   */\n      0x20\n        /* \"#utility.yul\":7340:7345   */\n      dup2\n        /* \"#utility.yul\":7336:7352   */\n      add\n        /* \"#utility.yul\":7385:7388   */\n      dup5\n        /* \"#utility.yul\":7376:7382   */\n      dup5\n        /* \"#utility.yul\":7371:7374   */\n      dup5\n        /* \"#utility.yul\":7367:7383   */\n      add\n        /* \"#utility.yul\":7364:7389   */\n      gt\n        /* \"#utility.yul\":7361:7473   */\n      iszero\n      tag_553\n      jumpi\n        /* \"#utility.yul\":7392:7471   */\n      tag_554\n      tag_427\n      jump\t// in\n    tag_554:\n        /* \"#utility.yul\":7361:7473   */\n    tag_553:\n        /* \"#utility.yul\":7482:7536   */\n      tag_555\n        /* \"#utility.yul\":7529:7535   */\n      dup5\n        /* \"#utility.yul\":7524:7527   */\n      dup3\n        /* \"#utility.yul\":7519:7522   */\n      dup6\n        /* \"#utility.yul\":7482:7536   */\n      tag_432\n      jump\t// in\n    tag_555:\n        /* \"#utility.yul\":7201:7542   */\n      pop\n        /* \"#utility.yul\":7117:7542   */\n      swap4\n      swap3\n      pop\n      pop\n      pop\n      jump\t// out\n        /* \"#utility.yul\":7562:7902   */\n    tag_434:\n        /* \"#utility.yul\":7618:7623   */\n      0x00\n        /* \"#utility.yul\":7667:7670   */\n      dup3\n        /* \"#utility.yul\":7660:7664   */\n      0x1f\n        /* \"#utility.yul\":7652:7658   */\n      dup4\n        /* \"#utility.yul\":7648:7665   */\n      add\n        /* \"#utility.yul\":7644:7671   */\n      slt\n        /* \"#utility.yul\":7634:7756   */\n      tag_557\n      jumpi\n        /* \"#utility.yul\":7675:7754   */\n      tag_558\n      tag_426\n      jump\t// in\n    tag_558:\n        /* \"#utility.yul\":7634:7756   */\n    tag_557:\n        /* \"#utility.yul\":7792:7798   */\n      dup2\n        /* \"#utility.yul\":7779:7799   */\n      calldataload\n        /* \"#utility.yul\":7817:7896   */\n      tag_559\n        /* \"#utility.yul\":7892:7895   */\n      dup5\n        /* \"#utility.yul\":7884:7890   */\n      dup3\n        /* \"#utility.yul\":7877:7881   */\n      0x20\n        /* \"#utility.yul\":7869:7875   */\n      dup7\n        /* \"#utility.yul\":7865:7882   */\n      add\n        /* \"#utility.yul\":7817:7896   */\n      tag_433\n      jump\t// in\n    tag_559:\n        /* \"#utility.yul\":7808:7896   */\n      swap2\n      pop\n        /* \"#utility.yul\":7624:7902   */\n      pop\n        /* \"#utility.yul\":7562:7902   */\n      swap3\n      swap2\n      pop\n      pop\n      jump\t// out\n        /* \"#utility.yul\":7908:8417   */\n    tag_111:\n        /* \"#utility.yul\":7977:7983   */\n      0x00\n        /* \"#utility.yul\":8026:8028   */\n      0x20\n        /* \"#utility.yul\":8014:8023   */\n      dup3\n        /* \"#utility.yul\":8005:8012   */\n      dup5\n        /* \"#utility.yul\":8001:8024   */\n      sub\n        /* \"#utility.yul\":7997:8029   */\n      slt\n        /* \"#utility.yul\":7994:8113   */\n      iszero\n      tag_561\n      jumpi\n        /* \"#utility.yul\":8032:8111   */\n      tag_562\n      tag_412\n      jump\t// in\n    tag_562:\n        /* \"#utility.yul\":7994:8113   */\n    tag_561:\n        /* \"#utility.yul\":8180:8181   */\n      0x00\n        /* \"#utility.yul\":8169:8178   */\n      dup3\n        /* \"#utility.yul\":8165:8182   */\n      add\n        /* \"#utility.yul\":8152:8183   */\n      calldataload\n        /* \"#utility.yul\":8210:8228   */\n      0xffffffffffffffff\n        /* \"#utility.yul\":8202:8208   */\n      dup2\n        /* \"#utility.yul\":8199:8229   */\n      gt\n        /* \"#utility.yul\":8196:8313   */\n      iszero\n      tag_563\n      jumpi\n        /* \"#utility.yul\":8232:8311   */\n      tag_564\n      tag_413\n      jump\t// in\n    tag_564:\n        /* \"#utility.yul\":8196:8313   */\n    tag_563:\n        /* \"#utility.yul\":8337:8400   */\n      tag_565\n        /* \"#utility.yul\":8392:8399   */\n      dup5\n        /* \"#utility.yul\":8383:8389   */\n      dup3\n        /* \"#utility.yul\":8372:8381   */\n      dup6\n        /* \"#utility.yul\":8368:8390   */\n      add\n        /* \"#utility.yul\":8337:8400   */\n      tag_434\n      jump\t// in\n    tag_565:\n        /* \"#utility.yul\":8327:8400   */\n      swap2\n      pop\n        /* \"#utility.yul\":8123:8410   */\n      pop\n        /* \"#utility.yul\":7908:8417   */\n      swap3\n      swap2\n      pop\n      pop\n      jump\t// out\n        /* \"#utility.yul\":8423:8537   */\n    tag_435:\n        /* \"#utility.yul\":8490:8496   */\n      0x00\n        /* \"#utility.yul\":8524:8529   */\n      dup2\n        /* \"#utility.yul\":8518:8530   */\n      mload\n        /* \"#utility.yul\":8508:8530   */\n      swap1\n      pop\n        /* \"#utility.yul\":8423:8537   */\n      swap2\n      swap1\n      pop\n      jump\t// out\n        /* \"#utility.yul\":8543:8735   */\n    tag_436:\n        /* \"#utility.yul\":8650:8661   */\n      0x00\n        /* \"#utility.yul\":8684:8690   */\n      dup3\n        /* \"#utility.yul\":8679:8682   */\n      dup3\n        /* \"#utility.yul\":8672:8691   */\n      mstore\n        /* \"#utility.yul\":8724:8728   */\n      0x20\n        /* \"#utility.yul\":8719:8722   */\n      dup3\n        /* \"#utility.yul\":8715:8729   */\n      add\n        /* \"#utility.yul\":8700:8729   */\n      swap1\n      pop\n        /* \"#utility.yul\":8543:8735   */\n      swap3\n      swap2\n      pop\n      pop\n      jump\t// out\n        /* \"#utility.yul\":8741:8873   */\n    tag_437:\n        /* \"#utility.yul\":8808:8812   */\n      0x00\n        /* \"#utility.yul\":8831:8834   */\n      dup2\n        /* \"#utility.yul\":8823:8834   */\n      swap1\n      pop\n        /* \"#utility.yul\":8861:8865   */\n      0x20\n        /* \"#utility.yul\":8856:8859   */\n      dup3\n        /* \"#utility.yul\":8852:8866   */\n      add\n        /* \"#utility.yul\":8844:8866   */\n      swap1\n      pop\n        /* \"#utility.yul\":8741:8873   */\n      swap2\n      swap1\n      pop\n      jump\t// out\n        /* \"#utility.yul\":8879:8995   */\n    tag_438:\n        /* \"#utility.yul\":8964:8988   */\n      tag_570\n        /* \"#utility.yul\":8982:8987   */\n      dup2\n        /* \"#utility.yul\":8964:8988   */\n      tag_418\n      jump\t// in\n    tag_570:\n        /* \"#utility.yul\":8959:8962   */\n      dup3\n        /* \"#utility.yul\":8952:8989   */\n      mstore\n        /* \"#utility.yul\":8879:8995   */\n      pop\n      pop\n      jump\t// out\n        /* \"#utility.yul\":9001:9196   */\n    tag_439:\n        /* \"#utility.yul\":9078:9088   */\n      0x00\n        /* \"#utility.yul\":9099:9153   */\n      tag_572\n        /* \"#utility.yul\":9149:9152   */\n      dup4\n        /* \"#utility.yul\":9141:9147   */\n      dup4\n        /* \"#utility.yul\":9099:9153   */\n      tag_438\n      jump\t// in\n    tag_572:\n        /* \"#utility.yul\":9185:9189   */\n      0x20\n        /* \"#utility.yul\":9180:9183   */\n      dup4\n        /* \"#utility.yul\":9176:9190   */\n      add\n        /* \"#utility.yul\":9162:9190   */\n      swap1\n      pop\n        /* \"#utility.yul\":9001:9196   */\n      swap3\n      swap2\n      pop\n      pop\n      jump\t// out\n        /* \"#utility.yul\":9202:9315   */\n    tag_440:\n        /* \"#utility.yul\":9272:9276   */\n      0x00\n        /* \"#utility.yul\":9304:9308   */\n      0x20\n        /* \"#utility.yul\":9299:9302   */\n      dup3\n        /* \"#utility.yul\":9295:9309   */\n      add\n        /* \"#utility.yul\":9287:9309   */\n      swap1\n      pop\n        /* \"#utility.yul\":9202:9315   */\n      swap2\n      swap1\n      pop\n      jump\t// out\n        /* \"#utility.yul\":9351:10107   */\n    tag_441:\n        /* \"#utility.yul\":9478:9481   */\n      0x00\n        /* \"#utility.yul\":9507:9561   */\n      tag_575\n        /* \"#utility.yul\":9555:9560   */\n      dup3\n        /* \"#utility.yul\":9507:9561   */\n      tag_435\n      jump\t// in\n    tag_575:\n        /* \"#utility.yul\":9577:9671   */\n      tag_576\n        /* \"#utility.yul\":9664:9670   */\n      dup2\n        /* \"#utility.yul\":9659:9662   */\n      dup6\n        /* \"#utility.yul\":9577:9671   */\n      tag_436\n      jump\t// in\n    tag_576:\n        /* \"#utility.yul\":9570:9671   */\n      swap4\n      pop\n        /* \"#utility.yul\":9695:9751   */\n      tag_577\n        /* \"#utility.yul\":9745:9750   */\n      dup4\n        /* \"#utility.yul\":9695:9751   */\n      tag_437\n      jump\t// in\n    tag_577:\n        /* \"#utility.yul\":9774:9781   */\n      dup1\n        /* \"#utility.yul\":9805:9806   */\n      0x00\n        /* \"#utility.yul\":9790:10082   */\n    tag_578:\n        /* \"#utility.yul\":9815:9821   */\n      dup4\n        /* \"#utility.yul\":9812:9813   */\n      dup2\n        /* \"#utility.yul\":9809:9822   */\n      lt\n        /* \"#utility.yul\":9790:10082   */\n      iszero\n      tag_580\n      jumpi\n        /* \"#utility.yul\":9891:9897   */\n      dup2\n        /* \"#utility.yul\":9885:9898   */\n      mload\n        /* \"#utility.yul\":9918:9989   */\n      tag_581\n        /* \"#utility.yul\":9985:9988   */\n      dup9\n        /* \"#utility.yul\":9970:9983   */\n      dup3\n        /* \"#utility.yul\":9918:9989   */\n      tag_439\n      jump\t// in\n    tag_581:\n        /* \"#utility.yul\":9911:9989   */\n      swap8\n      pop\n        /* \"#utility.yul\":10012:10072   */\n      tag_582\n        /* \"#utility.yul\":10065:10071   */\n      dup4\n        /* \"#utility.yul\":10012:10072   */\n      tag_440\n      jump\t// in\n    tag_582:\n        /* \"#utility.yul\":10002:10072   */\n      swap3\n      pop\n        /* \"#utility.yul\":9850:10082   */\n      pop\n        /* \"#utility.yul\":9837:9838   */\n      0x01\n        /* \"#utility.yul\":9834:9835   */\n      dup2\n        /* \"#utility.yul\":9830:9839   */\n      add\n        /* \"#utility.yul\":9825:9839   */\n      swap1\n      pop\n        /* \"#utility.yul\":9790:10082   */\n      jump(tag_578)\n    tag_580:\n        /* \"#utility.yul\":9794:9808   */\n      pop\n        /* \"#utility.yul\":10098:10101   */\n      dup6\n        /* \"#utility.yul\":10091:10101   */\n      swap4\n      pop\n        /* \"#utility.yul\":9483:10107   */\n      pop\n      pop\n      pop\n        /* \"#utility.yul\":9351:10107   */\n      swap3\n      swap2\n      pop\n      pop\n      jump\t// out\n        /* \"#utility.yul\":10113:10502   */\n    tag_139:\n        /* \"#utility.yul\":10264:10268   */\n      0x00\n        /* \"#utility.yul\":10302:10304   */\n      0x20\n        /* \"#utility.yul\":10291:10300   */\n      dup3\n        /* \"#utility.yul\":10287:10305   */\n      add\n        /* \"#utility.yul\":10279:10305   */\n      swap1\n      pop\n        /* \"#utility.yul\":10351:10360   */\n      dup2\n        /* \"#utility.yul\":10345:10349   */\n      dup2\n        /* \"#utility.yul\":10341:10361   */\n      sub\n        /* \"#utility.yul\":10337:10338   */\n      0x00\n        /* \"#utility.yul\":10326:10335   */\n      dup4\n        /* \"#utility.yul\":10322:10339   */\n      add\n        /* \"#utility.yul\":10315:10362   */\n      mstore\n        /* \"#utility.yul\":10379:10495   */\n      tag_584\n        /* \"#utility.yul\":10490:10494   */\n      dup2\n        /* \"#utility.yul\":10481:10487   */\n      dup5\n        /* \"#utility.yul\":10379:10495   */\n      tag_441\n      jump\t// in\n    tag_584:\n        /* \"#utility.yul\":10371:10495   */\n      swap1\n      pop\n        /* \"#utility.yul\":10113:10502   */\n      swap3\n      swap2\n      pop\n      pop\n      jump\t// out\n        /* \"#utility.yul\":10508:10598   */\n    tag_442:\n        /* \"#utility.yul\":10542:10549   */\n      0x00\n        /* \"#utility.yul\":10585:10590   */\n      dup2\n        /* \"#utility.yul\":10578:10591   */\n      iszero\n        /* \"#utility.yul\":10571:10592   */\n      iszero\n        /* \"#utility.yul\":10560:10592   */\n      swap1\n      pop\n        /* \"#utility.yul\":10508:10598   */\n      swap2\n      swap1\n      pop\n      jump\t// out\n        /* \"#utility.yul\":10604:10720   */\n    tag_443:\n        /* \"#utility.yul\":10674:10695   */\n      tag_587\n        /* \"#utility.yul\":10689:10694   */\n      dup2\n        /* \"#utility.yul\":10674:10695   */\n      tag_442\n      jump\t// in\n    tag_587:\n        /* \"#utility.yul\":10667:10672   */\n      dup2\n        /* \"#utility.yul\":10664:10696   */\n      eq\n        /* \"#utility.yul\":10654:10714   */\n      tag_588\n      jumpi\n        /* \"#utility.yul\":10710:10711   */\n      0x00\n        /* \"#utility.yul\":10707:10708   */\n      dup1\n        /* \"#utility.yul\":10700:10712   */\n      revert\n        /* \"#utility.yul\":10654:10714   */\n    tag_588:\n        /* \"#utility.yul\":10604:10720   */\n      pop\n      jump\t// out\n        /* \"#utility.yul\":10726:10859   */\n    tag_444:\n        /* \"#utility.yul\":10769:10774   */\n      0x00\n        /* \"#utility.yul\":10807:10813   */\n      dup2\n        /* \"#utility.yul\":10794:10814   */\n      calldataload\n        /* \"#utility.yul\":10785:10814   */\n      swap1\n      pop\n        /* \"#utility.yul\":10823:10853   */\n      tag_590\n        /* \"#utility.yul\":10847:10852   */\n      dup2\n        /* \"#utility.yul\":10823:10853   */\n      tag_443\n      jump\t// in\n    tag_590:\n        /* \"#utility.yul\":10726:10859   */\n      swap3\n      swap2\n      pop\n      pop\n      jump\t// out\n        /* \"#utility.yul\":10865:11478   */\n    tag_154:\n        /* \"#utility.yul\":10939:10945   */\n      0x00\n        /* \"#utility.yul\":10947:10953   */\n      dup1\n        /* \"#utility.yul\":10955:10961   */\n      0x00\n        /* \"#utility.yul\":11004:11006   */\n      0x60\n        /* \"#utility.yul\":10992:11001   */\n      dup5\n        /* \"#utility.yul\":10983:10990   */\n      dup7\n        /* \"#utility.yul\":10979:11002   */\n      sub\n        /* \"#utility.yul\":10975:11007   */\n      slt\n        /* \"#utility.yul\":10972:11091   */\n      iszero\n      tag_592\n      jumpi\n        /* \"#utility.yul\":11010:11089   */\n      tag_593\n      tag_412\n      jump\t// in\n    tag_593:\n        /* \"#utility.yul\":10972:11091   */\n    tag_592:\n        /* \"#utility.yul\":11130:11131   */\n      0x00\n        /* \"#utility.yul\":11155:11208   */\n      tag_594\n        /* \"#utility.yul\":11200:11207   */\n      dup7\n        /* \"#utility.yul\":11191:11197   */\n      dup3\n        /* \"#utility.yul\":11180:11189   */\n      dup8\n        /* \"#utility.yul\":11176:11198   */\n      add\n        /* \"#utility.yul\":11155:11208   */\n      tag_417\n      jump\t// in\n    tag_594:\n        /* \"#utility.yul\":11145:11208   */\n      swap4\n      pop\n        /* \"#utility.yul\":11101:11218   */\n      pop\n        /* \"#utility.yul\":11257:11259   */\n      0x20\n        /* \"#utility.yul\":11283:11336   */\n      tag_595\n        /* \"#utility.yul\":11328:11335   */\n      dup7\n        /* \"#utility.yul\":11319:11325   */\n      dup3\n        /* \"#utility.yul\":11308:11317   */\n      dup8\n        /* \"#utility.yul\":11304:11326   */\n      add\n        /* \"#utility.yul\":11283:11336   */\n      tag_417\n      jump\t// in\n    tag_595:\n        /* \"#utility.yul\":11273:11336   */\n      swap3\n      pop\n        /* \"#utility.yul\":11228:11346   */\n      pop\n        /* \"#utility.yul\":11385:11387   */\n      0x40\n        /* \"#utility.yul\":11411:11461   */\n      tag_596\n        /* \"#utility.yul\":11453:11460   */\n      dup7\n        /* \"#utility.yul\":11444:11450   */\n      dup3\n        /* \"#utility.yul\":11433:11442   */\n      dup8\n        /* \"#utility.yul\":11429:11451   */\n      add\n        /* \"#utility.yul\":11411:11461   */\n      tag_444\n      jump\t// in\n    tag_596:\n        /* \"#utility.yul\":11401:11461   */\n      swap2\n      pop\n        /* \"#utility.yul\":11356:11471   */\n      pop\n        /* \"#utility.yul\":10865:11478   */\n      swap3\n      pop\n      swap3\n      pop\n      swap3\n      jump\t// out\n        /* \"#utility.yul\":11484:11958   */\n    tag_183:\n        /* \"#utility.yul\":11552:11558   */\n      0x00\n        /* \"#utility.yul\":11560:11566   */\n      dup1\n        /* \"#utility.yul\":11609:11611   */\n      0x40\n        /* \"#utility.yul\":11597:11606   */\n      dup4\n        /* \"#utility.yul\":11588:11595   */\n      dup6\n        /* \"#utility.yul\":11584:11607   */\n      sub\n        /* \"#utility.yul\":11580:11612   */\n      slt\n        /* \"#utility.yul\":11577:11696   */\n      iszero\n      tag_598\n      jumpi\n        /* \"#utility.yul\":11615:11694   */\n      tag_599\n      tag_412\n      jump\t// in\n    tag_599:\n        /* \"#utility.yul\":11577:11696   */\n    tag_598:\n        /* \"#utility.yul\":11735:11736   */\n      0x00\n        /* \"#utility.yul\":11760:11813   */\n      tag_600\n        /* \"#utility.yul\":11805:11812   */\n      dup6\n        /* \"#utility.yul\":11796:11802   */\n      dup3\n        /* \"#utility.yul\":11785:11794   */\n      dup7\n        /* \"#utility.yul\":11781:11803   */\n      add\n        /* \"#utility.yul\":11760:11813   */\n      tag_417\n      jump\t// in\n    tag_600:\n        /* \"#utility.yul\":11750:11813   */\n      swap3\n      pop\n        /* \"#utility.yul\":11706:11823   */\n      pop\n        /* \"#utility.yul\":11862:11864   */\n      0x20\n        /* \"#utility.yul\":11888:11941   */\n      tag_601\n        /* \"#utility.yul\":11933:11940   */\n      dup6\n        /* \"#utility.yul\":11924:11930   */\n      dup3\n        /* \"#utility.yul\":11913:11922   */\n      dup7\n        /* \"#utility.yul\":11909:11931   */\n      add\n        /* \"#utility.yul\":11888:11941   */\n      tag_420\n      jump\t// in\n    tag_601:\n        /* \"#utility.yul\":11878:11941   */\n      swap2\n      pop\n        /* \"#utility.yul\":11833:11951   */\n      pop\n        /* \"#utility.yul\":11484:11958   */\n      swap3\n      pop\n      swap3\n      swap1\n      pop\n      jump\t// out\n        /* \"#utility.yul\":11964:12080   */\n    tag_445:\n        /* \"#utility.yul\":12049:12073   */\n      tag_603\n        /* \"#utility.yul\":12067:12072   */\n      dup2\n        /* \"#utility.yul\":12049:12073   */\n      tag_415\n      jump\t// in\n    tag_603:\n        /* \"#utility.yul\":12044:12047   */\n      dup3\n        /* \"#utility.yul\":12037:12074   */\n      mstore\n        /* \"#utility.yul\":11964:12080   */\n      pop\n      pop\n      jump\t// out\n        /* \"#utility.yul\":12172:12536   */\n    tag_446:\n        /* \"#utility.yul\":12341:12345   */\n      0x20\n        /* \"#utility.yul\":12336:12339   */\n      dup3\n        /* \"#utility.yul\":12332:12346   */\n      add\n        /* \"#utility.yul\":12429:12433   */\n      0x00\n        /* \"#utility.yul\":12422:12427   */\n      dup3\n        /* \"#utility.yul\":12418:12434   */\n      add\n        /* \"#utility.yul\":12412:12435   */\n      mload\n        /* \"#utility.yul\":12448:12519   */\n      tag_605\n        /* \"#utility.yul\":12513:12517   */\n      0x00\n        /* \"#utility.yul\":12508:12511   */\n      dup6\n        /* \"#utility.yul\":12504:12518   */\n      add\n        /* \"#utility.yul\":12490:12502   */\n      dup3\n        /* \"#utility.yul\":12448:12519   */\n      tag_445\n      jump\t// in\n    tag_605:\n        /* \"#utility.yul\":12356:12529   */\n      pop\n        /* \"#utility.yul\":12310:12536   */\n      pop\n        /* \"#utility.yul\":12172:12536   */\n      pop\n      pop\n      jump\t// out\n        /* \"#utility.yul\":12542:12908   */\n    tag_189:\n        /* \"#utility.yul\":12707:12711   */\n      0x00\n        /* \"#utility.yul\":12745:12747   */\n      0x20\n        /* \"#utility.yul\":12734:12743   */\n      dup3\n        /* \"#utility.yul\":12730:12748   */\n      add\n        /* \"#utility.yul\":12722:12748   */\n      swap1\n      pop\n        /* \"#utility.yul\":12758:12901   */\n      tag_607\n        /* \"#utility.yul\":12898:12899   */\n      0x00\n        /* \"#utility.yul\":12887:12896   */\n      dup4\n        /* \"#utility.yul\":12883:12900   */\n      add\n        /* \"#utility.yul\":12874:12880   */\n      dup5\n        /* \"#utility.yul\":12758:12901   */\n      tag_446\n      jump\t// in\n    tag_607:\n        /* \"#utility.yul\":12542:12908   */\n      swap3\n      swap2\n      pop\n      pop\n      jump\t// out\n        /* \"#utility.yul\":12914:13388   */\n    tag_193:\n        /* \"#utility.yul\":12982:12988   */\n      0x00\n        /* \"#utility.yul\":12990:12996   */\n      dup1\n        /* \"#utility.yul\":13039:13041   */\n      0x40\n        /* \"#utility.yul\":13027:13036   */\n      dup4\n        /* \"#utility.yul\":13018:13025   */\n      dup6\n        /* \"#utility.yul\":13014:13037   */\n      sub\n        /* \"#utility.yul\":13010:13042   */\n      slt\n        /* \"#utility.yul\":13007:13126   */\n      iszero\n      tag_609\n      jumpi\n        /* \"#utility.yul\":13045:13124   */\n      tag_610\n      tag_412\n      jump\t// in\n    tag_610:\n        /* \"#utility.yul\":13007:13126   */\n    tag_609:\n        /* \"#utility.yul\":13165:13166   */\n      0x00\n        /* \"#utility.yul\":13190:13243   */\n      tag_611\n        /* \"#utility.yul\":13235:13242   */\n      dup6\n        /* \"#utility.yul\":13226:13232   */\n      dup3\n        /* \"#utility.yul\":13215:13224   */\n      dup7\n        /* \"#utility.yul\":13211:13233   */\n      add\n        /* \"#utility.yul\":13190:13243   */\n      tag_420\n      jump\t// in\n    tag_611:\n        /* \"#utility.yul\":13180:13243   */\n      swap3\n      pop\n        /* \"#utility.yul\":13136:13253   */\n      pop\n        /* \"#utility.yul\":13292:13294   */\n      0x20\n        /* \"#utility.yul\":13318:13371   */\n      tag_612\n        /* \"#utility.yul\":13363:13370   */\n      dup6\n        /* \"#utility.yul\":13354:13360   */\n      dup3\n        /* \"#utility.yul\":13343:13352   */\n      dup7\n        /* \"#utility.yul\":13339:13361   */\n      add\n        /* \"#utility.yul\":13318:13371   */\n      tag_420\n      jump\t// in\n    tag_612:\n        /* \"#utility.yul\":13308:13371   */\n      swap2\n      pop\n        /* \"#utility.yul\":13263:13381   */\n      pop\n        /* \"#utility.yul\":12914:13388   */\n      swap3\n      pop\n      swap3\n      swap1\n      pop\n      jump\t// out\n        /* \"#utility.yul\":13394:13862   */\n    tag_198:\n        /* \"#utility.yul\":13459:13465   */\n      0x00\n        /* \"#utility.yul\":13467:13473   */\n      dup1\n        /* \"#utility.yul\":13516:13518   */\n      0x40\n        /* \"#utility.yul\":13504:13513   */\n      dup4\n        /* \"#utility.yul\":13495:13502   */\n      dup6\n        /* \"#utility.yul\":13491:13514   */\n      sub\n        /* \"#utility.yul\":13487:13519   */\n      slt\n        /* \"#utility.yul\":13484:13603   */\n      iszero\n      tag_614\n      jumpi\n        /* \"#utility.yul\":13522:13601   */\n      tag_615\n      tag_412\n      jump\t// in\n    tag_615:\n        /* \"#utility.yul\":13484:13603   */\n    tag_614:\n        /* \"#utility.yul\":13642:13643   */\n      0x00\n        /* \"#utility.yul\":13667:13720   */\n      tag_616\n        /* \"#utility.yul\":13712:13719   */\n      dup6\n        /* \"#utility.yul\":13703:13709   */\n      dup3\n        /* \"#utility.yul\":13692:13701   */\n      dup7\n        /* \"#utility.yul\":13688:13710   */\n      add\n        /* \"#utility.yul\":13667:13720   */\n      tag_417\n      jump\t// in\n    tag_616:\n        /* \"#utility.yul\":13657:13720   */\n      swap3\n      pop\n        /* \"#utility.yul\":13613:13730   */\n      pop\n        /* \"#utility.yul\":13769:13771   */\n      0x20\n        /* \"#utility.yul\":13795:13845   */\n      tag_617\n        /* \"#utility.yul\":13837:13844   */\n      dup6\n        /* \"#utility.yul\":13828:13834   */\n      dup3\n        /* \"#utility.yul\":13817:13826   */\n      dup7\n        /* \"#utility.yul\":13813:13835   */\n      add\n        /* \"#utility.yul\":13795:13845   */\n      tag_444\n      jump\t// in\n    tag_617:\n        /* \"#utility.yul\":13785:13845   */\n      swap2\n      pop\n        /* \"#utility.yul\":13740:13855   */\n      pop\n        /* \"#utility.yul\":13394:13862   */\n      swap3\n      pop\n      swap3\n      swap1\n      pop\n      jump\t// out\n        /* \"#utility.yul\":13868:13985   */\n    tag_447:\n        /* \"#utility.yul\":13957:13978   */\n      tag_619\n        /* \"#utility.yul\":13972:13977   */\n      dup2\n        /* \"#utility.yul\":13957:13978   */\n      tag_442\n      jump\t// in\n    tag_619:\n        /* \"#utility.yul\":13952:13955   */\n      dup3\n        /* \"#utility.yul\":13945:13979   */\n      mstore\n        /* \"#utility.yul\":13868:13985   */\n      pop\n      pop\n      jump\t// out\n        /* \"#utility.yul\":13991:14217   */\n    tag_204:\n        /* \"#utility.yul\":14086:14090   */\n      0x00\n        /* \"#utility.yul\":14124:14126   */\n      0x20\n        /* \"#utility.yul\":14113:14122   */\n      dup3\n        /* \"#utility.yul\":14109:14127   */\n      add\n        /* \"#utility.yul\":14101:14127   */\n      swap1\n      pop\n        /* \"#utility.yul\":14137:14210   */\n      tag_621\n        /* \"#utility.yul\":14207:14208   */\n      0x00\n        /* \"#utility.yul\":14196:14205   */\n      dup4\n        /* \"#utility.yul\":14192:14209   */\n      add\n        /* \"#utility.yul\":14183:14189   */\n      dup5\n        /* \"#utility.yul\":14137:14210   */\n      tag_447\n      jump\t// in\n    tag_621:\n        /* \"#utility.yul\":13991:14217   */\n      swap3\n      swap2\n      pop\n      pop\n      jump\t// out\n        /* \"#utility.yul\":14223:14877   */\n    tag_221:\n        /* \"#utility.yul\":14301:14307   */\n      0x00\n        /* \"#utility.yul\":14309:14315   */\n      dup1\n        /* \"#utility.yul\":14358:14360   */\n      0x40\n        /* \"#utility.yul\":14346:14355   */\n      dup4\n        /* \"#utility.yul\":14337:14344   */\n      dup6\n        /* \"#utility.yul\":14333:14356   */\n      sub\n        /* \"#utility.yul\":14329:14361   */\n      slt\n        /* \"#utility.yul\":14326:14445   */\n      iszero\n      tag_623\n      jumpi\n        /* \"#utility.yul\":14364:14443   */\n      tag_624\n      tag_412\n      jump\t// in\n    tag_624:\n        /* \"#utility.yul\":14326:14445   */\n    tag_623:\n        /* \"#utility.yul\":14512:14513   */\n      0x00\n        /* \"#utility.yul\":14501:14510   */\n      dup4\n        /* \"#utility.yul\":14497:14514   */\n      add\n        /* \"#utility.yul\":14484:14515   */\n      calldataload\n        /* \"#utility.yul\":14542:14560   */\n      0xffffffffffffffff\n        /* \"#utility.yul\":14534:14540   */\n      dup2\n        /* \"#utility.yul\":14531:14561   */\n      gt\n        /* \"#utility.yul\":14528:14645   */\n      iszero\n      tag_625\n      jumpi\n        /* \"#utility.yul\":14564:14643   */\n      tag_626\n      tag_413\n      jump\t// in\n    tag_626:\n        /* \"#utility.yul\":14528:14645   */\n    tag_625:\n        /* \"#utility.yul\":14669:14732   */\n      tag_627\n        /* \"#utility.yul\":14724:14731   */\n      dup6\n        /* \"#utility.yul\":14715:14721   */\n      dup3\n        /* \"#utility.yul\":14704:14713   */\n      dup7\n        /* \"#utility.yul\":14700:14722   */\n      add\n        /* \"#utility.yul\":14669:14732   */\n      tag_434\n      jump\t// in\n    tag_627:\n        /* \"#utility.yul\":14659:14732   */\n      swap3\n      pop\n        /* \"#utility.yul\":14455:14742   */\n      pop\n        /* \"#utility.yul\":14781:14783   */\n      0x20\n        /* \"#utility.yul\":14807:14860   */\n      tag_628\n        /* \"#utility.yul\":14852:14859   */\n      dup6\n        /* \"#utility.yul\":14843:14849   */\n      dup3\n        /* \"#utility.yul\":14832:14841   */\n      dup7\n        /* \"#utility.yul\":14828:14850   */\n      add\n        /* \"#utility.yul\":14807:14860   */\n      tag_420\n      jump\t// in\n    tag_628:\n        /* \"#utility.yul\":14797:14860   */\n      swap2\n      pop\n        /* \"#utility.yul\":14752:14870   */\n      pop\n        /* \"#utility.yul\":14223:14877   */\n      swap3\n      pop\n      swap3\n      swap1\n      pop\n      jump\t// out\n        /* \"#utility.yul\":14883:15357   */\n    tag_233:\n        /* \"#utility.yul\":14951:14957   */\n      0x00\n        /* \"#utility.yul\":14959:14965   */\n      dup1\n        /* \"#utility.yul\":15008:15010   */\n      0x40\n        /* \"#utility.yul\":14996:15005   */\n      dup4\n        /* \"#utility.yul\":14987:14994   */\n      dup6\n        /* \"#utility.yul\":14983:15006   */\n      sub\n        /* \"#utility.yul\":14979:15011   */\n      slt\n        /* \"#utility.yul\":14976:15095   */\n      iszero\n      tag_630\n      jumpi\n        /* \"#utility.yul\":15014:15093   */\n      tag_631\n      tag_412\n      jump\t// in\n    tag_631:\n        /* \"#utility.yul\":14976:15095   */\n    tag_630:\n        /* \"#utility.yul\":15134:15135   */\n      0x00\n        /* \"#utility.yul\":15159:15212   */\n      tag_632\n        /* \"#utility.yul\":15204:15211   */\n      dup6\n        /* \"#utility.yul\":15195:15201   */\n      dup3\n        /* \"#utility.yul\":15184:15193   */\n      dup7\n        /* \"#utility.yul\":15180:15202   */\n      add\n        /* \"#utility.yul\":15159:15212   */\n      tag_417\n      jump\t// in\n    tag_632:\n        /* \"#utility.yul\":15149:15212   */\n      swap3\n      pop\n        /* \"#utility.yul\":15105:15222   */\n      pop\n        /* \"#utility.yul\":15261:15263   */\n      0x20\n        /* \"#utility.yul\":15287:15340   */\n      tag_633\n        /* \"#utility.yul\":15332:15339   */\n      dup6\n        /* \"#utility.yul\":15323:15329   */\n      dup3\n        /* \"#utility.yul\":15312:15321   */\n      dup7\n        /* \"#utility.yul\":15308:15330   */\n      add\n        /* \"#utility.yul\":15287:15340   */\n      tag_417\n      jump\t// in\n    tag_633:\n        /* \"#utility.yul\":15277:15340   */\n      swap2\n      pop\n        /* \"#utility.yul\":15232:15350   */\n      pop\n        /* \"#utility.yul\":14883:15357   */\n      swap3\n      pop\n      swap3\n      swap1\n      pop\n      jump\t// out\n        /* \"#utility.yul\":15363:15489   */\n    tag_448:\n        /* \"#utility.yul\":15458:15482   */\n      tag_635\n        /* \"#utility.yul\":15476:15481   */\n      dup2\n        /* \"#utility.yul\":15458:15482   */\n      tag_415\n      jump\t// in\n    tag_635:\n        /* \"#utility.yul\":15453:15456   */\n      dup3\n        /* \"#utility.yul\":15446:15483   */\n      mstore\n        /* \"#utility.yul\":15363:15489   */\n      pop\n      pop\n      jump\t// out\n        /* \"#utility.yul\":15495:15851   */\n    tag_240:\n        /* \"#utility.yul\":15624:15628   */\n      0x00\n        /* \"#utility.yul\":15662:15664   */\n      0x40\n        /* \"#utility.yul\":15651:15660   */\n      dup3\n        /* \"#utility.yul\":15647:15665   */\n      add\n        /* \"#utility.yul\":15639:15665   */\n      swap1\n      pop\n        /* \"#utility.yul\":15675:15754   */\n      tag_637\n        /* \"#utility.yul\":15751:15752   */\n      0x00\n        /* \"#utility.yul\":15740:15749   */\n      dup4\n        /* \"#utility.yul\":15736:15753   */\n      add\n        /* \"#utility.yul\":15727:15733   */\n      dup6\n        /* \"#utility.yul\":15675:15754   */\n      tag_423\n      jump\t// in\n    tag_637:\n        /* \"#utility.yul\":15764:15844   */\n      tag_638\n        /* \"#utility.yul\":15840:15842   */\n      0x20\n        /* \"#utility.yul\":15829:15838   */\n      dup4\n        /* \"#utility.yul\":15825:15843   */\n      add\n        /* \"#utility.yul\":15816:15822   */\n      dup5\n        /* \"#utility.yul\":15764:15844   */\n      tag_448\n      jump\t// in\n    tag_638:\n        /* \"#utility.yul\":15495:15851   */\n      swap4\n      swap3\n      pop\n      pop\n      pop\n      jump\t// out\n        /* \"#utility.yul\":15857:16037   */\n    tag_449:\n        /* \"#utility.yul\":15905:15982   */\n      0x4e487b7100000000000000000000000000000000000000000000000000000000\n        /* \"#utility.yul\":15902:15903   */\n      0x00\n        /* \"#utility.yul\":15895:15983   */\n      mstore\n        /* \"#utility.yul\":16002:16006   */\n      0x22\n        /* \"#utility.yul\":15999:16000   */\n      0x04\n        /* \"#utility.yul\":15992:16007   */\n      mstore\n        /* \"#utility.yul\":16026:16030   */\n      0x24\n        /* \"#utility.yul\":16023:16024   */\n      0x00\n        /* \"#utility.yul\":16016:16031   */\n      revert\n        /* \"#utility.yul\":16043:16363   */\n    tag_248:\n        /* \"#utility.yul\":16087:16093   */\n      0x00\n        /* \"#utility.yul\":16124:16125   */\n      0x02\n        /* \"#utility.yul\":16118:16122   */\n      dup3\n        /* \"#utility.yul\":16114:16126   */\n      div\n        /* \"#utility.yul\":16104:16126   */\n      swap1\n      pop\n        /* \"#utility.yul\":16171:16172   */\n      0x01\n        /* \"#utility.yul\":16165:16169   */\n      dup3\n        /* \"#utility.yul\":16161:16173   */\n      and\n        /* \"#utility.yul\":16192:16210   */\n      dup1\n        /* \"#utility.yul\":16182:16263   */\n      tag_641\n      jumpi\n        /* \"#utility.yul\":16248:16252   */\n      0x7f\n        /* \"#utility.yul\":16240:16246   */\n      dup3\n        /* \"#utility.yul\":16236:16253   */\n      and\n        /* \"#utility.yul\":16226:16253   */\n      swap2\n      pop\n        /* \"#utility.yul\":16182:16263   */\n    tag_641:\n        /* \"#utility.yul\":16310:16312   */\n      0x20\n        /* \"#utility.yul\":16302:16308   */\n      dup3\n        /* \"#utility.yul\":16299:16313   */\n      lt\n        /* \"#utility.yul\":16279:16297   */\n      dup2\n        /* \"#utility.yul\":16276:16314   */\n      sub\n        /* \"#utility.yul\":16273:16357   */\n      tag_642\n      jumpi\n        /* \"#utility.yul\":16329:16347   */\n      tag_643\n      tag_449\n      jump\t// in\n    tag_643:\n        /* \"#utility.yul\":16273:16357   */\n    tag_642:\n        /* \"#utility.yul\":16094:16363   */\n      pop\n        /* \"#utility.yul\":16043:16363   */\n      swap2\n      swap1\n      pop\n      jump\t// out\n        /* \"#utility.yul\":16369:16549   */\n    tag_450:\n        /* \"#utility.yul\":16417:16494   */\n      0x4e487b7100000000000000000000000000000000000000000000000000000000\n        /* \"#utility.yul\":16414:16415   */\n      0x00\n        /* \"#utility.yul\":16407:16495   */\n      mstore\n        /* \"#utility.yul\":16514:16518   */\n      0x11\n        /* \"#utility.yul\":16511:16512   */\n      0x04\n        /* \"#utility.yul\":16504:16519   */\n      mstore\n        /* \"#utility.yul\":16538:16542   */\n      0x24\n        /* \"#utility.yul\":16535:16536   */\n      0x00\n        /* \"#utility.yul\":16528:16543   */\n      revert\n        /* \"#utility.yul\":16555:16749   */\n    tag_282:\n        /* \"#utility.yul\":16595:16599   */\n      0x00\n        /* \"#utility.yul\":16615:16635   */\n      tag_646\n        /* \"#utility.yul\":16633:16634   */\n      dup3\n        /* \"#utility.yul\":16615:16635   */\n      tag_418\n      jump\t// in\n    tag_646:\n        /* \"#utility.yul\":16610:16635   */\n      swap2\n      pop\n        /* \"#utility.yul\":16649:16669   */\n      tag_647\n        /* \"#utility.yul\":16667:16668   */\n      dup4\n        /* \"#utility.yul\":16649:16669   */\n      tag_418\n      jump\t// in\n    tag_647:\n        /* \"#utility.yul\":16644:16669   */\n      swap3\n      pop\n        /* \"#utility.yul\":16693:16694   */\n      dup3\n        /* \"#utility.yul\":16690:16691   */\n      dup3\n        /* \"#utility.yul\":16686:16695   */\n      sub\n        /* \"#utility.yul\":16678:16695   */\n      swap1\n      pop\n        /* \"#utility.yul\":16717:16718   */\n      dup2\n        /* \"#utility.yul\":16711:16715   */\n      dup2\n        /* \"#utility.yul\":16708:16719   */\n      gt\n        /* \"#utility.yul\":16705:16742   */\n      iszero\n      tag_648\n      jumpi\n        /* \"#utility.yul\":16722:16740   */\n      tag_649\n      tag_450\n      jump\t// in\n    tag_649:\n        /* \"#utility.yul\":16705:16742   */\n    tag_648:\n        /* \"#utility.yul\":16555:16749   */\n      swap3\n      swap2\n      pop\n      pop\n      jump\t// out\n        /* \"#utility.yul\":16755:16935   */\n    tag_287:\n        /* \"#utility.yul\":16803:16880   */\n      0x4e487b7100000000000000000000000000000000000000000000000000000000\n        /* \"#utility.yul\":16800:16801   */\n      0x00\n        /* \"#utility.yul\":16793:16881   */\n      mstore\n        /* \"#utility.yul\":16900:16904   */\n      0x32\n        /* \"#utility.yul\":16897:16898   */\n      0x04\n        /* \"#utility.yul\":16890:16905   */\n      mstore\n        /* \"#utility.yul\":16924:16928   */\n      0x24\n        /* \"#utility.yul\":16921:16922   */\n      0x00\n        /* \"#utility.yul\":16914:16929   */\n      revert\n        /* \"#utility.yul\":16941:17121   */\n    tag_298:\n        /* \"#utility.yul\":16989:17066   */\n      0x4e487b7100000000000000000000000000000000000000000000000000000000\n        /* \"#utility.yul\":16986:16987   */\n      0x00\n        /* \"#utility.yul\":16979:17067   */\n      mstore\n        /* \"#utility.yul\":17086:17090   */\n      0x31\n        /* \"#utility.yul\":17083:17084   */\n      0x04\n        /* \"#utility.yul\":17076:17091   */\n      mstore\n        /* \"#utility.yul\":17110:17114   */\n      0x24\n        /* \"#utility.yul\":17107:17108   */\n      0x00\n        /* \"#utility.yul\":17100:17115   */\n      revert\n        /* \"#utility.yul\":17127:17268   */\n    tag_451:\n        /* \"#utility.yul\":17176:17180   */\n      0x00\n        /* \"#utility.yul\":17199:17202   */\n      dup2\n        /* \"#utility.yul\":17191:17202   */\n      swap1\n      pop\n        /* \"#utility.yul\":17222:17225   */\n      dup2\n        /* \"#utility.yul\":17219:17220   */\n      0x00\n        /* \"#utility.yul\":17212:17226   */\n      mstore\n        /* \"#utility.yul\":17256:17260   */\n      0x20\n        /* \"#utility.yul\":17253:17254   */\n      0x00\n        /* \"#utility.yul\":17243:17261   */\n      keccak256\n        /* \"#utility.yul\":17235:17261   */\n      swap1\n      pop\n        /* \"#utility.yul\":17127:17268   */\n      swap2\n      swap1\n      pop\n      jump\t// out\n        /* \"#utility.yul\":17274:17367   */\n    tag_452:\n        /* \"#utility.yul\":17311:17317   */\n      0x00\n        /* \"#utility.yul\":17358:17360   */\n      0x20\n        /* \"#utility.yul\":17353:17355   */\n      0x1f\n        /* \"#utility.yul\":17346:17351   */\n      dup4\n        /* \"#utility.yul\":17342:17356   */\n      add\n        /* \"#utility.yul\":17338:17361   */\n      div\n        /* \"#utility.yul\":17328:17361   */\n      swap1\n      pop\n        /* \"#utility.yul\":17274:17367   */\n      swap2\n      swap1\n      pop\n      jump\t// out\n        /* \"#utility.yul\":17373:17480   */\n    tag_453:\n        /* \"#utility.yul\":17417:17425   */\n      0x00\n        /* \"#utility.yul\":17467:17472   */\n      dup3\n        /* \"#utility.yul\":17461:17465   */\n      dup3\n        /* \"#utility.yul\":17457:17473   */\n      shl\n        /* \"#utility.yul\":17436:17473   */\n      swap1\n      pop\n        /* \"#utility.yul\":17373:17480   */\n      swap3\n      swap2\n      pop\n      pop\n      jump\t// out\n        /* \"#utility.yul\":17486:17879   */\n    tag_454:\n        /* \"#utility.yul\":17555:17561   */\n      0x00\n        /* \"#utility.yul\":17605:17606   */\n      0x08\n        /* \"#utility.yul\":17593:17603   */\n      dup4\n        /* \"#utility.yul\":17589:17607   */\n      mul\n        /* \"#utility.yul\":17628:17725   */\n      tag_656\n        /* \"#utility.yul\":17658:17724   */\n      0xffffffffffffffffffffffffffffffffffffffffffffffffffffffffffffffff\n        /* \"#utility.yul\":17647:17656   */\n      dup3\n        /* \"#utility.yul\":17628:17725   */\n      tag_453\n      jump\t// in\n    tag_656:\n        /* \"#utility.yul\":17746:17785   */\n      tag_657\n        /* \"#utility.yul\":17776:17784   */\n      dup7\n        /* \"#utility.yul\":17765:17774   */\n      dup4\n        /* \"#utility.yul\":17746:17785   */\n      tag_453\n      jump\t// in\n    tag_657:\n        /* \"#utility.yul\":17734:17785   */\n      swap6\n      pop\n        /* \"#utility.yul\":17818:17822   */\n      dup1\n        /* \"#utility.yul\":17814:17823   */\n      not\n        /* \"#utility.yul\":17807:17812   */\n      dup5\n        /* \"#utility.yul\":17803:17824   */\n      and\n        /* \"#utility.yul\":17794:17824   */\n      swap4\n      pop\n        /* \"#utility.yul\":17867:17871   */\n      dup1\n        /* \"#utility.yul\":17857:17865   */\n      dup7\n        /* \"#utility.yul\":17853:17872   */\n      and\n        /* \"#utility.yul\":17846:17851   */\n      dup5\n        /* \"#utility.yul\":17843:17873   */\n      or\n        /* \"#utility.yul\":17833:17873   */\n      swap3\n      pop\n        /* \"#utility.yul\":17562:17879   */\n      pop\n      pop\n        /* \"#utility.yul\":17486:17879   */\n      swap4\n      swap3\n      pop\n      pop\n      pop\n      jump\t// out\n        /* \"#utility.yul\":17885:17945   */\n    tag_455:\n        /* \"#utility.yul\":17913:17916   */\n      0x00\n        /* \"#utility.yul\":17934:17939   */\n      dup2\n        /* \"#utility.yul\":17927:17939   */\n      swap1\n      pop\n        /* \"#utility.yul\":17885:17945   */\n      swap2\n      swap1\n      pop\n      jump\t// out\n        /* \"#utility.yul\":17951:18093   */\n    tag_456:\n        /* \"#utility.yul\":18001:18010   */\n      0x00\n        /* \"#utility.yul\":18034:18087   */\n      tag_660\n        /* \"#utility.yul\":18052:18086   */\n      tag_661\n        /* \"#utility.yul\":18061:18085   */\n      tag_662\n        /* \"#utility.yul\":18079:18084   */\n      dup5\n        /* \"#utility.yul\":18061:18085   */\n      tag_418\n      jump\t// in\n    tag_662:\n        /* \"#utility.yul\":18052:18086   */\n      tag_455\n      jump\t// in\n    tag_661:\n        /* \"#utility.yul\":18034:18087   */\n      tag_418\n      jump\t// in\n    tag_660:\n        /* \"#utility.yul\":18021:18087   */\n      swap1\n      pop\n        /* \"#utility.yul\":17951:18093   */\n      swap2\n      swap1\n      pop\n      jump\t// out\n        /* \"#utility.yul\":18099:18174   */\n    tag_457:\n        /* \"#utility.yul\":18142:18145   */\n      0x00\n        /* \"#utility.yul\":18163:18168   */\n      dup2\n        /* \"#utility.yul\":18156:18168   */\n      swap1\n      pop\n        /* \"#utility.yul\":18099:18174   */\n      swap2\n      swap1\n      pop\n      jump\t// out\n        /* \"#utility.yul\":18180:18449   */\n    tag_458:\n        /* \"#utility.yul\":18290:18329   */\n      tag_665\n        /* \"#utility.yul\":18321:18328   */\n      dup4\n        /* \"#utility.yul\":18290:18329   */\n      tag_456\n      jump\t// in\n    tag_665:\n        /* \"#utility.yul\":18351:18442   */\n      tag_666\n        /* \"#utility.yul\":18400:18441   */\n      tag_667\n        /* \"#utility.yul\":18424:18440   */\n      dup3\n        /* \"#utility.yul\":18400:18441   */\n      tag_457\n      jump\t// in\n    tag_667:\n        /* \"#utility.yul\":18392:18398   */\n      dup5\n        /* \"#utility.yul\":18385:18389   */\n      dup5\n        /* \"#utility.yul\":18379:18390   */\n      sload\n        /* \"#utility.yul\":18351:18442   */\n      tag_454\n      jump\t// in\n    tag_666:\n        /* \"#utility.yul\":18345:18349   */\n      dup3\n        /* \"#utility.yul\":18338:18443   */\n      sstore\n        /* \"#utility.yul\":18256:18449   */\n      pop\n        /* \"#utility.yul\":18180:18449   */\n      pop\n      pop\n      pop\n      jump\t// out\n        /* \"#utility.yul\":18455:18528   */\n    tag_459:\n        /* \"#utility.yul\":18500:18503   */\n      0x00\n        /* \"#utility.yul\":18455:18528   */\n      swap1\n      jump\t// out\n        /* \"#utility.yul\":18534:18723   */\n    tag_460:\n        /* \"#utility.yul\":18611:18643   */\n      tag_670\n      tag_459\n      jump\t// in\n    tag_670:\n        /* \"#utility.yul\":18652:18717   */\n      tag_671\n        /* \"#utility.yul\":18710:18716   */\n      dup2\n        /* \"#utility.yul\":18702:18708   */\n      dup5\n        /* \"#utility.yul\":18696:18700   */\n      dup5\n        /* \"#utility.yul\":18652:18717   */\n      tag_458\n      jump\t// in\n    tag_671:\n        /* \"#utility.yul\":18587:18723   */\n      pop\n        /* \"#utility.yul\":18534:18723   */\n      pop\n      pop\n      jump\t// out\n        /* \"#utility.yul\":18729:18915   */\n    tag_461:\n        /* \"#utility.yul\":18789:18909   */\n    tag_673:\n        /* \"#utility.yul\":18806:18809   */\n      dup2\n        /* \"#utility.yul\":18799:18804   */\n      dup2\n        /* \"#utility.yul\":18796:18810   */\n      lt\n        /* \"#utility.yul\":18789:18909   */\n      iszero\n      tag_675\n      jumpi\n        /* \"#utility.yul\":18860:18899   */\n      tag_676\n        /* \"#utility.yul\":18897:18898   */\n      0x00\n        /* \"#utility.yul\":18890:18895   */\n      dup3\n        /* \"#utility.yul\":18860:18899   */\n      tag_460\n      jump\t// in\n    tag_676:\n        /* \"#utility.yul\":18833:18834   */\n      0x01\n        /* \"#utility.yul\":18826:18831   */\n      dup2\n        /* \"#utility.yul\":18822:18835   */\n      add\n        /* \"#utility.yul\":18813:18835   */\n      swap1\n      pop\n        /* \"#utility.yul\":18789:18909   */\n      jump(tag_673)\n    tag_675:\n        /* \"#utility.yul\":18729:18915   */\n      pop\n      pop\n      jump\t// out\n        /* \"#utility.yul\":18921:19464   */\n    tag_462:\n        /* \"#utility.yul\":19022:19024   */\n      0x1f\n        /* \"#utility.yul\":19017:19020   */\n      dup3\n        /* \"#utility.yul\":19014:19025   */\n      gt\n        /* \"#utility.yul\":19011:19457   */\n      iszero\n      tag_678\n      jumpi\n        /* \"#utility.yul\":19056:19094   */\n      tag_679\n        /* \"#utility.yul\":19088:19093   */\n      dup2\n        /* \"#utility.yul\":19056:19094   */\n      tag_451\n      jump\t// in\n    tag_679:\n        /* \"#utility.yul\":19140:19169   */\n      tag_680\n        /* \"#utility.yul\":19158:19168   */\n      dup5\n        /* \"#utility.yul\":19140:19169   */\n      tag_452\n      jump\t// in\n    tag_680:\n        /* \"#utility.yul\":19130:19138   */\n      dup2\n        /* \"#utility.yul\":19126:19170   */\n      add\n        /* \"#utility.yul\":19323:19325   */\n      0x20\n        /* \"#utility.yul\":19311:19321   */\n      dup6\n        /* \"#utility.yul\":19308:19326   */\n      lt\n        /* \"#utility.yul\":19305:19354   */\n      iszero\n      tag_681\n      jumpi\n        /* \"#utility.yul\":19344:19352   */\n      dup2\n        /* \"#utility.yul\":19329:19352   */\n      swap1\n      pop\n        /* \"#utility.yul\":19305:19354   */\n    tag_681:\n        /* \"#utility.yul\":19367:19447   */\n      tag_682\n        /* \"#utility.yul\":19423:19445   */\n      tag_683\n        /* \"#utility.yul\":19441:19444   */\n      dup6\n        /* \"#utility.yul\":19423:19445   */\n      tag_452\n      jump\t// in\n    tag_683:\n        /* \"#utility.yul\":19413:19421   */\n      dup4\n        /* \"#utility.yul\":19409:19446   */\n      add\n        /* \"#utility.yul\":19396:19407   */\n      dup3\n        /* \"#utility.yul\":19367:19447   */\n      tag_461\n      jump\t// in\n    tag_682:\n        /* \"#utility.yul\":19026:19457   */\n      pop\n      pop\n        /* \"#utility.yul\":19011:19457   */\n    tag_678:\n        /* \"#utility.yul\":18921:19464   */\n      pop\n      pop\n      pop\n      jump\t// out\n        /* \"#utility.yul\":19470:19587   */\n    tag_463:\n        /* \"#utility.yul\":19524:19532   */\n      0x00\n        /* \"#utility.yul\":19574:19579   */\n      dup3\n        /* \"#utility.yul\":19568:19572   */\n      dup3\n        /* \"#utility.yul\":19564:19580   */\n      shr\n        /* \"#utility.yul\":19543:19580   */\n      swap1\n      pop\n        /* \"#utility.yul\":19470:19587   */\n      swap3\n      swap2\n      pop\n      pop\n      jump\t// out\n        /* \"#utility.yul\":19593:19762   */\n    tag_464:\n        /* \"#utility.yul\":19637:19643   */\n      0x00\n        /* \"#utility.yul\":19670:19721   */\n      tag_686\n        /* \"#utility.yul\":19718:19719   */\n      0x00\n        /* \"#utility.yul\":19714:19720   */\n      not\n        /* \"#utility.yul\":19706:19711   */\n      dup5\n        /* \"#utility.yul\":19703:19704   */\n      0x08\n        /* \"#utility.yul\":19699:19712   */\n      mul\n        /* \"#utility.yul\":19670:19721   */\n      tag_463\n      jump\t// in\n    tag_686:\n        /* \"#utility.yul\":19666:19722   */\n      not\n        /* \"#utility.yul\":19751:19755   */\n      dup1\n        /* \"#utility.yul\":19745:19749   */\n      dup4\n        /* \"#utility.yul\":19741:19756   */\n      and\n        /* \"#utility.yul\":19731:19756   */\n      swap2\n      pop\n        /* \"#utility.yul\":19644:19762   */\n      pop\n        /* \"#utility.yul\":19593:19762   */\n      swap3\n      swap2\n      pop\n      pop\n      jump\t// out\n        /* \"#utility.yul\":19767:20062   */\n    tag_465:\n        /* \"#utility.yul\":19843:19847   */\n      0x00\n        /* \"#utility.yul\":19989:20018   */\n      tag_688\n        /* \"#utility.yul\":20014:20017   */\n      dup4\n        /* \"#utility.yul\":20008:20012   */\n      dup4\n        /* \"#utility.yul\":19989:20018   */\n      tag_464\n      jump\t// in\n    tag_688:\n        /* \"#utility.yul\":19981:20018   */\n      swap2\n      pop\n        /* \"#utility.yul\":20051:20054   */\n      dup3\n        /* \"#utility.yul\":20048:20049   */\n      0x02\n        /* \"#utility.yul\":20044:20055   */\n      mul\n        /* \"#utility.yul\":20038:20042   */\n      dup3\n        /* \"#utility.yul\":20035:20056   */\n      or\n        /* \"#utility.yul\":20027:20056   */\n      swap1\n      pop\n        /* \"#utility.yul\":19767:20062   */\n      swap3\n      swap2\n      pop\n      pop\n      jump\t// out\n        /* \"#utility.yul\":20067:21462   */\n    tag_303:\n        /* \"#utility.yul\":20184:20221   */\n      tag_690\n        /* \"#utility.yul\":20217:20220   */\n      dup3\n        /* \"#utility.yul\":20184:20221   */\n      tag_406\n      jump\t// in\n    tag_690:\n        /* \"#utility.yul\":20286:20304   */\n      0xffffffffffffffff\n        /* \"#utility.yul\":20278:20284   */\n      dup2\n        /* \"#utility.yul\":20275:20305   */\n      gt\n        /* \"#utility.yul\":20272:20328   */\n      iszero\n      tag_691\n      jumpi\n        /* \"#utility.yul\":20308:20326   */\n      tag_692\n      tag_428\n      jump\t// in\n    tag_692:\n        /* \"#utility.yul\":20272:20328   */\n    tag_691:\n        /* \"#utility.yul\":20352:20390   */\n      tag_693\n        /* \"#utility.yul\":20384:20388   */\n      dup3\n        /* \"#utility.yul\":20378:20389   */\n      sload\n        /* \"#utility.yul\":20352:20390   */\n      tag_248\n      jump\t// in\n    tag_693:\n        /* \"#utility.yul\":20437:20504   */\n      tag_694\n        /* \"#utility.yul\":20497:20503   */\n      dup3\n        /* \"#utility.yul\":20489:20495   */\n      dup3\n        /* \"#utility.yul\":20483:20487   */\n      dup6\n        /* \"#utility.yul\":20437:20504   */\n      tag_462\n      jump\t// in\n    tag_694:\n        /* \"#utility.yul\":20531:20532   */\n      0x00\n        /* \"#utility.yul\":20555:20559   */\n      0x20\n        /* \"#utility.yul\":20542:20559   */\n      swap1\n      pop\n        /* \"#utility.yul\":20587:20589   */\n      0x1f\n        /* \"#utility.yul\":20579:20585   */\n      dup4\n        /* \"#utility.yul\":20576:20590   */\n      gt\n        /* \"#utility.yul\":20604:20605   */\n      0x01\n        /* \"#utility.yul\":20599:21217   */\n      dup2\n      eq\n      tag_696\n      jumpi\n        /* \"#utility.yul\":21261:21262   */\n      0x00\n        /* \"#utility.yul\":21278:21284   */\n      dup5\n        /* \"#utility.yul\":21275:21352   */\n      iszero\n      tag_697\n      jumpi\n        /* \"#utility.yul\":21327:21336   */\n      dup3\n        /* \"#utility.yul\":21322:21325   */\n      dup8\n        /* \"#utility.yul\":21318:21337   */\n      add\n        /* \"#utility.yul\":21312:21338   */\n      mload\n        /* \"#utility.yul\":21303:21338   */\n      swap1\n      pop\n        /* \"#utility.yul\":21275:21352   */\n    tag_697:\n        /* \"#utility.yul\":21378:21445   */\n      tag_698\n        /* \"#utility.yul\":21438:21444   */\n      dup6\n        /* \"#utility.yul\":21431:21436   */\n      dup3\n        /* \"#utility.yul\":21378:21445   */\n      tag_465\n      jump\t// in\n    tag_698:\n        /* \"#utility.yul\":21372:21376   */\n      dup7\n        /* \"#utility.yul\":21365:21446   */\n      sstore\n        /* \"#utility.yul\":21234:21456   */\n      pop\n        /* \"#utility.yul\":20569:21456   */\n      jump(tag_695)\n        /* \"#utility.yul\":20599:21217   */\n    tag_696:\n        /* \"#utility.yul\":20651:20655   */\n      0x1f\n        /* \"#utility.yul\":20647:20656   */\n      not\n        /* \"#utility.yul\":20639:20645   */\n      dup5\n        /* \"#utility.yul\":20635:20657   */\n      and\n        /* \"#utility.yul\":20685:20722   */\n      tag_699\n        /* \"#utility.yul\":20717:20721   */\n      dup7\n        /* \"#utility.yul\":20685:20722   */\n      tag_451\n      jump\t// in\n    tag_699:\n        /* \"#utility.yul\":20744:20745   */\n      0x00\n        /* \"#utility.yul\":20758:20966   */\n    tag_700:\n        /* \"#utility.yul\":20772:20779   */\n      dup3\n        /* \"#utility.yul\":20769:20770   */\n      dup2\n        /* \"#utility.yul\":20766:20780   */\n      lt\n        /* \"#utility.yul\":20758:20966   */\n      iszero\n      tag_702\n      jumpi\n        /* \"#utility.yul\":20851:20860   */\n      dup5\n        /* \"#utility.yul\":20846:20849   */\n      dup10\n        /* \"#utility.yul\":20842:20861   */\n      add\n        /* \"#utility.yul\":20836:20862   */\n      mload\n        /* \"#utility.yul\":20828:20834   */\n      dup3\n        /* \"#utility.yul\":20821:20863   */\n      sstore\n        /* \"#utility.yul\":20902:20903   */\n      0x01\n        /* \"#utility.yul\":20894:20900   */\n      dup3\n        /* \"#utility.yul\":20890:20904   */\n      add\n        /* \"#utility.yul\":20880:20904   */\n      swap2\n      pop\n        /* \"#utility.yul\":20949:20951   */\n      0x20\n        /* \"#utility.yul\":20938:20947   */\n      dup6\n        /* \"#utility.yul\":20934:20952   */\n      add\n        /* \"#utility.yul\":20921:20952   */\n      swap5\n      pop\n        /* \"#utility.yul\":20795:20799   */\n      0x20\n        /* \"#utility.yul\":20792:20793   */\n      dup2\n        /* \"#utility.yul\":20788:20800   */\n      add\n        /* \"#utility.yul\":20783:20800   */\n      swap1\n      pop\n        /* \"#utility.yul\":20758:20966   */\n      jump(tag_700)\n    tag_702:\n        /* \"#utility.yul\":20994:21000   */\n      dup7\n        /* \"#utility.yul\":20985:20992   */\n      dup4\n        /* \"#utility.yul\":20982:21001   */\n      lt\n        /* \"#utility.yul\":20979:21158   */\n      iszero\n      tag_703\n      jumpi\n        /* \"#utility.yul\":21052:21061   */\n      dup5\n        /* \"#utility.yul\":21047:21050   */\n      dup10\n        /* \"#utility.yul\":21043:21062   */\n      add\n        /* \"#utility.yul\":21037:21063   */\n      mload\n        /* \"#utility.yul\":21095:21143   */\n      tag_704\n        /* \"#utility.yul\":21137:21141   */\n      0x1f\n        /* \"#utility.yul\":21129:21135   */\n      dup10\n        /* \"#utility.yul\":21125:21142   */\n      and\n        /* \"#utility.yul\":21114:21123   */\n      dup3\n        /* \"#utility.yul\":21095:21143   */\n      tag_464\n      jump\t// in\n    tag_704:\n        /* \"#utility.yul\":21087:21093   */\n      dup4\n        /* \"#utility.yul\":21080:21144   */\n      sstore\n        /* \"#utility.yul\":21002:21158   */\n      pop\n        /* \"#utility.yul\":20979:21158   */\n    tag_703:\n        /* \"#utility.yul\":21204:21205   */\n      0x01\n        /* \"#utility.yul\":21200:21201   */\n      0x02\n        /* \"#utility.yul\":21192:21198   */\n      dup9\n        /* \"#utility.yul\":21188:21202   */\n      mul\n        /* \"#utility.yul\":21184:21206   */\n      add\n        /* \"#utility.yul\":21178:21182   */\n      dup9\n        /* \"#utility.yul\":21171:21207   */\n      sstore\n        /* \"#utility.yul\":20606:21217   */\n      pop\n      pop\n      pop\n        /* \"#utility.yul\":20569:21456   */\n    tag_695:\n      pop\n        /* \"#utility.yul\":20159:21462   */\n      pop\n      pop\n      pop\n        /* \"#utility.yul\":20067:21462   */\n      pop\n      pop\n      jump\t// out\n        /* \"#utility.yul\":21468:21659   */\n    tag_332:\n        /* \"#utility.yul\":21508:21511   */\n      0x00\n        /* \"#utility.yul\":21527:21547   */\n      tag_706\n        /* \"#utility.yul\":21545:21546   */\n      dup3\n        /* \"#utility.yul\":21527:21547   */\n      tag_418\n      jump\t// in\n    tag_706:\n        /* \"#utility.yul\":21522:21547   */\n      swap2\n      pop\n        /* \"#utility.yul\":21561:21581   */\n      tag_707\n        /* \"#utility.yul\":21579:21580   */\n      dup4\n        /* \"#utility.yul\":21561:21581   */\n      tag_418\n      jump\t// in\n    tag_707:\n        /* \"#utility.yul\":21556:21581   */\n      swap3\n      pop\n        /* \"#utility.yul\":21604:21605   */\n      dup3\n        /* \"#utility.yul\":21601:21602   */\n      dup3\n        /* \"#utility.yul\":21597:21606   */\n      add\n        /* \"#utility.yul\":21590:21606   */\n      swap1\n      pop\n        /* \"#utility.yul\":21625:21628   */\n      dup1\n        /* \"#utility.yul\":21622:21623   */\n      dup3\n        /* \"#utility.yul\":21619:21629   */\n      gt\n        /* \"#utility.yul\":21616:21652   */\n      iszero\n      tag_708\n      jumpi\n        /* \"#utility.yul\":21632:21650   */\n      tag_709\n      tag_450\n      jump\t// in\n    tag_709:\n        /* \"#utility.yul\":21616:21652   */\n    tag_708:\n        /* \"#utility.yul\":21468:21659   */\n      swap3\n      swap2\n      pop\n      pop\n      jump\t// out\n\n    auxdata: 0xa26469706673582212205864f8290592fe64b2051376b8678383c45f9181896e51a3379d8a44746230a464736f6c63430008170033\n}\n",
				"bytecode": {
					"linkReferences": {},
					"object": "61314161004e600b8282823980515f1a607314610042577f4e487b71000000000000000000000000000000000000000000000000000000005f525f60045260245ffd5b305f52607381538281f3fe7300000000000000000000000000000000000000003014608060405260043610610293575f3560e01c8063830d409111610165578063b0d4ce25116100d7578063dec84db111610090578063dec84db11461087d578063e149f036146108a5578063e68fdee1146108d5578063edc3bc3f146108fd578063f112a2af1461092d578063f589b7541461095e57610293565b8063b0d4ce25146107a3578063b62d8b91146107cb578063d20b6ee7146107fb578063d547cfb714610819578063dbe0b21c14610837578063ddca3f431461085f57610293565b8063963bfe1211610129578063963bfe12146106bf57806398995f77146106dd578063a05cc559146106fb578063a330117314610723578063a7cc01361461074b578063ad715f2e1461077b57610293565b8063830d40911461060b578063854f9db9146106335780638fca4dbe1461065b5780639451c99a1461068357806395d89b41146106a157610293565b806340e02f5c116102095780635b43bc99116101c25780635b43bc99146105275780636c8b703f1461054f5780636ff97f1d1461057f57806374e243671461059d578063810536ec146105cd578063821abc2d146105e357610293565b806340e02f5c1461043957806341bb05591461046157806344faf2551461048957806347f69eba146104a757806349a0a50e146104d75780634f4979ed146104ff57610293565b8063247c6ce01161025b578063247c6ce01461035357806332b07b431461037b57806333171809146103a3578063345e7b28146103c15780633802497b146103e957806339b37ab01461041157610293565b806306fdde0314610297578063071bc71c146102b557806313c19ff6146102dd57806319f862001461030557806321b0ed7d14610323575b5f80fd5b61029f61097c565b6040516102ac9190612644565b60405180910390f35b8180156102c0575f80fd5b506102db60048036038101906102d69190612702565b610a52565b005b8180156102e8575f80fd5b5061030360048036038101906102fe9190612752565b610d34565b005b61030d610dcf565b60405161031a91906127a8565b60405180910390f35b61033d600480360381019061033891906127c1565b610e1e565b60405161034a91906127fb565b60405180910390f35b81801561035e575f80fd5b506103796004803603810190610374919061283e565b610eaa565b005b818015610386575f80fd5b506103a1600480360381019061039c9190612869565b610efa565b005b6103ab610f4a565b6040516103b891906127a8565b60405180910390f35b8180156103cc575f80fd5b506103e760048036038101906103e29190612869565b610f99565b005b8180156103f4575f80fd5b5061040f600480360381019061040a919061283e565b610fe9565b005b81801561041c575f80fd5b5061043760048036038101906104329190612869565b611039565b005b818015610444575f80fd5b5061045f600480360381019061045a9190612869565b611089565b005b81801561046c575f80fd5b50610487600480360381019061048291906129c0565b611333565b005b61049161138c565b60405161049e91906127fb565b60405180910390f35b6104c160048036038101906104bc9190612869565b6113db565b6040516104ce91906127fb565b60405180910390f35b8180156104e2575f80fd5b506104fd60048036038101906104f89190612702565b61143b565b005b81801561050a575f80fd5b5061052560048036038101906105209190612702565b6114d7565b005b818015610532575f80fd5b5061054d600480360381019061054891906129c0565b6115cf565b005b61056960048036038101906105649190612869565b611628565b6040516105769190612644565b60405180910390f35b61058761170f565b6040516105949190612abe565b60405180910390f35b6105b760048036038101906105b29190612869565b6117ab565b6040516105c491906127fb565b60405180910390f35b8180156105d8575f80fd5b506105e161180b565b005b8180156105ee575f80fd5b50610609600480360381019061060491906129c0565b6118b3565b005b818015610616575f80fd5b50610631600480360381019061062c9190612b13565b61190c565b005b81801561063e575f80fd5b506106596004803603810190610654919061283e565b6119e6565b005b818015610666575f80fd5b50610681600480360381019061067c9190612869565b611a36565b005b61068b611a86565b60405161069891906127fb565b60405180910390f35b6106a9611ad5565b6040516106b69190612644565b60405180910390f35b6106c7611bab565b6040516106d49190612644565b60405180910390f35b6106e5611c81565b6040516106f291906127fb565b60405180910390f35b818015610706575f80fd5b50610721600480360381019061071c91906129c0565b611cd0565b005b81801561072e575f80fd5b5061074960048036038101906107449190612b63565b611d28565b005b61076560048036038101906107609190612869565b611db4565b6040516107729190612bca565b60405180910390f35b818015610786575f80fd5b506107a1600480360381019061079c9190612be3565b611e79565b005b8180156107ae575f80fd5b506107c960048036038101906107c49190612c21565b611ed9565b005b6107e560048036038101906107e091906127c1565b611f77565b6040516107f29190612c6e565b60405180910390f35b61080361200f565b60405161081091906127fb565b60405180910390f35b61082161205e565b60405161082e9190612644565b60405180910390f35b818015610842575f80fd5b5061085d60048036038101906108589190612869565b612133565b005b610867612249565b60405161087491906127fb565b60405180910390f35b818015610888575f80fd5b506108a3600480360381019061089e9190612c87565b612298565b005b6108bf60048036038101906108ba9190612b63565b612301565b6040516108cc91906127fb565b60405180910390f35b8180156108e0575f80fd5b506108fb60048036038101906108f69190612be3565b61239d565b005b61091760048036038101906109129190612ce1565b6123fd565b6040516109249190612c6e565b60405180910390f35b61094760048036038101906109429190612869565b6124d1565b604051610955929190612d2e565b60405180910390f35b61096661253a565b60405161097391906127a8565b60405180910390f35b60606109c36040518060400160405280600681526020017f534d45616d62000000000000000000000000000000000000000000000000000081525080519060200120612589565b600e0180546109d190612d82565b80601f01602080910402602001604051908101604052809291908181526020018280546109fd90612d82565b8015610a485780601f10610a1f57610100808354040283529160200191610a48565b820191905f5260205f20905b815481529060010190602001808311610a2b57829003601f168201915b5050505050905090565b5f610a986040518060400160405280600681526020017f534d45616d62000000000000000000000000000000000000000000000000000081525080519060200120612589565b6004015f8481526020019081526020015f20549050818114610c3f575f610afa6040518060400160405280600681526020017f534d45616d62000000000000000000000000000000000000000000000000000081525080519060200120612589565b6003015f8673ffffffffffffffffffffffffffffffffffffffff1673ffffffffffffffffffffffffffffffffffffffff1681526020019081526020015f205f8481526020019081526020015f2054905080610b906040518060400160405280600681526020017f534d45616d62000000000000000000000000000000000000000000000000000081525080519060200120612589565b6003015f8773ffffffffffffffffffffffffffffffffffffffff1673ffffffffffffffffffffffffffffffffffffffff1681526020019081526020015f205f8481526020019081526020015f208190555081610c276040518060400160405280600681526020017f534d45616d62000000000000000000000000000000000000000000000000000081525080519060200120612589565b6004015f8381526020019081526020015f2081905550505b610c846040518060400160405280600681526020017f534d45616d62000000000000000000000000000000000000000000000000000081525080519060200120612589565b6004015f8481526020019081526020015f205f9055610cde6040518060400160405280600681526020017f534d45616d62000000000000000000000000000000000000000000000000000081525080519060200120612589565b6003015f8573ffffffffffffffffffffffffffffffffffffffff1673ffffffffffffffffffffffffffffffffffffffff1681526020019081526020015f205f8381526020019081526020015f205f905550505050565b80610d7a6040518060400160405280600681526020017f534d45616d62000000000000000000000000000000000000000000000000000081525080519060200120612589565b6012015f8481526020019081526020015f205f015f6101000a81548173ffffffffffffffffffffffffffffffffffffffff021916908373ffffffffffffffffffffffffffffffffffffffff1602179055505050565b5f610e156040518060400160405280600681526020017f534d45616d62000000000000000000000000000000000000000000000000000081525080519060200120612589565b60070154905090565b5f610e646040518060400160405280600681526020017f534d45616d62000000000000000000000000000000000000000000000000000081525080519060200120612589565b6011015f8373ffffffffffffffffffffffffffffffffffffffff1673ffffffffffffffffffffffffffffffffffffffff1681526020019081526020015f20549050919050565b80610ef06040518060400160405280600681526020017f534d45616d62000000000000000000000000000000000000000000000000000081525080519060200120612589565b6009018190555050565b80610f406040518060400160405280600681526020017f534d45616d62000000000000000000000000000000000000000000000000000081525080519060200120612589565b6015018190555050565b5f610f906040518060400160405280600681526020017f534d45616d62000000000000000000000000000000000000000000000000000081525080519060200120612589565b60090154905090565b80610fdf6040518060400160405280600681526020017f534d45616d62000000000000000000000000000000000000000000000000000081525080519060200120612589565b600c018190555050565b8061102f6040518060400160405280600681526020017f534d45616d62000000000000000000000000000000000000000000000000000081525080519060200120612589565b6007018190555050565b8061107f6040518060400160405280600681526020017f534d45616d62000000000000000000000000000000000000000000000000000081525080519060200120612589565b600a018190555050565b5f60016110d16040518060400160405280600681526020017f534d45616d62000000000000000000000000000000000000000000000000000081525080519060200120612589565b600501805490506110e29190612ddf565b90505f61112a6040518060400160405280600681526020017f534d45616d62000000000000000000000000000000000000000000000000000081525080519060200120612589565b6006015f8481526020019081526020015f205490505f6111856040518060400160405280600681526020017f534d45616d62000000000000000000000000000000000000000000000000000081525080519060200120612589565b600501838154811061119a57611199612e12565b5b905f5260205f2001549050806111eb6040518060400160405280600681526020017f534d45616d62000000000000000000000000000000000000000000000000000081525080519060200120612589565b6005018381548110611200576111ff612e12565b5b905f5260205f200181905550816112526040518060400160405280600681526020017f534d45616d62000000000000000000000000000000000000000000000000000081525080519060200120612589565b6006015f8381526020019081526020015f20819055506112ad6040518060400160405280600681526020017f534d45616d62000000000000000000000000000000000000000000000000000081525080519060200120612589565b6006015f8581526020019081526020015f205f90556113076040518060400160405280600681526020017f534d45616d62000000000000000000000000000000000000000000000000000081525080519060200120612589565b60050180548061131a57611319612e3f565b5b600190038181905f5260205f20015f9055905550505050565b806113796040518060400160405280600681526020017f534d45616d62000000000000000000000000000000000000000000000000000081525080519060200120612589565b600f0190816113889190613009565b5050565b5f6113d26040518060400160405280600681526020017f534d45616d62000000000000000000000000000000000000000000000000000081525080519060200120612589565b600d0154905090565b5f6114216040518060400160405280600681526020017f534d45616d62000000000000000000000000000000000000000000000000000081525080519060200120612589565b6010015f8381526020019081526020015f20549050919050565b806114816040518060400160405280600681526020017f534d45616d62000000000000000000000000000000000000000000000000000081525080519060200120612589565b6003015f8573ffffffffffffffffffffffffffffffffffffffff1673ffffffffffffffffffffffffffffffffffffffff1681526020019081526020015f205f8481526020019081526020015f2081905550505050565b8161151d6040518060400160405280600681526020017f534d45616d62000000000000000000000000000000000000000000000000000081525080519060200120612589565b6003015f8573ffffffffffffffffffffffffffffffffffffffff1673ffffffffffffffffffffffffffffffffffffffff1681526020019081526020015f205f8381526020019081526020015f2081905550806115b46040518060400160405280600681526020017f534d45616d62000000000000000000000000000000000000000000000000000081525080519060200120612589565b6004015f8481526020019081526020015f2081905550505050565b806116156040518060400160405280600681526020017f534d45616d62000000000000000000000000000000000000000000000000000081525080519060200120612589565b600e0190816116249190613009565b5050565b606061166f6040518060400160405280600681526020017f534d45616d62000000000000000000000000000000000000000000000000000081525080519060200120612589565b6002015f8381526020019081526020015f20805461168c90612d82565b80601f01602080910402602001604051908101604052809291908181526020018280546116b890612d82565b80156117035780601f106116da57610100808354040283529160200191611703565b820191905f5260205f20905b8154815290600101906020018083116116e657829003601f168201915b50505050509050919050565b60606117566040518060400160405280600681526020017f534d45616d62000000000000000000000000000000000000000000000000000081525080519060200120612589565b6005018054806020026020016040519081016040528092919081815260200182805480156117a157602002820191905f5260205f20905b81548152602001906001019080831161178d575b5050505050905090565b5f6117f16040518060400160405280600681526020017f534d45616d62000000000000000000000000000000000000000000000000000081525080519060200120612589565b6004015f8381526020019081526020015f20549050919050565b5f6118516040518060400160405280600681526020017f534d45616d62000000000000000000000000000000000000000000000000000081525080519060200120612589565b60140154905060018161186491906130d8565b6118a96040518060400160405280600681526020017f534d45616d62000000000000000000000000000000000000000000000000000081525080519060200120612589565b6014018190555050565b806118f96040518060400160405280600681526020017f534d45616d62000000000000000000000000000000000000000000000000000081525080519060200120612589565b60010190816119089190613009565b5050565b806119526040518060400160405280600681526020017f534d45616d62000000000000000000000000000000000000000000000000000081525080519060200120612589565b6013015f8573ffffffffffffffffffffffffffffffffffffffff1673ffffffffffffffffffffffffffffffffffffffff1681526020019081526020015f205f8473ffffffffffffffffffffffffffffffffffffffff1673ffffffffffffffffffffffffffffffffffffffff1681526020019081526020015f205f6101000a81548160ff021916908315150217905550505050565b80611a2c6040518060400160405280600681526020017f534d45616d62000000000000000000000000000000000000000000000000000081525080519060200120612589565b6008018190555050565b80611a7c6040518060400160405280600681526020017f534d45616d62000000000000000000000000000000000000000000000000000081525080519060200120612589565b600d018190555050565b5f611acc6040518060400160405280600681526020017f534d45616d62000000000000000000000000000000000000000000000000000081525080519060200120612589565b600c0154905090565b6060611b1c6040518060400160405280600681526020017f534d45616d62000000000000000000000000000000000000000000000000000081525080519060200120612589565b600f018054611b2a90612d82565b80601f0160208091040260200160405190810160405280929190818152602001828054611b5690612d82565b8015611ba15780601f10611b7857610100808354040283529160200191611ba1565b820191905f5260205f20905b815481529060010190602001808311611b8457829003601f168201915b5050505050905090565b6060611bf26040518060400160405280600681526020017f534d45616d62000000000000000000000000000000000000000000000000000081525080519060200120612589565b6001018054611c0090612d82565b80601f0160208091040260200160405190810160405280929190818152602001828054611c2c90612d82565b8015611c775780601f10611c4e57610100808354040283529160200191611c77565b820191905f5260205f20905b815481529060010190602001808311611c5a57829003601f168201915b5050505050905090565b5f611cc76040518060400160405280600681526020017f534d45616d62000000000000000000000000000000000000000000000000000081525080519060200120612589565b60150154905090565b80611d166040518060400160405280600681526020017f534d45616d62000000000000000000000000000000000000000000000000000081525080519060200120612589565b5f019081611d249190613009565b5050565b80611d6e6040518060400160405280600681526020017f534d45616d62000000000000000000000000000000000000000000000000000081525080519060200120612589565b6011015f8473ffffffffffffffffffffffffffffffffffffffff1673ffffffffffffffffffffffffffffffffffffffff1681526020019081526020015f20819055505050565b611dbc612592565b611e016040518060400160405280600681526020017f534d45616d62000000000000000000000000000000000000000000000000000081525080519060200120612589565b6012015f8381526020019081526020015f206040518060200160405290815f82015f9054906101000a900473ffffffffffffffffffffffffffffffffffffffff1673ffffffffffffffffffffffffffffffffffffffff1673ffffffffffffffffffffffffffffffffffffffff16815250509050919050565b80611ebf6040518060400160405280600681526020017f534d45616d62000000000000000000000000000000000000000000000000000081525080519060200120612589565b6004015f8481526020019081526020015f20819055505050565b80611f1f6040518060400160405280600681526020017f534d45616d62000000000000000000000000000000000000000000000000000081525080519060200120612589565b600b015f8473ffffffffffffffffffffffffffffffffffffffff1673ffffffffffffffffffffffffffffffffffffffff1681526020019081526020015f205f6101000a81548160ff0219169083151502179055505050565b5f611fbd6040518060400160405280600681526020017f534d45616d62000000000000000000000000000000000000000000000000000081525080519060200120612589565b600b015f8373ffffffffffffffffffffffffffffffffffffffff1673ffffffffffffffffffffffffffffffffffffffff1681526020019081526020015f205f9054906101000a900460ff169050919050565b5f6120556040518060400160405280600681526020017f534d45616d62000000000000000000000000000000000000000000000000000081525080519060200120612589565b60140154905090565b60606120a56040518060400160405280600681526020017f534d45616d62000000000000000000000000000000000000000000000000000081525080519060200120612589565b5f0180546120b290612d82565b80601f01602080910402602001604051908101604052809291908181526020018280546120de90612d82565b80156121295780601f1061210057610100808354040283529160200191612129565b820191905f5260205f20905b81548152906001019060200180831161210c57829003601f168201915b5050505050905090565b6121786040518060400160405280600681526020017f534d45616d62000000000000000000000000000000000000000000000000000081525080519060200120612589565b600501805490506121c46040518060400160405280600681526020017f534d45616d62000000000000000000000000000000000000000000000000000081525080519060200120612589565b6006015f8381526020019081526020015f208190555061221f6040518060400160405280600681526020017f534d45616d62000000000000000000000000000000000000000000000000000081525080519060200120612589565b60050181908060018154018082558091505060019003905f5260205f20015f909190919091505550565b5f61228f6040518060400160405280600681526020017f534d45616d62000000000000000000000000000000000000000000000000000081525080519060200120612589565b600a0154905090565b816122de6040518060400160405280600681526020017f534d45616d62000000000000000000000000000000000000000000000000000081525080519060200120612589565b6002015f8381526020019081526020015f2090816122fc9190613009565b505050565b5f6123476040518060400160405280600681526020017f534d45616d62000000000000000000000000000000000000000000000000000081525080519060200120612589565b6003015f8473ffffffffffffffffffffffffffffffffffffffff1673ffffffffffffffffffffffffffffffffffffffff1681526020019081526020015f205f8381526020019081526020015f2054905092915050565b806123e36040518060400160405280600681526020017f534d45616d62000000000000000000000000000000000000000000000000000081525080519060200120612589565b6010015f8481526020019081526020015f20819055505050565b5f6124436040518060400160405280600681526020017f534d45616d62000000000000000000000000000000000000000000000000000081525080519060200120612589565b6013015f8473ffffffffffffffffffffffffffffffffffffffff1673ffffffffffffffffffffffffffffffffffffffff1681526020019081526020015f205f8373ffffffffffffffffffffffffffffffffffffffff1673ffffffffffffffffffffffffffffffffffffffff1681526020019081526020015f205f9054906101000a900460ff16905092915050565b5f805f6125196040518060400160405280600681526020017f534d45616d62000000000000000000000000000000000000000000000000000081525080519060200120612589565b6012015f8581526020019081526020015f2090508092508254915050915091565b5f6125806040518060400160405280600681526020017f534d45616d62000000000000000000000000000000000000000000000000000081525080519060200120612589565b60080154905090565b5f819050919050565b60405180602001604052805f73ffffffffffffffffffffffffffffffffffffffff1681525090565b5f81519050919050565b5f82825260208201905092915050565b5f5b838110156125f15780820151818401526020810190506125d6565b5f8484015250505050565b5f601f19601f8301169050919050565b5f612616826125ba565b61262081856125c4565b93506126308185602086016125d4565b612639816125fc565b840191505092915050565b5f6020820190508181035f83015261265c818461260c565b905092915050565b5f604051905090565b5f80fd5b5f80fd5b5f73ffffffffffffffffffffffffffffffffffffffff82169050919050565b5f61269e82612675565b9050919050565b6126ae81612694565b81146126b8575f80fd5b50565b5f813590506126c9816126a5565b92915050565b5f819050919050565b6126e1816126cf565b81146126eb575f80fd5b50565b5f813590506126fc816126d8565b92915050565b5f805f606084860312156127195761271861266d565b5b5f612726868287016126bb565b9350506020612737868287016126ee565b9250506040612748868287016126ee565b9150509250925092565b5f80604083850312156127685761276761266d565b5b5f612775858286016126ee565b9250506020612786858286016126bb565b9150509250929050565b5f819050919050565b6127a281612790565b82525050565b5f6020820190506127bb5f830184612799565b92915050565b5f602082840312156127d6576127d561266d565b5b5f6127e3848285016126bb565b91505092915050565b6127f5816126cf565b82525050565b5f60208201905061280e5f8301846127ec565b92915050565b61281d81612790565b8114612827575f80fd5b50565b5f8135905061283881612814565b92915050565b5f602082840312156128535761285261266d565b5b5f6128608482850161282a565b91505092915050565b5f6020828403121561287e5761287d61266d565b5b5f61288b848285016126ee565b91505092915050565b5f80fd5b5f80fd5b7f4e487b71000000000000000000000000000000000000000000000000000000005f52604160045260245ffd5b6128d2826125fc565b810181811067ffffffffffffffff821117156128f1576128f061289c565b5b80604052505050565b5f612903612664565b905061290f82826128c9565b919050565b5f67ffffffffffffffff82111561292e5761292d61289c565b5b612937826125fc565b9050602081019050919050565b828183375f83830152505050565b5f61296461295f84612914565b6128fa565b9050828152602081018484840111156129805761297f612898565b5b61298b848285612944565b509392505050565b5f82601f8301126129a7576129a6612894565b5b81356129b7848260208601612952565b91505092915050565b5f602082840312156129d5576129d461266d565b5b5f82013567ffffffffffffffff8111156129f2576129f1612671565b5b6129fe84828501612993565b91505092915050565b5f81519050919050565b5f82825260208201905092915050565b5f819050602082019050919050565b612a39816126cf565b82525050565b5f612a4a8383612a30565b60208301905092915050565b5f602082019050919050565b5f612a6c82612a07565b612a768185612a11565b9350612a8183612a21565b805f5b83811015612ab1578151612a988882612a3f565b9750612aa383612a56565b925050600181019050612a84565b5085935050505092915050565b5f6020820190508181035f830152612ad68184612a62565b905092915050565b5f8115159050919050565b612af281612ade565b8114612afc575f80fd5b50565b5f81359050612b0d81612ae9565b92915050565b5f805f60608486031215612b2a57612b2961266d565b5b5f612b37868287016126bb565b9350506020612b48868287016126bb565b9250506040612b5986828701612aff565b9150509250925092565b5f8060408385031215612b7957612b7861266d565b5b5f612b86858286016126bb565b9250506020612b97858286016126ee565b9150509250929050565b612baa81612694565b82525050565b602082015f820151612bc45f850182612ba1565b50505050565b5f602082019050612bdd5f830184612bb0565b92915050565b5f8060408385031215612bf957612bf861266d565b5b5f612c06858286016126ee565b9250506020612c17858286016126ee565b9150509250929050565b5f8060408385031215612c3757612c3661266d565b5b5f612c44858286016126bb565b9250506020612c5585828601612aff565b9150509250929050565b612c6881612ade565b82525050565b5f602082019050612c815f830184612c5f565b92915050565b5f8060408385031215612c9d57612c9c61266d565b5b5f83013567ffffffffffffffff811115612cba57612cb9612671565b5b612cc685828601612993565b9250506020612cd7858286016126ee565b9150509250929050565b5f8060408385031215612cf757612cf661266d565b5b5f612d04858286016126bb565b9250506020612d15858286016126bb565b9150509250929050565b612d2881612694565b82525050565b5f604082019050612d415f8301856127ec565b612d4e6020830184612d1f565b9392505050565b7f4e487b71000000000000000000000000000000000000000000000000000000005f52602260045260245ffd5b5f6002820490506001821680612d9957607f821691505b602082108103612dac57612dab612d55565b5b50919050565b7f4e487b71000000000000000000000000000000000000000000000000000000005f52601160045260245ffd5b5f612de9826126cf565b9150612df4836126cf565b9250828203905081811115612e0c57612e0b612db2565b5b92915050565b7f4e487b71000000000000000000000000000000000000000000000000000000005f52603260045260245ffd5b7f4e487b71000000000000000000000000000000000000000000000000000000005f52603160045260245ffd5b5f819050815f5260205f209050919050565b5f6020601f8301049050919050565b5f82821b905092915050565b5f60088302612ec87fffffffffffffffffffffffffffffffffffffffffffffffffffffffffffffffff82612e8d565b612ed28683612e8d565b95508019841693508086168417925050509392505050565b5f819050919050565b5f612f0d612f08612f03846126cf565b612eea565b6126cf565b9050919050565b5f819050919050565b612f2683612ef3565b612f3a612f3282612f14565b848454612e99565b825550505050565b5f90565b612f4e612f42565b612f59818484612f1d565b505050565b5b81811015612f7c57612f715f82612f46565b600181019050612f5f565b5050565b601f821115612fc157612f9281612e6c565b612f9b84612e7e565b81016020851015612faa578190505b612fbe612fb685612e7e565b830182612f5e565b50505b505050565b5f82821c905092915050565b5f612fe15f1984600802612fc6565b1980831691505092915050565b5f612ff98383612fd2565b9150826002028217905092915050565b613012826125ba565b67ffffffffffffffff81111561302b5761302a61289c565b5b6130358254612d82565b613040828285612f80565b5f60209050601f831160018114613071575f841561305f578287015190505b6130698582612fee565b8655506130d0565b601f19841661307f86612e6c565b5f5b828110156130a657848901518255600182019150602085019450602081019050613081565b868310156130c357848901516130bf601f891682612fd2565b8355505b6001600288020188555050505b505050505050565b5f6130e2826126cf565b91506130ed836126cf565b925082820190508082111561310557613104612db2565b5b9291505056fea26469706673582212205864f8290592fe64b2051376b8678383c45f9181896e51a3379d8a44746230a464736f6c63430008170033",
					"opcodes": "PUSH2 0x3141 PUSH2 0x4E PUSH1 0xB DUP3 DUP3 DUP3 CODECOPY DUP1 MLOAD PUSH0 BYTE PUSH1 0x73 EQ PUSH2 0x42 JUMPI PUSH32 0x4E487B7100000000000000000000000000000000000000000000000000000000 PUSH0 MSTORE PUSH0 PUSH1 0x4 MSTORE PUSH1 0x24 PUSH0 REVERT JUMPDEST ADDRESS PUSH0 MSTORE PUSH1 0x73 DUP2 MSTORE8 DUP3 DUP2 RETURN INVALID PUSH20 0x0 ADDRESS EQ PUSH1 0x80 PUSH1 0x40 MSTORE PUSH1 0x4 CALLDATASIZE LT PUSH2 0x293 JUMPI PUSH0 CALLDATALOAD PUSH1 0xE0 SHR DUP1 PUSH4 0x830D4091 GT PUSH2 0x165 JUMPI DUP1 PUSH4 0xB0D4CE25 GT PUSH2 0xD7 JUMPI DUP1 PUSH4 0xDEC84DB1 GT PUSH2 0x90 JUMPI DUP1 PUSH4 0xDEC84DB1 EQ PUSH2 0x87D JUMPI DUP1 PUSH4 0xE149F036 EQ PUSH2 0x8A5 JUMPI DUP1 PUSH4 0xE68FDEE1 EQ PUSH2 0x8D5 JUMPI DUP1 PUSH4 0xEDC3BC3F EQ PUSH2 0x8FD JUMPI DUP1 PUSH4 0xF112A2AF EQ PUSH2 0x92D JUMPI DUP1 PUSH4 0xF589B754 EQ PUSH2 0x95E JUMPI PUSH2 0x293 JUMP JUMPDEST DUP1 PUSH4 0xB0D4CE25 EQ PUSH2 0x7A3 JUMPI DUP1 PUSH4 0xB62D8B91 EQ PUSH2 0x7CB JUMPI DUP1 PUSH4 0xD20B6EE7 EQ PUSH2 0x7FB JUMPI DUP1 PUSH4 0xD547CFB7 EQ PUSH2 0x819 JUMPI DUP1 PUSH4 0xDBE0B21C EQ PUSH2 0x837 JUMPI DUP1 PUSH4 0xDDCA3F43 EQ PUSH2 0x85F JUMPI PUSH2 0x293 JUMP JUMPDEST DUP1 PUSH4 0x963BFE12 GT PUSH2 0x129 JUMPI DUP1 PUSH4 0x963BFE12 EQ PUSH2 0x6BF JUMPI DUP1 PUSH4 0x98995F77 EQ PUSH2 0x6DD JUMPI DUP1 PUSH4 0xA05CC559 EQ PUSH2 0x6FB JUMPI DUP1 PUSH4 0xA3301173 EQ PUSH2 0x723 JUMPI DUP1 PUSH4 0xA7CC0136 EQ PUSH2 0x74B JUMPI DUP1 PUSH4 0xAD715F2E EQ PUSH2 0x77B JUMPI PUSH2 0x293 JUMP JUMPDEST DUP1 PUSH4 0x830D4091 EQ PUSH2 0x60B JUMPI DUP1 PUSH4 0x854F9DB9 EQ PUSH2 0x633 JUMPI DUP1 PUSH4 0x8FCA4DBE EQ PUSH2 0x65B JUMPI DUP1 PUSH4 0x9451C99A EQ PUSH2 0x683 JUMPI DUP1 PUSH4 0x95D89B41 EQ PUSH2 0x6A1 JUMPI PUSH2 0x293 JUMP JUMPDEST DUP1 PUSH4 0x40E02F5C GT PUSH2 0x209 JUMPI DUP1 PUSH4 0x5B43BC99 GT PUSH2 0x1C2 JUMPI DUP1 PUSH4 0x5B43BC99 EQ PUSH2 0x527 JUMPI DUP1 PUSH4 0x6C8B703F EQ PUSH2 0x54F JUMPI DUP1 PUSH4 0x6FF97F1D EQ PUSH2 0x57F JUMPI DUP1 PUSH4 0x74E24367 EQ PUSH2 0x59D JUMPI DUP1 PUSH4 0x810536EC EQ PUSH2 0x5CD JUMPI DUP1 PUSH4 0x821ABC2D EQ PUSH2 0x5E3 JUMPI PUSH2 0x293 JUMP JUMPDEST DUP1 PUSH4 0x40E02F5C EQ PUSH2 0x439 JUMPI DUP1 PUSH4 0x41BB0559 EQ PUSH2 0x461 JUMPI DUP1 PUSH4 0x44FAF255 EQ PUSH2 0x489 JUMPI DUP1 PUSH4 0x47F69EBA EQ PUSH2 0x4A7 JUMPI DUP1 PUSH4 0x49A0A50E EQ PUSH2 0x4D7 JUMPI DUP1 PUSH4 0x4F4979ED EQ PUSH2 0x4FF JUMPI PUSH2 0x293 JUMP JUMPDEST DUP1 PUSH4 0x247C6CE0 GT PUSH2 0x25B JUMPI DUP1 PUSH4 0x247C6CE0 EQ PUSH2 0x353 JUMPI DUP1 PUSH4 0x32B07B43 EQ PUSH2 0x37B JUMPI DUP1 PUSH4 0x33171809 EQ PUSH2 0x3A3 JUMPI DUP1 PUSH4 0x345E7B28 EQ PUSH2 0x3C1 JUMPI DUP1 PUSH4 0x3802497B EQ PUSH2 0x3E9 JUMPI DUP1 PUSH4 0x39B37AB0 EQ PUSH2 0x411 JUMPI PUSH2 0x293 JUMP JUMPDEST DUP1 PUSH4 0x6FDDE03 EQ PUSH2 0x297 JUMPI DUP1 PUSH4 0x71BC71C EQ PUSH2 0x2B5 JUMPI DUP1 PUSH4 0x13C19FF6 EQ PUSH2 0x2DD JUMPI DUP1 PUSH4 0x19F86200 EQ PUSH2 0x305 JUMPI DUP1 PUSH4 0x21B0ED7D EQ PUSH2 0x323 JUMPI JUMPDEST PUSH0 DUP1 REVERT JUMPDEST PUSH2 0x29F PUSH2 0x97C JUMP JUMPDEST PUSH1 0x40 MLOAD PUSH2 0x2AC SWAP2 SWAP1 PUSH2 0x2644 JUMP JUMPDEST PUSH1 0x40 MLOAD DUP1 SWAP2 SUB SWAP1 RETURN JUMPDEST DUP2 DUP1 ISZERO PUSH2 0x2C0 JUMPI PUSH0 DUP1 REVERT JUMPDEST POP PUSH2 0x2DB PUSH1 0x4 DUP1 CALLDATASIZE SUB DUP2 ADD SWAP1 PUSH2 0x2D6 SWAP2 SWAP1 PUSH2 0x2702 JUMP JUMPDEST PUSH2 0xA52 JUMP JUMPDEST STOP JUMPDEST DUP2 DUP1 ISZERO PUSH2 0x2E8 JUMPI PUSH0 DUP1 REVERT JUMPDEST POP PUSH2 0x303 PUSH1 0x4 DUP1 CALLDATASIZE SUB DUP2 ADD SWAP1 PUSH2 0x2FE SWAP2 SWAP1 PUSH2 0x2752 JUMP JUMPDEST PUSH2 0xD34 JUMP JUMPDEST STOP JUMPDEST PUSH2 0x30D PUSH2 0xDCF JUMP JUMPDEST PUSH1 0x40 MLOAD PUSH2 0x31A SWAP2 SWAP1 PUSH2 0x27A8 JUMP JUMPDEST PUSH1 0x40 MLOAD DUP1 SWAP2 SUB SWAP1 RETURN JUMPDEST PUSH2 0x33D PUSH1 0x4 DUP1 CALLDATASIZE SUB DUP2 ADD SWAP1 PUSH2 0x338 SWAP2 SWAP1 PUSH2 0x27C1 JUMP JUMPDEST PUSH2 0xE1E JUMP JUMPDEST PUSH1 0x40 MLOAD PUSH2 0x34A SWAP2 SWAP1 PUSH2 0x27FB JUMP JUMPDEST PUSH1 0x40 MLOAD DUP1 SWAP2 SUB SWAP1 RETURN JUMPDEST DUP2 DUP1 ISZERO PUSH2 0x35E JUMPI PUSH0 DUP1 REVERT JUMPDEST POP PUSH2 0x379 PUSH1 0x4 DUP1 CALLDATASIZE SUB DUP2 ADD SWAP1 PUSH2 0x374 SWAP2 SWAP1 PUSH2 0x283E JUMP JUMPDEST PUSH2 0xEAA JUMP JUMPDEST STOP JUMPDEST DUP2 DUP1 ISZERO PUSH2 0x386 JUMPI PUSH0 DUP1 REVERT JUMPDEST POP PUSH2 0x3A1 PUSH1 0x4 DUP1 CALLDATASIZE SUB DUP2 ADD SWAP1 PUSH2 0x39C SWAP2 SWAP1 PUSH2 0x2869 JUMP JUMPDEST PUSH2 0xEFA JUMP JUMPDEST STOP JUMPDEST PUSH2 0x3AB PUSH2 0xF4A JUMP JUMPDEST PUSH1 0x40 MLOAD PUSH2 0x3B8 SWAP2 SWAP1 PUSH2 0x27A8 JUMP JUMPDEST PUSH1 0x40 MLOAD DUP1 SWAP2 SUB SWAP1 RETURN JUMPDEST DUP2 DUP1 ISZERO PUSH2 0x3CC JUMPI PUSH0 DUP1 REVERT JUMPDEST POP PUSH2 0x3E7 PUSH1 0x4 DUP1 CALLDATASIZE SUB DUP2 ADD SWAP1 PUSH2 0x3E2 SWAP2 SWAP1 PUSH2 0x2869 JUMP JUMPDEST PUSH2 0xF99 JUMP JUMPDEST STOP JUMPDEST DUP2 DUP1 ISZERO PUSH2 0x3F4 JUMPI PUSH0 DUP1 REVERT JUMPDEST POP PUSH2 0x40F PUSH1 0x4 DUP1 CALLDATASIZE SUB DUP2 ADD SWAP1 PUSH2 0x40A SWAP2 SWAP1 PUSH2 0x283E JUMP JUMPDEST PUSH2 0xFE9 JUMP JUMPDEST STOP JUMPDEST DUP2 DUP1 ISZERO PUSH2 0x41C JUMPI PUSH0 DUP1 REVERT JUMPDEST POP PUSH2 0x437 PUSH1 0x4 DUP1 CALLDATASIZE SUB DUP2 ADD SWAP1 PUSH2 0x432 SWAP2 SWAP1 PUSH2 0x2869 JUMP JUMPDEST PUSH2 0x1039 JUMP JUMPDEST STOP JUMPDEST DUP2 DUP1 ISZERO PUSH2 0x444 JUMPI PUSH0 DUP1 REVERT JUMPDEST POP PUSH2 0x45F PUSH1 0x4 DUP1 CALLDATASIZE SUB DUP2 ADD SWAP1 PUSH2 0x45A SWAP2 SWAP1 PUSH2 0x2869 JUMP JUMPDEST PUSH2 0x1089 JUMP JUMPDEST STOP JUMPDEST DUP2 DUP1 ISZERO PUSH2 0x46C JUMPI PUSH0 DUP1 REVERT JUMPDEST POP PUSH2 0x487 PUSH1 0x4 DUP1 CALLDATASIZE SUB DUP2 ADD SWAP1 PUSH2 0x482 SWAP2 SWAP1 PUSH2 0x29C0 JUMP JUMPDEST PUSH2 0x1333 JUMP JUMPDEST STOP JUMPDEST PUSH2 0x491 PUSH2 0x138C JUMP JUMPDEST PUSH1 0x40 MLOAD PUSH2 0x49E SWAP2 SWAP1 PUSH2 0x27FB JUMP JUMPDEST PUSH1 0x40 MLOAD DUP1 SWAP2 SUB SWAP1 RETURN JUMPDEST PUSH2 0x4C1 PUSH1 0x4 DUP1 CALLDATASIZE SUB DUP2 ADD SWAP1 PUSH2 0x4BC SWAP2 SWAP1 PUSH2 0x2869 JUMP JUMPDEST PUSH2 0x13DB JUMP JUMPDEST PUSH1 0x40 MLOAD PUSH2 0x4CE SWAP2 SWAP1 PUSH2 0x27FB JUMP JUMPDEST PUSH1 0x40 MLOAD DUP1 SWAP2 SUB SWAP1 RETURN JUMPDEST DUP2 DUP1 ISZERO PUSH2 0x4E2 JUMPI PUSH0 DUP1 REVERT JUMPDEST POP PUSH2 0x4FD PUSH1 0x4 DUP1 CALLDATASIZE SUB DUP2 ADD SWAP1 PUSH2 0x4F8 SWAP2 SWAP1 PUSH2 0x2702 JUMP JUMPDEST PUSH2 0x143B JUMP JUMPDEST STOP JUMPDEST DUP2 DUP1 ISZERO PUSH2 0x50A JUMPI PUSH0 DUP1 REVERT JUMPDEST POP PUSH2 0x525 PUSH1 0x4 DUP1 CALLDATASIZE SUB DUP2 ADD SWAP1 PUSH2 0x520 SWAP2 SWAP1 PUSH2 0x2702 JUMP JUMPDEST PUSH2 0x14D7 JUMP JUMPDEST STOP JUMPDEST DUP2 DUP1 ISZERO PUSH2 0x532 JUMPI PUSH0 DUP1 REVERT JUMPDEST POP PUSH2 0x54D PUSH1 0x4 DUP1 CALLDATASIZE SUB DUP2 ADD SWAP1 PUSH2 0x548 SWAP2 SWAP1 PUSH2 0x29C0 JUMP JUMPDEST PUSH2 0x15CF JUMP JUMPDEST STOP JUMPDEST PUSH2 0x569 PUSH1 0x4 DUP1 CALLDATASIZE SUB DUP2 ADD SWAP1 PUSH2 0x564 SWAP2 SWAP1 PUSH2 0x2869 JUMP JUMPDEST PUSH2 0x1628 JUMP JUMPDEST PUSH1 0x40 MLOAD PUSH2 0x576 SWAP2 SWAP1 PUSH2 0x2644 JUMP JUMPDEST PUSH1 0x40 MLOAD DUP1 SWAP2 SUB SWAP1 RETURN JUMPDEST PUSH2 0x587 PUSH2 0x170F JUMP JUMPDEST PUSH1 0x40 MLOAD PUSH2 0x594 SWAP2 SWAP1 PUSH2 0x2ABE JUMP JUMPDEST PUSH1 0x40 MLOAD DUP1 SWAP2 SUB SWAP1 RETURN JUMPDEST PUSH2 0x5B7 PUSH1 0x4 DUP1 CALLDATASIZE SUB DUP2 ADD SWAP1 PUSH2 0x5B2 SWAP2 SWAP1 PUSH2 0x2869 JUMP JUMPDEST PUSH2 0x17AB JUMP JUMPDEST PUSH1 0x40 MLOAD PUSH2 0x5C4 SWAP2 SWAP1 PUSH2 0x27FB JUMP JUMPDEST PUSH1 0x40 MLOAD DUP1 SWAP2 SUB SWAP1 RETURN JUMPDEST DUP2 DUP1 ISZERO PUSH2 0x5D8 JUMPI PUSH0 DUP1 REVERT JUMPDEST POP PUSH2 0x5E1 PUSH2 0x180B JUMP JUMPDEST STOP JUMPDEST DUP2 DUP1 ISZERO PUSH2 0x5EE JUMPI PUSH0 DUP1 REVERT JUMPDEST POP PUSH2 0x609 PUSH1 0x4 DUP1 CALLDATASIZE SUB DUP2 ADD SWAP1 PUSH2 0x604 SWAP2 SWAP1 PUSH2 0x29C0 JUMP JUMPDEST PUSH2 0x18B3 JUMP JUMPDEST STOP JUMPDEST DUP2 DUP1 ISZERO PUSH2 0x616 JUMPI PUSH0 DUP1 REVERT JUMPDEST POP PUSH2 0x631 PUSH1 0x4 DUP1 CALLDATASIZE SUB DUP2 ADD SWAP1 PUSH2 0x62C SWAP2 SWAP1 PUSH2 0x2B13 JUMP JUMPDEST PUSH2 0x190C JUMP JUMPDEST STOP JUMPDEST DUP2 DUP1 ISZERO PUSH2 0x63E JUMPI PUSH0 DUP1 REVERT JUMPDEST POP PUSH2 0x659 PUSH1 0x4 DUP1 CALLDATASIZE SUB DUP2 ADD SWAP1 PUSH2 0x654 SWAP2 SWAP1 PUSH2 0x283E JUMP JUMPDEST PUSH2 0x19E6 JUMP JUMPDEST STOP JUMPDEST DUP2 DUP1 ISZERO PUSH2 0x666 JUMPI PUSH0 DUP1 REVERT JUMPDEST POP PUSH2 0x681 PUSH1 0x4 DUP1 CALLDATASIZE SUB DUP2 ADD SWAP1 PUSH2 0x67C SWAP2 SWAP1 PUSH2 0x2869 JUMP JUMPDEST PUSH2 0x1A36 JUMP JUMPDEST STOP JUMPDEST PUSH2 0x68B PUSH2 0x1A86 JUMP JUMPDEST PUSH1 0x40 MLOAD PUSH2 0x698 SWAP2 SWAP1 PUSH2 0x27FB JUMP JUMPDEST PUSH1 0x40 MLOAD DUP1 SWAP2 SUB SWAP1 RETURN JUMPDEST PUSH2 0x6A9 PUSH2 0x1AD5 JUMP JUMPDEST PUSH1 0x40 MLOAD PUSH2 0x6B6 SWAP2 SWAP1 PUSH2 0x2644 JUMP JUMPDEST PUSH1 0x40 MLOAD DUP1 SWAP2 SUB SWAP1 RETURN JUMPDEST PUSH2 0x6C7 PUSH2 0x1BAB JUMP JUMPDEST PUSH1 0x40 MLOAD PUSH2 0x6D4 SWAP2 SWAP1 PUSH2 0x2644 JUMP JUMPDEST PUSH1 0x40 MLOAD DUP1 SWAP2 SUB SWAP1 RETURN JUMPDEST PUSH2 0x6E5 PUSH2 0x1C81 JUMP JUMPDEST PUSH1 0x40 MLOAD PUSH2 0x6F2 SWAP2 SWAP1 PUSH2 0x27FB JUMP JUMPDEST PUSH1 0x40 MLOAD DUP1 SWAP2 SUB SWAP1 RETURN JUMPDEST DUP2 DUP1 ISZERO PUSH2 0x706 JUMPI PUSH0 DUP1 REVERT JUMPDEST POP PUSH2 0x721 PUSH1 0x4 DUP1 CALLDATASIZE SUB DUP2 ADD SWAP1 PUSH2 0x71C SWAP2 SWAP1 PUSH2 0x29C0 JUMP JUMPDEST PUSH2 0x1CD0 JUMP JUMPDEST STOP JUMPDEST DUP2 DUP1 ISZERO PUSH2 0x72E JUMPI PUSH0 DUP1 REVERT JUMPDEST POP PUSH2 0x749 PUSH1 0x4 DUP1 CALLDATASIZE SUB DUP2 ADD SWAP1 PUSH2 0x744 SWAP2 SWAP1 PUSH2 0x2B63 JUMP JUMPDEST PUSH2 0x1D28 JUMP JUMPDEST STOP JUMPDEST PUSH2 0x765 PUSH1 0x4 DUP1 CALLDATASIZE SUB DUP2 ADD SWAP1 PUSH2 0x760 SWAP2 SWAP1 PUSH2 0x2869 JUMP JUMPDEST PUSH2 0x1DB4 JUMP JUMPDEST PUSH1 0x40 MLOAD PUSH2 0x772 SWAP2 SWAP1 PUSH2 0x2BCA JUMP JUMPDEST PUSH1 0x40 MLOAD DUP1 SWAP2 SUB SWAP1 RETURN JUMPDEST DUP2 DUP1 ISZERO PUSH2 0x786 JUMPI PUSH0 DUP1 REVERT JUMPDEST POP PUSH2 0x7A1 PUSH1 0x4 DUP1 CALLDATASIZE SUB DUP2 ADD SWAP1 PUSH2 0x79C SWAP2 SWAP1 PUSH2 0x2BE3 JUMP JUMPDEST PUSH2 0x1E79 JUMP JUMPDEST STOP JUMPDEST DUP2 DUP1 ISZERO PUSH2 0x7AE JUMPI PUSH0 DUP1 REVERT JUMPDEST POP PUSH2 0x7C9 PUSH1 0x4 DUP1 CALLDATASIZE SUB DUP2 ADD SWAP1 PUSH2 0x7C4 SWAP2 SWAP1 PUSH2 0x2C21 JUMP JUMPDEST PUSH2 0x1ED9 JUMP JUMPDEST STOP JUMPDEST PUSH2 0x7E5 PUSH1 0x4 DUP1 CALLDATASIZE SUB DUP2 ADD SWAP1 PUSH2 0x7E0 SWAP2 SWAP1 PUSH2 0x27C1 JUMP JUMPDEST PUSH2 0x1F77 JUMP JUMPDEST PUSH1 0x40 MLOAD PUSH2 0x7F2 SWAP2 SWAP1 PUSH2 0x2C6E JUMP JUMPDEST PUSH1 0x40 MLOAD DUP1 SWAP2 SUB SWAP1 RETURN JUMPDEST PUSH2 0x803 PUSH2 0x200F JUMP JUMPDEST PUSH1 0x40 MLOAD PUSH2 0x810 SWAP2 SWAP1 PUSH2 0x27FB JUMP JUMPDEST PUSH1 0x40 MLOAD DUP1 SWAP2 SUB SWAP1 RETURN JUMPDEST PUSH2 0x821 PUSH2 0x205E JUMP JUMPDEST PUSH1 0x40 MLOAD PUSH2 0x82E SWAP2 SWAP1 PUSH2 0x2644 JUMP JUMPDEST PUSH1 0x40 MLOAD DUP1 SWAP2 SUB SWAP1 RETURN JUMPDEST DUP2 DUP1 ISZERO PUSH2 0x842 JUMPI PUSH0 DUP1 REVERT JUMPDEST POP PUSH2 0x85D PUSH1 0x4 DUP1 CALLDATASIZE SUB DUP2 ADD SWAP1 PUSH2 0x858 SWAP2 SWAP1 PUSH2 0x2869 JUMP JUMPDEST PUSH2 0x2133 JUMP JUMPDEST STOP JUMPDEST PUSH2 0x867 PUSH2 0x2249 JUMP JUMPDEST PUSH1 0x40 MLOAD PUSH2 0x874 SWAP2 SWAP1 PUSH2 0x27FB JUMP JUMPDEST PUSH1 0x40 MLOAD DUP1 SWAP2 SUB SWAP1 RETURN JUMPDEST DUP2 DUP1 ISZERO PUSH2 0x888 JUMPI PUSH0 DUP1 REVERT JUMPDEST POP PUSH2 0x8A3 PUSH1 0x4 DUP1 CALLDATASIZE SUB DUP2 ADD SWAP1 PUSH2 0x89E SWAP2 SWAP1 PUSH2 0x2C87 JUMP JUMPDEST PUSH2 0x2298 JUMP JUMPDEST STOP JUMPDEST PUSH2 0x8BF PUSH1 0x4 DUP1 CALLDATASIZE SUB DUP2 ADD SWAP1 PUSH2 0x8BA SWAP2 SWAP1 PUSH2 0x2B63 JUMP JUMPDEST PUSH2 0x2301 JUMP JUMPDEST PUSH1 0x40 MLOAD PUSH2 0x8CC SWAP2 SWAP1 PUSH2 0x27FB JUMP JUMPDEST PUSH1 0x40 MLOAD DUP1 SWAP2 SUB SWAP1 RETURN JUMPDEST DUP2 DUP1 ISZERO PUSH2 0x8E0 JUMPI PUSH0 DUP1 REVERT JUMPDEST POP PUSH2 0x8FB PUSH1 0x4 DUP1 CALLDATASIZE SUB DUP2 ADD SWAP1 PUSH2 0x8F6 SWAP2 SWAP1 PUSH2 0x2BE3 JUMP JUMPDEST PUSH2 0x239D JUMP JUMPDEST STOP JUMPDEST PUSH2 0x917 PUSH1 0x4 DUP1 CALLDATASIZE SUB DUP2 ADD SWAP1 PUSH2 0x912 SWAP2 SWAP1 PUSH2 0x2CE1 JUMP JUMPDEST PUSH2 0x23FD JUMP JUMPDEST PUSH1 0x40 MLOAD PUSH2 0x924 SWAP2 SWAP1 PUSH2 0x2C6E JUMP JUMPDEST PUSH1 0x40 MLOAD DUP1 SWAP2 SUB SWAP1 RETURN JUMPDEST PUSH2 0x947 PUSH1 0x4 DUP1 CALLDATASIZE SUB DUP2 ADD SWAP1 PUSH2 0x942 SWAP2 SWAP1 PUSH2 0x2869 JUMP JUMPDEST PUSH2 0x24D1 JUMP JUMPDEST PUSH1 0x40 MLOAD PUSH2 0x955 SWAP3 SWAP2 SWAP1 PUSH2 0x2D2E JUMP JUMPDEST PUSH1 0x40 MLOAD DUP1 SWAP2 SUB SWAP1 RETURN JUMPDEST PUSH2 0x966 PUSH2 0x253A JUMP JUMPDEST PUSH1 0x40 MLOAD PUSH2 0x973 SWAP2 SWAP1 PUSH2 0x27A8 JUMP JUMPDEST PUSH1 0x40 MLOAD DUP1 SWAP2 SUB SWAP1 RETURN JUMPDEST PUSH1 0x60 PUSH2 0x9C3 PUSH1 0x40 MLOAD DUP1 PUSH1 0x40 ADD PUSH1 0x40 MSTORE DUP1 PUSH1 0x6 DUP2 MSTORE PUSH1 0x20 ADD PUSH32 0x534D45616D620000000000000000000000000000000000000000000000000000 DUP2 MSTORE POP DUP1 MLOAD SWAP1 PUSH1 0x20 ADD KECCAK256 PUSH2 0x2589 JUMP JUMPDEST PUSH1 0xE ADD DUP1 SLOAD PUSH2 0x9D1 SWAP1 PUSH2 0x2D82 JUMP JUMPDEST DUP1 PUSH1 0x1F ADD PUSH1 0x20 DUP1 SWAP2 DIV MUL PUSH1 0x20 ADD PUSH1 0x40 MLOAD SWAP1 DUP2 ADD PUSH1 0x40 MSTORE DUP1 SWAP3 SWAP2 SWAP1 DUP2 DUP2 MSTORE PUSH1 0x20 ADD DUP3 DUP1 SLOAD PUSH2 0x9FD SWAP1 PUSH2 0x2D82 JUMP JUMPDEST DUP1 ISZERO PUSH2 0xA48 JUMPI DUP1 PUSH1 0x1F LT PUSH2 0xA1F JUMPI PUSH2 0x100 DUP1 DUP4 SLOAD DIV MUL DUP4 MSTORE SWAP2 PUSH1 0x20 ADD SWAP2 PUSH2 0xA48 JUMP JUMPDEST DUP3 ADD SWAP2 SWAP1 PUSH0 MSTORE PUSH1 0x20 PUSH0 KECCAK256 SWAP1 JUMPDEST DUP2 SLOAD DUP2 MSTORE SWAP1 PUSH1 0x1 ADD SWAP1 PUSH1 0x20 ADD DUP1 DUP4 GT PUSH2 0xA2B JUMPI DUP3 SWAP1 SUB PUSH1 0x1F AND DUP3 ADD SWAP2 JUMPDEST POP POP POP POP POP SWAP1 POP SWAP1 JUMP JUMPDEST PUSH0 PUSH2 0xA98 PUSH1 0x40 MLOAD DUP1 PUSH1 0x40 ADD PUSH1 0x40 MSTORE DUP1 PUSH1 0x6 DUP2 MSTORE PUSH1 0x20 ADD PUSH32 0x534D45616D620000000000000000000000000000000000000000000000000000 DUP2 MSTORE POP DUP1 MLOAD SWAP1 PUSH1 0x20 ADD KECCAK256 PUSH2 0x2589 JUMP JUMPDEST PUSH1 0x4 ADD PUSH0 DUP5 DUP2 MSTORE PUSH1 0x20 ADD SWAP1 DUP2 MSTORE PUSH1 0x20 ADD PUSH0 KECCAK256 SLOAD SWAP1 POP DUP2 DUP2 EQ PUSH2 0xC3F JUMPI PUSH0 PUSH2 0xAFA PUSH1 0x40 MLOAD DUP1 PUSH1 0x40 ADD PUSH1 0x40 MSTORE DUP1 PUSH1 0x6 DUP2 MSTORE PUSH1 0x20 ADD PUSH32 0x534D45616D620000000000000000000000000000000000000000000000000000 DUP2 MSTORE POP DUP1 MLOAD SWAP1 PUSH1 0x20 ADD KECCAK256 PUSH2 0x2589 JUMP JUMPDEST PUSH1 0x3 ADD PUSH0 DUP7 PUSH20 0xFFFFFFFFFFFFFFFFFFFFFFFFFFFFFFFFFFFFFFFF AND PUSH20 0xFFFFFFFFFFFFFFFFFFFFFFFFFFFFFFFFFFFFFFFF AND DUP2 MSTORE PUSH1 0x20 ADD SWAP1 DUP2 MSTORE PUSH1 0x20 ADD PUSH0 KECCAK256 PUSH0 DUP5 DUP2 MSTORE PUSH1 0x20 ADD SWAP1 DUP2 MSTORE PUSH1 0x20 ADD PUSH0 KECCAK256 SLOAD SWAP1 POP DUP1 PUSH2 0xB90 PUSH1 0x40 MLOAD DUP1 PUSH1 0x40 ADD PUSH1 0x40 MSTORE DUP1 PUSH1 0x6 DUP2 MSTORE PUSH1 0x20 ADD PUSH32 0x534D45616D620000000000000000000000000000000000000000000000000000 DUP2 MSTORE POP DUP1 MLOAD SWAP1 PUSH1 0x20 ADD KECCAK256 PUSH2 0x2589 JUMP JUMPDEST PUSH1 0x3 ADD PUSH0 DUP8 PUSH20 0xFFFFFFFFFFFFFFFFFFFFFFFFFFFFFFFFFFFFFFFF AND PUSH20 0xFFFFFFFFFFFFFFFFFFFFFFFFFFFFFFFFFFFFFFFF AND DUP2 MSTORE PUSH1 0x20 ADD SWAP1 DUP2 MSTORE PUSH1 0x20 ADD PUSH0 KECCAK256 PUSH0 DUP5 DUP2 MSTORE PUSH1 0x20 ADD SWAP1 DUP2 MSTORE PUSH1 0x20 ADD PUSH0 KECCAK256 DUP2 SWAP1 SSTORE POP DUP2 PUSH2 0xC27 PUSH1 0x40 MLOAD DUP1 PUSH1 0x40 ADD PUSH1 0x40 MSTORE DUP1 PUSH1 0x6 DUP2 MSTORE PUSH1 0x20 ADD PUSH32 0x534D45616D620000000000000000000000000000000000000000000000000000 DUP2 MSTORE POP DUP1 MLOAD SWAP1 PUSH1 0x20 ADD KECCAK256 PUSH2 0x2589 JUMP JUMPDEST PUSH1 0x4 ADD PUSH0 DUP4 DUP2 MSTORE PUSH1 0x20 ADD SWAP1 DUP2 MSTORE PUSH1 0x20 ADD PUSH0 KECCAK256 DUP2 SWAP1 SSTORE POP POP JUMPDEST PUSH2 0xC84 PUSH1 0x40 MLOAD DUP1 PUSH1 0x40 ADD PUSH1 0x40 MSTORE DUP1 PUSH1 0x6 DUP2 MSTORE PUSH1 0x20 ADD PUSH32 0x534D45616D620000000000000000000000000000000000000000000000000000 DUP2 MSTORE POP DUP1 MLOAD SWAP1 PUSH1 0x20 ADD KECCAK256 PUSH2 0x2589 JUMP JUMPDEST PUSH1 0x4 ADD PUSH0 DUP5 DUP2 MSTORE PUSH1 0x20 ADD SWAP1 DUP2 MSTORE PUSH1 0x20 ADD PUSH0 KECCAK256 PUSH0 SWAP1 SSTORE PUSH2 0xCDE PUSH1 0x40 MLOAD DUP1 PUSH1 0x40 ADD PUSH1 0x40 MSTORE DUP1 PUSH1 0x6 DUP2 MSTORE PUSH1 0x20 ADD PUSH32 0x534D45616D620000000000000000000000000000000000000000000000000000 DUP2 MSTORE POP DUP1 MLOAD SWAP1 PUSH1 0x20 ADD KECCAK256 PUSH2 0x2589 JUMP JUMPDEST PUSH1 0x3 ADD PUSH0 DUP6 PUSH20 0xFFFFFFFFFFFFFFFFFFFFFFFFFFFFFFFFFFFFFFFF AND PUSH20 0xFFFFFFFFFFFFFFFFFFFFFFFFFFFFFFFFFFFFFFFF AND DUP2 MSTORE PUSH1 0x20 ADD SWAP1 DUP2 MSTORE PUSH1 0x20 ADD PUSH0 KECCAK256 PUSH0 DUP4 DUP2 MSTORE PUSH1 0x20 ADD SWAP1 DUP2 MSTORE PUSH1 0x20 ADD PUSH0 KECCAK256 PUSH0 SWAP1 SSTORE POP POP POP POP JUMP JUMPDEST DUP1 PUSH2 0xD7A PUSH1 0x40 MLOAD DUP1 PUSH1 0x40 ADD PUSH1 0x40 MSTORE DUP1 PUSH1 0x6 DUP2 MSTORE PUSH1 0x20 ADD PUSH32 0x534D45616D620000000000000000000000000000000000000000000000000000 DUP2 MSTORE POP DUP1 MLOAD SWAP1 PUSH1 0x20 ADD KECCAK256 PUSH2 0x2589 JUMP JUMPDEST PUSH1 0x12 ADD PUSH0 DUP5 DUP2 MSTORE PUSH1 0x20 ADD SWAP1 DUP2 MSTORE PUSH1 0x20 ADD PUSH0 KECCAK256 PUSH0 ADD PUSH0 PUSH2 0x100 EXP DUP2 SLOAD DUP2 PUSH20 0xFFFFFFFFFFFFFFFFFFFFFFFFFFFFFFFFFFFFFFFF MUL NOT AND SWAP1 DUP4 PUSH20 0xFFFFFFFFFFFFFFFFFFFFFFFFFFFFFFFFFFFFFFFF AND MUL OR SWAP1 SSTORE POP POP POP JUMP JUMPDEST PUSH0 PUSH2 0xE15 PUSH1 0x40 MLOAD DUP1 PUSH1 0x40 ADD PUSH1 0x40 MSTORE DUP1 PUSH1 0x6 DUP2 MSTORE PUSH1 0x20 ADD PUSH32 0x534D45616D620000000000000000000000000000000000000000000000000000 DUP2 MSTORE POP DUP1 MLOAD SWAP1 PUSH1 0x20 ADD KECCAK256 PUSH2 0x2589 JUMP JUMPDEST PUSH1 0x7 ADD SLOAD SWAP1 POP SWAP1 JUMP JUMPDEST PUSH0 PUSH2 0xE64 PUSH1 0x40 MLOAD DUP1 PUSH1 0x40 ADD PUSH1 0x40 MSTORE DUP1 PUSH1 0x6 DUP2 MSTORE PUSH1 0x20 ADD PUSH32 0x534D45616D620000000000000000000000000000000000000000000000000000 DUP2 MSTORE POP DUP1 MLOAD SWAP1 PUSH1 0x20 ADD KECCAK256 PUSH2 0x2589 JUMP JUMPDEST PUSH1 0x11 ADD PUSH0 DUP4 PUSH20 0xFFFFFFFFFFFFFFFFFFFFFFFFFFFFFFFFFFFFFFFF AND PUSH20 0xFFFFFFFFFFFFFFFFFFFFFFFFFFFFFFFFFFFFFFFF AND DUP2 MSTORE PUSH1 0x20 ADD SWAP1 DUP2 MSTORE PUSH1 0x20 ADD PUSH0 KECCAK256 SLOAD SWAP1 POP SWAP2 SWAP1 POP JUMP JUMPDEST DUP1 PUSH2 0xEF0 PUSH1 0x40 MLOAD DUP1 PUSH1 0x40 ADD PUSH1 0x40 MSTORE DUP1 PUSH1 0x6 DUP2 MSTORE PUSH1 0x20 ADD PUSH32 0x534D45616D620000000000000000000000000000000000000000000000000000 DUP2 MSTORE POP DUP1 MLOAD SWAP1 PUSH1 0x20 ADD KECCAK256 PUSH2 0x2589 JUMP JUMPDEST PUSH1 0x9 ADD DUP2 SWAP1 SSTORE POP POP JUMP JUMPDEST DUP1 PUSH2 0xF40 PUSH1 0x40 MLOAD DUP1 PUSH1 0x40 ADD PUSH1 0x40 MSTORE DUP1 PUSH1 0x6 DUP2 MSTORE PUSH1 0x20 ADD PUSH32 0x534D45616D620000000000000000000000000000000000000000000000000000 DUP2 MSTORE POP DUP1 MLOAD SWAP1 PUSH1 0x20 ADD KECCAK256 PUSH2 0x2589 JUMP JUMPDEST PUSH1 0x15 ADD DUP2 SWAP1 SSTORE POP POP JUMP JUMPDEST PUSH0 PUSH2 0xF90 PUSH1 0x40 MLOAD DUP1 PUSH1 0x40 ADD PUSH1 0x40 MSTORE DUP1 PUSH1 0x6 DUP2 MSTORE PUSH1 0x20 ADD PUSH32 0x534D45616D620000000000000000000000000000000000000000000000000000 DUP2 MSTORE POP DUP1 MLOAD SWAP1 PUSH1 0x20 ADD KECCAK256 PUSH2 0x2589 JUMP JUMPDEST PUSH1 0x9 ADD SLOAD SWAP1 POP SWAP1 JUMP JUMPDEST DUP1 PUSH2 0xFDF PUSH1 0x40 MLOAD DUP1 PUSH1 0x40 ADD PUSH1 0x40 MSTORE DUP1 PUSH1 0x6 DUP2 MSTORE PUSH1 0x20 ADD PUSH32 0x534D45616D620000000000000000000000000000000000000000000000000000 DUP2 MSTORE POP DUP1 MLOAD SWAP1 PUSH1 0x20 ADD KECCAK256 PUSH2 0x2589 JUMP JUMPDEST PUSH1 0xC ADD DUP2 SWAP1 SSTORE POP POP JUMP JUMPDEST DUP1 PUSH2 0x102F PUSH1 0x40 MLOAD DUP1 PUSH1 0x40 ADD PUSH1 0x40 MSTORE DUP1 PUSH1 0x6 DUP2 MSTORE PUSH1 0x20 ADD PUSH32 0x534D45616D620000000000000000000000000000000000000000000000000000 DUP2 MSTORE POP DUP1 MLOAD SWAP1 PUSH1 0x20 ADD KECCAK256 PUSH2 0x2589 JUMP JUMPDEST PUSH1 0x7 ADD DUP2 SWAP1 SSTORE POP POP JUMP JUMPDEST DUP1 PUSH2 0x107F PUSH1 0x40 MLOAD DUP1 PUSH1 0x40 ADD PUSH1 0x40 MSTORE DUP1 PUSH1 0x6 DUP2 MSTORE PUSH1 0x20 ADD PUSH32 0x534D45616D620000000000000000000000000000000000000000000000000000 DUP2 MSTORE POP DUP1 MLOAD SWAP1 PUSH1 0x20 ADD KECCAK256 PUSH2 0x2589 JUMP JUMPDEST PUSH1 0xA ADD DUP2 SWAP1 SSTORE POP POP JUMP JUMPDEST PUSH0 PUSH1 0x1 PUSH2 0x10D1 PUSH1 0x40 MLOAD DUP1 PUSH1 0x40 ADD PUSH1 0x40 MSTORE DUP1 PUSH1 0x6 DUP2 MSTORE PUSH1 0x20 ADD PUSH32 0x534D45616D620000000000000000000000000000000000000000000000000000 DUP2 MSTORE POP DUP1 MLOAD SWAP1 PUSH1 0x20 ADD KECCAK256 PUSH2 0x2589 JUMP JUMPDEST PUSH1 0x5 ADD DUP1 SLOAD SWAP1 POP PUSH2 0x10E2 SWAP2 SWAP1 PUSH2 0x2DDF JUMP JUMPDEST SWAP1 POP PUSH0 PUSH2 0x112A PUSH1 0x40 MLOAD DUP1 PUSH1 0x40 ADD PUSH1 0x40 MSTORE DUP1 PUSH1 0x6 DUP2 MSTORE PUSH1 0x20 ADD PUSH32 0x534D45616D620000000000000000000000000000000000000000000000000000 DUP2 MSTORE POP DUP1 MLOAD SWAP1 PUSH1 0x20 ADD KECCAK256 PUSH2 0x2589 JUMP JUMPDEST PUSH1 0x6 ADD PUSH0 DUP5 DUP2 MSTORE PUSH1 0x20 ADD SWAP1 DUP2 MSTORE PUSH1 0x20 ADD PUSH0 KECCAK256 SLOAD SWAP1 POP PUSH0 PUSH2 0x1185 PUSH1 0x40 MLOAD DUP1 PUSH1 0x40 ADD PUSH1 0x40 MSTORE DUP1 PUSH1 0x6 DUP2 MSTORE PUSH1 0x20 ADD PUSH32 0x534D45616D620000000000000000000000000000000000000000000000000000 DUP2 MSTORE POP DUP1 MLOAD SWAP1 PUSH1 0x20 ADD KECCAK256 PUSH2 0x2589 JUMP JUMPDEST PUSH1 0x5 ADD DUP4 DUP2 SLOAD DUP2 LT PUSH2 0x119A JUMPI PUSH2 0x1199 PUSH2 0x2E12 JUMP JUMPDEST JUMPDEST SWAP1 PUSH0 MSTORE PUSH1 0x20 PUSH0 KECCAK256 ADD SLOAD SWAP1 POP DUP1 PUSH2 0x11EB PUSH1 0x40 MLOAD DUP1 PUSH1 0x40 ADD PUSH1 0x40 MSTORE DUP1 PUSH1 0x6 DUP2 MSTORE PUSH1 0x20 ADD PUSH32 0x534D45616D620000000000000000000000000000000000000000000000000000 DUP2 MSTORE POP DUP1 MLOAD SWAP1 PUSH1 0x20 ADD KECCAK256 PUSH2 0x2589 JUMP JUMPDEST PUSH1 0x5 ADD DUP4 DUP2 SLOAD DUP2 LT PUSH2 0x1200 JUMPI PUSH2 0x11FF PUSH2 0x2E12 JUMP JUMPDEST JUMPDEST SWAP1 PUSH0 MSTORE PUSH1 0x20 PUSH0 KECCAK256 ADD DUP2 SWAP1 SSTORE POP DUP2 PUSH2 0x1252 PUSH1 0x40 MLOAD DUP1 PUSH1 0x40 ADD PUSH1 0x40 MSTORE DUP1 PUSH1 0x6 DUP2 MSTORE PUSH1 0x20 ADD PUSH32 0x534D45616D620000000000000000000000000000000000000000000000000000 DUP2 MSTORE POP DUP1 MLOAD SWAP1 PUSH1 0x20 ADD KECCAK256 PUSH2 0x2589 JUMP JUMPDEST PUSH1 0x6 ADD PUSH0 DUP4 DUP2 MSTORE PUSH1 0x20 ADD SWAP1 DUP2 MSTORE PUSH1 0x20 ADD PUSH0 KECCAK256 DUP2 SWAP1 SSTORE POP PUSH2 0x12AD PUSH1 0x40 MLOAD DUP1 PUSH1 0x40 ADD PUSH1 0x40 MSTORE DUP1 PUSH1 0x6 DUP2 MSTORE PUSH1 0x20 ADD PUSH32 0x534D45616D620000000000000000000000000000000000000000000000000000 DUP2 MSTORE POP DUP1 MLOAD SWAP1 PUSH1 0x20 ADD KECCAK256 PUSH2 0x2589 JUMP JUMPDEST PUSH1 0x6 ADD PUSH0 DUP6 DUP2 MSTORE PUSH1 0x20 ADD SWAP1 DUP2 MSTORE PUSH1 0x20 ADD PUSH0 KECCAK256 PUSH0 SWAP1 SSTORE PUSH2 0x1307 PUSH1 0x40 MLOAD DUP1 PUSH1 0x40 ADD PUSH1 0x40 MSTORE DUP1 PUSH1 0x6 DUP2 MSTORE PUSH1 0x20 ADD PUSH32 0x534D45616D620000000000000000000000000000000000000000000000000000 DUP2 MSTORE POP DUP1 MLOAD SWAP1 PUSH1 0x20 ADD KECCAK256 PUSH2 0x2589 JUMP JUMPDEST PUSH1 0x5 ADD DUP1 SLOAD DUP1 PUSH2 0x131A JUMPI PUSH2 0x1319 PUSH2 0x2E3F JUMP JUMPDEST JUMPDEST PUSH1 0x1 SWAP1 SUB DUP2 DUP2 SWAP1 PUSH0 MSTORE PUSH1 0x20 PUSH0 KECCAK256 ADD PUSH0 SWAP1 SSTORE SWAP1 SSTORE POP POP POP POP JUMP JUMPDEST DUP1 PUSH2 0x1379 PUSH1 0x40 MLOAD DUP1 PUSH1 0x40 ADD PUSH1 0x40 MSTORE DUP1 PUSH1 0x6 DUP2 MSTORE PUSH1 0x20 ADD PUSH32 0x534D45616D620000000000000000000000000000000000000000000000000000 DUP2 MSTORE POP DUP1 MLOAD SWAP1 PUSH1 0x20 ADD KECCAK256 PUSH2 0x2589 JUMP JUMPDEST PUSH1 0xF ADD SWAP1 DUP2 PUSH2 0x1388 SWAP2 SWAP1 PUSH2 0x3009 JUMP JUMPDEST POP POP JUMP JUMPDEST PUSH0 PUSH2 0x13D2 PUSH1 0x40 MLOAD DUP1 PUSH1 0x40 ADD PUSH1 0x40 MSTORE DUP1 PUSH1 0x6 DUP2 MSTORE PUSH1 0x20 ADD PUSH32 0x534D45616D620000000000000000000000000000000000000000000000000000 DUP2 MSTORE POP DUP1 MLOAD SWAP1 PUSH1 0x20 ADD KECCAK256 PUSH2 0x2589 JUMP JUMPDEST PUSH1 0xD ADD SLOAD SWAP1 POP SWAP1 JUMP JUMPDEST PUSH0 PUSH2 0x1421 PUSH1 0x40 MLOAD DUP1 PUSH1 0x40 ADD PUSH1 0x40 MSTORE DUP1 PUSH1 0x6 DUP2 MSTORE PUSH1 0x20 ADD PUSH32 0x534D45616D620000000000000000000000000000000000000000000000000000 DUP2 MSTORE POP DUP1 MLOAD SWAP1 PUSH1 0x20 ADD KECCAK256 PUSH2 0x2589 JUMP JUMPDEST PUSH1 0x10 ADD PUSH0 DUP4 DUP2 MSTORE PUSH1 0x20 ADD SWAP1 DUP2 MSTORE PUSH1 0x20 ADD PUSH0 KECCAK256 SLOAD SWAP1 POP SWAP2 SWAP1 POP JUMP JUMPDEST DUP1 PUSH2 0x1481 PUSH1 0x40 MLOAD DUP1 PUSH1 0x40 ADD PUSH1 0x40 MSTORE DUP1 PUSH1 0x6 DUP2 MSTORE PUSH1 0x20 ADD PUSH32 0x534D45616D620000000000000000000000000000000000000000000000000000 DUP2 MSTORE POP DUP1 MLOAD SWAP1 PUSH1 0x20 ADD KECCAK256 PUSH2 0x2589 JUMP JUMPDEST PUSH1 0x3 ADD PUSH0 DUP6 PUSH20 0xFFFFFFFFFFFFFFFFFFFFFFFFFFFFFFFFFFFFFFFF AND PUSH20 0xFFFFFFFFFFFFFFFFFFFFFFFFFFFFFFFFFFFFFFFF AND DUP2 MSTORE PUSH1 0x20 ADD SWAP1 DUP2 MSTORE PUSH1 0x20 ADD PUSH0 KECCAK256 PUSH0 DUP5 DUP2 MSTORE PUSH1 0x20 ADD SWAP1 DUP2 MSTORE PUSH1 0x20 ADD PUSH0 KECCAK256 DUP2 SWAP1 SSTORE POP POP POP POP JUMP JUMPDEST DUP2 PUSH2 0x151D PUSH1 0x40 MLOAD DUP1 PUSH1 0x40 ADD PUSH1 0x40 MSTORE DUP1 PUSH1 0x6 DUP2 MSTORE PUSH1 0x20 ADD PUSH32 0x534D45616D620000000000000000000000000000000000000000000000000000 DUP2 MSTORE POP DUP1 MLOAD SWAP1 PUSH1 0x20 ADD KECCAK256 PUSH2 0x2589 JUMP JUMPDEST PUSH1 0x3 ADD PUSH0 DUP6 PUSH20 0xFFFFFFFFFFFFFFFFFFFFFFFFFFFFFFFFFFFFFFFF AND PUSH20 0xFFFFFFFFFFFFFFFFFFFFFFFFFFFFFFFFFFFFFFFF AND DUP2 MSTORE PUSH1 0x20 ADD SWAP1 DUP2 MSTORE PUSH1 0x20 ADD PUSH0 KECCAK256 PUSH0 DUP4 DUP2 MSTORE PUSH1 0x20 ADD SWAP1 DUP2 MSTORE PUSH1 0x20 ADD PUSH0 KECCAK256 DUP2 SWAP1 SSTORE POP DUP1 PUSH2 0x15B4 PUSH1 0x40 MLOAD DUP1 PUSH1 0x40 ADD PUSH1 0x40 MSTORE DUP1 PUSH1 0x6 DUP2 MSTORE PUSH1 0x20 ADD PUSH32 0x534D45616D620000000000000000000000000000000000000000000000000000 DUP2 MSTORE POP DUP1 MLOAD SWAP1 PUSH1 0x20 ADD KECCAK256 PUSH2 0x2589 JUMP JUMPDEST PUSH1 0x4 ADD PUSH0 DUP5 DUP2 MSTORE PUSH1 0x20 ADD SWAP1 DUP2 MSTORE PUSH1 0x20 ADD PUSH0 KECCAK256 DUP2 SWAP1 SSTORE POP POP POP POP JUMP JUMPDEST DUP1 PUSH2 0x1615 PUSH1 0x40 MLOAD DUP1 PUSH1 0x40 ADD PUSH1 0x40 MSTORE DUP1 PUSH1 0x6 DUP2 MSTORE PUSH1 0x20 ADD PUSH32 0x534D45616D620000000000000000000000000000000000000000000000000000 DUP2 MSTORE POP DUP1 MLOAD SWAP1 PUSH1 0x20 ADD KECCAK256 PUSH2 0x2589 JUMP JUMPDEST PUSH1 0xE ADD SWAP1 DUP2 PUSH2 0x1624 SWAP2 SWAP1 PUSH2 0x3009 JUMP JUMPDEST POP POP JUMP JUMPDEST PUSH1 0x60 PUSH2 0x166F PUSH1 0x40 MLOAD DUP1 PUSH1 0x40 ADD PUSH1 0x40 MSTORE DUP1 PUSH1 0x6 DUP2 MSTORE PUSH1 0x20 ADD PUSH32 0x534D45616D620000000000000000000000000000000000000000000000000000 DUP2 MSTORE POP DUP1 MLOAD SWAP1 PUSH1 0x20 ADD KECCAK256 PUSH2 0x2589 JUMP JUMPDEST PUSH1 0x2 ADD PUSH0 DUP4 DUP2 MSTORE PUSH1 0x20 ADD SWAP1 DUP2 MSTORE PUSH1 0x20 ADD PUSH0 KECCAK256 DUP1 SLOAD PUSH2 0x168C SWAP1 PUSH2 0x2D82 JUMP JUMPDEST DUP1 PUSH1 0x1F ADD PUSH1 0x20 DUP1 SWAP2 DIV MUL PUSH1 0x20 ADD PUSH1 0x40 MLOAD SWAP1 DUP2 ADD PUSH1 0x40 MSTORE DUP1 SWAP3 SWAP2 SWAP1 DUP2 DUP2 MSTORE PUSH1 0x20 ADD DUP3 DUP1 SLOAD PUSH2 0x16B8 SWAP1 PUSH2 0x2D82 JUMP JUMPDEST DUP1 ISZERO PUSH2 0x1703 JUMPI DUP1 PUSH1 0x1F LT PUSH2 0x16DA JUMPI PUSH2 0x100 DUP1 DUP4 SLOAD DIV MUL DUP4 MSTORE SWAP2 PUSH1 0x20 ADD SWAP2 PUSH2 0x1703 JUMP JUMPDEST DUP3 ADD SWAP2 SWAP1 PUSH0 MSTORE PUSH1 0x20 PUSH0 KECCAK256 SWAP1 JUMPDEST DUP2 SLOAD DUP2 MSTORE SWAP1 PUSH1 0x1 ADD SWAP1 PUSH1 0x20 ADD DUP1 DUP4 GT PUSH2 0x16E6 JUMPI DUP3 SWAP1 SUB PUSH1 0x1F AND DUP3 ADD SWAP2 JUMPDEST POP POP POP POP POP SWAP1 POP SWAP2 SWAP1 POP JUMP JUMPDEST PUSH1 0x60 PUSH2 0x1756 PUSH1 0x40 MLOAD DUP1 PUSH1 0x40 ADD PUSH1 0x40 MSTORE DUP1 PUSH1 0x6 DUP2 MSTORE PUSH1 0x20 ADD PUSH32 0x534D45616D620000000000000000000000000000000000000000000000000000 DUP2 MSTORE POP DUP1 MLOAD SWAP1 PUSH1 0x20 ADD KECCAK256 PUSH2 0x2589 JUMP JUMPDEST PUSH1 0x5 ADD DUP1 SLOAD DUP1 PUSH1 0x20 MUL PUSH1 0x20 ADD PUSH1 0x40 MLOAD SWAP1 DUP2 ADD PUSH1 0x40 MSTORE DUP1 SWAP3 SWAP2 SWAP1 DUP2 DUP2 MSTORE PUSH1 0x20 ADD DUP3 DUP1 SLOAD DUP1 ISZERO PUSH2 0x17A1 JUMPI PUSH1 0x20 MUL DUP3 ADD SWAP2 SWAP1 PUSH0 MSTORE PUSH1 0x20 PUSH0 KECCAK256 SWAP1 JUMPDEST DUP2 SLOAD DUP2 MSTORE PUSH1 0x20 ADD SWAP1 PUSH1 0x1 ADD SWAP1 DUP1 DUP4 GT PUSH2 0x178D JUMPI JUMPDEST POP POP POP POP POP SWAP1 POP SWAP1 JUMP JUMPDEST PUSH0 PUSH2 0x17F1 PUSH1 0x40 MLOAD DUP1 PUSH1 0x40 ADD PUSH1 0x40 MSTORE DUP1 PUSH1 0x6 DUP2 MSTORE PUSH1 0x20 ADD PUSH32 0x534D45616D620000000000000000000000000000000000000000000000000000 DUP2 MSTORE POP DUP1 MLOAD SWAP1 PUSH1 0x20 ADD KECCAK256 PUSH2 0x2589 JUMP JUMPDEST PUSH1 0x4 ADD PUSH0 DUP4 DUP2 MSTORE PUSH1 0x20 ADD SWAP1 DUP2 MSTORE PUSH1 0x20 ADD PUSH0 KECCAK256 SLOAD SWAP1 POP SWAP2 SWAP1 POP JUMP JUMPDEST PUSH0 PUSH2 0x1851 PUSH1 0x40 MLOAD DUP1 PUSH1 0x40 ADD PUSH1 0x40 MSTORE DUP1 PUSH1 0x6 DUP2 MSTORE PUSH1 0x20 ADD PUSH32 0x534D45616D620000000000000000000000000000000000000000000000000000 DUP2 MSTORE POP DUP1 MLOAD SWAP1 PUSH1 0x20 ADD KECCAK256 PUSH2 0x2589 JUMP JUMPDEST PUSH1 0x14 ADD SLOAD SWAP1 POP PUSH1 0x1 DUP2 PUSH2 0x1864 SWAP2 SWAP1 PUSH2 0x30D8 JUMP JUMPDEST PUSH2 0x18A9 PUSH1 0x40 MLOAD DUP1 PUSH1 0x40 ADD PUSH1 0x40 MSTORE DUP1 PUSH1 0x6 DUP2 MSTORE PUSH1 0x20 ADD PUSH32 0x534D45616D620000000000000000000000000000000000000000000000000000 DUP2 MSTORE POP DUP1 MLOAD SWAP1 PUSH1 0x20 ADD KECCAK256 PUSH2 0x2589 JUMP JUMPDEST PUSH1 0x14 ADD DUP2 SWAP1 SSTORE POP POP JUMP JUMPDEST DUP1 PUSH2 0x18F9 PUSH1 0x40 MLOAD DUP1 PUSH1 0x40 ADD PUSH1 0x40 MSTORE DUP1 PUSH1 0x6 DUP2 MSTORE PUSH1 0x20 ADD PUSH32 0x534D45616D620000000000000000000000000000000000000000000000000000 DUP2 MSTORE POP DUP1 MLOAD SWAP1 PUSH1 0x20 ADD KECCAK256 PUSH2 0x2589 JUMP JUMPDEST PUSH1 0x1 ADD SWAP1 DUP2 PUSH2 0x1908 SWAP2 SWAP1 PUSH2 0x3009 JUMP JUMPDEST POP POP JUMP JUMPDEST DUP1 PUSH2 0x1952 PUSH1 0x40 MLOAD DUP1 PUSH1 0x40 ADD PUSH1 0x40 MSTORE DUP1 PUSH1 0x6 DUP2 MSTORE PUSH1 0x20 ADD PUSH32 0x534D45616D620000000000000000000000000000000000000000000000000000 DUP2 MSTORE POP DUP1 MLOAD SWAP1 PUSH1 0x20 ADD KECCAK256 PUSH2 0x2589 JUMP JUMPDEST PUSH1 0x13 ADD PUSH0 DUP6 PUSH20 0xFFFFFFFFFFFFFFFFFFFFFFFFFFFFFFFFFFFFFFFF AND PUSH20 0xFFFFFFFFFFFFFFFFFFFFFFFFFFFFFFFFFFFFFFFF AND DUP2 MSTORE PUSH1 0x20 ADD SWAP1 DUP2 MSTORE PUSH1 0x20 ADD PUSH0 KECCAK256 PUSH0 DUP5 PUSH20 0xFFFFFFFFFFFFFFFFFFFFFFFFFFFFFFFFFFFFFFFF AND PUSH20 0xFFFFFFFFFFFFFFFFFFFFFFFFFFFFFFFFFFFFFFFF AND DUP2 MSTORE PUSH1 0x20 ADD SWAP1 DUP2 MSTORE PUSH1 0x20 ADD PUSH0 KECCAK256 PUSH0 PUSH2 0x100 EXP DUP2 SLOAD DUP2 PUSH1 0xFF MUL NOT AND SWAP1 DUP4 ISZERO ISZERO MUL OR SWAP1 SSTORE POP POP POP POP JUMP JUMPDEST DUP1 PUSH2 0x1A2C PUSH1 0x40 MLOAD DUP1 PUSH1 0x40 ADD PUSH1 0x40 MSTORE DUP1 PUSH1 0x6 DUP2 MSTORE PUSH1 0x20 ADD PUSH32 0x534D45616D620000000000000000000000000000000000000000000000000000 DUP2 MSTORE POP DUP1 MLOAD SWAP1 PUSH1 0x20 ADD KECCAK256 PUSH2 0x2589 JUMP JUMPDEST PUSH1 0x8 ADD DUP2 SWAP1 SSTORE POP POP JUMP JUMPDEST DUP1 PUSH2 0x1A7C PUSH1 0x40 MLOAD DUP1 PUSH1 0x40 ADD PUSH1 0x40 MSTORE DUP1 PUSH1 0x6 DUP2 MSTORE PUSH1 0x20 ADD PUSH32 0x534D45616D620000000000000000000000000000000000000000000000000000 DUP2 MSTORE POP DUP1 MLOAD SWAP1 PUSH1 0x20 ADD KECCAK256 PUSH2 0x2589 JUMP JUMPDEST PUSH1 0xD ADD DUP2 SWAP1 SSTORE POP POP JUMP JUMPDEST PUSH0 PUSH2 0x1ACC PUSH1 0x40 MLOAD DUP1 PUSH1 0x40 ADD PUSH1 0x40 MSTORE DUP1 PUSH1 0x6 DUP2 MSTORE PUSH1 0x20 ADD PUSH32 0x534D45616D620000000000000000000000000000000000000000000000000000 DUP2 MSTORE POP DUP1 MLOAD SWAP1 PUSH1 0x20 ADD KECCAK256 PUSH2 0x2589 JUMP JUMPDEST PUSH1 0xC ADD SLOAD SWAP1 POP SWAP1 JUMP JUMPDEST PUSH1 0x60 PUSH2 0x1B1C PUSH1 0x40 MLOAD DUP1 PUSH1 0x40 ADD PUSH1 0x40 MSTORE DUP1 PUSH1 0x6 DUP2 MSTORE PUSH1 0x20 ADD PUSH32 0x534D45616D620000000000000000000000000000000000000000000000000000 DUP2 MSTORE POP DUP1 MLOAD SWAP1 PUSH1 0x20 ADD KECCAK256 PUSH2 0x2589 JUMP JUMPDEST PUSH1 0xF ADD DUP1 SLOAD PUSH2 0x1B2A SWAP1 PUSH2 0x2D82 JUMP JUMPDEST DUP1 PUSH1 0x1F ADD PUSH1 0x20 DUP1 SWAP2 DIV MUL PUSH1 0x20 ADD PUSH1 0x40 MLOAD SWAP1 DUP2 ADD PUSH1 0x40 MSTORE DUP1 SWAP3 SWAP2 SWAP1 DUP2 DUP2 MSTORE PUSH1 0x20 ADD DUP3 DUP1 SLOAD PUSH2 0x1B56 SWAP1 PUSH2 0x2D82 JUMP JUMPDEST DUP1 ISZERO PUSH2 0x1BA1 JUMPI DUP1 PUSH1 0x1F LT PUSH2 0x1B78 JUMPI PUSH2 0x100 DUP1 DUP4 SLOAD DIV MUL DUP4 MSTORE SWAP2 PUSH1 0x20 ADD SWAP2 PUSH2 0x1BA1 JUMP JUMPDEST DUP3 ADD SWAP2 SWAP1 PUSH0 MSTORE PUSH1 0x20 PUSH0 KECCAK256 SWAP1 JUMPDEST DUP2 SLOAD DUP2 MSTORE SWAP1 PUSH1 0x1 ADD SWAP1 PUSH1 0x20 ADD DUP1 DUP4 GT PUSH2 0x1B84 JUMPI DUP3 SWAP1 SUB PUSH1 0x1F AND DUP3 ADD SWAP2 JUMPDEST POP POP POP POP POP SWAP1 POP SWAP1 JUMP JUMPDEST PUSH1 0x60 PUSH2 0x1BF2 PUSH1 0x40 MLOAD DUP1 PUSH1 0x40 ADD PUSH1 0x40 MSTORE DUP1 PUSH1 0x6 DUP2 MSTORE PUSH1 0x20 ADD PUSH32 0x534D45616D620000000000000000000000000000000000000000000000000000 DUP2 MSTORE POP DUP1 MLOAD SWAP1 PUSH1 0x20 ADD KECCAK256 PUSH2 0x2589 JUMP JUMPDEST PUSH1 0x1 ADD DUP1 SLOAD PUSH2 0x1C00 SWAP1 PUSH2 0x2D82 JUMP JUMPDEST DUP1 PUSH1 0x1F ADD PUSH1 0x20 DUP1 SWAP2 DIV MUL PUSH1 0x20 ADD PUSH1 0x40 MLOAD SWAP1 DUP2 ADD PUSH1 0x40 MSTORE DUP1 SWAP3 SWAP2 SWAP1 DUP2 DUP2 MSTORE PUSH1 0x20 ADD DUP3 DUP1 SLOAD PUSH2 0x1C2C SWAP1 PUSH2 0x2D82 JUMP JUMPDEST DUP1 ISZERO PUSH2 0x1C77 JUMPI DUP1 PUSH1 0x1F LT PUSH2 0x1C4E JUMPI PUSH2 0x100 DUP1 DUP4 SLOAD DIV MUL DUP4 MSTORE SWAP2 PUSH1 0x20 ADD SWAP2 PUSH2 0x1C77 JUMP JUMPDEST DUP3 ADD SWAP2 SWAP1 PUSH0 MSTORE PUSH1 0x20 PUSH0 KECCAK256 SWAP1 JUMPDEST DUP2 SLOAD DUP2 MSTORE SWAP1 PUSH1 0x1 ADD SWAP1 PUSH1 0x20 ADD DUP1 DUP4 GT PUSH2 0x1C5A JUMPI DUP3 SWAP1 SUB PUSH1 0x1F AND DUP3 ADD SWAP2 JUMPDEST POP POP POP POP POP SWAP1 POP SWAP1 JUMP JUMPDEST PUSH0 PUSH2 0x1CC7 PUSH1 0x40 MLOAD DUP1 PUSH1 0x40 ADD PUSH1 0x40 MSTORE DUP1 PUSH1 0x6 DUP2 MSTORE PUSH1 0x20 ADD PUSH32 0x534D45616D620000000000000000000000000000000000000000000000000000 DUP2 MSTORE POP DUP1 MLOAD SWAP1 PUSH1 0x20 ADD KECCAK256 PUSH2 0x2589 JUMP JUMPDEST PUSH1 0x15 ADD SLOAD SWAP1 POP SWAP1 JUMP JUMPDEST DUP1 PUSH2 0x1D16 PUSH1 0x40 MLOAD DUP1 PUSH1 0x40 ADD PUSH1 0x40 MSTORE DUP1 PUSH1 0x6 DUP2 MSTORE PUSH1 0x20 ADD PUSH32 0x534D45616D620000000000000000000000000000000000000000000000000000 DUP2 MSTORE POP DUP1 MLOAD SWAP1 PUSH1 0x20 ADD KECCAK256 PUSH2 0x2589 JUMP JUMPDEST PUSH0 ADD SWAP1 DUP2 PUSH2 0x1D24 SWAP2 SWAP1 PUSH2 0x3009 JUMP JUMPDEST POP POP JUMP JUMPDEST DUP1 PUSH2 0x1D6E PUSH1 0x40 MLOAD DUP1 PUSH1 0x40 ADD PUSH1 0x40 MSTORE DUP1 PUSH1 0x6 DUP2 MSTORE PUSH1 0x20 ADD PUSH32 0x534D45616D620000000000000000000000000000000000000000000000000000 DUP2 MSTORE POP DUP1 MLOAD SWAP1 PUSH1 0x20 ADD KECCAK256 PUSH2 0x2589 JUMP JUMPDEST PUSH1 0x11 ADD PUSH0 DUP5 PUSH20 0xFFFFFFFFFFFFFFFFFFFFFFFFFFFFFFFFFFFFFFFF AND PUSH20 0xFFFFFFFFFFFFFFFFFFFFFFFFFFFFFFFFFFFFFFFF AND DUP2 MSTORE PUSH1 0x20 ADD SWAP1 DUP2 MSTORE PUSH1 0x20 ADD PUSH0 KECCAK256 DUP2 SWAP1 SSTORE POP POP POP JUMP JUMPDEST PUSH2 0x1DBC PUSH2 0x2592 JUMP JUMPDEST PUSH2 0x1E01 PUSH1 0x40 MLOAD DUP1 PUSH1 0x40 ADD PUSH1 0x40 MSTORE DUP1 PUSH1 0x6 DUP2 MSTORE PUSH1 0x20 ADD PUSH32 0x534D45616D620000000000000000000000000000000000000000000000000000 DUP2 MSTORE POP DUP1 MLOAD SWAP1 PUSH1 0x20 ADD KECCAK256 PUSH2 0x2589 JUMP JUMPDEST PUSH1 0x12 ADD PUSH0 DUP4 DUP2 MSTORE PUSH1 0x20 ADD SWAP1 DUP2 MSTORE PUSH1 0x20 ADD PUSH0 KECCAK256 PUSH1 0x40 MLOAD DUP1 PUSH1 0x20 ADD PUSH1 0x40 MSTORE SWAP1 DUP2 PUSH0 DUP3 ADD PUSH0 SWAP1 SLOAD SWAP1 PUSH2 0x100 EXP SWAP1 DIV PUSH20 0xFFFFFFFFFFFFFFFFFFFFFFFFFFFFFFFFFFFFFFFF AND PUSH20 0xFFFFFFFFFFFFFFFFFFFFFFFFFFFFFFFFFFFFFFFF AND PUSH20 0xFFFFFFFFFFFFFFFFFFFFFFFFFFFFFFFFFFFFFFFF AND DUP2 MSTORE POP POP SWAP1 POP SWAP2 SWAP1 POP JUMP JUMPDEST DUP1 PUSH2 0x1EBF PUSH1 0x40 MLOAD DUP1 PUSH1 0x40 ADD PUSH1 0x40 MSTORE DUP1 PUSH1 0x6 DUP2 MSTORE PUSH1 0x20 ADD PUSH32 0x534D45616D620000000000000000000000000000000000000000000000000000 DUP2 MSTORE POP DUP1 MLOAD SWAP1 PUSH1 0x20 ADD KECCAK256 PUSH2 0x2589 JUMP JUMPDEST PUSH1 0x4 ADD PUSH0 DUP5 DUP2 MSTORE PUSH1 0x20 ADD SWAP1 DUP2 MSTORE PUSH1 0x20 ADD PUSH0 KECCAK256 DUP2 SWAP1 SSTORE POP POP POP JUMP JUMPDEST DUP1 PUSH2 0x1F1F PUSH1 0x40 MLOAD DUP1 PUSH1 0x40 ADD PUSH1 0x40 MSTORE DUP1 PUSH1 0x6 DUP2 MSTORE PUSH1 0x20 ADD PUSH32 0x534D45616D620000000000000000000000000000000000000000000000000000 DUP2 MSTORE POP DUP1 MLOAD SWAP1 PUSH1 0x20 ADD KECCAK256 PUSH2 0x2589 JUMP JUMPDEST PUSH1 0xB ADD PUSH0 DUP5 PUSH20 0xFFFFFFFFFFFFFFFFFFFFFFFFFFFFFFFFFFFFFFFF AND PUSH20 0xFFFFFFFFFFFFFFFFFFFFFFFFFFFFFFFFFFFFFFFF AND DUP2 MSTORE PUSH1 0x20 ADD SWAP1 DUP2 MSTORE PUSH1 0x20 ADD PUSH0 KECCAK256 PUSH0 PUSH2 0x100 EXP DUP2 SLOAD DUP2 PUSH1 0xFF MUL NOT AND SWAP1 DUP4 ISZERO ISZERO MUL OR SWAP1 SSTORE POP POP POP JUMP JUMPDEST PUSH0 PUSH2 0x1FBD PUSH1 0x40 MLOAD DUP1 PUSH1 0x40 ADD PUSH1 0x40 MSTORE DUP1 PUSH1 0x6 DUP2 MSTORE PUSH1 0x20 ADD PUSH32 0x534D45616D620000000000000000000000000000000000000000000000000000 DUP2 MSTORE POP DUP1 MLOAD SWAP1 PUSH1 0x20 ADD KECCAK256 PUSH2 0x2589 JUMP JUMPDEST PUSH1 0xB ADD PUSH0 DUP4 PUSH20 0xFFFFFFFFFFFFFFFFFFFFFFFFFFFFFFFFFFFFFFFF AND PUSH20 0xFFFFFFFFFFFFFFFFFFFFFFFFFFFFFFFFFFFFFFFF AND DUP2 MSTORE PUSH1 0x20 ADD SWAP1 DUP2 MSTORE PUSH1 0x20 ADD PUSH0 KECCAK256 PUSH0 SWAP1 SLOAD SWAP1 PUSH2 0x100 EXP SWAP1 DIV PUSH1 0xFF AND SWAP1 POP SWAP2 SWAP1 POP JUMP JUMPDEST PUSH0 PUSH2 0x2055 PUSH1 0x40 MLOAD DUP1 PUSH1 0x40 ADD PUSH1 0x40 MSTORE DUP1 PUSH1 0x6 DUP2 MSTORE PUSH1 0x20 ADD PUSH32 0x534D45616D620000000000000000000000000000000000000000000000000000 DUP2 MSTORE POP DUP1 MLOAD SWAP1 PUSH1 0x20 ADD KECCAK256 PUSH2 0x2589 JUMP JUMPDEST PUSH1 0x14 ADD SLOAD SWAP1 POP SWAP1 JUMP JUMPDEST PUSH1 0x60 PUSH2 0x20A5 PUSH1 0x40 MLOAD DUP1 PUSH1 0x40 ADD PUSH1 0x40 MSTORE DUP1 PUSH1 0x6 DUP2 MSTORE PUSH1 0x20 ADD PUSH32 0x534D45616D620000000000000000000000000000000000000000000000000000 DUP2 MSTORE POP DUP1 MLOAD SWAP1 PUSH1 0x20 ADD KECCAK256 PUSH2 0x2589 JUMP JUMPDEST PUSH0 ADD DUP1 SLOAD PUSH2 0x20B2 SWAP1 PUSH2 0x2D82 JUMP JUMPDEST DUP1 PUSH1 0x1F ADD PUSH1 0x20 DUP1 SWAP2 DIV MUL PUSH1 0x20 ADD PUSH1 0x40 MLOAD SWAP1 DUP2 ADD PUSH1 0x40 MSTORE DUP1 SWAP3 SWAP2 SWAP1 DUP2 DUP2 MSTORE PUSH1 0x20 ADD DUP3 DUP1 SLOAD PUSH2 0x20DE SWAP1 PUSH2 0x2D82 JUMP JUMPDEST DUP1 ISZERO PUSH2 0x2129 JUMPI DUP1 PUSH1 0x1F LT PUSH2 0x2100 JUMPI PUSH2 0x100 DUP1 DUP4 SLOAD DIV MUL DUP4 MSTORE SWAP2 PUSH1 0x20 ADD SWAP2 PUSH2 0x2129 JUMP JUMPDEST DUP3 ADD SWAP2 SWAP1 PUSH0 MSTORE PUSH1 0x20 PUSH0 KECCAK256 SWAP1 JUMPDEST DUP2 SLOAD DUP2 MSTORE SWAP1 PUSH1 0x1 ADD SWAP1 PUSH1 0x20 ADD DUP1 DUP4 GT PUSH2 0x210C JUMPI DUP3 SWAP1 SUB PUSH1 0x1F AND DUP3 ADD SWAP2 JUMPDEST POP POP POP POP POP SWAP1 POP SWAP1 JUMP JUMPDEST PUSH2 0x2178 PUSH1 0x40 MLOAD DUP1 PUSH1 0x40 ADD PUSH1 0x40 MSTORE DUP1 PUSH1 0x6 DUP2 MSTORE PUSH1 0x20 ADD PUSH32 0x534D45616D620000000000000000000000000000000000000000000000000000 DUP2 MSTORE POP DUP1 MLOAD SWAP1 PUSH1 0x20 ADD KECCAK256 PUSH2 0x2589 JUMP JUMPDEST PUSH1 0x5 ADD DUP1 SLOAD SWAP1 POP PUSH2 0x21C4 PUSH1 0x40 MLOAD DUP1 PUSH1 0x40 ADD PUSH1 0x40 MSTORE DUP1 PUSH1 0x6 DUP2 MSTORE PUSH1 0x20 ADD PUSH32 0x534D45616D620000000000000000000000000000000000000000000000000000 DUP2 MSTORE POP DUP1 MLOAD SWAP1 PUSH1 0x20 ADD KECCAK256 PUSH2 0x2589 JUMP JUMPDEST PUSH1 0x6 ADD PUSH0 DUP4 DUP2 MSTORE PUSH1 0x20 ADD SWAP1 DUP2 MSTORE PUSH1 0x20 ADD PUSH0 KECCAK256 DUP2 SWAP1 SSTORE POP PUSH2 0x221F PUSH1 0x40 MLOAD DUP1 PUSH1 0x40 ADD PUSH1 0x40 MSTORE DUP1 PUSH1 0x6 DUP2 MSTORE PUSH1 0x20 ADD PUSH32 0x534D45616D620000000000000000000000000000000000000000000000000000 DUP2 MSTORE POP DUP1 MLOAD SWAP1 PUSH1 0x20 ADD KECCAK256 PUSH2 0x2589 JUMP JUMPDEST PUSH1 0x5 ADD DUP2 SWAP1 DUP1 PUSH1 0x1 DUP2 SLOAD ADD DUP1 DUP3 SSTORE DUP1 SWAP2 POP POP PUSH1 0x1 SWAP1 SUB SWAP1 PUSH0 MSTORE PUSH1 0x20 PUSH0 KECCAK256 ADD PUSH0 SWAP1 SWAP2 SWAP1 SWAP2 SWAP1 SWAP2 POP SSTORE POP JUMP JUMPDEST PUSH0 PUSH2 0x228F PUSH1 0x40 MLOAD DUP1 PUSH1 0x40 ADD PUSH1 0x40 MSTORE DUP1 PUSH1 0x6 DUP2 MSTORE PUSH1 0x20 ADD PUSH32 0x534D45616D620000000000000000000000000000000000000000000000000000 DUP2 MSTORE POP DUP1 MLOAD SWAP1 PUSH1 0x20 ADD KECCAK256 PUSH2 0x2589 JUMP JUMPDEST PUSH1 0xA ADD SLOAD SWAP1 POP SWAP1 JUMP JUMPDEST DUP2 PUSH2 0x22DE PUSH1 0x40 MLOAD DUP1 PUSH1 0x40 ADD PUSH1 0x40 MSTORE DUP1 PUSH1 0x6 DUP2 MSTORE PUSH1 0x20 ADD PUSH32 0x534D45616D620000000000000000000000000000000000000000000000000000 DUP2 MSTORE POP DUP1 MLOAD SWAP1 PUSH1 0x20 ADD KECCAK256 PUSH2 0x2589 JUMP JUMPDEST PUSH1 0x2 ADD PUSH0 DUP4 DUP2 MSTORE PUSH1 0x20 ADD SWAP1 DUP2 MSTORE PUSH1 0x20 ADD PUSH0 KECCAK256 SWAP1 DUP2 PUSH2 0x22FC SWAP2 SWAP1 PUSH2 0x3009 JUMP JUMPDEST POP POP POP JUMP JUMPDEST PUSH0 PUSH2 0x2347 PUSH1 0x40 MLOAD DUP1 PUSH1 0x40 ADD PUSH1 0x40 MSTORE DUP1 PUSH1 0x6 DUP2 MSTORE PUSH1 0x20 ADD PUSH32 0x534D45616D620000000000000000000000000000000000000000000000000000 DUP2 MSTORE POP DUP1 MLOAD SWAP1 PUSH1 0x20 ADD KECCAK256 PUSH2 0x2589 JUMP JUMPDEST PUSH1 0x3 ADD PUSH0 DUP5 PUSH20 0xFFFFFFFFFFFFFFFFFFFFFFFFFFFFFFFFFFFFFFFF AND PUSH20 0xFFFFFFFFFFFFFFFFFFFFFFFFFFFFFFFFFFFFFFFF AND DUP2 MSTORE PUSH1 0x20 ADD SWAP1 DUP2 MSTORE PUSH1 0x20 ADD PUSH0 KECCAK256 PUSH0 DUP4 DUP2 MSTORE PUSH1 0x20 ADD SWAP1 DUP2 MSTORE PUSH1 0x20 ADD PUSH0 KECCAK256 SLOAD SWAP1 POP SWAP3 SWAP2 POP POP JUMP JUMPDEST DUP1 PUSH2 0x23E3 PUSH1 0x40 MLOAD DUP1 PUSH1 0x40 ADD PUSH1 0x40 MSTORE DUP1 PUSH1 0x6 DUP2 MSTORE PUSH1 0x20 ADD PUSH32 0x534D45616D620000000000000000000000000000000000000000000000000000 DUP2 MSTORE POP DUP1 MLOAD SWAP1 PUSH1 0x20 ADD KECCAK256 PUSH2 0x2589 JUMP JUMPDEST PUSH1 0x10 ADD PUSH0 DUP5 DUP2 MSTORE PUSH1 0x20 ADD SWAP1 DUP2 MSTORE PUSH1 0x20 ADD PUSH0 KECCAK256 DUP2 SWAP1 SSTORE POP POP POP JUMP JUMPDEST PUSH0 PUSH2 0x2443 PUSH1 0x40 MLOAD DUP1 PUSH1 0x40 ADD PUSH1 0x40 MSTORE DUP1 PUSH1 0x6 DUP2 MSTORE PUSH1 0x20 ADD PUSH32 0x534D45616D620000000000000000000000000000000000000000000000000000 DUP2 MSTORE POP DUP1 MLOAD SWAP1 PUSH1 0x20 ADD KECCAK256 PUSH2 0x2589 JUMP JUMPDEST PUSH1 0x13 ADD PUSH0 DUP5 PUSH20 0xFFFFFFFFFFFFFFFFFFFFFFFFFFFFFFFFFFFFFFFF AND PUSH20 0xFFFFFFFFFFFFFFFFFFFFFFFFFFFFFFFFFFFFFFFF AND DUP2 MSTORE PUSH1 0x20 ADD SWAP1 DUP2 MSTORE PUSH1 0x20 ADD PUSH0 KECCAK256 PUSH0 DUP4 PUSH20 0xFFFFFFFFFFFFFFFFFFFFFFFFFFFFFFFFFFFFFFFF AND PUSH20 0xFFFFFFFFFFFFFFFFFFFFFFFFFFFFFFFFFFFFFFFF AND DUP2 MSTORE PUSH1 0x20 ADD SWAP1 DUP2 MSTORE PUSH1 0x20 ADD PUSH0 KECCAK256 PUSH0 SWAP1 SLOAD SWAP1 PUSH2 0x100 EXP SWAP1 DIV PUSH1 0xFF AND SWAP1 POP SWAP3 SWAP2 POP POP JUMP JUMPDEST PUSH0 DUP1 PUSH0 PUSH2 0x2519 PUSH1 0x40 MLOAD DUP1 PUSH1 0x40 ADD PUSH1 0x40 MSTORE DUP1 PUSH1 0x6 DUP2 MSTORE PUSH1 0x20 ADD PUSH32 0x534D45616D620000000000000000000000000000000000000000000000000000 DUP2 MSTORE POP DUP1 MLOAD SWAP1 PUSH1 0x20 ADD KECCAK256 PUSH2 0x2589 JUMP JUMPDEST PUSH1 0x12 ADD PUSH0 DUP6 DUP2 MSTORE PUSH1 0x20 ADD SWAP1 DUP2 MSTORE PUSH1 0x20 ADD PUSH0 KECCAK256 SWAP1 POP DUP1 SWAP3 POP DUP3 SLOAD SWAP2 POP POP SWAP2 POP SWAP2 JUMP JUMPDEST PUSH0 PUSH2 0x2580 PUSH1 0x40 MLOAD DUP1 PUSH1 0x40 ADD PUSH1 0x40 MSTORE DUP1 PUSH1 0x6 DUP2 MSTORE PUSH1 0x20 ADD PUSH32 0x534D45616D620000000000000000000000000000000000000000000000000000 DUP2 MSTORE POP DUP1 MLOAD SWAP1 PUSH1 0x20 ADD KECCAK256 PUSH2 0x2589 JUMP JUMPDEST PUSH1 0x8 ADD SLOAD SWAP1 POP SWAP1 JUMP JUMPDEST PUSH0 DUP2 SWAP1 POP SWAP2 SWAP1 POP JUMP JUMPDEST PUSH1 0x40 MLOAD DUP1 PUSH1 0x20 ADD PUSH1 0x40 MSTORE DUP1 PUSH0 PUSH20 0xFFFFFFFFFFFFFFFFFFFFFFFFFFFFFFFFFFFFFFFF AND DUP2 MSTORE POP SWAP1 JUMP JUMPDEST PUSH0 DUP2 MLOAD SWAP1 POP SWAP2 SWAP1 POP JUMP JUMPDEST PUSH0 DUP3 DUP3 MSTORE PUSH1 0x20 DUP3 ADD SWAP1 POP SWAP3 SWAP2 POP POP JUMP JUMPDEST PUSH0 JUMPDEST DUP4 DUP2 LT ISZERO PUSH2 0x25F1 JUMPI DUP1 DUP3 ADD MLOAD DUP2 DUP5 ADD MSTORE PUSH1 0x20 DUP2 ADD SWAP1 POP PUSH2 0x25D6 JUMP JUMPDEST PUSH0 DUP5 DUP5 ADD MSTORE POP POP POP POP JUMP JUMPDEST PUSH0 PUSH1 0x1F NOT PUSH1 0x1F DUP4 ADD AND SWAP1 POP SWAP2 SWAP1 POP JUMP JUMPDEST PUSH0 PUSH2 0x2616 DUP3 PUSH2 0x25BA JUMP JUMPDEST PUSH2 0x2620 DUP2 DUP6 PUSH2 0x25C4 JUMP JUMPDEST SWAP4 POP PUSH2 0x2630 DUP2 DUP6 PUSH1 0x20 DUP7 ADD PUSH2 0x25D4 JUMP JUMPDEST PUSH2 0x2639 DUP2 PUSH2 0x25FC JUMP JUMPDEST DUP5 ADD SWAP2 POP POP SWAP3 SWAP2 POP POP JUMP JUMPDEST PUSH0 PUSH1 0x20 DUP3 ADD SWAP1 POP DUP2 DUP2 SUB PUSH0 DUP4 ADD MSTORE PUSH2 0x265C DUP2 DUP5 PUSH2 0x260C JUMP JUMPDEST SWAP1 POP SWAP3 SWAP2 POP POP JUMP JUMPDEST PUSH0 PUSH1 0x40 MLOAD SWAP1 POP SWAP1 JUMP JUMPDEST PUSH0 DUP1 REVERT JUMPDEST PUSH0 DUP1 REVERT JUMPDEST PUSH0 PUSH20 0xFFFFFFFFFFFFFFFFFFFFFFFFFFFFFFFFFFFFFFFF DUP3 AND SWAP1 POP SWAP2 SWAP1 POP JUMP JUMPDEST PUSH0 PUSH2 0x269E DUP3 PUSH2 0x2675 JUMP JUMPDEST SWAP1 POP SWAP2 SWAP1 POP JUMP JUMPDEST PUSH2 0x26AE DUP2 PUSH2 0x2694 JUMP JUMPDEST DUP2 EQ PUSH2 0x26B8 JUMPI PUSH0 DUP1 REVERT JUMPDEST POP JUMP JUMPDEST PUSH0 DUP2 CALLDATALOAD SWAP1 POP PUSH2 0x26C9 DUP2 PUSH2 0x26A5 JUMP JUMPDEST SWAP3 SWAP2 POP POP JUMP JUMPDEST PUSH0 DUP2 SWAP1 POP SWAP2 SWAP1 POP JUMP JUMPDEST PUSH2 0x26E1 DUP2 PUSH2 0x26CF JUMP JUMPDEST DUP2 EQ PUSH2 0x26EB JUMPI PUSH0 DUP1 REVERT JUMPDEST POP JUMP JUMPDEST PUSH0 DUP2 CALLDATALOAD SWAP1 POP PUSH2 0x26FC DUP2 PUSH2 0x26D8 JUMP JUMPDEST SWAP3 SWAP2 POP POP JUMP JUMPDEST PUSH0 DUP1 PUSH0 PUSH1 0x60 DUP5 DUP7 SUB SLT ISZERO PUSH2 0x2719 JUMPI PUSH2 0x2718 PUSH2 0x266D JUMP JUMPDEST JUMPDEST PUSH0 PUSH2 0x2726 DUP7 DUP3 DUP8 ADD PUSH2 0x26BB JUMP JUMPDEST SWAP4 POP POP PUSH1 0x20 PUSH2 0x2737 DUP7 DUP3 DUP8 ADD PUSH2 0x26EE JUMP JUMPDEST SWAP3 POP POP PUSH1 0x40 PUSH2 0x2748 DUP7 DUP3 DUP8 ADD PUSH2 0x26EE JUMP JUMPDEST SWAP2 POP POP SWAP3 POP SWAP3 POP SWAP3 JUMP JUMPDEST PUSH0 DUP1 PUSH1 0x40 DUP4 DUP6 SUB SLT ISZERO PUSH2 0x2768 JUMPI PUSH2 0x2767 PUSH2 0x266D JUMP JUMPDEST JUMPDEST PUSH0 PUSH2 0x2775 DUP6 DUP3 DUP7 ADD PUSH2 0x26EE JUMP JUMPDEST SWAP3 POP POP PUSH1 0x20 PUSH2 0x2786 DUP6 DUP3 DUP7 ADD PUSH2 0x26BB JUMP JUMPDEST SWAP2 POP POP SWAP3 POP SWAP3 SWAP1 POP JUMP JUMPDEST PUSH0 DUP2 SWAP1 POP SWAP2 SWAP1 POP JUMP JUMPDEST PUSH2 0x27A2 DUP2 PUSH2 0x2790 JUMP JUMPDEST DUP3 MSTORE POP POP JUMP JUMPDEST PUSH0 PUSH1 0x20 DUP3 ADD SWAP1 POP PUSH2 0x27BB PUSH0 DUP4 ADD DUP5 PUSH2 0x2799 JUMP JUMPDEST SWAP3 SWAP2 POP POP JUMP JUMPDEST PUSH0 PUSH1 0x20 DUP3 DUP5 SUB SLT ISZERO PUSH2 0x27D6 JUMPI PUSH2 0x27D5 PUSH2 0x266D JUMP JUMPDEST JUMPDEST PUSH0 PUSH2 0x27E3 DUP5 DUP3 DUP6 ADD PUSH2 0x26BB JUMP JUMPDEST SWAP2 POP POP SWAP3 SWAP2 POP POP JUMP JUMPDEST PUSH2 0x27F5 DUP2 PUSH2 0x26CF JUMP JUMPDEST DUP3 MSTORE POP POP JUMP JUMPDEST PUSH0 PUSH1 0x20 DUP3 ADD SWAP1 POP PUSH2 0x280E PUSH0 DUP4 ADD DUP5 PUSH2 0x27EC JUMP JUMPDEST SWAP3 SWAP2 POP POP JUMP JUMPDEST PUSH2 0x281D DUP2 PUSH2 0x2790 JUMP JUMPDEST DUP2 EQ PUSH2 0x2827 JUMPI PUSH0 DUP1 REVERT JUMPDEST POP JUMP JUMPDEST PUSH0 DUP2 CALLDATALOAD SWAP1 POP PUSH2 0x2838 DUP2 PUSH2 0x2814 JUMP JUMPDEST SWAP3 SWAP2 POP POP JUMP JUMPDEST PUSH0 PUSH1 0x20 DUP3 DUP5 SUB SLT ISZERO PUSH2 0x2853 JUMPI PUSH2 0x2852 PUSH2 0x266D JUMP JUMPDEST JUMPDEST PUSH0 PUSH2 0x2860 DUP5 DUP3 DUP6 ADD PUSH2 0x282A JUMP JUMPDEST SWAP2 POP POP SWAP3 SWAP2 POP POP JUMP JUMPDEST PUSH0 PUSH1 0x20 DUP3 DUP5 SUB SLT ISZERO PUSH2 0x287E JUMPI PUSH2 0x287D PUSH2 0x266D JUMP JUMPDEST JUMPDEST PUSH0 PUSH2 0x288B DUP5 DUP3 DUP6 ADD PUSH2 0x26EE JUMP JUMPDEST SWAP2 POP POP SWAP3 SWAP2 POP POP JUMP JUMPDEST PUSH0 DUP1 REVERT JUMPDEST PUSH0 DUP1 REVERT JUMPDEST PUSH32 0x4E487B7100000000000000000000000000000000000000000000000000000000 PUSH0 MSTORE PUSH1 0x41 PUSH1 0x4 MSTORE PUSH1 0x24 PUSH0 REVERT JUMPDEST PUSH2 0x28D2 DUP3 PUSH2 0x25FC JUMP JUMPDEST DUP2 ADD DUP2 DUP2 LT PUSH8 0xFFFFFFFFFFFFFFFF DUP3 GT OR ISZERO PUSH2 0x28F1 JUMPI PUSH2 0x28F0 PUSH2 0x289C JUMP JUMPDEST JUMPDEST DUP1 PUSH1 0x40 MSTORE POP POP POP JUMP JUMPDEST PUSH0 PUSH2 0x2903 PUSH2 0x2664 JUMP JUMPDEST SWAP1 POP PUSH2 0x290F DUP3 DUP3 PUSH2 0x28C9 JUMP JUMPDEST SWAP2 SWAP1 POP JUMP JUMPDEST PUSH0 PUSH8 0xFFFFFFFFFFFFFFFF DUP3 GT ISZERO PUSH2 0x292E JUMPI PUSH2 0x292D PUSH2 0x289C JUMP JUMPDEST JUMPDEST PUSH2 0x2937 DUP3 PUSH2 0x25FC JUMP JUMPDEST SWAP1 POP PUSH1 0x20 DUP2 ADD SWAP1 POP SWAP2 SWAP1 POP JUMP JUMPDEST DUP3 DUP2 DUP4 CALLDATACOPY PUSH0 DUP4 DUP4 ADD MSTORE POP POP POP JUMP JUMPDEST PUSH0 PUSH2 0x2964 PUSH2 0x295F DUP5 PUSH2 0x2914 JUMP JUMPDEST PUSH2 0x28FA JUMP JUMPDEST SWAP1 POP DUP3 DUP2 MSTORE PUSH1 0x20 DUP2 ADD DUP5 DUP5 DUP5 ADD GT ISZERO PUSH2 0x2980 JUMPI PUSH2 0x297F PUSH2 0x2898 JUMP JUMPDEST JUMPDEST PUSH2 0x298B DUP5 DUP3 DUP6 PUSH2 0x2944 JUMP JUMPDEST POP SWAP4 SWAP3 POP POP POP JUMP JUMPDEST PUSH0 DUP3 PUSH1 0x1F DUP4 ADD SLT PUSH2 0x29A7 JUMPI PUSH2 0x29A6 PUSH2 0x2894 JUMP JUMPDEST JUMPDEST DUP2 CALLDATALOAD PUSH2 0x29B7 DUP5 DUP3 PUSH1 0x20 DUP7 ADD PUSH2 0x2952 JUMP JUMPDEST SWAP2 POP POP SWAP3 SWAP2 POP POP JUMP JUMPDEST PUSH0 PUSH1 0x20 DUP3 DUP5 SUB SLT ISZERO PUSH2 0x29D5 JUMPI PUSH2 0x29D4 PUSH2 0x266D JUMP JUMPDEST JUMPDEST PUSH0 DUP3 ADD CALLDATALOAD PUSH8 0xFFFFFFFFFFFFFFFF DUP2 GT ISZERO PUSH2 0x29F2 JUMPI PUSH2 0x29F1 PUSH2 0x2671 JUMP JUMPDEST JUMPDEST PUSH2 0x29FE DUP5 DUP3 DUP6 ADD PUSH2 0x2993 JUMP JUMPDEST SWAP2 POP POP SWAP3 SWAP2 POP POP JUMP JUMPDEST PUSH0 DUP2 MLOAD SWAP1 POP SWAP2 SWAP1 POP JUMP JUMPDEST PUSH0 DUP3 DUP3 MSTORE PUSH1 0x20 DUP3 ADD SWAP1 POP SWAP3 SWAP2 POP POP JUMP JUMPDEST PUSH0 DUP2 SWAP1 POP PUSH1 0x20 DUP3 ADD SWAP1 POP SWAP2 SWAP1 POP JUMP JUMPDEST PUSH2 0x2A39 DUP2 PUSH2 0x26CF JUMP JUMPDEST DUP3 MSTORE POP POP JUMP JUMPDEST PUSH0 PUSH2 0x2A4A DUP4 DUP4 PUSH2 0x2A30 JUMP JUMPDEST PUSH1 0x20 DUP4 ADD SWAP1 POP SWAP3 SWAP2 POP POP JUMP JUMPDEST PUSH0 PUSH1 0x20 DUP3 ADD SWAP1 POP SWAP2 SWAP1 POP JUMP JUMPDEST PUSH0 PUSH2 0x2A6C DUP3 PUSH2 0x2A07 JUMP JUMPDEST PUSH2 0x2A76 DUP2 DUP6 PUSH2 0x2A11 JUMP JUMPDEST SWAP4 POP PUSH2 0x2A81 DUP4 PUSH2 0x2A21 JUMP JUMPDEST DUP1 PUSH0 JUMPDEST DUP4 DUP2 LT ISZERO PUSH2 0x2AB1 JUMPI DUP2 MLOAD PUSH2 0x2A98 DUP9 DUP3 PUSH2 0x2A3F JUMP JUMPDEST SWAP8 POP PUSH2 0x2AA3 DUP4 PUSH2 0x2A56 JUMP JUMPDEST SWAP3 POP POP PUSH1 0x1 DUP2 ADD SWAP1 POP PUSH2 0x2A84 JUMP JUMPDEST POP DUP6 SWAP4 POP POP POP POP SWAP3 SWAP2 POP POP JUMP JUMPDEST PUSH0 PUSH1 0x20 DUP3 ADD SWAP1 POP DUP2 DUP2 SUB PUSH0 DUP4 ADD MSTORE PUSH2 0x2AD6 DUP2 DUP5 PUSH2 0x2A62 JUMP JUMPDEST SWAP1 POP SWAP3 SWAP2 POP POP JUMP JUMPDEST PUSH0 DUP2 ISZERO ISZERO SWAP1 POP SWAP2 SWAP1 POP JUMP JUMPDEST PUSH2 0x2AF2 DUP2 PUSH2 0x2ADE JUMP JUMPDEST DUP2 EQ PUSH2 0x2AFC JUMPI PUSH0 DUP1 REVERT JUMPDEST POP JUMP JUMPDEST PUSH0 DUP2 CALLDATALOAD SWAP1 POP PUSH2 0x2B0D DUP2 PUSH2 0x2AE9 JUMP JUMPDEST SWAP3 SWAP2 POP POP JUMP JUMPDEST PUSH0 DUP1 PUSH0 PUSH1 0x60 DUP5 DUP7 SUB SLT ISZERO PUSH2 0x2B2A JUMPI PUSH2 0x2B29 PUSH2 0x266D JUMP JUMPDEST JUMPDEST PUSH0 PUSH2 0x2B37 DUP7 DUP3 DUP8 ADD PUSH2 0x26BB JUMP JUMPDEST SWAP4 POP POP PUSH1 0x20 PUSH2 0x2B48 DUP7 DUP3 DUP8 ADD PUSH2 0x26BB JUMP JUMPDEST SWAP3 POP POP PUSH1 0x40 PUSH2 0x2B59 DUP7 DUP3 DUP8 ADD PUSH2 0x2AFF JUMP JUMPDEST SWAP2 POP POP SWAP3 POP SWAP3 POP SWAP3 JUMP JUMPDEST PUSH0 DUP1 PUSH1 0x40 DUP4 DUP6 SUB SLT ISZERO PUSH2 0x2B79 JUMPI PUSH2 0x2B78 PUSH2 0x266D JUMP JUMPDEST JUMPDEST PUSH0 PUSH2 0x2B86 DUP6 DUP3 DUP7 ADD PUSH2 0x26BB JUMP JUMPDEST SWAP3 POP POP PUSH1 0x20 PUSH2 0x2B97 DUP6 DUP3 DUP7 ADD PUSH2 0x26EE JUMP JUMPDEST SWAP2 POP POP SWAP3 POP SWAP3 SWAP1 POP JUMP JUMPDEST PUSH2 0x2BAA DUP2 PUSH2 0x2694 JUMP JUMPDEST DUP3 MSTORE POP POP JUMP JUMPDEST PUSH1 0x20 DUP3 ADD PUSH0 DUP3 ADD MLOAD PUSH2 0x2BC4 PUSH0 DUP6 ADD DUP3 PUSH2 0x2BA1 JUMP JUMPDEST POP POP POP POP JUMP JUMPDEST PUSH0 PUSH1 0x20 DUP3 ADD SWAP1 POP PUSH2 0x2BDD PUSH0 DUP4 ADD DUP5 PUSH2 0x2BB0 JUMP JUMPDEST SWAP3 SWAP2 POP POP JUMP JUMPDEST PUSH0 DUP1 PUSH1 0x40 DUP4 DUP6 SUB SLT ISZERO PUSH2 0x2BF9 JUMPI PUSH2 0x2BF8 PUSH2 0x266D JUMP JUMPDEST JUMPDEST PUSH0 PUSH2 0x2C06 DUP6 DUP3 DUP7 ADD PUSH2 0x26EE JUMP JUMPDEST SWAP3 POP POP PUSH1 0x20 PUSH2 0x2C17 DUP6 DUP3 DUP7 ADD PUSH2 0x26EE JUMP JUMPDEST SWAP2 POP POP SWAP3 POP SWAP3 SWAP1 POP JUMP JUMPDEST PUSH0 DUP1 PUSH1 0x40 DUP4 DUP6 SUB SLT ISZERO PUSH2 0x2C37 JUMPI PUSH2 0x2C36 PUSH2 0x266D JUMP JUMPDEST JUMPDEST PUSH0 PUSH2 0x2C44 DUP6 DUP3 DUP7 ADD PUSH2 0x26BB JUMP JUMPDEST SWAP3 POP POP PUSH1 0x20 PUSH2 0x2C55 DUP6 DUP3 DUP7 ADD PUSH2 0x2AFF JUMP JUMPDEST SWAP2 POP POP SWAP3 POP SWAP3 SWAP1 POP JUMP JUMPDEST PUSH2 0x2C68 DUP2 PUSH2 0x2ADE JUMP JUMPDEST DUP3 MSTORE POP POP JUMP JUMPDEST PUSH0 PUSH1 0x20 DUP3 ADD SWAP1 POP PUSH2 0x2C81 PUSH0 DUP4 ADD DUP5 PUSH2 0x2C5F JUMP JUMPDEST SWAP3 SWAP2 POP POP JUMP JUMPDEST PUSH0 DUP1 PUSH1 0x40 DUP4 DUP6 SUB SLT ISZERO PUSH2 0x2C9D JUMPI PUSH2 0x2C9C PUSH2 0x266D JUMP JUMPDEST JUMPDEST PUSH0 DUP4 ADD CALLDATALOAD PUSH8 0xFFFFFFFFFFFFFFFF DUP2 GT ISZERO PUSH2 0x2CBA JUMPI PUSH2 0x2CB9 PUSH2 0x2671 JUMP JUMPDEST JUMPDEST PUSH2 0x2CC6 DUP6 DUP3 DUP7 ADD PUSH2 0x2993 JUMP JUMPDEST SWAP3 POP POP PUSH1 0x20 PUSH2 0x2CD7 DUP6 DUP3 DUP7 ADD PUSH2 0x26EE JUMP JUMPDEST SWAP2 POP POP SWAP3 POP SWAP3 SWAP1 POP JUMP JUMPDEST PUSH0 DUP1 PUSH1 0x40 DUP4 DUP6 SUB SLT ISZERO PUSH2 0x2CF7 JUMPI PUSH2 0x2CF6 PUSH2 0x266D JUMP JUMPDEST JUMPDEST PUSH0 PUSH2 0x2D04 DUP6 DUP3 DUP7 ADD PUSH2 0x26BB JUMP JUMPDEST SWAP3 POP POP PUSH1 0x20 PUSH2 0x2D15 DUP6 DUP3 DUP7 ADD PUSH2 0x26BB JUMP JUMPDEST SWAP2 POP POP SWAP3 POP SWAP3 SWAP1 POP JUMP JUMPDEST PUSH2 0x2D28 DUP2 PUSH2 0x2694 JUMP JUMPDEST DUP3 MSTORE POP POP JUMP JUMPDEST PUSH0 PUSH1 0x40 DUP3 ADD SWAP1 POP PUSH2 0x2D41 PUSH0 DUP4 ADD DUP6 PUSH2 0x27EC JUMP JUMPDEST PUSH2 0x2D4E PUSH1 0x20 DUP4 ADD DUP5 PUSH2 0x2D1F JUMP JUMPDEST SWAP4 SWAP3 POP POP POP JUMP JUMPDEST PUSH32 0x4E487B7100000000000000000000000000000000000000000000000000000000 PUSH0 MSTORE PUSH1 0x22 PUSH1 0x4 MSTORE PUSH1 0x24 PUSH0 REVERT JUMPDEST PUSH0 PUSH1 0x2 DUP3 DIV SWAP1 POP PUSH1 0x1 DUP3 AND DUP1 PUSH2 0x2D99 JUMPI PUSH1 0x7F DUP3 AND SWAP2 POP JUMPDEST PUSH1 0x20 DUP3 LT DUP2 SUB PUSH2 0x2DAC JUMPI PUSH2 0x2DAB PUSH2 0x2D55 JUMP JUMPDEST JUMPDEST POP SWAP2 SWAP1 POP JUMP JUMPDEST PUSH32 0x4E487B7100000000000000000000000000000000000000000000000000000000 PUSH0 MSTORE PUSH1 0x11 PUSH1 0x4 MSTORE PUSH1 0x24 PUSH0 REVERT JUMPDEST PUSH0 PUSH2 0x2DE9 DUP3 PUSH2 0x26CF JUMP JUMPDEST SWAP2 POP PUSH2 0x2DF4 DUP4 PUSH2 0x26CF JUMP JUMPDEST SWAP3 POP DUP3 DUP3 SUB SWAP1 POP DUP2 DUP2 GT ISZERO PUSH2 0x2E0C JUMPI PUSH2 0x2E0B PUSH2 0x2DB2 JUMP JUMPDEST JUMPDEST SWAP3 SWAP2 POP POP JUMP JUMPDEST PUSH32 0x4E487B7100000000000000000000000000000000000000000000000000000000 PUSH0 MSTORE PUSH1 0x32 PUSH1 0x4 MSTORE PUSH1 0x24 PUSH0 REVERT JUMPDEST PUSH32 0x4E487B7100000000000000000000000000000000000000000000000000000000 PUSH0 MSTORE PUSH1 0x31 PUSH1 0x4 MSTORE PUSH1 0x24 PUSH0 REVERT JUMPDEST PUSH0 DUP2 SWAP1 POP DUP2 PUSH0 MSTORE PUSH1 0x20 PUSH0 KECCAK256 SWAP1 POP SWAP2 SWAP1 POP JUMP JUMPDEST PUSH0 PUSH1 0x20 PUSH1 0x1F DUP4 ADD DIV SWAP1 POP SWAP2 SWAP1 POP JUMP JUMPDEST PUSH0 DUP3 DUP3 SHL SWAP1 POP SWAP3 SWAP2 POP POP JUMP JUMPDEST PUSH0 PUSH1 0x8 DUP4 MUL PUSH2 0x2EC8 PUSH32 0xFFFFFFFFFFFFFFFFFFFFFFFFFFFFFFFFFFFFFFFFFFFFFFFFFFFFFFFFFFFFFFFF DUP3 PUSH2 0x2E8D JUMP JUMPDEST PUSH2 0x2ED2 DUP7 DUP4 PUSH2 0x2E8D JUMP JUMPDEST SWAP6 POP DUP1 NOT DUP5 AND SWAP4 POP DUP1 DUP7 AND DUP5 OR SWAP3 POP POP POP SWAP4 SWAP3 POP POP POP JUMP JUMPDEST PUSH0 DUP2 SWAP1 POP SWAP2 SWAP1 POP JUMP JUMPDEST PUSH0 PUSH2 0x2F0D PUSH2 0x2F08 PUSH2 0x2F03 DUP5 PUSH2 0x26CF JUMP JUMPDEST PUSH2 0x2EEA JUMP JUMPDEST PUSH2 0x26CF JUMP JUMPDEST SWAP1 POP SWAP2 SWAP1 POP JUMP JUMPDEST PUSH0 DUP2 SWAP1 POP SWAP2 SWAP1 POP JUMP JUMPDEST PUSH2 0x2F26 DUP4 PUSH2 0x2EF3 JUMP JUMPDEST PUSH2 0x2F3A PUSH2 0x2F32 DUP3 PUSH2 0x2F14 JUMP JUMPDEST DUP5 DUP5 SLOAD PUSH2 0x2E99 JUMP JUMPDEST DUP3 SSTORE POP POP POP POP JUMP JUMPDEST PUSH0 SWAP1 JUMP JUMPDEST PUSH2 0x2F4E PUSH2 0x2F42 JUMP JUMPDEST PUSH2 0x2F59 DUP2 DUP5 DUP5 PUSH2 0x2F1D JUMP JUMPDEST POP POP POP JUMP JUMPDEST JUMPDEST DUP2 DUP2 LT ISZERO PUSH2 0x2F7C JUMPI PUSH2 0x2F71 PUSH0 DUP3 PUSH2 0x2F46 JUMP JUMPDEST PUSH1 0x1 DUP2 ADD SWAP1 POP PUSH2 0x2F5F JUMP JUMPDEST POP POP JUMP JUMPDEST PUSH1 0x1F DUP3 GT ISZERO PUSH2 0x2FC1 JUMPI PUSH2 0x2F92 DUP2 PUSH2 0x2E6C JUMP JUMPDEST PUSH2 0x2F9B DUP5 PUSH2 0x2E7E JUMP JUMPDEST DUP2 ADD PUSH1 0x20 DUP6 LT ISZERO PUSH2 0x2FAA JUMPI DUP2 SWAP1 POP JUMPDEST PUSH2 0x2FBE PUSH2 0x2FB6 DUP6 PUSH2 0x2E7E JUMP JUMPDEST DUP4 ADD DUP3 PUSH2 0x2F5E JUMP JUMPDEST POP POP JUMPDEST POP POP POP JUMP JUMPDEST PUSH0 DUP3 DUP3 SHR SWAP1 POP SWAP3 SWAP2 POP POP JUMP JUMPDEST PUSH0 PUSH2 0x2FE1 PUSH0 NOT DUP5 PUSH1 0x8 MUL PUSH2 0x2FC6 JUMP JUMPDEST NOT DUP1 DUP4 AND SWAP2 POP POP SWAP3 SWAP2 POP POP JUMP JUMPDEST PUSH0 PUSH2 0x2FF9 DUP4 DUP4 PUSH2 0x2FD2 JUMP JUMPDEST SWAP2 POP DUP3 PUSH1 0x2 MUL DUP3 OR SWAP1 POP SWAP3 SWAP2 POP POP JUMP JUMPDEST PUSH2 0x3012 DUP3 PUSH2 0x25BA JUMP JUMPDEST PUSH8 0xFFFFFFFFFFFFFFFF DUP2 GT ISZERO PUSH2 0x302B JUMPI PUSH2 0x302A PUSH2 0x289C JUMP JUMPDEST JUMPDEST PUSH2 0x3035 DUP3 SLOAD PUSH2 0x2D82 JUMP JUMPDEST PUSH2 0x3040 DUP3 DUP3 DUP6 PUSH2 0x2F80 JUMP JUMPDEST PUSH0 PUSH1 0x20 SWAP1 POP PUSH1 0x1F DUP4 GT PUSH1 0x1 DUP2 EQ PUSH2 0x3071 JUMPI PUSH0 DUP5 ISZERO PUSH2 0x305F JUMPI DUP3 DUP8 ADD MLOAD SWAP1 POP JUMPDEST PUSH2 0x3069 DUP6 DUP3 PUSH2 0x2FEE JUMP JUMPDEST DUP7 SSTORE POP PUSH2 0x30D0 JUMP JUMPDEST PUSH1 0x1F NOT DUP5 AND PUSH2 0x307F DUP7 PUSH2 0x2E6C JUMP JUMPDEST PUSH0 JUMPDEST DUP3 DUP2 LT ISZERO PUSH2 0x30A6 JUMPI DUP5 DUP10 ADD MLOAD DUP3 SSTORE PUSH1 0x1 DUP3 ADD SWAP2 POP PUSH1 0x20 DUP6 ADD SWAP5 POP PUSH1 0x20 DUP2 ADD SWAP1 POP PUSH2 0x3081 JUMP JUMPDEST DUP7 DUP4 LT ISZERO PUSH2 0x30C3 JUMPI DUP5 DUP10 ADD MLOAD PUSH2 0x30BF PUSH1 0x1F DUP10 AND DUP3 PUSH2 0x2FD2 JUMP JUMPDEST DUP4 SSTORE POP JUMPDEST PUSH1 0x1 PUSH1 0x2 DUP9 MUL ADD DUP9 SSTORE POP POP POP JUMPDEST POP POP POP POP POP POP JUMP JUMPDEST PUSH0 PUSH2 0x30E2 DUP3 PUSH2 0x26CF JUMP JUMPDEST SWAP2 POP PUSH2 0x30ED DUP4 PUSH2 0x26CF JUMP JUMPDEST SWAP3 POP DUP3 DUP3 ADD SWAP1 POP DUP1 DUP3 GT ISZERO PUSH2 0x3105 JUMPI PUSH2 0x3104 PUSH2 0x2DB2 JUMP JUMPDEST JUMPDEST SWAP3 SWAP2 POP POP JUMP INVALID LOG2 PUSH5 0x6970667358 0x22 SLT KECCAK256 PC PUSH5 0xF8290592FE PUSH5 0xB2051376B8 PUSH8 0x8383C45F9181896E MLOAD LOG3 CALLDATACOPY SWAP14 DUP11 PREVRANDAO PUSH21 0x6230A464736F6C6343000817003300000000000000 "
				},
				"gasEstimates": {
					"creation": {
						"codeDepositCost": "2521800",
						"executionCost": "2748",
						"totalCost": "2524548"
					},
					"external": {
						"_burnCounter()": "2658",
						"_burnCounter(uint256)": "22769",
						"_currentIndex()": "2680",
						"_currentIndex(uint256)": "22791",
						"_getApprovedSlotAndAddress(uint256)": "infinite",
						"_operatorApprovals(address,address)": "infinite",
						"_operatorApprovals(address,address,bool)": "infinite",
						"_packedAddressData(address)": "3100",
						"_packedAddressData(address,uint256)": "23097",
						"_packedOwnerships(uint256)": "infinite",
						"_packedOwnerships(uint256,uint256)": "infinite",
						"_spotMinted()": "2657",
						"_spotMintedIncr()": "infinite",
						"_startTokenId()": "2635",
						"_startTokenId(uint256)": "22747",
						"_tokenApprovals(uint256)": "3312",
						"_tokenApprovals(uint256,address)": "25222",
						"addTokenToAllTokensEnumeration(uint256)": "infinite",
						"addTokenToOwnerEnumeration(address,uint256,uint256)": "infinite",
						"allTokens()": "infinite",
						"baseTokenURI()": "infinite",
						"baseTokenURI(string)": "infinite",
						"defaultTokenURI()": "infinite",
						"defaultTokenURI(string)": "infinite",
						"epiclistRoot()": "2658",
						"epiclistRoot(bytes32)": "22725",
						"fee()": "2723",
						"fee(uint256)": "22835",
						"genesislistRoot()": "2681",
						"genesislistRoot(bytes32)": "22813",
						"guaranteed_minted(address)": "3073",
						"guaranteed_minted(address,bool)": "25189",
						"legendlistRoot()": "2722",
						"legendlistRoot(bytes32)": "22747",
						"name()": "infinite",
						"name(string)": "infinite",
						"ownedTokens(address,uint256)": "infinite",
						"ownedTokens(address,uint256,uint256)": "infinite",
						"ownedTokensIndex(uint256)": "infinite",
						"ownedTokensIndex(uint256,uint256)": "infinite",
						"removeTokenFromAllTokensEnumeration(uint256)": "infinite",
						"removeTokenFromOwnerEnumeration(address,uint256,uint256)": "infinite",
						"symbol()": "infinite",
						"symbol(string)": "infinite",
						"tokenURIs(string,uint256)": "infinite",
						"tokenURIs(uint256)": "infinite"
					},
					"internal": {
						"_getStorage(bytes32)": "27"
					}
				},
				"methodIdentifiers": {
					"_burnCounter()": "44faf255",
					"_burnCounter(uint256)": "8fca4dbe",
					"_currentIndex()": "9451c99a",
					"_currentIndex(uint256)": "345e7b28",
					"_getApprovedSlotAndAddress(uint256)": "f112a2af",
					"_operatorApprovals(address,address)": "edc3bc3f",
					"_operatorApprovals(address,address,bool)": "830d4091",
					"_packedAddressData(address)": "21b0ed7d",
					"_packedAddressData(address,uint256)": "a3301173",
					"_packedOwnerships(uint256)": "47f69eba",
					"_packedOwnerships(uint256,uint256)": "e68fdee1",
					"_spotMinted()": "d20b6ee7",
					"_spotMintedIncr()": "810536ec",
					"_startTokenId()": "98995f77",
					"_startTokenId(uint256)": "32b07b43",
					"_tokenApprovals(uint256)": "a7cc0136",
					"_tokenApprovals(uint256,address)": "13c19ff6",
					"addTokenToAllTokensEnumeration(uint256)": "dbe0b21c",
					"addTokenToOwnerEnumeration(address,uint256,uint256)": "4f4979ed",
					"allTokens()": "6ff97f1d",
					"baseTokenURI()": "d547cfb7",
					"baseTokenURI(string)": "a05cc559",
					"defaultTokenURI()": "963bfe12",
					"defaultTokenURI(string)": "821abc2d",
					"epiclistRoot()": "33171809",
					"epiclistRoot(bytes32)": "247c6ce0",
					"fee()": "ddca3f43",
					"fee(uint256)": "39b37ab0",
					"genesislistRoot()": "19f86200",
					"genesislistRoot(bytes32)": "3802497b",
					"guaranteed_minted(address)": "b62d8b91",
					"guaranteed_minted(address,bool)": "b0d4ce25",
					"legendlistRoot()": "f589b754",
					"legendlistRoot(bytes32)": "854f9db9",
					"name()": "06fdde03",
					"name(string)": "5b43bc99",
					"ownedTokens(address,uint256)": "e149f036",
					"ownedTokens(address,uint256,uint256)": "49a0a50e",
					"ownedTokensIndex(uint256)": "74e24367",
					"ownedTokensIndex(uint256,uint256)": "ad715f2e",
					"removeTokenFromAllTokensEnumeration(uint256)": "40e02f5c",
					"removeTokenFromOwnerEnumeration(address,uint256,uint256)": "071bc71c",
					"symbol()": "95d89b41",
					"symbol(string)": "41bb0559",
					"tokenURIs(string,uint256)": "dec84db1",
					"tokenURIs(uint256)": "6c8b703f"
				}
			},
			"storageLayout": {
				"storage": [],
				"types": null
			},
			"userdoc": {
				"kind": "user",
				"methods": {},
				"notice": "Библиотека хранилища амбассадорки*",
				"version": 1
			}
		}
	}
}