{
	"/contracts/modules/dynamicRouter/DynamicRouter.sol": {
		"DynamicRouter": {
			"abi": [
				{
					"inputs": [
						{
							"components": [
								{
									"internalType": "address",
									"name": "module",
									"type": "address"
								},
								{
									"internalType": "bytes4[]",
									"name": "selectors",
									"type": "bytes4[]"
								}
							],
							"internalType": "struct DynamicRouterStorage.moduleDefinition[]",
							"name": "modules",
							"type": "tuple[]"
						}
					],
					"stateMutability": "nonpayable",
					"type": "constructor"
				},
				{
					"inputs": [
						{
							"internalType": "bytes4",
							"name": "",
							"type": "bytes4"
						}
					],
					"name": "UnknownSelector",
					"type": "error"
				},
				{
					"stateMutability": "payable",
					"type": "fallback"
				},
				{
					"inputs": [],
					"name": "MODULE_NAME",
					"outputs": [
						{
							"internalType": "string",
							"name": "",
							"type": "string"
						}
					],
					"stateMutability": "view",
					"type": "function"
				},
				{
					"inputs": [],
					"name": "MODULE_VERSION",
					"outputs": [
						{
							"internalType": "uint256",
							"name": "",
							"type": "uint256"
						}
					],
					"stateMutability": "view",
					"type": "function"
				},
				{
					"stateMutability": "payable",
					"type": "receive"
				}
			],
			"devdoc": {
				"custom:version": "1.0.0",
				"details": "Динамический маршрутизатор",
				"errors": {
					"UnknownSelector(bytes4)": [
						{
							"details": "Неизвестный селектор"
						}
					]
				},
				"kind": "dev",
				"methods": {
					"constructor": {
						"details": "В конструктор необходимо передать данные по модулю UpdateProxy"
					}
				},
				"stateVariables": {
					"MODULE_NAME": {
						"details": "Название модуля"
					},
					"MODULE_VERSION": {
						"details": "Версия модуля"
					}
				},
				"title": "DynamicRouter",
				"version": 1
			},
			"evm": {
				"assembly": "    /* \"/contracts/modules/dynamicRouter/DynamicRouter.sol\":490:1717  contract DynamicRouter is IDynamicRouter, IModule{... */\n  mstore(0x40, 0xa0)\n    /* \"/contracts/modules/dynamicRouter/DynamicRouter.sol\":725:748  _encodeVersion(1, 0, 0) */\n  tag_1\n    /* \"/contracts/modules/dynamicRouter/DynamicRouter.sol\":740:741  1 */\n  0x01\n    /* \"/contracts/modules/dynamicRouter/DynamicRouter.sol\":743:744  0 */\n  0x00\n    /* \"/contracts/modules/dynamicRouter/DynamicRouter.sol\":746:747  0 */\n  0x00\n    /* \"/contracts/modules/dynamicRouter/DynamicRouter.sol\":725:739  _encodeVersion */\n  shl(0x20, tag_2)\n    /* \"/contracts/modules/dynamicRouter/DynamicRouter.sol\":725:748  _encodeVersion(1, 0, 0) */\n  0x20\n  shr\n  jump\t// in\ntag_1:\n    /* \"/contracts/modules/dynamicRouter/DynamicRouter.sol\":683:748  uint256 public immutable MODULE_VERSION = _encodeVersion(1, 0, 0) */\n  0x80\n  swap1\n  dup2\n  mstore\n  pop\n    /* \"/contracts/modules/dynamicRouter/DynamicRouter.sol\":874:1039  constructor(DynamicRouterStorage.moduleDefinition[] memory modules){... */\n  callvalue\n  dup1\n  iszero\n  tag_3\n  jumpi\n  revert(0x00, 0x00)\ntag_3:\n  pop\n  mload(0x40)\n  sub(codesize, bytecodeSize)\n  dup1\n  bytecodeSize\n  dup4\n  codecopy\n  dup2\n  dup2\n  add\n  0x40\n  mstore\n  dup2\n  add\n  swap1\n  tag_4\n  swap2\n  swap1\n  tag_5\n  jump\t// in\ntag_4:\n    /* \"/contracts/modules/dynamicRouter/DynamicRouter.sol\":948:968  DynamicRouterStorage */\n  linkerSymbol(\"f07e73ab50fdc244a807a505d0c4602bfdea304d7b80dae92ab9a9efeb94329a\")\n    /* \"/contracts/modules/dynamicRouter/DynamicRouter.sol\":948:982  DynamicRouterStorage.updateModules */\n  0xa8f64352\n    /* \"/contracts/modules/dynamicRouter/DynamicRouter.sol\":983:990  modules */\n  dup3\n    /* \"/contracts/modules/dynamicRouter/DynamicRouter.sol\":948:991  DynamicRouterStorage.updateModules(modules) */\n  mload(0x40)\n  dup3\n  0xffffffff\n  and\n  0xe0\n  shl\n  dup2\n  mstore\n  0x04\n  add\n  tag_8\n  swap2\n  swap1\n  tag_9\n  jump\t// in\ntag_8:\n  0x00\n  mload(0x40)\n  dup1\n  dup4\n  sub\n  dup2\n  dup7\n  dup1\n  extcodesize\n  iszero\n  dup1\n  iszero\n  tag_10\n  jumpi\n  revert(0x00, 0x00)\ntag_10:\n  pop\n  gas\n  delegatecall\n  iszero\n  dup1\n  iszero\n  tag_12\n  jumpi\n  returndatacopy(0x00, 0x00, returndatasize)\n  revert(0x00, returndatasize)\ntag_12:\n  pop\n  pop\n  pop\n  pop\n    /* \"/contracts/modules/dynamicRouter/DynamicRouter.sol\":998:1012  OwnableStorage */\n  linkerSymbol(\"eb9c0828cb3946c6500b9206079c1e521642274c1965f08e91164501921ca395\")\n    /* \"/contracts/modules/dynamicRouter/DynamicRouter.sol\":998:1021  OwnableStorage.setowner */\n  0x592bd705\n    /* \"/contracts/modules/dynamicRouter/DynamicRouter.sol\":1022:1032  msg.sender */\n  caller\n    /* \"/contracts/modules/dynamicRouter/DynamicRouter.sol\":998:1033  OwnableStorage.setowner(msg.sender) */\n  mload(0x40)\n  dup3\n  0xffffffff\n  and\n  0xe0\n  shl\n  dup2\n  mstore\n  0x04\n  add\n  tag_13\n  swap2\n  swap1\n  tag_14\n  jump\t// in\ntag_13:\n  0x00\n  mload(0x40)\n  dup1\n  dup4\n  sub\n  dup2\n  dup7\n  dup1\n  extcodesize\n  iszero\n  dup1\n  iszero\n  tag_15\n  jumpi\n  revert(0x00, 0x00)\ntag_15:\n  pop\n  gas\n  delegatecall\n  iszero\n  dup1\n  iszero\n  tag_17\n  jumpi\n  returndatacopy(0x00, 0x00, returndatasize)\n  revert(0x00, returndatasize)\ntag_17:\n  pop\n  pop\n  pop\n  pop\n    /* \"/contracts/modules/dynamicRouter/DynamicRouter.sol\":874:1039  constructor(DynamicRouterStorage.moduleDefinition[] memory modules){... */\n  pop\n    /* \"/contracts/modules/dynamicRouter/DynamicRouter.sol\":490:1717  contract DynamicRouter is IDynamicRouter, IModule{... */\n  jump(tag_18)\n    /* \"/contracts/free/FreeVersion.sol\":498:689  function _encodeVersion(uint32 major, uint32 minor, uint32 revision) pure returns (uint256 encodedVersion){... */\ntag_2:\n    /* \"/contracts/free/FreeVersion.sol\":581:603  uint256 encodedVersion */\n  0x00\n    /* \"/contracts/free/FreeVersion.sol\":676:684  revision */\n  dup2\n    /* \"/contracts/free/FreeVersion.sol\":668:685  uint256(revision) */\n  0xffffffff\n  and\n    /* \"/contracts/free/FreeVersion.sol\":662:664  32 */\n  0x20\n    /* \"/contracts/free/FreeVersion.sol\":652:657  minor */\n  dup5\n    /* \"/contracts/free/FreeVersion.sol\":644:658  uint256(minor) */\n  0xffffffff\n  and\n    /* \"/contracts/free/FreeVersion.sol\":644:664  uint256(minor) << 32 */\n  swap1\n  shl\n    /* \"/contracts/free/FreeVersion.sol\":637:639  64 */\n  0x40\n    /* \"/contracts/free/FreeVersion.sol\":627:632  major */\n  dup7\n    /* \"/contracts/free/FreeVersion.sol\":619:633  uint256(major) */\n  0xffffffff\n  and\n    /* \"/contracts/free/FreeVersion.sol\":619:639  uint256(major) << 64 */\n  swap1\n  shl\n    /* \"/contracts/free/FreeVersion.sol\":618:665  (uint256(major) << 64) | (uint256(minor) << 32) */\n  or\n    /* \"/contracts/free/FreeVersion.sol\":618:685  (uint256(major) << 64) | (uint256(minor) << 32) | uint256(revision) */\n  or\n    /* \"/contracts/free/FreeVersion.sol\":611:685  return (uint256(major) << 64) | (uint256(minor) << 32) | uint256(revision) */\n  swap1\n  pop\n    /* \"/contracts/free/FreeVersion.sol\":498:689  function _encodeVersion(uint32 major, uint32 minor, uint32 revision) pure returns (uint256 encodedVersion){... */\n  swap4\n  swap3\n  pop\n  pop\n  pop\n  jump\t// out\n    /* \"#utility.yul\":7:82   */\ntag_20:\n    /* \"#utility.yul\":40:46   */\n  0x00\n    /* \"#utility.yul\":73:75   */\n  0x40\n    /* \"#utility.yul\":67:76   */\n  mload\n    /* \"#utility.yul\":57:76   */\n  swap1\n  pop\n    /* \"#utility.yul\":7:82   */\n  swap1\n  jump\t// out\n    /* \"#utility.yul\":88:205   */\ntag_21:\n    /* \"#utility.yul\":197:198   */\n  0x00\n    /* \"#utility.yul\":194:195   */\n  0x00\n    /* \"#utility.yul\":187:199   */\n  revert\n    /* \"#utility.yul\":211:328   */\ntag_22:\n    /* \"#utility.yul\":320:321   */\n  0x00\n    /* \"#utility.yul\":317:318   */\n  0x00\n    /* \"#utility.yul\":310:322   */\n  revert\n    /* \"#utility.yul\":334:451   */\ntag_23:\n    /* \"#utility.yul\":443:444   */\n  0x00\n    /* \"#utility.yul\":440:441   */\n  0x00\n    /* \"#utility.yul\":433:445   */\n  revert\n    /* \"#utility.yul\":457:559   */\ntag_24:\n    /* \"#utility.yul\":498:504   */\n  0x00\n    /* \"#utility.yul\":549:551   */\n  0x1f\n    /* \"#utility.yul\":545:552   */\n  not\n    /* \"#utility.yul\":540:542   */\n  0x1f\n    /* \"#utility.yul\":533:538   */\n  dup4\n    /* \"#utility.yul\":529:543   */\n  add\n    /* \"#utility.yul\":525:553   */\n  and\n    /* \"#utility.yul\":515:553   */\n  swap1\n  pop\n    /* \"#utility.yul\":457:559   */\n  swap2\n  swap1\n  pop\n  jump\t// out\n    /* \"#utility.yul\":565:745   */\ntag_25:\n    /* \"#utility.yul\":613:690   */\n  0x4e487b7100000000000000000000000000000000000000000000000000000000\n    /* \"#utility.yul\":610:611   */\n  0x00\n    /* \"#utility.yul\":603:691   */\n  mstore\n    /* \"#utility.yul\":710:714   */\n  0x41\n    /* \"#utility.yul\":707:708   */\n  0x04\n    /* \"#utility.yul\":700:715   */\n  mstore\n    /* \"#utility.yul\":734:738   */\n  0x24\n    /* \"#utility.yul\":731:732   */\n  0x00\n    /* \"#utility.yul\":724:739   */\n  revert\n    /* \"#utility.yul\":751:1032   */\ntag_26:\n    /* \"#utility.yul\":834:861   */\n  tag_69\n    /* \"#utility.yul\":856:860   */\n  dup3\n    /* \"#utility.yul\":834:861   */\n  tag_24\n  jump\t// in\ntag_69:\n    /* \"#utility.yul\":826:832   */\n  dup2\n    /* \"#utility.yul\":822:862   */\n  add\n    /* \"#utility.yul\":964:970   */\n  dup2\n    /* \"#utility.yul\":952:962   */\n  dup2\n    /* \"#utility.yul\":949:971   */\n  lt\n    /* \"#utility.yul\":928:946   */\n  0xffffffffffffffff\n    /* \"#utility.yul\":916:926   */\n  dup3\n    /* \"#utility.yul\":913:947   */\n  gt\n    /* \"#utility.yul\":910:972   */\n  or\n    /* \"#utility.yul\":907:995   */\n  iszero\n  tag_70\n  jumpi\n    /* \"#utility.yul\":975:993   */\n  tag_71\n  tag_25\n  jump\t// in\ntag_71:\n    /* \"#utility.yul\":907:995   */\ntag_70:\n    /* \"#utility.yul\":1015:1025   */\n  dup1\n    /* \"#utility.yul\":1011:1013   */\n  0x40\n    /* \"#utility.yul\":1004:1026   */\n  mstore\n    /* \"#utility.yul\":794:1032   */\n  pop\n    /* \"#utility.yul\":751:1032   */\n  pop\n  pop\n  jump\t// out\n    /* \"#utility.yul\":1038:1167   */\ntag_27:\n    /* \"#utility.yul\":1072:1078   */\n  0x00\n    /* \"#utility.yul\":1099:1119   */\n  tag_73\n  tag_20\n  jump\t// in\ntag_73:\n    /* \"#utility.yul\":1089:1119   */\n  swap1\n  pop\n    /* \"#utility.yul\":1128:1161   */\n  tag_74\n    /* \"#utility.yul\":1156:1160   */\n  dup3\n    /* \"#utility.yul\":1148:1154   */\n  dup3\n    /* \"#utility.yul\":1128:1161   */\n  tag_26\n  jump\t// in\ntag_74:\n    /* \"#utility.yul\":1038:1167   */\n  swap2\n  swap1\n  pop\n  jump\t// out\n    /* \"#utility.yul\":1173:1517   */\ntag_28:\n    /* \"#utility.yul\":1283:1287   */\n  0x00\n    /* \"#utility.yul\":1373:1391   */\n  0xffffffffffffffff\n    /* \"#utility.yul\":1365:1371   */\n  dup3\n    /* \"#utility.yul\":1362:1392   */\n  gt\n    /* \"#utility.yul\":1359:1415   */\n  iszero\n  tag_76\n  jumpi\n    /* \"#utility.yul\":1395:1413   */\n  tag_77\n  tag_25\n  jump\t// in\ntag_77:\n    /* \"#utility.yul\":1359:1415   */\ntag_76:\n    /* \"#utility.yul\":1445:1449   */\n  0x20\n    /* \"#utility.yul\":1437:1443   */\n  dup3\n    /* \"#utility.yul\":1433:1450   */\n  mul\n    /* \"#utility.yul\":1425:1450   */\n  swap1\n  pop\n    /* \"#utility.yul\":1505:1509   */\n  0x20\n    /* \"#utility.yul\":1499:1503   */\n  dup2\n    /* \"#utility.yul\":1495:1510   */\n  add\n    /* \"#utility.yul\":1487:1510   */\n  swap1\n  pop\n    /* \"#utility.yul\":1173:1517   */\n  swap2\n  swap1\n  pop\n  jump\t// out\n    /* \"#utility.yul\":1523:1640   */\ntag_29:\n    /* \"#utility.yul\":1632:1633   */\n  0x00\n    /* \"#utility.yul\":1629:1630   */\n  0x00\n    /* \"#utility.yul\":1622:1634   */\n  revert\n    /* \"#utility.yul\":1646:1763   */\ntag_30:\n    /* \"#utility.yul\":1755:1756   */\n  0x00\n    /* \"#utility.yul\":1752:1753   */\n  0x00\n    /* \"#utility.yul\":1745:1757   */\n  revert\n    /* \"#utility.yul\":1769:1886   */\ntag_31:\n    /* \"#utility.yul\":1878:1879   */\n  0x00\n    /* \"#utility.yul\":1875:1876   */\n  0x00\n    /* \"#utility.yul\":1868:1880   */\n  revert\n    /* \"#utility.yul\":1892:2018   */\ntag_32:\n    /* \"#utility.yul\":1929:1936   */\n  0x00\n    /* \"#utility.yul\":1969:2011   */\n  0xffffffffffffffffffffffffffffffffffffffff\n    /* \"#utility.yul\":1962:1967   */\n  dup3\n    /* \"#utility.yul\":1958:2012   */\n  and\n    /* \"#utility.yul\":1947:2012   */\n  swap1\n  pop\n    /* \"#utility.yul\":1892:2018   */\n  swap2\n  swap1\n  pop\n  jump\t// out\n    /* \"#utility.yul\":2024:2120   */\ntag_33:\n    /* \"#utility.yul\":2061:2068   */\n  0x00\n    /* \"#utility.yul\":2090:2114   */\n  tag_83\n    /* \"#utility.yul\":2108:2113   */\n  dup3\n    /* \"#utility.yul\":2090:2114   */\n  tag_32\n  jump\t// in\ntag_83:\n    /* \"#utility.yul\":2079:2114   */\n  swap1\n  pop\n    /* \"#utility.yul\":2024:2120   */\n  swap2\n  swap1\n  pop\n  jump\t// out\n    /* \"#utility.yul\":2126:2248   */\ntag_34:\n    /* \"#utility.yul\":2199:2223   */\n  tag_85\n    /* \"#utility.yul\":2217:2222   */\n  dup2\n    /* \"#utility.yul\":2199:2223   */\n  tag_33\n  jump\t// in\ntag_85:\n    /* \"#utility.yul\":2192:2197   */\n  dup2\n    /* \"#utility.yul\":2189:2224   */\n  eq\n    /* \"#utility.yul\":2179:2242   */\n  tag_86\n  jumpi\n    /* \"#utility.yul\":2238:2239   */\n  0x00\n    /* \"#utility.yul\":2235:2236   */\n  0x00\n    /* \"#utility.yul\":2228:2240   */\n  revert\n    /* \"#utility.yul\":2179:2242   */\ntag_86:\n    /* \"#utility.yul\":2126:2248   */\n  pop\n  jump\t// out\n    /* \"#utility.yul\":2254:2397   */\ntag_35:\n    /* \"#utility.yul\":2311:2316   */\n  0x00\n    /* \"#utility.yul\":2342:2348   */\n  dup2\n    /* \"#utility.yul\":2336:2349   */\n  mload\n    /* \"#utility.yul\":2327:2349   */\n  swap1\n  pop\n    /* \"#utility.yul\":2358:2391   */\n  tag_88\n    /* \"#utility.yul\":2385:2390   */\n  dup2\n    /* \"#utility.yul\":2358:2391   */\n  tag_34\n  jump\t// in\ntag_88:\n    /* \"#utility.yul\":2254:2397   */\n  swap3\n  swap2\n  pop\n  pop\n  jump\t// out\n    /* \"#utility.yul\":2403:2713   */\ntag_36:\n    /* \"#utility.yul\":2479:2483   */\n  0x00\n    /* \"#utility.yul\":2569:2587   */\n  0xffffffffffffffff\n    /* \"#utility.yul\":2561:2567   */\n  dup3\n    /* \"#utility.yul\":2558:2588   */\n  gt\n    /* \"#utility.yul\":2555:2611   */\n  iszero\n  tag_90\n  jumpi\n    /* \"#utility.yul\":2591:2609   */\n  tag_91\n  tag_25\n  jump\t// in\ntag_91:\n    /* \"#utility.yul\":2555:2611   */\ntag_90:\n    /* \"#utility.yul\":2641:2645   */\n  0x20\n    /* \"#utility.yul\":2633:2639   */\n  dup3\n    /* \"#utility.yul\":2629:2646   */\n  mul\n    /* \"#utility.yul\":2621:2646   */\n  swap1\n  pop\n    /* \"#utility.yul\":2701:2705   */\n  0x20\n    /* \"#utility.yul\":2695:2699   */\n  dup2\n    /* \"#utility.yul\":2691:2706   */\n  add\n    /* \"#utility.yul\":2683:2706   */\n  swap1\n  pop\n    /* \"#utility.yul\":2403:2713   */\n  swap2\n  swap1\n  pop\n  jump\t// out\n    /* \"#utility.yul\":2719:2868   */\ntag_37:\n    /* \"#utility.yul\":2755:2762   */\n  0x00\n    /* \"#utility.yul\":2795:2861   */\n  0xffffffff00000000000000000000000000000000000000000000000000000000\n    /* \"#utility.yul\":2788:2793   */\n  dup3\n    /* \"#utility.yul\":2784:2862   */\n  and\n    /* \"#utility.yul\":2773:2862   */\n  swap1\n  pop\n    /* \"#utility.yul\":2719:2868   */\n  swap2\n  swap1\n  pop\n  jump\t// out\n    /* \"#utility.yul\":2874:2994   */\ntag_38:\n    /* \"#utility.yul\":2946:2969   */\n  tag_94\n    /* \"#utility.yul\":2963:2968   */\n  dup2\n    /* \"#utility.yul\":2946:2969   */\n  tag_37\n  jump\t// in\ntag_94:\n    /* \"#utility.yul\":2939:2944   */\n  dup2\n    /* \"#utility.yul\":2936:2970   */\n  eq\n    /* \"#utility.yul\":2926:2988   */\n  tag_95\n  jumpi\n    /* \"#utility.yul\":2984:2985   */\n  0x00\n    /* \"#utility.yul\":2981:2982   */\n  0x00\n    /* \"#utility.yul\":2974:2986   */\n  revert\n    /* \"#utility.yul\":2926:2988   */\ntag_95:\n    /* \"#utility.yul\":2874:2994   */\n  pop\n  jump\t// out\n    /* \"#utility.yul\":3000:3141   */\ntag_39:\n    /* \"#utility.yul\":3056:3061   */\n  0x00\n    /* \"#utility.yul\":3087:3093   */\n  dup2\n    /* \"#utility.yul\":3081:3094   */\n  mload\n    /* \"#utility.yul\":3072:3094   */\n  swap1\n  pop\n    /* \"#utility.yul\":3103:3135   */\n  tag_97\n    /* \"#utility.yul\":3129:3134   */\n  dup2\n    /* \"#utility.yul\":3103:3135   */\n  tag_38\n  jump\t// in\ntag_97:\n    /* \"#utility.yul\":3000:3141   */\n  swap3\n  swap2\n  pop\n  pop\n  jump\t// out\n    /* \"#utility.yul\":3163:3892   */\ntag_40:\n    /* \"#utility.yul\":3269:3274   */\n  0x00\n    /* \"#utility.yul\":3294:3374   */\n  tag_99\n    /* \"#utility.yul\":3310:3373   */\n  tag_100\n    /* \"#utility.yul\":3366:3372   */\n  dup5\n    /* \"#utility.yul\":3310:3373   */\n  tag_36\n  jump\t// in\ntag_100:\n    /* \"#utility.yul\":3294:3374   */\n  tag_27\n  jump\t// in\ntag_99:\n    /* \"#utility.yul\":3285:3374   */\n  swap1\n  pop\n    /* \"#utility.yul\":3394:3399   */\n  dup1\n    /* \"#utility.yul\":3423:3429   */\n  dup4\n    /* \"#utility.yul\":3416:3421   */\n  dup3\n    /* \"#utility.yul\":3409:3430   */\n  mstore\n    /* \"#utility.yul\":3457:3461   */\n  0x20\n    /* \"#utility.yul\":3450:3455   */\n  dup3\n    /* \"#utility.yul\":3446:3462   */\n  add\n    /* \"#utility.yul\":3439:3462   */\n  swap1\n  pop\n    /* \"#utility.yul\":3510:3514   */\n  0x20\n    /* \"#utility.yul\":3502:3508   */\n  dup5\n    /* \"#utility.yul\":3498:3515   */\n  mul\n    /* \"#utility.yul\":3490:3496   */\n  dup4\n    /* \"#utility.yul\":3486:3516   */\n  add\n    /* \"#utility.yul\":3539:3542   */\n  dup6\n    /* \"#utility.yul\":3531:3537   */\n  dup2\n    /* \"#utility.yul\":3528:3543   */\n  gt\n    /* \"#utility.yul\":3525:3647   */\n  iszero\n  tag_101\n  jumpi\n    /* \"#utility.yul\":3558:3637   */\n  tag_102\n  tag_29\n  jump\t// in\ntag_102:\n    /* \"#utility.yul\":3525:3647   */\ntag_101:\n    /* \"#utility.yul\":3673:3679   */\n  dup4\n    /* \"#utility.yul\":3656:3886   */\ntag_103:\n    /* \"#utility.yul\":3690:3696   */\n  dup2\n    /* \"#utility.yul\":3685:3688   */\n  dup2\n    /* \"#utility.yul\":3682:3697   */\n  lt\n    /* \"#utility.yul\":3656:3886   */\n  iszero\n  tag_105\n  jumpi\n    /* \"#utility.yul\":3765:3768   */\n  dup1\n    /* \"#utility.yul\":3794:3841   */\n  tag_106\n    /* \"#utility.yul\":3837:3840   */\n  dup9\n    /* \"#utility.yul\":3825:3835   */\n  dup3\n    /* \"#utility.yul\":3794:3841   */\n  tag_39\n  jump\t// in\ntag_106:\n    /* \"#utility.yul\":3789:3792   */\n  dup5\n    /* \"#utility.yul\":3782:3842   */\n  mstore\n    /* \"#utility.yul\":3871:3875   */\n  0x20\n    /* \"#utility.yul\":3866:3869   */\n  dup5\n    /* \"#utility.yul\":3862:3876   */\n  add\n    /* \"#utility.yul\":3855:3876   */\n  swap4\n  pop\n    /* \"#utility.yul\":3732:3886   */\n  pop\n    /* \"#utility.yul\":3716:3720   */\n  0x20\n    /* \"#utility.yul\":3711:3714   */\n  dup2\n    /* \"#utility.yul\":3707:3721   */\n  add\n    /* \"#utility.yul\":3700:3721   */\n  swap1\n  pop\n    /* \"#utility.yul\":3656:3886   */\n  jump(tag_103)\ntag_105:\n    /* \"#utility.yul\":3660:3681   */\n  pop\n    /* \"#utility.yul\":3275:3892   */\n  pop\n  pop\n    /* \"#utility.yul\":3163:3892   */\n  swap4\n  swap3\n  pop\n  pop\n  pop\n  jump\t// out\n    /* \"#utility.yul\":3914:4297   */\ntag_41:\n    /* \"#utility.yul\":3995:4000   */\n  0x00\n    /* \"#utility.yul\":4044:4047   */\n  dup3\n    /* \"#utility.yul\":4037:4041   */\n  0x1f\n    /* \"#utility.yul\":4029:4035   */\n  dup4\n    /* \"#utility.yul\":4025:4042   */\n  add\n    /* \"#utility.yul\":4021:4048   */\n  slt\n    /* \"#utility.yul\":4011:4133   */\n  tag_108\n  jumpi\n    /* \"#utility.yul\":4052:4131   */\n  tag_109\n  tag_23\n  jump\t// in\ntag_109:\n    /* \"#utility.yul\":4011:4133   */\ntag_108:\n    /* \"#utility.yul\":4162:4168   */\n  dup2\n    /* \"#utility.yul\":4156:4169   */\n  mload\n    /* \"#utility.yul\":4187:4291   */\n  tag_110\n    /* \"#utility.yul\":4287:4290   */\n  dup5\n    /* \"#utility.yul\":4279:4285   */\n  dup3\n    /* \"#utility.yul\":4272:4276   */\n  0x20\n    /* \"#utility.yul\":4264:4270   */\n  dup7\n    /* \"#utility.yul\":4260:4277   */\n  add\n    /* \"#utility.yul\":4187:4291   */\n  tag_40\n  jump\t// in\ntag_110:\n    /* \"#utility.yul\":4178:4291   */\n  swap2\n  pop\n    /* \"#utility.yul\":4001:4297   */\n  pop\n    /* \"#utility.yul\":3914:4297   */\n  swap3\n  swap2\n  pop\n  pop\n  jump\t// out\n    /* \"#utility.yul\":4355:5154   */\ntag_42:\n    /* \"#utility.yul\":4448:4453   */\n  0x00\n    /* \"#utility.yul\":4492:4496   */\n  0x40\n    /* \"#utility.yul\":4480:4489   */\n  dup3\n    /* \"#utility.yul\":4475:4478   */\n  dup5\n    /* \"#utility.yul\":4471:4490   */\n  sub\n    /* \"#utility.yul\":4467:4497   */\n  slt\n    /* \"#utility.yul\":4464:4581   */\n  iszero\n  tag_112\n  jumpi\n    /* \"#utility.yul\":4500:4579   */\n  tag_113\n  tag_30\n  jump\t// in\ntag_113:\n    /* \"#utility.yul\":4464:4581   */\ntag_112:\n    /* \"#utility.yul\":4599:4620   */\n  tag_114\n    /* \"#utility.yul\":4615:4619   */\n  0x40\n    /* \"#utility.yul\":4599:4620   */\n  tag_27\n  jump\t// in\ntag_114:\n    /* \"#utility.yul\":4590:4620   */\n  swap1\n  pop\n    /* \"#utility.yul\":4681:4682   */\n  0x00\n    /* \"#utility.yul\":4721:4781   */\n  tag_115\n    /* \"#utility.yul\":4777:4780   */\n  dup5\n    /* \"#utility.yul\":4768:4774   */\n  dup3\n    /* \"#utility.yul\":4757:4766   */\n  dup6\n    /* \"#utility.yul\":4753:4775   */\n  add\n    /* \"#utility.yul\":4721:4781   */\n  tag_35\n  jump\t// in\ntag_115:\n    /* \"#utility.yul\":4714:4718   */\n  0x00\n    /* \"#utility.yul\":4707:4712   */\n  dup4\n    /* \"#utility.yul\":4703:4719   */\n  add\n    /* \"#utility.yul\":4696:4782   */\n  mstore\n    /* \"#utility.yul\":4630:4793   */\n  pop\n    /* \"#utility.yul\":4878:4880   */\n  0x20\n    /* \"#utility.yul\":4867:4876   */\n  dup3\n    /* \"#utility.yul\":4863:4881   */\n  add\n    /* \"#utility.yul\":4857:4882   */\n  mload\n    /* \"#utility.yul\":4909:4927   */\n  0xffffffffffffffff\n    /* \"#utility.yul\":4901:4907   */\n  dup2\n    /* \"#utility.yul\":4898:4928   */\n  gt\n    /* \"#utility.yul\":4895:5012   */\n  iszero\n  tag_116\n  jumpi\n    /* \"#utility.yul\":4931:5010   */\n  tag_117\n  tag_31\n  jump\t// in\ntag_117:\n    /* \"#utility.yul\":4895:5012   */\ntag_116:\n    /* \"#utility.yul\":5051:5135   */\n  tag_118\n    /* \"#utility.yul\":5131:5134   */\n  dup5\n    /* \"#utility.yul\":5122:5128   */\n  dup3\n    /* \"#utility.yul\":5111:5120   */\n  dup6\n    /* \"#utility.yul\":5107:5129   */\n  add\n    /* \"#utility.yul\":5051:5135   */\n  tag_41\n  jump\t// in\ntag_118:\n    /* \"#utility.yul\":5044:5048   */\n  0x20\n    /* \"#utility.yul\":5037:5042   */\n  dup4\n    /* \"#utility.yul\":5033:5049   */\n  add\n    /* \"#utility.yul\":5026:5136   */\n  mstore\n    /* \"#utility.yul\":4803:5147   */\n  pop\n    /* \"#utility.yul\":4355:5154   */\n  swap3\n  swap2\n  pop\n  pop\n  jump\t// out\n    /* \"#utility.yul\":5214:6243   */\ntag_43:\n    /* \"#utility.yul\":5354:5359   */\n  0x00\n    /* \"#utility.yul\":5379:5493   */\n  tag_120\n    /* \"#utility.yul\":5395:5492   */\n  tag_121\n    /* \"#utility.yul\":5485:5491   */\n  dup5\n    /* \"#utility.yul\":5395:5492   */\n  tag_28\n  jump\t// in\ntag_121:\n    /* \"#utility.yul\":5379:5493   */\n  tag_27\n  jump\t// in\ntag_120:\n    /* \"#utility.yul\":5370:5493   */\n  swap1\n  pop\n    /* \"#utility.yul\":5513:5518   */\n  dup1\n    /* \"#utility.yul\":5542:5548   */\n  dup4\n    /* \"#utility.yul\":5535:5540   */\n  dup3\n    /* \"#utility.yul\":5528:5549   */\n  mstore\n    /* \"#utility.yul\":5576:5580   */\n  0x20\n    /* \"#utility.yul\":5569:5574   */\n  dup3\n    /* \"#utility.yul\":5565:5581   */\n  add\n    /* \"#utility.yul\":5558:5581   */\n  swap1\n  pop\n    /* \"#utility.yul\":5629:5633   */\n  0x20\n    /* \"#utility.yul\":5621:5627   */\n  dup5\n    /* \"#utility.yul\":5617:5634   */\n  mul\n    /* \"#utility.yul\":5609:5615   */\n  dup4\n    /* \"#utility.yul\":5605:5635   */\n  add\n    /* \"#utility.yul\":5658:5661   */\n  dup6\n    /* \"#utility.yul\":5650:5656   */\n  dup2\n    /* \"#utility.yul\":5647:5662   */\n  gt\n    /* \"#utility.yul\":5644:5766   */\n  iszero\n  tag_122\n  jumpi\n    /* \"#utility.yul\":5677:5756   */\n  tag_123\n  tag_29\n  jump\t// in\ntag_123:\n    /* \"#utility.yul\":5644:5766   */\ntag_122:\n    /* \"#utility.yul\":5792:5798   */\n  dup4\n    /* \"#utility.yul\":5775:6237   */\ntag_124:\n    /* \"#utility.yul\":5809:5815   */\n  dup2\n    /* \"#utility.yul\":5804:5807   */\n  dup2\n    /* \"#utility.yul\":5801:5816   */\n  lt\n    /* \"#utility.yul\":5775:6237   */\n  iszero\n  tag_126\n  jumpi\n    /* \"#utility.yul\":5891:5894   */\n  dup1\n    /* \"#utility.yul\":5885:5895   */\n  mload\n    /* \"#utility.yul\":5927:5945   */\n  0xffffffffffffffff\n    /* \"#utility.yul\":5914:5925   */\n  dup2\n    /* \"#utility.yul\":5911:5946   */\n  gt\n    /* \"#utility.yul\":5908:6030   */\n  iszero\n  tag_127\n  jumpi\n    /* \"#utility.yul\":5949:6028   */\n  tag_128\n  tag_23\n  jump\t// in\ntag_128:\n    /* \"#utility.yul\":5908:6030   */\ntag_127:\n    /* \"#utility.yul\":6073:6084   */\n  dup1\n    /* \"#utility.yul\":6065:6071   */\n  dup7\n    /* \"#utility.yul\":6061:6085   */\n  add\n    /* \"#utility.yul\":6111:6192   */\n  tag_129\n    /* \"#utility.yul\":6188:6191   */\n  dup10\n    /* \"#utility.yul\":6176:6186   */\n  dup3\n    /* \"#utility.yul\":6111:6192   */\n  tag_42\n  jump\t// in\ntag_129:\n    /* \"#utility.yul\":6106:6109   */\n  dup6\n    /* \"#utility.yul\":6099:6193   */\n  mstore\n    /* \"#utility.yul\":6222:6226   */\n  0x20\n    /* \"#utility.yul\":6217:6220   */\n  dup6\n    /* \"#utility.yul\":6213:6227   */\n  add\n    /* \"#utility.yul\":6206:6227   */\n  swap5\n  pop\n    /* \"#utility.yul\":5851:6237   */\n  pop\n  pop\n    /* \"#utility.yul\":5835:5839   */\n  0x20\n    /* \"#utility.yul\":5830:5833   */\n  dup2\n    /* \"#utility.yul\":5826:5840   */\n  add\n    /* \"#utility.yul\":5819:5840   */\n  swap1\n  pop\n    /* \"#utility.yul\":5775:6237   */\n  jump(tag_124)\ntag_126:\n    /* \"#utility.yul\":5779:5800   */\n  pop\n    /* \"#utility.yul\":5360:6243   */\n  pop\n  pop\n    /* \"#utility.yul\":5214:6243   */\n  swap4\n  swap3\n  pop\n  pop\n  pop\n  jump\t// out\n    /* \"#utility.yul\":6303:6754   */\ntag_44:\n    /* \"#utility.yul\":6418:6423   */\n  0x00\n    /* \"#utility.yul\":6467:6470   */\n  dup3\n    /* \"#utility.yul\":6460:6464   */\n  0x1f\n    /* \"#utility.yul\":6452:6458   */\n  dup4\n    /* \"#utility.yul\":6448:6465   */\n  add\n    /* \"#utility.yul\":6444:6471   */\n  slt\n    /* \"#utility.yul\":6434:6556   */\n  tag_131\n  jumpi\n    /* \"#utility.yul\":6475:6554   */\n  tag_132\n  tag_23\n  jump\t// in\ntag_132:\n    /* \"#utility.yul\":6434:6556   */\ntag_131:\n    /* \"#utility.yul\":6585:6591   */\n  dup2\n    /* \"#utility.yul\":6579:6592   */\n  mload\n    /* \"#utility.yul\":6610:6748   */\n  tag_133\n    /* \"#utility.yul\":6744:6747   */\n  dup5\n    /* \"#utility.yul\":6736:6742   */\n  dup3\n    /* \"#utility.yul\":6729:6733   */\n  0x20\n    /* \"#utility.yul\":6721:6727   */\n  dup7\n    /* \"#utility.yul\":6717:6734   */\n  add\n    /* \"#utility.yul\":6610:6748   */\n  tag_43\n  jump\t// in\ntag_133:\n    /* \"#utility.yul\":6601:6748   */\n  swap2\n  pop\n    /* \"#utility.yul\":6424:6754   */\n  pop\n    /* \"#utility.yul\":6303:6754   */\n  swap3\n  swap2\n  pop\n  pop\n  jump\t// out\n    /* \"#utility.yul\":6760:7380   */\ntag_5:\n    /* \"#utility.yul\":6888:6894   */\n  0x00\n    /* \"#utility.yul\":6937:6939   */\n  0x20\n    /* \"#utility.yul\":6925:6934   */\n  dup3\n    /* \"#utility.yul\":6916:6923   */\n  dup5\n    /* \"#utility.yul\":6912:6935   */\n  sub\n    /* \"#utility.yul\":6908:6940   */\n  slt\n    /* \"#utility.yul\":6905:7024   */\n  iszero\n  tag_135\n  jumpi\n    /* \"#utility.yul\":6943:7022   */\n  tag_136\n  tag_21\n  jump\t// in\ntag_136:\n    /* \"#utility.yul\":6905:7024   */\ntag_135:\n    /* \"#utility.yul\":7084:7085   */\n  0x00\n    /* \"#utility.yul\":7073:7082   */\n  dup3\n    /* \"#utility.yul\":7069:7086   */\n  add\n    /* \"#utility.yul\":7063:7087   */\n  mload\n    /* \"#utility.yul\":7114:7132   */\n  0xffffffffffffffff\n    /* \"#utility.yul\":7106:7112   */\n  dup2\n    /* \"#utility.yul\":7103:7133   */\n  gt\n    /* \"#utility.yul\":7100:7217   */\n  iszero\n  tag_137\n  jumpi\n    /* \"#utility.yul\":7136:7215   */\n  tag_138\n  tag_22\n  jump\t// in\ntag_138:\n    /* \"#utility.yul\":7100:7217   */\ntag_137:\n    /* \"#utility.yul\":7241:7363   */\n  tag_139\n    /* \"#utility.yul\":7355:7362   */\n  dup5\n    /* \"#utility.yul\":7346:7352   */\n  dup3\n    /* \"#utility.yul\":7335:7344   */\n  dup6\n    /* \"#utility.yul\":7331:7353   */\n  add\n    /* \"#utility.yul\":7241:7363   */\n  tag_44\n  jump\t// in\ntag_139:\n    /* \"#utility.yul\":7231:7363   */\n  swap2\n  pop\n    /* \"#utility.yul\":7034:7373   */\n  pop\n    /* \"#utility.yul\":6760:7380   */\n  swap3\n  swap2\n  pop\n  pop\n  jump\t// out\n    /* \"#utility.yul\":7386:7533   */\ntag_45:\n    /* \"#utility.yul\":7486:7492   */\n  0x00\n    /* \"#utility.yul\":7520:7525   */\n  dup2\n    /* \"#utility.yul\":7514:7526   */\n  mload\n    /* \"#utility.yul\":7504:7526   */\n  swap1\n  pop\n    /* \"#utility.yul\":7386:7533   */\n  swap2\n  swap1\n  pop\n  jump\t// out\n    /* \"#utility.yul\":7539:7764   */\ntag_46:\n    /* \"#utility.yul\":7679:7690   */\n  0x00\n    /* \"#utility.yul\":7713:7719   */\n  dup3\n    /* \"#utility.yul\":7708:7711   */\n  dup3\n    /* \"#utility.yul\":7701:7720   */\n  mstore\n    /* \"#utility.yul\":7753:7757   */\n  0x20\n    /* \"#utility.yul\":7748:7751   */\n  dup3\n    /* \"#utility.yul\":7744:7758   */\n  add\n    /* \"#utility.yul\":7729:7758   */\n  swap1\n  pop\n    /* \"#utility.yul\":7539:7764   */\n  swap3\n  swap2\n  pop\n  pop\n  jump\t// out\n    /* \"#utility.yul\":7770:7935   */\ntag_47:\n    /* \"#utility.yul\":7870:7874   */\n  0x00\n    /* \"#utility.yul\":7893:7896   */\n  dup2\n    /* \"#utility.yul\":7885:7896   */\n  swap1\n  pop\n    /* \"#utility.yul\":7923:7927   */\n  0x20\n    /* \"#utility.yul\":7918:7921   */\n  dup3\n    /* \"#utility.yul\":7914:7928   */\n  add\n    /* \"#utility.yul\":7906:7928   */\n  swap1\n  pop\n    /* \"#utility.yul\":7770:7935   */\n  swap2\n  swap1\n  pop\n  jump\t// out\n    /* \"#utility.yul\":7941:8057   */\ntag_48:\n    /* \"#utility.yul\":8026:8050   */\n  tag_144\n    /* \"#utility.yul\":8044:8049   */\n  dup2\n    /* \"#utility.yul\":8026:8050   */\n  tag_33\n  jump\t// in\ntag_144:\n    /* \"#utility.yul\":8021:8024   */\n  dup3\n    /* \"#utility.yul\":8014:8051   */\n  mstore\n    /* \"#utility.yul\":7941:8057   */\n  pop\n  pop\n  jump\t// out\n    /* \"#utility.yul\":8063:8176   */\ntag_49:\n    /* \"#utility.yul\":8129:8135   */\n  0x00\n    /* \"#utility.yul\":8163:8168   */\n  dup2\n    /* \"#utility.yul\":8157:8169   */\n  mload\n    /* \"#utility.yul\":8147:8169   */\n  swap1\n  pop\n    /* \"#utility.yul\":8063:8176   */\n  swap2\n  swap1\n  pop\n  jump\t// out\n    /* \"#utility.yul\":8182:8363   */\ntag_50:\n    /* \"#utility.yul\":8278:8289   */\n  0x00\n    /* \"#utility.yul\":8312:8318   */\n  dup3\n    /* \"#utility.yul\":8307:8310   */\n  dup3\n    /* \"#utility.yul\":8300:8319   */\n  mstore\n    /* \"#utility.yul\":8352:8356   */\n  0x20\n    /* \"#utility.yul\":8347:8350   */\n  dup3\n    /* \"#utility.yul\":8343:8357   */\n  add\n    /* \"#utility.yul\":8328:8357   */\n  swap1\n  pop\n    /* \"#utility.yul\":8182:8363   */\n  swap3\n  swap2\n  pop\n  pop\n  jump\t// out\n    /* \"#utility.yul\":8369:8500   */\ntag_51:\n    /* \"#utility.yul\":8435:8439   */\n  0x00\n    /* \"#utility.yul\":8458:8461   */\n  dup2\n    /* \"#utility.yul\":8450:8461   */\n  swap1\n  pop\n    /* \"#utility.yul\":8488:8492   */\n  0x20\n    /* \"#utility.yul\":8483:8486   */\n  dup3\n    /* \"#utility.yul\":8479:8493   */\n  add\n    /* \"#utility.yul\":8471:8493   */\n  swap1\n  pop\n    /* \"#utility.yul\":8369:8500   */\n  swap2\n  swap1\n  pop\n  jump\t// out\n    /* \"#utility.yul\":8506:8619   */\ntag_52:\n    /* \"#utility.yul\":8589:8612   */\n  tag_149\n    /* \"#utility.yul\":8606:8611   */\n  dup2\n    /* \"#utility.yul\":8589:8612   */\n  tag_37\n  jump\t// in\ntag_149:\n    /* \"#utility.yul\":8584:8587   */\n  dup3\n    /* \"#utility.yul\":8577:8613   */\n  mstore\n    /* \"#utility.yul\":8506:8619   */\n  pop\n  pop\n  jump\t// out\n    /* \"#utility.yul\":8625:8816   */\ntag_53:\n    /* \"#utility.yul\":8700:8710   */\n  0x00\n    /* \"#utility.yul\":8721:8773   */\n  tag_151\n    /* \"#utility.yul\":8769:8772   */\n  dup4\n    /* \"#utility.yul\":8761:8767   */\n  dup4\n    /* \"#utility.yul\":8721:8773   */\n  tag_52\n  jump\t// in\ntag_151:\n    /* \"#utility.yul\":8805:8809   */\n  0x20\n    /* \"#utility.yul\":8800:8803   */\n  dup4\n    /* \"#utility.yul\":8796:8810   */\n  add\n    /* \"#utility.yul\":8782:8810   */\n  swap1\n  pop\n    /* \"#utility.yul\":8625:8816   */\n  swap3\n  swap2\n  pop\n  pop\n  jump\t// out\n    /* \"#utility.yul\":8822:8934   */\ntag_54:\n    /* \"#utility.yul\":8891:8895   */\n  0x00\n    /* \"#utility.yul\":8923:8927   */\n  0x20\n    /* \"#utility.yul\":8918:8921   */\n  dup3\n    /* \"#utility.yul\":8914:8928   */\n  add\n    /* \"#utility.yul\":8906:8928   */\n  swap1\n  pop\n    /* \"#utility.yul\":8822:8934   */\n  swap2\n  swap1\n  pop\n  jump\t// out\n    /* \"#utility.yul\":8968:9696   */\ntag_55:\n    /* \"#utility.yul\":9083:9086   */\n  0x00\n    /* \"#utility.yul\":9112:9165   */\n  tag_154\n    /* \"#utility.yul\":9159:9164   */\n  dup3\n    /* \"#utility.yul\":9112:9165   */\n  tag_49\n  jump\t// in\ntag_154:\n    /* \"#utility.yul\":9181:9264   */\n  tag_155\n    /* \"#utility.yul\":9257:9263   */\n  dup2\n    /* \"#utility.yul\":9252:9255   */\n  dup6\n    /* \"#utility.yul\":9181:9264   */\n  tag_50\n  jump\t// in\ntag_155:\n    /* \"#utility.yul\":9174:9264   */\n  swap4\n  pop\n    /* \"#utility.yul\":9288:9343   */\n  tag_156\n    /* \"#utility.yul\":9337:9342   */\n  dup4\n    /* \"#utility.yul\":9288:9343   */\n  tag_51\n  jump\t// in\ntag_156:\n    /* \"#utility.yul\":9366:9373   */\n  dup1\n    /* \"#utility.yul\":9397:9398   */\n  0x00\n    /* \"#utility.yul\":9382:9671   */\ntag_157:\n    /* \"#utility.yul\":9407:9413   */\n  dup4\n    /* \"#utility.yul\":9404:9405   */\n  dup2\n    /* \"#utility.yul\":9401:9414   */\n  lt\n    /* \"#utility.yul\":9382:9671   */\n  iszero\n  tag_159\n  jumpi\n    /* \"#utility.yul\":9483:9489   */\n  dup2\n    /* \"#utility.yul\":9477:9490   */\n  mload\n    /* \"#utility.yul\":9510:9579   */\n  tag_160\n    /* \"#utility.yul\":9575:9578   */\n  dup9\n    /* \"#utility.yul\":9560:9573   */\n  dup3\n    /* \"#utility.yul\":9510:9579   */\n  tag_53\n  jump\t// in\ntag_160:\n    /* \"#utility.yul\":9503:9579   */\n  swap8\n  pop\n    /* \"#utility.yul\":9602:9661   */\n  tag_161\n    /* \"#utility.yul\":9654:9660   */\n  dup4\n    /* \"#utility.yul\":9602:9661   */\n  tag_54\n  jump\t// in\ntag_161:\n    /* \"#utility.yul\":9592:9661   */\n  swap3\n  pop\n    /* \"#utility.yul\":9442:9671   */\n  pop\n    /* \"#utility.yul\":9429:9430   */\n  0x01\n    /* \"#utility.yul\":9426:9427   */\n  dup2\n    /* \"#utility.yul\":9422:9431   */\n  add\n    /* \"#utility.yul\":9417:9431   */\n  swap1\n  pop\n    /* \"#utility.yul\":9382:9671   */\n  jump(tag_157)\ntag_159:\n    /* \"#utility.yul\":9386:9400   */\n  pop\n    /* \"#utility.yul\":9687:9690   */\n  dup6\n    /* \"#utility.yul\":9680:9690   */\n  swap4\n  pop\n    /* \"#utility.yul\":9088:9696   */\n  pop\n  pop\n  pop\n    /* \"#utility.yul\":8968:9696   */\n  swap3\n  swap2\n  pop\n  pop\n  jump\t// out\n    /* \"#utility.yul\":9802:10473   */\ntag_56:\n    /* \"#utility.yul\":9935:9938   */\n  0x00\n    /* \"#utility.yul\":9971:9975   */\n  0x40\n    /* \"#utility.yul\":9966:9969   */\n  dup4\n    /* \"#utility.yul\":9962:9976   */\n  add\n    /* \"#utility.yul\":10060:10064   */\n  0x00\n    /* \"#utility.yul\":10053:10058   */\n  dup4\n    /* \"#utility.yul\":10049:10065   */\n  add\n    /* \"#utility.yul\":10043:10066   */\n  mload\n    /* \"#utility.yul\":10079:10150   */\n  tag_163\n    /* \"#utility.yul\":10144:10148   */\n  0x00\n    /* \"#utility.yul\":10139:10142   */\n  dup7\n    /* \"#utility.yul\":10135:10149   */\n  add\n    /* \"#utility.yul\":10121:10133   */\n  dup3\n    /* \"#utility.yul\":10079:10150   */\n  tag_48\n  jump\t// in\ntag_163:\n    /* \"#utility.yul\":9986:10160   */\n  pop\n    /* \"#utility.yul\":10247:10251   */\n  0x20\n    /* \"#utility.yul\":10240:10245   */\n  dup4\n    /* \"#utility.yul\":10236:10252   */\n  add\n    /* \"#utility.yul\":10230:10253   */\n  mload\n    /* \"#utility.yul\":10300:10303   */\n  dup5\n    /* \"#utility.yul\":10294:10298   */\n  dup3\n    /* \"#utility.yul\":10290:10304   */\n  sub\n    /* \"#utility.yul\":10283:10287   */\n  0x20\n    /* \"#utility.yul\":10278:10281   */\n  dup7\n    /* \"#utility.yul\":10274:10288   */\n  add\n    /* \"#utility.yul\":10267:10305   */\n  mstore\n    /* \"#utility.yul\":10326:10435   */\n  tag_164\n    /* \"#utility.yul\":10430:10434   */\n  dup3\n    /* \"#utility.yul\":10416:10428   */\n  dup3\n    /* \"#utility.yul\":10326:10435   */\n  tag_55\n  jump\t// in\ntag_164:\n    /* \"#utility.yul\":10318:10435   */\n  swap2\n  pop\n    /* \"#utility.yul\":10170:10446   */\n  pop\n    /* \"#utility.yul\":10463:10467   */\n  dup1\n    /* \"#utility.yul\":10456:10467   */\n  swap2\n  pop\n    /* \"#utility.yul\":9940:10473   */\n  pop\n    /* \"#utility.yul\":9802:10473   */\n  swap3\n  swap2\n  pop\n  pop\n  jump\t// out\n    /* \"#utility.yul\":10479:10783   */\ntag_57:\n    /* \"#utility.yul\":10622:10632   */\n  0x00\n    /* \"#utility.yul\":10657:10777   */\n  tag_166\n    /* \"#utility.yul\":10773:10776   */\n  dup4\n    /* \"#utility.yul\":10765:10771   */\n  dup4\n    /* \"#utility.yul\":10657:10777   */\n  tag_56\n  jump\t// in\ntag_166:\n    /* \"#utility.yul\":10643:10777   */\n  swap1\n  pop\n    /* \"#utility.yul\":10479:10783   */\n  swap3\n  swap2\n  pop\n  pop\n  jump\t// out\n    /* \"#utility.yul\":10789:10935   */\ntag_58:\n    /* \"#utility.yul\":10892:10896   */\n  0x00\n    /* \"#utility.yul\":10924:10928   */\n  0x20\n    /* \"#utility.yul\":10919:10922   */\n  dup3\n    /* \"#utility.yul\":10915:10929   */\n  add\n    /* \"#utility.yul\":10907:10929   */\n  swap1\n  pop\n    /* \"#utility.yul\":10789:10935   */\n  swap2\n  swap1\n  pop\n  jump\t// out\n    /* \"#utility.yul\":11045:12244   */\ntag_59:\n    /* \"#utility.yul\":11238:11241   */\n  0x00\n    /* \"#utility.yul\":11267:11354   */\n  tag_169\n    /* \"#utility.yul\":11348:11353   */\n  dup3\n    /* \"#utility.yul\":11267:11354   */\n  tag_45\n  jump\t// in\ntag_169:\n    /* \"#utility.yul\":11370:11497   */\n  tag_170\n    /* \"#utility.yul\":11490:11496   */\n  dup2\n    /* \"#utility.yul\":11485:11488   */\n  dup6\n    /* \"#utility.yul\":11370:11497   */\n  tag_46\n  jump\t// in\ntag_170:\n    /* \"#utility.yul\":11363:11497   */\n  swap4\n  pop\n    /* \"#utility.yul\":11523:11526   */\n  dup4\n    /* \"#utility.yul\":11568:11572   */\n  0x20\n    /* \"#utility.yul\":11560:11566   */\n  dup3\n    /* \"#utility.yul\":11556:11573   */\n  mul\n    /* \"#utility.yul\":11551:11554   */\n  dup6\n    /* \"#utility.yul\":11547:11574   */\n  add\n    /* \"#utility.yul\":11598:11687   */\n  tag_171\n    /* \"#utility.yul\":11681:11686   */\n  dup6\n    /* \"#utility.yul\":11598:11687   */\n  tag_47\n  jump\t// in\ntag_171:\n    /* \"#utility.yul\":11710:11717   */\n  dup1\n    /* \"#utility.yul\":11741:11742   */\n  0x00\n    /* \"#utility.yul\":11726:12199   */\ntag_172:\n    /* \"#utility.yul\":11751:11757   */\n  dup6\n    /* \"#utility.yul\":11748:11749   */\n  dup2\n    /* \"#utility.yul\":11745:11758   */\n  lt\n    /* \"#utility.yul\":11726:12199   */\n  iszero\n  tag_174\n  jumpi\n    /* \"#utility.yul\":11822:11831   */\n  dup5\n    /* \"#utility.yul\":11816:11820   */\n  dup5\n    /* \"#utility.yul\":11812:11832   */\n  sub\n    /* \"#utility.yul\":11807:11810   */\n  dup10\n    /* \"#utility.yul\":11800:11833   */\n  mstore\n    /* \"#utility.yul\":11873:11879   */\n  dup2\n    /* \"#utility.yul\":11867:11880   */\n  mload\n    /* \"#utility.yul\":11901:12039   */\n  tag_175\n    /* \"#utility.yul\":12034:12038   */\n  dup6\n    /* \"#utility.yul\":12019:12032   */\n  dup3\n    /* \"#utility.yul\":11901:12039   */\n  tag_57\n  jump\t// in\ntag_175:\n    /* \"#utility.yul\":11893:12039   */\n  swap5\n  pop\n    /* \"#utility.yul\":12062:12155   */\n  tag_176\n    /* \"#utility.yul\":12148:12154   */\n  dup4\n    /* \"#utility.yul\":12062:12155   */\n  tag_58\n  jump\t// in\ntag_176:\n    /* \"#utility.yul\":12052:12155   */\n  swap3\n  pop\n    /* \"#utility.yul\":12184:12188   */\n  0x20\n    /* \"#utility.yul\":12179:12182   */\n  dup11\n    /* \"#utility.yul\":12175:12189   */\n  add\n    /* \"#utility.yul\":12168:12189   */\n  swap10\n  pop\n    /* \"#utility.yul\":11786:12199   */\n  pop\n    /* \"#utility.yul\":11773:11774   */\n  0x01\n    /* \"#utility.yul\":11770:11771   */\n  dup2\n    /* \"#utility.yul\":11766:11775   */\n  add\n    /* \"#utility.yul\":11761:11775   */\n  swap1\n  pop\n    /* \"#utility.yul\":11726:12199   */\n  jump(tag_172)\ntag_174:\n    /* \"#utility.yul\":11730:11744   */\n  pop\n    /* \"#utility.yul\":12215:12219   */\n  dup3\n    /* \"#utility.yul\":12208:12219   */\n  swap8\n  pop\n    /* \"#utility.yul\":12235:12238   */\n  dup8\n    /* \"#utility.yul\":12228:12238   */\n  swap6\n  pop\n    /* \"#utility.yul\":11243:12244   */\n  pop\n  pop\n  pop\n  pop\n  pop\n    /* \"#utility.yul\":11045:12244   */\n  swap3\n  swap2\n  pop\n  pop\n  jump\t// out\n    /* \"#utility.yul\":12250:12771   */\ntag_9:\n    /* \"#utility.yul\":12467:12471   */\n  0x00\n    /* \"#utility.yul\":12505:12507   */\n  0x20\n    /* \"#utility.yul\":12494:12503   */\n  dup3\n    /* \"#utility.yul\":12490:12508   */\n  add\n    /* \"#utility.yul\":12482:12508   */\n  swap1\n  pop\n    /* \"#utility.yul\":12554:12563   */\n  dup2\n    /* \"#utility.yul\":12548:12552   */\n  dup2\n    /* \"#utility.yul\":12544:12564   */\n  sub\n    /* \"#utility.yul\":12540:12541   */\n  0x00\n    /* \"#utility.yul\":12529:12538   */\n  dup4\n    /* \"#utility.yul\":12525:12542   */\n  add\n    /* \"#utility.yul\":12518:12565   */\n  mstore\n    /* \"#utility.yul\":12582:12764   */\n  tag_178\n    /* \"#utility.yul\":12759:12763   */\n  dup2\n    /* \"#utility.yul\":12750:12756   */\n  dup5\n    /* \"#utility.yul\":12582:12764   */\n  tag_59\n  jump\t// in\ntag_178:\n    /* \"#utility.yul\":12574:12764   */\n  swap1\n  pop\n    /* \"#utility.yul\":12250:12771   */\n  swap3\n  swap2\n  pop\n  pop\n  jump\t// out\n    /* \"#utility.yul\":12777:12903   */\ntag_60:\n    /* \"#utility.yul\":12872:12896   */\n  tag_180\n    /* \"#utility.yul\":12890:12895   */\n  dup2\n    /* \"#utility.yul\":12872:12896   */\n  tag_33\n  jump\t// in\ntag_180:\n    /* \"#utility.yul\":12867:12870   */\n  dup3\n    /* \"#utility.yul\":12860:12897   */\n  mstore\n    /* \"#utility.yul\":12777:12903   */\n  pop\n  pop\n  jump\t// out\n    /* \"#utility.yul\":12909:13147   */\ntag_14:\n    /* \"#utility.yul\":13010:13014   */\n  0x00\n    /* \"#utility.yul\":13048:13050   */\n  0x20\n    /* \"#utility.yul\":13037:13046   */\n  dup3\n    /* \"#utility.yul\":13033:13051   */\n  add\n    /* \"#utility.yul\":13025:13051   */\n  swap1\n  pop\n    /* \"#utility.yul\":13061:13140   */\n  tag_182\n    /* \"#utility.yul\":13137:13138   */\n  0x00\n    /* \"#utility.yul\":13126:13135   */\n  dup4\n    /* \"#utility.yul\":13122:13139   */\n  add\n    /* \"#utility.yul\":13113:13119   */\n  dup5\n    /* \"#utility.yul\":13061:13140   */\n  tag_60\n  jump\t// in\ntag_182:\n    /* \"#utility.yul\":12909:13147   */\n  swap3\n  swap2\n  pop\n  pop\n  jump\t// out\n    /* \"/contracts/modules/dynamicRouter/DynamicRouter.sol\":490:1717  contract DynamicRouter is IDynamicRouter, IModule{... */\ntag_18:\n  mload(0x80)\n  codecopy(0x00, dataOffset(sub_0), dataSize(sub_0))\n  0x00\n  assignImmutable(\"0x7fe86492ed9171487feeb17b76d71244c5fb104d897816bb03a924e5871f3fa3\")\n  return(0x00, dataSize(sub_0))\nstop\n\nsub_0: assembly {\n        /* \"/contracts/modules/dynamicRouter/DynamicRouter.sol\":490:1717  contract DynamicRouter is IDynamicRouter, IModule{... */\n      mstore(0x40, 0x80)\n      jumpi(tag_1, lt(calldatasize, 0x04))\n      shr(0xe0, calldataload(0x00))\n      dup1\n      0x81ed9808\n      eq\n      tag_3\n      jumpi\n      dup1\n      0x9b865b43\n      eq\n      tag_4\n      jumpi\n      jump(tag_2)\n    tag_1:\n      jumpi(tag_2, calldatasize)\n      stop\n    tag_2:\n        /* \"/contracts/modules/dynamicRouter/DynamicRouter.sol\":1077:1087  _forward() */\n      tag_9\n        /* \"/contracts/modules/dynamicRouter/DynamicRouter.sol\":1077:1085  _forward */\n      tag_10\n        /* \"/contracts/modules/dynamicRouter/DynamicRouter.sol\":1077:1087  _forward() */\n      jump\t// in\n    tag_9:\n        /* \"/contracts/modules/dynamicRouter/DynamicRouter.sol\":490:1717  contract DynamicRouter is IDynamicRouter, IModule{... */\n      stop\n        /* \"/contracts/modules/dynamicRouter/DynamicRouter.sol\":683:748  uint256 public immutable MODULE_VERSION = _encodeVersion(1, 0, 0) */\n    tag_3:\n      callvalue\n      dup1\n      iszero\n      tag_11\n      jumpi\n      revert(0x00, 0x00)\n    tag_11:\n      pop\n      tag_12\n      tag_13\n      jump\t// in\n    tag_12:\n      mload(0x40)\n      tag_14\n      swap2\n      swap1\n      tag_15\n      jump\t// in\n    tag_14:\n      mload(0x40)\n      dup1\n      swap2\n      sub\n      swap1\n      return\n        /* \"/contracts/modules/dynamicRouter/DynamicRouter.sol\":588:640  string public constant MODULE_NAME = \"DynamicRouter\" */\n    tag_4:\n      callvalue\n      dup1\n      iszero\n      tag_16\n      jumpi\n      revert(0x00, 0x00)\n    tag_16:\n      pop\n      tag_17\n      tag_18\n      jump\t// in\n    tag_17:\n      mload(0x40)\n      tag_19\n      swap2\n      swap1\n      tag_20\n      jump\t// in\n    tag_19:\n      mload(0x40)\n      dup1\n      swap2\n      sub\n      swap1\n      return\n        /* \"/contracts/modules/dynamicRouter/DynamicRouter.sol\":1207:1714  function _forward() private{... */\n    tag_10:\n        /* \"/contracts/modules/dynamicRouter/DynamicRouter.sol\":1241:1257  bytes4 _selector */\n      0x00\n        /* \"/contracts/modules/dynamicRouter/DynamicRouter.sol\":1260:1267  msg.sig */\n      and(0xffffffff00000000000000000000000000000000000000000000000000000000, calldataload(0x00))\n        /* \"/contracts/modules/dynamicRouter/DynamicRouter.sol\":1241:1267  bytes4 _selector = msg.sig */\n      swap1\n      pop\n        /* \"/contracts/modules/dynamicRouter/DynamicRouter.sol\":1274:1287  address _impl */\n      0x00\n        /* \"/contracts/modules/dynamicRouter/DynamicRouter.sol\":1290:1310  DynamicRouterStorage */\n      linkerSymbol(\"f07e73ab50fdc244a807a505d0c4602bfdea304d7b80dae92ab9a9efeb94329a\")\n        /* \"/contracts/modules/dynamicRouter/DynamicRouter.sol\":1290:1317  DynamicRouterStorage.getImp */\n      0x20e63d2a\n        /* \"/contracts/modules/dynamicRouter/DynamicRouter.sol\":1318:1327  _selector */\n      dup4\n        /* \"/contracts/modules/dynamicRouter/DynamicRouter.sol\":1290:1328  DynamicRouterStorage.getImp(_selector) */\n      mload(0x40)\n      dup3\n      0xffffffff\n      and\n      0xe0\n      shl\n      dup2\n      mstore\n      0x04\n      add\n      tag_22\n      swap2\n      swap1\n      tag_23\n      jump\t// in\n    tag_22:\n      0x20\n      mload(0x40)\n      dup1\n      dup4\n      sub\n      dup2\n      dup7\n      gas\n      delegatecall\n      iszero\n      dup1\n      iszero\n      tag_25\n      jumpi\n      returndatacopy(0x00, 0x00, returndatasize)\n      revert(0x00, returndatasize)\n    tag_25:\n      pop\n      pop\n      pop\n      pop\n      mload(0x40)\n      returndatasize\n      not(0x1f)\n      0x1f\n      dup3\n      add\n      and\n      dup3\n      add\n      dup1\n      0x40\n      mstore\n      pop\n      dup2\n      add\n      swap1\n      tag_26\n      swap2\n      swap1\n      tag_27\n      jump\t// in\n    tag_26:\n        /* \"/contracts/modules/dynamicRouter/DynamicRouter.sol\":1274:1328  address _impl = DynamicRouterStorage.getImp(_selector) */\n      swap1\n      pop\n        /* \"/contracts/modules/dynamicRouter/DynamicRouter.sol\":1362:1363  0 */\n      0x00\n        /* \"/contracts/modules/dynamicRouter/DynamicRouter.sol\":1345:1364  _impl == address(0) */\n      0xffffffffffffffffffffffffffffffffffffffff\n      and\n        /* \"/contracts/modules/dynamicRouter/DynamicRouter.sol\":1345:1350  _impl */\n      dup2\n        /* \"/contracts/modules/dynamicRouter/DynamicRouter.sol\":1345:1364  _impl == address(0) */\n      0xffffffffffffffffffffffffffffffffffffffff\n      and\n      sub\n        /* \"/contracts/modules/dynamicRouter/DynamicRouter.sol\":1342:1401  if(_impl == address(0)){revert UnknownSelector(_selector);} */\n      tag_28\n      jumpi\n        /* \"/contracts/modules/dynamicRouter/DynamicRouter.sol\":1389:1398  _selector */\n      dup2\n        /* \"/contracts/modules/dynamicRouter/DynamicRouter.sol\":1373:1399  UnknownSelector(_selector) */\n      mload(0x40)\n      0xc2a825f500000000000000000000000000000000000000000000000000000000\n      dup2\n      mstore\n      0x04\n      add\n      tag_29\n      swap2\n      swap1\n      tag_30\n      jump\t// in\n    tag_29:\n      mload(0x40)\n      dup1\n      swap2\n      sub\n      swap1\n      revert\n        /* \"/contracts/modules/dynamicRouter/DynamicRouter.sol\":1342:1401  if(_impl == address(0)){revert UnknownSelector(_selector);} */\n    tag_28:\n        /* \"/contracts/modules/dynamicRouter/DynamicRouter.sol\":1446:1460  calldatasize() */\n      calldatasize\n        /* \"/contracts/modules/dynamicRouter/DynamicRouter.sol\":1443:1444  0 */\n      0x00\n        /* \"/contracts/modules/dynamicRouter/DynamicRouter.sol\":1440:1441  0 */\n      0x00\n        /* \"/contracts/modules/dynamicRouter/DynamicRouter.sol\":1427:1461  calldatacopy(0, 0, calldatasize()) */\n      calldatacopy\n        /* \"/contracts/modules/dynamicRouter/DynamicRouter.sol\":1534:1535  0 */\n      0x00\n        /* \"/contracts/modules/dynamicRouter/DynamicRouter.sol\":1531:1532  0 */\n      0x00\n        /* \"/contracts/modules/dynamicRouter/DynamicRouter.sol\":1515:1529  calldatasize() */\n      calldatasize\n        /* \"/contracts/modules/dynamicRouter/DynamicRouter.sol\":1512:1513  0 */\n      0x00\n        /* \"/contracts/modules/dynamicRouter/DynamicRouter.sol\":1505:1510  _impl */\n      dup5\n        /* \"/contracts/modules/dynamicRouter/DynamicRouter.sol\":1498:1503  gas() */\n      gas\n        /* \"/contracts/modules/dynamicRouter/DynamicRouter.sol\":1485:1536  delegatecall(gas(), _impl, 0, calldatasize(), 0, 0) */\n      delegatecall\n        /* \"/contracts/modules/dynamicRouter/DynamicRouter.sol\":1567:1583  returndatasize() */\n      returndatasize\n        /* \"/contracts/modules/dynamicRouter/DynamicRouter.sol\":1564:1565  0 */\n      0x00\n        /* \"/contracts/modules/dynamicRouter/DynamicRouter.sol\":1561:1562  0 */\n      0x00\n        /* \"/contracts/modules/dynamicRouter/DynamicRouter.sol\":1546:1584  returndatacopy(0, 0, returndatasize()) */\n      returndatacopy\n        /* \"/contracts/modules/dynamicRouter/DynamicRouter.sol\":1601:1607  result */\n      dup1\n        /* \"/contracts/modules/dynamicRouter/DynamicRouter.sol\":1622:1623  0 */\n      0x00\n        /* \"/contracts/modules/dynamicRouter/DynamicRouter.sol\":1617:1654  case 0 {revert (0, returndatasize())} */\n      dup2\n      eq\n      tag_32\n      jumpi\n        /* \"/contracts/modules/dynamicRouter/DynamicRouter.sol\":1684:1700  returndatasize() */\n      returndatasize\n        /* \"/contracts/modules/dynamicRouter/DynamicRouter.sol\":1681:1682  0 */\n      0x00\n        /* \"/contracts/modules/dynamicRouter/DynamicRouter.sol\":1673:1701  return (0, returndatasize()) */\n      return\n        /* \"/contracts/modules/dynamicRouter/DynamicRouter.sol\":1617:1654  case 0 {revert (0, returndatasize())} */\n    tag_32:\n        /* \"/contracts/modules/dynamicRouter/DynamicRouter.sol\":1636:1652  returndatasize() */\n      returndatasize\n        /* \"/contracts/modules/dynamicRouter/DynamicRouter.sol\":1633:1634  0 */\n      0x00\n        /* \"/contracts/modules/dynamicRouter/DynamicRouter.sol\":1625:1653  revert (0, returndatasize()) */\n      revert\n        /* \"/contracts/modules/dynamicRouter/DynamicRouter.sol\":683:748  uint256 public immutable MODULE_VERSION = _encodeVersion(1, 0, 0) */\n    tag_13:\n      immutable(\"0x7fe86492ed9171487feeb17b76d71244c5fb104d897816bb03a924e5871f3fa3\")\n      dup2\n      jump\t// out\n        /* \"/contracts/modules/dynamicRouter/DynamicRouter.sol\":588:640  string public constant MODULE_NAME = \"DynamicRouter\" */\n    tag_18:\n      mload(0x40)\n      dup1\n      0x40\n      add\n      0x40\n      mstore\n      dup1\n      0x0d\n      dup2\n      mstore\n      0x20\n      add\n      0x44796e616d6963526f7574657200000000000000000000000000000000000000\n      dup2\n      mstore\n      pop\n      dup2\n      jump\t// out\n        /* \"#utility.yul\":7:84   */\n    tag_33:\n        /* \"#utility.yul\":44:51   */\n      0x00\n        /* \"#utility.yul\":73:78   */\n      dup2\n        /* \"#utility.yul\":62:78   */\n      swap1\n      pop\n        /* \"#utility.yul\":7:84   */\n      swap2\n      swap1\n      pop\n      jump\t// out\n        /* \"#utility.yul\":90:208   */\n    tag_34:\n        /* \"#utility.yul\":177:201   */\n      tag_53\n        /* \"#utility.yul\":195:200   */\n      dup2\n        /* \"#utility.yul\":177:201   */\n      tag_33\n      jump\t// in\n    tag_53:\n        /* \"#utility.yul\":172:175   */\n      dup3\n        /* \"#utility.yul\":165:202   */\n      mstore\n        /* \"#utility.yul\":90:208   */\n      pop\n      pop\n      jump\t// out\n        /* \"#utility.yul\":214:436   */\n    tag_15:\n        /* \"#utility.yul\":307:311   */\n      0x00\n        /* \"#utility.yul\":345:347   */\n      0x20\n        /* \"#utility.yul\":334:343   */\n      dup3\n        /* \"#utility.yul\":330:348   */\n      add\n        /* \"#utility.yul\":322:348   */\n      swap1\n      pop\n        /* \"#utility.yul\":358:429   */\n      tag_55\n        /* \"#utility.yul\":426:427   */\n      0x00\n        /* \"#utility.yul\":415:424   */\n      dup4\n        /* \"#utility.yul\":411:428   */\n      add\n        /* \"#utility.yul\":402:408   */\n      dup5\n        /* \"#utility.yul\":358:429   */\n      tag_34\n      jump\t// in\n    tag_55:\n        /* \"#utility.yul\":214:436   */\n      swap3\n      swap2\n      pop\n      pop\n      jump\t// out\n        /* \"#utility.yul\":442:541   */\n    tag_35:\n        /* \"#utility.yul\":494:500   */\n      0x00\n        /* \"#utility.yul\":528:533   */\n      dup2\n        /* \"#utility.yul\":522:534   */\n      mload\n        /* \"#utility.yul\":512:534   */\n      swap1\n      pop\n        /* \"#utility.yul\":442:541   */\n      swap2\n      swap1\n      pop\n      jump\t// out\n        /* \"#utility.yul\":547:716   */\n    tag_36:\n        /* \"#utility.yul\":631:642   */\n      0x00\n        /* \"#utility.yul\":665:671   */\n      dup3\n        /* \"#utility.yul\":660:663   */\n      dup3\n        /* \"#utility.yul\":653:672   */\n      mstore\n        /* \"#utility.yul\":705:709   */\n      0x20\n        /* \"#utility.yul\":700:703   */\n      dup3\n        /* \"#utility.yul\":696:710   */\n      add\n        /* \"#utility.yul\":681:710   */\n      swap1\n      pop\n        /* \"#utility.yul\":547:716   */\n      swap3\n      swap2\n      pop\n      pop\n      jump\t// out\n        /* \"#utility.yul\":722:861   */\n    tag_37:\n        /* \"#utility.yul\":811:817   */\n      dup3\n        /* \"#utility.yul\":806:809   */\n      dup2\n        /* \"#utility.yul\":801:804   */\n      dup4\n        /* \"#utility.yul\":795:818   */\n      mcopy\n        /* \"#utility.yul\":852:853   */\n      0x00\n        /* \"#utility.yul\":843:849   */\n      dup4\n        /* \"#utility.yul\":838:841   */\n      dup4\n        /* \"#utility.yul\":834:850   */\n      add\n        /* \"#utility.yul\":827:854   */\n      mstore\n        /* \"#utility.yul\":722:861   */\n      pop\n      pop\n      pop\n      jump\t// out\n        /* \"#utility.yul\":867:969   */\n    tag_38:\n        /* \"#utility.yul\":908:914   */\n      0x00\n        /* \"#utility.yul\":959:961   */\n      0x1f\n        /* \"#utility.yul\":955:962   */\n      not\n        /* \"#utility.yul\":950:952   */\n      0x1f\n        /* \"#utility.yul\":943:948   */\n      dup4\n        /* \"#utility.yul\":939:953   */\n      add\n        /* \"#utility.yul\":935:963   */\n      and\n        /* \"#utility.yul\":925:963   */\n      swap1\n      pop\n        /* \"#utility.yul\":867:969   */\n      swap2\n      swap1\n      pop\n      jump\t// out\n        /* \"#utility.yul\":975:1352   */\n    tag_39:\n        /* \"#utility.yul\":1063:1066   */\n      0x00\n        /* \"#utility.yul\":1091:1130   */\n      tag_61\n        /* \"#utility.yul\":1124:1129   */\n      dup3\n        /* \"#utility.yul\":1091:1130   */\n      tag_35\n      jump\t// in\n    tag_61:\n        /* \"#utility.yul\":1146:1217   */\n      tag_62\n        /* \"#utility.yul\":1210:1216   */\n      dup2\n        /* \"#utility.yul\":1205:1208   */\n      dup6\n        /* \"#utility.yul\":1146:1217   */\n      tag_36\n      jump\t// in\n    tag_62:\n        /* \"#utility.yul\":1139:1217   */\n      swap4\n      pop\n        /* \"#utility.yul\":1226:1291   */\n      tag_63\n        /* \"#utility.yul\":1284:1290   */\n      dup2\n        /* \"#utility.yul\":1279:1282   */\n      dup6\n        /* \"#utility.yul\":1272:1276   */\n      0x20\n        /* \"#utility.yul\":1265:1270   */\n      dup7\n        /* \"#utility.yul\":1261:1277   */\n      add\n        /* \"#utility.yul\":1226:1291   */\n      tag_37\n      jump\t// in\n    tag_63:\n        /* \"#utility.yul\":1316:1345   */\n      tag_64\n        /* \"#utility.yul\":1338:1344   */\n      dup2\n        /* \"#utility.yul\":1316:1345   */\n      tag_38\n      jump\t// in\n    tag_64:\n        /* \"#utility.yul\":1311:1314   */\n      dup5\n        /* \"#utility.yul\":1307:1346   */\n      add\n        /* \"#utility.yul\":1300:1346   */\n      swap2\n      pop\n        /* \"#utility.yul\":1067:1352   */\n      pop\n        /* \"#utility.yul\":975:1352   */\n      swap3\n      swap2\n      pop\n      pop\n      jump\t// out\n        /* \"#utility.yul\":1358:1671   */\n    tag_20:\n        /* \"#utility.yul\":1471:1475   */\n      0x00\n        /* \"#utility.yul\":1509:1511   */\n      0x20\n        /* \"#utility.yul\":1498:1507   */\n      dup3\n        /* \"#utility.yul\":1494:1512   */\n      add\n        /* \"#utility.yul\":1486:1512   */\n      swap1\n      pop\n        /* \"#utility.yul\":1558:1567   */\n      dup2\n        /* \"#utility.yul\":1552:1556   */\n      dup2\n        /* \"#utility.yul\":1548:1568   */\n      sub\n        /* \"#utility.yul\":1544:1545   */\n      0x00\n        /* \"#utility.yul\":1533:1542   */\n      dup4\n        /* \"#utility.yul\":1529:1546   */\n      add\n        /* \"#utility.yul\":1522:1569   */\n      mstore\n        /* \"#utility.yul\":1586:1664   */\n      tag_66\n        /* \"#utility.yul\":1659:1663   */\n      dup2\n        /* \"#utility.yul\":1650:1656   */\n      dup5\n        /* \"#utility.yul\":1586:1664   */\n      tag_39\n      jump\t// in\n    tag_66:\n        /* \"#utility.yul\":1578:1664   */\n      swap1\n      pop\n        /* \"#utility.yul\":1358:1671   */\n      swap3\n      swap2\n      pop\n      pop\n      jump\t// out\n        /* \"#utility.yul\":1677:1826   */\n    tag_40:\n        /* \"#utility.yul\":1713:1720   */\n      0x00\n        /* \"#utility.yul\":1753:1819   */\n      0xffffffff00000000000000000000000000000000000000000000000000000000\n        /* \"#utility.yul\":1746:1751   */\n      dup3\n        /* \"#utility.yul\":1742:1820   */\n      and\n        /* \"#utility.yul\":1731:1820   */\n      swap1\n      pop\n        /* \"#utility.yul\":1677:1826   */\n      swap2\n      swap1\n      pop\n      jump\t// out\n        /* \"#utility.yul\":1832:1955   */\n    tag_41:\n        /* \"#utility.yul\":1925:1948   */\n      tag_69\n        /* \"#utility.yul\":1942:1947   */\n      dup2\n        /* \"#utility.yul\":1925:1948   */\n      tag_40\n      jump\t// in\n    tag_69:\n        /* \"#utility.yul\":1920:1923   */\n      dup3\n        /* \"#utility.yul\":1913:1949   */\n      mstore\n        /* \"#utility.yul\":1832:1955   */\n      pop\n      pop\n      jump\t// out\n        /* \"#utility.yul\":1961:2195   */\n    tag_23:\n        /* \"#utility.yul\":2060:2064   */\n      0x00\n        /* \"#utility.yul\":2098:2100   */\n      0x20\n        /* \"#utility.yul\":2087:2096   */\n      dup3\n        /* \"#utility.yul\":2083:2101   */\n      add\n        /* \"#utility.yul\":2075:2101   */\n      swap1\n      pop\n        /* \"#utility.yul\":2111:2188   */\n      tag_71\n        /* \"#utility.yul\":2185:2186   */\n      0x00\n        /* \"#utility.yul\":2174:2183   */\n      dup4\n        /* \"#utility.yul\":2170:2187   */\n      add\n        /* \"#utility.yul\":2161:2167   */\n      dup5\n        /* \"#utility.yul\":2111:2188   */\n      tag_41\n      jump\t// in\n    tag_71:\n        /* \"#utility.yul\":1961:2195   */\n      swap3\n      swap2\n      pop\n      pop\n      jump\t// out\n        /* \"#utility.yul\":2282:2399   */\n    tag_43:\n        /* \"#utility.yul\":2391:2392   */\n      0x00\n        /* \"#utility.yul\":2388:2389   */\n      0x00\n        /* \"#utility.yul\":2381:2393   */\n      revert\n        /* \"#utility.yul\":2528:2654   */\n    tag_45:\n        /* \"#utility.yul\":2565:2572   */\n      0x00\n        /* \"#utility.yul\":2605:2647   */\n      0xffffffffffffffffffffffffffffffffffffffff\n        /* \"#utility.yul\":2598:2603   */\n      dup3\n        /* \"#utility.yul\":2594:2648   */\n      and\n        /* \"#utility.yul\":2583:2648   */\n      swap1\n      pop\n        /* \"#utility.yul\":2528:2654   */\n      swap2\n      swap1\n      pop\n      jump\t// out\n        /* \"#utility.yul\":2660:2756   */\n    tag_46:\n        /* \"#utility.yul\":2697:2704   */\n      0x00\n        /* \"#utility.yul\":2726:2750   */\n      tag_77\n        /* \"#utility.yul\":2744:2749   */\n      dup3\n        /* \"#utility.yul\":2726:2750   */\n      tag_45\n      jump\t// in\n    tag_77:\n        /* \"#utility.yul\":2715:2750   */\n      swap1\n      pop\n        /* \"#utility.yul\":2660:2756   */\n      swap2\n      swap1\n      pop\n      jump\t// out\n        /* \"#utility.yul\":2762:2884   */\n    tag_47:\n        /* \"#utility.yul\":2835:2859   */\n      tag_79\n        /* \"#utility.yul\":2853:2858   */\n      dup2\n        /* \"#utility.yul\":2835:2859   */\n      tag_46\n      jump\t// in\n    tag_79:\n        /* \"#utility.yul\":2828:2833   */\n      dup2\n        /* \"#utility.yul\":2825:2860   */\n      eq\n        /* \"#utility.yul\":2815:2878   */\n      tag_80\n      jumpi\n        /* \"#utility.yul\":2874:2875   */\n      0x00\n        /* \"#utility.yul\":2871:2872   */\n      0x00\n        /* \"#utility.yul\":2864:2876   */\n      revert\n        /* \"#utility.yul\":2815:2878   */\n    tag_80:\n        /* \"#utility.yul\":2762:2884   */\n      pop\n      jump\t// out\n        /* \"#utility.yul\":2890:3033   */\n    tag_48:\n        /* \"#utility.yul\":2947:2952   */\n      0x00\n        /* \"#utility.yul\":2978:2984   */\n      dup2\n        /* \"#utility.yul\":2972:2985   */\n      mload\n        /* \"#utility.yul\":2963:2985   */\n      swap1\n      pop\n        /* \"#utility.yul\":2994:3027   */\n      tag_82\n        /* \"#utility.yul\":3021:3026   */\n      dup2\n        /* \"#utility.yul\":2994:3027   */\n      tag_47\n      jump\t// in\n    tag_82:\n        /* \"#utility.yul\":2890:3033   */\n      swap3\n      swap2\n      pop\n      pop\n      jump\t// out\n        /* \"#utility.yul\":3039:3390   */\n    tag_27:\n        /* \"#utility.yul\":3109:3115   */\n      0x00\n        /* \"#utility.yul\":3158:3160   */\n      0x20\n        /* \"#utility.yul\":3146:3155   */\n      dup3\n        /* \"#utility.yul\":3137:3144   */\n      dup5\n        /* \"#utility.yul\":3133:3156   */\n      sub\n        /* \"#utility.yul\":3129:3161   */\n      slt\n        /* \"#utility.yul\":3126:3245   */\n      iszero\n      tag_84\n      jumpi\n        /* \"#utility.yul\":3164:3243   */\n      tag_85\n      tag_43\n      jump\t// in\n    tag_85:\n        /* \"#utility.yul\":3126:3245   */\n    tag_84:\n        /* \"#utility.yul\":3284:3285   */\n      0x00\n        /* \"#utility.yul\":3309:3373   */\n      tag_86\n        /* \"#utility.yul\":3365:3372   */\n      dup5\n        /* \"#utility.yul\":3356:3362   */\n      dup3\n        /* \"#utility.yul\":3345:3354   */\n      dup6\n        /* \"#utility.yul\":3341:3363   */\n      add\n        /* \"#utility.yul\":3309:3373   */\n      tag_48\n      jump\t// in\n    tag_86:\n        /* \"#utility.yul\":3299:3373   */\n      swap2\n      pop\n        /* \"#utility.yul\":3255:3383   */\n      pop\n        /* \"#utility.yul\":3039:3390   */\n      swap3\n      swap2\n      pop\n      pop\n      jump\t// out\n        /* \"#utility.yul\":3396:3511   */\n    tag_49:\n        /* \"#utility.yul\":3481:3504   */\n      tag_88\n        /* \"#utility.yul\":3498:3503   */\n      dup2\n        /* \"#utility.yul\":3481:3504   */\n      tag_40\n      jump\t// in\n    tag_88:\n        /* \"#utility.yul\":3476:3479   */\n      dup3\n        /* \"#utility.yul\":3469:3505   */\n      mstore\n        /* \"#utility.yul\":3396:3511   */\n      pop\n      pop\n      jump\t// out\n        /* \"#utility.yul\":3517:3735   */\n    tag_30:\n        /* \"#utility.yul\":3608:3612   */\n      0x00\n        /* \"#utility.yul\":3646:3648   */\n      0x20\n        /* \"#utility.yul\":3635:3644   */\n      dup3\n        /* \"#utility.yul\":3631:3649   */\n      add\n        /* \"#utility.yul\":3623:3649   */\n      swap1\n      pop\n        /* \"#utility.yul\":3659:3728   */\n      tag_90\n        /* \"#utility.yul\":3725:3726   */\n      0x00\n        /* \"#utility.yul\":3714:3723   */\n      dup4\n        /* \"#utility.yul\":3710:3727   */\n      add\n        /* \"#utility.yul\":3701:3707   */\n      dup5\n        /* \"#utility.yul\":3659:3728   */\n      tag_49\n      jump\t// in\n    tag_90:\n        /* \"#utility.yul\":3517:3735   */\n      swap3\n      swap2\n      pop\n      pop\n      jump\t// out\n\n    auxdata: 0xa26469706673582212209b115767f9e808bda31583377e161d44524e83b5d412f7ec7bf268123eff067664736f6c634300081e0033\n}\n",
				"bytecode": {
					"linkReferences": {
						"/contracts/storage/LibDynamicRouterStorage.sol": {
							"DynamicRouterStorage": [
								{
									"length": 20,
									"start": 75
								},
								{
									"length": 20,
									"start": 1978
								}
							]
						},
						"/contracts/storage/LibOwnableStorage.sol": {
							"OwnableStorage": [
								{
									"length": 20,
									"start": 174
								}
							]
						}
					},
					"object": "60a060405261001660015f5f61011560201b60201c565b608090815250348015610027575f5ffd5b50604051610b17380380610b178339818101604052810190610049919061049d565b73__$f07e73ab50fdc244a807a505d0c4602bfd$__63a8f64352826040518263ffffffff1660e01b8152600401610080919061069f565b5f6040518083038186803b158015610096575f5ffd5b505af41580156100a8573d5f5f3e3d5ffd5b5050505073__$eb9c0828cb3946c6500b9206079c1e5216$__63592bd705336040518263ffffffff1660e01b81526004016100e391906106ce565b5f6040518083038186803b1580156100f9575f5ffd5b505af415801561010b573d5f5f3e3d5ffd5b50505050506106e7565b5f8163ffffffff1660208463ffffffff16901b60408663ffffffff16901b171790509392505050565b5f604051905090565b5f5ffd5b5f5ffd5b5f5ffd5b5f601f19601f8301169050919050565b7f4e487b71000000000000000000000000000000000000000000000000000000005f52604160045260245ffd5b61019982610153565b810181811067ffffffffffffffff821117156101b8576101b7610163565b5b80604052505050565b5f6101ca61013e565b90506101d68282610190565b919050565b5f67ffffffffffffffff8211156101f5576101f4610163565b5b602082029050602081019050919050565b5f5ffd5b5f5ffd5b5f5ffd5b5f73ffffffffffffffffffffffffffffffffffffffff82169050919050565b5f61023b82610212565b9050919050565b61024b81610231565b8114610255575f5ffd5b50565b5f8151905061026681610242565b92915050565b5f67ffffffffffffffff82111561028657610285610163565b5b602082029050602081019050919050565b5f7fffffffff0000000000000000000000000000000000000000000000000000000082169050919050565b6102cb81610297565b81146102d5575f5ffd5b50565b5f815190506102e6816102c2565b92915050565b5f6102fe6102f98461026c565b6101c1565b9050808382526020820190506020840283018581111561032157610320610206565b5b835b8181101561034a578061033688826102d8565b845260208401935050602081019050610323565b5050509392505050565b5f82601f8301126103685761036761014f565b5b81516103788482602086016102ec565b91505092915050565b5f604082840312156103965761039561020a565b5b6103a060406101c1565b90505f6103af84828501610258565b5f83015250602082015167ffffffffffffffff8111156103d2576103d161020e565b5b6103de84828501610354565b60208301525092915050565b5f6103fc6103f7846101db565b6101c1565b9050808382526020820190506020840283018581111561041f5761041e610206565b5b835b8181101561046657805167ffffffffffffffff8111156104445761044361014f565b5b8086016104518982610381565b85526020850194505050602081019050610421565b5050509392505050565b5f82601f8301126104845761048361014f565b5b81516104948482602086016103ea565b91505092915050565b5f602082840312156104b2576104b1610147565b5b5f82015167ffffffffffffffff8111156104cf576104ce61014b565b5b6104db84828501610470565b91505092915050565b5f81519050919050565b5f82825260208201905092915050565b5f819050602082019050919050565b61051681610231565b82525050565b5f81519050919050565b5f82825260208201905092915050565b5f819050602082019050919050565b61054e81610297565b82525050565b5f61055f8383610545565b60208301905092915050565b5f602082019050919050565b5f6105818261051c565b61058b8185610526565b935061059683610536565b805f5b838110156105c65781516105ad8882610554565b97506105b88361056b565b925050600181019050610599565b5085935050505092915050565b5f604083015f8301516105e85f86018261050d565b50602083015184820360208601526106008282610577565b9150508091505092915050565b5f61061883836105d3565b905092915050565b5f602082019050919050565b5f610636826104e4565b61064081856104ee565b935083602082028501610652856104fe565b805f5b8581101561068d578484038952815161066e858261060d565b945061067983610620565b925060208a01995050600181019050610655565b50829750879550505050505092915050565b5f6020820190508181035f8301526106b7818461062c565b905092915050565b6106c881610231565b82525050565b5f6020820190506106e15f8301846106bf565b92915050565b6080516104186106ff5f395f6101c201526104185ff3fe60806040526004361061002c575f3560e01c806381ed98081461003d5780639b865b431461006757610033565b3661003357005b61003b610091565b005b348015610048575f5ffd5b506100516101c0565b60405161005e9190610235565b60405180910390f35b348015610072575f5ffd5b5061007b6101e4565b60405161008891906102be565b60405180910390f35b5f5f357fffffffff000000000000000000000000000000000000000000000000000000001690505f73__$f07e73ab50fdc244a807a505d0c4602bfd$__6320e63d2a836040518263ffffffff1660e01b81526004016100f09190610318565b602060405180830381865af415801561010b573d5f5f3e3d5ffd5b505050506040513d601f19601f8201168201806040525081019061012f919061038f565b90505f73ffffffffffffffffffffffffffffffffffffffff168173ffffffffffffffffffffffffffffffffffffffff16036101a157816040517fc2a825f500000000000000000000000000000000000000000000000000000000815260040161019891906103c9565b60405180910390fd5b365f5f375f5f365f845af43d5f5f3e805f81146101bc573d5ff35b3d5ffd5b7f000000000000000000000000000000000000000000000000000000000000000081565b6040518060400160405280600d81526020017f44796e616d6963526f757465720000000000000000000000000000000000000081525081565b5f819050919050565b61022f8161021d565b82525050565b5f6020820190506102485f830184610226565b92915050565b5f81519050919050565b5f82825260208201905092915050565b8281835e5f83830152505050565b5f601f19601f8301169050919050565b5f6102908261024e565b61029a8185610258565b93506102aa818560208601610268565b6102b381610276565b840191505092915050565b5f6020820190508181035f8301526102d68184610286565b905092915050565b5f7fffffffff0000000000000000000000000000000000000000000000000000000082169050919050565b610312816102de565b82525050565b5f60208201905061032b5f830184610309565b92915050565b5f5ffd5b5f73ffffffffffffffffffffffffffffffffffffffff82169050919050565b5f61035e82610335565b9050919050565b61036e81610354565b8114610378575f5ffd5b50565b5f8151905061038981610365565b92915050565b5f602082840312156103a4576103a3610331565b5b5f6103b18482850161037b565b91505092915050565b6103c3816102de565b82525050565b5f6020820190506103dc5f8301846103ba565b9291505056fea26469706673582212209b115767f9e808bda31583377e161d44524e83b5d412f7ec7bf268123eff067664736f6c634300081e0033",
					"opcodes": "PUSH1 0xA0 PUSH1 0x40 MSTORE PUSH2 0x16 PUSH1 0x1 PUSH0 PUSH0 PUSH2 0x115 PUSH1 0x20 SHL PUSH1 0x20 SHR JUMP JUMPDEST PUSH1 0x80 SWAP1 DUP2 MSTORE POP CALLVALUE DUP1 ISZERO PUSH2 0x27 JUMPI PUSH0 PUSH0 REVERT JUMPDEST POP PUSH1 0x40 MLOAD PUSH2 0xB17 CODESIZE SUB DUP1 PUSH2 0xB17 DUP4 CODECOPY DUP2 DUP2 ADD PUSH1 0x40 MSTORE DUP2 ADD SWAP1 PUSH2 0x49 SWAP2 SWAP1 PUSH2 0x49D JUMP JUMPDEST PUSH20 0x0 PUSH4 0xA8F64352 DUP3 PUSH1 0x40 MLOAD DUP3 PUSH4 0xFFFFFFFF AND PUSH1 0xE0 SHL DUP2 MSTORE PUSH1 0x4 ADD PUSH2 0x80 SWAP2 SWAP1 PUSH2 0x69F JUMP JUMPDEST PUSH0 PUSH1 0x40 MLOAD DUP1 DUP4 SUB DUP2 DUP7 DUP1 EXTCODESIZE ISZERO DUP1 ISZERO PUSH2 0x96 JUMPI PUSH0 PUSH0 REVERT JUMPDEST POP GAS DELEGATECALL ISZERO DUP1 ISZERO PUSH2 0xA8 JUMPI RETURNDATASIZE PUSH0 PUSH0 RETURNDATACOPY RETURNDATASIZE PUSH0 REVERT JUMPDEST POP POP POP POP PUSH20 0x0 PUSH4 0x592BD705 CALLER PUSH1 0x40 MLOAD DUP3 PUSH4 0xFFFFFFFF AND PUSH1 0xE0 SHL DUP2 MSTORE PUSH1 0x4 ADD PUSH2 0xE3 SWAP2 SWAP1 PUSH2 0x6CE JUMP JUMPDEST PUSH0 PUSH1 0x40 MLOAD DUP1 DUP4 SUB DUP2 DUP7 DUP1 EXTCODESIZE ISZERO DUP1 ISZERO PUSH2 0xF9 JUMPI PUSH0 PUSH0 REVERT JUMPDEST POP GAS DELEGATECALL ISZERO DUP1 ISZERO PUSH2 0x10B JUMPI RETURNDATASIZE PUSH0 PUSH0 RETURNDATACOPY RETURNDATASIZE PUSH0 REVERT JUMPDEST POP POP POP POP POP PUSH2 0x6E7 JUMP JUMPDEST PUSH0 DUP2 PUSH4 0xFFFFFFFF AND PUSH1 0x20 DUP5 PUSH4 0xFFFFFFFF AND SWAP1 SHL PUSH1 0x40 DUP7 PUSH4 0xFFFFFFFF AND SWAP1 SHL OR OR SWAP1 POP SWAP4 SWAP3 POP POP POP JUMP JUMPDEST PUSH0 PUSH1 0x40 MLOAD SWAP1 POP SWAP1 JUMP JUMPDEST PUSH0 PUSH0 REVERT JUMPDEST PUSH0 PUSH0 REVERT JUMPDEST PUSH0 PUSH0 REVERT JUMPDEST PUSH0 PUSH1 0x1F NOT PUSH1 0x1F DUP4 ADD AND SWAP1 POP SWAP2 SWAP1 POP JUMP JUMPDEST PUSH32 0x4E487B7100000000000000000000000000000000000000000000000000000000 PUSH0 MSTORE PUSH1 0x41 PUSH1 0x4 MSTORE PUSH1 0x24 PUSH0 REVERT JUMPDEST PUSH2 0x199 DUP3 PUSH2 0x153 JUMP JUMPDEST DUP2 ADD DUP2 DUP2 LT PUSH8 0xFFFFFFFFFFFFFFFF DUP3 GT OR ISZERO PUSH2 0x1B8 JUMPI PUSH2 0x1B7 PUSH2 0x163 JUMP JUMPDEST JUMPDEST DUP1 PUSH1 0x40 MSTORE POP POP POP JUMP JUMPDEST PUSH0 PUSH2 0x1CA PUSH2 0x13E JUMP JUMPDEST SWAP1 POP PUSH2 0x1D6 DUP3 DUP3 PUSH2 0x190 JUMP JUMPDEST SWAP2 SWAP1 POP JUMP JUMPDEST PUSH0 PUSH8 0xFFFFFFFFFFFFFFFF DUP3 GT ISZERO PUSH2 0x1F5 JUMPI PUSH2 0x1F4 PUSH2 0x163 JUMP JUMPDEST JUMPDEST PUSH1 0x20 DUP3 MUL SWAP1 POP PUSH1 0x20 DUP2 ADD SWAP1 POP SWAP2 SWAP1 POP JUMP JUMPDEST PUSH0 PUSH0 REVERT JUMPDEST PUSH0 PUSH0 REVERT JUMPDEST PUSH0 PUSH0 REVERT JUMPDEST PUSH0 PUSH20 0xFFFFFFFFFFFFFFFFFFFFFFFFFFFFFFFFFFFFFFFF DUP3 AND SWAP1 POP SWAP2 SWAP1 POP JUMP JUMPDEST PUSH0 PUSH2 0x23B DUP3 PUSH2 0x212 JUMP JUMPDEST SWAP1 POP SWAP2 SWAP1 POP JUMP JUMPDEST PUSH2 0x24B DUP2 PUSH2 0x231 JUMP JUMPDEST DUP2 EQ PUSH2 0x255 JUMPI PUSH0 PUSH0 REVERT JUMPDEST POP JUMP JUMPDEST PUSH0 DUP2 MLOAD SWAP1 POP PUSH2 0x266 DUP2 PUSH2 0x242 JUMP JUMPDEST SWAP3 SWAP2 POP POP JUMP JUMPDEST PUSH0 PUSH8 0xFFFFFFFFFFFFFFFF DUP3 GT ISZERO PUSH2 0x286 JUMPI PUSH2 0x285 PUSH2 0x163 JUMP JUMPDEST JUMPDEST PUSH1 0x20 DUP3 MUL SWAP1 POP PUSH1 0x20 DUP2 ADD SWAP1 POP SWAP2 SWAP1 POP JUMP JUMPDEST PUSH0 PUSH32 0xFFFFFFFF00000000000000000000000000000000000000000000000000000000 DUP3 AND SWAP1 POP SWAP2 SWAP1 POP JUMP JUMPDEST PUSH2 0x2CB DUP2 PUSH2 0x297 JUMP JUMPDEST DUP2 EQ PUSH2 0x2D5 JUMPI PUSH0 PUSH0 REVERT JUMPDEST POP JUMP JUMPDEST PUSH0 DUP2 MLOAD SWAP1 POP PUSH2 0x2E6 DUP2 PUSH2 0x2C2 JUMP JUMPDEST SWAP3 SWAP2 POP POP JUMP JUMPDEST PUSH0 PUSH2 0x2FE PUSH2 0x2F9 DUP5 PUSH2 0x26C JUMP JUMPDEST PUSH2 0x1C1 JUMP JUMPDEST SWAP1 POP DUP1 DUP4 DUP3 MSTORE PUSH1 0x20 DUP3 ADD SWAP1 POP PUSH1 0x20 DUP5 MUL DUP4 ADD DUP6 DUP2 GT ISZERO PUSH2 0x321 JUMPI PUSH2 0x320 PUSH2 0x206 JUMP JUMPDEST JUMPDEST DUP4 JUMPDEST DUP2 DUP2 LT ISZERO PUSH2 0x34A JUMPI DUP1 PUSH2 0x336 DUP9 DUP3 PUSH2 0x2D8 JUMP JUMPDEST DUP5 MSTORE PUSH1 0x20 DUP5 ADD SWAP4 POP POP PUSH1 0x20 DUP2 ADD SWAP1 POP PUSH2 0x323 JUMP JUMPDEST POP POP POP SWAP4 SWAP3 POP POP POP JUMP JUMPDEST PUSH0 DUP3 PUSH1 0x1F DUP4 ADD SLT PUSH2 0x368 JUMPI PUSH2 0x367 PUSH2 0x14F JUMP JUMPDEST JUMPDEST DUP2 MLOAD PUSH2 0x378 DUP5 DUP3 PUSH1 0x20 DUP7 ADD PUSH2 0x2EC JUMP JUMPDEST SWAP2 POP POP SWAP3 SWAP2 POP POP JUMP JUMPDEST PUSH0 PUSH1 0x40 DUP3 DUP5 SUB SLT ISZERO PUSH2 0x396 JUMPI PUSH2 0x395 PUSH2 0x20A JUMP JUMPDEST JUMPDEST PUSH2 0x3A0 PUSH1 0x40 PUSH2 0x1C1 JUMP JUMPDEST SWAP1 POP PUSH0 PUSH2 0x3AF DUP5 DUP3 DUP6 ADD PUSH2 0x258 JUMP JUMPDEST PUSH0 DUP4 ADD MSTORE POP PUSH1 0x20 DUP3 ADD MLOAD PUSH8 0xFFFFFFFFFFFFFFFF DUP2 GT ISZERO PUSH2 0x3D2 JUMPI PUSH2 0x3D1 PUSH2 0x20E JUMP JUMPDEST JUMPDEST PUSH2 0x3DE DUP5 DUP3 DUP6 ADD PUSH2 0x354 JUMP JUMPDEST PUSH1 0x20 DUP4 ADD MSTORE POP SWAP3 SWAP2 POP POP JUMP JUMPDEST PUSH0 PUSH2 0x3FC PUSH2 0x3F7 DUP5 PUSH2 0x1DB JUMP JUMPDEST PUSH2 0x1C1 JUMP JUMPDEST SWAP1 POP DUP1 DUP4 DUP3 MSTORE PUSH1 0x20 DUP3 ADD SWAP1 POP PUSH1 0x20 DUP5 MUL DUP4 ADD DUP6 DUP2 GT ISZERO PUSH2 0x41F JUMPI PUSH2 0x41E PUSH2 0x206 JUMP JUMPDEST JUMPDEST DUP4 JUMPDEST DUP2 DUP2 LT ISZERO PUSH2 0x466 JUMPI DUP1 MLOAD PUSH8 0xFFFFFFFFFFFFFFFF DUP2 GT ISZERO PUSH2 0x444 JUMPI PUSH2 0x443 PUSH2 0x14F JUMP JUMPDEST JUMPDEST DUP1 DUP7 ADD PUSH2 0x451 DUP10 DUP3 PUSH2 0x381 JUMP JUMPDEST DUP6 MSTORE PUSH1 0x20 DUP6 ADD SWAP5 POP POP POP PUSH1 0x20 DUP2 ADD SWAP1 POP PUSH2 0x421 JUMP JUMPDEST POP POP POP SWAP4 SWAP3 POP POP POP JUMP JUMPDEST PUSH0 DUP3 PUSH1 0x1F DUP4 ADD SLT PUSH2 0x484 JUMPI PUSH2 0x483 PUSH2 0x14F JUMP JUMPDEST JUMPDEST DUP2 MLOAD PUSH2 0x494 DUP5 DUP3 PUSH1 0x20 DUP7 ADD PUSH2 0x3EA JUMP JUMPDEST SWAP2 POP POP SWAP3 SWAP2 POP POP JUMP JUMPDEST PUSH0 PUSH1 0x20 DUP3 DUP5 SUB SLT ISZERO PUSH2 0x4B2 JUMPI PUSH2 0x4B1 PUSH2 0x147 JUMP JUMPDEST JUMPDEST PUSH0 DUP3 ADD MLOAD PUSH8 0xFFFFFFFFFFFFFFFF DUP2 GT ISZERO PUSH2 0x4CF JUMPI PUSH2 0x4CE PUSH2 0x14B JUMP JUMPDEST JUMPDEST PUSH2 0x4DB DUP5 DUP3 DUP6 ADD PUSH2 0x470 JUMP JUMPDEST SWAP2 POP POP SWAP3 SWAP2 POP POP JUMP JUMPDEST PUSH0 DUP2 MLOAD SWAP1 POP SWAP2 SWAP1 POP JUMP JUMPDEST PUSH0 DUP3 DUP3 MSTORE PUSH1 0x20 DUP3 ADD SWAP1 POP SWAP3 SWAP2 POP POP JUMP JUMPDEST PUSH0 DUP2 SWAP1 POP PUSH1 0x20 DUP3 ADD SWAP1 POP SWAP2 SWAP1 POP JUMP JUMPDEST PUSH2 0x516 DUP2 PUSH2 0x231 JUMP JUMPDEST DUP3 MSTORE POP POP JUMP JUMPDEST PUSH0 DUP2 MLOAD SWAP1 POP SWAP2 SWAP1 POP JUMP JUMPDEST PUSH0 DUP3 DUP3 MSTORE PUSH1 0x20 DUP3 ADD SWAP1 POP SWAP3 SWAP2 POP POP JUMP JUMPDEST PUSH0 DUP2 SWAP1 POP PUSH1 0x20 DUP3 ADD SWAP1 POP SWAP2 SWAP1 POP JUMP JUMPDEST PUSH2 0x54E DUP2 PUSH2 0x297 JUMP JUMPDEST DUP3 MSTORE POP POP JUMP JUMPDEST PUSH0 PUSH2 0x55F DUP4 DUP4 PUSH2 0x545 JUMP JUMPDEST PUSH1 0x20 DUP4 ADD SWAP1 POP SWAP3 SWAP2 POP POP JUMP JUMPDEST PUSH0 PUSH1 0x20 DUP3 ADD SWAP1 POP SWAP2 SWAP1 POP JUMP JUMPDEST PUSH0 PUSH2 0x581 DUP3 PUSH2 0x51C JUMP JUMPDEST PUSH2 0x58B DUP2 DUP6 PUSH2 0x526 JUMP JUMPDEST SWAP4 POP PUSH2 0x596 DUP4 PUSH2 0x536 JUMP JUMPDEST DUP1 PUSH0 JUMPDEST DUP4 DUP2 LT ISZERO PUSH2 0x5C6 JUMPI DUP2 MLOAD PUSH2 0x5AD DUP9 DUP3 PUSH2 0x554 JUMP JUMPDEST SWAP8 POP PUSH2 0x5B8 DUP4 PUSH2 0x56B JUMP JUMPDEST SWAP3 POP POP PUSH1 0x1 DUP2 ADD SWAP1 POP PUSH2 0x599 JUMP JUMPDEST POP DUP6 SWAP4 POP POP POP POP SWAP3 SWAP2 POP POP JUMP JUMPDEST PUSH0 PUSH1 0x40 DUP4 ADD PUSH0 DUP4 ADD MLOAD PUSH2 0x5E8 PUSH0 DUP7 ADD DUP3 PUSH2 0x50D JUMP JUMPDEST POP PUSH1 0x20 DUP4 ADD MLOAD DUP5 DUP3 SUB PUSH1 0x20 DUP7 ADD MSTORE PUSH2 0x600 DUP3 DUP3 PUSH2 0x577 JUMP JUMPDEST SWAP2 POP POP DUP1 SWAP2 POP POP SWAP3 SWAP2 POP POP JUMP JUMPDEST PUSH0 PUSH2 0x618 DUP4 DUP4 PUSH2 0x5D3 JUMP JUMPDEST SWAP1 POP SWAP3 SWAP2 POP POP JUMP JUMPDEST PUSH0 PUSH1 0x20 DUP3 ADD SWAP1 POP SWAP2 SWAP1 POP JUMP JUMPDEST PUSH0 PUSH2 0x636 DUP3 PUSH2 0x4E4 JUMP JUMPDEST PUSH2 0x640 DUP2 DUP6 PUSH2 0x4EE JUMP JUMPDEST SWAP4 POP DUP4 PUSH1 0x20 DUP3 MUL DUP6 ADD PUSH2 0x652 DUP6 PUSH2 0x4FE JUMP JUMPDEST DUP1 PUSH0 JUMPDEST DUP6 DUP2 LT ISZERO PUSH2 0x68D JUMPI DUP5 DUP5 SUB DUP10 MSTORE DUP2 MLOAD PUSH2 0x66E DUP6 DUP3 PUSH2 0x60D JUMP JUMPDEST SWAP5 POP PUSH2 0x679 DUP4 PUSH2 0x620 JUMP JUMPDEST SWAP3 POP PUSH1 0x20 DUP11 ADD SWAP10 POP POP PUSH1 0x1 DUP2 ADD SWAP1 POP PUSH2 0x655 JUMP JUMPDEST POP DUP3 SWAP8 POP DUP8 SWAP6 POP POP POP POP POP POP SWAP3 SWAP2 POP POP JUMP JUMPDEST PUSH0 PUSH1 0x20 DUP3 ADD SWAP1 POP DUP2 DUP2 SUB PUSH0 DUP4 ADD MSTORE PUSH2 0x6B7 DUP2 DUP5 PUSH2 0x62C JUMP JUMPDEST SWAP1 POP SWAP3 SWAP2 POP POP JUMP JUMPDEST PUSH2 0x6C8 DUP2 PUSH2 0x231 JUMP JUMPDEST DUP3 MSTORE POP POP JUMP JUMPDEST PUSH0 PUSH1 0x20 DUP3 ADD SWAP1 POP PUSH2 0x6E1 PUSH0 DUP4 ADD DUP5 PUSH2 0x6BF JUMP JUMPDEST SWAP3 SWAP2 POP POP JUMP JUMPDEST PUSH1 0x80 MLOAD PUSH2 0x418 PUSH2 0x6FF PUSH0 CODECOPY PUSH0 PUSH2 0x1C2 ADD MSTORE PUSH2 0x418 PUSH0 RETURN INVALID PUSH1 0x80 PUSH1 0x40 MSTORE PUSH1 0x4 CALLDATASIZE LT PUSH2 0x2C JUMPI PUSH0 CALLDATALOAD PUSH1 0xE0 SHR DUP1 PUSH4 0x81ED9808 EQ PUSH2 0x3D JUMPI DUP1 PUSH4 0x9B865B43 EQ PUSH2 0x67 JUMPI PUSH2 0x33 JUMP JUMPDEST CALLDATASIZE PUSH2 0x33 JUMPI STOP JUMPDEST PUSH2 0x3B PUSH2 0x91 JUMP JUMPDEST STOP JUMPDEST CALLVALUE DUP1 ISZERO PUSH2 0x48 JUMPI PUSH0 PUSH0 REVERT JUMPDEST POP PUSH2 0x51 PUSH2 0x1C0 JUMP JUMPDEST PUSH1 0x40 MLOAD PUSH2 0x5E SWAP2 SWAP1 PUSH2 0x235 JUMP JUMPDEST PUSH1 0x40 MLOAD DUP1 SWAP2 SUB SWAP1 RETURN JUMPDEST CALLVALUE DUP1 ISZERO PUSH2 0x72 JUMPI PUSH0 PUSH0 REVERT JUMPDEST POP PUSH2 0x7B PUSH2 0x1E4 JUMP JUMPDEST PUSH1 0x40 MLOAD PUSH2 0x88 SWAP2 SWAP1 PUSH2 0x2BE JUMP JUMPDEST PUSH1 0x40 MLOAD DUP1 SWAP2 SUB SWAP1 RETURN JUMPDEST PUSH0 PUSH0 CALLDATALOAD PUSH32 0xFFFFFFFF00000000000000000000000000000000000000000000000000000000 AND SWAP1 POP PUSH0 PUSH20 0x0 PUSH4 0x20E63D2A DUP4 PUSH1 0x40 MLOAD DUP3 PUSH4 0xFFFFFFFF AND PUSH1 0xE0 SHL DUP2 MSTORE PUSH1 0x4 ADD PUSH2 0xF0 SWAP2 SWAP1 PUSH2 0x318 JUMP JUMPDEST PUSH1 0x20 PUSH1 0x40 MLOAD DUP1 DUP4 SUB DUP2 DUP7 GAS DELEGATECALL ISZERO DUP1 ISZERO PUSH2 0x10B JUMPI RETURNDATASIZE PUSH0 PUSH0 RETURNDATACOPY RETURNDATASIZE PUSH0 REVERT JUMPDEST POP POP POP POP PUSH1 0x40 MLOAD RETURNDATASIZE PUSH1 0x1F NOT PUSH1 0x1F DUP3 ADD AND DUP3 ADD DUP1 PUSH1 0x40 MSTORE POP DUP2 ADD SWAP1 PUSH2 0x12F SWAP2 SWAP1 PUSH2 0x38F JUMP JUMPDEST SWAP1 POP PUSH0 PUSH20 0xFFFFFFFFFFFFFFFFFFFFFFFFFFFFFFFFFFFFFFFF AND DUP2 PUSH20 0xFFFFFFFFFFFFFFFFFFFFFFFFFFFFFFFFFFFFFFFF AND SUB PUSH2 0x1A1 JUMPI DUP2 PUSH1 0x40 MLOAD PUSH32 0xC2A825F500000000000000000000000000000000000000000000000000000000 DUP2 MSTORE PUSH1 0x4 ADD PUSH2 0x198 SWAP2 SWAP1 PUSH2 0x3C9 JUMP JUMPDEST PUSH1 0x40 MLOAD DUP1 SWAP2 SUB SWAP1 REVERT JUMPDEST CALLDATASIZE PUSH0 PUSH0 CALLDATACOPY PUSH0 PUSH0 CALLDATASIZE PUSH0 DUP5 GAS DELEGATECALL RETURNDATASIZE PUSH0 PUSH0 RETURNDATACOPY DUP1 PUSH0 DUP2 EQ PUSH2 0x1BC JUMPI RETURNDATASIZE PUSH0 RETURN JUMPDEST RETURNDATASIZE PUSH0 REVERT JUMPDEST PUSH32 0x0 DUP2 JUMP JUMPDEST PUSH1 0x40 MLOAD DUP1 PUSH1 0x40 ADD PUSH1 0x40 MSTORE DUP1 PUSH1 0xD DUP2 MSTORE PUSH1 0x20 ADD PUSH32 0x44796E616D6963526F7574657200000000000000000000000000000000000000 DUP2 MSTORE POP DUP2 JUMP JUMPDEST PUSH0 DUP2 SWAP1 POP SWAP2 SWAP1 POP JUMP JUMPDEST PUSH2 0x22F DUP2 PUSH2 0x21D JUMP JUMPDEST DUP3 MSTORE POP POP JUMP JUMPDEST PUSH0 PUSH1 0x20 DUP3 ADD SWAP1 POP PUSH2 0x248 PUSH0 DUP4 ADD DUP5 PUSH2 0x226 JUMP JUMPDEST SWAP3 SWAP2 POP POP JUMP JUMPDEST PUSH0 DUP2 MLOAD SWAP1 POP SWAP2 SWAP1 POP JUMP JUMPDEST PUSH0 DUP3 DUP3 MSTORE PUSH1 0x20 DUP3 ADD SWAP1 POP SWAP3 SWAP2 POP POP JUMP JUMPDEST DUP3 DUP2 DUP4 MCOPY PUSH0 DUP4 DUP4 ADD MSTORE POP POP POP JUMP JUMPDEST PUSH0 PUSH1 0x1F NOT PUSH1 0x1F DUP4 ADD AND SWAP1 POP SWAP2 SWAP1 POP JUMP JUMPDEST PUSH0 PUSH2 0x290 DUP3 PUSH2 0x24E JUMP JUMPDEST PUSH2 0x29A DUP2 DUP6 PUSH2 0x258 JUMP JUMPDEST SWAP4 POP PUSH2 0x2AA DUP2 DUP6 PUSH1 0x20 DUP7 ADD PUSH2 0x268 JUMP JUMPDEST PUSH2 0x2B3 DUP2 PUSH2 0x276 JUMP JUMPDEST DUP5 ADD SWAP2 POP POP SWAP3 SWAP2 POP POP JUMP JUMPDEST PUSH0 PUSH1 0x20 DUP3 ADD SWAP1 POP DUP2 DUP2 SUB PUSH0 DUP4 ADD MSTORE PUSH2 0x2D6 DUP2 DUP5 PUSH2 0x286 JUMP JUMPDEST SWAP1 POP SWAP3 SWAP2 POP POP JUMP JUMPDEST PUSH0 PUSH32 0xFFFFFFFF00000000000000000000000000000000000000000000000000000000 DUP3 AND SWAP1 POP SWAP2 SWAP1 POP JUMP JUMPDEST PUSH2 0x312 DUP2 PUSH2 0x2DE JUMP JUMPDEST DUP3 MSTORE POP POP JUMP JUMPDEST PUSH0 PUSH1 0x20 DUP3 ADD SWAP1 POP PUSH2 0x32B PUSH0 DUP4 ADD DUP5 PUSH2 0x309 JUMP JUMPDEST SWAP3 SWAP2 POP POP JUMP JUMPDEST PUSH0 PUSH0 REVERT JUMPDEST PUSH0 PUSH20 0xFFFFFFFFFFFFFFFFFFFFFFFFFFFFFFFFFFFFFFFF DUP3 AND SWAP1 POP SWAP2 SWAP1 POP JUMP JUMPDEST PUSH0 PUSH2 0x35E DUP3 PUSH2 0x335 JUMP JUMPDEST SWAP1 POP SWAP2 SWAP1 POP JUMP JUMPDEST PUSH2 0x36E DUP2 PUSH2 0x354 JUMP JUMPDEST DUP2 EQ PUSH2 0x378 JUMPI PUSH0 PUSH0 REVERT JUMPDEST POP JUMP JUMPDEST PUSH0 DUP2 MLOAD SWAP1 POP PUSH2 0x389 DUP2 PUSH2 0x365 JUMP JUMPDEST SWAP3 SWAP2 POP POP JUMP JUMPDEST PUSH0 PUSH1 0x20 DUP3 DUP5 SUB SLT ISZERO PUSH2 0x3A4 JUMPI PUSH2 0x3A3 PUSH2 0x331 JUMP JUMPDEST JUMPDEST PUSH0 PUSH2 0x3B1 DUP5 DUP3 DUP6 ADD PUSH2 0x37B JUMP JUMPDEST SWAP2 POP POP SWAP3 SWAP2 POP POP JUMP JUMPDEST PUSH2 0x3C3 DUP2 PUSH2 0x2DE JUMP JUMPDEST DUP3 MSTORE POP POP JUMP JUMPDEST PUSH0 PUSH1 0x20 DUP3 ADD SWAP1 POP PUSH2 0x3DC PUSH0 DUP4 ADD DUP5 PUSH2 0x3BA JUMP JUMPDEST SWAP3 SWAP2 POP POP JUMP INVALID LOG2 PUSH5 0x6970667358 0x22 SLT KECCAK256 SWAP12 GT JUMPI PUSH8 0xF9E808BDA3158337 PUSH31 0x161D44524E83B5D412F7EC7BF268123EFF067664736F6C634300081E003300 "
				},
				"gasEstimates": {
					"creation": {
						"codeDepositCost": "209600",
						"executionCost": "infinite",
						"totalCost": "infinite"
					},
					"external": {
						"": "infinite",
						"MODULE_NAME()": "infinite",
						"MODULE_VERSION()": "infinite"
					},
					"internal": {
						"_forward()": "infinite"
					}
				},
				"methodIdentifiers": {
					"MODULE_NAME()": "9b865b43",
					"MODULE_VERSION()": "81ed9808"
				}
			},
			"storageLayout": {
				"storage": [],
				"types": null
			},
			"userdoc": {
				"kind": "user",
				"methods": {},
				"version": 1
			}
		}
	}
}