{
	"/contracts/storage/LibSMEambStorage.sol": {
		"SMEambStorage": {
			"abi": [
				{
					"inputs": [],
					"name": "allTokens",
					"outputs": [
						{
							"internalType": "uint256[]",
							"name": "",
							"type": "uint256[]"
						}
					],
					"stateMutability": "view",
					"type": "function"
				},
				{
					"inputs": [],
					"name": "baseTokenURI",
					"outputs": [
						{
							"internalType": "string",
							"name": "",
							"type": "string"
						}
					],
					"stateMutability": "view",
					"type": "function"
				},
				{
					"inputs": [],
					"name": "defaultTokenURI",
					"outputs": [
						{
							"internalType": "string",
							"name": "",
							"type": "string"
						}
					],
					"stateMutability": "view",
					"type": "function"
				},
				{
					"inputs": [],
					"name": "epiclistRoot",
					"outputs": [
						{
							"internalType": "bytes32",
							"name": "",
							"type": "bytes32"
						}
					],
					"stateMutability": "view",
					"type": "function"
				},
				{
					"inputs": [],
					"name": "fee",
					"outputs": [
						{
							"internalType": "uint256",
							"name": "",
							"type": "uint256"
						}
					],
					"stateMutability": "view",
					"type": "function"
				},
				{
					"inputs": [],
					"name": "genesislistRoot",
					"outputs": [
						{
							"internalType": "bytes32",
							"name": "",
							"type": "bytes32"
						}
					],
					"stateMutability": "view",
					"type": "function"
				},
				{
					"inputs": [
						{
							"internalType": "address",
							"name": "owner",
							"type": "address"
						}
					],
					"name": "guaranteed_minted",
					"outputs": [
						{
							"internalType": "bool",
							"name": "",
							"type": "bool"
						}
					],
					"stateMutability": "view",
					"type": "function"
				},
				{
					"inputs": [],
					"name": "legendlistRoot",
					"outputs": [
						{
							"internalType": "bytes32",
							"name": "",
							"type": "bytes32"
						}
					],
					"stateMutability": "view",
					"type": "function"
				},
				{
					"inputs": [
						{
							"internalType": "address",
							"name": "owner",
							"type": "address"
						},
						{
							"internalType": "uint256",
							"name": "index",
							"type": "uint256"
						}
					],
					"name": "ownedTokens",
					"outputs": [
						{
							"internalType": "uint256",
							"name": "",
							"type": "uint256"
						}
					],
					"stateMutability": "view",
					"type": "function"
				},
				{
					"inputs": [
						{
							"internalType": "uint256",
							"name": "tokenId",
							"type": "uint256"
						}
					],
					"name": "ownedTokensIndex",
					"outputs": [
						{
							"internalType": "uint256",
							"name": "",
							"type": "uint256"
						}
					],
					"stateMutability": "view",
					"type": "function"
				},
				{
					"inputs": [
						{
							"internalType": "uint256",
							"name": "tokenId",
							"type": "uint256"
						}
					],
					"name": "tokenURIs",
					"outputs": [
						{
							"internalType": "string",
							"name": "",
							"type": "string"
						}
					],
					"stateMutability": "view",
					"type": "function"
				}
			],
			"devdoc": {
				"custom:version": "1.0.0",
				"details": "Логику смотри в модуле SMEamb",
				"kind": "dev",
				"methods": {
					"addTokenToAllTokensEnumeration(uint256)": {
						"details": "Добавление токена в структуры для отслеживания",
						"params": {
							"tokenId": "uint256 идентификатор токена"
						}
					},
					"addTokenToOwnerEnumeration(address,uint256,uint256)": {
						"details": "Private function to add a token to this extension's ownership-tracking data structures.",
						"params": {
							"to": "address representing the new owner of the given token ID",
							"tokenId": "uint256 ID of the token to be added to the tokens list of the given address"
						}
					},
					"baseTokenURI()": {
						"details": "геттеры"
					},
					"baseTokenURI(string)": {
						"details": "Сеттеры"
					},
					"removeTokenFromAllTokensEnumeration(uint256)": {
						"details": "Private function to remove a token from this extension's token tracking data structures. This has O(1) time complexity, but alters the order of the _allTokens array.",
						"params": {
							"tokenId": "uint256 ID of the token to be removed from the tokens list"
						}
					},
					"removeTokenFromOwnerEnumeration(address,uint256,uint256)": {
						"details": "Private function to remove a token from this extension's ownership-tracking data structures. Note that while the token is not assigned a new owner, the `_ownedTokensIndex` mapping is _not_ updated: this allows for gas optimizations e.g. when performing a transfer operation (avoiding double writes). This has O(1) time complexity, but alters the order of the _ownedTokens array.",
						"params": {
							"from": "address representing the previous owner of the given token ID",
							"tokenId": "uint256 ID of the token to be removed from the tokens list of the given address"
						}
					}
				},
				"stateVariables": {
					"SLOT": {
						"details": "Слот хранилища"
					}
				},
				"title": "OwnableStorage",
				"version": 1
			},
			"evm": {
				"assembly": "    /* \"/contracts/storage/LibSMEambStorage.sol\":279:9939  library SMEambStorage{... */\n  dataSize(sub_0)\n  dataOffset(sub_0)\n  0x0b\n  dup3\n  dup3\n  dup3\n  codecopy\n  dup1\n  mload\n  0x00\n  byte\n  0x73\n  eq\n  tag_1\n  jumpi\n  mstore(0x00, shl(0xe0, 0x4e487b71))\n  mstore(0x04, 0x00)\n  revert(0x00, 0x24)\ntag_1:\n  mstore(0x00, address)\n  0x73\n  dup2\n  mstore8\n  dup3\n  dup2\n  return\nstop\n\nsub_0: assembly {\n        /* \"/contracts/storage/LibSMEambStorage.sol\":279:9939  library SMEambStorage{... */\n      eq(address, deployTimeAddress())\n      mstore(0x40, 0x80)\n      jumpi(tag_1, lt(calldatasize, 0x04))\n      shr(0xe0, calldataload(0x00))\n      dup1\n      0x821abc2d\n      gt\n      tag_27\n      jumpi\n      dup1\n      0xb62d8b91\n      gt\n      tag_28\n      jumpi\n      dup1\n      0xddca3f43\n      gt\n      tag_29\n      jumpi\n      dup1\n      0xddca3f43\n      eq\n      tag_23\n      jumpi\n      dup1\n      0xdec84db1\n      eq\n      tag_24\n      jumpi\n      dup1\n      0xe149f036\n      eq\n      tag_25\n      jumpi\n      dup1\n      0xf589b754\n      eq\n      tag_26\n      jumpi\n      0x00\n      dup1\n      revert\n    tag_29:\n      dup1\n      0xb62d8b91\n      eq\n      tag_20\n      jumpi\n      dup1\n      0xd547cfb7\n      eq\n      tag_21\n      jumpi\n      dup1\n      0xdbe0b21c\n      eq\n      tag_22\n      jumpi\n      0x00\n      dup1\n      revert\n    tag_28:\n      dup1\n      0xa05cc559\n      gt\n      tag_30\n      jumpi\n      dup1\n      0xa05cc559\n      eq\n      tag_17\n      jumpi\n      dup1\n      0xad715f2e\n      eq\n      tag_18\n      jumpi\n      dup1\n      0xb0d4ce25\n      eq\n      tag_19\n      jumpi\n      0x00\n      dup1\n      revert\n    tag_30:\n      dup1\n      0x821abc2d\n      eq\n      tag_14\n      jumpi\n      dup1\n      0x854f9db9\n      eq\n      tag_15\n      jumpi\n      dup1\n      0x963bfe12\n      eq\n      tag_16\n      jumpi\n      0x00\n      dup1\n      revert\n    tag_27:\n      dup1\n      0x40e02f5c\n      gt\n      tag_31\n      jumpi\n      dup1\n      0x6c8b703f\n      gt\n      tag_32\n      jumpi\n      dup1\n      0x6c8b703f\n      eq\n      tag_11\n      jumpi\n      dup1\n      0x6ff97f1d\n      eq\n      tag_12\n      jumpi\n      dup1\n      0x74e24367\n      eq\n      tag_13\n      jumpi\n      0x00\n      dup1\n      revert\n    tag_32:\n      dup1\n      0x40e02f5c\n      eq\n      tag_8\n      jumpi\n      dup1\n      0x49a0a50e\n      eq\n      tag_9\n      jumpi\n      dup1\n      0x4f4979ed\n      eq\n      tag_10\n      jumpi\n      0x00\n      dup1\n      revert\n    tag_31:\n      dup1\n      0x33171809\n      gt\n      tag_33\n      jumpi\n      dup1\n      0x33171809\n      eq\n      tag_5\n      jumpi\n      dup1\n      0x3802497b\n      eq\n      tag_6\n      jumpi\n      dup1\n      0x39b37ab0\n      eq\n      tag_7\n      jumpi\n      0x00\n      dup1\n      revert\n    tag_33:\n      dup1\n      0x071bc71c\n      eq\n      tag_2\n      jumpi\n      dup1\n      0x19f86200\n      eq\n      tag_3\n      jumpi\n      dup1\n      0x247c6ce0\n      eq\n      tag_4\n      jumpi\n    tag_1:\n      0x00\n      dup1\n      revert\n        /* \"/contracts/storage/LibSMEambStorage.sol\":8136:9188  function removeTokenFromOwnerEnumeration(address from, uint256 tokenId, uint256 lastTokenIndex) external {... */\n    tag_2:\n      dup2\n      dup1\n      iszero\n      tag_34\n      jumpi\n      0x00\n      dup1\n      revert\n    tag_34:\n      pop\n      tag_35\n      tag_36\n      calldatasize\n      0x04\n      tag_37\n      jump\t// in\n    tag_36:\n      tag_38\n      jump\t// in\n    tag_35:\n      stop\n        /* \"/contracts/storage/LibSMEambStorage.sol\":3858:3958  function genesislistRoot() external view returns(bytes32){return _getStorage(SLOT).genesislistRoot;} */\n    tag_3:\n        /* \"/contracts/storage/LibSMEambStorage.sol\":385:400  bytes('SMEamb') */\n      0x40\n      dup1\n      mload\n      dup1\n      dup3\n      add\n      swap1\n      swap2\n      mstore\n      0x06\n      dup2\n      mstore\n      0x534d45616d620000000000000000000000000000000000000000000000000000\n      0x20\n      swap1\n      swap2\n      add\n      mstore\n        /* \"/contracts/storage/LibSMEambStorage.sol\":3923:3956  _getStorage(SLOT).genesislistRoot */\n      sload(0x880dcea5013c7917feacaa9870a5495e576440ae5dac799e84368c49d23bb4c0)\n        /* \"/contracts/storage/LibSMEambStorage.sol\":3858:3958  function genesislistRoot() external view returns(bytes32){return _getStorage(SLOT).genesislistRoot;} */\n    tag_39:\n      mload(0x40)\n        /* \"#utility.yul\":696:721   */\n      swap1\n      dup2\n      mstore\n        /* \"#utility.yul\":684:686   */\n      0x20\n        /* \"#utility.yul\":669:687   */\n      add\n        /* \"/contracts/storage/LibSMEambStorage.sol\":3858:3958  function genesislistRoot() external view returns(bytes32){return _getStorage(SLOT).genesislistRoot;} */\n    tag_41:\n      mload(0x40)\n      dup1\n      swap2\n      sub\n      swap1\n      return\n        /* \"/contracts/storage/LibSMEambStorage.sol\":5294:5396  function epiclistRoot(bytes32 _epiclistRoot) external{_getStorage(SLOT).epiclistRoot = _epiclistRoot;} */\n    tag_4:\n      dup2\n      dup1\n      iszero\n      tag_43\n      jumpi\n      0x00\n      dup1\n      revert\n    tag_43:\n      pop\n      tag_35\n      tag_45\n      calldatasize\n      0x04\n      tag_46\n      jump\t// in\n    tag_45:\n        /* \"/contracts/storage/LibSMEambStorage.sol\":385:400  bytes('SMEamb') */\n      0x40\n      dup1\n      mload\n      dup1\n      dup3\n      add\n      swap1\n      swap2\n      mstore\n      0x06\n      dup2\n      mstore\n      0x534d45616d620000000000000000000000000000000000000000000000000000\n      0x20\n      swap1\n      swap2\n      add\n      mstore\n        /* \"/contracts/storage/LibSMEambStorage.sol\":5348:5378  _getStorage(SLOT).epiclistRoot */\n      0x880dcea5013c7917feacaa9870a5495e576440ae5dac799e84368c49d23bb4c2\n        /* \"/contracts/storage/LibSMEambStorage.sol\":5348:5394  _getStorage(SLOT).epiclistRoot = _epiclistRoot */\n      sstore\n        /* \"/contracts/storage/LibSMEambStorage.sol\":5294:5396  function epiclistRoot(bytes32 _epiclistRoot) external{_getStorage(SLOT).epiclistRoot = _epiclistRoot;} */\n      jump\n        /* \"/contracts/storage/LibSMEambStorage.sol\":4068:4162  function epiclistRoot() external view returns(bytes32){return _getStorage(SLOT).epiclistRoot;} */\n    tag_5:\n        /* \"/contracts/storage/LibSMEambStorage.sol\":385:400  bytes('SMEamb') */\n      0x40\n      dup1\n      mload\n      dup1\n      dup3\n      add\n      swap1\n      swap2\n      mstore\n      0x06\n      dup2\n      mstore\n      0x534d45616d620000000000000000000000000000000000000000000000000000\n      0x20\n      swap1\n      swap2\n      add\n      mstore\n        /* \"/contracts/storage/LibSMEambStorage.sol\":4130:4160  _getStorage(SLOT).epiclistRoot */\n      sload(0x880dcea5013c7917feacaa9870a5495e576440ae5dac799e84368c49d23bb4c2)\n        /* \"/contracts/storage/LibSMEambStorage.sol\":4068:4162  function epiclistRoot() external view returns(bytes32){return _getStorage(SLOT).epiclistRoot;} */\n      jump(tag_39)\n        /* \"/contracts/storage/LibSMEambStorage.sol\":5058:5172  function genesislistRoot(bytes32 _genesislistRoot) external{_getStorage(SLOT).genesislistRoot = _genesislistRoot;} */\n    tag_6:\n      dup2\n      dup1\n      iszero\n      tag_51\n      jumpi\n      0x00\n      dup1\n      revert\n    tag_51:\n      pop\n      tag_35\n      tag_53\n      calldatasize\n      0x04\n      tag_46\n      jump\t// in\n    tag_53:\n        /* \"/contracts/storage/LibSMEambStorage.sol\":385:400  bytes('SMEamb') */\n      0x40\n      dup1\n      mload\n      dup1\n      dup3\n      add\n      swap1\n      swap2\n      mstore\n      0x06\n      dup2\n      mstore\n      0x534d45616d620000000000000000000000000000000000000000000000000000\n      0x20\n      swap1\n      swap2\n      add\n      mstore\n        /* \"/contracts/storage/LibSMEambStorage.sol\":5118:5151  _getStorage(SLOT).genesislistRoot */\n      0x880dcea5013c7917feacaa9870a5495e576440ae5dac799e84368c49d23bb4c0\n        /* \"/contracts/storage/LibSMEambStorage.sol\":5118:5170  _getStorage(SLOT).genesislistRoot = _genesislistRoot */\n      sstore\n        /* \"/contracts/storage/LibSMEambStorage.sol\":5058:5172  function genesislistRoot(bytes32 _genesislistRoot) external{_getStorage(SLOT).genesislistRoot = _genesislistRoot;} */\n      jump\n        /* \"/contracts/storage/LibSMEambStorage.sol\":5402:5468  function fee(uint256 _fee) external{_getStorage(SLOT).fee = _fee;} */\n    tag_7:\n      dup2\n      dup1\n      iszero\n      tag_55\n      jumpi\n      0x00\n      dup1\n      revert\n    tag_55:\n      pop\n      tag_35\n      tag_57\n      calldatasize\n      0x04\n      tag_46\n      jump\t// in\n    tag_57:\n        /* \"/contracts/storage/LibSMEambStorage.sol\":385:400  bytes('SMEamb') */\n      0x40\n      dup1\n      mload\n      dup1\n      dup3\n      add\n      swap1\n      swap2\n      mstore\n      0x06\n      dup2\n      mstore\n      0x534d45616d620000000000000000000000000000000000000000000000000000\n      0x20\n      swap1\n      swap2\n      add\n      mstore\n        /* \"/contracts/storage/LibSMEambStorage.sol\":5438:5459  _getStorage(SLOT).fee */\n      0x880dcea5013c7917feacaa9870a5495e576440ae5dac799e84368c49d23bb4c3\n        /* \"/contracts/storage/LibSMEambStorage.sol\":5438:5466  _getStorage(SLOT).fee = _fee */\n      sstore\n        /* \"/contracts/storage/LibSMEambStorage.sol\":5402:5468  function fee(uint256 _fee) external{_getStorage(SLOT).fee = _fee;} */\n      jump\n        /* \"/contracts/storage/LibSMEambStorage.sol\":5890:7092  function removeTokenFromAllTokensEnumeration(uint256 tokenId) external {... */\n    tag_8:\n      dup2\n      dup1\n      iszero\n      tag_60\n      jumpi\n      0x00\n      dup1\n      revert\n    tag_60:\n      pop\n      tag_35\n      tag_62\n      calldatasize\n      0x04\n      tag_46\n      jump\t// in\n    tag_62:\n      tag_63\n      jump\t// in\n        /* \"/contracts/storage/LibSMEambStorage.sol\":4784:4922  function ownedTokens(address _owner, uint256 _index, uint256 _tokenId) external{_getStorage(SLOT).ownedTokens[_owner][_index] = _tokenId;} */\n    tag_9:\n      dup2\n      dup1\n      iszero\n      tag_64\n      jumpi\n      0x00\n      dup1\n      revert\n    tag_64:\n      pop\n      tag_35\n      tag_66\n      calldatasize\n      0x04\n      tag_37\n      jump\t// in\n    tag_66:\n        /* \"/contracts/storage/LibSMEambStorage.sol\":385:400  bytes('SMEamb') */\n      0x40\n      dup1\n      mload\n      dup1\n      dup3\n      add\n      dup3\n      mstore\n      0x06\n      dup2\n      mstore\n      0x534d45616d620000000000000000000000000000000000000000000000000000\n      0x20\n      swap2\n      dup3\n      add\n      mstore\n        /* \"/contracts/storage/LibSMEambStorage.sol\":4864:4901  _getStorage(SLOT).ownedTokens[_owner] */\n      0xffffffffffffffffffffffffffffffffffffffff\n      swap5\n      swap1\n      swap5\n      and\n      0x00\n      swap1\n      dup2\n      mstore\n        /* \"/contracts/storage/LibSMEambStorage.sol\":4864:4893  _getStorage(SLOT).ownedTokens */\n      0x880dcea5013c7917feacaa9870a5495e576440ae5dac799e84368c49d23bb4bc\n        /* \"/contracts/storage/LibSMEambStorage.sol\":4864:4901  _getStorage(SLOT).ownedTokens[_owner] */\n      dup6\n      mstore\n      dup2\n      dup2\n      keccak256\n        /* \"/contracts/storage/LibSMEambStorage.sol\":4864:4909  _getStorage(SLOT).ownedTokens[_owner][_index] */\n      swap4\n      dup2\n      mstore\n      swap3\n      swap1\n      swap4\n      mstore\n      swap2\n      swap1\n      keccak256\n        /* \"/contracts/storage/LibSMEambStorage.sol\":4864:4920  _getStorage(SLOT).ownedTokens[_owner][_index] = _tokenId */\n      sstore\n        /* \"/contracts/storage/LibSMEambStorage.sol\":4784:4922  function ownedTokens(address _owner, uint256 _index, uint256 _tokenId) external{_getStorage(SLOT).ownedTokens[_owner][_index] = _tokenId;} */\n      jump\n        /* \"/contracts/storage/LibSMEambStorage.sol\":9489:9712  function addTokenToOwnerEnumeration(address to, uint256 tokenId, uint256 length) external {... */\n    tag_10:\n      dup2\n      dup1\n      iszero\n      tag_68\n      jumpi\n      0x00\n      dup1\n      revert\n    tag_68:\n      pop\n      tag_35\n      tag_70\n      calldatasize\n      0x04\n      tag_37\n      jump\t// in\n    tag_70:\n        /* \"/contracts/storage/LibSMEambStorage.sol\":385:400  bytes('SMEamb') */\n      0x40\n      dup1\n      mload\n      dup1\n      dup3\n      add\n      dup3\n      mstore\n      0x06\n      dup1\n      dup3\n      mstore\n      0x534d45616d620000000000000000000000000000000000000000000000000000\n      0x20\n      swap3\n      dup4\n      add\n      dup2\n      swap1\n      mstore\n        /* \"/contracts/storage/LibSMEambStorage.sol\":9590:9623  _getStorage(SLOT).ownedTokens[to] */\n      0xffffffffffffffffffffffffffffffffffffffff\n      swap7\n      swap1\n      swap7\n      and\n      0x00\n      swap1\n      dup2\n      mstore\n        /* \"/contracts/storage/LibSMEambStorage.sol\":9590:9619  _getStorage(SLOT).ownedTokens */\n      0x880dcea5013c7917feacaa9870a5495e576440ae5dac799e84368c49d23bb4bc\n        /* \"/contracts/storage/LibSMEambStorage.sol\":9590:9623  _getStorage(SLOT).ownedTokens[to] */\n      dup4\n      mstore\n      dup4\n      dup2\n      keccak256\n        /* \"/contracts/storage/LibSMEambStorage.sol\":9590:9631  _getStorage(SLOT).ownedTokens[to][length] */\n      dup6\n      dup3\n      mstore\n      dup4\n      mstore\n      dup4\n      dup2\n      keccak256\n        /* \"/contracts/storage/LibSMEambStorage.sol\":9590:9641  _getStorage(SLOT).ownedTokens[to][length] = tokenId */\n      dup7\n      swap1\n      sstore\n        /* \"/contracts/storage/LibSMEambStorage.sol\":385:400  bytes('SMEamb') */\n      dup4\n      mload\n      dup1\n      dup6\n      add\n      dup6\n      mstore\n      swap2\n      dup3\n      mstore\n      swap1\n      dup3\n      add\n      swap6\n      swap1\n      swap6\n      mstore\n        /* \"/contracts/storage/LibSMEambStorage.sol\":9652:9695  _getStorage(SLOT).ownedTokensIndex[tokenId] */\n      swap3\n      dup5\n      mstore\n        /* \"/contracts/storage/LibSMEambStorage.sol\":9652:9686  _getStorage(SLOT).ownedTokensIndex */\n      0x880dcea5013c7917feacaa9870a5495e576440ae5dac799e84368c49d23bb4bd\n        /* \"/contracts/storage/LibSMEambStorage.sol\":9652:9695  _getStorage(SLOT).ownedTokensIndex[tokenId] */\n      swap1\n      swap3\n      mstore\n      swap2\n      keccak256\n        /* \"/contracts/storage/LibSMEambStorage.sol\":9652:9704  _getStorage(SLOT).ownedTokensIndex[tokenId] = length */\n      sstore\n        /* \"/contracts/storage/LibSMEambStorage.sol\":9489:9712  function addTokenToOwnerEnumeration(address to, uint256 tokenId, uint256 length) external {... */\n      jump\n        /* \"/contracts/storage/LibSMEambStorage.sol\":3359:3477  function tokenURIs(uint256 tokenId) external view returns(string memory){return _getStorage(SLOT).tokenURIs[tokenId];} */\n    tag_11:\n      tag_72\n      tag_73\n      calldatasize\n      0x04\n      tag_46\n      jump\t// in\n    tag_73:\n      tag_74\n      jump\t// in\n    tag_72:\n      mload(0x40)\n      tag_41\n      swap2\n      swap1\n      tag_76\n      jump\t// in\n        /* \"/contracts/storage/LibSMEambStorage.sol\":3755:3852  function allTokens() external view returns(uint256[] memory){return _getStorage(SLOT).allTokens;} */\n    tag_12:\n      tag_77\n      tag_78\n      jump\t// in\n    tag_77:\n      mload(0x40)\n      tag_41\n      swap2\n      swap1\n      tag_80\n      jump\t// in\n        /* \"/contracts/storage/LibSMEambStorage.sol\":3623:3749  function ownedTokensIndex(uint256 tokenId) external view returns(uint256){return _getStorage(SLOT).ownedTokensIndex[tokenId];} */\n    tag_13:\n      tag_39\n      tag_82\n      calldatasize\n      0x04\n      tag_46\n      jump\t// in\n    tag_82:\n        /* \"/contracts/storage/LibSMEambStorage.sol\":385:400  bytes('SMEamb') */\n      0x40\n      dup1\n      mload\n      dup1\n      dup3\n      add\n      dup3\n      mstore\n      0x06\n      dup2\n      mstore\n      0x534d45616d620000000000000000000000000000000000000000000000000000\n      0x20\n      swap2\n      dup3\n      add\n      mstore\n      0x00\n        /* \"/contracts/storage/LibSMEambStorage.sol\":3704:3747  _getStorage(SLOT).ownedTokensIndex[tokenId] */\n      swap3\n      dup4\n      mstore\n        /* \"/contracts/storage/LibSMEambStorage.sol\":3704:3738  _getStorage(SLOT).ownedTokensIndex */\n      0x880dcea5013c7917feacaa9870a5495e576440ae5dac799e84368c49d23bb4bd\n        /* \"/contracts/storage/LibSMEambStorage.sol\":3704:3747  _getStorage(SLOT).ownedTokensIndex[tokenId] */\n      swap1\n      mstore\n      swap1\n      keccak256\n      sload\n      swap1\n        /* \"/contracts/storage/LibSMEambStorage.sol\":3623:3749  function ownedTokensIndex(uint256 tokenId) external view returns(uint256){return _getStorage(SLOT).ownedTokensIndex[tokenId];} */\n      jump\n        /* \"/contracts/storage/LibSMEambStorage.sol\":4528:4648  function defaultTokenURI(string memory _defaultTokenURI) external{_getStorage(SLOT).defaultTokenURI = _defaultTokenURI;} */\n    tag_14:\n      dup2\n      dup1\n      iszero\n      tag_86\n      jumpi\n      0x00\n      dup1\n      revert\n    tag_86:\n      pop\n      tag_35\n      tag_88\n      calldatasize\n      0x04\n      tag_89\n      jump\t// in\n    tag_88:\n      tag_90\n      jump\t// in\n        /* \"/contracts/storage/LibSMEambStorage.sol\":5178:5288  function legendlistRoot(bytes32 _legendlistRoot) external{_getStorage(SLOT).legendlistRoot = _legendlistRoot;} */\n    tag_15:\n      dup2\n      dup1\n      iszero\n      tag_91\n      jumpi\n      0x00\n      dup1\n      revert\n    tag_91:\n      pop\n      tag_35\n      tag_93\n      calldatasize\n      0x04\n      tag_46\n      jump\t// in\n    tag_93:\n        /* \"/contracts/storage/LibSMEambStorage.sol\":385:400  bytes('SMEamb') */\n      0x40\n      dup1\n      mload\n      dup1\n      dup3\n      add\n      swap1\n      swap2\n      mstore\n      0x06\n      dup2\n      mstore\n      0x534d45616d620000000000000000000000000000000000000000000000000000\n      0x20\n      swap1\n      swap2\n      add\n      mstore\n        /* \"/contracts/storage/LibSMEambStorage.sol\":5236:5268  _getStorage(SLOT).legendlistRoot */\n      0x880dcea5013c7917feacaa9870a5495e576440ae5dac799e84368c49d23bb4c1\n        /* \"/contracts/storage/LibSMEambStorage.sol\":5236:5286  _getStorage(SLOT).legendlistRoot = _legendlistRoot */\n      sstore\n        /* \"/contracts/storage/LibSMEambStorage.sol\":5178:5288  function legendlistRoot(bytes32 _legendlistRoot) external{_getStorage(SLOT).legendlistRoot = _legendlistRoot;} */\n      jump\n        /* \"/contracts/storage/LibSMEambStorage.sol\":3247:3353  function defaultTokenURI() external view returns(string memory){return _getStorage(SLOT).defaultTokenURI;} */\n    tag_16:\n      tag_72\n      tag_96\n      jump\t// in\n        /* \"/contracts/storage/LibSMEambStorage.sol\":4414:4522  function baseTokenURI(string memory _baseTokenURI) external{_getStorage(SLOT).baseTokenURI = _baseTokenURI;} */\n    tag_17:\n      dup2\n      dup1\n      iszero\n      tag_98\n      jumpi\n      0x00\n      dup1\n      revert\n    tag_98:\n      pop\n      tag_35\n      tag_100\n      calldatasize\n      0x04\n      tag_89\n      jump\t// in\n    tag_100:\n      tag_101\n      jump\t// in\n        /* \"/contracts/storage/LibSMEambStorage.sol\":4928:5052  function ownedTokensIndex(uint256 _tokenId, uint256 _index) external{_getStorage(SLOT).ownedTokensIndex[_tokenId] = _index;} */\n    tag_18:\n      dup2\n      dup1\n      iszero\n      tag_102\n      jumpi\n      0x00\n      dup1\n      revert\n    tag_102:\n      pop\n      tag_35\n      tag_104\n      calldatasize\n      0x04\n      tag_105\n      jump\t// in\n    tag_104:\n        /* \"/contracts/storage/LibSMEambStorage.sol\":385:400  bytes('SMEamb') */\n      0x40\n      dup1\n      mload\n      dup1\n      dup3\n      add\n      dup3\n      mstore\n      0x06\n      dup2\n      mstore\n      0x534d45616d620000000000000000000000000000000000000000000000000000\n      0x20\n      swap2\n      dup3\n      add\n      mstore\n      0x00\n        /* \"/contracts/storage/LibSMEambStorage.sol\":4997:5041  _getStorage(SLOT).ownedTokensIndex[_tokenId] */\n      swap4\n      dup5\n      mstore\n        /* \"/contracts/storage/LibSMEambStorage.sol\":4997:5031  _getStorage(SLOT).ownedTokensIndex */\n      0x880dcea5013c7917feacaa9870a5495e576440ae5dac799e84368c49d23bb4bd\n        /* \"/contracts/storage/LibSMEambStorage.sol\":4997:5041  _getStorage(SLOT).ownedTokensIndex[_tokenId] */\n      swap1\n      mstore\n      swap1\n      swap2\n      keccak256\n        /* \"/contracts/storage/LibSMEambStorage.sol\":4997:5050  _getStorage(SLOT).ownedTokensIndex[_tokenId] = _index */\n      sstore\n        /* \"/contracts/storage/LibSMEambStorage.sol\":4928:5052  function ownedTokensIndex(uint256 _tokenId, uint256 _index) external{_getStorage(SLOT).ownedTokensIndex[_tokenId] = _index;} */\n      jump\n        /* \"/contracts/storage/LibSMEambStorage.sol\":5474:5591  function guaranteed_minted(address _owner, bool _bool) external{_getStorage(SLOT).guaranteed_minted[_owner] = _bool;} */\n    tag_19:\n      dup2\n      dup1\n      iszero\n      tag_107\n      jumpi\n      0x00\n      dup1\n      revert\n    tag_107:\n      pop\n      tag_35\n      tag_109\n      calldatasize\n      0x04\n      tag_110\n      jump\t// in\n    tag_109:\n        /* \"/contracts/storage/LibSMEambStorage.sol\":385:400  bytes('SMEamb') */\n      0x40\n      dup1\n      mload\n      dup1\n      dup3\n      add\n      dup3\n      mstore\n      0x06\n      dup2\n      mstore\n      0x534d45616d620000000000000000000000000000000000000000000000000000\n      0x20\n      swap2\n      dup3\n      add\n      mstore\n        /* \"/contracts/storage/LibSMEambStorage.sol\":5538:5581  _getStorage(SLOT).guaranteed_minted[_owner] */\n      0xffffffffffffffffffffffffffffffffffffffff\n      swap4\n      swap1\n      swap4\n      and\n      0x00\n      swap1\n      dup2\n      mstore\n        /* \"/contracts/storage/LibSMEambStorage.sol\":5538:5573  _getStorage(SLOT).guaranteed_minted */\n      0x880dcea5013c7917feacaa9870a5495e576440ae5dac799e84368c49d23bb4c4\n        /* \"/contracts/storage/LibSMEambStorage.sol\":5538:5581  _getStorage(SLOT).guaranteed_minted[_owner] */\n      swap1\n      swap4\n      mstore\n      swap1\n      swap2\n      keccak256\n        /* \"/contracts/storage/LibSMEambStorage.sol\":5538:5589  _getStorage(SLOT).guaranteed_minted[_owner] = _bool */\n      dup1\n      sload\n      0xffffffffffffffffffffffffffffffffffffffffffffffffffffffffffffff00\n      and\n      swap2\n      iszero\n      iszero\n      swap2\n      swap1\n      swap2\n      or\n      swap1\n      sstore\n        /* \"/contracts/storage/LibSMEambStorage.sol\":5474:5591  function guaranteed_minted(address _owner, bool _bool) external{_getStorage(SLOT).guaranteed_minted[_owner] = _bool;} */\n      jump\n        /* \"/contracts/storage/LibSMEambStorage.sol\":4250:4371  function guaranteed_minted(address owner) external view returns(bool){return _getStorage(SLOT).guaranteed_minted[owner];} */\n    tag_20:\n      tag_112\n      tag_113\n      calldatasize\n      0x04\n      tag_114\n      jump\t// in\n    tag_113:\n        /* \"/contracts/storage/LibSMEambStorage.sol\":385:400  bytes('SMEamb') */\n      0x40\n      dup1\n      mload\n      dup1\n      dup3\n      add\n      dup3\n      mstore\n      0x06\n      dup2\n      mstore\n      0x534d45616d620000000000000000000000000000000000000000000000000000\n      0x20\n      swap2\n      dup3\n      add\n      mstore\n        /* \"/contracts/storage/LibSMEambStorage.sol\":4327:4369  _getStorage(SLOT).guaranteed_minted[owner] */\n      0xffffffffffffffffffffffffffffffffffffffff\n      swap3\n      swap1\n      swap3\n      and\n      0x00\n      swap1\n      dup2\n      mstore\n        /* \"/contracts/storage/LibSMEambStorage.sol\":4327:4362  _getStorage(SLOT).guaranteed_minted */\n      0x880dcea5013c7917feacaa9870a5495e576440ae5dac799e84368c49d23bb4c4\n        /* \"/contracts/storage/LibSMEambStorage.sol\":4327:4369  _getStorage(SLOT).guaranteed_minted[owner] */\n      swap1\n      swap3\n      mstore\n      swap1\n      keccak256\n      sload\n      0xff\n      and\n      swap1\n        /* \"/contracts/storage/LibSMEambStorage.sol\":4250:4371  function guaranteed_minted(address owner) external view returns(bool){return _getStorage(SLOT).guaranteed_minted[owner];} */\n      jump\n    tag_112:\n      mload(0x40)\n        /* \"#utility.yul\":4825:4839   */\n      swap1\n      iszero\n        /* \"#utility.yul\":4818:4840   */\n      iszero\n        /* \"#utility.yul\":4800:4841   */\n      dup2\n      mstore\n        /* \"#utility.yul\":4788:4790   */\n      0x20\n        /* \"#utility.yul\":4773:4791   */\n      add\n        /* \"/contracts/storage/LibSMEambStorage.sol\":4250:4371  function guaranteed_minted(address owner) external view returns(bool){return _getStorage(SLOT).guaranteed_minted[owner];} */\n      tag_41\n        /* \"#utility.yul\":4652:4847   */\n      jump\n        /* \"/contracts/storage/LibSMEambStorage.sol\":3141:3241  function baseTokenURI() external view returns(string memory){return _getStorage(SLOT).baseTokenURI;} */\n    tag_21:\n      tag_72\n      tag_119\n      jump\t// in\n        /* \"/contracts/storage/LibSMEambStorage.sol\":7294:7509  function addTokenToAllTokensEnumeration(uint256 tokenId) external {... */\n    tag_22:\n      dup2\n      dup1\n      iszero\n      tag_121\n      jumpi\n      0x00\n      dup1\n      revert\n    tag_121:\n      pop\n      tag_35\n      tag_123\n      calldatasize\n      0x04\n      tag_46\n      jump\t// in\n    tag_123:\n        /* \"/contracts/storage/LibSMEambStorage.sol\":385:400  bytes('SMEamb') */\n      0x40\n      dup1\n      mload\n      dup1\n      dup3\n      add\n      dup3\n      mstore\n      0x06\n      dup1\n      dup3\n      mstore\n      0x534d45616d620000000000000000000000000000000000000000000000000000\n      0x20\n      swap3\n      dup4\n      add\n      dup2\n      swap1\n      mstore\n        /* \"/contracts/storage/LibSMEambStorage.sol\":7415:7442  _getStorage(SLOT).allTokens */\n      0x880dcea5013c7917feacaa9870a5495e576440ae5dac799e84368c49d23bb4be\n        /* \"/contracts/storage/LibSMEambStorage.sol\":7415:7449  _getStorage(SLOT).allTokens.length */\n      dup1\n      sload\n        /* \"/contracts/storage/LibSMEambStorage.sol\":385:400  bytes('SMEamb') */\n      dup6\n      mload\n      dup1\n      dup8\n      add\n      dup8\n      mstore\n      dup5\n      dup2\n      mstore\n      dup6\n      add\n      dup4\n      swap1\n      mstore\n      0x00\n        /* \"/contracts/storage/LibSMEambStorage.sol\":7371:7412  _getStorage(SLOT).allTokensIndex[tokenId] */\n      dup8\n      dup2\n      mstore\n        /* \"/contracts/storage/LibSMEambStorage.sol\":7371:7403  _getStorage(SLOT).allTokensIndex */\n      0x880dcea5013c7917feacaa9870a5495e576440ae5dac799e84368c49d23bb4bf\n        /* \"/contracts/storage/LibSMEambStorage.sol\":7371:7412  _getStorage(SLOT).allTokensIndex[tokenId] */\n      dup7\n      mstore\n      dup7\n      dup2\n      keccak256\n        /* \"/contracts/storage/LibSMEambStorage.sol\":7371:7449  _getStorage(SLOT).allTokensIndex[tokenId] = _getStorage(SLOT).allTokens.length */\n      dup3\n      swap1\n      sstore\n        /* \"/contracts/storage/LibSMEambStorage.sol\":385:400  bytes('SMEamb') */\n      dup7\n      mload\n      dup1\n      dup9\n      add\n      swap1\n      swap8\n      mstore\n      swap4\n      dup7\n      mstore\n      swap5\n      swap1\n      swap4\n      add\n      mstore\n        /* \"/contracts/storage/LibSMEambStorage.sol\":7460:7501  _getStorage(SLOT).allTokens.push(tokenId) */\n      0x01\n      dup4\n      add\n      dup3\n      sstore\n      mstore\n      0x39ce0d6ff24e22f06f840506961de0149fbe0138c080f44ce540e31f2a1c880b\n      add\n      sstore\n        /* \"/contracts/storage/LibSMEambStorage.sol\":7294:7509  function addTokenToAllTokensEnumeration(uint256 tokenId) external {... */\n      jump\n        /* \"/contracts/storage/LibSMEambStorage.sol\":4168:4244  function fee() external view returns(uint256){return _getStorage(SLOT).fee;} */\n    tag_23:\n        /* \"/contracts/storage/LibSMEambStorage.sol\":385:400  bytes('SMEamb') */\n      0x40\n      dup1\n      mload\n      dup1\n      dup3\n      add\n      swap1\n      swap2\n      mstore\n      0x06\n      dup2\n      mstore\n      0x534d45616d620000000000000000000000000000000000000000000000000000\n      0x20\n      swap1\n      swap2\n      add\n      mstore\n        /* \"/contracts/storage/LibSMEambStorage.sol\":4221:4242  _getStorage(SLOT).fee */\n      sload(0x880dcea5013c7917feacaa9870a5495e576440ae5dac799e84368c49d23bb4c3)\n        /* \"/contracts/storage/LibSMEambStorage.sol\":4168:4244  function fee() external view returns(uint256){return _getStorage(SLOT).fee;} */\n      jump(tag_39)\n        /* \"/contracts/storage/LibSMEambStorage.sol\":4654:4778  function tokenURIs(string memory _tokenURIs, uint256 _tokenId) external{_getStorage(SLOT).tokenURIs[_tokenId] = _tokenURIs;} */\n    tag_24:\n      dup2\n      dup1\n      iszero\n      tag_128\n      jumpi\n      0x00\n      dup1\n      revert\n    tag_128:\n      pop\n      tag_35\n      tag_130\n      calldatasize\n      0x04\n      tag_131\n      jump\t// in\n    tag_130:\n      tag_132\n      jump\t// in\n        /* \"/contracts/storage/LibSMEambStorage.sol\":3483:3617  function ownedTokens(address owner, uint256 index) external view returns(uint256){return _getStorage(SLOT).ownedTokens[owner][index];} */\n    tag_25:\n      tag_39\n      tag_134\n      calldatasize\n      0x04\n      tag_135\n      jump\t// in\n    tag_134:\n      tag_136\n      jump\t// in\n        /* \"/contracts/storage/LibSMEambStorage.sol\":3964:4062  function legendlistRoot() external view returns(bytes32){return _getStorage(SLOT).legendlistRoot;} */\n    tag_26:\n        /* \"/contracts/storage/LibSMEambStorage.sol\":385:400  bytes('SMEamb') */\n      0x40\n      dup1\n      mload\n      dup1\n      dup3\n      add\n      swap1\n      swap2\n      mstore\n      0x06\n      dup2\n      mstore\n      0x534d45616d620000000000000000000000000000000000000000000000000000\n      0x20\n      swap1\n      swap2\n      add\n      mstore\n        /* \"/contracts/storage/LibSMEambStorage.sol\":4028:4060  _getStorage(SLOT).legendlistRoot */\n      sload(0x880dcea5013c7917feacaa9870a5495e576440ae5dac799e84368c49d23bb4c1)\n        /* \"/contracts/storage/LibSMEambStorage.sol\":3964:4062  function legendlistRoot() external view returns(bytes32){return _getStorage(SLOT).legendlistRoot;} */\n      jump(tag_39)\n        /* \"/contracts/storage/LibSMEambStorage.sol\":8136:9188  function removeTokenFromOwnerEnumeration(address from, uint256 tokenId, uint256 lastTokenIndex) external {... */\n    tag_38:\n        /* \"/contracts/storage/LibSMEambStorage.sol\":385:400  bytes('SMEamb') */\n      0x40\n      dup1\n      mload\n      dup1\n      dup3\n      add\n      dup3\n      mstore\n      0x06\n      dup2\n      mstore\n      0x534d45616d620000000000000000000000000000000000000000000000000000\n      0x20\n      swap2\n      dup3\n      add\n      mstore\n      0x00\n        /* \"/contracts/storage/LibSMEambStorage.sol\":8447:8490  _getStorage(SLOT).ownedTokensIndex[tokenId] */\n      dup5\n      dup2\n      mstore\n        /* \"/contracts/storage/LibSMEambStorage.sol\":8447:8481  _getStorage(SLOT).ownedTokensIndex */\n      0x880dcea5013c7917feacaa9870a5495e576440ae5dac799e84368c49d23bb4bd\n        /* \"/contracts/storage/LibSMEambStorage.sol\":8447:8490  _getStorage(SLOT).ownedTokensIndex[tokenId] */\n      swap1\n      swap2\n      mstore\n      keccak256\n      sload\n        /* \"/contracts/storage/LibSMEambStorage.sol\":8597:8625  tokenIndex != lastTokenIndex */\n      dup2\n      dup2\n      eq\n        /* \"/contracts/storage/LibSMEambStorage.sol\":8593:8972  if (tokenIndex != lastTokenIndex) {... */\n      tag_144\n      jumpi\n        /* \"/contracts/storage/LibSMEambStorage.sol\":385:400  bytes('SMEamb') */\n      0x40\n      dup1\n      mload\n      dup1\n      dup3\n      add\n      dup3\n      mstore\n      0x06\n      dup1\n      dup3\n      mstore\n      0x534d45616d620000000000000000000000000000000000000000000000000000\n      0x20\n      swap3\n      dup4\n      add\n      dup2\n      swap1\n      mstore\n        /* \"/contracts/storage/LibSMEambStorage.sol\":8664:8699  _getStorage(SLOT).ownedTokens[from] */\n      0xffffffffffffffffffffffffffffffffffffffff\n      dup9\n      and\n      0x00\n      swap1\n      dup2\n      mstore\n        /* \"/contracts/storage/LibSMEambStorage.sol\":8664:8693  _getStorage(SLOT).ownedTokens */\n      0x880dcea5013c7917feacaa9870a5495e576440ae5dac799e84368c49d23bb4bc\n        /* \"/contracts/storage/LibSMEambStorage.sol\":8664:8699  _getStorage(SLOT).ownedTokens[from] */\n      dup5\n      mstore\n      dup5\n      dup2\n      keccak256\n        /* \"/contracts/storage/LibSMEambStorage.sol\":8664:8715  _getStorage(SLOT).ownedTokens[from][lastTokenIndex] */\n      dup8\n      dup3\n      mstore\n      dup1\n      dup6\n      mstore\n      dup6\n      dup3\n      keccak256\n      sload\n        /* \"/contracts/storage/LibSMEambStorage.sol\":385:400  bytes('SMEamb') */\n      dup7\n      mload\n      dup1\n      dup9\n      add\n      dup9\n      mstore\n      dup6\n      dup2\n      mstore\n      dup7\n      add\n      dup5\n      swap1\n      mstore\n        /* \"/contracts/storage/LibSMEambStorage.sol\":8732:8779  _getStorage(SLOT).ownedTokens[from][tokenIndex] */\n      dup8\n      dup4\n      mstore\n      swap1\n      dup6\n      mstore\n      dup6\n      dup3\n      keccak256\n        /* \"/contracts/storage/LibSMEambStorage.sol\":8732:8793  _getStorage(SLOT).ownedTokens[from][tokenIndex] = lastTokenId */\n      dup2\n      swap1\n      sstore\n        /* \"/contracts/storage/LibSMEambStorage.sol\":385:400  bytes('SMEamb') */\n      dup6\n      mload\n      dup1\n      dup8\n      add\n      dup8\n      mstore\n      swap4\n      dup5\n      mstore\n      swap3\n      dup5\n      add\n      swap2\n      swap1\n      swap2\n      mstore\n        /* \"/contracts/storage/LibSMEambStorage.sol\":8866:8913  _getStorage(SLOT).ownedTokensIndex[lastTokenId] */\n      swap1\n      dup2\n      mstore\n        /* \"/contracts/storage/LibSMEambStorage.sol\":8866:8900  _getStorage(SLOT).ownedTokensIndex */\n      0x880dcea5013c7917feacaa9870a5495e576440ae5dac799e84368c49d23bb4bd\n        /* \"/contracts/storage/LibSMEambStorage.sol\":8866:8913  _getStorage(SLOT).ownedTokensIndex[lastTokenId] */\n      swap1\n      swap2\n      mstore\n      keccak256\n        /* \"/contracts/storage/LibSMEambStorage.sol\":8866:8926  _getStorage(SLOT).ownedTokensIndex[lastTokenId] = tokenIndex */\n      dup2\n      swap1\n      sstore\n        /* \"/contracts/storage/LibSMEambStorage.sol\":8593:8972  if (tokenIndex != lastTokenIndex) {... */\n    tag_144:\n      pop\n        /* \"/contracts/storage/LibSMEambStorage.sol\":385:400  bytes('SMEamb') */\n      0x40\n      dup1\n      mload\n      dup1\n      dup3\n      add\n      dup3\n      mstore\n      0x06\n      dup1\n      dup3\n      mstore\n      0x534d45616d620000000000000000000000000000000000000000000000000000\n      0x20\n      swap3\n      dup4\n      add\n      dup2\n      swap1\n      mstore\n      0x00\n        /* \"/contracts/storage/LibSMEambStorage.sol\":9068:9111  _getStorage(SLOT).ownedTokensIndex[tokenId] */\n      swap6\n      dup7\n      mstore\n        /* \"/contracts/storage/LibSMEambStorage.sol\":9068:9102  _getStorage(SLOT).ownedTokensIndex */\n      0x880dcea5013c7917feacaa9870a5495e576440ae5dac799e84368c49d23bb4bd\n        /* \"/contracts/storage/LibSMEambStorage.sol\":9068:9111  _getStorage(SLOT).ownedTokensIndex[tokenId] */\n      dup4\n      mstore\n      dup4\n      dup7\n      keccak256\n        /* \"/contracts/storage/LibSMEambStorage.sol\":9061:9111  delete _getStorage(SLOT).ownedTokensIndex[tokenId] */\n      dup7\n      swap1\n      sstore\n        /* \"/contracts/storage/LibSMEambStorage.sol\":385:400  bytes('SMEamb') */\n      dup4\n      mload\n      dup1\n      dup6\n      add\n      dup6\n      mstore\n      swap2\n      dup3\n      mstore\n      swap1\n      dup3\n      add\n      mstore\n        /* \"/contracts/storage/LibSMEambStorage.sol\":9129:9164  _getStorage(SLOT).ownedTokens[from] */\n      0xffffffffffffffffffffffffffffffffffffffff\n      swap5\n      swap1\n      swap5\n      and\n      dup4\n      mstore\n        /* \"/contracts/storage/LibSMEambStorage.sol\":9129:9158  _getStorage(SLOT).ownedTokens */\n      0x880dcea5013c7917feacaa9870a5495e576440ae5dac799e84368c49d23bb4bc\n        /* \"/contracts/storage/LibSMEambStorage.sol\":9129:9164  _getStorage(SLOT).ownedTokens[from] */\n      dup5\n      mstore\n      dup1\n      dup4\n      keccak256\n        /* \"/contracts/storage/LibSMEambStorage.sol\":9129:9180  _getStorage(SLOT).ownedTokens[from][lastTokenIndex] */\n      swap2\n      dup4\n      mstore\n      swap3\n      mstore\n      swap1\n      dup2\n      keccak256\n        /* \"/contracts/storage/LibSMEambStorage.sol\":9122:9180  delete _getStorage(SLOT).ownedTokens[from][lastTokenIndex] */\n      sstore\n        /* \"/contracts/storage/LibSMEambStorage.sol\":8136:9188  function removeTokenFromOwnerEnumeration(address from, uint256 tokenId, uint256 lastTokenIndex) external {... */\n      jump\t// out\n        /* \"/contracts/storage/LibSMEambStorage.sol\":5890:7092  function removeTokenFromAllTokensEnumeration(uint256 tokenId) external {... */\n    tag_63:\n        /* \"/contracts/storage/LibSMEambStorage.sol\":385:400  bytes('SMEamb') */\n      0x40\n      dup1\n      mload\n      dup1\n      dup3\n      add\n      swap1\n      swap2\n      mstore\n      0x06\n      dup2\n      mstore\n      0x534d45616d620000000000000000000000000000000000000000000000000000\n      0x20\n      swap1\n      swap2\n      add\n      mstore\n        /* \"/contracts/storage/LibSMEambStorage.sol\":6172:6199  _getStorage(SLOT).allTokens */\n      0x880dcea5013c7917feacaa9870a5495e576440ae5dac799e84368c49d23bb4be\n        /* \"/contracts/storage/LibSMEambStorage.sol\":6172:6206  _getStorage(SLOT).allTokens.length */\n      sload\n      0x00\n      swap1\n        /* \"/contracts/storage/LibSMEambStorage.sol\":6172:6210  _getStorage(SLOT).allTokens.length - 1 */\n      tag_162\n      swap1\n        /* \"/contracts/storage/LibSMEambStorage.sol\":6209:6210  1 */\n      0x01\n      swap1\n        /* \"/contracts/storage/LibSMEambStorage.sol\":6172:6210  _getStorage(SLOT).allTokens.length - 1 */\n      tag_163\n      jump\t// in\n    tag_162:\n        /* \"/contracts/storage/LibSMEambStorage.sol\":385:400  bytes('SMEamb') */\n      0x40\n      dup1\n      mload\n      dup1\n      dup3\n      add\n      dup3\n      mstore\n      0x06\n      dup1\n      dup3\n      mstore\n      0x534d45616d620000000000000000000000000000000000000000000000000000\n      0x20\n      swap3\n      dup4\n      add\n      dup2\n      swap1\n      mstore\n      0x00\n        /* \"/contracts/storage/LibSMEambStorage.sol\":6242:6283  _getStorage(SLOT).allTokensIndex[tokenId] */\n      dup8\n      dup2\n      mstore\n        /* \"/contracts/storage/LibSMEambStorage.sol\":6242:6274  _getStorage(SLOT).allTokensIndex */\n      0x880dcea5013c7917feacaa9870a5495e576440ae5dac799e84368c49d23bb4bf\n        /* \"/contracts/storage/LibSMEambStorage.sol\":6242:6283  _getStorage(SLOT).allTokensIndex[tokenId] */\n      dup5\n      mstore\n      dup5\n      dup2\n      keccak256\n      sload\n        /* \"/contracts/storage/LibSMEambStorage.sol\":385:400  bytes('SMEamb') */\n      dup6\n      mload\n      dup1\n      dup8\n      add\n      swap1\n      swap7\n      mstore\n      swap3\n      dup6\n      mstore\n      swap4\n      swap1\n      swap3\n      add\n      swap2\n      swap1\n      swap2\n      mstore\n        /* \"/contracts/storage/LibSMEambStorage.sol\":6632:6659  _getStorage(SLOT).allTokens */\n      0x880dcea5013c7917feacaa9870a5495e576440ae5dac799e84368c49d23bb4be\n        /* \"/contracts/storage/LibSMEambStorage.sol\":6632:6675  _getStorage(SLOT).allTokens[lastTokenIndex] */\n      dup1\n      sload\n        /* \"/contracts/storage/LibSMEambStorage.sol\":6147:6210  uint256 lastTokenIndex = _getStorage(SLOT).allTokens.length - 1 */\n      swap4\n      swap5\n      pop\n        /* \"/contracts/storage/LibSMEambStorage.sol\":6242:6283  _getStorage(SLOT).allTokensIndex[tokenId] */\n      swap1\n      swap3\n        /* \"/contracts/storage/LibSMEambStorage.sol\":6147:6210  uint256 lastTokenIndex = _getStorage(SLOT).allTokens.length - 1 */\n      dup5\n      swap1\n        /* \"/contracts/storage/LibSMEambStorage.sol\":6632:6675  _getStorage(SLOT).allTokens[lastTokenIndex] */\n      dup2\n      lt\n      tag_167\n      jumpi\n      tag_167\n      tag_168\n      jump\t// in\n    tag_167:\n      0x00\n      swap2\n      dup3\n      mstore\n      0x20\n      swap2\n      dup3\n      swap1\n      keccak256\n      add\n      sload\n        /* \"/contracts/storage/LibSMEambStorage.sol\":385:400  bytes('SMEamb') */\n      0x40\n      dup1\n      mload\n      dup1\n      dup3\n      add\n      swap1\n      swap2\n      mstore\n      0x06\n      dup2\n      mstore\n      0x534d45616d620000000000000000000000000000000000000000000000000000\n      swap3\n      add\n      swap2\n      swap1\n      swap2\n      mstore\n        /* \"/contracts/storage/LibSMEambStorage.sol\":6632:6675  _getStorage(SLOT).allTokens[lastTokenIndex] */\n      swap1\n      pop\n      dup1\n        /* \"/contracts/storage/LibSMEambStorage.sol\":375:401  keccak256(bytes('SMEamb')) */\n      0x880dcea5013c7917feacaa9870a5495e576440ae5dac799e84368c49d23bb4b9\n        /* \"/contracts/storage/LibSMEambStorage.sol\":6688:6715  _getStorage(SLOT).allTokens */\n      0x05\n      add\n        /* \"/contracts/storage/LibSMEambStorage.sol\":6716:6726  tokenIndex */\n      dup4\n        /* \"/contracts/storage/LibSMEambStorage.sol\":6688:6727  _getStorage(SLOT).allTokens[tokenIndex] */\n      dup2\n      sload\n      dup2\n      lt\n      tag_172\n      jumpi\n      tag_172\n      tag_168\n      jump\t// in\n    tag_172:\n      0x00\n      swap2\n      dup3\n      mstore\n      0x20\n      dup1\n      dup4\n      keccak256\n      swap2\n      swap1\n      swap2\n      add\n        /* \"/contracts/storage/LibSMEambStorage.sol\":6688:6741  _getStorage(SLOT).allTokens[tokenIndex] = lastTokenId */\n      swap3\n      swap1\n      swap3\n      sstore\n        /* \"/contracts/storage/LibSMEambStorage.sol\":385:400  bytes('SMEamb') */\n      0x40\n      dup1\n      mload\n      dup1\n      dup3\n      add\n      dup3\n      mstore\n      0x06\n      dup1\n      dup3\n      mstore\n      0x534d45616d620000000000000000000000000000000000000000000000000000\n      swap2\n      dup6\n      add\n      dup3\n      swap1\n      mstore\n        /* \"/contracts/storage/LibSMEambStorage.sol\":6810:6855  _getStorage(SLOT).allTokensIndex[lastTokenId] */\n      dup6\n      dup5\n      mstore\n        /* \"/contracts/storage/LibSMEambStorage.sol\":6810:6842  _getStorage(SLOT).allTokensIndex */\n      0x880dcea5013c7917feacaa9870a5495e576440ae5dac799e84368c49d23bb4bf\n        /* \"/contracts/storage/LibSMEambStorage.sol\":6810:6855  _getStorage(SLOT).allTokensIndex[lastTokenId] */\n      dup1\n      dup7\n      mstore\n      dup4\n      dup6\n      keccak256\n        /* \"/contracts/storage/LibSMEambStorage.sol\":6810:6868  _getStorage(SLOT).allTokensIndex[lastTokenId] = tokenIndex */\n      dup9\n      swap1\n      sstore\n        /* \"/contracts/storage/LibSMEambStorage.sol\":385:400  bytes('SMEamb') */\n      dup4\n      mload\n      dup1\n      dup6\n      add\n      dup6\n      mstore\n      dup3\n      dup2\n      mstore\n      dup7\n      add\n      dup4\n      swap1\n      mstore\n        /* \"/contracts/storage/LibSMEambStorage.sol\":6999:7040  _getStorage(SLOT).allTokensIndex[tokenId] */\n      dup10\n      dup6\n      mstore\n      dup6\n      mstore\n      dup3\n      dup5\n      keccak256\n        /* \"/contracts/storage/LibSMEambStorage.sol\":6992:7040  delete _getStorage(SLOT).allTokensIndex[tokenId] */\n      swap4\n      swap1\n      swap4\n      sstore\n        /* \"/contracts/storage/LibSMEambStorage.sol\":385:400  bytes('SMEamb') */\n      dup2\n      mload\n      dup1\n      dup4\n      add\n      swap1\n      swap3\n      mstore\n      swap2\n      dup2\n      mstore\n      swap1\n      swap2\n      add\n      mstore\n        /* \"/contracts/storage/LibSMEambStorage.sol\":7051:7078  _getStorage(SLOT).allTokens */\n      0x880dcea5013c7917feacaa9870a5495e576440ae5dac799e84368c49d23bb4be\n        /* \"/contracts/storage/LibSMEambStorage.sol\":7051:7084  _getStorage(SLOT).allTokens.pop() */\n      dup1\n      sload\n      dup1\n      tag_178\n      jumpi\n      tag_178\n      tag_179\n      jump\t// in\n    tag_178:\n      0x01\n      swap1\n      sub\n      dup2\n      dup2\n      swap1\n      0x00\n      mstore\n      keccak256(0x00, 0x20)\n      add\n      0x00\n      swap1\n      sstore\n      swap1\n      sstore\n        /* \"/contracts/storage/LibSMEambStorage.sol\":5961:7092  {... */\n      pop\n      pop\n      pop\n        /* \"/contracts/storage/LibSMEambStorage.sol\":5890:7092  function removeTokenFromAllTokensEnumeration(uint256 tokenId) external {... */\n      pop\n      jump\t// out\n        /* \"/contracts/storage/LibSMEambStorage.sol\":3359:3477  function tokenURIs(uint256 tokenId) external view returns(string memory){return _getStorage(SLOT).tokenURIs[tokenId];} */\n    tag_74:\n        /* \"/contracts/storage/LibSMEambStorage.sol\":385:400  bytes('SMEamb') */\n      0x40\n      dup1\n      mload\n      dup1\n      dup3\n      add\n      dup3\n      mstore\n      0x06\n      dup2\n      mstore\n      0x534d45616d620000000000000000000000000000000000000000000000000000\n      0x20\n      swap2\n      dup3\n      add\n      mstore\n      0x00\n        /* \"/contracts/storage/LibSMEambStorage.sol\":3439:3475  _getStorage(SLOT).tokenURIs[tokenId] */\n      dup4\n      dup2\n      mstore\n        /* \"/contracts/storage/LibSMEambStorage.sol\":3439:3466  _getStorage(SLOT).tokenURIs */\n      0x880dcea5013c7917feacaa9870a5495e576440ae5dac799e84368c49d23bb4bb\n        /* \"/contracts/storage/LibSMEambStorage.sol\":3439:3475  _getStorage(SLOT).tokenURIs[tokenId] */\n      swap1\n      swap2\n      mstore\n      keccak256\n        /* \"/contracts/storage/LibSMEambStorage.sol\":3432:3475  return _getStorage(SLOT).tokenURIs[tokenId] */\n      dup1\n      sload\n        /* \"/contracts/storage/LibSMEambStorage.sol\":3417:3430  string memory */\n      0x60\n      swap2\n        /* \"/contracts/storage/LibSMEambStorage.sol\":3439:3475  _getStorage(SLOT).tokenURIs[tokenId] */\n      swap1\n        /* \"/contracts/storage/LibSMEambStorage.sol\":3432:3475  return _getStorage(SLOT).tokenURIs[tokenId] */\n      tag_188\n      swap1\n      tag_189\n      jump\t// in\n    tag_188:\n      dup1\n      0x1f\n      add\n      0x20\n      dup1\n      swap2\n      div\n      mul\n      0x20\n      add\n      mload(0x40)\n      swap1\n      dup2\n      add\n      0x40\n      mstore\n      dup1\n      swap3\n      swap2\n      swap1\n      dup2\n      dup2\n      mstore\n      0x20\n      add\n      dup3\n      dup1\n      sload\n      tag_190\n      swap1\n      tag_189\n      jump\t// in\n    tag_190:\n      dup1\n      iszero\n      tag_191\n      jumpi\n      dup1\n      0x1f\n      lt\n      tag_192\n      jumpi\n      0x0100\n      dup1\n      dup4\n      sload\n      div\n      mul\n      dup4\n      mstore\n      swap2\n      0x20\n      add\n      swap2\n      jump(tag_191)\n    tag_192:\n      dup3\n      add\n      swap2\n      swap1\n      0x00\n      mstore\n      keccak256(0x00, 0x20)\n      swap1\n    tag_193:\n      dup2\n      sload\n      dup2\n      mstore\n      swap1\n      0x01\n      add\n      swap1\n      0x20\n      add\n      dup1\n      dup4\n      gt\n      tag_193\n      jumpi\n      dup3\n      swap1\n      sub\n      0x1f\n      and\n      dup3\n      add\n      swap2\n    tag_191:\n      pop\n      pop\n      pop\n      pop\n      pop\n      swap1\n      pop\n        /* \"/contracts/storage/LibSMEambStorage.sol\":3359:3477  function tokenURIs(uint256 tokenId) external view returns(string memory){return _getStorage(SLOT).tokenURIs[tokenId];} */\n      swap2\n      swap1\n      pop\n      jump\t// out\n        /* \"/contracts/storage/LibSMEambStorage.sol\":3755:3852  function allTokens() external view returns(uint256[] memory){return _getStorage(SLOT).allTokens;} */\n    tag_78:\n        /* \"/contracts/storage/LibSMEambStorage.sol\":385:400  bytes('SMEamb') */\n      0x40\n      dup1\n      mload\n      dup1\n      dup3\n      add\n      dup3\n      mstore\n      0x06\n      dup2\n      mstore\n      0x534d45616d620000000000000000000000000000000000000000000000000000\n      0x20\n      swap2\n      dup3\n      add\n      mstore\n        /* \"/contracts/storage/LibSMEambStorage.sol\":3823:3850  _getStorage(SLOT).allTokens */\n      0x880dcea5013c7917feacaa9870a5495e576440ae5dac799e84368c49d23bb4be\n        /* \"/contracts/storage/LibSMEambStorage.sol\":3816:3850  return _getStorage(SLOT).allTokens */\n      dup1\n      sload\n      dup4\n      mload\n      dup2\n      dup5\n      mul\n      dup2\n      add\n      dup5\n      add\n      swap1\n      swap5\n      mstore\n      dup1\n      dup5\n      mstore\n        /* \"/contracts/storage/LibSMEambStorage.sol\":3798:3814  uint256[] memory */\n      0x60\n      swap4\n        /* \"/contracts/storage/LibSMEambStorage.sol\":3816:3850  return _getStorage(SLOT).allTokens */\n      swap3\n      dup4\n      add\n        /* \"/contracts/storage/LibSMEambStorage.sol\":3823:3850  _getStorage(SLOT).allTokens */\n      dup3\n        /* \"/contracts/storage/LibSMEambStorage.sol\":3816:3850  return _getStorage(SLOT).allTokens */\n      dup3\n      dup1\n      iszero\n      tag_196\n      jumpi\n      0x20\n      mul\n      dup3\n      add\n      swap2\n      swap1\n      0x00\n      mstore\n      keccak256(0x00, 0x20)\n      swap1\n    tag_197:\n      dup2\n      sload\n      dup2\n      mstore\n      0x20\n      add\n      swap1\n      0x01\n      add\n      swap1\n      dup1\n      dup4\n      gt\n      tag_197\n      jumpi\n    tag_196:\n      pop\n      pop\n      pop\n      pop\n      pop\n      swap1\n      pop\n        /* \"/contracts/storage/LibSMEambStorage.sol\":3755:3852  function allTokens() external view returns(uint256[] memory){return _getStorage(SLOT).allTokens;} */\n      swap1\n      jump\t// out\n        /* \"/contracts/storage/LibSMEambStorage.sol\":4528:4648  function defaultTokenURI(string memory _defaultTokenURI) external{_getStorage(SLOT).defaultTokenURI = _defaultTokenURI;} */\n    tag_90:\n        /* \"/contracts/storage/LibSMEambStorage.sol\":385:400  bytes('SMEamb') */\n      0x40\n      dup1\n      mload\n      dup1\n      dup3\n      add\n      swap1\n      swap2\n      mstore\n      0x06\n      dup2\n      mstore\n      0x534d45616d620000000000000000000000000000000000000000000000000000\n      0x20\n      swap1\n      swap2\n      add\n      mstore\n        /* \"/contracts/storage/LibSMEambStorage.sol\":4594:4627  _getStorage(SLOT).defaultTokenURI */\n      0x880dcea5013c7917feacaa9870a5495e576440ae5dac799e84368c49d23bb4ba\n        /* \"/contracts/storage/LibSMEambStorage.sol\":4594:4646  _getStorage(SLOT).defaultTokenURI = _defaultTokenURI */\n      tag_202\n        /* \"/contracts/storage/LibSMEambStorage.sol\":4630:4646  _defaultTokenURI */\n      dup3\n        /* \"/contracts/storage/LibSMEambStorage.sol\":4594:4627  _getStorage(SLOT).defaultTokenURI */\n      dup3\n        /* \"/contracts/storage/LibSMEambStorage.sol\":4594:4646  _getStorage(SLOT).defaultTokenURI = _defaultTokenURI */\n      tag_203\n      jump\t// in\n    tag_202:\n      pop\n        /* \"/contracts/storage/LibSMEambStorage.sol\":4528:4648  function defaultTokenURI(string memory _defaultTokenURI) external{_getStorage(SLOT).defaultTokenURI = _defaultTokenURI;} */\n      pop\n      jump\t// out\n        /* \"/contracts/storage/LibSMEambStorage.sol\":3247:3353  function defaultTokenURI() external view returns(string memory){return _getStorage(SLOT).defaultTokenURI;} */\n    tag_96:\n        /* \"/contracts/storage/LibSMEambStorage.sol\":385:400  bytes('SMEamb') */\n      0x40\n      dup1\n      mload\n      dup1\n      dup3\n      add\n      swap1\n      swap2\n      mstore\n      0x06\n      dup2\n      mstore\n      0x534d45616d620000000000000000000000000000000000000000000000000000\n      0x20\n      swap1\n      swap2\n      add\n      mstore\n        /* \"/contracts/storage/LibSMEambStorage.sol\":3296:3309  string memory */\n      0x60\n        /* \"/contracts/storage/LibSMEambStorage.sol\":375:401  keccak256(bytes('SMEamb')) */\n      0x880dcea5013c7917feacaa9870a5495e576440ae5dac799e84368c49d23bb4b9\n        /* \"/contracts/storage/LibSMEambStorage.sol\":3318:3351  _getStorage(SLOT).defaultTokenURI */\n      0x01\n      add\n        /* \"/contracts/storage/LibSMEambStorage.sol\":3311:3351  return _getStorage(SLOT).defaultTokenURI */\n      dup1\n      sload\n      tag_208\n      swap1\n      tag_189\n      jump\t// in\n    tag_208:\n      dup1\n      0x1f\n      add\n      0x20\n      dup1\n      swap2\n      div\n      mul\n      0x20\n      add\n      mload(0x40)\n      swap1\n      dup2\n      add\n      0x40\n      mstore\n      dup1\n      swap3\n      swap2\n      swap1\n      dup2\n      dup2\n      mstore\n      0x20\n      add\n      dup3\n      dup1\n      sload\n      tag_209\n      swap1\n      tag_189\n      jump\t// in\n    tag_209:\n      dup1\n      iszero\n      tag_196\n      jumpi\n      dup1\n      0x1f\n      lt\n      tag_211\n      jumpi\n      0x0100\n      dup1\n      dup4\n      sload\n      div\n      mul\n      dup4\n      mstore\n      swap2\n      0x20\n      add\n      swap2\n      jump(tag_196)\n    tag_211:\n      dup3\n      add\n      swap2\n      swap1\n      0x00\n      mstore\n      keccak256(0x00, 0x20)\n      swap1\n    tag_212:\n      dup2\n      sload\n      dup2\n      mstore\n      swap1\n      0x01\n      add\n      swap1\n      0x20\n      add\n      dup1\n      dup4\n      gt\n      tag_212\n      jumpi\n      pop\n      swap4\n      swap6\n        /* \"/contracts/storage/LibSMEambStorage.sol\":3247:3353  function defaultTokenURI() external view returns(string memory){return _getStorage(SLOT).defaultTokenURI;} */\n      swap5\n      pop\n      pop\n      pop\n      pop\n      pop\n      jump\t// out\n        /* \"/contracts/storage/LibSMEambStorage.sol\":4414:4522  function baseTokenURI(string memory _baseTokenURI) external{_getStorage(SLOT).baseTokenURI = _baseTokenURI;} */\n    tag_101:\n        /* \"/contracts/storage/LibSMEambStorage.sol\":385:400  bytes('SMEamb') */\n      0x40\n      dup1\n      mload\n      dup1\n      dup3\n      add\n      swap1\n      swap2\n      mstore\n      0x06\n      dup2\n      mstore\n      0x534d45616d620000000000000000000000000000000000000000000000000000\n      0x20\n      swap1\n      swap2\n      add\n      mstore\n        /* \"/contracts/storage/LibSMEambStorage.sol\":375:401  keccak256(bytes('SMEamb')) */\n      0x880dcea5013c7917feacaa9870a5495e576440ae5dac799e84368c49d23bb4b9\n        /* \"/contracts/storage/LibSMEambStorage.sol\":4474:4520  _getStorage(SLOT).baseTokenURI = _baseTokenURI */\n      tag_202\n        /* \"/contracts/storage/LibSMEambStorage.sol\":4507:4520  _baseTokenURI */\n      dup3\n        /* \"/contracts/storage/LibSMEambStorage.sol\":375:401  keccak256(bytes('SMEamb')) */\n      dup3\n        /* \"/contracts/storage/LibSMEambStorage.sol\":4474:4520  _getStorage(SLOT).baseTokenURI = _baseTokenURI */\n      tag_203\n      jump\t// in\n        /* \"/contracts/storage/LibSMEambStorage.sol\":3141:3241  function baseTokenURI() external view returns(string memory){return _getStorage(SLOT).baseTokenURI;} */\n    tag_119:\n        /* \"/contracts/storage/LibSMEambStorage.sol\":385:400  bytes('SMEamb') */\n      0x40\n      dup1\n      mload\n      dup1\n      dup3\n      add\n      swap1\n      swap2\n      mstore\n      0x06\n      dup2\n      mstore\n      0x534d45616d620000000000000000000000000000000000000000000000000000\n      0x20\n      swap1\n      swap2\n      add\n      mstore\n        /* \"/contracts/storage/LibSMEambStorage.sol\":3187:3200  string memory */\n      0x60\n        /* \"/contracts/storage/LibSMEambStorage.sol\":375:401  keccak256(bytes('SMEamb')) */\n      0x880dcea5013c7917feacaa9870a5495e576440ae5dac799e84368c49d23bb4b9\n        /* \"/contracts/storage/LibSMEambStorage.sol\":3202:3239  return _getStorage(SLOT).baseTokenURI */\n      dup1\n      sload\n      tag_208\n      swap1\n      tag_189\n      jump\t// in\n        /* \"/contracts/storage/LibSMEambStorage.sol\":4654:4778  function tokenURIs(string memory _tokenURIs, uint256 _tokenId) external{_getStorage(SLOT).tokenURIs[_tokenId] = _tokenURIs;} */\n    tag_132:\n        /* \"/contracts/storage/LibSMEambStorage.sol\":385:400  bytes('SMEamb') */\n      0x40\n      dup1\n      mload\n      dup1\n      dup3\n      add\n      dup3\n      mstore\n      0x06\n      dup2\n      mstore\n      0x534d45616d620000000000000000000000000000000000000000000000000000\n      0x20\n      swap2\n      dup3\n      add\n      mstore\n      0x00\n        /* \"/contracts/storage/LibSMEambStorage.sol\":4726:4763  _getStorage(SLOT).tokenURIs[_tokenId] */\n      dup4\n      dup2\n      mstore\n        /* \"/contracts/storage/LibSMEambStorage.sol\":4726:4753  _getStorage(SLOT).tokenURIs */\n      0x880dcea5013c7917feacaa9870a5495e576440ae5dac799e84368c49d23bb4bb\n        /* \"/contracts/storage/LibSMEambStorage.sol\":4726:4763  _getStorage(SLOT).tokenURIs[_tokenId] */\n      swap1\n      swap2\n      mstore\n      keccak256\n        /* \"/contracts/storage/LibSMEambStorage.sol\":4726:4776  _getStorage(SLOT).tokenURIs[_tokenId] = _tokenURIs */\n      tag_238\n        /* \"/contracts/storage/LibSMEambStorage.sol\":4766:4776  _tokenURIs */\n      dup4\n        /* \"/contracts/storage/LibSMEambStorage.sol\":4726:4763  _getStorage(SLOT).tokenURIs[_tokenId] */\n      dup3\n        /* \"/contracts/storage/LibSMEambStorage.sol\":4726:4776  _getStorage(SLOT).tokenURIs[_tokenId] = _tokenURIs */\n      tag_203\n      jump\t// in\n    tag_238:\n      pop\n        /* \"/contracts/storage/LibSMEambStorage.sol\":4654:4778  function tokenURIs(string memory _tokenURIs, uint256 _tokenId) external{_getStorage(SLOT).tokenURIs[_tokenId] = _tokenURIs;} */\n      pop\n      pop\n      jump\t// out\n        /* \"/contracts/storage/LibSMEambStorage.sol\":3483:3617  function ownedTokens(address owner, uint256 index) external view returns(uint256){return _getStorage(SLOT).ownedTokens[owner][index];} */\n    tag_136:\n        /* \"/contracts/storage/LibSMEambStorage.sol\":385:400  bytes('SMEamb') */\n      0x40\n      dup1\n      mload\n      dup1\n      dup3\n      add\n      dup3\n      mstore\n      0x06\n      dup2\n      mstore\n      0x534d45616d620000000000000000000000000000000000000000000000000000\n      0x20\n      swap2\n      dup3\n      add\n      mstore\n        /* \"/contracts/storage/LibSMEambStorage.sol\":3572:3608  _getStorage(SLOT).ownedTokens[owner] */\n      0xffffffffffffffffffffffffffffffffffffffff\n      dup5\n      and\n      0x00\n      swap1\n      dup2\n      mstore\n        /* \"/contracts/storage/LibSMEambStorage.sol\":3572:3601  _getStorage(SLOT).ownedTokens */\n      0x880dcea5013c7917feacaa9870a5495e576440ae5dac799e84368c49d23bb4bc\n        /* \"/contracts/storage/LibSMEambStorage.sol\":3572:3608  _getStorage(SLOT).ownedTokens[owner] */\n      dup3\n      mstore\n      dup3\n      dup2\n      keccak256\n        /* \"/contracts/storage/LibSMEambStorage.sol\":3572:3615  _getStorage(SLOT).ownedTokens[owner][index] */\n      dup5\n      dup3\n      mstore\n      swap1\n      swap2\n      mstore\n      keccak256\n      sload\n        /* \"/contracts/storage/LibSMEambStorage.sol\":3483:3617  function ownedTokens(address owner, uint256 index) external view returns(uint256){return _getStorage(SLOT).ownedTokens[owner][index];} */\n    tag_239:\n      swap3\n      swap2\n      pop\n      pop\n      jump\t// out\n        /* \"#utility.yul\":14:210   */\n    tag_244:\n        /* \"#utility.yul\":82:102   */\n      dup1\n      calldataload\n        /* \"#utility.yul\":142:184   */\n      0xffffffffffffffffffffffffffffffffffffffff\n        /* \"#utility.yul\":131:185   */\n      dup2\n      and\n        /* \"#utility.yul\":121:186   */\n      dup2\n      eq\n        /* \"#utility.yul\":111:204   */\n      tag_252\n      jumpi\n        /* \"#utility.yul\":200:201   */\n      0x00\n        /* \"#utility.yul\":197:198   */\n      dup1\n        /* \"#utility.yul\":190:202   */\n      revert\n        /* \"#utility.yul\":111:204   */\n    tag_252:\n        /* \"#utility.yul\":14:210   */\n      swap2\n      swap1\n      pop\n      jump\t// out\n        /* \"#utility.yul\":215:537   */\n    tag_37:\n        /* \"#utility.yul\":292:298   */\n      0x00\n        /* \"#utility.yul\":300:306   */\n      dup1\n        /* \"#utility.yul\":308:314   */\n      0x00\n        /* \"#utility.yul\":361:363   */\n      0x60\n        /* \"#utility.yul\":349:358   */\n      dup5\n        /* \"#utility.yul\":340:347   */\n      dup7\n        /* \"#utility.yul\":336:359   */\n      sub\n        /* \"#utility.yul\":332:364   */\n      slt\n        /* \"#utility.yul\":329:381   */\n      iszero\n      tag_254\n      jumpi\n        /* \"#utility.yul\":377:378   */\n      0x00\n        /* \"#utility.yul\":374:375   */\n      dup1\n        /* \"#utility.yul\":367:379   */\n      revert\n        /* \"#utility.yul\":329:381   */\n    tag_254:\n        /* \"#utility.yul\":400:429   */\n      tag_255\n        /* \"#utility.yul\":419:428   */\n      dup5\n        /* \"#utility.yul\":400:429   */\n      tag_244\n      jump\t// in\n    tag_255:\n        /* \"#utility.yul\":390:429   */\n      swap6\n        /* \"#utility.yul\":476:478   */\n      0x20\n        /* \"#utility.yul\":461:479   */\n      dup6\n      add\n        /* \"#utility.yul\":448:480   */\n      calldataload\n      swap6\n      pop\n        /* \"#utility.yul\":527:529   */\n      0x40\n        /* \"#utility.yul\":512:530   */\n      swap1\n      swap5\n      add\n        /* \"#utility.yul\":499:531   */\n      calldataload\n      swap4\n        /* \"#utility.yul\":215:537   */\n      swap3\n      pop\n      pop\n      pop\n      jump\t// out\n        /* \"#utility.yul\":732:912   */\n    tag_46:\n        /* \"#utility.yul\":791:797   */\n      0x00\n        /* \"#utility.yul\":844:846   */\n      0x20\n        /* \"#utility.yul\":832:841   */\n      dup3\n        /* \"#utility.yul\":823:830   */\n      dup5\n        /* \"#utility.yul\":819:842   */\n      sub\n        /* \"#utility.yul\":815:847   */\n      slt\n        /* \"#utility.yul\":812:864   */\n      iszero\n      tag_258\n      jumpi\n        /* \"#utility.yul\":860:861   */\n      0x00\n        /* \"#utility.yul\":857:858   */\n      dup1\n        /* \"#utility.yul\":850:862   */\n      revert\n        /* \"#utility.yul\":812:864   */\n    tag_258:\n      pop\n        /* \"#utility.yul\":883:906   */\n      calldataload\n      swap2\n        /* \"#utility.yul\":732:912   */\n      swap1\n      pop\n      jump\t// out\n        /* \"#utility.yul\":1102:1717   */\n    tag_76:\n        /* \"#utility.yul\":1222:1226   */\n      0x00\n        /* \"#utility.yul\":1251:1253   */\n      0x20\n        /* \"#utility.yul\":1280:1282   */\n      dup1\n        /* \"#utility.yul\":1269:1278   */\n      dup4\n        /* \"#utility.yul\":1262:1283   */\n      mstore\n        /* \"#utility.yul\":1312:1318   */\n      dup4\n        /* \"#utility.yul\":1306:1319   */\n      mload\n        /* \"#utility.yul\":1355:1361   */\n      dup1\n        /* \"#utility.yul\":1350:1352   */\n      0x20\n        /* \"#utility.yul\":1339:1348   */\n      dup6\n        /* \"#utility.yul\":1335:1353   */\n      add\n        /* \"#utility.yul\":1328:1362   */\n      mstore\n        /* \"#utility.yul\":1380:1381   */\n      0x00\n        /* \"#utility.yul\":1390:1530   */\n    tag_262:\n        /* \"#utility.yul\":1404:1410   */\n      dup2\n        /* \"#utility.yul\":1401:1402   */\n      dup2\n        /* \"#utility.yul\":1398:1411   */\n      lt\n        /* \"#utility.yul\":1390:1530   */\n      iszero\n      tag_264\n      jumpi\n        /* \"#utility.yul\":1499:1513   */\n      dup6\n      dup2\n      add\n        /* \"#utility.yul\":1495:1518   */\n      dup4\n      add\n        /* \"#utility.yul\":1489:1519   */\n      mload\n        /* \"#utility.yul\":1465:1482   */\n      dup6\n      dup3\n      add\n        /* \"#utility.yul\":1484:1486   */\n      0x40\n        /* \"#utility.yul\":1461:1487   */\n      add\n        /* \"#utility.yul\":1454:1520   */\n      mstore\n        /* \"#utility.yul\":1419:1429   */\n      dup3\n      add\n        /* \"#utility.yul\":1390:1530   */\n      jump(tag_262)\n    tag_264:\n        /* \"#utility.yul\":1394:1397   */\n      pop\n        /* \"#utility.yul\":1579:1580   */\n      0x00\n        /* \"#utility.yul\":1574:1576   */\n      0x40\n        /* \"#utility.yul\":1565:1571   */\n      dup3\n        /* \"#utility.yul\":1554:1563   */\n      dup7\n        /* \"#utility.yul\":1550:1572   */\n      add\n        /* \"#utility.yul\":1546:1577   */\n      add\n        /* \"#utility.yul\":1539:1581   */\n      mstore\n        /* \"#utility.yul\":1708:1710   */\n      0x40\n        /* \"#utility.yul\":1638:1704   */\n      0xffffffffffffffffffffffffffffffffffffffffffffffffffffffffffffffe0\n        /* \"#utility.yul\":1633:1635   */\n      0x1f\n        /* \"#utility.yul\":1625:1631   */\n      dup4\n        /* \"#utility.yul\":1621:1636   */\n      add\n        /* \"#utility.yul\":1617:1705   */\n      and\n        /* \"#utility.yul\":1606:1615   */\n      dup6\n        /* \"#utility.yul\":1602:1706   */\n      add\n        /* \"#utility.yul\":1598:1711   */\n      add\n        /* \"#utility.yul\":1590:1711   */\n      swap3\n      pop\n      pop\n      pop\n        /* \"#utility.yul\":1102:1717   */\n      swap3\n      swap2\n      pop\n      pop\n      jump\t// out\n        /* \"#utility.yul\":1722:2362   */\n    tag_80:\n        /* \"#utility.yul\":1901:1903   */\n      0x20\n        /* \"#utility.yul\":1953:1974   */\n      dup1\n      dup3\n      mstore\n        /* \"#utility.yul\":2023:2036   */\n      dup3\n      mload\n        /* \"#utility.yul\":1926:1944   */\n      dup3\n      dup3\n      add\n        /* \"#utility.yul\":2045:2067   */\n      dup2\n      swap1\n      mstore\n        /* \"#utility.yul\":1872:1876   */\n      0x00\n      swap2\n        /* \"#utility.yul\":1901:1903   */\n      swap1\n        /* \"#utility.yul\":2124:2139   */\n      dup5\n      dup3\n      add\n      swap1\n        /* \"#utility.yul\":2098:2100   */\n      0x40\n        /* \"#utility.yul\":2083:2101   */\n      dup6\n      add\n      swap1\n        /* \"#utility.yul\":1872:1876   */\n      dup5\n        /* \"#utility.yul\":2167:2336   */\n    tag_266:\n        /* \"#utility.yul\":2181:2187   */\n      dup2\n        /* \"#utility.yul\":2178:2179   */\n      dup2\n        /* \"#utility.yul\":2175:2188   */\n      lt\n        /* \"#utility.yul\":2167:2336   */\n      iszero\n      tag_268\n      jumpi\n        /* \"#utility.yul\":2242:2255   */\n      dup4\n      mload\n        /* \"#utility.yul\":2230:2256   */\n      dup4\n      mstore\n        /* \"#utility.yul\":2311:2326   */\n      swap3\n      dup5\n      add\n      swap3\n        /* \"#utility.yul\":2276:2288   */\n      swap2\n      dup5\n      add\n      swap2\n        /* \"#utility.yul\":2203:2204   */\n      0x01\n        /* \"#utility.yul\":2196:2205   */\n      add\n        /* \"#utility.yul\":2167:2336   */\n      jump(tag_266)\n    tag_268:\n      pop\n        /* \"#utility.yul\":2353:2356   */\n      swap1\n      swap7\n        /* \"#utility.yul\":1722:2362   */\n      swap6\n      pop\n      pop\n      pop\n      pop\n      pop\n      pop\n      jump\t// out\n        /* \"#utility.yul\":2557:2741   */\n    tag_245:\n        /* \"#utility.yul\":2609:2686   */\n      0x4e487b7100000000000000000000000000000000000000000000000000000000\n        /* \"#utility.yul\":2606:2607   */\n      0x00\n        /* \"#utility.yul\":2599:2687   */\n      mstore\n        /* \"#utility.yul\":2706:2710   */\n      0x41\n        /* \"#utility.yul\":2703:2704   */\n      0x04\n        /* \"#utility.yul\":2696:2711   */\n      mstore\n        /* \"#utility.yul\":2730:2734   */\n      0x24\n        /* \"#utility.yul\":2727:2728   */\n      0x00\n        /* \"#utility.yul\":2720:2735   */\n      revert\n        /* \"#utility.yul\":2746:3524   */\n    tag_246:\n        /* \"#utility.yul\":2789:2794   */\n      0x00\n        /* \"#utility.yul\":2842:2845   */\n      dup3\n        /* \"#utility.yul\":2835:2839   */\n      0x1f\n        /* \"#utility.yul\":2827:2833   */\n      dup4\n        /* \"#utility.yul\":2823:2840   */\n      add\n        /* \"#utility.yul\":2819:2846   */\n      slt\n        /* \"#utility.yul\":2809:2864   */\n      tag_272\n      jumpi\n        /* \"#utility.yul\":2860:2861   */\n      0x00\n        /* \"#utility.yul\":2857:2858   */\n      dup1\n        /* \"#utility.yul\":2850:2862   */\n      revert\n        /* \"#utility.yul\":2809:2864   */\n    tag_272:\n        /* \"#utility.yul\":2896:2902   */\n      dup2\n        /* \"#utility.yul\":2883:2903   */\n      calldataload\n        /* \"#utility.yul\":2922:2940   */\n      0xffffffffffffffff\n        /* \"#utility.yul\":2959:2961   */\n      dup1\n        /* \"#utility.yul\":2955:2957   */\n      dup3\n        /* \"#utility.yul\":2952:2962   */\n      gt\n        /* \"#utility.yul\":2949:2985   */\n      iszero\n      tag_274\n      jumpi\n        /* \"#utility.yul\":2965:2983   */\n      tag_274\n      tag_245\n      jump\t// in\n    tag_274:\n        /* \"#utility.yul\":3099:3101   */\n      0x40\n        /* \"#utility.yul\":3093:3102   */\n      mload\n        /* \"#utility.yul\":3161:3165   */\n      0x1f\n        /* \"#utility.yul\":3153:3166   */\n      dup4\n      add\n        /* \"#utility.yul\":3004:3070   */\n      0xffffffffffffffffffffffffffffffffffffffffffffffffffffffffffffffe0\n        /* \"#utility.yul\":3149:3171   */\n      swap1\n      dup2\n      and\n        /* \"#utility.yul\":3173:3175   */\n      0x3f\n        /* \"#utility.yul\":3145:3176   */\n      add\n        /* \"#utility.yul\":3141:3181   */\n      and\n        /* \"#utility.yul\":3129:3182   */\n      dup2\n      add\n      swap1\n        /* \"#utility.yul\":3197:3215   */\n      dup3\n      dup3\n      gt\n        /* \"#utility.yul\":3217:3239   */\n      dup2\n      dup4\n      lt\n        /* \"#utility.yul\":3194:3240   */\n      or\n        /* \"#utility.yul\":3191:3263   */\n      iszero\n      tag_276\n      jumpi\n        /* \"#utility.yul\":3243:3261   */\n      tag_276\n      tag_245\n      jump\t// in\n    tag_276:\n        /* \"#utility.yul\":3283:3293   */\n      dup2\n        /* \"#utility.yul\":3279:3281   */\n      0x40\n        /* \"#utility.yul\":3272:3294   */\n      mstore\n        /* \"#utility.yul\":3318:3320   */\n      dup4\n        /* \"#utility.yul\":3310:3316   */\n      dup2\n        /* \"#utility.yul\":3303:3321   */\n      mstore\n        /* \"#utility.yul\":3364:3367   */\n      dup7\n        /* \"#utility.yul\":3357:3361   */\n      0x20\n        /* \"#utility.yul\":3352:3354   */\n      dup6\n        /* \"#utility.yul\":3344:3350   */\n      dup9\n        /* \"#utility.yul\":3340:3355   */\n      add\n        /* \"#utility.yul\":3336:3362   */\n      add\n        /* \"#utility.yul\":3333:3368   */\n      gt\n        /* \"#utility.yul\":3330:3385   */\n      iszero\n      tag_277\n      jumpi\n        /* \"#utility.yul\":3381:3382   */\n      0x00\n        /* \"#utility.yul\":3378:3379   */\n      dup1\n        /* \"#utility.yul\":3371:3383   */\n      revert\n        /* \"#utility.yul\":3330:3385   */\n    tag_277:\n        /* \"#utility.yul\":3445:3447   */\n      dup4\n        /* \"#utility.yul\":3438:3442   */\n      0x20\n        /* \"#utility.yul\":3430:3436   */\n      dup8\n        /* \"#utility.yul\":3426:3443   */\n      add\n        /* \"#utility.yul\":3419:3423   */\n      0x20\n        /* \"#utility.yul\":3411:3417   */\n      dup4\n        /* \"#utility.yul\":3407:3424   */\n      add\n        /* \"#utility.yul\":3394:3448   */\n      calldatacopy\n        /* \"#utility.yul\":3492:3493   */\n      0x00\n        /* \"#utility.yul\":3485:3489   */\n      0x20\n        /* \"#utility.yul\":3480:3482   */\n      dup6\n        /* \"#utility.yul\":3472:3478   */\n      dup4\n        /* \"#utility.yul\":3468:3483   */\n      add\n        /* \"#utility.yul\":3464:3490   */\n      add\n        /* \"#utility.yul\":3457:3494   */\n      mstore\n        /* \"#utility.yul\":3512:3518   */\n      dup1\n        /* \"#utility.yul\":3503:3518   */\n      swap5\n      pop\n      pop\n      pop\n      pop\n      pop\n        /* \"#utility.yul\":2746:3524   */\n      swap3\n      swap2\n      pop\n      pop\n      jump\t// out\n        /* \"#utility.yul\":3529:3851   */\n    tag_89:\n        /* \"#utility.yul\":3598:3604   */\n      0x00\n        /* \"#utility.yul\":3651:3653   */\n      0x20\n        /* \"#utility.yul\":3639:3648   */\n      dup3\n        /* \"#utility.yul\":3630:3637   */\n      dup5\n        /* \"#utility.yul\":3626:3649   */\n      sub\n        /* \"#utility.yul\":3622:3654   */\n      slt\n        /* \"#utility.yul\":3619:3671   */\n      iszero\n      tag_279\n      jumpi\n        /* \"#utility.yul\":3667:3668   */\n      0x00\n        /* \"#utility.yul\":3664:3665   */\n      dup1\n        /* \"#utility.yul\":3657:3669   */\n      revert\n        /* \"#utility.yul\":3619:3671   */\n    tag_279:\n        /* \"#utility.yul\":3707:3716   */\n      dup2\n        /* \"#utility.yul\":3694:3717   */\n      calldataload\n        /* \"#utility.yul\":3740:3758   */\n      0xffffffffffffffff\n        /* \"#utility.yul\":3732:3738   */\n      dup2\n        /* \"#utility.yul\":3729:3759   */\n      gt\n        /* \"#utility.yul\":3726:3776   */\n      iszero\n      tag_280\n      jumpi\n        /* \"#utility.yul\":3772:3773   */\n      0x00\n        /* \"#utility.yul\":3769:3770   */\n      dup1\n        /* \"#utility.yul\":3762:3774   */\n      revert\n        /* \"#utility.yul\":3726:3776   */\n    tag_280:\n        /* \"#utility.yul\":3795:3845   */\n      tag_281\n        /* \"#utility.yul\":3837:3844   */\n      dup5\n        /* \"#utility.yul\":3828:3834   */\n      dup3\n        /* \"#utility.yul\":3817:3826   */\n      dup6\n        /* \"#utility.yul\":3813:3835   */\n      add\n        /* \"#utility.yul\":3795:3845   */\n      tag_246\n      jump\t// in\n    tag_281:\n        /* \"#utility.yul\":3785:3845   */\n      swap5\n        /* \"#utility.yul\":3529:3851   */\n      swap4\n      pop\n      pop\n      pop\n      pop\n      jump\t// out\n        /* \"#utility.yul\":3856:4104   */\n    tag_105:\n        /* \"#utility.yul\":3924:3930   */\n      0x00\n        /* \"#utility.yul\":3932:3938   */\n      dup1\n        /* \"#utility.yul\":3985:3987   */\n      0x40\n        /* \"#utility.yul\":3973:3982   */\n      dup4\n        /* \"#utility.yul\":3964:3971   */\n      dup6\n        /* \"#utility.yul\":3960:3983   */\n      sub\n        /* \"#utility.yul\":3956:3988   */\n      slt\n        /* \"#utility.yul\":3953:4005   */\n      iszero\n      tag_283\n      jumpi\n        /* \"#utility.yul\":4001:4002   */\n      0x00\n        /* \"#utility.yul\":3998:3999   */\n      dup1\n        /* \"#utility.yul\":3991:4003   */\n      revert\n        /* \"#utility.yul\":3953:4005   */\n    tag_283:\n      pop\n      pop\n        /* \"#utility.yul\":4024:4047   */\n      dup1\n      calldataload\n      swap3\n        /* \"#utility.yul\":4094:4096   */\n      0x20\n        /* \"#utility.yul\":4079:4097   */\n      swap1\n      swap2\n      add\n        /* \"#utility.yul\":4066:4098   */\n      calldataload\n      swap2\n      pop\n        /* \"#utility.yul\":3856:4104   */\n      jump\t// out\n        /* \"#utility.yul\":4109:4456   */\n    tag_110:\n        /* \"#utility.yul\":4174:4180   */\n      0x00\n        /* \"#utility.yul\":4182:4188   */\n      dup1\n        /* \"#utility.yul\":4235:4237   */\n      0x40\n        /* \"#utility.yul\":4223:4232   */\n      dup4\n        /* \"#utility.yul\":4214:4221   */\n      dup6\n        /* \"#utility.yul\":4210:4233   */\n      sub\n        /* \"#utility.yul\":4206:4238   */\n      slt\n        /* \"#utility.yul\":4203:4255   */\n      iszero\n      tag_285\n      jumpi\n        /* \"#utility.yul\":4251:4252   */\n      0x00\n        /* \"#utility.yul\":4248:4249   */\n      dup1\n        /* \"#utility.yul\":4241:4253   */\n      revert\n        /* \"#utility.yul\":4203:4255   */\n    tag_285:\n        /* \"#utility.yul\":4274:4303   */\n      tag_286\n        /* \"#utility.yul\":4293:4302   */\n      dup4\n        /* \"#utility.yul\":4274:4303   */\n      tag_244\n      jump\t// in\n    tag_286:\n        /* \"#utility.yul\":4264:4303   */\n      swap2\n      pop\n        /* \"#utility.yul\":4353:4355   */\n      0x20\n        /* \"#utility.yul\":4342:4351   */\n      dup4\n        /* \"#utility.yul\":4338:4356   */\n      add\n        /* \"#utility.yul\":4325:4357   */\n      calldataload\n        /* \"#utility.yul\":4400:4405   */\n      dup1\n        /* \"#utility.yul\":4393:4406   */\n      iszero\n        /* \"#utility.yul\":4386:4407   */\n      iszero\n        /* \"#utility.yul\":4379:4384   */\n      dup2\n        /* \"#utility.yul\":4376:4408   */\n      eq\n        /* \"#utility.yul\":4366:4426   */\n      tag_287\n      jumpi\n        /* \"#utility.yul\":4422:4423   */\n      0x00\n        /* \"#utility.yul\":4419:4420   */\n      dup1\n        /* \"#utility.yul\":4412:4424   */\n      revert\n        /* \"#utility.yul\":4366:4426   */\n    tag_287:\n        /* \"#utility.yul\":4445:4450   */\n      dup1\n        /* \"#utility.yul\":4435:4450   */\n      swap2\n      pop\n      pop\n        /* \"#utility.yul\":4109:4456   */\n      swap3\n      pop\n      swap3\n      swap1\n      pop\n      jump\t// out\n        /* \"#utility.yul\":4461:4647   */\n    tag_114:\n        /* \"#utility.yul\":4520:4526   */\n      0x00\n        /* \"#utility.yul\":4573:4575   */\n      0x20\n        /* \"#utility.yul\":4561:4570   */\n      dup3\n        /* \"#utility.yul\":4552:4559   */\n      dup5\n        /* \"#utility.yul\":4548:4571   */\n      sub\n        /* \"#utility.yul\":4544:4576   */\n      slt\n        /* \"#utility.yul\":4541:4593   */\n      iszero\n      tag_289\n      jumpi\n        /* \"#utility.yul\":4589:4590   */\n      0x00\n        /* \"#utility.yul\":4586:4587   */\n      dup1\n        /* \"#utility.yul\":4579:4591   */\n      revert\n        /* \"#utility.yul\":4541:4593   */\n    tag_289:\n        /* \"#utility.yul\":4612:4641   */\n      tag_290\n        /* \"#utility.yul\":4631:4640   */\n      dup3\n        /* \"#utility.yul\":4612:4641   */\n      tag_244\n      jump\t// in\n    tag_290:\n        /* \"#utility.yul\":4602:4641   */\n      swap4\n        /* \"#utility.yul\":4461:4647   */\n      swap3\n      pop\n      pop\n      pop\n      jump\t// out\n        /* \"#utility.yul\":4852:5242   */\n    tag_131:\n        /* \"#utility.yul\":4930:4936   */\n      0x00\n        /* \"#utility.yul\":4938:4944   */\n      dup1\n        /* \"#utility.yul\":4991:4993   */\n      0x40\n        /* \"#utility.yul\":4979:4988   */\n      dup4\n        /* \"#utility.yul\":4970:4977   */\n      dup6\n        /* \"#utility.yul\":4966:4989   */\n      sub\n        /* \"#utility.yul\":4962:4994   */\n      slt\n        /* \"#utility.yul\":4959:5011   */\n      iszero\n      tag_293\n      jumpi\n        /* \"#utility.yul\":5007:5008   */\n      0x00\n        /* \"#utility.yul\":5004:5005   */\n      dup1\n        /* \"#utility.yul\":4997:5009   */\n      revert\n        /* \"#utility.yul\":4959:5011   */\n    tag_293:\n        /* \"#utility.yul\":5047:5056   */\n      dup3\n        /* \"#utility.yul\":5034:5057   */\n      calldataload\n        /* \"#utility.yul\":5080:5098   */\n      0xffffffffffffffff\n        /* \"#utility.yul\":5072:5078   */\n      dup2\n        /* \"#utility.yul\":5069:5099   */\n      gt\n        /* \"#utility.yul\":5066:5116   */\n      iszero\n      tag_294\n      jumpi\n        /* \"#utility.yul\":5112:5113   */\n      0x00\n        /* \"#utility.yul\":5109:5110   */\n      dup1\n        /* \"#utility.yul\":5102:5114   */\n      revert\n        /* \"#utility.yul\":5066:5116   */\n    tag_294:\n        /* \"#utility.yul\":5135:5185   */\n      tag_295\n        /* \"#utility.yul\":5177:5184   */\n      dup6\n        /* \"#utility.yul\":5168:5174   */\n      dup3\n        /* \"#utility.yul\":5157:5166   */\n      dup7\n        /* \"#utility.yul\":5153:5175   */\n      add\n        /* \"#utility.yul\":5135:5185   */\n      tag_246\n      jump\t// in\n    tag_295:\n        /* \"#utility.yul\":5125:5185   */\n      swap6\n        /* \"#utility.yul\":5232:5234   */\n      0x20\n        /* \"#utility.yul\":5217:5235   */\n      swap5\n      swap1\n      swap5\n      add\n        /* \"#utility.yul\":5204:5236   */\n      calldataload\n      swap5\n      pop\n      pop\n      pop\n      pop\n        /* \"#utility.yul\":4852:5242   */\n      jump\t// out\n        /* \"#utility.yul\":5247:5501   */\n    tag_135:\n        /* \"#utility.yul\":5315:5321   */\n      0x00\n        /* \"#utility.yul\":5323:5329   */\n      dup1\n        /* \"#utility.yul\":5376:5378   */\n      0x40\n        /* \"#utility.yul\":5364:5373   */\n      dup4\n        /* \"#utility.yul\":5355:5362   */\n      dup6\n        /* \"#utility.yul\":5351:5374   */\n      sub\n        /* \"#utility.yul\":5347:5379   */\n      slt\n        /* \"#utility.yul\":5344:5396   */\n      iszero\n      tag_297\n      jumpi\n        /* \"#utility.yul\":5392:5393   */\n      0x00\n        /* \"#utility.yul\":5389:5390   */\n      dup1\n        /* \"#utility.yul\":5382:5394   */\n      revert\n        /* \"#utility.yul\":5344:5396   */\n    tag_297:\n        /* \"#utility.yul\":5415:5444   */\n      tag_298\n        /* \"#utility.yul\":5434:5443   */\n      dup4\n        /* \"#utility.yul\":5415:5444   */\n      tag_244\n      jump\t// in\n    tag_298:\n        /* \"#utility.yul\":5405:5444   */\n      swap5\n        /* \"#utility.yul\":5491:5493   */\n      0x20\n        /* \"#utility.yul\":5476:5494   */\n      swap4\n      swap1\n      swap4\n      add\n        /* \"#utility.yul\":5463:5495   */\n      calldataload\n      swap4\n      pop\n      pop\n      pop\n        /* \"#utility.yul\":5247:5501   */\n      jump\t// out\n        /* \"#utility.yul\":5506:5788   */\n    tag_163:\n        /* \"#utility.yul\":5573:5582   */\n      dup2\n      dup2\n      sub\n        /* \"#utility.yul\":5594:5605   */\n      dup2\n      dup2\n      gt\n        /* \"#utility.yul\":5591:5782   */\n      iszero\n      tag_239\n      jumpi\n        /* \"#utility.yul\":5638:5715   */\n      0x4e487b7100000000000000000000000000000000000000000000000000000000\n        /* \"#utility.yul\":5635:5636   */\n      0x00\n        /* \"#utility.yul\":5628:5716   */\n      mstore\n        /* \"#utility.yul\":5739:5743   */\n      0x11\n        /* \"#utility.yul\":5736:5737   */\n      0x04\n        /* \"#utility.yul\":5729:5744   */\n      mstore\n        /* \"#utility.yul\":5767:5771   */\n      0x24\n        /* \"#utility.yul\":5764:5765   */\n      0x00\n        /* \"#utility.yul\":5757:5772   */\n      revert\n        /* \"#utility.yul\":5793:5977   */\n    tag_168:\n        /* \"#utility.yul\":5845:5922   */\n      0x4e487b7100000000000000000000000000000000000000000000000000000000\n        /* \"#utility.yul\":5842:5843   */\n      0x00\n        /* \"#utility.yul\":5835:5923   */\n      mstore\n        /* \"#utility.yul\":5942:5946   */\n      0x32\n        /* \"#utility.yul\":5939:5940   */\n      0x04\n        /* \"#utility.yul\":5932:5947   */\n      mstore\n        /* \"#utility.yul\":5966:5970   */\n      0x24\n        /* \"#utility.yul\":5963:5964   */\n      0x00\n        /* \"#utility.yul\":5956:5971   */\n      revert\n        /* \"#utility.yul\":5982:6166   */\n    tag_179:\n        /* \"#utility.yul\":6034:6111   */\n      0x4e487b7100000000000000000000000000000000000000000000000000000000\n        /* \"#utility.yul\":6031:6032   */\n      0x00\n        /* \"#utility.yul\":6024:6112   */\n      mstore\n        /* \"#utility.yul\":6131:6135   */\n      0x31\n        /* \"#utility.yul\":6128:6129   */\n      0x04\n        /* \"#utility.yul\":6121:6136   */\n      mstore\n        /* \"#utility.yul\":6155:6159   */\n      0x24\n        /* \"#utility.yul\":6152:6153   */\n      0x00\n        /* \"#utility.yul\":6145:6160   */\n      revert\n        /* \"#utility.yul\":6171:6608   */\n    tag_189:\n        /* \"#utility.yul\":6250:6251   */\n      0x01\n        /* \"#utility.yul\":6246:6258   */\n      dup2\n      dup2\n      shr\n      swap1\n        /* \"#utility.yul\":6293:6305   */\n      dup3\n      and\n      dup1\n        /* \"#utility.yul\":6314:6375   */\n      tag_304\n      jumpi\n        /* \"#utility.yul\":6368:6372   */\n      0x7f\n        /* \"#utility.yul\":6360:6366   */\n      dup3\n        /* \"#utility.yul\":6356:6373   */\n      and\n        /* \"#utility.yul\":6346:6373   */\n      swap2\n      pop\n        /* \"#utility.yul\":6314:6375   */\n    tag_304:\n        /* \"#utility.yul\":6421:6423   */\n      0x20\n        /* \"#utility.yul\":6413:6419   */\n      dup3\n        /* \"#utility.yul\":6410:6424   */\n      lt\n        /* \"#utility.yul\":6390:6408   */\n      dup2\n        /* \"#utility.yul\":6387:6425   */\n      sub\n        /* \"#utility.yul\":6384:6602   */\n      tag_305\n      jumpi\n        /* \"#utility.yul\":6458:6535   */\n      0x4e487b7100000000000000000000000000000000000000000000000000000000\n        /* \"#utility.yul\":6455:6456   */\n      0x00\n        /* \"#utility.yul\":6448:6536   */\n      mstore\n        /* \"#utility.yul\":6559:6563   */\n      0x22\n        /* \"#utility.yul\":6556:6557   */\n      0x04\n        /* \"#utility.yul\":6549:6564   */\n      mstore\n        /* \"#utility.yul\":6587:6591   */\n      0x24\n        /* \"#utility.yul\":6584:6585   */\n      0x00\n        /* \"#utility.yul\":6577:6592   */\n      revert\n        /* \"#utility.yul\":6384:6602   */\n    tag_305:\n      pop\n        /* \"#utility.yul\":6171:6608   */\n      swap2\n      swap1\n      pop\n      jump\t// out\n        /* \"#utility.yul\":6739:7257   */\n    tag_248:\n        /* \"#utility.yul\":6841:6843   */\n      0x1f\n        /* \"#utility.yul\":6836:6839   */\n      dup3\n        /* \"#utility.yul\":6833:6844   */\n      gt\n        /* \"#utility.yul\":6830:7251   */\n      iszero\n      tag_238\n      jumpi\n        /* \"#utility.yul\":6877:6882   */\n      dup1\n        /* \"#utility.yul\":6874:6875   */\n      0x00\n        /* \"#utility.yul\":6867:6883   */\n      mstore\n        /* \"#utility.yul\":6921:6925   */\n      0x20\n        /* \"#utility.yul\":6918:6919   */\n      0x00\n        /* \"#utility.yul\":6908:6926   */\n      keccak256\n        /* \"#utility.yul\":6991:6993   */\n      0x1f\n        /* \"#utility.yul\":6979:6989   */\n      dup5\n        /* \"#utility.yul\":6975:6994   */\n      add\n        /* \"#utility.yul\":6972:6973   */\n      0x05\n        /* \"#utility.yul\":6968:6995   */\n      shr\n        /* \"#utility.yul\":6962:6966   */\n      dup2\n        /* \"#utility.yul\":6958:6996   */\n      add\n        /* \"#utility.yul\":7027:7031   */\n      0x20\n        /* \"#utility.yul\":7015:7025   */\n      dup6\n        /* \"#utility.yul\":7012:7032   */\n      lt\n        /* \"#utility.yul\":7009:7056   */\n      iszero\n      tag_309\n      jumpi\n      pop\n        /* \"#utility.yul\":7050:7054   */\n      dup1\n        /* \"#utility.yul\":7009:7056   */\n    tag_309:\n        /* \"#utility.yul\":7105:7107   */\n      0x1f\n        /* \"#utility.yul\":7100:7103   */\n      dup5\n        /* \"#utility.yul\":7096:7108   */\n      add\n        /* \"#utility.yul\":7093:7094   */\n      0x05\n        /* \"#utility.yul\":7089:7109   */\n      shr\n        /* \"#utility.yul\":7083:7087   */\n      dup3\n        /* \"#utility.yul\":7079:7110   */\n      add\n        /* \"#utility.yul\":7069:7110   */\n      swap2\n      pop\n        /* \"#utility.yul\":7160:7241   */\n    tag_310:\n        /* \"#utility.yul\":7178:7180   */\n      dup2\n        /* \"#utility.yul\":7171:7176   */\n      dup2\n        /* \"#utility.yul\":7168:7181   */\n      lt\n        /* \"#utility.yul\":7160:7241   */\n      iszero\n      tag_312\n      jumpi\n        /* \"#utility.yul\":7237:7238   */\n      0x00\n        /* \"#utility.yul\":7223:7239   */\n      dup2\n      sstore\n        /* \"#utility.yul\":7204:7205   */\n      0x01\n        /* \"#utility.yul\":7193:7206   */\n      add\n        /* \"#utility.yul\":7160:7241   */\n      jump(tag_310)\n    tag_312:\n        /* \"#utility.yul\":7164:7167   */\n      pop\n      pop\n        /* \"#utility.yul\":6739:7257   */\n      pop\n      pop\n      pop\n      jump\t// out\n        /* \"#utility.yul\":7493:8957   */\n    tag_203:\n        /* \"#utility.yul\":7619:7622   */\n      dup2\n        /* \"#utility.yul\":7613:7623   */\n      mload\n        /* \"#utility.yul\":7646:7664   */\n      0xffffffffffffffff\n        /* \"#utility.yul\":7638:7644   */\n      dup2\n        /* \"#utility.yul\":7635:7665   */\n      gt\n        /* \"#utility.yul\":7632:7688   */\n      iszero\n      tag_316\n      jumpi\n        /* \"#utility.yul\":7668:7686   */\n      tag_316\n      tag_245\n      jump\t// in\n    tag_316:\n        /* \"#utility.yul\":7697:7794   */\n      tag_317\n        /* \"#utility.yul\":7787:7793   */\n      dup2\n        /* \"#utility.yul\":7747:7785   */\n      tag_318\n        /* \"#utility.yul\":7779:7783   */\n      dup5\n        /* \"#utility.yul\":7773:7784   */\n      sload\n        /* \"#utility.yul\":7747:7785   */\n      tag_189\n      jump\t// in\n    tag_318:\n        /* \"#utility.yul\":7741:7745   */\n      dup5\n        /* \"#utility.yul\":7697:7794   */\n      tag_248\n      jump\t// in\n    tag_317:\n        /* \"#utility.yul\":7849:7853   */\n      0x20\n      dup1\n        /* \"#utility.yul\":7906:7908   */\n      0x1f\n        /* \"#utility.yul\":7895:7909   */\n      dup4\n      gt\n        /* \"#utility.yul\":7923:7924   */\n      0x01\n        /* \"#utility.yul\":7918:8700   */\n      dup2\n      eq\n      tag_320\n      jumpi\n        /* \"#utility.yul\":8744:8745   */\n      0x00\n        /* \"#utility.yul\":8761:8767   */\n      dup5\n        /* \"#utility.yul\":8758:8847   */\n      iszero\n      tag_321\n      jumpi\n      pop\n        /* \"#utility.yul\":8813:8832   */\n      dup6\n      dup4\n      add\n        /* \"#utility.yul\":8807:8833   */\n      mload\n        /* \"#utility.yul\":8758:8847   */\n    tag_321:\n        /* \"#utility.yul\":7399:7465   */\n      0xffffffffffffffffffffffffffffffffffffffffffffffffffffffffffffffff\n        /* \"#utility.yul\":7390:7391   */\n      0x03\n        /* \"#utility.yul\":7386:7397   */\n      dup7\n      swap1\n      shl\n        /* \"#utility.yul\":7382:7466   */\n      shr\n        /* \"#utility.yul\":7378:7467   */\n      not\n        /* \"#utility.yul\":7368:7468   */\n      and\n        /* \"#utility.yul\":7474:7475   */\n      0x01\n        /* \"#utility.yul\":7470:7481   */\n      dup6\n      swap1\n      shl\n        /* \"#utility.yul\":7365:7482   */\n      or\n        /* \"#utility.yul\":8860:8941   */\n      dup6\n      sstore\n        /* \"#utility.yul\":7888:8951   */\n      jump(tag_319)\n        /* \"#utility.yul\":7918:8700   */\n    tag_320:\n        /* \"#utility.yul\":6686:6687   */\n      0x00\n        /* \"#utility.yul\":6679:6693   */\n      dup6\n      dup2\n      mstore\n        /* \"#utility.yul\":6723:6727   */\n      0x20\n        /* \"#utility.yul\":6710:6728   */\n      dup2\n      keccak256\n        /* \"#utility.yul\":7966:8032   */\n      0xffffffffffffffffffffffffffffffffffffffffffffffffffffffffffffffe0\n        /* \"#utility.yul\":7954:8033   */\n      dup7\n      and\n      swap2\n        /* \"#utility.yul\":8131:8367   */\n    tag_324:\n        /* \"#utility.yul\":8145:8152   */\n      dup3\n        /* \"#utility.yul\":8142:8143   */\n      dup2\n        /* \"#utility.yul\":8139:8153   */\n      lt\n        /* \"#utility.yul\":8131:8367   */\n      iszero\n      tag_326\n      jumpi\n        /* \"#utility.yul\":8234:8253   */\n      dup9\n      dup7\n      add\n        /* \"#utility.yul\":8228:8254   */\n      mload\n        /* \"#utility.yul\":8213:8255   */\n      dup3\n      sstore\n        /* \"#utility.yul\":8326:8353   */\n      swap5\n      dup5\n      add\n      swap5\n        /* \"#utility.yul\":8294:8295   */\n      0x01\n        /* \"#utility.yul\":8282:8296   */\n      swap1\n      swap2\n      add\n      swap1\n        /* \"#utility.yul\":8161:8180   */\n      dup5\n      add\n        /* \"#utility.yul\":8131:8367   */\n      jump(tag_324)\n    tag_326:\n        /* \"#utility.yul\":8135:8138   */\n      pop\n        /* \"#utility.yul\":8395:8401   */\n      dup6\n        /* \"#utility.yul\":8386:8393   */\n      dup3\n        /* \"#utility.yul\":8383:8402   */\n      lt\n        /* \"#utility.yul\":8380:8641   */\n      iszero\n      tag_327\n      jumpi\n        /* \"#utility.yul\":8456:8475   */\n      dup8\n      dup6\n      add\n        /* \"#utility.yul\":8450:8476   */\n      mload\n        /* \"#utility.yul\":8557:8623   */\n      0xffffffffffffffffffffffffffffffffffffffffffffffffffffffffffffffff\n        /* \"#utility.yul\":8539:8540   */\n      0x03\n        /* \"#utility.yul\":8535:8549   */\n      dup9\n      swap1\n      shl\n        /* \"#utility.yul\":8551:8554   */\n      0xf8\n        /* \"#utility.yul\":8531:8555   */\n      and\n        /* \"#utility.yul\":8527:8624   */\n      shr\n        /* \"#utility.yul\":8523:8625   */\n      not\n        /* \"#utility.yul\":8508:8626   */\n      and\n        /* \"#utility.yul\":8493:8627   */\n      dup2\n      sstore\n        /* \"#utility.yul\":8380:8641   */\n    tag_327:\n      pop\n      pop\n        /* \"#utility.yul\":8687:8688   */\n      0x01\n        /* \"#utility.yul\":8678:8684   */\n      dup5\n        /* \"#utility.yul\":8675:8676   */\n      0x01\n        /* \"#utility.yul\":8671:8685   */\n      shl\n        /* \"#utility.yul\":8667:8689   */\n      add\n        /* \"#utility.yul\":8661:8665   */\n      dup6\n        /* \"#utility.yul\":8654:8690   */\n      sstore\n        /* \"#utility.yul\":7888:8951   */\n    tag_319:\n      pop\n      pop\n      pop\n      pop\n        /* \"#utility.yul\":7493:8957   */\n      pop\n      pop\n      jump\t// out\n\n    auxdata: 0xa264697066735822122031843fc26c3cf536a99969209574c64a7a57ff65f0ea328566d8c3759f682be364736f6c63430008170033\n}\n",
				"bytecode": {
					"linkReferences": {},
					"object": "611917610035600b8282823980515f1a60731461002957634e487b7160e01b5f525f60045260245ffd5b305f52607381538281f3fe73000000000000000000000000000000000000000030146080604052600436106101a5575f3560e01c8063821abc2d116100f3578063b62d8b911161009e578063ddca3f4311610079578063ddca3f43146109ac578063dec84db114610a08578063e149f03614610a27578063f589b75414610a3a575f80fd5b8063b62d8b911461081c578063d547cfb7146108b8578063dbe0b21c146108c0575f80fd5b8063a05cc559116100ce578063a05cc559146106c1578063ad715f2e146106e0578063b0d4ce251461075b575f80fd5b8063821abc2d14610627578063854f9db914610646578063963bfe12146106b9575f80fd5b806340e02f5c116101535780636c8b703f1161012e5780636c8b703f146105835780636ff97f1d146105a357806374e24367146105b8575f80fd5b806340e02f5c146103ea57806349a0a50e146104095780634f4979ed146104a7575f80fd5b8063331718091161018357806333171809146102a85780633802497b1461030457806339b37ab014610377575f80fd5b8063071bc71c146101a957806319f86200146101ca578063247c6ce014610235575b5f80fd5b8180156101b4575f80fd5b506101c86101c33660046113b2565b610a96565b005b60408051808201909152600681527f534d45616d6200000000000000000000000000000000000000000000000000006020909101527f880dcea5013c7917feacaa9870a5495e576440ae5dac799e84368c49d23bb4c0545b6040519081526020015b60405180910390f35b818015610240575f80fd5b506101c861024f3660046113e2565b60408051808201909152600681527f534d45616d6200000000000000000000000000000000000000000000000000006020909101527f880dcea5013c7917feacaa9870a5495e576440ae5dac799e84368c49d23bb4c255565b60408051808201909152600681527f534d45616d6200000000000000000000000000000000000000000000000000006020909101527f880dcea5013c7917feacaa9870a5495e576440ae5dac799e84368c49d23bb4c254610222565b81801561030f575f80fd5b506101c861031e3660046113e2565b60408051808201909152600681527f534d45616d6200000000000000000000000000000000000000000000000000006020909101527f880dcea5013c7917feacaa9870a5495e576440ae5dac799e84368c49d23bb4c055565b818015610382575f80fd5b506101c86103913660046113e2565b60408051808201909152600681527f534d45616d6200000000000000000000000000000000000000000000000000006020909101527f880dcea5013c7917feacaa9870a5495e576440ae5dac799e84368c49d23bb4c355565b8180156103f5575f80fd5b506101c86104043660046113e2565b610c94565b818015610414575f80fd5b506101c86104233660046113b2565b604080518082018252600681527f534d45616d62000000000000000000000000000000000000000000000000000060209182015273ffffffffffffffffffffffffffffffffffffffff949094165f9081527f880dcea5013c7917feacaa9870a5495e576440ae5dac799e84368c49d23bb4bc85528181209381529290935291902055565b8180156104b2575f80fd5b506101c86104c13660046113b2565b60408051808201825260068082527f534d45616d620000000000000000000000000000000000000000000000000000602092830181905273ffffffffffffffffffffffffffffffffffffffff969096165f9081527f880dcea5013c7917feacaa9870a5495e576440ae5dac799e84368c49d23bb4bc8352838120858252835283812086905583518085018552918252908201959095529284527f880dcea5013c7917feacaa9870a5495e576440ae5dac799e84368c49d23bb4bd909252912055565b6105966105913660046113e2565b610f05565b60405161022c91906113f9565b6105ab610ff4565b60405161022c9190611463565b6102226105c63660046113e2565b604080518082018252600681527f534d45616d6200000000000000000000000000000000000000000000000000006020918201525f9283527f880dcea5013c7917feacaa9870a5495e576440ae5dac799e84368c49d23bb4bd905290205490565b818015610632575f80fd5b506101c861064136600461157a565b611095565b818015610651575f80fd5b506101c86106603660046113e2565b60408051808201909152600681527f534d45616d6200000000000000000000000000000000000000000000000000006020909101527f880dcea5013c7917feacaa9870a5495e576440ae5dac799e84368c49d23bb4c155565b6105966110f9565b8180156106cc575f80fd5b506101c86106db36600461157a565b6111d7565b8180156106eb575f80fd5b506101c86106fa3660046115b4565b604080518082018252600681527f534d45616d6200000000000000000000000000000000000000000000000000006020918201525f9384527f880dcea5013c7917feacaa9870a5495e576440ae5dac799e84368c49d23bb4bd905290912055565b818015610766575f80fd5b506101c86107753660046115d4565b604080518082018252600681527f534d45616d62000000000000000000000000000000000000000000000000000060209182015273ffffffffffffffffffffffffffffffffffffffff939093165f9081527f880dcea5013c7917feacaa9870a5495e576440ae5dac799e84368c49d23bb4c490935290912080547fffffffffffffffffffffffffffffffffffffffffffffffffffffffffffffff0016911515919091179055565b6108a861082a36600461160d565b604080518082018252600681527f534d45616d62000000000000000000000000000000000000000000000000000060209182015273ffffffffffffffffffffffffffffffffffffffff929092165f9081527f880dcea5013c7917feacaa9870a5495e576440ae5dac799e84368c49d23bb4c490925290205460ff1690565b604051901515815260200161022c565b610596611237565b8180156108cb575f80fd5b506101c86108da3660046113e2565b60408051808201825260068082527f534d45616d62000000000000000000000000000000000000000000000000000060209283018190527f880dcea5013c7917feacaa9870a5495e576440ae5dac799e84368c49d23bb4be80548551808701875284815285018390525f8781527f880dcea5013c7917feacaa9870a5495e576440ae5dac799e84368c49d23bb4bf865286812082905586518088019097529386529490930152600183018255527f39ce0d6ff24e22f06f840506961de0149fbe0138c080f44ce540e31f2a1c880b0155565b60408051808201909152600681527f534d45616d6200000000000000000000000000000000000000000000000000006020909101527f880dcea5013c7917feacaa9870a5495e576440ae5dac799e84368c49d23bb4c354610222565b818015610a13575f80fd5b506101c8610a2236600461162d565b61129a565b610222610a3536600461166f565b611306565b60408051808201909152600681527f534d45616d6200000000000000000000000000000000000000000000000000006020909101527f880dcea5013c7917feacaa9870a5495e576440ae5dac799e84368c49d23bb4c154610222565b604080518082018252600681527f534d45616d6200000000000000000000000000000000000000000000000000006020918201525f8481527f880dcea5013c7917feacaa9870a5495e576440ae5dac799e84368c49d23bb4bd9091522054818114610bd55760408051808201825260068082527f534d45616d620000000000000000000000000000000000000000000000000000602092830181905273ffffffffffffffffffffffffffffffffffffffff88165f9081527f880dcea5013c7917feacaa9870a5495e576440ae5dac799e84368c49d23bb4bc84528481208782528085528582205486518088018852858152860184905287835290855285822081905585518087018752938452928401919091529081527f880dcea5013c7917feacaa9870a5495e576440ae5dac799e84368c49d23bb4bd909152208190555b5060408051808201825260068082527f534d45616d62000000000000000000000000000000000000000000000000000060209283018190525f9586527f880dcea5013c7917feacaa9870a5495e576440ae5dac799e84368c49d23bb4bd8352838620869055835180850185529182529082015273ffffffffffffffffffffffffffffffffffffffff9490941683527f880dcea5013c7917feacaa9870a5495e576440ae5dac799e84368c49d23bb4bc8452808320918352925290812055565b60408051808201909152600681527f534d45616d6200000000000000000000000000000000000000000000000000006020909101527f880dcea5013c7917feacaa9870a5495e576440ae5dac799e84368c49d23bb4be545f90610cf990600190611697565b60408051808201825260068082527f534d45616d62000000000000000000000000000000000000000000000000000060209283018190525f8781527f880dcea5013c7917feacaa9870a5495e576440ae5dac799e84368c49d23bb4bf845284812054855180870190965292855293909201919091527f880dcea5013c7917feacaa9870a5495e576440ae5dac799e84368c49d23bb4be8054939450909284908110610da657610da66116cf565b5f918252602091829020015460408051808201909152600681527f534d45616d6200000000000000000000000000000000000000000000000000009201919091529050807f880dcea5013c7917feacaa9870a5495e576440ae5dac799e84368c49d23bb4b96005018381548110610e1f57610e1f6116cf565b5f9182526020808320919091019290925560408051808201825260068082527f534d45616d6200000000000000000000000000000000000000000000000000009185018290528584527f880dcea5013c7917feacaa9870a5495e576440ae5dac799e84368c49d23bb4bf8086528385208890558351808501855282815286018390528985528552828420939093558151808301909252918152909101527f880dcea5013c7917feacaa9870a5495e576440ae5dac799e84368c49d23bb4be805480610eec57610eec6116fc565b600190038181905f5260205f20015f9055905550505050565b604080518082018252600681527f534d45616d6200000000000000000000000000000000000000000000000000006020918201525f8381527f880dcea5013c7917feacaa9870a5495e576440ae5dac799e84368c49d23bb4bb90915220805460609190610f7190611729565b80601f0160208091040260200160405190810160405280929190818152602001828054610f9d90611729565b8015610fe85780601f10610fbf57610100808354040283529160200191610fe8565b820191905f5260205f20905b815481529060010190602001808311610fcb57829003601f168201915b50505050509050919050565b604080518082018252600681527f534d45616d6200000000000000000000000000000000000000000000000000006020918201527f880dcea5013c7917feacaa9870a5495e576440ae5dac799e84368c49d23bb4be80548351818402810184019094528084526060939283018282801561108b57602002820191905f5260205f20905b815481526020019060010190808311611077575b5050505050905090565b60408051808201909152600681527f534d45616d6200000000000000000000000000000000000000000000000000006020909101527f880dcea5013c7917feacaa9870a5495e576440ae5dac799e84368c49d23bb4ba6110f582826117c5565b5050565b60408051808201909152600681527f534d45616d62000000000000000000000000000000000000000000000000000060209091015260607f880dcea5013c7917feacaa9870a5495e576440ae5dac799e84368c49d23bb4b9600101805461115f90611729565b80601f016020809104026020016040519081016040528092919081815260200182805461118b90611729565b801561108b5780601f106111ad5761010080835404028352916020019161108b565b820191905f5260205f20905b8154815290600101906020018083116111b957509395945050505050565b60408051808201909152600681527f534d45616d6200000000000000000000000000000000000000000000000000006020909101527f880dcea5013c7917feacaa9870a5495e576440ae5dac799e84368c49d23bb4b96110f582826117c5565b60408051808201909152600681527f534d45616d62000000000000000000000000000000000000000000000000000060209091015260607f880dcea5013c7917feacaa9870a5495e576440ae5dac799e84368c49d23bb4b9805461115f90611729565b604080518082018252600681527f534d45616d6200000000000000000000000000000000000000000000000000006020918201525f8381527f880dcea5013c7917feacaa9870a5495e576440ae5dac799e84368c49d23bb4bb9091522061130183826117c5565b505050565b604080518082018252600681527f534d45616d62000000000000000000000000000000000000000000000000000060209182015273ffffffffffffffffffffffffffffffffffffffff84165f9081527f880dcea5013c7917feacaa9870a5495e576440ae5dac799e84368c49d23bb4bc825282812084825290915220545b92915050565b803573ffffffffffffffffffffffffffffffffffffffff811681146113ad575f80fd5b919050565b5f805f606084860312156113c4575f80fd5b6113cd8461138a565b95602085013595506040909401359392505050565b5f602082840312156113f2575f80fd5b5035919050565b5f602080835283518060208501525f5b8181101561142557858101830151858201604001528201611409565b505f6040828601015260407fffffffffffffffffffffffffffffffffffffffffffffffffffffffffffffffe0601f8301168501019250505092915050565b602080825282518282018190525f9190848201906040850190845b8181101561149a5783518352928401929184019160010161147e565b50909695505050505050565b7f4e487b71000000000000000000000000000000000000000000000000000000005f52604160045260245ffd5b5f82601f8301126114e2575f80fd5b813567ffffffffffffffff808211156114fd576114fd6114a6565b604051601f83017fffffffffffffffffffffffffffffffffffffffffffffffffffffffffffffffe0908116603f01168101908282118183101715611543576115436114a6565b8160405283815286602085880101111561155b575f80fd5b836020870160208301375f602085830101528094505050505092915050565b5f6020828403121561158a575f80fd5b813567ffffffffffffffff8111156115a0575f80fd5b6115ac848285016114d3565b949350505050565b5f80604083850312156115c5575f80fd5b50508035926020909101359150565b5f80604083850312156115e5575f80fd5b6115ee8361138a565b915060208301358015158114611602575f80fd5b809150509250929050565b5f6020828403121561161d575f80fd5b6116268261138a565b9392505050565b5f806040838503121561163e575f80fd5b823567ffffffffffffffff811115611654575f80fd5b611660858286016114d3565b95602094909401359450505050565b5f8060408385031215611680575f80fd5b6116898361138a565b946020939093013593505050565b81810381811115611384577f4e487b71000000000000000000000000000000000000000000000000000000005f52601160045260245ffd5b7f4e487b71000000000000000000000000000000000000000000000000000000005f52603260045260245ffd5b7f4e487b71000000000000000000000000000000000000000000000000000000005f52603160045260245ffd5b600181811c9082168061173d57607f821691505b602082108103611774577f4e487b71000000000000000000000000000000000000000000000000000000005f52602260045260245ffd5b50919050565b601f82111561130157805f5260205f20601f840160051c8101602085101561179f5750805b601f840160051c820191505b818110156117be575f81556001016117ab565b5050505050565b815167ffffffffffffffff8111156117df576117df6114a6565b6117f3816117ed8454611729565b8461177a565b602080601f831160018114611845575f841561180f5750858301515b7fffffffffffffffffffffffffffffffffffffffffffffffffffffffffffffffff600386901b1c1916600185901b1785556118d9565b5f858152602081207fffffffffffffffffffffffffffffffffffffffffffffffffffffffffffffffe08616915b8281101561189157888601518255948401946001909101908401611872565b50858210156118cd57878501517fffffffffffffffffffffffffffffffffffffffffffffffffffffffffffffffff600388901b60f8161c191681555b505060018460011b0185555b50505050505056fea264697066735822122031843fc26c3cf536a99969209574c64a7a57ff65f0ea328566d8c3759f682be364736f6c63430008170033",
					"opcodes": "PUSH2 0x1917 PUSH2 0x35 PUSH1 0xB DUP3 DUP3 DUP3 CODECOPY DUP1 MLOAD PUSH0 BYTE PUSH1 0x73 EQ PUSH2 0x29 JUMPI PUSH4 0x4E487B71 PUSH1 0xE0 SHL PUSH0 MSTORE PUSH0 PUSH1 0x4 MSTORE PUSH1 0x24 PUSH0 REVERT JUMPDEST ADDRESS PUSH0 MSTORE PUSH1 0x73 DUP2 MSTORE8 DUP3 DUP2 RETURN INVALID PUSH20 0x0 ADDRESS EQ PUSH1 0x80 PUSH1 0x40 MSTORE PUSH1 0x4 CALLDATASIZE LT PUSH2 0x1A5 JUMPI PUSH0 CALLDATALOAD PUSH1 0xE0 SHR DUP1 PUSH4 0x821ABC2D GT PUSH2 0xF3 JUMPI DUP1 PUSH4 0xB62D8B91 GT PUSH2 0x9E JUMPI DUP1 PUSH4 0xDDCA3F43 GT PUSH2 0x79 JUMPI DUP1 PUSH4 0xDDCA3F43 EQ PUSH2 0x9AC JUMPI DUP1 PUSH4 0xDEC84DB1 EQ PUSH2 0xA08 JUMPI DUP1 PUSH4 0xE149F036 EQ PUSH2 0xA27 JUMPI DUP1 PUSH4 0xF589B754 EQ PUSH2 0xA3A JUMPI PUSH0 DUP1 REVERT JUMPDEST DUP1 PUSH4 0xB62D8B91 EQ PUSH2 0x81C JUMPI DUP1 PUSH4 0xD547CFB7 EQ PUSH2 0x8B8 JUMPI DUP1 PUSH4 0xDBE0B21C EQ PUSH2 0x8C0 JUMPI PUSH0 DUP1 REVERT JUMPDEST DUP1 PUSH4 0xA05CC559 GT PUSH2 0xCE JUMPI DUP1 PUSH4 0xA05CC559 EQ PUSH2 0x6C1 JUMPI DUP1 PUSH4 0xAD715F2E EQ PUSH2 0x6E0 JUMPI DUP1 PUSH4 0xB0D4CE25 EQ PUSH2 0x75B JUMPI PUSH0 DUP1 REVERT JUMPDEST DUP1 PUSH4 0x821ABC2D EQ PUSH2 0x627 JUMPI DUP1 PUSH4 0x854F9DB9 EQ PUSH2 0x646 JUMPI DUP1 PUSH4 0x963BFE12 EQ PUSH2 0x6B9 JUMPI PUSH0 DUP1 REVERT JUMPDEST DUP1 PUSH4 0x40E02F5C GT PUSH2 0x153 JUMPI DUP1 PUSH4 0x6C8B703F GT PUSH2 0x12E JUMPI DUP1 PUSH4 0x6C8B703F EQ PUSH2 0x583 JUMPI DUP1 PUSH4 0x6FF97F1D EQ PUSH2 0x5A3 JUMPI DUP1 PUSH4 0x74E24367 EQ PUSH2 0x5B8 JUMPI PUSH0 DUP1 REVERT JUMPDEST DUP1 PUSH4 0x40E02F5C EQ PUSH2 0x3EA JUMPI DUP1 PUSH4 0x49A0A50E EQ PUSH2 0x409 JUMPI DUP1 PUSH4 0x4F4979ED EQ PUSH2 0x4A7 JUMPI PUSH0 DUP1 REVERT JUMPDEST DUP1 PUSH4 0x33171809 GT PUSH2 0x183 JUMPI DUP1 PUSH4 0x33171809 EQ PUSH2 0x2A8 JUMPI DUP1 PUSH4 0x3802497B EQ PUSH2 0x304 JUMPI DUP1 PUSH4 0x39B37AB0 EQ PUSH2 0x377 JUMPI PUSH0 DUP1 REVERT JUMPDEST DUP1 PUSH4 0x71BC71C EQ PUSH2 0x1A9 JUMPI DUP1 PUSH4 0x19F86200 EQ PUSH2 0x1CA JUMPI DUP1 PUSH4 0x247C6CE0 EQ PUSH2 0x235 JUMPI JUMPDEST PUSH0 DUP1 REVERT JUMPDEST DUP2 DUP1 ISZERO PUSH2 0x1B4 JUMPI PUSH0 DUP1 REVERT JUMPDEST POP PUSH2 0x1C8 PUSH2 0x1C3 CALLDATASIZE PUSH1 0x4 PUSH2 0x13B2 JUMP JUMPDEST PUSH2 0xA96 JUMP JUMPDEST STOP JUMPDEST PUSH1 0x40 DUP1 MLOAD DUP1 DUP3 ADD SWAP1 SWAP2 MSTORE PUSH1 0x6 DUP2 MSTORE PUSH32 0x534D45616D620000000000000000000000000000000000000000000000000000 PUSH1 0x20 SWAP1 SWAP2 ADD MSTORE PUSH32 0x880DCEA5013C7917FEACAA9870A5495E576440AE5DAC799E84368C49D23BB4C0 SLOAD JUMPDEST PUSH1 0x40 MLOAD SWAP1 DUP2 MSTORE PUSH1 0x20 ADD JUMPDEST PUSH1 0x40 MLOAD DUP1 SWAP2 SUB SWAP1 RETURN JUMPDEST DUP2 DUP1 ISZERO PUSH2 0x240 JUMPI PUSH0 DUP1 REVERT JUMPDEST POP PUSH2 0x1C8 PUSH2 0x24F CALLDATASIZE PUSH1 0x4 PUSH2 0x13E2 JUMP JUMPDEST PUSH1 0x40 DUP1 MLOAD DUP1 DUP3 ADD SWAP1 SWAP2 MSTORE PUSH1 0x6 DUP2 MSTORE PUSH32 0x534D45616D620000000000000000000000000000000000000000000000000000 PUSH1 0x20 SWAP1 SWAP2 ADD MSTORE PUSH32 0x880DCEA5013C7917FEACAA9870A5495E576440AE5DAC799E84368C49D23BB4C2 SSTORE JUMP JUMPDEST PUSH1 0x40 DUP1 MLOAD DUP1 DUP3 ADD SWAP1 SWAP2 MSTORE PUSH1 0x6 DUP2 MSTORE PUSH32 0x534D45616D620000000000000000000000000000000000000000000000000000 PUSH1 0x20 SWAP1 SWAP2 ADD MSTORE PUSH32 0x880DCEA5013C7917FEACAA9870A5495E576440AE5DAC799E84368C49D23BB4C2 SLOAD PUSH2 0x222 JUMP JUMPDEST DUP2 DUP1 ISZERO PUSH2 0x30F JUMPI PUSH0 DUP1 REVERT JUMPDEST POP PUSH2 0x1C8 PUSH2 0x31E CALLDATASIZE PUSH1 0x4 PUSH2 0x13E2 JUMP JUMPDEST PUSH1 0x40 DUP1 MLOAD DUP1 DUP3 ADD SWAP1 SWAP2 MSTORE PUSH1 0x6 DUP2 MSTORE PUSH32 0x534D45616D620000000000000000000000000000000000000000000000000000 PUSH1 0x20 SWAP1 SWAP2 ADD MSTORE PUSH32 0x880DCEA5013C7917FEACAA9870A5495E576440AE5DAC799E84368C49D23BB4C0 SSTORE JUMP JUMPDEST DUP2 DUP1 ISZERO PUSH2 0x382 JUMPI PUSH0 DUP1 REVERT JUMPDEST POP PUSH2 0x1C8 PUSH2 0x391 CALLDATASIZE PUSH1 0x4 PUSH2 0x13E2 JUMP JUMPDEST PUSH1 0x40 DUP1 MLOAD DUP1 DUP3 ADD SWAP1 SWAP2 MSTORE PUSH1 0x6 DUP2 MSTORE PUSH32 0x534D45616D620000000000000000000000000000000000000000000000000000 PUSH1 0x20 SWAP1 SWAP2 ADD MSTORE PUSH32 0x880DCEA5013C7917FEACAA9870A5495E576440AE5DAC799E84368C49D23BB4C3 SSTORE JUMP JUMPDEST DUP2 DUP1 ISZERO PUSH2 0x3F5 JUMPI PUSH0 DUP1 REVERT JUMPDEST POP PUSH2 0x1C8 PUSH2 0x404 CALLDATASIZE PUSH1 0x4 PUSH2 0x13E2 JUMP JUMPDEST PUSH2 0xC94 JUMP JUMPDEST DUP2 DUP1 ISZERO PUSH2 0x414 JUMPI PUSH0 DUP1 REVERT JUMPDEST POP PUSH2 0x1C8 PUSH2 0x423 CALLDATASIZE PUSH1 0x4 PUSH2 0x13B2 JUMP JUMPDEST PUSH1 0x40 DUP1 MLOAD DUP1 DUP3 ADD DUP3 MSTORE PUSH1 0x6 DUP2 MSTORE PUSH32 0x534D45616D620000000000000000000000000000000000000000000000000000 PUSH1 0x20 SWAP2 DUP3 ADD MSTORE PUSH20 0xFFFFFFFFFFFFFFFFFFFFFFFFFFFFFFFFFFFFFFFF SWAP5 SWAP1 SWAP5 AND PUSH0 SWAP1 DUP2 MSTORE PUSH32 0x880DCEA5013C7917FEACAA9870A5495E576440AE5DAC799E84368C49D23BB4BC DUP6 MSTORE DUP2 DUP2 KECCAK256 SWAP4 DUP2 MSTORE SWAP3 SWAP1 SWAP4 MSTORE SWAP2 SWAP1 KECCAK256 SSTORE JUMP JUMPDEST DUP2 DUP1 ISZERO PUSH2 0x4B2 JUMPI PUSH0 DUP1 REVERT JUMPDEST POP PUSH2 0x1C8 PUSH2 0x4C1 CALLDATASIZE PUSH1 0x4 PUSH2 0x13B2 JUMP JUMPDEST PUSH1 0x40 DUP1 MLOAD DUP1 DUP3 ADD DUP3 MSTORE PUSH1 0x6 DUP1 DUP3 MSTORE PUSH32 0x534D45616D620000000000000000000000000000000000000000000000000000 PUSH1 0x20 SWAP3 DUP4 ADD DUP2 SWAP1 MSTORE PUSH20 0xFFFFFFFFFFFFFFFFFFFFFFFFFFFFFFFFFFFFFFFF SWAP7 SWAP1 SWAP7 AND PUSH0 SWAP1 DUP2 MSTORE PUSH32 0x880DCEA5013C7917FEACAA9870A5495E576440AE5DAC799E84368C49D23BB4BC DUP4 MSTORE DUP4 DUP2 KECCAK256 DUP6 DUP3 MSTORE DUP4 MSTORE DUP4 DUP2 KECCAK256 DUP7 SWAP1 SSTORE DUP4 MLOAD DUP1 DUP6 ADD DUP6 MSTORE SWAP2 DUP3 MSTORE SWAP1 DUP3 ADD SWAP6 SWAP1 SWAP6 MSTORE SWAP3 DUP5 MSTORE PUSH32 0x880DCEA5013C7917FEACAA9870A5495E576440AE5DAC799E84368C49D23BB4BD SWAP1 SWAP3 MSTORE SWAP2 KECCAK256 SSTORE JUMP JUMPDEST PUSH2 0x596 PUSH2 0x591 CALLDATASIZE PUSH1 0x4 PUSH2 0x13E2 JUMP JUMPDEST PUSH2 0xF05 JUMP JUMPDEST PUSH1 0x40 MLOAD PUSH2 0x22C SWAP2 SWAP1 PUSH2 0x13F9 JUMP JUMPDEST PUSH2 0x5AB PUSH2 0xFF4 JUMP JUMPDEST PUSH1 0x40 MLOAD PUSH2 0x22C SWAP2 SWAP1 PUSH2 0x1463 JUMP JUMPDEST PUSH2 0x222 PUSH2 0x5C6 CALLDATASIZE PUSH1 0x4 PUSH2 0x13E2 JUMP JUMPDEST PUSH1 0x40 DUP1 MLOAD DUP1 DUP3 ADD DUP3 MSTORE PUSH1 0x6 DUP2 MSTORE PUSH32 0x534D45616D620000000000000000000000000000000000000000000000000000 PUSH1 0x20 SWAP2 DUP3 ADD MSTORE PUSH0 SWAP3 DUP4 MSTORE PUSH32 0x880DCEA5013C7917FEACAA9870A5495E576440AE5DAC799E84368C49D23BB4BD SWAP1 MSTORE SWAP1 KECCAK256 SLOAD SWAP1 JUMP JUMPDEST DUP2 DUP1 ISZERO PUSH2 0x632 JUMPI PUSH0 DUP1 REVERT JUMPDEST POP PUSH2 0x1C8 PUSH2 0x641 CALLDATASIZE PUSH1 0x4 PUSH2 0x157A JUMP JUMPDEST PUSH2 0x1095 JUMP JUMPDEST DUP2 DUP1 ISZERO PUSH2 0x651 JUMPI PUSH0 DUP1 REVERT JUMPDEST POP PUSH2 0x1C8 PUSH2 0x660 CALLDATASIZE PUSH1 0x4 PUSH2 0x13E2 JUMP JUMPDEST PUSH1 0x40 DUP1 MLOAD DUP1 DUP3 ADD SWAP1 SWAP2 MSTORE PUSH1 0x6 DUP2 MSTORE PUSH32 0x534D45616D620000000000000000000000000000000000000000000000000000 PUSH1 0x20 SWAP1 SWAP2 ADD MSTORE PUSH32 0x880DCEA5013C7917FEACAA9870A5495E576440AE5DAC799E84368C49D23BB4C1 SSTORE JUMP JUMPDEST PUSH2 0x596 PUSH2 0x10F9 JUMP JUMPDEST DUP2 DUP1 ISZERO PUSH2 0x6CC JUMPI PUSH0 DUP1 REVERT JUMPDEST POP PUSH2 0x1C8 PUSH2 0x6DB CALLDATASIZE PUSH1 0x4 PUSH2 0x157A JUMP JUMPDEST PUSH2 0x11D7 JUMP JUMPDEST DUP2 DUP1 ISZERO PUSH2 0x6EB JUMPI PUSH0 DUP1 REVERT JUMPDEST POP PUSH2 0x1C8 PUSH2 0x6FA CALLDATASIZE PUSH1 0x4 PUSH2 0x15B4 JUMP JUMPDEST PUSH1 0x40 DUP1 MLOAD DUP1 DUP3 ADD DUP3 MSTORE PUSH1 0x6 DUP2 MSTORE PUSH32 0x534D45616D620000000000000000000000000000000000000000000000000000 PUSH1 0x20 SWAP2 DUP3 ADD MSTORE PUSH0 SWAP4 DUP5 MSTORE PUSH32 0x880DCEA5013C7917FEACAA9870A5495E576440AE5DAC799E84368C49D23BB4BD SWAP1 MSTORE SWAP1 SWAP2 KECCAK256 SSTORE JUMP JUMPDEST DUP2 DUP1 ISZERO PUSH2 0x766 JUMPI PUSH0 DUP1 REVERT JUMPDEST POP PUSH2 0x1C8 PUSH2 0x775 CALLDATASIZE PUSH1 0x4 PUSH2 0x15D4 JUMP JUMPDEST PUSH1 0x40 DUP1 MLOAD DUP1 DUP3 ADD DUP3 MSTORE PUSH1 0x6 DUP2 MSTORE PUSH32 0x534D45616D620000000000000000000000000000000000000000000000000000 PUSH1 0x20 SWAP2 DUP3 ADD MSTORE PUSH20 0xFFFFFFFFFFFFFFFFFFFFFFFFFFFFFFFFFFFFFFFF SWAP4 SWAP1 SWAP4 AND PUSH0 SWAP1 DUP2 MSTORE PUSH32 0x880DCEA5013C7917FEACAA9870A5495E576440AE5DAC799E84368C49D23BB4C4 SWAP1 SWAP4 MSTORE SWAP1 SWAP2 KECCAK256 DUP1 SLOAD PUSH32 0xFFFFFFFFFFFFFFFFFFFFFFFFFFFFFFFFFFFFFFFFFFFFFFFFFFFFFFFFFFFFFF00 AND SWAP2 ISZERO ISZERO SWAP2 SWAP1 SWAP2 OR SWAP1 SSTORE JUMP JUMPDEST PUSH2 0x8A8 PUSH2 0x82A CALLDATASIZE PUSH1 0x4 PUSH2 0x160D JUMP JUMPDEST PUSH1 0x40 DUP1 MLOAD DUP1 DUP3 ADD DUP3 MSTORE PUSH1 0x6 DUP2 MSTORE PUSH32 0x534D45616D620000000000000000000000000000000000000000000000000000 PUSH1 0x20 SWAP2 DUP3 ADD MSTORE PUSH20 0xFFFFFFFFFFFFFFFFFFFFFFFFFFFFFFFFFFFFFFFF SWAP3 SWAP1 SWAP3 AND PUSH0 SWAP1 DUP2 MSTORE PUSH32 0x880DCEA5013C7917FEACAA9870A5495E576440AE5DAC799E84368C49D23BB4C4 SWAP1 SWAP3 MSTORE SWAP1 KECCAK256 SLOAD PUSH1 0xFF AND SWAP1 JUMP JUMPDEST PUSH1 0x40 MLOAD SWAP1 ISZERO ISZERO DUP2 MSTORE PUSH1 0x20 ADD PUSH2 0x22C JUMP JUMPDEST PUSH2 0x596 PUSH2 0x1237 JUMP JUMPDEST DUP2 DUP1 ISZERO PUSH2 0x8CB JUMPI PUSH0 DUP1 REVERT JUMPDEST POP PUSH2 0x1C8 PUSH2 0x8DA CALLDATASIZE PUSH1 0x4 PUSH2 0x13E2 JUMP JUMPDEST PUSH1 0x40 DUP1 MLOAD DUP1 DUP3 ADD DUP3 MSTORE PUSH1 0x6 DUP1 DUP3 MSTORE PUSH32 0x534D45616D620000000000000000000000000000000000000000000000000000 PUSH1 0x20 SWAP3 DUP4 ADD DUP2 SWAP1 MSTORE PUSH32 0x880DCEA5013C7917FEACAA9870A5495E576440AE5DAC799E84368C49D23BB4BE DUP1 SLOAD DUP6 MLOAD DUP1 DUP8 ADD DUP8 MSTORE DUP5 DUP2 MSTORE DUP6 ADD DUP4 SWAP1 MSTORE PUSH0 DUP8 DUP2 MSTORE PUSH32 0x880DCEA5013C7917FEACAA9870A5495E576440AE5DAC799E84368C49D23BB4BF DUP7 MSTORE DUP7 DUP2 KECCAK256 DUP3 SWAP1 SSTORE DUP7 MLOAD DUP1 DUP9 ADD SWAP1 SWAP8 MSTORE SWAP4 DUP7 MSTORE SWAP5 SWAP1 SWAP4 ADD MSTORE PUSH1 0x1 DUP4 ADD DUP3 SSTORE MSTORE PUSH32 0x39CE0D6FF24E22F06F840506961DE0149FBE0138C080F44CE540E31F2A1C880B ADD SSTORE JUMP JUMPDEST PUSH1 0x40 DUP1 MLOAD DUP1 DUP3 ADD SWAP1 SWAP2 MSTORE PUSH1 0x6 DUP2 MSTORE PUSH32 0x534D45616D620000000000000000000000000000000000000000000000000000 PUSH1 0x20 SWAP1 SWAP2 ADD MSTORE PUSH32 0x880DCEA5013C7917FEACAA9870A5495E576440AE5DAC799E84368C49D23BB4C3 SLOAD PUSH2 0x222 JUMP JUMPDEST DUP2 DUP1 ISZERO PUSH2 0xA13 JUMPI PUSH0 DUP1 REVERT JUMPDEST POP PUSH2 0x1C8 PUSH2 0xA22 CALLDATASIZE PUSH1 0x4 PUSH2 0x162D JUMP JUMPDEST PUSH2 0x129A JUMP JUMPDEST PUSH2 0x222 PUSH2 0xA35 CALLDATASIZE PUSH1 0x4 PUSH2 0x166F JUMP JUMPDEST PUSH2 0x1306 JUMP JUMPDEST PUSH1 0x40 DUP1 MLOAD DUP1 DUP3 ADD SWAP1 SWAP2 MSTORE PUSH1 0x6 DUP2 MSTORE PUSH32 0x534D45616D620000000000000000000000000000000000000000000000000000 PUSH1 0x20 SWAP1 SWAP2 ADD MSTORE PUSH32 0x880DCEA5013C7917FEACAA9870A5495E576440AE5DAC799E84368C49D23BB4C1 SLOAD PUSH2 0x222 JUMP JUMPDEST PUSH1 0x40 DUP1 MLOAD DUP1 DUP3 ADD DUP3 MSTORE PUSH1 0x6 DUP2 MSTORE PUSH32 0x534D45616D620000000000000000000000000000000000000000000000000000 PUSH1 0x20 SWAP2 DUP3 ADD MSTORE PUSH0 DUP5 DUP2 MSTORE PUSH32 0x880DCEA5013C7917FEACAA9870A5495E576440AE5DAC799E84368C49D23BB4BD SWAP1 SWAP2 MSTORE KECCAK256 SLOAD DUP2 DUP2 EQ PUSH2 0xBD5 JUMPI PUSH1 0x40 DUP1 MLOAD DUP1 DUP3 ADD DUP3 MSTORE PUSH1 0x6 DUP1 DUP3 MSTORE PUSH32 0x534D45616D620000000000000000000000000000000000000000000000000000 PUSH1 0x20 SWAP3 DUP4 ADD DUP2 SWAP1 MSTORE PUSH20 0xFFFFFFFFFFFFFFFFFFFFFFFFFFFFFFFFFFFFFFFF DUP9 AND PUSH0 SWAP1 DUP2 MSTORE PUSH32 0x880DCEA5013C7917FEACAA9870A5495E576440AE5DAC799E84368C49D23BB4BC DUP5 MSTORE DUP5 DUP2 KECCAK256 DUP8 DUP3 MSTORE DUP1 DUP6 MSTORE DUP6 DUP3 KECCAK256 SLOAD DUP7 MLOAD DUP1 DUP9 ADD DUP9 MSTORE DUP6 DUP2 MSTORE DUP7 ADD DUP5 SWAP1 MSTORE DUP8 DUP4 MSTORE SWAP1 DUP6 MSTORE DUP6 DUP3 KECCAK256 DUP2 SWAP1 SSTORE DUP6 MLOAD DUP1 DUP8 ADD DUP8 MSTORE SWAP4 DUP5 MSTORE SWAP3 DUP5 ADD SWAP2 SWAP1 SWAP2 MSTORE SWAP1 DUP2 MSTORE PUSH32 0x880DCEA5013C7917FEACAA9870A5495E576440AE5DAC799E84368C49D23BB4BD SWAP1 SWAP2 MSTORE KECCAK256 DUP2 SWAP1 SSTORE JUMPDEST POP PUSH1 0x40 DUP1 MLOAD DUP1 DUP3 ADD DUP3 MSTORE PUSH1 0x6 DUP1 DUP3 MSTORE PUSH32 0x534D45616D620000000000000000000000000000000000000000000000000000 PUSH1 0x20 SWAP3 DUP4 ADD DUP2 SWAP1 MSTORE PUSH0 SWAP6 DUP7 MSTORE PUSH32 0x880DCEA5013C7917FEACAA9870A5495E576440AE5DAC799E84368C49D23BB4BD DUP4 MSTORE DUP4 DUP7 KECCAK256 DUP7 SWAP1 SSTORE DUP4 MLOAD DUP1 DUP6 ADD DUP6 MSTORE SWAP2 DUP3 MSTORE SWAP1 DUP3 ADD MSTORE PUSH20 0xFFFFFFFFFFFFFFFFFFFFFFFFFFFFFFFFFFFFFFFF SWAP5 SWAP1 SWAP5 AND DUP4 MSTORE PUSH32 0x880DCEA5013C7917FEACAA9870A5495E576440AE5DAC799E84368C49D23BB4BC DUP5 MSTORE DUP1 DUP4 KECCAK256 SWAP2 DUP4 MSTORE SWAP3 MSTORE SWAP1 DUP2 KECCAK256 SSTORE JUMP JUMPDEST PUSH1 0x40 DUP1 MLOAD DUP1 DUP3 ADD SWAP1 SWAP2 MSTORE PUSH1 0x6 DUP2 MSTORE PUSH32 0x534D45616D620000000000000000000000000000000000000000000000000000 PUSH1 0x20 SWAP1 SWAP2 ADD MSTORE PUSH32 0x880DCEA5013C7917FEACAA9870A5495E576440AE5DAC799E84368C49D23BB4BE SLOAD PUSH0 SWAP1 PUSH2 0xCF9 SWAP1 PUSH1 0x1 SWAP1 PUSH2 0x1697 JUMP JUMPDEST PUSH1 0x40 DUP1 MLOAD DUP1 DUP3 ADD DUP3 MSTORE PUSH1 0x6 DUP1 DUP3 MSTORE PUSH32 0x534D45616D620000000000000000000000000000000000000000000000000000 PUSH1 0x20 SWAP3 DUP4 ADD DUP2 SWAP1 MSTORE PUSH0 DUP8 DUP2 MSTORE PUSH32 0x880DCEA5013C7917FEACAA9870A5495E576440AE5DAC799E84368C49D23BB4BF DUP5 MSTORE DUP5 DUP2 KECCAK256 SLOAD DUP6 MLOAD DUP1 DUP8 ADD SWAP1 SWAP7 MSTORE SWAP3 DUP6 MSTORE SWAP4 SWAP1 SWAP3 ADD SWAP2 SWAP1 SWAP2 MSTORE PUSH32 0x880DCEA5013C7917FEACAA9870A5495E576440AE5DAC799E84368C49D23BB4BE DUP1 SLOAD SWAP4 SWAP5 POP SWAP1 SWAP3 DUP5 SWAP1 DUP2 LT PUSH2 0xDA6 JUMPI PUSH2 0xDA6 PUSH2 0x16CF JUMP JUMPDEST PUSH0 SWAP2 DUP3 MSTORE PUSH1 0x20 SWAP2 DUP3 SWAP1 KECCAK256 ADD SLOAD PUSH1 0x40 DUP1 MLOAD DUP1 DUP3 ADD SWAP1 SWAP2 MSTORE PUSH1 0x6 DUP2 MSTORE PUSH32 0x534D45616D620000000000000000000000000000000000000000000000000000 SWAP3 ADD SWAP2 SWAP1 SWAP2 MSTORE SWAP1 POP DUP1 PUSH32 0x880DCEA5013C7917FEACAA9870A5495E576440AE5DAC799E84368C49D23BB4B9 PUSH1 0x5 ADD DUP4 DUP2 SLOAD DUP2 LT PUSH2 0xE1F JUMPI PUSH2 0xE1F PUSH2 0x16CF JUMP JUMPDEST PUSH0 SWAP2 DUP3 MSTORE PUSH1 0x20 DUP1 DUP4 KECCAK256 SWAP2 SWAP1 SWAP2 ADD SWAP3 SWAP1 SWAP3 SSTORE PUSH1 0x40 DUP1 MLOAD DUP1 DUP3 ADD DUP3 MSTORE PUSH1 0x6 DUP1 DUP3 MSTORE PUSH32 0x534D45616D620000000000000000000000000000000000000000000000000000 SWAP2 DUP6 ADD DUP3 SWAP1 MSTORE DUP6 DUP5 MSTORE PUSH32 0x880DCEA5013C7917FEACAA9870A5495E576440AE5DAC799E84368C49D23BB4BF DUP1 DUP7 MSTORE DUP4 DUP6 KECCAK256 DUP9 SWAP1 SSTORE DUP4 MLOAD DUP1 DUP6 ADD DUP6 MSTORE DUP3 DUP2 MSTORE DUP7 ADD DUP4 SWAP1 MSTORE DUP10 DUP6 MSTORE DUP6 MSTORE DUP3 DUP5 KECCAK256 SWAP4 SWAP1 SWAP4 SSTORE DUP2 MLOAD DUP1 DUP4 ADD SWAP1 SWAP3 MSTORE SWAP2 DUP2 MSTORE SWAP1 SWAP2 ADD MSTORE PUSH32 0x880DCEA5013C7917FEACAA9870A5495E576440AE5DAC799E84368C49D23BB4BE DUP1 SLOAD DUP1 PUSH2 0xEEC JUMPI PUSH2 0xEEC PUSH2 0x16FC JUMP JUMPDEST PUSH1 0x1 SWAP1 SUB DUP2 DUP2 SWAP1 PUSH0 MSTORE PUSH1 0x20 PUSH0 KECCAK256 ADD PUSH0 SWAP1 SSTORE SWAP1 SSTORE POP POP POP POP JUMP JUMPDEST PUSH1 0x40 DUP1 MLOAD DUP1 DUP3 ADD DUP3 MSTORE PUSH1 0x6 DUP2 MSTORE PUSH32 0x534D45616D620000000000000000000000000000000000000000000000000000 PUSH1 0x20 SWAP2 DUP3 ADD MSTORE PUSH0 DUP4 DUP2 MSTORE PUSH32 0x880DCEA5013C7917FEACAA9870A5495E576440AE5DAC799E84368C49D23BB4BB SWAP1 SWAP2 MSTORE KECCAK256 DUP1 SLOAD PUSH1 0x60 SWAP2 SWAP1 PUSH2 0xF71 SWAP1 PUSH2 0x1729 JUMP JUMPDEST DUP1 PUSH1 0x1F ADD PUSH1 0x20 DUP1 SWAP2 DIV MUL PUSH1 0x20 ADD PUSH1 0x40 MLOAD SWAP1 DUP2 ADD PUSH1 0x40 MSTORE DUP1 SWAP3 SWAP2 SWAP1 DUP2 DUP2 MSTORE PUSH1 0x20 ADD DUP3 DUP1 SLOAD PUSH2 0xF9D SWAP1 PUSH2 0x1729 JUMP JUMPDEST DUP1 ISZERO PUSH2 0xFE8 JUMPI DUP1 PUSH1 0x1F LT PUSH2 0xFBF JUMPI PUSH2 0x100 DUP1 DUP4 SLOAD DIV MUL DUP4 MSTORE SWAP2 PUSH1 0x20 ADD SWAP2 PUSH2 0xFE8 JUMP JUMPDEST DUP3 ADD SWAP2 SWAP1 PUSH0 MSTORE PUSH1 0x20 PUSH0 KECCAK256 SWAP1 JUMPDEST DUP2 SLOAD DUP2 MSTORE SWAP1 PUSH1 0x1 ADD SWAP1 PUSH1 0x20 ADD DUP1 DUP4 GT PUSH2 0xFCB JUMPI DUP3 SWAP1 SUB PUSH1 0x1F AND DUP3 ADD SWAP2 JUMPDEST POP POP POP POP POP SWAP1 POP SWAP2 SWAP1 POP JUMP JUMPDEST PUSH1 0x40 DUP1 MLOAD DUP1 DUP3 ADD DUP3 MSTORE PUSH1 0x6 DUP2 MSTORE PUSH32 0x534D45616D620000000000000000000000000000000000000000000000000000 PUSH1 0x20 SWAP2 DUP3 ADD MSTORE PUSH32 0x880DCEA5013C7917FEACAA9870A5495E576440AE5DAC799E84368C49D23BB4BE DUP1 SLOAD DUP4 MLOAD DUP2 DUP5 MUL DUP2 ADD DUP5 ADD SWAP1 SWAP5 MSTORE DUP1 DUP5 MSTORE PUSH1 0x60 SWAP4 SWAP3 DUP4 ADD DUP3 DUP3 DUP1 ISZERO PUSH2 0x108B JUMPI PUSH1 0x20 MUL DUP3 ADD SWAP2 SWAP1 PUSH0 MSTORE PUSH1 0x20 PUSH0 KECCAK256 SWAP1 JUMPDEST DUP2 SLOAD DUP2 MSTORE PUSH1 0x20 ADD SWAP1 PUSH1 0x1 ADD SWAP1 DUP1 DUP4 GT PUSH2 0x1077 JUMPI JUMPDEST POP POP POP POP POP SWAP1 POP SWAP1 JUMP JUMPDEST PUSH1 0x40 DUP1 MLOAD DUP1 DUP3 ADD SWAP1 SWAP2 MSTORE PUSH1 0x6 DUP2 MSTORE PUSH32 0x534D45616D620000000000000000000000000000000000000000000000000000 PUSH1 0x20 SWAP1 SWAP2 ADD MSTORE PUSH32 0x880DCEA5013C7917FEACAA9870A5495E576440AE5DAC799E84368C49D23BB4BA PUSH2 0x10F5 DUP3 DUP3 PUSH2 0x17C5 JUMP JUMPDEST POP POP JUMP JUMPDEST PUSH1 0x40 DUP1 MLOAD DUP1 DUP3 ADD SWAP1 SWAP2 MSTORE PUSH1 0x6 DUP2 MSTORE PUSH32 0x534D45616D620000000000000000000000000000000000000000000000000000 PUSH1 0x20 SWAP1 SWAP2 ADD MSTORE PUSH1 0x60 PUSH32 0x880DCEA5013C7917FEACAA9870A5495E576440AE5DAC799E84368C49D23BB4B9 PUSH1 0x1 ADD DUP1 SLOAD PUSH2 0x115F SWAP1 PUSH2 0x1729 JUMP JUMPDEST DUP1 PUSH1 0x1F ADD PUSH1 0x20 DUP1 SWAP2 DIV MUL PUSH1 0x20 ADD PUSH1 0x40 MLOAD SWAP1 DUP2 ADD PUSH1 0x40 MSTORE DUP1 SWAP3 SWAP2 SWAP1 DUP2 DUP2 MSTORE PUSH1 0x20 ADD DUP3 DUP1 SLOAD PUSH2 0x118B SWAP1 PUSH2 0x1729 JUMP JUMPDEST DUP1 ISZERO PUSH2 0x108B JUMPI DUP1 PUSH1 0x1F LT PUSH2 0x11AD JUMPI PUSH2 0x100 DUP1 DUP4 SLOAD DIV MUL DUP4 MSTORE SWAP2 PUSH1 0x20 ADD SWAP2 PUSH2 0x108B JUMP JUMPDEST DUP3 ADD SWAP2 SWAP1 PUSH0 MSTORE PUSH1 0x20 PUSH0 KECCAK256 SWAP1 JUMPDEST DUP2 SLOAD DUP2 MSTORE SWAP1 PUSH1 0x1 ADD SWAP1 PUSH1 0x20 ADD DUP1 DUP4 GT PUSH2 0x11B9 JUMPI POP SWAP4 SWAP6 SWAP5 POP POP POP POP POP JUMP JUMPDEST PUSH1 0x40 DUP1 MLOAD DUP1 DUP3 ADD SWAP1 SWAP2 MSTORE PUSH1 0x6 DUP2 MSTORE PUSH32 0x534D45616D620000000000000000000000000000000000000000000000000000 PUSH1 0x20 SWAP1 SWAP2 ADD MSTORE PUSH32 0x880DCEA5013C7917FEACAA9870A5495E576440AE5DAC799E84368C49D23BB4B9 PUSH2 0x10F5 DUP3 DUP3 PUSH2 0x17C5 JUMP JUMPDEST PUSH1 0x40 DUP1 MLOAD DUP1 DUP3 ADD SWAP1 SWAP2 MSTORE PUSH1 0x6 DUP2 MSTORE PUSH32 0x534D45616D620000000000000000000000000000000000000000000000000000 PUSH1 0x20 SWAP1 SWAP2 ADD MSTORE PUSH1 0x60 PUSH32 0x880DCEA5013C7917FEACAA9870A5495E576440AE5DAC799E84368C49D23BB4B9 DUP1 SLOAD PUSH2 0x115F SWAP1 PUSH2 0x1729 JUMP JUMPDEST PUSH1 0x40 DUP1 MLOAD DUP1 DUP3 ADD DUP3 MSTORE PUSH1 0x6 DUP2 MSTORE PUSH32 0x534D45616D620000000000000000000000000000000000000000000000000000 PUSH1 0x20 SWAP2 DUP3 ADD MSTORE PUSH0 DUP4 DUP2 MSTORE PUSH32 0x880DCEA5013C7917FEACAA9870A5495E576440AE5DAC799E84368C49D23BB4BB SWAP1 SWAP2 MSTORE KECCAK256 PUSH2 0x1301 DUP4 DUP3 PUSH2 0x17C5 JUMP JUMPDEST POP POP POP JUMP JUMPDEST PUSH1 0x40 DUP1 MLOAD DUP1 DUP3 ADD DUP3 MSTORE PUSH1 0x6 DUP2 MSTORE PUSH32 0x534D45616D620000000000000000000000000000000000000000000000000000 PUSH1 0x20 SWAP2 DUP3 ADD MSTORE PUSH20 0xFFFFFFFFFFFFFFFFFFFFFFFFFFFFFFFFFFFFFFFF DUP5 AND PUSH0 SWAP1 DUP2 MSTORE PUSH32 0x880DCEA5013C7917FEACAA9870A5495E576440AE5DAC799E84368C49D23BB4BC DUP3 MSTORE DUP3 DUP2 KECCAK256 DUP5 DUP3 MSTORE SWAP1 SWAP2 MSTORE KECCAK256 SLOAD JUMPDEST SWAP3 SWAP2 POP POP JUMP JUMPDEST DUP1 CALLDATALOAD PUSH20 0xFFFFFFFFFFFFFFFFFFFFFFFFFFFFFFFFFFFFFFFF DUP2 AND DUP2 EQ PUSH2 0x13AD JUMPI PUSH0 DUP1 REVERT JUMPDEST SWAP2 SWAP1 POP JUMP JUMPDEST PUSH0 DUP1 PUSH0 PUSH1 0x60 DUP5 DUP7 SUB SLT ISZERO PUSH2 0x13C4 JUMPI PUSH0 DUP1 REVERT JUMPDEST PUSH2 0x13CD DUP5 PUSH2 0x138A JUMP JUMPDEST SWAP6 PUSH1 0x20 DUP6 ADD CALLDATALOAD SWAP6 POP PUSH1 0x40 SWAP1 SWAP5 ADD CALLDATALOAD SWAP4 SWAP3 POP POP POP JUMP JUMPDEST PUSH0 PUSH1 0x20 DUP3 DUP5 SUB SLT ISZERO PUSH2 0x13F2 JUMPI PUSH0 DUP1 REVERT JUMPDEST POP CALLDATALOAD SWAP2 SWAP1 POP JUMP JUMPDEST PUSH0 PUSH1 0x20 DUP1 DUP4 MSTORE DUP4 MLOAD DUP1 PUSH1 0x20 DUP6 ADD MSTORE PUSH0 JUMPDEST DUP2 DUP2 LT ISZERO PUSH2 0x1425 JUMPI DUP6 DUP2 ADD DUP4 ADD MLOAD DUP6 DUP3 ADD PUSH1 0x40 ADD MSTORE DUP3 ADD PUSH2 0x1409 JUMP JUMPDEST POP PUSH0 PUSH1 0x40 DUP3 DUP7 ADD ADD MSTORE PUSH1 0x40 PUSH32 0xFFFFFFFFFFFFFFFFFFFFFFFFFFFFFFFFFFFFFFFFFFFFFFFFFFFFFFFFFFFFFFE0 PUSH1 0x1F DUP4 ADD AND DUP6 ADD ADD SWAP3 POP POP POP SWAP3 SWAP2 POP POP JUMP JUMPDEST PUSH1 0x20 DUP1 DUP3 MSTORE DUP3 MLOAD DUP3 DUP3 ADD DUP2 SWAP1 MSTORE PUSH0 SWAP2 SWAP1 DUP5 DUP3 ADD SWAP1 PUSH1 0x40 DUP6 ADD SWAP1 DUP5 JUMPDEST DUP2 DUP2 LT ISZERO PUSH2 0x149A JUMPI DUP4 MLOAD DUP4 MSTORE SWAP3 DUP5 ADD SWAP3 SWAP2 DUP5 ADD SWAP2 PUSH1 0x1 ADD PUSH2 0x147E JUMP JUMPDEST POP SWAP1 SWAP7 SWAP6 POP POP POP POP POP POP JUMP JUMPDEST PUSH32 0x4E487B7100000000000000000000000000000000000000000000000000000000 PUSH0 MSTORE PUSH1 0x41 PUSH1 0x4 MSTORE PUSH1 0x24 PUSH0 REVERT JUMPDEST PUSH0 DUP3 PUSH1 0x1F DUP4 ADD SLT PUSH2 0x14E2 JUMPI PUSH0 DUP1 REVERT JUMPDEST DUP2 CALLDATALOAD PUSH8 0xFFFFFFFFFFFFFFFF DUP1 DUP3 GT ISZERO PUSH2 0x14FD JUMPI PUSH2 0x14FD PUSH2 0x14A6 JUMP JUMPDEST PUSH1 0x40 MLOAD PUSH1 0x1F DUP4 ADD PUSH32 0xFFFFFFFFFFFFFFFFFFFFFFFFFFFFFFFFFFFFFFFFFFFFFFFFFFFFFFFFFFFFFFE0 SWAP1 DUP2 AND PUSH1 0x3F ADD AND DUP2 ADD SWAP1 DUP3 DUP3 GT DUP2 DUP4 LT OR ISZERO PUSH2 0x1543 JUMPI PUSH2 0x1543 PUSH2 0x14A6 JUMP JUMPDEST DUP2 PUSH1 0x40 MSTORE DUP4 DUP2 MSTORE DUP7 PUSH1 0x20 DUP6 DUP9 ADD ADD GT ISZERO PUSH2 0x155B JUMPI PUSH0 DUP1 REVERT JUMPDEST DUP4 PUSH1 0x20 DUP8 ADD PUSH1 0x20 DUP4 ADD CALLDATACOPY PUSH0 PUSH1 0x20 DUP6 DUP4 ADD ADD MSTORE DUP1 SWAP5 POP POP POP POP POP SWAP3 SWAP2 POP POP JUMP JUMPDEST PUSH0 PUSH1 0x20 DUP3 DUP5 SUB SLT ISZERO PUSH2 0x158A JUMPI PUSH0 DUP1 REVERT JUMPDEST DUP2 CALLDATALOAD PUSH8 0xFFFFFFFFFFFFFFFF DUP2 GT ISZERO PUSH2 0x15A0 JUMPI PUSH0 DUP1 REVERT JUMPDEST PUSH2 0x15AC DUP5 DUP3 DUP6 ADD PUSH2 0x14D3 JUMP JUMPDEST SWAP5 SWAP4 POP POP POP POP JUMP JUMPDEST PUSH0 DUP1 PUSH1 0x40 DUP4 DUP6 SUB SLT ISZERO PUSH2 0x15C5 JUMPI PUSH0 DUP1 REVERT JUMPDEST POP POP DUP1 CALLDATALOAD SWAP3 PUSH1 0x20 SWAP1 SWAP2 ADD CALLDATALOAD SWAP2 POP JUMP JUMPDEST PUSH0 DUP1 PUSH1 0x40 DUP4 DUP6 SUB SLT ISZERO PUSH2 0x15E5 JUMPI PUSH0 DUP1 REVERT JUMPDEST PUSH2 0x15EE DUP4 PUSH2 0x138A JUMP JUMPDEST SWAP2 POP PUSH1 0x20 DUP4 ADD CALLDATALOAD DUP1 ISZERO ISZERO DUP2 EQ PUSH2 0x1602 JUMPI PUSH0 DUP1 REVERT JUMPDEST DUP1 SWAP2 POP POP SWAP3 POP SWAP3 SWAP1 POP JUMP JUMPDEST PUSH0 PUSH1 0x20 DUP3 DUP5 SUB SLT ISZERO PUSH2 0x161D JUMPI PUSH0 DUP1 REVERT JUMPDEST PUSH2 0x1626 DUP3 PUSH2 0x138A JUMP JUMPDEST SWAP4 SWAP3 POP POP POP JUMP JUMPDEST PUSH0 DUP1 PUSH1 0x40 DUP4 DUP6 SUB SLT ISZERO PUSH2 0x163E JUMPI PUSH0 DUP1 REVERT JUMPDEST DUP3 CALLDATALOAD PUSH8 0xFFFFFFFFFFFFFFFF DUP2 GT ISZERO PUSH2 0x1654 JUMPI PUSH0 DUP1 REVERT JUMPDEST PUSH2 0x1660 DUP6 DUP3 DUP7 ADD PUSH2 0x14D3 JUMP JUMPDEST SWAP6 PUSH1 0x20 SWAP5 SWAP1 SWAP5 ADD CALLDATALOAD SWAP5 POP POP POP POP JUMP JUMPDEST PUSH0 DUP1 PUSH1 0x40 DUP4 DUP6 SUB SLT ISZERO PUSH2 0x1680 JUMPI PUSH0 DUP1 REVERT JUMPDEST PUSH2 0x1689 DUP4 PUSH2 0x138A JUMP JUMPDEST SWAP5 PUSH1 0x20 SWAP4 SWAP1 SWAP4 ADD CALLDATALOAD SWAP4 POP POP POP JUMP JUMPDEST DUP2 DUP2 SUB DUP2 DUP2 GT ISZERO PUSH2 0x1384 JUMPI PUSH32 0x4E487B7100000000000000000000000000000000000000000000000000000000 PUSH0 MSTORE PUSH1 0x11 PUSH1 0x4 MSTORE PUSH1 0x24 PUSH0 REVERT JUMPDEST PUSH32 0x4E487B7100000000000000000000000000000000000000000000000000000000 PUSH0 MSTORE PUSH1 0x32 PUSH1 0x4 MSTORE PUSH1 0x24 PUSH0 REVERT JUMPDEST PUSH32 0x4E487B7100000000000000000000000000000000000000000000000000000000 PUSH0 MSTORE PUSH1 0x31 PUSH1 0x4 MSTORE PUSH1 0x24 PUSH0 REVERT JUMPDEST PUSH1 0x1 DUP2 DUP2 SHR SWAP1 DUP3 AND DUP1 PUSH2 0x173D JUMPI PUSH1 0x7F DUP3 AND SWAP2 POP JUMPDEST PUSH1 0x20 DUP3 LT DUP2 SUB PUSH2 0x1774 JUMPI PUSH32 0x4E487B7100000000000000000000000000000000000000000000000000000000 PUSH0 MSTORE PUSH1 0x22 PUSH1 0x4 MSTORE PUSH1 0x24 PUSH0 REVERT JUMPDEST POP SWAP2 SWAP1 POP JUMP JUMPDEST PUSH1 0x1F DUP3 GT ISZERO PUSH2 0x1301 JUMPI DUP1 PUSH0 MSTORE PUSH1 0x20 PUSH0 KECCAK256 PUSH1 0x1F DUP5 ADD PUSH1 0x5 SHR DUP2 ADD PUSH1 0x20 DUP6 LT ISZERO PUSH2 0x179F JUMPI POP DUP1 JUMPDEST PUSH1 0x1F DUP5 ADD PUSH1 0x5 SHR DUP3 ADD SWAP2 POP JUMPDEST DUP2 DUP2 LT ISZERO PUSH2 0x17BE JUMPI PUSH0 DUP2 SSTORE PUSH1 0x1 ADD PUSH2 0x17AB JUMP JUMPDEST POP POP POP POP POP JUMP JUMPDEST DUP2 MLOAD PUSH8 0xFFFFFFFFFFFFFFFF DUP2 GT ISZERO PUSH2 0x17DF JUMPI PUSH2 0x17DF PUSH2 0x14A6 JUMP JUMPDEST PUSH2 0x17F3 DUP2 PUSH2 0x17ED DUP5 SLOAD PUSH2 0x1729 JUMP JUMPDEST DUP5 PUSH2 0x177A JUMP JUMPDEST PUSH1 0x20 DUP1 PUSH1 0x1F DUP4 GT PUSH1 0x1 DUP2 EQ PUSH2 0x1845 JUMPI PUSH0 DUP5 ISZERO PUSH2 0x180F JUMPI POP DUP6 DUP4 ADD MLOAD JUMPDEST PUSH32 0xFFFFFFFFFFFFFFFFFFFFFFFFFFFFFFFFFFFFFFFFFFFFFFFFFFFFFFFFFFFFFFFF PUSH1 0x3 DUP7 SWAP1 SHL SHR NOT AND PUSH1 0x1 DUP6 SWAP1 SHL OR DUP6 SSTORE PUSH2 0x18D9 JUMP JUMPDEST PUSH0 DUP6 DUP2 MSTORE PUSH1 0x20 DUP2 KECCAK256 PUSH32 0xFFFFFFFFFFFFFFFFFFFFFFFFFFFFFFFFFFFFFFFFFFFFFFFFFFFFFFFFFFFFFFE0 DUP7 AND SWAP2 JUMPDEST DUP3 DUP2 LT ISZERO PUSH2 0x1891 JUMPI DUP9 DUP7 ADD MLOAD DUP3 SSTORE SWAP5 DUP5 ADD SWAP5 PUSH1 0x1 SWAP1 SWAP2 ADD SWAP1 DUP5 ADD PUSH2 0x1872 JUMP JUMPDEST POP DUP6 DUP3 LT ISZERO PUSH2 0x18CD JUMPI DUP8 DUP6 ADD MLOAD PUSH32 0xFFFFFFFFFFFFFFFFFFFFFFFFFFFFFFFFFFFFFFFFFFFFFFFFFFFFFFFFFFFFFFFF PUSH1 0x3 DUP9 SWAP1 SHL PUSH1 0xF8 AND SHR NOT AND DUP2 SSTORE JUMPDEST POP POP PUSH1 0x1 DUP5 PUSH1 0x1 SHL ADD DUP6 SSTORE JUMPDEST POP POP POP POP POP POP JUMP INVALID LOG2 PUSH5 0x6970667358 0x22 SLT KECCAK256 BALANCE DUP5 EXTCODEHASH 0xC2 PUSH13 0x3CF536A99969209574C64A7A57 SELFDESTRUCT PUSH6 0xF0EA328566D8 0xC3 PUSH22 0x9F682BE364736F6C6343000817003300000000000000 "
				},
				"gasEstimates": {
					"creation": {
						"codeDepositCost": "1284600",
						"executionCost": "1366",
						"totalCost": "1285966"
					},
					"external": {
						"addTokenToAllTokensEnumeration(uint256)": "68980",
						"addTokenToOwnerEnumeration(address,uint256,uint256)": "44959",
						"allTokens()": "infinite",
						"baseTokenURI()": "infinite",
						"baseTokenURI(string)": "infinite",
						"defaultTokenURI()": "infinite",
						"defaultTokenURI(string)": "infinite",
						"epiclistRoot()": "2370",
						"epiclistRoot(bytes32)": "22473",
						"fee()": "2368",
						"fee(uint256)": "22472",
						"genesislistRoot()": "2382",
						"genesislistRoot(bytes32)": "22450",
						"guaranteed_minted(address)": "2617",
						"guaranteed_minted(address,bool)": "24813",
						"legendlistRoot()": "2434",
						"legendlistRoot(bytes32)": "22450",
						"ownedTokens(address,uint256)": "2732",
						"ownedTokens(address,uint256,uint256)": "22705",
						"ownedTokensIndex(uint256)": "2551",
						"ownedTokensIndex(uint256,uint256)": "22534",
						"removeTokenFromAllTokensEnumeration(uint256)": "90229",
						"removeTokenFromOwnerEnumeration(address,uint256,uint256)": "59721",
						"tokenURIs(string,uint256)": "infinite",
						"tokenURIs(uint256)": "infinite"
					},
					"internal": {
						"_getStorage(bytes32)": "infinite"
					}
				},
				"methodIdentifiers": {
					"addTokenToAllTokensEnumeration(uint256)": "dbe0b21c",
					"addTokenToOwnerEnumeration(address,uint256,uint256)": "4f4979ed",
					"allTokens()": "6ff97f1d",
					"baseTokenURI()": "d547cfb7",
					"baseTokenURI(string)": "a05cc559",
					"defaultTokenURI()": "963bfe12",
					"defaultTokenURI(string)": "821abc2d",
					"epiclistRoot()": "33171809",
					"epiclistRoot(bytes32)": "247c6ce0",
					"fee()": "ddca3f43",
					"fee(uint256)": "39b37ab0",
					"genesislistRoot()": "19f86200",
					"genesislistRoot(bytes32)": "3802497b",
					"guaranteed_minted(address)": "b62d8b91",
					"guaranteed_minted(address,bool)": "b0d4ce25",
					"legendlistRoot()": "f589b754",
					"legendlistRoot(bytes32)": "854f9db9",
					"ownedTokens(address,uint256)": "e149f036",
					"ownedTokens(address,uint256,uint256)": "49a0a50e",
					"ownedTokensIndex(uint256)": "74e24367",
					"ownedTokensIndex(uint256,uint256)": "ad715f2e",
					"removeTokenFromAllTokensEnumeration(uint256)": "40e02f5c",
					"removeTokenFromOwnerEnumeration(address,uint256,uint256)": "071bc71c",
					"tokenURIs(string,uint256)": "dec84db1",
					"tokenURIs(uint256)": "6c8b703f"
				}
			},
			"storageLayout": {
				"storage": [],
				"types": null
			},
			"userdoc": {
				"kind": "user",
				"methods": {},
				"notice": "Библиотека хранилища амбассадорки*",
				"version": 1
			}
		}
	}
}