{
	"contracts/storage/LibOwnableStorage.sol": {
		"OwnableStorage": {
			"abi": [
				{
					"anonymous": false,
					"inputs": [],
					"name": "SeTimestampExp",
					"type": "event"
				},
				{
					"anonymous": false,
					"inputs": [],
					"name": "SetGracePeriod",
					"type": "event"
				},
				{
					"anonymous": false,
					"inputs": [],
					"name": "SetNewOwner",
					"type": "event"
				},
				{
					"anonymous": false,
					"inputs": [],
					"name": "SetOwner",
					"type": "event"
				},
				{
					"inputs": [],
					"name": "getGracePeriod",
					"outputs": [
						{
							"internalType": "uint256",
							"name": "",
							"type": "uint256"
						}
					],
					"stateMutability": "view",
					"type": "function"
				},
				{
					"inputs": [],
					"name": "getNewOwner",
					"outputs": [
						{
							"internalType": "address",
							"name": "",
							"type": "address"
						}
					],
					"stateMutability": "view",
					"type": "function"
				},
				{
					"inputs": [],
					"name": "getOwner",
					"outputs": [
						{
							"internalType": "address",
							"name": "",
							"type": "address"
						}
					],
					"stateMutability": "view",
					"type": "function"
				},
				{
					"inputs": [],
					"name": "getTimestampExp",
					"outputs": [
						{
							"internalType": "uint256",
							"name": "",
							"type": "uint256"
						}
					],
					"stateMutability": "view",
					"type": "function"
				}
			],
			"devdoc": {
				"custom:version": "1.0.0",
				"details": "Логику смотри в модуле Ownable",
				"events": {
					"SeTimestampExp()": {
						"details": "Установлено новое значение timestampExp"
					},
					"SetGracePeriod()": {
						"details": "Установлено новое значение грейс периода"
					},
					"SetNewOwner()": {
						"details": "Установлено новое значение newOwner"
					},
					"SetOwner()": {
						"details": "Установлено новое значение newOwner"
					}
				},
				"kind": "dev",
				"methods": {
					"getOwner()": {
						"details": "геттеры"
					},
					"setGracePeriod(uint256)": {
						"details": "установка gracePeriod"
					},
					"setTimestampExp(uint256)": {
						"details": "установка timestampExp"
					},
					"setnewOwner(address)": {
						"details": "установка newOwner"
					},
					"setowner(address)": {
						"details": "установка owner"
					}
				},
				"stateVariables": {
					"SLOT": {
						"details": "Слот хранилища"
					}
				},
				"title": "OwnableStorage",
				"version": 1
			},
			"evm": {
				"assembly": "    /* \"contracts/storage/LibOwnableStorage.sol\":278:2654  library OwnableStorage {... */\n  dataSize(sub_0)\n  dataOffset(sub_0)\n  0x0b\n  dup3\n  dup3\n  dup3\n  codecopy\n  dup1\n  mload\n  0x00\n  byte\n  0x73\n  eq\n  tag_1\n  jumpi\n  mstore(0x00, shl(0xe0, 0x4e487b71))\n  mstore(0x04, 0x00)\n  revert(0x00, 0x24)\ntag_1:\n  mstore(0x00, address)\n  0x73\n  dup2\n  mstore8\n  dup3\n  dup2\n  return\nstop\n\nsub_0: assembly {\n        /* \"contracts/storage/LibOwnableStorage.sol\":278:2654  library OwnableStorage {... */\n      eq(address, deployTimeAddress())\n      mstore(0x40, 0x80)\n      jumpi(tag_1, lt(calldatasize, 0x04))\n      shr(0xe0, calldataload(0x00))\n      dup1\n      0x893d20e8\n      gt\n      tag_10\n      jumpi\n      dup1\n      0x893d20e8\n      eq\n      tag_6\n      jumpi\n      dup1\n      0xdbd18388\n      eq\n      tag_7\n      jumpi\n      dup1\n      0xf2f65960\n      eq\n      tag_8\n      jumpi\n      dup1\n      0xfdb0afee\n      eq\n      tag_9\n      jumpi\n      0x00\n      dup1\n      revert\n    tag_10:\n      dup1\n      0x34b8160c\n      eq\n      tag_2\n      jumpi\n      dup1\n      0x3e2fe149\n      eq\n      tag_3\n      jumpi\n      dup1\n      0x592bd705\n      eq\n      tag_4\n      jumpi\n      dup1\n      0x61a9ab76\n      eq\n      tag_5\n      jumpi\n    tag_1:\n      0x00\n      dup1\n      revert\n        /* \"contracts/storage/LibOwnableStorage.sol\":1950:2078  function setnewOwner(address _newOwner) external{... */\n    tag_2:\n      dup2\n      dup1\n      iszero\n      tag_11\n      jumpi\n      0x00\n      dup1\n      revert\n    tag_11:\n      pop\n      tag_12\n      tag_13\n      calldatasize\n      0x04\n      tag_14\n      jump\t// in\n    tag_13:\n      tag_15\n      jump\t// in\n    tag_12:\n      stop\n        /* \"contracts/storage/LibOwnableStorage.sol\":1466:1554  function getNewOwner()external view returns(address){return _getStorage(SLOT).newOwner;} */\n    tag_3:\n        /* \"contracts/storage/LibOwnableStorage.sol\":382:398  bytes('Ownable') */\n      0x40\n      dup1\n      mload\n      dup1\n      dup3\n      add\n      swap1\n      swap2\n      mstore\n      0x07\n      dup2\n      mstore\n      0x4f776e61626c6500000000000000000000000000000000000000000000000000\n      0x20\n      swap1\n      swap2\n      add\n      mstore\n        /* \"contracts/storage/LibOwnableStorage.sol\":1526:1552  _getStorage(SLOT).newOwner */\n      and(0xffffffffffffffffffffffffffffffffffffffff, sload(0x6df9baf4dc8c02086c72903e4bba587f1a261a8542aa45344809b4583161a59f))\n        /* \"contracts/storage/LibOwnableStorage.sol\":1466:1554  function getNewOwner()external view returns(address){return _getStorage(SLOT).newOwner;} */\n    tag_16:\n      mload(0x40)\n        /* \"#utility.yul\":512:554   */\n      0xffffffffffffffffffffffffffffffffffffffff\n        /* \"#utility.yul\":500:555   */\n      swap1\n      swap2\n      and\n        /* \"#utility.yul\":482:556   */\n      dup2\n      mstore\n        /* \"#utility.yul\":470:472   */\n      0x20\n        /* \"#utility.yul\":455:473   */\n      add\n        /* \"contracts/storage/LibOwnableStorage.sol\":1466:1554  function getNewOwner()external view returns(address){return _getStorage(SLOT).newOwner;} */\n    tag_18:\n      mload(0x40)\n      dup1\n      swap2\n      sub\n      swap1\n      return\n        /* \"contracts/storage/LibOwnableStorage.sol\":1791:1904  function setowner(address _owner) external{... */\n    tag_4:\n      dup2\n      dup1\n      iszero\n      tag_20\n      jumpi\n      0x00\n      dup1\n      revert\n    tag_20:\n      pop\n      tag_12\n      tag_22\n      calldatasize\n      0x04\n      tag_14\n      jump\t// in\n    tag_22:\n      tag_23\n      jump\t// in\n        /* \"contracts/storage/LibOwnableStorage.sol\":1558:1651  function getTimestampExp()external view returns(uint){return _getStorage(SLOT).timestampExp;} */\n    tag_5:\n        /* \"contracts/storage/LibOwnableStorage.sol\":382:398  bytes('Ownable') */\n      0x40\n      dup1\n      mload\n      dup1\n      dup3\n      add\n      swap1\n      swap2\n      mstore\n      0x07\n      dup2\n      mstore\n      0x4f776e61626c6500000000000000000000000000000000000000000000000000\n      0x20\n      swap1\n      swap2\n      add\n      mstore\n        /* \"contracts/storage/LibOwnableStorage.sol\":1619:1649  _getStorage(SLOT).timestampExp */\n      sload(0x6df9baf4dc8c02086c72903e4bba587f1a261a8542aa45344809b4583161a5a0)\n        /* \"contracts/storage/LibOwnableStorage.sol\":1558:1651  function getTimestampExp()external view returns(uint){return _getStorage(SLOT).timestampExp;} */\n    tag_24:\n      mload(0x40)\n        /* \"#utility.yul\":721:746   */\n      swap1\n      dup2\n      mstore\n        /* \"#utility.yul\":709:711   */\n      0x20\n        /* \"#utility.yul\":694:712   */\n      add\n        /* \"contracts/storage/LibOwnableStorage.sol\":1558:1651  function getTimestampExp()external view returns(uint){return _getStorage(SLOT).timestampExp;} */\n      tag_18\n        /* \"#utility.yul\":567:752   */\n      jump\n        /* \"contracts/storage/LibOwnableStorage.sol\":1380:1462  function getOwner()external view returns(address){return _getStorage(SLOT).owner;} */\n    tag_6:\n        /* \"contracts/storage/LibOwnableStorage.sol\":382:398  bytes('Ownable') */\n      0x40\n      dup1\n      mload\n      dup1\n      dup3\n      add\n      swap1\n      swap2\n      mstore\n      0x07\n      dup2\n      mstore\n      0x4f776e61626c6500000000000000000000000000000000000000000000000000\n      0x20\n      swap1\n      swap2\n      add\n      mstore\n        /* \"contracts/storage/LibOwnableStorage.sol\":372:399  keccak256(bytes('Ownable')) */\n      0x6df9baf4dc8c02086c72903e4bba587f1a261a8542aa45344809b4583161a59e\n        /* \"contracts/storage/LibOwnableStorage.sol\":1437:1460  _getStorage(SLOT).owner */\n      sload\n      0xffffffffffffffffffffffffffffffffffffffff\n      and\n        /* \"contracts/storage/LibOwnableStorage.sol\":1380:1462  function getOwner()external view returns(address){return _getStorage(SLOT).owner;} */\n      jump(tag_16)\n        /* \"contracts/storage/LibOwnableStorage.sol\":1655:1746  function getGracePeriod()external view returns(uint){return _getStorage(SLOT).gracePeriod;} */\n    tag_7:\n        /* \"contracts/storage/LibOwnableStorage.sol\":382:398  bytes('Ownable') */\n      0x40\n      dup1\n      mload\n      dup1\n      dup3\n      add\n      swap1\n      swap2\n      mstore\n      0x07\n      dup2\n      mstore\n      0x4f776e61626c6500000000000000000000000000000000000000000000000000\n      0x20\n      swap1\n      swap2\n      add\n      mstore\n        /* \"contracts/storage/LibOwnableStorage.sol\":1715:1744  _getStorage(SLOT).gracePeriod */\n      sload(0x6df9baf4dc8c02086c72903e4bba587f1a261a8542aa45344809b4583161a5a1)\n        /* \"contracts/storage/LibOwnableStorage.sol\":1655:1746  function getGracePeriod()external view returns(uint){return _getStorage(SLOT).gracePeriod;} */\n      jump(tag_24)\n        /* \"contracts/storage/LibOwnableStorage.sol\":2321:2453  function setGracePeriod(uint _seconds) external{... */\n    tag_8:\n      dup2\n      dup1\n      iszero\n      tag_34\n      jumpi\n      0x00\n      dup1\n      revert\n    tag_34:\n      pop\n      tag_12\n      tag_36\n      calldatasize\n      0x04\n      tag_37\n      jump\t// in\n    tag_36:\n      tag_38\n      jump\t// in\n        /* \"contracts/storage/LibOwnableStorage.sol\":2128:2272  function setTimestampExp(uint _timestampExp) external{... */\n    tag_9:\n      dup2\n      dup1\n      iszero\n      tag_39\n      jumpi\n      0x00\n      dup1\n      revert\n    tag_39:\n      pop\n      tag_12\n      tag_41\n      calldatasize\n      0x04\n      tag_37\n      jump\t// in\n    tag_41:\n      tag_42\n      jump\t// in\n        /* \"contracts/storage/LibOwnableStorage.sol\":1950:2078  function setnewOwner(address _newOwner) external{... */\n    tag_15:\n        /* \"contracts/storage/LibOwnableStorage.sol\":382:398  bytes('Ownable') */\n      0x40\n      dup1\n      mload\n      dup1\n      dup3\n      add\n      dup3\n      mstore\n      0x07\n      dup2\n      mstore\n      0x4f776e61626c6500000000000000000000000000000000000000000000000000\n      0x20\n      swap1\n      swap2\n      add\n      mstore\n        /* \"contracts/storage/LibOwnableStorage.sol\":2007:2033  _getStorage(SLOT).newOwner */\n      0x6df9baf4dc8c02086c72903e4bba587f1a261a8542aa45344809b4583161a59f\n        /* \"contracts/storage/LibOwnableStorage.sol\":2007:2045  _getStorage(SLOT).newOwner = _newOwner */\n      dup1\n      sload\n      0xffffffffffffffffffffffff0000000000000000000000000000000000000000\n      and\n      0xffffffffffffffffffffffffffffffffffffffff\n      dup5\n      and\n      or\n      swap1\n      sstore\n        /* \"contracts/storage/LibOwnableStorage.sol\":2059:2072  SetNewOwner() */\n      mload\n      0x6c31be61fab8aed8b12700f8e462b44f245be7a30a595e2375e73b3dff526f47\n      swap1\n      0x00\n      swap1\n      log1\n        /* \"contracts/storage/LibOwnableStorage.sol\":1950:2078  function setnewOwner(address _newOwner) external{... */\n      pop\n      jump\t// out\n        /* \"contracts/storage/LibOwnableStorage.sol\":1791:1904  function setowner(address _owner) external{... */\n    tag_23:\n        /* \"contracts/storage/LibOwnableStorage.sol\":382:398  bytes('Ownable') */\n      0x40\n      dup1\n      mload\n      dup1\n      dup3\n      add\n      dup3\n      mstore\n      0x07\n      dup2\n      mstore\n      0x4f776e61626c6500000000000000000000000000000000000000000000000000\n      0x20\n      swap1\n      swap2\n      add\n      mstore\n        /* \"contracts/storage/LibOwnableStorage.sol\":372:399  keccak256(bytes('Ownable')) */\n      0x6df9baf4dc8c02086c72903e4bba587f1a261a8542aa45344809b4583161a59e\n        /* \"contracts/storage/LibOwnableStorage.sol\":1842:1874  _getStorage(SLOT).owner = _owner */\n      dup1\n      sload\n      0xffffffffffffffffffffffff0000000000000000000000000000000000000000\n      and\n      0xffffffffffffffffffffffffffffffffffffffff\n      dup5\n      and\n      or\n      swap1\n      sstore\n        /* \"contracts/storage/LibOwnableStorage.sol\":1888:1898  SetOwner() */\n      mload\n      0x93fc5e2aa1a561e99691321da5f8c795fe4aaa464da57ed1140a509c655c5162\n      swap1\n      0x00\n      swap1\n      log1\n        /* \"contracts/storage/LibOwnableStorage.sol\":1791:1904  function setowner(address _owner) external{... */\n      pop\n      jump\t// out\n        /* \"contracts/storage/LibOwnableStorage.sol\":2321:2453  function setGracePeriod(uint _seconds) external{... */\n    tag_38:\n        /* \"contracts/storage/LibOwnableStorage.sol\":382:398  bytes('Ownable') */\n      0x40\n      dup1\n      mload\n      dup1\n      dup3\n      add\n      dup3\n      mstore\n      0x07\n      dup2\n      mstore\n      0x4f776e61626c6500000000000000000000000000000000000000000000000000\n      0x20\n      swap1\n      swap2\n      add\n      mstore\n        /* \"contracts/storage/LibOwnableStorage.sol\":2377:2406  _getStorage(SLOT).gracePeriod */\n      0x6df9baf4dc8c02086c72903e4bba587f1a261a8542aa45344809b4583161a5a1\n        /* \"contracts/storage/LibOwnableStorage.sol\":2377:2417  _getStorage(SLOT).gracePeriod = _seconds */\n      dup3\n      swap1\n      sstore\n        /* \"contracts/storage/LibOwnableStorage.sol\":2431:2447  SetGracePeriod() */\n      mload\n      0xb8354dd789964e53225a14b9d04ce20bf43e1f4092f8899a8a33c4f311ec6f8a\n      swap1\n      0x00\n      swap1\n      log1\n        /* \"contracts/storage/LibOwnableStorage.sol\":2321:2453  function setGracePeriod(uint _seconds) external{... */\n      pop\n      jump\t// out\n        /* \"contracts/storage/LibOwnableStorage.sol\":2128:2272  function setTimestampExp(uint _timestampExp) external{... */\n    tag_42:\n        /* \"contracts/storage/LibOwnableStorage.sol\":382:398  bytes('Ownable') */\n      0x40\n      dup1\n      mload\n      dup1\n      dup3\n      add\n      dup3\n      mstore\n      0x07\n      dup2\n      mstore\n      0x4f776e61626c6500000000000000000000000000000000000000000000000000\n      0x20\n      swap1\n      swap2\n      add\n      mstore\n        /* \"contracts/storage/LibOwnableStorage.sol\":2190:2220  _getStorage(SLOT).timestampExp */\n      0x6df9baf4dc8c02086c72903e4bba587f1a261a8542aa45344809b4583161a5a0\n        /* \"contracts/storage/LibOwnableStorage.sol\":2190:2236  _getStorage(SLOT).timestampExp = _timestampExp */\n      dup3\n      swap1\n      sstore\n        /* \"contracts/storage/LibOwnableStorage.sol\":2250:2266  SeTimestampExp() */\n      mload\n      0x7fbea1f5431af08c4fdba99e51d07f3234004d637ce24f23b3fd611b37a8420c\n      swap1\n      0x00\n      swap1\n      log1\n        /* \"contracts/storage/LibOwnableStorage.sol\":2128:2272  function setTimestampExp(uint _timestampExp) external{... */\n      pop\n      jump\t// out\n        /* \"#utility.yul\":14:323   */\n    tag_14:\n        /* \"#utility.yul\":73:79   */\n      0x00\n        /* \"#utility.yul\":126:128   */\n      0x20\n        /* \"#utility.yul\":114:123   */\n      dup3\n        /* \"#utility.yul\":105:112   */\n      dup5\n        /* \"#utility.yul\":101:124   */\n      sub\n        /* \"#utility.yul\":97:129   */\n      slt\n        /* \"#utility.yul\":94:146   */\n      iszero\n      tag_63\n      jumpi\n        /* \"#utility.yul\":142:143   */\n      0x00\n        /* \"#utility.yul\":139:140   */\n      dup1\n        /* \"#utility.yul\":132:144   */\n      revert\n        /* \"#utility.yul\":94:146   */\n    tag_63:\n        /* \"#utility.yul\":181:190   */\n      dup2\n        /* \"#utility.yul\":168:191   */\n      calldataload\n        /* \"#utility.yul\":231:273   */\n      0xffffffffffffffffffffffffffffffffffffffff\n        /* \"#utility.yul\":224:229   */\n      dup2\n        /* \"#utility.yul\":220:274   */\n      and\n        /* \"#utility.yul\":213:218   */\n      dup2\n        /* \"#utility.yul\":210:275   */\n      eq\n        /* \"#utility.yul\":200:293   */\n      tag_64\n      jumpi\n        /* \"#utility.yul\":289:290   */\n      0x00\n        /* \"#utility.yul\":286:287   */\n      dup1\n        /* \"#utility.yul\":279:291   */\n      revert\n        /* \"#utility.yul\":200:293   */\n    tag_64:\n        /* \"#utility.yul\":312:317   */\n      swap4\n        /* \"#utility.yul\":14:323   */\n      swap3\n      pop\n      pop\n      pop\n      jump\t// out\n        /* \"#utility.yul\":757:937   */\n    tag_37:\n        /* \"#utility.yul\":816:822   */\n      0x00\n        /* \"#utility.yul\":869:871   */\n      0x20\n        /* \"#utility.yul\":857:866   */\n      dup3\n        /* \"#utility.yul\":848:855   */\n      dup5\n        /* \"#utility.yul\":844:867   */\n      sub\n        /* \"#utility.yul\":840:872   */\n      slt\n        /* \"#utility.yul\":837:889   */\n      iszero\n      tag_68\n      jumpi\n        /* \"#utility.yul\":885:886   */\n      0x00\n        /* \"#utility.yul\":882:883   */\n      dup1\n        /* \"#utility.yul\":875:887   */\n      revert\n        /* \"#utility.yul\":837:889   */\n    tag_68:\n      pop\n        /* \"#utility.yul\":908:931   */\n      calldataload\n      swap2\n        /* \"#utility.yul\":757:937   */\n      swap1\n      pop\n      jump\t// out\n\n    auxdata: 0xa2646970667358221220055b5dc79783a2a912430d4a132d9afb6244d6aa9383ecb62168183a59ef1f0f64736f6c63430008170033\n}\n",
				"bytecode": {
					"linkReferences": {},
					"object": "6105df610035600b8282823980515f1a60731461002957634e487b7160e01b5f525f60045260245ffd5b305f52607381538281f3fe7300000000000000000000000000000000000000003014608060405260043610610090575f3560e01c8063893d20e811610063578063893d20e8146101d2578063dbd1838814610244578063f2f65960146102a0578063fdb0afee146102bf575f80fd5b806334b8160c146100945780633e2fe149146100b5578063592bd7051461014d57806361a9ab761461016c575b5f80fd5b81801561009f575f80fd5b506100b36100ae366004610558565b6102de565b005b60408051808201909152600781527f4f776e61626c65000000000000000000000000000000000000000000000000006020909101527f6df9baf4dc8c02086c72903e4bba587f1a261a8542aa45344809b4583161a59f5473ffffffffffffffffffffffffffffffffffffffff165b60405173ffffffffffffffffffffffffffffffffffffffff90911681526020015b60405180910390f35b818015610158575f80fd5b506100b3610167366004610558565b61039a565b60408051808201909152600781527f4f776e61626c65000000000000000000000000000000000000000000000000006020909101527f6df9baf4dc8c02086c72903e4bba587f1a261a8542aa45344809b4583161a5a0545b604051908152602001610144565b60408051808201909152600781527f4f776e61626c65000000000000000000000000000000000000000000000000006020909101527f6df9baf4dc8c02086c72903e4bba587f1a261a8542aa45344809b4583161a59e5473ffffffffffffffffffffffffffffffffffffffff16610123565b60408051808201909152600781527f4f776e61626c65000000000000000000000000000000000000000000000000006020909101527f6df9baf4dc8c02086c72903e4bba587f1a261a8542aa45344809b4583161a5a1546101c4565b8180156102ab575f80fd5b506100b36102ba366004610592565b610456565b8180156102ca575f80fd5b506100b36102d9366004610592565b6104d7565b604080518082018252600781527f4f776e61626c65000000000000000000000000000000000000000000000000006020909101527f6df9baf4dc8c02086c72903e4bba587f1a261a8542aa45344809b4583161a59f80547fffffffffffffffffffffffff00000000000000000000000000000000000000001673ffffffffffffffffffffffffffffffffffffffff8416179055517f6c31be61fab8aed8b12700f8e462b44f245be7a30a595e2375e73b3dff526f47905f90a150565b604080518082018252600781527f4f776e61626c65000000000000000000000000000000000000000000000000006020909101527f6df9baf4dc8c02086c72903e4bba587f1a261a8542aa45344809b4583161a59e80547fffffffffffffffffffffffff00000000000000000000000000000000000000001673ffffffffffffffffffffffffffffffffffffffff8416179055517f93fc5e2aa1a561e99691321da5f8c795fe4aaa464da57ed1140a509c655c5162905f90a150565b604080518082018252600781527f4f776e61626c65000000000000000000000000000000000000000000000000006020909101527f6df9baf4dc8c02086c72903e4bba587f1a261a8542aa45344809b4583161a5a1829055517fb8354dd789964e53225a14b9d04ce20bf43e1f4092f8899a8a33c4f311ec6f8a905f90a150565b604080518082018252600781527f4f776e61626c65000000000000000000000000000000000000000000000000006020909101527f6df9baf4dc8c02086c72903e4bba587f1a261a8542aa45344809b4583161a5a0829055517f7fbea1f5431af08c4fdba99e51d07f3234004d637ce24f23b3fd611b37a8420c905f90a150565b5f60208284031215610568575f80fd5b813573ffffffffffffffffffffffffffffffffffffffff8116811461058b575f80fd5b9392505050565b5f602082840312156105a2575f80fd5b503591905056fea2646970667358221220055b5dc79783a2a912430d4a132d9afb6244d6aa9383ecb62168183a59ef1f0f64736f6c63430008170033",
					"opcodes": "PUSH2 0x5DF PUSH2 0x35 PUSH1 0xB DUP3 DUP3 DUP3 CODECOPY DUP1 MLOAD PUSH0 BYTE PUSH1 0x73 EQ PUSH2 0x29 JUMPI PUSH4 0x4E487B71 PUSH1 0xE0 SHL PUSH0 MSTORE PUSH0 PUSH1 0x4 MSTORE PUSH1 0x24 PUSH0 REVERT JUMPDEST ADDRESS PUSH0 MSTORE PUSH1 0x73 DUP2 MSTORE8 DUP3 DUP2 RETURN INVALID PUSH20 0x0 ADDRESS EQ PUSH1 0x80 PUSH1 0x40 MSTORE PUSH1 0x4 CALLDATASIZE LT PUSH2 0x90 JUMPI PUSH0 CALLDATALOAD PUSH1 0xE0 SHR DUP1 PUSH4 0x893D20E8 GT PUSH2 0x63 JUMPI DUP1 PUSH4 0x893D20E8 EQ PUSH2 0x1D2 JUMPI DUP1 PUSH4 0xDBD18388 EQ PUSH2 0x244 JUMPI DUP1 PUSH4 0xF2F65960 EQ PUSH2 0x2A0 JUMPI DUP1 PUSH4 0xFDB0AFEE EQ PUSH2 0x2BF JUMPI PUSH0 DUP1 REVERT JUMPDEST DUP1 PUSH4 0x34B8160C EQ PUSH2 0x94 JUMPI DUP1 PUSH4 0x3E2FE149 EQ PUSH2 0xB5 JUMPI DUP1 PUSH4 0x592BD705 EQ PUSH2 0x14D JUMPI DUP1 PUSH4 0x61A9AB76 EQ PUSH2 0x16C JUMPI JUMPDEST PUSH0 DUP1 REVERT JUMPDEST DUP2 DUP1 ISZERO PUSH2 0x9F JUMPI PUSH0 DUP1 REVERT JUMPDEST POP PUSH2 0xB3 PUSH2 0xAE CALLDATASIZE PUSH1 0x4 PUSH2 0x558 JUMP JUMPDEST PUSH2 0x2DE JUMP JUMPDEST STOP JUMPDEST PUSH1 0x40 DUP1 MLOAD DUP1 DUP3 ADD SWAP1 SWAP2 MSTORE PUSH1 0x7 DUP2 MSTORE PUSH32 0x4F776E61626C6500000000000000000000000000000000000000000000000000 PUSH1 0x20 SWAP1 SWAP2 ADD MSTORE PUSH32 0x6DF9BAF4DC8C02086C72903E4BBA587F1A261A8542AA45344809B4583161A59F SLOAD PUSH20 0xFFFFFFFFFFFFFFFFFFFFFFFFFFFFFFFFFFFFFFFF AND JUMPDEST PUSH1 0x40 MLOAD PUSH20 0xFFFFFFFFFFFFFFFFFFFFFFFFFFFFFFFFFFFFFFFF SWAP1 SWAP2 AND DUP2 MSTORE PUSH1 0x20 ADD JUMPDEST PUSH1 0x40 MLOAD DUP1 SWAP2 SUB SWAP1 RETURN JUMPDEST DUP2 DUP1 ISZERO PUSH2 0x158 JUMPI PUSH0 DUP1 REVERT JUMPDEST POP PUSH2 0xB3 PUSH2 0x167 CALLDATASIZE PUSH1 0x4 PUSH2 0x558 JUMP JUMPDEST PUSH2 0x39A JUMP JUMPDEST PUSH1 0x40 DUP1 MLOAD DUP1 DUP3 ADD SWAP1 SWAP2 MSTORE PUSH1 0x7 DUP2 MSTORE PUSH32 0x4F776E61626C6500000000000000000000000000000000000000000000000000 PUSH1 0x20 SWAP1 SWAP2 ADD MSTORE PUSH32 0x6DF9BAF4DC8C02086C72903E4BBA587F1A261A8542AA45344809B4583161A5A0 SLOAD JUMPDEST PUSH1 0x40 MLOAD SWAP1 DUP2 MSTORE PUSH1 0x20 ADD PUSH2 0x144 JUMP JUMPDEST PUSH1 0x40 DUP1 MLOAD DUP1 DUP3 ADD SWAP1 SWAP2 MSTORE PUSH1 0x7 DUP2 MSTORE PUSH32 0x4F776E61626C6500000000000000000000000000000000000000000000000000 PUSH1 0x20 SWAP1 SWAP2 ADD MSTORE PUSH32 0x6DF9BAF4DC8C02086C72903E4BBA587F1A261A8542AA45344809B4583161A59E SLOAD PUSH20 0xFFFFFFFFFFFFFFFFFFFFFFFFFFFFFFFFFFFFFFFF AND PUSH2 0x123 JUMP JUMPDEST PUSH1 0x40 DUP1 MLOAD DUP1 DUP3 ADD SWAP1 SWAP2 MSTORE PUSH1 0x7 DUP2 MSTORE PUSH32 0x4F776E61626C6500000000000000000000000000000000000000000000000000 PUSH1 0x20 SWAP1 SWAP2 ADD MSTORE PUSH32 0x6DF9BAF4DC8C02086C72903E4BBA587F1A261A8542AA45344809B4583161A5A1 SLOAD PUSH2 0x1C4 JUMP JUMPDEST DUP2 DUP1 ISZERO PUSH2 0x2AB JUMPI PUSH0 DUP1 REVERT JUMPDEST POP PUSH2 0xB3 PUSH2 0x2BA CALLDATASIZE PUSH1 0x4 PUSH2 0x592 JUMP JUMPDEST PUSH2 0x456 JUMP JUMPDEST DUP2 DUP1 ISZERO PUSH2 0x2CA JUMPI PUSH0 DUP1 REVERT JUMPDEST POP PUSH2 0xB3 PUSH2 0x2D9 CALLDATASIZE PUSH1 0x4 PUSH2 0x592 JUMP JUMPDEST PUSH2 0x4D7 JUMP JUMPDEST PUSH1 0x40 DUP1 MLOAD DUP1 DUP3 ADD DUP3 MSTORE PUSH1 0x7 DUP2 MSTORE PUSH32 0x4F776E61626C6500000000000000000000000000000000000000000000000000 PUSH1 0x20 SWAP1 SWAP2 ADD MSTORE PUSH32 0x6DF9BAF4DC8C02086C72903E4BBA587F1A261A8542AA45344809B4583161A59F DUP1 SLOAD PUSH32 0xFFFFFFFFFFFFFFFFFFFFFFFF0000000000000000000000000000000000000000 AND PUSH20 0xFFFFFFFFFFFFFFFFFFFFFFFFFFFFFFFFFFFFFFFF DUP5 AND OR SWAP1 SSTORE MLOAD PUSH32 0x6C31BE61FAB8AED8B12700F8E462B44F245BE7A30A595E2375E73B3DFF526F47 SWAP1 PUSH0 SWAP1 LOG1 POP JUMP JUMPDEST PUSH1 0x40 DUP1 MLOAD DUP1 DUP3 ADD DUP3 MSTORE PUSH1 0x7 DUP2 MSTORE PUSH32 0x4F776E61626C6500000000000000000000000000000000000000000000000000 PUSH1 0x20 SWAP1 SWAP2 ADD MSTORE PUSH32 0x6DF9BAF4DC8C02086C72903E4BBA587F1A261A8542AA45344809B4583161A59E DUP1 SLOAD PUSH32 0xFFFFFFFFFFFFFFFFFFFFFFFF0000000000000000000000000000000000000000 AND PUSH20 0xFFFFFFFFFFFFFFFFFFFFFFFFFFFFFFFFFFFFFFFF DUP5 AND OR SWAP1 SSTORE MLOAD PUSH32 0x93FC5E2AA1A561E99691321DA5F8C795FE4AAA464DA57ED1140A509C655C5162 SWAP1 PUSH0 SWAP1 LOG1 POP JUMP JUMPDEST PUSH1 0x40 DUP1 MLOAD DUP1 DUP3 ADD DUP3 MSTORE PUSH1 0x7 DUP2 MSTORE PUSH32 0x4F776E61626C6500000000000000000000000000000000000000000000000000 PUSH1 0x20 SWAP1 SWAP2 ADD MSTORE PUSH32 0x6DF9BAF4DC8C02086C72903E4BBA587F1A261A8542AA45344809B4583161A5A1 DUP3 SWAP1 SSTORE MLOAD PUSH32 0xB8354DD789964E53225A14B9D04CE20BF43E1F4092F8899A8A33C4F311EC6F8A SWAP1 PUSH0 SWAP1 LOG1 POP JUMP JUMPDEST PUSH1 0x40 DUP1 MLOAD DUP1 DUP3 ADD DUP3 MSTORE PUSH1 0x7 DUP2 MSTORE PUSH32 0x4F776E61626C6500000000000000000000000000000000000000000000000000 PUSH1 0x20 SWAP1 SWAP2 ADD MSTORE PUSH32 0x6DF9BAF4DC8C02086C72903E4BBA587F1A261A8542AA45344809B4583161A5A0 DUP3 SWAP1 SSTORE MLOAD PUSH32 0x7FBEA1F5431AF08C4FDBA99E51D07F3234004D637CE24F23B3FD611B37A8420C SWAP1 PUSH0 SWAP1 LOG1 POP JUMP JUMPDEST PUSH0 PUSH1 0x20 DUP3 DUP5 SUB SLT ISZERO PUSH2 0x568 JUMPI PUSH0 DUP1 REVERT JUMPDEST DUP2 CALLDATALOAD PUSH20 0xFFFFFFFFFFFFFFFFFFFFFFFFFFFFFFFFFFFFFFFF DUP2 AND DUP2 EQ PUSH2 0x58B JUMPI PUSH0 DUP1 REVERT JUMPDEST SWAP4 SWAP3 POP POP POP JUMP JUMPDEST PUSH0 PUSH1 0x20 DUP3 DUP5 SUB SLT ISZERO PUSH2 0x5A2 JUMPI PUSH0 DUP1 REVERT JUMPDEST POP CALLDATALOAD SWAP2 SWAP1 POP JUMP INVALID LOG2 PUSH5 0x6970667358 0x22 SLT KECCAK256 SDIV JUMPDEST 0x5D 0xC7 SWAP8 DUP4 LOG2 0xA9 SLT NUMBER 0xD 0x4A SGT 0x2D SWAP11 0xFB PUSH3 0x44D6AA SWAP4 DUP4 0xEC 0xB6 0x21 PUSH9 0x183A59EF1F0F64736F PUSH13 0x63430008170033000000000000 "
				},
				"gasEstimates": {
					"creation": {
						"codeDepositCost": "300600",
						"executionCost": "367",
						"totalCost": "300967"
					},
					"external": {
						"getGracePeriod()": "2357",
						"getNewOwner()": "2351",
						"getOwner()": "2339",
						"getTimestampExp()": "2391",
						"setGracePeriod(uint256)": "23207",
						"setTimestampExp(uint256)": "23229",
						"setnewOwner(address)": "25316",
						"setowner(address)": "25360"
					},
					"internal": {
						"_getStorage(bytes32)": "infinite"
					}
				},
				"methodIdentifiers": {
					"getGracePeriod()": "dbd18388",
					"getNewOwner()": "3e2fe149",
					"getOwner()": "893d20e8",
					"getTimestampExp()": "61a9ab76",
					"setGracePeriod(uint256)": "f2f65960",
					"setTimestampExp(uint256)": "fdb0afee",
					"setnewOwner(address)": "34b8160c",
					"setowner(address)": "592bd705"
				}
			},
			"storageLayout": {
				"storage": [],
				"types": null
			},
			"userdoc": {
				"kind": "user",
				"methods": {},
				"notice": "Библиотека хранилища миксина Ownable*",
				"version": 1
			}
		}
	}
}