{
	"contracts/init.sol": {
		"init": {
			"abi": [
				{
					"inputs": [],
					"name": "initSMEambStorage",
					"outputs": [],
					"stateMutability": "nonpayable",
					"type": "function"
				}
			],
			"devdoc": {
				"custom:version": "1.0.0",
				"details": "Модуль NFT амбассадоров клуба SoulMate Ambassador Club",
				"kind": "dev",
				"methods": {},
				"title": "SMEamb",
				"version": 1
			},
			"evm": {
				"assembly": "    /* \"contracts/init.sol\":389:893  contract init is Ownable{... */\n  mstore(0x40, 0x80)\n  callvalue\n  dup1\n  iszero\n  tag_1\n  jumpi\n  0x00\n  dup1\n  revert\ntag_1:\n  pop\n  dataSize(sub_0)\n  dup1\n  dataOffset(sub_0)\n  0x00\n  codecopy\n  0x00\n  return\nstop\n\nsub_0: assembly {\n        /* \"contracts/init.sol\":389:893  contract init is Ownable{... */\n      mstore(0x40, 0x80)\n      callvalue\n      dup1\n      iszero\n      tag_1\n      jumpi\n      0x00\n      dup1\n      revert\n    tag_1:\n      pop\n      jumpi(tag_2, lt(calldatasize, 0x04))\n      shr(0xe0, calldataload(0x00))\n      dup1\n      0xeae31ffe\n      eq\n      tag_3\n      jumpi\n    tag_2:\n      0x00\n      dup1\n      revert\n        /* \"contracts/init.sol\":426:890  function initSMEambStorage() external onlyOwner(){... */\n    tag_3:\n      tag_4\n      tag_5\n      jump\t// in\n    tag_4:\n      stop\n    tag_5:\n        /* \"contracts/lib/@openzeppelin/contracts/Context.sol\":735:745  msg.sender */\n      caller\n        /* \"/contracts/mixins/Ownable.sol\":1262:1303  OwnableStorage.getOwner() == _msgSender() */\n      0xffffffffffffffffffffffffffffffffffffffff\n      and\n        /* \"/contracts/mixins/Ownable.sol\":1262:1276  OwnableStorage */\n      linkerSymbol(\"ea2bfd386ba84ea2bcf9bcd47bb5c25cd74e5e5c4739ef52f76db311be849ef7\")\n        /* \"/contracts/mixins/Ownable.sol\":1262:1285  OwnableStorage.getOwner */\n      0x893d20e8\n        /* \"/contracts/mixins/Ownable.sol\":1262:1287  OwnableStorage.getOwner() */\n      mload(0x40)\n      dup2\n      0xffffffff\n      and\n      0xe0\n      shl\n      dup2\n      mstore\n      0x04\n      add\n      0x20\n      mload(0x40)\n      dup1\n      dup4\n      sub\n      dup2\n      dup7\n      gas\n      delegatecall\n      iszero\n      dup1\n      iszero\n      tag_10\n      jumpi\n      returndatasize\n      0x00\n      dup1\n      returndatacopy\n      revert(0x00, returndatasize)\n    tag_10:\n      pop\n      pop\n      pop\n      pop\n      mload(0x40)\n      returndatasize\n      not(0x1f)\n      0x1f\n      dup3\n      add\n      and\n      dup3\n      add\n      dup1\n      0x40\n      mstore\n      pop\n      dup2\n      add\n      swap1\n      tag_11\n      swap2\n      swap1\n      tag_12\n      jump\t// in\n    tag_11:\n        /* \"/contracts/mixins/Ownable.sol\":1262:1303  OwnableStorage.getOwner() == _msgSender() */\n      0xffffffffffffffffffffffffffffffffffffffff\n      and\n      eq\n        /* \"/contracts/mixins/Ownable.sol\":1254:1328  require(OwnableStorage.getOwner() == _msgSender(), \"You are not an owner\") */\n      tag_13\n      jumpi\n      mload(0x40)\n      0x08c379a000000000000000000000000000000000000000000000000000000000\n      dup2\n      mstore\n        /* \"#utility.yul\":534:536   */\n      0x20\n        /* \"/contracts/mixins/Ownable.sol\":1254:1328  require(OwnableStorage.getOwner() == _msgSender(), \"You are not an owner\") */\n      0x04\n      dup3\n      add\n        /* \"#utility.yul\":516:537   */\n      mstore\n        /* \"#utility.yul\":573:575   */\n      0x14\n        /* \"#utility.yul\":553:571   */\n      0x24\n      dup3\n      add\n        /* \"#utility.yul\":546:576   */\n      mstore\n        /* \"#utility.yul\":612:634   */\n      0x596f7520617265206e6f7420616e206f776e6572000000000000000000000000\n        /* \"#utility.yul\":592:610   */\n      0x44\n      dup3\n      add\n        /* \"#utility.yul\":585:635   */\n      mstore\n        /* \"#utility.yul\":652:670   */\n      0x64\n      add\n        /* \"/contracts/mixins/Ownable.sol\":1254:1328  require(OwnableStorage.getOwner() == _msgSender(), \"You are not an owner\") */\n      mload(0x40)\n      dup1\n      swap2\n      sub\n      swap1\n      revert\n    tag_13:\n        /* \"contracts/init.sol\":486:595  SMEambStorage.baseTokenURI(\"http://158.160.153.72:8080/ipfs/QmP2VvsL8X9YzKVzVoGycokjwc3Tqyk9Q57XEeTrMvjnFo/\") */\n      mload(0x40)\n      0xa05cc55900000000000000000000000000000000000000000000000000000000\n      dup2\n      mstore\n        /* \"#utility.yul\":891:893   */\n      0x20\n        /* \"contracts/init.sol\":486:595  SMEambStorage.baseTokenURI(\"http://158.160.153.72:8080/ipfs/QmP2VvsL8X9YzKVzVoGycokjwc3Tqyk9Q57XEeTrMvjnFo/\") */\n      0x04\n      dup3\n      add\n        /* \"#utility.yul\":873:894   */\n      mstore\n        /* \"#utility.yul\":930:932   */\n      0x4f\n        /* \"#utility.yul\":910:928   */\n      0x24\n      dup3\n      add\n        /* \"#utility.yul\":903:933   */\n      mstore\n        /* \"#utility.yul\":969:1003   */\n      0x687474703a2f2f3135382e3136302e3135332e37323a383038302f697066732f\n        /* \"#utility.yul\":949:967   */\n      0x44\n      dup3\n      add\n        /* \"#utility.yul\":942:1004   */\n      mstore\n        /* \"#utility.yul\":1040:1074   */\n      0x516d50325676734c385839597a4b567a566f4779636f6b6a7763335471796b39\n        /* \"#utility.yul\":1020:1038   */\n      0x64\n      dup3\n      add\n        /* \"#utility.yul\":1013:1075   */\n      mstore\n        /* \"#utility.yul\":1112:1129   */\n      0x51353758456554724d766a6e466f2f0000000000000000000000000000000000\n        /* \"#utility.yul\":1091:1110   */\n      0x84\n      dup3\n      add\n        /* \"#utility.yul\":1084:1130   */\n      mstore\n        /* \"contracts/init.sol\":486:499  SMEambStorage */\n      linkerSymbol(\"ed1b9c6350818ffac15ee60703392696a859606f84367b7a98242400382aa829\")\n      swap1\n        /* \"contracts/init.sol\":486:512  SMEambStorage.baseTokenURI */\n      0xa05cc559\n      swap1\n        /* \"#utility.yul\":1147:1166   */\n      0xa4\n      add\n        /* \"contracts/init.sol\":486:595  SMEambStorage.baseTokenURI(\"http://158.160.153.72:8080/ipfs/QmP2VvsL8X9YzKVzVoGycokjwc3Tqyk9Q57XEeTrMvjnFo/\") */\n      0x00\n      mload(0x40)\n      dup1\n      dup4\n      sub\n      dup2\n      dup7\n      dup1\n      extcodesize\n      iszero\n      dup1\n      iszero\n      tag_19\n      jumpi\n      0x00\n      dup1\n      revert\n    tag_19:\n      pop\n      gas\n      delegatecall\n      iszero\n      dup1\n      iszero\n      tag_21\n      jumpi\n      returndatasize\n      0x00\n      dup1\n      returndatacopy\n      revert(0x00, returndatasize)\n    tag_21:\n      pop\n      pop\n        /* \"contracts/init.sol\":606:724  SMEambStorage.defaultTokenURI(\"http://158.160.153.72:8080/ipfs/QmP2VvsL8X9YzKVzVoGycokjwc3Tqyk9Q57XEeTrMvjnFo/1.json\") */\n      mload(0x40)\n      0x821abc2d00000000000000000000000000000000000000000000000000000000\n      dup2\n      mstore\n        /* \"#utility.yul\":1387:1389   */\n      0x20\n        /* \"contracts/init.sol\":606:724  SMEambStorage.defaultTokenURI(\"http://158.160.153.72:8080/ipfs/QmP2VvsL8X9YzKVzVoGycokjwc3Tqyk9Q57XEeTrMvjnFo/1.json\") */\n      0x04\n      dup3\n      add\n        /* \"#utility.yul\":1369:1390   */\n      mstore\n        /* \"#utility.yul\":1426:1428   */\n      0x55\n        /* \"#utility.yul\":1406:1424   */\n      0x24\n      dup3\n      add\n        /* \"#utility.yul\":1399:1429   */\n      mstore\n        /* \"#utility.yul\":1465:1499   */\n      0x687474703a2f2f3135382e3136302e3135332e37323a383038302f697066732f\n        /* \"#utility.yul\":1445:1463   */\n      0x44\n      dup3\n      add\n        /* \"#utility.yul\":1438:1500   */\n      mstore\n        /* \"#utility.yul\":1536:1570   */\n      0x516d50325676734c385839597a4b567a566f4779636f6b6a7763335471796b39\n        /* \"#utility.yul\":1516:1534   */\n      0x64\n      dup3\n      add\n        /* \"#utility.yul\":1509:1571   */\n      mstore\n        /* \"#utility.yul\":1608:1631   */\n      0x51353758456554724d766a6e466f2f312e6a736f6e0000000000000000000000\n        /* \"#utility.yul\":1587:1606   */\n      0x84\n      dup3\n      add\n        /* \"#utility.yul\":1580:1632   */\n      mstore\n        /* \"contracts/init.sol\":606:619  SMEambStorage */\n      linkerSymbol(\"ed1b9c6350818ffac15ee60703392696a859606f84367b7a98242400382aa829\")\n      swap3\n      pop\n        /* \"contracts/init.sol\":606:635  SMEambStorage.defaultTokenURI */\n      0x821abc2d\n      swap2\n      pop\n        /* \"#utility.yul\":1649:1668   */\n      0xa4\n      add\n        /* \"contracts/init.sol\":606:724  SMEambStorage.defaultTokenURI(\"http://158.160.153.72:8080/ipfs/QmP2VvsL8X9YzKVzVoGycokjwc3Tqyk9Q57XEeTrMvjnFo/1.json\") */\n      0x00\n      mload(0x40)\n      dup1\n      dup4\n      sub\n      dup2\n      dup7\n      dup1\n      extcodesize\n      iszero\n      dup1\n      iszero\n      tag_24\n      jumpi\n      0x00\n      dup1\n      revert\n    tag_24:\n      pop\n      gas\n      delegatecall\n      iszero\n      dup1\n      iszero\n      tag_26\n      jumpi\n      returndatasize\n      0x00\n      dup1\n      returndatacopy\n      revert(0x00, returndatasize)\n    tag_26:\n      pop\n      pop\n        /* \"contracts/init.sol\":735:832  SMEambStorage.genesislistRoot(0x68242c121f5458628253418bda76b8bf74da2bbbe03085331010b8176855526a) */\n      mload(0x40)\n      0x3802497b00000000000000000000000000000000000000000000000000000000\n      dup2\n      mstore\n        /* \"contracts/init.sol\":765:831  0x68242c121f5458628253418bda76b8bf74da2bbbe03085331010b8176855526a */\n      0x68242c121f5458628253418bda76b8bf74da2bbbe03085331010b8176855526a\n        /* \"contracts/init.sol\":735:832  SMEambStorage.genesislistRoot(0x68242c121f5458628253418bda76b8bf74da2bbbe03085331010b8176855526a) */\n      0x04\n      dup3\n      add\n        /* \"#utility.yul\":1917:1942   */\n      mstore\n        /* \"contracts/init.sol\":735:748  SMEambStorage */\n      linkerSymbol(\"ed1b9c6350818ffac15ee60703392696a859606f84367b7a98242400382aa829\")\n      swap3\n      pop\n        /* \"contracts/init.sol\":735:764  SMEambStorage.genesislistRoot */\n      0x3802497b\n      swap2\n      pop\n        /* \"#utility.yul\":1890:1908   */\n      0x24\n      add\n        /* \"contracts/init.sol\":735:832  SMEambStorage.genesislistRoot(0x68242c121f5458628253418bda76b8bf74da2bbbe03085331010b8176855526a) */\n      0x00\n      mload(0x40)\n      dup1\n      dup4\n      sub\n      dup2\n      dup7\n      dup1\n      extcodesize\n      iszero\n      dup1\n      iszero\n      tag_29\n      jumpi\n      0x00\n      dup1\n      revert\n    tag_29:\n      pop\n      gas\n      delegatecall\n      iszero\n      dup1\n      iszero\n      tag_31\n      jumpi\n      returndatasize\n      0x00\n      dup1\n      returndatacopy\n      revert(0x00, returndatasize)\n    tag_31:\n      pop\n      pop\n        /* \"contracts/init.sol\":843:882  SMEambStorage.fee(14500000000000000000) */\n      mload(0x40)\n      0x39b37ab000000000000000000000000000000000000000000000000000000000\n      dup2\n      mstore\n        /* \"contracts/init.sol\":861:881  14500000000000000000 */\n      0xc93a592cfb2a0000\n        /* \"contracts/init.sol\":843:882  SMEambStorage.fee(14500000000000000000) */\n      0x04\n      dup3\n      add\n        /* \"#utility.yul\":1917:1942   */\n      mstore\n        /* \"contracts/init.sol\":843:856  SMEambStorage */\n      linkerSymbol(\"ed1b9c6350818ffac15ee60703392696a859606f84367b7a98242400382aa829\")\n      swap3\n      pop\n        /* \"contracts/init.sol\":843:860  SMEambStorage.fee */\n      0x39b37ab0\n      swap2\n      pop\n        /* \"#utility.yul\":1890:1908   */\n      0x24\n      add\n        /* \"contracts/init.sol\":843:882  SMEambStorage.fee(14500000000000000000) */\n      0x00\n      mload(0x40)\n      dup1\n      dup4\n      sub\n      dup2\n      dup7\n      dup1\n      extcodesize\n      iszero\n      dup1\n      iszero\n      tag_34\n      jumpi\n      0x00\n      dup1\n      revert\n    tag_34:\n      pop\n      gas\n      delegatecall\n      iszero\n      dup1\n      iszero\n      tag_36\n      jumpi\n      returndatasize\n      0x00\n      dup1\n      returndatacopy\n      revert(0x00, returndatasize)\n    tag_36:\n      pop\n      pop\n      pop\n      pop\n        /* \"contracts/init.sol\":426:890  function initSMEambStorage() external onlyOwner(){... */\n      jump\t// out\n        /* \"#utility.yul\":14:327   */\n    tag_12:\n        /* \"#utility.yul\":84:90   */\n      0x00\n        /* \"#utility.yul\":137:139   */\n      0x20\n        /* \"#utility.yul\":125:134   */\n      dup3\n        /* \"#utility.yul\":116:123   */\n      dup5\n        /* \"#utility.yul\":112:135   */\n      sub\n        /* \"#utility.yul\":108:140   */\n      slt\n        /* \"#utility.yul\":105:157   */\n      iszero\n      tag_40\n      jumpi\n        /* \"#utility.yul\":153:154   */\n      0x00\n        /* \"#utility.yul\":150:151   */\n      dup1\n        /* \"#utility.yul\":143:155   */\n      revert\n        /* \"#utility.yul\":105:157   */\n    tag_40:\n        /* \"#utility.yul\":185:194   */\n      dup2\n        /* \"#utility.yul\":179:195   */\n      mload\n        /* \"#utility.yul\":235:277   */\n      0xffffffffffffffffffffffffffffffffffffffff\n        /* \"#utility.yul\":228:233   */\n      dup2\n        /* \"#utility.yul\":224:278   */\n      and\n        /* \"#utility.yul\":217:222   */\n      dup2\n        /* \"#utility.yul\":214:279   */\n      eq\n        /* \"#utility.yul\":204:297   */\n      tag_41\n      jumpi\n        /* \"#utility.yul\":293:294   */\n      0x00\n        /* \"#utility.yul\":290:291   */\n      dup1\n        /* \"#utility.yul\":283:295   */\n      revert\n        /* \"#utility.yul\":204:297   */\n    tag_41:\n        /* \"#utility.yul\":316:321   */\n      swap4\n        /* \"#utility.yul\":14:327   */\n      swap3\n      pop\n      pop\n      pop\n      jump\t// out\n\n    auxdata: 0xa2646970667358221220b052a10cee43b6614aeed17814413c3841807ac99ce87939e410b9caac49756764736f6c63430008170033\n}\n",
				"bytecode": {
					"linkReferences": {
						"/contracts/storage/LibSMEambStorage.sol": {
							"SMEambStorage": [
								{
									"length": 20,
									"start": 511
								},
								{
									"length": 20,
									"start": 750
								},
								{
									"length": 20,
									"start": 901
								},
								{
									"length": 20,
									"start": 1028
								}
							]
						},
						"contracts/storage/LibOwnableStorage.sol": {
							"OwnableStorage": [
								{
									"length": 20,
									"start": 109
								}
							]
						}
					},
					"object": "608060405234801561000f575f80fd5b506104a48061001d5f395ff3fe608060405234801561000f575f80fd5b5060043610610029575f3560e01c8063eae31ffe1461002d575b5f80fd5b610035610037565b005b3373ffffffffffffffffffffffffffffffffffffffff1673__$ea2bfd386ba84ea2bcf9bcd47bb5c25cd7$__63893d20e86040518163ffffffff1660e01b8152600401602060405180830381865af4158015610095573d5f803e3d5ffd5b505050506040513d601f19601f820116820180604052508101906100b99190610434565b73ffffffffffffffffffffffffffffffffffffffff161461013a576040517f08c379a000000000000000000000000000000000000000000000000000000000815260206004820152601460248201527f596f7520617265206e6f7420616e206f776e6572000000000000000000000000604482015260640160405180910390fd5b6040517fa05cc55900000000000000000000000000000000000000000000000000000000815260206004820152604f60248201527f687474703a2f2f3135382e3136302e3135332e37323a383038302f697066732f60448201527f516d50325676734c385839597a4b567a566f4779636f6b6a7763335471796b3960648201527f51353758456554724d766a6e466f2f0000000000000000000000000000000000608482015273__$ed1b9c6350818ffac15ee60703392696a8$__9063a05cc5599060a4015f6040518083038186803b158015610215575f80fd5b505af4158015610227573d5f803e3d5ffd5b50506040517f821abc2d00000000000000000000000000000000000000000000000000000000815260206004820152605560248201527f687474703a2f2f3135382e3136302e3135332e37323a383038302f697066732f60448201527f516d50325676734c385839597a4b567a566f4779636f6b6a7763335471796b3960648201527f51353758456554724d766a6e466f2f312e6a736f6e0000000000000000000000608482015273__$ed1b9c6350818ffac15ee60703392696a8$__925063821abc2d915060a4015f6040518083038186803b158015610306575f80fd5b505af4158015610318573d5f803e3d5ffd5b50506040517f3802497b0000000000000000000000000000000000000000000000000000000081527f68242c121f5458628253418bda76b8bf74da2bbbe03085331010b8176855526a600482015273__$ed1b9c6350818ffac15ee60703392696a8$__9250633802497b91506024015f6040518083038186803b15801561039d575f80fd5b505af41580156103af573d5f803e3d5ffd5b50506040517f39b37ab000000000000000000000000000000000000000000000000000000000815267c93a592cfb2a0000600482015273__$ed1b9c6350818ffac15ee60703392696a8$__92506339b37ab091506024015f6040518083038186803b15801561041c575f80fd5b505af415801561042e573d5f803e3d5ffd5b50505050565b5f60208284031215610444575f80fd5b815173ffffffffffffffffffffffffffffffffffffffff81168114610467575f80fd5b939250505056fea2646970667358221220b052a10cee43b6614aeed17814413c3841807ac99ce87939e410b9caac49756764736f6c63430008170033",
					"opcodes": "PUSH1 0x80 PUSH1 0x40 MSTORE CALLVALUE DUP1 ISZERO PUSH2 0xF JUMPI PUSH0 DUP1 REVERT JUMPDEST POP PUSH2 0x4A4 DUP1 PUSH2 0x1D PUSH0 CODECOPY PUSH0 RETURN INVALID PUSH1 0x80 PUSH1 0x40 MSTORE CALLVALUE DUP1 ISZERO PUSH2 0xF JUMPI PUSH0 DUP1 REVERT JUMPDEST POP PUSH1 0x4 CALLDATASIZE LT PUSH2 0x29 JUMPI PUSH0 CALLDATALOAD PUSH1 0xE0 SHR DUP1 PUSH4 0xEAE31FFE EQ PUSH2 0x2D JUMPI JUMPDEST PUSH0 DUP1 REVERT JUMPDEST PUSH2 0x35 PUSH2 0x37 JUMP JUMPDEST STOP JUMPDEST CALLER PUSH20 0xFFFFFFFFFFFFFFFFFFFFFFFFFFFFFFFFFFFFFFFF AND PUSH20 0x0 PUSH4 0x893D20E8 PUSH1 0x40 MLOAD DUP2 PUSH4 0xFFFFFFFF AND PUSH1 0xE0 SHL DUP2 MSTORE PUSH1 0x4 ADD PUSH1 0x20 PUSH1 0x40 MLOAD DUP1 DUP4 SUB DUP2 DUP7 GAS DELEGATECALL ISZERO DUP1 ISZERO PUSH2 0x95 JUMPI RETURNDATASIZE PUSH0 DUP1 RETURNDATACOPY RETURNDATASIZE PUSH0 REVERT JUMPDEST POP POP POP POP PUSH1 0x40 MLOAD RETURNDATASIZE PUSH1 0x1F NOT PUSH1 0x1F DUP3 ADD AND DUP3 ADD DUP1 PUSH1 0x40 MSTORE POP DUP2 ADD SWAP1 PUSH2 0xB9 SWAP2 SWAP1 PUSH2 0x434 JUMP JUMPDEST PUSH20 0xFFFFFFFFFFFFFFFFFFFFFFFFFFFFFFFFFFFFFFFF AND EQ PUSH2 0x13A JUMPI PUSH1 0x40 MLOAD PUSH32 0x8C379A000000000000000000000000000000000000000000000000000000000 DUP2 MSTORE PUSH1 0x20 PUSH1 0x4 DUP3 ADD MSTORE PUSH1 0x14 PUSH1 0x24 DUP3 ADD MSTORE PUSH32 0x596F7520617265206E6F7420616E206F776E6572000000000000000000000000 PUSH1 0x44 DUP3 ADD MSTORE PUSH1 0x64 ADD PUSH1 0x40 MLOAD DUP1 SWAP2 SUB SWAP1 REVERT JUMPDEST PUSH1 0x40 MLOAD PUSH32 0xA05CC55900000000000000000000000000000000000000000000000000000000 DUP2 MSTORE PUSH1 0x20 PUSH1 0x4 DUP3 ADD MSTORE PUSH1 0x4F PUSH1 0x24 DUP3 ADD MSTORE PUSH32 0x687474703A2F2F3135382E3136302E3135332E37323A383038302F697066732F PUSH1 0x44 DUP3 ADD MSTORE PUSH32 0x516D50325676734C385839597A4B567A566F4779636F6B6A7763335471796B39 PUSH1 0x64 DUP3 ADD MSTORE PUSH32 0x51353758456554724D766A6E466F2F0000000000000000000000000000000000 PUSH1 0x84 DUP3 ADD MSTORE PUSH20 0x0 SWAP1 PUSH4 0xA05CC559 SWAP1 PUSH1 0xA4 ADD PUSH0 PUSH1 0x40 MLOAD DUP1 DUP4 SUB DUP2 DUP7 DUP1 EXTCODESIZE ISZERO DUP1 ISZERO PUSH2 0x215 JUMPI PUSH0 DUP1 REVERT JUMPDEST POP GAS DELEGATECALL ISZERO DUP1 ISZERO PUSH2 0x227 JUMPI RETURNDATASIZE PUSH0 DUP1 RETURNDATACOPY RETURNDATASIZE PUSH0 REVERT JUMPDEST POP POP PUSH1 0x40 MLOAD PUSH32 0x821ABC2D00000000000000000000000000000000000000000000000000000000 DUP2 MSTORE PUSH1 0x20 PUSH1 0x4 DUP3 ADD MSTORE PUSH1 0x55 PUSH1 0x24 DUP3 ADD MSTORE PUSH32 0x687474703A2F2F3135382E3136302E3135332E37323A383038302F697066732F PUSH1 0x44 DUP3 ADD MSTORE PUSH32 0x516D50325676734C385839597A4B567A566F4779636F6B6A7763335471796B39 PUSH1 0x64 DUP3 ADD MSTORE PUSH32 0x51353758456554724D766A6E466F2F312E6A736F6E0000000000000000000000 PUSH1 0x84 DUP3 ADD MSTORE PUSH20 0x0 SWAP3 POP PUSH4 0x821ABC2D SWAP2 POP PUSH1 0xA4 ADD PUSH0 PUSH1 0x40 MLOAD DUP1 DUP4 SUB DUP2 DUP7 DUP1 EXTCODESIZE ISZERO DUP1 ISZERO PUSH2 0x306 JUMPI PUSH0 DUP1 REVERT JUMPDEST POP GAS DELEGATECALL ISZERO DUP1 ISZERO PUSH2 0x318 JUMPI RETURNDATASIZE PUSH0 DUP1 RETURNDATACOPY RETURNDATASIZE PUSH0 REVERT JUMPDEST POP POP PUSH1 0x40 MLOAD PUSH32 0x3802497B00000000000000000000000000000000000000000000000000000000 DUP2 MSTORE PUSH32 0x68242C121F5458628253418BDA76B8BF74DA2BBBE03085331010B8176855526A PUSH1 0x4 DUP3 ADD MSTORE PUSH20 0x0 SWAP3 POP PUSH4 0x3802497B SWAP2 POP PUSH1 0x24 ADD PUSH0 PUSH1 0x40 MLOAD DUP1 DUP4 SUB DUP2 DUP7 DUP1 EXTCODESIZE ISZERO DUP1 ISZERO PUSH2 0x39D JUMPI PUSH0 DUP1 REVERT JUMPDEST POP GAS DELEGATECALL ISZERO DUP1 ISZERO PUSH2 0x3AF JUMPI RETURNDATASIZE PUSH0 DUP1 RETURNDATACOPY RETURNDATASIZE PUSH0 REVERT JUMPDEST POP POP PUSH1 0x40 MLOAD PUSH32 0x39B37AB000000000000000000000000000000000000000000000000000000000 DUP2 MSTORE PUSH8 0xC93A592CFB2A0000 PUSH1 0x4 DUP3 ADD MSTORE PUSH20 0x0 SWAP3 POP PUSH4 0x39B37AB0 SWAP2 POP PUSH1 0x24 ADD PUSH0 PUSH1 0x40 MLOAD DUP1 DUP4 SUB DUP2 DUP7 DUP1 EXTCODESIZE ISZERO DUP1 ISZERO PUSH2 0x41C JUMPI PUSH0 DUP1 REVERT JUMPDEST POP GAS DELEGATECALL ISZERO DUP1 ISZERO PUSH2 0x42E JUMPI RETURNDATASIZE PUSH0 DUP1 RETURNDATACOPY RETURNDATASIZE PUSH0 REVERT JUMPDEST POP POP POP POP JUMP JUMPDEST PUSH0 PUSH1 0x20 DUP3 DUP5 SUB SLT ISZERO PUSH2 0x444 JUMPI PUSH0 DUP1 REVERT JUMPDEST DUP2 MLOAD PUSH20 0xFFFFFFFFFFFFFFFFFFFFFFFFFFFFFFFFFFFFFFFF DUP2 AND DUP2 EQ PUSH2 0x467 JUMPI PUSH0 DUP1 REVERT JUMPDEST SWAP4 SWAP3 POP POP POP JUMP INVALID LOG2 PUSH5 0x6970667358 0x22 SLT KECCAK256 0xB0 MSTORE LOG1 0xC 0xEE NUMBER 0xB6 PUSH2 0x4AEE 0xD1 PUSH25 0x14413C3841807AC99CE87939E410B9CAAC49756764736F6C63 NUMBER STOP ADDMOD OR STOP CALLER "
				},
				"gasEstimates": {
					"creation": {
						"codeDepositCost": "237600",
						"executionCost": "279",
						"totalCost": "237879"
					},
					"external": {
						"initSMEambStorage()": "infinite"
					}
				},
				"methodIdentifiers": {
					"initSMEambStorage()": "eae31ffe"
				}
			},
			"storageLayout": {
				"storage": [],
				"types": null
			},
			"userdoc": {
				"kind": "user",
				"methods": {},
				"notice": "Первая стадия минта GENESIS*",
				"version": 1
			}
		}
	}
}