{
	"data": {
		"bytecode": {
			"linkReferences": {
				"/contracts/storage/LibDynamicRouterStorage.sol": {
					"DynamicRouterStorage": [
						{
							"length": 20,
							"start": 76
						},
						{
							"length": 20,
							"start": 1980
						}
					]
				},
				"/contracts/storage/LibOwnableStorage.sol": {
					"OwnableStorage": [
						{
							"length": 20,
							"start": 175
						}
					]
				}
			},
			"object": "60a060405261001660015f5f61011760201b60201c565b608090815250348015610027575f5ffd5b50604051610b19380380610b198339818101604052810190610049919061049f565b8073__$f07e73ab50fdc244a807a505d0c4602bfd$__63a8f64352826040518263ffffffff1660e01b815260040161008191906106a1565b5f6040518083038186803b158015610097575f5ffd5b505af41580156100a9573d5f5f3e3d5ffd5b5050505073__$eb9c0828cb3946c6500b9206079c1e5216$__63592bd705336040518263ffffffff1660e01b81526004016100e491906106d0565b5f6040518083038186803b1580156100fa575f5ffd5b505af415801561010c573d5f5f3e3d5ffd5b5050505050506106e9565b5f8163ffffffff1660208463ffffffff16901b60408663ffffffff16901b171790509392505050565b5f604051905090565b5f5ffd5b5f5ffd5b5f5ffd5b5f601f19601f8301169050919050565b7f4e487b71000000000000000000000000000000000000000000000000000000005f52604160045260245ffd5b61019b82610155565b810181811067ffffffffffffffff821117156101ba576101b9610165565b5b80604052505050565b5f6101cc610140565b90506101d88282610192565b919050565b5f67ffffffffffffffff8211156101f7576101f6610165565b5b602082029050602081019050919050565b5f5ffd5b5f5ffd5b5f5ffd5b5f73ffffffffffffffffffffffffffffffffffffffff82169050919050565b5f61023d82610214565b9050919050565b61024d81610233565b8114610257575f5ffd5b50565b5f8151905061026881610244565b92915050565b5f67ffffffffffffffff82111561028857610287610165565b5b602082029050602081019050919050565b5f7fffffffff0000000000000000000000000000000000000000000000000000000082169050919050565b6102cd81610299565b81146102d7575f5ffd5b50565b5f815190506102e8816102c4565b92915050565b5f6103006102fb8461026e565b6101c3565b9050808382526020820190506020840283018581111561032357610322610208565b5b835b8181101561034c578061033888826102da565b845260208401935050602081019050610325565b5050509392505050565b5f82601f83011261036a57610369610151565b5b815161037a8482602086016102ee565b91505092915050565b5f604082840312156103985761039761020c565b5b6103a260406101c3565b90505f6103b18482850161025a565b5f83015250602082015167ffffffffffffffff8111156103d4576103d3610210565b5b6103e084828501610356565b60208301525092915050565b5f6103fe6103f9846101dd565b6101c3565b9050808382526020820190506020840283018581111561042157610420610208565b5b835b8181101561046857805167ffffffffffffffff81111561044657610445610151565b5b8086016104538982610383565b85526020850194505050602081019050610423565b5050509392505050565b5f82601f83011261048657610485610151565b5b81516104968482602086016103ec565b91505092915050565b5f602082840312156104b4576104b3610149565b5b5f82015167ffffffffffffffff8111156104d1576104d061014d565b5b6104dd84828501610472565b91505092915050565b5f81519050919050565b5f82825260208201905092915050565b5f819050602082019050919050565b61051881610233565b82525050565b5f81519050919050565b5f82825260208201905092915050565b5f819050602082019050919050565b61055081610299565b82525050565b5f6105618383610547565b60208301905092915050565b5f602082019050919050565b5f6105838261051e565b61058d8185610528565b935061059883610538565b805f5b838110156105c85781516105af8882610556565b97506105ba8361056d565b92505060018101905061059b565b5085935050505092915050565b5f604083015f8301516105ea5f86018261050f565b50602083015184820360208601526106028282610579565b9150508091505092915050565b5f61061a83836105d5565b905092915050565b5f602082019050919050565b5f610638826104e6565b61064281856104f0565b93508360208202850161065485610500565b805f5b8581101561068f5784840389528151610670858261060f565b945061067b83610622565b925060208a01995050600181019050610657565b50829750879550505050505092915050565b5f6020820190508181035f8301526106b9818461062e565b905092915050565b6106ca81610233565b82525050565b5f6020820190506106e35f8301846106c1565b92915050565b6080516104186107015f395f6101c201526104185ff3fe60806040526004361061002c575f3560e01c806381ed98081461003d5780639b865b431461006757610033565b3661003357005b61003b610091565b005b348015610048575f5ffd5b506100516101c0565b60405161005e9190610235565b60405180910390f35b348015610072575f5ffd5b5061007b6101e4565b60405161008891906102be565b60405180910390f35b5f5f357fffffffff000000000000000000000000000000000000000000000000000000001690505f73__$f07e73ab50fdc244a807a505d0c4602bfd$__6320e63d2a836040518263ffffffff1660e01b81526004016100f09190610318565b602060405180830381865af415801561010b573d5f5f3e3d5ffd5b505050506040513d601f19601f8201168201806040525081019061012f919061038f565b90505f73ffffffffffffffffffffffffffffffffffffffff168173ffffffffffffffffffffffffffffffffffffffff16036101a157816040517fc2a825f500000000000000000000000000000000000000000000000000000000815260040161019891906103c9565b60405180910390fd5b365f5f375f5f365f845af43d5f5f3e805f81146101bc573d5ff35b3d5ffd5b7f000000000000000000000000000000000000000000000000000000000000000081565b6040518060400160405280600d81526020017f44796e616d6963526f757465720000000000000000000000000000000000000081525081565b5f819050919050565b61022f8161021d565b82525050565b5f6020820190506102485f830184610226565b92915050565b5f81519050919050565b5f82825260208201905092915050565b8281835e5f83830152505050565b5f601f19601f8301169050919050565b5f6102908261024e565b61029a8185610258565b93506102aa818560208601610268565b6102b381610276565b840191505092915050565b5f6020820190508181035f8301526102d68184610286565b905092915050565b5f7fffffffff0000000000000000000000000000000000000000000000000000000082169050919050565b610312816102de565b82525050565b5f60208201905061032b5f830184610309565b92915050565b5f5ffd5b5f73ffffffffffffffffffffffffffffffffffffffff82169050919050565b5f61035e82610335565b9050919050565b61036e81610354565b8114610378575f5ffd5b50565b5f8151905061038981610365565b92915050565b5f602082840312156103a4576103a3610331565b5b5f6103b18482850161037b565b91505092915050565b6103c3816102de565b82525050565b5f6020820190506103dc5f8301846103ba565b9291505056fea2646970667358221220a670f41cde94cce5d1de953b0dc7c5afe9c212dbd12402c03736b239badf031564736f6c634300081e0033",
			"opcodes": "PUSH1 0xA0 PUSH1 0x40 MSTORE PUSH2 0x16 PUSH1 0x1 PUSH0 PUSH0 PUSH2 0x117 PUSH1 0x20 SHL PUSH1 0x20 SHR JUMP JUMPDEST PUSH1 0x80 SWAP1 DUP2 MSTORE POP CALLVALUE DUP1 ISZERO PUSH2 0x27 JUMPI PUSH0 PUSH0 REVERT JUMPDEST POP PUSH1 0x40 MLOAD PUSH2 0xB19 CODESIZE SUB DUP1 PUSH2 0xB19 DUP4 CODECOPY DUP2 DUP2 ADD PUSH1 0x40 MSTORE DUP2 ADD SWAP1 PUSH2 0x49 SWAP2 SWAP1 PUSH2 0x49F JUMP JUMPDEST DUP1 PUSH20 0x0 PUSH4 0xA8F64352 DUP3 PUSH1 0x40 MLOAD DUP3 PUSH4 0xFFFFFFFF AND PUSH1 0xE0 SHL DUP2 MSTORE PUSH1 0x4 ADD PUSH2 0x81 SWAP2 SWAP1 PUSH2 0x6A1 JUMP JUMPDEST PUSH0 PUSH1 0x40 MLOAD DUP1 DUP4 SUB DUP2 DUP7 DUP1 EXTCODESIZE ISZERO DUP1 ISZERO PUSH2 0x97 JUMPI PUSH0 PUSH0 REVERT JUMPDEST POP GAS DELEGATECALL ISZERO DUP1 ISZERO PUSH2 0xA9 JUMPI RETURNDATASIZE PUSH0 PUSH0 RETURNDATACOPY RETURNDATASIZE PUSH0 REVERT JUMPDEST POP POP POP POP PUSH20 0x0 PUSH4 0x592BD705 CALLER PUSH1 0x40 MLOAD DUP3 PUSH4 0xFFFFFFFF AND PUSH1 0xE0 SHL DUP2 MSTORE PUSH1 0x4 ADD PUSH2 0xE4 SWAP2 SWAP1 PUSH2 0x6D0 JUMP JUMPDEST PUSH0 PUSH1 0x40 MLOAD DUP1 DUP4 SUB DUP2 DUP7 DUP1 EXTCODESIZE ISZERO DUP1 ISZERO PUSH2 0xFA JUMPI PUSH0 PUSH0 REVERT JUMPDEST POP GAS DELEGATECALL ISZERO DUP1 ISZERO PUSH2 0x10C JUMPI RETURNDATASIZE PUSH0 PUSH0 RETURNDATACOPY RETURNDATASIZE PUSH0 REVERT JUMPDEST POP POP POP POP POP POP PUSH2 0x6E9 JUMP JUMPDEST PUSH0 DUP2 PUSH4 0xFFFFFFFF AND PUSH1 0x20 DUP5 PUSH4 0xFFFFFFFF AND SWAP1 SHL PUSH1 0x40 DUP7 PUSH4 0xFFFFFFFF AND SWAP1 SHL OR OR SWAP1 POP SWAP4 SWAP3 POP POP POP JUMP JUMPDEST PUSH0 PUSH1 0x40 MLOAD SWAP1 POP SWAP1 JUMP JUMPDEST PUSH0 PUSH0 REVERT JUMPDEST PUSH0 PUSH0 REVERT JUMPDEST PUSH0 PUSH0 REVERT JUMPDEST PUSH0 PUSH1 0x1F NOT PUSH1 0x1F DUP4 ADD AND SWAP1 POP SWAP2 SWAP1 POP JUMP JUMPDEST PUSH32 0x4E487B7100000000000000000000000000000000000000000000000000000000 PUSH0 MSTORE PUSH1 0x41 PUSH1 0x4 MSTORE PUSH1 0x24 PUSH0 REVERT JUMPDEST PUSH2 0x19B DUP3 PUSH2 0x155 JUMP JUMPDEST DUP2 ADD DUP2 DUP2 LT PUSH8 0xFFFFFFFFFFFFFFFF DUP3 GT OR ISZERO PUSH2 0x1BA JUMPI PUSH2 0x1B9 PUSH2 0x165 JUMP JUMPDEST JUMPDEST DUP1 PUSH1 0x40 MSTORE POP POP POP JUMP JUMPDEST PUSH0 PUSH2 0x1CC PUSH2 0x140 JUMP JUMPDEST SWAP1 POP PUSH2 0x1D8 DUP3 DUP3 PUSH2 0x192 JUMP JUMPDEST SWAP2 SWAP1 POP JUMP JUMPDEST PUSH0 PUSH8 0xFFFFFFFFFFFFFFFF DUP3 GT ISZERO PUSH2 0x1F7 JUMPI PUSH2 0x1F6 PUSH2 0x165 JUMP JUMPDEST JUMPDEST PUSH1 0x20 DUP3 MUL SWAP1 POP PUSH1 0x20 DUP2 ADD SWAP1 POP SWAP2 SWAP1 POP JUMP JUMPDEST PUSH0 PUSH0 REVERT JUMPDEST PUSH0 PUSH0 REVERT JUMPDEST PUSH0 PUSH0 REVERT JUMPDEST PUSH0 PUSH20 0xFFFFFFFFFFFFFFFFFFFFFFFFFFFFFFFFFFFFFFFF DUP3 AND SWAP1 POP SWAP2 SWAP1 POP JUMP JUMPDEST PUSH0 PUSH2 0x23D DUP3 PUSH2 0x214 JUMP JUMPDEST SWAP1 POP SWAP2 SWAP1 POP JUMP JUMPDEST PUSH2 0x24D DUP2 PUSH2 0x233 JUMP JUMPDEST DUP2 EQ PUSH2 0x257 JUMPI PUSH0 PUSH0 REVERT JUMPDEST POP JUMP JUMPDEST PUSH0 DUP2 MLOAD SWAP1 POP PUSH2 0x268 DUP2 PUSH2 0x244 JUMP JUMPDEST SWAP3 SWAP2 POP POP JUMP JUMPDEST PUSH0 PUSH8 0xFFFFFFFFFFFFFFFF DUP3 GT ISZERO PUSH2 0x288 JUMPI PUSH2 0x287 PUSH2 0x165 JUMP JUMPDEST JUMPDEST PUSH1 0x20 DUP3 MUL SWAP1 POP PUSH1 0x20 DUP2 ADD SWAP1 POP SWAP2 SWAP1 POP JUMP JUMPDEST PUSH0 PUSH32 0xFFFFFFFF00000000000000000000000000000000000000000000000000000000 DUP3 AND SWAP1 POP SWAP2 SWAP1 POP JUMP JUMPDEST PUSH2 0x2CD DUP2 PUSH2 0x299 JUMP JUMPDEST DUP2 EQ PUSH2 0x2D7 JUMPI PUSH0 PUSH0 REVERT JUMPDEST POP JUMP JUMPDEST PUSH0 DUP2 MLOAD SWAP1 POP PUSH2 0x2E8 DUP2 PUSH2 0x2C4 JUMP JUMPDEST SWAP3 SWAP2 POP POP JUMP JUMPDEST PUSH0 PUSH2 0x300 PUSH2 0x2FB DUP5 PUSH2 0x26E JUMP JUMPDEST PUSH2 0x1C3 JUMP JUMPDEST SWAP1 POP DUP1 DUP4 DUP3 MSTORE PUSH1 0x20 DUP3 ADD SWAP1 POP PUSH1 0x20 DUP5 MUL DUP4 ADD DUP6 DUP2 GT ISZERO PUSH2 0x323 JUMPI PUSH2 0x322 PUSH2 0x208 JUMP JUMPDEST JUMPDEST DUP4 JUMPDEST DUP2 DUP2 LT ISZERO PUSH2 0x34C JUMPI DUP1 PUSH2 0x338 DUP9 DUP3 PUSH2 0x2DA JUMP JUMPDEST DUP5 MSTORE PUSH1 0x20 DUP5 ADD SWAP4 POP POP PUSH1 0x20 DUP2 ADD SWAP1 POP PUSH2 0x325 JUMP JUMPDEST POP POP POP SWAP4 SWAP3 POP POP POP JUMP JUMPDEST PUSH0 DUP3 PUSH1 0x1F DUP4 ADD SLT PUSH2 0x36A JUMPI PUSH2 0x369 PUSH2 0x151 JUMP JUMPDEST JUMPDEST DUP2 MLOAD PUSH2 0x37A DUP5 DUP3 PUSH1 0x20 DUP7 ADD PUSH2 0x2EE JUMP JUMPDEST SWAP2 POP POP SWAP3 SWAP2 POP POP JUMP JUMPDEST PUSH0 PUSH1 0x40 DUP3 DUP5 SUB SLT ISZERO PUSH2 0x398 JUMPI PUSH2 0x397 PUSH2 0x20C JUMP JUMPDEST JUMPDEST PUSH2 0x3A2 PUSH1 0x40 PUSH2 0x1C3 JUMP JUMPDEST SWAP1 POP PUSH0 PUSH2 0x3B1 DUP5 DUP3 DUP6 ADD PUSH2 0x25A JUMP JUMPDEST PUSH0 DUP4 ADD MSTORE POP PUSH1 0x20 DUP3 ADD MLOAD PUSH8 0xFFFFFFFFFFFFFFFF DUP2 GT ISZERO PUSH2 0x3D4 JUMPI PUSH2 0x3D3 PUSH2 0x210 JUMP JUMPDEST JUMPDEST PUSH2 0x3E0 DUP5 DUP3 DUP6 ADD PUSH2 0x356 JUMP JUMPDEST PUSH1 0x20 DUP4 ADD MSTORE POP SWAP3 SWAP2 POP POP JUMP JUMPDEST PUSH0 PUSH2 0x3FE PUSH2 0x3F9 DUP5 PUSH2 0x1DD JUMP JUMPDEST PUSH2 0x1C3 JUMP JUMPDEST SWAP1 POP DUP1 DUP4 DUP3 MSTORE PUSH1 0x20 DUP3 ADD SWAP1 POP PUSH1 0x20 DUP5 MUL DUP4 ADD DUP6 DUP2 GT ISZERO PUSH2 0x421 JUMPI PUSH2 0x420 PUSH2 0x208 JUMP JUMPDEST JUMPDEST DUP4 JUMPDEST DUP2 DUP2 LT ISZERO PUSH2 0x468 JUMPI DUP1 MLOAD PUSH8 0xFFFFFFFFFFFFFFFF DUP2 GT ISZERO PUSH2 0x446 JUMPI PUSH2 0x445 PUSH2 0x151 JUMP JUMPDEST JUMPDEST DUP1 DUP7 ADD PUSH2 0x453 DUP10 DUP3 PUSH2 0x383 JUMP JUMPDEST DUP6 MSTORE PUSH1 0x20 DUP6 ADD SWAP5 POP POP POP PUSH1 0x20 DUP2 ADD SWAP1 POP PUSH2 0x423 JUMP JUMPDEST POP POP POP SWAP4 SWAP3 POP POP POP JUMP JUMPDEST PUSH0 DUP3 PUSH1 0x1F DUP4 ADD SLT PUSH2 0x486 JUMPI PUSH2 0x485 PUSH2 0x151 JUMP JUMPDEST JUMPDEST DUP2 MLOAD PUSH2 0x496 DUP5 DUP3 PUSH1 0x20 DUP7 ADD PUSH2 0x3EC JUMP JUMPDEST SWAP2 POP POP SWAP3 SWAP2 POP POP JUMP JUMPDEST PUSH0 PUSH1 0x20 DUP3 DUP5 SUB SLT ISZERO PUSH2 0x4B4 JUMPI PUSH2 0x4B3 PUSH2 0x149 JUMP JUMPDEST JUMPDEST PUSH0 DUP3 ADD MLOAD PUSH8 0xFFFFFFFFFFFFFFFF DUP2 GT ISZERO PUSH2 0x4D1 JUMPI PUSH2 0x4D0 PUSH2 0x14D JUMP JUMPDEST JUMPDEST PUSH2 0x4DD DUP5 DUP3 DUP6 ADD PUSH2 0x472 JUMP JUMPDEST SWAP2 POP POP SWAP3 SWAP2 POP POP JUMP JUMPDEST PUSH0 DUP2 MLOAD SWAP1 POP SWAP2 SWAP1 POP JUMP JUMPDEST PUSH0 DUP3 DUP3 MSTORE PUSH1 0x20 DUP3 ADD SWAP1 POP SWAP3 SWAP2 POP POP JUMP JUMPDEST PUSH0 DUP2 SWAP1 POP PUSH1 0x20 DUP3 ADD SWAP1 POP SWAP2 SWAP1 POP JUMP JUMPDEST PUSH2 0x518 DUP2 PUSH2 0x233 JUMP JUMPDEST DUP3 MSTORE POP POP JUMP JUMPDEST PUSH0 DUP2 MLOAD SWAP1 POP SWAP2 SWAP1 POP JUMP JUMPDEST PUSH0 DUP3 DUP3 MSTORE PUSH1 0x20 DUP3 ADD SWAP1 POP SWAP3 SWAP2 POP POP JUMP JUMPDEST PUSH0 DUP2 SWAP1 POP PUSH1 0x20 DUP3 ADD SWAP1 POP SWAP2 SWAP1 POP JUMP JUMPDEST PUSH2 0x550 DUP2 PUSH2 0x299 JUMP JUMPDEST DUP3 MSTORE POP POP JUMP JUMPDEST PUSH0 PUSH2 0x561 DUP4 DUP4 PUSH2 0x547 JUMP JUMPDEST PUSH1 0x20 DUP4 ADD SWAP1 POP SWAP3 SWAP2 POP POP JUMP JUMPDEST PUSH0 PUSH1 0x20 DUP3 ADD SWAP1 POP SWAP2 SWAP1 POP JUMP JUMPDEST PUSH0 PUSH2 0x583 DUP3 PUSH2 0x51E JUMP JUMPDEST PUSH2 0x58D DUP2 DUP6 PUSH2 0x528 JUMP JUMPDEST SWAP4 POP PUSH2 0x598 DUP4 PUSH2 0x538 JUMP JUMPDEST DUP1 PUSH0 JUMPDEST DUP4 DUP2 LT ISZERO PUSH2 0x5C8 JUMPI DUP2 MLOAD PUSH2 0x5AF DUP9 DUP3 PUSH2 0x556 JUMP JUMPDEST SWAP8 POP PUSH2 0x5BA DUP4 PUSH2 0x56D JUMP JUMPDEST SWAP3 POP POP PUSH1 0x1 DUP2 ADD SWAP1 POP PUSH2 0x59B JUMP JUMPDEST POP DUP6 SWAP4 POP POP POP POP SWAP3 SWAP2 POP POP JUMP JUMPDEST PUSH0 PUSH1 0x40 DUP4 ADD PUSH0 DUP4 ADD MLOAD PUSH2 0x5EA PUSH0 DUP7 ADD DUP3 PUSH2 0x50F JUMP JUMPDEST POP PUSH1 0x20 DUP4 ADD MLOAD DUP5 DUP3 SUB PUSH1 0x20 DUP7 ADD MSTORE PUSH2 0x602 DUP3 DUP3 PUSH2 0x579 JUMP JUMPDEST SWAP2 POP POP DUP1 SWAP2 POP POP SWAP3 SWAP2 POP POP JUMP JUMPDEST PUSH0 PUSH2 0x61A DUP4 DUP4 PUSH2 0x5D5 JUMP JUMPDEST SWAP1 POP SWAP3 SWAP2 POP POP JUMP JUMPDEST PUSH0 PUSH1 0x20 DUP3 ADD SWAP1 POP SWAP2 SWAP1 POP JUMP JUMPDEST PUSH0 PUSH2 0x638 DUP3 PUSH2 0x4E6 JUMP JUMPDEST PUSH2 0x642 DUP2 DUP6 PUSH2 0x4F0 JUMP JUMPDEST SWAP4 POP DUP4 PUSH1 0x20 DUP3 MUL DUP6 ADD PUSH2 0x654 DUP6 PUSH2 0x500 JUMP JUMPDEST DUP1 PUSH0 JUMPDEST DUP6 DUP2 LT ISZERO PUSH2 0x68F JUMPI DUP5 DUP5 SUB DUP10 MSTORE DUP2 MLOAD PUSH2 0x670 DUP6 DUP3 PUSH2 0x60F JUMP JUMPDEST SWAP5 POP PUSH2 0x67B DUP4 PUSH2 0x622 JUMP JUMPDEST SWAP3 POP PUSH1 0x20 DUP11 ADD SWAP10 POP POP PUSH1 0x1 DUP2 ADD SWAP1 POP PUSH2 0x657 JUMP JUMPDEST POP DUP3 SWAP8 POP DUP8 SWAP6 POP POP POP POP POP POP SWAP3 SWAP2 POP POP JUMP JUMPDEST PUSH0 PUSH1 0x20 DUP3 ADD SWAP1 POP DUP2 DUP2 SUB PUSH0 DUP4 ADD MSTORE PUSH2 0x6B9 DUP2 DUP5 PUSH2 0x62E JUMP JUMPDEST SWAP1 POP SWAP3 SWAP2 POP POP JUMP JUMPDEST PUSH2 0x6CA DUP2 PUSH2 0x233 JUMP JUMPDEST DUP3 MSTORE POP POP JUMP JUMPDEST PUSH0 PUSH1 0x20 DUP3 ADD SWAP1 POP PUSH2 0x6E3 PUSH0 DUP4 ADD DUP5 PUSH2 0x6C1 JUMP JUMPDEST SWAP3 SWAP2 POP POP JUMP JUMPDEST PUSH1 0x80 MLOAD PUSH2 0x418 PUSH2 0x701 PUSH0 CODECOPY PUSH0 PUSH2 0x1C2 ADD MSTORE PUSH2 0x418 PUSH0 RETURN INVALID PUSH1 0x80 PUSH1 0x40 MSTORE PUSH1 0x4 CALLDATASIZE LT PUSH2 0x2C JUMPI PUSH0 CALLDATALOAD PUSH1 0xE0 SHR DUP1 PUSH4 0x81ED9808 EQ PUSH2 0x3D JUMPI DUP1 PUSH4 0x9B865B43 EQ PUSH2 0x67 JUMPI PUSH2 0x33 JUMP JUMPDEST CALLDATASIZE PUSH2 0x33 JUMPI STOP JUMPDEST PUSH2 0x3B PUSH2 0x91 JUMP JUMPDEST STOP JUMPDEST CALLVALUE DUP1 ISZERO PUSH2 0x48 JUMPI PUSH0 PUSH0 REVERT JUMPDEST POP PUSH2 0x51 PUSH2 0x1C0 JUMP JUMPDEST PUSH1 0x40 MLOAD PUSH2 0x5E SWAP2 SWAP1 PUSH2 0x235 JUMP JUMPDEST PUSH1 0x40 MLOAD DUP1 SWAP2 SUB SWAP1 RETURN JUMPDEST CALLVALUE DUP1 ISZERO PUSH2 0x72 JUMPI PUSH0 PUSH0 REVERT JUMPDEST POP PUSH2 0x7B PUSH2 0x1E4 JUMP JUMPDEST PUSH1 0x40 MLOAD PUSH2 0x88 SWAP2 SWAP1 PUSH2 0x2BE JUMP JUMPDEST PUSH1 0x40 MLOAD DUP1 SWAP2 SUB SWAP1 RETURN JUMPDEST PUSH0 PUSH0 CALLDATALOAD PUSH32 0xFFFFFFFF00000000000000000000000000000000000000000000000000000000 AND SWAP1 POP PUSH0 PUSH20 0x0 PUSH4 0x20E63D2A DUP4 PUSH1 0x40 MLOAD DUP3 PUSH4 0xFFFFFFFF AND PUSH1 0xE0 SHL DUP2 MSTORE PUSH1 0x4 ADD PUSH2 0xF0 SWAP2 SWAP1 PUSH2 0x318 JUMP JUMPDEST PUSH1 0x20 PUSH1 0x40 MLOAD DUP1 DUP4 SUB DUP2 DUP7 GAS DELEGATECALL ISZERO DUP1 ISZERO PUSH2 0x10B JUMPI RETURNDATASIZE PUSH0 PUSH0 RETURNDATACOPY RETURNDATASIZE PUSH0 REVERT JUMPDEST POP POP POP POP PUSH1 0x40 MLOAD RETURNDATASIZE PUSH1 0x1F NOT PUSH1 0x1F DUP3 ADD AND DUP3 ADD DUP1 PUSH1 0x40 MSTORE POP DUP2 ADD SWAP1 PUSH2 0x12F SWAP2 SWAP1 PUSH2 0x38F JUMP JUMPDEST SWAP1 POP PUSH0 PUSH20 0xFFFFFFFFFFFFFFFFFFFFFFFFFFFFFFFFFFFFFFFF AND DUP2 PUSH20 0xFFFFFFFFFFFFFFFFFFFFFFFFFFFFFFFFFFFFFFFF AND SUB PUSH2 0x1A1 JUMPI DUP2 PUSH1 0x40 MLOAD PUSH32 0xC2A825F500000000000000000000000000000000000000000000000000000000 DUP2 MSTORE PUSH1 0x4 ADD PUSH2 0x198 SWAP2 SWAP1 PUSH2 0x3C9 JUMP JUMPDEST PUSH1 0x40 MLOAD DUP1 SWAP2 SUB SWAP1 REVERT JUMPDEST CALLDATASIZE PUSH0 PUSH0 CALLDATACOPY PUSH0 PUSH0 CALLDATASIZE PUSH0 DUP5 GAS DELEGATECALL RETURNDATASIZE PUSH0 PUSH0 RETURNDATACOPY DUP1 PUSH0 DUP2 EQ PUSH2 0x1BC JUMPI RETURNDATASIZE PUSH0 RETURN JUMPDEST RETURNDATASIZE PUSH0 REVERT JUMPDEST PUSH32 0x0 DUP2 JUMP JUMPDEST PUSH1 0x40 MLOAD DUP1 PUSH1 0x40 ADD PUSH1 0x40 MSTORE DUP1 PUSH1 0xD DUP2 MSTORE PUSH1 0x20 ADD PUSH32 0x44796E616D6963526F7574657200000000000000000000000000000000000000 DUP2 MSTORE POP DUP2 JUMP JUMPDEST PUSH0 DUP2 SWAP1 POP SWAP2 SWAP1 POP JUMP JUMPDEST PUSH2 0x22F DUP2 PUSH2 0x21D JUMP JUMPDEST DUP3 MSTORE POP POP JUMP JUMPDEST PUSH0 PUSH1 0x20 DUP3 ADD SWAP1 POP PUSH2 0x248 PUSH0 DUP4 ADD DUP5 PUSH2 0x226 JUMP JUMPDEST SWAP3 SWAP2 POP POP JUMP JUMPDEST PUSH0 DUP2 MLOAD SWAP1 POP SWAP2 SWAP1 POP JUMP JUMPDEST PUSH0 DUP3 DUP3 MSTORE PUSH1 0x20 DUP3 ADD SWAP1 POP SWAP3 SWAP2 POP POP JUMP JUMPDEST DUP3 DUP2 DUP4 MCOPY PUSH0 DUP4 DUP4 ADD MSTORE POP POP POP JUMP JUMPDEST PUSH0 PUSH1 0x1F NOT PUSH1 0x1F DUP4 ADD AND SWAP1 POP SWAP2 SWAP1 POP JUMP JUMPDEST PUSH0 PUSH2 0x290 DUP3 PUSH2 0x24E JUMP JUMPDEST PUSH2 0x29A DUP2 DUP6 PUSH2 0x258 JUMP JUMPDEST SWAP4 POP PUSH2 0x2AA DUP2 DUP6 PUSH1 0x20 DUP7 ADD PUSH2 0x268 JUMP JUMPDEST PUSH2 0x2B3 DUP2 PUSH2 0x276 JUMP JUMPDEST DUP5 ADD SWAP2 POP POP SWAP3 SWAP2 POP POP JUMP JUMPDEST PUSH0 PUSH1 0x20 DUP3 ADD SWAP1 POP DUP2 DUP2 SUB PUSH0 DUP4 ADD MSTORE PUSH2 0x2D6 DUP2 DUP5 PUSH2 0x286 JUMP JUMPDEST SWAP1 POP SWAP3 SWAP2 POP POP JUMP JUMPDEST PUSH0 PUSH32 0xFFFFFFFF00000000000000000000000000000000000000000000000000000000 DUP3 AND SWAP1 POP SWAP2 SWAP1 POP JUMP JUMPDEST PUSH2 0x312 DUP2 PUSH2 0x2DE JUMP JUMPDEST DUP3 MSTORE POP POP JUMP JUMPDEST PUSH0 PUSH1 0x20 DUP3 ADD SWAP1 POP PUSH2 0x32B PUSH0 DUP4 ADD DUP5 PUSH2 0x309 JUMP JUMPDEST SWAP3 SWAP2 POP POP JUMP JUMPDEST PUSH0 PUSH0 REVERT JUMPDEST PUSH0 PUSH20 0xFFFFFFFFFFFFFFFFFFFFFFFFFFFFFFFFFFFFFFFF DUP3 AND SWAP1 POP SWAP2 SWAP1 POP JUMP JUMPDEST PUSH0 PUSH2 0x35E DUP3 PUSH2 0x335 JUMP JUMPDEST SWAP1 POP SWAP2 SWAP1 POP JUMP JUMPDEST PUSH2 0x36E DUP2 PUSH2 0x354 JUMP JUMPDEST DUP2 EQ PUSH2 0x378 JUMPI PUSH0 PUSH0 REVERT JUMPDEST POP JUMP JUMPDEST PUSH0 DUP2 MLOAD SWAP1 POP PUSH2 0x389 DUP2 PUSH2 0x365 JUMP JUMPDEST SWAP3 SWAP2 POP POP JUMP JUMPDEST PUSH0 PUSH1 0x20 DUP3 DUP5 SUB SLT ISZERO PUSH2 0x3A4 JUMPI PUSH2 0x3A3 PUSH2 0x331 JUMP JUMPDEST JUMPDEST PUSH0 PUSH2 0x3B1 DUP5 DUP3 DUP6 ADD PUSH2 0x37B JUMP JUMPDEST SWAP2 POP POP SWAP3 SWAP2 POP POP JUMP JUMPDEST PUSH2 0x3C3 DUP2 PUSH2 0x2DE JUMP JUMPDEST DUP3 MSTORE POP POP JUMP JUMPDEST PUSH0 PUSH1 0x20 DUP3 ADD SWAP1 POP PUSH2 0x3DC PUSH0 DUP4 ADD DUP5 PUSH2 0x3BA JUMP JUMPDEST SWAP3 SWAP2 POP POP JUMP INVALID LOG2 PUSH5 0x6970667358 0x22 SLT KECCAK256 0xA6 PUSH17 0xF41CDE94CCE5D1DE953B0DC7C5AFE9C212 0xDB DATALOADN 0x2402 0xC0 CALLDATACOPY CALLDATASIZE 0xB2 CODECOPY 0xBA 0xDF SUB ISZERO PUSH5 0x736F6C6343 STOP ADDMOD 0x1E STOP CALLER "
		},
		"gasEstimates": {
			"creation": {
				"codeDepositCost": "209600",
				"executionCost": "infinite",
				"totalCost": "infinite"
			},
			"external": {
				"": "infinite",
				"MODULE_NAME()": "infinite",
				"MODULE_VERSION()": "infinite"
			}
		},
		"methodIdentifiers": {
			"MODULE_NAME()": "9b865b43",
			"MODULE_VERSION()": "81ed9808"
		}
	},
	"abi": [
		{
			"inputs": [
				{
					"components": [
						{
							"internalType": "address",
							"name": "module",
							"type": "address"
						},
						{
							"internalType": "bytes4[]",
							"name": "selectors",
							"type": "bytes4[]"
						}
					],
					"internalType": "struct DynamicRouterStorage.moduleDefinition[]",
					"name": "modules",
					"type": "tuple[]"
				}
			],
			"stateMutability": "nonpayable",
			"type": "constructor"
		},
		{
			"inputs": [
				{
					"internalType": "bytes4",
					"name": "",
					"type": "bytes4"
				}
			],
			"name": "UnknownSelector",
			"type": "error"
		},
		{
			"stateMutability": "payable",
			"type": "fallback"
		},
		{
			"inputs": [],
			"name": "MODULE_NAME",
			"outputs": [
				{
					"internalType": "string",
					"name": "",
					"type": "string"
				}
			],
			"stateMutability": "view",
			"type": "function"
		},
		{
			"inputs": [],
			"name": "MODULE_VERSION",
			"outputs": [
				{
					"internalType": "uint256",
					"name": "",
					"type": "uint256"
				}
			],
			"stateMutability": "view",
			"type": "function"
		},
		{
			"stateMutability": "payable",
			"type": "receive"
		}
	]
}