{
	"data": {
		"bytecode": {
			"linkReferences": {
				"contracts/storage/LibSMEambStorage.sol": {
					"SMEambStorage": [
						{
							"length": 20,
							"start": 1219
						},
						{
							"length": 20,
							"start": 1375
						},
						{
							"length": 20,
							"start": 1487
						},
						{
							"length": 20,
							"start": 1659
						},
						{
							"length": 20,
							"start": 1790
						},
						{
							"length": 20,
							"start": 2359
						},
						{
							"length": 20,
							"start": 2582
						},
						{
							"length": 20,
							"start": 2713
						},
						{
							"length": 20,
							"start": 2929
						}
					]
				}
			},
			"object": "608060405234801561000f575f80fd5b506110018061001d5f395ff3fe608060405234801561000f575f80fd5b5060043610610156575f3560e01c80639862e50f116100c1578063d611367b1161007a578063d611367b146103e0578063d9d21c63146103fe578063dc3bd0fd1461041c578063f3ef17ac1461044c578063f41523ae1461046a578063fe0bc95a1461048857610156565b80639862e50f146103085780639cea3d20146103265780639f07fba114610344578063c70059bf14610362578063cbaf28ce14610380578063d0ddbbfa146103b057610156565b8063625553e211610113578063625553e214610230578063753f84061461024e57806376dd3c441461027e57806384ed13771461029c57806389566257146102cc5780638bdb7e0f146102ea57610156565b8063068e4d511461015a5780631086568e146101765780632a2745b61461019457806336a141c9146101b2578063444996c1146101d05780634fe3c13e14610200575b5f80fd5b610174600480360381019061016f9190610c45565b6104a4565b005b61017e61050d565b60405161018b9190610c92565b60405180910390f35b61019c610512565b6040516101a99190610c92565b60405180910390f35b6101ba610539565b6040516101c79190610c92565b60405180910390f35b6101ea60048036038101906101e59190610cab565b61053e565b6040516101f79190610c92565b60405180910390f35b61021a60048036038101906102159190610cab565b6107e1565b6040516102279190610dc1565b60405180910390f35b610238610895565b6040516102459190610c92565b60405180910390f35b61026860048036038101906102639190610cab565b6108b6565b6040516102759190610de9565b60405180910390f35b6102866108f6565b6040516102939190610c92565b60405180910390f35b6102b660048036038101906102b19190610e2c565b610917565b6040516102c39190610c92565b60405180910390f35b6102d4610995565b6040516102e19190610c92565b60405180910390f35b6102f26109b1565b6040516102ff9190610e6f565b60405180910390f35b6103106109d7565b60405161031d9190610c92565b60405180910390f35b61032e6109dc565b60405161033b9190610c92565b60405180910390f35b61034c6109e1565b6040516103599190610c92565b60405180910390f35b61036a6109e7565b6040516103779190610c92565b60405180910390f35b61039a60048036038101906103959190610cab565b6109ec565b6040516103a79190610dc1565b60405180910390f35b6103ca60048036038101906103c59190610cab565b610a79565b6040516103d79190610c92565b60405180910390f35b6103e8610af7565b6040516103f59190610c92565b60405180910390f35b610406610afc565b6040516104139190610c92565b60405180910390f35b61043660048036038101906104319190610cab565b610b1d565b6040516104439190610e97565b60405180910390f35b610454610b2e565b6040516104619190610c92565b60405180910390f35b610472610b46565b60405161047f9190610c92565b60405180910390f35b6104a2600480360381019061049d9190610eb0565b610b52565b005b73__$3f3f7fbeed7f8e090b258bc8e3513c9e4b$__63e68fdee183836040518363ffffffff1660e01b81526004016104dd929190610efd565b5f6040518083038186803b1580156104f3575f80fd5b505af4158015610505573d5f803e3d5ffd5b505050505050565b60e881565b5f7fffffffffffffffffffffffffffffffffffffffffffffffffffffffffffffffff905090565b60a081565b5f8173__$3f3f7fbeed7f8e090b258bc8e3513c9e4b$__6398995f776040518163ffffffff1660e01b8152600401602060405180830381865af4158015610587573d5f803e3d5ffd5b505050506040513d601f19601f820116820180604052508101906105ab9190610f38565b116107cb5773__$3f3f7fbeed7f8e090b258bc8e3513c9e4b$__6347f69eba836040518263ffffffff1660e01b81526004016105e79190610f63565b602060405180830381865af4158015610602573d5f803e3d5ffd5b505050506040513d601f19601f820116820180604052508101906106269190610f38565b9050610630610512565b82111561065557610640816108b6565b6107dc5761065463df2d9b4260e01b610bbb565b5b5f81036107a35773__$3f3f7fbeed7f8e090b258bc8e3513c9e4b$__639451c99a6040518163ffffffff1660e01b8152600401602060405180830381865af41580156106a3573d5f803e3d5ffd5b505050506040513d601f19601f820116820180604052508101906106c79190610f38565b82106106de576106dd63df2d9b4260e01b610bbb565b5b5b73__$3f3f7fbeed7f8e090b258bc8e3513c9e4b$__6347f69eba83600190039350836040518263ffffffff1660e01b815260040161071d9190610f63565b602060405180830381865af4158015610738573d5f803e3d5ffd5b505050506040513d601f19601f8201168201806040525081019061075c9190610f38565b90505f81031561079e575f7c0100000000000000000000000000000000000000000000000000000000821603156107dc5761079d63df2d9b4260e01b610bbb565b5b6106df565b5f7c0100000000000000000000000000000000000000000000000000000000821603156107dc575b6107db63df2d9b4260e01b610bbb565b5b919050565b6107e9610bc3565b81815f019073ffffffffffffffffffffffffffffffffffffffff16908173ffffffffffffffffffffffffffffffffffffffff168152505060a082901c816020019067ffffffffffffffff16908167ffffffffffffffff16815250505f7c01000000000000000000000000000000000000000000000000000000008316141581604001901515908115158152505060e882901c816060019062ffffff16908162ffffff1681525050919050565b7c020000000000000000000000000000000000000000000000000000000081565b5f7c0100000000000000000000000000000000000000000000000000000000821673ffffffffffffffffffffffffffffffffffffffff8316119050919050565b7cffffffffffffffffffffffffffffffffffffffffffffffffffffffffff81565b5f73__$3f3f7fbeed7f8e090b258bc8e3513c9e4b$__6321b0ed7d836040518263ffffffff1660e01b815260040161094f9190610f8b565b602060405180830381865af415801561096a573d5f803e3d5ffd5b505050506040513d601f19601f8201168201806040525081019061098e9190610f38565b9050919050565b77ffffffffffffffffffffffffffffffffffffffffffffffff81565b7fddf252ad1be2c89b69c2b068fc378daa952ba7f163c4a11628f55a4df523b3ef5f1b81565b604081565b60c081565b61138881565b60e181565b6109f4610bc3565b610a7273__$3f3f7fbeed7f8e090b258bc8e3513c9e4b$__6347f69eba846040518263ffffffff1660e01b8152600401610a2e9190610f63565b602060405180830381865af4158015610a49573d5f803e3d5ffd5b505050506040513d601f19601f82011682018060405250810190610a6d9190610f38565b6107e1565b9050919050565b5f73__$3f3f7fbeed7f8e090b258bc8e3513c9e4b$__6347f69eba836040518263ffffffff1660e01b8152600401610ab19190610f63565b602060405180830381865af4158015610acc573d5f803e3d5ffd5b505050506040513d601f19601f82011682018060405250810190610af09190610f38565b9050919050565b608081565b7c010000000000000000000000000000000000000000000000000000000081565b5f610b278261053e565b9050919050565b73ffffffffffffffffffffffffffffffffffffffff81565b67ffffffffffffffff81565b73__$3f3f7fbeed7f8e090b258bc8e3513c9e4b$__63a330117383836040518363ffffffff1660e01b8152600401610b8b929190610fa4565b5f6040518083038186803b158015610ba1575f80fd5b505af4158015610bb3573d5f803e3d5ffd5b505050505050565b805f5260045ffd5b60405180608001604052805f73ffffffffffffffffffffffffffffffffffffffff1681526020015f67ffffffffffffffff1681526020015f151581526020015f62ffffff1681525090565b5f80fd5b5f819050919050565b610c2481610c12565b8114610c2e575f80fd5b50565b5f81359050610c3f81610c1b565b92915050565b5f8060408385031215610c5b57610c5a610c0e565b5b5f610c6885828601610c31565b9250506020610c7985828601610c31565b9150509250929050565b610c8c81610c12565b82525050565b5f602082019050610ca55f830184610c83565b92915050565b5f60208284031215610cc057610cbf610c0e565b5b5f610ccd84828501610c31565b91505092915050565b5f73ffffffffffffffffffffffffffffffffffffffff82169050919050565b5f610cff82610cd6565b9050919050565b610d0f81610cf5565b82525050565b5f67ffffffffffffffff82169050919050565b610d3181610d15565b82525050565b5f8115159050919050565b610d4b81610d37565b82525050565b5f62ffffff82169050919050565b610d6881610d51565b82525050565b608082015f820151610d825f850182610d06565b506020820151610d956020850182610d28565b506040820151610da86040850182610d42565b506060820151610dbb6060850182610d5f565b50505050565b5f608082019050610dd45f830184610d6e565b92915050565b610de381610d37565b82525050565b5f602082019050610dfc5f830184610dda565b92915050565b610e0b81610cf5565b8114610e15575f80fd5b50565b5f81359050610e2681610e02565b92915050565b5f60208284031215610e4157610e40610c0e565b5b5f610e4e84828501610e18565b91505092915050565b5f819050919050565b610e6981610e57565b82525050565b5f602082019050610e825f830184610e60565b92915050565b610e9181610cf5565b82525050565b5f602082019050610eaa5f830184610e88565b92915050565b5f8060408385031215610ec657610ec5610c0e565b5b5f610ed385828601610e18565b9250506020610ee485828601610c31565b9150509250929050565b610ef781610c12565b82525050565b5f604082019050610f105f830185610eee565b610f1d6020830184610eee565b9392505050565b5f81519050610f3281610c1b565b92915050565b5f60208284031215610f4d57610f4c610c0e565b5b5f610f5a84828501610f24565b91505092915050565b5f602082019050610f765f830184610eee565b92915050565b610f8581610cf5565b82525050565b5f602082019050610f9e5f830184610f7c565b92915050565b5f604082019050610fb75f830185610f7c565b610fc46020830184610eee565b939250505056fea2646970667358221220ce5347ad53fab631c836bbd18a87bc12d215692160393143a638ca8852ddc5e764736f6c63430008170033",
			"opcodes": "PUSH1 0x80 PUSH1 0x40 MSTORE CALLVALUE DUP1 ISZERO PUSH2 0xF JUMPI PUSH0 DUP1 REVERT JUMPDEST POP PUSH2 0x1001 DUP1 PUSH2 0x1D PUSH0 CODECOPY PUSH0 RETURN INVALID PUSH1 0x80 PUSH1 0x40 MSTORE CALLVALUE DUP1 ISZERO PUSH2 0xF JUMPI PUSH0 DUP1 REVERT JUMPDEST POP PUSH1 0x4 CALLDATASIZE LT PUSH2 0x156 JUMPI PUSH0 CALLDATALOAD PUSH1 0xE0 SHR DUP1 PUSH4 0x9862E50F GT PUSH2 0xC1 JUMPI DUP1 PUSH4 0xD611367B GT PUSH2 0x7A JUMPI DUP1 PUSH4 0xD611367B EQ PUSH2 0x3E0 JUMPI DUP1 PUSH4 0xD9D21C63 EQ PUSH2 0x3FE JUMPI DUP1 PUSH4 0xDC3BD0FD EQ PUSH2 0x41C JUMPI DUP1 PUSH4 0xF3EF17AC EQ PUSH2 0x44C JUMPI DUP1 PUSH4 0xF41523AE EQ PUSH2 0x46A JUMPI DUP1 PUSH4 0xFE0BC95A EQ PUSH2 0x488 JUMPI PUSH2 0x156 JUMP JUMPDEST DUP1 PUSH4 0x9862E50F EQ PUSH2 0x308 JUMPI DUP1 PUSH4 0x9CEA3D20 EQ PUSH2 0x326 JUMPI DUP1 PUSH4 0x9F07FBA1 EQ PUSH2 0x344 JUMPI DUP1 PUSH4 0xC70059BF EQ PUSH2 0x362 JUMPI DUP1 PUSH4 0xCBAF28CE EQ PUSH2 0x380 JUMPI DUP1 PUSH4 0xD0DDBBFA EQ PUSH2 0x3B0 JUMPI PUSH2 0x156 JUMP JUMPDEST DUP1 PUSH4 0x625553E2 GT PUSH2 0x113 JUMPI DUP1 PUSH4 0x625553E2 EQ PUSH2 0x230 JUMPI DUP1 PUSH4 0x753F8406 EQ PUSH2 0x24E JUMPI DUP1 PUSH4 0x76DD3C44 EQ PUSH2 0x27E JUMPI DUP1 PUSH4 0x84ED1377 EQ PUSH2 0x29C JUMPI DUP1 PUSH4 0x89566257 EQ PUSH2 0x2CC JUMPI DUP1 PUSH4 0x8BDB7E0F EQ PUSH2 0x2EA JUMPI PUSH2 0x156 JUMP JUMPDEST DUP1 PUSH4 0x68E4D51 EQ PUSH2 0x15A JUMPI DUP1 PUSH4 0x1086568E EQ PUSH2 0x176 JUMPI DUP1 PUSH4 0x2A2745B6 EQ PUSH2 0x194 JUMPI DUP1 PUSH4 0x36A141C9 EQ PUSH2 0x1B2 JUMPI DUP1 PUSH4 0x444996C1 EQ PUSH2 0x1D0 JUMPI DUP1 PUSH4 0x4FE3C13E EQ PUSH2 0x200 JUMPI JUMPDEST PUSH0 DUP1 REVERT JUMPDEST PUSH2 0x174 PUSH1 0x4 DUP1 CALLDATASIZE SUB DUP2 ADD SWAP1 PUSH2 0x16F SWAP2 SWAP1 PUSH2 0xC45 JUMP JUMPDEST PUSH2 0x4A4 JUMP JUMPDEST STOP JUMPDEST PUSH2 0x17E PUSH2 0x50D JUMP JUMPDEST PUSH1 0x40 MLOAD PUSH2 0x18B SWAP2 SWAP1 PUSH2 0xC92 JUMP JUMPDEST PUSH1 0x40 MLOAD DUP1 SWAP2 SUB SWAP1 RETURN JUMPDEST PUSH2 0x19C PUSH2 0x512 JUMP JUMPDEST PUSH1 0x40 MLOAD PUSH2 0x1A9 SWAP2 SWAP1 PUSH2 0xC92 JUMP JUMPDEST PUSH1 0x40 MLOAD DUP1 SWAP2 SUB SWAP1 RETURN JUMPDEST PUSH2 0x1BA PUSH2 0x539 JUMP JUMPDEST PUSH1 0x40 MLOAD PUSH2 0x1C7 SWAP2 SWAP1 PUSH2 0xC92 JUMP JUMPDEST PUSH1 0x40 MLOAD DUP1 SWAP2 SUB SWAP1 RETURN JUMPDEST PUSH2 0x1EA PUSH1 0x4 DUP1 CALLDATASIZE SUB DUP2 ADD SWAP1 PUSH2 0x1E5 SWAP2 SWAP1 PUSH2 0xCAB JUMP JUMPDEST PUSH2 0x53E JUMP JUMPDEST PUSH1 0x40 MLOAD PUSH2 0x1F7 SWAP2 SWAP1 PUSH2 0xC92 JUMP JUMPDEST PUSH1 0x40 MLOAD DUP1 SWAP2 SUB SWAP1 RETURN JUMPDEST PUSH2 0x21A PUSH1 0x4 DUP1 CALLDATASIZE SUB DUP2 ADD SWAP1 PUSH2 0x215 SWAP2 SWAP1 PUSH2 0xCAB JUMP JUMPDEST PUSH2 0x7E1 JUMP JUMPDEST PUSH1 0x40 MLOAD PUSH2 0x227 SWAP2 SWAP1 PUSH2 0xDC1 JUMP JUMPDEST PUSH1 0x40 MLOAD DUP1 SWAP2 SUB SWAP1 RETURN JUMPDEST PUSH2 0x238 PUSH2 0x895 JUMP JUMPDEST PUSH1 0x40 MLOAD PUSH2 0x245 SWAP2 SWAP1 PUSH2 0xC92 JUMP JUMPDEST PUSH1 0x40 MLOAD DUP1 SWAP2 SUB SWAP1 RETURN JUMPDEST PUSH2 0x268 PUSH1 0x4 DUP1 CALLDATASIZE SUB DUP2 ADD SWAP1 PUSH2 0x263 SWAP2 SWAP1 PUSH2 0xCAB JUMP JUMPDEST PUSH2 0x8B6 JUMP JUMPDEST PUSH1 0x40 MLOAD PUSH2 0x275 SWAP2 SWAP1 PUSH2 0xDE9 JUMP JUMPDEST PUSH1 0x40 MLOAD DUP1 SWAP2 SUB SWAP1 RETURN JUMPDEST PUSH2 0x286 PUSH2 0x8F6 JUMP JUMPDEST PUSH1 0x40 MLOAD PUSH2 0x293 SWAP2 SWAP1 PUSH2 0xC92 JUMP JUMPDEST PUSH1 0x40 MLOAD DUP1 SWAP2 SUB SWAP1 RETURN JUMPDEST PUSH2 0x2B6 PUSH1 0x4 DUP1 CALLDATASIZE SUB DUP2 ADD SWAP1 PUSH2 0x2B1 SWAP2 SWAP1 PUSH2 0xE2C JUMP JUMPDEST PUSH2 0x917 JUMP JUMPDEST PUSH1 0x40 MLOAD PUSH2 0x2C3 SWAP2 SWAP1 PUSH2 0xC92 JUMP JUMPDEST PUSH1 0x40 MLOAD DUP1 SWAP2 SUB SWAP1 RETURN JUMPDEST PUSH2 0x2D4 PUSH2 0x995 JUMP JUMPDEST PUSH1 0x40 MLOAD PUSH2 0x2E1 SWAP2 SWAP1 PUSH2 0xC92 JUMP JUMPDEST PUSH1 0x40 MLOAD DUP1 SWAP2 SUB SWAP1 RETURN JUMPDEST PUSH2 0x2F2 PUSH2 0x9B1 JUMP JUMPDEST PUSH1 0x40 MLOAD PUSH2 0x2FF SWAP2 SWAP1 PUSH2 0xE6F JUMP JUMPDEST PUSH1 0x40 MLOAD DUP1 SWAP2 SUB SWAP1 RETURN JUMPDEST PUSH2 0x310 PUSH2 0x9D7 JUMP JUMPDEST PUSH1 0x40 MLOAD PUSH2 0x31D SWAP2 SWAP1 PUSH2 0xC92 JUMP JUMPDEST PUSH1 0x40 MLOAD DUP1 SWAP2 SUB SWAP1 RETURN JUMPDEST PUSH2 0x32E PUSH2 0x9DC JUMP JUMPDEST PUSH1 0x40 MLOAD PUSH2 0x33B SWAP2 SWAP1 PUSH2 0xC92 JUMP JUMPDEST PUSH1 0x40 MLOAD DUP1 SWAP2 SUB SWAP1 RETURN JUMPDEST PUSH2 0x34C PUSH2 0x9E1 JUMP JUMPDEST PUSH1 0x40 MLOAD PUSH2 0x359 SWAP2 SWAP1 PUSH2 0xC92 JUMP JUMPDEST PUSH1 0x40 MLOAD DUP1 SWAP2 SUB SWAP1 RETURN JUMPDEST PUSH2 0x36A PUSH2 0x9E7 JUMP JUMPDEST PUSH1 0x40 MLOAD PUSH2 0x377 SWAP2 SWAP1 PUSH2 0xC92 JUMP JUMPDEST PUSH1 0x40 MLOAD DUP1 SWAP2 SUB SWAP1 RETURN JUMPDEST PUSH2 0x39A PUSH1 0x4 DUP1 CALLDATASIZE SUB DUP2 ADD SWAP1 PUSH2 0x395 SWAP2 SWAP1 PUSH2 0xCAB JUMP JUMPDEST PUSH2 0x9EC JUMP JUMPDEST PUSH1 0x40 MLOAD PUSH2 0x3A7 SWAP2 SWAP1 PUSH2 0xDC1 JUMP JUMPDEST PUSH1 0x40 MLOAD DUP1 SWAP2 SUB SWAP1 RETURN JUMPDEST PUSH2 0x3CA PUSH1 0x4 DUP1 CALLDATASIZE SUB DUP2 ADD SWAP1 PUSH2 0x3C5 SWAP2 SWAP1 PUSH2 0xCAB JUMP JUMPDEST PUSH2 0xA79 JUMP JUMPDEST PUSH1 0x40 MLOAD PUSH2 0x3D7 SWAP2 SWAP1 PUSH2 0xC92 JUMP JUMPDEST PUSH1 0x40 MLOAD DUP1 SWAP2 SUB SWAP1 RETURN JUMPDEST PUSH2 0x3E8 PUSH2 0xAF7 JUMP JUMPDEST PUSH1 0x40 MLOAD PUSH2 0x3F5 SWAP2 SWAP1 PUSH2 0xC92 JUMP JUMPDEST PUSH1 0x40 MLOAD DUP1 SWAP2 SUB SWAP1 RETURN JUMPDEST PUSH2 0x406 PUSH2 0xAFC JUMP JUMPDEST PUSH1 0x40 MLOAD PUSH2 0x413 SWAP2 SWAP1 PUSH2 0xC92 JUMP JUMPDEST PUSH1 0x40 MLOAD DUP1 SWAP2 SUB SWAP1 RETURN JUMPDEST PUSH2 0x436 PUSH1 0x4 DUP1 CALLDATASIZE SUB DUP2 ADD SWAP1 PUSH2 0x431 SWAP2 SWAP1 PUSH2 0xCAB JUMP JUMPDEST PUSH2 0xB1D JUMP JUMPDEST PUSH1 0x40 MLOAD PUSH2 0x443 SWAP2 SWAP1 PUSH2 0xE97 JUMP JUMPDEST PUSH1 0x40 MLOAD DUP1 SWAP2 SUB SWAP1 RETURN JUMPDEST PUSH2 0x454 PUSH2 0xB2E JUMP JUMPDEST PUSH1 0x40 MLOAD PUSH2 0x461 SWAP2 SWAP1 PUSH2 0xC92 JUMP JUMPDEST PUSH1 0x40 MLOAD DUP1 SWAP2 SUB SWAP1 RETURN JUMPDEST PUSH2 0x472 PUSH2 0xB46 JUMP JUMPDEST PUSH1 0x40 MLOAD PUSH2 0x47F SWAP2 SWAP1 PUSH2 0xC92 JUMP JUMPDEST PUSH1 0x40 MLOAD DUP1 SWAP2 SUB SWAP1 RETURN JUMPDEST PUSH2 0x4A2 PUSH1 0x4 DUP1 CALLDATASIZE SUB DUP2 ADD SWAP1 PUSH2 0x49D SWAP2 SWAP1 PUSH2 0xEB0 JUMP JUMPDEST PUSH2 0xB52 JUMP JUMPDEST STOP JUMPDEST PUSH20 0x0 PUSH4 0xE68FDEE1 DUP4 DUP4 PUSH1 0x40 MLOAD DUP4 PUSH4 0xFFFFFFFF AND PUSH1 0xE0 SHL DUP2 MSTORE PUSH1 0x4 ADD PUSH2 0x4DD SWAP3 SWAP2 SWAP1 PUSH2 0xEFD JUMP JUMPDEST PUSH0 PUSH1 0x40 MLOAD DUP1 DUP4 SUB DUP2 DUP7 DUP1 EXTCODESIZE ISZERO DUP1 ISZERO PUSH2 0x4F3 JUMPI PUSH0 DUP1 REVERT JUMPDEST POP GAS DELEGATECALL ISZERO DUP1 ISZERO PUSH2 0x505 JUMPI RETURNDATASIZE PUSH0 DUP1 RETURNDATACOPY RETURNDATASIZE PUSH0 REVERT JUMPDEST POP POP POP POP POP POP JUMP JUMPDEST PUSH1 0xE8 DUP2 JUMP JUMPDEST PUSH0 PUSH32 0xFFFFFFFFFFFFFFFFFFFFFFFFFFFFFFFFFFFFFFFFFFFFFFFFFFFFFFFFFFFFFFFF SWAP1 POP SWAP1 JUMP JUMPDEST PUSH1 0xA0 DUP2 JUMP JUMPDEST PUSH0 DUP2 PUSH20 0x0 PUSH4 0x98995F77 PUSH1 0x40 MLOAD DUP2 PUSH4 0xFFFFFFFF AND PUSH1 0xE0 SHL DUP2 MSTORE PUSH1 0x4 ADD PUSH1 0x20 PUSH1 0x40 MLOAD DUP1 DUP4 SUB DUP2 DUP7 GAS DELEGATECALL ISZERO DUP1 ISZERO PUSH2 0x587 JUMPI RETURNDATASIZE PUSH0 DUP1 RETURNDATACOPY RETURNDATASIZE PUSH0 REVERT JUMPDEST POP POP POP POP PUSH1 0x40 MLOAD RETURNDATASIZE PUSH1 0x1F NOT PUSH1 0x1F DUP3 ADD AND DUP3 ADD DUP1 PUSH1 0x40 MSTORE POP DUP2 ADD SWAP1 PUSH2 0x5AB SWAP2 SWAP1 PUSH2 0xF38 JUMP JUMPDEST GT PUSH2 0x7CB JUMPI PUSH20 0x0 PUSH4 0x47F69EBA DUP4 PUSH1 0x40 MLOAD DUP3 PUSH4 0xFFFFFFFF AND PUSH1 0xE0 SHL DUP2 MSTORE PUSH1 0x4 ADD PUSH2 0x5E7 SWAP2 SWAP1 PUSH2 0xF63 JUMP JUMPDEST PUSH1 0x20 PUSH1 0x40 MLOAD DUP1 DUP4 SUB DUP2 DUP7 GAS DELEGATECALL ISZERO DUP1 ISZERO PUSH2 0x602 JUMPI RETURNDATASIZE PUSH0 DUP1 RETURNDATACOPY RETURNDATASIZE PUSH0 REVERT JUMPDEST POP POP POP POP PUSH1 0x40 MLOAD RETURNDATASIZE PUSH1 0x1F NOT PUSH1 0x1F DUP3 ADD AND DUP3 ADD DUP1 PUSH1 0x40 MSTORE POP DUP2 ADD SWAP1 PUSH2 0x626 SWAP2 SWAP1 PUSH2 0xF38 JUMP JUMPDEST SWAP1 POP PUSH2 0x630 PUSH2 0x512 JUMP JUMPDEST DUP3 GT ISZERO PUSH2 0x655 JUMPI PUSH2 0x640 DUP2 PUSH2 0x8B6 JUMP JUMPDEST PUSH2 0x7DC JUMPI PUSH2 0x654 PUSH4 0xDF2D9B42 PUSH1 0xE0 SHL PUSH2 0xBBB JUMP JUMPDEST JUMPDEST PUSH0 DUP2 SUB PUSH2 0x7A3 JUMPI PUSH20 0x0 PUSH4 0x9451C99A PUSH1 0x40 MLOAD DUP2 PUSH4 0xFFFFFFFF AND PUSH1 0xE0 SHL DUP2 MSTORE PUSH1 0x4 ADD PUSH1 0x20 PUSH1 0x40 MLOAD DUP1 DUP4 SUB DUP2 DUP7 GAS DELEGATECALL ISZERO DUP1 ISZERO PUSH2 0x6A3 JUMPI RETURNDATASIZE PUSH0 DUP1 RETURNDATACOPY RETURNDATASIZE PUSH0 REVERT JUMPDEST POP POP POP POP PUSH1 0x40 MLOAD RETURNDATASIZE PUSH1 0x1F NOT PUSH1 0x1F DUP3 ADD AND DUP3 ADD DUP1 PUSH1 0x40 MSTORE POP DUP2 ADD SWAP1 PUSH2 0x6C7 SWAP2 SWAP1 PUSH2 0xF38 JUMP JUMPDEST DUP3 LT PUSH2 0x6DE JUMPI PUSH2 0x6DD PUSH4 0xDF2D9B42 PUSH1 0xE0 SHL PUSH2 0xBBB JUMP JUMPDEST JUMPDEST JUMPDEST PUSH20 0x0 PUSH4 0x47F69EBA DUP4 PUSH1 0x1 SWAP1 SUB SWAP4 POP DUP4 PUSH1 0x40 MLOAD DUP3 PUSH4 0xFFFFFFFF AND PUSH1 0xE0 SHL DUP2 MSTORE PUSH1 0x4 ADD PUSH2 0x71D SWAP2 SWAP1 PUSH2 0xF63 JUMP JUMPDEST PUSH1 0x20 PUSH1 0x40 MLOAD DUP1 DUP4 SUB DUP2 DUP7 GAS DELEGATECALL ISZERO DUP1 ISZERO PUSH2 0x738 JUMPI RETURNDATASIZE PUSH0 DUP1 RETURNDATACOPY RETURNDATASIZE PUSH0 REVERT JUMPDEST POP POP POP POP PUSH1 0x40 MLOAD RETURNDATASIZE PUSH1 0x1F NOT PUSH1 0x1F DUP3 ADD AND DUP3 ADD DUP1 PUSH1 0x40 MSTORE POP DUP2 ADD SWAP1 PUSH2 0x75C SWAP2 SWAP1 PUSH2 0xF38 JUMP JUMPDEST SWAP1 POP PUSH0 DUP2 SUB ISZERO PUSH2 0x79E JUMPI PUSH0 PUSH29 0x100000000000000000000000000000000000000000000000000000000 DUP3 AND SUB ISZERO PUSH2 0x7DC JUMPI PUSH2 0x79D PUSH4 0xDF2D9B42 PUSH1 0xE0 SHL PUSH2 0xBBB JUMP JUMPDEST JUMPDEST PUSH2 0x6DF JUMP JUMPDEST PUSH0 PUSH29 0x100000000000000000000000000000000000000000000000000000000 DUP3 AND SUB ISZERO PUSH2 0x7DC JUMPI JUMPDEST PUSH2 0x7DB PUSH4 0xDF2D9B42 PUSH1 0xE0 SHL PUSH2 0xBBB JUMP JUMPDEST JUMPDEST SWAP2 SWAP1 POP JUMP JUMPDEST PUSH2 0x7E9 PUSH2 0xBC3 JUMP JUMPDEST DUP2 DUP2 PUSH0 ADD SWAP1 PUSH20 0xFFFFFFFFFFFFFFFFFFFFFFFFFFFFFFFFFFFFFFFF AND SWAP1 DUP2 PUSH20 0xFFFFFFFFFFFFFFFFFFFFFFFFFFFFFFFFFFFFFFFF AND DUP2 MSTORE POP POP PUSH1 0xA0 DUP3 SWAP1 SHR DUP2 PUSH1 0x20 ADD SWAP1 PUSH8 0xFFFFFFFFFFFFFFFF AND SWAP1 DUP2 PUSH8 0xFFFFFFFFFFFFFFFF AND DUP2 MSTORE POP POP PUSH0 PUSH29 0x100000000000000000000000000000000000000000000000000000000 DUP4 AND EQ ISZERO DUP2 PUSH1 0x40 ADD SWAP1 ISZERO ISZERO SWAP1 DUP2 ISZERO ISZERO DUP2 MSTORE POP POP PUSH1 0xE8 DUP3 SWAP1 SHR DUP2 PUSH1 0x60 ADD SWAP1 PUSH3 0xFFFFFF AND SWAP1 DUP2 PUSH3 0xFFFFFF AND DUP2 MSTORE POP POP SWAP2 SWAP1 POP JUMP JUMPDEST PUSH29 0x200000000000000000000000000000000000000000000000000000000 DUP2 JUMP JUMPDEST PUSH0 PUSH29 0x100000000000000000000000000000000000000000000000000000000 DUP3 AND PUSH20 0xFFFFFFFFFFFFFFFFFFFFFFFFFFFFFFFFFFFFFFFF DUP4 AND GT SWAP1 POP SWAP2 SWAP1 POP JUMP JUMPDEST PUSH29 0xFFFFFFFFFFFFFFFFFFFFFFFFFFFFFFFFFFFFFFFFFFFFFFFFFFFFFFFFFF DUP2 JUMP JUMPDEST PUSH0 PUSH20 0x0 PUSH4 0x21B0ED7D DUP4 PUSH1 0x40 MLOAD DUP3 PUSH4 0xFFFFFFFF AND PUSH1 0xE0 SHL DUP2 MSTORE PUSH1 0x4 ADD PUSH2 0x94F SWAP2 SWAP1 PUSH2 0xF8B JUMP JUMPDEST PUSH1 0x20 PUSH1 0x40 MLOAD DUP1 DUP4 SUB DUP2 DUP7 GAS DELEGATECALL ISZERO DUP1 ISZERO PUSH2 0x96A JUMPI RETURNDATASIZE PUSH0 DUP1 RETURNDATACOPY RETURNDATASIZE PUSH0 REVERT JUMPDEST POP POP POP POP PUSH1 0x40 MLOAD RETURNDATASIZE PUSH1 0x1F NOT PUSH1 0x1F DUP3 ADD AND DUP3 ADD DUP1 PUSH1 0x40 MSTORE POP DUP2 ADD SWAP1 PUSH2 0x98E SWAP2 SWAP1 PUSH2 0xF38 JUMP JUMPDEST SWAP1 POP SWAP2 SWAP1 POP JUMP JUMPDEST PUSH24 0xFFFFFFFFFFFFFFFFFFFFFFFFFFFFFFFFFFFFFFFFFFFFFFFF DUP2 JUMP JUMPDEST PUSH32 0xDDF252AD1BE2C89B69C2B068FC378DAA952BA7F163C4A11628F55A4DF523B3EF PUSH0 SHL DUP2 JUMP JUMPDEST PUSH1 0x40 DUP2 JUMP JUMPDEST PUSH1 0xC0 DUP2 JUMP JUMPDEST PUSH2 0x1388 DUP2 JUMP JUMPDEST PUSH1 0xE1 DUP2 JUMP JUMPDEST PUSH2 0x9F4 PUSH2 0xBC3 JUMP JUMPDEST PUSH2 0xA72 PUSH20 0x0 PUSH4 0x47F69EBA DUP5 PUSH1 0x40 MLOAD DUP3 PUSH4 0xFFFFFFFF AND PUSH1 0xE0 SHL DUP2 MSTORE PUSH1 0x4 ADD PUSH2 0xA2E SWAP2 SWAP1 PUSH2 0xF63 JUMP JUMPDEST PUSH1 0x20 PUSH1 0x40 MLOAD DUP1 DUP4 SUB DUP2 DUP7 GAS DELEGATECALL ISZERO DUP1 ISZERO PUSH2 0xA49 JUMPI RETURNDATASIZE PUSH0 DUP1 RETURNDATACOPY RETURNDATASIZE PUSH0 REVERT JUMPDEST POP POP POP POP PUSH1 0x40 MLOAD RETURNDATASIZE PUSH1 0x1F NOT PUSH1 0x1F DUP3 ADD AND DUP3 ADD DUP1 PUSH1 0x40 MSTORE POP DUP2 ADD SWAP1 PUSH2 0xA6D SWAP2 SWAP1 PUSH2 0xF38 JUMP JUMPDEST PUSH2 0x7E1 JUMP JUMPDEST SWAP1 POP SWAP2 SWAP1 POP JUMP JUMPDEST PUSH0 PUSH20 0x0 PUSH4 0x47F69EBA DUP4 PUSH1 0x40 MLOAD DUP3 PUSH4 0xFFFFFFFF AND PUSH1 0xE0 SHL DUP2 MSTORE PUSH1 0x4 ADD PUSH2 0xAB1 SWAP2 SWAP1 PUSH2 0xF63 JUMP JUMPDEST PUSH1 0x20 PUSH1 0x40 MLOAD DUP1 DUP4 SUB DUP2 DUP7 GAS DELEGATECALL ISZERO DUP1 ISZERO PUSH2 0xACC JUMPI RETURNDATASIZE PUSH0 DUP1 RETURNDATACOPY RETURNDATASIZE PUSH0 REVERT JUMPDEST POP POP POP POP PUSH1 0x40 MLOAD RETURNDATASIZE PUSH1 0x1F NOT PUSH1 0x1F DUP3 ADD AND DUP3 ADD DUP1 PUSH1 0x40 MSTORE POP DUP2 ADD SWAP1 PUSH2 0xAF0 SWAP2 SWAP1 PUSH2 0xF38 JUMP JUMPDEST SWAP1 POP SWAP2 SWAP1 POP JUMP JUMPDEST PUSH1 0x80 DUP2 JUMP JUMPDEST PUSH29 0x100000000000000000000000000000000000000000000000000000000 DUP2 JUMP JUMPDEST PUSH0 PUSH2 0xB27 DUP3 PUSH2 0x53E JUMP JUMPDEST SWAP1 POP SWAP2 SWAP1 POP JUMP JUMPDEST PUSH20 0xFFFFFFFFFFFFFFFFFFFFFFFFFFFFFFFFFFFFFFFF DUP2 JUMP JUMPDEST PUSH8 0xFFFFFFFFFFFFFFFF DUP2 JUMP JUMPDEST PUSH20 0x0 PUSH4 0xA3301173 DUP4 DUP4 PUSH1 0x40 MLOAD DUP4 PUSH4 0xFFFFFFFF AND PUSH1 0xE0 SHL DUP2 MSTORE PUSH1 0x4 ADD PUSH2 0xB8B SWAP3 SWAP2 SWAP1 PUSH2 0xFA4 JUMP JUMPDEST PUSH0 PUSH1 0x40 MLOAD DUP1 DUP4 SUB DUP2 DUP7 DUP1 EXTCODESIZE ISZERO DUP1 ISZERO PUSH2 0xBA1 JUMPI PUSH0 DUP1 REVERT JUMPDEST POP GAS DELEGATECALL ISZERO DUP1 ISZERO PUSH2 0xBB3 JUMPI RETURNDATASIZE PUSH0 DUP1 RETURNDATACOPY RETURNDATASIZE PUSH0 REVERT JUMPDEST POP POP POP POP POP POP JUMP JUMPDEST DUP1 PUSH0 MSTORE PUSH1 0x4 PUSH0 REVERT JUMPDEST PUSH1 0x40 MLOAD DUP1 PUSH1 0x80 ADD PUSH1 0x40 MSTORE DUP1 PUSH0 PUSH20 0xFFFFFFFFFFFFFFFFFFFFFFFFFFFFFFFFFFFFFFFF AND DUP2 MSTORE PUSH1 0x20 ADD PUSH0 PUSH8 0xFFFFFFFFFFFFFFFF AND DUP2 MSTORE PUSH1 0x20 ADD PUSH0 ISZERO ISZERO DUP2 MSTORE PUSH1 0x20 ADD PUSH0 PUSH3 0xFFFFFF AND DUP2 MSTORE POP SWAP1 JUMP JUMPDEST PUSH0 DUP1 REVERT JUMPDEST PUSH0 DUP2 SWAP1 POP SWAP2 SWAP1 POP JUMP JUMPDEST PUSH2 0xC24 DUP2 PUSH2 0xC12 JUMP JUMPDEST DUP2 EQ PUSH2 0xC2E JUMPI PUSH0 DUP1 REVERT JUMPDEST POP JUMP JUMPDEST PUSH0 DUP2 CALLDATALOAD SWAP1 POP PUSH2 0xC3F DUP2 PUSH2 0xC1B JUMP JUMPDEST SWAP3 SWAP2 POP POP JUMP JUMPDEST PUSH0 DUP1 PUSH1 0x40 DUP4 DUP6 SUB SLT ISZERO PUSH2 0xC5B JUMPI PUSH2 0xC5A PUSH2 0xC0E JUMP JUMPDEST JUMPDEST PUSH0 PUSH2 0xC68 DUP6 DUP3 DUP7 ADD PUSH2 0xC31 JUMP JUMPDEST SWAP3 POP POP PUSH1 0x20 PUSH2 0xC79 DUP6 DUP3 DUP7 ADD PUSH2 0xC31 JUMP JUMPDEST SWAP2 POP POP SWAP3 POP SWAP3 SWAP1 POP JUMP JUMPDEST PUSH2 0xC8C DUP2 PUSH2 0xC12 JUMP JUMPDEST DUP3 MSTORE POP POP JUMP JUMPDEST PUSH0 PUSH1 0x20 DUP3 ADD SWAP1 POP PUSH2 0xCA5 PUSH0 DUP4 ADD DUP5 PUSH2 0xC83 JUMP JUMPDEST SWAP3 SWAP2 POP POP JUMP JUMPDEST PUSH0 PUSH1 0x20 DUP3 DUP5 SUB SLT ISZERO PUSH2 0xCC0 JUMPI PUSH2 0xCBF PUSH2 0xC0E JUMP JUMPDEST JUMPDEST PUSH0 PUSH2 0xCCD DUP5 DUP3 DUP6 ADD PUSH2 0xC31 JUMP JUMPDEST SWAP2 POP POP SWAP3 SWAP2 POP POP JUMP JUMPDEST PUSH0 PUSH20 0xFFFFFFFFFFFFFFFFFFFFFFFFFFFFFFFFFFFFFFFF DUP3 AND SWAP1 POP SWAP2 SWAP1 POP JUMP JUMPDEST PUSH0 PUSH2 0xCFF DUP3 PUSH2 0xCD6 JUMP JUMPDEST SWAP1 POP SWAP2 SWAP1 POP JUMP JUMPDEST PUSH2 0xD0F DUP2 PUSH2 0xCF5 JUMP JUMPDEST DUP3 MSTORE POP POP JUMP JUMPDEST PUSH0 PUSH8 0xFFFFFFFFFFFFFFFF DUP3 AND SWAP1 POP SWAP2 SWAP1 POP JUMP JUMPDEST PUSH2 0xD31 DUP2 PUSH2 0xD15 JUMP JUMPDEST DUP3 MSTORE POP POP JUMP JUMPDEST PUSH0 DUP2 ISZERO ISZERO SWAP1 POP SWAP2 SWAP1 POP JUMP JUMPDEST PUSH2 0xD4B DUP2 PUSH2 0xD37 JUMP JUMPDEST DUP3 MSTORE POP POP JUMP JUMPDEST PUSH0 PUSH3 0xFFFFFF DUP3 AND SWAP1 POP SWAP2 SWAP1 POP JUMP JUMPDEST PUSH2 0xD68 DUP2 PUSH2 0xD51 JUMP JUMPDEST DUP3 MSTORE POP POP JUMP JUMPDEST PUSH1 0x80 DUP3 ADD PUSH0 DUP3 ADD MLOAD PUSH2 0xD82 PUSH0 DUP6 ADD DUP3 PUSH2 0xD06 JUMP JUMPDEST POP PUSH1 0x20 DUP3 ADD MLOAD PUSH2 0xD95 PUSH1 0x20 DUP6 ADD DUP3 PUSH2 0xD28 JUMP JUMPDEST POP PUSH1 0x40 DUP3 ADD MLOAD PUSH2 0xDA8 PUSH1 0x40 DUP6 ADD DUP3 PUSH2 0xD42 JUMP JUMPDEST POP PUSH1 0x60 DUP3 ADD MLOAD PUSH2 0xDBB PUSH1 0x60 DUP6 ADD DUP3 PUSH2 0xD5F JUMP JUMPDEST POP POP POP POP JUMP JUMPDEST PUSH0 PUSH1 0x80 DUP3 ADD SWAP1 POP PUSH2 0xDD4 PUSH0 DUP4 ADD DUP5 PUSH2 0xD6E JUMP JUMPDEST SWAP3 SWAP2 POP POP JUMP JUMPDEST PUSH2 0xDE3 DUP2 PUSH2 0xD37 JUMP JUMPDEST DUP3 MSTORE POP POP JUMP JUMPDEST PUSH0 PUSH1 0x20 DUP3 ADD SWAP1 POP PUSH2 0xDFC PUSH0 DUP4 ADD DUP5 PUSH2 0xDDA JUMP JUMPDEST SWAP3 SWAP2 POP POP JUMP JUMPDEST PUSH2 0xE0B DUP2 PUSH2 0xCF5 JUMP JUMPDEST DUP2 EQ PUSH2 0xE15 JUMPI PUSH0 DUP1 REVERT JUMPDEST POP JUMP JUMPDEST PUSH0 DUP2 CALLDATALOAD SWAP1 POP PUSH2 0xE26 DUP2 PUSH2 0xE02 JUMP JUMPDEST SWAP3 SWAP2 POP POP JUMP JUMPDEST PUSH0 PUSH1 0x20 DUP3 DUP5 SUB SLT ISZERO PUSH2 0xE41 JUMPI PUSH2 0xE40 PUSH2 0xC0E JUMP JUMPDEST JUMPDEST PUSH0 PUSH2 0xE4E DUP5 DUP3 DUP6 ADD PUSH2 0xE18 JUMP JUMPDEST SWAP2 POP POP SWAP3 SWAP2 POP POP JUMP JUMPDEST PUSH0 DUP2 SWAP1 POP SWAP2 SWAP1 POP JUMP JUMPDEST PUSH2 0xE69 DUP2 PUSH2 0xE57 JUMP JUMPDEST DUP3 MSTORE POP POP JUMP JUMPDEST PUSH0 PUSH1 0x20 DUP3 ADD SWAP1 POP PUSH2 0xE82 PUSH0 DUP4 ADD DUP5 PUSH2 0xE60 JUMP JUMPDEST SWAP3 SWAP2 POP POP JUMP JUMPDEST PUSH2 0xE91 DUP2 PUSH2 0xCF5 JUMP JUMPDEST DUP3 MSTORE POP POP JUMP JUMPDEST PUSH0 PUSH1 0x20 DUP3 ADD SWAP1 POP PUSH2 0xEAA PUSH0 DUP4 ADD DUP5 PUSH2 0xE88 JUMP JUMPDEST SWAP3 SWAP2 POP POP JUMP JUMPDEST PUSH0 DUP1 PUSH1 0x40 DUP4 DUP6 SUB SLT ISZERO PUSH2 0xEC6 JUMPI PUSH2 0xEC5 PUSH2 0xC0E JUMP JUMPDEST JUMPDEST PUSH0 PUSH2 0xED3 DUP6 DUP3 DUP7 ADD PUSH2 0xE18 JUMP JUMPDEST SWAP3 POP POP PUSH1 0x20 PUSH2 0xEE4 DUP6 DUP3 DUP7 ADD PUSH2 0xC31 JUMP JUMPDEST SWAP2 POP POP SWAP3 POP SWAP3 SWAP1 POP JUMP JUMPDEST PUSH2 0xEF7 DUP2 PUSH2 0xC12 JUMP JUMPDEST DUP3 MSTORE POP POP JUMP JUMPDEST PUSH0 PUSH1 0x40 DUP3 ADD SWAP1 POP PUSH2 0xF10 PUSH0 DUP4 ADD DUP6 PUSH2 0xEEE JUMP JUMPDEST PUSH2 0xF1D PUSH1 0x20 DUP4 ADD DUP5 PUSH2 0xEEE JUMP JUMPDEST SWAP4 SWAP3 POP POP POP JUMP JUMPDEST PUSH0 DUP2 MLOAD SWAP1 POP PUSH2 0xF32 DUP2 PUSH2 0xC1B JUMP JUMPDEST SWAP3 SWAP2 POP POP JUMP JUMPDEST PUSH0 PUSH1 0x20 DUP3 DUP5 SUB SLT ISZERO PUSH2 0xF4D JUMPI PUSH2 0xF4C PUSH2 0xC0E JUMP JUMPDEST JUMPDEST PUSH0 PUSH2 0xF5A DUP5 DUP3 DUP6 ADD PUSH2 0xF24 JUMP JUMPDEST SWAP2 POP POP SWAP3 SWAP2 POP POP JUMP JUMPDEST PUSH0 PUSH1 0x20 DUP3 ADD SWAP1 POP PUSH2 0xF76 PUSH0 DUP4 ADD DUP5 PUSH2 0xEEE JUMP JUMPDEST SWAP3 SWAP2 POP POP JUMP JUMPDEST PUSH2 0xF85 DUP2 PUSH2 0xCF5 JUMP JUMPDEST DUP3 MSTORE POP POP JUMP JUMPDEST PUSH0 PUSH1 0x20 DUP3 ADD SWAP1 POP PUSH2 0xF9E PUSH0 DUP4 ADD DUP5 PUSH2 0xF7C JUMP JUMPDEST SWAP3 SWAP2 POP POP JUMP JUMPDEST PUSH0 PUSH1 0x40 DUP3 ADD SWAP1 POP PUSH2 0xFB7 PUSH0 DUP4 ADD DUP6 PUSH2 0xF7C JUMP JUMPDEST PUSH2 0xFC4 PUSH1 0x20 DUP4 ADD DUP5 PUSH2 0xEEE JUMP JUMPDEST SWAP4 SWAP3 POP POP POP JUMP INVALID LOG2 PUSH5 0x6970667358 0x22 SLT KECCAK256 0xCE MSTORE8 SELFBALANCE 0xAD MSTORE8 STATICCALL 0xB6 BALANCE 0xC8 CALLDATASIZE 0xBB 0xD1 DUP11 DUP8 0xBC SLT 0xD2 ISZERO PUSH10 0x2160393143A638CA8852 0xDD 0xC5 0xE7 PUSH5 0x736F6C6343 STOP ADDMOD OR STOP CALLER "
		},
		"gasEstimates": {
			"creation": {
				"codeDepositCost": "819400",
				"executionCost": "855",
				"totalCost": "820255"
			},
			"external": {
				"_BITMASK_ADDRESS()": "413",
				"_BITMASK_ADDRESS_DATA_ENTRY()": "435",
				"_BITMASK_AUX_COMPLEMENT()": "436",
				"_BITMASK_BURNED()": "369",
				"_BITMASK_EXTRA_DATA_COMPLEMENT()": "392",
				"_BITMASK_NEXT_INITIALIZED()": "348",
				"_BITPOS_AUX()": "370",
				"_BITPOS_EXTRA_DATA()": "371",
				"_BITPOS_NEXT_INITIALIZED()": "414",
				"_BITPOS_NUMBER_BURNED()": "347",
				"_BITPOS_NUMBER_MINTED()": "348",
				"_BITPOS_START_TIMESTAMP()": "415",
				"_MAX_MINT_ERC2309_QUANTITY_LIMIT()": "392",
				"_TRANSFER_EVENT_SIGNATURE()": "463",
				"_ownershipAt(uint256)": "infinite",
				"_packedOwnershipExists(uint256)": "662",
				"_packedOwnershipOf(uint256)": "infinite",
				"_sequentialUpTo()": "400",
				"_unpackedOwnership(uint256)": "1512",
				"ownerOf2(uint256)": "infinite",
				"packedAddressData(address)": "infinite",
				"packedAddressData(address,uint256)": "infinite",
				"packedOwnerships(uint256)": "infinite",
				"packedOwnerships(uint256,uint256)": "infinite"
			},
			"internal": {
				"_revert(bytes4)": "17"
			}
		},
		"methodIdentifiers": {
			"_BITMASK_ADDRESS()": "f3ef17ac",
			"_BITMASK_ADDRESS_DATA_ENTRY()": "f41523ae",
			"_BITMASK_AUX_COMPLEMENT()": "89566257",
			"_BITMASK_BURNED()": "d9d21c63",
			"_BITMASK_EXTRA_DATA_COMPLEMENT()": "76dd3c44",
			"_BITMASK_NEXT_INITIALIZED()": "625553e2",
			"_BITPOS_AUX()": "9cea3d20",
			"_BITPOS_EXTRA_DATA()": "1086568e",
			"_BITPOS_NEXT_INITIALIZED()": "c70059bf",
			"_BITPOS_NUMBER_BURNED()": "d611367b",
			"_BITPOS_NUMBER_MINTED()": "9862e50f",
			"_BITPOS_START_TIMESTAMP()": "36a141c9",
			"_MAX_MINT_ERC2309_QUANTITY_LIMIT()": "9f07fba1",
			"_TRANSFER_EVENT_SIGNATURE()": "8bdb7e0f",
			"_ownershipAt(uint256)": "cbaf28ce",
			"_packedOwnershipExists(uint256)": "753f8406",
			"_packedOwnershipOf(uint256)": "444996c1",
			"_sequentialUpTo()": "2a2745b6",
			"_unpackedOwnership(uint256)": "4fe3c13e",
			"ownerOf2(uint256)": "dc3bd0fd",
			"packedAddressData(address)": "84ed1377",
			"packedAddressData(address,uint256)": "fe0bc95a",
			"packedOwnerships(uint256)": "d0ddbbfa",
			"packedOwnerships(uint256,uint256)": "068e4d51"
		}
	},
	"abi": [
		{
			"inputs": [],
			"name": "ApprovalCallerNotOwnerNorApproved",
			"type": "error"
		},
		{
			"inputs": [],
			"name": "ApprovalQueryForNonexistentToken",
			"type": "error"
		},
		{
			"inputs": [],
			"name": "BalanceQueryForZeroAddress",
			"type": "error"
		},
		{
			"inputs": [],
			"name": "MintERC2309QuantityExceedsLimit",
			"type": "error"
		},
		{
			"inputs": [],
			"name": "MintToZeroAddress",
			"type": "error"
		},
		{
			"inputs": [],
			"name": "MintZeroQuantity",
			"type": "error"
		},
		{
			"inputs": [],
			"name": "NotCompatibleWithSpotMints",
			"type": "error"
		},
		{
			"inputs": [],
			"name": "OwnerQueryForNonexistentToken",
			"type": "error"
		},
		{
			"inputs": [],
			"name": "OwnershipNotInitializedForExtraData",
			"type": "error"
		},
		{
			"inputs": [],
			"name": "SequentialMintExceedsLimit",
			"type": "error"
		},
		{
			"inputs": [],
			"name": "SequentialUpToTooSmall",
			"type": "error"
		},
		{
			"inputs": [],
			"name": "SpotMintTokenIdTooSmall",
			"type": "error"
		},
		{
			"inputs": [],
			"name": "TokenAlreadyExists",
			"type": "error"
		},
		{
			"inputs": [],
			"name": "TransferCallerNotOwnerNorApproved",
			"type": "error"
		},
		{
			"inputs": [],
			"name": "TransferFromIncorrectOwner",
			"type": "error"
		},
		{
			"inputs": [],
			"name": "TransferToNonERC721ReceiverImplementer",
			"type": "error"
		},
		{
			"inputs": [],
			"name": "TransferToZeroAddress",
			"type": "error"
		},
		{
			"inputs": [],
			"name": "URIQueryForNonexistentToken",
			"type": "error"
		},
		{
			"inputs": [],
			"name": "_BITMASK_ADDRESS",
			"outputs": [
				{
					"internalType": "uint256",
					"name": "",
					"type": "uint256"
				}
			],
			"stateMutability": "view",
			"type": "function"
		},
		{
			"inputs": [],
			"name": "_BITMASK_ADDRESS_DATA_ENTRY",
			"outputs": [
				{
					"internalType": "uint256",
					"name": "",
					"type": "uint256"
				}
			],
			"stateMutability": "view",
			"type": "function"
		},
		{
			"inputs": [],
			"name": "_BITMASK_AUX_COMPLEMENT",
			"outputs": [
				{
					"internalType": "uint256",
					"name": "",
					"type": "uint256"
				}
			],
			"stateMutability": "view",
			"type": "function"
		},
		{
			"inputs": [],
			"name": "_BITMASK_BURNED",
			"outputs": [
				{
					"internalType": "uint256",
					"name": "",
					"type": "uint256"
				}
			],
			"stateMutability": "view",
			"type": "function"
		},
		{
			"inputs": [],
			"name": "_BITMASK_EXTRA_DATA_COMPLEMENT",
			"outputs": [
				{
					"internalType": "uint256",
					"name": "",
					"type": "uint256"
				}
			],
			"stateMutability": "view",
			"type": "function"
		},
		{
			"inputs": [],
			"name": "_BITMASK_NEXT_INITIALIZED",
			"outputs": [
				{
					"internalType": "uint256",
					"name": "",
					"type": "uint256"
				}
			],
			"stateMutability": "view",
			"type": "function"
		},
		{
			"inputs": [],
			"name": "_BITPOS_AUX",
			"outputs": [
				{
					"internalType": "uint256",
					"name": "",
					"type": "uint256"
				}
			],
			"stateMutability": "view",
			"type": "function"
		},
		{
			"inputs": [],
			"name": "_BITPOS_EXTRA_DATA",
			"outputs": [
				{
					"internalType": "uint256",
					"name": "",
					"type": "uint256"
				}
			],
			"stateMutability": "view",
			"type": "function"
		},
		{
			"inputs": [],
			"name": "_BITPOS_NEXT_INITIALIZED",
			"outputs": [
				{
					"internalType": "uint256",
					"name": "",
					"type": "uint256"
				}
			],
			"stateMutability": "view",
			"type": "function"
		},
		{
			"inputs": [],
			"name": "_BITPOS_NUMBER_BURNED",
			"outputs": [
				{
					"internalType": "uint256",
					"name": "",
					"type": "uint256"
				}
			],
			"stateMutability": "view",
			"type": "function"
		},
		{
			"inputs": [],
			"name": "_BITPOS_NUMBER_MINTED",
			"outputs": [
				{
					"internalType": "uint256",
					"name": "",
					"type": "uint256"
				}
			],
			"stateMutability": "view",
			"type": "function"
		},
		{
			"inputs": [],
			"name": "_BITPOS_START_TIMESTAMP",
			"outputs": [
				{
					"internalType": "uint256",
					"name": "",
					"type": "uint256"
				}
			],
			"stateMutability": "view",
			"type": "function"
		},
		{
			"inputs": [],
			"name": "_MAX_MINT_ERC2309_QUANTITY_LIMIT",
			"outputs": [
				{
					"internalType": "uint256",
					"name": "",
					"type": "uint256"
				}
			],
			"stateMutability": "view",
			"type": "function"
		},
		{
			"inputs": [],
			"name": "_TRANSFER_EVENT_SIGNATURE",
			"outputs": [
				{
					"internalType": "bytes32",
					"name": "",
					"type": "bytes32"
				}
			],
			"stateMutability": "view",
			"type": "function"
		},
		{
			"inputs": [
				{
					"internalType": "uint256",
					"name": "index",
					"type": "uint256"
				}
			],
			"name": "_ownershipAt",
			"outputs": [
				{
					"components": [
						{
							"internalType": "address",
							"name": "addr",
							"type": "address"
						},
						{
							"internalType": "uint64",
							"name": "startTimestamp",
							"type": "uint64"
						},
						{
							"internalType": "bool",
							"name": "burned",
							"type": "bool"
						},
						{
							"internalType": "uint24",
							"name": "extraData",
							"type": "uint24"
						}
					],
					"internalType": "struct test.TokenOwnership",
					"name": "",
					"type": "tuple"
				}
			],
			"stateMutability": "view",
			"type": "function"
		},
		{
			"inputs": [
				{
					"internalType": "uint256",
					"name": "packed",
					"type": "uint256"
				}
			],
			"name": "_packedOwnershipExists",
			"outputs": [
				{
					"internalType": "bool",
					"name": "result",
					"type": "bool"
				}
			],
			"stateMutability": "pure",
			"type": "function"
		},
		{
			"inputs": [
				{
					"internalType": "uint256",
					"name": "tokenId",
					"type": "uint256"
				}
			],
			"name": "_packedOwnershipOf",
			"outputs": [
				{
					"internalType": "uint256",
					"name": "packed",
					"type": "uint256"
				}
			],
			"stateMutability": "view",
			"type": "function"
		},
		{
			"inputs": [],
			"name": "_sequentialUpTo",
			"outputs": [
				{
					"internalType": "uint256",
					"name": "",
					"type": "uint256"
				}
			],
			"stateMutability": "view",
			"type": "function"
		},
		{
			"inputs": [
				{
					"internalType": "uint256",
					"name": "packed",
					"type": "uint256"
				}
			],
			"name": "_unpackedOwnership",
			"outputs": [
				{
					"components": [
						{
							"internalType": "address",
							"name": "addr",
							"type": "address"
						},
						{
							"internalType": "uint64",
							"name": "startTimestamp",
							"type": "uint64"
						},
						{
							"internalType": "bool",
							"name": "burned",
							"type": "bool"
						},
						{
							"internalType": "uint24",
							"name": "extraData",
							"type": "uint24"
						}
					],
					"internalType": "struct test.TokenOwnership",
					"name": "ownership",
					"type": "tuple"
				}
			],
			"stateMutability": "pure",
			"type": "function"
		},
		{
			"inputs": [
				{
					"internalType": "uint256",
					"name": "tokenId",
					"type": "uint256"
				}
			],
			"name": "ownerOf2",
			"outputs": [
				{
					"internalType": "address",
					"name": "",
					"type": "address"
				}
			],
			"stateMutability": "view",
			"type": "function"
		},
		{
			"inputs": [
				{
					"internalType": "address",
					"name": "_owner",
					"type": "address"
				}
			],
			"name": "packedAddressData",
			"outputs": [
				{
					"internalType": "uint256",
					"name": "",
					"type": "uint256"
				}
			],
			"stateMutability": "view",
			"type": "function"
		},
		{
			"inputs": [
				{
					"internalType": "address",
					"name": "_owner",
					"type": "address"
				},
				{
					"internalType": "uint256",
					"name": "_tokenId",
					"type": "uint256"
				}
			],
			"name": "packedAddressData",
			"outputs": [],
			"stateMutability": "nonpayable",
			"type": "function"
		},
		{
			"inputs": [
				{
					"internalType": "uint256",
					"name": "_tokenId",
					"type": "uint256"
				},
				{
					"internalType": "uint256",
					"name": "_index",
					"type": "uint256"
				}
			],
			"name": "packedOwnerships",
			"outputs": [],
			"stateMutability": "nonpayable",
			"type": "function"
		},
		{
			"inputs": [
				{
					"internalType": "uint256",
					"name": "_tokenId",
					"type": "uint256"
				}
			],
			"name": "packedOwnerships",
			"outputs": [
				{
					"internalType": "uint256",
					"name": "",
					"type": "uint256"
				}
			],
			"stateMutability": "view",
			"type": "function"
		}
	]
}