{
	"contracts/modules/ownable/Ownable.sol": {
		"Ownable": {
			"abi": [
				{
					"inputs": [],
					"stateMutability": "nonpayable",
					"type": "constructor"
				},
				{
					"inputs": [
						{
							"internalType": "address",
							"name": "",
							"type": "address"
						}
					],
					"name": "AccessDenied",
					"type": "error"
				},
				{
					"inputs": [],
					"name": "EmptyAddress",
					"type": "error"
				},
				{
					"inputs": [
						{
							"internalType": "address",
							"name": "",
							"type": "address"
						}
					],
					"name": "TimedOut",
					"type": "error"
				},
				{
					"inputs": [
						{
							"internalType": "uint256",
							"name": "",
							"type": "uint256"
						}
					],
					"name": "ValueTooHigh",
					"type": "error"
				},
				{
					"anonymous": false,
					"inputs": [
						{
							"indexed": true,
							"internalType": "address",
							"name": "_to",
							"type": "address"
						},
						{
							"indexed": false,
							"internalType": "uint256",
							"name": "_timestamp",
							"type": "uint256"
						}
					],
					"name": "AcceptTransferNewOwner",
					"type": "event"
				},
				{
					"anonymous": false,
					"inputs": [
						{
							"indexed": true,
							"internalType": "address",
							"name": "oldOwner",
							"type": "address"
						},
						{
							"indexed": true,
							"internalType": "address",
							"name": "newOwner",
							"type": "address"
						},
						{
							"indexed": false,
							"internalType": "uint256",
							"name": "timestamp",
							"type": "uint256"
						}
					],
					"name": "InitialTransferOwner",
					"type": "event"
				},
				{
					"anonymous": false,
					"inputs": [
						{
							"indexed": true,
							"internalType": "address",
							"name": "_to",
							"type": "address"
						},
						{
							"indexed": false,
							"internalType": "uint256",
							"name": "_graceperiod",
							"type": "uint256"
						}
					],
					"name": "SetNewGracePeriod",
					"type": "event"
				},
				{
					"inputs": [],
					"name": "MODULE_NAME",
					"outputs": [
						{
							"internalType": "string",
							"name": "",
							"type": "string"
						}
					],
					"stateMutability": "view",
					"type": "function"
				},
				{
					"inputs": [],
					"name": "MODULE_VERSION",
					"outputs": [
						{
							"internalType": "uint256",
							"name": "",
							"type": "uint256"
						}
					],
					"stateMutability": "view",
					"type": "function"
				},
				{
					"inputs": [],
					"name": "getGracePeriod",
					"outputs": [
						{
							"internalType": "uint256",
							"name": "",
							"type": "uint256"
						}
					],
					"stateMutability": "view",
					"type": "function"
				},
				{
					"inputs": [],
					"name": "getNewOwner",
					"outputs": [
						{
							"internalType": "address",
							"name": "",
							"type": "address"
						}
					],
					"stateMutability": "view",
					"type": "function"
				},
				{
					"inputs": [],
					"name": "getOwner",
					"outputs": [
						{
							"internalType": "address",
							"name": "",
							"type": "address"
						}
					],
					"stateMutability": "view",
					"type": "function"
				},
				{
					"inputs": [],
					"name": "getTimestampExp",
					"outputs": [
						{
							"internalType": "uint256",
							"name": "",
							"type": "uint256"
						}
					],
					"stateMutability": "view",
					"type": "function"
				},
				{
					"inputs": [
						{
							"internalType": "uint256",
							"name": "_seconds",
							"type": "uint256"
						}
					],
					"name": "setGracePeriod",
					"outputs": [],
					"stateMutability": "nonpayable",
					"type": "function"
				},
				{
					"inputs": [],
					"name": "transferNewOwnerAccept",
					"outputs": [],
					"stateMutability": "nonpayable",
					"type": "function"
				},
				{
					"inputs": [
						{
							"internalType": "address",
							"name": "_to",
							"type": "address"
						}
					],
					"name": "transferOwner",
					"outputs": [],
					"stateMutability": "nonpayable",
					"type": "function"
				}
			],
			"devdoc": {
				"custom:version": "1.0.0",
				"details": "Модуль управления владельцем      Модуль возможно использовать как отдельно, так и в качестве миксина",
				"errors": {
					"AccessDenied(address)": [
						{
							"details": "Функцию использует на владелец"
						}
					],
					"EmptyAddress()": [
						{
							"details": "Пустой адрес"
						}
					],
					"TimedOut(address)": [
						{
							"details": "Время перехода прав новому владельцу завершено"
						}
					]
				},
				"events": {
					"AcceptTransferNewOwner(address,uint256)": {
						"details": "Подтверждение передачи прав новым владельцем"
					},
					"InitialTransferOwner(address,address,uint256)": {
						"details": "Инициация передачи прав владения"
					},
					"SetNewGracePeriod(address,uint256)": {
						"details": "Установлено новое значение грейс периода"
					}
				},
				"kind": "dev",
				"methods": {
					"getGracePeriod()": {
						"details": "Геттеры"
					},
					"setGracePeriod(uint256)": {
						"details": "установка грейс периода"
					},
					"transferNewOwnerAccept()": {
						"details": "подтверждение передачи прав новым владельцем"
					},
					"transferOwner(address)": {
						"details": "инициализация передачи прав"
					}
				},
				"stateVariables": {
					"MODULE_NAME": {
						"details": "Название модуля"
					},
					"MODULE_VERSION": {
						"details": "Версия модуля"
					}
				},
				"title": "UpdateProxy",
				"version": 1
			},
			"evm": {
				"assembly": "    /* \"contracts/modules/ownable/Ownable.sol\":678:4139  contract Ownable is Context, IOwnable, IModule{... */\n  mstore(0x40, 0xa0)\n    /* \"contracts/modules/ownable/Ownable.sol\":912:935  _encodeVersion(1, 0, 0) */\n  tag_1\n    /* \"contracts/modules/ownable/Ownable.sol\":927:928  1 */\n  0x01\n    /* \"contracts/modules/ownable/Ownable.sol\":930:931  0 */\n  0x00\n    /* \"contracts/modules/ownable/Ownable.sol\":933:934  0 */\n  dup1\n    /* \"contracts/modules/ownable/Ownable.sol\":912:926  _encodeVersion */\n  shl(0x20, tag_2)\n    /* \"contracts/modules/ownable/Ownable.sol\":912:935  _encodeVersion(1, 0, 0) */\n  0x20\n  shr\n  jump\t// in\ntag_1:\n    /* \"contracts/modules/ownable/Ownable.sol\":870:935  uint256 public immutable MODULE_VERSION = _encodeVersion(1, 0, 0) */\n  0x80\n  swap1\n  dup2\n  mstore\n  pop\n    /* \"contracts/modules/ownable/Ownable.sol\":1804:1935  constructor(){... */\n  callvalue\n  dup1\n  iszero\n  tag_3\n  jumpi\n  0x00\n  dup1\n  revert\ntag_3:\n  pop\n    /* \"contracts/modules/ownable/Ownable.sol\":1828:1842  OwnableStorage */\n  linkerSymbol(\"ea2bfd386ba84ea2bcf9bcd47bb5c25cd74e5e5c4739ef52f76db311be849ef7\")\n    /* \"contracts/modules/ownable/Ownable.sol\":1828:1851  OwnableStorage.setowner */\n  0x592bd705\n    /* \"contracts/modules/ownable/Ownable.sol\":1852:1864  _msgSender() */\n  tag_6\n    /* \"contracts/modules/ownable/Ownable.sol\":1852:1862  _msgSender */\n  shl(0x20, tag_7)\n    /* \"contracts/modules/ownable/Ownable.sol\":1852:1864  _msgSender() */\n  0x20\n  shr\n  jump\t// in\ntag_6:\n    /* \"contracts/modules/ownable/Ownable.sol\":1828:1865  OwnableStorage.setowner(_msgSender()) */\n  mload(0x40)\n  dup3\n  0xffffffff\n  and\n  0xe0\n  shl\n  dup2\n  mstore\n  0x04\n  add\n  tag_8\n  swap2\n  swap1\n  tag_9\n  jump\t// in\ntag_8:\n  0x00\n  mload(0x40)\n  dup1\n  dup4\n  sub\n  dup2\n  dup7\n  dup1\n  extcodesize\n  iszero\n  dup1\n  iszero\n  tag_10\n  jumpi\n  0x00\n  dup1\n  revert\ntag_10:\n  pop\n  gas\n  delegatecall\n  iszero\n  dup1\n  iszero\n  tag_12\n  jumpi\n  returndatasize\n  0x00\n  dup1\n  returndatacopy\n  revert(0x00, returndatasize)\ntag_12:\n  pop\n  pop\n  pop\n  pop\n    /* \"contracts/modules/ownable/Ownable.sol\":1876:1890  OwnableStorage */\n  linkerSymbol(\"ea2bfd386ba84ea2bcf9bcd47bb5c25cd74e5e5c4739ef52f76db311be849ef7\")\n    /* \"contracts/modules/ownable/Ownable.sol\":1876:1905  OwnableStorage.setGracePeriod */\n  0xf2f65960\n    /* \"contracts/modules/ownable/Ownable.sol\":1097:1103  1 days */\n  0x015180\n    /* \"contracts/modules/ownable/Ownable.sol\":1876:1927  OwnableStorage.setGracePeriod(INITIAL_GRACE_PERIOD) */\n  mload(0x40)\n  dup3\n  0xffffffff\n  and\n  0xe0\n  shl\n  dup2\n  mstore\n  0x04\n  add\n  tag_13\n  swap2\n  swap1\n  tag_14\n  jump\t// in\ntag_13:\n  0x00\n  mload(0x40)\n  dup1\n  dup4\n  sub\n  dup2\n  dup7\n  dup1\n  extcodesize\n  iszero\n  dup1\n  iszero\n  tag_15\n  jumpi\n  0x00\n  dup1\n  revert\ntag_15:\n  pop\n  gas\n  delegatecall\n  iszero\n  dup1\n  iszero\n  tag_17\n  jumpi\n  returndatasize\n  0x00\n  dup1\n  returndatacopy\n  revert(0x00, returndatasize)\ntag_17:\n  pop\n  pop\n  pop\n  pop\n    /* \"contracts/modules/ownable/Ownable.sol\":678:4139  contract Ownable is Context, IOwnable, IModule{... */\n  jump(tag_18)\n    /* \"/contracts/free/FreeVersion.sol\":488:679  function _encodeVersion(uint32 major, uint32 minor, uint32 revision) pure returns (uint256 encodedVersion){... */\ntag_2:\n    /* \"/contracts/free/FreeVersion.sol\":571:593  uint256 encodedVersion */\n  0x00\n    /* \"/contracts/free/FreeVersion.sol\":666:674  revision */\n  dup2\n    /* \"/contracts/free/FreeVersion.sol\":658:675  uint256(revision) */\n  0xffffffff\n  and\n    /* \"/contracts/free/FreeVersion.sol\":652:654  32 */\n  0x20\n    /* \"/contracts/free/FreeVersion.sol\":642:647  minor */\n  dup5\n    /* \"/contracts/free/FreeVersion.sol\":634:648  uint256(minor) */\n  0xffffffff\n  and\n    /* \"/contracts/free/FreeVersion.sol\":634:654  uint256(minor) << 32 */\n  swap1\n  shl\n    /* \"/contracts/free/FreeVersion.sol\":627:629  64 */\n  0x40\n    /* \"/contracts/free/FreeVersion.sol\":617:622  major */\n  dup7\n    /* \"/contracts/free/FreeVersion.sol\":609:623  uint256(major) */\n  0xffffffff\n  and\n    /* \"/contracts/free/FreeVersion.sol\":609:629  uint256(major) << 64 */\n  swap1\n  shl\n    /* \"/contracts/free/FreeVersion.sol\":608:655  (uint256(major) << 64) | (uint256(minor) << 32) */\n  or\n    /* \"/contracts/free/FreeVersion.sol\":608:675  (uint256(major) << 64) | (uint256(minor) << 32) | uint256(revision) */\n  or\n    /* \"/contracts/free/FreeVersion.sol\":601:675  return (uint256(major) << 64) | (uint256(minor) << 32) | uint256(revision) */\n  swap1\n  pop\n    /* \"/contracts/free/FreeVersion.sol\":488:679  function _encodeVersion(uint32 major, uint32 minor, uint32 revision) pure returns (uint256 encodedVersion){... */\n  swap4\n  swap3\n  pop\n  pop\n  pop\n  jump\t// out\n    /* \"contracts/lib/@openzeppelin/contracts/Context.sol\":656:752  function _msgSender() internal view virtual returns (address) {... */\ntag_7:\n    /* \"contracts/lib/@openzeppelin/contracts/Context.sol\":709:716  address */\n  0x00\n    /* \"contracts/lib/@openzeppelin/contracts/Context.sol\":735:745  msg.sender */\n  caller\n    /* \"contracts/lib/@openzeppelin/contracts/Context.sol\":728:745  return msg.sender */\n  swap1\n  pop\n    /* \"contracts/lib/@openzeppelin/contracts/Context.sol\":656:752  function _msgSender() internal view virtual returns (address) {... */\n  swap1\n  jump\t// out\n    /* \"#utility.yul\":7:133   */\ntag_21:\n    /* \"#utility.yul\":44:51   */\n  0x00\n    /* \"#utility.yul\":84:126   */\n  0xffffffffffffffffffffffffffffffffffffffff\n    /* \"#utility.yul\":77:82   */\n  dup3\n    /* \"#utility.yul\":73:127   */\n  and\n    /* \"#utility.yul\":62:127   */\n  swap1\n  pop\n    /* \"#utility.yul\":7:133   */\n  swap2\n  swap1\n  pop\n  jump\t// out\n    /* \"#utility.yul\":139:235   */\ntag_22:\n    /* \"#utility.yul\":176:183   */\n  0x00\n    /* \"#utility.yul\":205:229   */\n  tag_29\n    /* \"#utility.yul\":223:228   */\n  dup3\n    /* \"#utility.yul\":205:229   */\n  tag_21\n  jump\t// in\ntag_29:\n    /* \"#utility.yul\":194:229   */\n  swap1\n  pop\n    /* \"#utility.yul\":139:235   */\n  swap2\n  swap1\n  pop\n  jump\t// out\n    /* \"#utility.yul\":241:367   */\ntag_23:\n    /* \"#utility.yul\":336:360   */\n  tag_31\n    /* \"#utility.yul\":354:359   */\n  dup2\n    /* \"#utility.yul\":336:360   */\n  tag_22\n  jump\t// in\ntag_31:\n    /* \"#utility.yul\":331:334   */\n  dup3\n    /* \"#utility.yul\":324:361   */\n  mstore\n    /* \"#utility.yul\":241:367   */\n  pop\n  pop\n  jump\t// out\n    /* \"#utility.yul\":373:611   */\ntag_9:\n    /* \"#utility.yul\":474:478   */\n  0x00\n    /* \"#utility.yul\":512:514   */\n  0x20\n    /* \"#utility.yul\":501:510   */\n  dup3\n    /* \"#utility.yul\":497:515   */\n  add\n    /* \"#utility.yul\":489:515   */\n  swap1\n  pop\n    /* \"#utility.yul\":525:604   */\n  tag_33\n    /* \"#utility.yul\":601:602   */\n  0x00\n    /* \"#utility.yul\":590:599   */\n  dup4\n    /* \"#utility.yul\":586:603   */\n  add\n    /* \"#utility.yul\":577:583   */\n  dup5\n    /* \"#utility.yul\":525:604   */\n  tag_23\n  jump\t// in\ntag_33:\n    /* \"#utility.yul\":373:611   */\n  swap3\n  swap2\n  pop\n  pop\n  jump\t// out\n    /* \"#utility.yul\":617:694   */\ntag_24:\n    /* \"#utility.yul\":654:661   */\n  0x00\n    /* \"#utility.yul\":683:688   */\n  dup2\n    /* \"#utility.yul\":672:688   */\n  swap1\n  pop\n    /* \"#utility.yul\":617:694   */\n  swap2\n  swap1\n  pop\n  jump\t// out\n    /* \"#utility.yul\":700:826   */\ntag_25:\n    /* \"#utility.yul\":795:819   */\n  tag_36\n    /* \"#utility.yul\":813:818   */\n  dup2\n    /* \"#utility.yul\":795:819   */\n  tag_24\n  jump\t// in\ntag_36:\n    /* \"#utility.yul\":790:793   */\n  dup3\n    /* \"#utility.yul\":783:820   */\n  mstore\n    /* \"#utility.yul\":700:826   */\n  pop\n  pop\n  jump\t// out\n    /* \"#utility.yul\":832:1070   */\ntag_14:\n    /* \"#utility.yul\":933:937   */\n  0x00\n    /* \"#utility.yul\":971:973   */\n  0x20\n    /* \"#utility.yul\":960:969   */\n  dup3\n    /* \"#utility.yul\":956:974   */\n  add\n    /* \"#utility.yul\":948:974   */\n  swap1\n  pop\n    /* \"#utility.yul\":984:1063   */\n  tag_38\n    /* \"#utility.yul\":1060:1061   */\n  0x00\n    /* \"#utility.yul\":1049:1058   */\n  dup4\n    /* \"#utility.yul\":1045:1062   */\n  add\n    /* \"#utility.yul\":1036:1042   */\n  dup5\n    /* \"#utility.yul\":984:1063   */\n  tag_25\n  jump\t// in\ntag_38:\n    /* \"#utility.yul\":832:1070   */\n  swap3\n  swap2\n  pop\n  pop\n  jump\t// out\n    /* \"contracts/modules/ownable/Ownable.sol\":678:4139  contract Ownable is Context, IOwnable, IModule{... */\ntag_18:\n  mload(0x80)\n  codecopy(0x00, dataOffset(sub_0), dataSize(sub_0))\n  0x00\n  assignImmutable(\"0xe056e162080d5da78663154decfd308f0383b8d138d504e8a4cde93086ac2fef\")\n  return(0x00, dataSize(sub_0))\nstop\n\nsub_0: assembly {\n        /* \"contracts/modules/ownable/Ownable.sol\":678:4139  contract Ownable is Context, IOwnable, IModule{... */\n      mstore(0x40, 0x80)\n      callvalue\n      dup1\n      iszero\n      tag_1\n      jumpi\n      0x00\n      dup1\n      revert\n    tag_1:\n      pop\n      jumpi(tag_2, lt(calldatasize, 0x04))\n      shr(0xe0, calldataload(0x00))\n      dup1\n      0x81ed9808\n      gt\n      tag_12\n      jumpi\n      dup1\n      0x81ed9808\n      eq\n      tag_7\n      jumpi\n      dup1\n      0x893d20e8\n      eq\n      tag_8\n      jumpi\n      dup1\n      0x9b865b43\n      eq\n      tag_9\n      jumpi\n      dup1\n      0xdbd18388\n      eq\n      tag_10\n      jumpi\n      dup1\n      0xf2f65960\n      eq\n      tag_11\n      jumpi\n      jump(tag_2)\n    tag_12:\n      dup1\n      0x18e3e87f\n      eq\n      tag_3\n      jumpi\n      dup1\n      0x3e2fe149\n      eq\n      tag_4\n      jumpi\n      dup1\n      0x4fb2e45d\n      eq\n      tag_5\n      jumpi\n      dup1\n      0x61a9ab76\n      eq\n      tag_6\n      jumpi\n    tag_2:\n      0x00\n      dup1\n      revert\n        /* \"contracts/modules/ownable/Ownable.sol\":3003:3334  function transferNewOwnerAccept() external _onlyNewOwner _isValidTimestamp{... */\n    tag_3:\n      tag_13\n      tag_14\n      jump\t// in\n    tag_13:\n      stop\n        /* \"contracts/modules/ownable/Ownable.sol\":2019:2095  function getNewOwner()external view returns(address){return _getNewOwner();} */\n    tag_4:\n      tag_15\n      tag_16\n      jump\t// in\n    tag_15:\n      mload(0x40)\n      tag_17\n      swap2\n      swap1\n      tag_18\n      jump\t// in\n    tag_17:\n      mload(0x40)\n      dup1\n      swap2\n      sub\n      swap1\n      return\n        /* \"contracts/modules/ownable/Ownable.sol\":2661:2896  function transferOwner(address _to) external onlyOwner {... */\n    tag_5:\n      tag_19\n      0x04\n      dup1\n      calldatasize\n      sub\n      dup2\n      add\n      swap1\n      tag_20\n      swap2\n      swap1\n      tag_21\n      jump\t// in\n    tag_20:\n      tag_22\n      jump\t// in\n    tag_19:\n      stop\n        /* \"contracts/modules/ownable/Ownable.sol\":2186:2267  function getTimestampExp()external view returns(uint){return _getTimestampExp();} */\n    tag_6:\n      tag_23\n      tag_24\n      jump\t// in\n    tag_23:\n      mload(0x40)\n      tag_25\n      swap2\n      swap1\n      tag_26\n      jump\t// in\n    tag_25:\n      mload(0x40)\n      dup1\n      swap2\n      sub\n      swap1\n      return\n        /* \"contracts/modules/ownable/Ownable.sol\":870:935  uint256 public immutable MODULE_VERSION = _encodeVersion(1, 0, 0) */\n    tag_7:\n      tag_27\n      tag_28\n      jump\t// in\n    tag_27:\n      mload(0x40)\n      tag_29\n      swap2\n      swap1\n      tag_26\n      jump\t// in\n    tag_29:\n      mload(0x40)\n      dup1\n      swap2\n      sub\n      swap1\n      return\n        /* \"contracts/modules/ownable/Ownable.sol\":1943:2013  function getOwner()external view returns(address){return _getOwner();} */\n    tag_8:\n      tag_30\n      tag_31\n      jump\t// in\n    tag_30:\n      mload(0x40)\n      tag_32\n      swap2\n      swap1\n      tag_18\n      jump\t// in\n    tag_32:\n      mload(0x40)\n      dup1\n      swap2\n      sub\n      swap1\n      return\n        /* \"contracts/modules/ownable/Ownable.sol\":777:823  string public constant MODULE_NAME = \"Ownable\" */\n    tag_9:\n      tag_33\n      tag_34\n      jump\t// in\n    tag_33:\n      mload(0x40)\n      tag_35\n      swap2\n      swap1\n      tag_36\n      jump\t// in\n    tag_35:\n      mload(0x40)\n      dup1\n      swap2\n      sub\n      swap1\n      return\n        /* \"contracts/modules/ownable/Ownable.sol\":2101:2180  function getGracePeriod()external view returns(uint){return _getGracePeriod();} */\n    tag_10:\n      tag_37\n      tag_38\n      jump\t// in\n    tag_37:\n      mload(0x40)\n      tag_39\n      swap2\n      swap1\n      tag_26\n      jump\t// in\n    tag_39:\n      mload(0x40)\n      dup1\n      swap2\n      sub\n      swap1\n      return\n        /* \"contracts/modules/ownable/Ownable.sol\":2338:2586  function setGracePeriod(uint _seconds) external onlyOwner{... */\n    tag_11:\n      tag_40\n      0x04\n      dup1\n      calldatasize\n      sub\n      dup2\n      add\n      swap1\n      tag_41\n      swap2\n      swap1\n      tag_42\n      jump\t// in\n    tag_41:\n      tag_43\n      jump\t// in\n    tag_40:\n      stop\n        /* \"contracts/modules/ownable/Ownable.sol\":3003:3334  function transferNewOwnerAccept() external _onlyNewOwner _isValidTimestamp{... */\n    tag_14:\n        /* \"contracts/modules/ownable/Ownable.sol\":1533:1545  _msgSender() */\n      tag_45\n        /* \"contracts/modules/ownable/Ownable.sol\":1533:1543  _msgSender */\n      tag_46\n        /* \"contracts/modules/ownable/Ownable.sol\":1533:1545  _msgSender() */\n      jump\t// in\n    tag_45:\n        /* \"contracts/modules/ownable/Ownable.sol\":1515:1545  _getNewOwner() != _msgSender() */\n      0xffffffffffffffffffffffffffffffffffffffff\n      and\n        /* \"contracts/modules/ownable/Ownable.sol\":1515:1529  _getNewOwner() */\n      tag_47\n        /* \"contracts/modules/ownable/Ownable.sol\":1515:1527  _getNewOwner */\n      tag_48\n        /* \"contracts/modules/ownable/Ownable.sol\":1515:1529  _getNewOwner() */\n      jump\t// in\n    tag_47:\n        /* \"contracts/modules/ownable/Ownable.sol\":1515:1545  _getNewOwner() != _msgSender() */\n      0xffffffffffffffffffffffffffffffffffffffff\n      and\n      eq\n        /* \"contracts/modules/ownable/Ownable.sol\":1511:1561  if (_getNewOwner() != _msgSender())_accessDenied() */\n      tag_49\n      jumpi\n        /* \"contracts/modules/ownable/Ownable.sol\":1546:1561  _accessDenied() */\n      tag_50\n        /* \"contracts/modules/ownable/Ownable.sol\":1546:1559  _accessDenied */\n      tag_51\n        /* \"contracts/modules/ownable/Ownable.sol\":1546:1561  _accessDenied() */\n      jump\t// in\n    tag_50:\n        /* \"contracts/modules/ownable/Ownable.sol\":1511:1561  if (_getNewOwner() != _msgSender())_accessDenied() */\n    tag_49:\n        /* \"contracts/modules/ownable/Ownable.sol\":1728:1743  block.timestamp */\n      timestamp\n        /* \"contracts/modules/ownable/Ownable.sol\":1707:1725  _getTimestampExp() */\n      tag_53\n        /* \"contracts/modules/ownable/Ownable.sol\":1707:1723  _getTimestampExp */\n      tag_54\n        /* \"contracts/modules/ownable/Ownable.sol\":1707:1725  _getTimestampExp() */\n      jump\t// in\n    tag_53:\n        /* \"contracts/modules/ownable/Ownable.sol\":1707:1743  _getTimestampExp() < block.timestamp */\n      lt\n        /* \"contracts/modules/ownable/Ownable.sol\":1703:1774  if (_getTimestampExp() < block.timestamp) revert TimedOut(_msgSender()) */\n      iszero\n      tag_55\n      jumpi\n        /* \"contracts/modules/ownable/Ownable.sol\":1761:1773  _msgSender() */\n      tag_56\n        /* \"contracts/modules/ownable/Ownable.sol\":1761:1771  _msgSender */\n      tag_46\n        /* \"contracts/modules/ownable/Ownable.sol\":1761:1773  _msgSender() */\n      jump\t// in\n    tag_56:\n        /* \"contracts/modules/ownable/Ownable.sol\":1752:1774  TimedOut(_msgSender()) */\n      mload(0x40)\n      0xefabbdc600000000000000000000000000000000000000000000000000000000\n      dup2\n      mstore\n      0x04\n      add\n      tag_57\n      swap2\n      swap1\n      tag_18\n      jump\t// in\n    tag_57:\n      mload(0x40)\n      dup1\n      swap2\n      sub\n      swap1\n      revert\n        /* \"contracts/modules/ownable/Ownable.sol\":1703:1774  if (_getTimestampExp() < block.timestamp) revert TimedOut(_msgSender()) */\n    tag_55:\n        /* \"contracts/modules/ownable/Ownable.sol\":3088:3105  address _newOwner */\n      0x00\n        /* \"contracts/modules/ownable/Ownable.sol\":3108:3122  _getNewOwner() */\n      tag_59\n        /* \"contracts/modules/ownable/Ownable.sol\":3108:3120  _getNewOwner */\n      tag_48\n        /* \"contracts/modules/ownable/Ownable.sol\":3108:3122  _getNewOwner() */\n      jump\t// in\n    tag_59:\n        /* \"contracts/modules/ownable/Ownable.sol\":3088:3122  address _newOwner = _getNewOwner() */\n      swap1\n      pop\n        /* \"contracts/modules/ownable/Ownable.sol\":3133:3147  OwnableStorage */\n      linkerSymbol(\"ea2bfd386ba84ea2bcf9bcd47bb5c25cd74e5e5c4739ef52f76db311be849ef7\")\n        /* \"contracts/modules/ownable/Ownable.sol\":3133:3156  OwnableStorage.setowner */\n      0x592bd705\n        /* \"contracts/modules/ownable/Ownable.sol\":3157:3166  _newOwner */\n      dup3\n        /* \"contracts/modules/ownable/Ownable.sol\":3133:3167  OwnableStorage.setowner(_newOwner) */\n      mload(0x40)\n      dup3\n      0xffffffff\n      and\n      0xe0\n      shl\n      dup2\n      mstore\n      0x04\n      add\n      tag_60\n      swap2\n      swap1\n      tag_61\n      jump\t// in\n    tag_60:\n      0x00\n      mload(0x40)\n      dup1\n      dup4\n      sub\n      dup2\n      dup7\n      dup1\n      extcodesize\n      iszero\n      dup1\n      iszero\n      tag_62\n      jumpi\n      0x00\n      dup1\n      revert\n    tag_62:\n      pop\n      gas\n      delegatecall\n      iszero\n      dup1\n      iszero\n      tag_64\n      jumpi\n      returndatasize\n      0x00\n      dup1\n      returndatacopy\n      revert(0x00, returndatasize)\n    tag_64:\n      pop\n      pop\n      pop\n      pop\n        /* \"contracts/modules/ownable/Ownable.sol\":3178:3192  OwnableStorage */\n      linkerSymbol(\"ea2bfd386ba84ea2bcf9bcd47bb5c25cd74e5e5c4739ef52f76db311be849ef7\")\n        /* \"contracts/modules/ownable/Ownable.sol\":3178:3204  OwnableStorage.setnewOwner */\n      0x34b8160c\n        /* \"contracts/modules/ownable/Ownable.sol\":3213:3214  0 */\n      0x00\n        /* \"contracts/modules/ownable/Ownable.sol\":3178:3216  OwnableStorage.setnewOwner(address(0)) */\n      mload(0x40)\n      dup3\n      0xffffffff\n      and\n      0xe0\n      shl\n      dup2\n      mstore\n      0x04\n      add\n      tag_65\n      swap2\n      swap1\n      tag_61\n      jump\t// in\n    tag_65:\n      0x00\n      mload(0x40)\n      dup1\n      dup4\n      sub\n      dup2\n      dup7\n      dup1\n      extcodesize\n      iszero\n      dup1\n      iszero\n      tag_66\n      jumpi\n      0x00\n      dup1\n      revert\n    tag_66:\n      pop\n      gas\n      delegatecall\n      iszero\n      dup1\n      iszero\n      tag_68\n      jumpi\n      returndatasize\n      0x00\n      dup1\n      returndatacopy\n      revert(0x00, returndatasize)\n    tag_68:\n      pop\n      pop\n      pop\n      pop\n        /* \"contracts/modules/ownable/Ownable.sol\":3227:3241  OwnableStorage */\n      linkerSymbol(\"ea2bfd386ba84ea2bcf9bcd47bb5c25cd74e5e5c4739ef52f76db311be849ef7\")\n        /* \"contracts/modules/ownable/Ownable.sol\":3227:3257  OwnableStorage.setTimestampExp */\n      0xfdb0afee\n        /* \"contracts/modules/ownable/Ownable.sol\":3258:3259  0 */\n      0x00\n        /* \"contracts/modules/ownable/Ownable.sol\":3227:3260  OwnableStorage.setTimestampExp(0) */\n      mload(0x40)\n      dup3\n      0xffffffff\n      and\n      0xe0\n      shl\n      dup2\n      mstore\n      0x04\n      add\n      tag_69\n      swap2\n      swap1\n      tag_70\n      jump\t// in\n    tag_69:\n      0x00\n      mload(0x40)\n      dup1\n      dup4\n      sub\n      dup2\n      dup7\n      dup1\n      extcodesize\n      iszero\n      dup1\n      iszero\n      tag_71\n      jumpi\n      0x00\n      dup1\n      revert\n    tag_71:\n      pop\n      gas\n      delegatecall\n      iszero\n      dup1\n      iszero\n      tag_73\n      jumpi\n      returndatasize\n      0x00\n      dup1\n      returndatacopy\n      revert(0x00, returndatasize)\n    tag_73:\n      pop\n      pop\n      pop\n      pop\n        /* \"contracts/modules/ownable/Ownable.sol\":3299:3308  _newOwner */\n      dup1\n        /* \"contracts/modules/ownable/Ownable.sol\":3276:3326  AcceptTransferNewOwner(_newOwner, block.timestamp) */\n      0xffffffffffffffffffffffffffffffffffffffff\n      and\n      0xba63841a7533a3a83852e6bd791045210d9e961d32ec380162bcd5d1d6fe1212\n        /* \"contracts/modules/ownable/Ownable.sol\":3310:3325  block.timestamp */\n      timestamp\n        /* \"contracts/modules/ownable/Ownable.sol\":3276:3326  AcceptTransferNewOwner(_newOwner, block.timestamp) */\n      mload(0x40)\n      tag_74\n      swap2\n      swap1\n      tag_26\n      jump\t// in\n    tag_74:\n      mload(0x40)\n      dup1\n      swap2\n      sub\n      swap1\n      log2\n        /* \"contracts/modules/ownable/Ownable.sol\":3077:3334  {... */\n      pop\n        /* \"contracts/modules/ownable/Ownable.sol\":3003:3334  function transferNewOwnerAccept() external _onlyNewOwner _isValidTimestamp{... */\n      jump\t// out\n        /* \"contracts/modules/ownable/Ownable.sol\":2019:2095  function getNewOwner()external view returns(address){return _getNewOwner();} */\n    tag_16:\n        /* \"contracts/modules/ownable/Ownable.sol\":2063:2070  address */\n      0x00\n        /* \"contracts/modules/ownable/Ownable.sol\":2079:2093  _getNewOwner() */\n      tag_76\n        /* \"contracts/modules/ownable/Ownable.sol\":2079:2091  _getNewOwner */\n      tag_48\n        /* \"contracts/modules/ownable/Ownable.sol\":2079:2093  _getNewOwner() */\n      jump\t// in\n    tag_76:\n        /* \"contracts/modules/ownable/Ownable.sol\":2072:2093  return _getNewOwner() */\n      swap1\n      pop\n        /* \"contracts/modules/ownable/Ownable.sol\":2019:2095  function getNewOwner()external view returns(address){return _getNewOwner();} */\n      swap1\n      jump\t// out\n        /* \"contracts/modules/ownable/Ownable.sol\":2661:2896  function transferOwner(address _to) external onlyOwner {... */\n    tag_22:\n        /* \"contracts/modules/ownable/Ownable.sol\":1344:1356  _msgSender() */\n      tag_78\n        /* \"contracts/modules/ownable/Ownable.sol\":1344:1354  _msgSender */\n      tag_46\n        /* \"contracts/modules/ownable/Ownable.sol\":1344:1356  _msgSender() */\n      jump\t// in\n    tag_78:\n        /* \"contracts/modules/ownable/Ownable.sol\":1329:1356  _getOwner() != _msgSender() */\n      0xffffffffffffffffffffffffffffffffffffffff\n      and\n        /* \"contracts/modules/ownable/Ownable.sol\":1329:1340  _getOwner() */\n      tag_79\n        /* \"contracts/modules/ownable/Ownable.sol\":1329:1338  _getOwner */\n      tag_80\n        /* \"contracts/modules/ownable/Ownable.sol\":1329:1340  _getOwner() */\n      jump\t// in\n    tag_79:\n        /* \"contracts/modules/ownable/Ownable.sol\":1329:1356  _getOwner() != _msgSender() */\n      0xffffffffffffffffffffffffffffffffffffffff\n      and\n      eq\n        /* \"contracts/modules/ownable/Ownable.sol\":1325:1372  if (_getOwner() != _msgSender())_accessDenied() */\n      tag_81\n      jumpi\n        /* \"contracts/modules/ownable/Ownable.sol\":1357:1372  _accessDenied() */\n      tag_82\n        /* \"contracts/modules/ownable/Ownable.sol\":1357:1370  _accessDenied */\n      tag_51\n        /* \"contracts/modules/ownable/Ownable.sol\":1357:1372  _accessDenied() */\n      jump\t// in\n    tag_82:\n        /* \"contracts/modules/ownable/Ownable.sol\":1325:1372  if (_getOwner() != _msgSender())_accessDenied() */\n    tag_81:\n        /* \"contracts/modules/ownable/Ownable.sol\":2727:2745  _checkAddress(_to) */\n      tag_84\n        /* \"contracts/modules/ownable/Ownable.sol\":2741:2744  _to */\n      dup2\n        /* \"contracts/modules/ownable/Ownable.sol\":2727:2740  _checkAddress */\n      tag_85\n        /* \"contracts/modules/ownable/Ownable.sol\":2727:2745  _checkAddress(_to) */\n      jump\t// in\n    tag_84:\n        /* \"contracts/modules/ownable/Ownable.sol\":2756:2770  OwnableStorage */\n      linkerSymbol(\"ea2bfd386ba84ea2bcf9bcd47bb5c25cd74e5e5c4739ef52f76db311be849ef7\")\n        /* \"contracts/modules/ownable/Ownable.sol\":2756:2782  OwnableStorage.setnewOwner */\n      0x34b8160c\n        /* \"contracts/modules/ownable/Ownable.sol\":2783:2786  _to */\n      dup3\n        /* \"contracts/modules/ownable/Ownable.sol\":2756:2787  OwnableStorage.setnewOwner(_to) */\n      mload(0x40)\n      dup3\n      0xffffffff\n      and\n      0xe0\n      shl\n      dup2\n      mstore\n      0x04\n      add\n      tag_86\n      swap2\n      swap1\n      tag_61\n      jump\t// in\n    tag_86:\n      0x00\n      mload(0x40)\n      dup1\n      dup4\n      sub\n      dup2\n      dup7\n      dup1\n      extcodesize\n      iszero\n      dup1\n      iszero\n      tag_87\n      jumpi\n      0x00\n      dup1\n      revert\n    tag_87:\n      pop\n      gas\n      delegatecall\n      iszero\n      dup1\n      iszero\n      tag_89\n      jumpi\n      returndatasize\n      0x00\n      dup1\n      returndatacopy\n      revert(0x00, returndatasize)\n    tag_89:\n      pop\n      pop\n      pop\n      pop\n        /* \"contracts/modules/ownable/Ownable.sol\":2798:2816  _setTimestampExp() */\n      tag_90\n        /* \"contracts/modules/ownable/Ownable.sol\":2798:2814  _setTimestampExp */\n      tag_91\n        /* \"contracts/modules/ownable/Ownable.sol\":2798:2816  _setTimestampExp() */\n      jump\t// in\n    tag_90:\n        /* \"contracts/modules/ownable/Ownable.sol\":2867:2870  _to */\n      dup1\n        /* \"contracts/modules/ownable/Ownable.sol\":2832:2888  InitialTransferOwner(_msgSender(), _to, block.timestamp) */\n      0xffffffffffffffffffffffffffffffffffffffff\n      and\n        /* \"contracts/modules/ownable/Ownable.sol\":2853:2865  _msgSender() */\n      tag_92\n        /* \"contracts/modules/ownable/Ownable.sol\":2853:2863  _msgSender */\n      tag_46\n        /* \"contracts/modules/ownable/Ownable.sol\":2853:2865  _msgSender() */\n      jump\t// in\n    tag_92:\n        /* \"contracts/modules/ownable/Ownable.sol\":2832:2888  InitialTransferOwner(_msgSender(), _to, block.timestamp) */\n      0xffffffffffffffffffffffffffffffffffffffff\n      and\n      0x8dbb839c92a52a1b41b96c2376318a45b974066df935981e08419bd7a0ae1500\n        /* \"contracts/modules/ownable/Ownable.sol\":2872:2887  block.timestamp */\n      timestamp\n        /* \"contracts/modules/ownable/Ownable.sol\":2832:2888  InitialTransferOwner(_msgSender(), _to, block.timestamp) */\n      mload(0x40)\n      tag_93\n      swap2\n      swap1\n      tag_26\n      jump\t// in\n    tag_93:\n      mload(0x40)\n      dup1\n      swap2\n      sub\n      swap1\n      log3\n        /* \"contracts/modules/ownable/Ownable.sol\":2661:2896  function transferOwner(address _to) external onlyOwner {... */\n      pop\n      jump\t// out\n        /* \"contracts/modules/ownable/Ownable.sol\":2186:2267  function getTimestampExp()external view returns(uint){return _getTimestampExp();} */\n    tag_24:\n        /* \"contracts/modules/ownable/Ownable.sol\":2234:2238  uint */\n      0x00\n        /* \"contracts/modules/ownable/Ownable.sol\":2247:2265  _getTimestampExp() */\n      tag_95\n        /* \"contracts/modules/ownable/Ownable.sol\":2247:2263  _getTimestampExp */\n      tag_54\n        /* \"contracts/modules/ownable/Ownable.sol\":2247:2265  _getTimestampExp() */\n      jump\t// in\n    tag_95:\n        /* \"contracts/modules/ownable/Ownable.sol\":2240:2265  return _getTimestampExp() */\n      swap1\n      pop\n        /* \"contracts/modules/ownable/Ownable.sol\":2186:2267  function getTimestampExp()external view returns(uint){return _getTimestampExp();} */\n      swap1\n      jump\t// out\n        /* \"contracts/modules/ownable/Ownable.sol\":870:935  uint256 public immutable MODULE_VERSION = _encodeVersion(1, 0, 0) */\n    tag_28:\n      immutable(\"0xe056e162080d5da78663154decfd308f0383b8d138d504e8a4cde93086ac2fef\")\n      dup2\n      jump\t// out\n        /* \"contracts/modules/ownable/Ownable.sol\":1943:2013  function getOwner()external view returns(address){return _getOwner();} */\n    tag_31:\n        /* \"contracts/modules/ownable/Ownable.sol\":1984:1991  address */\n      0x00\n        /* \"contracts/modules/ownable/Ownable.sol\":2000:2011  _getOwner() */\n      tag_97\n        /* \"contracts/modules/ownable/Ownable.sol\":2000:2009  _getOwner */\n      tag_80\n        /* \"contracts/modules/ownable/Ownable.sol\":2000:2011  _getOwner() */\n      jump\t// in\n    tag_97:\n        /* \"contracts/modules/ownable/Ownable.sol\":1993:2011  return _getOwner() */\n      swap1\n      pop\n        /* \"contracts/modules/ownable/Ownable.sol\":1943:2013  function getOwner()external view returns(address){return _getOwner();} */\n      swap1\n      jump\t// out\n        /* \"contracts/modules/ownable/Ownable.sol\":777:823  string public constant MODULE_NAME = \"Ownable\" */\n    tag_34:\n      mload(0x40)\n      dup1\n      0x40\n      add\n      0x40\n      mstore\n      dup1\n      0x07\n      dup2\n      mstore\n      0x20\n      add\n      0x4f776e61626c6500000000000000000000000000000000000000000000000000\n      dup2\n      mstore\n      pop\n      dup2\n      jump\t// out\n        /* \"contracts/modules/ownable/Ownable.sol\":2101:2180  function getGracePeriod()external view returns(uint){return _getGracePeriod();} */\n    tag_38:\n        /* \"contracts/modules/ownable/Ownable.sol\":2148:2152  uint */\n      0x00\n        /* \"contracts/modules/ownable/Ownable.sol\":2161:2178  _getGracePeriod() */\n      tag_99\n        /* \"contracts/modules/ownable/Ownable.sol\":2161:2176  _getGracePeriod */\n      tag_100\n        /* \"contracts/modules/ownable/Ownable.sol\":2161:2178  _getGracePeriod() */\n      jump\t// in\n    tag_99:\n        /* \"contracts/modules/ownable/Ownable.sol\":2154:2178  return _getGracePeriod() */\n      swap1\n      pop\n        /* \"contracts/modules/ownable/Ownable.sol\":2101:2180  function getGracePeriod()external view returns(uint){return _getGracePeriod();} */\n      swap1\n      jump\t// out\n        /* \"contracts/modules/ownable/Ownable.sol\":2338:2586  function setGracePeriod(uint _seconds) external onlyOwner{... */\n    tag_43:\n        /* \"contracts/modules/ownable/Ownable.sol\":1344:1356  _msgSender() */\n      tag_102\n        /* \"contracts/modules/ownable/Ownable.sol\":1344:1354  _msgSender */\n      tag_46\n        /* \"contracts/modules/ownable/Ownable.sol\":1344:1356  _msgSender() */\n      jump\t// in\n    tag_102:\n        /* \"contracts/modules/ownable/Ownable.sol\":1329:1356  _getOwner() != _msgSender() */\n      0xffffffffffffffffffffffffffffffffffffffff\n      and\n        /* \"contracts/modules/ownable/Ownable.sol\":1329:1340  _getOwner() */\n      tag_103\n        /* \"contracts/modules/ownable/Ownable.sol\":1329:1338  _getOwner */\n      tag_80\n        /* \"contracts/modules/ownable/Ownable.sol\":1329:1340  _getOwner() */\n      jump\t// in\n    tag_103:\n        /* \"contracts/modules/ownable/Ownable.sol\":1329:1356  _getOwner() != _msgSender() */\n      0xffffffffffffffffffffffffffffffffffffffff\n      and\n      eq\n        /* \"contracts/modules/ownable/Ownable.sol\":1325:1372  if (_getOwner() != _msgSender())_accessDenied() */\n      tag_104\n      jumpi\n        /* \"contracts/modules/ownable/Ownable.sol\":1357:1372  _accessDenied() */\n      tag_105\n        /* \"contracts/modules/ownable/Ownable.sol\":1357:1370  _accessDenied */\n      tag_51\n        /* \"contracts/modules/ownable/Ownable.sol\":1357:1372  _accessDenied() */\n      jump\t// in\n    tag_105:\n        /* \"contracts/modules/ownable/Ownable.sol\":1325:1372  if (_getOwner() != _msgSender())_accessDenied() */\n    tag_104:\n        /* \"contracts/modules/ownable/Ownable.sol\":2420:2426  604800 */\n      0x093a80\n        /* \"contracts/modules/ownable/Ownable.sol\":2409:2417  _seconds */\n      dup2\n        /* \"contracts/modules/ownable/Ownable.sol\":2409:2426  _seconds > 604800 */\n      gt\n        /* \"contracts/modules/ownable/Ownable.sol\":2406:2457  if(_seconds > 604800) revert ValueTooHigh(_seconds) */\n      iszero\n      tag_107\n      jumpi\n        /* \"contracts/modules/ownable/Ownable.sol\":2448:2456  _seconds */\n      dup1\n        /* \"contracts/modules/ownable/Ownable.sol\":2435:2457  ValueTooHigh(_seconds) */\n      mload(0x40)\n      0xa253bc7000000000000000000000000000000000000000000000000000000000\n      dup2\n      mstore\n      0x04\n      add\n      tag_108\n      swap2\n      swap1\n      tag_26\n      jump\t// in\n    tag_108:\n      mload(0x40)\n      dup1\n      swap2\n      sub\n      swap1\n      revert\n        /* \"contracts/modules/ownable/Ownable.sol\":2406:2457  if(_seconds > 604800) revert ValueTooHigh(_seconds) */\n    tag_107:\n        /* \"contracts/modules/ownable/Ownable.sol\":2482:2496  OwnableStorage */\n      linkerSymbol(\"ea2bfd386ba84ea2bcf9bcd47bb5c25cd74e5e5c4739ef52f76db311be849ef7\")\n        /* \"contracts/modules/ownable/Ownable.sol\":2482:2511  OwnableStorage.setGracePeriod */\n      0xf2f65960\n        /* \"contracts/modules/ownable/Ownable.sol\":2512:2520  _seconds */\n      dup3\n        /* \"contracts/modules/ownable/Ownable.sol\":2482:2521  OwnableStorage.setGracePeriod(_seconds) */\n      mload(0x40)\n      dup3\n      0xffffffff\n      and\n      0xe0\n      shl\n      dup2\n      mstore\n      0x04\n      add\n      tag_109\n      swap2\n      swap1\n      tag_110\n      jump\t// in\n    tag_109:\n      0x00\n      mload(0x40)\n      dup1\n      dup4\n      sub\n      dup2\n      dup7\n      dup1\n      extcodesize\n      iszero\n      dup1\n      iszero\n      tag_111\n      jumpi\n      0x00\n      dup1\n      revert\n    tag_111:\n      pop\n      gas\n      delegatecall\n      iszero\n      dup1\n      iszero\n      tag_113\n      jumpi\n      returndatasize\n      0x00\n      dup1\n      returndatacopy\n      revert(0x00, returndatasize)\n    tag_113:\n      pop\n      pop\n      pop\n      pop\n        /* \"contracts/modules/ownable/Ownable.sol\":2555:2567  _msgSender() */\n      tag_114\n        /* \"contracts/modules/ownable/Ownable.sol\":2555:2565  _msgSender */\n      tag_46\n        /* \"contracts/modules/ownable/Ownable.sol\":2555:2567  _msgSender() */\n      jump\t// in\n    tag_114:\n        /* \"contracts/modules/ownable/Ownable.sol\":2537:2578  SetNewGracePeriod(_msgSender(), _seconds) */\n      0xffffffffffffffffffffffffffffffffffffffff\n      and\n      0xbb4e769c8bec1bf5b9cbb403afd41b6826b52ba0d1ad04b1d4a6f06eae96b563\n        /* \"contracts/modules/ownable/Ownable.sol\":2569:2577  _seconds */\n      dup3\n        /* \"contracts/modules/ownable/Ownable.sol\":2537:2578  SetNewGracePeriod(_msgSender(), _seconds) */\n      mload(0x40)\n      tag_115\n      swap2\n      swap1\n      tag_26\n      jump\t// in\n    tag_115:\n      mload(0x40)\n      dup1\n      swap2\n      sub\n      swap1\n      log2\n        /* \"contracts/modules/ownable/Ownable.sol\":2338:2586  function setGracePeriod(uint _seconds) external onlyOwner{... */\n      pop\n      jump\t// out\n        /* \"contracts/lib/@openzeppelin/contracts/Context.sol\":656:752  function _msgSender() internal view virtual returns (address) {... */\n    tag_46:\n        /* \"contracts/lib/@openzeppelin/contracts/Context.sol\":709:716  address */\n      0x00\n        /* \"contracts/lib/@openzeppelin/contracts/Context.sol\":735:745  msg.sender */\n      caller\n        /* \"contracts/lib/@openzeppelin/contracts/Context.sol\":728:745  return msg.sender */\n      swap1\n      pop\n        /* \"contracts/lib/@openzeppelin/contracts/Context.sol\":656:752  function _msgSender() internal view virtual returns (address) {... */\n      swap1\n      jump\t// out\n        /* \"contracts/modules/ownable/Ownable.sol\":3346:3436  function _getNewOwner()private view returns(address){return OwnableStorage.getNewOwner();} */\n    tag_48:\n        /* \"contracts/modules/ownable/Ownable.sol\":3390:3397  address */\n      0x00\n        /* \"contracts/modules/ownable/Ownable.sol\":3406:3420  OwnableStorage */\n      linkerSymbol(\"ea2bfd386ba84ea2bcf9bcd47bb5c25cd74e5e5c4739ef52f76db311be849ef7\")\n        /* \"contracts/modules/ownable/Ownable.sol\":3406:3432  OwnableStorage.getNewOwner */\n      0x3e2fe149\n        /* \"contracts/modules/ownable/Ownable.sol\":3406:3434  OwnableStorage.getNewOwner() */\n      mload(0x40)\n      dup2\n      0xffffffff\n      and\n      0xe0\n      shl\n      dup2\n      mstore\n      0x04\n      add\n      0x20\n      mload(0x40)\n      dup1\n      dup4\n      sub\n      dup2\n      dup7\n      gas\n      delegatecall\n      iszero\n      dup1\n      iszero\n      tag_119\n      jumpi\n      returndatasize\n      0x00\n      dup1\n      returndatacopy\n      revert(0x00, returndatasize)\n    tag_119:\n      pop\n      pop\n      pop\n      pop\n      mload(0x40)\n      returndatasize\n      not(0x1f)\n      0x1f\n      dup3\n      add\n      and\n      dup3\n      add\n      dup1\n      0x40\n      mstore\n      pop\n      dup2\n      add\n      swap1\n      tag_120\n      swap2\n      swap1\n      tag_121\n      jump\t// in\n    tag_120:\n        /* \"contracts/modules/ownable/Ownable.sol\":3399:3434  return OwnableStorage.getNewOwner() */\n      swap1\n      pop\n        /* \"contracts/modules/ownable/Ownable.sol\":3346:3436  function _getNewOwner()private view returns(address){return OwnableStorage.getNewOwner();} */\n      swap1\n      jump\t// out\n        /* \"contracts/modules/ownable/Ownable.sol\":4063:4136  function _accessDenied() private view{revert AccessDenied(_msgSender());} */\n    tag_51:\n        /* \"contracts/modules/ownable/Ownable.sol\":4121:4133  _msgSender() */\n      tag_123\n        /* \"contracts/modules/ownable/Ownable.sol\":4121:4131  _msgSender */\n      tag_46\n        /* \"contracts/modules/ownable/Ownable.sol\":4121:4133  _msgSender() */\n      jump\t// in\n    tag_123:\n        /* \"contracts/modules/ownable/Ownable.sol\":4108:4134  AccessDenied(_msgSender()) */\n      mload(0x40)\n      0x0504a20d00000000000000000000000000000000000000000000000000000000\n      dup2\n      mstore\n      0x04\n      add\n      tag_124\n      swap2\n      swap1\n      tag_18\n      jump\t// in\n    tag_124:\n      mload(0x40)\n      dup1\n      swap2\n      sub\n      swap1\n      revert\n        /* \"contracts/modules/ownable/Ownable.sol\":3532:3627  function _getTimestampExp()private view returns(uint){return OwnableStorage.getTimestampExp();} */\n    tag_54:\n        /* \"contracts/modules/ownable/Ownable.sol\":3580:3584  uint */\n      0x00\n        /* \"contracts/modules/ownable/Ownable.sol\":3593:3607  OwnableStorage */\n      linkerSymbol(\"ea2bfd386ba84ea2bcf9bcd47bb5c25cd74e5e5c4739ef52f76db311be849ef7\")\n        /* \"contracts/modules/ownable/Ownable.sol\":3593:3623  OwnableStorage.getTimestampExp */\n      0x61a9ab76\n        /* \"contracts/modules/ownable/Ownable.sol\":3593:3625  OwnableStorage.getTimestampExp() */\n      mload(0x40)\n      dup2\n      0xffffffff\n      and\n      0xe0\n      shl\n      dup2\n      mstore\n      0x04\n      add\n      0x20\n      mload(0x40)\n      dup1\n      dup4\n      sub\n      dup2\n      dup7\n      gas\n      delegatecall\n      iszero\n      dup1\n      iszero\n      tag_127\n      jumpi\n      returndatasize\n      0x00\n      dup1\n      returndatacopy\n      revert(0x00, returndatasize)\n    tag_127:\n      pop\n      pop\n      pop\n      pop\n      mload(0x40)\n      returndatasize\n      not(0x1f)\n      0x1f\n      dup3\n      add\n      and\n      dup3\n      add\n      dup1\n      0x40\n      mstore\n      pop\n      dup2\n      add\n      swap1\n      tag_128\n      swap2\n      swap1\n      tag_129\n      jump\t// in\n    tag_128:\n        /* \"contracts/modules/ownable/Ownable.sol\":3586:3625  return OwnableStorage.getTimestampExp() */\n      swap1\n      pop\n        /* \"contracts/modules/ownable/Ownable.sol\":3532:3627  function _getTimestampExp()private view returns(uint){return OwnableStorage.getTimestampExp();} */\n      swap1\n      jump\t// out\n        /* \"contracts/modules/ownable/Ownable.sol\":3442:3526  function _getOwner()private view returns(address){return OwnableStorage.getOwner();} */\n    tag_80:\n        /* \"contracts/modules/ownable/Ownable.sol\":3483:3490  address */\n      0x00\n        /* \"contracts/modules/ownable/Ownable.sol\":3499:3513  OwnableStorage */\n      linkerSymbol(\"ea2bfd386ba84ea2bcf9bcd47bb5c25cd74e5e5c4739ef52f76db311be849ef7\")\n        /* \"contracts/modules/ownable/Ownable.sol\":3499:3522  OwnableStorage.getOwner */\n      0x893d20e8\n        /* \"contracts/modules/ownable/Ownable.sol\":3499:3524  OwnableStorage.getOwner() */\n      mload(0x40)\n      dup2\n      0xffffffff\n      and\n      0xe0\n      shl\n      dup2\n      mstore\n      0x04\n      add\n      0x20\n      mload(0x40)\n      dup1\n      dup4\n      sub\n      dup2\n      dup7\n      gas\n      delegatecall\n      iszero\n      dup1\n      iszero\n      tag_132\n      jumpi\n      returndatasize\n      0x00\n      dup1\n      returndatacopy\n      revert(0x00, returndatasize)\n    tag_132:\n      pop\n      pop\n      pop\n      pop\n      mload(0x40)\n      returndatasize\n      not(0x1f)\n      0x1f\n      dup3\n      add\n      and\n      dup3\n      add\n      dup1\n      0x40\n      mstore\n      pop\n      dup2\n      add\n      swap1\n      tag_133\n      swap2\n      swap1\n      tag_121\n      jump\t// in\n    tag_133:\n        /* \"contracts/modules/ownable/Ownable.sol\":3492:3524  return OwnableStorage.getOwner() */\n      swap1\n      pop\n        /* \"contracts/modules/ownable/Ownable.sol\":3442:3526  function _getOwner()private view returns(address){return OwnableStorage.getOwner();} */\n      swap1\n      jump\t// out\n        /* \"contracts/modules/ownable/Ownable.sol\":3923:4055  function _checkAddress(address _address) private view onlyOwner {... */\n    tag_85:\n        /* \"contracts/modules/ownable/Ownable.sol\":1344:1356  _msgSender() */\n      tag_135\n        /* \"contracts/modules/ownable/Ownable.sol\":1344:1354  _msgSender */\n      tag_46\n        /* \"contracts/modules/ownable/Ownable.sol\":1344:1356  _msgSender() */\n      jump\t// in\n    tag_135:\n        /* \"contracts/modules/ownable/Ownable.sol\":1329:1356  _getOwner() != _msgSender() */\n      0xffffffffffffffffffffffffffffffffffffffff\n      and\n        /* \"contracts/modules/ownable/Ownable.sol\":1329:1340  _getOwner() */\n      tag_136\n        /* \"contracts/modules/ownable/Ownable.sol\":1329:1338  _getOwner */\n      tag_80\n        /* \"contracts/modules/ownable/Ownable.sol\":1329:1340  _getOwner() */\n      jump\t// in\n    tag_136:\n        /* \"contracts/modules/ownable/Ownable.sol\":1329:1356  _getOwner() != _msgSender() */\n      0xffffffffffffffffffffffffffffffffffffffff\n      and\n      eq\n        /* \"contracts/modules/ownable/Ownable.sol\":1325:1372  if (_getOwner() != _msgSender())_accessDenied() */\n      tag_137\n      jumpi\n        /* \"contracts/modules/ownable/Ownable.sol\":1357:1372  _accessDenied() */\n      tag_138\n        /* \"contracts/modules/ownable/Ownable.sol\":1357:1370  _accessDenied */\n      tag_51\n        /* \"contracts/modules/ownable/Ownable.sol\":1357:1372  _accessDenied() */\n      jump\t// in\n    tag_138:\n        /* \"contracts/modules/ownable/Ownable.sol\":1325:1372  if (_getOwner() != _msgSender())_accessDenied() */\n    tag_137:\n        /* \"contracts/modules/ownable/Ownable.sol\":4022:4023  0 */\n      0x00\n        /* \"contracts/modules/ownable/Ownable.sol\":4002:4024  _address == address(0) */\n      0xffffffffffffffffffffffffffffffffffffffff\n      and\n        /* \"contracts/modules/ownable/Ownable.sol\":4002:4010  _address */\n      dup2\n        /* \"contracts/modules/ownable/Ownable.sol\":4002:4024  _address == address(0) */\n      0xffffffffffffffffffffffffffffffffffffffff\n      and\n      sub\n        /* \"contracts/modules/ownable/Ownable.sol\":3998:4047  if (_address == address(0)) revert EmptyAddress() */\n      tag_140\n      jumpi\n        /* \"contracts/modules/ownable/Ownable.sol\":4033:4047  EmptyAddress() */\n      mload(0x40)\n      0x7138356f00000000000000000000000000000000000000000000000000000000\n      dup2\n      mstore\n      0x04\n      add\n      mload(0x40)\n      dup1\n      swap2\n      sub\n      swap1\n      revert\n        /* \"contracts/modules/ownable/Ownable.sol\":3998:4047  if (_address == address(0)) revert EmptyAddress() */\n    tag_140:\n        /* \"contracts/modules/ownable/Ownable.sol\":3923:4055  function _checkAddress(address _address) private view onlyOwner {... */\n      pop\n      jump\t// out\n        /* \"contracts/modules/ownable/Ownable.sol\":3784:3915  function _setTimestampExp() private onlyOwner{... */\n    tag_91:\n        /* \"contracts/modules/ownable/Ownable.sol\":1344:1356  _msgSender() */\n      tag_142\n        /* \"contracts/modules/ownable/Ownable.sol\":1344:1354  _msgSender */\n      tag_46\n        /* \"contracts/modules/ownable/Ownable.sol\":1344:1356  _msgSender() */\n      jump\t// in\n    tag_142:\n        /* \"contracts/modules/ownable/Ownable.sol\":1329:1356  _getOwner() != _msgSender() */\n      0xffffffffffffffffffffffffffffffffffffffff\n      and\n        /* \"contracts/modules/ownable/Ownable.sol\":1329:1340  _getOwner() */\n      tag_143\n        /* \"contracts/modules/ownable/Ownable.sol\":1329:1338  _getOwner */\n      tag_80\n        /* \"contracts/modules/ownable/Ownable.sol\":1329:1340  _getOwner() */\n      jump\t// in\n    tag_143:\n        /* \"contracts/modules/ownable/Ownable.sol\":1329:1356  _getOwner() != _msgSender() */\n      0xffffffffffffffffffffffffffffffffffffffff\n      and\n      eq\n        /* \"contracts/modules/ownable/Ownable.sol\":1325:1372  if (_getOwner() != _msgSender())_accessDenied() */\n      tag_144\n      jumpi\n        /* \"contracts/modules/ownable/Ownable.sol\":1357:1372  _accessDenied() */\n      tag_145\n        /* \"contracts/modules/ownable/Ownable.sol\":1357:1370  _accessDenied */\n      tag_51\n        /* \"contracts/modules/ownable/Ownable.sol\":1357:1372  _accessDenied() */\n      jump\t// in\n    tag_145:\n        /* \"contracts/modules/ownable/Ownable.sol\":1325:1372  if (_getOwner() != _msgSender())_accessDenied() */\n    tag_144:\n        /* \"contracts/modules/ownable/Ownable.sol\":3840:3854  OwnableStorage */\n      linkerSymbol(\"ea2bfd386ba84ea2bcf9bcd47bb5c25cd74e5e5c4739ef52f76db311be849ef7\")\n        /* \"contracts/modules/ownable/Ownable.sol\":3840:3870  OwnableStorage.setTimestampExp */\n      0xfdb0afee\n        /* \"contracts/modules/ownable/Ownable.sol\":3889:3906  _getGracePeriod() */\n      tag_147\n        /* \"contracts/modules/ownable/Ownable.sol\":3889:3904  _getGracePeriod */\n      tag_100\n        /* \"contracts/modules/ownable/Ownable.sol\":3889:3906  _getGracePeriod() */\n      jump\t// in\n    tag_147:\n        /* \"contracts/modules/ownable/Ownable.sol\":3871:3886  block.timestamp */\n      timestamp\n        /* \"contracts/modules/ownable/Ownable.sol\":3871:3906  block.timestamp + _getGracePeriod() */\n      tag_148\n      swap2\n      swap1\n      tag_149\n      jump\t// in\n    tag_148:\n        /* \"contracts/modules/ownable/Ownable.sol\":3840:3907  OwnableStorage.setTimestampExp(block.timestamp + _getGracePeriod()) */\n      mload(0x40)\n      dup3\n      0xffffffff\n      and\n      0xe0\n      shl\n      dup2\n      mstore\n      0x04\n      add\n      tag_150\n      swap2\n      swap1\n      tag_110\n      jump\t// in\n    tag_150:\n      0x00\n      mload(0x40)\n      dup1\n      dup4\n      sub\n      dup2\n      dup7\n      dup1\n      extcodesize\n      iszero\n      dup1\n      iszero\n      tag_151\n      jumpi\n      0x00\n      dup1\n      revert\n    tag_151:\n      pop\n      gas\n      delegatecall\n      iszero\n      dup1\n      iszero\n      tag_153\n      jumpi\n      returndatasize\n      0x00\n      dup1\n      returndatacopy\n      revert(0x00, returndatasize)\n    tag_153:\n      pop\n      pop\n      pop\n      pop\n        /* \"contracts/modules/ownable/Ownable.sol\":3784:3915  function _setTimestampExp() private onlyOwner{... */\n      jump\t// out\n        /* \"contracts/modules/ownable/Ownable.sol\":3633:3726  function _getGracePeriod()private view returns(uint){return OwnableStorage.getGracePeriod();} */\n    tag_100:\n        /* \"contracts/modules/ownable/Ownable.sol\":3680:3684  uint */\n      0x00\n        /* \"contracts/modules/ownable/Ownable.sol\":3693:3707  OwnableStorage */\n      linkerSymbol(\"ea2bfd386ba84ea2bcf9bcd47bb5c25cd74e5e5c4739ef52f76db311be849ef7\")\n        /* \"contracts/modules/ownable/Ownable.sol\":3693:3722  OwnableStorage.getGracePeriod */\n      0xdbd18388\n        /* \"contracts/modules/ownable/Ownable.sol\":3693:3724  OwnableStorage.getGracePeriod() */\n      mload(0x40)\n      dup2\n      0xffffffff\n      and\n      0xe0\n      shl\n      dup2\n      mstore\n      0x04\n      add\n      0x20\n      mload(0x40)\n      dup1\n      dup4\n      sub\n      dup2\n      dup7\n      gas\n      delegatecall\n      iszero\n      dup1\n      iszero\n      tag_156\n      jumpi\n      returndatasize\n      0x00\n      dup1\n      returndatacopy\n      revert(0x00, returndatasize)\n    tag_156:\n      pop\n      pop\n      pop\n      pop\n      mload(0x40)\n      returndatasize\n      not(0x1f)\n      0x1f\n      dup3\n      add\n      and\n      dup3\n      add\n      dup1\n      0x40\n      mstore\n      pop\n      dup2\n      add\n      swap1\n      tag_157\n      swap2\n      swap1\n      tag_129\n      jump\t// in\n    tag_157:\n        /* \"contracts/modules/ownable/Ownable.sol\":3686:3724  return OwnableStorage.getGracePeriod() */\n      swap1\n      pop\n        /* \"contracts/modules/ownable/Ownable.sol\":3633:3726  function _getGracePeriod()private view returns(uint){return OwnableStorage.getGracePeriod();} */\n      swap1\n      jump\t// out\n        /* \"#utility.yul\":7:133   */\n    tag_158:\n        /* \"#utility.yul\":44:51   */\n      0x00\n        /* \"#utility.yul\":84:126   */\n      0xffffffffffffffffffffffffffffffffffffffff\n        /* \"#utility.yul\":77:82   */\n      dup3\n        /* \"#utility.yul\":73:127   */\n      and\n        /* \"#utility.yul\":62:127   */\n      swap1\n      pop\n        /* \"#utility.yul\":7:133   */\n      swap2\n      swap1\n      pop\n      jump\t// out\n        /* \"#utility.yul\":139:235   */\n    tag_159:\n        /* \"#utility.yul\":176:183   */\n      0x00\n        /* \"#utility.yul\":205:229   */\n      tag_187\n        /* \"#utility.yul\":223:228   */\n      dup3\n        /* \"#utility.yul\":205:229   */\n      tag_158\n      jump\t// in\n    tag_187:\n        /* \"#utility.yul\":194:229   */\n      swap1\n      pop\n        /* \"#utility.yul\":139:235   */\n      swap2\n      swap1\n      pop\n      jump\t// out\n        /* \"#utility.yul\":241:359   */\n    tag_160:\n        /* \"#utility.yul\":328:352   */\n      tag_189\n        /* \"#utility.yul\":346:351   */\n      dup2\n        /* \"#utility.yul\":328:352   */\n      tag_159\n      jump\t// in\n    tag_189:\n        /* \"#utility.yul\":323:326   */\n      dup3\n        /* \"#utility.yul\":316:353   */\n      mstore\n        /* \"#utility.yul\":241:359   */\n      pop\n      pop\n      jump\t// out\n        /* \"#utility.yul\":365:587   */\n    tag_18:\n        /* \"#utility.yul\":458:462   */\n      0x00\n        /* \"#utility.yul\":496:498   */\n      0x20\n        /* \"#utility.yul\":485:494   */\n      dup3\n        /* \"#utility.yul\":481:499   */\n      add\n        /* \"#utility.yul\":473:499   */\n      swap1\n      pop\n        /* \"#utility.yul\":509:580   */\n      tag_191\n        /* \"#utility.yul\":577:578   */\n      0x00\n        /* \"#utility.yul\":566:575   */\n      dup4\n        /* \"#utility.yul\":562:579   */\n      add\n        /* \"#utility.yul\":553:559   */\n      dup5\n        /* \"#utility.yul\":509:580   */\n      tag_160\n      jump\t// in\n    tag_191:\n        /* \"#utility.yul\":365:587   */\n      swap3\n      swap2\n      pop\n      pop\n      jump\t// out\n        /* \"#utility.yul\":674:791   */\n    tag_162:\n        /* \"#utility.yul\":783:784   */\n      0x00\n        /* \"#utility.yul\":780:781   */\n      dup1\n        /* \"#utility.yul\":773:785   */\n      revert\n        /* \"#utility.yul\":920:1042   */\n    tag_164:\n        /* \"#utility.yul\":993:1017   */\n      tag_196\n        /* \"#utility.yul\":1011:1016   */\n      dup2\n        /* \"#utility.yul\":993:1017   */\n      tag_159\n      jump\t// in\n    tag_196:\n        /* \"#utility.yul\":986:991   */\n      dup2\n        /* \"#utility.yul\":983:1018   */\n      eq\n        /* \"#utility.yul\":973:1036   */\n      tag_197\n      jumpi\n        /* \"#utility.yul\":1032:1033   */\n      0x00\n        /* \"#utility.yul\":1029:1030   */\n      dup1\n        /* \"#utility.yul\":1022:1034   */\n      revert\n        /* \"#utility.yul\":973:1036   */\n    tag_197:\n        /* \"#utility.yul\":920:1042   */\n      pop\n      jump\t// out\n        /* \"#utility.yul\":1048:1187   */\n    tag_165:\n        /* \"#utility.yul\":1094:1099   */\n      0x00\n        /* \"#utility.yul\":1132:1138   */\n      dup2\n        /* \"#utility.yul\":1119:1139   */\n      calldataload\n        /* \"#utility.yul\":1110:1139   */\n      swap1\n      pop\n        /* \"#utility.yul\":1148:1181   */\n      tag_199\n        /* \"#utility.yul\":1175:1180   */\n      dup2\n        /* \"#utility.yul\":1148:1181   */\n      tag_164\n      jump\t// in\n    tag_199:\n        /* \"#utility.yul\":1048:1187   */\n      swap3\n      swap2\n      pop\n      pop\n      jump\t// out\n        /* \"#utility.yul\":1193:1522   */\n    tag_21:\n        /* \"#utility.yul\":1252:1258   */\n      0x00\n        /* \"#utility.yul\":1301:1303   */\n      0x20\n        /* \"#utility.yul\":1289:1298   */\n      dup3\n        /* \"#utility.yul\":1280:1287   */\n      dup5\n        /* \"#utility.yul\":1276:1299   */\n      sub\n        /* \"#utility.yul\":1272:1304   */\n      slt\n        /* \"#utility.yul\":1269:1388   */\n      iszero\n      tag_201\n      jumpi\n        /* \"#utility.yul\":1307:1386   */\n      tag_202\n      tag_162\n      jump\t// in\n    tag_202:\n        /* \"#utility.yul\":1269:1388   */\n    tag_201:\n        /* \"#utility.yul\":1427:1428   */\n      0x00\n        /* \"#utility.yul\":1452:1505   */\n      tag_203\n        /* \"#utility.yul\":1497:1504   */\n      dup5\n        /* \"#utility.yul\":1488:1494   */\n      dup3\n        /* \"#utility.yul\":1477:1486   */\n      dup6\n        /* \"#utility.yul\":1473:1495   */\n      add\n        /* \"#utility.yul\":1452:1505   */\n      tag_165\n      jump\t// in\n    tag_203:\n        /* \"#utility.yul\":1442:1505   */\n      swap2\n      pop\n        /* \"#utility.yul\":1398:1515   */\n      pop\n        /* \"#utility.yul\":1193:1522   */\n      swap3\n      swap2\n      pop\n      pop\n      jump\t// out\n        /* \"#utility.yul\":1528:1605   */\n    tag_166:\n        /* \"#utility.yul\":1565:1572   */\n      0x00\n        /* \"#utility.yul\":1594:1599   */\n      dup2\n        /* \"#utility.yul\":1583:1599   */\n      swap1\n      pop\n        /* \"#utility.yul\":1528:1605   */\n      swap2\n      swap1\n      pop\n      jump\t// out\n        /* \"#utility.yul\":1611:1729   */\n    tag_167:\n        /* \"#utility.yul\":1698:1722   */\n      tag_206\n        /* \"#utility.yul\":1716:1721   */\n      dup2\n        /* \"#utility.yul\":1698:1722   */\n      tag_166\n      jump\t// in\n    tag_206:\n        /* \"#utility.yul\":1693:1696   */\n      dup3\n        /* \"#utility.yul\":1686:1723   */\n      mstore\n        /* \"#utility.yul\":1611:1729   */\n      pop\n      pop\n      jump\t// out\n        /* \"#utility.yul\":1735:1957   */\n    tag_26:\n        /* \"#utility.yul\":1828:1832   */\n      0x00\n        /* \"#utility.yul\":1866:1868   */\n      0x20\n        /* \"#utility.yul\":1855:1864   */\n      dup3\n        /* \"#utility.yul\":1851:1869   */\n      add\n        /* \"#utility.yul\":1843:1869   */\n      swap1\n      pop\n        /* \"#utility.yul\":1879:1950   */\n      tag_208\n        /* \"#utility.yul\":1947:1948   */\n      0x00\n        /* \"#utility.yul\":1936:1945   */\n      dup4\n        /* \"#utility.yul\":1932:1949   */\n      add\n        /* \"#utility.yul\":1923:1929   */\n      dup5\n        /* \"#utility.yul\":1879:1950   */\n      tag_167\n      jump\t// in\n    tag_208:\n        /* \"#utility.yul\":1735:1957   */\n      swap3\n      swap2\n      pop\n      pop\n      jump\t// out\n        /* \"#utility.yul\":1963:2062   */\n    tag_168:\n        /* \"#utility.yul\":2015:2021   */\n      0x00\n        /* \"#utility.yul\":2049:2054   */\n      dup2\n        /* \"#utility.yul\":2043:2055   */\n      mload\n        /* \"#utility.yul\":2033:2055   */\n      swap1\n      pop\n        /* \"#utility.yul\":1963:2062   */\n      swap2\n      swap1\n      pop\n      jump\t// out\n        /* \"#utility.yul\":2068:2237   */\n    tag_169:\n        /* \"#utility.yul\":2152:2163   */\n      0x00\n        /* \"#utility.yul\":2186:2192   */\n      dup3\n        /* \"#utility.yul\":2181:2184   */\n      dup3\n        /* \"#utility.yul\":2174:2193   */\n      mstore\n        /* \"#utility.yul\":2226:2230   */\n      0x20\n        /* \"#utility.yul\":2221:2224   */\n      dup3\n        /* \"#utility.yul\":2217:2231   */\n      add\n        /* \"#utility.yul\":2202:2231   */\n      swap1\n      pop\n        /* \"#utility.yul\":2068:2237   */\n      swap3\n      swap2\n      pop\n      pop\n      jump\t// out\n        /* \"#utility.yul\":2243:2489   */\n    tag_170:\n        /* \"#utility.yul\":2324:2325   */\n      0x00\n        /* \"#utility.yul\":2334:2447   */\n    tag_212:\n        /* \"#utility.yul\":2348:2354   */\n      dup4\n        /* \"#utility.yul\":2345:2346   */\n      dup2\n        /* \"#utility.yul\":2342:2355   */\n      lt\n        /* \"#utility.yul\":2334:2447   */\n      iszero\n      tag_214\n      jumpi\n        /* \"#utility.yul\":2433:2434   */\n      dup1\n        /* \"#utility.yul\":2428:2431   */\n      dup3\n        /* \"#utility.yul\":2424:2435   */\n      add\n        /* \"#utility.yul\":2418:2436   */\n      mload\n        /* \"#utility.yul\":2414:2415   */\n      dup2\n        /* \"#utility.yul\":2409:2412   */\n      dup5\n        /* \"#utility.yul\":2405:2416   */\n      add\n        /* \"#utility.yul\":2398:2437   */\n      mstore\n        /* \"#utility.yul\":2370:2372   */\n      0x20\n        /* \"#utility.yul\":2367:2368   */\n      dup2\n        /* \"#utility.yul\":2363:2373   */\n      add\n        /* \"#utility.yul\":2358:2373   */\n      swap1\n      pop\n        /* \"#utility.yul\":2334:2447   */\n      jump(tag_212)\n    tag_214:\n        /* \"#utility.yul\":2481:2482   */\n      0x00\n        /* \"#utility.yul\":2472:2478   */\n      dup5\n        /* \"#utility.yul\":2467:2470   */\n      dup5\n        /* \"#utility.yul\":2463:2479   */\n      add\n        /* \"#utility.yul\":2456:2483   */\n      mstore\n        /* \"#utility.yul\":2305:2489   */\n      pop\n        /* \"#utility.yul\":2243:2489   */\n      pop\n      pop\n      pop\n      jump\t// out\n        /* \"#utility.yul\":2495:2597   */\n    tag_171:\n        /* \"#utility.yul\":2536:2542   */\n      0x00\n        /* \"#utility.yul\":2587:2589   */\n      0x1f\n        /* \"#utility.yul\":2583:2590   */\n      not\n        /* \"#utility.yul\":2578:2580   */\n      0x1f\n        /* \"#utility.yul\":2571:2576   */\n      dup4\n        /* \"#utility.yul\":2567:2581   */\n      add\n        /* \"#utility.yul\":2563:2591   */\n      and\n        /* \"#utility.yul\":2553:2591   */\n      swap1\n      pop\n        /* \"#utility.yul\":2495:2597   */\n      swap2\n      swap1\n      pop\n      jump\t// out\n        /* \"#utility.yul\":2603:2980   */\n    tag_172:\n        /* \"#utility.yul\":2691:2694   */\n      0x00\n        /* \"#utility.yul\":2719:2758   */\n      tag_217\n        /* \"#utility.yul\":2752:2757   */\n      dup3\n        /* \"#utility.yul\":2719:2758   */\n      tag_168\n      jump\t// in\n    tag_217:\n        /* \"#utility.yul\":2774:2845   */\n      tag_218\n        /* \"#utility.yul\":2838:2844   */\n      dup2\n        /* \"#utility.yul\":2833:2836   */\n      dup6\n        /* \"#utility.yul\":2774:2845   */\n      tag_169\n      jump\t// in\n    tag_218:\n        /* \"#utility.yul\":2767:2845   */\n      swap4\n      pop\n        /* \"#utility.yul\":2854:2919   */\n      tag_219\n        /* \"#utility.yul\":2912:2918   */\n      dup2\n        /* \"#utility.yul\":2907:2910   */\n      dup6\n        /* \"#utility.yul\":2900:2904   */\n      0x20\n        /* \"#utility.yul\":2893:2898   */\n      dup7\n        /* \"#utility.yul\":2889:2905   */\n      add\n        /* \"#utility.yul\":2854:2919   */\n      tag_170\n      jump\t// in\n    tag_219:\n        /* \"#utility.yul\":2944:2973   */\n      tag_220\n        /* \"#utility.yul\":2966:2972   */\n      dup2\n        /* \"#utility.yul\":2944:2973   */\n      tag_171\n      jump\t// in\n    tag_220:\n        /* \"#utility.yul\":2939:2942   */\n      dup5\n        /* \"#utility.yul\":2935:2974   */\n      add\n        /* \"#utility.yul\":2928:2974   */\n      swap2\n      pop\n        /* \"#utility.yul\":2695:2980   */\n      pop\n        /* \"#utility.yul\":2603:2980   */\n      swap3\n      swap2\n      pop\n      pop\n      jump\t// out\n        /* \"#utility.yul\":2986:3299   */\n    tag_36:\n        /* \"#utility.yul\":3099:3103   */\n      0x00\n        /* \"#utility.yul\":3137:3139   */\n      0x20\n        /* \"#utility.yul\":3126:3135   */\n      dup3\n        /* \"#utility.yul\":3122:3140   */\n      add\n        /* \"#utility.yul\":3114:3140   */\n      swap1\n      pop\n        /* \"#utility.yul\":3186:3195   */\n      dup2\n        /* \"#utility.yul\":3180:3184   */\n      dup2\n        /* \"#utility.yul\":3176:3196   */\n      sub\n        /* \"#utility.yul\":3172:3173   */\n      0x00\n        /* \"#utility.yul\":3161:3170   */\n      dup4\n        /* \"#utility.yul\":3157:3174   */\n      add\n        /* \"#utility.yul\":3150:3197   */\n      mstore\n        /* \"#utility.yul\":3214:3292   */\n      tag_222\n        /* \"#utility.yul\":3287:3291   */\n      dup2\n        /* \"#utility.yul\":3278:3284   */\n      dup5\n        /* \"#utility.yul\":3214:3292   */\n      tag_172\n      jump\t// in\n    tag_222:\n        /* \"#utility.yul\":3206:3292   */\n      swap1\n      pop\n        /* \"#utility.yul\":2986:3299   */\n      swap3\n      swap2\n      pop\n      pop\n      jump\t// out\n        /* \"#utility.yul\":3305:3427   */\n    tag_173:\n        /* \"#utility.yul\":3378:3402   */\n      tag_224\n        /* \"#utility.yul\":3396:3401   */\n      dup2\n        /* \"#utility.yul\":3378:3402   */\n      tag_166\n      jump\t// in\n    tag_224:\n        /* \"#utility.yul\":3371:3376   */\n      dup2\n        /* \"#utility.yul\":3368:3403   */\n      eq\n        /* \"#utility.yul\":3358:3421   */\n      tag_225\n      jumpi\n        /* \"#utility.yul\":3417:3418   */\n      0x00\n        /* \"#utility.yul\":3414:3415   */\n      dup1\n        /* \"#utility.yul\":3407:3419   */\n      revert\n        /* \"#utility.yul\":3358:3421   */\n    tag_225:\n        /* \"#utility.yul\":3305:3427   */\n      pop\n      jump\t// out\n        /* \"#utility.yul\":3433:3572   */\n    tag_174:\n        /* \"#utility.yul\":3479:3484   */\n      0x00\n        /* \"#utility.yul\":3517:3523   */\n      dup2\n        /* \"#utility.yul\":3504:3524   */\n      calldataload\n        /* \"#utility.yul\":3495:3524   */\n      swap1\n      pop\n        /* \"#utility.yul\":3533:3566   */\n      tag_227\n        /* \"#utility.yul\":3560:3565   */\n      dup2\n        /* \"#utility.yul\":3533:3566   */\n      tag_173\n      jump\t// in\n    tag_227:\n        /* \"#utility.yul\":3433:3572   */\n      swap3\n      swap2\n      pop\n      pop\n      jump\t// out\n        /* \"#utility.yul\":3578:3907   */\n    tag_42:\n        /* \"#utility.yul\":3637:3643   */\n      0x00\n        /* \"#utility.yul\":3686:3688   */\n      0x20\n        /* \"#utility.yul\":3674:3683   */\n      dup3\n        /* \"#utility.yul\":3665:3672   */\n      dup5\n        /* \"#utility.yul\":3661:3684   */\n      sub\n        /* \"#utility.yul\":3657:3689   */\n      slt\n        /* \"#utility.yul\":3654:3773   */\n      iszero\n      tag_229\n      jumpi\n        /* \"#utility.yul\":3692:3771   */\n      tag_230\n      tag_162\n      jump\t// in\n    tag_230:\n        /* \"#utility.yul\":3654:3773   */\n    tag_229:\n        /* \"#utility.yul\":3812:3813   */\n      0x00\n        /* \"#utility.yul\":3837:3890   */\n      tag_231\n        /* \"#utility.yul\":3882:3889   */\n      dup5\n        /* \"#utility.yul\":3873:3879   */\n      dup3\n        /* \"#utility.yul\":3862:3871   */\n      dup6\n        /* \"#utility.yul\":3858:3880   */\n      add\n        /* \"#utility.yul\":3837:3890   */\n      tag_174\n      jump\t// in\n    tag_231:\n        /* \"#utility.yul\":3827:3890   */\n      swap2\n      pop\n        /* \"#utility.yul\":3783:3900   */\n      pop\n        /* \"#utility.yul\":3578:3907   */\n      swap3\n      swap2\n      pop\n      pop\n      jump\t// out\n        /* \"#utility.yul\":3913:4039   */\n    tag_175:\n        /* \"#utility.yul\":4008:4032   */\n      tag_233\n        /* \"#utility.yul\":4026:4031   */\n      dup2\n        /* \"#utility.yul\":4008:4032   */\n      tag_159\n      jump\t// in\n    tag_233:\n        /* \"#utility.yul\":4003:4006   */\n      dup3\n        /* \"#utility.yul\":3996:4033   */\n      mstore\n        /* \"#utility.yul\":3913:4039   */\n      pop\n      pop\n      jump\t// out\n        /* \"#utility.yul\":4045:4283   */\n    tag_61:\n        /* \"#utility.yul\":4146:4150   */\n      0x00\n        /* \"#utility.yul\":4184:4186   */\n      0x20\n        /* \"#utility.yul\":4173:4182   */\n      dup3\n        /* \"#utility.yul\":4169:4187   */\n      add\n        /* \"#utility.yul\":4161:4187   */\n      swap1\n      pop\n        /* \"#utility.yul\":4197:4276   */\n      tag_235\n        /* \"#utility.yul\":4273:4274   */\n      0x00\n        /* \"#utility.yul\":4262:4271   */\n      dup4\n        /* \"#utility.yul\":4258:4275   */\n      add\n        /* \"#utility.yul\":4249:4255   */\n      dup5\n        /* \"#utility.yul\":4197:4276   */\n      tag_175\n      jump\t// in\n    tag_235:\n        /* \"#utility.yul\":4045:4283   */\n      swap3\n      swap2\n      pop\n      pop\n      jump\t// out\n        /* \"#utility.yul\":4289:4374   */\n    tag_176:\n        /* \"#utility.yul\":4334:4341   */\n      0x00\n        /* \"#utility.yul\":4363:4368   */\n      dup2\n        /* \"#utility.yul\":4352:4368   */\n      swap1\n      pop\n        /* \"#utility.yul\":4289:4374   */\n      swap2\n      swap1\n      pop\n      jump\t// out\n        /* \"#utility.yul\":4380:4440   */\n    tag_177:\n        /* \"#utility.yul\":4408:4411   */\n      0x00\n        /* \"#utility.yul\":4429:4434   */\n      dup2\n        /* \"#utility.yul\":4422:4434   */\n      swap1\n      pop\n        /* \"#utility.yul\":4380:4440   */\n      swap2\n      swap1\n      pop\n      jump\t// out\n        /* \"#utility.yul\":4446:4604   */\n    tag_178:\n        /* \"#utility.yul\":4504:4513   */\n      0x00\n        /* \"#utility.yul\":4537:4598   */\n      tag_239\n        /* \"#utility.yul\":4555:4597   */\n      tag_240\n        /* \"#utility.yul\":4564:4596   */\n      tag_241\n        /* \"#utility.yul\":4590:4595   */\n      dup5\n        /* \"#utility.yul\":4564:4596   */\n      tag_176\n      jump\t// in\n    tag_241:\n        /* \"#utility.yul\":4555:4597   */\n      tag_177\n      jump\t// in\n    tag_240:\n        /* \"#utility.yul\":4537:4598   */\n      tag_166\n      jump\t// in\n    tag_239:\n        /* \"#utility.yul\":4524:4598   */\n      swap1\n      pop\n        /* \"#utility.yul\":4446:4604   */\n      swap2\n      swap1\n      pop\n      jump\t// out\n        /* \"#utility.yul\":4610:4765   */\n    tag_179:\n        /* \"#utility.yul\":4713:4758   */\n      tag_243\n        /* \"#utility.yul\":4752:4757   */\n      dup2\n        /* \"#utility.yul\":4713:4758   */\n      tag_178\n      jump\t// in\n    tag_243:\n        /* \"#utility.yul\":4708:4711   */\n      dup3\n        /* \"#utility.yul\":4701:4759   */\n      mstore\n        /* \"#utility.yul\":4610:4765   */\n      pop\n      pop\n      jump\t// out\n        /* \"#utility.yul\":4771:5025   */\n    tag_70:\n        /* \"#utility.yul\":4880:4884   */\n      0x00\n        /* \"#utility.yul\":4918:4920   */\n      0x20\n        /* \"#utility.yul\":4907:4916   */\n      dup3\n        /* \"#utility.yul\":4903:4921   */\n      add\n        /* \"#utility.yul\":4895:4921   */\n      swap1\n      pop\n        /* \"#utility.yul\":4931:5018   */\n      tag_245\n        /* \"#utility.yul\":5015:5016   */\n      0x00\n        /* \"#utility.yul\":5004:5013   */\n      dup4\n        /* \"#utility.yul\":5000:5017   */\n      add\n        /* \"#utility.yul\":4991:4997   */\n      dup5\n        /* \"#utility.yul\":4931:5018   */\n      tag_179\n      jump\t// in\n    tag_245:\n        /* \"#utility.yul\":4771:5025   */\n      swap3\n      swap2\n      pop\n      pop\n      jump\t// out\n        /* \"#utility.yul\":5031:5157   */\n    tag_180:\n        /* \"#utility.yul\":5126:5150   */\n      tag_247\n        /* \"#utility.yul\":5144:5149   */\n      dup2\n        /* \"#utility.yul\":5126:5150   */\n      tag_166\n      jump\t// in\n    tag_247:\n        /* \"#utility.yul\":5121:5124   */\n      dup3\n        /* \"#utility.yul\":5114:5151   */\n      mstore\n        /* \"#utility.yul\":5031:5157   */\n      pop\n      pop\n      jump\t// out\n        /* \"#utility.yul\":5163:5401   */\n    tag_110:\n        /* \"#utility.yul\":5264:5268   */\n      0x00\n        /* \"#utility.yul\":5302:5304   */\n      0x20\n        /* \"#utility.yul\":5291:5300   */\n      dup3\n        /* \"#utility.yul\":5287:5305   */\n      add\n        /* \"#utility.yul\":5279:5305   */\n      swap1\n      pop\n        /* \"#utility.yul\":5315:5394   */\n      tag_249\n        /* \"#utility.yul\":5391:5392   */\n      0x00\n        /* \"#utility.yul\":5380:5389   */\n      dup4\n        /* \"#utility.yul\":5376:5393   */\n      add\n        /* \"#utility.yul\":5367:5373   */\n      dup5\n        /* \"#utility.yul\":5315:5394   */\n      tag_180\n      jump\t// in\n    tag_249:\n        /* \"#utility.yul\":5163:5401   */\n      swap3\n      swap2\n      pop\n      pop\n      jump\t// out\n        /* \"#utility.yul\":5407:5550   */\n    tag_181:\n        /* \"#utility.yul\":5464:5469   */\n      0x00\n        /* \"#utility.yul\":5495:5501   */\n      dup2\n        /* \"#utility.yul\":5489:5502   */\n      mload\n        /* \"#utility.yul\":5480:5502   */\n      swap1\n      pop\n        /* \"#utility.yul\":5511:5544   */\n      tag_251\n        /* \"#utility.yul\":5538:5543   */\n      dup2\n        /* \"#utility.yul\":5511:5544   */\n      tag_164\n      jump\t// in\n    tag_251:\n        /* \"#utility.yul\":5407:5550   */\n      swap3\n      swap2\n      pop\n      pop\n      jump\t// out\n        /* \"#utility.yul\":5556:5907   */\n    tag_121:\n        /* \"#utility.yul\":5626:5632   */\n      0x00\n        /* \"#utility.yul\":5675:5677   */\n      0x20\n        /* \"#utility.yul\":5663:5672   */\n      dup3\n        /* \"#utility.yul\":5654:5661   */\n      dup5\n        /* \"#utility.yul\":5650:5673   */\n      sub\n        /* \"#utility.yul\":5646:5678   */\n      slt\n        /* \"#utility.yul\":5643:5762   */\n      iszero\n      tag_253\n      jumpi\n        /* \"#utility.yul\":5681:5760   */\n      tag_254\n      tag_162\n      jump\t// in\n    tag_254:\n        /* \"#utility.yul\":5643:5762   */\n    tag_253:\n        /* \"#utility.yul\":5801:5802   */\n      0x00\n        /* \"#utility.yul\":5826:5890   */\n      tag_255\n        /* \"#utility.yul\":5882:5889   */\n      dup5\n        /* \"#utility.yul\":5873:5879   */\n      dup3\n        /* \"#utility.yul\":5862:5871   */\n      dup6\n        /* \"#utility.yul\":5858:5880   */\n      add\n        /* \"#utility.yul\":5826:5890   */\n      tag_181\n      jump\t// in\n    tag_255:\n        /* \"#utility.yul\":5816:5890   */\n      swap2\n      pop\n        /* \"#utility.yul\":5772:5900   */\n      pop\n        /* \"#utility.yul\":5556:5907   */\n      swap3\n      swap2\n      pop\n      pop\n      jump\t// out\n        /* \"#utility.yul\":5913:6056   */\n    tag_182:\n        /* \"#utility.yul\":5970:5975   */\n      0x00\n        /* \"#utility.yul\":6001:6007   */\n      dup2\n        /* \"#utility.yul\":5995:6008   */\n      mload\n        /* \"#utility.yul\":5986:6008   */\n      swap1\n      pop\n        /* \"#utility.yul\":6017:6050   */\n      tag_257\n        /* \"#utility.yul\":6044:6049   */\n      dup2\n        /* \"#utility.yul\":6017:6050   */\n      tag_173\n      jump\t// in\n    tag_257:\n        /* \"#utility.yul\":5913:6056   */\n      swap3\n      swap2\n      pop\n      pop\n      jump\t// out\n        /* \"#utility.yul\":6062:6413   */\n    tag_129:\n        /* \"#utility.yul\":6132:6138   */\n      0x00\n        /* \"#utility.yul\":6181:6183   */\n      0x20\n        /* \"#utility.yul\":6169:6178   */\n      dup3\n        /* \"#utility.yul\":6160:6167   */\n      dup5\n        /* \"#utility.yul\":6156:6179   */\n      sub\n        /* \"#utility.yul\":6152:6184   */\n      slt\n        /* \"#utility.yul\":6149:6268   */\n      iszero\n      tag_259\n      jumpi\n        /* \"#utility.yul\":6187:6266   */\n      tag_260\n      tag_162\n      jump\t// in\n    tag_260:\n        /* \"#utility.yul\":6149:6268   */\n    tag_259:\n        /* \"#utility.yul\":6307:6308   */\n      0x00\n        /* \"#utility.yul\":6332:6396   */\n      tag_261\n        /* \"#utility.yul\":6388:6395   */\n      dup5\n        /* \"#utility.yul\":6379:6385   */\n      dup3\n        /* \"#utility.yul\":6368:6377   */\n      dup6\n        /* \"#utility.yul\":6364:6386   */\n      add\n        /* \"#utility.yul\":6332:6396   */\n      tag_182\n      jump\t// in\n    tag_261:\n        /* \"#utility.yul\":6322:6396   */\n      swap2\n      pop\n        /* \"#utility.yul\":6278:6406   */\n      pop\n        /* \"#utility.yul\":6062:6413   */\n      swap3\n      swap2\n      pop\n      pop\n      jump\t// out\n        /* \"#utility.yul\":6419:6599   */\n    tag_183:\n        /* \"#utility.yul\":6467:6544   */\n      0x4e487b7100000000000000000000000000000000000000000000000000000000\n        /* \"#utility.yul\":6464:6465   */\n      0x00\n        /* \"#utility.yul\":6457:6545   */\n      mstore\n        /* \"#utility.yul\":6564:6568   */\n      0x11\n        /* \"#utility.yul\":6561:6562   */\n      0x04\n        /* \"#utility.yul\":6554:6569   */\n      mstore\n        /* \"#utility.yul\":6588:6592   */\n      0x24\n        /* \"#utility.yul\":6585:6586   */\n      0x00\n        /* \"#utility.yul\":6578:6593   */\n      revert\n        /* \"#utility.yul\":6605:6796   */\n    tag_149:\n        /* \"#utility.yul\":6645:6648   */\n      0x00\n        /* \"#utility.yul\":6664:6684   */\n      tag_264\n        /* \"#utility.yul\":6682:6683   */\n      dup3\n        /* \"#utility.yul\":6664:6684   */\n      tag_166\n      jump\t// in\n    tag_264:\n        /* \"#utility.yul\":6659:6684   */\n      swap2\n      pop\n        /* \"#utility.yul\":6698:6718   */\n      tag_265\n        /* \"#utility.yul\":6716:6717   */\n      dup4\n        /* \"#utility.yul\":6698:6718   */\n      tag_166\n      jump\t// in\n    tag_265:\n        /* \"#utility.yul\":6693:6718   */\n      swap3\n      pop\n        /* \"#utility.yul\":6741:6742   */\n      dup3\n        /* \"#utility.yul\":6738:6739   */\n      dup3\n        /* \"#utility.yul\":6734:6743   */\n      add\n        /* \"#utility.yul\":6727:6743   */\n      swap1\n      pop\n        /* \"#utility.yul\":6762:6765   */\n      dup1\n        /* \"#utility.yul\":6759:6760   */\n      dup3\n        /* \"#utility.yul\":6756:6766   */\n      gt\n        /* \"#utility.yul\":6753:6789   */\n      iszero\n      tag_266\n      jumpi\n        /* \"#utility.yul\":6769:6787   */\n      tag_267\n      tag_183\n      jump\t// in\n    tag_267:\n        /* \"#utility.yul\":6753:6789   */\n    tag_266:\n        /* \"#utility.yul\":6605:6796   */\n      swap3\n      swap2\n      pop\n      pop\n      jump\t// out\n\n    auxdata: 0xa26469706673582212201b50b9a77b3ba1d1df5d94572e4633d6383e42c9b0ddf69cd46d81b8c6df9d7f64736f6c63430008140033\n}\n",
				"bytecode": {
					"linkReferences": {
						"contracts/storage/LibOwnableStorage.sol": {
							"OwnableStorage": [
								{
									"length": 20,
									"start": 45
								},
								{
									"length": 20,
									"start": 163
								},
								{
									"length": 20,
									"start": 1058
								},
								{
									"length": 20,
									"start": 1157
								},
								{
									"length": 20,
									"start": 1256
								},
								{
									"length": 20,
									"start": 1533
								},
								{
									"length": 20,
									"start": 2032
								},
								{
									"length": 20,
									"start": 2227
								},
								{
									"length": 20,
									"start": 2408
								},
								{
									"length": 20,
									"start": 2521
								},
								{
									"length": 20,
									"start": 2885
								},
								{
									"length": 20,
									"start": 3005
								}
							]
						}
					},
					"object": "60a06040526200001860015f806200011160201b60201c565b6080908152503480156200002a575f80fd5b5073__$ea2bfd386ba84ea2bcf9bcd47bb5c25cd7$__63592bd705620000556200013a60201b60201c565b6040518263ffffffff1660e01b815260040162000073919062000184565b5f6040518083038186803b1580156200008a575f80fd5b505af41580156200009d573d5f803e3d5ffd5b5050505073__$ea2bfd386ba84ea2bcf9bcd47bb5c25cd7$__63f2f65960620151806040518263ffffffff1660e01b8152600401620000dd9190620001b9565b5f6040518083038186803b158015620000f4575f80fd5b505af415801562000107573d5f803e3d5ffd5b50505050620001d4565b5f8163ffffffff1660208463ffffffff16901b60408663ffffffff16901b171790509392505050565b5f33905090565b5f73ffffffffffffffffffffffffffffffffffffffff82169050919050565b5f6200016c8262000141565b9050919050565b6200017e8162000160565b82525050565b5f602082019050620001995f83018462000173565b92915050565b5f819050919050565b620001b3816200019f565b82525050565b5f602082019050620001ce5f830184620001a8565b92915050565b608051610dde620001ed5f395f6104f80152610dde5ff3fe608060405234801561000f575f80fd5b5060043610610091575f3560e01c806381ed98081161006457806381ed9808146100f7578063893d20e8146101155780639b865b4314610133578063dbd1838814610151578063f2f659601461016f57610091565b806318e3e87f146100955780633e2fe1491461009f5780634fb2e45d146100bd57806361a9ab76146100d9575b5f80fd5b61009d61018b565b005b6100a76103ad565b6040516100b49190610a7d565b60405180910390f35b6100d760048036038101906100d29190610ac4565b6103bb565b005b6100e16104e8565b6040516100ee9190610b07565b60405180910390f35b6100ff6104f6565b60405161010c9190610b07565b60405180910390f35b61011d61051a565b60405161012a9190610a7d565b60405180910390f35b61013b610528565b6040516101489190610baa565b60405180910390f35b610159610561565b6040516101669190610b07565b60405180910390f35b61018960048036038101906101849190610bf4565b61056f565b005b6101936106bc565b73ffffffffffffffffffffffffffffffffffffffff166101b16106c3565b73ffffffffffffffffffffffffffffffffffffffff16146101d5576101d4610734565b5b426101de610778565b1015610228576101ec6106bc565b6040517fefabbdc600000000000000000000000000000000000000000000000000000000815260040161021f9190610a7d565b60405180910390fd5b5f6102316106c3565b905073__$ea2bfd386ba84ea2bcf9bcd47bb5c25cd7$__63592bd705826040518263ffffffff1660e01b815260040161026a9190610c2e565b5f6040518083038186803b158015610280575f80fd5b505af4158015610292573d5f803e3d5ffd5b5050505073__$ea2bfd386ba84ea2bcf9bcd47bb5c25cd7$__6334b8160c5f6040518263ffffffff1660e01b81526004016102cd9190610c2e565b5f6040518083038186803b1580156102e3575f80fd5b505af41580156102f5573d5f803e3d5ffd5b5050505073__$ea2bfd386ba84ea2bcf9bcd47bb5c25cd7$__63fdb0afee5f6040518263ffffffff1660e01b81526004016103309190610c89565b5f6040518083038186803b158015610346575f80fd5b505af4158015610358573d5f803e3d5ffd5b505050508073ffffffffffffffffffffffffffffffffffffffff167fba63841a7533a3a83852e6bd791045210d9e961d32ec380162bcd5d1d6fe1212426040516103a29190610b07565b60405180910390a250565b5f6103b66106c3565b905090565b6103c36106bc565b73ffffffffffffffffffffffffffffffffffffffff166103e16107e9565b73ffffffffffffffffffffffffffffffffffffffff161461040557610404610734565b5b61040e8161085a565b73__$ea2bfd386ba84ea2bcf9bcd47bb5c25cd7$__6334b8160c826040518263ffffffff1660e01b81526004016104459190610c2e565b5f6040518083038186803b15801561045b575f80fd5b505af415801561046d573d5f803e3d5ffd5b5050505061047961090c565b8073ffffffffffffffffffffffffffffffffffffffff166104986106bc565b73ffffffffffffffffffffffffffffffffffffffff167f8dbb839c92a52a1b41b96c2376318a45b974066df935981e08419bd7a0ae1500426040516104dd9190610b07565b60405180910390a350565b5f6104f1610778565b905090565b7f000000000000000000000000000000000000000000000000000000000000000081565b5f6105236107e9565b905090565b6040518060400160405280600781526020017f4f776e61626c650000000000000000000000000000000000000000000000000081525081565b5f61056a6109cd565b905090565b6105776106bc565b73ffffffffffffffffffffffffffffffffffffffff166105956107e9565b73ffffffffffffffffffffffffffffffffffffffff16146105b9576105b8610734565b5b62093a8081111561060157806040517fa253bc700000000000000000000000000000000000000000000000000000000081526004016105f89190610b07565b60405180910390fd5b73__$ea2bfd386ba84ea2bcf9bcd47bb5c25cd7$__63f2f65960826040518263ffffffff1660e01b81526004016106389190610cb1565b5f6040518083038186803b15801561064e575f80fd5b505af4158015610660573d5f803e3d5ffd5b5050505061066c6106bc565b73ffffffffffffffffffffffffffffffffffffffff167fbb4e769c8bec1bf5b9cbb403afd41b6826b52ba0d1ad04b1d4a6f06eae96b563826040516106b19190610b07565b60405180910390a250565b5f33905090565b5f73__$ea2bfd386ba84ea2bcf9bcd47bb5c25cd7$__633e2fe1496040518163ffffffff1660e01b8152600401602060405180830381865af415801561070b573d5f803e3d5ffd5b505050506040513d601f19601f8201168201806040525081019061072f9190610cde565b905090565b61073c6106bc565b6040517f0504a20d00000000000000000000000000000000000000000000000000000000815260040161076f9190610a7d565b60405180910390fd5b5f73__$ea2bfd386ba84ea2bcf9bcd47bb5c25cd7$__6361a9ab766040518163ffffffff1660e01b8152600401602060405180830381865af41580156107c0573d5f803e3d5ffd5b505050506040513d601f19601f820116820180604052508101906107e49190610d1d565b905090565b5f73__$ea2bfd386ba84ea2bcf9bcd47bb5c25cd7$__63893d20e86040518163ffffffff1660e01b8152600401602060405180830381865af4158015610831573d5f803e3d5ffd5b505050506040513d601f19601f820116820180604052508101906108559190610cde565b905090565b6108626106bc565b73ffffffffffffffffffffffffffffffffffffffff166108806107e9565b73ffffffffffffffffffffffffffffffffffffffff16146108a4576108a3610734565b5b5f73ffffffffffffffffffffffffffffffffffffffff168173ffffffffffffffffffffffffffffffffffffffff1603610909576040517f7138356f00000000000000000000000000000000000000000000000000000000815260040160405180910390fd5b50565b6109146106bc565b73ffffffffffffffffffffffffffffffffffffffff166109326107e9565b73ffffffffffffffffffffffffffffffffffffffff161461095657610955610734565b5b73__$ea2bfd386ba84ea2bcf9bcd47bb5c25cd7$__63fdb0afee6109786109cd565b426109839190610d75565b6040518263ffffffff1660e01b815260040161099f9190610cb1565b5f6040518083038186803b1580156109b5575f80fd5b505af41580156109c7573d5f803e3d5ffd5b50505050565b5f73__$ea2bfd386ba84ea2bcf9bcd47bb5c25cd7$__63dbd183886040518163ffffffff1660e01b8152600401602060405180830381865af4158015610a15573d5f803e3d5ffd5b505050506040513d601f19601f82011682018060405250810190610a399190610d1d565b905090565b5f73ffffffffffffffffffffffffffffffffffffffff82169050919050565b5f610a6782610a3e565b9050919050565b610a7781610a5d565b82525050565b5f602082019050610a905f830184610a6e565b92915050565b5f80fd5b610aa381610a5d565b8114610aad575f80fd5b50565b5f81359050610abe81610a9a565b92915050565b5f60208284031215610ad957610ad8610a96565b5b5f610ae684828501610ab0565b91505092915050565b5f819050919050565b610b0181610aef565b82525050565b5f602082019050610b1a5f830184610af8565b92915050565b5f81519050919050565b5f82825260208201905092915050565b5f5b83811015610b57578082015181840152602081019050610b3c565b5f8484015250505050565b5f601f19601f8301169050919050565b5f610b7c82610b20565b610b868185610b2a565b9350610b96818560208601610b3a565b610b9f81610b62565b840191505092915050565b5f6020820190508181035f830152610bc28184610b72565b905092915050565b610bd381610aef565b8114610bdd575f80fd5b50565b5f81359050610bee81610bca565b92915050565b5f60208284031215610c0957610c08610a96565b5b5f610c1684828501610be0565b91505092915050565b610c2881610a5d565b82525050565b5f602082019050610c415f830184610c1f565b92915050565b5f819050919050565b5f819050919050565b5f610c73610c6e610c6984610c47565b610c50565b610aef565b9050919050565b610c8381610c59565b82525050565b5f602082019050610c9c5f830184610c7a565b92915050565b610cab81610aef565b82525050565b5f602082019050610cc45f830184610ca2565b92915050565b5f81519050610cd881610a9a565b92915050565b5f60208284031215610cf357610cf2610a96565b5b5f610d0084828501610cca565b91505092915050565b5f81519050610d1781610bca565b92915050565b5f60208284031215610d3257610d31610a96565b5b5f610d3f84828501610d09565b91505092915050565b7f4e487b71000000000000000000000000000000000000000000000000000000005f52601160045260245ffd5b5f610d7f82610aef565b9150610d8a83610aef565b9250828201905080821115610da257610da1610d48565b5b9291505056fea26469706673582212201b50b9a77b3ba1d1df5d94572e4633d6383e42c9b0ddf69cd46d81b8c6df9d7f64736f6c63430008140033",
					"opcodes": "PUSH1 0xA0 PUSH1 0x40 MSTORE PUSH3 0x18 PUSH1 0x1 PUSH0 DUP1 PUSH3 0x111 PUSH1 0x20 SHL PUSH1 0x20 SHR JUMP JUMPDEST PUSH1 0x80 SWAP1 DUP2 MSTORE POP CALLVALUE DUP1 ISZERO PUSH3 0x2A JUMPI PUSH0 DUP1 REVERT JUMPDEST POP PUSH20 0x0 PUSH4 0x592BD705 PUSH3 0x55 PUSH3 0x13A PUSH1 0x20 SHL PUSH1 0x20 SHR JUMP JUMPDEST PUSH1 0x40 MLOAD DUP3 PUSH4 0xFFFFFFFF AND PUSH1 0xE0 SHL DUP2 MSTORE PUSH1 0x4 ADD PUSH3 0x73 SWAP2 SWAP1 PUSH3 0x184 JUMP JUMPDEST PUSH0 PUSH1 0x40 MLOAD DUP1 DUP4 SUB DUP2 DUP7 DUP1 EXTCODESIZE ISZERO DUP1 ISZERO PUSH3 0x8A JUMPI PUSH0 DUP1 REVERT JUMPDEST POP GAS DELEGATECALL ISZERO DUP1 ISZERO PUSH3 0x9D JUMPI RETURNDATASIZE PUSH0 DUP1 RETURNDATACOPY RETURNDATASIZE PUSH0 REVERT JUMPDEST POP POP POP POP PUSH20 0x0 PUSH4 0xF2F65960 PUSH3 0x15180 PUSH1 0x40 MLOAD DUP3 PUSH4 0xFFFFFFFF AND PUSH1 0xE0 SHL DUP2 MSTORE PUSH1 0x4 ADD PUSH3 0xDD SWAP2 SWAP1 PUSH3 0x1B9 JUMP JUMPDEST PUSH0 PUSH1 0x40 MLOAD DUP1 DUP4 SUB DUP2 DUP7 DUP1 EXTCODESIZE ISZERO DUP1 ISZERO PUSH3 0xF4 JUMPI PUSH0 DUP1 REVERT JUMPDEST POP GAS DELEGATECALL ISZERO DUP1 ISZERO PUSH3 0x107 JUMPI RETURNDATASIZE PUSH0 DUP1 RETURNDATACOPY RETURNDATASIZE PUSH0 REVERT JUMPDEST POP POP POP POP PUSH3 0x1D4 JUMP JUMPDEST PUSH0 DUP2 PUSH4 0xFFFFFFFF AND PUSH1 0x20 DUP5 PUSH4 0xFFFFFFFF AND SWAP1 SHL PUSH1 0x40 DUP7 PUSH4 0xFFFFFFFF AND SWAP1 SHL OR OR SWAP1 POP SWAP4 SWAP3 POP POP POP JUMP JUMPDEST PUSH0 CALLER SWAP1 POP SWAP1 JUMP JUMPDEST PUSH0 PUSH20 0xFFFFFFFFFFFFFFFFFFFFFFFFFFFFFFFFFFFFFFFF DUP3 AND SWAP1 POP SWAP2 SWAP1 POP JUMP JUMPDEST PUSH0 PUSH3 0x16C DUP3 PUSH3 0x141 JUMP JUMPDEST SWAP1 POP SWAP2 SWAP1 POP JUMP JUMPDEST PUSH3 0x17E DUP2 PUSH3 0x160 JUMP JUMPDEST DUP3 MSTORE POP POP JUMP JUMPDEST PUSH0 PUSH1 0x20 DUP3 ADD SWAP1 POP PUSH3 0x199 PUSH0 DUP4 ADD DUP5 PUSH3 0x173 JUMP JUMPDEST SWAP3 SWAP2 POP POP JUMP JUMPDEST PUSH0 DUP2 SWAP1 POP SWAP2 SWAP1 POP JUMP JUMPDEST PUSH3 0x1B3 DUP2 PUSH3 0x19F JUMP JUMPDEST DUP3 MSTORE POP POP JUMP JUMPDEST PUSH0 PUSH1 0x20 DUP3 ADD SWAP1 POP PUSH3 0x1CE PUSH0 DUP4 ADD DUP5 PUSH3 0x1A8 JUMP JUMPDEST SWAP3 SWAP2 POP POP JUMP JUMPDEST PUSH1 0x80 MLOAD PUSH2 0xDDE PUSH3 0x1ED PUSH0 CODECOPY PUSH0 PUSH2 0x4F8 ADD MSTORE PUSH2 0xDDE PUSH0 RETURN INVALID PUSH1 0x80 PUSH1 0x40 MSTORE CALLVALUE DUP1 ISZERO PUSH2 0xF JUMPI PUSH0 DUP1 REVERT JUMPDEST POP PUSH1 0x4 CALLDATASIZE LT PUSH2 0x91 JUMPI PUSH0 CALLDATALOAD PUSH1 0xE0 SHR DUP1 PUSH4 0x81ED9808 GT PUSH2 0x64 JUMPI DUP1 PUSH4 0x81ED9808 EQ PUSH2 0xF7 JUMPI DUP1 PUSH4 0x893D20E8 EQ PUSH2 0x115 JUMPI DUP1 PUSH4 0x9B865B43 EQ PUSH2 0x133 JUMPI DUP1 PUSH4 0xDBD18388 EQ PUSH2 0x151 JUMPI DUP1 PUSH4 0xF2F65960 EQ PUSH2 0x16F JUMPI PUSH2 0x91 JUMP JUMPDEST DUP1 PUSH4 0x18E3E87F EQ PUSH2 0x95 JUMPI DUP1 PUSH4 0x3E2FE149 EQ PUSH2 0x9F JUMPI DUP1 PUSH4 0x4FB2E45D EQ PUSH2 0xBD JUMPI DUP1 PUSH4 0x61A9AB76 EQ PUSH2 0xD9 JUMPI JUMPDEST PUSH0 DUP1 REVERT JUMPDEST PUSH2 0x9D PUSH2 0x18B JUMP JUMPDEST STOP JUMPDEST PUSH2 0xA7 PUSH2 0x3AD JUMP JUMPDEST PUSH1 0x40 MLOAD PUSH2 0xB4 SWAP2 SWAP1 PUSH2 0xA7D JUMP JUMPDEST PUSH1 0x40 MLOAD DUP1 SWAP2 SUB SWAP1 RETURN JUMPDEST PUSH2 0xD7 PUSH1 0x4 DUP1 CALLDATASIZE SUB DUP2 ADD SWAP1 PUSH2 0xD2 SWAP2 SWAP1 PUSH2 0xAC4 JUMP JUMPDEST PUSH2 0x3BB JUMP JUMPDEST STOP JUMPDEST PUSH2 0xE1 PUSH2 0x4E8 JUMP JUMPDEST PUSH1 0x40 MLOAD PUSH2 0xEE SWAP2 SWAP1 PUSH2 0xB07 JUMP JUMPDEST PUSH1 0x40 MLOAD DUP1 SWAP2 SUB SWAP1 RETURN JUMPDEST PUSH2 0xFF PUSH2 0x4F6 JUMP JUMPDEST PUSH1 0x40 MLOAD PUSH2 0x10C SWAP2 SWAP1 PUSH2 0xB07 JUMP JUMPDEST PUSH1 0x40 MLOAD DUP1 SWAP2 SUB SWAP1 RETURN JUMPDEST PUSH2 0x11D PUSH2 0x51A JUMP JUMPDEST PUSH1 0x40 MLOAD PUSH2 0x12A SWAP2 SWAP1 PUSH2 0xA7D JUMP JUMPDEST PUSH1 0x40 MLOAD DUP1 SWAP2 SUB SWAP1 RETURN JUMPDEST PUSH2 0x13B PUSH2 0x528 JUMP JUMPDEST PUSH1 0x40 MLOAD PUSH2 0x148 SWAP2 SWAP1 PUSH2 0xBAA JUMP JUMPDEST PUSH1 0x40 MLOAD DUP1 SWAP2 SUB SWAP1 RETURN JUMPDEST PUSH2 0x159 PUSH2 0x561 JUMP JUMPDEST PUSH1 0x40 MLOAD PUSH2 0x166 SWAP2 SWAP1 PUSH2 0xB07 JUMP JUMPDEST PUSH1 0x40 MLOAD DUP1 SWAP2 SUB SWAP1 RETURN JUMPDEST PUSH2 0x189 PUSH1 0x4 DUP1 CALLDATASIZE SUB DUP2 ADD SWAP1 PUSH2 0x184 SWAP2 SWAP1 PUSH2 0xBF4 JUMP JUMPDEST PUSH2 0x56F JUMP JUMPDEST STOP JUMPDEST PUSH2 0x193 PUSH2 0x6BC JUMP JUMPDEST PUSH20 0xFFFFFFFFFFFFFFFFFFFFFFFFFFFFFFFFFFFFFFFF AND PUSH2 0x1B1 PUSH2 0x6C3 JUMP JUMPDEST PUSH20 0xFFFFFFFFFFFFFFFFFFFFFFFFFFFFFFFFFFFFFFFF AND EQ PUSH2 0x1D5 JUMPI PUSH2 0x1D4 PUSH2 0x734 JUMP JUMPDEST JUMPDEST TIMESTAMP PUSH2 0x1DE PUSH2 0x778 JUMP JUMPDEST LT ISZERO PUSH2 0x228 JUMPI PUSH2 0x1EC PUSH2 0x6BC JUMP JUMPDEST PUSH1 0x40 MLOAD PUSH32 0xEFABBDC600000000000000000000000000000000000000000000000000000000 DUP2 MSTORE PUSH1 0x4 ADD PUSH2 0x21F SWAP2 SWAP1 PUSH2 0xA7D JUMP JUMPDEST PUSH1 0x40 MLOAD DUP1 SWAP2 SUB SWAP1 REVERT JUMPDEST PUSH0 PUSH2 0x231 PUSH2 0x6C3 JUMP JUMPDEST SWAP1 POP PUSH20 0x0 PUSH4 0x592BD705 DUP3 PUSH1 0x40 MLOAD DUP3 PUSH4 0xFFFFFFFF AND PUSH1 0xE0 SHL DUP2 MSTORE PUSH1 0x4 ADD PUSH2 0x26A SWAP2 SWAP1 PUSH2 0xC2E JUMP JUMPDEST PUSH0 PUSH1 0x40 MLOAD DUP1 DUP4 SUB DUP2 DUP7 DUP1 EXTCODESIZE ISZERO DUP1 ISZERO PUSH2 0x280 JUMPI PUSH0 DUP1 REVERT JUMPDEST POP GAS DELEGATECALL ISZERO DUP1 ISZERO PUSH2 0x292 JUMPI RETURNDATASIZE PUSH0 DUP1 RETURNDATACOPY RETURNDATASIZE PUSH0 REVERT JUMPDEST POP POP POP POP PUSH20 0x0 PUSH4 0x34B8160C PUSH0 PUSH1 0x40 MLOAD DUP3 PUSH4 0xFFFFFFFF AND PUSH1 0xE0 SHL DUP2 MSTORE PUSH1 0x4 ADD PUSH2 0x2CD SWAP2 SWAP1 PUSH2 0xC2E JUMP JUMPDEST PUSH0 PUSH1 0x40 MLOAD DUP1 DUP4 SUB DUP2 DUP7 DUP1 EXTCODESIZE ISZERO DUP1 ISZERO PUSH2 0x2E3 JUMPI PUSH0 DUP1 REVERT JUMPDEST POP GAS DELEGATECALL ISZERO DUP1 ISZERO PUSH2 0x2F5 JUMPI RETURNDATASIZE PUSH0 DUP1 RETURNDATACOPY RETURNDATASIZE PUSH0 REVERT JUMPDEST POP POP POP POP PUSH20 0x0 PUSH4 0xFDB0AFEE PUSH0 PUSH1 0x40 MLOAD DUP3 PUSH4 0xFFFFFFFF AND PUSH1 0xE0 SHL DUP2 MSTORE PUSH1 0x4 ADD PUSH2 0x330 SWAP2 SWAP1 PUSH2 0xC89 JUMP JUMPDEST PUSH0 PUSH1 0x40 MLOAD DUP1 DUP4 SUB DUP2 DUP7 DUP1 EXTCODESIZE ISZERO DUP1 ISZERO PUSH2 0x346 JUMPI PUSH0 DUP1 REVERT JUMPDEST POP GAS DELEGATECALL ISZERO DUP1 ISZERO PUSH2 0x358 JUMPI RETURNDATASIZE PUSH0 DUP1 RETURNDATACOPY RETURNDATASIZE PUSH0 REVERT JUMPDEST POP POP POP POP DUP1 PUSH20 0xFFFFFFFFFFFFFFFFFFFFFFFFFFFFFFFFFFFFFFFF AND PUSH32 0xBA63841A7533A3A83852E6BD791045210D9E961D32EC380162BCD5D1D6FE1212 TIMESTAMP PUSH1 0x40 MLOAD PUSH2 0x3A2 SWAP2 SWAP1 PUSH2 0xB07 JUMP JUMPDEST PUSH1 0x40 MLOAD DUP1 SWAP2 SUB SWAP1 LOG2 POP JUMP JUMPDEST PUSH0 PUSH2 0x3B6 PUSH2 0x6C3 JUMP JUMPDEST SWAP1 POP SWAP1 JUMP JUMPDEST PUSH2 0x3C3 PUSH2 0x6BC JUMP JUMPDEST PUSH20 0xFFFFFFFFFFFFFFFFFFFFFFFFFFFFFFFFFFFFFFFF AND PUSH2 0x3E1 PUSH2 0x7E9 JUMP JUMPDEST PUSH20 0xFFFFFFFFFFFFFFFFFFFFFFFFFFFFFFFFFFFFFFFF AND EQ PUSH2 0x405 JUMPI PUSH2 0x404 PUSH2 0x734 JUMP JUMPDEST JUMPDEST PUSH2 0x40E DUP2 PUSH2 0x85A JUMP JUMPDEST PUSH20 0x0 PUSH4 0x34B8160C DUP3 PUSH1 0x40 MLOAD DUP3 PUSH4 0xFFFFFFFF AND PUSH1 0xE0 SHL DUP2 MSTORE PUSH1 0x4 ADD PUSH2 0x445 SWAP2 SWAP1 PUSH2 0xC2E JUMP JUMPDEST PUSH0 PUSH1 0x40 MLOAD DUP1 DUP4 SUB DUP2 DUP7 DUP1 EXTCODESIZE ISZERO DUP1 ISZERO PUSH2 0x45B JUMPI PUSH0 DUP1 REVERT JUMPDEST POP GAS DELEGATECALL ISZERO DUP1 ISZERO PUSH2 0x46D JUMPI RETURNDATASIZE PUSH0 DUP1 RETURNDATACOPY RETURNDATASIZE PUSH0 REVERT JUMPDEST POP POP POP POP PUSH2 0x479 PUSH2 0x90C JUMP JUMPDEST DUP1 PUSH20 0xFFFFFFFFFFFFFFFFFFFFFFFFFFFFFFFFFFFFFFFF AND PUSH2 0x498 PUSH2 0x6BC JUMP JUMPDEST PUSH20 0xFFFFFFFFFFFFFFFFFFFFFFFFFFFFFFFFFFFFFFFF AND PUSH32 0x8DBB839C92A52A1B41B96C2376318A45B974066DF935981E08419BD7A0AE1500 TIMESTAMP PUSH1 0x40 MLOAD PUSH2 0x4DD SWAP2 SWAP1 PUSH2 0xB07 JUMP JUMPDEST PUSH1 0x40 MLOAD DUP1 SWAP2 SUB SWAP1 LOG3 POP JUMP JUMPDEST PUSH0 PUSH2 0x4F1 PUSH2 0x778 JUMP JUMPDEST SWAP1 POP SWAP1 JUMP JUMPDEST PUSH32 0x0 DUP2 JUMP JUMPDEST PUSH0 PUSH2 0x523 PUSH2 0x7E9 JUMP JUMPDEST SWAP1 POP SWAP1 JUMP JUMPDEST PUSH1 0x40 MLOAD DUP1 PUSH1 0x40 ADD PUSH1 0x40 MSTORE DUP1 PUSH1 0x7 DUP2 MSTORE PUSH1 0x20 ADD PUSH32 0x4F776E61626C6500000000000000000000000000000000000000000000000000 DUP2 MSTORE POP DUP2 JUMP JUMPDEST PUSH0 PUSH2 0x56A PUSH2 0x9CD JUMP JUMPDEST SWAP1 POP SWAP1 JUMP JUMPDEST PUSH2 0x577 PUSH2 0x6BC JUMP JUMPDEST PUSH20 0xFFFFFFFFFFFFFFFFFFFFFFFFFFFFFFFFFFFFFFFF AND PUSH2 0x595 PUSH2 0x7E9 JUMP JUMPDEST PUSH20 0xFFFFFFFFFFFFFFFFFFFFFFFFFFFFFFFFFFFFFFFF AND EQ PUSH2 0x5B9 JUMPI PUSH2 0x5B8 PUSH2 0x734 JUMP JUMPDEST JUMPDEST PUSH3 0x93A80 DUP2 GT ISZERO PUSH2 0x601 JUMPI DUP1 PUSH1 0x40 MLOAD PUSH32 0xA253BC7000000000000000000000000000000000000000000000000000000000 DUP2 MSTORE PUSH1 0x4 ADD PUSH2 0x5F8 SWAP2 SWAP1 PUSH2 0xB07 JUMP JUMPDEST PUSH1 0x40 MLOAD DUP1 SWAP2 SUB SWAP1 REVERT JUMPDEST PUSH20 0x0 PUSH4 0xF2F65960 DUP3 PUSH1 0x40 MLOAD DUP3 PUSH4 0xFFFFFFFF AND PUSH1 0xE0 SHL DUP2 MSTORE PUSH1 0x4 ADD PUSH2 0x638 SWAP2 SWAP1 PUSH2 0xCB1 JUMP JUMPDEST PUSH0 PUSH1 0x40 MLOAD DUP1 DUP4 SUB DUP2 DUP7 DUP1 EXTCODESIZE ISZERO DUP1 ISZERO PUSH2 0x64E JUMPI PUSH0 DUP1 REVERT JUMPDEST POP GAS DELEGATECALL ISZERO DUP1 ISZERO PUSH2 0x660 JUMPI RETURNDATASIZE PUSH0 DUP1 RETURNDATACOPY RETURNDATASIZE PUSH0 REVERT JUMPDEST POP POP POP POP PUSH2 0x66C PUSH2 0x6BC JUMP JUMPDEST PUSH20 0xFFFFFFFFFFFFFFFFFFFFFFFFFFFFFFFFFFFFFFFF AND PUSH32 0xBB4E769C8BEC1BF5B9CBB403AFD41B6826B52BA0D1AD04B1D4A6F06EAE96B563 DUP3 PUSH1 0x40 MLOAD PUSH2 0x6B1 SWAP2 SWAP1 PUSH2 0xB07 JUMP JUMPDEST PUSH1 0x40 MLOAD DUP1 SWAP2 SUB SWAP1 LOG2 POP JUMP JUMPDEST PUSH0 CALLER SWAP1 POP SWAP1 JUMP JUMPDEST PUSH0 PUSH20 0x0 PUSH4 0x3E2FE149 PUSH1 0x40 MLOAD DUP2 PUSH4 0xFFFFFFFF AND PUSH1 0xE0 SHL DUP2 MSTORE PUSH1 0x4 ADD PUSH1 0x20 PUSH1 0x40 MLOAD DUP1 DUP4 SUB DUP2 DUP7 GAS DELEGATECALL ISZERO DUP1 ISZERO PUSH2 0x70B JUMPI RETURNDATASIZE PUSH0 DUP1 RETURNDATACOPY RETURNDATASIZE PUSH0 REVERT JUMPDEST POP POP POP POP PUSH1 0x40 MLOAD RETURNDATASIZE PUSH1 0x1F NOT PUSH1 0x1F DUP3 ADD AND DUP3 ADD DUP1 PUSH1 0x40 MSTORE POP DUP2 ADD SWAP1 PUSH2 0x72F SWAP2 SWAP1 PUSH2 0xCDE JUMP JUMPDEST SWAP1 POP SWAP1 JUMP JUMPDEST PUSH2 0x73C PUSH2 0x6BC JUMP JUMPDEST PUSH1 0x40 MLOAD PUSH32 0x504A20D00000000000000000000000000000000000000000000000000000000 DUP2 MSTORE PUSH1 0x4 ADD PUSH2 0x76F SWAP2 SWAP1 PUSH2 0xA7D JUMP JUMPDEST PUSH1 0x40 MLOAD DUP1 SWAP2 SUB SWAP1 REVERT JUMPDEST PUSH0 PUSH20 0x0 PUSH4 0x61A9AB76 PUSH1 0x40 MLOAD DUP2 PUSH4 0xFFFFFFFF AND PUSH1 0xE0 SHL DUP2 MSTORE PUSH1 0x4 ADD PUSH1 0x20 PUSH1 0x40 MLOAD DUP1 DUP4 SUB DUP2 DUP7 GAS DELEGATECALL ISZERO DUP1 ISZERO PUSH2 0x7C0 JUMPI RETURNDATASIZE PUSH0 DUP1 RETURNDATACOPY RETURNDATASIZE PUSH0 REVERT JUMPDEST POP POP POP POP PUSH1 0x40 MLOAD RETURNDATASIZE PUSH1 0x1F NOT PUSH1 0x1F DUP3 ADD AND DUP3 ADD DUP1 PUSH1 0x40 MSTORE POP DUP2 ADD SWAP1 PUSH2 0x7E4 SWAP2 SWAP1 PUSH2 0xD1D JUMP JUMPDEST SWAP1 POP SWAP1 JUMP JUMPDEST PUSH0 PUSH20 0x0 PUSH4 0x893D20E8 PUSH1 0x40 MLOAD DUP2 PUSH4 0xFFFFFFFF AND PUSH1 0xE0 SHL DUP2 MSTORE PUSH1 0x4 ADD PUSH1 0x20 PUSH1 0x40 MLOAD DUP1 DUP4 SUB DUP2 DUP7 GAS DELEGATECALL ISZERO DUP1 ISZERO PUSH2 0x831 JUMPI RETURNDATASIZE PUSH0 DUP1 RETURNDATACOPY RETURNDATASIZE PUSH0 REVERT JUMPDEST POP POP POP POP PUSH1 0x40 MLOAD RETURNDATASIZE PUSH1 0x1F NOT PUSH1 0x1F DUP3 ADD AND DUP3 ADD DUP1 PUSH1 0x40 MSTORE POP DUP2 ADD SWAP1 PUSH2 0x855 SWAP2 SWAP1 PUSH2 0xCDE JUMP JUMPDEST SWAP1 POP SWAP1 JUMP JUMPDEST PUSH2 0x862 PUSH2 0x6BC JUMP JUMPDEST PUSH20 0xFFFFFFFFFFFFFFFFFFFFFFFFFFFFFFFFFFFFFFFF AND PUSH2 0x880 PUSH2 0x7E9 JUMP JUMPDEST PUSH20 0xFFFFFFFFFFFFFFFFFFFFFFFFFFFFFFFFFFFFFFFF AND EQ PUSH2 0x8A4 JUMPI PUSH2 0x8A3 PUSH2 0x734 JUMP JUMPDEST JUMPDEST PUSH0 PUSH20 0xFFFFFFFFFFFFFFFFFFFFFFFFFFFFFFFFFFFFFFFF AND DUP2 PUSH20 0xFFFFFFFFFFFFFFFFFFFFFFFFFFFFFFFFFFFFFFFF AND SUB PUSH2 0x909 JUMPI PUSH1 0x40 MLOAD PUSH32 0x7138356F00000000000000000000000000000000000000000000000000000000 DUP2 MSTORE PUSH1 0x4 ADD PUSH1 0x40 MLOAD DUP1 SWAP2 SUB SWAP1 REVERT JUMPDEST POP JUMP JUMPDEST PUSH2 0x914 PUSH2 0x6BC JUMP JUMPDEST PUSH20 0xFFFFFFFFFFFFFFFFFFFFFFFFFFFFFFFFFFFFFFFF AND PUSH2 0x932 PUSH2 0x7E9 JUMP JUMPDEST PUSH20 0xFFFFFFFFFFFFFFFFFFFFFFFFFFFFFFFFFFFFFFFF AND EQ PUSH2 0x956 JUMPI PUSH2 0x955 PUSH2 0x734 JUMP JUMPDEST JUMPDEST PUSH20 0x0 PUSH4 0xFDB0AFEE PUSH2 0x978 PUSH2 0x9CD JUMP JUMPDEST TIMESTAMP PUSH2 0x983 SWAP2 SWAP1 PUSH2 0xD75 JUMP JUMPDEST PUSH1 0x40 MLOAD DUP3 PUSH4 0xFFFFFFFF AND PUSH1 0xE0 SHL DUP2 MSTORE PUSH1 0x4 ADD PUSH2 0x99F SWAP2 SWAP1 PUSH2 0xCB1 JUMP JUMPDEST PUSH0 PUSH1 0x40 MLOAD DUP1 DUP4 SUB DUP2 DUP7 DUP1 EXTCODESIZE ISZERO DUP1 ISZERO PUSH2 0x9B5 JUMPI PUSH0 DUP1 REVERT JUMPDEST POP GAS DELEGATECALL ISZERO DUP1 ISZERO PUSH2 0x9C7 JUMPI RETURNDATASIZE PUSH0 DUP1 RETURNDATACOPY RETURNDATASIZE PUSH0 REVERT JUMPDEST POP POP POP POP JUMP JUMPDEST PUSH0 PUSH20 0x0 PUSH4 0xDBD18388 PUSH1 0x40 MLOAD DUP2 PUSH4 0xFFFFFFFF AND PUSH1 0xE0 SHL DUP2 MSTORE PUSH1 0x4 ADD PUSH1 0x20 PUSH1 0x40 MLOAD DUP1 DUP4 SUB DUP2 DUP7 GAS DELEGATECALL ISZERO DUP1 ISZERO PUSH2 0xA15 JUMPI RETURNDATASIZE PUSH0 DUP1 RETURNDATACOPY RETURNDATASIZE PUSH0 REVERT JUMPDEST POP POP POP POP PUSH1 0x40 MLOAD RETURNDATASIZE PUSH1 0x1F NOT PUSH1 0x1F DUP3 ADD AND DUP3 ADD DUP1 PUSH1 0x40 MSTORE POP DUP2 ADD SWAP1 PUSH2 0xA39 SWAP2 SWAP1 PUSH2 0xD1D JUMP JUMPDEST SWAP1 POP SWAP1 JUMP JUMPDEST PUSH0 PUSH20 0xFFFFFFFFFFFFFFFFFFFFFFFFFFFFFFFFFFFFFFFF DUP3 AND SWAP1 POP SWAP2 SWAP1 POP JUMP JUMPDEST PUSH0 PUSH2 0xA67 DUP3 PUSH2 0xA3E JUMP JUMPDEST SWAP1 POP SWAP2 SWAP1 POP JUMP JUMPDEST PUSH2 0xA77 DUP2 PUSH2 0xA5D JUMP JUMPDEST DUP3 MSTORE POP POP JUMP JUMPDEST PUSH0 PUSH1 0x20 DUP3 ADD SWAP1 POP PUSH2 0xA90 PUSH0 DUP4 ADD DUP5 PUSH2 0xA6E JUMP JUMPDEST SWAP3 SWAP2 POP POP JUMP JUMPDEST PUSH0 DUP1 REVERT JUMPDEST PUSH2 0xAA3 DUP2 PUSH2 0xA5D JUMP JUMPDEST DUP2 EQ PUSH2 0xAAD JUMPI PUSH0 DUP1 REVERT JUMPDEST POP JUMP JUMPDEST PUSH0 DUP2 CALLDATALOAD SWAP1 POP PUSH2 0xABE DUP2 PUSH2 0xA9A JUMP JUMPDEST SWAP3 SWAP2 POP POP JUMP JUMPDEST PUSH0 PUSH1 0x20 DUP3 DUP5 SUB SLT ISZERO PUSH2 0xAD9 JUMPI PUSH2 0xAD8 PUSH2 0xA96 JUMP JUMPDEST JUMPDEST PUSH0 PUSH2 0xAE6 DUP5 DUP3 DUP6 ADD PUSH2 0xAB0 JUMP JUMPDEST SWAP2 POP POP SWAP3 SWAP2 POP POP JUMP JUMPDEST PUSH0 DUP2 SWAP1 POP SWAP2 SWAP1 POP JUMP JUMPDEST PUSH2 0xB01 DUP2 PUSH2 0xAEF JUMP JUMPDEST DUP3 MSTORE POP POP JUMP JUMPDEST PUSH0 PUSH1 0x20 DUP3 ADD SWAP1 POP PUSH2 0xB1A PUSH0 DUP4 ADD DUP5 PUSH2 0xAF8 JUMP JUMPDEST SWAP3 SWAP2 POP POP JUMP JUMPDEST PUSH0 DUP2 MLOAD SWAP1 POP SWAP2 SWAP1 POP JUMP JUMPDEST PUSH0 DUP3 DUP3 MSTORE PUSH1 0x20 DUP3 ADD SWAP1 POP SWAP3 SWAP2 POP POP JUMP JUMPDEST PUSH0 JUMPDEST DUP4 DUP2 LT ISZERO PUSH2 0xB57 JUMPI DUP1 DUP3 ADD MLOAD DUP2 DUP5 ADD MSTORE PUSH1 0x20 DUP2 ADD SWAP1 POP PUSH2 0xB3C JUMP JUMPDEST PUSH0 DUP5 DUP5 ADD MSTORE POP POP POP POP JUMP JUMPDEST PUSH0 PUSH1 0x1F NOT PUSH1 0x1F DUP4 ADD AND SWAP1 POP SWAP2 SWAP1 POP JUMP JUMPDEST PUSH0 PUSH2 0xB7C DUP3 PUSH2 0xB20 JUMP JUMPDEST PUSH2 0xB86 DUP2 DUP6 PUSH2 0xB2A JUMP JUMPDEST SWAP4 POP PUSH2 0xB96 DUP2 DUP6 PUSH1 0x20 DUP7 ADD PUSH2 0xB3A JUMP JUMPDEST PUSH2 0xB9F DUP2 PUSH2 0xB62 JUMP JUMPDEST DUP5 ADD SWAP2 POP POP SWAP3 SWAP2 POP POP JUMP JUMPDEST PUSH0 PUSH1 0x20 DUP3 ADD SWAP1 POP DUP2 DUP2 SUB PUSH0 DUP4 ADD MSTORE PUSH2 0xBC2 DUP2 DUP5 PUSH2 0xB72 JUMP JUMPDEST SWAP1 POP SWAP3 SWAP2 POP POP JUMP JUMPDEST PUSH2 0xBD3 DUP2 PUSH2 0xAEF JUMP JUMPDEST DUP2 EQ PUSH2 0xBDD JUMPI PUSH0 DUP1 REVERT JUMPDEST POP JUMP JUMPDEST PUSH0 DUP2 CALLDATALOAD SWAP1 POP PUSH2 0xBEE DUP2 PUSH2 0xBCA JUMP JUMPDEST SWAP3 SWAP2 POP POP JUMP JUMPDEST PUSH0 PUSH1 0x20 DUP3 DUP5 SUB SLT ISZERO PUSH2 0xC09 JUMPI PUSH2 0xC08 PUSH2 0xA96 JUMP JUMPDEST JUMPDEST PUSH0 PUSH2 0xC16 DUP5 DUP3 DUP6 ADD PUSH2 0xBE0 JUMP JUMPDEST SWAP2 POP POP SWAP3 SWAP2 POP POP JUMP JUMPDEST PUSH2 0xC28 DUP2 PUSH2 0xA5D JUMP JUMPDEST DUP3 MSTORE POP POP JUMP JUMPDEST PUSH0 PUSH1 0x20 DUP3 ADD SWAP1 POP PUSH2 0xC41 PUSH0 DUP4 ADD DUP5 PUSH2 0xC1F JUMP JUMPDEST SWAP3 SWAP2 POP POP JUMP JUMPDEST PUSH0 DUP2 SWAP1 POP SWAP2 SWAP1 POP JUMP JUMPDEST PUSH0 DUP2 SWAP1 POP SWAP2 SWAP1 POP JUMP JUMPDEST PUSH0 PUSH2 0xC73 PUSH2 0xC6E PUSH2 0xC69 DUP5 PUSH2 0xC47 JUMP JUMPDEST PUSH2 0xC50 JUMP JUMPDEST PUSH2 0xAEF JUMP JUMPDEST SWAP1 POP SWAP2 SWAP1 POP JUMP JUMPDEST PUSH2 0xC83 DUP2 PUSH2 0xC59 JUMP JUMPDEST DUP3 MSTORE POP POP JUMP JUMPDEST PUSH0 PUSH1 0x20 DUP3 ADD SWAP1 POP PUSH2 0xC9C PUSH0 DUP4 ADD DUP5 PUSH2 0xC7A JUMP JUMPDEST SWAP3 SWAP2 POP POP JUMP JUMPDEST PUSH2 0xCAB DUP2 PUSH2 0xAEF JUMP JUMPDEST DUP3 MSTORE POP POP JUMP JUMPDEST PUSH0 PUSH1 0x20 DUP3 ADD SWAP1 POP PUSH2 0xCC4 PUSH0 DUP4 ADD DUP5 PUSH2 0xCA2 JUMP JUMPDEST SWAP3 SWAP2 POP POP JUMP JUMPDEST PUSH0 DUP2 MLOAD SWAP1 POP PUSH2 0xCD8 DUP2 PUSH2 0xA9A JUMP JUMPDEST SWAP3 SWAP2 POP POP JUMP JUMPDEST PUSH0 PUSH1 0x20 DUP3 DUP5 SUB SLT ISZERO PUSH2 0xCF3 JUMPI PUSH2 0xCF2 PUSH2 0xA96 JUMP JUMPDEST JUMPDEST PUSH0 PUSH2 0xD00 DUP5 DUP3 DUP6 ADD PUSH2 0xCCA JUMP JUMPDEST SWAP2 POP POP SWAP3 SWAP2 POP POP JUMP JUMPDEST PUSH0 DUP2 MLOAD SWAP1 POP PUSH2 0xD17 DUP2 PUSH2 0xBCA JUMP JUMPDEST SWAP3 SWAP2 POP POP JUMP JUMPDEST PUSH0 PUSH1 0x20 DUP3 DUP5 SUB SLT ISZERO PUSH2 0xD32 JUMPI PUSH2 0xD31 PUSH2 0xA96 JUMP JUMPDEST JUMPDEST PUSH0 PUSH2 0xD3F DUP5 DUP3 DUP6 ADD PUSH2 0xD09 JUMP JUMPDEST SWAP2 POP POP SWAP3 SWAP2 POP POP JUMP JUMPDEST PUSH32 0x4E487B7100000000000000000000000000000000000000000000000000000000 PUSH0 MSTORE PUSH1 0x11 PUSH1 0x4 MSTORE PUSH1 0x24 PUSH0 REVERT JUMPDEST PUSH0 PUSH2 0xD7F DUP3 PUSH2 0xAEF JUMP JUMPDEST SWAP2 POP PUSH2 0xD8A DUP4 PUSH2 0xAEF JUMP JUMPDEST SWAP3 POP DUP3 DUP3 ADD SWAP1 POP DUP1 DUP3 GT ISZERO PUSH2 0xDA2 JUMPI PUSH2 0xDA1 PUSH2 0xD48 JUMP JUMPDEST JUMPDEST SWAP3 SWAP2 POP POP JUMP INVALID LOG2 PUSH5 0x6970667358 0x22 SLT KECCAK256 SHL POP 0xB9 0xA7 PUSH28 0x3BA1D1DF5D94572E4633D6383E42C9B0DDF69CD46D81B8C6DF9D7F64 PUSH20 0x6F6C634300081400330000000000000000000000 "
				},
				"gasEstimates": {
					"creation": {
						"codeDepositCost": "710000",
						"executionCost": "infinite",
						"totalCost": "infinite"
					},
					"external": {
						"MODULE_NAME()": "infinite",
						"MODULE_VERSION()": "infinite",
						"getGracePeriod()": "infinite",
						"getNewOwner()": "infinite",
						"getOwner()": "infinite",
						"getTimestampExp()": "infinite",
						"setGracePeriod(uint256)": "infinite",
						"transferNewOwnerAccept()": "infinite",
						"transferOwner(address)": "infinite"
					},
					"internal": {
						"_accessDenied()": "infinite",
						"_checkAddress(address)": "infinite",
						"_getGracePeriod()": "infinite",
						"_getNewOwner()": "infinite",
						"_getOwner()": "infinite",
						"_getTimestampExp()": "infinite",
						"_setTimestampExp()": "infinite"
					}
				},
				"methodIdentifiers": {
					"MODULE_NAME()": "9b865b43",
					"MODULE_VERSION()": "81ed9808",
					"getGracePeriod()": "dbd18388",
					"getNewOwner()": "3e2fe149",
					"getOwner()": "893d20e8",
					"getTimestampExp()": "61a9ab76",
					"setGracePeriod(uint256)": "f2f65960",
					"transferNewOwnerAccept()": "18e3e87f",
					"transferOwner(address)": "4fb2e45d"
				}
			},
			"storageLayout": {
				"storage": [],
				"types": null
			},
			"userdoc": {
				"kind": "user",
				"methods": {},
				"notice": "Библиотека хранилища миксина Ownable*",
				"version": 1
			}
		}
	}
}