{
	"data": {
		"bytecode": {
			"linkReferences": {
				"contracts/storage/LibOwnableStorage.sol": {
					"OwnableStorage": [
						{
							"length": 20,
							"start": 42
						},
						{
							"length": 20,
							"start": 154
						},
						{
							"length": 20,
							"start": 1033
						},
						{
							"length": 20,
							"start": 1132
						},
						{
							"length": 20,
							"start": 1231
						},
						{
							"length": 20,
							"start": 1508
						},
						{
							"length": 20,
							"start": 2007
						},
						{
							"length": 20,
							"start": 2202
						},
						{
							"length": 20,
							"start": 2383
						},
						{
							"length": 20,
							"start": 2496
						},
						{
							"length": 20,
							"start": 2860
						},
						{
							"length": 20,
							"start": 2980
						}
					]
				}
			},
			"object": "60a060405261001660015f5f61010360201b60201c565b608090815250348015610027575f5ffd5b5073__$ea2bfd386ba84ea2bcf9bcd47bb5c25cd7$__63592bd70561005061012c60201b60201c565b6040518263ffffffff1660e01b815260040161006c9190610172565b5f6040518083038186803b158015610082575f5ffd5b505af4158015610094573d5f5f3e3d5ffd5b5050505073__$ea2bfd386ba84ea2bcf9bcd47bb5c25cd7$__63f2f65960620151806040518263ffffffff1660e01b81526004016100d291906101a3565b5f6040518083038186803b1580156100e8575f5ffd5b505af41580156100fa573d5f5f3e3d5ffd5b505050506101bc565b5f8163ffffffff1660208463ffffffff16901b60408663ffffffff16901b171790509392505050565b5f33905090565b5f73ffffffffffffffffffffffffffffffffffffffff82169050919050565b5f61015c82610133565b9050919050565b61016c81610152565b82525050565b5f6020820190506101855f830184610163565b92915050565b5f819050919050565b61019d8161018b565b82525050565b5f6020820190506101b65f830184610194565b92915050565b608051610dc46101d45f395f6104f80152610dc45ff3fe608060405234801561000f575f5ffd5b5060043610610091575f3560e01c806381ed98081161006457806381ed9808146100f7578063893d20e8146101155780639b865b4314610133578063dbd1838814610151578063f2f659601461016f57610091565b806318e3e87f146100955780633e2fe1491461009f5780634fb2e45d146100bd57806361a9ab76146100d9575b5f5ffd5b61009d61018b565b005b6100a76103ad565b6040516100b49190610a7d565b60405180910390f35b6100d760048036038101906100d29190610ac4565b6103bb565b005b6100e16104e8565b6040516100ee9190610b07565b60405180910390f35b6100ff6104f6565b60405161010c9190610b07565b60405180910390f35b61011d61051a565b60405161012a9190610a7d565b60405180910390f35b61013b610528565b6040516101489190610b90565b60405180910390f35b610159610561565b6040516101669190610b07565b60405180910390f35b61018960048036038101906101849190610bda565b61056f565b005b6101936106bc565b73ffffffffffffffffffffffffffffffffffffffff166101b16106c3565b73ffffffffffffffffffffffffffffffffffffffff16146101d5576101d4610734565b5b426101de610778565b1015610228576101ec6106bc565b6040517fefabbdc600000000000000000000000000000000000000000000000000000000815260040161021f9190610a7d565b60405180910390fd5b5f6102316106c3565b905073__$ea2bfd386ba84ea2bcf9bcd47bb5c25cd7$__63592bd705826040518263ffffffff1660e01b815260040161026a9190610c14565b5f6040518083038186803b158015610280575f5ffd5b505af4158015610292573d5f5f3e3d5ffd5b5050505073__$ea2bfd386ba84ea2bcf9bcd47bb5c25cd7$__6334b8160c5f6040518263ffffffff1660e01b81526004016102cd9190610c14565b5f6040518083038186803b1580156102e3575f5ffd5b505af41580156102f5573d5f5f3e3d5ffd5b5050505073__$ea2bfd386ba84ea2bcf9bcd47bb5c25cd7$__63fdb0afee5f6040518263ffffffff1660e01b81526004016103309190610c6f565b5f6040518083038186803b158015610346575f5ffd5b505af4158015610358573d5f5f3e3d5ffd5b505050508073ffffffffffffffffffffffffffffffffffffffff167fba63841a7533a3a83852e6bd791045210d9e961d32ec380162bcd5d1d6fe1212426040516103a29190610b07565b60405180910390a250565b5f6103b66106c3565b905090565b6103c36106bc565b73ffffffffffffffffffffffffffffffffffffffff166103e16107e9565b73ffffffffffffffffffffffffffffffffffffffff161461040557610404610734565b5b61040e8161085a565b73__$ea2bfd386ba84ea2bcf9bcd47bb5c25cd7$__6334b8160c826040518263ffffffff1660e01b81526004016104459190610c14565b5f6040518083038186803b15801561045b575f5ffd5b505af415801561046d573d5f5f3e3d5ffd5b5050505061047961090c565b8073ffffffffffffffffffffffffffffffffffffffff166104986106bc565b73ffffffffffffffffffffffffffffffffffffffff167f8dbb839c92a52a1b41b96c2376318a45b974066df935981e08419bd7a0ae1500426040516104dd9190610b07565b60405180910390a350565b5f6104f1610778565b905090565b7f000000000000000000000000000000000000000000000000000000000000000081565b5f6105236107e9565b905090565b6040518060400160405280600781526020017f4f776e61626c650000000000000000000000000000000000000000000000000081525081565b5f61056a6109cd565b905090565b6105776106bc565b73ffffffffffffffffffffffffffffffffffffffff166105956107e9565b73ffffffffffffffffffffffffffffffffffffffff16146105b9576105b8610734565b5b62093a8081111561060157806040517fa253bc700000000000000000000000000000000000000000000000000000000081526004016105f89190610b07565b60405180910390fd5b73__$ea2bfd386ba84ea2bcf9bcd47bb5c25cd7$__63f2f65960826040518263ffffffff1660e01b81526004016106389190610c97565b5f6040518083038186803b15801561064e575f5ffd5b505af4158015610660573d5f5f3e3d5ffd5b5050505061066c6106bc565b73ffffffffffffffffffffffffffffffffffffffff167fbb4e769c8bec1bf5b9cbb403afd41b6826b52ba0d1ad04b1d4a6f06eae96b563826040516106b19190610b07565b60405180910390a250565b5f33905090565b5f73__$ea2bfd386ba84ea2bcf9bcd47bb5c25cd7$__633e2fe1496040518163ffffffff1660e01b8152600401602060405180830381865af415801561070b573d5f5f3e3d5ffd5b505050506040513d601f19601f8201168201806040525081019061072f9190610cc4565b905090565b61073c6106bc565b6040517f0504a20d00000000000000000000000000000000000000000000000000000000815260040161076f9190610a7d565b60405180910390fd5b5f73__$ea2bfd386ba84ea2bcf9bcd47bb5c25cd7$__6361a9ab766040518163ffffffff1660e01b8152600401602060405180830381865af41580156107c0573d5f5f3e3d5ffd5b505050506040513d601f19601f820116820180604052508101906107e49190610d03565b905090565b5f73__$ea2bfd386ba84ea2bcf9bcd47bb5c25cd7$__63893d20e86040518163ffffffff1660e01b8152600401602060405180830381865af4158015610831573d5f5f3e3d5ffd5b505050506040513d601f19601f820116820180604052508101906108559190610cc4565b905090565b6108626106bc565b73ffffffffffffffffffffffffffffffffffffffff166108806107e9565b73ffffffffffffffffffffffffffffffffffffffff16146108a4576108a3610734565b5b5f73ffffffffffffffffffffffffffffffffffffffff168173ffffffffffffffffffffffffffffffffffffffff1603610909576040517f7138356f00000000000000000000000000000000000000000000000000000000815260040160405180910390fd5b50565b6109146106bc565b73ffffffffffffffffffffffffffffffffffffffff166109326107e9565b73ffffffffffffffffffffffffffffffffffffffff161461095657610955610734565b5b73__$ea2bfd386ba84ea2bcf9bcd47bb5c25cd7$__63fdb0afee6109786109cd565b426109839190610d5b565b6040518263ffffffff1660e01b815260040161099f9190610c97565b5f6040518083038186803b1580156109b5575f5ffd5b505af41580156109c7573d5f5f3e3d5ffd5b50505050565b5f73__$ea2bfd386ba84ea2bcf9bcd47bb5c25cd7$__63dbd183886040518163ffffffff1660e01b8152600401602060405180830381865af4158015610a15573d5f5f3e3d5ffd5b505050506040513d601f19601f82011682018060405250810190610a399190610d03565b905090565b5f73ffffffffffffffffffffffffffffffffffffffff82169050919050565b5f610a6782610a3e565b9050919050565b610a7781610a5d565b82525050565b5f602082019050610a905f830184610a6e565b92915050565b5f5ffd5b610aa381610a5d565b8114610aad575f5ffd5b50565b5f81359050610abe81610a9a565b92915050565b5f60208284031215610ad957610ad8610a96565b5b5f610ae684828501610ab0565b91505092915050565b5f819050919050565b610b0181610aef565b82525050565b5f602082019050610b1a5f830184610af8565b92915050565b5f81519050919050565b5f82825260208201905092915050565b8281835e5f83830152505050565b5f601f19601f8301169050919050565b5f610b6282610b20565b610b6c8185610b2a565b9350610b7c818560208601610b3a565b610b8581610b48565b840191505092915050565b5f6020820190508181035f830152610ba88184610b58565b905092915050565b610bb981610aef565b8114610bc3575f5ffd5b50565b5f81359050610bd481610bb0565b92915050565b5f60208284031215610bef57610bee610a96565b5b5f610bfc84828501610bc6565b91505092915050565b610c0e81610a5d565b82525050565b5f602082019050610c275f830184610c05565b92915050565b5f819050919050565b5f819050919050565b5f610c59610c54610c4f84610c2d565b610c36565b610aef565b9050919050565b610c6981610c3f565b82525050565b5f602082019050610c825f830184610c60565b92915050565b610c9181610aef565b82525050565b5f602082019050610caa5f830184610c88565b92915050565b5f81519050610cbe81610a9a565b92915050565b5f60208284031215610cd957610cd8610a96565b5b5f610ce684828501610cb0565b91505092915050565b5f81519050610cfd81610bb0565b92915050565b5f60208284031215610d1857610d17610a96565b5b5f610d2584828501610cef565b91505092915050565b7f4e487b71000000000000000000000000000000000000000000000000000000005f52601160045260245ffd5b5f610d6582610aef565b9150610d7083610aef565b9250828201905080821115610d8857610d87610d2e565b5b9291505056fea2646970667358221220669ed0a1167e964cd804d1b6e46a60b98360df3e5caaf1add60dd3c9d37238df64736f6c634300081e0033",
			"opcodes": "PUSH1 0xA0 PUSH1 0x40 MSTORE PUSH2 0x16 PUSH1 0x1 PUSH0 PUSH0 PUSH2 0x103 PUSH1 0x20 SHL PUSH1 0x20 SHR JUMP JUMPDEST PUSH1 0x80 SWAP1 DUP2 MSTORE POP CALLVALUE DUP1 ISZERO PUSH2 0x27 JUMPI PUSH0 PUSH0 REVERT JUMPDEST POP PUSH20 0x0 PUSH4 0x592BD705 PUSH2 0x50 PUSH2 0x12C PUSH1 0x20 SHL PUSH1 0x20 SHR JUMP JUMPDEST PUSH1 0x40 MLOAD DUP3 PUSH4 0xFFFFFFFF AND PUSH1 0xE0 SHL DUP2 MSTORE PUSH1 0x4 ADD PUSH2 0x6C SWAP2 SWAP1 PUSH2 0x172 JUMP JUMPDEST PUSH0 PUSH1 0x40 MLOAD DUP1 DUP4 SUB DUP2 DUP7 DUP1 EXTCODESIZE ISZERO DUP1 ISZERO PUSH2 0x82 JUMPI PUSH0 PUSH0 REVERT JUMPDEST POP GAS DELEGATECALL ISZERO DUP1 ISZERO PUSH2 0x94 JUMPI RETURNDATASIZE PUSH0 PUSH0 RETURNDATACOPY RETURNDATASIZE PUSH0 REVERT JUMPDEST POP POP POP POP PUSH20 0x0 PUSH4 0xF2F65960 PUSH3 0x15180 PUSH1 0x40 MLOAD DUP3 PUSH4 0xFFFFFFFF AND PUSH1 0xE0 SHL DUP2 MSTORE PUSH1 0x4 ADD PUSH2 0xD2 SWAP2 SWAP1 PUSH2 0x1A3 JUMP JUMPDEST PUSH0 PUSH1 0x40 MLOAD DUP1 DUP4 SUB DUP2 DUP7 DUP1 EXTCODESIZE ISZERO DUP1 ISZERO PUSH2 0xE8 JUMPI PUSH0 PUSH0 REVERT JUMPDEST POP GAS DELEGATECALL ISZERO DUP1 ISZERO PUSH2 0xFA JUMPI RETURNDATASIZE PUSH0 PUSH0 RETURNDATACOPY RETURNDATASIZE PUSH0 REVERT JUMPDEST POP POP POP POP PUSH2 0x1BC JUMP JUMPDEST PUSH0 DUP2 PUSH4 0xFFFFFFFF AND PUSH1 0x20 DUP5 PUSH4 0xFFFFFFFF AND SWAP1 SHL PUSH1 0x40 DUP7 PUSH4 0xFFFFFFFF AND SWAP1 SHL OR OR SWAP1 POP SWAP4 SWAP3 POP POP POP JUMP JUMPDEST PUSH0 CALLER SWAP1 POP SWAP1 JUMP JUMPDEST PUSH0 PUSH20 0xFFFFFFFFFFFFFFFFFFFFFFFFFFFFFFFFFFFFFFFF DUP3 AND SWAP1 POP SWAP2 SWAP1 POP JUMP JUMPDEST PUSH0 PUSH2 0x15C DUP3 PUSH2 0x133 JUMP JUMPDEST SWAP1 POP SWAP2 SWAP1 POP JUMP JUMPDEST PUSH2 0x16C DUP2 PUSH2 0x152 JUMP JUMPDEST DUP3 MSTORE POP POP JUMP JUMPDEST PUSH0 PUSH1 0x20 DUP3 ADD SWAP1 POP PUSH2 0x185 PUSH0 DUP4 ADD DUP5 PUSH2 0x163 JUMP JUMPDEST SWAP3 SWAP2 POP POP JUMP JUMPDEST PUSH0 DUP2 SWAP1 POP SWAP2 SWAP1 POP JUMP JUMPDEST PUSH2 0x19D DUP2 PUSH2 0x18B JUMP JUMPDEST DUP3 MSTORE POP POP JUMP JUMPDEST PUSH0 PUSH1 0x20 DUP3 ADD SWAP1 POP PUSH2 0x1B6 PUSH0 DUP4 ADD DUP5 PUSH2 0x194 JUMP JUMPDEST SWAP3 SWAP2 POP POP JUMP JUMPDEST PUSH1 0x80 MLOAD PUSH2 0xDC4 PUSH2 0x1D4 PUSH0 CODECOPY PUSH0 PUSH2 0x4F8 ADD MSTORE PUSH2 0xDC4 PUSH0 RETURN INVALID PUSH1 0x80 PUSH1 0x40 MSTORE CALLVALUE DUP1 ISZERO PUSH2 0xF JUMPI PUSH0 PUSH0 REVERT JUMPDEST POP PUSH1 0x4 CALLDATASIZE LT PUSH2 0x91 JUMPI PUSH0 CALLDATALOAD PUSH1 0xE0 SHR DUP1 PUSH4 0x81ED9808 GT PUSH2 0x64 JUMPI DUP1 PUSH4 0x81ED9808 EQ PUSH2 0xF7 JUMPI DUP1 PUSH4 0x893D20E8 EQ PUSH2 0x115 JUMPI DUP1 PUSH4 0x9B865B43 EQ PUSH2 0x133 JUMPI DUP1 PUSH4 0xDBD18388 EQ PUSH2 0x151 JUMPI DUP1 PUSH4 0xF2F65960 EQ PUSH2 0x16F JUMPI PUSH2 0x91 JUMP JUMPDEST DUP1 PUSH4 0x18E3E87F EQ PUSH2 0x95 JUMPI DUP1 PUSH4 0x3E2FE149 EQ PUSH2 0x9F JUMPI DUP1 PUSH4 0x4FB2E45D EQ PUSH2 0xBD JUMPI DUP1 PUSH4 0x61A9AB76 EQ PUSH2 0xD9 JUMPI JUMPDEST PUSH0 PUSH0 REVERT JUMPDEST PUSH2 0x9D PUSH2 0x18B JUMP JUMPDEST STOP JUMPDEST PUSH2 0xA7 PUSH2 0x3AD JUMP JUMPDEST PUSH1 0x40 MLOAD PUSH2 0xB4 SWAP2 SWAP1 PUSH2 0xA7D JUMP JUMPDEST PUSH1 0x40 MLOAD DUP1 SWAP2 SUB SWAP1 RETURN JUMPDEST PUSH2 0xD7 PUSH1 0x4 DUP1 CALLDATASIZE SUB DUP2 ADD SWAP1 PUSH2 0xD2 SWAP2 SWAP1 PUSH2 0xAC4 JUMP JUMPDEST PUSH2 0x3BB JUMP JUMPDEST STOP JUMPDEST PUSH2 0xE1 PUSH2 0x4E8 JUMP JUMPDEST PUSH1 0x40 MLOAD PUSH2 0xEE SWAP2 SWAP1 PUSH2 0xB07 JUMP JUMPDEST PUSH1 0x40 MLOAD DUP1 SWAP2 SUB SWAP1 RETURN JUMPDEST PUSH2 0xFF PUSH2 0x4F6 JUMP JUMPDEST PUSH1 0x40 MLOAD PUSH2 0x10C SWAP2 SWAP1 PUSH2 0xB07 JUMP JUMPDEST PUSH1 0x40 MLOAD DUP1 SWAP2 SUB SWAP1 RETURN JUMPDEST PUSH2 0x11D PUSH2 0x51A JUMP JUMPDEST PUSH1 0x40 MLOAD PUSH2 0x12A SWAP2 SWAP1 PUSH2 0xA7D JUMP JUMPDEST PUSH1 0x40 MLOAD DUP1 SWAP2 SUB SWAP1 RETURN JUMPDEST PUSH2 0x13B PUSH2 0x528 JUMP JUMPDEST PUSH1 0x40 MLOAD PUSH2 0x148 SWAP2 SWAP1 PUSH2 0xB90 JUMP JUMPDEST PUSH1 0x40 MLOAD DUP1 SWAP2 SUB SWAP1 RETURN JUMPDEST PUSH2 0x159 PUSH2 0x561 JUMP JUMPDEST PUSH1 0x40 MLOAD PUSH2 0x166 SWAP2 SWAP1 PUSH2 0xB07 JUMP JUMPDEST PUSH1 0x40 MLOAD DUP1 SWAP2 SUB SWAP1 RETURN JUMPDEST PUSH2 0x189 PUSH1 0x4 DUP1 CALLDATASIZE SUB DUP2 ADD SWAP1 PUSH2 0x184 SWAP2 SWAP1 PUSH2 0xBDA JUMP JUMPDEST PUSH2 0x56F JUMP JUMPDEST STOP JUMPDEST PUSH2 0x193 PUSH2 0x6BC JUMP JUMPDEST PUSH20 0xFFFFFFFFFFFFFFFFFFFFFFFFFFFFFFFFFFFFFFFF AND PUSH2 0x1B1 PUSH2 0x6C3 JUMP JUMPDEST PUSH20 0xFFFFFFFFFFFFFFFFFFFFFFFFFFFFFFFFFFFFFFFF AND EQ PUSH2 0x1D5 JUMPI PUSH2 0x1D4 PUSH2 0x734 JUMP JUMPDEST JUMPDEST TIMESTAMP PUSH2 0x1DE PUSH2 0x778 JUMP JUMPDEST LT ISZERO PUSH2 0x228 JUMPI PUSH2 0x1EC PUSH2 0x6BC JUMP JUMPDEST PUSH1 0x40 MLOAD PUSH32 0xEFABBDC600000000000000000000000000000000000000000000000000000000 DUP2 MSTORE PUSH1 0x4 ADD PUSH2 0x21F SWAP2 SWAP1 PUSH2 0xA7D JUMP JUMPDEST PUSH1 0x40 MLOAD DUP1 SWAP2 SUB SWAP1 REVERT JUMPDEST PUSH0 PUSH2 0x231 PUSH2 0x6C3 JUMP JUMPDEST SWAP1 POP PUSH20 0x0 PUSH4 0x592BD705 DUP3 PUSH1 0x40 MLOAD DUP3 PUSH4 0xFFFFFFFF AND PUSH1 0xE0 SHL DUP2 MSTORE PUSH1 0x4 ADD PUSH2 0x26A SWAP2 SWAP1 PUSH2 0xC14 JUMP JUMPDEST PUSH0 PUSH1 0x40 MLOAD DUP1 DUP4 SUB DUP2 DUP7 DUP1 EXTCODESIZE ISZERO DUP1 ISZERO PUSH2 0x280 JUMPI PUSH0 PUSH0 REVERT JUMPDEST POP GAS DELEGATECALL ISZERO DUP1 ISZERO PUSH2 0x292 JUMPI RETURNDATASIZE PUSH0 PUSH0 RETURNDATACOPY RETURNDATASIZE PUSH0 REVERT JUMPDEST POP POP POP POP PUSH20 0x0 PUSH4 0x34B8160C PUSH0 PUSH1 0x40 MLOAD DUP3 PUSH4 0xFFFFFFFF AND PUSH1 0xE0 SHL DUP2 MSTORE PUSH1 0x4 ADD PUSH2 0x2CD SWAP2 SWAP1 PUSH2 0xC14 JUMP JUMPDEST PUSH0 PUSH1 0x40 MLOAD DUP1 DUP4 SUB DUP2 DUP7 DUP1 EXTCODESIZE ISZERO DUP1 ISZERO PUSH2 0x2E3 JUMPI PUSH0 PUSH0 REVERT JUMPDEST POP GAS DELEGATECALL ISZERO DUP1 ISZERO PUSH2 0x2F5 JUMPI RETURNDATASIZE PUSH0 PUSH0 RETURNDATACOPY RETURNDATASIZE PUSH0 REVERT JUMPDEST POP POP POP POP PUSH20 0x0 PUSH4 0xFDB0AFEE PUSH0 PUSH1 0x40 MLOAD DUP3 PUSH4 0xFFFFFFFF AND PUSH1 0xE0 SHL DUP2 MSTORE PUSH1 0x4 ADD PUSH2 0x330 SWAP2 SWAP1 PUSH2 0xC6F JUMP JUMPDEST PUSH0 PUSH1 0x40 MLOAD DUP1 DUP4 SUB DUP2 DUP7 DUP1 EXTCODESIZE ISZERO DUP1 ISZERO PUSH2 0x346 JUMPI PUSH0 PUSH0 REVERT JUMPDEST POP GAS DELEGATECALL ISZERO DUP1 ISZERO PUSH2 0x358 JUMPI RETURNDATASIZE PUSH0 PUSH0 RETURNDATACOPY RETURNDATASIZE PUSH0 REVERT JUMPDEST POP POP POP POP DUP1 PUSH20 0xFFFFFFFFFFFFFFFFFFFFFFFFFFFFFFFFFFFFFFFF AND PUSH32 0xBA63841A7533A3A83852E6BD791045210D9E961D32EC380162BCD5D1D6FE1212 TIMESTAMP PUSH1 0x40 MLOAD PUSH2 0x3A2 SWAP2 SWAP1 PUSH2 0xB07 JUMP JUMPDEST PUSH1 0x40 MLOAD DUP1 SWAP2 SUB SWAP1 LOG2 POP JUMP JUMPDEST PUSH0 PUSH2 0x3B6 PUSH2 0x6C3 JUMP JUMPDEST SWAP1 POP SWAP1 JUMP JUMPDEST PUSH2 0x3C3 PUSH2 0x6BC JUMP JUMPDEST PUSH20 0xFFFFFFFFFFFFFFFFFFFFFFFFFFFFFFFFFFFFFFFF AND PUSH2 0x3E1 PUSH2 0x7E9 JUMP JUMPDEST PUSH20 0xFFFFFFFFFFFFFFFFFFFFFFFFFFFFFFFFFFFFFFFF AND EQ PUSH2 0x405 JUMPI PUSH2 0x404 PUSH2 0x734 JUMP JUMPDEST JUMPDEST PUSH2 0x40E DUP2 PUSH2 0x85A JUMP JUMPDEST PUSH20 0x0 PUSH4 0x34B8160C DUP3 PUSH1 0x40 MLOAD DUP3 PUSH4 0xFFFFFFFF AND PUSH1 0xE0 SHL DUP2 MSTORE PUSH1 0x4 ADD PUSH2 0x445 SWAP2 SWAP1 PUSH2 0xC14 JUMP JUMPDEST PUSH0 PUSH1 0x40 MLOAD DUP1 DUP4 SUB DUP2 DUP7 DUP1 EXTCODESIZE ISZERO DUP1 ISZERO PUSH2 0x45B JUMPI PUSH0 PUSH0 REVERT JUMPDEST POP GAS DELEGATECALL ISZERO DUP1 ISZERO PUSH2 0x46D JUMPI RETURNDATASIZE PUSH0 PUSH0 RETURNDATACOPY RETURNDATASIZE PUSH0 REVERT JUMPDEST POP POP POP POP PUSH2 0x479 PUSH2 0x90C JUMP JUMPDEST DUP1 PUSH20 0xFFFFFFFFFFFFFFFFFFFFFFFFFFFFFFFFFFFFFFFF AND PUSH2 0x498 PUSH2 0x6BC JUMP JUMPDEST PUSH20 0xFFFFFFFFFFFFFFFFFFFFFFFFFFFFFFFFFFFFFFFF AND PUSH32 0x8DBB839C92A52A1B41B96C2376318A45B974066DF935981E08419BD7A0AE1500 TIMESTAMP PUSH1 0x40 MLOAD PUSH2 0x4DD SWAP2 SWAP1 PUSH2 0xB07 JUMP JUMPDEST PUSH1 0x40 MLOAD DUP1 SWAP2 SUB SWAP1 LOG3 POP JUMP JUMPDEST PUSH0 PUSH2 0x4F1 PUSH2 0x778 JUMP JUMPDEST SWAP1 POP SWAP1 JUMP JUMPDEST PUSH32 0x0 DUP2 JUMP JUMPDEST PUSH0 PUSH2 0x523 PUSH2 0x7E9 JUMP JUMPDEST SWAP1 POP SWAP1 JUMP JUMPDEST PUSH1 0x40 MLOAD DUP1 PUSH1 0x40 ADD PUSH1 0x40 MSTORE DUP1 PUSH1 0x7 DUP2 MSTORE PUSH1 0x20 ADD PUSH32 0x4F776E61626C6500000000000000000000000000000000000000000000000000 DUP2 MSTORE POP DUP2 JUMP JUMPDEST PUSH0 PUSH2 0x56A PUSH2 0x9CD JUMP JUMPDEST SWAP1 POP SWAP1 JUMP JUMPDEST PUSH2 0x577 PUSH2 0x6BC JUMP JUMPDEST PUSH20 0xFFFFFFFFFFFFFFFFFFFFFFFFFFFFFFFFFFFFFFFF AND PUSH2 0x595 PUSH2 0x7E9 JUMP JUMPDEST PUSH20 0xFFFFFFFFFFFFFFFFFFFFFFFFFFFFFFFFFFFFFFFF AND EQ PUSH2 0x5B9 JUMPI PUSH2 0x5B8 PUSH2 0x734 JUMP JUMPDEST JUMPDEST PUSH3 0x93A80 DUP2 GT ISZERO PUSH2 0x601 JUMPI DUP1 PUSH1 0x40 MLOAD PUSH32 0xA253BC7000000000000000000000000000000000000000000000000000000000 DUP2 MSTORE PUSH1 0x4 ADD PUSH2 0x5F8 SWAP2 SWAP1 PUSH2 0xB07 JUMP JUMPDEST PUSH1 0x40 MLOAD DUP1 SWAP2 SUB SWAP1 REVERT JUMPDEST PUSH20 0x0 PUSH4 0xF2F65960 DUP3 PUSH1 0x40 MLOAD DUP3 PUSH4 0xFFFFFFFF AND PUSH1 0xE0 SHL DUP2 MSTORE PUSH1 0x4 ADD PUSH2 0x638 SWAP2 SWAP1 PUSH2 0xC97 JUMP JUMPDEST PUSH0 PUSH1 0x40 MLOAD DUP1 DUP4 SUB DUP2 DUP7 DUP1 EXTCODESIZE ISZERO DUP1 ISZERO PUSH2 0x64E JUMPI PUSH0 PUSH0 REVERT JUMPDEST POP GAS DELEGATECALL ISZERO DUP1 ISZERO PUSH2 0x660 JUMPI RETURNDATASIZE PUSH0 PUSH0 RETURNDATACOPY RETURNDATASIZE PUSH0 REVERT JUMPDEST POP POP POP POP PUSH2 0x66C PUSH2 0x6BC JUMP JUMPDEST PUSH20 0xFFFFFFFFFFFFFFFFFFFFFFFFFFFFFFFFFFFFFFFF AND PUSH32 0xBB4E769C8BEC1BF5B9CBB403AFD41B6826B52BA0D1AD04B1D4A6F06EAE96B563 DUP3 PUSH1 0x40 MLOAD PUSH2 0x6B1 SWAP2 SWAP1 PUSH2 0xB07 JUMP JUMPDEST PUSH1 0x40 MLOAD DUP1 SWAP2 SUB SWAP1 LOG2 POP JUMP JUMPDEST PUSH0 CALLER SWAP1 POP SWAP1 JUMP JUMPDEST PUSH0 PUSH20 0x0 PUSH4 0x3E2FE149 PUSH1 0x40 MLOAD DUP2 PUSH4 0xFFFFFFFF AND PUSH1 0xE0 SHL DUP2 MSTORE PUSH1 0x4 ADD PUSH1 0x20 PUSH1 0x40 MLOAD DUP1 DUP4 SUB DUP2 DUP7 GAS DELEGATECALL ISZERO DUP1 ISZERO PUSH2 0x70B JUMPI RETURNDATASIZE PUSH0 PUSH0 RETURNDATACOPY RETURNDATASIZE PUSH0 REVERT JUMPDEST POP POP POP POP PUSH1 0x40 MLOAD RETURNDATASIZE PUSH1 0x1F NOT PUSH1 0x1F DUP3 ADD AND DUP3 ADD DUP1 PUSH1 0x40 MSTORE POP DUP2 ADD SWAP1 PUSH2 0x72F SWAP2 SWAP1 PUSH2 0xCC4 JUMP JUMPDEST SWAP1 POP SWAP1 JUMP JUMPDEST PUSH2 0x73C PUSH2 0x6BC JUMP JUMPDEST PUSH1 0x40 MLOAD PUSH32 0x504A20D00000000000000000000000000000000000000000000000000000000 DUP2 MSTORE PUSH1 0x4 ADD PUSH2 0x76F SWAP2 SWAP1 PUSH2 0xA7D JUMP JUMPDEST PUSH1 0x40 MLOAD DUP1 SWAP2 SUB SWAP1 REVERT JUMPDEST PUSH0 PUSH20 0x0 PUSH4 0x61A9AB76 PUSH1 0x40 MLOAD DUP2 PUSH4 0xFFFFFFFF AND PUSH1 0xE0 SHL DUP2 MSTORE PUSH1 0x4 ADD PUSH1 0x20 PUSH1 0x40 MLOAD DUP1 DUP4 SUB DUP2 DUP7 GAS DELEGATECALL ISZERO DUP1 ISZERO PUSH2 0x7C0 JUMPI RETURNDATASIZE PUSH0 PUSH0 RETURNDATACOPY RETURNDATASIZE PUSH0 REVERT JUMPDEST POP POP POP POP PUSH1 0x40 MLOAD RETURNDATASIZE PUSH1 0x1F NOT PUSH1 0x1F DUP3 ADD AND DUP3 ADD DUP1 PUSH1 0x40 MSTORE POP DUP2 ADD SWAP1 PUSH2 0x7E4 SWAP2 SWAP1 PUSH2 0xD03 JUMP JUMPDEST SWAP1 POP SWAP1 JUMP JUMPDEST PUSH0 PUSH20 0x0 PUSH4 0x893D20E8 PUSH1 0x40 MLOAD DUP2 PUSH4 0xFFFFFFFF AND PUSH1 0xE0 SHL DUP2 MSTORE PUSH1 0x4 ADD PUSH1 0x20 PUSH1 0x40 MLOAD DUP1 DUP4 SUB DUP2 DUP7 GAS DELEGATECALL ISZERO DUP1 ISZERO PUSH2 0x831 JUMPI RETURNDATASIZE PUSH0 PUSH0 RETURNDATACOPY RETURNDATASIZE PUSH0 REVERT JUMPDEST POP POP POP POP PUSH1 0x40 MLOAD RETURNDATASIZE PUSH1 0x1F NOT PUSH1 0x1F DUP3 ADD AND DUP3 ADD DUP1 PUSH1 0x40 MSTORE POP DUP2 ADD SWAP1 PUSH2 0x855 SWAP2 SWAP1 PUSH2 0xCC4 JUMP JUMPDEST SWAP1 POP SWAP1 JUMP JUMPDEST PUSH2 0x862 PUSH2 0x6BC JUMP JUMPDEST PUSH20 0xFFFFFFFFFFFFFFFFFFFFFFFFFFFFFFFFFFFFFFFF AND PUSH2 0x880 PUSH2 0x7E9 JUMP JUMPDEST PUSH20 0xFFFFFFFFFFFFFFFFFFFFFFFFFFFFFFFFFFFFFFFF AND EQ PUSH2 0x8A4 JUMPI PUSH2 0x8A3 PUSH2 0x734 JUMP JUMPDEST JUMPDEST PUSH0 PUSH20 0xFFFFFFFFFFFFFFFFFFFFFFFFFFFFFFFFFFFFFFFF AND DUP2 PUSH20 0xFFFFFFFFFFFFFFFFFFFFFFFFFFFFFFFFFFFFFFFF AND SUB PUSH2 0x909 JUMPI PUSH1 0x40 MLOAD PUSH32 0x7138356F00000000000000000000000000000000000000000000000000000000 DUP2 MSTORE PUSH1 0x4 ADD PUSH1 0x40 MLOAD DUP1 SWAP2 SUB SWAP1 REVERT JUMPDEST POP JUMP JUMPDEST PUSH2 0x914 PUSH2 0x6BC JUMP JUMPDEST PUSH20 0xFFFFFFFFFFFFFFFFFFFFFFFFFFFFFFFFFFFFFFFF AND PUSH2 0x932 PUSH2 0x7E9 JUMP JUMPDEST PUSH20 0xFFFFFFFFFFFFFFFFFFFFFFFFFFFFFFFFFFFFFFFF AND EQ PUSH2 0x956 JUMPI PUSH2 0x955 PUSH2 0x734 JUMP JUMPDEST JUMPDEST PUSH20 0x0 PUSH4 0xFDB0AFEE PUSH2 0x978 PUSH2 0x9CD JUMP JUMPDEST TIMESTAMP PUSH2 0x983 SWAP2 SWAP1 PUSH2 0xD5B JUMP JUMPDEST PUSH1 0x40 MLOAD DUP3 PUSH4 0xFFFFFFFF AND PUSH1 0xE0 SHL DUP2 MSTORE PUSH1 0x4 ADD PUSH2 0x99F SWAP2 SWAP1 PUSH2 0xC97 JUMP JUMPDEST PUSH0 PUSH1 0x40 MLOAD DUP1 DUP4 SUB DUP2 DUP7 DUP1 EXTCODESIZE ISZERO DUP1 ISZERO PUSH2 0x9B5 JUMPI PUSH0 PUSH0 REVERT JUMPDEST POP GAS DELEGATECALL ISZERO DUP1 ISZERO PUSH2 0x9C7 JUMPI RETURNDATASIZE PUSH0 PUSH0 RETURNDATACOPY RETURNDATASIZE PUSH0 REVERT JUMPDEST POP POP POP POP JUMP JUMPDEST PUSH0 PUSH20 0x0 PUSH4 0xDBD18388 PUSH1 0x40 MLOAD DUP2 PUSH4 0xFFFFFFFF AND PUSH1 0xE0 SHL DUP2 MSTORE PUSH1 0x4 ADD PUSH1 0x20 PUSH1 0x40 MLOAD DUP1 DUP4 SUB DUP2 DUP7 GAS DELEGATECALL ISZERO DUP1 ISZERO PUSH2 0xA15 JUMPI RETURNDATASIZE PUSH0 PUSH0 RETURNDATACOPY RETURNDATASIZE PUSH0 REVERT JUMPDEST POP POP POP POP PUSH1 0x40 MLOAD RETURNDATASIZE PUSH1 0x1F NOT PUSH1 0x1F DUP3 ADD AND DUP3 ADD DUP1 PUSH1 0x40 MSTORE POP DUP2 ADD SWAP1 PUSH2 0xA39 SWAP2 SWAP1 PUSH2 0xD03 JUMP JUMPDEST SWAP1 POP SWAP1 JUMP JUMPDEST PUSH0 PUSH20 0xFFFFFFFFFFFFFFFFFFFFFFFFFFFFFFFFFFFFFFFF DUP3 AND SWAP1 POP SWAP2 SWAP1 POP JUMP JUMPDEST PUSH0 PUSH2 0xA67 DUP3 PUSH2 0xA3E JUMP JUMPDEST SWAP1 POP SWAP2 SWAP1 POP JUMP JUMPDEST PUSH2 0xA77 DUP2 PUSH2 0xA5D JUMP JUMPDEST DUP3 MSTORE POP POP JUMP JUMPDEST PUSH0 PUSH1 0x20 DUP3 ADD SWAP1 POP PUSH2 0xA90 PUSH0 DUP4 ADD DUP5 PUSH2 0xA6E JUMP JUMPDEST SWAP3 SWAP2 POP POP JUMP JUMPDEST PUSH0 PUSH0 REVERT JUMPDEST PUSH2 0xAA3 DUP2 PUSH2 0xA5D JUMP JUMPDEST DUP2 EQ PUSH2 0xAAD JUMPI PUSH0 PUSH0 REVERT JUMPDEST POP JUMP JUMPDEST PUSH0 DUP2 CALLDATALOAD SWAP1 POP PUSH2 0xABE DUP2 PUSH2 0xA9A JUMP JUMPDEST SWAP3 SWAP2 POP POP JUMP JUMPDEST PUSH0 PUSH1 0x20 DUP3 DUP5 SUB SLT ISZERO PUSH2 0xAD9 JUMPI PUSH2 0xAD8 PUSH2 0xA96 JUMP JUMPDEST JUMPDEST PUSH0 PUSH2 0xAE6 DUP5 DUP3 DUP6 ADD PUSH2 0xAB0 JUMP JUMPDEST SWAP2 POP POP SWAP3 SWAP2 POP POP JUMP JUMPDEST PUSH0 DUP2 SWAP1 POP SWAP2 SWAP1 POP JUMP JUMPDEST PUSH2 0xB01 DUP2 PUSH2 0xAEF JUMP JUMPDEST DUP3 MSTORE POP POP JUMP JUMPDEST PUSH0 PUSH1 0x20 DUP3 ADD SWAP1 POP PUSH2 0xB1A PUSH0 DUP4 ADD DUP5 PUSH2 0xAF8 JUMP JUMPDEST SWAP3 SWAP2 POP POP JUMP JUMPDEST PUSH0 DUP2 MLOAD SWAP1 POP SWAP2 SWAP1 POP JUMP JUMPDEST PUSH0 DUP3 DUP3 MSTORE PUSH1 0x20 DUP3 ADD SWAP1 POP SWAP3 SWAP2 POP POP JUMP JUMPDEST DUP3 DUP2 DUP4 MCOPY PUSH0 DUP4 DUP4 ADD MSTORE POP POP POP JUMP JUMPDEST PUSH0 PUSH1 0x1F NOT PUSH1 0x1F DUP4 ADD AND SWAP1 POP SWAP2 SWAP1 POP JUMP JUMPDEST PUSH0 PUSH2 0xB62 DUP3 PUSH2 0xB20 JUMP JUMPDEST PUSH2 0xB6C DUP2 DUP6 PUSH2 0xB2A JUMP JUMPDEST SWAP4 POP PUSH2 0xB7C DUP2 DUP6 PUSH1 0x20 DUP7 ADD PUSH2 0xB3A JUMP JUMPDEST PUSH2 0xB85 DUP2 PUSH2 0xB48 JUMP JUMPDEST DUP5 ADD SWAP2 POP POP SWAP3 SWAP2 POP POP JUMP JUMPDEST PUSH0 PUSH1 0x20 DUP3 ADD SWAP1 POP DUP2 DUP2 SUB PUSH0 DUP4 ADD MSTORE PUSH2 0xBA8 DUP2 DUP5 PUSH2 0xB58 JUMP JUMPDEST SWAP1 POP SWAP3 SWAP2 POP POP JUMP JUMPDEST PUSH2 0xBB9 DUP2 PUSH2 0xAEF JUMP JUMPDEST DUP2 EQ PUSH2 0xBC3 JUMPI PUSH0 PUSH0 REVERT JUMPDEST POP JUMP JUMPDEST PUSH0 DUP2 CALLDATALOAD SWAP1 POP PUSH2 0xBD4 DUP2 PUSH2 0xBB0 JUMP JUMPDEST SWAP3 SWAP2 POP POP JUMP JUMPDEST PUSH0 PUSH1 0x20 DUP3 DUP5 SUB SLT ISZERO PUSH2 0xBEF JUMPI PUSH2 0xBEE PUSH2 0xA96 JUMP JUMPDEST JUMPDEST PUSH0 PUSH2 0xBFC DUP5 DUP3 DUP6 ADD PUSH2 0xBC6 JUMP JUMPDEST SWAP2 POP POP SWAP3 SWAP2 POP POP JUMP JUMPDEST PUSH2 0xC0E DUP2 PUSH2 0xA5D JUMP JUMPDEST DUP3 MSTORE POP POP JUMP JUMPDEST PUSH0 PUSH1 0x20 DUP3 ADD SWAP1 POP PUSH2 0xC27 PUSH0 DUP4 ADD DUP5 PUSH2 0xC05 JUMP JUMPDEST SWAP3 SWAP2 POP POP JUMP JUMPDEST PUSH0 DUP2 SWAP1 POP SWAP2 SWAP1 POP JUMP JUMPDEST PUSH0 DUP2 SWAP1 POP SWAP2 SWAP1 POP JUMP JUMPDEST PUSH0 PUSH2 0xC59 PUSH2 0xC54 PUSH2 0xC4F DUP5 PUSH2 0xC2D JUMP JUMPDEST PUSH2 0xC36 JUMP JUMPDEST PUSH2 0xAEF JUMP JUMPDEST SWAP1 POP SWAP2 SWAP1 POP JUMP JUMPDEST PUSH2 0xC69 DUP2 PUSH2 0xC3F JUMP JUMPDEST DUP3 MSTORE POP POP JUMP JUMPDEST PUSH0 PUSH1 0x20 DUP3 ADD SWAP1 POP PUSH2 0xC82 PUSH0 DUP4 ADD DUP5 PUSH2 0xC60 JUMP JUMPDEST SWAP3 SWAP2 POP POP JUMP JUMPDEST PUSH2 0xC91 DUP2 PUSH2 0xAEF JUMP JUMPDEST DUP3 MSTORE POP POP JUMP JUMPDEST PUSH0 PUSH1 0x20 DUP3 ADD SWAP1 POP PUSH2 0xCAA PUSH0 DUP4 ADD DUP5 PUSH2 0xC88 JUMP JUMPDEST SWAP3 SWAP2 POP POP JUMP JUMPDEST PUSH0 DUP2 MLOAD SWAP1 POP PUSH2 0xCBE DUP2 PUSH2 0xA9A JUMP JUMPDEST SWAP3 SWAP2 POP POP JUMP JUMPDEST PUSH0 PUSH1 0x20 DUP3 DUP5 SUB SLT ISZERO PUSH2 0xCD9 JUMPI PUSH2 0xCD8 PUSH2 0xA96 JUMP JUMPDEST JUMPDEST PUSH0 PUSH2 0xCE6 DUP5 DUP3 DUP6 ADD PUSH2 0xCB0 JUMP JUMPDEST SWAP2 POP POP SWAP3 SWAP2 POP POP JUMP JUMPDEST PUSH0 DUP2 MLOAD SWAP1 POP PUSH2 0xCFD DUP2 PUSH2 0xBB0 JUMP JUMPDEST SWAP3 SWAP2 POP POP JUMP JUMPDEST PUSH0 PUSH1 0x20 DUP3 DUP5 SUB SLT ISZERO PUSH2 0xD18 JUMPI PUSH2 0xD17 PUSH2 0xA96 JUMP JUMPDEST JUMPDEST PUSH0 PUSH2 0xD25 DUP5 DUP3 DUP6 ADD PUSH2 0xCEF JUMP JUMPDEST SWAP2 POP POP SWAP3 SWAP2 POP POP JUMP JUMPDEST PUSH32 0x4E487B7100000000000000000000000000000000000000000000000000000000 PUSH0 MSTORE PUSH1 0x11 PUSH1 0x4 MSTORE PUSH1 0x24 PUSH0 REVERT JUMPDEST PUSH0 PUSH2 0xD65 DUP3 PUSH2 0xAEF JUMP JUMPDEST SWAP2 POP PUSH2 0xD70 DUP4 PUSH2 0xAEF JUMP JUMPDEST SWAP3 POP DUP3 DUP3 ADD SWAP1 POP DUP1 DUP3 GT ISZERO PUSH2 0xD88 JUMPI PUSH2 0xD87 PUSH2 0xD2E JUMP JUMPDEST JUMPDEST SWAP3 SWAP2 POP POP JUMP INVALID LOG2 PUSH5 0x6970667358 0x22 SLT KECCAK256 PUSH7 0x9ED0A1167E964C 0xD8 DIV DATALOADN 0xB6E4 PUSH11 0x60B98360DF3E5CAAF1ADD6 0xD 0xD3 0xC9 0xD3 PUSH19 0x38DF64736F6C634300081E0033000000000000 "
		},
		"gasEstimates": {
			"creation": {
				"codeDepositCost": "704800",
				"executionCost": "infinite",
				"totalCost": "infinite"
			},
			"external": {
				"MODULE_NAME()": "infinite",
				"MODULE_VERSION()": "infinite",
				"getGracePeriod()": "infinite",
				"getNewOwner()": "infinite",
				"getOwner()": "infinite",
				"getTimestampExp()": "infinite",
				"setGracePeriod(uint256)": "infinite",
				"transferNewOwnerAccept()": "infinite",
				"transferOwner(address)": "infinite"
			},
			"internal": {
				"_accessDenied()": "infinite",
				"_checkAddress(address)": "infinite",
				"_getGracePeriod()": "infinite",
				"_getNewOwner()": "infinite",
				"_getOwner()": "infinite",
				"_getTimestampExp()": "infinite",
				"_setTimestampExp()": "infinite"
			}
		},
		"methodIdentifiers": {
			"MODULE_NAME()": "9b865b43",
			"MODULE_VERSION()": "81ed9808",
			"getGracePeriod()": "dbd18388",
			"getNewOwner()": "3e2fe149",
			"getOwner()": "893d20e8",
			"getTimestampExp()": "61a9ab76",
			"setGracePeriod(uint256)": "f2f65960",
			"transferNewOwnerAccept()": "18e3e87f",
			"transferOwner(address)": "4fb2e45d"
		}
	},
	"abi": [
		{
			"inputs": [],
			"stateMutability": "nonpayable",
			"type": "constructor"
		},
		{
			"inputs": [
				{
					"internalType": "address",
					"name": "",
					"type": "address"
				}
			],
			"name": "AccessDenied",
			"type": "error"
		},
		{
			"inputs": [],
			"name": "EmptyAddress",
			"type": "error"
		},
		{
			"inputs": [
				{
					"internalType": "address",
					"name": "",
					"type": "address"
				}
			],
			"name": "TimedOut",
			"type": "error"
		},
		{
			"inputs": [
				{
					"internalType": "uint256",
					"name": "",
					"type": "uint256"
				}
			],
			"name": "ValueTooHigh",
			"type": "error"
		},
		{
			"anonymous": false,
			"inputs": [
				{
					"indexed": true,
					"internalType": "address",
					"name": "_to",
					"type": "address"
				},
				{
					"indexed": false,
					"internalType": "uint256",
					"name": "_timestamp",
					"type": "uint256"
				}
			],
			"name": "AcceptTransferNewOwner",
			"type": "event"
		},
		{
			"anonymous": false,
			"inputs": [
				{
					"indexed": true,
					"internalType": "address",
					"name": "oldOwner",
					"type": "address"
				},
				{
					"indexed": true,
					"internalType": "address",
					"name": "newOwner",
					"type": "address"
				},
				{
					"indexed": false,
					"internalType": "uint256",
					"name": "timestamp",
					"type": "uint256"
				}
			],
			"name": "InitialTransferOwner",
			"type": "event"
		},
		{
			"anonymous": false,
			"inputs": [
				{
					"indexed": true,
					"internalType": "address",
					"name": "_to",
					"type": "address"
				},
				{
					"indexed": false,
					"internalType": "uint256",
					"name": "_graceperiod",
					"type": "uint256"
				}
			],
			"name": "SetNewGracePeriod",
			"type": "event"
		},
		{
			"inputs": [],
			"name": "MODULE_NAME",
			"outputs": [
				{
					"internalType": "string",
					"name": "",
					"type": "string"
				}
			],
			"stateMutability": "view",
			"type": "function"
		},
		{
			"inputs": [],
			"name": "MODULE_VERSION",
			"outputs": [
				{
					"internalType": "uint256",
					"name": "",
					"type": "uint256"
				}
			],
			"stateMutability": "view",
			"type": "function"
		},
		{
			"inputs": [],
			"name": "getGracePeriod",
			"outputs": [
				{
					"internalType": "uint256",
					"name": "",
					"type": "uint256"
				}
			],
			"stateMutability": "view",
			"type": "function"
		},
		{
			"inputs": [],
			"name": "getNewOwner",
			"outputs": [
				{
					"internalType": "address",
					"name": "",
					"type": "address"
				}
			],
			"stateMutability": "view",
			"type": "function"
		},
		{
			"inputs": [],
			"name": "getOwner",
			"outputs": [
				{
					"internalType": "address",
					"name": "",
					"type": "address"
				}
			],
			"stateMutability": "view",
			"type": "function"
		},
		{
			"inputs": [],
			"name": "getTimestampExp",
			"outputs": [
				{
					"internalType": "uint256",
					"name": "",
					"type": "uint256"
				}
			],
			"stateMutability": "view",
			"type": "function"
		},
		{
			"inputs": [
				{
					"internalType": "uint256",
					"name": "_seconds",
					"type": "uint256"
				}
			],
			"name": "setGracePeriod",
			"outputs": [],
			"stateMutability": "nonpayable",
			"type": "function"
		},
		{
			"inputs": [],
			"name": "transferNewOwnerAccept",
			"outputs": [],
			"stateMutability": "nonpayable",
			"type": "function"
		},
		{
			"inputs": [
				{
					"internalType": "address",
					"name": "_to",
					"type": "address"
				}
			],
			"name": "transferOwner",
			"outputs": [],
			"stateMutability": "nonpayable",
			"type": "function"
		}
	]
}