{
	"data": {
		"bytecode": {
			"linkReferences": {
				"contracts/storage/LibOwnableStorage.sol": {
					"OwnableStorage": [
						{
							"length": 20,
							"start": 609
						},
						{
							"length": 20,
							"start": 743
						},
						{
							"length": 20,
							"start": 855
						},
						{
							"length": 20,
							"start": 5866
						},
						{
							"length": 20,
							"start": 6586
						},
						{
							"length": 20,
							"start": 6911
						},
						{
							"length": 20,
							"start": 7352
						},
						{
							"length": 20,
							"start": 7823
						},
						{
							"length": 20,
							"start": 8168
						},
						{
							"length": 20,
							"start": 8610
						},
						{
							"length": 20,
							"start": 9380
						},
						{
							"length": 20,
							"start": 11257
						}
					]
				},
				"contracts/storage/LibSMElegendaryStorage.sol": {
					"SMElegendaryStorage": [
						{
							"length": 20,
							"start": 77
						},
						{
							"length": 20,
							"start": 176
						},
						{
							"length": 20,
							"start": 275
						},
						{
							"length": 20,
							"start": 960
						},
						{
							"length": 20,
							"start": 1057
						},
						{
							"length": 20,
							"start": 1154
						},
						{
							"length": 20,
							"start": 1285
						},
						{
							"length": 20,
							"start": 1392
						},
						{
							"length": 20,
							"start": 1491
						},
						{
							"length": 20,
							"start": 1590
						},
						{
							"length": 20,
							"start": 1691
						},
						{
							"length": 20,
							"start": 5521
						},
						{
							"length": 20,
							"start": 5667
						},
						{
							"length": 20,
							"start": 6150
						},
						{
							"length": 20,
							"start": 6257
						},
						{
							"length": 20,
							"start": 6414
						},
						{
							"length": 20,
							"start": 6779
						},
						{
							"length": 20,
							"start": 7545
						},
						{
							"length": 20,
							"start": 7648
						},
						{
							"length": 20,
							"start": 8016
						},
						{
							"length": 20,
							"start": 8361
						},
						{
							"length": 20,
							"start": 8465
						},
						{
							"length": 20,
							"start": 8895
						},
						{
							"length": 20,
							"start": 9022
						},
						{
							"length": 20,
							"start": 9178
						},
						{
							"length": 20,
							"start": 9573
						},
						{
							"length": 20,
							"start": 9678
						},
						{
							"length": 20,
							"start": 9996
						},
						{
							"length": 20,
							"start": 10180
						},
						{
							"length": 20,
							"start": 10463
						},
						{
							"length": 20,
							"start": 10649
						},
						{
							"length": 20,
							"start": 10891
						},
						{
							"length": 20,
							"start": 11115
						},
						{
							"length": 20,
							"start": 11450
						},
						{
							"length": 20,
							"start": 11553
						},
						{
							"length": 20,
							"start": 11714
						},
						{
							"length": 20,
							"start": 11844
						},
						{
							"length": 20,
							"start": 11961
						},
						{
							"length": 20,
							"start": 12277
						},
						{
							"length": 20,
							"start": 12482
						},
						{
							"length": 20,
							"start": 12905
						},
						{
							"length": 20,
							"start": 13006
						},
						{
							"length": 20,
							"start": 13105
						},
						{
							"length": 20,
							"start": 13204
						},
						{
							"length": 20,
							"start": 13401
						},
						{
							"length": 20,
							"start": 13524
						},
						{
							"length": 20,
							"start": 13637
						},
						{
							"length": 20,
							"start": 14237
						},
						{
							"length": 20,
							"start": 14409
						},
						{
							"length": 20,
							"start": 14540
						},
						{
							"length": 20,
							"start": 14798
						},
						{
							"length": 20,
							"start": 14895
						},
						{
							"length": 20,
							"start": 14992
						},
						{
							"length": 20,
							"start": 15123
						},
						{
							"length": 20,
							"start": 15230
						},
						{
							"length": 20,
							"start": 15329
						},
						{
							"length": 20,
							"start": 15428
						},
						{
							"length": 20,
							"start": 15529
						},
						{
							"length": 20,
							"start": 15642
						},
						{
							"length": 20,
							"start": 15898
						},
						{
							"length": 20,
							"start": 16574
						},
						{
							"length": 20,
							"start": 16864
						},
						{
							"length": 20,
							"start": 16966
						},
						{
							"length": 20,
							"start": 17081
						},
						{
							"length": 20,
							"start": 17183
						},
						{
							"length": 20,
							"start": 17432
						},
						{
							"length": 20,
							"start": 17595
						},
						{
							"length": 20,
							"start": 18051
						},
						{
							"length": 20,
							"start": 18196
						},
						{
							"length": 20,
							"start": 18326
						},
						{
							"length": 20,
							"start": 18364
						},
						{
							"length": 20,
							"start": 18726
						}
					]
				}
			},
			"object": "60a060405261001660015f5f6101e860201b60201c565b608090815250348015610027575f5ffd5b506040516161b73803806161b783398181016040528101906100499190610856565b818173__$eabcc97f142f9a0ca4e3cab5476d105c2d$__635b43bc99836040518263ffffffff1660e01b8152600401610082919061091e565b5f6040518083038186803b158015610098575f5ffd5b505af41580156100aa573d5f5f3e3d5ffd5b5050505073__$eabcc97f142f9a0ca4e3cab5476d105c2d$__6341bb0559826040518263ffffffff1660e01b81526004016100e5919061091e565b5f6040518083038186803b1580156100fb575f5ffd5b505af415801561010d573d5f5f3e3d5ffd5b5050505073__$eabcc97f142f9a0ca4e3cab5476d105c2d$__63345e7b2861013961021160201b60201c565b6040518263ffffffff1660e01b81526004016101559190610956565b5f6040518083038186803b15801561016b575f5ffd5b505af415801561017d573d5f5f3e3d5ffd5b5050505061018f61021160201b60201c565b61019d61021960201b60201c565b10156101ba576101b963fed8210f60e01b61024060201b60201c565b5b505060015f819055506101d161024860201b60201c565b6101e182826103be60201b60201c565b5050610ce9565b5f8163ffffffff1660208463ffffffff16901b60408663ffffffff16901b171790509392505050565b5f6001905090565b5f7fffffffffffffffffffffffffffffffffffffffffffffffffffffffffffffffff905090565b805f5260045ffd5b5f73ffffffffffffffffffffffffffffffffffffffff1673__$ea2bfd386ba84ea2bcf9bcd47bb5c25cd7$__63893d20e86040518163ffffffff1660e01b8152600401602060405180830381865af41580156102a6573d5f5f3e3d5ffd5b505050506040513d601f19601f820116820180604052508101906102ca91906109c9565b73ffffffffffffffffffffffffffffffffffffffff16036103bc5773__$ea2bfd386ba84ea2bcf9bcd47bb5c25cd7$__63592bd70561030d61070260201b60201c565b6040518263ffffffff1660e01b81526004016103299190610a03565b5f6040518083038186803b15801561033f575f5ffd5b505af4158015610351573d5f5f3e3d5ffd5b5050505073__$ea2bfd386ba84ea2bcf9bcd47bb5c25cd7$__63f2f6596062093a806040518263ffffffff1660e01b815260040161038f9190610a5e565b5f6040518083038186803b1580156103a5575f5ffd5b505af41580156103b7573d5f5f3e3d5ffd5b505050505b565b73__$eabcc97f142f9a0ca4e3cab5476d105c2d$__63a05cc5596040518163ffffffff1660e01b81526004016103f390610b0d565b5f6040518083038186803b158015610409575f5ffd5b505af415801561041b573d5f5f3e3d5ffd5b5050505073__$eabcc97f142f9a0ca4e3cab5476d105c2d$__63821abc2d6040518163ffffffff1660e01b815260040161045490610bc1565b5f6040518083038186803b15801561046a575f5ffd5b505af415801561047c573d5f5f3e3d5ffd5b5050505073__$eabcc97f142f9a0ca4e3cab5476d105c2d$__633802497b7fdfb96c060b2e58f09345a394fd8e994a6e7ac3539cdd256304c6e181a216752e6040518263ffffffff1660e01b81526004016104d79190610c2c565b5f6040518083038186803b1580156104ed575f5ffd5b505af41580156104ff573d5f5f3e3d5ffd5b5050505073__$eabcc97f142f9a0ca4e3cab5476d105c2d$__6339b37ab067c93a592cfb2a00006040518263ffffffff1660e01b81526004016105429190610c7e565b5f6040518083038186803b158015610558575f5ffd5b505af415801561056a573d5f5f3e3d5ffd5b5050505073__$eabcc97f142f9a0ca4e3cab5476d105c2d$__635b43bc99836040518263ffffffff1660e01b81526004016105a5919061091e565b5f6040518083038186803b1580156105bb575f5ffd5b505af41580156105cd573d5f5f3e3d5ffd5b5050505073__$eabcc97f142f9a0ca4e3cab5476d105c2d$__6341bb0559826040518263ffffffff1660e01b8152600401610608919061091e565b5f6040518083038186803b15801561061e575f5ffd5b505af4158015610630573d5f5f3e3d5ffd5b5050505073__$eabcc97f142f9a0ca4e3cab5476d105c2d$__63345e7b286104b06040518263ffffffff1660e01b815260040161066d9190610cd0565b5f6040518083038186803b158015610683575f5ffd5b505af4158015610695573d5f5f3e3d5ffd5b5050505073__$eabcc97f142f9a0ca4e3cab5476d105c2d$__6332b07b436104b06040518263ffffffff1660e01b81526004016106d29190610cd0565b5f6040518083038186803b1580156106e8575f5ffd5b505af41580156106fa573d5f5f3e3d5ffd5b505050505050565b5f33905090565b5f604051905090565b5f5ffd5b5f5ffd5b5f5ffd5b5f5ffd5b5f601f19601f8301169050919050565b7f4e487b71000000000000000000000000000000000000000000000000000000005f52604160045260245ffd5b61076882610722565b810181811067ffffffffffffffff8211171561078757610786610732565b5b80604052505050565b5f610799610709565b90506107a5828261075f565b919050565b5f67ffffffffffffffff8211156107c4576107c3610732565b5b6107cd82610722565b9050602081019050919050565b8281835e5f83830152505050565b5f6107fa6107f5846107aa565b610790565b9050828152602081018484840111156108165761081561071e565b5b6108218482856107da565b509392505050565b5f82601f83011261083d5761083c61071a565b5b815161084d8482602086016107e8565b91505092915050565b5f5f6040838503121561086c5761086b610712565b5b5f83015167ffffffffffffffff81111561088957610888610716565b5b61089585828601610829565b925050602083015167ffffffffffffffff8111156108b6576108b5610716565b5b6108c285828601610829565b9150509250929050565b5f81519050919050565b5f82825260208201905092915050565b5f6108f0826108cc565b6108fa81856108d6565b935061090a8185602086016107da565b61091381610722565b840191505092915050565b5f6020820190508181035f83015261093681846108e6565b905092915050565b5f819050919050565b6109508161093e565b82525050565b5f6020820190506109695f830184610947565b92915050565b5f73ffffffffffffffffffffffffffffffffffffffff82169050919050565b5f6109988261096f565b9050919050565b6109a88161098e565b81146109b2575f5ffd5b50565b5f815190506109c38161099f565b92915050565b5f602082840312156109de576109dd610712565b5b5f6109eb848285016109b5565b91505092915050565b6109fd8161098e565b82525050565b5f602082019050610a165f8301846109f4565b92915050565b5f819050919050565b5f819050919050565b5f610a48610a43610a3e84610a1c565b610a25565b61093e565b9050919050565b610a5881610a2e565b82525050565b5f602082019050610a715f830184610a4f565b92915050565b7f68747470733a2f2f697066732e737765622e72752f697066732f516d62704e395f8201527f716578677a6e6b705445516d7264786e53665759434441624c6b42786d35764160208201527f4337316a7a52786f2f0000000000000000000000000000000000000000000000604082015250565b5f610af76049836108d6565b9150610b0282610a77565b606082019050919050565b5f6020820190508181035f830152610b2481610aeb565b9050919050565b7f68747470733a2f2f697066732e737765622e72752f697066732f516d595262535f8201527f4d3251617a47623551486f676f64714a666f505661536962333274745570764e60208201527f6b794a4b666858552f3f66696c656e616d653d736d65616d622e6a736f6e0000604082015250565b5f610bab605e836108d6565b9150610bb682610b2b565b606082019050919050565b5f6020820190508181035f830152610bd881610b9f565b9050919050565b5f819050919050565b5f819050919050565b5f815f1b9050919050565b5f610c16610c11610c0c84610bdf565b610bf1565b610be8565b9050919050565b610c2681610bfc565b82525050565b5f602082019050610c3f5f830184610c1d565b92915050565b5f819050919050565b5f610c68610c63610c5e84610c45565b610a25565b61093e565b9050919050565b610c7881610c4e565b82525050565b5f602082019050610c915f830184610c6f565b92915050565b5f819050919050565b5f610cba610cb5610cb084610c97565b610a25565b61093e565b9050919050565b610cca81610ca0565b82525050565b5f602082019050610ce35f830184610cc1565b92915050565b6080516154b6610d015f395f6116ad01526154b65ff3fe608060405260043610610203575f3560e01c806369fe0e2d11610117578063a125c8241161009f578063b88d4fde1161006e578063b88d4fde14610715578063c87b56dd14610731578063ddca3f431461076d578063dfbf2e6714610797578063e985e9c5146107bf57610203565b8063a125c8241461067f578063a22cb465146106a7578063ad5b1662146106cf578063b31b2e13146106f957610203565b806375794a3c116100e657806375794a3c146105ad57806381ed9808146105d757806390507c781461060157806395d89b411461062b5780639b865b431461065557610203565b806369fe0e2d146104f75780636c0360eb1461051f5780637029144c1461054957806370a082311461057157610203565b806323b872dd1161019a57806349e0f9801161016957806349e0f980146103f35780634bca8aa31461041b5780634f558e791461045757806355f804b3146104935780636352211e146104bb57610203565b806323b872dd1461037d5780633bb04b1f146103995780633ccfd60b146103c157806342842e0e146103d757610203565b80630c142a43116101d65780630c142a43146102c5578063150b7a02146102ef578063162094c41461032b57806318160ddd1461035357610203565b806301ffc9a71461020757806306fdde0314610243578063081812fc1461026d578063095ea7b3146102a9575b5f5ffd5b348015610212575f5ffd5b5061022d60048036038101906102289190613e74565b6107fb565b60405161023a9190613eb9565b60405180910390f35b34801561024e575f5ffd5b5061025761088c565b6040516102649190613f42565b60405180910390f35b348015610278575f5ffd5b50610293600480360381019061028e9190613f95565b610901565b6040516102a09190613fff565b60405180910390f35b6102c360048036038101906102be9190614042565b6109a0565b005b3480156102d0575f5ffd5b506102d96109b0565b6040516102e6919061408f565b60405180910390f35b3480156102fa575f5ffd5b50610315600480360381019061031091906141d4565b6109b6565b6040516103229190614263565b60405180910390f35b348015610336575f5ffd5b50610351600480360381019061034c91906142d9565b6109c9565b005b34801561035e575f5ffd5b50610367610afa565b604051610374919061408f565b60405180910390f35b61039760048036038101906103929190614336565b610c7e565b005b3480156103a4575f5ffd5b506103bf60048036038101906103ba91906143b9565b610c99565b005b3480156103cc575f5ffd5b506103d5610dde565b005b6103f160048036038101906103ec9190614336565b610f78565b005b3480156103fe575f5ffd5b50610419600480360381019061041491906143b9565b610f97565b005b348015610426575f5ffd5b50610441600480360381019061043c9190614042565b6110dc565b60405161044e919061408f565b60405180910390f35b348015610462575f5ffd5b5061047d60048036038101906104789190613f95565b61115d565b60405161048a9190613eb9565b60405180910390f35b34801561049e575f5ffd5b506104b960048036038101906104b491906143e4565b61116e565b005b3480156104c6575f5ffd5b506104e160048036038101906104dc9190613f95565b6112b6565b6040516104ee9190613fff565b60405180910390f35b348015610502575f5ffd5b5061051d60048036038101906105189190613f95565b6112c7565b005b34801561052a575f5ffd5b5061053361140c565b6040516105409190613f42565b60405180910390f35b348015610554575f5ffd5b5061056f600480360381019061056a91906144cd565b611481565b005b34801561057c575f5ffd5b5061059760048036038101906105929190614543565b61156e565b6040516105a4919061408f565b60405180910390f35b3480156105b8575f5ffd5b506105c161163a565b6040516105ce919061408f565b60405180910390f35b3480156105e2575f5ffd5b506105eb6116ab565b6040516105f8919061408f565b60405180910390f35b34801561060c575f5ffd5b506106156116cf565b604051610622919061408f565b60405180910390f35b348015610636575f5ffd5b5061063f6116d5565b60405161064c9190613f42565b60405180910390f35b348015610660575f5ffd5b5061066961174a565b6040516106769190613f42565b60405180910390f35b34801561068a575f5ffd5b506106a560048036038101906106a091906143e4565b611783565b005b3480156106b2575f5ffd5b506106cd60048036038101906106c89190614598565b6118cb565b005b3480156106da575f5ffd5b506106e36119a9565b6040516106f0919061408f565b60405180910390f35b610713600480360381019061070e919061462b565b6119af565b005b61072f600480360381019061072a91906141d4565b611d34565b005b34801561073c575f5ffd5b5061075760048036038101906107529190613f95565b611d85565b6040516107649190613f42565b60405180910390f35b348015610778575f5ffd5b50610781611e67565b60405161078e919061408f565b60405180910390f35b3480156107a2575f5ffd5b506107bd60048036038101906107b891906143b9565b611ed8565b005b3480156107ca575f5ffd5b506107e560048036038101906107e09190614688565b61201d565b6040516107f29190613eb9565b60405180910390f35b5f6301ffc9a760e01b827bffffffffffffffffffffffffffffffffffffffffffffffffffffffff1916148061085557506380ac58cd60e01b827bffffffffffffffffffffffffffffffffffffffffffffffffffffffff1916145b806108855750635b5e139f60e01b827bffffffffffffffffffffffffffffffffffffffffffffffffffffffff1916145b9050919050565b606073__$eabcc97f142f9a0ca4e3cab5476d105c2d$__6306fdde036040518163ffffffff1660e01b81526004015f60405180830381865af41580156108d4573d5f5f3e3d5ffd5b505050506040513d5f823e3d601f19601f820116820180604052508101906108fc9190614734565b905090565b5f61090b8261209e565b6109205761091f63cf4700e460e01b612272565b5b73__$eabcc97f142f9a0ca4e3cab5476d105c2d$__63a7cc0136836040518263ffffffff1660e01b8152600401610957919061478a565b602060405180830381865af4158015610972573d5f5f3e3d5ffd5b505050506040513d601f19601f8201168201806040525081019061099691906147f4565b5f01519050919050565b6109ac8282600161227a565b5050565b6104b081565b5f63150b7a0260e01b9050949350505050565b6109d16123b8565b73ffffffffffffffffffffffffffffffffffffffff1673__$ea2bfd386ba84ea2bcf9bcd47bb5c25cd7$__63893d20e86040518163ffffffff1660e01b8152600401602060405180830381865af4158015610a2e573d5f5f3e3d5ffd5b505050506040513d601f19601f82011682018060405250810190610a52919061481f565b73ffffffffffffffffffffffffffffffffffffffff1614610aa8576040517f08c379a0000000000000000000000000000000000000000000000000000000008152600401610a9f90614894565b60405180910390fd5b610af58383838080601f0160208091040260200160405190810160405280939291908181526020018383808284375f81840152601f19601f820116905080830192505050505050506123bf565b505050565b5f610b0361245f565b73__$eabcc97f142f9a0ca4e3cab5476d105c2d$__6344faf2556040518163ffffffff1660e01b8152600401602060405180830381865af4158015610b4a573d5f5f3e3d5ffd5b505050506040513d601f19601f82011682018060405250810190610b6e91906148c6565b73__$eabcc97f142f9a0ca4e3cab5476d105c2d$__639451c99a6040518163ffffffff1660e01b8152600401602060405180830381865af4158015610bb5573d5f5f3e3d5ffd5b505050506040513d601f19601f82011682018060405250810190610bd991906148c6565b030390507fffffffffffffffffffffffffffffffffffffffffffffffffffffffffffffffff610c06612467565b14610c7b5773__$eabcc97f142f9a0ca4e3cab5476d105c2d$__63d20b6ee76040518163ffffffff1660e01b8152600401602060405180830381865af4158015610c52573d5f5f3e3d5ffd5b505050506040513d601f19601f82011682018060405250810190610c7691906148c6565b810190505b90565b610c8983838361248e565b610c94838383612930565b505050565b610ca16123b8565b73ffffffffffffffffffffffffffffffffffffffff1673__$ea2bfd386ba84ea2bcf9bcd47bb5c25cd7$__63893d20e86040518163ffffffff1660e01b8152600401602060405180830381865af4158015610cfe573d5f5f3e3d5ffd5b505050506040513d601f19601f82011682018060405250810190610d22919061481f565b73ffffffffffffffffffffffffffffffffffffffff1614610d78576040517f08c379a0000000000000000000000000000000000000000000000000000000008152600401610d6f90614894565b60405180910390fd5b73__$eabcc97f142f9a0ca4e3cab5476d105c2d$__633802497b826040518263ffffffff1660e01b8152600401610daf9190614900565b5f6040518083038186803b158015610dc5575f5ffd5b505af4158015610dd7573d5f5f3e3d5ffd5b5050505050565b610de66123b8565b73ffffffffffffffffffffffffffffffffffffffff1673__$ea2bfd386ba84ea2bcf9bcd47bb5c25cd7$__63893d20e86040518163ffffffff1660e01b8152600401602060405180830381865af4158015610e43573d5f5f3e3d5ffd5b505050506040513d601f19601f82011682018060405250810190610e67919061481f565b73ffffffffffffffffffffffffffffffffffffffff1614610ebd576040517f08c379a0000000000000000000000000000000000000000000000000000000008152600401610eb490614894565b60405180910390fd5b610ec5612a35565b5f3373ffffffffffffffffffffffffffffffffffffffff1647604051610eea90614946565b5f6040518083038185875af1925050503d805f8114610f24576040519150601f19603f3d011682016040523d82523d5f602084013e610f29565b606091505b5050905080610f6d576040517f08c379a0000000000000000000000000000000000000000000000000000000008152600401610f64906149a4565b60405180910390fd5b50610f76612a82565b565b610f9283838360405180602001604052805f815250611d34565b505050565b610f9f6123b8565b73ffffffffffffffffffffffffffffffffffffffff1673__$ea2bfd386ba84ea2bcf9bcd47bb5c25cd7$__63893d20e86040518163ffffffff1660e01b8152600401602060405180830381865af4158015610ffc573d5f5f3e3d5ffd5b505050506040513d601f19601f82011682018060405250810190611020919061481f565b73ffffffffffffffffffffffffffffffffffffffff1614611076576040517f08c379a000000000000000000000000000000000000000000000000000000000815260040161106d90614894565b60405180910390fd5b73__$eabcc97f142f9a0ca4e3cab5476d105c2d$__63247c6ce0826040518263ffffffff1660e01b81526004016110ad9190614900565b5f6040518083038186803b1580156110c3575f5ffd5b505af41580156110d5573d5f5f3e3d5ffd5b5050505050565b5f73__$eabcc97f142f9a0ca4e3cab5476d105c2d$__63e149f03684846040518363ffffffff1660e01b81526004016111169291906149d1565b602060405180830381865af4158015611131573d5f5f3e3d5ffd5b505050506040513d601f19601f8201168201806040525081019061115591906148c6565b905092915050565b5f6111678261209e565b9050919050565b6111766123b8565b73ffffffffffffffffffffffffffffffffffffffff1673__$ea2bfd386ba84ea2bcf9bcd47bb5c25cd7$__63893d20e86040518163ffffffff1660e01b8152600401602060405180830381865af41580156111d3573d5f5f3e3d5ffd5b505050506040513d601f19601f820116820180604052508101906111f7919061481f565b73ffffffffffffffffffffffffffffffffffffffff161461124d576040517f08c379a000000000000000000000000000000000000000000000000000000000815260040161124490614894565b60405180910390fd5b73__$eabcc97f142f9a0ca4e3cab5476d105c2d$__63a05cc55983836040518363ffffffff1660e01b8152600401611286929190614a34565b5f6040518083038186803b15801561129c575f5ffd5b505af41580156112ae573d5f5f3e3d5ffd5b505050505050565b5f6112c082612a8b565b9050919050565b6112cf6123b8565b73ffffffffffffffffffffffffffffffffffffffff1673__$ea2bfd386ba84ea2bcf9bcd47bb5c25cd7$__63893d20e86040518163ffffffff1660e01b8152600401602060405180830381865af415801561132c573d5f5f3e3d5ffd5b505050506040513d601f19601f82011682018060405250810190611350919061481f565b73ffffffffffffffffffffffffffffffffffffffff16146113a6576040517f08c379a000000000000000000000000000000000000000000000000000000000815260040161139d90614894565b60405180910390fd5b73__$eabcc97f142f9a0ca4e3cab5476d105c2d$__6339b37ab0826040518263ffffffff1660e01b81526004016113dd919061478a565b5f6040518083038186803b1580156113f3575f5ffd5b505af4158015611405573d5f5f3e3d5ffd5b5050505050565b606073__$eabcc97f142f9a0ca4e3cab5476d105c2d$__63d547cfb76040518163ffffffff1660e01b81526004015f60405180830381865af4158015611454573d5f5f3e3d5ffd5b505050506040513d5f823e3d601f19601f8201168201806040525081019061147c9190614734565b905090565b6114896123b8565b73ffffffffffffffffffffffffffffffffffffffff1673__$ea2bfd386ba84ea2bcf9bcd47bb5c25cd7$__63893d20e86040518163ffffffff1660e01b8152600401602060405180830381865af41580156114e6573d5f5f3e3d5ffd5b505050506040513d601f19601f8201168201806040525081019061150a919061481f565b73ffffffffffffffffffffffffffffffffffffffff1614611560576040517f08c379a000000000000000000000000000000000000000000000000000000000815260040161155790614894565b60405180910390fd5b61156a8282612ccb565b5050565b5f5f73ffffffffffffffffffffffffffffffffffffffff168273ffffffffffffffffffffffffffffffffffffffff16036115b3576115b2638f4eb60460e01b612272565b5b67ffffffffffffffff73__$eabcc97f142f9a0ca4e3cab5476d105c2d$__6321b0ed7d846040518263ffffffff1660e01b81526004016115f39190614a56565b602060405180830381865af415801561160e573d5f5f3e3d5ffd5b505050506040513d601f19601f8201168201806040525081019061163291906148c6565b169050919050565b5f73__$eabcc97f142f9a0ca4e3cab5476d105c2d$__639451c99a6040518163ffffffff1660e01b8152600401602060405180830381865af4158015611682573d5f5f3e3d5ffd5b505050506040513d601f19601f820116820180604052508101906116a691906148c6565b905090565b7f000000000000000000000000000000000000000000000000000000000000000081565b6161a881565b606073__$eabcc97f142f9a0ca4e3cab5476d105c2d$__6395d89b416040518163ffffffff1660e01b81526004015f60405180830381865af415801561171d573d5f5f3e3d5ffd5b505050506040513d5f823e3d601f19601f820116820180604052508101906117459190614734565b905090565b6040518060400160405280600d81526020017f534d455f4c6567656e646172790000000000000000000000000000000000000081525081565b61178b6123b8565b73ffffffffffffffffffffffffffffffffffffffff1673__$ea2bfd386ba84ea2bcf9bcd47bb5c25cd7$__63893d20e86040518163ffffffff1660e01b8152600401602060405180830381865af41580156117e8573d5f5f3e3d5ffd5b505050506040513d601f19601f8201168201806040525081019061180c919061481f565b73ffffffffffffffffffffffffffffffffffffffff1614611862576040517f08c379a000000000000000000000000000000000000000000000000000000000815260040161185990614894565b60405180910390fd5b73__$eabcc97f142f9a0ca4e3cab5476d105c2d$__63821abc2d83836040518363ffffffff1660e01b815260040161189b929190614a34565b5f6040518083038186803b1580156118b1575f5ffd5b505af41580156118c3573d5f5f3e3d5ffd5b505050505050565b73__$eabcc97f142f9a0ca4e3cab5476d105c2d$__63830d40916118ed61300f565b84846040518463ffffffff1660e01b815260040161190d93929190614a7e565b5f6040518083038186803b158015611923575f5ffd5b505af4158015611935573d5f5f3e3d5ffd5b505050508173ffffffffffffffffffffffffffffffffffffffff1661195861300f565b73ffffffffffffffffffffffffffffffffffffffff167f17307eab39ab6107e8899845ad3d59bd9653f200f220920489ca2b5937696c318360405161199d9190613eb9565b60405180910390a35050565b61138881565b6119b7612a35565b5f6119c0613016565b90506104b08110611a06576040517f08c379a00000000000000000000000000000000000000000000000000000000081526004016119fd90614afd565b60405180910390fd5b5f151573__$eabcc97f142f9a0ca4e3cab5476d105c2d$__63b62d8b91866040518263ffffffff1660e01b8152600401611a409190614a56565b602060405180830381865af4158015611a5b573d5f5f3e3d5ffd5b505050506040513d601f19601f82011682018060405250810190611a7f9190614b2f565b151514611ac1576040517f08c379a0000000000000000000000000000000000000000000000000000000008152600401611ab890614ba4565b60405180910390fd5b73__$eabcc97f142f9a0ca4e3cab5476d105c2d$__63ddca3f436040518163ffffffff1660e01b8152600401602060405180830381865af4158015611b08573d5f5f3e3d5ffd5b505050506040513d601f19601f82011682018060405250810190611b2c91906148c6565b3414611b6d576040517f08c379a0000000000000000000000000000000000000000000000000000000008152600401611b6490614c0c565b60405180910390fd5b5f84604051602001611b7f9190614c6f565b6040516020818303038152906040528051906020012090505f611c4d8585808060200260200160405190810160405280939291908181526020018383602002808284375f81840152601f19601f8201169050808301925050505050505073__$eabcc97f142f9a0ca4e3cab5476d105c2d$__6319f862006040518163ffffffff1660e01b8152600401602060405180830381865af4158015611c23573d5f5f3e3d5ffd5b505050506040513d601f19601f82011682018060405250810190611c479190614c9d565b84613087565b90506001151581151514611c96576040517f08c379a0000000000000000000000000000000000000000000000000000000008152600401611c8d90614d12565b60405180910390fd5b73__$eabcc97f142f9a0ca4e3cab5476d105c2d$__63b0d4ce258760016040518363ffffffff1660e01b8152600401611cd0929190614d30565b5f6040518083038186803b158015611ce6575f5ffd5b505af4158015611cf8573d5f5f3e3d5ffd5b50505050611d0786600161309d565b611d1983611d14856130ba565b6123bf565b611d245f8785612930565b505050611d2f612a82565b505050565b611d3f848484610c7e565b5f8373ffffffffffffffffffffffffffffffffffffffff163b14611d7f57611d69848484846131bd565b611d7e57611d7d63d1a57ed660e01b612272565b5b5b50505050565b60605f73__$eabcc97f142f9a0ca4e3cab5476d105c2d$__636c8b703f846040518263ffffffff1660e01b8152600401611dbf919061478a565b5f60405180830381865af4158015611dd9573d5f5f3e3d5ffd5b505050506040513d5f823e3d601f19601f82011682018060405250810190611e019190614734565b90505f611e0c6132e7565b90505f815103611e20578192505050611e62565b5f82511115611e54578082604051602001611e3c929190614d91565b60405160208183030381529060405292505050611e62565b611e5d846132fd565b925050505b919050565b5f73__$eabcc97f142f9a0ca4e3cab5476d105c2d$__63ddca3f436040518163ffffffff1660e01b8152600401602060405180830381865af4158015611eaf573d5f5f3e3d5ffd5b505050506040513d601f19601f82011682018060405250810190611ed391906148c6565b905090565b611ee06123b8565b73ffffffffffffffffffffffffffffffffffffffff1673__$ea2bfd386ba84ea2bcf9bcd47bb5c25cd7$__63893d20e86040518163ffffffff1660e01b8152600401602060405180830381865af4158015611f3d573d5f5f3e3d5ffd5b505050506040513d601f19601f82011682018060405250810190611f61919061481f565b73ffffffffffffffffffffffffffffffffffffffff1614611fb7576040517f08c379a0000000000000000000000000000000000000000000000000000000008152600401611fae90614894565b60405180910390fd5b73__$eabcc97f142f9a0ca4e3cab5476d105c2d$__63854f9db9826040518263ffffffff1660e01b8152600401611fee9190614900565b5f6040518083038186803b158015612004575f5ffd5b505af4158015612016573d5f5f3e3d5ffd5b5050505050565b5f73__$eabcc97f142f9a0ca4e3cab5476d105c2d$__63edc3bc3f84846040518363ffffffff1660e01b8152600401612057929190614db4565b602060405180830381865af4158015612072573d5f5f3e3d5ffd5b505050506040513d601f19601f820116820180604052508101906120969190614b2f565b905092915050565b5f816120a861245f565b1161226c576120b5612467565b8211156121415761213a73__$eabcc97f142f9a0ca4e3cab5476d105c2d$__6347f69eba846040518263ffffffff1660e01b81526004016120f6919061478a565b602060405180830381865af4158015612111573d5f5f3e3d5ffd5b505050506040513d601f19601f8201168201806040525081019061213591906148c6565b613377565b905061226d565b73__$eabcc97f142f9a0ca4e3cab5476d105c2d$__639451c99a6040518163ffffffff1660e01b8152600401602060405180830381865af4158015612188573d5f5f3e3d5ffd5b505050506040513d601f19601f820116820180604052508101906121ac91906148c6565b82101561226b575f5b5f73__$eabcc97f142f9a0ca4e3cab5476d105c2d$__6347f69eba856040518263ffffffff1660e01b81526004016121ed919061478a565b602060405180830381865af4158015612208573d5f5f3e3d5ffd5b505050506040513d601f19601f8201168201806040525081019061222c91906148c6565b91508103612245578261223e90614e08565b92506121b5565b5f7c01000000000000000000000000000000000000000000000000000000008216149150505b5b5b919050565b805f5260045ffd5b5f612284836112b6565b90508180156122c657508073ffffffffffffffffffffffffffffffffffffffff166122ad61300f565b73ffffffffffffffffffffffffffffffffffffffff1614155b156122f2576122dc816122d761300f565b61201d565b6122f1576122f063cfb3b94260e01b612272565b5b5b73__$eabcc97f142f9a0ca4e3cab5476d105c2d$__6313c19ff684866040518363ffffffff1660e01b815260040161232b929190614e2f565b5f6040518083038186803b158015612341575f5ffd5b505af4158015612353573d5f5f3e3d5ffd5b50505050828473ffffffffffffffffffffffffffffffffffffffff168273ffffffffffffffffffffffffffffffffffffffff167f8c5be1e5ebec7d5bd14f71427d1e84f3dd0314c0f7b2291e5b200ac8c7c3b92560405160405180910390a450505050565b5f33905090565b73__$eabcc97f142f9a0ca4e3cab5476d105c2d$__63dec84db182846040518363ffffffff1660e01b81526004016123f8929190614e8e565b5f6040518083038186803b15801561240e575f5ffd5b505af4158015612420573d5f5f3e3d5ffd5b505050507ff8e1a15aba9398e019f0b49df1a4fde98ee17ae345cb5f6b5e2c27f5033e8ce782604051612453919061408f565b60405180910390a15050565b5f6001905090565b5f7fffffffffffffffffffffffffffffffffffffffffffffffffffffffffffffffff905090565b5f61249882612a8b565b905073ffffffffffffffffffffffffffffffffffffffff8473ffffffffffffffffffffffffffffffffffffffff161693508373ffffffffffffffffffffffffffffffffffffffff168173ffffffffffffffffffffffffffffffffffffffff161461250d5761250c63a114810060e01b612272565b5b5f5f612518846133b7565b9150915061252e818761252961300f565b61343d565b612559576125438661253e61300f565b61201d565b612558576125576359c896be60e01b612272565b5b5b6125668686866001613480565b73__$eabcc97f142f9a0ca4e3cab5476d105c2d$__6313c19ff6855f6040518363ffffffff1660e01b815260040161259f929190614e2f565b5f6040518083038186803b1580156125b5575f5ffd5b505af41580156125c7573d5f5f3e3d5ffd5b5050505073__$eabcc97f142f9a0ca4e3cab5476d105c2d$__6331413efc876040518263ffffffff1660e01b81526004016126029190614a56565b5f6040518083038186803b158015612618575f5ffd5b505af415801561262a573d5f5f3e3d5ffd5b5050505073__$eabcc97f142f9a0ca4e3cab5476d105c2d$__63d0125152866040518263ffffffff1660e01b81526004016126659190614a56565b5f6040518083038186803b15801561267b575f5ffd5b505af415801561268d573d5f5f3e3d5ffd5b5050505073__$eabcc97f142f9a0ca4e3cab5476d105c2d$__63e68fdee1856126df886126bb8b8b8a613486565b7c0200000000000000000000000000000000000000000000000000000000176134ad565b6040518363ffffffff1660e01b81526004016126fc929190614ebc565b5f6040518083038186803b158015612712575f5ffd5b505af4158015612724573d5f5f3e3d5ffd5b505050505f7c02000000000000000000000000000000000000000000000000000000008416036128ab575f6001850190505f73__$eabcc97f142f9a0ca4e3cab5476d105c2d$__6347f69eba836040518263ffffffff1660e01b815260040161278d919061478a565b602060405180830381865af41580156127a8573d5f5f3e3d5ffd5b505050506040513d601f19601f820116820180604052508101906127cc91906148c6565b036128a95773__$eabcc97f142f9a0ca4e3cab5476d105c2d$__639451c99a6040518163ffffffff1660e01b8152600401602060405180830381865af4158015612818573d5f5f3e3d5ffd5b505050506040513d601f19601f8201168201806040525081019061283c91906148c6565b81146128a85773__$eabcc97f142f9a0ca4e3cab5476d105c2d$__63e68fdee182866040518363ffffffff1660e01b815260040161287b929190614ebc565b5f6040518083038186803b158015612891575f5ffd5b505af41580156128a3573d5f5f3e3d5ffd5b505050505b5b505b5f73ffffffffffffffffffffffffffffffffffffffff8673ffffffffffffffffffffffffffffffffffffffff161690508481887fddf252ad1be2c89b69c2b068fc378daa952ba7f163c4a11628f55a4df523b3ef5f5fa45f810361291a5761291963ea553b3460e01b612272565b5b61292787878760016134d7565b50505050505050565b5f73ffffffffffffffffffffffffffffffffffffffff168373ffffffffffffffffffffffffffffffffffffffff16036129715761296c816134dd565b6129b0565b8173ffffffffffffffffffffffffffffffffffffffff168373ffffffffffffffffffffffffffffffffffffffff16146129af576129ae8382613543565b5b5b5f73ffffffffffffffffffffffffffffffffffffffff168273ffffffffffffffffffffffffffffffffffffffff16036129f1576129ec816135b6565b612a30565b8173ffffffffffffffffffffffffffffffffffffffff168373ffffffffffffffffffffffffffffffffffffffff1614612a2f57612a2e828261361c565b5b5b505050565b60025f5403612a79576040517f08c379a0000000000000000000000000000000000000000000000000000000008152600401612a7090614f2d565b60405180910390fd5b60025f81905550565b60015f81905550565b5f81612a9561245f565b11612cb55773__$eabcc97f142f9a0ca4e3cab5476d105c2d$__6347f69eba836040518263ffffffff1660e01b8152600401612ad1919061478a565b602060405180830381865af4158015612aec573d5f5f3e3d5ffd5b505050506040513d601f19601f82011682018060405250810190612b1091906148c6565b9050612b1a612467565b821115612b3f57612b2a81613377565b612cc657612b3e63df2d9b4260e01b612272565b5b5f8103612c8d5773__$eabcc97f142f9a0ca4e3cab5476d105c2d$__639451c99a6040518163ffffffff1660e01b8152600401602060405180830381865af4158015612b8d573d5f5f3e3d5ffd5b505050506040513d601f19601f82011682018060405250810190612bb191906148c6565b8210612bc857612bc763df2d9b4260e01b612272565b5b5b73__$eabcc97f142f9a0ca4e3cab5476d105c2d$__6347f69eba83600190039350836040518263ffffffff1660e01b8152600401612c07919061478a565b602060405180830381865af4158015612c22573d5f5f3e3d5ffd5b505050506040513d601f19601f82011682018060405250810190612c4691906148c6565b90505f810315612c88575f7c010000000000000000000000000000000000000000000000000000000082160315612cc657612c8763df2d9b4260e01b612272565b5b612bc9565b5f7c010000000000000000000000000000000000000000000000000000000082160315612cc6575b612cc563df2d9b4260e01b612272565b5b919050565b73__$eabcc97f142f9a0ca4e3cab5476d105c2d$__63a05cc5596040518163ffffffff1660e01b8152600401612d0090614fe1565b5f6040518083038186803b158015612d16575f5ffd5b505af4158015612d28573d5f5f3e3d5ffd5b5050505073__$eabcc97f142f9a0ca4e3cab5476d105c2d$__63821abc2d6040518163ffffffff1660e01b8152600401612d6190615095565b5f6040518083038186803b158015612d77575f5ffd5b505af4158015612d89573d5f5f3e3d5ffd5b5050505073__$eabcc97f142f9a0ca4e3cab5476d105c2d$__633802497b7fdfb96c060b2e58f09345a394fd8e994a6e7ac3539cdd256304c6e181a216752e6040518263ffffffff1660e01b8152600401612de491906150f7565b5f6040518083038186803b158015612dfa575f5ffd5b505af4158015612e0c573d5f5f3e3d5ffd5b5050505073__$eabcc97f142f9a0ca4e3cab5476d105c2d$__6339b37ab067c93a592cfb2a00006040518263ffffffff1660e01b8152600401612e4f9190615152565b5f6040518083038186803b158015612e65575f5ffd5b505af4158015612e77573d5f5f3e3d5ffd5b5050505073__$eabcc97f142f9a0ca4e3cab5476d105c2d$__635b43bc99836040518263ffffffff1660e01b8152600401612eb2919061516b565b5f6040518083038186803b158015612ec8575f5ffd5b505af4158015612eda573d5f5f3e3d5ffd5b5050505073__$eabcc97f142f9a0ca4e3cab5476d105c2d$__6341bb0559826040518263ffffffff1660e01b8152600401612f15919061516b565b5f6040518083038186803b158015612f2b575f5ffd5b505af4158015612f3d573d5f5f3e3d5ffd5b5050505073__$eabcc97f142f9a0ca4e3cab5476d105c2d$__63345e7b286104b06040518263ffffffff1660e01b8152600401612f7a91906151c4565b5f6040518083038186803b158015612f90575f5ffd5b505af4158015612fa2573d5f5f3e3d5ffd5b5050505073__$eabcc97f142f9a0ca4e3cab5476d105c2d$__6332b07b436104b06040518263ffffffff1660e01b8152600401612fdf91906151c4565b5f6040518083038186803b158015612ff5575f5ffd5b505af4158015613007573d5f5f3e3d5ffd5b505050505050565b5f33905090565b5f73__$eabcc97f142f9a0ca4e3cab5476d105c2d$__639451c99a6040518163ffffffff1660e01b8152600401602060405180830381865af415801561305e573d5f5f3e3d5ffd5b505050506040513d601f19601f8201168201806040525081019061308291906148c6565b905090565b5f82613093858461369b565b1490509392505050565b6130b6828260405180602001604052805f8152506136ec565b5050565b60606130c58261209e565b613104576040517f08c379a00000000000000000000000000000000000000000000000000000000081526004016130fb9061524d565b60405180910390fd5b5f61310d61140c565b90505f81511161318a5773__$eabcc97f142f9a0ca4e3cab5476d105c2d$__63963bfe126040518163ffffffff1660e01b81526004015f60405180830381865af415801561315d573d5f5f3e3d5ffd5b505050506040513d5f823e3d601f19601f820116820180604052508101906131859190614734565b6131b5565b8061319484613834565b6040516020016131a59291906152b5565b6040516020818303038152906040525b915050919050565b5f8373ffffffffffffffffffffffffffffffffffffffff1663150b7a026131e261300f565b8786866040518563ffffffff1660e01b81526004016132049493929190615335565b6020604051808303815f875af192505050801561323f57506040513d601f19601f8201168201806040525081019061323c9190615393565b60015b613294573d805f811461326d576040519150601f19603f3d011682016040523d82523d5f602084013e613272565b606091505b505f81510361328c5761328b63d1a57ed660e01b612272565b5b805181602001fd5b63150b7a0260e01b7bffffffffffffffffffffffffffffffffffffffffffffffffffffffff1916817bffffffffffffffffffffffffffffffffffffffffffffffffffffffff191614915050949350505050565b606060405180602001604052805f815250905090565b60606133088261209e565b61331d5761331c63a14c4b5060e01b612272565b5b5f6133266132e7565b90505f8151036133445760405180602001604052805f81525061336f565b8061334e846138fe565b60405160200161335f929190614d91565b6040516020818303038152906040525b915050919050565b5f7c0100000000000000000000000000000000000000000000000000000000821673ffffffffffffffffffffffffffffffffffffffff8316119050919050565b5f5f600173__$eabcc97f142f9a0ca4e3cab5476d105c2d$__63a7cc0136856040518263ffffffff1660e01b81526004016133f2919061478a565b602060405180830381865af415801561340d573d5f5f3e3d5ffd5b505050506040513d601f19601f8201168201806040525081019061343191906147f4565b5f015191509150915091565b5f73ffffffffffffffffffffffffffffffffffffffff8316925073ffffffffffffffffffffffffffffffffffffffff821691508382148383141790509392505050565b50505050565b5f5f60e883901c905060e861349c86868461394d565b62ffffff16901b9150509392505050565b5f73ffffffffffffffffffffffffffffffffffffffff83169250814260a01b178317905092915050565b50505050565b73__$eabcc97f142f9a0ca4e3cab5476d105c2d$__63dbe0b21c826040518263ffffffff1660e01b8152600401613514919061478a565b5f6040518083038186803b15801561352a575f5ffd5b505af415801561353c573d5f5f3e3d5ffd5b5050505050565b73__$eabcc97f142f9a0ca4e3cab5476d105c2d$__63071bc71c83836135688661156e565b6040518463ffffffff1660e01b8152600401613586939291906153be565b5f6040518083038186803b15801561359c575f5ffd5b505af41580156135ae573d5f5f3e3d5ffd5b505050505050565b73__$eabcc97f142f9a0ca4e3cab5476d105c2d$__6340e02f5c826040518263ffffffff1660e01b81526004016135ed919061478a565b5f6040518083038186803b158015613603575f5ffd5b505af4158015613615573d5f5f3e3d5ffd5b5050505050565b73__$eabcc97f142f9a0ca4e3cab5476d105c2d$__634f4979ed838360016136438761156e565b61364d91906153f3565b6040518463ffffffff1660e01b815260040161366b939291906153be565b5f6040518083038186803b158015613681575f5ffd5b505af4158015613693573d5f5f3e3d5ffd5b505050505050565b5f5f8290505f5f90505b84518110156136e1576136d2828683815181106136c5576136c4615426565b5b6020026020010151613955565b915080806001019150506136a5565b508091505092915050565b6136f6838361397f565b5f8373ffffffffffffffffffffffffffffffffffffffff163b1461382f575f73__$eabcc97f142f9a0ca4e3cab5476d105c2d$__639451c99a6040518163ffffffff1660e01b8152600401602060405180830381865af415801561375c573d5f5f3e3d5ffd5b505050506040513d601f19601f8201168201806040525081019061378091906148c6565b90505f83820390505b61379b5f8683806001019450866131bd565b6137b0576137af63d1a57ed660e01b612272565b5b818110613789578173__$eabcc97f142f9a0ca4e3cab5476d105c2d$__639451c99a6040518163ffffffff1660e01b8152600401602060405180830381865af41580156137ff573d5f5f3e3d5ffd5b505050506040513d601f19601f8201168201806040525081019061382391906148c6565b1461382c575f5ffd5b50505b505050565b60605f600161384284613c9a565b0190505f8167ffffffffffffffff8111156138605761385f6140b0565b5b6040519080825280601f01601f1916602001820160405280156138925781602001600182028036833780820191505090505b5090505f82602001820190505b6001156138f3578080600190039150507f3031323334353637383961626364656600000000000000000000000000000000600a86061a8153600a85816138e8576138e7615453565b5b0494505f850361389f575b819350505050919050565b606060a060405101806040526020810391505f825281835b60011561393857600184039350600a81066030018453600a8104905080613916575b50828103602084039350808452505050919050565b5f9392505050565b5f81831061396c576139678284613deb565b613977565b6139768383613deb565b5b905092915050565b5f73__$eabcc97f142f9a0ca4e3cab5476d105c2d$__639451c99a6040518163ffffffff1660e01b8152600401602060405180830381865af41580156139c7573d5f5f3e3d5ffd5b505050506040513d601f19601f820116820180604052508101906139eb91906148c6565b90505f8203613a0557613a0463b562e8dd60e01b612272565b5b613a115f848385613480565b73__$eabcc97f142f9a0ca4e3cab5476d105c2d$__63e68fdee182613a4a86613a3b5f895f613486565b613a4488613dff565b176134ad565b6040518363ffffffff1660e01b8152600401613a67929190614ebc565b5f6040518083038186803b158015613a7d575f5ffd5b505af4158015613a8f573d5f5f3e3d5ffd5b5050505073__$eabcc97f142f9a0ca4e3cab5476d105c2d$__63a330117384600160406001901b17850273__$eabcc97f142f9a0ca4e3cab5476d105c2d$__6321b0ed7d886040518263ffffffff1660e01b8152600401613af09190614a56565b602060405180830381865af4158015613b0b573d5f5f3e3d5ffd5b505050506040513d601f19601f82011682018060405250810190613b2f91906148c6565b016040518363ffffffff1660e01b8152600401613b4d9291906149d1565b5f6040518083038186803b158015613b63575f5ffd5b505af4158015613b75573d5f5f3e3d5ffd5b505050505f73ffffffffffffffffffffffffffffffffffffffff8473ffffffffffffffffffffffffffffffffffffffff161690505f8103613bc157613bc0632e07630060e01b612272565b5b5f83830190505f839050613bd3612467565b600183031115613bee57613bed6381647e3a60e01b612272565b5b5b80835f7fddf252ad1be2c89b69c2b068fc378daa952ba7f163c4a11628f55a4df523b3ef5f5fa4818160010191508103613bef5773__$eabcc97f142f9a0ca4e3cab5476d105c2d$__63345e7b28836040518263ffffffff1660e01b8152600401613c5a919061478a565b5f6040518083038186803b158015613c70575f5ffd5b505af4158015613c82573d5f5f3e3d5ffd5b50505050505050613c955f8483856134d7565b505050565b5f5f5f90507a184f03e93ff9f4daa797ed6e38ed64bf6a1f0100000000000000008310613cf6577a184f03e93ff9f4daa797ed6e38ed64bf6a1f0100000000000000008381613cec57613ceb615453565b5b0492506040810190505b6d04ee2d6d415b85acef81000000008310613d33576d04ee2d6d415b85acef81000000008381613d2957613d28615453565b5b0492506020810190505b662386f26fc100008310613d6257662386f26fc100008381613d5857613d57615453565b5b0492506010810190505b6305f5e1008310613d8b576305f5e1008381613d8157613d80615453565b5b0492506008810190505b6127108310613db0576127108381613da657613da5615453565b5b0492506004810190505b60648310613dd35760648381613dc957613dc8615453565b5b0492506002810190505b600a8310613de2576001810190505b80915050919050565b5f825f528160205260405f20905092915050565b5f6001821460e11b9050919050565b5f604051905090565b5f5ffd5b5f5ffd5b5f7fffffffff0000000000000000000000000000000000000000000000000000000082169050919050565b613e5381613e1f565b8114613e5d575f5ffd5b50565b5f81359050613e6e81613e4a565b92915050565b5f60208284031215613e8957613e88613e17565b5b5f613e9684828501613e60565b91505092915050565b5f8115159050919050565b613eb381613e9f565b82525050565b5f602082019050613ecc5f830184613eaa565b92915050565b5f81519050919050565b5f82825260208201905092915050565b8281835e5f83830152505050565b5f601f19601f8301169050919050565b5f613f1482613ed2565b613f1e8185613edc565b9350613f2e818560208601613eec565b613f3781613efa565b840191505092915050565b5f6020820190508181035f830152613f5a8184613f0a565b905092915050565b5f819050919050565b613f7481613f62565b8114613f7e575f5ffd5b50565b5f81359050613f8f81613f6b565b92915050565b5f60208284031215613faa57613fa9613e17565b5b5f613fb784828501613f81565b91505092915050565b5f73ffffffffffffffffffffffffffffffffffffffff82169050919050565b5f613fe982613fc0565b9050919050565b613ff981613fdf565b82525050565b5f6020820190506140125f830184613ff0565b92915050565b61402181613fdf565b811461402b575f5ffd5b50565b5f8135905061403c81614018565b92915050565b5f5f6040838503121561405857614057613e17565b5b5f6140658582860161402e565b925050602061407685828601613f81565b9150509250929050565b61408981613f62565b82525050565b5f6020820190506140a25f830184614080565b92915050565b5f5ffd5b5f5ffd5b7f4e487b71000000000000000000000000000000000000000000000000000000005f52604160045260245ffd5b6140e682613efa565b810181811067ffffffffffffffff82111715614105576141046140b0565b5b80604052505050565b5f614117613e0e565b905061412382826140dd565b919050565b5f67ffffffffffffffff821115614142576141416140b0565b5b61414b82613efa565b9050602081019050919050565b828183375f83830152505050565b5f61417861417384614128565b61410e565b905082815260208101848484011115614194576141936140ac565b5b61419f848285614158565b509392505050565b5f82601f8301126141bb576141ba6140a8565b5b81356141cb848260208601614166565b91505092915050565b5f5f5f5f608085870312156141ec576141eb613e17565b5b5f6141f98782880161402e565b945050602061420a8782880161402e565b935050604061421b87828801613f81565b925050606085013567ffffffffffffffff81111561423c5761423b613e1b565b5b614248878288016141a7565b91505092959194509250565b61425d81613e1f565b82525050565b5f6020820190506142765f830184614254565b92915050565b5f5ffd5b5f5ffd5b5f5f83601f840112614299576142986140a8565b5b8235905067ffffffffffffffff8111156142b6576142b561427c565b5b6020830191508360018202830111156142d2576142d1614280565b5b9250929050565b5f5f5f604084860312156142f0576142ef613e17565b5b5f6142fd86828701613f81565b935050602084013567ffffffffffffffff81111561431e5761431d613e1b565b5b61432a86828701614284565b92509250509250925092565b5f5f5f6060848603121561434d5761434c613e17565b5b5f61435a8682870161402e565b935050602061436b8682870161402e565b925050604061437c86828701613f81565b9150509250925092565b5f819050919050565b61439881614386565b81146143a2575f5ffd5b50565b5f813590506143b38161438f565b92915050565b5f602082840312156143ce576143cd613e17565b5b5f6143db848285016143a5565b91505092915050565b5f5f602083850312156143fa576143f9613e17565b5b5f83013567ffffffffffffffff81111561441757614416613e1b565b5b61442385828601614284565b92509250509250929050565b5f67ffffffffffffffff821115614449576144486140b0565b5b61445282613efa565b9050602081019050919050565b5f61447161446c8461442f565b61410e565b90508281526020810184848401111561448d5761448c6140ac565b5b614498848285614158565b509392505050565b5f82601f8301126144b4576144b36140a8565b5b81356144c484826020860161445f565b91505092915050565b5f5f604083850312156144e3576144e2613e17565b5b5f83013567ffffffffffffffff811115614500576144ff613e1b565b5b61450c858286016144a0565b925050602083013567ffffffffffffffff81111561452d5761452c613e1b565b5b614539858286016144a0565b9150509250929050565b5f6020828403121561455857614557613e17565b5b5f6145658482850161402e565b91505092915050565b61457781613e9f565b8114614581575f5ffd5b50565b5f813590506145928161456e565b92915050565b5f5f604083850312156145ae576145ad613e17565b5b5f6145bb8582860161402e565b92505060206145cc85828601614584565b9150509250929050565b5f5f83601f8401126145eb576145ea6140a8565b5b8235905067ffffffffffffffff8111156146085761460761427c565b5b60208301915083602082028301111561462457614623614280565b5b9250929050565b5f5f5f6040848603121561464257614641613e17565b5b5f61464f8682870161402e565b935050602084013567ffffffffffffffff8111156146705761466f613e1b565b5b61467c868287016145d6565b92509250509250925092565b5f5f6040838503121561469e5761469d613e17565b5b5f6146ab8582860161402e565b92505060206146bc8582860161402e565b9150509250929050565b5f6146d86146d38461442f565b61410e565b9050828152602081018484840111156146f4576146f36140ac565b5b6146ff848285613eec565b509392505050565b5f82601f83011261471b5761471a6140a8565b5b815161472b8482602086016146c6565b91505092915050565b5f6020828403121561474957614748613e17565b5b5f82015167ffffffffffffffff81111561476657614765613e1b565b5b61477284828501614707565b91505092915050565b61478481613f62565b82525050565b5f60208201905061479d5f83018461477b565b92915050565b5f5ffd5b5f815190506147b581614018565b92915050565b5f602082840312156147d0576147cf6147a3565b5b6147da602061410e565b90505f6147e9848285016147a7565b5f8301525092915050565b5f6020828403121561480957614808613e17565b5b5f614816848285016147bb565b91505092915050565b5f6020828403121561483457614833613e17565b5b5f614841848285016147a7565b91505092915050565b7f596f7520617265206e6f7420616e206f776e65720000000000000000000000005f82015250565b5f61487e601483613edc565b91506148898261484a565b602082019050919050565b5f6020820190508181035f8301526148ab81614872565b9050919050565b5f815190506148c081613f6b565b92915050565b5f602082840312156148db576148da613e17565b5b5f6148e8848285016148b2565b91505092915050565b6148fa81614386565b82525050565b5f6020820190506149135f8301846148f1565b92915050565b5f81905092915050565b50565b5f6149315f83614919565b915061493c82614923565b5f82019050919050565b5f61495082614926565b9150819050919050565b7f5472616e73666572206661696c65642e000000000000000000000000000000005f82015250565b5f61498e601083613edc565b91506149998261495a565b602082019050919050565b5f6020820190508181035f8301526149bb81614982565b9050919050565b6149cb81613fdf565b82525050565b5f6040820190506149e45f8301856149c2565b6149f1602083018461477b565b9392505050565b5f82825260208201905092915050565b5f614a1383856149f8565b9350614a20838584614158565b614a2983613efa565b840190509392505050565b5f6020820190508181035f830152614a4d818486614a08565b90509392505050565b5f602082019050614a695f8301846149c2565b92915050565b614a7881613e9f565b82525050565b5f606082019050614a915f8301866149c2565b614a9e60208301856149c2565b614aab6040830184614a6f565b949350505050565b7f45786365656420616c6c6f6300000000000000000000000000000000000000005f82015250565b5f614ae7600c83613edc565b9150614af282614ab3565b602082019050919050565b5f6020820190508181035f830152614b1481614adb565b9050919050565b5f81519050614b298161456e565b92915050565b5f60208284031215614b4457614b43613e17565b5b5f614b5184828501614b1b565b91505092915050565b7f416c7265616479206d696e7465640000000000000000000000000000000000005f82015250565b5f614b8e600e83613edc565b9150614b9982614b5a565b602082019050919050565b5f6020820190508181035f830152614bbb81614b82565b9050919050565b7f4e6f74206d6174636820707269636500000000000000000000000000000000005f82015250565b5f614bf6600f83613edc565b9150614c0182614bc2565b602082019050919050565b5f6020820190508181035f830152614c2381614bea565b9050919050565b5f8160601b9050919050565b5f614c4082614c2a565b9050919050565b5f614c5182614c36565b9050919050565b614c69614c6482613fdf565b614c47565b82525050565b5f614c7a8284614c58565b60148201915081905092915050565b5f81519050614c978161438f565b92915050565b5f60208284031215614cb257614cb1613e17565b5b5f614cbf84828501614c89565b91505092915050565b7f4e6f7420696e206d65726b6c65000000000000000000000000000000000000005f82015250565b5f614cfc600d83613edc565b9150614d0782614cc8565b602082019050919050565b5f6020820190508181035f830152614d2981614cf0565b9050919050565b5f604082019050614d435f8301856149c2565b614d506020830184614a6f565b9392505050565b5f81905092915050565b5f614d6b82613ed2565b614d758185614d57565b9350614d85818560208601613eec565b80840191505092915050565b5f614d9c8285614d61565b9150614da88284614d61565b91508190509392505050565b5f604082019050614dc75f8301856149c2565b614dd460208301846149c2565b9392505050565b7f4e487b71000000000000000000000000000000000000000000000000000000005f52601160045260245ffd5b5f614e1282613f62565b91505f8203614e2457614e23614ddb565b5b600182039050919050565b5f604082019050614e425f83018561477b565b614e4f60208301846149c2565b9392505050565b5f614e6082613ed2565b614e6a81856149f8565b9350614e7a818560208601613eec565b614e8381613efa565b840191505092915050565b5f6040820190508181035f830152614ea68185614e56565b9050614eb5602083018461477b565b9392505050565b5f604082019050614ecf5f83018561477b565b614edc602083018461477b565b9392505050565b7f5265656e7472616e637947756172643a207265656e7472616e742063616c6c005f82015250565b5f614f17601f83613edc565b9150614f2282614ee3565b602082019050919050565b5f6020820190508181035f830152614f4481614f0b565b9050919050565b7f68747470733a2f2f697066732e737765622e72752f697066732f516d62704e395f8201527f716578677a6e6b705445516d7264786e53665759434441624c6b42786d35764160208201527f4337316a7a52786f2f0000000000000000000000000000000000000000000000604082015250565b5f614fcb6049836149f8565b9150614fd682614f4b565b606082019050919050565b5f6020820190508181035f830152614ff881614fbf565b9050919050565b7f68747470733a2f2f697066732e737765622e72752f697066732f516d595262535f8201527f4d3251617a47623551486f676f64714a666f505661536962333274745570764e60208201527f6b794a4b666858552f3f66696c656e616d653d736d65616d622e6a736f6e0000604082015250565b5f61507f605e836149f8565b915061508a82614fff565b606082019050919050565b5f6020820190508181035f8301526150ac81615073565b9050919050565b5f819050919050565b5f815f1b9050919050565b5f6150e16150dc6150d7846150b3565b6150bc565b614386565b9050919050565b6150f1816150c7565b82525050565b5f60208201905061510a5f8301846150e8565b92915050565b5f819050919050565b5f819050919050565b5f61513c61513761513284615110565b615119565b613f62565b9050919050565b61514c81615122565b82525050565b5f6020820190506151655f830184615143565b92915050565b5f6020820190508181035f8301526151838184614e56565b905092915050565b5f819050919050565b5f6151ae6151a96151a48461518b565b615119565b613f62565b9050919050565b6151be81615194565b82525050565b5f6020820190506151d75f8301846151b5565b92915050565b7f4552433732314d657461646174613a2055524920717565727920666f72206e6f5f8201527f6e6578697374656e7420746f6b656e0000000000000000000000000000000000602082015250565b5f615237602f83613edc565b9150615242826151dd565b604082019050919050565b5f6020820190508181035f8301526152648161522b565b9050919050565b7f2e6a736f6e0000000000000000000000000000000000000000000000000000005f82015250565b5f61529f600583614d57565b91506152aa8261526b565b600582019050919050565b5f6152c08285614d61565b91506152cc8284614d61565b91506152d782615293565b91508190509392505050565b5f81519050919050565b5f82825260208201905092915050565b5f615307826152e3565b61531181856152ed565b9350615321818560208601613eec565b61532a81613efa565b840191505092915050565b5f6080820190506153485f830187613ff0565b6153556020830186613ff0565b6153626040830185614080565b818103606083015261537481846152fd565b905095945050505050565b5f8151905061538d81613e4a565b92915050565b5f602082840312156153a8576153a7613e17565b5b5f6153b58482850161537f565b91505092915050565b5f6060820190506153d15f8301866149c2565b6153de602083018561477b565b6153eb604083018461477b565b949350505050565b5f6153fd82613f62565b915061540883613f62565b92508282039050818111156154205761541f614ddb565b5b92915050565b7f4e487b71000000000000000000000000000000000000000000000000000000005f52603260045260245ffd5b7f4e487b71000000000000000000000000000000000000000000000000000000005f52601260045260245ffdfea264697066735822122035695ba9f773275b8180d146beef17a9b46b7f225955c8290bf26c436978c5de64736f6c634300081e0033",
			"opcodes": "PUSH1 0xA0 PUSH1 0x40 MSTORE PUSH2 0x16 PUSH1 0x1 PUSH0 PUSH0 PUSH2 0x1E8 PUSH1 0x20 SHL PUSH1 0x20 SHR JUMP JUMPDEST PUSH1 0x80 SWAP1 DUP2 MSTORE POP CALLVALUE DUP1 ISZERO PUSH2 0x27 JUMPI PUSH0 PUSH0 REVERT JUMPDEST POP PUSH1 0x40 MLOAD PUSH2 0x61B7 CODESIZE SUB DUP1 PUSH2 0x61B7 DUP4 CODECOPY DUP2 DUP2 ADD PUSH1 0x40 MSTORE DUP2 ADD SWAP1 PUSH2 0x49 SWAP2 SWAP1 PUSH2 0x856 JUMP JUMPDEST DUP2 DUP2 PUSH20 0x0 PUSH4 0x5B43BC99 DUP4 PUSH1 0x40 MLOAD DUP3 PUSH4 0xFFFFFFFF AND PUSH1 0xE0 SHL DUP2 MSTORE PUSH1 0x4 ADD PUSH2 0x82 SWAP2 SWAP1 PUSH2 0x91E JUMP JUMPDEST PUSH0 PUSH1 0x40 MLOAD DUP1 DUP4 SUB DUP2 DUP7 DUP1 EXTCODESIZE ISZERO DUP1 ISZERO PUSH2 0x98 JUMPI PUSH0 PUSH0 REVERT JUMPDEST POP GAS DELEGATECALL ISZERO DUP1 ISZERO PUSH2 0xAA JUMPI RETURNDATASIZE PUSH0 PUSH0 RETURNDATACOPY RETURNDATASIZE PUSH0 REVERT JUMPDEST POP POP POP POP PUSH20 0x0 PUSH4 0x41BB0559 DUP3 PUSH1 0x40 MLOAD DUP3 PUSH4 0xFFFFFFFF AND PUSH1 0xE0 SHL DUP2 MSTORE PUSH1 0x4 ADD PUSH2 0xE5 SWAP2 SWAP1 PUSH2 0x91E JUMP JUMPDEST PUSH0 PUSH1 0x40 MLOAD DUP1 DUP4 SUB DUP2 DUP7 DUP1 EXTCODESIZE ISZERO DUP1 ISZERO PUSH2 0xFB JUMPI PUSH0 PUSH0 REVERT JUMPDEST POP GAS DELEGATECALL ISZERO DUP1 ISZERO PUSH2 0x10D JUMPI RETURNDATASIZE PUSH0 PUSH0 RETURNDATACOPY RETURNDATASIZE PUSH0 REVERT JUMPDEST POP POP POP POP PUSH20 0x0 PUSH4 0x345E7B28 PUSH2 0x139 PUSH2 0x211 PUSH1 0x20 SHL PUSH1 0x20 SHR JUMP JUMPDEST PUSH1 0x40 MLOAD DUP3 PUSH4 0xFFFFFFFF AND PUSH1 0xE0 SHL DUP2 MSTORE PUSH1 0x4 ADD PUSH2 0x155 SWAP2 SWAP1 PUSH2 0x956 JUMP JUMPDEST PUSH0 PUSH1 0x40 MLOAD DUP1 DUP4 SUB DUP2 DUP7 DUP1 EXTCODESIZE ISZERO DUP1 ISZERO PUSH2 0x16B JUMPI PUSH0 PUSH0 REVERT JUMPDEST POP GAS DELEGATECALL ISZERO DUP1 ISZERO PUSH2 0x17D JUMPI RETURNDATASIZE PUSH0 PUSH0 RETURNDATACOPY RETURNDATASIZE PUSH0 REVERT JUMPDEST POP POP POP POP PUSH2 0x18F PUSH2 0x211 PUSH1 0x20 SHL PUSH1 0x20 SHR JUMP JUMPDEST PUSH2 0x19D PUSH2 0x219 PUSH1 0x20 SHL PUSH1 0x20 SHR JUMP JUMPDEST LT ISZERO PUSH2 0x1BA JUMPI PUSH2 0x1B9 PUSH4 0xFED8210F PUSH1 0xE0 SHL PUSH2 0x240 PUSH1 0x20 SHL PUSH1 0x20 SHR JUMP JUMPDEST JUMPDEST POP POP PUSH1 0x1 PUSH0 DUP2 SWAP1 SSTORE POP PUSH2 0x1D1 PUSH2 0x248 PUSH1 0x20 SHL PUSH1 0x20 SHR JUMP JUMPDEST PUSH2 0x1E1 DUP3 DUP3 PUSH2 0x3BE PUSH1 0x20 SHL PUSH1 0x20 SHR JUMP JUMPDEST POP POP PUSH2 0xCE9 JUMP JUMPDEST PUSH0 DUP2 PUSH4 0xFFFFFFFF AND PUSH1 0x20 DUP5 PUSH4 0xFFFFFFFF AND SWAP1 SHL PUSH1 0x40 DUP7 PUSH4 0xFFFFFFFF AND SWAP1 SHL OR OR SWAP1 POP SWAP4 SWAP3 POP POP POP JUMP JUMPDEST PUSH0 PUSH1 0x1 SWAP1 POP SWAP1 JUMP JUMPDEST PUSH0 PUSH32 0xFFFFFFFFFFFFFFFFFFFFFFFFFFFFFFFFFFFFFFFFFFFFFFFFFFFFFFFFFFFFFFFF SWAP1 POP SWAP1 JUMP JUMPDEST DUP1 PUSH0 MSTORE PUSH1 0x4 PUSH0 REVERT JUMPDEST PUSH0 PUSH20 0xFFFFFFFFFFFFFFFFFFFFFFFFFFFFFFFFFFFFFFFF AND PUSH20 0x0 PUSH4 0x893D20E8 PUSH1 0x40 MLOAD DUP2 PUSH4 0xFFFFFFFF AND PUSH1 0xE0 SHL DUP2 MSTORE PUSH1 0x4 ADD PUSH1 0x20 PUSH1 0x40 MLOAD DUP1 DUP4 SUB DUP2 DUP7 GAS DELEGATECALL ISZERO DUP1 ISZERO PUSH2 0x2A6 JUMPI RETURNDATASIZE PUSH0 PUSH0 RETURNDATACOPY RETURNDATASIZE PUSH0 REVERT JUMPDEST POP POP POP POP PUSH1 0x40 MLOAD RETURNDATASIZE PUSH1 0x1F NOT PUSH1 0x1F DUP3 ADD AND DUP3 ADD DUP1 PUSH1 0x40 MSTORE POP DUP2 ADD SWAP1 PUSH2 0x2CA SWAP2 SWAP1 PUSH2 0x9C9 JUMP JUMPDEST PUSH20 0xFFFFFFFFFFFFFFFFFFFFFFFFFFFFFFFFFFFFFFFF AND SUB PUSH2 0x3BC JUMPI PUSH20 0x0 PUSH4 0x592BD705 PUSH2 0x30D PUSH2 0x702 PUSH1 0x20 SHL PUSH1 0x20 SHR JUMP JUMPDEST PUSH1 0x40 MLOAD DUP3 PUSH4 0xFFFFFFFF AND PUSH1 0xE0 SHL DUP2 MSTORE PUSH1 0x4 ADD PUSH2 0x329 SWAP2 SWAP1 PUSH2 0xA03 JUMP JUMPDEST PUSH0 PUSH1 0x40 MLOAD DUP1 DUP4 SUB DUP2 DUP7 DUP1 EXTCODESIZE ISZERO DUP1 ISZERO PUSH2 0x33F JUMPI PUSH0 PUSH0 REVERT JUMPDEST POP GAS DELEGATECALL ISZERO DUP1 ISZERO PUSH2 0x351 JUMPI RETURNDATASIZE PUSH0 PUSH0 RETURNDATACOPY RETURNDATASIZE PUSH0 REVERT JUMPDEST POP POP POP POP PUSH20 0x0 PUSH4 0xF2F65960 PUSH3 0x93A80 PUSH1 0x40 MLOAD DUP3 PUSH4 0xFFFFFFFF AND PUSH1 0xE0 SHL DUP2 MSTORE PUSH1 0x4 ADD PUSH2 0x38F SWAP2 SWAP1 PUSH2 0xA5E JUMP JUMPDEST PUSH0 PUSH1 0x40 MLOAD DUP1 DUP4 SUB DUP2 DUP7 DUP1 EXTCODESIZE ISZERO DUP1 ISZERO PUSH2 0x3A5 JUMPI PUSH0 PUSH0 REVERT JUMPDEST POP GAS DELEGATECALL ISZERO DUP1 ISZERO PUSH2 0x3B7 JUMPI RETURNDATASIZE PUSH0 PUSH0 RETURNDATACOPY RETURNDATASIZE PUSH0 REVERT JUMPDEST POP POP POP POP JUMPDEST JUMP JUMPDEST PUSH20 0x0 PUSH4 0xA05CC559 PUSH1 0x40 MLOAD DUP2 PUSH4 0xFFFFFFFF AND PUSH1 0xE0 SHL DUP2 MSTORE PUSH1 0x4 ADD PUSH2 0x3F3 SWAP1 PUSH2 0xB0D JUMP JUMPDEST PUSH0 PUSH1 0x40 MLOAD DUP1 DUP4 SUB DUP2 DUP7 DUP1 EXTCODESIZE ISZERO DUP1 ISZERO PUSH2 0x409 JUMPI PUSH0 PUSH0 REVERT JUMPDEST POP GAS DELEGATECALL ISZERO DUP1 ISZERO PUSH2 0x41B JUMPI RETURNDATASIZE PUSH0 PUSH0 RETURNDATACOPY RETURNDATASIZE PUSH0 REVERT JUMPDEST POP POP POP POP PUSH20 0x0 PUSH4 0x821ABC2D PUSH1 0x40 MLOAD DUP2 PUSH4 0xFFFFFFFF AND PUSH1 0xE0 SHL DUP2 MSTORE PUSH1 0x4 ADD PUSH2 0x454 SWAP1 PUSH2 0xBC1 JUMP JUMPDEST PUSH0 PUSH1 0x40 MLOAD DUP1 DUP4 SUB DUP2 DUP7 DUP1 EXTCODESIZE ISZERO DUP1 ISZERO PUSH2 0x46A JUMPI PUSH0 PUSH0 REVERT JUMPDEST POP GAS DELEGATECALL ISZERO DUP1 ISZERO PUSH2 0x47C JUMPI RETURNDATASIZE PUSH0 PUSH0 RETURNDATACOPY RETURNDATASIZE PUSH0 REVERT JUMPDEST POP POP POP POP PUSH20 0x0 PUSH4 0x3802497B PUSH32 0xDFB96C060B2E58F09345A394FD8E994A6E7AC3539CDD256304C6E181A216752E PUSH1 0x40 MLOAD DUP3 PUSH4 0xFFFFFFFF AND PUSH1 0xE0 SHL DUP2 MSTORE PUSH1 0x4 ADD PUSH2 0x4D7 SWAP2 SWAP1 PUSH2 0xC2C JUMP JUMPDEST PUSH0 PUSH1 0x40 MLOAD DUP1 DUP4 SUB DUP2 DUP7 DUP1 EXTCODESIZE ISZERO DUP1 ISZERO PUSH2 0x4ED JUMPI PUSH0 PUSH0 REVERT JUMPDEST POP GAS DELEGATECALL ISZERO DUP1 ISZERO PUSH2 0x4FF JUMPI RETURNDATASIZE PUSH0 PUSH0 RETURNDATACOPY RETURNDATASIZE PUSH0 REVERT JUMPDEST POP POP POP POP PUSH20 0x0 PUSH4 0x39B37AB0 PUSH8 0xC93A592CFB2A0000 PUSH1 0x40 MLOAD DUP3 PUSH4 0xFFFFFFFF AND PUSH1 0xE0 SHL DUP2 MSTORE PUSH1 0x4 ADD PUSH2 0x542 SWAP2 SWAP1 PUSH2 0xC7E JUMP JUMPDEST PUSH0 PUSH1 0x40 MLOAD DUP1 DUP4 SUB DUP2 DUP7 DUP1 EXTCODESIZE ISZERO DUP1 ISZERO PUSH2 0x558 JUMPI PUSH0 PUSH0 REVERT JUMPDEST POP GAS DELEGATECALL ISZERO DUP1 ISZERO PUSH2 0x56A JUMPI RETURNDATASIZE PUSH0 PUSH0 RETURNDATACOPY RETURNDATASIZE PUSH0 REVERT JUMPDEST POP POP POP POP PUSH20 0x0 PUSH4 0x5B43BC99 DUP4 PUSH1 0x40 MLOAD DUP3 PUSH4 0xFFFFFFFF AND PUSH1 0xE0 SHL DUP2 MSTORE PUSH1 0x4 ADD PUSH2 0x5A5 SWAP2 SWAP1 PUSH2 0x91E JUMP JUMPDEST PUSH0 PUSH1 0x40 MLOAD DUP1 DUP4 SUB DUP2 DUP7 DUP1 EXTCODESIZE ISZERO DUP1 ISZERO PUSH2 0x5BB JUMPI PUSH0 PUSH0 REVERT JUMPDEST POP GAS DELEGATECALL ISZERO DUP1 ISZERO PUSH2 0x5CD JUMPI RETURNDATASIZE PUSH0 PUSH0 RETURNDATACOPY RETURNDATASIZE PUSH0 REVERT JUMPDEST POP POP POP POP PUSH20 0x0 PUSH4 0x41BB0559 DUP3 PUSH1 0x40 MLOAD DUP3 PUSH4 0xFFFFFFFF AND PUSH1 0xE0 SHL DUP2 MSTORE PUSH1 0x4 ADD PUSH2 0x608 SWAP2 SWAP1 PUSH2 0x91E JUMP JUMPDEST PUSH0 PUSH1 0x40 MLOAD DUP1 DUP4 SUB DUP2 DUP7 DUP1 EXTCODESIZE ISZERO DUP1 ISZERO PUSH2 0x61E JUMPI PUSH0 PUSH0 REVERT JUMPDEST POP GAS DELEGATECALL ISZERO DUP1 ISZERO PUSH2 0x630 JUMPI RETURNDATASIZE PUSH0 PUSH0 RETURNDATACOPY RETURNDATASIZE PUSH0 REVERT JUMPDEST POP POP POP POP PUSH20 0x0 PUSH4 0x345E7B28 PUSH2 0x4B0 PUSH1 0x40 MLOAD DUP3 PUSH4 0xFFFFFFFF AND PUSH1 0xE0 SHL DUP2 MSTORE PUSH1 0x4 ADD PUSH2 0x66D SWAP2 SWAP1 PUSH2 0xCD0 JUMP JUMPDEST PUSH0 PUSH1 0x40 MLOAD DUP1 DUP4 SUB DUP2 DUP7 DUP1 EXTCODESIZE ISZERO DUP1 ISZERO PUSH2 0x683 JUMPI PUSH0 PUSH0 REVERT JUMPDEST POP GAS DELEGATECALL ISZERO DUP1 ISZERO PUSH2 0x695 JUMPI RETURNDATASIZE PUSH0 PUSH0 RETURNDATACOPY RETURNDATASIZE PUSH0 REVERT JUMPDEST POP POP POP POP PUSH20 0x0 PUSH4 0x32B07B43 PUSH2 0x4B0 PUSH1 0x40 MLOAD DUP3 PUSH4 0xFFFFFFFF AND PUSH1 0xE0 SHL DUP2 MSTORE PUSH1 0x4 ADD PUSH2 0x6D2 SWAP2 SWAP1 PUSH2 0xCD0 JUMP JUMPDEST PUSH0 PUSH1 0x40 MLOAD DUP1 DUP4 SUB DUP2 DUP7 DUP1 EXTCODESIZE ISZERO DUP1 ISZERO PUSH2 0x6E8 JUMPI PUSH0 PUSH0 REVERT JUMPDEST POP GAS DELEGATECALL ISZERO DUP1 ISZERO PUSH2 0x6FA JUMPI RETURNDATASIZE PUSH0 PUSH0 RETURNDATACOPY RETURNDATASIZE PUSH0 REVERT JUMPDEST POP POP POP POP POP POP JUMP JUMPDEST PUSH0 CALLER SWAP1 POP SWAP1 JUMP JUMPDEST PUSH0 PUSH1 0x40 MLOAD SWAP1 POP SWAP1 JUMP JUMPDEST PUSH0 PUSH0 REVERT JUMPDEST PUSH0 PUSH0 REVERT JUMPDEST PUSH0 PUSH0 REVERT JUMPDEST PUSH0 PUSH0 REVERT JUMPDEST PUSH0 PUSH1 0x1F NOT PUSH1 0x1F DUP4 ADD AND SWAP1 POP SWAP2 SWAP1 POP JUMP JUMPDEST PUSH32 0x4E487B7100000000000000000000000000000000000000000000000000000000 PUSH0 MSTORE PUSH1 0x41 PUSH1 0x4 MSTORE PUSH1 0x24 PUSH0 REVERT JUMPDEST PUSH2 0x768 DUP3 PUSH2 0x722 JUMP JUMPDEST DUP2 ADD DUP2 DUP2 LT PUSH8 0xFFFFFFFFFFFFFFFF DUP3 GT OR ISZERO PUSH2 0x787 JUMPI PUSH2 0x786 PUSH2 0x732 JUMP JUMPDEST JUMPDEST DUP1 PUSH1 0x40 MSTORE POP POP POP JUMP JUMPDEST PUSH0 PUSH2 0x799 PUSH2 0x709 JUMP JUMPDEST SWAP1 POP PUSH2 0x7A5 DUP3 DUP3 PUSH2 0x75F JUMP JUMPDEST SWAP2 SWAP1 POP JUMP JUMPDEST PUSH0 PUSH8 0xFFFFFFFFFFFFFFFF DUP3 GT ISZERO PUSH2 0x7C4 JUMPI PUSH2 0x7C3 PUSH2 0x732 JUMP JUMPDEST JUMPDEST PUSH2 0x7CD DUP3 PUSH2 0x722 JUMP JUMPDEST SWAP1 POP PUSH1 0x20 DUP2 ADD SWAP1 POP SWAP2 SWAP1 POP JUMP JUMPDEST DUP3 DUP2 DUP4 MCOPY PUSH0 DUP4 DUP4 ADD MSTORE POP POP POP JUMP JUMPDEST PUSH0 PUSH2 0x7FA PUSH2 0x7F5 DUP5 PUSH2 0x7AA JUMP JUMPDEST PUSH2 0x790 JUMP JUMPDEST SWAP1 POP DUP3 DUP2 MSTORE PUSH1 0x20 DUP2 ADD DUP5 DUP5 DUP5 ADD GT ISZERO PUSH2 0x816 JUMPI PUSH2 0x815 PUSH2 0x71E JUMP JUMPDEST JUMPDEST PUSH2 0x821 DUP5 DUP3 DUP6 PUSH2 0x7DA JUMP JUMPDEST POP SWAP4 SWAP3 POP POP POP JUMP JUMPDEST PUSH0 DUP3 PUSH1 0x1F DUP4 ADD SLT PUSH2 0x83D JUMPI PUSH2 0x83C PUSH2 0x71A JUMP JUMPDEST JUMPDEST DUP2 MLOAD PUSH2 0x84D DUP5 DUP3 PUSH1 0x20 DUP7 ADD PUSH2 0x7E8 JUMP JUMPDEST SWAP2 POP POP SWAP3 SWAP2 POP POP JUMP JUMPDEST PUSH0 PUSH0 PUSH1 0x40 DUP4 DUP6 SUB SLT ISZERO PUSH2 0x86C JUMPI PUSH2 0x86B PUSH2 0x712 JUMP JUMPDEST JUMPDEST PUSH0 DUP4 ADD MLOAD PUSH8 0xFFFFFFFFFFFFFFFF DUP2 GT ISZERO PUSH2 0x889 JUMPI PUSH2 0x888 PUSH2 0x716 JUMP JUMPDEST JUMPDEST PUSH2 0x895 DUP6 DUP3 DUP7 ADD PUSH2 0x829 JUMP JUMPDEST SWAP3 POP POP PUSH1 0x20 DUP4 ADD MLOAD PUSH8 0xFFFFFFFFFFFFFFFF DUP2 GT ISZERO PUSH2 0x8B6 JUMPI PUSH2 0x8B5 PUSH2 0x716 JUMP JUMPDEST JUMPDEST PUSH2 0x8C2 DUP6 DUP3 DUP7 ADD PUSH2 0x829 JUMP JUMPDEST SWAP2 POP POP SWAP3 POP SWAP3 SWAP1 POP JUMP JUMPDEST PUSH0 DUP2 MLOAD SWAP1 POP SWAP2 SWAP1 POP JUMP JUMPDEST PUSH0 DUP3 DUP3 MSTORE PUSH1 0x20 DUP3 ADD SWAP1 POP SWAP3 SWAP2 POP POP JUMP JUMPDEST PUSH0 PUSH2 0x8F0 DUP3 PUSH2 0x8CC JUMP JUMPDEST PUSH2 0x8FA DUP2 DUP6 PUSH2 0x8D6 JUMP JUMPDEST SWAP4 POP PUSH2 0x90A DUP2 DUP6 PUSH1 0x20 DUP7 ADD PUSH2 0x7DA JUMP JUMPDEST PUSH2 0x913 DUP2 PUSH2 0x722 JUMP JUMPDEST DUP5 ADD SWAP2 POP POP SWAP3 SWAP2 POP POP JUMP JUMPDEST PUSH0 PUSH1 0x20 DUP3 ADD SWAP1 POP DUP2 DUP2 SUB PUSH0 DUP4 ADD MSTORE PUSH2 0x936 DUP2 DUP5 PUSH2 0x8E6 JUMP JUMPDEST SWAP1 POP SWAP3 SWAP2 POP POP JUMP JUMPDEST PUSH0 DUP2 SWAP1 POP SWAP2 SWAP1 POP JUMP JUMPDEST PUSH2 0x950 DUP2 PUSH2 0x93E JUMP JUMPDEST DUP3 MSTORE POP POP JUMP JUMPDEST PUSH0 PUSH1 0x20 DUP3 ADD SWAP1 POP PUSH2 0x969 PUSH0 DUP4 ADD DUP5 PUSH2 0x947 JUMP JUMPDEST SWAP3 SWAP2 POP POP JUMP JUMPDEST PUSH0 PUSH20 0xFFFFFFFFFFFFFFFFFFFFFFFFFFFFFFFFFFFFFFFF DUP3 AND SWAP1 POP SWAP2 SWAP1 POP JUMP JUMPDEST PUSH0 PUSH2 0x998 DUP3 PUSH2 0x96F JUMP JUMPDEST SWAP1 POP SWAP2 SWAP1 POP JUMP JUMPDEST PUSH2 0x9A8 DUP2 PUSH2 0x98E JUMP JUMPDEST DUP2 EQ PUSH2 0x9B2 JUMPI PUSH0 PUSH0 REVERT JUMPDEST POP JUMP JUMPDEST PUSH0 DUP2 MLOAD SWAP1 POP PUSH2 0x9C3 DUP2 PUSH2 0x99F JUMP JUMPDEST SWAP3 SWAP2 POP POP JUMP JUMPDEST PUSH0 PUSH1 0x20 DUP3 DUP5 SUB SLT ISZERO PUSH2 0x9DE JUMPI PUSH2 0x9DD PUSH2 0x712 JUMP JUMPDEST JUMPDEST PUSH0 PUSH2 0x9EB DUP5 DUP3 DUP6 ADD PUSH2 0x9B5 JUMP JUMPDEST SWAP2 POP POP SWAP3 SWAP2 POP POP JUMP JUMPDEST PUSH2 0x9FD DUP2 PUSH2 0x98E JUMP JUMPDEST DUP3 MSTORE POP POP JUMP JUMPDEST PUSH0 PUSH1 0x20 DUP3 ADD SWAP1 POP PUSH2 0xA16 PUSH0 DUP4 ADD DUP5 PUSH2 0x9F4 JUMP JUMPDEST SWAP3 SWAP2 POP POP JUMP JUMPDEST PUSH0 DUP2 SWAP1 POP SWAP2 SWAP1 POP JUMP JUMPDEST PUSH0 DUP2 SWAP1 POP SWAP2 SWAP1 POP JUMP JUMPDEST PUSH0 PUSH2 0xA48 PUSH2 0xA43 PUSH2 0xA3E DUP5 PUSH2 0xA1C JUMP JUMPDEST PUSH2 0xA25 JUMP JUMPDEST PUSH2 0x93E JUMP JUMPDEST SWAP1 POP SWAP2 SWAP1 POP JUMP JUMPDEST PUSH2 0xA58 DUP2 PUSH2 0xA2E JUMP JUMPDEST DUP3 MSTORE POP POP JUMP JUMPDEST PUSH0 PUSH1 0x20 DUP3 ADD SWAP1 POP PUSH2 0xA71 PUSH0 DUP4 ADD DUP5 PUSH2 0xA4F JUMP JUMPDEST SWAP3 SWAP2 POP POP JUMP JUMPDEST PUSH32 0x68747470733A2F2F697066732E737765622E72752F697066732F516D62704E39 PUSH0 DUP3 ADD MSTORE PUSH32 0x716578677A6E6B705445516D7264786E53665759434441624C6B42786D357641 PUSH1 0x20 DUP3 ADD MSTORE PUSH32 0x4337316A7A52786F2F0000000000000000000000000000000000000000000000 PUSH1 0x40 DUP3 ADD MSTORE POP JUMP JUMPDEST PUSH0 PUSH2 0xAF7 PUSH1 0x49 DUP4 PUSH2 0x8D6 JUMP JUMPDEST SWAP2 POP PUSH2 0xB02 DUP3 PUSH2 0xA77 JUMP JUMPDEST PUSH1 0x60 DUP3 ADD SWAP1 POP SWAP2 SWAP1 POP JUMP JUMPDEST PUSH0 PUSH1 0x20 DUP3 ADD SWAP1 POP DUP2 DUP2 SUB PUSH0 DUP4 ADD MSTORE PUSH2 0xB24 DUP2 PUSH2 0xAEB JUMP JUMPDEST SWAP1 POP SWAP2 SWAP1 POP JUMP JUMPDEST PUSH32 0x68747470733A2F2F697066732E737765622E72752F697066732F516D59526253 PUSH0 DUP3 ADD MSTORE PUSH32 0x4D3251617A47623551486F676F64714A666F505661536962333274745570764E PUSH1 0x20 DUP3 ADD MSTORE PUSH32 0x6B794A4B666858552F3F66696C656E616D653D736D65616D622E6A736F6E0000 PUSH1 0x40 DUP3 ADD MSTORE POP JUMP JUMPDEST PUSH0 PUSH2 0xBAB PUSH1 0x5E DUP4 PUSH2 0x8D6 JUMP JUMPDEST SWAP2 POP PUSH2 0xBB6 DUP3 PUSH2 0xB2B JUMP JUMPDEST PUSH1 0x60 DUP3 ADD SWAP1 POP SWAP2 SWAP1 POP JUMP JUMPDEST PUSH0 PUSH1 0x20 DUP3 ADD SWAP1 POP DUP2 DUP2 SUB PUSH0 DUP4 ADD MSTORE PUSH2 0xBD8 DUP2 PUSH2 0xB9F JUMP JUMPDEST SWAP1 POP SWAP2 SWAP1 POP JUMP JUMPDEST PUSH0 DUP2 SWAP1 POP SWAP2 SWAP1 POP JUMP JUMPDEST PUSH0 DUP2 SWAP1 POP SWAP2 SWAP1 POP JUMP JUMPDEST PUSH0 DUP2 PUSH0 SHL SWAP1 POP SWAP2 SWAP1 POP JUMP JUMPDEST PUSH0 PUSH2 0xC16 PUSH2 0xC11 PUSH2 0xC0C DUP5 PUSH2 0xBDF JUMP JUMPDEST PUSH2 0xBF1 JUMP JUMPDEST PUSH2 0xBE8 JUMP JUMPDEST SWAP1 POP SWAP2 SWAP1 POP JUMP JUMPDEST PUSH2 0xC26 DUP2 PUSH2 0xBFC JUMP JUMPDEST DUP3 MSTORE POP POP JUMP JUMPDEST PUSH0 PUSH1 0x20 DUP3 ADD SWAP1 POP PUSH2 0xC3F PUSH0 DUP4 ADD DUP5 PUSH2 0xC1D JUMP JUMPDEST SWAP3 SWAP2 POP POP JUMP JUMPDEST PUSH0 DUP2 SWAP1 POP SWAP2 SWAP1 POP JUMP JUMPDEST PUSH0 PUSH2 0xC68 PUSH2 0xC63 PUSH2 0xC5E DUP5 PUSH2 0xC45 JUMP JUMPDEST PUSH2 0xA25 JUMP JUMPDEST PUSH2 0x93E JUMP JUMPDEST SWAP1 POP SWAP2 SWAP1 POP JUMP JUMPDEST PUSH2 0xC78 DUP2 PUSH2 0xC4E JUMP JUMPDEST DUP3 MSTORE POP POP JUMP JUMPDEST PUSH0 PUSH1 0x20 DUP3 ADD SWAP1 POP PUSH2 0xC91 PUSH0 DUP4 ADD DUP5 PUSH2 0xC6F JUMP JUMPDEST SWAP3 SWAP2 POP POP JUMP JUMPDEST PUSH0 DUP2 SWAP1 POP SWAP2 SWAP1 POP JUMP JUMPDEST PUSH0 PUSH2 0xCBA PUSH2 0xCB5 PUSH2 0xCB0 DUP5 PUSH2 0xC97 JUMP JUMPDEST PUSH2 0xA25 JUMP JUMPDEST PUSH2 0x93E JUMP JUMPDEST SWAP1 POP SWAP2 SWAP1 POP JUMP JUMPDEST PUSH2 0xCCA DUP2 PUSH2 0xCA0 JUMP JUMPDEST DUP3 MSTORE POP POP JUMP JUMPDEST PUSH0 PUSH1 0x20 DUP3 ADD SWAP1 POP PUSH2 0xCE3 PUSH0 DUP4 ADD DUP5 PUSH2 0xCC1 JUMP JUMPDEST SWAP3 SWAP2 POP POP JUMP JUMPDEST PUSH1 0x80 MLOAD PUSH2 0x54B6 PUSH2 0xD01 PUSH0 CODECOPY PUSH0 PUSH2 0x16AD ADD MSTORE PUSH2 0x54B6 PUSH0 RETURN INVALID PUSH1 0x80 PUSH1 0x40 MSTORE PUSH1 0x4 CALLDATASIZE LT PUSH2 0x203 JUMPI PUSH0 CALLDATALOAD PUSH1 0xE0 SHR DUP1 PUSH4 0x69FE0E2D GT PUSH2 0x117 JUMPI DUP1 PUSH4 0xA125C824 GT PUSH2 0x9F JUMPI DUP1 PUSH4 0xB88D4FDE GT PUSH2 0x6E JUMPI DUP1 PUSH4 0xB88D4FDE EQ PUSH2 0x715 JUMPI DUP1 PUSH4 0xC87B56DD EQ PUSH2 0x731 JUMPI DUP1 PUSH4 0xDDCA3F43 EQ PUSH2 0x76D JUMPI DUP1 PUSH4 0xDFBF2E67 EQ PUSH2 0x797 JUMPI DUP1 PUSH4 0xE985E9C5 EQ PUSH2 0x7BF JUMPI PUSH2 0x203 JUMP JUMPDEST DUP1 PUSH4 0xA125C824 EQ PUSH2 0x67F JUMPI DUP1 PUSH4 0xA22CB465 EQ PUSH2 0x6A7 JUMPI DUP1 PUSH4 0xAD5B1662 EQ PUSH2 0x6CF JUMPI DUP1 PUSH4 0xB31B2E13 EQ PUSH2 0x6F9 JUMPI PUSH2 0x203 JUMP JUMPDEST DUP1 PUSH4 0x75794A3C GT PUSH2 0xE6 JUMPI DUP1 PUSH4 0x75794A3C EQ PUSH2 0x5AD JUMPI DUP1 PUSH4 0x81ED9808 EQ PUSH2 0x5D7 JUMPI DUP1 PUSH4 0x90507C78 EQ PUSH2 0x601 JUMPI DUP1 PUSH4 0x95D89B41 EQ PUSH2 0x62B JUMPI DUP1 PUSH4 0x9B865B43 EQ PUSH2 0x655 JUMPI PUSH2 0x203 JUMP JUMPDEST DUP1 PUSH4 0x69FE0E2D EQ PUSH2 0x4F7 JUMPI DUP1 PUSH4 0x6C0360EB EQ PUSH2 0x51F JUMPI DUP1 PUSH4 0x7029144C EQ PUSH2 0x549 JUMPI DUP1 PUSH4 0x70A08231 EQ PUSH2 0x571 JUMPI PUSH2 0x203 JUMP JUMPDEST DUP1 PUSH4 0x23B872DD GT PUSH2 0x19A JUMPI DUP1 PUSH4 0x49E0F980 GT PUSH2 0x169 JUMPI DUP1 PUSH4 0x49E0F980 EQ PUSH2 0x3F3 JUMPI DUP1 PUSH4 0x4BCA8AA3 EQ PUSH2 0x41B JUMPI DUP1 PUSH4 0x4F558E79 EQ PUSH2 0x457 JUMPI DUP1 PUSH4 0x55F804B3 EQ PUSH2 0x493 JUMPI DUP1 PUSH4 0x6352211E EQ PUSH2 0x4BB JUMPI PUSH2 0x203 JUMP JUMPDEST DUP1 PUSH4 0x23B872DD EQ PUSH2 0x37D JUMPI DUP1 PUSH4 0x3BB04B1F EQ PUSH2 0x399 JUMPI DUP1 PUSH4 0x3CCFD60B EQ PUSH2 0x3C1 JUMPI DUP1 PUSH4 0x42842E0E EQ PUSH2 0x3D7 JUMPI PUSH2 0x203 JUMP JUMPDEST DUP1 PUSH4 0xC142A43 GT PUSH2 0x1D6 JUMPI DUP1 PUSH4 0xC142A43 EQ PUSH2 0x2C5 JUMPI DUP1 PUSH4 0x150B7A02 EQ PUSH2 0x2EF JUMPI DUP1 PUSH4 0x162094C4 EQ PUSH2 0x32B JUMPI DUP1 PUSH4 0x18160DDD EQ PUSH2 0x353 JUMPI PUSH2 0x203 JUMP JUMPDEST DUP1 PUSH4 0x1FFC9A7 EQ PUSH2 0x207 JUMPI DUP1 PUSH4 0x6FDDE03 EQ PUSH2 0x243 JUMPI DUP1 PUSH4 0x81812FC EQ PUSH2 0x26D JUMPI DUP1 PUSH4 0x95EA7B3 EQ PUSH2 0x2A9 JUMPI JUMPDEST PUSH0 PUSH0 REVERT JUMPDEST CALLVALUE DUP1 ISZERO PUSH2 0x212 JUMPI PUSH0 PUSH0 REVERT JUMPDEST POP PUSH2 0x22D PUSH1 0x4 DUP1 CALLDATASIZE SUB DUP2 ADD SWAP1 PUSH2 0x228 SWAP2 SWAP1 PUSH2 0x3E74 JUMP JUMPDEST PUSH2 0x7FB JUMP JUMPDEST PUSH1 0x40 MLOAD PUSH2 0x23A SWAP2 SWAP1 PUSH2 0x3EB9 JUMP JUMPDEST PUSH1 0x40 MLOAD DUP1 SWAP2 SUB SWAP1 RETURN JUMPDEST CALLVALUE DUP1 ISZERO PUSH2 0x24E JUMPI PUSH0 PUSH0 REVERT JUMPDEST POP PUSH2 0x257 PUSH2 0x88C JUMP JUMPDEST PUSH1 0x40 MLOAD PUSH2 0x264 SWAP2 SWAP1 PUSH2 0x3F42 JUMP JUMPDEST PUSH1 0x40 MLOAD DUP1 SWAP2 SUB SWAP1 RETURN JUMPDEST CALLVALUE DUP1 ISZERO PUSH2 0x278 JUMPI PUSH0 PUSH0 REVERT JUMPDEST POP PUSH2 0x293 PUSH1 0x4 DUP1 CALLDATASIZE SUB DUP2 ADD SWAP1 PUSH2 0x28E SWAP2 SWAP1 PUSH2 0x3F95 JUMP JUMPDEST PUSH2 0x901 JUMP JUMPDEST PUSH1 0x40 MLOAD PUSH2 0x2A0 SWAP2 SWAP1 PUSH2 0x3FFF JUMP JUMPDEST PUSH1 0x40 MLOAD DUP1 SWAP2 SUB SWAP1 RETURN JUMPDEST PUSH2 0x2C3 PUSH1 0x4 DUP1 CALLDATASIZE SUB DUP2 ADD SWAP1 PUSH2 0x2BE SWAP2 SWAP1 PUSH2 0x4042 JUMP JUMPDEST PUSH2 0x9A0 JUMP JUMPDEST STOP JUMPDEST CALLVALUE DUP1 ISZERO PUSH2 0x2D0 JUMPI PUSH0 PUSH0 REVERT JUMPDEST POP PUSH2 0x2D9 PUSH2 0x9B0 JUMP JUMPDEST PUSH1 0x40 MLOAD PUSH2 0x2E6 SWAP2 SWAP1 PUSH2 0x408F JUMP JUMPDEST PUSH1 0x40 MLOAD DUP1 SWAP2 SUB SWAP1 RETURN JUMPDEST CALLVALUE DUP1 ISZERO PUSH2 0x2FA JUMPI PUSH0 PUSH0 REVERT JUMPDEST POP PUSH2 0x315 PUSH1 0x4 DUP1 CALLDATASIZE SUB DUP2 ADD SWAP1 PUSH2 0x310 SWAP2 SWAP1 PUSH2 0x41D4 JUMP JUMPDEST PUSH2 0x9B6 JUMP JUMPDEST PUSH1 0x40 MLOAD PUSH2 0x322 SWAP2 SWAP1 PUSH2 0x4263 JUMP JUMPDEST PUSH1 0x40 MLOAD DUP1 SWAP2 SUB SWAP1 RETURN JUMPDEST CALLVALUE DUP1 ISZERO PUSH2 0x336 JUMPI PUSH0 PUSH0 REVERT JUMPDEST POP PUSH2 0x351 PUSH1 0x4 DUP1 CALLDATASIZE SUB DUP2 ADD SWAP1 PUSH2 0x34C SWAP2 SWAP1 PUSH2 0x42D9 JUMP JUMPDEST PUSH2 0x9C9 JUMP JUMPDEST STOP JUMPDEST CALLVALUE DUP1 ISZERO PUSH2 0x35E JUMPI PUSH0 PUSH0 REVERT JUMPDEST POP PUSH2 0x367 PUSH2 0xAFA JUMP JUMPDEST PUSH1 0x40 MLOAD PUSH2 0x374 SWAP2 SWAP1 PUSH2 0x408F JUMP JUMPDEST PUSH1 0x40 MLOAD DUP1 SWAP2 SUB SWAP1 RETURN JUMPDEST PUSH2 0x397 PUSH1 0x4 DUP1 CALLDATASIZE SUB DUP2 ADD SWAP1 PUSH2 0x392 SWAP2 SWAP1 PUSH2 0x4336 JUMP JUMPDEST PUSH2 0xC7E JUMP JUMPDEST STOP JUMPDEST CALLVALUE DUP1 ISZERO PUSH2 0x3A4 JUMPI PUSH0 PUSH0 REVERT JUMPDEST POP PUSH2 0x3BF PUSH1 0x4 DUP1 CALLDATASIZE SUB DUP2 ADD SWAP1 PUSH2 0x3BA SWAP2 SWAP1 PUSH2 0x43B9 JUMP JUMPDEST PUSH2 0xC99 JUMP JUMPDEST STOP JUMPDEST CALLVALUE DUP1 ISZERO PUSH2 0x3CC JUMPI PUSH0 PUSH0 REVERT JUMPDEST POP PUSH2 0x3D5 PUSH2 0xDDE JUMP JUMPDEST STOP JUMPDEST PUSH2 0x3F1 PUSH1 0x4 DUP1 CALLDATASIZE SUB DUP2 ADD SWAP1 PUSH2 0x3EC SWAP2 SWAP1 PUSH2 0x4336 JUMP JUMPDEST PUSH2 0xF78 JUMP JUMPDEST STOP JUMPDEST CALLVALUE DUP1 ISZERO PUSH2 0x3FE JUMPI PUSH0 PUSH0 REVERT JUMPDEST POP PUSH2 0x419 PUSH1 0x4 DUP1 CALLDATASIZE SUB DUP2 ADD SWAP1 PUSH2 0x414 SWAP2 SWAP1 PUSH2 0x43B9 JUMP JUMPDEST PUSH2 0xF97 JUMP JUMPDEST STOP JUMPDEST CALLVALUE DUP1 ISZERO PUSH2 0x426 JUMPI PUSH0 PUSH0 REVERT JUMPDEST POP PUSH2 0x441 PUSH1 0x4 DUP1 CALLDATASIZE SUB DUP2 ADD SWAP1 PUSH2 0x43C SWAP2 SWAP1 PUSH2 0x4042 JUMP JUMPDEST PUSH2 0x10DC JUMP JUMPDEST PUSH1 0x40 MLOAD PUSH2 0x44E SWAP2 SWAP1 PUSH2 0x408F JUMP JUMPDEST PUSH1 0x40 MLOAD DUP1 SWAP2 SUB SWAP1 RETURN JUMPDEST CALLVALUE DUP1 ISZERO PUSH2 0x462 JUMPI PUSH0 PUSH0 REVERT JUMPDEST POP PUSH2 0x47D PUSH1 0x4 DUP1 CALLDATASIZE SUB DUP2 ADD SWAP1 PUSH2 0x478 SWAP2 SWAP1 PUSH2 0x3F95 JUMP JUMPDEST PUSH2 0x115D JUMP JUMPDEST PUSH1 0x40 MLOAD PUSH2 0x48A SWAP2 SWAP1 PUSH2 0x3EB9 JUMP JUMPDEST PUSH1 0x40 MLOAD DUP1 SWAP2 SUB SWAP1 RETURN JUMPDEST CALLVALUE DUP1 ISZERO PUSH2 0x49E JUMPI PUSH0 PUSH0 REVERT JUMPDEST POP PUSH2 0x4B9 PUSH1 0x4 DUP1 CALLDATASIZE SUB DUP2 ADD SWAP1 PUSH2 0x4B4 SWAP2 SWAP1 PUSH2 0x43E4 JUMP JUMPDEST PUSH2 0x116E JUMP JUMPDEST STOP JUMPDEST CALLVALUE DUP1 ISZERO PUSH2 0x4C6 JUMPI PUSH0 PUSH0 REVERT JUMPDEST POP PUSH2 0x4E1 PUSH1 0x4 DUP1 CALLDATASIZE SUB DUP2 ADD SWAP1 PUSH2 0x4DC SWAP2 SWAP1 PUSH2 0x3F95 JUMP JUMPDEST PUSH2 0x12B6 JUMP JUMPDEST PUSH1 0x40 MLOAD PUSH2 0x4EE SWAP2 SWAP1 PUSH2 0x3FFF JUMP JUMPDEST PUSH1 0x40 MLOAD DUP1 SWAP2 SUB SWAP1 RETURN JUMPDEST CALLVALUE DUP1 ISZERO PUSH2 0x502 JUMPI PUSH0 PUSH0 REVERT JUMPDEST POP PUSH2 0x51D PUSH1 0x4 DUP1 CALLDATASIZE SUB DUP2 ADD SWAP1 PUSH2 0x518 SWAP2 SWAP1 PUSH2 0x3F95 JUMP JUMPDEST PUSH2 0x12C7 JUMP JUMPDEST STOP JUMPDEST CALLVALUE DUP1 ISZERO PUSH2 0x52A JUMPI PUSH0 PUSH0 REVERT JUMPDEST POP PUSH2 0x533 PUSH2 0x140C JUMP JUMPDEST PUSH1 0x40 MLOAD PUSH2 0x540 SWAP2 SWAP1 PUSH2 0x3F42 JUMP JUMPDEST PUSH1 0x40 MLOAD DUP1 SWAP2 SUB SWAP1 RETURN JUMPDEST CALLVALUE DUP1 ISZERO PUSH2 0x554 JUMPI PUSH0 PUSH0 REVERT JUMPDEST POP PUSH2 0x56F PUSH1 0x4 DUP1 CALLDATASIZE SUB DUP2 ADD SWAP1 PUSH2 0x56A SWAP2 SWAP1 PUSH2 0x44CD JUMP JUMPDEST PUSH2 0x1481 JUMP JUMPDEST STOP JUMPDEST CALLVALUE DUP1 ISZERO PUSH2 0x57C JUMPI PUSH0 PUSH0 REVERT JUMPDEST POP PUSH2 0x597 PUSH1 0x4 DUP1 CALLDATASIZE SUB DUP2 ADD SWAP1 PUSH2 0x592 SWAP2 SWAP1 PUSH2 0x4543 JUMP JUMPDEST PUSH2 0x156E JUMP JUMPDEST PUSH1 0x40 MLOAD PUSH2 0x5A4 SWAP2 SWAP1 PUSH2 0x408F JUMP JUMPDEST PUSH1 0x40 MLOAD DUP1 SWAP2 SUB SWAP1 RETURN JUMPDEST CALLVALUE DUP1 ISZERO PUSH2 0x5B8 JUMPI PUSH0 PUSH0 REVERT JUMPDEST POP PUSH2 0x5C1 PUSH2 0x163A JUMP JUMPDEST PUSH1 0x40 MLOAD PUSH2 0x5CE SWAP2 SWAP1 PUSH2 0x408F JUMP JUMPDEST PUSH1 0x40 MLOAD DUP1 SWAP2 SUB SWAP1 RETURN JUMPDEST CALLVALUE DUP1 ISZERO PUSH2 0x5E2 JUMPI PUSH0 PUSH0 REVERT JUMPDEST POP PUSH2 0x5EB PUSH2 0x16AB JUMP JUMPDEST PUSH1 0x40 MLOAD PUSH2 0x5F8 SWAP2 SWAP1 PUSH2 0x408F JUMP JUMPDEST PUSH1 0x40 MLOAD DUP1 SWAP2 SUB SWAP1 RETURN JUMPDEST CALLVALUE DUP1 ISZERO PUSH2 0x60C JUMPI PUSH0 PUSH0 REVERT JUMPDEST POP PUSH2 0x615 PUSH2 0x16CF JUMP JUMPDEST PUSH1 0x40 MLOAD PUSH2 0x622 SWAP2 SWAP1 PUSH2 0x408F JUMP JUMPDEST PUSH1 0x40 MLOAD DUP1 SWAP2 SUB SWAP1 RETURN JUMPDEST CALLVALUE DUP1 ISZERO PUSH2 0x636 JUMPI PUSH0 PUSH0 REVERT JUMPDEST POP PUSH2 0x63F PUSH2 0x16D5 JUMP JUMPDEST PUSH1 0x40 MLOAD PUSH2 0x64C SWAP2 SWAP1 PUSH2 0x3F42 JUMP JUMPDEST PUSH1 0x40 MLOAD DUP1 SWAP2 SUB SWAP1 RETURN JUMPDEST CALLVALUE DUP1 ISZERO PUSH2 0x660 JUMPI PUSH0 PUSH0 REVERT JUMPDEST POP PUSH2 0x669 PUSH2 0x174A JUMP JUMPDEST PUSH1 0x40 MLOAD PUSH2 0x676 SWAP2 SWAP1 PUSH2 0x3F42 JUMP JUMPDEST PUSH1 0x40 MLOAD DUP1 SWAP2 SUB SWAP1 RETURN JUMPDEST CALLVALUE DUP1 ISZERO PUSH2 0x68A JUMPI PUSH0 PUSH0 REVERT JUMPDEST POP PUSH2 0x6A5 PUSH1 0x4 DUP1 CALLDATASIZE SUB DUP2 ADD SWAP1 PUSH2 0x6A0 SWAP2 SWAP1 PUSH2 0x43E4 JUMP JUMPDEST PUSH2 0x1783 JUMP JUMPDEST STOP JUMPDEST CALLVALUE DUP1 ISZERO PUSH2 0x6B2 JUMPI PUSH0 PUSH0 REVERT JUMPDEST POP PUSH2 0x6CD PUSH1 0x4 DUP1 CALLDATASIZE SUB DUP2 ADD SWAP1 PUSH2 0x6C8 SWAP2 SWAP1 PUSH2 0x4598 JUMP JUMPDEST PUSH2 0x18CB JUMP JUMPDEST STOP JUMPDEST CALLVALUE DUP1 ISZERO PUSH2 0x6DA JUMPI PUSH0 PUSH0 REVERT JUMPDEST POP PUSH2 0x6E3 PUSH2 0x19A9 JUMP JUMPDEST PUSH1 0x40 MLOAD PUSH2 0x6F0 SWAP2 SWAP1 PUSH2 0x408F JUMP JUMPDEST PUSH1 0x40 MLOAD DUP1 SWAP2 SUB SWAP1 RETURN JUMPDEST PUSH2 0x713 PUSH1 0x4 DUP1 CALLDATASIZE SUB DUP2 ADD SWAP1 PUSH2 0x70E SWAP2 SWAP1 PUSH2 0x462B JUMP JUMPDEST PUSH2 0x19AF JUMP JUMPDEST STOP JUMPDEST PUSH2 0x72F PUSH1 0x4 DUP1 CALLDATASIZE SUB DUP2 ADD SWAP1 PUSH2 0x72A SWAP2 SWAP1 PUSH2 0x41D4 JUMP JUMPDEST PUSH2 0x1D34 JUMP JUMPDEST STOP JUMPDEST CALLVALUE DUP1 ISZERO PUSH2 0x73C JUMPI PUSH0 PUSH0 REVERT JUMPDEST POP PUSH2 0x757 PUSH1 0x4 DUP1 CALLDATASIZE SUB DUP2 ADD SWAP1 PUSH2 0x752 SWAP2 SWAP1 PUSH2 0x3F95 JUMP JUMPDEST PUSH2 0x1D85 JUMP JUMPDEST PUSH1 0x40 MLOAD PUSH2 0x764 SWAP2 SWAP1 PUSH2 0x3F42 JUMP JUMPDEST PUSH1 0x40 MLOAD DUP1 SWAP2 SUB SWAP1 RETURN JUMPDEST CALLVALUE DUP1 ISZERO PUSH2 0x778 JUMPI PUSH0 PUSH0 REVERT JUMPDEST POP PUSH2 0x781 PUSH2 0x1E67 JUMP JUMPDEST PUSH1 0x40 MLOAD PUSH2 0x78E SWAP2 SWAP1 PUSH2 0x408F JUMP JUMPDEST PUSH1 0x40 MLOAD DUP1 SWAP2 SUB SWAP1 RETURN JUMPDEST CALLVALUE DUP1 ISZERO PUSH2 0x7A2 JUMPI PUSH0 PUSH0 REVERT JUMPDEST POP PUSH2 0x7BD PUSH1 0x4 DUP1 CALLDATASIZE SUB DUP2 ADD SWAP1 PUSH2 0x7B8 SWAP2 SWAP1 PUSH2 0x43B9 JUMP JUMPDEST PUSH2 0x1ED8 JUMP JUMPDEST STOP JUMPDEST CALLVALUE DUP1 ISZERO PUSH2 0x7CA JUMPI PUSH0 PUSH0 REVERT JUMPDEST POP PUSH2 0x7E5 PUSH1 0x4 DUP1 CALLDATASIZE SUB DUP2 ADD SWAP1 PUSH2 0x7E0 SWAP2 SWAP1 PUSH2 0x4688 JUMP JUMPDEST PUSH2 0x201D JUMP JUMPDEST PUSH1 0x40 MLOAD PUSH2 0x7F2 SWAP2 SWAP1 PUSH2 0x3EB9 JUMP JUMPDEST PUSH1 0x40 MLOAD DUP1 SWAP2 SUB SWAP1 RETURN JUMPDEST PUSH0 PUSH4 0x1FFC9A7 PUSH1 0xE0 SHL DUP3 PUSH28 0xFFFFFFFFFFFFFFFFFFFFFFFFFFFFFFFFFFFFFFFFFFFFFFFFFFFFFFFF NOT AND EQ DUP1 PUSH2 0x855 JUMPI POP PUSH4 0x80AC58CD PUSH1 0xE0 SHL DUP3 PUSH28 0xFFFFFFFFFFFFFFFFFFFFFFFFFFFFFFFFFFFFFFFFFFFFFFFFFFFFFFFF NOT AND EQ JUMPDEST DUP1 PUSH2 0x885 JUMPI POP PUSH4 0x5B5E139F PUSH1 0xE0 SHL DUP3 PUSH28 0xFFFFFFFFFFFFFFFFFFFFFFFFFFFFFFFFFFFFFFFFFFFFFFFFFFFFFFFF NOT AND EQ JUMPDEST SWAP1 POP SWAP2 SWAP1 POP JUMP JUMPDEST PUSH1 0x60 PUSH20 0x0 PUSH4 0x6FDDE03 PUSH1 0x40 MLOAD DUP2 PUSH4 0xFFFFFFFF AND PUSH1 0xE0 SHL DUP2 MSTORE PUSH1 0x4 ADD PUSH0 PUSH1 0x40 MLOAD DUP1 DUP4 SUB DUP2 DUP7 GAS DELEGATECALL ISZERO DUP1 ISZERO PUSH2 0x8D4 JUMPI RETURNDATASIZE PUSH0 PUSH0 RETURNDATACOPY RETURNDATASIZE PUSH0 REVERT JUMPDEST POP POP POP POP PUSH1 0x40 MLOAD RETURNDATASIZE PUSH0 DUP3 RETURNDATACOPY RETURNDATASIZE PUSH1 0x1F NOT PUSH1 0x1F DUP3 ADD AND DUP3 ADD DUP1 PUSH1 0x40 MSTORE POP DUP2 ADD SWAP1 PUSH2 0x8FC SWAP2 SWAP1 PUSH2 0x4734 JUMP JUMPDEST SWAP1 POP SWAP1 JUMP JUMPDEST PUSH0 PUSH2 0x90B DUP3 PUSH2 0x209E JUMP JUMPDEST PUSH2 0x920 JUMPI PUSH2 0x91F PUSH4 0xCF4700E4 PUSH1 0xE0 SHL PUSH2 0x2272 JUMP JUMPDEST JUMPDEST PUSH20 0x0 PUSH4 0xA7CC0136 DUP4 PUSH1 0x40 MLOAD DUP3 PUSH4 0xFFFFFFFF AND PUSH1 0xE0 SHL DUP2 MSTORE PUSH1 0x4 ADD PUSH2 0x957 SWAP2 SWAP1 PUSH2 0x478A JUMP JUMPDEST PUSH1 0x20 PUSH1 0x40 MLOAD DUP1 DUP4 SUB DUP2 DUP7 GAS DELEGATECALL ISZERO DUP1 ISZERO PUSH2 0x972 JUMPI RETURNDATASIZE PUSH0 PUSH0 RETURNDATACOPY RETURNDATASIZE PUSH0 REVERT JUMPDEST POP POP POP POP PUSH1 0x40 MLOAD RETURNDATASIZE PUSH1 0x1F NOT PUSH1 0x1F DUP3 ADD AND DUP3 ADD DUP1 PUSH1 0x40 MSTORE POP DUP2 ADD SWAP1 PUSH2 0x996 SWAP2 SWAP1 PUSH2 0x47F4 JUMP JUMPDEST PUSH0 ADD MLOAD SWAP1 POP SWAP2 SWAP1 POP JUMP JUMPDEST PUSH2 0x9AC DUP3 DUP3 PUSH1 0x1 PUSH2 0x227A JUMP JUMPDEST POP POP JUMP JUMPDEST PUSH2 0x4B0 DUP2 JUMP JUMPDEST PUSH0 PUSH4 0x150B7A02 PUSH1 0xE0 SHL SWAP1 POP SWAP5 SWAP4 POP POP POP POP JUMP JUMPDEST PUSH2 0x9D1 PUSH2 0x23B8 JUMP JUMPDEST PUSH20 0xFFFFFFFFFFFFFFFFFFFFFFFFFFFFFFFFFFFFFFFF AND PUSH20 0x0 PUSH4 0x893D20E8 PUSH1 0x40 MLOAD DUP2 PUSH4 0xFFFFFFFF AND PUSH1 0xE0 SHL DUP2 MSTORE PUSH1 0x4 ADD PUSH1 0x20 PUSH1 0x40 MLOAD DUP1 DUP4 SUB DUP2 DUP7 GAS DELEGATECALL ISZERO DUP1 ISZERO PUSH2 0xA2E JUMPI RETURNDATASIZE PUSH0 PUSH0 RETURNDATACOPY RETURNDATASIZE PUSH0 REVERT JUMPDEST POP POP POP POP PUSH1 0x40 MLOAD RETURNDATASIZE PUSH1 0x1F NOT PUSH1 0x1F DUP3 ADD AND DUP3 ADD DUP1 PUSH1 0x40 MSTORE POP DUP2 ADD SWAP1 PUSH2 0xA52 SWAP2 SWAP1 PUSH2 0x481F JUMP JUMPDEST PUSH20 0xFFFFFFFFFFFFFFFFFFFFFFFFFFFFFFFFFFFFFFFF AND EQ PUSH2 0xAA8 JUMPI PUSH1 0x40 MLOAD PUSH32 0x8C379A000000000000000000000000000000000000000000000000000000000 DUP2 MSTORE PUSH1 0x4 ADD PUSH2 0xA9F SWAP1 PUSH2 0x4894 JUMP JUMPDEST PUSH1 0x40 MLOAD DUP1 SWAP2 SUB SWAP1 REVERT JUMPDEST PUSH2 0xAF5 DUP4 DUP4 DUP4 DUP1 DUP1 PUSH1 0x1F ADD PUSH1 0x20 DUP1 SWAP2 DIV MUL PUSH1 0x20 ADD PUSH1 0x40 MLOAD SWAP1 DUP2 ADD PUSH1 0x40 MSTORE DUP1 SWAP4 SWAP3 SWAP2 SWAP1 DUP2 DUP2 MSTORE PUSH1 0x20 ADD DUP4 DUP4 DUP1 DUP3 DUP5 CALLDATACOPY PUSH0 DUP2 DUP5 ADD MSTORE PUSH1 0x1F NOT PUSH1 0x1F DUP3 ADD AND SWAP1 POP DUP1 DUP4 ADD SWAP3 POP POP POP POP POP POP POP PUSH2 0x23BF JUMP JUMPDEST POP POP POP JUMP JUMPDEST PUSH0 PUSH2 0xB03 PUSH2 0x245F JUMP JUMPDEST PUSH20 0x0 PUSH4 0x44FAF255 PUSH1 0x40 MLOAD DUP2 PUSH4 0xFFFFFFFF AND PUSH1 0xE0 SHL DUP2 MSTORE PUSH1 0x4 ADD PUSH1 0x20 PUSH1 0x40 MLOAD DUP1 DUP4 SUB DUP2 DUP7 GAS DELEGATECALL ISZERO DUP1 ISZERO PUSH2 0xB4A JUMPI RETURNDATASIZE PUSH0 PUSH0 RETURNDATACOPY RETURNDATASIZE PUSH0 REVERT JUMPDEST POP POP POP POP PUSH1 0x40 MLOAD RETURNDATASIZE PUSH1 0x1F NOT PUSH1 0x1F DUP3 ADD AND DUP3 ADD DUP1 PUSH1 0x40 MSTORE POP DUP2 ADD SWAP1 PUSH2 0xB6E SWAP2 SWAP1 PUSH2 0x48C6 JUMP JUMPDEST PUSH20 0x0 PUSH4 0x9451C99A PUSH1 0x40 MLOAD DUP2 PUSH4 0xFFFFFFFF AND PUSH1 0xE0 SHL DUP2 MSTORE PUSH1 0x4 ADD PUSH1 0x20 PUSH1 0x40 MLOAD DUP1 DUP4 SUB DUP2 DUP7 GAS DELEGATECALL ISZERO DUP1 ISZERO PUSH2 0xBB5 JUMPI RETURNDATASIZE PUSH0 PUSH0 RETURNDATACOPY RETURNDATASIZE PUSH0 REVERT JUMPDEST POP POP POP POP PUSH1 0x40 MLOAD RETURNDATASIZE PUSH1 0x1F NOT PUSH1 0x1F DUP3 ADD AND DUP3 ADD DUP1 PUSH1 0x40 MSTORE POP DUP2 ADD SWAP1 PUSH2 0xBD9 SWAP2 SWAP1 PUSH2 0x48C6 JUMP JUMPDEST SUB SUB SWAP1 POP PUSH32 0xFFFFFFFFFFFFFFFFFFFFFFFFFFFFFFFFFFFFFFFFFFFFFFFFFFFFFFFFFFFFFFFF PUSH2 0xC06 PUSH2 0x2467 JUMP JUMPDEST EQ PUSH2 0xC7B JUMPI PUSH20 0x0 PUSH4 0xD20B6EE7 PUSH1 0x40 MLOAD DUP2 PUSH4 0xFFFFFFFF AND PUSH1 0xE0 SHL DUP2 MSTORE PUSH1 0x4 ADD PUSH1 0x20 PUSH1 0x40 MLOAD DUP1 DUP4 SUB DUP2 DUP7 GAS DELEGATECALL ISZERO DUP1 ISZERO PUSH2 0xC52 JUMPI RETURNDATASIZE PUSH0 PUSH0 RETURNDATACOPY RETURNDATASIZE PUSH0 REVERT JUMPDEST POP POP POP POP PUSH1 0x40 MLOAD RETURNDATASIZE PUSH1 0x1F NOT PUSH1 0x1F DUP3 ADD AND DUP3 ADD DUP1 PUSH1 0x40 MSTORE POP DUP2 ADD SWAP1 PUSH2 0xC76 SWAP2 SWAP1 PUSH2 0x48C6 JUMP JUMPDEST DUP2 ADD SWAP1 POP JUMPDEST SWAP1 JUMP JUMPDEST PUSH2 0xC89 DUP4 DUP4 DUP4 PUSH2 0x248E JUMP JUMPDEST PUSH2 0xC94 DUP4 DUP4 DUP4 PUSH2 0x2930 JUMP JUMPDEST POP POP POP JUMP JUMPDEST PUSH2 0xCA1 PUSH2 0x23B8 JUMP JUMPDEST PUSH20 0xFFFFFFFFFFFFFFFFFFFFFFFFFFFFFFFFFFFFFFFF AND PUSH20 0x0 PUSH4 0x893D20E8 PUSH1 0x40 MLOAD DUP2 PUSH4 0xFFFFFFFF AND PUSH1 0xE0 SHL DUP2 MSTORE PUSH1 0x4 ADD PUSH1 0x20 PUSH1 0x40 MLOAD DUP1 DUP4 SUB DUP2 DUP7 GAS DELEGATECALL ISZERO DUP1 ISZERO PUSH2 0xCFE JUMPI RETURNDATASIZE PUSH0 PUSH0 RETURNDATACOPY RETURNDATASIZE PUSH0 REVERT JUMPDEST POP POP POP POP PUSH1 0x40 MLOAD RETURNDATASIZE PUSH1 0x1F NOT PUSH1 0x1F DUP3 ADD AND DUP3 ADD DUP1 PUSH1 0x40 MSTORE POP DUP2 ADD SWAP1 PUSH2 0xD22 SWAP2 SWAP1 PUSH2 0x481F JUMP JUMPDEST PUSH20 0xFFFFFFFFFFFFFFFFFFFFFFFFFFFFFFFFFFFFFFFF AND EQ PUSH2 0xD78 JUMPI PUSH1 0x40 MLOAD PUSH32 0x8C379A000000000000000000000000000000000000000000000000000000000 DUP2 MSTORE PUSH1 0x4 ADD PUSH2 0xD6F SWAP1 PUSH2 0x4894 JUMP JUMPDEST PUSH1 0x40 MLOAD DUP1 SWAP2 SUB SWAP1 REVERT JUMPDEST PUSH20 0x0 PUSH4 0x3802497B DUP3 PUSH1 0x40 MLOAD DUP3 PUSH4 0xFFFFFFFF AND PUSH1 0xE0 SHL DUP2 MSTORE PUSH1 0x4 ADD PUSH2 0xDAF SWAP2 SWAP1 PUSH2 0x4900 JUMP JUMPDEST PUSH0 PUSH1 0x40 MLOAD DUP1 DUP4 SUB DUP2 DUP7 DUP1 EXTCODESIZE ISZERO DUP1 ISZERO PUSH2 0xDC5 JUMPI PUSH0 PUSH0 REVERT JUMPDEST POP GAS DELEGATECALL ISZERO DUP1 ISZERO PUSH2 0xDD7 JUMPI RETURNDATASIZE PUSH0 PUSH0 RETURNDATACOPY RETURNDATASIZE PUSH0 REVERT JUMPDEST POP POP POP POP POP JUMP JUMPDEST PUSH2 0xDE6 PUSH2 0x23B8 JUMP JUMPDEST PUSH20 0xFFFFFFFFFFFFFFFFFFFFFFFFFFFFFFFFFFFFFFFF AND PUSH20 0x0 PUSH4 0x893D20E8 PUSH1 0x40 MLOAD DUP2 PUSH4 0xFFFFFFFF AND PUSH1 0xE0 SHL DUP2 MSTORE PUSH1 0x4 ADD PUSH1 0x20 PUSH1 0x40 MLOAD DUP1 DUP4 SUB DUP2 DUP7 GAS DELEGATECALL ISZERO DUP1 ISZERO PUSH2 0xE43 JUMPI RETURNDATASIZE PUSH0 PUSH0 RETURNDATACOPY RETURNDATASIZE PUSH0 REVERT JUMPDEST POP POP POP POP PUSH1 0x40 MLOAD RETURNDATASIZE PUSH1 0x1F NOT PUSH1 0x1F DUP3 ADD AND DUP3 ADD DUP1 PUSH1 0x40 MSTORE POP DUP2 ADD SWAP1 PUSH2 0xE67 SWAP2 SWAP1 PUSH2 0x481F JUMP JUMPDEST PUSH20 0xFFFFFFFFFFFFFFFFFFFFFFFFFFFFFFFFFFFFFFFF AND EQ PUSH2 0xEBD JUMPI PUSH1 0x40 MLOAD PUSH32 0x8C379A000000000000000000000000000000000000000000000000000000000 DUP2 MSTORE PUSH1 0x4 ADD PUSH2 0xEB4 SWAP1 PUSH2 0x4894 JUMP JUMPDEST PUSH1 0x40 MLOAD DUP1 SWAP2 SUB SWAP1 REVERT JUMPDEST PUSH2 0xEC5 PUSH2 0x2A35 JUMP JUMPDEST PUSH0 CALLER PUSH20 0xFFFFFFFFFFFFFFFFFFFFFFFFFFFFFFFFFFFFFFFF AND SELFBALANCE PUSH1 0x40 MLOAD PUSH2 0xEEA SWAP1 PUSH2 0x4946 JUMP JUMPDEST PUSH0 PUSH1 0x40 MLOAD DUP1 DUP4 SUB DUP2 DUP6 DUP8 GAS CALL SWAP3 POP POP POP RETURNDATASIZE DUP1 PUSH0 DUP2 EQ PUSH2 0xF24 JUMPI PUSH1 0x40 MLOAD SWAP2 POP PUSH1 0x1F NOT PUSH1 0x3F RETURNDATASIZE ADD AND DUP3 ADD PUSH1 0x40 MSTORE RETURNDATASIZE DUP3 MSTORE RETURNDATASIZE PUSH0 PUSH1 0x20 DUP5 ADD RETURNDATACOPY PUSH2 0xF29 JUMP JUMPDEST PUSH1 0x60 SWAP2 POP JUMPDEST POP POP SWAP1 POP DUP1 PUSH2 0xF6D JUMPI PUSH1 0x40 MLOAD PUSH32 0x8C379A000000000000000000000000000000000000000000000000000000000 DUP2 MSTORE PUSH1 0x4 ADD PUSH2 0xF64 SWAP1 PUSH2 0x49A4 JUMP JUMPDEST PUSH1 0x40 MLOAD DUP1 SWAP2 SUB SWAP1 REVERT JUMPDEST POP PUSH2 0xF76 PUSH2 0x2A82 JUMP JUMPDEST JUMP JUMPDEST PUSH2 0xF92 DUP4 DUP4 DUP4 PUSH1 0x40 MLOAD DUP1 PUSH1 0x20 ADD PUSH1 0x40 MSTORE DUP1 PUSH0 DUP2 MSTORE POP PUSH2 0x1D34 JUMP JUMPDEST POP POP POP JUMP JUMPDEST PUSH2 0xF9F PUSH2 0x23B8 JUMP JUMPDEST PUSH20 0xFFFFFFFFFFFFFFFFFFFFFFFFFFFFFFFFFFFFFFFF AND PUSH20 0x0 PUSH4 0x893D20E8 PUSH1 0x40 MLOAD DUP2 PUSH4 0xFFFFFFFF AND PUSH1 0xE0 SHL DUP2 MSTORE PUSH1 0x4 ADD PUSH1 0x20 PUSH1 0x40 MLOAD DUP1 DUP4 SUB DUP2 DUP7 GAS DELEGATECALL ISZERO DUP1 ISZERO PUSH2 0xFFC JUMPI RETURNDATASIZE PUSH0 PUSH0 RETURNDATACOPY RETURNDATASIZE PUSH0 REVERT JUMPDEST POP POP POP POP PUSH1 0x40 MLOAD RETURNDATASIZE PUSH1 0x1F NOT PUSH1 0x1F DUP3 ADD AND DUP3 ADD DUP1 PUSH1 0x40 MSTORE POP DUP2 ADD SWAP1 PUSH2 0x1020 SWAP2 SWAP1 PUSH2 0x481F JUMP JUMPDEST PUSH20 0xFFFFFFFFFFFFFFFFFFFFFFFFFFFFFFFFFFFFFFFF AND EQ PUSH2 0x1076 JUMPI PUSH1 0x40 MLOAD PUSH32 0x8C379A000000000000000000000000000000000000000000000000000000000 DUP2 MSTORE PUSH1 0x4 ADD PUSH2 0x106D SWAP1 PUSH2 0x4894 JUMP JUMPDEST PUSH1 0x40 MLOAD DUP1 SWAP2 SUB SWAP1 REVERT JUMPDEST PUSH20 0x0 PUSH4 0x247C6CE0 DUP3 PUSH1 0x40 MLOAD DUP3 PUSH4 0xFFFFFFFF AND PUSH1 0xE0 SHL DUP2 MSTORE PUSH1 0x4 ADD PUSH2 0x10AD SWAP2 SWAP1 PUSH2 0x4900 JUMP JUMPDEST PUSH0 PUSH1 0x40 MLOAD DUP1 DUP4 SUB DUP2 DUP7 DUP1 EXTCODESIZE ISZERO DUP1 ISZERO PUSH2 0x10C3 JUMPI PUSH0 PUSH0 REVERT JUMPDEST POP GAS DELEGATECALL ISZERO DUP1 ISZERO PUSH2 0x10D5 JUMPI RETURNDATASIZE PUSH0 PUSH0 RETURNDATACOPY RETURNDATASIZE PUSH0 REVERT JUMPDEST POP POP POP POP POP JUMP JUMPDEST PUSH0 PUSH20 0x0 PUSH4 0xE149F036 DUP5 DUP5 PUSH1 0x40 MLOAD DUP4 PUSH4 0xFFFFFFFF AND PUSH1 0xE0 SHL DUP2 MSTORE PUSH1 0x4 ADD PUSH2 0x1116 SWAP3 SWAP2 SWAP1 PUSH2 0x49D1 JUMP JUMPDEST PUSH1 0x20 PUSH1 0x40 MLOAD DUP1 DUP4 SUB DUP2 DUP7 GAS DELEGATECALL ISZERO DUP1 ISZERO PUSH2 0x1131 JUMPI RETURNDATASIZE PUSH0 PUSH0 RETURNDATACOPY RETURNDATASIZE PUSH0 REVERT JUMPDEST POP POP POP POP PUSH1 0x40 MLOAD RETURNDATASIZE PUSH1 0x1F NOT PUSH1 0x1F DUP3 ADD AND DUP3 ADD DUP1 PUSH1 0x40 MSTORE POP DUP2 ADD SWAP1 PUSH2 0x1155 SWAP2 SWAP1 PUSH2 0x48C6 JUMP JUMPDEST SWAP1 POP SWAP3 SWAP2 POP POP JUMP JUMPDEST PUSH0 PUSH2 0x1167 DUP3 PUSH2 0x209E JUMP JUMPDEST SWAP1 POP SWAP2 SWAP1 POP JUMP JUMPDEST PUSH2 0x1176 PUSH2 0x23B8 JUMP JUMPDEST PUSH20 0xFFFFFFFFFFFFFFFFFFFFFFFFFFFFFFFFFFFFFFFF AND PUSH20 0x0 PUSH4 0x893D20E8 PUSH1 0x40 MLOAD DUP2 PUSH4 0xFFFFFFFF AND PUSH1 0xE0 SHL DUP2 MSTORE PUSH1 0x4 ADD PUSH1 0x20 PUSH1 0x40 MLOAD DUP1 DUP4 SUB DUP2 DUP7 GAS DELEGATECALL ISZERO DUP1 ISZERO PUSH2 0x11D3 JUMPI RETURNDATASIZE PUSH0 PUSH0 RETURNDATACOPY RETURNDATASIZE PUSH0 REVERT JUMPDEST POP POP POP POP PUSH1 0x40 MLOAD RETURNDATASIZE PUSH1 0x1F NOT PUSH1 0x1F DUP3 ADD AND DUP3 ADD DUP1 PUSH1 0x40 MSTORE POP DUP2 ADD SWAP1 PUSH2 0x11F7 SWAP2 SWAP1 PUSH2 0x481F JUMP JUMPDEST PUSH20 0xFFFFFFFFFFFFFFFFFFFFFFFFFFFFFFFFFFFFFFFF AND EQ PUSH2 0x124D JUMPI PUSH1 0x40 MLOAD PUSH32 0x8C379A000000000000000000000000000000000000000000000000000000000 DUP2 MSTORE PUSH1 0x4 ADD PUSH2 0x1244 SWAP1 PUSH2 0x4894 JUMP JUMPDEST PUSH1 0x40 MLOAD DUP1 SWAP2 SUB SWAP1 REVERT JUMPDEST PUSH20 0x0 PUSH4 0xA05CC559 DUP4 DUP4 PUSH1 0x40 MLOAD DUP4 PUSH4 0xFFFFFFFF AND PUSH1 0xE0 SHL DUP2 MSTORE PUSH1 0x4 ADD PUSH2 0x1286 SWAP3 SWAP2 SWAP1 PUSH2 0x4A34 JUMP JUMPDEST PUSH0 PUSH1 0x40 MLOAD DUP1 DUP4 SUB DUP2 DUP7 DUP1 EXTCODESIZE ISZERO DUP1 ISZERO PUSH2 0x129C JUMPI PUSH0 PUSH0 REVERT JUMPDEST POP GAS DELEGATECALL ISZERO DUP1 ISZERO PUSH2 0x12AE JUMPI RETURNDATASIZE PUSH0 PUSH0 RETURNDATACOPY RETURNDATASIZE PUSH0 REVERT JUMPDEST POP POP POP POP POP POP JUMP JUMPDEST PUSH0 PUSH2 0x12C0 DUP3 PUSH2 0x2A8B JUMP JUMPDEST SWAP1 POP SWAP2 SWAP1 POP JUMP JUMPDEST PUSH2 0x12CF PUSH2 0x23B8 JUMP JUMPDEST PUSH20 0xFFFFFFFFFFFFFFFFFFFFFFFFFFFFFFFFFFFFFFFF AND PUSH20 0x0 PUSH4 0x893D20E8 PUSH1 0x40 MLOAD DUP2 PUSH4 0xFFFFFFFF AND PUSH1 0xE0 SHL DUP2 MSTORE PUSH1 0x4 ADD PUSH1 0x20 PUSH1 0x40 MLOAD DUP1 DUP4 SUB DUP2 DUP7 GAS DELEGATECALL ISZERO DUP1 ISZERO PUSH2 0x132C JUMPI RETURNDATASIZE PUSH0 PUSH0 RETURNDATACOPY RETURNDATASIZE PUSH0 REVERT JUMPDEST POP POP POP POP PUSH1 0x40 MLOAD RETURNDATASIZE PUSH1 0x1F NOT PUSH1 0x1F DUP3 ADD AND DUP3 ADD DUP1 PUSH1 0x40 MSTORE POP DUP2 ADD SWAP1 PUSH2 0x1350 SWAP2 SWAP1 PUSH2 0x481F JUMP JUMPDEST PUSH20 0xFFFFFFFFFFFFFFFFFFFFFFFFFFFFFFFFFFFFFFFF AND EQ PUSH2 0x13A6 JUMPI PUSH1 0x40 MLOAD PUSH32 0x8C379A000000000000000000000000000000000000000000000000000000000 DUP2 MSTORE PUSH1 0x4 ADD PUSH2 0x139D SWAP1 PUSH2 0x4894 JUMP JUMPDEST PUSH1 0x40 MLOAD DUP1 SWAP2 SUB SWAP1 REVERT JUMPDEST PUSH20 0x0 PUSH4 0x39B37AB0 DUP3 PUSH1 0x40 MLOAD DUP3 PUSH4 0xFFFFFFFF AND PUSH1 0xE0 SHL DUP2 MSTORE PUSH1 0x4 ADD PUSH2 0x13DD SWAP2 SWAP1 PUSH2 0x478A JUMP JUMPDEST PUSH0 PUSH1 0x40 MLOAD DUP1 DUP4 SUB DUP2 DUP7 DUP1 EXTCODESIZE ISZERO DUP1 ISZERO PUSH2 0x13F3 JUMPI PUSH0 PUSH0 REVERT JUMPDEST POP GAS DELEGATECALL ISZERO DUP1 ISZERO PUSH2 0x1405 JUMPI RETURNDATASIZE PUSH0 PUSH0 RETURNDATACOPY RETURNDATASIZE PUSH0 REVERT JUMPDEST POP POP POP POP POP JUMP JUMPDEST PUSH1 0x60 PUSH20 0x0 PUSH4 0xD547CFB7 PUSH1 0x40 MLOAD DUP2 PUSH4 0xFFFFFFFF AND PUSH1 0xE0 SHL DUP2 MSTORE PUSH1 0x4 ADD PUSH0 PUSH1 0x40 MLOAD DUP1 DUP4 SUB DUP2 DUP7 GAS DELEGATECALL ISZERO DUP1 ISZERO PUSH2 0x1454 JUMPI RETURNDATASIZE PUSH0 PUSH0 RETURNDATACOPY RETURNDATASIZE PUSH0 REVERT JUMPDEST POP POP POP POP PUSH1 0x40 MLOAD RETURNDATASIZE PUSH0 DUP3 RETURNDATACOPY RETURNDATASIZE PUSH1 0x1F NOT PUSH1 0x1F DUP3 ADD AND DUP3 ADD DUP1 PUSH1 0x40 MSTORE POP DUP2 ADD SWAP1 PUSH2 0x147C SWAP2 SWAP1 PUSH2 0x4734 JUMP JUMPDEST SWAP1 POP SWAP1 JUMP JUMPDEST PUSH2 0x1489 PUSH2 0x23B8 JUMP JUMPDEST PUSH20 0xFFFFFFFFFFFFFFFFFFFFFFFFFFFFFFFFFFFFFFFF AND PUSH20 0x0 PUSH4 0x893D20E8 PUSH1 0x40 MLOAD DUP2 PUSH4 0xFFFFFFFF AND PUSH1 0xE0 SHL DUP2 MSTORE PUSH1 0x4 ADD PUSH1 0x20 PUSH1 0x40 MLOAD DUP1 DUP4 SUB DUP2 DUP7 GAS DELEGATECALL ISZERO DUP1 ISZERO PUSH2 0x14E6 JUMPI RETURNDATASIZE PUSH0 PUSH0 RETURNDATACOPY RETURNDATASIZE PUSH0 REVERT JUMPDEST POP POP POP POP PUSH1 0x40 MLOAD RETURNDATASIZE PUSH1 0x1F NOT PUSH1 0x1F DUP3 ADD AND DUP3 ADD DUP1 PUSH1 0x40 MSTORE POP DUP2 ADD SWAP1 PUSH2 0x150A SWAP2 SWAP1 PUSH2 0x481F JUMP JUMPDEST PUSH20 0xFFFFFFFFFFFFFFFFFFFFFFFFFFFFFFFFFFFFFFFF AND EQ PUSH2 0x1560 JUMPI PUSH1 0x40 MLOAD PUSH32 0x8C379A000000000000000000000000000000000000000000000000000000000 DUP2 MSTORE PUSH1 0x4 ADD PUSH2 0x1557 SWAP1 PUSH2 0x4894 JUMP JUMPDEST PUSH1 0x40 MLOAD DUP1 SWAP2 SUB SWAP1 REVERT JUMPDEST PUSH2 0x156A DUP3 DUP3 PUSH2 0x2CCB JUMP JUMPDEST POP POP JUMP JUMPDEST PUSH0 PUSH0 PUSH20 0xFFFFFFFFFFFFFFFFFFFFFFFFFFFFFFFFFFFFFFFF AND DUP3 PUSH20 0xFFFFFFFFFFFFFFFFFFFFFFFFFFFFFFFFFFFFFFFF AND SUB PUSH2 0x15B3 JUMPI PUSH2 0x15B2 PUSH4 0x8F4EB604 PUSH1 0xE0 SHL PUSH2 0x2272 JUMP JUMPDEST JUMPDEST PUSH8 0xFFFFFFFFFFFFFFFF PUSH20 0x0 PUSH4 0x21B0ED7D DUP5 PUSH1 0x40 MLOAD DUP3 PUSH4 0xFFFFFFFF AND PUSH1 0xE0 SHL DUP2 MSTORE PUSH1 0x4 ADD PUSH2 0x15F3 SWAP2 SWAP1 PUSH2 0x4A56 JUMP JUMPDEST PUSH1 0x20 PUSH1 0x40 MLOAD DUP1 DUP4 SUB DUP2 DUP7 GAS DELEGATECALL ISZERO DUP1 ISZERO PUSH2 0x160E JUMPI RETURNDATASIZE PUSH0 PUSH0 RETURNDATACOPY RETURNDATASIZE PUSH0 REVERT JUMPDEST POP POP POP POP PUSH1 0x40 MLOAD RETURNDATASIZE PUSH1 0x1F NOT PUSH1 0x1F DUP3 ADD AND DUP3 ADD DUP1 PUSH1 0x40 MSTORE POP DUP2 ADD SWAP1 PUSH2 0x1632 SWAP2 SWAP1 PUSH2 0x48C6 JUMP JUMPDEST AND SWAP1 POP SWAP2 SWAP1 POP JUMP JUMPDEST PUSH0 PUSH20 0x0 PUSH4 0x9451C99A PUSH1 0x40 MLOAD DUP2 PUSH4 0xFFFFFFFF AND PUSH1 0xE0 SHL DUP2 MSTORE PUSH1 0x4 ADD PUSH1 0x20 PUSH1 0x40 MLOAD DUP1 DUP4 SUB DUP2 DUP7 GAS DELEGATECALL ISZERO DUP1 ISZERO PUSH2 0x1682 JUMPI RETURNDATASIZE PUSH0 PUSH0 RETURNDATACOPY RETURNDATASIZE PUSH0 REVERT JUMPDEST POP POP POP POP PUSH1 0x40 MLOAD RETURNDATASIZE PUSH1 0x1F NOT PUSH1 0x1F DUP3 ADD AND DUP3 ADD DUP1 PUSH1 0x40 MSTORE POP DUP2 ADD SWAP1 PUSH2 0x16A6 SWAP2 SWAP1 PUSH2 0x48C6 JUMP JUMPDEST SWAP1 POP SWAP1 JUMP JUMPDEST PUSH32 0x0 DUP2 JUMP JUMPDEST PUSH2 0x61A8 DUP2 JUMP JUMPDEST PUSH1 0x60 PUSH20 0x0 PUSH4 0x95D89B41 PUSH1 0x40 MLOAD DUP2 PUSH4 0xFFFFFFFF AND PUSH1 0xE0 SHL DUP2 MSTORE PUSH1 0x4 ADD PUSH0 PUSH1 0x40 MLOAD DUP1 DUP4 SUB DUP2 DUP7 GAS DELEGATECALL ISZERO DUP1 ISZERO PUSH2 0x171D JUMPI RETURNDATASIZE PUSH0 PUSH0 RETURNDATACOPY RETURNDATASIZE PUSH0 REVERT JUMPDEST POP POP POP POP PUSH1 0x40 MLOAD RETURNDATASIZE PUSH0 DUP3 RETURNDATACOPY RETURNDATASIZE PUSH1 0x1F NOT PUSH1 0x1F DUP3 ADD AND DUP3 ADD DUP1 PUSH1 0x40 MSTORE POP DUP2 ADD SWAP1 PUSH2 0x1745 SWAP2 SWAP1 PUSH2 0x4734 JUMP JUMPDEST SWAP1 POP SWAP1 JUMP JUMPDEST PUSH1 0x40 MLOAD DUP1 PUSH1 0x40 ADD PUSH1 0x40 MSTORE DUP1 PUSH1 0xD DUP2 MSTORE PUSH1 0x20 ADD PUSH32 0x534D455F4C6567656E6461727900000000000000000000000000000000000000 DUP2 MSTORE POP DUP2 JUMP JUMPDEST PUSH2 0x178B PUSH2 0x23B8 JUMP JUMPDEST PUSH20 0xFFFFFFFFFFFFFFFFFFFFFFFFFFFFFFFFFFFFFFFF AND PUSH20 0x0 PUSH4 0x893D20E8 PUSH1 0x40 MLOAD DUP2 PUSH4 0xFFFFFFFF AND PUSH1 0xE0 SHL DUP2 MSTORE PUSH1 0x4 ADD PUSH1 0x20 PUSH1 0x40 MLOAD DUP1 DUP4 SUB DUP2 DUP7 GAS DELEGATECALL ISZERO DUP1 ISZERO PUSH2 0x17E8 JUMPI RETURNDATASIZE PUSH0 PUSH0 RETURNDATACOPY RETURNDATASIZE PUSH0 REVERT JUMPDEST POP POP POP POP PUSH1 0x40 MLOAD RETURNDATASIZE PUSH1 0x1F NOT PUSH1 0x1F DUP3 ADD AND DUP3 ADD DUP1 PUSH1 0x40 MSTORE POP DUP2 ADD SWAP1 PUSH2 0x180C SWAP2 SWAP1 PUSH2 0x481F JUMP JUMPDEST PUSH20 0xFFFFFFFFFFFFFFFFFFFFFFFFFFFFFFFFFFFFFFFF AND EQ PUSH2 0x1862 JUMPI PUSH1 0x40 MLOAD PUSH32 0x8C379A000000000000000000000000000000000000000000000000000000000 DUP2 MSTORE PUSH1 0x4 ADD PUSH2 0x1859 SWAP1 PUSH2 0x4894 JUMP JUMPDEST PUSH1 0x40 MLOAD DUP1 SWAP2 SUB SWAP1 REVERT JUMPDEST PUSH20 0x0 PUSH4 0x821ABC2D DUP4 DUP4 PUSH1 0x40 MLOAD DUP4 PUSH4 0xFFFFFFFF AND PUSH1 0xE0 SHL DUP2 MSTORE PUSH1 0x4 ADD PUSH2 0x189B SWAP3 SWAP2 SWAP1 PUSH2 0x4A34 JUMP JUMPDEST PUSH0 PUSH1 0x40 MLOAD DUP1 DUP4 SUB DUP2 DUP7 DUP1 EXTCODESIZE ISZERO DUP1 ISZERO PUSH2 0x18B1 JUMPI PUSH0 PUSH0 REVERT JUMPDEST POP GAS DELEGATECALL ISZERO DUP1 ISZERO PUSH2 0x18C3 JUMPI RETURNDATASIZE PUSH0 PUSH0 RETURNDATACOPY RETURNDATASIZE PUSH0 REVERT JUMPDEST POP POP POP POP POP POP JUMP JUMPDEST PUSH20 0x0 PUSH4 0x830D4091 PUSH2 0x18ED PUSH2 0x300F JUMP JUMPDEST DUP5 DUP5 PUSH1 0x40 MLOAD DUP5 PUSH4 0xFFFFFFFF AND PUSH1 0xE0 SHL DUP2 MSTORE PUSH1 0x4 ADD PUSH2 0x190D SWAP4 SWAP3 SWAP2 SWAP1 PUSH2 0x4A7E JUMP JUMPDEST PUSH0 PUSH1 0x40 MLOAD DUP1 DUP4 SUB DUP2 DUP7 DUP1 EXTCODESIZE ISZERO DUP1 ISZERO PUSH2 0x1923 JUMPI PUSH0 PUSH0 REVERT JUMPDEST POP GAS DELEGATECALL ISZERO DUP1 ISZERO PUSH2 0x1935 JUMPI RETURNDATASIZE PUSH0 PUSH0 RETURNDATACOPY RETURNDATASIZE PUSH0 REVERT JUMPDEST POP POP POP POP DUP2 PUSH20 0xFFFFFFFFFFFFFFFFFFFFFFFFFFFFFFFFFFFFFFFF AND PUSH2 0x1958 PUSH2 0x300F JUMP JUMPDEST PUSH20 0xFFFFFFFFFFFFFFFFFFFFFFFFFFFFFFFFFFFFFFFF AND PUSH32 0x17307EAB39AB6107E8899845AD3D59BD9653F200F220920489CA2B5937696C31 DUP4 PUSH1 0x40 MLOAD PUSH2 0x199D SWAP2 SWAP1 PUSH2 0x3EB9 JUMP JUMPDEST PUSH1 0x40 MLOAD DUP1 SWAP2 SUB SWAP1 LOG3 POP POP JUMP JUMPDEST PUSH2 0x1388 DUP2 JUMP JUMPDEST PUSH2 0x19B7 PUSH2 0x2A35 JUMP JUMPDEST PUSH0 PUSH2 0x19C0 PUSH2 0x3016 JUMP JUMPDEST SWAP1 POP PUSH2 0x4B0 DUP2 LT PUSH2 0x1A06 JUMPI PUSH1 0x40 MLOAD PUSH32 0x8C379A000000000000000000000000000000000000000000000000000000000 DUP2 MSTORE PUSH1 0x4 ADD PUSH2 0x19FD SWAP1 PUSH2 0x4AFD JUMP JUMPDEST PUSH1 0x40 MLOAD DUP1 SWAP2 SUB SWAP1 REVERT JUMPDEST PUSH0 ISZERO ISZERO PUSH20 0x0 PUSH4 0xB62D8B91 DUP7 PUSH1 0x40 MLOAD DUP3 PUSH4 0xFFFFFFFF AND PUSH1 0xE0 SHL DUP2 MSTORE PUSH1 0x4 ADD PUSH2 0x1A40 SWAP2 SWAP1 PUSH2 0x4A56 JUMP JUMPDEST PUSH1 0x20 PUSH1 0x40 MLOAD DUP1 DUP4 SUB DUP2 DUP7 GAS DELEGATECALL ISZERO DUP1 ISZERO PUSH2 0x1A5B JUMPI RETURNDATASIZE PUSH0 PUSH0 RETURNDATACOPY RETURNDATASIZE PUSH0 REVERT JUMPDEST POP POP POP POP PUSH1 0x40 MLOAD RETURNDATASIZE PUSH1 0x1F NOT PUSH1 0x1F DUP3 ADD AND DUP3 ADD DUP1 PUSH1 0x40 MSTORE POP DUP2 ADD SWAP1 PUSH2 0x1A7F SWAP2 SWAP1 PUSH2 0x4B2F JUMP JUMPDEST ISZERO ISZERO EQ PUSH2 0x1AC1 JUMPI PUSH1 0x40 MLOAD PUSH32 0x8C379A000000000000000000000000000000000000000000000000000000000 DUP2 MSTORE PUSH1 0x4 ADD PUSH2 0x1AB8 SWAP1 PUSH2 0x4BA4 JUMP JUMPDEST PUSH1 0x40 MLOAD DUP1 SWAP2 SUB SWAP1 REVERT JUMPDEST PUSH20 0x0 PUSH4 0xDDCA3F43 PUSH1 0x40 MLOAD DUP2 PUSH4 0xFFFFFFFF AND PUSH1 0xE0 SHL DUP2 MSTORE PUSH1 0x4 ADD PUSH1 0x20 PUSH1 0x40 MLOAD DUP1 DUP4 SUB DUP2 DUP7 GAS DELEGATECALL ISZERO DUP1 ISZERO PUSH2 0x1B08 JUMPI RETURNDATASIZE PUSH0 PUSH0 RETURNDATACOPY RETURNDATASIZE PUSH0 REVERT JUMPDEST POP POP POP POP PUSH1 0x40 MLOAD RETURNDATASIZE PUSH1 0x1F NOT PUSH1 0x1F DUP3 ADD AND DUP3 ADD DUP1 PUSH1 0x40 MSTORE POP DUP2 ADD SWAP1 PUSH2 0x1B2C SWAP2 SWAP1 PUSH2 0x48C6 JUMP JUMPDEST CALLVALUE EQ PUSH2 0x1B6D JUMPI PUSH1 0x40 MLOAD PUSH32 0x8C379A000000000000000000000000000000000000000000000000000000000 DUP2 MSTORE PUSH1 0x4 ADD PUSH2 0x1B64 SWAP1 PUSH2 0x4C0C JUMP JUMPDEST PUSH1 0x40 MLOAD DUP1 SWAP2 SUB SWAP1 REVERT JUMPDEST PUSH0 DUP5 PUSH1 0x40 MLOAD PUSH1 0x20 ADD PUSH2 0x1B7F SWAP2 SWAP1 PUSH2 0x4C6F JUMP JUMPDEST PUSH1 0x40 MLOAD PUSH1 0x20 DUP2 DUP4 SUB SUB DUP2 MSTORE SWAP1 PUSH1 0x40 MSTORE DUP1 MLOAD SWAP1 PUSH1 0x20 ADD KECCAK256 SWAP1 POP PUSH0 PUSH2 0x1C4D DUP6 DUP6 DUP1 DUP1 PUSH1 0x20 MUL PUSH1 0x20 ADD PUSH1 0x40 MLOAD SWAP1 DUP2 ADD PUSH1 0x40 MSTORE DUP1 SWAP4 SWAP3 SWAP2 SWAP1 DUP2 DUP2 MSTORE PUSH1 0x20 ADD DUP4 DUP4 PUSH1 0x20 MUL DUP1 DUP3 DUP5 CALLDATACOPY PUSH0 DUP2 DUP5 ADD MSTORE PUSH1 0x1F NOT PUSH1 0x1F DUP3 ADD AND SWAP1 POP DUP1 DUP4 ADD SWAP3 POP POP POP POP POP POP POP PUSH20 0x0 PUSH4 0x19F86200 PUSH1 0x40 MLOAD DUP2 PUSH4 0xFFFFFFFF AND PUSH1 0xE0 SHL DUP2 MSTORE PUSH1 0x4 ADD PUSH1 0x20 PUSH1 0x40 MLOAD DUP1 DUP4 SUB DUP2 DUP7 GAS DELEGATECALL ISZERO DUP1 ISZERO PUSH2 0x1C23 JUMPI RETURNDATASIZE PUSH0 PUSH0 RETURNDATACOPY RETURNDATASIZE PUSH0 REVERT JUMPDEST POP POP POP POP PUSH1 0x40 MLOAD RETURNDATASIZE PUSH1 0x1F NOT PUSH1 0x1F DUP3 ADD AND DUP3 ADD DUP1 PUSH1 0x40 MSTORE POP DUP2 ADD SWAP1 PUSH2 0x1C47 SWAP2 SWAP1 PUSH2 0x4C9D JUMP JUMPDEST DUP5 PUSH2 0x3087 JUMP JUMPDEST SWAP1 POP PUSH1 0x1 ISZERO ISZERO DUP2 ISZERO ISZERO EQ PUSH2 0x1C96 JUMPI PUSH1 0x40 MLOAD PUSH32 0x8C379A000000000000000000000000000000000000000000000000000000000 DUP2 MSTORE PUSH1 0x4 ADD PUSH2 0x1C8D SWAP1 PUSH2 0x4D12 JUMP JUMPDEST PUSH1 0x40 MLOAD DUP1 SWAP2 SUB SWAP1 REVERT JUMPDEST PUSH20 0x0 PUSH4 0xB0D4CE25 DUP8 PUSH1 0x1 PUSH1 0x40 MLOAD DUP4 PUSH4 0xFFFFFFFF AND PUSH1 0xE0 SHL DUP2 MSTORE PUSH1 0x4 ADD PUSH2 0x1CD0 SWAP3 SWAP2 SWAP1 PUSH2 0x4D30 JUMP JUMPDEST PUSH0 PUSH1 0x40 MLOAD DUP1 DUP4 SUB DUP2 DUP7 DUP1 EXTCODESIZE ISZERO DUP1 ISZERO PUSH2 0x1CE6 JUMPI PUSH0 PUSH0 REVERT JUMPDEST POP GAS DELEGATECALL ISZERO DUP1 ISZERO PUSH2 0x1CF8 JUMPI RETURNDATASIZE PUSH0 PUSH0 RETURNDATACOPY RETURNDATASIZE PUSH0 REVERT JUMPDEST POP POP POP POP PUSH2 0x1D07 DUP7 PUSH1 0x1 PUSH2 0x309D JUMP JUMPDEST PUSH2 0x1D19 DUP4 PUSH2 0x1D14 DUP6 PUSH2 0x30BA JUMP JUMPDEST PUSH2 0x23BF JUMP JUMPDEST PUSH2 0x1D24 PUSH0 DUP8 DUP6 PUSH2 0x2930 JUMP JUMPDEST POP POP POP PUSH2 0x1D2F PUSH2 0x2A82 JUMP JUMPDEST POP POP POP JUMP JUMPDEST PUSH2 0x1D3F DUP5 DUP5 DUP5 PUSH2 0xC7E JUMP JUMPDEST PUSH0 DUP4 PUSH20 0xFFFFFFFFFFFFFFFFFFFFFFFFFFFFFFFFFFFFFFFF AND EXTCODESIZE EQ PUSH2 0x1D7F JUMPI PUSH2 0x1D69 DUP5 DUP5 DUP5 DUP5 PUSH2 0x31BD JUMP JUMPDEST PUSH2 0x1D7E JUMPI PUSH2 0x1D7D PUSH4 0xD1A57ED6 PUSH1 0xE0 SHL PUSH2 0x2272 JUMP JUMPDEST JUMPDEST JUMPDEST POP POP POP POP JUMP JUMPDEST PUSH1 0x60 PUSH0 PUSH20 0x0 PUSH4 0x6C8B703F DUP5 PUSH1 0x40 MLOAD DUP3 PUSH4 0xFFFFFFFF AND PUSH1 0xE0 SHL DUP2 MSTORE PUSH1 0x4 ADD PUSH2 0x1DBF SWAP2 SWAP1 PUSH2 0x478A JUMP JUMPDEST PUSH0 PUSH1 0x40 MLOAD DUP1 DUP4 SUB DUP2 DUP7 GAS DELEGATECALL ISZERO DUP1 ISZERO PUSH2 0x1DD9 JUMPI RETURNDATASIZE PUSH0 PUSH0 RETURNDATACOPY RETURNDATASIZE PUSH0 REVERT JUMPDEST POP POP POP POP PUSH1 0x40 MLOAD RETURNDATASIZE PUSH0 DUP3 RETURNDATACOPY RETURNDATASIZE PUSH1 0x1F NOT PUSH1 0x1F DUP3 ADD AND DUP3 ADD DUP1 PUSH1 0x40 MSTORE POP DUP2 ADD SWAP1 PUSH2 0x1E01 SWAP2 SWAP1 PUSH2 0x4734 JUMP JUMPDEST SWAP1 POP PUSH0 PUSH2 0x1E0C PUSH2 0x32E7 JUMP JUMPDEST SWAP1 POP PUSH0 DUP2 MLOAD SUB PUSH2 0x1E20 JUMPI DUP2 SWAP3 POP POP POP PUSH2 0x1E62 JUMP JUMPDEST PUSH0 DUP3 MLOAD GT ISZERO PUSH2 0x1E54 JUMPI DUP1 DUP3 PUSH1 0x40 MLOAD PUSH1 0x20 ADD PUSH2 0x1E3C SWAP3 SWAP2 SWAP1 PUSH2 0x4D91 JUMP JUMPDEST PUSH1 0x40 MLOAD PUSH1 0x20 DUP2 DUP4 SUB SUB DUP2 MSTORE SWAP1 PUSH1 0x40 MSTORE SWAP3 POP POP POP PUSH2 0x1E62 JUMP JUMPDEST PUSH2 0x1E5D DUP5 PUSH2 0x32FD JUMP JUMPDEST SWAP3 POP POP POP JUMPDEST SWAP2 SWAP1 POP JUMP JUMPDEST PUSH0 PUSH20 0x0 PUSH4 0xDDCA3F43 PUSH1 0x40 MLOAD DUP2 PUSH4 0xFFFFFFFF AND PUSH1 0xE0 SHL DUP2 MSTORE PUSH1 0x4 ADD PUSH1 0x20 PUSH1 0x40 MLOAD DUP1 DUP4 SUB DUP2 DUP7 GAS DELEGATECALL ISZERO DUP1 ISZERO PUSH2 0x1EAF JUMPI RETURNDATASIZE PUSH0 PUSH0 RETURNDATACOPY RETURNDATASIZE PUSH0 REVERT JUMPDEST POP POP POP POP PUSH1 0x40 MLOAD RETURNDATASIZE PUSH1 0x1F NOT PUSH1 0x1F DUP3 ADD AND DUP3 ADD DUP1 PUSH1 0x40 MSTORE POP DUP2 ADD SWAP1 PUSH2 0x1ED3 SWAP2 SWAP1 PUSH2 0x48C6 JUMP JUMPDEST SWAP1 POP SWAP1 JUMP JUMPDEST PUSH2 0x1EE0 PUSH2 0x23B8 JUMP JUMPDEST PUSH20 0xFFFFFFFFFFFFFFFFFFFFFFFFFFFFFFFFFFFFFFFF AND PUSH20 0x0 PUSH4 0x893D20E8 PUSH1 0x40 MLOAD DUP2 PUSH4 0xFFFFFFFF AND PUSH1 0xE0 SHL DUP2 MSTORE PUSH1 0x4 ADD PUSH1 0x20 PUSH1 0x40 MLOAD DUP1 DUP4 SUB DUP2 DUP7 GAS DELEGATECALL ISZERO DUP1 ISZERO PUSH2 0x1F3D JUMPI RETURNDATASIZE PUSH0 PUSH0 RETURNDATACOPY RETURNDATASIZE PUSH0 REVERT JUMPDEST POP POP POP POP PUSH1 0x40 MLOAD RETURNDATASIZE PUSH1 0x1F NOT PUSH1 0x1F DUP3 ADD AND DUP3 ADD DUP1 PUSH1 0x40 MSTORE POP DUP2 ADD SWAP1 PUSH2 0x1F61 SWAP2 SWAP1 PUSH2 0x481F JUMP JUMPDEST PUSH20 0xFFFFFFFFFFFFFFFFFFFFFFFFFFFFFFFFFFFFFFFF AND EQ PUSH2 0x1FB7 JUMPI PUSH1 0x40 MLOAD PUSH32 0x8C379A000000000000000000000000000000000000000000000000000000000 DUP2 MSTORE PUSH1 0x4 ADD PUSH2 0x1FAE SWAP1 PUSH2 0x4894 JUMP JUMPDEST PUSH1 0x40 MLOAD DUP1 SWAP2 SUB SWAP1 REVERT JUMPDEST PUSH20 0x0 PUSH4 0x854F9DB9 DUP3 PUSH1 0x40 MLOAD DUP3 PUSH4 0xFFFFFFFF AND PUSH1 0xE0 SHL DUP2 MSTORE PUSH1 0x4 ADD PUSH2 0x1FEE SWAP2 SWAP1 PUSH2 0x4900 JUMP JUMPDEST PUSH0 PUSH1 0x40 MLOAD DUP1 DUP4 SUB DUP2 DUP7 DUP1 EXTCODESIZE ISZERO DUP1 ISZERO PUSH2 0x2004 JUMPI PUSH0 PUSH0 REVERT JUMPDEST POP GAS DELEGATECALL ISZERO DUP1 ISZERO PUSH2 0x2016 JUMPI RETURNDATASIZE PUSH0 PUSH0 RETURNDATACOPY RETURNDATASIZE PUSH0 REVERT JUMPDEST POP POP POP POP POP JUMP JUMPDEST PUSH0 PUSH20 0x0 PUSH4 0xEDC3BC3F DUP5 DUP5 PUSH1 0x40 MLOAD DUP4 PUSH4 0xFFFFFFFF AND PUSH1 0xE0 SHL DUP2 MSTORE PUSH1 0x4 ADD PUSH2 0x2057 SWAP3 SWAP2 SWAP1 PUSH2 0x4DB4 JUMP JUMPDEST PUSH1 0x20 PUSH1 0x40 MLOAD DUP1 DUP4 SUB DUP2 DUP7 GAS DELEGATECALL ISZERO DUP1 ISZERO PUSH2 0x2072 JUMPI RETURNDATASIZE PUSH0 PUSH0 RETURNDATACOPY RETURNDATASIZE PUSH0 REVERT JUMPDEST POP POP POP POP PUSH1 0x40 MLOAD RETURNDATASIZE PUSH1 0x1F NOT PUSH1 0x1F DUP3 ADD AND DUP3 ADD DUP1 PUSH1 0x40 MSTORE POP DUP2 ADD SWAP1 PUSH2 0x2096 SWAP2 SWAP1 PUSH2 0x4B2F JUMP JUMPDEST SWAP1 POP SWAP3 SWAP2 POP POP JUMP JUMPDEST PUSH0 DUP2 PUSH2 0x20A8 PUSH2 0x245F JUMP JUMPDEST GT PUSH2 0x226C JUMPI PUSH2 0x20B5 PUSH2 0x2467 JUMP JUMPDEST DUP3 GT ISZERO PUSH2 0x2141 JUMPI PUSH2 0x213A PUSH20 0x0 PUSH4 0x47F69EBA DUP5 PUSH1 0x40 MLOAD DUP3 PUSH4 0xFFFFFFFF AND PUSH1 0xE0 SHL DUP2 MSTORE PUSH1 0x4 ADD PUSH2 0x20F6 SWAP2 SWAP1 PUSH2 0x478A JUMP JUMPDEST PUSH1 0x20 PUSH1 0x40 MLOAD DUP1 DUP4 SUB DUP2 DUP7 GAS DELEGATECALL ISZERO DUP1 ISZERO PUSH2 0x2111 JUMPI RETURNDATASIZE PUSH0 PUSH0 RETURNDATACOPY RETURNDATASIZE PUSH0 REVERT JUMPDEST POP POP POP POP PUSH1 0x40 MLOAD RETURNDATASIZE PUSH1 0x1F NOT PUSH1 0x1F DUP3 ADD AND DUP3 ADD DUP1 PUSH1 0x40 MSTORE POP DUP2 ADD SWAP1 PUSH2 0x2135 SWAP2 SWAP1 PUSH2 0x48C6 JUMP JUMPDEST PUSH2 0x3377 JUMP JUMPDEST SWAP1 POP PUSH2 0x226D JUMP JUMPDEST PUSH20 0x0 PUSH4 0x9451C99A PUSH1 0x40 MLOAD DUP2 PUSH4 0xFFFFFFFF AND PUSH1 0xE0 SHL DUP2 MSTORE PUSH1 0x4 ADD PUSH1 0x20 PUSH1 0x40 MLOAD DUP1 DUP4 SUB DUP2 DUP7 GAS DELEGATECALL ISZERO DUP1 ISZERO PUSH2 0x2188 JUMPI RETURNDATASIZE PUSH0 PUSH0 RETURNDATACOPY RETURNDATASIZE PUSH0 REVERT JUMPDEST POP POP POP POP PUSH1 0x40 MLOAD RETURNDATASIZE PUSH1 0x1F NOT PUSH1 0x1F DUP3 ADD AND DUP3 ADD DUP1 PUSH1 0x40 MSTORE POP DUP2 ADD SWAP1 PUSH2 0x21AC SWAP2 SWAP1 PUSH2 0x48C6 JUMP JUMPDEST DUP3 LT ISZERO PUSH2 0x226B JUMPI PUSH0 JUMPDEST PUSH0 PUSH20 0x0 PUSH4 0x47F69EBA DUP6 PUSH1 0x40 MLOAD DUP3 PUSH4 0xFFFFFFFF AND PUSH1 0xE0 SHL DUP2 MSTORE PUSH1 0x4 ADD PUSH2 0x21ED SWAP2 SWAP1 PUSH2 0x478A JUMP JUMPDEST PUSH1 0x20 PUSH1 0x40 MLOAD DUP1 DUP4 SUB DUP2 DUP7 GAS DELEGATECALL ISZERO DUP1 ISZERO PUSH2 0x2208 JUMPI RETURNDATASIZE PUSH0 PUSH0 RETURNDATACOPY RETURNDATASIZE PUSH0 REVERT JUMPDEST POP POP POP POP PUSH1 0x40 MLOAD RETURNDATASIZE PUSH1 0x1F NOT PUSH1 0x1F DUP3 ADD AND DUP3 ADD DUP1 PUSH1 0x40 MSTORE POP DUP2 ADD SWAP1 PUSH2 0x222C SWAP2 SWAP1 PUSH2 0x48C6 JUMP JUMPDEST SWAP2 POP DUP2 SUB PUSH2 0x2245 JUMPI DUP3 PUSH2 0x223E SWAP1 PUSH2 0x4E08 JUMP JUMPDEST SWAP3 POP PUSH2 0x21B5 JUMP JUMPDEST PUSH0 PUSH29 0x100000000000000000000000000000000000000000000000000000000 DUP3 AND EQ SWAP2 POP POP JUMPDEST JUMPDEST JUMPDEST SWAP2 SWAP1 POP JUMP JUMPDEST DUP1 PUSH0 MSTORE PUSH1 0x4 PUSH0 REVERT JUMPDEST PUSH0 PUSH2 0x2284 DUP4 PUSH2 0x12B6 JUMP JUMPDEST SWAP1 POP DUP2 DUP1 ISZERO PUSH2 0x22C6 JUMPI POP DUP1 PUSH20 0xFFFFFFFFFFFFFFFFFFFFFFFFFFFFFFFFFFFFFFFF AND PUSH2 0x22AD PUSH2 0x300F JUMP JUMPDEST PUSH20 0xFFFFFFFFFFFFFFFFFFFFFFFFFFFFFFFFFFFFFFFF AND EQ ISZERO JUMPDEST ISZERO PUSH2 0x22F2 JUMPI PUSH2 0x22DC DUP2 PUSH2 0x22D7 PUSH2 0x300F JUMP JUMPDEST PUSH2 0x201D JUMP JUMPDEST PUSH2 0x22F1 JUMPI PUSH2 0x22F0 PUSH4 0xCFB3B942 PUSH1 0xE0 SHL PUSH2 0x2272 JUMP JUMPDEST JUMPDEST JUMPDEST PUSH20 0x0 PUSH4 0x13C19FF6 DUP5 DUP7 PUSH1 0x40 MLOAD DUP4 PUSH4 0xFFFFFFFF AND PUSH1 0xE0 SHL DUP2 MSTORE PUSH1 0x4 ADD PUSH2 0x232B SWAP3 SWAP2 SWAP1 PUSH2 0x4E2F JUMP JUMPDEST PUSH0 PUSH1 0x40 MLOAD DUP1 DUP4 SUB DUP2 DUP7 DUP1 EXTCODESIZE ISZERO DUP1 ISZERO PUSH2 0x2341 JUMPI PUSH0 PUSH0 REVERT JUMPDEST POP GAS DELEGATECALL ISZERO DUP1 ISZERO PUSH2 0x2353 JUMPI RETURNDATASIZE PUSH0 PUSH0 RETURNDATACOPY RETURNDATASIZE PUSH0 REVERT JUMPDEST POP POP POP POP DUP3 DUP5 PUSH20 0xFFFFFFFFFFFFFFFFFFFFFFFFFFFFFFFFFFFFFFFF AND DUP3 PUSH20 0xFFFFFFFFFFFFFFFFFFFFFFFFFFFFFFFFFFFFFFFF AND PUSH32 0x8C5BE1E5EBEC7D5BD14F71427D1E84F3DD0314C0F7B2291E5B200AC8C7C3B925 PUSH1 0x40 MLOAD PUSH1 0x40 MLOAD DUP1 SWAP2 SUB SWAP1 LOG4 POP POP POP POP JUMP JUMPDEST PUSH0 CALLER SWAP1 POP SWAP1 JUMP JUMPDEST PUSH20 0x0 PUSH4 0xDEC84DB1 DUP3 DUP5 PUSH1 0x40 MLOAD DUP4 PUSH4 0xFFFFFFFF AND PUSH1 0xE0 SHL DUP2 MSTORE PUSH1 0x4 ADD PUSH2 0x23F8 SWAP3 SWAP2 SWAP1 PUSH2 0x4E8E JUMP JUMPDEST PUSH0 PUSH1 0x40 MLOAD DUP1 DUP4 SUB DUP2 DUP7 DUP1 EXTCODESIZE ISZERO DUP1 ISZERO PUSH2 0x240E JUMPI PUSH0 PUSH0 REVERT JUMPDEST POP GAS DELEGATECALL ISZERO DUP1 ISZERO PUSH2 0x2420 JUMPI RETURNDATASIZE PUSH0 PUSH0 RETURNDATACOPY RETURNDATASIZE PUSH0 REVERT JUMPDEST POP POP POP POP PUSH32 0xF8E1A15ABA9398E019F0B49DF1A4FDE98EE17AE345CB5F6B5E2C27F5033E8CE7 DUP3 PUSH1 0x40 MLOAD PUSH2 0x2453 SWAP2 SWAP1 PUSH2 0x408F JUMP JUMPDEST PUSH1 0x40 MLOAD DUP1 SWAP2 SUB SWAP1 LOG1 POP POP JUMP JUMPDEST PUSH0 PUSH1 0x1 SWAP1 POP SWAP1 JUMP JUMPDEST PUSH0 PUSH32 0xFFFFFFFFFFFFFFFFFFFFFFFFFFFFFFFFFFFFFFFFFFFFFFFFFFFFFFFFFFFFFFFF SWAP1 POP SWAP1 JUMP JUMPDEST PUSH0 PUSH2 0x2498 DUP3 PUSH2 0x2A8B JUMP JUMPDEST SWAP1 POP PUSH20 0xFFFFFFFFFFFFFFFFFFFFFFFFFFFFFFFFFFFFFFFF DUP5 PUSH20 0xFFFFFFFFFFFFFFFFFFFFFFFFFFFFFFFFFFFFFFFF AND AND SWAP4 POP DUP4 PUSH20 0xFFFFFFFFFFFFFFFFFFFFFFFFFFFFFFFFFFFFFFFF AND DUP2 PUSH20 0xFFFFFFFFFFFFFFFFFFFFFFFFFFFFFFFFFFFFFFFF AND EQ PUSH2 0x250D JUMPI PUSH2 0x250C PUSH4 0xA1148100 PUSH1 0xE0 SHL PUSH2 0x2272 JUMP JUMPDEST JUMPDEST PUSH0 PUSH0 PUSH2 0x2518 DUP5 PUSH2 0x33B7 JUMP JUMPDEST SWAP2 POP SWAP2 POP PUSH2 0x252E DUP2 DUP8 PUSH2 0x2529 PUSH2 0x300F JUMP JUMPDEST PUSH2 0x343D JUMP JUMPDEST PUSH2 0x2559 JUMPI PUSH2 0x2543 DUP7 PUSH2 0x253E PUSH2 0x300F JUMP JUMPDEST PUSH2 0x201D JUMP JUMPDEST PUSH2 0x2558 JUMPI PUSH2 0x2557 PUSH4 0x59C896BE PUSH1 0xE0 SHL PUSH2 0x2272 JUMP JUMPDEST JUMPDEST JUMPDEST PUSH2 0x2566 DUP7 DUP7 DUP7 PUSH1 0x1 PUSH2 0x3480 JUMP JUMPDEST PUSH20 0x0 PUSH4 0x13C19FF6 DUP6 PUSH0 PUSH1 0x40 MLOAD DUP4 PUSH4 0xFFFFFFFF AND PUSH1 0xE0 SHL DUP2 MSTORE PUSH1 0x4 ADD PUSH2 0x259F SWAP3 SWAP2 SWAP1 PUSH2 0x4E2F JUMP JUMPDEST PUSH0 PUSH1 0x40 MLOAD DUP1 DUP4 SUB DUP2 DUP7 DUP1 EXTCODESIZE ISZERO DUP1 ISZERO PUSH2 0x25B5 JUMPI PUSH0 PUSH0 REVERT JUMPDEST POP GAS DELEGATECALL ISZERO DUP1 ISZERO PUSH2 0x25C7 JUMPI RETURNDATASIZE PUSH0 PUSH0 RETURNDATACOPY RETURNDATASIZE PUSH0 REVERT JUMPDEST POP POP POP POP PUSH20 0x0 PUSH4 0x31413EFC DUP8 PUSH1 0x40 MLOAD DUP3 PUSH4 0xFFFFFFFF AND PUSH1 0xE0 SHL DUP2 MSTORE PUSH1 0x4 ADD PUSH2 0x2602 SWAP2 SWAP1 PUSH2 0x4A56 JUMP JUMPDEST PUSH0 PUSH1 0x40 MLOAD DUP1 DUP4 SUB DUP2 DUP7 DUP1 EXTCODESIZE ISZERO DUP1 ISZERO PUSH2 0x2618 JUMPI PUSH0 PUSH0 REVERT JUMPDEST POP GAS DELEGATECALL ISZERO DUP1 ISZERO PUSH2 0x262A JUMPI RETURNDATASIZE PUSH0 PUSH0 RETURNDATACOPY RETURNDATASIZE PUSH0 REVERT JUMPDEST POP POP POP POP PUSH20 0x0 PUSH4 0xD0125152 DUP7 PUSH1 0x40 MLOAD DUP3 PUSH4 0xFFFFFFFF AND PUSH1 0xE0 SHL DUP2 MSTORE PUSH1 0x4 ADD PUSH2 0x2665 SWAP2 SWAP1 PUSH2 0x4A56 JUMP JUMPDEST PUSH0 PUSH1 0x40 MLOAD DUP1 DUP4 SUB DUP2 DUP7 DUP1 EXTCODESIZE ISZERO DUP1 ISZERO PUSH2 0x267B JUMPI PUSH0 PUSH0 REVERT JUMPDEST POP GAS DELEGATECALL ISZERO DUP1 ISZERO PUSH2 0x268D JUMPI RETURNDATASIZE PUSH0 PUSH0 RETURNDATACOPY RETURNDATASIZE PUSH0 REVERT JUMPDEST POP POP POP POP PUSH20 0x0 PUSH4 0xE68FDEE1 DUP6 PUSH2 0x26DF DUP9 PUSH2 0x26BB DUP12 DUP12 DUP11 PUSH2 0x3486 JUMP JUMPDEST PUSH29 0x200000000000000000000000000000000000000000000000000000000 OR PUSH2 0x34AD JUMP JUMPDEST PUSH1 0x40 MLOAD DUP4 PUSH4 0xFFFFFFFF AND PUSH1 0xE0 SHL DUP2 MSTORE PUSH1 0x4 ADD PUSH2 0x26FC SWAP3 SWAP2 SWAP1 PUSH2 0x4EBC JUMP JUMPDEST PUSH0 PUSH1 0x40 MLOAD DUP1 DUP4 SUB DUP2 DUP7 DUP1 EXTCODESIZE ISZERO DUP1 ISZERO PUSH2 0x2712 JUMPI PUSH0 PUSH0 REVERT JUMPDEST POP GAS DELEGATECALL ISZERO DUP1 ISZERO PUSH2 0x2724 JUMPI RETURNDATASIZE PUSH0 PUSH0 RETURNDATACOPY RETURNDATASIZE PUSH0 REVERT JUMPDEST POP POP POP POP PUSH0 PUSH29 0x200000000000000000000000000000000000000000000000000000000 DUP5 AND SUB PUSH2 0x28AB JUMPI PUSH0 PUSH1 0x1 DUP6 ADD SWAP1 POP PUSH0 PUSH20 0x0 PUSH4 0x47F69EBA DUP4 PUSH1 0x40 MLOAD DUP3 PUSH4 0xFFFFFFFF AND PUSH1 0xE0 SHL DUP2 MSTORE PUSH1 0x4 ADD PUSH2 0x278D SWAP2 SWAP1 PUSH2 0x478A JUMP JUMPDEST PUSH1 0x20 PUSH1 0x40 MLOAD DUP1 DUP4 SUB DUP2 DUP7 GAS DELEGATECALL ISZERO DUP1 ISZERO PUSH2 0x27A8 JUMPI RETURNDATASIZE PUSH0 PUSH0 RETURNDATACOPY RETURNDATASIZE PUSH0 REVERT JUMPDEST POP POP POP POP PUSH1 0x40 MLOAD RETURNDATASIZE PUSH1 0x1F NOT PUSH1 0x1F DUP3 ADD AND DUP3 ADD DUP1 PUSH1 0x40 MSTORE POP DUP2 ADD SWAP1 PUSH2 0x27CC SWAP2 SWAP1 PUSH2 0x48C6 JUMP JUMPDEST SUB PUSH2 0x28A9 JUMPI PUSH20 0x0 PUSH4 0x9451C99A PUSH1 0x40 MLOAD DUP2 PUSH4 0xFFFFFFFF AND PUSH1 0xE0 SHL DUP2 MSTORE PUSH1 0x4 ADD PUSH1 0x20 PUSH1 0x40 MLOAD DUP1 DUP4 SUB DUP2 DUP7 GAS DELEGATECALL ISZERO DUP1 ISZERO PUSH2 0x2818 JUMPI RETURNDATASIZE PUSH0 PUSH0 RETURNDATACOPY RETURNDATASIZE PUSH0 REVERT JUMPDEST POP POP POP POP PUSH1 0x40 MLOAD RETURNDATASIZE PUSH1 0x1F NOT PUSH1 0x1F DUP3 ADD AND DUP3 ADD DUP1 PUSH1 0x40 MSTORE POP DUP2 ADD SWAP1 PUSH2 0x283C SWAP2 SWAP1 PUSH2 0x48C6 JUMP JUMPDEST DUP2 EQ PUSH2 0x28A8 JUMPI PUSH20 0x0 PUSH4 0xE68FDEE1 DUP3 DUP7 PUSH1 0x40 MLOAD DUP4 PUSH4 0xFFFFFFFF AND PUSH1 0xE0 SHL DUP2 MSTORE PUSH1 0x4 ADD PUSH2 0x287B SWAP3 SWAP2 SWAP1 PUSH2 0x4EBC JUMP JUMPDEST PUSH0 PUSH1 0x40 MLOAD DUP1 DUP4 SUB DUP2 DUP7 DUP1 EXTCODESIZE ISZERO DUP1 ISZERO PUSH2 0x2891 JUMPI PUSH0 PUSH0 REVERT JUMPDEST POP GAS DELEGATECALL ISZERO DUP1 ISZERO PUSH2 0x28A3 JUMPI RETURNDATASIZE PUSH0 PUSH0 RETURNDATACOPY RETURNDATASIZE PUSH0 REVERT JUMPDEST POP POP POP POP JUMPDEST JUMPDEST POP JUMPDEST PUSH0 PUSH20 0xFFFFFFFFFFFFFFFFFFFFFFFFFFFFFFFFFFFFFFFF DUP7 PUSH20 0xFFFFFFFFFFFFFFFFFFFFFFFFFFFFFFFFFFFFFFFF AND AND SWAP1 POP DUP5 DUP2 DUP9 PUSH32 0xDDF252AD1BE2C89B69C2B068FC378DAA952BA7F163C4A11628F55A4DF523B3EF PUSH0 PUSH0 LOG4 PUSH0 DUP2 SUB PUSH2 0x291A JUMPI PUSH2 0x2919 PUSH4 0xEA553B34 PUSH1 0xE0 SHL PUSH2 0x2272 JUMP JUMPDEST JUMPDEST PUSH2 0x2927 DUP8 DUP8 DUP8 PUSH1 0x1 PUSH2 0x34D7 JUMP JUMPDEST POP POP POP POP POP POP POP JUMP JUMPDEST PUSH0 PUSH20 0xFFFFFFFFFFFFFFFFFFFFFFFFFFFFFFFFFFFFFFFF AND DUP4 PUSH20 0xFFFFFFFFFFFFFFFFFFFFFFFFFFFFFFFFFFFFFFFF AND SUB PUSH2 0x2971 JUMPI PUSH2 0x296C DUP2 PUSH2 0x34DD JUMP JUMPDEST PUSH2 0x29B0 JUMP JUMPDEST DUP2 PUSH20 0xFFFFFFFFFFFFFFFFFFFFFFFFFFFFFFFFFFFFFFFF AND DUP4 PUSH20 0xFFFFFFFFFFFFFFFFFFFFFFFFFFFFFFFFFFFFFFFF AND EQ PUSH2 0x29AF JUMPI PUSH2 0x29AE DUP4 DUP3 PUSH2 0x3543 JUMP JUMPDEST JUMPDEST JUMPDEST PUSH0 PUSH20 0xFFFFFFFFFFFFFFFFFFFFFFFFFFFFFFFFFFFFFFFF AND DUP3 PUSH20 0xFFFFFFFFFFFFFFFFFFFFFFFFFFFFFFFFFFFFFFFF AND SUB PUSH2 0x29F1 JUMPI PUSH2 0x29EC DUP2 PUSH2 0x35B6 JUMP JUMPDEST PUSH2 0x2A30 JUMP JUMPDEST DUP2 PUSH20 0xFFFFFFFFFFFFFFFFFFFFFFFFFFFFFFFFFFFFFFFF AND DUP4 PUSH20 0xFFFFFFFFFFFFFFFFFFFFFFFFFFFFFFFFFFFFFFFF AND EQ PUSH2 0x2A2F JUMPI PUSH2 0x2A2E DUP3 DUP3 PUSH2 0x361C JUMP JUMPDEST JUMPDEST JUMPDEST POP POP POP JUMP JUMPDEST PUSH1 0x2 PUSH0 SLOAD SUB PUSH2 0x2A79 JUMPI PUSH1 0x40 MLOAD PUSH32 0x8C379A000000000000000000000000000000000000000000000000000000000 DUP2 MSTORE PUSH1 0x4 ADD PUSH2 0x2A70 SWAP1 PUSH2 0x4F2D JUMP JUMPDEST PUSH1 0x40 MLOAD DUP1 SWAP2 SUB SWAP1 REVERT JUMPDEST PUSH1 0x2 PUSH0 DUP2 SWAP1 SSTORE POP JUMP JUMPDEST PUSH1 0x1 PUSH0 DUP2 SWAP1 SSTORE POP JUMP JUMPDEST PUSH0 DUP2 PUSH2 0x2A95 PUSH2 0x245F JUMP JUMPDEST GT PUSH2 0x2CB5 JUMPI PUSH20 0x0 PUSH4 0x47F69EBA DUP4 PUSH1 0x40 MLOAD DUP3 PUSH4 0xFFFFFFFF AND PUSH1 0xE0 SHL DUP2 MSTORE PUSH1 0x4 ADD PUSH2 0x2AD1 SWAP2 SWAP1 PUSH2 0x478A JUMP JUMPDEST PUSH1 0x20 PUSH1 0x40 MLOAD DUP1 DUP4 SUB DUP2 DUP7 GAS DELEGATECALL ISZERO DUP1 ISZERO PUSH2 0x2AEC JUMPI RETURNDATASIZE PUSH0 PUSH0 RETURNDATACOPY RETURNDATASIZE PUSH0 REVERT JUMPDEST POP POP POP POP PUSH1 0x40 MLOAD RETURNDATASIZE PUSH1 0x1F NOT PUSH1 0x1F DUP3 ADD AND DUP3 ADD DUP1 PUSH1 0x40 MSTORE POP DUP2 ADD SWAP1 PUSH2 0x2B10 SWAP2 SWAP1 PUSH2 0x48C6 JUMP JUMPDEST SWAP1 POP PUSH2 0x2B1A PUSH2 0x2467 JUMP JUMPDEST DUP3 GT ISZERO PUSH2 0x2B3F JUMPI PUSH2 0x2B2A DUP2 PUSH2 0x3377 JUMP JUMPDEST PUSH2 0x2CC6 JUMPI PUSH2 0x2B3E PUSH4 0xDF2D9B42 PUSH1 0xE0 SHL PUSH2 0x2272 JUMP JUMPDEST JUMPDEST PUSH0 DUP2 SUB PUSH2 0x2C8D JUMPI PUSH20 0x0 PUSH4 0x9451C99A PUSH1 0x40 MLOAD DUP2 PUSH4 0xFFFFFFFF AND PUSH1 0xE0 SHL DUP2 MSTORE PUSH1 0x4 ADD PUSH1 0x20 PUSH1 0x40 MLOAD DUP1 DUP4 SUB DUP2 DUP7 GAS DELEGATECALL ISZERO DUP1 ISZERO PUSH2 0x2B8D JUMPI RETURNDATASIZE PUSH0 PUSH0 RETURNDATACOPY RETURNDATASIZE PUSH0 REVERT JUMPDEST POP POP POP POP PUSH1 0x40 MLOAD RETURNDATASIZE PUSH1 0x1F NOT PUSH1 0x1F DUP3 ADD AND DUP3 ADD DUP1 PUSH1 0x40 MSTORE POP DUP2 ADD SWAP1 PUSH2 0x2BB1 SWAP2 SWAP1 PUSH2 0x48C6 JUMP JUMPDEST DUP3 LT PUSH2 0x2BC8 JUMPI PUSH2 0x2BC7 PUSH4 0xDF2D9B42 PUSH1 0xE0 SHL PUSH2 0x2272 JUMP JUMPDEST JUMPDEST JUMPDEST PUSH20 0x0 PUSH4 0x47F69EBA DUP4 PUSH1 0x1 SWAP1 SUB SWAP4 POP DUP4 PUSH1 0x40 MLOAD DUP3 PUSH4 0xFFFFFFFF AND PUSH1 0xE0 SHL DUP2 MSTORE PUSH1 0x4 ADD PUSH2 0x2C07 SWAP2 SWAP1 PUSH2 0x478A JUMP JUMPDEST PUSH1 0x20 PUSH1 0x40 MLOAD DUP1 DUP4 SUB DUP2 DUP7 GAS DELEGATECALL ISZERO DUP1 ISZERO PUSH2 0x2C22 JUMPI RETURNDATASIZE PUSH0 PUSH0 RETURNDATACOPY RETURNDATASIZE PUSH0 REVERT JUMPDEST POP POP POP POP PUSH1 0x40 MLOAD RETURNDATASIZE PUSH1 0x1F NOT PUSH1 0x1F DUP3 ADD AND DUP3 ADD DUP1 PUSH1 0x40 MSTORE POP DUP2 ADD SWAP1 PUSH2 0x2C46 SWAP2 SWAP1 PUSH2 0x48C6 JUMP JUMPDEST SWAP1 POP PUSH0 DUP2 SUB ISZERO PUSH2 0x2C88 JUMPI PUSH0 PUSH29 0x100000000000000000000000000000000000000000000000000000000 DUP3 AND SUB ISZERO PUSH2 0x2CC6 JUMPI PUSH2 0x2C87 PUSH4 0xDF2D9B42 PUSH1 0xE0 SHL PUSH2 0x2272 JUMP JUMPDEST JUMPDEST PUSH2 0x2BC9 JUMP JUMPDEST PUSH0 PUSH29 0x100000000000000000000000000000000000000000000000000000000 DUP3 AND SUB ISZERO PUSH2 0x2CC6 JUMPI JUMPDEST PUSH2 0x2CC5 PUSH4 0xDF2D9B42 PUSH1 0xE0 SHL PUSH2 0x2272 JUMP JUMPDEST JUMPDEST SWAP2 SWAP1 POP JUMP JUMPDEST PUSH20 0x0 PUSH4 0xA05CC559 PUSH1 0x40 MLOAD DUP2 PUSH4 0xFFFFFFFF AND PUSH1 0xE0 SHL DUP2 MSTORE PUSH1 0x4 ADD PUSH2 0x2D00 SWAP1 PUSH2 0x4FE1 JUMP JUMPDEST PUSH0 PUSH1 0x40 MLOAD DUP1 DUP4 SUB DUP2 DUP7 DUP1 EXTCODESIZE ISZERO DUP1 ISZERO PUSH2 0x2D16 JUMPI PUSH0 PUSH0 REVERT JUMPDEST POP GAS DELEGATECALL ISZERO DUP1 ISZERO PUSH2 0x2D28 JUMPI RETURNDATASIZE PUSH0 PUSH0 RETURNDATACOPY RETURNDATASIZE PUSH0 REVERT JUMPDEST POP POP POP POP PUSH20 0x0 PUSH4 0x821ABC2D PUSH1 0x40 MLOAD DUP2 PUSH4 0xFFFFFFFF AND PUSH1 0xE0 SHL DUP2 MSTORE PUSH1 0x4 ADD PUSH2 0x2D61 SWAP1 PUSH2 0x5095 JUMP JUMPDEST PUSH0 PUSH1 0x40 MLOAD DUP1 DUP4 SUB DUP2 DUP7 DUP1 EXTCODESIZE ISZERO DUP1 ISZERO PUSH2 0x2D77 JUMPI PUSH0 PUSH0 REVERT JUMPDEST POP GAS DELEGATECALL ISZERO DUP1 ISZERO PUSH2 0x2D89 JUMPI RETURNDATASIZE PUSH0 PUSH0 RETURNDATACOPY RETURNDATASIZE PUSH0 REVERT JUMPDEST POP POP POP POP PUSH20 0x0 PUSH4 0x3802497B PUSH32 0xDFB96C060B2E58F09345A394FD8E994A6E7AC3539CDD256304C6E181A216752E PUSH1 0x40 MLOAD DUP3 PUSH4 0xFFFFFFFF AND PUSH1 0xE0 SHL DUP2 MSTORE PUSH1 0x4 ADD PUSH2 0x2DE4 SWAP2 SWAP1 PUSH2 0x50F7 JUMP JUMPDEST PUSH0 PUSH1 0x40 MLOAD DUP1 DUP4 SUB DUP2 DUP7 DUP1 EXTCODESIZE ISZERO DUP1 ISZERO PUSH2 0x2DFA JUMPI PUSH0 PUSH0 REVERT JUMPDEST POP GAS DELEGATECALL ISZERO DUP1 ISZERO PUSH2 0x2E0C JUMPI RETURNDATASIZE PUSH0 PUSH0 RETURNDATACOPY RETURNDATASIZE PUSH0 REVERT JUMPDEST POP POP POP POP PUSH20 0x0 PUSH4 0x39B37AB0 PUSH8 0xC93A592CFB2A0000 PUSH1 0x40 MLOAD DUP3 PUSH4 0xFFFFFFFF AND PUSH1 0xE0 SHL DUP2 MSTORE PUSH1 0x4 ADD PUSH2 0x2E4F SWAP2 SWAP1 PUSH2 0x5152 JUMP JUMPDEST PUSH0 PUSH1 0x40 MLOAD DUP1 DUP4 SUB DUP2 DUP7 DUP1 EXTCODESIZE ISZERO DUP1 ISZERO PUSH2 0x2E65 JUMPI PUSH0 PUSH0 REVERT JUMPDEST POP GAS DELEGATECALL ISZERO DUP1 ISZERO PUSH2 0x2E77 JUMPI RETURNDATASIZE PUSH0 PUSH0 RETURNDATACOPY RETURNDATASIZE PUSH0 REVERT JUMPDEST POP POP POP POP PUSH20 0x0 PUSH4 0x5B43BC99 DUP4 PUSH1 0x40 MLOAD DUP3 PUSH4 0xFFFFFFFF AND PUSH1 0xE0 SHL DUP2 MSTORE PUSH1 0x4 ADD PUSH2 0x2EB2 SWAP2 SWAP1 PUSH2 0x516B JUMP JUMPDEST PUSH0 PUSH1 0x40 MLOAD DUP1 DUP4 SUB DUP2 DUP7 DUP1 EXTCODESIZE ISZERO DUP1 ISZERO PUSH2 0x2EC8 JUMPI PUSH0 PUSH0 REVERT JUMPDEST POP GAS DELEGATECALL ISZERO DUP1 ISZERO PUSH2 0x2EDA JUMPI RETURNDATASIZE PUSH0 PUSH0 RETURNDATACOPY RETURNDATASIZE PUSH0 REVERT JUMPDEST POP POP POP POP PUSH20 0x0 PUSH4 0x41BB0559 DUP3 PUSH1 0x40 MLOAD DUP3 PUSH4 0xFFFFFFFF AND PUSH1 0xE0 SHL DUP2 MSTORE PUSH1 0x4 ADD PUSH2 0x2F15 SWAP2 SWAP1 PUSH2 0x516B JUMP JUMPDEST PUSH0 PUSH1 0x40 MLOAD DUP1 DUP4 SUB DUP2 DUP7 DUP1 EXTCODESIZE ISZERO DUP1 ISZERO PUSH2 0x2F2B JUMPI PUSH0 PUSH0 REVERT JUMPDEST POP GAS DELEGATECALL ISZERO DUP1 ISZERO PUSH2 0x2F3D JUMPI RETURNDATASIZE PUSH0 PUSH0 RETURNDATACOPY RETURNDATASIZE PUSH0 REVERT JUMPDEST POP POP POP POP PUSH20 0x0 PUSH4 0x345E7B28 PUSH2 0x4B0 PUSH1 0x40 MLOAD DUP3 PUSH4 0xFFFFFFFF AND PUSH1 0xE0 SHL DUP2 MSTORE PUSH1 0x4 ADD PUSH2 0x2F7A SWAP2 SWAP1 PUSH2 0x51C4 JUMP JUMPDEST PUSH0 PUSH1 0x40 MLOAD DUP1 DUP4 SUB DUP2 DUP7 DUP1 EXTCODESIZE ISZERO DUP1 ISZERO PUSH2 0x2F90 JUMPI PUSH0 PUSH0 REVERT JUMPDEST POP GAS DELEGATECALL ISZERO DUP1 ISZERO PUSH2 0x2FA2 JUMPI RETURNDATASIZE PUSH0 PUSH0 RETURNDATACOPY RETURNDATASIZE PUSH0 REVERT JUMPDEST POP POP POP POP PUSH20 0x0 PUSH4 0x32B07B43 PUSH2 0x4B0 PUSH1 0x40 MLOAD DUP3 PUSH4 0xFFFFFFFF AND PUSH1 0xE0 SHL DUP2 MSTORE PUSH1 0x4 ADD PUSH2 0x2FDF SWAP2 SWAP1 PUSH2 0x51C4 JUMP JUMPDEST PUSH0 PUSH1 0x40 MLOAD DUP1 DUP4 SUB DUP2 DUP7 DUP1 EXTCODESIZE ISZERO DUP1 ISZERO PUSH2 0x2FF5 JUMPI PUSH0 PUSH0 REVERT JUMPDEST POP GAS DELEGATECALL ISZERO DUP1 ISZERO PUSH2 0x3007 JUMPI RETURNDATASIZE PUSH0 PUSH0 RETURNDATACOPY RETURNDATASIZE PUSH0 REVERT JUMPDEST POP POP POP POP POP POP JUMP JUMPDEST PUSH0 CALLER SWAP1 POP SWAP1 JUMP JUMPDEST PUSH0 PUSH20 0x0 PUSH4 0x9451C99A PUSH1 0x40 MLOAD DUP2 PUSH4 0xFFFFFFFF AND PUSH1 0xE0 SHL DUP2 MSTORE PUSH1 0x4 ADD PUSH1 0x20 PUSH1 0x40 MLOAD DUP1 DUP4 SUB DUP2 DUP7 GAS DELEGATECALL ISZERO DUP1 ISZERO PUSH2 0x305E JUMPI RETURNDATASIZE PUSH0 PUSH0 RETURNDATACOPY RETURNDATASIZE PUSH0 REVERT JUMPDEST POP POP POP POP PUSH1 0x40 MLOAD RETURNDATASIZE PUSH1 0x1F NOT PUSH1 0x1F DUP3 ADD AND DUP3 ADD DUP1 PUSH1 0x40 MSTORE POP DUP2 ADD SWAP1 PUSH2 0x3082 SWAP2 SWAP1 PUSH2 0x48C6 JUMP JUMPDEST SWAP1 POP SWAP1 JUMP JUMPDEST PUSH0 DUP3 PUSH2 0x3093 DUP6 DUP5 PUSH2 0x369B JUMP JUMPDEST EQ SWAP1 POP SWAP4 SWAP3 POP POP POP JUMP JUMPDEST PUSH2 0x30B6 DUP3 DUP3 PUSH1 0x40 MLOAD DUP1 PUSH1 0x20 ADD PUSH1 0x40 MSTORE DUP1 PUSH0 DUP2 MSTORE POP PUSH2 0x36EC JUMP JUMPDEST POP POP JUMP JUMPDEST PUSH1 0x60 PUSH2 0x30C5 DUP3 PUSH2 0x209E JUMP JUMPDEST PUSH2 0x3104 JUMPI PUSH1 0x40 MLOAD PUSH32 0x8C379A000000000000000000000000000000000000000000000000000000000 DUP2 MSTORE PUSH1 0x4 ADD PUSH2 0x30FB SWAP1 PUSH2 0x524D JUMP JUMPDEST PUSH1 0x40 MLOAD DUP1 SWAP2 SUB SWAP1 REVERT JUMPDEST PUSH0 PUSH2 0x310D PUSH2 0x140C JUMP JUMPDEST SWAP1 POP PUSH0 DUP2 MLOAD GT PUSH2 0x318A JUMPI PUSH20 0x0 PUSH4 0x963BFE12 PUSH1 0x40 MLOAD DUP2 PUSH4 0xFFFFFFFF AND PUSH1 0xE0 SHL DUP2 MSTORE PUSH1 0x4 ADD PUSH0 PUSH1 0x40 MLOAD DUP1 DUP4 SUB DUP2 DUP7 GAS DELEGATECALL ISZERO DUP1 ISZERO PUSH2 0x315D JUMPI RETURNDATASIZE PUSH0 PUSH0 RETURNDATACOPY RETURNDATASIZE PUSH0 REVERT JUMPDEST POP POP POP POP PUSH1 0x40 MLOAD RETURNDATASIZE PUSH0 DUP3 RETURNDATACOPY RETURNDATASIZE PUSH1 0x1F NOT PUSH1 0x1F DUP3 ADD AND DUP3 ADD DUP1 PUSH1 0x40 MSTORE POP DUP2 ADD SWAP1 PUSH2 0x3185 SWAP2 SWAP1 PUSH2 0x4734 JUMP JUMPDEST PUSH2 0x31B5 JUMP JUMPDEST DUP1 PUSH2 0x3194 DUP5 PUSH2 0x3834 JUMP JUMPDEST PUSH1 0x40 MLOAD PUSH1 0x20 ADD PUSH2 0x31A5 SWAP3 SWAP2 SWAP1 PUSH2 0x52B5 JUMP JUMPDEST PUSH1 0x40 MLOAD PUSH1 0x20 DUP2 DUP4 SUB SUB DUP2 MSTORE SWAP1 PUSH1 0x40 MSTORE JUMPDEST SWAP2 POP POP SWAP2 SWAP1 POP JUMP JUMPDEST PUSH0 DUP4 PUSH20 0xFFFFFFFFFFFFFFFFFFFFFFFFFFFFFFFFFFFFFFFF AND PUSH4 0x150B7A02 PUSH2 0x31E2 PUSH2 0x300F JUMP JUMPDEST DUP8 DUP7 DUP7 PUSH1 0x40 MLOAD DUP6 PUSH4 0xFFFFFFFF AND PUSH1 0xE0 SHL DUP2 MSTORE PUSH1 0x4 ADD PUSH2 0x3204 SWAP5 SWAP4 SWAP3 SWAP2 SWAP1 PUSH2 0x5335 JUMP JUMPDEST PUSH1 0x20 PUSH1 0x40 MLOAD DUP1 DUP4 SUB DUP2 PUSH0 DUP8 GAS CALL SWAP3 POP POP POP DUP1 ISZERO PUSH2 0x323F JUMPI POP PUSH1 0x40 MLOAD RETURNDATASIZE PUSH1 0x1F NOT PUSH1 0x1F DUP3 ADD AND DUP3 ADD DUP1 PUSH1 0x40 MSTORE POP DUP2 ADD SWAP1 PUSH2 0x323C SWAP2 SWAP1 PUSH2 0x5393 JUMP JUMPDEST PUSH1 0x1 JUMPDEST PUSH2 0x3294 JUMPI RETURNDATASIZE DUP1 PUSH0 DUP2 EQ PUSH2 0x326D JUMPI PUSH1 0x40 MLOAD SWAP2 POP PUSH1 0x1F NOT PUSH1 0x3F RETURNDATASIZE ADD AND DUP3 ADD PUSH1 0x40 MSTORE RETURNDATASIZE DUP3 MSTORE RETURNDATASIZE PUSH0 PUSH1 0x20 DUP5 ADD RETURNDATACOPY PUSH2 0x3272 JUMP JUMPDEST PUSH1 0x60 SWAP2 POP JUMPDEST POP PUSH0 DUP2 MLOAD SUB PUSH2 0x328C JUMPI PUSH2 0x328B PUSH4 0xD1A57ED6 PUSH1 0xE0 SHL PUSH2 0x2272 JUMP JUMPDEST JUMPDEST DUP1 MLOAD DUP2 PUSH1 0x20 ADD REVERT JUMPDEST PUSH4 0x150B7A02 PUSH1 0xE0 SHL PUSH28 0xFFFFFFFFFFFFFFFFFFFFFFFFFFFFFFFFFFFFFFFFFFFFFFFFFFFFFFFF NOT AND DUP2 PUSH28 0xFFFFFFFFFFFFFFFFFFFFFFFFFFFFFFFFFFFFFFFFFFFFFFFFFFFFFFFF NOT AND EQ SWAP2 POP POP SWAP5 SWAP4 POP POP POP POP JUMP JUMPDEST PUSH1 0x60 PUSH1 0x40 MLOAD DUP1 PUSH1 0x20 ADD PUSH1 0x40 MSTORE DUP1 PUSH0 DUP2 MSTORE POP SWAP1 POP SWAP1 JUMP JUMPDEST PUSH1 0x60 PUSH2 0x3308 DUP3 PUSH2 0x209E JUMP JUMPDEST PUSH2 0x331D JUMPI PUSH2 0x331C PUSH4 0xA14C4B50 PUSH1 0xE0 SHL PUSH2 0x2272 JUMP JUMPDEST JUMPDEST PUSH0 PUSH2 0x3326 PUSH2 0x32E7 JUMP JUMPDEST SWAP1 POP PUSH0 DUP2 MLOAD SUB PUSH2 0x3344 JUMPI PUSH1 0x40 MLOAD DUP1 PUSH1 0x20 ADD PUSH1 0x40 MSTORE DUP1 PUSH0 DUP2 MSTORE POP PUSH2 0x336F JUMP JUMPDEST DUP1 PUSH2 0x334E DUP5 PUSH2 0x38FE JUMP JUMPDEST PUSH1 0x40 MLOAD PUSH1 0x20 ADD PUSH2 0x335F SWAP3 SWAP2 SWAP1 PUSH2 0x4D91 JUMP JUMPDEST PUSH1 0x40 MLOAD PUSH1 0x20 DUP2 DUP4 SUB SUB DUP2 MSTORE SWAP1 PUSH1 0x40 MSTORE JUMPDEST SWAP2 POP POP SWAP2 SWAP1 POP JUMP JUMPDEST PUSH0 PUSH29 0x100000000000000000000000000000000000000000000000000000000 DUP3 AND PUSH20 0xFFFFFFFFFFFFFFFFFFFFFFFFFFFFFFFFFFFFFFFF DUP4 AND GT SWAP1 POP SWAP2 SWAP1 POP JUMP JUMPDEST PUSH0 PUSH0 PUSH1 0x1 PUSH20 0x0 PUSH4 0xA7CC0136 DUP6 PUSH1 0x40 MLOAD DUP3 PUSH4 0xFFFFFFFF AND PUSH1 0xE0 SHL DUP2 MSTORE PUSH1 0x4 ADD PUSH2 0x33F2 SWAP2 SWAP1 PUSH2 0x478A JUMP JUMPDEST PUSH1 0x20 PUSH1 0x40 MLOAD DUP1 DUP4 SUB DUP2 DUP7 GAS DELEGATECALL ISZERO DUP1 ISZERO PUSH2 0x340D JUMPI RETURNDATASIZE PUSH0 PUSH0 RETURNDATACOPY RETURNDATASIZE PUSH0 REVERT JUMPDEST POP POP POP POP PUSH1 0x40 MLOAD RETURNDATASIZE PUSH1 0x1F NOT PUSH1 0x1F DUP3 ADD AND DUP3 ADD DUP1 PUSH1 0x40 MSTORE POP DUP2 ADD SWAP1 PUSH2 0x3431 SWAP2 SWAP1 PUSH2 0x47F4 JUMP JUMPDEST PUSH0 ADD MLOAD SWAP2 POP SWAP2 POP SWAP2 POP SWAP2 JUMP JUMPDEST PUSH0 PUSH20 0xFFFFFFFFFFFFFFFFFFFFFFFFFFFFFFFFFFFFFFFF DUP4 AND SWAP3 POP PUSH20 0xFFFFFFFFFFFFFFFFFFFFFFFFFFFFFFFFFFFFFFFF DUP3 AND SWAP2 POP DUP4 DUP3 EQ DUP4 DUP4 EQ OR SWAP1 POP SWAP4 SWAP3 POP POP POP JUMP JUMPDEST POP POP POP POP JUMP JUMPDEST PUSH0 PUSH0 PUSH1 0xE8 DUP4 SWAP1 SHR SWAP1 POP PUSH1 0xE8 PUSH2 0x349C DUP7 DUP7 DUP5 PUSH2 0x394D JUMP JUMPDEST PUSH3 0xFFFFFF AND SWAP1 SHL SWAP2 POP POP SWAP4 SWAP3 POP POP POP JUMP JUMPDEST PUSH0 PUSH20 0xFFFFFFFFFFFFFFFFFFFFFFFFFFFFFFFFFFFFFFFF DUP4 AND SWAP3 POP DUP2 TIMESTAMP PUSH1 0xA0 SHL OR DUP4 OR SWAP1 POP SWAP3 SWAP2 POP POP JUMP JUMPDEST POP POP POP POP JUMP JUMPDEST PUSH20 0x0 PUSH4 0xDBE0B21C DUP3 PUSH1 0x40 MLOAD DUP3 PUSH4 0xFFFFFFFF AND PUSH1 0xE0 SHL DUP2 MSTORE PUSH1 0x4 ADD PUSH2 0x3514 SWAP2 SWAP1 PUSH2 0x478A JUMP JUMPDEST PUSH0 PUSH1 0x40 MLOAD DUP1 DUP4 SUB DUP2 DUP7 DUP1 EXTCODESIZE ISZERO DUP1 ISZERO PUSH2 0x352A JUMPI PUSH0 PUSH0 REVERT JUMPDEST POP GAS DELEGATECALL ISZERO DUP1 ISZERO PUSH2 0x353C JUMPI RETURNDATASIZE PUSH0 PUSH0 RETURNDATACOPY RETURNDATASIZE PUSH0 REVERT JUMPDEST POP POP POP POP POP JUMP JUMPDEST PUSH20 0x0 PUSH4 0x71BC71C DUP4 DUP4 PUSH2 0x3568 DUP7 PUSH2 0x156E JUMP JUMPDEST PUSH1 0x40 MLOAD DUP5 PUSH4 0xFFFFFFFF AND PUSH1 0xE0 SHL DUP2 MSTORE PUSH1 0x4 ADD PUSH2 0x3586 SWAP4 SWAP3 SWAP2 SWAP1 PUSH2 0x53BE JUMP JUMPDEST PUSH0 PUSH1 0x40 MLOAD DUP1 DUP4 SUB DUP2 DUP7 DUP1 EXTCODESIZE ISZERO DUP1 ISZERO PUSH2 0x359C JUMPI PUSH0 PUSH0 REVERT JUMPDEST POP GAS DELEGATECALL ISZERO DUP1 ISZERO PUSH2 0x35AE JUMPI RETURNDATASIZE PUSH0 PUSH0 RETURNDATACOPY RETURNDATASIZE PUSH0 REVERT JUMPDEST POP POP POP POP POP POP JUMP JUMPDEST PUSH20 0x0 PUSH4 0x40E02F5C DUP3 PUSH1 0x40 MLOAD DUP3 PUSH4 0xFFFFFFFF AND PUSH1 0xE0 SHL DUP2 MSTORE PUSH1 0x4 ADD PUSH2 0x35ED SWAP2 SWAP1 PUSH2 0x478A JUMP JUMPDEST PUSH0 PUSH1 0x40 MLOAD DUP1 DUP4 SUB DUP2 DUP7 DUP1 EXTCODESIZE ISZERO DUP1 ISZERO PUSH2 0x3603 JUMPI PUSH0 PUSH0 REVERT JUMPDEST POP GAS DELEGATECALL ISZERO DUP1 ISZERO PUSH2 0x3615 JUMPI RETURNDATASIZE PUSH0 PUSH0 RETURNDATACOPY RETURNDATASIZE PUSH0 REVERT JUMPDEST POP POP POP POP POP JUMP JUMPDEST PUSH20 0x0 PUSH4 0x4F4979ED DUP4 DUP4 PUSH1 0x1 PUSH2 0x3643 DUP8 PUSH2 0x156E JUMP JUMPDEST PUSH2 0x364D SWAP2 SWAP1 PUSH2 0x53F3 JUMP JUMPDEST PUSH1 0x40 MLOAD DUP5 PUSH4 0xFFFFFFFF AND PUSH1 0xE0 SHL DUP2 MSTORE PUSH1 0x4 ADD PUSH2 0x366B SWAP4 SWAP3 SWAP2 SWAP1 PUSH2 0x53BE JUMP JUMPDEST PUSH0 PUSH1 0x40 MLOAD DUP1 DUP4 SUB DUP2 DUP7 DUP1 EXTCODESIZE ISZERO DUP1 ISZERO PUSH2 0x3681 JUMPI PUSH0 PUSH0 REVERT JUMPDEST POP GAS DELEGATECALL ISZERO DUP1 ISZERO PUSH2 0x3693 JUMPI RETURNDATASIZE PUSH0 PUSH0 RETURNDATACOPY RETURNDATASIZE PUSH0 REVERT JUMPDEST POP POP POP POP POP POP JUMP JUMPDEST PUSH0 PUSH0 DUP3 SWAP1 POP PUSH0 PUSH0 SWAP1 POP JUMPDEST DUP5 MLOAD DUP2 LT ISZERO PUSH2 0x36E1 JUMPI PUSH2 0x36D2 DUP3 DUP7 DUP4 DUP2 MLOAD DUP2 LT PUSH2 0x36C5 JUMPI PUSH2 0x36C4 PUSH2 0x5426 JUMP JUMPDEST JUMPDEST PUSH1 0x20 MUL PUSH1 0x20 ADD ADD MLOAD PUSH2 0x3955 JUMP JUMPDEST SWAP2 POP DUP1 DUP1 PUSH1 0x1 ADD SWAP2 POP POP PUSH2 0x36A5 JUMP JUMPDEST POP DUP1 SWAP2 POP POP SWAP3 SWAP2 POP POP JUMP JUMPDEST PUSH2 0x36F6 DUP4 DUP4 PUSH2 0x397F JUMP JUMPDEST PUSH0 DUP4 PUSH20 0xFFFFFFFFFFFFFFFFFFFFFFFFFFFFFFFFFFFFFFFF AND EXTCODESIZE EQ PUSH2 0x382F JUMPI PUSH0 PUSH20 0x0 PUSH4 0x9451C99A PUSH1 0x40 MLOAD DUP2 PUSH4 0xFFFFFFFF AND PUSH1 0xE0 SHL DUP2 MSTORE PUSH1 0x4 ADD PUSH1 0x20 PUSH1 0x40 MLOAD DUP1 DUP4 SUB DUP2 DUP7 GAS DELEGATECALL ISZERO DUP1 ISZERO PUSH2 0x375C JUMPI RETURNDATASIZE PUSH0 PUSH0 RETURNDATACOPY RETURNDATASIZE PUSH0 REVERT JUMPDEST POP POP POP POP PUSH1 0x40 MLOAD RETURNDATASIZE PUSH1 0x1F NOT PUSH1 0x1F DUP3 ADD AND DUP3 ADD DUP1 PUSH1 0x40 MSTORE POP DUP2 ADD SWAP1 PUSH2 0x3780 SWAP2 SWAP1 PUSH2 0x48C6 JUMP JUMPDEST SWAP1 POP PUSH0 DUP4 DUP3 SUB SWAP1 POP JUMPDEST PUSH2 0x379B PUSH0 DUP7 DUP4 DUP1 PUSH1 0x1 ADD SWAP5 POP DUP7 PUSH2 0x31BD JUMP JUMPDEST PUSH2 0x37B0 JUMPI PUSH2 0x37AF PUSH4 0xD1A57ED6 PUSH1 0xE0 SHL PUSH2 0x2272 JUMP JUMPDEST JUMPDEST DUP2 DUP2 LT PUSH2 0x3789 JUMPI DUP2 PUSH20 0x0 PUSH4 0x9451C99A PUSH1 0x40 MLOAD DUP2 PUSH4 0xFFFFFFFF AND PUSH1 0xE0 SHL DUP2 MSTORE PUSH1 0x4 ADD PUSH1 0x20 PUSH1 0x40 MLOAD DUP1 DUP4 SUB DUP2 DUP7 GAS DELEGATECALL ISZERO DUP1 ISZERO PUSH2 0x37FF JUMPI RETURNDATASIZE PUSH0 PUSH0 RETURNDATACOPY RETURNDATASIZE PUSH0 REVERT JUMPDEST POP POP POP POP PUSH1 0x40 MLOAD RETURNDATASIZE PUSH1 0x1F NOT PUSH1 0x1F DUP3 ADD AND DUP3 ADD DUP1 PUSH1 0x40 MSTORE POP DUP2 ADD SWAP1 PUSH2 0x3823 SWAP2 SWAP1 PUSH2 0x48C6 JUMP JUMPDEST EQ PUSH2 0x382C JUMPI PUSH0 PUSH0 REVERT JUMPDEST POP POP JUMPDEST POP POP POP JUMP JUMPDEST PUSH1 0x60 PUSH0 PUSH1 0x1 PUSH2 0x3842 DUP5 PUSH2 0x3C9A JUMP JUMPDEST ADD SWAP1 POP PUSH0 DUP2 PUSH8 0xFFFFFFFFFFFFFFFF DUP2 GT ISZERO PUSH2 0x3860 JUMPI PUSH2 0x385F PUSH2 0x40B0 JUMP JUMPDEST JUMPDEST PUSH1 0x40 MLOAD SWAP1 DUP1 DUP3 MSTORE DUP1 PUSH1 0x1F ADD PUSH1 0x1F NOT AND PUSH1 0x20 ADD DUP3 ADD PUSH1 0x40 MSTORE DUP1 ISZERO PUSH2 0x3892 JUMPI DUP2 PUSH1 0x20 ADD PUSH1 0x1 DUP3 MUL DUP1 CALLDATASIZE DUP4 CALLDATACOPY DUP1 DUP3 ADD SWAP2 POP POP SWAP1 POP JUMPDEST POP SWAP1 POP PUSH0 DUP3 PUSH1 0x20 ADD DUP3 ADD SWAP1 POP JUMPDEST PUSH1 0x1 ISZERO PUSH2 0x38F3 JUMPI DUP1 DUP1 PUSH1 0x1 SWAP1 SUB SWAP2 POP POP PUSH32 0x3031323334353637383961626364656600000000000000000000000000000000 PUSH1 0xA DUP7 MOD BYTE DUP2 MSTORE8 PUSH1 0xA DUP6 DUP2 PUSH2 0x38E8 JUMPI PUSH2 0x38E7 PUSH2 0x5453 JUMP JUMPDEST JUMPDEST DIV SWAP5 POP PUSH0 DUP6 SUB PUSH2 0x389F JUMPI JUMPDEST DUP2 SWAP4 POP POP POP POP SWAP2 SWAP1 POP JUMP JUMPDEST PUSH1 0x60 PUSH1 0xA0 PUSH1 0x40 MLOAD ADD DUP1 PUSH1 0x40 MSTORE PUSH1 0x20 DUP2 SUB SWAP2 POP PUSH0 DUP3 MSTORE DUP2 DUP4 JUMPDEST PUSH1 0x1 ISZERO PUSH2 0x3938 JUMPI PUSH1 0x1 DUP5 SUB SWAP4 POP PUSH1 0xA DUP2 MOD PUSH1 0x30 ADD DUP5 MSTORE8 PUSH1 0xA DUP2 DIV SWAP1 POP DUP1 PUSH2 0x3916 JUMPI JUMPDEST POP DUP3 DUP2 SUB PUSH1 0x20 DUP5 SUB SWAP4 POP DUP1 DUP5 MSTORE POP POP POP SWAP2 SWAP1 POP JUMP JUMPDEST PUSH0 SWAP4 SWAP3 POP POP POP JUMP JUMPDEST PUSH0 DUP2 DUP4 LT PUSH2 0x396C JUMPI PUSH2 0x3967 DUP3 DUP5 PUSH2 0x3DEB JUMP JUMPDEST PUSH2 0x3977 JUMP JUMPDEST PUSH2 0x3976 DUP4 DUP4 PUSH2 0x3DEB JUMP JUMPDEST JUMPDEST SWAP1 POP SWAP3 SWAP2 POP POP JUMP JUMPDEST PUSH0 PUSH20 0x0 PUSH4 0x9451C99A PUSH1 0x40 MLOAD DUP2 PUSH4 0xFFFFFFFF AND PUSH1 0xE0 SHL DUP2 MSTORE PUSH1 0x4 ADD PUSH1 0x20 PUSH1 0x40 MLOAD DUP1 DUP4 SUB DUP2 DUP7 GAS DELEGATECALL ISZERO DUP1 ISZERO PUSH2 0x39C7 JUMPI RETURNDATASIZE PUSH0 PUSH0 RETURNDATACOPY RETURNDATASIZE PUSH0 REVERT JUMPDEST POP POP POP POP PUSH1 0x40 MLOAD RETURNDATASIZE PUSH1 0x1F NOT PUSH1 0x1F DUP3 ADD AND DUP3 ADD DUP1 PUSH1 0x40 MSTORE POP DUP2 ADD SWAP1 PUSH2 0x39EB SWAP2 SWAP1 PUSH2 0x48C6 JUMP JUMPDEST SWAP1 POP PUSH0 DUP3 SUB PUSH2 0x3A05 JUMPI PUSH2 0x3A04 PUSH4 0xB562E8DD PUSH1 0xE0 SHL PUSH2 0x2272 JUMP JUMPDEST JUMPDEST PUSH2 0x3A11 PUSH0 DUP5 DUP4 DUP6 PUSH2 0x3480 JUMP JUMPDEST PUSH20 0x0 PUSH4 0xE68FDEE1 DUP3 PUSH2 0x3A4A DUP7 PUSH2 0x3A3B PUSH0 DUP10 PUSH0 PUSH2 0x3486 JUMP JUMPDEST PUSH2 0x3A44 DUP9 PUSH2 0x3DFF JUMP JUMPDEST OR PUSH2 0x34AD JUMP JUMPDEST PUSH1 0x40 MLOAD DUP4 PUSH4 0xFFFFFFFF AND PUSH1 0xE0 SHL DUP2 MSTORE PUSH1 0x4 ADD PUSH2 0x3A67 SWAP3 SWAP2 SWAP1 PUSH2 0x4EBC JUMP JUMPDEST PUSH0 PUSH1 0x40 MLOAD DUP1 DUP4 SUB DUP2 DUP7 DUP1 EXTCODESIZE ISZERO DUP1 ISZERO PUSH2 0x3A7D JUMPI PUSH0 PUSH0 REVERT JUMPDEST POP GAS DELEGATECALL ISZERO DUP1 ISZERO PUSH2 0x3A8F JUMPI RETURNDATASIZE PUSH0 PUSH0 RETURNDATACOPY RETURNDATASIZE PUSH0 REVERT JUMPDEST POP POP POP POP PUSH20 0x0 PUSH4 0xA3301173 DUP5 PUSH1 0x1 PUSH1 0x40 PUSH1 0x1 SWAP1 SHL OR DUP6 MUL PUSH20 0x0 PUSH4 0x21B0ED7D DUP9 PUSH1 0x40 MLOAD DUP3 PUSH4 0xFFFFFFFF AND PUSH1 0xE0 SHL DUP2 MSTORE PUSH1 0x4 ADD PUSH2 0x3AF0 SWAP2 SWAP1 PUSH2 0x4A56 JUMP JUMPDEST PUSH1 0x20 PUSH1 0x40 MLOAD DUP1 DUP4 SUB DUP2 DUP7 GAS DELEGATECALL ISZERO DUP1 ISZERO PUSH2 0x3B0B JUMPI RETURNDATASIZE PUSH0 PUSH0 RETURNDATACOPY RETURNDATASIZE PUSH0 REVERT JUMPDEST POP POP POP POP PUSH1 0x40 MLOAD RETURNDATASIZE PUSH1 0x1F NOT PUSH1 0x1F DUP3 ADD AND DUP3 ADD DUP1 PUSH1 0x40 MSTORE POP DUP2 ADD SWAP1 PUSH2 0x3B2F SWAP2 SWAP1 PUSH2 0x48C6 JUMP JUMPDEST ADD PUSH1 0x40 MLOAD DUP4 PUSH4 0xFFFFFFFF AND PUSH1 0xE0 SHL DUP2 MSTORE PUSH1 0x4 ADD PUSH2 0x3B4D SWAP3 SWAP2 SWAP1 PUSH2 0x49D1 JUMP JUMPDEST PUSH0 PUSH1 0x40 MLOAD DUP1 DUP4 SUB DUP2 DUP7 DUP1 EXTCODESIZE ISZERO DUP1 ISZERO PUSH2 0x3B63 JUMPI PUSH0 PUSH0 REVERT JUMPDEST POP GAS DELEGATECALL ISZERO DUP1 ISZERO PUSH2 0x3B75 JUMPI RETURNDATASIZE PUSH0 PUSH0 RETURNDATACOPY RETURNDATASIZE PUSH0 REVERT JUMPDEST POP POP POP POP PUSH0 PUSH20 0xFFFFFFFFFFFFFFFFFFFFFFFFFFFFFFFFFFFFFFFF DUP5 PUSH20 0xFFFFFFFFFFFFFFFFFFFFFFFFFFFFFFFFFFFFFFFF AND AND SWAP1 POP PUSH0 DUP2 SUB PUSH2 0x3BC1 JUMPI PUSH2 0x3BC0 PUSH4 0x2E076300 PUSH1 0xE0 SHL PUSH2 0x2272 JUMP JUMPDEST JUMPDEST PUSH0 DUP4 DUP4 ADD SWAP1 POP PUSH0 DUP4 SWAP1 POP PUSH2 0x3BD3 PUSH2 0x2467 JUMP JUMPDEST PUSH1 0x1 DUP4 SUB GT ISZERO PUSH2 0x3BEE JUMPI PUSH2 0x3BED PUSH4 0x81647E3A PUSH1 0xE0 SHL PUSH2 0x2272 JUMP JUMPDEST JUMPDEST JUMPDEST DUP1 DUP4 PUSH0 PUSH32 0xDDF252AD1BE2C89B69C2B068FC378DAA952BA7F163C4A11628F55A4DF523B3EF PUSH0 PUSH0 LOG4 DUP2 DUP2 PUSH1 0x1 ADD SWAP2 POP DUP2 SUB PUSH2 0x3BEF JUMPI PUSH20 0x0 PUSH4 0x345E7B28 DUP4 PUSH1 0x40 MLOAD DUP3 PUSH4 0xFFFFFFFF AND PUSH1 0xE0 SHL DUP2 MSTORE PUSH1 0x4 ADD PUSH2 0x3C5A SWAP2 SWAP1 PUSH2 0x478A JUMP JUMPDEST PUSH0 PUSH1 0x40 MLOAD DUP1 DUP4 SUB DUP2 DUP7 DUP1 EXTCODESIZE ISZERO DUP1 ISZERO PUSH2 0x3C70 JUMPI PUSH0 PUSH0 REVERT JUMPDEST POP GAS DELEGATECALL ISZERO DUP1 ISZERO PUSH2 0x3C82 JUMPI RETURNDATASIZE PUSH0 PUSH0 RETURNDATACOPY RETURNDATASIZE PUSH0 REVERT JUMPDEST POP POP POP POP POP POP POP PUSH2 0x3C95 PUSH0 DUP5 DUP4 DUP6 PUSH2 0x34D7 JUMP JUMPDEST POP POP POP JUMP JUMPDEST PUSH0 PUSH0 PUSH0 SWAP1 POP PUSH27 0x184F03E93FF9F4DAA797ED6E38ED64BF6A1F010000000000000000 DUP4 LT PUSH2 0x3CF6 JUMPI PUSH27 0x184F03E93FF9F4DAA797ED6E38ED64BF6A1F010000000000000000 DUP4 DUP2 PUSH2 0x3CEC JUMPI PUSH2 0x3CEB PUSH2 0x5453 JUMP JUMPDEST JUMPDEST DIV SWAP3 POP PUSH1 0x40 DUP2 ADD SWAP1 POP JUMPDEST PUSH14 0x4EE2D6D415B85ACEF8100000000 DUP4 LT PUSH2 0x3D33 JUMPI PUSH14 0x4EE2D6D415B85ACEF8100000000 DUP4 DUP2 PUSH2 0x3D29 JUMPI PUSH2 0x3D28 PUSH2 0x5453 JUMP JUMPDEST JUMPDEST DIV SWAP3 POP PUSH1 0x20 DUP2 ADD SWAP1 POP JUMPDEST PUSH7 0x2386F26FC10000 DUP4 LT PUSH2 0x3D62 JUMPI PUSH7 0x2386F26FC10000 DUP4 DUP2 PUSH2 0x3D58 JUMPI PUSH2 0x3D57 PUSH2 0x5453 JUMP JUMPDEST JUMPDEST DIV SWAP3 POP PUSH1 0x10 DUP2 ADD SWAP1 POP JUMPDEST PUSH4 0x5F5E100 DUP4 LT PUSH2 0x3D8B JUMPI PUSH4 0x5F5E100 DUP4 DUP2 PUSH2 0x3D81 JUMPI PUSH2 0x3D80 PUSH2 0x5453 JUMP JUMPDEST JUMPDEST DIV SWAP3 POP PUSH1 0x8 DUP2 ADD SWAP1 POP JUMPDEST PUSH2 0x2710 DUP4 LT PUSH2 0x3DB0 JUMPI PUSH2 0x2710 DUP4 DUP2 PUSH2 0x3DA6 JUMPI PUSH2 0x3DA5 PUSH2 0x5453 JUMP JUMPDEST JUMPDEST DIV SWAP3 POP PUSH1 0x4 DUP2 ADD SWAP1 POP JUMPDEST PUSH1 0x64 DUP4 LT PUSH2 0x3DD3 JUMPI PUSH1 0x64 DUP4 DUP2 PUSH2 0x3DC9 JUMPI PUSH2 0x3DC8 PUSH2 0x5453 JUMP JUMPDEST JUMPDEST DIV SWAP3 POP PUSH1 0x2 DUP2 ADD SWAP1 POP JUMPDEST PUSH1 0xA DUP4 LT PUSH2 0x3DE2 JUMPI PUSH1 0x1 DUP2 ADD SWAP1 POP JUMPDEST DUP1 SWAP2 POP POP SWAP2 SWAP1 POP JUMP JUMPDEST PUSH0 DUP3 PUSH0 MSTORE DUP2 PUSH1 0x20 MSTORE PUSH1 0x40 PUSH0 KECCAK256 SWAP1 POP SWAP3 SWAP2 POP POP JUMP JUMPDEST PUSH0 PUSH1 0x1 DUP3 EQ PUSH1 0xE1 SHL SWAP1 POP SWAP2 SWAP1 POP JUMP JUMPDEST PUSH0 PUSH1 0x40 MLOAD SWAP1 POP SWAP1 JUMP JUMPDEST PUSH0 PUSH0 REVERT JUMPDEST PUSH0 PUSH0 REVERT JUMPDEST PUSH0 PUSH32 0xFFFFFFFF00000000000000000000000000000000000000000000000000000000 DUP3 AND SWAP1 POP SWAP2 SWAP1 POP JUMP JUMPDEST PUSH2 0x3E53 DUP2 PUSH2 0x3E1F JUMP JUMPDEST DUP2 EQ PUSH2 0x3E5D JUMPI PUSH0 PUSH0 REVERT JUMPDEST POP JUMP JUMPDEST PUSH0 DUP2 CALLDATALOAD SWAP1 POP PUSH2 0x3E6E DUP2 PUSH2 0x3E4A JUMP JUMPDEST SWAP3 SWAP2 POP POP JUMP JUMPDEST PUSH0 PUSH1 0x20 DUP3 DUP5 SUB SLT ISZERO PUSH2 0x3E89 JUMPI PUSH2 0x3E88 PUSH2 0x3E17 JUMP JUMPDEST JUMPDEST PUSH0 PUSH2 0x3E96 DUP5 DUP3 DUP6 ADD PUSH2 0x3E60 JUMP JUMPDEST SWAP2 POP POP SWAP3 SWAP2 POP POP JUMP JUMPDEST PUSH0 DUP2 ISZERO ISZERO SWAP1 POP SWAP2 SWAP1 POP JUMP JUMPDEST PUSH2 0x3EB3 DUP2 PUSH2 0x3E9F JUMP JUMPDEST DUP3 MSTORE POP POP JUMP JUMPDEST PUSH0 PUSH1 0x20 DUP3 ADD SWAP1 POP PUSH2 0x3ECC PUSH0 DUP4 ADD DUP5 PUSH2 0x3EAA JUMP JUMPDEST SWAP3 SWAP2 POP POP JUMP JUMPDEST PUSH0 DUP2 MLOAD SWAP1 POP SWAP2 SWAP1 POP JUMP JUMPDEST PUSH0 DUP3 DUP3 MSTORE PUSH1 0x20 DUP3 ADD SWAP1 POP SWAP3 SWAP2 POP POP JUMP JUMPDEST DUP3 DUP2 DUP4 MCOPY PUSH0 DUP4 DUP4 ADD MSTORE POP POP POP JUMP JUMPDEST PUSH0 PUSH1 0x1F NOT PUSH1 0x1F DUP4 ADD AND SWAP1 POP SWAP2 SWAP1 POP JUMP JUMPDEST PUSH0 PUSH2 0x3F14 DUP3 PUSH2 0x3ED2 JUMP JUMPDEST PUSH2 0x3F1E DUP2 DUP6 PUSH2 0x3EDC JUMP JUMPDEST SWAP4 POP PUSH2 0x3F2E DUP2 DUP6 PUSH1 0x20 DUP7 ADD PUSH2 0x3EEC JUMP JUMPDEST PUSH2 0x3F37 DUP2 PUSH2 0x3EFA JUMP JUMPDEST DUP5 ADD SWAP2 POP POP SWAP3 SWAP2 POP POP JUMP JUMPDEST PUSH0 PUSH1 0x20 DUP3 ADD SWAP1 POP DUP2 DUP2 SUB PUSH0 DUP4 ADD MSTORE PUSH2 0x3F5A DUP2 DUP5 PUSH2 0x3F0A JUMP JUMPDEST SWAP1 POP SWAP3 SWAP2 POP POP JUMP JUMPDEST PUSH0 DUP2 SWAP1 POP SWAP2 SWAP1 POP JUMP JUMPDEST PUSH2 0x3F74 DUP2 PUSH2 0x3F62 JUMP JUMPDEST DUP2 EQ PUSH2 0x3F7E JUMPI PUSH0 PUSH0 REVERT JUMPDEST POP JUMP JUMPDEST PUSH0 DUP2 CALLDATALOAD SWAP1 POP PUSH2 0x3F8F DUP2 PUSH2 0x3F6B JUMP JUMPDEST SWAP3 SWAP2 POP POP JUMP JUMPDEST PUSH0 PUSH1 0x20 DUP3 DUP5 SUB SLT ISZERO PUSH2 0x3FAA JUMPI PUSH2 0x3FA9 PUSH2 0x3E17 JUMP JUMPDEST JUMPDEST PUSH0 PUSH2 0x3FB7 DUP5 DUP3 DUP6 ADD PUSH2 0x3F81 JUMP JUMPDEST SWAP2 POP POP SWAP3 SWAP2 POP POP JUMP JUMPDEST PUSH0 PUSH20 0xFFFFFFFFFFFFFFFFFFFFFFFFFFFFFFFFFFFFFFFF DUP3 AND SWAP1 POP SWAP2 SWAP1 POP JUMP JUMPDEST PUSH0 PUSH2 0x3FE9 DUP3 PUSH2 0x3FC0 JUMP JUMPDEST SWAP1 POP SWAP2 SWAP1 POP JUMP JUMPDEST PUSH2 0x3FF9 DUP2 PUSH2 0x3FDF JUMP JUMPDEST DUP3 MSTORE POP POP JUMP JUMPDEST PUSH0 PUSH1 0x20 DUP3 ADD SWAP1 POP PUSH2 0x4012 PUSH0 DUP4 ADD DUP5 PUSH2 0x3FF0 JUMP JUMPDEST SWAP3 SWAP2 POP POP JUMP JUMPDEST PUSH2 0x4021 DUP2 PUSH2 0x3FDF JUMP JUMPDEST DUP2 EQ PUSH2 0x402B JUMPI PUSH0 PUSH0 REVERT JUMPDEST POP JUMP JUMPDEST PUSH0 DUP2 CALLDATALOAD SWAP1 POP PUSH2 0x403C DUP2 PUSH2 0x4018 JUMP JUMPDEST SWAP3 SWAP2 POP POP JUMP JUMPDEST PUSH0 PUSH0 PUSH1 0x40 DUP4 DUP6 SUB SLT ISZERO PUSH2 0x4058 JUMPI PUSH2 0x4057 PUSH2 0x3E17 JUMP JUMPDEST JUMPDEST PUSH0 PUSH2 0x4065 DUP6 DUP3 DUP7 ADD PUSH2 0x402E JUMP JUMPDEST SWAP3 POP POP PUSH1 0x20 PUSH2 0x4076 DUP6 DUP3 DUP7 ADD PUSH2 0x3F81 JUMP JUMPDEST SWAP2 POP POP SWAP3 POP SWAP3 SWAP1 POP JUMP JUMPDEST PUSH2 0x4089 DUP2 PUSH2 0x3F62 JUMP JUMPDEST DUP3 MSTORE POP POP JUMP JUMPDEST PUSH0 PUSH1 0x20 DUP3 ADD SWAP1 POP PUSH2 0x40A2 PUSH0 DUP4 ADD DUP5 PUSH2 0x4080 JUMP JUMPDEST SWAP3 SWAP2 POP POP JUMP JUMPDEST PUSH0 PUSH0 REVERT JUMPDEST PUSH0 PUSH0 REVERT JUMPDEST PUSH32 0x4E487B7100000000000000000000000000000000000000000000000000000000 PUSH0 MSTORE PUSH1 0x41 PUSH1 0x4 MSTORE PUSH1 0x24 PUSH0 REVERT JUMPDEST PUSH2 0x40E6 DUP3 PUSH2 0x3EFA JUMP JUMPDEST DUP2 ADD DUP2 DUP2 LT PUSH8 0xFFFFFFFFFFFFFFFF DUP3 GT OR ISZERO PUSH2 0x4105 JUMPI PUSH2 0x4104 PUSH2 0x40B0 JUMP JUMPDEST JUMPDEST DUP1 PUSH1 0x40 MSTORE POP POP POP JUMP JUMPDEST PUSH0 PUSH2 0x4117 PUSH2 0x3E0E JUMP JUMPDEST SWAP1 POP PUSH2 0x4123 DUP3 DUP3 PUSH2 0x40DD JUMP JUMPDEST SWAP2 SWAP1 POP JUMP JUMPDEST PUSH0 PUSH8 0xFFFFFFFFFFFFFFFF DUP3 GT ISZERO PUSH2 0x4142 JUMPI PUSH2 0x4141 PUSH2 0x40B0 JUMP JUMPDEST JUMPDEST PUSH2 0x414B DUP3 PUSH2 0x3EFA JUMP JUMPDEST SWAP1 POP PUSH1 0x20 DUP2 ADD SWAP1 POP SWAP2 SWAP1 POP JUMP JUMPDEST DUP3 DUP2 DUP4 CALLDATACOPY PUSH0 DUP4 DUP4 ADD MSTORE POP POP POP JUMP JUMPDEST PUSH0 PUSH2 0x4178 PUSH2 0x4173 DUP5 PUSH2 0x4128 JUMP JUMPDEST PUSH2 0x410E JUMP JUMPDEST SWAP1 POP DUP3 DUP2 MSTORE PUSH1 0x20 DUP2 ADD DUP5 DUP5 DUP5 ADD GT ISZERO PUSH2 0x4194 JUMPI PUSH2 0x4193 PUSH2 0x40AC JUMP JUMPDEST JUMPDEST PUSH2 0x419F DUP5 DUP3 DUP6 PUSH2 0x4158 JUMP JUMPDEST POP SWAP4 SWAP3 POP POP POP JUMP JUMPDEST PUSH0 DUP3 PUSH1 0x1F DUP4 ADD SLT PUSH2 0x41BB JUMPI PUSH2 0x41BA PUSH2 0x40A8 JUMP JUMPDEST JUMPDEST DUP2 CALLDATALOAD PUSH2 0x41CB DUP5 DUP3 PUSH1 0x20 DUP7 ADD PUSH2 0x4166 JUMP JUMPDEST SWAP2 POP POP SWAP3 SWAP2 POP POP JUMP JUMPDEST PUSH0 PUSH0 PUSH0 PUSH0 PUSH1 0x80 DUP6 DUP8 SUB SLT ISZERO PUSH2 0x41EC JUMPI PUSH2 0x41EB PUSH2 0x3E17 JUMP JUMPDEST JUMPDEST PUSH0 PUSH2 0x41F9 DUP8 DUP3 DUP9 ADD PUSH2 0x402E JUMP JUMPDEST SWAP5 POP POP PUSH1 0x20 PUSH2 0x420A DUP8 DUP3 DUP9 ADD PUSH2 0x402E JUMP JUMPDEST SWAP4 POP POP PUSH1 0x40 PUSH2 0x421B DUP8 DUP3 DUP9 ADD PUSH2 0x3F81 JUMP JUMPDEST SWAP3 POP POP PUSH1 0x60 DUP6 ADD CALLDATALOAD PUSH8 0xFFFFFFFFFFFFFFFF DUP2 GT ISZERO PUSH2 0x423C JUMPI PUSH2 0x423B PUSH2 0x3E1B JUMP JUMPDEST JUMPDEST PUSH2 0x4248 DUP8 DUP3 DUP9 ADD PUSH2 0x41A7 JUMP JUMPDEST SWAP2 POP POP SWAP3 SWAP6 SWAP2 SWAP5 POP SWAP3 POP JUMP JUMPDEST PUSH2 0x425D DUP2 PUSH2 0x3E1F JUMP JUMPDEST DUP3 MSTORE POP POP JUMP JUMPDEST PUSH0 PUSH1 0x20 DUP3 ADD SWAP1 POP PUSH2 0x4276 PUSH0 DUP4 ADD DUP5 PUSH2 0x4254 JUMP JUMPDEST SWAP3 SWAP2 POP POP JUMP JUMPDEST PUSH0 PUSH0 REVERT JUMPDEST PUSH0 PUSH0 REVERT JUMPDEST PUSH0 PUSH0 DUP4 PUSH1 0x1F DUP5 ADD SLT PUSH2 0x4299 JUMPI PUSH2 0x4298 PUSH2 0x40A8 JUMP JUMPDEST JUMPDEST DUP3 CALLDATALOAD SWAP1 POP PUSH8 0xFFFFFFFFFFFFFFFF DUP2 GT ISZERO PUSH2 0x42B6 JUMPI PUSH2 0x42B5 PUSH2 0x427C JUMP JUMPDEST JUMPDEST PUSH1 0x20 DUP4 ADD SWAP2 POP DUP4 PUSH1 0x1 DUP3 MUL DUP4 ADD GT ISZERO PUSH2 0x42D2 JUMPI PUSH2 0x42D1 PUSH2 0x4280 JUMP JUMPDEST JUMPDEST SWAP3 POP SWAP3 SWAP1 POP JUMP JUMPDEST PUSH0 PUSH0 PUSH0 PUSH1 0x40 DUP5 DUP7 SUB SLT ISZERO PUSH2 0x42F0 JUMPI PUSH2 0x42EF PUSH2 0x3E17 JUMP JUMPDEST JUMPDEST PUSH0 PUSH2 0x42FD DUP7 DUP3 DUP8 ADD PUSH2 0x3F81 JUMP JUMPDEST SWAP4 POP POP PUSH1 0x20 DUP5 ADD CALLDATALOAD PUSH8 0xFFFFFFFFFFFFFFFF DUP2 GT ISZERO PUSH2 0x431E JUMPI PUSH2 0x431D PUSH2 0x3E1B JUMP JUMPDEST JUMPDEST PUSH2 0x432A DUP7 DUP3 DUP8 ADD PUSH2 0x4284 JUMP JUMPDEST SWAP3 POP SWAP3 POP POP SWAP3 POP SWAP3 POP SWAP3 JUMP JUMPDEST PUSH0 PUSH0 PUSH0 PUSH1 0x60 DUP5 DUP7 SUB SLT ISZERO PUSH2 0x434D JUMPI PUSH2 0x434C PUSH2 0x3E17 JUMP JUMPDEST JUMPDEST PUSH0 PUSH2 0x435A DUP7 DUP3 DUP8 ADD PUSH2 0x402E JUMP JUMPDEST SWAP4 POP POP PUSH1 0x20 PUSH2 0x436B DUP7 DUP3 DUP8 ADD PUSH2 0x402E JUMP JUMPDEST SWAP3 POP POP PUSH1 0x40 PUSH2 0x437C DUP7 DUP3 DUP8 ADD PUSH2 0x3F81 JUMP JUMPDEST SWAP2 POP POP SWAP3 POP SWAP3 POP SWAP3 JUMP JUMPDEST PUSH0 DUP2 SWAP1 POP SWAP2 SWAP1 POP JUMP JUMPDEST PUSH2 0x4398 DUP2 PUSH2 0x4386 JUMP JUMPDEST DUP2 EQ PUSH2 0x43A2 JUMPI PUSH0 PUSH0 REVERT JUMPDEST POP JUMP JUMPDEST PUSH0 DUP2 CALLDATALOAD SWAP1 POP PUSH2 0x43B3 DUP2 PUSH2 0x438F JUMP JUMPDEST SWAP3 SWAP2 POP POP JUMP JUMPDEST PUSH0 PUSH1 0x20 DUP3 DUP5 SUB SLT ISZERO PUSH2 0x43CE JUMPI PUSH2 0x43CD PUSH2 0x3E17 JUMP JUMPDEST JUMPDEST PUSH0 PUSH2 0x43DB DUP5 DUP3 DUP6 ADD PUSH2 0x43A5 JUMP JUMPDEST SWAP2 POP POP SWAP3 SWAP2 POP POP JUMP JUMPDEST PUSH0 PUSH0 PUSH1 0x20 DUP4 DUP6 SUB SLT ISZERO PUSH2 0x43FA JUMPI PUSH2 0x43F9 PUSH2 0x3E17 JUMP JUMPDEST JUMPDEST PUSH0 DUP4 ADD CALLDATALOAD PUSH8 0xFFFFFFFFFFFFFFFF DUP2 GT ISZERO PUSH2 0x4417 JUMPI PUSH2 0x4416 PUSH2 0x3E1B JUMP JUMPDEST JUMPDEST PUSH2 0x4423 DUP6 DUP3 DUP7 ADD PUSH2 0x4284 JUMP JUMPDEST SWAP3 POP SWAP3 POP POP SWAP3 POP SWAP3 SWAP1 POP JUMP JUMPDEST PUSH0 PUSH8 0xFFFFFFFFFFFFFFFF DUP3 GT ISZERO PUSH2 0x4449 JUMPI PUSH2 0x4448 PUSH2 0x40B0 JUMP JUMPDEST JUMPDEST PUSH2 0x4452 DUP3 PUSH2 0x3EFA JUMP JUMPDEST SWAP1 POP PUSH1 0x20 DUP2 ADD SWAP1 POP SWAP2 SWAP1 POP JUMP JUMPDEST PUSH0 PUSH2 0x4471 PUSH2 0x446C DUP5 PUSH2 0x442F JUMP JUMPDEST PUSH2 0x410E JUMP JUMPDEST SWAP1 POP DUP3 DUP2 MSTORE PUSH1 0x20 DUP2 ADD DUP5 DUP5 DUP5 ADD GT ISZERO PUSH2 0x448D JUMPI PUSH2 0x448C PUSH2 0x40AC JUMP JUMPDEST JUMPDEST PUSH2 0x4498 DUP5 DUP3 DUP6 PUSH2 0x4158 JUMP JUMPDEST POP SWAP4 SWAP3 POP POP POP JUMP JUMPDEST PUSH0 DUP3 PUSH1 0x1F DUP4 ADD SLT PUSH2 0x44B4 JUMPI PUSH2 0x44B3 PUSH2 0x40A8 JUMP JUMPDEST JUMPDEST DUP2 CALLDATALOAD PUSH2 0x44C4 DUP5 DUP3 PUSH1 0x20 DUP7 ADD PUSH2 0x445F JUMP JUMPDEST SWAP2 POP POP SWAP3 SWAP2 POP POP JUMP JUMPDEST PUSH0 PUSH0 PUSH1 0x40 DUP4 DUP6 SUB SLT ISZERO PUSH2 0x44E3 JUMPI PUSH2 0x44E2 PUSH2 0x3E17 JUMP JUMPDEST JUMPDEST PUSH0 DUP4 ADD CALLDATALOAD PUSH8 0xFFFFFFFFFFFFFFFF DUP2 GT ISZERO PUSH2 0x4500 JUMPI PUSH2 0x44FF PUSH2 0x3E1B JUMP JUMPDEST JUMPDEST PUSH2 0x450C DUP6 DUP3 DUP7 ADD PUSH2 0x44A0 JUMP JUMPDEST SWAP3 POP POP PUSH1 0x20 DUP4 ADD CALLDATALOAD PUSH8 0xFFFFFFFFFFFFFFFF DUP2 GT ISZERO PUSH2 0x452D JUMPI PUSH2 0x452C PUSH2 0x3E1B JUMP JUMPDEST JUMPDEST PUSH2 0x4539 DUP6 DUP3 DUP7 ADD PUSH2 0x44A0 JUMP JUMPDEST SWAP2 POP POP SWAP3 POP SWAP3 SWAP1 POP JUMP JUMPDEST PUSH0 PUSH1 0x20 DUP3 DUP5 SUB SLT ISZERO PUSH2 0x4558 JUMPI PUSH2 0x4557 PUSH2 0x3E17 JUMP JUMPDEST JUMPDEST PUSH0 PUSH2 0x4565 DUP5 DUP3 DUP6 ADD PUSH2 0x402E JUMP JUMPDEST SWAP2 POP POP SWAP3 SWAP2 POP POP JUMP JUMPDEST PUSH2 0x4577 DUP2 PUSH2 0x3E9F JUMP JUMPDEST DUP2 EQ PUSH2 0x4581 JUMPI PUSH0 PUSH0 REVERT JUMPDEST POP JUMP JUMPDEST PUSH0 DUP2 CALLDATALOAD SWAP1 POP PUSH2 0x4592 DUP2 PUSH2 0x456E JUMP JUMPDEST SWAP3 SWAP2 POP POP JUMP JUMPDEST PUSH0 PUSH0 PUSH1 0x40 DUP4 DUP6 SUB SLT ISZERO PUSH2 0x45AE JUMPI PUSH2 0x45AD PUSH2 0x3E17 JUMP JUMPDEST JUMPDEST PUSH0 PUSH2 0x45BB DUP6 DUP3 DUP7 ADD PUSH2 0x402E JUMP JUMPDEST SWAP3 POP POP PUSH1 0x20 PUSH2 0x45CC DUP6 DUP3 DUP7 ADD PUSH2 0x4584 JUMP JUMPDEST SWAP2 POP POP SWAP3 POP SWAP3 SWAP1 POP JUMP JUMPDEST PUSH0 PUSH0 DUP4 PUSH1 0x1F DUP5 ADD SLT PUSH2 0x45EB JUMPI PUSH2 0x45EA PUSH2 0x40A8 JUMP JUMPDEST JUMPDEST DUP3 CALLDATALOAD SWAP1 POP PUSH8 0xFFFFFFFFFFFFFFFF DUP2 GT ISZERO PUSH2 0x4608 JUMPI PUSH2 0x4607 PUSH2 0x427C JUMP JUMPDEST JUMPDEST PUSH1 0x20 DUP4 ADD SWAP2 POP DUP4 PUSH1 0x20 DUP3 MUL DUP4 ADD GT ISZERO PUSH2 0x4624 JUMPI PUSH2 0x4623 PUSH2 0x4280 JUMP JUMPDEST JUMPDEST SWAP3 POP SWAP3 SWAP1 POP JUMP JUMPDEST PUSH0 PUSH0 PUSH0 PUSH1 0x40 DUP5 DUP7 SUB SLT ISZERO PUSH2 0x4642 JUMPI PUSH2 0x4641 PUSH2 0x3E17 JUMP JUMPDEST JUMPDEST PUSH0 PUSH2 0x464F DUP7 DUP3 DUP8 ADD PUSH2 0x402E JUMP JUMPDEST SWAP4 POP POP PUSH1 0x20 DUP5 ADD CALLDATALOAD PUSH8 0xFFFFFFFFFFFFFFFF DUP2 GT ISZERO PUSH2 0x4670 JUMPI PUSH2 0x466F PUSH2 0x3E1B JUMP JUMPDEST JUMPDEST PUSH2 0x467C DUP7 DUP3 DUP8 ADD PUSH2 0x45D6 JUMP JUMPDEST SWAP3 POP SWAP3 POP POP SWAP3 POP SWAP3 POP SWAP3 JUMP JUMPDEST PUSH0 PUSH0 PUSH1 0x40 DUP4 DUP6 SUB SLT ISZERO PUSH2 0x469E JUMPI PUSH2 0x469D PUSH2 0x3E17 JUMP JUMPDEST JUMPDEST PUSH0 PUSH2 0x46AB DUP6 DUP3 DUP7 ADD PUSH2 0x402E JUMP JUMPDEST SWAP3 POP POP PUSH1 0x20 PUSH2 0x46BC DUP6 DUP3 DUP7 ADD PUSH2 0x402E JUMP JUMPDEST SWAP2 POP POP SWAP3 POP SWAP3 SWAP1 POP JUMP JUMPDEST PUSH0 PUSH2 0x46D8 PUSH2 0x46D3 DUP5 PUSH2 0x442F JUMP JUMPDEST PUSH2 0x410E JUMP JUMPDEST SWAP1 POP DUP3 DUP2 MSTORE PUSH1 0x20 DUP2 ADD DUP5 DUP5 DUP5 ADD GT ISZERO PUSH2 0x46F4 JUMPI PUSH2 0x46F3 PUSH2 0x40AC JUMP JUMPDEST JUMPDEST PUSH2 0x46FF DUP5 DUP3 DUP6 PUSH2 0x3EEC JUMP JUMPDEST POP SWAP4 SWAP3 POP POP POP JUMP JUMPDEST PUSH0 DUP3 PUSH1 0x1F DUP4 ADD SLT PUSH2 0x471B JUMPI PUSH2 0x471A PUSH2 0x40A8 JUMP JUMPDEST JUMPDEST DUP2 MLOAD PUSH2 0x472B DUP5 DUP3 PUSH1 0x20 DUP7 ADD PUSH2 0x46C6 JUMP JUMPDEST SWAP2 POP POP SWAP3 SWAP2 POP POP JUMP JUMPDEST PUSH0 PUSH1 0x20 DUP3 DUP5 SUB SLT ISZERO PUSH2 0x4749 JUMPI PUSH2 0x4748 PUSH2 0x3E17 JUMP JUMPDEST JUMPDEST PUSH0 DUP3 ADD MLOAD PUSH8 0xFFFFFFFFFFFFFFFF DUP2 GT ISZERO PUSH2 0x4766 JUMPI PUSH2 0x4765 PUSH2 0x3E1B JUMP JUMPDEST JUMPDEST PUSH2 0x4772 DUP5 DUP3 DUP6 ADD PUSH2 0x4707 JUMP JUMPDEST SWAP2 POP POP SWAP3 SWAP2 POP POP JUMP JUMPDEST PUSH2 0x4784 DUP2 PUSH2 0x3F62 JUMP JUMPDEST DUP3 MSTORE POP POP JUMP JUMPDEST PUSH0 PUSH1 0x20 DUP3 ADD SWAP1 POP PUSH2 0x479D PUSH0 DUP4 ADD DUP5 PUSH2 0x477B JUMP JUMPDEST SWAP3 SWAP2 POP POP JUMP JUMPDEST PUSH0 PUSH0 REVERT JUMPDEST PUSH0 DUP2 MLOAD SWAP1 POP PUSH2 0x47B5 DUP2 PUSH2 0x4018 JUMP JUMPDEST SWAP3 SWAP2 POP POP JUMP JUMPDEST PUSH0 PUSH1 0x20 DUP3 DUP5 SUB SLT ISZERO PUSH2 0x47D0 JUMPI PUSH2 0x47CF PUSH2 0x47A3 JUMP JUMPDEST JUMPDEST PUSH2 0x47DA PUSH1 0x20 PUSH2 0x410E JUMP JUMPDEST SWAP1 POP PUSH0 PUSH2 0x47E9 DUP5 DUP3 DUP6 ADD PUSH2 0x47A7 JUMP JUMPDEST PUSH0 DUP4 ADD MSTORE POP SWAP3 SWAP2 POP POP JUMP JUMPDEST PUSH0 PUSH1 0x20 DUP3 DUP5 SUB SLT ISZERO PUSH2 0x4809 JUMPI PUSH2 0x4808 PUSH2 0x3E17 JUMP JUMPDEST JUMPDEST PUSH0 PUSH2 0x4816 DUP5 DUP3 DUP6 ADD PUSH2 0x47BB JUMP JUMPDEST SWAP2 POP POP SWAP3 SWAP2 POP POP JUMP JUMPDEST PUSH0 PUSH1 0x20 DUP3 DUP5 SUB SLT ISZERO PUSH2 0x4834 JUMPI PUSH2 0x4833 PUSH2 0x3E17 JUMP JUMPDEST JUMPDEST PUSH0 PUSH2 0x4841 DUP5 DUP3 DUP6 ADD PUSH2 0x47A7 JUMP JUMPDEST SWAP2 POP POP SWAP3 SWAP2 POP POP JUMP JUMPDEST PUSH32 0x596F7520617265206E6F7420616E206F776E6572000000000000000000000000 PUSH0 DUP3 ADD MSTORE POP JUMP JUMPDEST PUSH0 PUSH2 0x487E PUSH1 0x14 DUP4 PUSH2 0x3EDC JUMP JUMPDEST SWAP2 POP PUSH2 0x4889 DUP3 PUSH2 0x484A JUMP JUMPDEST PUSH1 0x20 DUP3 ADD SWAP1 POP SWAP2 SWAP1 POP JUMP JUMPDEST PUSH0 PUSH1 0x20 DUP3 ADD SWAP1 POP DUP2 DUP2 SUB PUSH0 DUP4 ADD MSTORE PUSH2 0x48AB DUP2 PUSH2 0x4872 JUMP JUMPDEST SWAP1 POP SWAP2 SWAP1 POP JUMP JUMPDEST PUSH0 DUP2 MLOAD SWAP1 POP PUSH2 0x48C0 DUP2 PUSH2 0x3F6B JUMP JUMPDEST SWAP3 SWAP2 POP POP JUMP JUMPDEST PUSH0 PUSH1 0x20 DUP3 DUP5 SUB SLT ISZERO PUSH2 0x48DB JUMPI PUSH2 0x48DA PUSH2 0x3E17 JUMP JUMPDEST JUMPDEST PUSH0 PUSH2 0x48E8 DUP5 DUP3 DUP6 ADD PUSH2 0x48B2 JUMP JUMPDEST SWAP2 POP POP SWAP3 SWAP2 POP POP JUMP JUMPDEST PUSH2 0x48FA DUP2 PUSH2 0x4386 JUMP JUMPDEST DUP3 MSTORE POP POP JUMP JUMPDEST PUSH0 PUSH1 0x20 DUP3 ADD SWAP1 POP PUSH2 0x4913 PUSH0 DUP4 ADD DUP5 PUSH2 0x48F1 JUMP JUMPDEST SWAP3 SWAP2 POP POP JUMP JUMPDEST PUSH0 DUP2 SWAP1 POP SWAP3 SWAP2 POP POP JUMP JUMPDEST POP JUMP JUMPDEST PUSH0 PUSH2 0x4931 PUSH0 DUP4 PUSH2 0x4919 JUMP JUMPDEST SWAP2 POP PUSH2 0x493C DUP3 PUSH2 0x4923 JUMP JUMPDEST PUSH0 DUP3 ADD SWAP1 POP SWAP2 SWAP1 POP JUMP JUMPDEST PUSH0 PUSH2 0x4950 DUP3 PUSH2 0x4926 JUMP JUMPDEST SWAP2 POP DUP2 SWAP1 POP SWAP2 SWAP1 POP JUMP JUMPDEST PUSH32 0x5472616E73666572206661696C65642E00000000000000000000000000000000 PUSH0 DUP3 ADD MSTORE POP JUMP JUMPDEST PUSH0 PUSH2 0x498E PUSH1 0x10 DUP4 PUSH2 0x3EDC JUMP JUMPDEST SWAP2 POP PUSH2 0x4999 DUP3 PUSH2 0x495A JUMP JUMPDEST PUSH1 0x20 DUP3 ADD SWAP1 POP SWAP2 SWAP1 POP JUMP JUMPDEST PUSH0 PUSH1 0x20 DUP3 ADD SWAP1 POP DUP2 DUP2 SUB PUSH0 DUP4 ADD MSTORE PUSH2 0x49BB DUP2 PUSH2 0x4982 JUMP JUMPDEST SWAP1 POP SWAP2 SWAP1 POP JUMP JUMPDEST PUSH2 0x49CB DUP2 PUSH2 0x3FDF JUMP JUMPDEST DUP3 MSTORE POP POP JUMP JUMPDEST PUSH0 PUSH1 0x40 DUP3 ADD SWAP1 POP PUSH2 0x49E4 PUSH0 DUP4 ADD DUP6 PUSH2 0x49C2 JUMP JUMPDEST PUSH2 0x49F1 PUSH1 0x20 DUP4 ADD DUP5 PUSH2 0x477B JUMP JUMPDEST SWAP4 SWAP3 POP POP POP JUMP JUMPDEST PUSH0 DUP3 DUP3 MSTORE PUSH1 0x20 DUP3 ADD SWAP1 POP SWAP3 SWAP2 POP POP JUMP JUMPDEST PUSH0 PUSH2 0x4A13 DUP4 DUP6 PUSH2 0x49F8 JUMP JUMPDEST SWAP4 POP PUSH2 0x4A20 DUP4 DUP6 DUP5 PUSH2 0x4158 JUMP JUMPDEST PUSH2 0x4A29 DUP4 PUSH2 0x3EFA JUMP JUMPDEST DUP5 ADD SWAP1 POP SWAP4 SWAP3 POP POP POP JUMP JUMPDEST PUSH0 PUSH1 0x20 DUP3 ADD SWAP1 POP DUP2 DUP2 SUB PUSH0 DUP4 ADD MSTORE PUSH2 0x4A4D DUP2 DUP5 DUP7 PUSH2 0x4A08 JUMP JUMPDEST SWAP1 POP SWAP4 SWAP3 POP POP POP JUMP JUMPDEST PUSH0 PUSH1 0x20 DUP3 ADD SWAP1 POP PUSH2 0x4A69 PUSH0 DUP4 ADD DUP5 PUSH2 0x49C2 JUMP JUMPDEST SWAP3 SWAP2 POP POP JUMP JUMPDEST PUSH2 0x4A78 DUP2 PUSH2 0x3E9F JUMP JUMPDEST DUP3 MSTORE POP POP JUMP JUMPDEST PUSH0 PUSH1 0x60 DUP3 ADD SWAP1 POP PUSH2 0x4A91 PUSH0 DUP4 ADD DUP7 PUSH2 0x49C2 JUMP JUMPDEST PUSH2 0x4A9E PUSH1 0x20 DUP4 ADD DUP6 PUSH2 0x49C2 JUMP JUMPDEST PUSH2 0x4AAB PUSH1 0x40 DUP4 ADD DUP5 PUSH2 0x4A6F JUMP JUMPDEST SWAP5 SWAP4 POP POP POP POP JUMP JUMPDEST PUSH32 0x45786365656420616C6C6F630000000000000000000000000000000000000000 PUSH0 DUP3 ADD MSTORE POP JUMP JUMPDEST PUSH0 PUSH2 0x4AE7 PUSH1 0xC DUP4 PUSH2 0x3EDC JUMP JUMPDEST SWAP2 POP PUSH2 0x4AF2 DUP3 PUSH2 0x4AB3 JUMP JUMPDEST PUSH1 0x20 DUP3 ADD SWAP1 POP SWAP2 SWAP1 POP JUMP JUMPDEST PUSH0 PUSH1 0x20 DUP3 ADD SWAP1 POP DUP2 DUP2 SUB PUSH0 DUP4 ADD MSTORE PUSH2 0x4B14 DUP2 PUSH2 0x4ADB JUMP JUMPDEST SWAP1 POP SWAP2 SWAP1 POP JUMP JUMPDEST PUSH0 DUP2 MLOAD SWAP1 POP PUSH2 0x4B29 DUP2 PUSH2 0x456E JUMP JUMPDEST SWAP3 SWAP2 POP POP JUMP JUMPDEST PUSH0 PUSH1 0x20 DUP3 DUP5 SUB SLT ISZERO PUSH2 0x4B44 JUMPI PUSH2 0x4B43 PUSH2 0x3E17 JUMP JUMPDEST JUMPDEST PUSH0 PUSH2 0x4B51 DUP5 DUP3 DUP6 ADD PUSH2 0x4B1B JUMP JUMPDEST SWAP2 POP POP SWAP3 SWAP2 POP POP JUMP JUMPDEST PUSH32 0x416C7265616479206D696E746564000000000000000000000000000000000000 PUSH0 DUP3 ADD MSTORE POP JUMP JUMPDEST PUSH0 PUSH2 0x4B8E PUSH1 0xE DUP4 PUSH2 0x3EDC JUMP JUMPDEST SWAP2 POP PUSH2 0x4B99 DUP3 PUSH2 0x4B5A JUMP JUMPDEST PUSH1 0x20 DUP3 ADD SWAP1 POP SWAP2 SWAP1 POP JUMP JUMPDEST PUSH0 PUSH1 0x20 DUP3 ADD SWAP1 POP DUP2 DUP2 SUB PUSH0 DUP4 ADD MSTORE PUSH2 0x4BBB DUP2 PUSH2 0x4B82 JUMP JUMPDEST SWAP1 POP SWAP2 SWAP1 POP JUMP JUMPDEST PUSH32 0x4E6F74206D617463682070726963650000000000000000000000000000000000 PUSH0 DUP3 ADD MSTORE POP JUMP JUMPDEST PUSH0 PUSH2 0x4BF6 PUSH1 0xF DUP4 PUSH2 0x3EDC JUMP JUMPDEST SWAP2 POP PUSH2 0x4C01 DUP3 PUSH2 0x4BC2 JUMP JUMPDEST PUSH1 0x20 DUP3 ADD SWAP1 POP SWAP2 SWAP1 POP JUMP JUMPDEST PUSH0 PUSH1 0x20 DUP3 ADD SWAP1 POP DUP2 DUP2 SUB PUSH0 DUP4 ADD MSTORE PUSH2 0x4C23 DUP2 PUSH2 0x4BEA JUMP JUMPDEST SWAP1 POP SWAP2 SWAP1 POP JUMP JUMPDEST PUSH0 DUP2 PUSH1 0x60 SHL SWAP1 POP SWAP2 SWAP1 POP JUMP JUMPDEST PUSH0 PUSH2 0x4C40 DUP3 PUSH2 0x4C2A JUMP JUMPDEST SWAP1 POP SWAP2 SWAP1 POP JUMP JUMPDEST PUSH0 PUSH2 0x4C51 DUP3 PUSH2 0x4C36 JUMP JUMPDEST SWAP1 POP SWAP2 SWAP1 POP JUMP JUMPDEST PUSH2 0x4C69 PUSH2 0x4C64 DUP3 PUSH2 0x3FDF JUMP JUMPDEST PUSH2 0x4C47 JUMP JUMPDEST DUP3 MSTORE POP POP JUMP JUMPDEST PUSH0 PUSH2 0x4C7A DUP3 DUP5 PUSH2 0x4C58 JUMP JUMPDEST PUSH1 0x14 DUP3 ADD SWAP2 POP DUP2 SWAP1 POP SWAP3 SWAP2 POP POP JUMP JUMPDEST PUSH0 DUP2 MLOAD SWAP1 POP PUSH2 0x4C97 DUP2 PUSH2 0x438F JUMP JUMPDEST SWAP3 SWAP2 POP POP JUMP JUMPDEST PUSH0 PUSH1 0x20 DUP3 DUP5 SUB SLT ISZERO PUSH2 0x4CB2 JUMPI PUSH2 0x4CB1 PUSH2 0x3E17 JUMP JUMPDEST JUMPDEST PUSH0 PUSH2 0x4CBF DUP5 DUP3 DUP6 ADD PUSH2 0x4C89 JUMP JUMPDEST SWAP2 POP POP SWAP3 SWAP2 POP POP JUMP JUMPDEST PUSH32 0x4E6F7420696E206D65726B6C6500000000000000000000000000000000000000 PUSH0 DUP3 ADD MSTORE POP JUMP JUMPDEST PUSH0 PUSH2 0x4CFC PUSH1 0xD DUP4 PUSH2 0x3EDC JUMP JUMPDEST SWAP2 POP PUSH2 0x4D07 DUP3 PUSH2 0x4CC8 JUMP JUMPDEST PUSH1 0x20 DUP3 ADD SWAP1 POP SWAP2 SWAP1 POP JUMP JUMPDEST PUSH0 PUSH1 0x20 DUP3 ADD SWAP1 POP DUP2 DUP2 SUB PUSH0 DUP4 ADD MSTORE PUSH2 0x4D29 DUP2 PUSH2 0x4CF0 JUMP JUMPDEST SWAP1 POP SWAP2 SWAP1 POP JUMP JUMPDEST PUSH0 PUSH1 0x40 DUP3 ADD SWAP1 POP PUSH2 0x4D43 PUSH0 DUP4 ADD DUP6 PUSH2 0x49C2 JUMP JUMPDEST PUSH2 0x4D50 PUSH1 0x20 DUP4 ADD DUP5 PUSH2 0x4A6F JUMP JUMPDEST SWAP4 SWAP3 POP POP POP JUMP JUMPDEST PUSH0 DUP2 SWAP1 POP SWAP3 SWAP2 POP POP JUMP JUMPDEST PUSH0 PUSH2 0x4D6B DUP3 PUSH2 0x3ED2 JUMP JUMPDEST PUSH2 0x4D75 DUP2 DUP6 PUSH2 0x4D57 JUMP JUMPDEST SWAP4 POP PUSH2 0x4D85 DUP2 DUP6 PUSH1 0x20 DUP7 ADD PUSH2 0x3EEC JUMP JUMPDEST DUP1 DUP5 ADD SWAP2 POP POP SWAP3 SWAP2 POP POP JUMP JUMPDEST PUSH0 PUSH2 0x4D9C DUP3 DUP6 PUSH2 0x4D61 JUMP JUMPDEST SWAP2 POP PUSH2 0x4DA8 DUP3 DUP5 PUSH2 0x4D61 JUMP JUMPDEST SWAP2 POP DUP2 SWAP1 POP SWAP4 SWAP3 POP POP POP JUMP JUMPDEST PUSH0 PUSH1 0x40 DUP3 ADD SWAP1 POP PUSH2 0x4DC7 PUSH0 DUP4 ADD DUP6 PUSH2 0x49C2 JUMP JUMPDEST PUSH2 0x4DD4 PUSH1 0x20 DUP4 ADD DUP5 PUSH2 0x49C2 JUMP JUMPDEST SWAP4 SWAP3 POP POP POP JUMP JUMPDEST PUSH32 0x4E487B7100000000000000000000000000000000000000000000000000000000 PUSH0 MSTORE PUSH1 0x11 PUSH1 0x4 MSTORE PUSH1 0x24 PUSH0 REVERT JUMPDEST PUSH0 PUSH2 0x4E12 DUP3 PUSH2 0x3F62 JUMP JUMPDEST SWAP2 POP PUSH0 DUP3 SUB PUSH2 0x4E24 JUMPI PUSH2 0x4E23 PUSH2 0x4DDB JUMP JUMPDEST JUMPDEST PUSH1 0x1 DUP3 SUB SWAP1 POP SWAP2 SWAP1 POP JUMP JUMPDEST PUSH0 PUSH1 0x40 DUP3 ADD SWAP1 POP PUSH2 0x4E42 PUSH0 DUP4 ADD DUP6 PUSH2 0x477B JUMP JUMPDEST PUSH2 0x4E4F PUSH1 0x20 DUP4 ADD DUP5 PUSH2 0x49C2 JUMP JUMPDEST SWAP4 SWAP3 POP POP POP JUMP JUMPDEST PUSH0 PUSH2 0x4E60 DUP3 PUSH2 0x3ED2 JUMP JUMPDEST PUSH2 0x4E6A DUP2 DUP6 PUSH2 0x49F8 JUMP JUMPDEST SWAP4 POP PUSH2 0x4E7A DUP2 DUP6 PUSH1 0x20 DUP7 ADD PUSH2 0x3EEC JUMP JUMPDEST PUSH2 0x4E83 DUP2 PUSH2 0x3EFA JUMP JUMPDEST DUP5 ADD SWAP2 POP POP SWAP3 SWAP2 POP POP JUMP JUMPDEST PUSH0 PUSH1 0x40 DUP3 ADD SWAP1 POP DUP2 DUP2 SUB PUSH0 DUP4 ADD MSTORE PUSH2 0x4EA6 DUP2 DUP6 PUSH2 0x4E56 JUMP JUMPDEST SWAP1 POP PUSH2 0x4EB5 PUSH1 0x20 DUP4 ADD DUP5 PUSH2 0x477B JUMP JUMPDEST SWAP4 SWAP3 POP POP POP JUMP JUMPDEST PUSH0 PUSH1 0x40 DUP3 ADD SWAP1 POP PUSH2 0x4ECF PUSH0 DUP4 ADD DUP6 PUSH2 0x477B JUMP JUMPDEST PUSH2 0x4EDC PUSH1 0x20 DUP4 ADD DUP5 PUSH2 0x477B JUMP JUMPDEST SWAP4 SWAP3 POP POP POP JUMP JUMPDEST PUSH32 0x5265656E7472616E637947756172643A207265656E7472616E742063616C6C00 PUSH0 DUP3 ADD MSTORE POP JUMP JUMPDEST PUSH0 PUSH2 0x4F17 PUSH1 0x1F DUP4 PUSH2 0x3EDC JUMP JUMPDEST SWAP2 POP PUSH2 0x4F22 DUP3 PUSH2 0x4EE3 JUMP JUMPDEST PUSH1 0x20 DUP3 ADD SWAP1 POP SWAP2 SWAP1 POP JUMP JUMPDEST PUSH0 PUSH1 0x20 DUP3 ADD SWAP1 POP DUP2 DUP2 SUB PUSH0 DUP4 ADD MSTORE PUSH2 0x4F44 DUP2 PUSH2 0x4F0B JUMP JUMPDEST SWAP1 POP SWAP2 SWAP1 POP JUMP JUMPDEST PUSH32 0x68747470733A2F2F697066732E737765622E72752F697066732F516D62704E39 PUSH0 DUP3 ADD MSTORE PUSH32 0x716578677A6E6B705445516D7264786E53665759434441624C6B42786D357641 PUSH1 0x20 DUP3 ADD MSTORE PUSH32 0x4337316A7A52786F2F0000000000000000000000000000000000000000000000 PUSH1 0x40 DUP3 ADD MSTORE POP JUMP JUMPDEST PUSH0 PUSH2 0x4FCB PUSH1 0x49 DUP4 PUSH2 0x49F8 JUMP JUMPDEST SWAP2 POP PUSH2 0x4FD6 DUP3 PUSH2 0x4F4B JUMP JUMPDEST PUSH1 0x60 DUP3 ADD SWAP1 POP SWAP2 SWAP1 POP JUMP JUMPDEST PUSH0 PUSH1 0x20 DUP3 ADD SWAP1 POP DUP2 DUP2 SUB PUSH0 DUP4 ADD MSTORE PUSH2 0x4FF8 DUP2 PUSH2 0x4FBF JUMP JUMPDEST SWAP1 POP SWAP2 SWAP1 POP JUMP JUMPDEST PUSH32 0x68747470733A2F2F697066732E737765622E72752F697066732F516D59526253 PUSH0 DUP3 ADD MSTORE PUSH32 0x4D3251617A47623551486F676F64714A666F505661536962333274745570764E PUSH1 0x20 DUP3 ADD MSTORE PUSH32 0x6B794A4B666858552F3F66696C656E616D653D736D65616D622E6A736F6E0000 PUSH1 0x40 DUP3 ADD MSTORE POP JUMP JUMPDEST PUSH0 PUSH2 0x507F PUSH1 0x5E DUP4 PUSH2 0x49F8 JUMP JUMPDEST SWAP2 POP PUSH2 0x508A DUP3 PUSH2 0x4FFF JUMP JUMPDEST PUSH1 0x60 DUP3 ADD SWAP1 POP SWAP2 SWAP1 POP JUMP JUMPDEST PUSH0 PUSH1 0x20 DUP3 ADD SWAP1 POP DUP2 DUP2 SUB PUSH0 DUP4 ADD MSTORE PUSH2 0x50AC DUP2 PUSH2 0x5073 JUMP JUMPDEST SWAP1 POP SWAP2 SWAP1 POP JUMP JUMPDEST PUSH0 DUP2 SWAP1 POP SWAP2 SWAP1 POP JUMP JUMPDEST PUSH0 DUP2 PUSH0 SHL SWAP1 POP SWAP2 SWAP1 POP JUMP JUMPDEST PUSH0 PUSH2 0x50E1 PUSH2 0x50DC PUSH2 0x50D7 DUP5 PUSH2 0x50B3 JUMP JUMPDEST PUSH2 0x50BC JUMP JUMPDEST PUSH2 0x4386 JUMP JUMPDEST SWAP1 POP SWAP2 SWAP1 POP JUMP JUMPDEST PUSH2 0x50F1 DUP2 PUSH2 0x50C7 JUMP JUMPDEST DUP3 MSTORE POP POP JUMP JUMPDEST PUSH0 PUSH1 0x20 DUP3 ADD SWAP1 POP PUSH2 0x510A PUSH0 DUP4 ADD DUP5 PUSH2 0x50E8 JUMP JUMPDEST SWAP3 SWAP2 POP POP JUMP JUMPDEST PUSH0 DUP2 SWAP1 POP SWAP2 SWAP1 POP JUMP JUMPDEST PUSH0 DUP2 SWAP1 POP SWAP2 SWAP1 POP JUMP JUMPDEST PUSH0 PUSH2 0x513C PUSH2 0x5137 PUSH2 0x5132 DUP5 PUSH2 0x5110 JUMP JUMPDEST PUSH2 0x5119 JUMP JUMPDEST PUSH2 0x3F62 JUMP JUMPDEST SWAP1 POP SWAP2 SWAP1 POP JUMP JUMPDEST PUSH2 0x514C DUP2 PUSH2 0x5122 JUMP JUMPDEST DUP3 MSTORE POP POP JUMP JUMPDEST PUSH0 PUSH1 0x20 DUP3 ADD SWAP1 POP PUSH2 0x5165 PUSH0 DUP4 ADD DUP5 PUSH2 0x5143 JUMP JUMPDEST SWAP3 SWAP2 POP POP JUMP JUMPDEST PUSH0 PUSH1 0x20 DUP3 ADD SWAP1 POP DUP2 DUP2 SUB PUSH0 DUP4 ADD MSTORE PUSH2 0x5183 DUP2 DUP5 PUSH2 0x4E56 JUMP JUMPDEST SWAP1 POP SWAP3 SWAP2 POP POP JUMP JUMPDEST PUSH0 DUP2 SWAP1 POP SWAP2 SWAP1 POP JUMP JUMPDEST PUSH0 PUSH2 0x51AE PUSH2 0x51A9 PUSH2 0x51A4 DUP5 PUSH2 0x518B JUMP JUMPDEST PUSH2 0x5119 JUMP JUMPDEST PUSH2 0x3F62 JUMP JUMPDEST SWAP1 POP SWAP2 SWAP1 POP JUMP JUMPDEST PUSH2 0x51BE DUP2 PUSH2 0x5194 JUMP JUMPDEST DUP3 MSTORE POP POP JUMP JUMPDEST PUSH0 PUSH1 0x20 DUP3 ADD SWAP1 POP PUSH2 0x51D7 PUSH0 DUP4 ADD DUP5 PUSH2 0x51B5 JUMP JUMPDEST SWAP3 SWAP2 POP POP JUMP JUMPDEST PUSH32 0x4552433732314D657461646174613A2055524920717565727920666F72206E6F PUSH0 DUP3 ADD MSTORE PUSH32 0x6E6578697374656E7420746F6B656E0000000000000000000000000000000000 PUSH1 0x20 DUP3 ADD MSTORE POP JUMP JUMPDEST PUSH0 PUSH2 0x5237 PUSH1 0x2F DUP4 PUSH2 0x3EDC JUMP JUMPDEST SWAP2 POP PUSH2 0x5242 DUP3 PUSH2 0x51DD JUMP JUMPDEST PUSH1 0x40 DUP3 ADD SWAP1 POP SWAP2 SWAP1 POP JUMP JUMPDEST PUSH0 PUSH1 0x20 DUP3 ADD SWAP1 POP DUP2 DUP2 SUB PUSH0 DUP4 ADD MSTORE PUSH2 0x5264 DUP2 PUSH2 0x522B JUMP JUMPDEST SWAP1 POP SWAP2 SWAP1 POP JUMP JUMPDEST PUSH32 0x2E6A736F6E000000000000000000000000000000000000000000000000000000 PUSH0 DUP3 ADD MSTORE POP JUMP JUMPDEST PUSH0 PUSH2 0x529F PUSH1 0x5 DUP4 PUSH2 0x4D57 JUMP JUMPDEST SWAP2 POP PUSH2 0x52AA DUP3 PUSH2 0x526B JUMP JUMPDEST PUSH1 0x5 DUP3 ADD SWAP1 POP SWAP2 SWAP1 POP JUMP JUMPDEST PUSH0 PUSH2 0x52C0 DUP3 DUP6 PUSH2 0x4D61 JUMP JUMPDEST SWAP2 POP PUSH2 0x52CC DUP3 DUP5 PUSH2 0x4D61 JUMP JUMPDEST SWAP2 POP PUSH2 0x52D7 DUP3 PUSH2 0x5293 JUMP JUMPDEST SWAP2 POP DUP2 SWAP1 POP SWAP4 SWAP3 POP POP POP JUMP JUMPDEST PUSH0 DUP2 MLOAD SWAP1 POP SWAP2 SWAP1 POP JUMP JUMPDEST PUSH0 DUP3 DUP3 MSTORE PUSH1 0x20 DUP3 ADD SWAP1 POP SWAP3 SWAP2 POP POP JUMP JUMPDEST PUSH0 PUSH2 0x5307 DUP3 PUSH2 0x52E3 JUMP JUMPDEST PUSH2 0x5311 DUP2 DUP6 PUSH2 0x52ED JUMP JUMPDEST SWAP4 POP PUSH2 0x5321 DUP2 DUP6 PUSH1 0x20 DUP7 ADD PUSH2 0x3EEC JUMP JUMPDEST PUSH2 0x532A DUP2 PUSH2 0x3EFA JUMP JUMPDEST DUP5 ADD SWAP2 POP POP SWAP3 SWAP2 POP POP JUMP JUMPDEST PUSH0 PUSH1 0x80 DUP3 ADD SWAP1 POP PUSH2 0x5348 PUSH0 DUP4 ADD DUP8 PUSH2 0x3FF0 JUMP JUMPDEST PUSH2 0x5355 PUSH1 0x20 DUP4 ADD DUP7 PUSH2 0x3FF0 JUMP JUMPDEST PUSH2 0x5362 PUSH1 0x40 DUP4 ADD DUP6 PUSH2 0x4080 JUMP JUMPDEST DUP2 DUP2 SUB PUSH1 0x60 DUP4 ADD MSTORE PUSH2 0x5374 DUP2 DUP5 PUSH2 0x52FD JUMP JUMPDEST SWAP1 POP SWAP6 SWAP5 POP POP POP POP POP JUMP JUMPDEST PUSH0 DUP2 MLOAD SWAP1 POP PUSH2 0x538D DUP2 PUSH2 0x3E4A JUMP JUMPDEST SWAP3 SWAP2 POP POP JUMP JUMPDEST PUSH0 PUSH1 0x20 DUP3 DUP5 SUB SLT ISZERO PUSH2 0x53A8 JUMPI PUSH2 0x53A7 PUSH2 0x3E17 JUMP JUMPDEST JUMPDEST PUSH0 PUSH2 0x53B5 DUP5 DUP3 DUP6 ADD PUSH2 0x537F JUMP JUMPDEST SWAP2 POP POP SWAP3 SWAP2 POP POP JUMP JUMPDEST PUSH0 PUSH1 0x60 DUP3 ADD SWAP1 POP PUSH2 0x53D1 PUSH0 DUP4 ADD DUP7 PUSH2 0x49C2 JUMP JUMPDEST PUSH2 0x53DE PUSH1 0x20 DUP4 ADD DUP6 PUSH2 0x477B JUMP JUMPDEST PUSH2 0x53EB PUSH1 0x40 DUP4 ADD DUP5 PUSH2 0x477B JUMP JUMPDEST SWAP5 SWAP4 POP POP POP POP JUMP JUMPDEST PUSH0 PUSH2 0x53FD DUP3 PUSH2 0x3F62 JUMP JUMPDEST SWAP2 POP PUSH2 0x5408 DUP4 PUSH2 0x3F62 JUMP JUMPDEST SWAP3 POP DUP3 DUP3 SUB SWAP1 POP DUP2 DUP2 GT ISZERO PUSH2 0x5420 JUMPI PUSH2 0x541F PUSH2 0x4DDB JUMP JUMPDEST JUMPDEST SWAP3 SWAP2 POP POP JUMP JUMPDEST PUSH32 0x4E487B7100000000000000000000000000000000000000000000000000000000 PUSH0 MSTORE PUSH1 0x32 PUSH1 0x4 MSTORE PUSH1 0x24 PUSH0 REVERT JUMPDEST PUSH32 0x4E487B7100000000000000000000000000000000000000000000000000000000 PUSH0 MSTORE PUSH1 0x12 PUSH1 0x4 MSTORE PUSH1 0x24 PUSH0 REVERT INVALID LOG2 PUSH5 0x6970667358 0x22 SLT KECCAK256 CALLDATALOAD PUSH10 0x5BA9F773275B8180D146 0xBE 0xEF OR 0xA9 0xB4 PUSH12 0x7F225955C8290BF26C436978 0xC5 0xDE PUSH5 0x736F6C6343 STOP ADDMOD 0x1E STOP CALLER "
		},
		"gasEstimates": {
			"creation": {
				"codeDepositCost": "4337200",
				"executionCost": "infinite",
				"totalCost": "infinite"
			},
			"external": {
				"MAX_SUPPLY_EPIC()": "414",
				"MAX_SUPPLY_GENESIS()": "371",
				"MAX_SUPPLY_LEGEND()": "414",
				"MODULE_NAME()": "infinite",
				"MODULE_VERSION()": "infinite",
				"approve(address,uint256)": "infinite",
				"balanceOf(address)": "infinite",
				"balanceOfId(address,uint256)": "infinite",
				"baseURI()": "infinite",
				"exists(uint256)": "infinite",
				"fee()": "infinite",
				"genesisMint(address,bytes32[])": "infinite",
				"getApproved(uint256)": "infinite",
				"init(string,string)": "infinite",
				"isApprovedForAll(address,address)": "infinite",
				"name()": "infinite",
				"nextTokenId()": "infinite",
				"onERC721Received(address,address,uint256,bytes)": "infinite",
				"ownerOf(uint256)": "infinite",
				"safeTransferFrom(address,address,uint256)": "infinite",
				"safeTransferFrom(address,address,uint256,bytes)": "infinite",
				"setApprovalForAll(address,bool)": "infinite",
				"setBaseURI(string)": "infinite",
				"setDefaultTokenURI(string)": "infinite",
				"setEpiclistRoot(bytes32)": "infinite",
				"setFee(uint256)": "infinite",
				"setGenesislistRoot(bytes32)": "infinite",
				"setLegendlistRoot(bytes32)": "infinite",
				"setTokenURI(uint256,string)": "infinite",
				"supportsInterface(bytes4)": "759",
				"symbol()": "infinite",
				"tokenURI(uint256)": "infinite",
				"totalSupply()": "infinite",
				"transferFrom(address,address,uint256)": "infinite",
				"withdraw()": "infinite"
			},
			"internal": {
				"_addTokenToAllTokensEnumeration(uint256)": "infinite",
				"_addTokenToOwnerEnumeration(address,uint256)": "infinite",
				"_init(string memory,string memory)": "infinite",
				"_removeTokenFromAllTokensEnumeration(uint256)": "infinite",
				"_removeTokenFromOwnerEnumeration(address,uint256)": "infinite",
				"_setTokenURI(uint256,string memory)": "infinite",
				"_startTokenId()": "22",
				"_tokenURI(uint256)": "infinite",
				"_updateOwner(address,address,uint256)": "infinite"
			}
		},
		"methodIdentifiers": {
			"MAX_SUPPLY_EPIC()": "90507c78",
			"MAX_SUPPLY_GENESIS()": "0c142a43",
			"MAX_SUPPLY_LEGEND()": "ad5b1662",
			"MODULE_NAME()": "9b865b43",
			"MODULE_VERSION()": "81ed9808",
			"approve(address,uint256)": "095ea7b3",
			"balanceOf(address)": "70a08231",
			"balanceOfId(address,uint256)": "4bca8aa3",
			"baseURI()": "6c0360eb",
			"exists(uint256)": "4f558e79",
			"fee()": "ddca3f43",
			"genesisMint(address,bytes32[])": "b31b2e13",
			"getApproved(uint256)": "081812fc",
			"init(string,string)": "7029144c",
			"isApprovedForAll(address,address)": "e985e9c5",
			"name()": "06fdde03",
			"nextTokenId()": "75794a3c",
			"onERC721Received(address,address,uint256,bytes)": "150b7a02",
			"ownerOf(uint256)": "6352211e",
			"safeTransferFrom(address,address,uint256)": "42842e0e",
			"safeTransferFrom(address,address,uint256,bytes)": "b88d4fde",
			"setApprovalForAll(address,bool)": "a22cb465",
			"setBaseURI(string)": "55f804b3",
			"setDefaultTokenURI(string)": "a125c824",
			"setEpiclistRoot(bytes32)": "49e0f980",
			"setFee(uint256)": "69fe0e2d",
			"setGenesislistRoot(bytes32)": "3bb04b1f",
			"setLegendlistRoot(bytes32)": "dfbf2e67",
			"setTokenURI(uint256,string)": "162094c4",
			"supportsInterface(bytes4)": "01ffc9a7",
			"symbol()": "95d89b41",
			"tokenURI(uint256)": "c87b56dd",
			"totalSupply()": "18160ddd",
			"transferFrom(address,address,uint256)": "23b872dd",
			"withdraw()": "3ccfd60b"
		}
	},
	"abi": [
		{
			"inputs": [
				{
					"internalType": "string",
					"name": "name",
					"type": "string"
				},
				{
					"internalType": "string",
					"name": "symbol",
					"type": "string"
				}
			],
			"stateMutability": "nonpayable",
			"type": "constructor"
		},
		{
			"inputs": [],
			"name": "ApprovalCallerNotOwnerNorApproved",
			"type": "error"
		},
		{
			"inputs": [],
			"name": "ApprovalQueryForNonexistentToken",
			"type": "error"
		},
		{
			"inputs": [],
			"name": "BalanceQueryForZeroAddress",
			"type": "error"
		},
		{
			"inputs": [],
			"name": "MintERC2309QuantityExceedsLimit",
			"type": "error"
		},
		{
			"inputs": [],
			"name": "MintToZeroAddress",
			"type": "error"
		},
		{
			"inputs": [],
			"name": "MintZeroQuantity",
			"type": "error"
		},
		{
			"inputs": [],
			"name": "NotCompatibleWithSpotMints",
			"type": "error"
		},
		{
			"inputs": [],
			"name": "OwnerQueryForNonexistentToken",
			"type": "error"
		},
		{
			"inputs": [],
			"name": "OwnershipNotInitializedForExtraData",
			"type": "error"
		},
		{
			"inputs": [],
			"name": "SequentialMintExceedsLimit",
			"type": "error"
		},
		{
			"inputs": [],
			"name": "SequentialUpToTooSmall",
			"type": "error"
		},
		{
			"inputs": [],
			"name": "SpotMintTokenIdTooSmall",
			"type": "error"
		},
		{
			"inputs": [],
			"name": "TokenAlreadyExists",
			"type": "error"
		},
		{
			"inputs": [],
			"name": "TransferCallerNotOwnerNorApproved",
			"type": "error"
		},
		{
			"inputs": [],
			"name": "TransferFromIncorrectOwner",
			"type": "error"
		},
		{
			"inputs": [],
			"name": "TransferToNonERC721ReceiverImplementer",
			"type": "error"
		},
		{
			"inputs": [],
			"name": "TransferToZeroAddress",
			"type": "error"
		},
		{
			"inputs": [],
			"name": "URIQueryForNonexistentToken",
			"type": "error"
		},
		{
			"anonymous": false,
			"inputs": [
				{
					"indexed": true,
					"internalType": "address",
					"name": "owner",
					"type": "address"
				},
				{
					"indexed": true,
					"internalType": "address",
					"name": "approved",
					"type": "address"
				},
				{
					"indexed": true,
					"internalType": "uint256",
					"name": "tokenId",
					"type": "uint256"
				}
			],
			"name": "Approval",
			"type": "event"
		},
		{
			"anonymous": false,
			"inputs": [
				{
					"indexed": true,
					"internalType": "address",
					"name": "owner",
					"type": "address"
				},
				{
					"indexed": true,
					"internalType": "address",
					"name": "operator",
					"type": "address"
				},
				{
					"indexed": false,
					"internalType": "bool",
					"name": "approved",
					"type": "bool"
				}
			],
			"name": "ApprovalForAll",
			"type": "event"
		},
		{
			"anonymous": false,
			"inputs": [
				{
					"indexed": true,
					"internalType": "uint256",
					"name": "fromTokenId",
					"type": "uint256"
				},
				{
					"indexed": false,
					"internalType": "uint256",
					"name": "toTokenId",
					"type": "uint256"
				},
				{
					"indexed": true,
					"internalType": "address",
					"name": "from",
					"type": "address"
				},
				{
					"indexed": true,
					"internalType": "address",
					"name": "to",
					"type": "address"
				}
			],
			"name": "ConsecutiveTransfer",
			"type": "event"
		},
		{
			"anonymous": false,
			"inputs": [
				{
					"indexed": false,
					"internalType": "uint256",
					"name": "_tokenId",
					"type": "uint256"
				}
			],
			"name": "MetadataUpdate",
			"type": "event"
		},
		{
			"anonymous": false,
			"inputs": [
				{
					"indexed": true,
					"internalType": "address",
					"name": "from",
					"type": "address"
				},
				{
					"indexed": true,
					"internalType": "address",
					"name": "to",
					"type": "address"
				},
				{
					"indexed": true,
					"internalType": "uint256",
					"name": "tokenId",
					"type": "uint256"
				}
			],
			"name": "Transfer",
			"type": "event"
		},
		{
			"inputs": [],
			"name": "MAX_SUPPLY_EPIC",
			"outputs": [
				{
					"internalType": "uint256",
					"name": "",
					"type": "uint256"
				}
			],
			"stateMutability": "view",
			"type": "function"
		},
		{
			"inputs": [],
			"name": "MAX_SUPPLY_GENESIS",
			"outputs": [
				{
					"internalType": "uint256",
					"name": "",
					"type": "uint256"
				}
			],
			"stateMutability": "view",
			"type": "function"
		},
		{
			"inputs": [],
			"name": "MAX_SUPPLY_LEGEND",
			"outputs": [
				{
					"internalType": "uint256",
					"name": "",
					"type": "uint256"
				}
			],
			"stateMutability": "view",
			"type": "function"
		},
		{
			"inputs": [],
			"name": "MODULE_NAME",
			"outputs": [
				{
					"internalType": "string",
					"name": "",
					"type": "string"
				}
			],
			"stateMutability": "view",
			"type": "function"
		},
		{
			"inputs": [],
			"name": "MODULE_VERSION",
			"outputs": [
				{
					"internalType": "uint256",
					"name": "",
					"type": "uint256"
				}
			],
			"stateMutability": "view",
			"type": "function"
		},
		{
			"inputs": [
				{
					"internalType": "address",
					"name": "to",
					"type": "address"
				},
				{
					"internalType": "uint256",
					"name": "tokenId",
					"type": "uint256"
				}
			],
			"name": "approve",
			"outputs": [],
			"stateMutability": "payable",
			"type": "function"
		},
		{
			"inputs": [
				{
					"internalType": "address",
					"name": "owner",
					"type": "address"
				}
			],
			"name": "balanceOf",
			"outputs": [
				{
					"internalType": "uint256",
					"name": "",
					"type": "uint256"
				}
			],
			"stateMutability": "view",
			"type": "function"
		},
		{
			"inputs": [
				{
					"internalType": "address",
					"name": "owner",
					"type": "address"
				},
				{
					"internalType": "uint256",
					"name": "index",
					"type": "uint256"
				}
			],
			"name": "balanceOfId",
			"outputs": [
				{
					"internalType": "uint256",
					"name": "",
					"type": "uint256"
				}
			],
			"stateMutability": "view",
			"type": "function"
		},
		{
			"inputs": [],
			"name": "baseURI",
			"outputs": [
				{
					"internalType": "string",
					"name": "",
					"type": "string"
				}
			],
			"stateMutability": "view",
			"type": "function"
		},
		{
			"inputs": [
				{
					"internalType": "uint256",
					"name": "tokenId",
					"type": "uint256"
				}
			],
			"name": "exists",
			"outputs": [
				{
					"internalType": "bool",
					"name": "result",
					"type": "bool"
				}
			],
			"stateMutability": "view",
			"type": "function"
		},
		{
			"inputs": [],
			"name": "fee",
			"outputs": [
				{
					"internalType": "uint256",
					"name": "",
					"type": "uint256"
				}
			],
			"stateMutability": "view",
			"type": "function"
		},
		{
			"inputs": [
				{
					"internalType": "address",
					"name": "to",
					"type": "address"
				},
				{
					"internalType": "bytes32[]",
					"name": "proof",
					"type": "bytes32[]"
				}
			],
			"name": "genesisMint",
			"outputs": [],
			"stateMutability": "payable",
			"type": "function"
		},
		{
			"inputs": [
				{
					"internalType": "uint256",
					"name": "tokenId",
					"type": "uint256"
				}
			],
			"name": "getApproved",
			"outputs": [
				{
					"internalType": "address",
					"name": "",
					"type": "address"
				}
			],
			"stateMutability": "view",
			"type": "function"
		},
		{
			"inputs": [
				{
					"internalType": "string",
					"name": "name",
					"type": "string"
				},
				{
					"internalType": "string",
					"name": "symbol",
					"type": "string"
				}
			],
			"name": "init",
			"outputs": [],
			"stateMutability": "nonpayable",
			"type": "function"
		},
		{
			"inputs": [
				{
					"internalType": "address",
					"name": "owner",
					"type": "address"
				},
				{
					"internalType": "address",
					"name": "operator",
					"type": "address"
				}
			],
			"name": "isApprovedForAll",
			"outputs": [
				{
					"internalType": "bool",
					"name": "",
					"type": "bool"
				}
			],
			"stateMutability": "view",
			"type": "function"
		},
		{
			"inputs": [],
			"name": "name",
			"outputs": [
				{
					"internalType": "string",
					"name": "",
					"type": "string"
				}
			],
			"stateMutability": "view",
			"type": "function"
		},
		{
			"inputs": [],
			"name": "nextTokenId",
			"outputs": [
				{
					"internalType": "uint256",
					"name": "",
					"type": "uint256"
				}
			],
			"stateMutability": "view",
			"type": "function"
		},
		{
			"inputs": [
				{
					"internalType": "address",
					"name": "operator",
					"type": "address"
				},
				{
					"internalType": "address",
					"name": "from",
					"type": "address"
				},
				{
					"internalType": "uint256",
					"name": "tokenId",
					"type": "uint256"
				},
				{
					"internalType": "bytes",
					"name": "data",
					"type": "bytes"
				}
			],
			"name": "onERC721Received",
			"outputs": [
				{
					"internalType": "bytes4",
					"name": "",
					"type": "bytes4"
				}
			],
			"stateMutability": "nonpayable",
			"type": "function"
		},
		{
			"inputs": [
				{
					"internalType": "uint256",
					"name": "tokenId",
					"type": "uint256"
				}
			],
			"name": "ownerOf",
			"outputs": [
				{
					"internalType": "address",
					"name": "",
					"type": "address"
				}
			],
			"stateMutability": "view",
			"type": "function"
		},
		{
			"inputs": [
				{
					"internalType": "address",
					"name": "from",
					"type": "address"
				},
				{
					"internalType": "address",
					"name": "to",
					"type": "address"
				},
				{
					"internalType": "uint256",
					"name": "tokenId",
					"type": "uint256"
				}
			],
			"name": "safeTransferFrom",
			"outputs": [],
			"stateMutability": "payable",
			"type": "function"
		},
		{
			"inputs": [
				{
					"internalType": "address",
					"name": "from",
					"type": "address"
				},
				{
					"internalType": "address",
					"name": "to",
					"type": "address"
				},
				{
					"internalType": "uint256",
					"name": "tokenId",
					"type": "uint256"
				},
				{
					"internalType": "bytes",
					"name": "_data",
					"type": "bytes"
				}
			],
			"name": "safeTransferFrom",
			"outputs": [],
			"stateMutability": "payable",
			"type": "function"
		},
		{
			"inputs": [
				{
					"internalType": "address",
					"name": "operator",
					"type": "address"
				},
				{
					"internalType": "bool",
					"name": "approved",
					"type": "bool"
				}
			],
			"name": "setApprovalForAll",
			"outputs": [],
			"stateMutability": "nonpayable",
			"type": "function"
		},
		{
			"inputs": [
				{
					"internalType": "string",
					"name": "URI",
					"type": "string"
				}
			],
			"name": "setBaseURI",
			"outputs": [],
			"stateMutability": "nonpayable",
			"type": "function"
		},
		{
			"inputs": [
				{
					"internalType": "string",
					"name": "URI",
					"type": "string"
				}
			],
			"name": "setDefaultTokenURI",
			"outputs": [],
			"stateMutability": "nonpayable",
			"type": "function"
		},
		{
			"inputs": [
				{
					"internalType": "bytes32",
					"name": "merkleroot",
					"type": "bytes32"
				}
			],
			"name": "setEpiclistRoot",
			"outputs": [],
			"stateMutability": "nonpayable",
			"type": "function"
		},
		{
			"inputs": [
				{
					"internalType": "uint256",
					"name": "_fee",
					"type": "uint256"
				}
			],
			"name": "setFee",
			"outputs": [],
			"stateMutability": "nonpayable",
			"type": "function"
		},
		{
			"inputs": [
				{
					"internalType": "bytes32",
					"name": "merkleroot",
					"type": "bytes32"
				}
			],
			"name": "setGenesislistRoot",
			"outputs": [],
			"stateMutability": "nonpayable",
			"type": "function"
		},
		{
			"inputs": [
				{
					"internalType": "bytes32",
					"name": "merkleroot",
					"type": "bytes32"
				}
			],
			"name": "setLegendlistRoot",
			"outputs": [],
			"stateMutability": "nonpayable",
			"type": "function"
		},
		{
			"inputs": [
				{
					"internalType": "uint256",
					"name": "tokenId",
					"type": "uint256"
				},
				{
					"internalType": "string",
					"name": "URI",
					"type": "string"
				}
			],
			"name": "setTokenURI",
			"outputs": [],
			"stateMutability": "nonpayable",
			"type": "function"
		},
		{
			"inputs": [
				{
					"internalType": "bytes4",
					"name": "interfaceId",
					"type": "bytes4"
				}
			],
			"name": "supportsInterface",
			"outputs": [
				{
					"internalType": "bool",
					"name": "",
					"type": "bool"
				}
			],
			"stateMutability": "view",
			"type": "function"
		},
		{
			"inputs": [],
			"name": "symbol",
			"outputs": [
				{
					"internalType": "string",
					"name": "",
					"type": "string"
				}
			],
			"stateMutability": "view",
			"type": "function"
		},
		{
			"inputs": [
				{
					"internalType": "uint256",
					"name": "tokenId",
					"type": "uint256"
				}
			],
			"name": "tokenURI",
			"outputs": [
				{
					"internalType": "string",
					"name": "",
					"type": "string"
				}
			],
			"stateMutability": "view",
			"type": "function"
		},
		{
			"inputs": [],
			"name": "totalSupply",
			"outputs": [
				{
					"internalType": "uint256",
					"name": "result",
					"type": "uint256"
				}
			],
			"stateMutability": "view",
			"type": "function"
		},
		{
			"inputs": [
				{
					"internalType": "address",
					"name": "from",
					"type": "address"
				},
				{
					"internalType": "address",
					"name": "to",
					"type": "address"
				},
				{
					"internalType": "uint256",
					"name": "tokenId",
					"type": "uint256"
				}
			],
			"name": "transferFrom",
			"outputs": [],
			"stateMutability": "payable",
			"type": "function"
		},
		{
			"inputs": [],
			"name": "withdraw",
			"outputs": [],
			"stateMutability": "nonpayable",
			"type": "function"
		}
	]
}