{
	"data": {
		"bytecode": {
			"linkReferences": {
				"contracts/storage/LibOwnableStorage.sol": {
					"OwnableStorage": [
						{
							"length": 20,
							"start": 609
						},
						{
							"length": 20,
							"start": 743
						},
						{
							"length": 20,
							"start": 855
						},
						{
							"length": 20,
							"start": 5859
						},
						{
							"length": 20,
							"start": 6579
						},
						{
							"length": 20,
							"start": 6805
						},
						{
							"length": 20,
							"start": 8215
						},
						{
							"length": 20,
							"start": 8686
						},
						{
							"length": 20,
							"start": 9031
						},
						{
							"length": 20,
							"start": 9473
						},
						{
							"length": 20,
							"start": 10243
						},
						{
							"length": 20,
							"start": 11219
						}
					]
				},
				"contracts/storage/LibSMElegendaryStorage.sol": {
					"SMElegendaryStorage": [
						{
							"length": 20,
							"start": 77
						},
						{
							"length": 20,
							"start": 176
						},
						{
							"length": 20,
							"start": 275
						},
						{
							"length": 20,
							"start": 960
						},
						{
							"length": 20,
							"start": 1057
						},
						{
							"length": 20,
							"start": 1154
						},
						{
							"length": 20,
							"start": 1285
						},
						{
							"length": 20,
							"start": 1385
						},
						{
							"length": 20,
							"start": 1484
						},
						{
							"length": 20,
							"start": 1583
						},
						{
							"length": 20,
							"start": 1684
						},
						{
							"length": 20,
							"start": 5514
						},
						{
							"length": 20,
							"start": 5660
						},
						{
							"length": 20,
							"start": 6143
						},
						{
							"length": 20,
							"start": 6250
						},
						{
							"length": 20,
							"start": 6407
						},
						{
							"length": 20,
							"start": 7374
						},
						{
							"length": 20,
							"start": 7558
						},
						{
							"length": 20,
							"start": 7841
						},
						{
							"length": 20,
							"start": 8027
						},
						{
							"length": 20,
							"start": 8408
						},
						{
							"length": 20,
							"start": 8511
						},
						{
							"length": 20,
							"start": 8879
						},
						{
							"length": 20,
							"start": 9224
						},
						{
							"length": 20,
							"start": 9328
						},
						{
							"length": 20,
							"start": 9758
						},
						{
							"length": 20,
							"start": 9885
						},
						{
							"length": 20,
							"start": 10041
						},
						{
							"length": 20,
							"start": 10436
						},
						{
							"length": 20,
							"start": 10541
						},
						{
							"length": 20,
							"start": 10853
						},
						{
							"length": 20,
							"start": 11077
						},
						{
							"length": 20,
							"start": 11412
						},
						{
							"length": 20,
							"start": 11515
						},
						{
							"length": 20,
							"start": 11676
						},
						{
							"length": 20,
							"start": 11806
						},
						{
							"length": 20,
							"start": 11923
						},
						{
							"length": 20,
							"start": 12239
						},
						{
							"length": 20,
							"start": 12444
						},
						{
							"length": 20,
							"start": 12867
						},
						{
							"length": 20,
							"start": 12968
						},
						{
							"length": 20,
							"start": 13067
						},
						{
							"length": 20,
							"start": 13166
						},
						{
							"length": 20,
							"start": 13363
						},
						{
							"length": 20,
							"start": 13486
						},
						{
							"length": 20,
							"start": 13599
						},
						{
							"length": 20,
							"start": 14185
						},
						{
							"length": 20,
							"start": 14441
						},
						{
							"length": 20,
							"start": 14622
						},
						{
							"length": 20,
							"start": 14794
						},
						{
							"length": 20,
							"start": 14925
						},
						{
							"length": 20,
							"start": 15183
						},
						{
							"length": 20,
							"start": 15280
						},
						{
							"length": 20,
							"start": 15377
						},
						{
							"length": 20,
							"start": 15508
						},
						{
							"length": 20,
							"start": 15608
						},
						{
							"length": 20,
							"start": 15707
						},
						{
							"length": 20,
							"start": 15806
						},
						{
							"length": 20,
							"start": 15907
						},
						{
							"length": 20,
							"start": 16529
						},
						{
							"length": 20,
							"start": 16819
						},
						{
							"length": 20,
							"start": 16921
						},
						{
							"length": 20,
							"start": 17036
						},
						{
							"length": 20,
							"start": 17138
						},
						{
							"length": 20,
							"start": 17387
						},
						{
							"length": 20,
							"start": 17550
						},
						{
							"length": 20,
							"start": 18006
						},
						{
							"length": 20,
							"start": 18151
						},
						{
							"length": 20,
							"start": 18281
						},
						{
							"length": 20,
							"start": 18319
						},
						{
							"length": 20,
							"start": 18681
						}
					]
				}
			},
			"object": "60a060405261001660015f5f6101e860201b60201c565b608090815250348015610027575f5ffd5b506040516161f23803806161f28339818101604052810190610049919061084f565b818173__$eabcc97f142f9a0ca4e3cab5476d105c2d$__635b43bc99836040518263ffffffff1660e01b81526004016100829190610917565b5f6040518083038186803b158015610098575f5ffd5b505af41580156100aa573d5f5f3e3d5ffd5b5050505073__$eabcc97f142f9a0ca4e3cab5476d105c2d$__6341bb0559826040518263ffffffff1660e01b81526004016100e59190610917565b5f6040518083038186803b1580156100fb575f5ffd5b505af415801561010d573d5f5f3e3d5ffd5b5050505073__$eabcc97f142f9a0ca4e3cab5476d105c2d$__63345e7b2861013961021160201b60201c565b6040518263ffffffff1660e01b8152600401610155919061094f565b5f6040518083038186803b15801561016b575f5ffd5b505af415801561017d573d5f5f3e3d5ffd5b5050505061018f61021160201b60201c565b61019d61021960201b60201c565b10156101ba576101b963fed8210f60e01b61024060201b60201c565b5b505060015f819055506101d161024860201b60201c565b6101e182826103be60201b60201c565b5050610ce2565b5f8163ffffffff1660208463ffffffff16901b60408663ffffffff16901b171790509392505050565b5f6001905090565b5f7fffffffffffffffffffffffffffffffffffffffffffffffffffffffffffffffff905090565b805f5260045ffd5b5f73ffffffffffffffffffffffffffffffffffffffff1673__$ea2bfd386ba84ea2bcf9bcd47bb5c25cd7$__63893d20e86040518163ffffffff1660e01b8152600401602060405180830381865af41580156102a6573d5f5f3e3d5ffd5b505050506040513d601f19601f820116820180604052508101906102ca91906109c2565b73ffffffffffffffffffffffffffffffffffffffff16036103bc5773__$ea2bfd386ba84ea2bcf9bcd47bb5c25cd7$__63592bd70561030d6106fb60201b60201c565b6040518263ffffffff1660e01b815260040161032991906109fc565b5f6040518083038186803b15801561033f575f5ffd5b505af4158015610351573d5f5f3e3d5ffd5b5050505073__$ea2bfd386ba84ea2bcf9bcd47bb5c25cd7$__63f2f6596062093a806040518263ffffffff1660e01b815260040161038f9190610a57565b5f6040518083038186803b1580156103a5575f5ffd5b505af41580156103b7573d5f5f3e3d5ffd5b505050505b565b73__$eabcc97f142f9a0ca4e3cab5476d105c2d$__63a05cc5596040518163ffffffff1660e01b81526004016103f390610b06565b5f6040518083038186803b158015610409575f5ffd5b505af415801561041b573d5f5f3e3d5ffd5b5050505073__$eabcc97f142f9a0ca4e3cab5476d105c2d$__63821abc2d6040518163ffffffff1660e01b815260040161045490610bba565b5f6040518083038186803b15801561046a575f5ffd5b505af415801561047c573d5f5f3e3d5ffd5b5050505073__$eabcc97f142f9a0ca4e3cab5476d105c2d$__63854f9db97fdfb96c060b2e58f09345a394fd8e994a6e7ac3539cdd256304c6e181a216752e6040518263ffffffff1660e01b81526004016104d79190610c25565b5f6040518083038186803b1580156104ed575f5ffd5b505af41580156104ff573d5f5f3e3d5ffd5b5050505073__$eabcc97f142f9a0ca4e3cab5476d105c2d$__6339b37ab060916040518263ffffffff1660e01b815260040161053b9190610c77565b5f6040518083038186803b158015610551575f5ffd5b505af4158015610563573d5f5f3e3d5ffd5b5050505073__$eabcc97f142f9a0ca4e3cab5476d105c2d$__635b43bc99836040518263ffffffff1660e01b815260040161059e9190610917565b5f6040518083038186803b1580156105b4575f5ffd5b505af41580156105c6573d5f5f3e3d5ffd5b5050505073__$eabcc97f142f9a0ca4e3cab5476d105c2d$__6341bb0559826040518263ffffffff1660e01b81526004016106019190610917565b5f6040518083038186803b158015610617575f5ffd5b505af4158015610629573d5f5f3e3d5ffd5b5050505073__$eabcc97f142f9a0ca4e3cab5476d105c2d$__63345e7b286104b06040518263ffffffff1660e01b81526004016106669190610cc9565b5f6040518083038186803b15801561067c575f5ffd5b505af415801561068e573d5f5f3e3d5ffd5b5050505073__$eabcc97f142f9a0ca4e3cab5476d105c2d$__6332b07b436104b06040518263ffffffff1660e01b81526004016106cb9190610cc9565b5f6040518083038186803b1580156106e1575f5ffd5b505af41580156106f3573d5f5f3e3d5ffd5b505050505050565b5f33905090565b5f604051905090565b5f5ffd5b5f5ffd5b5f5ffd5b5f5ffd5b5f601f19601f8301169050919050565b7f4e487b71000000000000000000000000000000000000000000000000000000005f52604160045260245ffd5b6107618261071b565b810181811067ffffffffffffffff821117156107805761077f61072b565b5b80604052505050565b5f610792610702565b905061079e8282610758565b919050565b5f67ffffffffffffffff8211156107bd576107bc61072b565b5b6107c68261071b565b9050602081019050919050565b8281835e5f83830152505050565b5f6107f36107ee846107a3565b610789565b90508281526020810184848401111561080f5761080e610717565b5b61081a8482856107d3565b509392505050565b5f82601f83011261083657610835610713565b5b81516108468482602086016107e1565b91505092915050565b5f5f604083850312156108655761086461070b565b5b5f83015167ffffffffffffffff8111156108825761088161070f565b5b61088e85828601610822565b925050602083015167ffffffffffffffff8111156108af576108ae61070f565b5b6108bb85828601610822565b9150509250929050565b5f81519050919050565b5f82825260208201905092915050565b5f6108e9826108c5565b6108f381856108cf565b93506109038185602086016107d3565b61090c8161071b565b840191505092915050565b5f6020820190508181035f83015261092f81846108df565b905092915050565b5f819050919050565b61094981610937565b82525050565b5f6020820190506109625f830184610940565b92915050565b5f73ffffffffffffffffffffffffffffffffffffffff82169050919050565b5f61099182610968565b9050919050565b6109a181610987565b81146109ab575f5ffd5b50565b5f815190506109bc81610998565b92915050565b5f602082840312156109d7576109d661070b565b5b5f6109e4848285016109ae565b91505092915050565b6109f681610987565b82525050565b5f602082019050610a0f5f8301846109ed565b92915050565b5f819050919050565b5f819050919050565b5f610a41610a3c610a3784610a15565b610a1e565b610937565b9050919050565b610a5181610a27565b82525050565b5f602082019050610a6a5f830184610a48565b92915050565b7f68747470733a2f2f697066732e737765622e72752f697066732f516d62704e395f8201527f716578677a6e6b705445516d7264786e53665759434441624c6b42786d35764160208201527f4337316a7a52786f2f0000000000000000000000000000000000000000000000604082015250565b5f610af06049836108cf565b9150610afb82610a70565b606082019050919050565b5f6020820190508181035f830152610b1d81610ae4565b9050919050565b7f68747470733a2f2f697066732e737765622e72752f697066732f516d595262535f8201527f4d3251617a47623551486f676f64714a666f505661536962333274745570764e60208201527f6b794a4b666858552f3f66696c656e616d653d736d65616d622e6a736f6e0000604082015250565b5f610ba4605e836108cf565b9150610baf82610b24565b606082019050919050565b5f6020820190508181035f830152610bd181610b98565b9050919050565b5f819050919050565b5f819050919050565b5f815f1b9050919050565b5f610c0f610c0a610c0584610bd8565b610bea565b610be1565b9050919050565b610c1f81610bf5565b82525050565b5f602082019050610c385f830184610c16565b92915050565b5f819050919050565b5f610c61610c5c610c5784610c3e565b610a1e565b610937565b9050919050565b610c7181610c47565b82525050565b5f602082019050610c8a5f830184610c68565b92915050565b5f819050919050565b5f610cb3610cae610ca984610c90565b610a1e565b610937565b9050919050565b610cc381610c99565b82525050565b5f602082019050610cdc5f830184610cba565b92915050565b6080516154f8610cfa5f395f611a1301526154f85ff3fe608060405260043610610203575f3560e01c80636352211e116101175780639b865b431161009f578063b88d4fde1161006e578063b88d4fde14610715578063c87b56dd14610731578063ddca3f431461076d578063dfbf2e6714610797578063e985e9c5146107bf57610203565b80639b865b4314610671578063a125c8241461069b578063a22cb465146106c3578063ad5b1662146106eb57610203565b806370a08231116100e657806370a082311461058d57806375794a3c146105c957806381ed9808146105f357806390507c781461061d57806395d89b411461064757610203565b80636352211e146104d757806369fe0e2d146105135780636c0360eb1461053b5780637029144c1461056557610203565b806323b872dd1161019a57806346bc0dca1161016957806346bc0dca146103f357806349e0f9801461040f5780634bca8aa3146104375780634f558e791461047357806355f804b3146104af57610203565b806323b872dd1461037d5780633bb04b1f146103995780633ccfd60b146103c157806342842e0e146103d757610203565b80630c142a43116101d65780630c142a43146102c5578063150b7a02146102ef578063162094c41461032b57806318160ddd1461035357610203565b806301ffc9a71461020757806306fdde0314610243578063081812fc1461026d578063095ea7b3146102a9575b5f5ffd5b348015610212575f5ffd5b5061022d60048036038101906102289190613e4e565b6107fb565b60405161023a9190613e93565b60405180910390f35b34801561024e575f5ffd5b5061025761088c565b6040516102649190613f1c565b60405180910390f35b348015610278575f5ffd5b50610293600480360381019061028e9190613f6f565b610901565b6040516102a09190613fd9565b60405180910390f35b6102c360048036038101906102be919061401c565b6109a0565b005b3480156102d0575f5ffd5b506102d96109b0565b6040516102e69190614069565b60405180910390f35b3480156102fa575f5ffd5b50610315600480360381019061031091906141ae565b6109b6565b604051610322919061423d565b60405180910390f35b348015610336575f5ffd5b50610351600480360381019061034c91906142b3565b6109c9565b005b34801561035e575f5ffd5b50610367610afa565b6040516103749190614069565b60405180910390f35b61039760048036038101906103929190614310565b610c7e565b005b3480156103a4575f5ffd5b506103bf60048036038101906103ba9190614393565b610c99565b005b3480156103cc575f5ffd5b506103d5610d7b565b005b6103f160048036038101906103ec9190614310565b610f15565b005b61040d60048036038101906104089190614413565b610f34565b005b34801561041a575f5ffd5b5061043560048036038101906104309190614393565b6112fd565b005b348015610442575f5ffd5b5061045d6004803603810190610458919061401c565b611442565b60405161046a9190614069565b60405180910390f35b34801561047e575f5ffd5b5061049960048036038101906104949190613f6f565b6114c3565b6040516104a69190613e93565b60405180910390f35b3480156104ba575f5ffd5b506104d560048036038101906104d09190614470565b6114d4565b005b3480156104e2575f5ffd5b506104fd60048036038101906104f89190613f6f565b61161c565b60405161050a9190613fd9565b60405180910390f35b34801561051e575f5ffd5b5061053960048036038101906105349190613f6f565b61162d565b005b348015610546575f5ffd5b5061054f611772565b60405161055c9190613f1c565b60405180910390f35b348015610570575f5ffd5b5061058b60048036038101906105869190614559565b6117e7565b005b348015610598575f5ffd5b506105b360048036038101906105ae91906145cf565b6118d4565b6040516105c09190614069565b60405180910390f35b3480156105d4575f5ffd5b506105dd6119a0565b6040516105ea9190614069565b60405180910390f35b3480156105fe575f5ffd5b50610607611a11565b6040516106149190614069565b60405180910390f35b348015610628575f5ffd5b50610631611a35565b60405161063e9190614069565b60405180910390f35b348015610652575f5ffd5b5061065b611a3b565b6040516106689190613f1c565b60405180910390f35b34801561067c575f5ffd5b50610685611ab0565b6040516106929190613f1c565b60405180910390f35b3480156106a6575f5ffd5b506106c160048036038101906106bc9190614470565b611ae9565b005b3480156106ce575f5ffd5b506106e960048036038101906106e49190614624565b611c31565b005b3480156106f6575f5ffd5b506106ff611d0f565b60405161070c9190614069565b60405180910390f35b61072f600480360381019061072a91906141ae565b611d15565b005b34801561073c575f5ffd5b5061075760048036038101906107529190613f6f565b611d66565b6040516107649190613f1c565b60405180910390f35b348015610778575f5ffd5b50610781611e48565b60405161078e9190614069565b60405180910390f35b3480156107a2575f5ffd5b506107bd60048036038101906107b89190614393565b611eb9565b005b3480156107ca575f5ffd5b506107e560048036038101906107e09190614662565b611ffe565b6040516107f29190613e93565b60405180910390f35b5f6301ffc9a760e01b827bffffffffffffffffffffffffffffffffffffffffffffffffffffffff1916148061085557506380ac58cd60e01b827bffffffffffffffffffffffffffffffffffffffffffffffffffffffff1916145b806108855750635b5e139f60e01b827bffffffffffffffffffffffffffffffffffffffffffffffffffffffff1916145b9050919050565b606073__$eabcc97f142f9a0ca4e3cab5476d105c2d$__6306fdde036040518163ffffffff1660e01b81526004015f60405180830381865af41580156108d4573d5f5f3e3d5ffd5b505050506040513d5f823e3d601f19601f820116820180604052508101906108fc919061470e565b905090565b5f61090b8261207f565b6109205761091f63cf4700e460e01b612253565b5b73__$eabcc97f142f9a0ca4e3cab5476d105c2d$__63a7cc0136836040518263ffffffff1660e01b81526004016109579190614764565b602060405180830381865af4158015610972573d5f5f3e3d5ffd5b505050506040513d601f19601f8201168201806040525081019061099691906147ce565b5f01519050919050565b6109ac8282600161225b565b5050565b6104b081565b5f63150b7a0260e01b9050949350505050565b6109d1612399565b73ffffffffffffffffffffffffffffffffffffffff1673__$ea2bfd386ba84ea2bcf9bcd47bb5c25cd7$__63893d20e86040518163ffffffff1660e01b8152600401602060405180830381865af4158015610a2e573d5f5f3e3d5ffd5b505050506040513d601f19601f82011682018060405250810190610a5291906147f9565b73ffffffffffffffffffffffffffffffffffffffff1614610aa8576040517f08c379a0000000000000000000000000000000000000000000000000000000008152600401610a9f9061486e565b60405180910390fd5b610af58383838080601f0160208091040260200160405190810160405280939291908181526020018383808284375f81840152601f19601f820116905080830192505050505050506123a0565b505050565b5f610b03612440565b73__$eabcc97f142f9a0ca4e3cab5476d105c2d$__6344faf2556040518163ffffffff1660e01b8152600401602060405180830381865af4158015610b4a573d5f5f3e3d5ffd5b505050506040513d601f19601f82011682018060405250810190610b6e91906148a0565b73__$eabcc97f142f9a0ca4e3cab5476d105c2d$__639451c99a6040518163ffffffff1660e01b8152600401602060405180830381865af4158015610bb5573d5f5f3e3d5ffd5b505050506040513d601f19601f82011682018060405250810190610bd991906148a0565b030390507fffffffffffffffffffffffffffffffffffffffffffffffffffffffffffffffff610c06612448565b14610c7b5773__$eabcc97f142f9a0ca4e3cab5476d105c2d$__63d20b6ee76040518163ffffffff1660e01b8152600401602060405180830381865af4158015610c52573d5f5f3e3d5ffd5b505050506040513d601f19601f82011682018060405250810190610c7691906148a0565b810190505b90565b610c8983838361246f565b610c94838383612911565b505050565b610ca1612399565b73ffffffffffffffffffffffffffffffffffffffff1673__$ea2bfd386ba84ea2bcf9bcd47bb5c25cd7$__63893d20e86040518163ffffffff1660e01b8152600401602060405180830381865af4158015610cfe573d5f5f3e3d5ffd5b505050506040513d601f19601f82011682018060405250810190610d2291906147f9565b73ffffffffffffffffffffffffffffffffffffffff1614610d78576040517f08c379a0000000000000000000000000000000000000000000000000000000008152600401610d6f9061486e565b60405180910390fd5b50565b610d83612399565b73ffffffffffffffffffffffffffffffffffffffff1673__$ea2bfd386ba84ea2bcf9bcd47bb5c25cd7$__63893d20e86040518163ffffffff1660e01b8152600401602060405180830381865af4158015610de0573d5f5f3e3d5ffd5b505050506040513d601f19601f82011682018060405250810190610e0491906147f9565b73ffffffffffffffffffffffffffffffffffffffff1614610e5a576040517f08c379a0000000000000000000000000000000000000000000000000000000008152600401610e519061486e565b60405180910390fd5b610e62612a16565b5f3373ffffffffffffffffffffffffffffffffffffffff1647604051610e87906148f8565b5f6040518083038185875af1925050503d805f8114610ec1576040519150601f19603f3d011682016040523d82523d5f602084013e610ec6565b606091505b5050905080610f0a576040517f08c379a0000000000000000000000000000000000000000000000000000000008152600401610f0190614956565b60405180910390fd5b50610f13612a63565b565b610f2f83838360405180602001604052805f815250611d15565b505050565b610f3c612a16565b5f610f45612a6c565b90506104b08111610f8b576040517f08c379a0000000000000000000000000000000000000000000000000000000008152600401610f82906149be565b60405180910390fd5b6113888110610fcf576040517f08c379a0000000000000000000000000000000000000000000000000000000008152600401610fc690614a26565b60405180910390fd5b5f151573__$eabcc97f142f9a0ca4e3cab5476d105c2d$__63b62d8b91866040518263ffffffff1660e01b81526004016110099190614a53565b602060405180830381865af4158015611024573d5f5f3e3d5ffd5b505050506040513d601f19601f820116820180604052508101906110489190614a80565b15151461108a576040517f08c379a000000000000000000000000000000000000000000000000000000000815260040161108190614af5565b60405180910390fd5b73__$eabcc97f142f9a0ca4e3cab5476d105c2d$__63ddca3f436040518163ffffffff1660e01b8152600401602060405180830381865af41580156110d1573d5f5f3e3d5ffd5b505050506040513d601f19601f820116820180604052508101906110f591906148a0565b3414611136576040517f08c379a000000000000000000000000000000000000000000000000000000000815260040161112d90614b5d565b60405180910390fd5b5f846040516020016111489190614bc0565b6040516020818303038152906040528051906020012090505f6112168585808060200260200160405190810160405280939291908181526020018383602002808284375f81840152601f19601f8201169050808301925050505050505073__$eabcc97f142f9a0ca4e3cab5476d105c2d$__63f589b7546040518163ffffffff1660e01b8152600401602060405180830381865af41580156111ec573d5f5f3e3d5ffd5b505050506040513d601f19601f820116820180604052508101906112109190614bee565b84612add565b9050600115158115151461125f576040517f08c379a000000000000000000000000000000000000000000000000000000000815260040161125690614c63565b60405180910390fd5b73__$eabcc97f142f9a0ca4e3cab5476d105c2d$__63b0d4ce258760016040518363ffffffff1660e01b8152600401611299929190614c90565b5f6040518083038186803b1580156112af575f5ffd5b505af41580156112c1573d5f5f3e3d5ffd5b505050506112d0866001612af3565b6112e2836112dd85612b10565b6123a0565b6112ed5f8785612911565b5050506112f8612a63565b505050565b611305612399565b73ffffffffffffffffffffffffffffffffffffffff1673__$ea2bfd386ba84ea2bcf9bcd47bb5c25cd7$__63893d20e86040518163ffffffff1660e01b8152600401602060405180830381865af4158015611362573d5f5f3e3d5ffd5b505050506040513d601f19601f8201168201806040525081019061138691906147f9565b73ffffffffffffffffffffffffffffffffffffffff16146113dc576040517f08c379a00000000000000000000000000000000000000000000000000000000081526004016113d39061486e565b60405180910390fd5b73__$eabcc97f142f9a0ca4e3cab5476d105c2d$__63247c6ce0826040518263ffffffff1660e01b81526004016114139190614cc6565b5f6040518083038186803b158015611429575f5ffd5b505af415801561143b573d5f5f3e3d5ffd5b5050505050565b5f73__$eabcc97f142f9a0ca4e3cab5476d105c2d$__63e149f03684846040518363ffffffff1660e01b815260040161147c929190614cdf565b602060405180830381865af4158015611497573d5f5f3e3d5ffd5b505050506040513d601f19601f820116820180604052508101906114bb91906148a0565b905092915050565b5f6114cd8261207f565b9050919050565b6114dc612399565b73ffffffffffffffffffffffffffffffffffffffff1673__$ea2bfd386ba84ea2bcf9bcd47bb5c25cd7$__63893d20e86040518163ffffffff1660e01b8152600401602060405180830381865af4158015611539573d5f5f3e3d5ffd5b505050506040513d601f19601f8201168201806040525081019061155d91906147f9565b73ffffffffffffffffffffffffffffffffffffffff16146115b3576040517f08c379a00000000000000000000000000000000000000000000000000000000081526004016115aa9061486e565b60405180910390fd5b73__$eabcc97f142f9a0ca4e3cab5476d105c2d$__63a05cc55983836040518363ffffffff1660e01b81526004016115ec929190614d42565b5f6040518083038186803b158015611602575f5ffd5b505af4158015611614573d5f5f3e3d5ffd5b505050505050565b5f61162682612c13565b9050919050565b611635612399565b73ffffffffffffffffffffffffffffffffffffffff1673__$ea2bfd386ba84ea2bcf9bcd47bb5c25cd7$__63893d20e86040518163ffffffff1660e01b8152600401602060405180830381865af4158015611692573d5f5f3e3d5ffd5b505050506040513d601f19601f820116820180604052508101906116b691906147f9565b73ffffffffffffffffffffffffffffffffffffffff161461170c576040517f08c379a00000000000000000000000000000000000000000000000000000000081526004016117039061486e565b60405180910390fd5b73__$eabcc97f142f9a0ca4e3cab5476d105c2d$__6339b37ab0826040518263ffffffff1660e01b81526004016117439190614764565b5f6040518083038186803b158015611759575f5ffd5b505af415801561176b573d5f5f3e3d5ffd5b5050505050565b606073__$eabcc97f142f9a0ca4e3cab5476d105c2d$__63d547cfb76040518163ffffffff1660e01b81526004015f60405180830381865af41580156117ba573d5f5f3e3d5ffd5b505050506040513d5f823e3d601f19601f820116820180604052508101906117e2919061470e565b905090565b6117ef612399565b73ffffffffffffffffffffffffffffffffffffffff1673__$ea2bfd386ba84ea2bcf9bcd47bb5c25cd7$__63893d20e86040518163ffffffff1660e01b8152600401602060405180830381865af415801561184c573d5f5f3e3d5ffd5b505050506040513d601f19601f8201168201806040525081019061187091906147f9565b73ffffffffffffffffffffffffffffffffffffffff16146118c6576040517f08c379a00000000000000000000000000000000000000000000000000000000081526004016118bd9061486e565b60405180910390fd5b6118d08282612e53565b5050565b5f5f73ffffffffffffffffffffffffffffffffffffffff168273ffffffffffffffffffffffffffffffffffffffff160361191957611918638f4eb60460e01b612253565b5b67ffffffffffffffff73__$eabcc97f142f9a0ca4e3cab5476d105c2d$__6321b0ed7d846040518263ffffffff1660e01b81526004016119599190614a53565b602060405180830381865af4158015611974573d5f5f3e3d5ffd5b505050506040513d601f19601f8201168201806040525081019061199891906148a0565b169050919050565b5f73__$eabcc97f142f9a0ca4e3cab5476d105c2d$__639451c99a6040518163ffffffff1660e01b8152600401602060405180830381865af41580156119e8573d5f5f3e3d5ffd5b505050506040513d601f19601f82011682018060405250810190611a0c91906148a0565b905090565b7f000000000000000000000000000000000000000000000000000000000000000081565b6161a881565b606073__$eabcc97f142f9a0ca4e3cab5476d105c2d$__6395d89b416040518163ffffffff1660e01b81526004015f60405180830381865af4158015611a83573d5f5f3e3d5ffd5b505050506040513d5f823e3d601f19601f82011682018060405250810190611aab919061470e565b905090565b6040518060400160405280600d81526020017f534d455f4c6567656e646172790000000000000000000000000000000000000081525081565b611af1612399565b73ffffffffffffffffffffffffffffffffffffffff1673__$ea2bfd386ba84ea2bcf9bcd47bb5c25cd7$__63893d20e86040518163ffffffff1660e01b8152600401602060405180830381865af4158015611b4e573d5f5f3e3d5ffd5b505050506040513d601f19601f82011682018060405250810190611b7291906147f9565b73ffffffffffffffffffffffffffffffffffffffff1614611bc8576040517f08c379a0000000000000000000000000000000000000000000000000000000008152600401611bbf9061486e565b60405180910390fd5b73__$eabcc97f142f9a0ca4e3cab5476d105c2d$__63821abc2d83836040518363ffffffff1660e01b8152600401611c01929190614d42565b5f6040518083038186803b158015611c17575f5ffd5b505af4158015611c29573d5f5f3e3d5ffd5b505050505050565b73__$eabcc97f142f9a0ca4e3cab5476d105c2d$__63830d4091611c53613190565b84846040518463ffffffff1660e01b8152600401611c7393929190614d64565b5f6040518083038186803b158015611c89575f5ffd5b505af4158015611c9b573d5f5f3e3d5ffd5b505050508173ffffffffffffffffffffffffffffffffffffffff16611cbe613190565b73ffffffffffffffffffffffffffffffffffffffff167f17307eab39ab6107e8899845ad3d59bd9653f200f220920489ca2b5937696c3183604051611d039190613e93565b60405180910390a35050565b61138881565b611d20848484610c7e565b5f8373ffffffffffffffffffffffffffffffffffffffff163b14611d6057611d4a84848484613197565b611d5f57611d5e63d1a57ed660e01b612253565b5b5b50505050565b60605f73__$eabcc97f142f9a0ca4e3cab5476d105c2d$__636c8b703f846040518263ffffffff1660e01b8152600401611da09190614764565b5f60405180830381865af4158015611dba573d5f5f3e3d5ffd5b505050506040513d5f823e3d601f19601f82011682018060405250810190611de2919061470e565b90505f611ded6132c1565b90505f815103611e01578192505050611e43565b5f82511115611e35578082604051602001611e1d929190614dd3565b60405160208183030381529060405292505050611e43565b611e3e846132d7565b925050505b919050565b5f73__$eabcc97f142f9a0ca4e3cab5476d105c2d$__63ddca3f436040518163ffffffff1660e01b8152600401602060405180830381865af4158015611e90573d5f5f3e3d5ffd5b505050506040513d601f19601f82011682018060405250810190611eb491906148a0565b905090565b611ec1612399565b73ffffffffffffffffffffffffffffffffffffffff1673__$ea2bfd386ba84ea2bcf9bcd47bb5c25cd7$__63893d20e86040518163ffffffff1660e01b8152600401602060405180830381865af4158015611f1e573d5f5f3e3d5ffd5b505050506040513d601f19601f82011682018060405250810190611f4291906147f9565b73ffffffffffffffffffffffffffffffffffffffff1614611f98576040517f08c379a0000000000000000000000000000000000000000000000000000000008152600401611f8f9061486e565b60405180910390fd5b73__$eabcc97f142f9a0ca4e3cab5476d105c2d$__63854f9db9826040518263ffffffff1660e01b8152600401611fcf9190614cc6565b5f6040518083038186803b158015611fe5575f5ffd5b505af4158015611ff7573d5f5f3e3d5ffd5b5050505050565b5f73__$eabcc97f142f9a0ca4e3cab5476d105c2d$__63edc3bc3f84846040518363ffffffff1660e01b8152600401612038929190614df6565b602060405180830381865af4158015612053573d5f5f3e3d5ffd5b505050506040513d601f19601f820116820180604052508101906120779190614a80565b905092915050565b5f81612089612440565b1161224d57612096612448565b8211156121225761211b73__$eabcc97f142f9a0ca4e3cab5476d105c2d$__6347f69eba846040518263ffffffff1660e01b81526004016120d79190614764565b602060405180830381865af41580156120f2573d5f5f3e3d5ffd5b505050506040513d601f19601f8201168201806040525081019061211691906148a0565b613351565b905061224e565b73__$eabcc97f142f9a0ca4e3cab5476d105c2d$__639451c99a6040518163ffffffff1660e01b8152600401602060405180830381865af4158015612169573d5f5f3e3d5ffd5b505050506040513d601f19601f8201168201806040525081019061218d91906148a0565b82101561224c575f5b5f73__$eabcc97f142f9a0ca4e3cab5476d105c2d$__6347f69eba856040518263ffffffff1660e01b81526004016121ce9190614764565b602060405180830381865af41580156121e9573d5f5f3e3d5ffd5b505050506040513d601f19601f8201168201806040525081019061220d91906148a0565b91508103612226578261221f90614e4a565b9250612196565b5f7c01000000000000000000000000000000000000000000000000000000008216149150505b5b5b919050565b805f5260045ffd5b5f6122658361161c565b90508180156122a757508073ffffffffffffffffffffffffffffffffffffffff1661228e613190565b73ffffffffffffffffffffffffffffffffffffffff1614155b156122d3576122bd816122b8613190565b611ffe565b6122d2576122d163cfb3b94260e01b612253565b5b5b73__$eabcc97f142f9a0ca4e3cab5476d105c2d$__6313c19ff684866040518363ffffffff1660e01b815260040161230c929190614e71565b5f6040518083038186803b158015612322575f5ffd5b505af4158015612334573d5f5f3e3d5ffd5b50505050828473ffffffffffffffffffffffffffffffffffffffff168273ffffffffffffffffffffffffffffffffffffffff167f8c5be1e5ebec7d5bd14f71427d1e84f3dd0314c0f7b2291e5b200ac8c7c3b92560405160405180910390a450505050565b5f33905090565b73__$eabcc97f142f9a0ca4e3cab5476d105c2d$__63dec84db182846040518363ffffffff1660e01b81526004016123d9929190614ed0565b5f6040518083038186803b1580156123ef575f5ffd5b505af4158015612401573d5f5f3e3d5ffd5b505050507ff8e1a15aba9398e019f0b49df1a4fde98ee17ae345cb5f6b5e2c27f5033e8ce7826040516124349190614069565b60405180910390a15050565b5f6001905090565b5f7fffffffffffffffffffffffffffffffffffffffffffffffffffffffffffffffff905090565b5f61247982612c13565b905073ffffffffffffffffffffffffffffffffffffffff8473ffffffffffffffffffffffffffffffffffffffff161693508373ffffffffffffffffffffffffffffffffffffffff168173ffffffffffffffffffffffffffffffffffffffff16146124ee576124ed63a114810060e01b612253565b5b5f5f6124f984613391565b9150915061250f818761250a613190565b613417565b61253a576125248661251f613190565b611ffe565b612539576125386359c896be60e01b612253565b5b5b612547868686600161345a565b73__$eabcc97f142f9a0ca4e3cab5476d105c2d$__6313c19ff6855f6040518363ffffffff1660e01b8152600401612580929190614e71565b5f6040518083038186803b158015612596575f5ffd5b505af41580156125a8573d5f5f3e3d5ffd5b5050505073__$eabcc97f142f9a0ca4e3cab5476d105c2d$__6331413efc876040518263ffffffff1660e01b81526004016125e39190614a53565b5f6040518083038186803b1580156125f9575f5ffd5b505af415801561260b573d5f5f3e3d5ffd5b5050505073__$eabcc97f142f9a0ca4e3cab5476d105c2d$__63d0125152866040518263ffffffff1660e01b81526004016126469190614a53565b5f6040518083038186803b15801561265c575f5ffd5b505af415801561266e573d5f5f3e3d5ffd5b5050505073__$eabcc97f142f9a0ca4e3cab5476d105c2d$__63e68fdee1856126c08861269c8b8b8a613460565b7c020000000000000000000000000000000000000000000000000000000017613487565b6040518363ffffffff1660e01b81526004016126dd929190614efe565b5f6040518083038186803b1580156126f3575f5ffd5b505af4158015612705573d5f5f3e3d5ffd5b505050505f7c020000000000000000000000000000000000000000000000000000000084160361288c575f6001850190505f73__$eabcc97f142f9a0ca4e3cab5476d105c2d$__6347f69eba836040518263ffffffff1660e01b815260040161276e9190614764565b602060405180830381865af4158015612789573d5f5f3e3d5ffd5b505050506040513d601f19601f820116820180604052508101906127ad91906148a0565b0361288a5773__$eabcc97f142f9a0ca4e3cab5476d105c2d$__639451c99a6040518163ffffffff1660e01b8152600401602060405180830381865af41580156127f9573d5f5f3e3d5ffd5b505050506040513d601f19601f8201168201806040525081019061281d91906148a0565b81146128895773__$eabcc97f142f9a0ca4e3cab5476d105c2d$__63e68fdee182866040518363ffffffff1660e01b815260040161285c929190614efe565b5f6040518083038186803b158015612872575f5ffd5b505af4158015612884573d5f5f3e3d5ffd5b505050505b5b505b5f73ffffffffffffffffffffffffffffffffffffffff8673ffffffffffffffffffffffffffffffffffffffff161690508481887fddf252ad1be2c89b69c2b068fc378daa952ba7f163c4a11628f55a4df523b3ef5f5fa45f81036128fb576128fa63ea553b3460e01b612253565b5b61290887878760016134b1565b50505050505050565b5f73ffffffffffffffffffffffffffffffffffffffff168373ffffffffffffffffffffffffffffffffffffffff16036129525761294d816134b7565b612991565b8173ffffffffffffffffffffffffffffffffffffffff168373ffffffffffffffffffffffffffffffffffffffff16146129905761298f838261351d565b5b5b5f73ffffffffffffffffffffffffffffffffffffffff168273ffffffffffffffffffffffffffffffffffffffff16036129d2576129cd81613590565b612a11565b8173ffffffffffffffffffffffffffffffffffffffff168373ffffffffffffffffffffffffffffffffffffffff1614612a1057612a0f82826135f6565b5b5b505050565b60025f5403612a5a576040517f08c379a0000000000000000000000000000000000000000000000000000000008152600401612a5190614f6f565b60405180910390fd5b60025f81905550565b60015f81905550565b5f73__$eabcc97f142f9a0ca4e3cab5476d105c2d$__639451c99a6040518163ffffffff1660e01b8152600401602060405180830381865af4158015612ab4573d5f5f3e3d5ffd5b505050506040513d601f19601f82011682018060405250810190612ad891906148a0565b905090565b5f82612ae98584613675565b1490509392505050565b612b0c828260405180602001604052805f8152506136c6565b5050565b6060612b1b8261207f565b612b5a576040517f08c379a0000000000000000000000000000000000000000000000000000000008152600401612b5190614ffd565b60405180910390fd5b5f612b63611772565b90505f815111612be05773__$eabcc97f142f9a0ca4e3cab5476d105c2d$__63963bfe126040518163ffffffff1660e01b81526004015f60405180830381865af4158015612bb3573d5f5f3e3d5ffd5b505050506040513d5f823e3d601f19601f82011682018060405250810190612bdb919061470e565b612c0b565b80612bea8461380e565b604051602001612bfb929190615065565b6040516020818303038152906040525b915050919050565b5f81612c1d612440565b11612e3d5773__$eabcc97f142f9a0ca4e3cab5476d105c2d$__6347f69eba836040518263ffffffff1660e01b8152600401612c599190614764565b602060405180830381865af4158015612c74573d5f5f3e3d5ffd5b505050506040513d601f19601f82011682018060405250810190612c9891906148a0565b9050612ca2612448565b821115612cc757612cb281613351565b612e4e57612cc663df2d9b4260e01b612253565b5b5f8103612e155773__$eabcc97f142f9a0ca4e3cab5476d105c2d$__639451c99a6040518163ffffffff1660e01b8152600401602060405180830381865af4158015612d15573d5f5f3e3d5ffd5b505050506040513d601f19601f82011682018060405250810190612d3991906148a0565b8210612d5057612d4f63df2d9b4260e01b612253565b5b5b73__$eabcc97f142f9a0ca4e3cab5476d105c2d$__6347f69eba83600190039350836040518263ffffffff1660e01b8152600401612d8f9190614764565b602060405180830381865af4158015612daa573d5f5f3e3d5ffd5b505050506040513d601f19601f82011682018060405250810190612dce91906148a0565b90505f810315612e10575f7c010000000000000000000000000000000000000000000000000000000082160315612e4e57612e0f63df2d9b4260e01b612253565b5b612d51565b5f7c010000000000000000000000000000000000000000000000000000000082160315612e4e575b612e4d63df2d9b4260e01b612253565b5b919050565b73__$eabcc97f142f9a0ca4e3cab5476d105c2d$__63a05cc5596040518163ffffffff1660e01b8152600401612e8890615129565b5f6040518083038186803b158015612e9e575f5ffd5b505af4158015612eb0573d5f5f3e3d5ffd5b5050505073__$eabcc97f142f9a0ca4e3cab5476d105c2d$__63821abc2d6040518163ffffffff1660e01b8152600401612ee9906151dd565b5f6040518083038186803b158015612eff575f5ffd5b505af4158015612f11573d5f5f3e3d5ffd5b5050505073__$eabcc97f142f9a0ca4e3cab5476d105c2d$__63854f9db97fdfb96c060b2e58f09345a394fd8e994a6e7ac3539cdd256304c6e181a216752e6040518263ffffffff1660e01b8152600401612f6c919061523f565b5f6040518083038186803b158015612f82575f5ffd5b505af4158015612f94573d5f5f3e3d5ffd5b5050505073__$eabcc97f142f9a0ca4e3cab5476d105c2d$__6339b37ab060916040518263ffffffff1660e01b8152600401612fd0919061529a565b5f6040518083038186803b158015612fe6575f5ffd5b505af4158015612ff8573d5f5f3e3d5ffd5b5050505073__$eabcc97f142f9a0ca4e3cab5476d105c2d$__635b43bc99836040518263ffffffff1660e01b815260040161303391906152b3565b5f6040518083038186803b158015613049575f5ffd5b505af415801561305b573d5f5f3e3d5ffd5b5050505073__$eabcc97f142f9a0ca4e3cab5476d105c2d$__6341bb0559826040518263ffffffff1660e01b815260040161309691906152b3565b5f6040518083038186803b1580156130ac575f5ffd5b505af41580156130be573d5f5f3e3d5ffd5b5050505073__$eabcc97f142f9a0ca4e3cab5476d105c2d$__63345e7b286104b06040518263ffffffff1660e01b81526004016130fb919061530c565b5f6040518083038186803b158015613111575f5ffd5b505af4158015613123573d5f5f3e3d5ffd5b5050505073__$eabcc97f142f9a0ca4e3cab5476d105c2d$__6332b07b436104b06040518263ffffffff1660e01b8152600401613160919061530c565b5f6040518083038186803b158015613176575f5ffd5b505af4158015613188573d5f5f3e3d5ffd5b505050505050565b5f33905090565b5f8373ffffffffffffffffffffffffffffffffffffffff1663150b7a026131bc613190565b8786866040518563ffffffff1660e01b81526004016131de9493929190615377565b6020604051808303815f875af192505050801561321957506040513d601f19601f8201168201806040525081019061321691906153d5565b60015b61326e573d805f8114613247576040519150601f19603f3d011682016040523d82523d5f602084013e61324c565b606091505b505f8151036132665761326563d1a57ed660e01b612253565b5b805181602001fd5b63150b7a0260e01b7bffffffffffffffffffffffffffffffffffffffffffffffffffffffff1916817bffffffffffffffffffffffffffffffffffffffffffffffffffffffff191614915050949350505050565b606060405180602001604052805f815250905090565b60606132e28261207f565b6132f7576132f663a14c4b5060e01b612253565b5b5f6133006132c1565b90505f81510361331e5760405180602001604052805f815250613349565b80613328846138d8565b604051602001613339929190614dd3565b6040516020818303038152906040525b915050919050565b5f7c0100000000000000000000000000000000000000000000000000000000821673ffffffffffffffffffffffffffffffffffffffff8316119050919050565b5f5f600173__$eabcc97f142f9a0ca4e3cab5476d105c2d$__63a7cc0136856040518263ffffffff1660e01b81526004016133cc9190614764565b602060405180830381865af41580156133e7573d5f5f3e3d5ffd5b505050506040513d601f19601f8201168201806040525081019061340b91906147ce565b5f015191509150915091565b5f73ffffffffffffffffffffffffffffffffffffffff8316925073ffffffffffffffffffffffffffffffffffffffff821691508382148383141790509392505050565b50505050565b5f5f60e883901c905060e8613476868684613927565b62ffffff16901b9150509392505050565b5f73ffffffffffffffffffffffffffffffffffffffff83169250814260a01b178317905092915050565b50505050565b73__$eabcc97f142f9a0ca4e3cab5476d105c2d$__63dbe0b21c826040518263ffffffff1660e01b81526004016134ee9190614764565b5f6040518083038186803b158015613504575f5ffd5b505af4158015613516573d5f5f3e3d5ffd5b5050505050565b73__$eabcc97f142f9a0ca4e3cab5476d105c2d$__63071bc71c8383613542866118d4565b6040518463ffffffff1660e01b815260040161356093929190615400565b5f6040518083038186803b158015613576575f5ffd5b505af4158015613588573d5f5f3e3d5ffd5b505050505050565b73__$eabcc97f142f9a0ca4e3cab5476d105c2d$__6340e02f5c826040518263ffffffff1660e01b81526004016135c79190614764565b5f6040518083038186803b1580156135dd575f5ffd5b505af41580156135ef573d5f5f3e3d5ffd5b5050505050565b73__$eabcc97f142f9a0ca4e3cab5476d105c2d$__634f4979ed8383600161361d876118d4565b6136279190615435565b6040518463ffffffff1660e01b815260040161364593929190615400565b5f6040518083038186803b15801561365b575f5ffd5b505af415801561366d573d5f5f3e3d5ffd5b505050505050565b5f5f8290505f5f90505b84518110156136bb576136ac8286838151811061369f5761369e615468565b5b602002602001015161392f565b9150808060010191505061367f565b508091505092915050565b6136d08383613959565b5f8373ffffffffffffffffffffffffffffffffffffffff163b14613809575f73__$eabcc97f142f9a0ca4e3cab5476d105c2d$__639451c99a6040518163ffffffff1660e01b8152600401602060405180830381865af4158015613736573d5f5f3e3d5ffd5b505050506040513d601f19601f8201168201806040525081019061375a91906148a0565b90505f83820390505b6137755f868380600101945086613197565b61378a5761378963d1a57ed660e01b612253565b5b818110613763578173__$eabcc97f142f9a0ca4e3cab5476d105c2d$__639451c99a6040518163ffffffff1660e01b8152600401602060405180830381865af41580156137d9573d5f5f3e3d5ffd5b505050506040513d601f19601f820116820180604052508101906137fd91906148a0565b14613806575f5ffd5b50505b505050565b60605f600161381c84613c74565b0190505f8167ffffffffffffffff81111561383a5761383961408a565b5b6040519080825280601f01601f19166020018201604052801561386c5781602001600182028036833780820191505090505b5090505f82602001820190505b6001156138cd578080600190039150507f3031323334353637383961626364656600000000000000000000000000000000600a86061a8153600a85816138c2576138c1615495565b5b0494505f8503613879575b819350505050919050565b606060a060405101806040526020810391505f825281835b60011561391257600184039350600a81066030018453600a81049050806138f0575b50828103602084039350808452505050919050565b5f9392505050565b5f818310613946576139418284613dc5565b613951565b6139508383613dc5565b5b905092915050565b5f73__$eabcc97f142f9a0ca4e3cab5476d105c2d$__639451c99a6040518163ffffffff1660e01b8152600401602060405180830381865af41580156139a1573d5f5f3e3d5ffd5b505050506040513d601f19601f820116820180604052508101906139c591906148a0565b90505f82036139df576139de63b562e8dd60e01b612253565b5b6139eb5f84838561345a565b73__$eabcc97f142f9a0ca4e3cab5476d105c2d$__63e68fdee182613a2486613a155f895f613460565b613a1e88613dd9565b17613487565b6040518363ffffffff1660e01b8152600401613a41929190614efe565b5f6040518083038186803b158015613a57575f5ffd5b505af4158015613a69573d5f5f3e3d5ffd5b5050505073__$eabcc97f142f9a0ca4e3cab5476d105c2d$__63a330117384600160406001901b17850273__$eabcc97f142f9a0ca4e3cab5476d105c2d$__6321b0ed7d886040518263ffffffff1660e01b8152600401613aca9190614a53565b602060405180830381865af4158015613ae5573d5f5f3e3d5ffd5b505050506040513d601f19601f82011682018060405250810190613b0991906148a0565b016040518363ffffffff1660e01b8152600401613b27929190614cdf565b5f6040518083038186803b158015613b3d575f5ffd5b505af4158015613b4f573d5f5f3e3d5ffd5b505050505f73ffffffffffffffffffffffffffffffffffffffff8473ffffffffffffffffffffffffffffffffffffffff161690505f8103613b9b57613b9a632e07630060e01b612253565b5b5f83830190505f839050613bad612448565b600183031115613bc857613bc76381647e3a60e01b612253565b5b5b80835f7fddf252ad1be2c89b69c2b068fc378daa952ba7f163c4a11628f55a4df523b3ef5f5fa4818160010191508103613bc95773__$eabcc97f142f9a0ca4e3cab5476d105c2d$__63345e7b28836040518263ffffffff1660e01b8152600401613c349190614764565b5f6040518083038186803b158015613c4a575f5ffd5b505af4158015613c5c573d5f5f3e3d5ffd5b50505050505050613c6f5f8483856134b1565b505050565b5f5f5f90507a184f03e93ff9f4daa797ed6e38ed64bf6a1f0100000000000000008310613cd0577a184f03e93ff9f4daa797ed6e38ed64bf6a1f0100000000000000008381613cc657613cc5615495565b5b0492506040810190505b6d04ee2d6d415b85acef81000000008310613d0d576d04ee2d6d415b85acef81000000008381613d0357613d02615495565b5b0492506020810190505b662386f26fc100008310613d3c57662386f26fc100008381613d3257613d31615495565b5b0492506010810190505b6305f5e1008310613d65576305f5e1008381613d5b57613d5a615495565b5b0492506008810190505b6127108310613d8a576127108381613d8057613d7f615495565b5b0492506004810190505b60648310613dad5760648381613da357613da2615495565b5b0492506002810190505b600a8310613dbc576001810190505b80915050919050565b5f825f528160205260405f20905092915050565b5f6001821460e11b9050919050565b5f604051905090565b5f5ffd5b5f5ffd5b5f7fffffffff0000000000000000000000000000000000000000000000000000000082169050919050565b613e2d81613df9565b8114613e37575f5ffd5b50565b5f81359050613e4881613e24565b92915050565b5f60208284031215613e6357613e62613df1565b5b5f613e7084828501613e3a565b91505092915050565b5f8115159050919050565b613e8d81613e79565b82525050565b5f602082019050613ea65f830184613e84565b92915050565b5f81519050919050565b5f82825260208201905092915050565b8281835e5f83830152505050565b5f601f19601f8301169050919050565b5f613eee82613eac565b613ef88185613eb6565b9350613f08818560208601613ec6565b613f1181613ed4565b840191505092915050565b5f6020820190508181035f830152613f348184613ee4565b905092915050565b5f819050919050565b613f4e81613f3c565b8114613f58575f5ffd5b50565b5f81359050613f6981613f45565b92915050565b5f60208284031215613f8457613f83613df1565b5b5f613f9184828501613f5b565b91505092915050565b5f73ffffffffffffffffffffffffffffffffffffffff82169050919050565b5f613fc382613f9a565b9050919050565b613fd381613fb9565b82525050565b5f602082019050613fec5f830184613fca565b92915050565b613ffb81613fb9565b8114614005575f5ffd5b50565b5f8135905061401681613ff2565b92915050565b5f5f6040838503121561403257614031613df1565b5b5f61403f85828601614008565b925050602061405085828601613f5b565b9150509250929050565b61406381613f3c565b82525050565b5f60208201905061407c5f83018461405a565b92915050565b5f5ffd5b5f5ffd5b7f4e487b71000000000000000000000000000000000000000000000000000000005f52604160045260245ffd5b6140c082613ed4565b810181811067ffffffffffffffff821117156140df576140de61408a565b5b80604052505050565b5f6140f1613de8565b90506140fd82826140b7565b919050565b5f67ffffffffffffffff82111561411c5761411b61408a565b5b61412582613ed4565b9050602081019050919050565b828183375f83830152505050565b5f61415261414d84614102565b6140e8565b90508281526020810184848401111561416e5761416d614086565b5b614179848285614132565b509392505050565b5f82601f83011261419557614194614082565b5b81356141a5848260208601614140565b91505092915050565b5f5f5f5f608085870312156141c6576141c5613df1565b5b5f6141d387828801614008565b94505060206141e487828801614008565b93505060406141f587828801613f5b565b925050606085013567ffffffffffffffff81111561421657614215613df5565b5b61422287828801614181565b91505092959194509250565b61423781613df9565b82525050565b5f6020820190506142505f83018461422e565b92915050565b5f5ffd5b5f5ffd5b5f5f83601f84011261427357614272614082565b5b8235905067ffffffffffffffff8111156142905761428f614256565b5b6020830191508360018202830111156142ac576142ab61425a565b5b9250929050565b5f5f5f604084860312156142ca576142c9613df1565b5b5f6142d786828701613f5b565b935050602084013567ffffffffffffffff8111156142f8576142f7613df5565b5b6143048682870161425e565b92509250509250925092565b5f5f5f6060848603121561432757614326613df1565b5b5f61433486828701614008565b935050602061434586828701614008565b925050604061435686828701613f5b565b9150509250925092565b5f819050919050565b61437281614360565b811461437c575f5ffd5b50565b5f8135905061438d81614369565b92915050565b5f602082840312156143a8576143a7613df1565b5b5f6143b58482850161437f565b91505092915050565b5f5f83601f8401126143d3576143d2614082565b5b8235905067ffffffffffffffff8111156143f0576143ef614256565b5b60208301915083602082028301111561440c5761440b61425a565b5b9250929050565b5f5f5f6040848603121561442a57614429613df1565b5b5f61443786828701614008565b935050602084013567ffffffffffffffff81111561445857614457613df5565b5b614464868287016143be565b92509250509250925092565b5f5f6020838503121561448657614485613df1565b5b5f83013567ffffffffffffffff8111156144a3576144a2613df5565b5b6144af8582860161425e565b92509250509250929050565b5f67ffffffffffffffff8211156144d5576144d461408a565b5b6144de82613ed4565b9050602081019050919050565b5f6144fd6144f8846144bb565b6140e8565b90508281526020810184848401111561451957614518614086565b5b614524848285614132565b509392505050565b5f82601f8301126145405761453f614082565b5b81356145508482602086016144eb565b91505092915050565b5f5f6040838503121561456f5761456e613df1565b5b5f83013567ffffffffffffffff81111561458c5761458b613df5565b5b6145988582860161452c565b925050602083013567ffffffffffffffff8111156145b9576145b8613df5565b5b6145c58582860161452c565b9150509250929050565b5f602082840312156145e4576145e3613df1565b5b5f6145f184828501614008565b91505092915050565b61460381613e79565b811461460d575f5ffd5b50565b5f8135905061461e816145fa565b92915050565b5f5f6040838503121561463a57614639613df1565b5b5f61464785828601614008565b925050602061465885828601614610565b9150509250929050565b5f5f6040838503121561467857614677613df1565b5b5f61468585828601614008565b925050602061469685828601614008565b9150509250929050565b5f6146b26146ad846144bb565b6140e8565b9050828152602081018484840111156146ce576146cd614086565b5b6146d9848285613ec6565b509392505050565b5f82601f8301126146f5576146f4614082565b5b81516147058482602086016146a0565b91505092915050565b5f6020828403121561472357614722613df1565b5b5f82015167ffffffffffffffff8111156147405761473f613df5565b5b61474c848285016146e1565b91505092915050565b61475e81613f3c565b82525050565b5f6020820190506147775f830184614755565b92915050565b5f5ffd5b5f8151905061478f81613ff2565b92915050565b5f602082840312156147aa576147a961477d565b5b6147b460206140e8565b90505f6147c384828501614781565b5f8301525092915050565b5f602082840312156147e3576147e2613df1565b5b5f6147f084828501614795565b91505092915050565b5f6020828403121561480e5761480d613df1565b5b5f61481b84828501614781565b91505092915050565b7f596f7520617265206e6f7420616e206f776e65720000000000000000000000005f82015250565b5f614858601483613eb6565b915061486382614824565b602082019050919050565b5f6020820190508181035f8301526148858161484c565b9050919050565b5f8151905061489a81613f45565b92915050565b5f602082840312156148b5576148b4613df1565b5b5f6148c28482850161488c565b91505092915050565b5f81905092915050565b50565b5f6148e35f836148cb565b91506148ee826148d5565b5f82019050919050565b5f614902826148d8565b9150819050919050565b7f5472616e73666572206661696c65642e000000000000000000000000000000005f82015250565b5f614940601083613eb6565b915061494b8261490c565b602082019050919050565b5f6020820190508181035f83015261496d81614934565b9050919050565b7f4572726f7220616c6c6f63202d2069642066726f6d2067656e657369730000005f82015250565b5f6149a8601d83613eb6565b91506149b382614974565b602082019050919050565b5f6020820190508181035f8301526149d58161499c565b9050919050565b7f45786365656420616c6c6f6300000000000000000000000000000000000000005f82015250565b5f614a10600c83613eb6565b9150614a1b826149dc565b602082019050919050565b5f6020820190508181035f830152614a3d81614a04565b9050919050565b614a4d81613fb9565b82525050565b5f602082019050614a665f830184614a44565b92915050565b5f81519050614a7a816145fa565b92915050565b5f60208284031215614a9557614a94613df1565b5b5f614aa284828501614a6c565b91505092915050565b7f416c7265616479206d696e7465640000000000000000000000000000000000005f82015250565b5f614adf600e83613eb6565b9150614aea82614aab565b602082019050919050565b5f6020820190508181035f830152614b0c81614ad3565b9050919050565b7f4e6f74206d6174636820707269636500000000000000000000000000000000005f82015250565b5f614b47600f83613eb6565b9150614b5282614b13565b602082019050919050565b5f6020820190508181035f830152614b7481614b3b565b9050919050565b5f8160601b9050919050565b5f614b9182614b7b565b9050919050565b5f614ba282614b87565b9050919050565b614bba614bb582613fb9565b614b98565b82525050565b5f614bcb8284614ba9565b60148201915081905092915050565b5f81519050614be881614369565b92915050565b5f60208284031215614c0357614c02613df1565b5b5f614c1084828501614bda565b91505092915050565b7f4e6f7420696e206d65726b6c65000000000000000000000000000000000000005f82015250565b5f614c4d600d83613eb6565b9150614c5882614c19565b602082019050919050565b5f6020820190508181035f830152614c7a81614c41565b9050919050565b614c8a81613e79565b82525050565b5f604082019050614ca35f830185614a44565b614cb06020830184614c81565b9392505050565b614cc081614360565b82525050565b5f602082019050614cd95f830184614cb7565b92915050565b5f604082019050614cf25f830185614a44565b614cff6020830184614755565b9392505050565b5f82825260208201905092915050565b5f614d218385614d06565b9350614d2e838584614132565b614d3783613ed4565b840190509392505050565b5f6020820190508181035f830152614d5b818486614d16565b90509392505050565b5f606082019050614d775f830186614a44565b614d846020830185614a44565b614d916040830184614c81565b949350505050565b5f81905092915050565b5f614dad82613eac565b614db78185614d99565b9350614dc7818560208601613ec6565b80840191505092915050565b5f614dde8285614da3565b9150614dea8284614da3565b91508190509392505050565b5f604082019050614e095f830185614a44565b614e166020830184614a44565b9392505050565b7f4e487b71000000000000000000000000000000000000000000000000000000005f52601160045260245ffd5b5f614e5482613f3c565b91505f8203614e6657614e65614e1d565b5b600182039050919050565b5f604082019050614e845f830185614755565b614e916020830184614a44565b9392505050565b5f614ea282613eac565b614eac8185614d06565b9350614ebc818560208601613ec6565b614ec581613ed4565b840191505092915050565b5f6040820190508181035f830152614ee88185614e98565b9050614ef76020830184614755565b9392505050565b5f604082019050614f115f830185614755565b614f1e6020830184614755565b9392505050565b7f5265656e7472616e637947756172643a207265656e7472616e742063616c6c005f82015250565b5f614f59601f83613eb6565b9150614f6482614f25565b602082019050919050565b5f6020820190508181035f830152614f8681614f4d565b9050919050565b7f4552433732314d657461646174613a2055524920717565727920666f72206e6f5f8201527f6e6578697374656e7420746f6b656e0000000000000000000000000000000000602082015250565b5f614fe7602f83613eb6565b9150614ff282614f8d565b604082019050919050565b5f6020820190508181035f83015261501481614fdb565b9050919050565b7f2e6a736f6e0000000000000000000000000000000000000000000000000000005f82015250565b5f61504f600583614d99565b915061505a8261501b565b600582019050919050565b5f6150708285614da3565b915061507c8284614da3565b915061508782615043565b91508190509392505050565b7f68747470733a2f2f697066732e737765622e72752f697066732f516d62704e395f8201527f716578677a6e6b705445516d7264786e53665759434441624c6b42786d35764160208201527f4337316a7a52786f2f0000000000000000000000000000000000000000000000604082015250565b5f615113604983614d06565b915061511e82615093565b606082019050919050565b5f6020820190508181035f83015261514081615107565b9050919050565b7f68747470733a2f2f697066732e737765622e72752f697066732f516d595262535f8201527f4d3251617a47623551486f676f64714a666f505661536962333274745570764e60208201527f6b794a4b666858552f3f66696c656e616d653d736d65616d622e6a736f6e0000604082015250565b5f6151c7605e83614d06565b91506151d282615147565b606082019050919050565b5f6020820190508181035f8301526151f4816151bb565b9050919050565b5f819050919050565b5f815f1b9050919050565b5f61522961522461521f846151fb565b615204565b614360565b9050919050565b6152398161520f565b82525050565b5f6020820190506152525f830184615230565b92915050565b5f819050919050565b5f819050919050565b5f61528461527f61527a84615258565b615261565b613f3c565b9050919050565b6152948161526a565b82525050565b5f6020820190506152ad5f83018461528b565b92915050565b5f6020820190508181035f8301526152cb8184614e98565b905092915050565b5f819050919050565b5f6152f66152f16152ec846152d3565b615261565b613f3c565b9050919050565b615306816152dc565b82525050565b5f60208201905061531f5f8301846152fd565b92915050565b5f81519050919050565b5f82825260208201905092915050565b5f61534982615325565b615353818561532f565b9350615363818560208601613ec6565b61536c81613ed4565b840191505092915050565b5f60808201905061538a5f830187613fca565b6153976020830186613fca565b6153a4604083018561405a565b81810360608301526153b6818461533f565b905095945050505050565b5f815190506153cf81613e24565b92915050565b5f602082840312156153ea576153e9613df1565b5b5f6153f7848285016153c1565b91505092915050565b5f6060820190506154135f830186614a44565b6154206020830185614755565b61542d6040830184614755565b949350505050565b5f61543f82613f3c565b915061544a83613f3c565b925082820390508181111561546257615461614e1d565b5b92915050565b7f4e487b71000000000000000000000000000000000000000000000000000000005f52603260045260245ffd5b7f4e487b71000000000000000000000000000000000000000000000000000000005f52601260045260245ffdfea264697066735822122012bc04599a7958110ed09e351e723870515f7354a830eec3ddee412ef8f04dc864736f6c634300081e0033",
			"opcodes": "PUSH1 0xA0 PUSH1 0x40 MSTORE PUSH2 0x16 PUSH1 0x1 PUSH0 PUSH0 PUSH2 0x1E8 PUSH1 0x20 SHL PUSH1 0x20 SHR JUMP JUMPDEST PUSH1 0x80 SWAP1 DUP2 MSTORE POP CALLVALUE DUP1 ISZERO PUSH2 0x27 JUMPI PUSH0 PUSH0 REVERT JUMPDEST POP PUSH1 0x40 MLOAD PUSH2 0x61F2 CODESIZE SUB DUP1 PUSH2 0x61F2 DUP4 CODECOPY DUP2 DUP2 ADD PUSH1 0x40 MSTORE DUP2 ADD SWAP1 PUSH2 0x49 SWAP2 SWAP1 PUSH2 0x84F JUMP JUMPDEST DUP2 DUP2 PUSH20 0x0 PUSH4 0x5B43BC99 DUP4 PUSH1 0x40 MLOAD DUP3 PUSH4 0xFFFFFFFF AND PUSH1 0xE0 SHL DUP2 MSTORE PUSH1 0x4 ADD PUSH2 0x82 SWAP2 SWAP1 PUSH2 0x917 JUMP JUMPDEST PUSH0 PUSH1 0x40 MLOAD DUP1 DUP4 SUB DUP2 DUP7 DUP1 EXTCODESIZE ISZERO DUP1 ISZERO PUSH2 0x98 JUMPI PUSH0 PUSH0 REVERT JUMPDEST POP GAS DELEGATECALL ISZERO DUP1 ISZERO PUSH2 0xAA JUMPI RETURNDATASIZE PUSH0 PUSH0 RETURNDATACOPY RETURNDATASIZE PUSH0 REVERT JUMPDEST POP POP POP POP PUSH20 0x0 PUSH4 0x41BB0559 DUP3 PUSH1 0x40 MLOAD DUP3 PUSH4 0xFFFFFFFF AND PUSH1 0xE0 SHL DUP2 MSTORE PUSH1 0x4 ADD PUSH2 0xE5 SWAP2 SWAP1 PUSH2 0x917 JUMP JUMPDEST PUSH0 PUSH1 0x40 MLOAD DUP1 DUP4 SUB DUP2 DUP7 DUP1 EXTCODESIZE ISZERO DUP1 ISZERO PUSH2 0xFB JUMPI PUSH0 PUSH0 REVERT JUMPDEST POP GAS DELEGATECALL ISZERO DUP1 ISZERO PUSH2 0x10D JUMPI RETURNDATASIZE PUSH0 PUSH0 RETURNDATACOPY RETURNDATASIZE PUSH0 REVERT JUMPDEST POP POP POP POP PUSH20 0x0 PUSH4 0x345E7B28 PUSH2 0x139 PUSH2 0x211 PUSH1 0x20 SHL PUSH1 0x20 SHR JUMP JUMPDEST PUSH1 0x40 MLOAD DUP3 PUSH4 0xFFFFFFFF AND PUSH1 0xE0 SHL DUP2 MSTORE PUSH1 0x4 ADD PUSH2 0x155 SWAP2 SWAP1 PUSH2 0x94F JUMP JUMPDEST PUSH0 PUSH1 0x40 MLOAD DUP1 DUP4 SUB DUP2 DUP7 DUP1 EXTCODESIZE ISZERO DUP1 ISZERO PUSH2 0x16B JUMPI PUSH0 PUSH0 REVERT JUMPDEST POP GAS DELEGATECALL ISZERO DUP1 ISZERO PUSH2 0x17D JUMPI RETURNDATASIZE PUSH0 PUSH0 RETURNDATACOPY RETURNDATASIZE PUSH0 REVERT JUMPDEST POP POP POP POP PUSH2 0x18F PUSH2 0x211 PUSH1 0x20 SHL PUSH1 0x20 SHR JUMP JUMPDEST PUSH2 0x19D PUSH2 0x219 PUSH1 0x20 SHL PUSH1 0x20 SHR JUMP JUMPDEST LT ISZERO PUSH2 0x1BA JUMPI PUSH2 0x1B9 PUSH4 0xFED8210F PUSH1 0xE0 SHL PUSH2 0x240 PUSH1 0x20 SHL PUSH1 0x20 SHR JUMP JUMPDEST JUMPDEST POP POP PUSH1 0x1 PUSH0 DUP2 SWAP1 SSTORE POP PUSH2 0x1D1 PUSH2 0x248 PUSH1 0x20 SHL PUSH1 0x20 SHR JUMP JUMPDEST PUSH2 0x1E1 DUP3 DUP3 PUSH2 0x3BE PUSH1 0x20 SHL PUSH1 0x20 SHR JUMP JUMPDEST POP POP PUSH2 0xCE2 JUMP JUMPDEST PUSH0 DUP2 PUSH4 0xFFFFFFFF AND PUSH1 0x20 DUP5 PUSH4 0xFFFFFFFF AND SWAP1 SHL PUSH1 0x40 DUP7 PUSH4 0xFFFFFFFF AND SWAP1 SHL OR OR SWAP1 POP SWAP4 SWAP3 POP POP POP JUMP JUMPDEST PUSH0 PUSH1 0x1 SWAP1 POP SWAP1 JUMP JUMPDEST PUSH0 PUSH32 0xFFFFFFFFFFFFFFFFFFFFFFFFFFFFFFFFFFFFFFFFFFFFFFFFFFFFFFFFFFFFFFFF SWAP1 POP SWAP1 JUMP JUMPDEST DUP1 PUSH0 MSTORE PUSH1 0x4 PUSH0 REVERT JUMPDEST PUSH0 PUSH20 0xFFFFFFFFFFFFFFFFFFFFFFFFFFFFFFFFFFFFFFFF AND PUSH20 0x0 PUSH4 0x893D20E8 PUSH1 0x40 MLOAD DUP2 PUSH4 0xFFFFFFFF AND PUSH1 0xE0 SHL DUP2 MSTORE PUSH1 0x4 ADD PUSH1 0x20 PUSH1 0x40 MLOAD DUP1 DUP4 SUB DUP2 DUP7 GAS DELEGATECALL ISZERO DUP1 ISZERO PUSH2 0x2A6 JUMPI RETURNDATASIZE PUSH0 PUSH0 RETURNDATACOPY RETURNDATASIZE PUSH0 REVERT JUMPDEST POP POP POP POP PUSH1 0x40 MLOAD RETURNDATASIZE PUSH1 0x1F NOT PUSH1 0x1F DUP3 ADD AND DUP3 ADD DUP1 PUSH1 0x40 MSTORE POP DUP2 ADD SWAP1 PUSH2 0x2CA SWAP2 SWAP1 PUSH2 0x9C2 JUMP JUMPDEST PUSH20 0xFFFFFFFFFFFFFFFFFFFFFFFFFFFFFFFFFFFFFFFF AND SUB PUSH2 0x3BC JUMPI PUSH20 0x0 PUSH4 0x592BD705 PUSH2 0x30D PUSH2 0x6FB PUSH1 0x20 SHL PUSH1 0x20 SHR JUMP JUMPDEST PUSH1 0x40 MLOAD DUP3 PUSH4 0xFFFFFFFF AND PUSH1 0xE0 SHL DUP2 MSTORE PUSH1 0x4 ADD PUSH2 0x329 SWAP2 SWAP1 PUSH2 0x9FC JUMP JUMPDEST PUSH0 PUSH1 0x40 MLOAD DUP1 DUP4 SUB DUP2 DUP7 DUP1 EXTCODESIZE ISZERO DUP1 ISZERO PUSH2 0x33F JUMPI PUSH0 PUSH0 REVERT JUMPDEST POP GAS DELEGATECALL ISZERO DUP1 ISZERO PUSH2 0x351 JUMPI RETURNDATASIZE PUSH0 PUSH0 RETURNDATACOPY RETURNDATASIZE PUSH0 REVERT JUMPDEST POP POP POP POP PUSH20 0x0 PUSH4 0xF2F65960 PUSH3 0x93A80 PUSH1 0x40 MLOAD DUP3 PUSH4 0xFFFFFFFF AND PUSH1 0xE0 SHL DUP2 MSTORE PUSH1 0x4 ADD PUSH2 0x38F SWAP2 SWAP1 PUSH2 0xA57 JUMP JUMPDEST PUSH0 PUSH1 0x40 MLOAD DUP1 DUP4 SUB DUP2 DUP7 DUP1 EXTCODESIZE ISZERO DUP1 ISZERO PUSH2 0x3A5 JUMPI PUSH0 PUSH0 REVERT JUMPDEST POP GAS DELEGATECALL ISZERO DUP1 ISZERO PUSH2 0x3B7 JUMPI RETURNDATASIZE PUSH0 PUSH0 RETURNDATACOPY RETURNDATASIZE PUSH0 REVERT JUMPDEST POP POP POP POP JUMPDEST JUMP JUMPDEST PUSH20 0x0 PUSH4 0xA05CC559 PUSH1 0x40 MLOAD DUP2 PUSH4 0xFFFFFFFF AND PUSH1 0xE0 SHL DUP2 MSTORE PUSH1 0x4 ADD PUSH2 0x3F3 SWAP1 PUSH2 0xB06 JUMP JUMPDEST PUSH0 PUSH1 0x40 MLOAD DUP1 DUP4 SUB DUP2 DUP7 DUP1 EXTCODESIZE ISZERO DUP1 ISZERO PUSH2 0x409 JUMPI PUSH0 PUSH0 REVERT JUMPDEST POP GAS DELEGATECALL ISZERO DUP1 ISZERO PUSH2 0x41B JUMPI RETURNDATASIZE PUSH0 PUSH0 RETURNDATACOPY RETURNDATASIZE PUSH0 REVERT JUMPDEST POP POP POP POP PUSH20 0x0 PUSH4 0x821ABC2D PUSH1 0x40 MLOAD DUP2 PUSH4 0xFFFFFFFF AND PUSH1 0xE0 SHL DUP2 MSTORE PUSH1 0x4 ADD PUSH2 0x454 SWAP1 PUSH2 0xBBA JUMP JUMPDEST PUSH0 PUSH1 0x40 MLOAD DUP1 DUP4 SUB DUP2 DUP7 DUP1 EXTCODESIZE ISZERO DUP1 ISZERO PUSH2 0x46A JUMPI PUSH0 PUSH0 REVERT JUMPDEST POP GAS DELEGATECALL ISZERO DUP1 ISZERO PUSH2 0x47C JUMPI RETURNDATASIZE PUSH0 PUSH0 RETURNDATACOPY RETURNDATASIZE PUSH0 REVERT JUMPDEST POP POP POP POP PUSH20 0x0 PUSH4 0x854F9DB9 PUSH32 0xDFB96C060B2E58F09345A394FD8E994A6E7AC3539CDD256304C6E181A216752E PUSH1 0x40 MLOAD DUP3 PUSH4 0xFFFFFFFF AND PUSH1 0xE0 SHL DUP2 MSTORE PUSH1 0x4 ADD PUSH2 0x4D7 SWAP2 SWAP1 PUSH2 0xC25 JUMP JUMPDEST PUSH0 PUSH1 0x40 MLOAD DUP1 DUP4 SUB DUP2 DUP7 DUP1 EXTCODESIZE ISZERO DUP1 ISZERO PUSH2 0x4ED JUMPI PUSH0 PUSH0 REVERT JUMPDEST POP GAS DELEGATECALL ISZERO DUP1 ISZERO PUSH2 0x4FF JUMPI RETURNDATASIZE PUSH0 PUSH0 RETURNDATACOPY RETURNDATASIZE PUSH0 REVERT JUMPDEST POP POP POP POP PUSH20 0x0 PUSH4 0x39B37AB0 PUSH1 0x91 PUSH1 0x40 MLOAD DUP3 PUSH4 0xFFFFFFFF AND PUSH1 0xE0 SHL DUP2 MSTORE PUSH1 0x4 ADD PUSH2 0x53B SWAP2 SWAP1 PUSH2 0xC77 JUMP JUMPDEST PUSH0 PUSH1 0x40 MLOAD DUP1 DUP4 SUB DUP2 DUP7 DUP1 EXTCODESIZE ISZERO DUP1 ISZERO PUSH2 0x551 JUMPI PUSH0 PUSH0 REVERT JUMPDEST POP GAS DELEGATECALL ISZERO DUP1 ISZERO PUSH2 0x563 JUMPI RETURNDATASIZE PUSH0 PUSH0 RETURNDATACOPY RETURNDATASIZE PUSH0 REVERT JUMPDEST POP POP POP POP PUSH20 0x0 PUSH4 0x5B43BC99 DUP4 PUSH1 0x40 MLOAD DUP3 PUSH4 0xFFFFFFFF AND PUSH1 0xE0 SHL DUP2 MSTORE PUSH1 0x4 ADD PUSH2 0x59E SWAP2 SWAP1 PUSH2 0x917 JUMP JUMPDEST PUSH0 PUSH1 0x40 MLOAD DUP1 DUP4 SUB DUP2 DUP7 DUP1 EXTCODESIZE ISZERO DUP1 ISZERO PUSH2 0x5B4 JUMPI PUSH0 PUSH0 REVERT JUMPDEST POP GAS DELEGATECALL ISZERO DUP1 ISZERO PUSH2 0x5C6 JUMPI RETURNDATASIZE PUSH0 PUSH0 RETURNDATACOPY RETURNDATASIZE PUSH0 REVERT JUMPDEST POP POP POP POP PUSH20 0x0 PUSH4 0x41BB0559 DUP3 PUSH1 0x40 MLOAD DUP3 PUSH4 0xFFFFFFFF AND PUSH1 0xE0 SHL DUP2 MSTORE PUSH1 0x4 ADD PUSH2 0x601 SWAP2 SWAP1 PUSH2 0x917 JUMP JUMPDEST PUSH0 PUSH1 0x40 MLOAD DUP1 DUP4 SUB DUP2 DUP7 DUP1 EXTCODESIZE ISZERO DUP1 ISZERO PUSH2 0x617 JUMPI PUSH0 PUSH0 REVERT JUMPDEST POP GAS DELEGATECALL ISZERO DUP1 ISZERO PUSH2 0x629 JUMPI RETURNDATASIZE PUSH0 PUSH0 RETURNDATACOPY RETURNDATASIZE PUSH0 REVERT JUMPDEST POP POP POP POP PUSH20 0x0 PUSH4 0x345E7B28 PUSH2 0x4B0 PUSH1 0x40 MLOAD DUP3 PUSH4 0xFFFFFFFF AND PUSH1 0xE0 SHL DUP2 MSTORE PUSH1 0x4 ADD PUSH2 0x666 SWAP2 SWAP1 PUSH2 0xCC9 JUMP JUMPDEST PUSH0 PUSH1 0x40 MLOAD DUP1 DUP4 SUB DUP2 DUP7 DUP1 EXTCODESIZE ISZERO DUP1 ISZERO PUSH2 0x67C JUMPI PUSH0 PUSH0 REVERT JUMPDEST POP GAS DELEGATECALL ISZERO DUP1 ISZERO PUSH2 0x68E JUMPI RETURNDATASIZE PUSH0 PUSH0 RETURNDATACOPY RETURNDATASIZE PUSH0 REVERT JUMPDEST POP POP POP POP PUSH20 0x0 PUSH4 0x32B07B43 PUSH2 0x4B0 PUSH1 0x40 MLOAD DUP3 PUSH4 0xFFFFFFFF AND PUSH1 0xE0 SHL DUP2 MSTORE PUSH1 0x4 ADD PUSH2 0x6CB SWAP2 SWAP1 PUSH2 0xCC9 JUMP JUMPDEST PUSH0 PUSH1 0x40 MLOAD DUP1 DUP4 SUB DUP2 DUP7 DUP1 EXTCODESIZE ISZERO DUP1 ISZERO PUSH2 0x6E1 JUMPI PUSH0 PUSH0 REVERT JUMPDEST POP GAS DELEGATECALL ISZERO DUP1 ISZERO PUSH2 0x6F3 JUMPI RETURNDATASIZE PUSH0 PUSH0 RETURNDATACOPY RETURNDATASIZE PUSH0 REVERT JUMPDEST POP POP POP POP POP POP JUMP JUMPDEST PUSH0 CALLER SWAP1 POP SWAP1 JUMP JUMPDEST PUSH0 PUSH1 0x40 MLOAD SWAP1 POP SWAP1 JUMP JUMPDEST PUSH0 PUSH0 REVERT JUMPDEST PUSH0 PUSH0 REVERT JUMPDEST PUSH0 PUSH0 REVERT JUMPDEST PUSH0 PUSH0 REVERT JUMPDEST PUSH0 PUSH1 0x1F NOT PUSH1 0x1F DUP4 ADD AND SWAP1 POP SWAP2 SWAP1 POP JUMP JUMPDEST PUSH32 0x4E487B7100000000000000000000000000000000000000000000000000000000 PUSH0 MSTORE PUSH1 0x41 PUSH1 0x4 MSTORE PUSH1 0x24 PUSH0 REVERT JUMPDEST PUSH2 0x761 DUP3 PUSH2 0x71B JUMP JUMPDEST DUP2 ADD DUP2 DUP2 LT PUSH8 0xFFFFFFFFFFFFFFFF DUP3 GT OR ISZERO PUSH2 0x780 JUMPI PUSH2 0x77F PUSH2 0x72B JUMP JUMPDEST JUMPDEST DUP1 PUSH1 0x40 MSTORE POP POP POP JUMP JUMPDEST PUSH0 PUSH2 0x792 PUSH2 0x702 JUMP JUMPDEST SWAP1 POP PUSH2 0x79E DUP3 DUP3 PUSH2 0x758 JUMP JUMPDEST SWAP2 SWAP1 POP JUMP JUMPDEST PUSH0 PUSH8 0xFFFFFFFFFFFFFFFF DUP3 GT ISZERO PUSH2 0x7BD JUMPI PUSH2 0x7BC PUSH2 0x72B JUMP JUMPDEST JUMPDEST PUSH2 0x7C6 DUP3 PUSH2 0x71B JUMP JUMPDEST SWAP1 POP PUSH1 0x20 DUP2 ADD SWAP1 POP SWAP2 SWAP1 POP JUMP JUMPDEST DUP3 DUP2 DUP4 MCOPY PUSH0 DUP4 DUP4 ADD MSTORE POP POP POP JUMP JUMPDEST PUSH0 PUSH2 0x7F3 PUSH2 0x7EE DUP5 PUSH2 0x7A3 JUMP JUMPDEST PUSH2 0x789 JUMP JUMPDEST SWAP1 POP DUP3 DUP2 MSTORE PUSH1 0x20 DUP2 ADD DUP5 DUP5 DUP5 ADD GT ISZERO PUSH2 0x80F JUMPI PUSH2 0x80E PUSH2 0x717 JUMP JUMPDEST JUMPDEST PUSH2 0x81A DUP5 DUP3 DUP6 PUSH2 0x7D3 JUMP JUMPDEST POP SWAP4 SWAP3 POP POP POP JUMP JUMPDEST PUSH0 DUP3 PUSH1 0x1F DUP4 ADD SLT PUSH2 0x836 JUMPI PUSH2 0x835 PUSH2 0x713 JUMP JUMPDEST JUMPDEST DUP2 MLOAD PUSH2 0x846 DUP5 DUP3 PUSH1 0x20 DUP7 ADD PUSH2 0x7E1 JUMP JUMPDEST SWAP2 POP POP SWAP3 SWAP2 POP POP JUMP JUMPDEST PUSH0 PUSH0 PUSH1 0x40 DUP4 DUP6 SUB SLT ISZERO PUSH2 0x865 JUMPI PUSH2 0x864 PUSH2 0x70B JUMP JUMPDEST JUMPDEST PUSH0 DUP4 ADD MLOAD PUSH8 0xFFFFFFFFFFFFFFFF DUP2 GT ISZERO PUSH2 0x882 JUMPI PUSH2 0x881 PUSH2 0x70F JUMP JUMPDEST JUMPDEST PUSH2 0x88E DUP6 DUP3 DUP7 ADD PUSH2 0x822 JUMP JUMPDEST SWAP3 POP POP PUSH1 0x20 DUP4 ADD MLOAD PUSH8 0xFFFFFFFFFFFFFFFF DUP2 GT ISZERO PUSH2 0x8AF JUMPI PUSH2 0x8AE PUSH2 0x70F JUMP JUMPDEST JUMPDEST PUSH2 0x8BB DUP6 DUP3 DUP7 ADD PUSH2 0x822 JUMP JUMPDEST SWAP2 POP POP SWAP3 POP SWAP3 SWAP1 POP JUMP JUMPDEST PUSH0 DUP2 MLOAD SWAP1 POP SWAP2 SWAP1 POP JUMP JUMPDEST PUSH0 DUP3 DUP3 MSTORE PUSH1 0x20 DUP3 ADD SWAP1 POP SWAP3 SWAP2 POP POP JUMP JUMPDEST PUSH0 PUSH2 0x8E9 DUP3 PUSH2 0x8C5 JUMP JUMPDEST PUSH2 0x8F3 DUP2 DUP6 PUSH2 0x8CF JUMP JUMPDEST SWAP4 POP PUSH2 0x903 DUP2 DUP6 PUSH1 0x20 DUP7 ADD PUSH2 0x7D3 JUMP JUMPDEST PUSH2 0x90C DUP2 PUSH2 0x71B JUMP JUMPDEST DUP5 ADD SWAP2 POP POP SWAP3 SWAP2 POP POP JUMP JUMPDEST PUSH0 PUSH1 0x20 DUP3 ADD SWAP1 POP DUP2 DUP2 SUB PUSH0 DUP4 ADD MSTORE PUSH2 0x92F DUP2 DUP5 PUSH2 0x8DF JUMP JUMPDEST SWAP1 POP SWAP3 SWAP2 POP POP JUMP JUMPDEST PUSH0 DUP2 SWAP1 POP SWAP2 SWAP1 POP JUMP JUMPDEST PUSH2 0x949 DUP2 PUSH2 0x937 JUMP JUMPDEST DUP3 MSTORE POP POP JUMP JUMPDEST PUSH0 PUSH1 0x20 DUP3 ADD SWAP1 POP PUSH2 0x962 PUSH0 DUP4 ADD DUP5 PUSH2 0x940 JUMP JUMPDEST SWAP3 SWAP2 POP POP JUMP JUMPDEST PUSH0 PUSH20 0xFFFFFFFFFFFFFFFFFFFFFFFFFFFFFFFFFFFFFFFF DUP3 AND SWAP1 POP SWAP2 SWAP1 POP JUMP JUMPDEST PUSH0 PUSH2 0x991 DUP3 PUSH2 0x968 JUMP JUMPDEST SWAP1 POP SWAP2 SWAP1 POP JUMP JUMPDEST PUSH2 0x9A1 DUP2 PUSH2 0x987 JUMP JUMPDEST DUP2 EQ PUSH2 0x9AB JUMPI PUSH0 PUSH0 REVERT JUMPDEST POP JUMP JUMPDEST PUSH0 DUP2 MLOAD SWAP1 POP PUSH2 0x9BC DUP2 PUSH2 0x998 JUMP JUMPDEST SWAP3 SWAP2 POP POP JUMP JUMPDEST PUSH0 PUSH1 0x20 DUP3 DUP5 SUB SLT ISZERO PUSH2 0x9D7 JUMPI PUSH2 0x9D6 PUSH2 0x70B JUMP JUMPDEST JUMPDEST PUSH0 PUSH2 0x9E4 DUP5 DUP3 DUP6 ADD PUSH2 0x9AE JUMP JUMPDEST SWAP2 POP POP SWAP3 SWAP2 POP POP JUMP JUMPDEST PUSH2 0x9F6 DUP2 PUSH2 0x987 JUMP JUMPDEST DUP3 MSTORE POP POP JUMP JUMPDEST PUSH0 PUSH1 0x20 DUP3 ADD SWAP1 POP PUSH2 0xA0F PUSH0 DUP4 ADD DUP5 PUSH2 0x9ED JUMP JUMPDEST SWAP3 SWAP2 POP POP JUMP JUMPDEST PUSH0 DUP2 SWAP1 POP SWAP2 SWAP1 POP JUMP JUMPDEST PUSH0 DUP2 SWAP1 POP SWAP2 SWAP1 POP JUMP JUMPDEST PUSH0 PUSH2 0xA41 PUSH2 0xA3C PUSH2 0xA37 DUP5 PUSH2 0xA15 JUMP JUMPDEST PUSH2 0xA1E JUMP JUMPDEST PUSH2 0x937 JUMP JUMPDEST SWAP1 POP SWAP2 SWAP1 POP JUMP JUMPDEST PUSH2 0xA51 DUP2 PUSH2 0xA27 JUMP JUMPDEST DUP3 MSTORE POP POP JUMP JUMPDEST PUSH0 PUSH1 0x20 DUP3 ADD SWAP1 POP PUSH2 0xA6A PUSH0 DUP4 ADD DUP5 PUSH2 0xA48 JUMP JUMPDEST SWAP3 SWAP2 POP POP JUMP JUMPDEST PUSH32 0x68747470733A2F2F697066732E737765622E72752F697066732F516D62704E39 PUSH0 DUP3 ADD MSTORE PUSH32 0x716578677A6E6B705445516D7264786E53665759434441624C6B42786D357641 PUSH1 0x20 DUP3 ADD MSTORE PUSH32 0x4337316A7A52786F2F0000000000000000000000000000000000000000000000 PUSH1 0x40 DUP3 ADD MSTORE POP JUMP JUMPDEST PUSH0 PUSH2 0xAF0 PUSH1 0x49 DUP4 PUSH2 0x8CF JUMP JUMPDEST SWAP2 POP PUSH2 0xAFB DUP3 PUSH2 0xA70 JUMP JUMPDEST PUSH1 0x60 DUP3 ADD SWAP1 POP SWAP2 SWAP1 POP JUMP JUMPDEST PUSH0 PUSH1 0x20 DUP3 ADD SWAP1 POP DUP2 DUP2 SUB PUSH0 DUP4 ADD MSTORE PUSH2 0xB1D DUP2 PUSH2 0xAE4 JUMP JUMPDEST SWAP1 POP SWAP2 SWAP1 POP JUMP JUMPDEST PUSH32 0x68747470733A2F2F697066732E737765622E72752F697066732F516D59526253 PUSH0 DUP3 ADD MSTORE PUSH32 0x4D3251617A47623551486F676F64714A666F505661536962333274745570764E PUSH1 0x20 DUP3 ADD MSTORE PUSH32 0x6B794A4B666858552F3F66696C656E616D653D736D65616D622E6A736F6E0000 PUSH1 0x40 DUP3 ADD MSTORE POP JUMP JUMPDEST PUSH0 PUSH2 0xBA4 PUSH1 0x5E DUP4 PUSH2 0x8CF JUMP JUMPDEST SWAP2 POP PUSH2 0xBAF DUP3 PUSH2 0xB24 JUMP JUMPDEST PUSH1 0x60 DUP3 ADD SWAP1 POP SWAP2 SWAP1 POP JUMP JUMPDEST PUSH0 PUSH1 0x20 DUP3 ADD SWAP1 POP DUP2 DUP2 SUB PUSH0 DUP4 ADD MSTORE PUSH2 0xBD1 DUP2 PUSH2 0xB98 JUMP JUMPDEST SWAP1 POP SWAP2 SWAP1 POP JUMP JUMPDEST PUSH0 DUP2 SWAP1 POP SWAP2 SWAP1 POP JUMP JUMPDEST PUSH0 DUP2 SWAP1 POP SWAP2 SWAP1 POP JUMP JUMPDEST PUSH0 DUP2 PUSH0 SHL SWAP1 POP SWAP2 SWAP1 POP JUMP JUMPDEST PUSH0 PUSH2 0xC0F PUSH2 0xC0A PUSH2 0xC05 DUP5 PUSH2 0xBD8 JUMP JUMPDEST PUSH2 0xBEA JUMP JUMPDEST PUSH2 0xBE1 JUMP JUMPDEST SWAP1 POP SWAP2 SWAP1 POP JUMP JUMPDEST PUSH2 0xC1F DUP2 PUSH2 0xBF5 JUMP JUMPDEST DUP3 MSTORE POP POP JUMP JUMPDEST PUSH0 PUSH1 0x20 DUP3 ADD SWAP1 POP PUSH2 0xC38 PUSH0 DUP4 ADD DUP5 PUSH2 0xC16 JUMP JUMPDEST SWAP3 SWAP2 POP POP JUMP JUMPDEST PUSH0 DUP2 SWAP1 POP SWAP2 SWAP1 POP JUMP JUMPDEST PUSH0 PUSH2 0xC61 PUSH2 0xC5C PUSH2 0xC57 DUP5 PUSH2 0xC3E JUMP JUMPDEST PUSH2 0xA1E JUMP JUMPDEST PUSH2 0x937 JUMP JUMPDEST SWAP1 POP SWAP2 SWAP1 POP JUMP JUMPDEST PUSH2 0xC71 DUP2 PUSH2 0xC47 JUMP JUMPDEST DUP3 MSTORE POP POP JUMP JUMPDEST PUSH0 PUSH1 0x20 DUP3 ADD SWAP1 POP PUSH2 0xC8A PUSH0 DUP4 ADD DUP5 PUSH2 0xC68 JUMP JUMPDEST SWAP3 SWAP2 POP POP JUMP JUMPDEST PUSH0 DUP2 SWAP1 POP SWAP2 SWAP1 POP JUMP JUMPDEST PUSH0 PUSH2 0xCB3 PUSH2 0xCAE PUSH2 0xCA9 DUP5 PUSH2 0xC90 JUMP JUMPDEST PUSH2 0xA1E JUMP JUMPDEST PUSH2 0x937 JUMP JUMPDEST SWAP1 POP SWAP2 SWAP1 POP JUMP JUMPDEST PUSH2 0xCC3 DUP2 PUSH2 0xC99 JUMP JUMPDEST DUP3 MSTORE POP POP JUMP JUMPDEST PUSH0 PUSH1 0x20 DUP3 ADD SWAP1 POP PUSH2 0xCDC PUSH0 DUP4 ADD DUP5 PUSH2 0xCBA JUMP JUMPDEST SWAP3 SWAP2 POP POP JUMP JUMPDEST PUSH1 0x80 MLOAD PUSH2 0x54F8 PUSH2 0xCFA PUSH0 CODECOPY PUSH0 PUSH2 0x1A13 ADD MSTORE PUSH2 0x54F8 PUSH0 RETURN INVALID PUSH1 0x80 PUSH1 0x40 MSTORE PUSH1 0x4 CALLDATASIZE LT PUSH2 0x203 JUMPI PUSH0 CALLDATALOAD PUSH1 0xE0 SHR DUP1 PUSH4 0x6352211E GT PUSH2 0x117 JUMPI DUP1 PUSH4 0x9B865B43 GT PUSH2 0x9F JUMPI DUP1 PUSH4 0xB88D4FDE GT PUSH2 0x6E JUMPI DUP1 PUSH4 0xB88D4FDE EQ PUSH2 0x715 JUMPI DUP1 PUSH4 0xC87B56DD EQ PUSH2 0x731 JUMPI DUP1 PUSH4 0xDDCA3F43 EQ PUSH2 0x76D JUMPI DUP1 PUSH4 0xDFBF2E67 EQ PUSH2 0x797 JUMPI DUP1 PUSH4 0xE985E9C5 EQ PUSH2 0x7BF JUMPI PUSH2 0x203 JUMP JUMPDEST DUP1 PUSH4 0x9B865B43 EQ PUSH2 0x671 JUMPI DUP1 PUSH4 0xA125C824 EQ PUSH2 0x69B JUMPI DUP1 PUSH4 0xA22CB465 EQ PUSH2 0x6C3 JUMPI DUP1 PUSH4 0xAD5B1662 EQ PUSH2 0x6EB JUMPI PUSH2 0x203 JUMP JUMPDEST DUP1 PUSH4 0x70A08231 GT PUSH2 0xE6 JUMPI DUP1 PUSH4 0x70A08231 EQ PUSH2 0x58D JUMPI DUP1 PUSH4 0x75794A3C EQ PUSH2 0x5C9 JUMPI DUP1 PUSH4 0x81ED9808 EQ PUSH2 0x5F3 JUMPI DUP1 PUSH4 0x90507C78 EQ PUSH2 0x61D JUMPI DUP1 PUSH4 0x95D89B41 EQ PUSH2 0x647 JUMPI PUSH2 0x203 JUMP JUMPDEST DUP1 PUSH4 0x6352211E EQ PUSH2 0x4D7 JUMPI DUP1 PUSH4 0x69FE0E2D EQ PUSH2 0x513 JUMPI DUP1 PUSH4 0x6C0360EB EQ PUSH2 0x53B JUMPI DUP1 PUSH4 0x7029144C EQ PUSH2 0x565 JUMPI PUSH2 0x203 JUMP JUMPDEST DUP1 PUSH4 0x23B872DD GT PUSH2 0x19A JUMPI DUP1 PUSH4 0x46BC0DCA GT PUSH2 0x169 JUMPI DUP1 PUSH4 0x46BC0DCA EQ PUSH2 0x3F3 JUMPI DUP1 PUSH4 0x49E0F980 EQ PUSH2 0x40F JUMPI DUP1 PUSH4 0x4BCA8AA3 EQ PUSH2 0x437 JUMPI DUP1 PUSH4 0x4F558E79 EQ PUSH2 0x473 JUMPI DUP1 PUSH4 0x55F804B3 EQ PUSH2 0x4AF JUMPI PUSH2 0x203 JUMP JUMPDEST DUP1 PUSH4 0x23B872DD EQ PUSH2 0x37D JUMPI DUP1 PUSH4 0x3BB04B1F EQ PUSH2 0x399 JUMPI DUP1 PUSH4 0x3CCFD60B EQ PUSH2 0x3C1 JUMPI DUP1 PUSH4 0x42842E0E EQ PUSH2 0x3D7 JUMPI PUSH2 0x203 JUMP JUMPDEST DUP1 PUSH4 0xC142A43 GT PUSH2 0x1D6 JUMPI DUP1 PUSH4 0xC142A43 EQ PUSH2 0x2C5 JUMPI DUP1 PUSH4 0x150B7A02 EQ PUSH2 0x2EF JUMPI DUP1 PUSH4 0x162094C4 EQ PUSH2 0x32B JUMPI DUP1 PUSH4 0x18160DDD EQ PUSH2 0x353 JUMPI PUSH2 0x203 JUMP JUMPDEST DUP1 PUSH4 0x1FFC9A7 EQ PUSH2 0x207 JUMPI DUP1 PUSH4 0x6FDDE03 EQ PUSH2 0x243 JUMPI DUP1 PUSH4 0x81812FC EQ PUSH2 0x26D JUMPI DUP1 PUSH4 0x95EA7B3 EQ PUSH2 0x2A9 JUMPI JUMPDEST PUSH0 PUSH0 REVERT JUMPDEST CALLVALUE DUP1 ISZERO PUSH2 0x212 JUMPI PUSH0 PUSH0 REVERT JUMPDEST POP PUSH2 0x22D PUSH1 0x4 DUP1 CALLDATASIZE SUB DUP2 ADD SWAP1 PUSH2 0x228 SWAP2 SWAP1 PUSH2 0x3E4E JUMP JUMPDEST PUSH2 0x7FB JUMP JUMPDEST PUSH1 0x40 MLOAD PUSH2 0x23A SWAP2 SWAP1 PUSH2 0x3E93 JUMP JUMPDEST PUSH1 0x40 MLOAD DUP1 SWAP2 SUB SWAP1 RETURN JUMPDEST CALLVALUE DUP1 ISZERO PUSH2 0x24E JUMPI PUSH0 PUSH0 REVERT JUMPDEST POP PUSH2 0x257 PUSH2 0x88C JUMP JUMPDEST PUSH1 0x40 MLOAD PUSH2 0x264 SWAP2 SWAP1 PUSH2 0x3F1C JUMP JUMPDEST PUSH1 0x40 MLOAD DUP1 SWAP2 SUB SWAP1 RETURN JUMPDEST CALLVALUE DUP1 ISZERO PUSH2 0x278 JUMPI PUSH0 PUSH0 REVERT JUMPDEST POP PUSH2 0x293 PUSH1 0x4 DUP1 CALLDATASIZE SUB DUP2 ADD SWAP1 PUSH2 0x28E SWAP2 SWAP1 PUSH2 0x3F6F JUMP JUMPDEST PUSH2 0x901 JUMP JUMPDEST PUSH1 0x40 MLOAD PUSH2 0x2A0 SWAP2 SWAP1 PUSH2 0x3FD9 JUMP JUMPDEST PUSH1 0x40 MLOAD DUP1 SWAP2 SUB SWAP1 RETURN JUMPDEST PUSH2 0x2C3 PUSH1 0x4 DUP1 CALLDATASIZE SUB DUP2 ADD SWAP1 PUSH2 0x2BE SWAP2 SWAP1 PUSH2 0x401C JUMP JUMPDEST PUSH2 0x9A0 JUMP JUMPDEST STOP JUMPDEST CALLVALUE DUP1 ISZERO PUSH2 0x2D0 JUMPI PUSH0 PUSH0 REVERT JUMPDEST POP PUSH2 0x2D9 PUSH2 0x9B0 JUMP JUMPDEST PUSH1 0x40 MLOAD PUSH2 0x2E6 SWAP2 SWAP1 PUSH2 0x4069 JUMP JUMPDEST PUSH1 0x40 MLOAD DUP1 SWAP2 SUB SWAP1 RETURN JUMPDEST CALLVALUE DUP1 ISZERO PUSH2 0x2FA JUMPI PUSH0 PUSH0 REVERT JUMPDEST POP PUSH2 0x315 PUSH1 0x4 DUP1 CALLDATASIZE SUB DUP2 ADD SWAP1 PUSH2 0x310 SWAP2 SWAP1 PUSH2 0x41AE JUMP JUMPDEST PUSH2 0x9B6 JUMP JUMPDEST PUSH1 0x40 MLOAD PUSH2 0x322 SWAP2 SWAP1 PUSH2 0x423D JUMP JUMPDEST PUSH1 0x40 MLOAD DUP1 SWAP2 SUB SWAP1 RETURN JUMPDEST CALLVALUE DUP1 ISZERO PUSH2 0x336 JUMPI PUSH0 PUSH0 REVERT JUMPDEST POP PUSH2 0x351 PUSH1 0x4 DUP1 CALLDATASIZE SUB DUP2 ADD SWAP1 PUSH2 0x34C SWAP2 SWAP1 PUSH2 0x42B3 JUMP JUMPDEST PUSH2 0x9C9 JUMP JUMPDEST STOP JUMPDEST CALLVALUE DUP1 ISZERO PUSH2 0x35E JUMPI PUSH0 PUSH0 REVERT JUMPDEST POP PUSH2 0x367 PUSH2 0xAFA JUMP JUMPDEST PUSH1 0x40 MLOAD PUSH2 0x374 SWAP2 SWAP1 PUSH2 0x4069 JUMP JUMPDEST PUSH1 0x40 MLOAD DUP1 SWAP2 SUB SWAP1 RETURN JUMPDEST PUSH2 0x397 PUSH1 0x4 DUP1 CALLDATASIZE SUB DUP2 ADD SWAP1 PUSH2 0x392 SWAP2 SWAP1 PUSH2 0x4310 JUMP JUMPDEST PUSH2 0xC7E JUMP JUMPDEST STOP JUMPDEST CALLVALUE DUP1 ISZERO PUSH2 0x3A4 JUMPI PUSH0 PUSH0 REVERT JUMPDEST POP PUSH2 0x3BF PUSH1 0x4 DUP1 CALLDATASIZE SUB DUP2 ADD SWAP1 PUSH2 0x3BA SWAP2 SWAP1 PUSH2 0x4393 JUMP JUMPDEST PUSH2 0xC99 JUMP JUMPDEST STOP JUMPDEST CALLVALUE DUP1 ISZERO PUSH2 0x3CC JUMPI PUSH0 PUSH0 REVERT JUMPDEST POP PUSH2 0x3D5 PUSH2 0xD7B JUMP JUMPDEST STOP JUMPDEST PUSH2 0x3F1 PUSH1 0x4 DUP1 CALLDATASIZE SUB DUP2 ADD SWAP1 PUSH2 0x3EC SWAP2 SWAP1 PUSH2 0x4310 JUMP JUMPDEST PUSH2 0xF15 JUMP JUMPDEST STOP JUMPDEST PUSH2 0x40D PUSH1 0x4 DUP1 CALLDATASIZE SUB DUP2 ADD SWAP1 PUSH2 0x408 SWAP2 SWAP1 PUSH2 0x4413 JUMP JUMPDEST PUSH2 0xF34 JUMP JUMPDEST STOP JUMPDEST CALLVALUE DUP1 ISZERO PUSH2 0x41A JUMPI PUSH0 PUSH0 REVERT JUMPDEST POP PUSH2 0x435 PUSH1 0x4 DUP1 CALLDATASIZE SUB DUP2 ADD SWAP1 PUSH2 0x430 SWAP2 SWAP1 PUSH2 0x4393 JUMP JUMPDEST PUSH2 0x12FD JUMP JUMPDEST STOP JUMPDEST CALLVALUE DUP1 ISZERO PUSH2 0x442 JUMPI PUSH0 PUSH0 REVERT JUMPDEST POP PUSH2 0x45D PUSH1 0x4 DUP1 CALLDATASIZE SUB DUP2 ADD SWAP1 PUSH2 0x458 SWAP2 SWAP1 PUSH2 0x401C JUMP JUMPDEST PUSH2 0x1442 JUMP JUMPDEST PUSH1 0x40 MLOAD PUSH2 0x46A SWAP2 SWAP1 PUSH2 0x4069 JUMP JUMPDEST PUSH1 0x40 MLOAD DUP1 SWAP2 SUB SWAP1 RETURN JUMPDEST CALLVALUE DUP1 ISZERO PUSH2 0x47E JUMPI PUSH0 PUSH0 REVERT JUMPDEST POP PUSH2 0x499 PUSH1 0x4 DUP1 CALLDATASIZE SUB DUP2 ADD SWAP1 PUSH2 0x494 SWAP2 SWAP1 PUSH2 0x3F6F JUMP JUMPDEST PUSH2 0x14C3 JUMP JUMPDEST PUSH1 0x40 MLOAD PUSH2 0x4A6 SWAP2 SWAP1 PUSH2 0x3E93 JUMP JUMPDEST PUSH1 0x40 MLOAD DUP1 SWAP2 SUB SWAP1 RETURN JUMPDEST CALLVALUE DUP1 ISZERO PUSH2 0x4BA JUMPI PUSH0 PUSH0 REVERT JUMPDEST POP PUSH2 0x4D5 PUSH1 0x4 DUP1 CALLDATASIZE SUB DUP2 ADD SWAP1 PUSH2 0x4D0 SWAP2 SWAP1 PUSH2 0x4470 JUMP JUMPDEST PUSH2 0x14D4 JUMP JUMPDEST STOP JUMPDEST CALLVALUE DUP1 ISZERO PUSH2 0x4E2 JUMPI PUSH0 PUSH0 REVERT JUMPDEST POP PUSH2 0x4FD PUSH1 0x4 DUP1 CALLDATASIZE SUB DUP2 ADD SWAP1 PUSH2 0x4F8 SWAP2 SWAP1 PUSH2 0x3F6F JUMP JUMPDEST PUSH2 0x161C JUMP JUMPDEST PUSH1 0x40 MLOAD PUSH2 0x50A SWAP2 SWAP1 PUSH2 0x3FD9 JUMP JUMPDEST PUSH1 0x40 MLOAD DUP1 SWAP2 SUB SWAP1 RETURN JUMPDEST CALLVALUE DUP1 ISZERO PUSH2 0x51E JUMPI PUSH0 PUSH0 REVERT JUMPDEST POP PUSH2 0x539 PUSH1 0x4 DUP1 CALLDATASIZE SUB DUP2 ADD SWAP1 PUSH2 0x534 SWAP2 SWAP1 PUSH2 0x3F6F JUMP JUMPDEST PUSH2 0x162D JUMP JUMPDEST STOP JUMPDEST CALLVALUE DUP1 ISZERO PUSH2 0x546 JUMPI PUSH0 PUSH0 REVERT JUMPDEST POP PUSH2 0x54F PUSH2 0x1772 JUMP JUMPDEST PUSH1 0x40 MLOAD PUSH2 0x55C SWAP2 SWAP1 PUSH2 0x3F1C JUMP JUMPDEST PUSH1 0x40 MLOAD DUP1 SWAP2 SUB SWAP1 RETURN JUMPDEST CALLVALUE DUP1 ISZERO PUSH2 0x570 JUMPI PUSH0 PUSH0 REVERT JUMPDEST POP PUSH2 0x58B PUSH1 0x4 DUP1 CALLDATASIZE SUB DUP2 ADD SWAP1 PUSH2 0x586 SWAP2 SWAP1 PUSH2 0x4559 JUMP JUMPDEST PUSH2 0x17E7 JUMP JUMPDEST STOP JUMPDEST CALLVALUE DUP1 ISZERO PUSH2 0x598 JUMPI PUSH0 PUSH0 REVERT JUMPDEST POP PUSH2 0x5B3 PUSH1 0x4 DUP1 CALLDATASIZE SUB DUP2 ADD SWAP1 PUSH2 0x5AE SWAP2 SWAP1 PUSH2 0x45CF JUMP JUMPDEST PUSH2 0x18D4 JUMP JUMPDEST PUSH1 0x40 MLOAD PUSH2 0x5C0 SWAP2 SWAP1 PUSH2 0x4069 JUMP JUMPDEST PUSH1 0x40 MLOAD DUP1 SWAP2 SUB SWAP1 RETURN JUMPDEST CALLVALUE DUP1 ISZERO PUSH2 0x5D4 JUMPI PUSH0 PUSH0 REVERT JUMPDEST POP PUSH2 0x5DD PUSH2 0x19A0 JUMP JUMPDEST PUSH1 0x40 MLOAD PUSH2 0x5EA SWAP2 SWAP1 PUSH2 0x4069 JUMP JUMPDEST PUSH1 0x40 MLOAD DUP1 SWAP2 SUB SWAP1 RETURN JUMPDEST CALLVALUE DUP1 ISZERO PUSH2 0x5FE JUMPI PUSH0 PUSH0 REVERT JUMPDEST POP PUSH2 0x607 PUSH2 0x1A11 JUMP JUMPDEST PUSH1 0x40 MLOAD PUSH2 0x614 SWAP2 SWAP1 PUSH2 0x4069 JUMP JUMPDEST PUSH1 0x40 MLOAD DUP1 SWAP2 SUB SWAP1 RETURN JUMPDEST CALLVALUE DUP1 ISZERO PUSH2 0x628 JUMPI PUSH0 PUSH0 REVERT JUMPDEST POP PUSH2 0x631 PUSH2 0x1A35 JUMP JUMPDEST PUSH1 0x40 MLOAD PUSH2 0x63E SWAP2 SWAP1 PUSH2 0x4069 JUMP JUMPDEST PUSH1 0x40 MLOAD DUP1 SWAP2 SUB SWAP1 RETURN JUMPDEST CALLVALUE DUP1 ISZERO PUSH2 0x652 JUMPI PUSH0 PUSH0 REVERT JUMPDEST POP PUSH2 0x65B PUSH2 0x1A3B JUMP JUMPDEST PUSH1 0x40 MLOAD PUSH2 0x668 SWAP2 SWAP1 PUSH2 0x3F1C JUMP JUMPDEST PUSH1 0x40 MLOAD DUP1 SWAP2 SUB SWAP1 RETURN JUMPDEST CALLVALUE DUP1 ISZERO PUSH2 0x67C JUMPI PUSH0 PUSH0 REVERT JUMPDEST POP PUSH2 0x685 PUSH2 0x1AB0 JUMP JUMPDEST PUSH1 0x40 MLOAD PUSH2 0x692 SWAP2 SWAP1 PUSH2 0x3F1C JUMP JUMPDEST PUSH1 0x40 MLOAD DUP1 SWAP2 SUB SWAP1 RETURN JUMPDEST CALLVALUE DUP1 ISZERO PUSH2 0x6A6 JUMPI PUSH0 PUSH0 REVERT JUMPDEST POP PUSH2 0x6C1 PUSH1 0x4 DUP1 CALLDATASIZE SUB DUP2 ADD SWAP1 PUSH2 0x6BC SWAP2 SWAP1 PUSH2 0x4470 JUMP JUMPDEST PUSH2 0x1AE9 JUMP JUMPDEST STOP JUMPDEST CALLVALUE DUP1 ISZERO PUSH2 0x6CE JUMPI PUSH0 PUSH0 REVERT JUMPDEST POP PUSH2 0x6E9 PUSH1 0x4 DUP1 CALLDATASIZE SUB DUP2 ADD SWAP1 PUSH2 0x6E4 SWAP2 SWAP1 PUSH2 0x4624 JUMP JUMPDEST PUSH2 0x1C31 JUMP JUMPDEST STOP JUMPDEST CALLVALUE DUP1 ISZERO PUSH2 0x6F6 JUMPI PUSH0 PUSH0 REVERT JUMPDEST POP PUSH2 0x6FF PUSH2 0x1D0F JUMP JUMPDEST PUSH1 0x40 MLOAD PUSH2 0x70C SWAP2 SWAP1 PUSH2 0x4069 JUMP JUMPDEST PUSH1 0x40 MLOAD DUP1 SWAP2 SUB SWAP1 RETURN JUMPDEST PUSH2 0x72F PUSH1 0x4 DUP1 CALLDATASIZE SUB DUP2 ADD SWAP1 PUSH2 0x72A SWAP2 SWAP1 PUSH2 0x41AE JUMP JUMPDEST PUSH2 0x1D15 JUMP JUMPDEST STOP JUMPDEST CALLVALUE DUP1 ISZERO PUSH2 0x73C JUMPI PUSH0 PUSH0 REVERT JUMPDEST POP PUSH2 0x757 PUSH1 0x4 DUP1 CALLDATASIZE SUB DUP2 ADD SWAP1 PUSH2 0x752 SWAP2 SWAP1 PUSH2 0x3F6F JUMP JUMPDEST PUSH2 0x1D66 JUMP JUMPDEST PUSH1 0x40 MLOAD PUSH2 0x764 SWAP2 SWAP1 PUSH2 0x3F1C JUMP JUMPDEST PUSH1 0x40 MLOAD DUP1 SWAP2 SUB SWAP1 RETURN JUMPDEST CALLVALUE DUP1 ISZERO PUSH2 0x778 JUMPI PUSH0 PUSH0 REVERT JUMPDEST POP PUSH2 0x781 PUSH2 0x1E48 JUMP JUMPDEST PUSH1 0x40 MLOAD PUSH2 0x78E SWAP2 SWAP1 PUSH2 0x4069 JUMP JUMPDEST PUSH1 0x40 MLOAD DUP1 SWAP2 SUB SWAP1 RETURN JUMPDEST CALLVALUE DUP1 ISZERO PUSH2 0x7A2 JUMPI PUSH0 PUSH0 REVERT JUMPDEST POP PUSH2 0x7BD PUSH1 0x4 DUP1 CALLDATASIZE SUB DUP2 ADD SWAP1 PUSH2 0x7B8 SWAP2 SWAP1 PUSH2 0x4393 JUMP JUMPDEST PUSH2 0x1EB9 JUMP JUMPDEST STOP JUMPDEST CALLVALUE DUP1 ISZERO PUSH2 0x7CA JUMPI PUSH0 PUSH0 REVERT JUMPDEST POP PUSH2 0x7E5 PUSH1 0x4 DUP1 CALLDATASIZE SUB DUP2 ADD SWAP1 PUSH2 0x7E0 SWAP2 SWAP1 PUSH2 0x4662 JUMP JUMPDEST PUSH2 0x1FFE JUMP JUMPDEST PUSH1 0x40 MLOAD PUSH2 0x7F2 SWAP2 SWAP1 PUSH2 0x3E93 JUMP JUMPDEST PUSH1 0x40 MLOAD DUP1 SWAP2 SUB SWAP1 RETURN JUMPDEST PUSH0 PUSH4 0x1FFC9A7 PUSH1 0xE0 SHL DUP3 PUSH28 0xFFFFFFFFFFFFFFFFFFFFFFFFFFFFFFFFFFFFFFFFFFFFFFFFFFFFFFFF NOT AND EQ DUP1 PUSH2 0x855 JUMPI POP PUSH4 0x80AC58CD PUSH1 0xE0 SHL DUP3 PUSH28 0xFFFFFFFFFFFFFFFFFFFFFFFFFFFFFFFFFFFFFFFFFFFFFFFFFFFFFFFF NOT AND EQ JUMPDEST DUP1 PUSH2 0x885 JUMPI POP PUSH4 0x5B5E139F PUSH1 0xE0 SHL DUP3 PUSH28 0xFFFFFFFFFFFFFFFFFFFFFFFFFFFFFFFFFFFFFFFFFFFFFFFFFFFFFFFF NOT AND EQ JUMPDEST SWAP1 POP SWAP2 SWAP1 POP JUMP JUMPDEST PUSH1 0x60 PUSH20 0x0 PUSH4 0x6FDDE03 PUSH1 0x40 MLOAD DUP2 PUSH4 0xFFFFFFFF AND PUSH1 0xE0 SHL DUP2 MSTORE PUSH1 0x4 ADD PUSH0 PUSH1 0x40 MLOAD DUP1 DUP4 SUB DUP2 DUP7 GAS DELEGATECALL ISZERO DUP1 ISZERO PUSH2 0x8D4 JUMPI RETURNDATASIZE PUSH0 PUSH0 RETURNDATACOPY RETURNDATASIZE PUSH0 REVERT JUMPDEST POP POP POP POP PUSH1 0x40 MLOAD RETURNDATASIZE PUSH0 DUP3 RETURNDATACOPY RETURNDATASIZE PUSH1 0x1F NOT PUSH1 0x1F DUP3 ADD AND DUP3 ADD DUP1 PUSH1 0x40 MSTORE POP DUP2 ADD SWAP1 PUSH2 0x8FC SWAP2 SWAP1 PUSH2 0x470E JUMP JUMPDEST SWAP1 POP SWAP1 JUMP JUMPDEST PUSH0 PUSH2 0x90B DUP3 PUSH2 0x207F JUMP JUMPDEST PUSH2 0x920 JUMPI PUSH2 0x91F PUSH4 0xCF4700E4 PUSH1 0xE0 SHL PUSH2 0x2253 JUMP JUMPDEST JUMPDEST PUSH20 0x0 PUSH4 0xA7CC0136 DUP4 PUSH1 0x40 MLOAD DUP3 PUSH4 0xFFFFFFFF AND PUSH1 0xE0 SHL DUP2 MSTORE PUSH1 0x4 ADD PUSH2 0x957 SWAP2 SWAP1 PUSH2 0x4764 JUMP JUMPDEST PUSH1 0x20 PUSH1 0x40 MLOAD DUP1 DUP4 SUB DUP2 DUP7 GAS DELEGATECALL ISZERO DUP1 ISZERO PUSH2 0x972 JUMPI RETURNDATASIZE PUSH0 PUSH0 RETURNDATACOPY RETURNDATASIZE PUSH0 REVERT JUMPDEST POP POP POP POP PUSH1 0x40 MLOAD RETURNDATASIZE PUSH1 0x1F NOT PUSH1 0x1F DUP3 ADD AND DUP3 ADD DUP1 PUSH1 0x40 MSTORE POP DUP2 ADD SWAP1 PUSH2 0x996 SWAP2 SWAP1 PUSH2 0x47CE JUMP JUMPDEST PUSH0 ADD MLOAD SWAP1 POP SWAP2 SWAP1 POP JUMP JUMPDEST PUSH2 0x9AC DUP3 DUP3 PUSH1 0x1 PUSH2 0x225B JUMP JUMPDEST POP POP JUMP JUMPDEST PUSH2 0x4B0 DUP2 JUMP JUMPDEST PUSH0 PUSH4 0x150B7A02 PUSH1 0xE0 SHL SWAP1 POP SWAP5 SWAP4 POP POP POP POP JUMP JUMPDEST PUSH2 0x9D1 PUSH2 0x2399 JUMP JUMPDEST PUSH20 0xFFFFFFFFFFFFFFFFFFFFFFFFFFFFFFFFFFFFFFFF AND PUSH20 0x0 PUSH4 0x893D20E8 PUSH1 0x40 MLOAD DUP2 PUSH4 0xFFFFFFFF AND PUSH1 0xE0 SHL DUP2 MSTORE PUSH1 0x4 ADD PUSH1 0x20 PUSH1 0x40 MLOAD DUP1 DUP4 SUB DUP2 DUP7 GAS DELEGATECALL ISZERO DUP1 ISZERO PUSH2 0xA2E JUMPI RETURNDATASIZE PUSH0 PUSH0 RETURNDATACOPY RETURNDATASIZE PUSH0 REVERT JUMPDEST POP POP POP POP PUSH1 0x40 MLOAD RETURNDATASIZE PUSH1 0x1F NOT PUSH1 0x1F DUP3 ADD AND DUP3 ADD DUP1 PUSH1 0x40 MSTORE POP DUP2 ADD SWAP1 PUSH2 0xA52 SWAP2 SWAP1 PUSH2 0x47F9 JUMP JUMPDEST PUSH20 0xFFFFFFFFFFFFFFFFFFFFFFFFFFFFFFFFFFFFFFFF AND EQ PUSH2 0xAA8 JUMPI PUSH1 0x40 MLOAD PUSH32 0x8C379A000000000000000000000000000000000000000000000000000000000 DUP2 MSTORE PUSH1 0x4 ADD PUSH2 0xA9F SWAP1 PUSH2 0x486E JUMP JUMPDEST PUSH1 0x40 MLOAD DUP1 SWAP2 SUB SWAP1 REVERT JUMPDEST PUSH2 0xAF5 DUP4 DUP4 DUP4 DUP1 DUP1 PUSH1 0x1F ADD PUSH1 0x20 DUP1 SWAP2 DIV MUL PUSH1 0x20 ADD PUSH1 0x40 MLOAD SWAP1 DUP2 ADD PUSH1 0x40 MSTORE DUP1 SWAP4 SWAP3 SWAP2 SWAP1 DUP2 DUP2 MSTORE PUSH1 0x20 ADD DUP4 DUP4 DUP1 DUP3 DUP5 CALLDATACOPY PUSH0 DUP2 DUP5 ADD MSTORE PUSH1 0x1F NOT PUSH1 0x1F DUP3 ADD AND SWAP1 POP DUP1 DUP4 ADD SWAP3 POP POP POP POP POP POP POP PUSH2 0x23A0 JUMP JUMPDEST POP POP POP JUMP JUMPDEST PUSH0 PUSH2 0xB03 PUSH2 0x2440 JUMP JUMPDEST PUSH20 0x0 PUSH4 0x44FAF255 PUSH1 0x40 MLOAD DUP2 PUSH4 0xFFFFFFFF AND PUSH1 0xE0 SHL DUP2 MSTORE PUSH1 0x4 ADD PUSH1 0x20 PUSH1 0x40 MLOAD DUP1 DUP4 SUB DUP2 DUP7 GAS DELEGATECALL ISZERO DUP1 ISZERO PUSH2 0xB4A JUMPI RETURNDATASIZE PUSH0 PUSH0 RETURNDATACOPY RETURNDATASIZE PUSH0 REVERT JUMPDEST POP POP POP POP PUSH1 0x40 MLOAD RETURNDATASIZE PUSH1 0x1F NOT PUSH1 0x1F DUP3 ADD AND DUP3 ADD DUP1 PUSH1 0x40 MSTORE POP DUP2 ADD SWAP1 PUSH2 0xB6E SWAP2 SWAP1 PUSH2 0x48A0 JUMP JUMPDEST PUSH20 0x0 PUSH4 0x9451C99A PUSH1 0x40 MLOAD DUP2 PUSH4 0xFFFFFFFF AND PUSH1 0xE0 SHL DUP2 MSTORE PUSH1 0x4 ADD PUSH1 0x20 PUSH1 0x40 MLOAD DUP1 DUP4 SUB DUP2 DUP7 GAS DELEGATECALL ISZERO DUP1 ISZERO PUSH2 0xBB5 JUMPI RETURNDATASIZE PUSH0 PUSH0 RETURNDATACOPY RETURNDATASIZE PUSH0 REVERT JUMPDEST POP POP POP POP PUSH1 0x40 MLOAD RETURNDATASIZE PUSH1 0x1F NOT PUSH1 0x1F DUP3 ADD AND DUP3 ADD DUP1 PUSH1 0x40 MSTORE POP DUP2 ADD SWAP1 PUSH2 0xBD9 SWAP2 SWAP1 PUSH2 0x48A0 JUMP JUMPDEST SUB SUB SWAP1 POP PUSH32 0xFFFFFFFFFFFFFFFFFFFFFFFFFFFFFFFFFFFFFFFFFFFFFFFFFFFFFFFFFFFFFFFF PUSH2 0xC06 PUSH2 0x2448 JUMP JUMPDEST EQ PUSH2 0xC7B JUMPI PUSH20 0x0 PUSH4 0xD20B6EE7 PUSH1 0x40 MLOAD DUP2 PUSH4 0xFFFFFFFF AND PUSH1 0xE0 SHL DUP2 MSTORE PUSH1 0x4 ADD PUSH1 0x20 PUSH1 0x40 MLOAD DUP1 DUP4 SUB DUP2 DUP7 GAS DELEGATECALL ISZERO DUP1 ISZERO PUSH2 0xC52 JUMPI RETURNDATASIZE PUSH0 PUSH0 RETURNDATACOPY RETURNDATASIZE PUSH0 REVERT JUMPDEST POP POP POP POP PUSH1 0x40 MLOAD RETURNDATASIZE PUSH1 0x1F NOT PUSH1 0x1F DUP3 ADD AND DUP3 ADD DUP1 PUSH1 0x40 MSTORE POP DUP2 ADD SWAP1 PUSH2 0xC76 SWAP2 SWAP1 PUSH2 0x48A0 JUMP JUMPDEST DUP2 ADD SWAP1 POP JUMPDEST SWAP1 JUMP JUMPDEST PUSH2 0xC89 DUP4 DUP4 DUP4 PUSH2 0x246F JUMP JUMPDEST PUSH2 0xC94 DUP4 DUP4 DUP4 PUSH2 0x2911 JUMP JUMPDEST POP POP POP JUMP JUMPDEST PUSH2 0xCA1 PUSH2 0x2399 JUMP JUMPDEST PUSH20 0xFFFFFFFFFFFFFFFFFFFFFFFFFFFFFFFFFFFFFFFF AND PUSH20 0x0 PUSH4 0x893D20E8 PUSH1 0x40 MLOAD DUP2 PUSH4 0xFFFFFFFF AND PUSH1 0xE0 SHL DUP2 MSTORE PUSH1 0x4 ADD PUSH1 0x20 PUSH1 0x40 MLOAD DUP1 DUP4 SUB DUP2 DUP7 GAS DELEGATECALL ISZERO DUP1 ISZERO PUSH2 0xCFE JUMPI RETURNDATASIZE PUSH0 PUSH0 RETURNDATACOPY RETURNDATASIZE PUSH0 REVERT JUMPDEST POP POP POP POP PUSH1 0x40 MLOAD RETURNDATASIZE PUSH1 0x1F NOT PUSH1 0x1F DUP3 ADD AND DUP3 ADD DUP1 PUSH1 0x40 MSTORE POP DUP2 ADD SWAP1 PUSH2 0xD22 SWAP2 SWAP1 PUSH2 0x47F9 JUMP JUMPDEST PUSH20 0xFFFFFFFFFFFFFFFFFFFFFFFFFFFFFFFFFFFFFFFF AND EQ PUSH2 0xD78 JUMPI PUSH1 0x40 MLOAD PUSH32 0x8C379A000000000000000000000000000000000000000000000000000000000 DUP2 MSTORE PUSH1 0x4 ADD PUSH2 0xD6F SWAP1 PUSH2 0x486E JUMP JUMPDEST PUSH1 0x40 MLOAD DUP1 SWAP2 SUB SWAP1 REVERT JUMPDEST POP JUMP JUMPDEST PUSH2 0xD83 PUSH2 0x2399 JUMP JUMPDEST PUSH20 0xFFFFFFFFFFFFFFFFFFFFFFFFFFFFFFFFFFFFFFFF AND PUSH20 0x0 PUSH4 0x893D20E8 PUSH1 0x40 MLOAD DUP2 PUSH4 0xFFFFFFFF AND PUSH1 0xE0 SHL DUP2 MSTORE PUSH1 0x4 ADD PUSH1 0x20 PUSH1 0x40 MLOAD DUP1 DUP4 SUB DUP2 DUP7 GAS DELEGATECALL ISZERO DUP1 ISZERO PUSH2 0xDE0 JUMPI RETURNDATASIZE PUSH0 PUSH0 RETURNDATACOPY RETURNDATASIZE PUSH0 REVERT JUMPDEST POP POP POP POP PUSH1 0x40 MLOAD RETURNDATASIZE PUSH1 0x1F NOT PUSH1 0x1F DUP3 ADD AND DUP3 ADD DUP1 PUSH1 0x40 MSTORE POP DUP2 ADD SWAP1 PUSH2 0xE04 SWAP2 SWAP1 PUSH2 0x47F9 JUMP JUMPDEST PUSH20 0xFFFFFFFFFFFFFFFFFFFFFFFFFFFFFFFFFFFFFFFF AND EQ PUSH2 0xE5A JUMPI PUSH1 0x40 MLOAD PUSH32 0x8C379A000000000000000000000000000000000000000000000000000000000 DUP2 MSTORE PUSH1 0x4 ADD PUSH2 0xE51 SWAP1 PUSH2 0x486E JUMP JUMPDEST PUSH1 0x40 MLOAD DUP1 SWAP2 SUB SWAP1 REVERT JUMPDEST PUSH2 0xE62 PUSH2 0x2A16 JUMP JUMPDEST PUSH0 CALLER PUSH20 0xFFFFFFFFFFFFFFFFFFFFFFFFFFFFFFFFFFFFFFFF AND SELFBALANCE PUSH1 0x40 MLOAD PUSH2 0xE87 SWAP1 PUSH2 0x48F8 JUMP JUMPDEST PUSH0 PUSH1 0x40 MLOAD DUP1 DUP4 SUB DUP2 DUP6 DUP8 GAS CALL SWAP3 POP POP POP RETURNDATASIZE DUP1 PUSH0 DUP2 EQ PUSH2 0xEC1 JUMPI PUSH1 0x40 MLOAD SWAP2 POP PUSH1 0x1F NOT PUSH1 0x3F RETURNDATASIZE ADD AND DUP3 ADD PUSH1 0x40 MSTORE RETURNDATASIZE DUP3 MSTORE RETURNDATASIZE PUSH0 PUSH1 0x20 DUP5 ADD RETURNDATACOPY PUSH2 0xEC6 JUMP JUMPDEST PUSH1 0x60 SWAP2 POP JUMPDEST POP POP SWAP1 POP DUP1 PUSH2 0xF0A JUMPI PUSH1 0x40 MLOAD PUSH32 0x8C379A000000000000000000000000000000000000000000000000000000000 DUP2 MSTORE PUSH1 0x4 ADD PUSH2 0xF01 SWAP1 PUSH2 0x4956 JUMP JUMPDEST PUSH1 0x40 MLOAD DUP1 SWAP2 SUB SWAP1 REVERT JUMPDEST POP PUSH2 0xF13 PUSH2 0x2A63 JUMP JUMPDEST JUMP JUMPDEST PUSH2 0xF2F DUP4 DUP4 DUP4 PUSH1 0x40 MLOAD DUP1 PUSH1 0x20 ADD PUSH1 0x40 MSTORE DUP1 PUSH0 DUP2 MSTORE POP PUSH2 0x1D15 JUMP JUMPDEST POP POP POP JUMP JUMPDEST PUSH2 0xF3C PUSH2 0x2A16 JUMP JUMPDEST PUSH0 PUSH2 0xF45 PUSH2 0x2A6C JUMP JUMPDEST SWAP1 POP PUSH2 0x4B0 DUP2 GT PUSH2 0xF8B JUMPI PUSH1 0x40 MLOAD PUSH32 0x8C379A000000000000000000000000000000000000000000000000000000000 DUP2 MSTORE PUSH1 0x4 ADD PUSH2 0xF82 SWAP1 PUSH2 0x49BE JUMP JUMPDEST PUSH1 0x40 MLOAD DUP1 SWAP2 SUB SWAP1 REVERT JUMPDEST PUSH2 0x1388 DUP2 LT PUSH2 0xFCF JUMPI PUSH1 0x40 MLOAD PUSH32 0x8C379A000000000000000000000000000000000000000000000000000000000 DUP2 MSTORE PUSH1 0x4 ADD PUSH2 0xFC6 SWAP1 PUSH2 0x4A26 JUMP JUMPDEST PUSH1 0x40 MLOAD DUP1 SWAP2 SUB SWAP1 REVERT JUMPDEST PUSH0 ISZERO ISZERO PUSH20 0x0 PUSH4 0xB62D8B91 DUP7 PUSH1 0x40 MLOAD DUP3 PUSH4 0xFFFFFFFF AND PUSH1 0xE0 SHL DUP2 MSTORE PUSH1 0x4 ADD PUSH2 0x1009 SWAP2 SWAP1 PUSH2 0x4A53 JUMP JUMPDEST PUSH1 0x20 PUSH1 0x40 MLOAD DUP1 DUP4 SUB DUP2 DUP7 GAS DELEGATECALL ISZERO DUP1 ISZERO PUSH2 0x1024 JUMPI RETURNDATASIZE PUSH0 PUSH0 RETURNDATACOPY RETURNDATASIZE PUSH0 REVERT JUMPDEST POP POP POP POP PUSH1 0x40 MLOAD RETURNDATASIZE PUSH1 0x1F NOT PUSH1 0x1F DUP3 ADD AND DUP3 ADD DUP1 PUSH1 0x40 MSTORE POP DUP2 ADD SWAP1 PUSH2 0x1048 SWAP2 SWAP1 PUSH2 0x4A80 JUMP JUMPDEST ISZERO ISZERO EQ PUSH2 0x108A JUMPI PUSH1 0x40 MLOAD PUSH32 0x8C379A000000000000000000000000000000000000000000000000000000000 DUP2 MSTORE PUSH1 0x4 ADD PUSH2 0x1081 SWAP1 PUSH2 0x4AF5 JUMP JUMPDEST PUSH1 0x40 MLOAD DUP1 SWAP2 SUB SWAP1 REVERT JUMPDEST PUSH20 0x0 PUSH4 0xDDCA3F43 PUSH1 0x40 MLOAD DUP2 PUSH4 0xFFFFFFFF AND PUSH1 0xE0 SHL DUP2 MSTORE PUSH1 0x4 ADD PUSH1 0x20 PUSH1 0x40 MLOAD DUP1 DUP4 SUB DUP2 DUP7 GAS DELEGATECALL ISZERO DUP1 ISZERO PUSH2 0x10D1 JUMPI RETURNDATASIZE PUSH0 PUSH0 RETURNDATACOPY RETURNDATASIZE PUSH0 REVERT JUMPDEST POP POP POP POP PUSH1 0x40 MLOAD RETURNDATASIZE PUSH1 0x1F NOT PUSH1 0x1F DUP3 ADD AND DUP3 ADD DUP1 PUSH1 0x40 MSTORE POP DUP2 ADD SWAP1 PUSH2 0x10F5 SWAP2 SWAP1 PUSH2 0x48A0 JUMP JUMPDEST CALLVALUE EQ PUSH2 0x1136 JUMPI PUSH1 0x40 MLOAD PUSH32 0x8C379A000000000000000000000000000000000000000000000000000000000 DUP2 MSTORE PUSH1 0x4 ADD PUSH2 0x112D SWAP1 PUSH2 0x4B5D JUMP JUMPDEST PUSH1 0x40 MLOAD DUP1 SWAP2 SUB SWAP1 REVERT JUMPDEST PUSH0 DUP5 PUSH1 0x40 MLOAD PUSH1 0x20 ADD PUSH2 0x1148 SWAP2 SWAP1 PUSH2 0x4BC0 JUMP JUMPDEST PUSH1 0x40 MLOAD PUSH1 0x20 DUP2 DUP4 SUB SUB DUP2 MSTORE SWAP1 PUSH1 0x40 MSTORE DUP1 MLOAD SWAP1 PUSH1 0x20 ADD KECCAK256 SWAP1 POP PUSH0 PUSH2 0x1216 DUP6 DUP6 DUP1 DUP1 PUSH1 0x20 MUL PUSH1 0x20 ADD PUSH1 0x40 MLOAD SWAP1 DUP2 ADD PUSH1 0x40 MSTORE DUP1 SWAP4 SWAP3 SWAP2 SWAP1 DUP2 DUP2 MSTORE PUSH1 0x20 ADD DUP4 DUP4 PUSH1 0x20 MUL DUP1 DUP3 DUP5 CALLDATACOPY PUSH0 DUP2 DUP5 ADD MSTORE PUSH1 0x1F NOT PUSH1 0x1F DUP3 ADD AND SWAP1 POP DUP1 DUP4 ADD SWAP3 POP POP POP POP POP POP POP PUSH20 0x0 PUSH4 0xF589B754 PUSH1 0x40 MLOAD DUP2 PUSH4 0xFFFFFFFF AND PUSH1 0xE0 SHL DUP2 MSTORE PUSH1 0x4 ADD PUSH1 0x20 PUSH1 0x40 MLOAD DUP1 DUP4 SUB DUP2 DUP7 GAS DELEGATECALL ISZERO DUP1 ISZERO PUSH2 0x11EC JUMPI RETURNDATASIZE PUSH0 PUSH0 RETURNDATACOPY RETURNDATASIZE PUSH0 REVERT JUMPDEST POP POP POP POP PUSH1 0x40 MLOAD RETURNDATASIZE PUSH1 0x1F NOT PUSH1 0x1F DUP3 ADD AND DUP3 ADD DUP1 PUSH1 0x40 MSTORE POP DUP2 ADD SWAP1 PUSH2 0x1210 SWAP2 SWAP1 PUSH2 0x4BEE JUMP JUMPDEST DUP5 PUSH2 0x2ADD JUMP JUMPDEST SWAP1 POP PUSH1 0x1 ISZERO ISZERO DUP2 ISZERO ISZERO EQ PUSH2 0x125F JUMPI PUSH1 0x40 MLOAD PUSH32 0x8C379A000000000000000000000000000000000000000000000000000000000 DUP2 MSTORE PUSH1 0x4 ADD PUSH2 0x1256 SWAP1 PUSH2 0x4C63 JUMP JUMPDEST PUSH1 0x40 MLOAD DUP1 SWAP2 SUB SWAP1 REVERT JUMPDEST PUSH20 0x0 PUSH4 0xB0D4CE25 DUP8 PUSH1 0x1 PUSH1 0x40 MLOAD DUP4 PUSH4 0xFFFFFFFF AND PUSH1 0xE0 SHL DUP2 MSTORE PUSH1 0x4 ADD PUSH2 0x1299 SWAP3 SWAP2 SWAP1 PUSH2 0x4C90 JUMP JUMPDEST PUSH0 PUSH1 0x40 MLOAD DUP1 DUP4 SUB DUP2 DUP7 DUP1 EXTCODESIZE ISZERO DUP1 ISZERO PUSH2 0x12AF JUMPI PUSH0 PUSH0 REVERT JUMPDEST POP GAS DELEGATECALL ISZERO DUP1 ISZERO PUSH2 0x12C1 JUMPI RETURNDATASIZE PUSH0 PUSH0 RETURNDATACOPY RETURNDATASIZE PUSH0 REVERT JUMPDEST POP POP POP POP PUSH2 0x12D0 DUP7 PUSH1 0x1 PUSH2 0x2AF3 JUMP JUMPDEST PUSH2 0x12E2 DUP4 PUSH2 0x12DD DUP6 PUSH2 0x2B10 JUMP JUMPDEST PUSH2 0x23A0 JUMP JUMPDEST PUSH2 0x12ED PUSH0 DUP8 DUP6 PUSH2 0x2911 JUMP JUMPDEST POP POP POP PUSH2 0x12F8 PUSH2 0x2A63 JUMP JUMPDEST POP POP POP JUMP JUMPDEST PUSH2 0x1305 PUSH2 0x2399 JUMP JUMPDEST PUSH20 0xFFFFFFFFFFFFFFFFFFFFFFFFFFFFFFFFFFFFFFFF AND PUSH20 0x0 PUSH4 0x893D20E8 PUSH1 0x40 MLOAD DUP2 PUSH4 0xFFFFFFFF AND PUSH1 0xE0 SHL DUP2 MSTORE PUSH1 0x4 ADD PUSH1 0x20 PUSH1 0x40 MLOAD DUP1 DUP4 SUB DUP2 DUP7 GAS DELEGATECALL ISZERO DUP1 ISZERO PUSH2 0x1362 JUMPI RETURNDATASIZE PUSH0 PUSH0 RETURNDATACOPY RETURNDATASIZE PUSH0 REVERT JUMPDEST POP POP POP POP PUSH1 0x40 MLOAD RETURNDATASIZE PUSH1 0x1F NOT PUSH1 0x1F DUP3 ADD AND DUP3 ADD DUP1 PUSH1 0x40 MSTORE POP DUP2 ADD SWAP1 PUSH2 0x1386 SWAP2 SWAP1 PUSH2 0x47F9 JUMP JUMPDEST PUSH20 0xFFFFFFFFFFFFFFFFFFFFFFFFFFFFFFFFFFFFFFFF AND EQ PUSH2 0x13DC JUMPI PUSH1 0x40 MLOAD PUSH32 0x8C379A000000000000000000000000000000000000000000000000000000000 DUP2 MSTORE PUSH1 0x4 ADD PUSH2 0x13D3 SWAP1 PUSH2 0x486E JUMP JUMPDEST PUSH1 0x40 MLOAD DUP1 SWAP2 SUB SWAP1 REVERT JUMPDEST PUSH20 0x0 PUSH4 0x247C6CE0 DUP3 PUSH1 0x40 MLOAD DUP3 PUSH4 0xFFFFFFFF AND PUSH1 0xE0 SHL DUP2 MSTORE PUSH1 0x4 ADD PUSH2 0x1413 SWAP2 SWAP1 PUSH2 0x4CC6 JUMP JUMPDEST PUSH0 PUSH1 0x40 MLOAD DUP1 DUP4 SUB DUP2 DUP7 DUP1 EXTCODESIZE ISZERO DUP1 ISZERO PUSH2 0x1429 JUMPI PUSH0 PUSH0 REVERT JUMPDEST POP GAS DELEGATECALL ISZERO DUP1 ISZERO PUSH2 0x143B JUMPI RETURNDATASIZE PUSH0 PUSH0 RETURNDATACOPY RETURNDATASIZE PUSH0 REVERT JUMPDEST POP POP POP POP POP JUMP JUMPDEST PUSH0 PUSH20 0x0 PUSH4 0xE149F036 DUP5 DUP5 PUSH1 0x40 MLOAD DUP4 PUSH4 0xFFFFFFFF AND PUSH1 0xE0 SHL DUP2 MSTORE PUSH1 0x4 ADD PUSH2 0x147C SWAP3 SWAP2 SWAP1 PUSH2 0x4CDF JUMP JUMPDEST PUSH1 0x20 PUSH1 0x40 MLOAD DUP1 DUP4 SUB DUP2 DUP7 GAS DELEGATECALL ISZERO DUP1 ISZERO PUSH2 0x1497 JUMPI RETURNDATASIZE PUSH0 PUSH0 RETURNDATACOPY RETURNDATASIZE PUSH0 REVERT JUMPDEST POP POP POP POP PUSH1 0x40 MLOAD RETURNDATASIZE PUSH1 0x1F NOT PUSH1 0x1F DUP3 ADD AND DUP3 ADD DUP1 PUSH1 0x40 MSTORE POP DUP2 ADD SWAP1 PUSH2 0x14BB SWAP2 SWAP1 PUSH2 0x48A0 JUMP JUMPDEST SWAP1 POP SWAP3 SWAP2 POP POP JUMP JUMPDEST PUSH0 PUSH2 0x14CD DUP3 PUSH2 0x207F JUMP JUMPDEST SWAP1 POP SWAP2 SWAP1 POP JUMP JUMPDEST PUSH2 0x14DC PUSH2 0x2399 JUMP JUMPDEST PUSH20 0xFFFFFFFFFFFFFFFFFFFFFFFFFFFFFFFFFFFFFFFF AND PUSH20 0x0 PUSH4 0x893D20E8 PUSH1 0x40 MLOAD DUP2 PUSH4 0xFFFFFFFF AND PUSH1 0xE0 SHL DUP2 MSTORE PUSH1 0x4 ADD PUSH1 0x20 PUSH1 0x40 MLOAD DUP1 DUP4 SUB DUP2 DUP7 GAS DELEGATECALL ISZERO DUP1 ISZERO PUSH2 0x1539 JUMPI RETURNDATASIZE PUSH0 PUSH0 RETURNDATACOPY RETURNDATASIZE PUSH0 REVERT JUMPDEST POP POP POP POP PUSH1 0x40 MLOAD RETURNDATASIZE PUSH1 0x1F NOT PUSH1 0x1F DUP3 ADD AND DUP3 ADD DUP1 PUSH1 0x40 MSTORE POP DUP2 ADD SWAP1 PUSH2 0x155D SWAP2 SWAP1 PUSH2 0x47F9 JUMP JUMPDEST PUSH20 0xFFFFFFFFFFFFFFFFFFFFFFFFFFFFFFFFFFFFFFFF AND EQ PUSH2 0x15B3 JUMPI PUSH1 0x40 MLOAD PUSH32 0x8C379A000000000000000000000000000000000000000000000000000000000 DUP2 MSTORE PUSH1 0x4 ADD PUSH2 0x15AA SWAP1 PUSH2 0x486E JUMP JUMPDEST PUSH1 0x40 MLOAD DUP1 SWAP2 SUB SWAP1 REVERT JUMPDEST PUSH20 0x0 PUSH4 0xA05CC559 DUP4 DUP4 PUSH1 0x40 MLOAD DUP4 PUSH4 0xFFFFFFFF AND PUSH1 0xE0 SHL DUP2 MSTORE PUSH1 0x4 ADD PUSH2 0x15EC SWAP3 SWAP2 SWAP1 PUSH2 0x4D42 JUMP JUMPDEST PUSH0 PUSH1 0x40 MLOAD DUP1 DUP4 SUB DUP2 DUP7 DUP1 EXTCODESIZE ISZERO DUP1 ISZERO PUSH2 0x1602 JUMPI PUSH0 PUSH0 REVERT JUMPDEST POP GAS DELEGATECALL ISZERO DUP1 ISZERO PUSH2 0x1614 JUMPI RETURNDATASIZE PUSH0 PUSH0 RETURNDATACOPY RETURNDATASIZE PUSH0 REVERT JUMPDEST POP POP POP POP POP POP JUMP JUMPDEST PUSH0 PUSH2 0x1626 DUP3 PUSH2 0x2C13 JUMP JUMPDEST SWAP1 POP SWAP2 SWAP1 POP JUMP JUMPDEST PUSH2 0x1635 PUSH2 0x2399 JUMP JUMPDEST PUSH20 0xFFFFFFFFFFFFFFFFFFFFFFFFFFFFFFFFFFFFFFFF AND PUSH20 0x0 PUSH4 0x893D20E8 PUSH1 0x40 MLOAD DUP2 PUSH4 0xFFFFFFFF AND PUSH1 0xE0 SHL DUP2 MSTORE PUSH1 0x4 ADD PUSH1 0x20 PUSH1 0x40 MLOAD DUP1 DUP4 SUB DUP2 DUP7 GAS DELEGATECALL ISZERO DUP1 ISZERO PUSH2 0x1692 JUMPI RETURNDATASIZE PUSH0 PUSH0 RETURNDATACOPY RETURNDATASIZE PUSH0 REVERT JUMPDEST POP POP POP POP PUSH1 0x40 MLOAD RETURNDATASIZE PUSH1 0x1F NOT PUSH1 0x1F DUP3 ADD AND DUP3 ADD DUP1 PUSH1 0x40 MSTORE POP DUP2 ADD SWAP1 PUSH2 0x16B6 SWAP2 SWAP1 PUSH2 0x47F9 JUMP JUMPDEST PUSH20 0xFFFFFFFFFFFFFFFFFFFFFFFFFFFFFFFFFFFFFFFF AND EQ PUSH2 0x170C JUMPI PUSH1 0x40 MLOAD PUSH32 0x8C379A000000000000000000000000000000000000000000000000000000000 DUP2 MSTORE PUSH1 0x4 ADD PUSH2 0x1703 SWAP1 PUSH2 0x486E JUMP JUMPDEST PUSH1 0x40 MLOAD DUP1 SWAP2 SUB SWAP1 REVERT JUMPDEST PUSH20 0x0 PUSH4 0x39B37AB0 DUP3 PUSH1 0x40 MLOAD DUP3 PUSH4 0xFFFFFFFF AND PUSH1 0xE0 SHL DUP2 MSTORE PUSH1 0x4 ADD PUSH2 0x1743 SWAP2 SWAP1 PUSH2 0x4764 JUMP JUMPDEST PUSH0 PUSH1 0x40 MLOAD DUP1 DUP4 SUB DUP2 DUP7 DUP1 EXTCODESIZE ISZERO DUP1 ISZERO PUSH2 0x1759 JUMPI PUSH0 PUSH0 REVERT JUMPDEST POP GAS DELEGATECALL ISZERO DUP1 ISZERO PUSH2 0x176B JUMPI RETURNDATASIZE PUSH0 PUSH0 RETURNDATACOPY RETURNDATASIZE PUSH0 REVERT JUMPDEST POP POP POP POP POP JUMP JUMPDEST PUSH1 0x60 PUSH20 0x0 PUSH4 0xD547CFB7 PUSH1 0x40 MLOAD DUP2 PUSH4 0xFFFFFFFF AND PUSH1 0xE0 SHL DUP2 MSTORE PUSH1 0x4 ADD PUSH0 PUSH1 0x40 MLOAD DUP1 DUP4 SUB DUP2 DUP7 GAS DELEGATECALL ISZERO DUP1 ISZERO PUSH2 0x17BA JUMPI RETURNDATASIZE PUSH0 PUSH0 RETURNDATACOPY RETURNDATASIZE PUSH0 REVERT JUMPDEST POP POP POP POP PUSH1 0x40 MLOAD RETURNDATASIZE PUSH0 DUP3 RETURNDATACOPY RETURNDATASIZE PUSH1 0x1F NOT PUSH1 0x1F DUP3 ADD AND DUP3 ADD DUP1 PUSH1 0x40 MSTORE POP DUP2 ADD SWAP1 PUSH2 0x17E2 SWAP2 SWAP1 PUSH2 0x470E JUMP JUMPDEST SWAP1 POP SWAP1 JUMP JUMPDEST PUSH2 0x17EF PUSH2 0x2399 JUMP JUMPDEST PUSH20 0xFFFFFFFFFFFFFFFFFFFFFFFFFFFFFFFFFFFFFFFF AND PUSH20 0x0 PUSH4 0x893D20E8 PUSH1 0x40 MLOAD DUP2 PUSH4 0xFFFFFFFF AND PUSH1 0xE0 SHL DUP2 MSTORE PUSH1 0x4 ADD PUSH1 0x20 PUSH1 0x40 MLOAD DUP1 DUP4 SUB DUP2 DUP7 GAS DELEGATECALL ISZERO DUP1 ISZERO PUSH2 0x184C JUMPI RETURNDATASIZE PUSH0 PUSH0 RETURNDATACOPY RETURNDATASIZE PUSH0 REVERT JUMPDEST POP POP POP POP PUSH1 0x40 MLOAD RETURNDATASIZE PUSH1 0x1F NOT PUSH1 0x1F DUP3 ADD AND DUP3 ADD DUP1 PUSH1 0x40 MSTORE POP DUP2 ADD SWAP1 PUSH2 0x1870 SWAP2 SWAP1 PUSH2 0x47F9 JUMP JUMPDEST PUSH20 0xFFFFFFFFFFFFFFFFFFFFFFFFFFFFFFFFFFFFFFFF AND EQ PUSH2 0x18C6 JUMPI PUSH1 0x40 MLOAD PUSH32 0x8C379A000000000000000000000000000000000000000000000000000000000 DUP2 MSTORE PUSH1 0x4 ADD PUSH2 0x18BD SWAP1 PUSH2 0x486E JUMP JUMPDEST PUSH1 0x40 MLOAD DUP1 SWAP2 SUB SWAP1 REVERT JUMPDEST PUSH2 0x18D0 DUP3 DUP3 PUSH2 0x2E53 JUMP JUMPDEST POP POP JUMP JUMPDEST PUSH0 PUSH0 PUSH20 0xFFFFFFFFFFFFFFFFFFFFFFFFFFFFFFFFFFFFFFFF AND DUP3 PUSH20 0xFFFFFFFFFFFFFFFFFFFFFFFFFFFFFFFFFFFFFFFF AND SUB PUSH2 0x1919 JUMPI PUSH2 0x1918 PUSH4 0x8F4EB604 PUSH1 0xE0 SHL PUSH2 0x2253 JUMP JUMPDEST JUMPDEST PUSH8 0xFFFFFFFFFFFFFFFF PUSH20 0x0 PUSH4 0x21B0ED7D DUP5 PUSH1 0x40 MLOAD DUP3 PUSH4 0xFFFFFFFF AND PUSH1 0xE0 SHL DUP2 MSTORE PUSH1 0x4 ADD PUSH2 0x1959 SWAP2 SWAP1 PUSH2 0x4A53 JUMP JUMPDEST PUSH1 0x20 PUSH1 0x40 MLOAD DUP1 DUP4 SUB DUP2 DUP7 GAS DELEGATECALL ISZERO DUP1 ISZERO PUSH2 0x1974 JUMPI RETURNDATASIZE PUSH0 PUSH0 RETURNDATACOPY RETURNDATASIZE PUSH0 REVERT JUMPDEST POP POP POP POP PUSH1 0x40 MLOAD RETURNDATASIZE PUSH1 0x1F NOT PUSH1 0x1F DUP3 ADD AND DUP3 ADD DUP1 PUSH1 0x40 MSTORE POP DUP2 ADD SWAP1 PUSH2 0x1998 SWAP2 SWAP1 PUSH2 0x48A0 JUMP JUMPDEST AND SWAP1 POP SWAP2 SWAP1 POP JUMP JUMPDEST PUSH0 PUSH20 0x0 PUSH4 0x9451C99A PUSH1 0x40 MLOAD DUP2 PUSH4 0xFFFFFFFF AND PUSH1 0xE0 SHL DUP2 MSTORE PUSH1 0x4 ADD PUSH1 0x20 PUSH1 0x40 MLOAD DUP1 DUP4 SUB DUP2 DUP7 GAS DELEGATECALL ISZERO DUP1 ISZERO PUSH2 0x19E8 JUMPI RETURNDATASIZE PUSH0 PUSH0 RETURNDATACOPY RETURNDATASIZE PUSH0 REVERT JUMPDEST POP POP POP POP PUSH1 0x40 MLOAD RETURNDATASIZE PUSH1 0x1F NOT PUSH1 0x1F DUP3 ADD AND DUP3 ADD DUP1 PUSH1 0x40 MSTORE POP DUP2 ADD SWAP1 PUSH2 0x1A0C SWAP2 SWAP1 PUSH2 0x48A0 JUMP JUMPDEST SWAP1 POP SWAP1 JUMP JUMPDEST PUSH32 0x0 DUP2 JUMP JUMPDEST PUSH2 0x61A8 DUP2 JUMP JUMPDEST PUSH1 0x60 PUSH20 0x0 PUSH4 0x95D89B41 PUSH1 0x40 MLOAD DUP2 PUSH4 0xFFFFFFFF AND PUSH1 0xE0 SHL DUP2 MSTORE PUSH1 0x4 ADD PUSH0 PUSH1 0x40 MLOAD DUP1 DUP4 SUB DUP2 DUP7 GAS DELEGATECALL ISZERO DUP1 ISZERO PUSH2 0x1A83 JUMPI RETURNDATASIZE PUSH0 PUSH0 RETURNDATACOPY RETURNDATASIZE PUSH0 REVERT JUMPDEST POP POP POP POP PUSH1 0x40 MLOAD RETURNDATASIZE PUSH0 DUP3 RETURNDATACOPY RETURNDATASIZE PUSH1 0x1F NOT PUSH1 0x1F DUP3 ADD AND DUP3 ADD DUP1 PUSH1 0x40 MSTORE POP DUP2 ADD SWAP1 PUSH2 0x1AAB SWAP2 SWAP1 PUSH2 0x470E JUMP JUMPDEST SWAP1 POP SWAP1 JUMP JUMPDEST PUSH1 0x40 MLOAD DUP1 PUSH1 0x40 ADD PUSH1 0x40 MSTORE DUP1 PUSH1 0xD DUP2 MSTORE PUSH1 0x20 ADD PUSH32 0x534D455F4C6567656E6461727900000000000000000000000000000000000000 DUP2 MSTORE POP DUP2 JUMP JUMPDEST PUSH2 0x1AF1 PUSH2 0x2399 JUMP JUMPDEST PUSH20 0xFFFFFFFFFFFFFFFFFFFFFFFFFFFFFFFFFFFFFFFF AND PUSH20 0x0 PUSH4 0x893D20E8 PUSH1 0x40 MLOAD DUP2 PUSH4 0xFFFFFFFF AND PUSH1 0xE0 SHL DUP2 MSTORE PUSH1 0x4 ADD PUSH1 0x20 PUSH1 0x40 MLOAD DUP1 DUP4 SUB DUP2 DUP7 GAS DELEGATECALL ISZERO DUP1 ISZERO PUSH2 0x1B4E JUMPI RETURNDATASIZE PUSH0 PUSH0 RETURNDATACOPY RETURNDATASIZE PUSH0 REVERT JUMPDEST POP POP POP POP PUSH1 0x40 MLOAD RETURNDATASIZE PUSH1 0x1F NOT PUSH1 0x1F DUP3 ADD AND DUP3 ADD DUP1 PUSH1 0x40 MSTORE POP DUP2 ADD SWAP1 PUSH2 0x1B72 SWAP2 SWAP1 PUSH2 0x47F9 JUMP JUMPDEST PUSH20 0xFFFFFFFFFFFFFFFFFFFFFFFFFFFFFFFFFFFFFFFF AND EQ PUSH2 0x1BC8 JUMPI PUSH1 0x40 MLOAD PUSH32 0x8C379A000000000000000000000000000000000000000000000000000000000 DUP2 MSTORE PUSH1 0x4 ADD PUSH2 0x1BBF SWAP1 PUSH2 0x486E JUMP JUMPDEST PUSH1 0x40 MLOAD DUP1 SWAP2 SUB SWAP1 REVERT JUMPDEST PUSH20 0x0 PUSH4 0x821ABC2D DUP4 DUP4 PUSH1 0x40 MLOAD DUP4 PUSH4 0xFFFFFFFF AND PUSH1 0xE0 SHL DUP2 MSTORE PUSH1 0x4 ADD PUSH2 0x1C01 SWAP3 SWAP2 SWAP1 PUSH2 0x4D42 JUMP JUMPDEST PUSH0 PUSH1 0x40 MLOAD DUP1 DUP4 SUB DUP2 DUP7 DUP1 EXTCODESIZE ISZERO DUP1 ISZERO PUSH2 0x1C17 JUMPI PUSH0 PUSH0 REVERT JUMPDEST POP GAS DELEGATECALL ISZERO DUP1 ISZERO PUSH2 0x1C29 JUMPI RETURNDATASIZE PUSH0 PUSH0 RETURNDATACOPY RETURNDATASIZE PUSH0 REVERT JUMPDEST POP POP POP POP POP POP JUMP JUMPDEST PUSH20 0x0 PUSH4 0x830D4091 PUSH2 0x1C53 PUSH2 0x3190 JUMP JUMPDEST DUP5 DUP5 PUSH1 0x40 MLOAD DUP5 PUSH4 0xFFFFFFFF AND PUSH1 0xE0 SHL DUP2 MSTORE PUSH1 0x4 ADD PUSH2 0x1C73 SWAP4 SWAP3 SWAP2 SWAP1 PUSH2 0x4D64 JUMP JUMPDEST PUSH0 PUSH1 0x40 MLOAD DUP1 DUP4 SUB DUP2 DUP7 DUP1 EXTCODESIZE ISZERO DUP1 ISZERO PUSH2 0x1C89 JUMPI PUSH0 PUSH0 REVERT JUMPDEST POP GAS DELEGATECALL ISZERO DUP1 ISZERO PUSH2 0x1C9B JUMPI RETURNDATASIZE PUSH0 PUSH0 RETURNDATACOPY RETURNDATASIZE PUSH0 REVERT JUMPDEST POP POP POP POP DUP2 PUSH20 0xFFFFFFFFFFFFFFFFFFFFFFFFFFFFFFFFFFFFFFFF AND PUSH2 0x1CBE PUSH2 0x3190 JUMP JUMPDEST PUSH20 0xFFFFFFFFFFFFFFFFFFFFFFFFFFFFFFFFFFFFFFFF AND PUSH32 0x17307EAB39AB6107E8899845AD3D59BD9653F200F220920489CA2B5937696C31 DUP4 PUSH1 0x40 MLOAD PUSH2 0x1D03 SWAP2 SWAP1 PUSH2 0x3E93 JUMP JUMPDEST PUSH1 0x40 MLOAD DUP1 SWAP2 SUB SWAP1 LOG3 POP POP JUMP JUMPDEST PUSH2 0x1388 DUP2 JUMP JUMPDEST PUSH2 0x1D20 DUP5 DUP5 DUP5 PUSH2 0xC7E JUMP JUMPDEST PUSH0 DUP4 PUSH20 0xFFFFFFFFFFFFFFFFFFFFFFFFFFFFFFFFFFFFFFFF AND EXTCODESIZE EQ PUSH2 0x1D60 JUMPI PUSH2 0x1D4A DUP5 DUP5 DUP5 DUP5 PUSH2 0x3197 JUMP JUMPDEST PUSH2 0x1D5F JUMPI PUSH2 0x1D5E PUSH4 0xD1A57ED6 PUSH1 0xE0 SHL PUSH2 0x2253 JUMP JUMPDEST JUMPDEST JUMPDEST POP POP POP POP JUMP JUMPDEST PUSH1 0x60 PUSH0 PUSH20 0x0 PUSH4 0x6C8B703F DUP5 PUSH1 0x40 MLOAD DUP3 PUSH4 0xFFFFFFFF AND PUSH1 0xE0 SHL DUP2 MSTORE PUSH1 0x4 ADD PUSH2 0x1DA0 SWAP2 SWAP1 PUSH2 0x4764 JUMP JUMPDEST PUSH0 PUSH1 0x40 MLOAD DUP1 DUP4 SUB DUP2 DUP7 GAS DELEGATECALL ISZERO DUP1 ISZERO PUSH2 0x1DBA JUMPI RETURNDATASIZE PUSH0 PUSH0 RETURNDATACOPY RETURNDATASIZE PUSH0 REVERT JUMPDEST POP POP POP POP PUSH1 0x40 MLOAD RETURNDATASIZE PUSH0 DUP3 RETURNDATACOPY RETURNDATASIZE PUSH1 0x1F NOT PUSH1 0x1F DUP3 ADD AND DUP3 ADD DUP1 PUSH1 0x40 MSTORE POP DUP2 ADD SWAP1 PUSH2 0x1DE2 SWAP2 SWAP1 PUSH2 0x470E JUMP JUMPDEST SWAP1 POP PUSH0 PUSH2 0x1DED PUSH2 0x32C1 JUMP JUMPDEST SWAP1 POP PUSH0 DUP2 MLOAD SUB PUSH2 0x1E01 JUMPI DUP2 SWAP3 POP POP POP PUSH2 0x1E43 JUMP JUMPDEST PUSH0 DUP3 MLOAD GT ISZERO PUSH2 0x1E35 JUMPI DUP1 DUP3 PUSH1 0x40 MLOAD PUSH1 0x20 ADD PUSH2 0x1E1D SWAP3 SWAP2 SWAP1 PUSH2 0x4DD3 JUMP JUMPDEST PUSH1 0x40 MLOAD PUSH1 0x20 DUP2 DUP4 SUB SUB DUP2 MSTORE SWAP1 PUSH1 0x40 MSTORE SWAP3 POP POP POP PUSH2 0x1E43 JUMP JUMPDEST PUSH2 0x1E3E DUP5 PUSH2 0x32D7 JUMP JUMPDEST SWAP3 POP POP POP JUMPDEST SWAP2 SWAP1 POP JUMP JUMPDEST PUSH0 PUSH20 0x0 PUSH4 0xDDCA3F43 PUSH1 0x40 MLOAD DUP2 PUSH4 0xFFFFFFFF AND PUSH1 0xE0 SHL DUP2 MSTORE PUSH1 0x4 ADD PUSH1 0x20 PUSH1 0x40 MLOAD DUP1 DUP4 SUB DUP2 DUP7 GAS DELEGATECALL ISZERO DUP1 ISZERO PUSH2 0x1E90 JUMPI RETURNDATASIZE PUSH0 PUSH0 RETURNDATACOPY RETURNDATASIZE PUSH0 REVERT JUMPDEST POP POP POP POP PUSH1 0x40 MLOAD RETURNDATASIZE PUSH1 0x1F NOT PUSH1 0x1F DUP3 ADD AND DUP3 ADD DUP1 PUSH1 0x40 MSTORE POP DUP2 ADD SWAP1 PUSH2 0x1EB4 SWAP2 SWAP1 PUSH2 0x48A0 JUMP JUMPDEST SWAP1 POP SWAP1 JUMP JUMPDEST PUSH2 0x1EC1 PUSH2 0x2399 JUMP JUMPDEST PUSH20 0xFFFFFFFFFFFFFFFFFFFFFFFFFFFFFFFFFFFFFFFF AND PUSH20 0x0 PUSH4 0x893D20E8 PUSH1 0x40 MLOAD DUP2 PUSH4 0xFFFFFFFF AND PUSH1 0xE0 SHL DUP2 MSTORE PUSH1 0x4 ADD PUSH1 0x20 PUSH1 0x40 MLOAD DUP1 DUP4 SUB DUP2 DUP7 GAS DELEGATECALL ISZERO DUP1 ISZERO PUSH2 0x1F1E JUMPI RETURNDATASIZE PUSH0 PUSH0 RETURNDATACOPY RETURNDATASIZE PUSH0 REVERT JUMPDEST POP POP POP POP PUSH1 0x40 MLOAD RETURNDATASIZE PUSH1 0x1F NOT PUSH1 0x1F DUP3 ADD AND DUP3 ADD DUP1 PUSH1 0x40 MSTORE POP DUP2 ADD SWAP1 PUSH2 0x1F42 SWAP2 SWAP1 PUSH2 0x47F9 JUMP JUMPDEST PUSH20 0xFFFFFFFFFFFFFFFFFFFFFFFFFFFFFFFFFFFFFFFF AND EQ PUSH2 0x1F98 JUMPI PUSH1 0x40 MLOAD PUSH32 0x8C379A000000000000000000000000000000000000000000000000000000000 DUP2 MSTORE PUSH1 0x4 ADD PUSH2 0x1F8F SWAP1 PUSH2 0x486E JUMP JUMPDEST PUSH1 0x40 MLOAD DUP1 SWAP2 SUB SWAP1 REVERT JUMPDEST PUSH20 0x0 PUSH4 0x854F9DB9 DUP3 PUSH1 0x40 MLOAD DUP3 PUSH4 0xFFFFFFFF AND PUSH1 0xE0 SHL DUP2 MSTORE PUSH1 0x4 ADD PUSH2 0x1FCF SWAP2 SWAP1 PUSH2 0x4CC6 JUMP JUMPDEST PUSH0 PUSH1 0x40 MLOAD DUP1 DUP4 SUB DUP2 DUP7 DUP1 EXTCODESIZE ISZERO DUP1 ISZERO PUSH2 0x1FE5 JUMPI PUSH0 PUSH0 REVERT JUMPDEST POP GAS DELEGATECALL ISZERO DUP1 ISZERO PUSH2 0x1FF7 JUMPI RETURNDATASIZE PUSH0 PUSH0 RETURNDATACOPY RETURNDATASIZE PUSH0 REVERT JUMPDEST POP POP POP POP POP JUMP JUMPDEST PUSH0 PUSH20 0x0 PUSH4 0xEDC3BC3F DUP5 DUP5 PUSH1 0x40 MLOAD DUP4 PUSH4 0xFFFFFFFF AND PUSH1 0xE0 SHL DUP2 MSTORE PUSH1 0x4 ADD PUSH2 0x2038 SWAP3 SWAP2 SWAP1 PUSH2 0x4DF6 JUMP JUMPDEST PUSH1 0x20 PUSH1 0x40 MLOAD DUP1 DUP4 SUB DUP2 DUP7 GAS DELEGATECALL ISZERO DUP1 ISZERO PUSH2 0x2053 JUMPI RETURNDATASIZE PUSH0 PUSH0 RETURNDATACOPY RETURNDATASIZE PUSH0 REVERT JUMPDEST POP POP POP POP PUSH1 0x40 MLOAD RETURNDATASIZE PUSH1 0x1F NOT PUSH1 0x1F DUP3 ADD AND DUP3 ADD DUP1 PUSH1 0x40 MSTORE POP DUP2 ADD SWAP1 PUSH2 0x2077 SWAP2 SWAP1 PUSH2 0x4A80 JUMP JUMPDEST SWAP1 POP SWAP3 SWAP2 POP POP JUMP JUMPDEST PUSH0 DUP2 PUSH2 0x2089 PUSH2 0x2440 JUMP JUMPDEST GT PUSH2 0x224D JUMPI PUSH2 0x2096 PUSH2 0x2448 JUMP JUMPDEST DUP3 GT ISZERO PUSH2 0x2122 JUMPI PUSH2 0x211B PUSH20 0x0 PUSH4 0x47F69EBA DUP5 PUSH1 0x40 MLOAD DUP3 PUSH4 0xFFFFFFFF AND PUSH1 0xE0 SHL DUP2 MSTORE PUSH1 0x4 ADD PUSH2 0x20D7 SWAP2 SWAP1 PUSH2 0x4764 JUMP JUMPDEST PUSH1 0x20 PUSH1 0x40 MLOAD DUP1 DUP4 SUB DUP2 DUP7 GAS DELEGATECALL ISZERO DUP1 ISZERO PUSH2 0x20F2 JUMPI RETURNDATASIZE PUSH0 PUSH0 RETURNDATACOPY RETURNDATASIZE PUSH0 REVERT JUMPDEST POP POP POP POP PUSH1 0x40 MLOAD RETURNDATASIZE PUSH1 0x1F NOT PUSH1 0x1F DUP3 ADD AND DUP3 ADD DUP1 PUSH1 0x40 MSTORE POP DUP2 ADD SWAP1 PUSH2 0x2116 SWAP2 SWAP1 PUSH2 0x48A0 JUMP JUMPDEST PUSH2 0x3351 JUMP JUMPDEST SWAP1 POP PUSH2 0x224E JUMP JUMPDEST PUSH20 0x0 PUSH4 0x9451C99A PUSH1 0x40 MLOAD DUP2 PUSH4 0xFFFFFFFF AND PUSH1 0xE0 SHL DUP2 MSTORE PUSH1 0x4 ADD PUSH1 0x20 PUSH1 0x40 MLOAD DUP1 DUP4 SUB DUP2 DUP7 GAS DELEGATECALL ISZERO DUP1 ISZERO PUSH2 0x2169 JUMPI RETURNDATASIZE PUSH0 PUSH0 RETURNDATACOPY RETURNDATASIZE PUSH0 REVERT JUMPDEST POP POP POP POP PUSH1 0x40 MLOAD RETURNDATASIZE PUSH1 0x1F NOT PUSH1 0x1F DUP3 ADD AND DUP3 ADD DUP1 PUSH1 0x40 MSTORE POP DUP2 ADD SWAP1 PUSH2 0x218D SWAP2 SWAP1 PUSH2 0x48A0 JUMP JUMPDEST DUP3 LT ISZERO PUSH2 0x224C JUMPI PUSH0 JUMPDEST PUSH0 PUSH20 0x0 PUSH4 0x47F69EBA DUP6 PUSH1 0x40 MLOAD DUP3 PUSH4 0xFFFFFFFF AND PUSH1 0xE0 SHL DUP2 MSTORE PUSH1 0x4 ADD PUSH2 0x21CE SWAP2 SWAP1 PUSH2 0x4764 JUMP JUMPDEST PUSH1 0x20 PUSH1 0x40 MLOAD DUP1 DUP4 SUB DUP2 DUP7 GAS DELEGATECALL ISZERO DUP1 ISZERO PUSH2 0x21E9 JUMPI RETURNDATASIZE PUSH0 PUSH0 RETURNDATACOPY RETURNDATASIZE PUSH0 REVERT JUMPDEST POP POP POP POP PUSH1 0x40 MLOAD RETURNDATASIZE PUSH1 0x1F NOT PUSH1 0x1F DUP3 ADD AND DUP3 ADD DUP1 PUSH1 0x40 MSTORE POP DUP2 ADD SWAP1 PUSH2 0x220D SWAP2 SWAP1 PUSH2 0x48A0 JUMP JUMPDEST SWAP2 POP DUP2 SUB PUSH2 0x2226 JUMPI DUP3 PUSH2 0x221F SWAP1 PUSH2 0x4E4A JUMP JUMPDEST SWAP3 POP PUSH2 0x2196 JUMP JUMPDEST PUSH0 PUSH29 0x100000000000000000000000000000000000000000000000000000000 DUP3 AND EQ SWAP2 POP POP JUMPDEST JUMPDEST JUMPDEST SWAP2 SWAP1 POP JUMP JUMPDEST DUP1 PUSH0 MSTORE PUSH1 0x4 PUSH0 REVERT JUMPDEST PUSH0 PUSH2 0x2265 DUP4 PUSH2 0x161C JUMP JUMPDEST SWAP1 POP DUP2 DUP1 ISZERO PUSH2 0x22A7 JUMPI POP DUP1 PUSH20 0xFFFFFFFFFFFFFFFFFFFFFFFFFFFFFFFFFFFFFFFF AND PUSH2 0x228E PUSH2 0x3190 JUMP JUMPDEST PUSH20 0xFFFFFFFFFFFFFFFFFFFFFFFFFFFFFFFFFFFFFFFF AND EQ ISZERO JUMPDEST ISZERO PUSH2 0x22D3 JUMPI PUSH2 0x22BD DUP2 PUSH2 0x22B8 PUSH2 0x3190 JUMP JUMPDEST PUSH2 0x1FFE JUMP JUMPDEST PUSH2 0x22D2 JUMPI PUSH2 0x22D1 PUSH4 0xCFB3B942 PUSH1 0xE0 SHL PUSH2 0x2253 JUMP JUMPDEST JUMPDEST JUMPDEST PUSH20 0x0 PUSH4 0x13C19FF6 DUP5 DUP7 PUSH1 0x40 MLOAD DUP4 PUSH4 0xFFFFFFFF AND PUSH1 0xE0 SHL DUP2 MSTORE PUSH1 0x4 ADD PUSH2 0x230C SWAP3 SWAP2 SWAP1 PUSH2 0x4E71 JUMP JUMPDEST PUSH0 PUSH1 0x40 MLOAD DUP1 DUP4 SUB DUP2 DUP7 DUP1 EXTCODESIZE ISZERO DUP1 ISZERO PUSH2 0x2322 JUMPI PUSH0 PUSH0 REVERT JUMPDEST POP GAS DELEGATECALL ISZERO DUP1 ISZERO PUSH2 0x2334 JUMPI RETURNDATASIZE PUSH0 PUSH0 RETURNDATACOPY RETURNDATASIZE PUSH0 REVERT JUMPDEST POP POP POP POP DUP3 DUP5 PUSH20 0xFFFFFFFFFFFFFFFFFFFFFFFFFFFFFFFFFFFFFFFF AND DUP3 PUSH20 0xFFFFFFFFFFFFFFFFFFFFFFFFFFFFFFFFFFFFFFFF AND PUSH32 0x8C5BE1E5EBEC7D5BD14F71427D1E84F3DD0314C0F7B2291E5B200AC8C7C3B925 PUSH1 0x40 MLOAD PUSH1 0x40 MLOAD DUP1 SWAP2 SUB SWAP1 LOG4 POP POP POP POP JUMP JUMPDEST PUSH0 CALLER SWAP1 POP SWAP1 JUMP JUMPDEST PUSH20 0x0 PUSH4 0xDEC84DB1 DUP3 DUP5 PUSH1 0x40 MLOAD DUP4 PUSH4 0xFFFFFFFF AND PUSH1 0xE0 SHL DUP2 MSTORE PUSH1 0x4 ADD PUSH2 0x23D9 SWAP3 SWAP2 SWAP1 PUSH2 0x4ED0 JUMP JUMPDEST PUSH0 PUSH1 0x40 MLOAD DUP1 DUP4 SUB DUP2 DUP7 DUP1 EXTCODESIZE ISZERO DUP1 ISZERO PUSH2 0x23EF JUMPI PUSH0 PUSH0 REVERT JUMPDEST POP GAS DELEGATECALL ISZERO DUP1 ISZERO PUSH2 0x2401 JUMPI RETURNDATASIZE PUSH0 PUSH0 RETURNDATACOPY RETURNDATASIZE PUSH0 REVERT JUMPDEST POP POP POP POP PUSH32 0xF8E1A15ABA9398E019F0B49DF1A4FDE98EE17AE345CB5F6B5E2C27F5033E8CE7 DUP3 PUSH1 0x40 MLOAD PUSH2 0x2434 SWAP2 SWAP1 PUSH2 0x4069 JUMP JUMPDEST PUSH1 0x40 MLOAD DUP1 SWAP2 SUB SWAP1 LOG1 POP POP JUMP JUMPDEST PUSH0 PUSH1 0x1 SWAP1 POP SWAP1 JUMP JUMPDEST PUSH0 PUSH32 0xFFFFFFFFFFFFFFFFFFFFFFFFFFFFFFFFFFFFFFFFFFFFFFFFFFFFFFFFFFFFFFFF SWAP1 POP SWAP1 JUMP JUMPDEST PUSH0 PUSH2 0x2479 DUP3 PUSH2 0x2C13 JUMP JUMPDEST SWAP1 POP PUSH20 0xFFFFFFFFFFFFFFFFFFFFFFFFFFFFFFFFFFFFFFFF DUP5 PUSH20 0xFFFFFFFFFFFFFFFFFFFFFFFFFFFFFFFFFFFFFFFF AND AND SWAP4 POP DUP4 PUSH20 0xFFFFFFFFFFFFFFFFFFFFFFFFFFFFFFFFFFFFFFFF AND DUP2 PUSH20 0xFFFFFFFFFFFFFFFFFFFFFFFFFFFFFFFFFFFFFFFF AND EQ PUSH2 0x24EE JUMPI PUSH2 0x24ED PUSH4 0xA1148100 PUSH1 0xE0 SHL PUSH2 0x2253 JUMP JUMPDEST JUMPDEST PUSH0 PUSH0 PUSH2 0x24F9 DUP5 PUSH2 0x3391 JUMP JUMPDEST SWAP2 POP SWAP2 POP PUSH2 0x250F DUP2 DUP8 PUSH2 0x250A PUSH2 0x3190 JUMP JUMPDEST PUSH2 0x3417 JUMP JUMPDEST PUSH2 0x253A JUMPI PUSH2 0x2524 DUP7 PUSH2 0x251F PUSH2 0x3190 JUMP JUMPDEST PUSH2 0x1FFE JUMP JUMPDEST PUSH2 0x2539 JUMPI PUSH2 0x2538 PUSH4 0x59C896BE PUSH1 0xE0 SHL PUSH2 0x2253 JUMP JUMPDEST JUMPDEST JUMPDEST PUSH2 0x2547 DUP7 DUP7 DUP7 PUSH1 0x1 PUSH2 0x345A JUMP JUMPDEST PUSH20 0x0 PUSH4 0x13C19FF6 DUP6 PUSH0 PUSH1 0x40 MLOAD DUP4 PUSH4 0xFFFFFFFF AND PUSH1 0xE0 SHL DUP2 MSTORE PUSH1 0x4 ADD PUSH2 0x2580 SWAP3 SWAP2 SWAP1 PUSH2 0x4E71 JUMP JUMPDEST PUSH0 PUSH1 0x40 MLOAD DUP1 DUP4 SUB DUP2 DUP7 DUP1 EXTCODESIZE ISZERO DUP1 ISZERO PUSH2 0x2596 JUMPI PUSH0 PUSH0 REVERT JUMPDEST POP GAS DELEGATECALL ISZERO DUP1 ISZERO PUSH2 0x25A8 JUMPI RETURNDATASIZE PUSH0 PUSH0 RETURNDATACOPY RETURNDATASIZE PUSH0 REVERT JUMPDEST POP POP POP POP PUSH20 0x0 PUSH4 0x31413EFC DUP8 PUSH1 0x40 MLOAD DUP3 PUSH4 0xFFFFFFFF AND PUSH1 0xE0 SHL DUP2 MSTORE PUSH1 0x4 ADD PUSH2 0x25E3 SWAP2 SWAP1 PUSH2 0x4A53 JUMP JUMPDEST PUSH0 PUSH1 0x40 MLOAD DUP1 DUP4 SUB DUP2 DUP7 DUP1 EXTCODESIZE ISZERO DUP1 ISZERO PUSH2 0x25F9 JUMPI PUSH0 PUSH0 REVERT JUMPDEST POP GAS DELEGATECALL ISZERO DUP1 ISZERO PUSH2 0x260B JUMPI RETURNDATASIZE PUSH0 PUSH0 RETURNDATACOPY RETURNDATASIZE PUSH0 REVERT JUMPDEST POP POP POP POP PUSH20 0x0 PUSH4 0xD0125152 DUP7 PUSH1 0x40 MLOAD DUP3 PUSH4 0xFFFFFFFF AND PUSH1 0xE0 SHL DUP2 MSTORE PUSH1 0x4 ADD PUSH2 0x2646 SWAP2 SWAP1 PUSH2 0x4A53 JUMP JUMPDEST PUSH0 PUSH1 0x40 MLOAD DUP1 DUP4 SUB DUP2 DUP7 DUP1 EXTCODESIZE ISZERO DUP1 ISZERO PUSH2 0x265C JUMPI PUSH0 PUSH0 REVERT JUMPDEST POP GAS DELEGATECALL ISZERO DUP1 ISZERO PUSH2 0x266E JUMPI RETURNDATASIZE PUSH0 PUSH0 RETURNDATACOPY RETURNDATASIZE PUSH0 REVERT JUMPDEST POP POP POP POP PUSH20 0x0 PUSH4 0xE68FDEE1 DUP6 PUSH2 0x26C0 DUP9 PUSH2 0x269C DUP12 DUP12 DUP11 PUSH2 0x3460 JUMP JUMPDEST PUSH29 0x200000000000000000000000000000000000000000000000000000000 OR PUSH2 0x3487 JUMP JUMPDEST PUSH1 0x40 MLOAD DUP4 PUSH4 0xFFFFFFFF AND PUSH1 0xE0 SHL DUP2 MSTORE PUSH1 0x4 ADD PUSH2 0x26DD SWAP3 SWAP2 SWAP1 PUSH2 0x4EFE JUMP JUMPDEST PUSH0 PUSH1 0x40 MLOAD DUP1 DUP4 SUB DUP2 DUP7 DUP1 EXTCODESIZE ISZERO DUP1 ISZERO PUSH2 0x26F3 JUMPI PUSH0 PUSH0 REVERT JUMPDEST POP GAS DELEGATECALL ISZERO DUP1 ISZERO PUSH2 0x2705 JUMPI RETURNDATASIZE PUSH0 PUSH0 RETURNDATACOPY RETURNDATASIZE PUSH0 REVERT JUMPDEST POP POP POP POP PUSH0 PUSH29 0x200000000000000000000000000000000000000000000000000000000 DUP5 AND SUB PUSH2 0x288C JUMPI PUSH0 PUSH1 0x1 DUP6 ADD SWAP1 POP PUSH0 PUSH20 0x0 PUSH4 0x47F69EBA DUP4 PUSH1 0x40 MLOAD DUP3 PUSH4 0xFFFFFFFF AND PUSH1 0xE0 SHL DUP2 MSTORE PUSH1 0x4 ADD PUSH2 0x276E SWAP2 SWAP1 PUSH2 0x4764 JUMP JUMPDEST PUSH1 0x20 PUSH1 0x40 MLOAD DUP1 DUP4 SUB DUP2 DUP7 GAS DELEGATECALL ISZERO DUP1 ISZERO PUSH2 0x2789 JUMPI RETURNDATASIZE PUSH0 PUSH0 RETURNDATACOPY RETURNDATASIZE PUSH0 REVERT JUMPDEST POP POP POP POP PUSH1 0x40 MLOAD RETURNDATASIZE PUSH1 0x1F NOT PUSH1 0x1F DUP3 ADD AND DUP3 ADD DUP1 PUSH1 0x40 MSTORE POP DUP2 ADD SWAP1 PUSH2 0x27AD SWAP2 SWAP1 PUSH2 0x48A0 JUMP JUMPDEST SUB PUSH2 0x288A JUMPI PUSH20 0x0 PUSH4 0x9451C99A PUSH1 0x40 MLOAD DUP2 PUSH4 0xFFFFFFFF AND PUSH1 0xE0 SHL DUP2 MSTORE PUSH1 0x4 ADD PUSH1 0x20 PUSH1 0x40 MLOAD DUP1 DUP4 SUB DUP2 DUP7 GAS DELEGATECALL ISZERO DUP1 ISZERO PUSH2 0x27F9 JUMPI RETURNDATASIZE PUSH0 PUSH0 RETURNDATACOPY RETURNDATASIZE PUSH0 REVERT JUMPDEST POP POP POP POP PUSH1 0x40 MLOAD RETURNDATASIZE PUSH1 0x1F NOT PUSH1 0x1F DUP3 ADD AND DUP3 ADD DUP1 PUSH1 0x40 MSTORE POP DUP2 ADD SWAP1 PUSH2 0x281D SWAP2 SWAP1 PUSH2 0x48A0 JUMP JUMPDEST DUP2 EQ PUSH2 0x2889 JUMPI PUSH20 0x0 PUSH4 0xE68FDEE1 DUP3 DUP7 PUSH1 0x40 MLOAD DUP4 PUSH4 0xFFFFFFFF AND PUSH1 0xE0 SHL DUP2 MSTORE PUSH1 0x4 ADD PUSH2 0x285C SWAP3 SWAP2 SWAP1 PUSH2 0x4EFE JUMP JUMPDEST PUSH0 PUSH1 0x40 MLOAD DUP1 DUP4 SUB DUP2 DUP7 DUP1 EXTCODESIZE ISZERO DUP1 ISZERO PUSH2 0x2872 JUMPI PUSH0 PUSH0 REVERT JUMPDEST POP GAS DELEGATECALL ISZERO DUP1 ISZERO PUSH2 0x2884 JUMPI RETURNDATASIZE PUSH0 PUSH0 RETURNDATACOPY RETURNDATASIZE PUSH0 REVERT JUMPDEST POP POP POP POP JUMPDEST JUMPDEST POP JUMPDEST PUSH0 PUSH20 0xFFFFFFFFFFFFFFFFFFFFFFFFFFFFFFFFFFFFFFFF DUP7 PUSH20 0xFFFFFFFFFFFFFFFFFFFFFFFFFFFFFFFFFFFFFFFF AND AND SWAP1 POP DUP5 DUP2 DUP9 PUSH32 0xDDF252AD1BE2C89B69C2B068FC378DAA952BA7F163C4A11628F55A4DF523B3EF PUSH0 PUSH0 LOG4 PUSH0 DUP2 SUB PUSH2 0x28FB JUMPI PUSH2 0x28FA PUSH4 0xEA553B34 PUSH1 0xE0 SHL PUSH2 0x2253 JUMP JUMPDEST JUMPDEST PUSH2 0x2908 DUP8 DUP8 DUP8 PUSH1 0x1 PUSH2 0x34B1 JUMP JUMPDEST POP POP POP POP POP POP POP JUMP JUMPDEST PUSH0 PUSH20 0xFFFFFFFFFFFFFFFFFFFFFFFFFFFFFFFFFFFFFFFF AND DUP4 PUSH20 0xFFFFFFFFFFFFFFFFFFFFFFFFFFFFFFFFFFFFFFFF AND SUB PUSH2 0x2952 JUMPI PUSH2 0x294D DUP2 PUSH2 0x34B7 JUMP JUMPDEST PUSH2 0x2991 JUMP JUMPDEST DUP2 PUSH20 0xFFFFFFFFFFFFFFFFFFFFFFFFFFFFFFFFFFFFFFFF AND DUP4 PUSH20 0xFFFFFFFFFFFFFFFFFFFFFFFFFFFFFFFFFFFFFFFF AND EQ PUSH2 0x2990 JUMPI PUSH2 0x298F DUP4 DUP3 PUSH2 0x351D JUMP JUMPDEST JUMPDEST JUMPDEST PUSH0 PUSH20 0xFFFFFFFFFFFFFFFFFFFFFFFFFFFFFFFFFFFFFFFF AND DUP3 PUSH20 0xFFFFFFFFFFFFFFFFFFFFFFFFFFFFFFFFFFFFFFFF AND SUB PUSH2 0x29D2 JUMPI PUSH2 0x29CD DUP2 PUSH2 0x3590 JUMP JUMPDEST PUSH2 0x2A11 JUMP JUMPDEST DUP2 PUSH20 0xFFFFFFFFFFFFFFFFFFFFFFFFFFFFFFFFFFFFFFFF AND DUP4 PUSH20 0xFFFFFFFFFFFFFFFFFFFFFFFFFFFFFFFFFFFFFFFF AND EQ PUSH2 0x2A10 JUMPI PUSH2 0x2A0F DUP3 DUP3 PUSH2 0x35F6 JUMP JUMPDEST JUMPDEST JUMPDEST POP POP POP JUMP JUMPDEST PUSH1 0x2 PUSH0 SLOAD SUB PUSH2 0x2A5A JUMPI PUSH1 0x40 MLOAD PUSH32 0x8C379A000000000000000000000000000000000000000000000000000000000 DUP2 MSTORE PUSH1 0x4 ADD PUSH2 0x2A51 SWAP1 PUSH2 0x4F6F JUMP JUMPDEST PUSH1 0x40 MLOAD DUP1 SWAP2 SUB SWAP1 REVERT JUMPDEST PUSH1 0x2 PUSH0 DUP2 SWAP1 SSTORE POP JUMP JUMPDEST PUSH1 0x1 PUSH0 DUP2 SWAP1 SSTORE POP JUMP JUMPDEST PUSH0 PUSH20 0x0 PUSH4 0x9451C99A PUSH1 0x40 MLOAD DUP2 PUSH4 0xFFFFFFFF AND PUSH1 0xE0 SHL DUP2 MSTORE PUSH1 0x4 ADD PUSH1 0x20 PUSH1 0x40 MLOAD DUP1 DUP4 SUB DUP2 DUP7 GAS DELEGATECALL ISZERO DUP1 ISZERO PUSH2 0x2AB4 JUMPI RETURNDATASIZE PUSH0 PUSH0 RETURNDATACOPY RETURNDATASIZE PUSH0 REVERT JUMPDEST POP POP POP POP PUSH1 0x40 MLOAD RETURNDATASIZE PUSH1 0x1F NOT PUSH1 0x1F DUP3 ADD AND DUP3 ADD DUP1 PUSH1 0x40 MSTORE POP DUP2 ADD SWAP1 PUSH2 0x2AD8 SWAP2 SWAP1 PUSH2 0x48A0 JUMP JUMPDEST SWAP1 POP SWAP1 JUMP JUMPDEST PUSH0 DUP3 PUSH2 0x2AE9 DUP6 DUP5 PUSH2 0x3675 JUMP JUMPDEST EQ SWAP1 POP SWAP4 SWAP3 POP POP POP JUMP JUMPDEST PUSH2 0x2B0C DUP3 DUP3 PUSH1 0x40 MLOAD DUP1 PUSH1 0x20 ADD PUSH1 0x40 MSTORE DUP1 PUSH0 DUP2 MSTORE POP PUSH2 0x36C6 JUMP JUMPDEST POP POP JUMP JUMPDEST PUSH1 0x60 PUSH2 0x2B1B DUP3 PUSH2 0x207F JUMP JUMPDEST PUSH2 0x2B5A JUMPI PUSH1 0x40 MLOAD PUSH32 0x8C379A000000000000000000000000000000000000000000000000000000000 DUP2 MSTORE PUSH1 0x4 ADD PUSH2 0x2B51 SWAP1 PUSH2 0x4FFD JUMP JUMPDEST PUSH1 0x40 MLOAD DUP1 SWAP2 SUB SWAP1 REVERT JUMPDEST PUSH0 PUSH2 0x2B63 PUSH2 0x1772 JUMP JUMPDEST SWAP1 POP PUSH0 DUP2 MLOAD GT PUSH2 0x2BE0 JUMPI PUSH20 0x0 PUSH4 0x963BFE12 PUSH1 0x40 MLOAD DUP2 PUSH4 0xFFFFFFFF AND PUSH1 0xE0 SHL DUP2 MSTORE PUSH1 0x4 ADD PUSH0 PUSH1 0x40 MLOAD DUP1 DUP4 SUB DUP2 DUP7 GAS DELEGATECALL ISZERO DUP1 ISZERO PUSH2 0x2BB3 JUMPI RETURNDATASIZE PUSH0 PUSH0 RETURNDATACOPY RETURNDATASIZE PUSH0 REVERT JUMPDEST POP POP POP POP PUSH1 0x40 MLOAD RETURNDATASIZE PUSH0 DUP3 RETURNDATACOPY RETURNDATASIZE PUSH1 0x1F NOT PUSH1 0x1F DUP3 ADD AND DUP3 ADD DUP1 PUSH1 0x40 MSTORE POP DUP2 ADD SWAP1 PUSH2 0x2BDB SWAP2 SWAP1 PUSH2 0x470E JUMP JUMPDEST PUSH2 0x2C0B JUMP JUMPDEST DUP1 PUSH2 0x2BEA DUP5 PUSH2 0x380E JUMP JUMPDEST PUSH1 0x40 MLOAD PUSH1 0x20 ADD PUSH2 0x2BFB SWAP3 SWAP2 SWAP1 PUSH2 0x5065 JUMP JUMPDEST PUSH1 0x40 MLOAD PUSH1 0x20 DUP2 DUP4 SUB SUB DUP2 MSTORE SWAP1 PUSH1 0x40 MSTORE JUMPDEST SWAP2 POP POP SWAP2 SWAP1 POP JUMP JUMPDEST PUSH0 DUP2 PUSH2 0x2C1D PUSH2 0x2440 JUMP JUMPDEST GT PUSH2 0x2E3D JUMPI PUSH20 0x0 PUSH4 0x47F69EBA DUP4 PUSH1 0x40 MLOAD DUP3 PUSH4 0xFFFFFFFF AND PUSH1 0xE0 SHL DUP2 MSTORE PUSH1 0x4 ADD PUSH2 0x2C59 SWAP2 SWAP1 PUSH2 0x4764 JUMP JUMPDEST PUSH1 0x20 PUSH1 0x40 MLOAD DUP1 DUP4 SUB DUP2 DUP7 GAS DELEGATECALL ISZERO DUP1 ISZERO PUSH2 0x2C74 JUMPI RETURNDATASIZE PUSH0 PUSH0 RETURNDATACOPY RETURNDATASIZE PUSH0 REVERT JUMPDEST POP POP POP POP PUSH1 0x40 MLOAD RETURNDATASIZE PUSH1 0x1F NOT PUSH1 0x1F DUP3 ADD AND DUP3 ADD DUP1 PUSH1 0x40 MSTORE POP DUP2 ADD SWAP1 PUSH2 0x2C98 SWAP2 SWAP1 PUSH2 0x48A0 JUMP JUMPDEST SWAP1 POP PUSH2 0x2CA2 PUSH2 0x2448 JUMP JUMPDEST DUP3 GT ISZERO PUSH2 0x2CC7 JUMPI PUSH2 0x2CB2 DUP2 PUSH2 0x3351 JUMP JUMPDEST PUSH2 0x2E4E JUMPI PUSH2 0x2CC6 PUSH4 0xDF2D9B42 PUSH1 0xE0 SHL PUSH2 0x2253 JUMP JUMPDEST JUMPDEST PUSH0 DUP2 SUB PUSH2 0x2E15 JUMPI PUSH20 0x0 PUSH4 0x9451C99A PUSH1 0x40 MLOAD DUP2 PUSH4 0xFFFFFFFF AND PUSH1 0xE0 SHL DUP2 MSTORE PUSH1 0x4 ADD PUSH1 0x20 PUSH1 0x40 MLOAD DUP1 DUP4 SUB DUP2 DUP7 GAS DELEGATECALL ISZERO DUP1 ISZERO PUSH2 0x2D15 JUMPI RETURNDATASIZE PUSH0 PUSH0 RETURNDATACOPY RETURNDATASIZE PUSH0 REVERT JUMPDEST POP POP POP POP PUSH1 0x40 MLOAD RETURNDATASIZE PUSH1 0x1F NOT PUSH1 0x1F DUP3 ADD AND DUP3 ADD DUP1 PUSH1 0x40 MSTORE POP DUP2 ADD SWAP1 PUSH2 0x2D39 SWAP2 SWAP1 PUSH2 0x48A0 JUMP JUMPDEST DUP3 LT PUSH2 0x2D50 JUMPI PUSH2 0x2D4F PUSH4 0xDF2D9B42 PUSH1 0xE0 SHL PUSH2 0x2253 JUMP JUMPDEST JUMPDEST JUMPDEST PUSH20 0x0 PUSH4 0x47F69EBA DUP4 PUSH1 0x1 SWAP1 SUB SWAP4 POP DUP4 PUSH1 0x40 MLOAD DUP3 PUSH4 0xFFFFFFFF AND PUSH1 0xE0 SHL DUP2 MSTORE PUSH1 0x4 ADD PUSH2 0x2D8F SWAP2 SWAP1 PUSH2 0x4764 JUMP JUMPDEST PUSH1 0x20 PUSH1 0x40 MLOAD DUP1 DUP4 SUB DUP2 DUP7 GAS DELEGATECALL ISZERO DUP1 ISZERO PUSH2 0x2DAA JUMPI RETURNDATASIZE PUSH0 PUSH0 RETURNDATACOPY RETURNDATASIZE PUSH0 REVERT JUMPDEST POP POP POP POP PUSH1 0x40 MLOAD RETURNDATASIZE PUSH1 0x1F NOT PUSH1 0x1F DUP3 ADD AND DUP3 ADD DUP1 PUSH1 0x40 MSTORE POP DUP2 ADD SWAP1 PUSH2 0x2DCE SWAP2 SWAP1 PUSH2 0x48A0 JUMP JUMPDEST SWAP1 POP PUSH0 DUP2 SUB ISZERO PUSH2 0x2E10 JUMPI PUSH0 PUSH29 0x100000000000000000000000000000000000000000000000000000000 DUP3 AND SUB ISZERO PUSH2 0x2E4E JUMPI PUSH2 0x2E0F PUSH4 0xDF2D9B42 PUSH1 0xE0 SHL PUSH2 0x2253 JUMP JUMPDEST JUMPDEST PUSH2 0x2D51 JUMP JUMPDEST PUSH0 PUSH29 0x100000000000000000000000000000000000000000000000000000000 DUP3 AND SUB ISZERO PUSH2 0x2E4E JUMPI JUMPDEST PUSH2 0x2E4D PUSH4 0xDF2D9B42 PUSH1 0xE0 SHL PUSH2 0x2253 JUMP JUMPDEST JUMPDEST SWAP2 SWAP1 POP JUMP JUMPDEST PUSH20 0x0 PUSH4 0xA05CC559 PUSH1 0x40 MLOAD DUP2 PUSH4 0xFFFFFFFF AND PUSH1 0xE0 SHL DUP2 MSTORE PUSH1 0x4 ADD PUSH2 0x2E88 SWAP1 PUSH2 0x5129 JUMP JUMPDEST PUSH0 PUSH1 0x40 MLOAD DUP1 DUP4 SUB DUP2 DUP7 DUP1 EXTCODESIZE ISZERO DUP1 ISZERO PUSH2 0x2E9E JUMPI PUSH0 PUSH0 REVERT JUMPDEST POP GAS DELEGATECALL ISZERO DUP1 ISZERO PUSH2 0x2EB0 JUMPI RETURNDATASIZE PUSH0 PUSH0 RETURNDATACOPY RETURNDATASIZE PUSH0 REVERT JUMPDEST POP POP POP POP PUSH20 0x0 PUSH4 0x821ABC2D PUSH1 0x40 MLOAD DUP2 PUSH4 0xFFFFFFFF AND PUSH1 0xE0 SHL DUP2 MSTORE PUSH1 0x4 ADD PUSH2 0x2EE9 SWAP1 PUSH2 0x51DD JUMP JUMPDEST PUSH0 PUSH1 0x40 MLOAD DUP1 DUP4 SUB DUP2 DUP7 DUP1 EXTCODESIZE ISZERO DUP1 ISZERO PUSH2 0x2EFF JUMPI PUSH0 PUSH0 REVERT JUMPDEST POP GAS DELEGATECALL ISZERO DUP1 ISZERO PUSH2 0x2F11 JUMPI RETURNDATASIZE PUSH0 PUSH0 RETURNDATACOPY RETURNDATASIZE PUSH0 REVERT JUMPDEST POP POP POP POP PUSH20 0x0 PUSH4 0x854F9DB9 PUSH32 0xDFB96C060B2E58F09345A394FD8E994A6E7AC3539CDD256304C6E181A216752E PUSH1 0x40 MLOAD DUP3 PUSH4 0xFFFFFFFF AND PUSH1 0xE0 SHL DUP2 MSTORE PUSH1 0x4 ADD PUSH2 0x2F6C SWAP2 SWAP1 PUSH2 0x523F JUMP JUMPDEST PUSH0 PUSH1 0x40 MLOAD DUP1 DUP4 SUB DUP2 DUP7 DUP1 EXTCODESIZE ISZERO DUP1 ISZERO PUSH2 0x2F82 JUMPI PUSH0 PUSH0 REVERT JUMPDEST POP GAS DELEGATECALL ISZERO DUP1 ISZERO PUSH2 0x2F94 JUMPI RETURNDATASIZE PUSH0 PUSH0 RETURNDATACOPY RETURNDATASIZE PUSH0 REVERT JUMPDEST POP POP POP POP PUSH20 0x0 PUSH4 0x39B37AB0 PUSH1 0x91 PUSH1 0x40 MLOAD DUP3 PUSH4 0xFFFFFFFF AND PUSH1 0xE0 SHL DUP2 MSTORE PUSH1 0x4 ADD PUSH2 0x2FD0 SWAP2 SWAP1 PUSH2 0x529A JUMP JUMPDEST PUSH0 PUSH1 0x40 MLOAD DUP1 DUP4 SUB DUP2 DUP7 DUP1 EXTCODESIZE ISZERO DUP1 ISZERO PUSH2 0x2FE6 JUMPI PUSH0 PUSH0 REVERT JUMPDEST POP GAS DELEGATECALL ISZERO DUP1 ISZERO PUSH2 0x2FF8 JUMPI RETURNDATASIZE PUSH0 PUSH0 RETURNDATACOPY RETURNDATASIZE PUSH0 REVERT JUMPDEST POP POP POP POP PUSH20 0x0 PUSH4 0x5B43BC99 DUP4 PUSH1 0x40 MLOAD DUP3 PUSH4 0xFFFFFFFF AND PUSH1 0xE0 SHL DUP2 MSTORE PUSH1 0x4 ADD PUSH2 0x3033 SWAP2 SWAP1 PUSH2 0x52B3 JUMP JUMPDEST PUSH0 PUSH1 0x40 MLOAD DUP1 DUP4 SUB DUP2 DUP7 DUP1 EXTCODESIZE ISZERO DUP1 ISZERO PUSH2 0x3049 JUMPI PUSH0 PUSH0 REVERT JUMPDEST POP GAS DELEGATECALL ISZERO DUP1 ISZERO PUSH2 0x305B JUMPI RETURNDATASIZE PUSH0 PUSH0 RETURNDATACOPY RETURNDATASIZE PUSH0 REVERT JUMPDEST POP POP POP POP PUSH20 0x0 PUSH4 0x41BB0559 DUP3 PUSH1 0x40 MLOAD DUP3 PUSH4 0xFFFFFFFF AND PUSH1 0xE0 SHL DUP2 MSTORE PUSH1 0x4 ADD PUSH2 0x3096 SWAP2 SWAP1 PUSH2 0x52B3 JUMP JUMPDEST PUSH0 PUSH1 0x40 MLOAD DUP1 DUP4 SUB DUP2 DUP7 DUP1 EXTCODESIZE ISZERO DUP1 ISZERO PUSH2 0x30AC JUMPI PUSH0 PUSH0 REVERT JUMPDEST POP GAS DELEGATECALL ISZERO DUP1 ISZERO PUSH2 0x30BE JUMPI RETURNDATASIZE PUSH0 PUSH0 RETURNDATACOPY RETURNDATASIZE PUSH0 REVERT JUMPDEST POP POP POP POP PUSH20 0x0 PUSH4 0x345E7B28 PUSH2 0x4B0 PUSH1 0x40 MLOAD DUP3 PUSH4 0xFFFFFFFF AND PUSH1 0xE0 SHL DUP2 MSTORE PUSH1 0x4 ADD PUSH2 0x30FB SWAP2 SWAP1 PUSH2 0x530C JUMP JUMPDEST PUSH0 PUSH1 0x40 MLOAD DUP1 DUP4 SUB DUP2 DUP7 DUP1 EXTCODESIZE ISZERO DUP1 ISZERO PUSH2 0x3111 JUMPI PUSH0 PUSH0 REVERT JUMPDEST POP GAS DELEGATECALL ISZERO DUP1 ISZERO PUSH2 0x3123 JUMPI RETURNDATASIZE PUSH0 PUSH0 RETURNDATACOPY RETURNDATASIZE PUSH0 REVERT JUMPDEST POP POP POP POP PUSH20 0x0 PUSH4 0x32B07B43 PUSH2 0x4B0 PUSH1 0x40 MLOAD DUP3 PUSH4 0xFFFFFFFF AND PUSH1 0xE0 SHL DUP2 MSTORE PUSH1 0x4 ADD PUSH2 0x3160 SWAP2 SWAP1 PUSH2 0x530C JUMP JUMPDEST PUSH0 PUSH1 0x40 MLOAD DUP1 DUP4 SUB DUP2 DUP7 DUP1 EXTCODESIZE ISZERO DUP1 ISZERO PUSH2 0x3176 JUMPI PUSH0 PUSH0 REVERT JUMPDEST POP GAS DELEGATECALL ISZERO DUP1 ISZERO PUSH2 0x3188 JUMPI RETURNDATASIZE PUSH0 PUSH0 RETURNDATACOPY RETURNDATASIZE PUSH0 REVERT JUMPDEST POP POP POP POP POP POP JUMP JUMPDEST PUSH0 CALLER SWAP1 POP SWAP1 JUMP JUMPDEST PUSH0 DUP4 PUSH20 0xFFFFFFFFFFFFFFFFFFFFFFFFFFFFFFFFFFFFFFFF AND PUSH4 0x150B7A02 PUSH2 0x31BC PUSH2 0x3190 JUMP JUMPDEST DUP8 DUP7 DUP7 PUSH1 0x40 MLOAD DUP6 PUSH4 0xFFFFFFFF AND PUSH1 0xE0 SHL DUP2 MSTORE PUSH1 0x4 ADD PUSH2 0x31DE SWAP5 SWAP4 SWAP3 SWAP2 SWAP1 PUSH2 0x5377 JUMP JUMPDEST PUSH1 0x20 PUSH1 0x40 MLOAD DUP1 DUP4 SUB DUP2 PUSH0 DUP8 GAS CALL SWAP3 POP POP POP DUP1 ISZERO PUSH2 0x3219 JUMPI POP PUSH1 0x40 MLOAD RETURNDATASIZE PUSH1 0x1F NOT PUSH1 0x1F DUP3 ADD AND DUP3 ADD DUP1 PUSH1 0x40 MSTORE POP DUP2 ADD SWAP1 PUSH2 0x3216 SWAP2 SWAP1 PUSH2 0x53D5 JUMP JUMPDEST PUSH1 0x1 JUMPDEST PUSH2 0x326E JUMPI RETURNDATASIZE DUP1 PUSH0 DUP2 EQ PUSH2 0x3247 JUMPI PUSH1 0x40 MLOAD SWAP2 POP PUSH1 0x1F NOT PUSH1 0x3F RETURNDATASIZE ADD AND DUP3 ADD PUSH1 0x40 MSTORE RETURNDATASIZE DUP3 MSTORE RETURNDATASIZE PUSH0 PUSH1 0x20 DUP5 ADD RETURNDATACOPY PUSH2 0x324C JUMP JUMPDEST PUSH1 0x60 SWAP2 POP JUMPDEST POP PUSH0 DUP2 MLOAD SUB PUSH2 0x3266 JUMPI PUSH2 0x3265 PUSH4 0xD1A57ED6 PUSH1 0xE0 SHL PUSH2 0x2253 JUMP JUMPDEST JUMPDEST DUP1 MLOAD DUP2 PUSH1 0x20 ADD REVERT JUMPDEST PUSH4 0x150B7A02 PUSH1 0xE0 SHL PUSH28 0xFFFFFFFFFFFFFFFFFFFFFFFFFFFFFFFFFFFFFFFFFFFFFFFFFFFFFFFF NOT AND DUP2 PUSH28 0xFFFFFFFFFFFFFFFFFFFFFFFFFFFFFFFFFFFFFFFFFFFFFFFFFFFFFFFF NOT AND EQ SWAP2 POP POP SWAP5 SWAP4 POP POP POP POP JUMP JUMPDEST PUSH1 0x60 PUSH1 0x40 MLOAD DUP1 PUSH1 0x20 ADD PUSH1 0x40 MSTORE DUP1 PUSH0 DUP2 MSTORE POP SWAP1 POP SWAP1 JUMP JUMPDEST PUSH1 0x60 PUSH2 0x32E2 DUP3 PUSH2 0x207F JUMP JUMPDEST PUSH2 0x32F7 JUMPI PUSH2 0x32F6 PUSH4 0xA14C4B50 PUSH1 0xE0 SHL PUSH2 0x2253 JUMP JUMPDEST JUMPDEST PUSH0 PUSH2 0x3300 PUSH2 0x32C1 JUMP JUMPDEST SWAP1 POP PUSH0 DUP2 MLOAD SUB PUSH2 0x331E JUMPI PUSH1 0x40 MLOAD DUP1 PUSH1 0x20 ADD PUSH1 0x40 MSTORE DUP1 PUSH0 DUP2 MSTORE POP PUSH2 0x3349 JUMP JUMPDEST DUP1 PUSH2 0x3328 DUP5 PUSH2 0x38D8 JUMP JUMPDEST PUSH1 0x40 MLOAD PUSH1 0x20 ADD PUSH2 0x3339 SWAP3 SWAP2 SWAP1 PUSH2 0x4DD3 JUMP JUMPDEST PUSH1 0x40 MLOAD PUSH1 0x20 DUP2 DUP4 SUB SUB DUP2 MSTORE SWAP1 PUSH1 0x40 MSTORE JUMPDEST SWAP2 POP POP SWAP2 SWAP1 POP JUMP JUMPDEST PUSH0 PUSH29 0x100000000000000000000000000000000000000000000000000000000 DUP3 AND PUSH20 0xFFFFFFFFFFFFFFFFFFFFFFFFFFFFFFFFFFFFFFFF DUP4 AND GT SWAP1 POP SWAP2 SWAP1 POP JUMP JUMPDEST PUSH0 PUSH0 PUSH1 0x1 PUSH20 0x0 PUSH4 0xA7CC0136 DUP6 PUSH1 0x40 MLOAD DUP3 PUSH4 0xFFFFFFFF AND PUSH1 0xE0 SHL DUP2 MSTORE PUSH1 0x4 ADD PUSH2 0x33CC SWAP2 SWAP1 PUSH2 0x4764 JUMP JUMPDEST PUSH1 0x20 PUSH1 0x40 MLOAD DUP1 DUP4 SUB DUP2 DUP7 GAS DELEGATECALL ISZERO DUP1 ISZERO PUSH2 0x33E7 JUMPI RETURNDATASIZE PUSH0 PUSH0 RETURNDATACOPY RETURNDATASIZE PUSH0 REVERT JUMPDEST POP POP POP POP PUSH1 0x40 MLOAD RETURNDATASIZE PUSH1 0x1F NOT PUSH1 0x1F DUP3 ADD AND DUP3 ADD DUP1 PUSH1 0x40 MSTORE POP DUP2 ADD SWAP1 PUSH2 0x340B SWAP2 SWAP1 PUSH2 0x47CE JUMP JUMPDEST PUSH0 ADD MLOAD SWAP2 POP SWAP2 POP SWAP2 POP SWAP2 JUMP JUMPDEST PUSH0 PUSH20 0xFFFFFFFFFFFFFFFFFFFFFFFFFFFFFFFFFFFFFFFF DUP4 AND SWAP3 POP PUSH20 0xFFFFFFFFFFFFFFFFFFFFFFFFFFFFFFFFFFFFFFFF DUP3 AND SWAP2 POP DUP4 DUP3 EQ DUP4 DUP4 EQ OR SWAP1 POP SWAP4 SWAP3 POP POP POP JUMP JUMPDEST POP POP POP POP JUMP JUMPDEST PUSH0 PUSH0 PUSH1 0xE8 DUP4 SWAP1 SHR SWAP1 POP PUSH1 0xE8 PUSH2 0x3476 DUP7 DUP7 DUP5 PUSH2 0x3927 JUMP JUMPDEST PUSH3 0xFFFFFF AND SWAP1 SHL SWAP2 POP POP SWAP4 SWAP3 POP POP POP JUMP JUMPDEST PUSH0 PUSH20 0xFFFFFFFFFFFFFFFFFFFFFFFFFFFFFFFFFFFFFFFF DUP4 AND SWAP3 POP DUP2 TIMESTAMP PUSH1 0xA0 SHL OR DUP4 OR SWAP1 POP SWAP3 SWAP2 POP POP JUMP JUMPDEST POP POP POP POP JUMP JUMPDEST PUSH20 0x0 PUSH4 0xDBE0B21C DUP3 PUSH1 0x40 MLOAD DUP3 PUSH4 0xFFFFFFFF AND PUSH1 0xE0 SHL DUP2 MSTORE PUSH1 0x4 ADD PUSH2 0x34EE SWAP2 SWAP1 PUSH2 0x4764 JUMP JUMPDEST PUSH0 PUSH1 0x40 MLOAD DUP1 DUP4 SUB DUP2 DUP7 DUP1 EXTCODESIZE ISZERO DUP1 ISZERO PUSH2 0x3504 JUMPI PUSH0 PUSH0 REVERT JUMPDEST POP GAS DELEGATECALL ISZERO DUP1 ISZERO PUSH2 0x3516 JUMPI RETURNDATASIZE PUSH0 PUSH0 RETURNDATACOPY RETURNDATASIZE PUSH0 REVERT JUMPDEST POP POP POP POP POP JUMP JUMPDEST PUSH20 0x0 PUSH4 0x71BC71C DUP4 DUP4 PUSH2 0x3542 DUP7 PUSH2 0x18D4 JUMP JUMPDEST PUSH1 0x40 MLOAD DUP5 PUSH4 0xFFFFFFFF AND PUSH1 0xE0 SHL DUP2 MSTORE PUSH1 0x4 ADD PUSH2 0x3560 SWAP4 SWAP3 SWAP2 SWAP1 PUSH2 0x5400 JUMP JUMPDEST PUSH0 PUSH1 0x40 MLOAD DUP1 DUP4 SUB DUP2 DUP7 DUP1 EXTCODESIZE ISZERO DUP1 ISZERO PUSH2 0x3576 JUMPI PUSH0 PUSH0 REVERT JUMPDEST POP GAS DELEGATECALL ISZERO DUP1 ISZERO PUSH2 0x3588 JUMPI RETURNDATASIZE PUSH0 PUSH0 RETURNDATACOPY RETURNDATASIZE PUSH0 REVERT JUMPDEST POP POP POP POP POP POP JUMP JUMPDEST PUSH20 0x0 PUSH4 0x40E02F5C DUP3 PUSH1 0x40 MLOAD DUP3 PUSH4 0xFFFFFFFF AND PUSH1 0xE0 SHL DUP2 MSTORE PUSH1 0x4 ADD PUSH2 0x35C7 SWAP2 SWAP1 PUSH2 0x4764 JUMP JUMPDEST PUSH0 PUSH1 0x40 MLOAD DUP1 DUP4 SUB DUP2 DUP7 DUP1 EXTCODESIZE ISZERO DUP1 ISZERO PUSH2 0x35DD JUMPI PUSH0 PUSH0 REVERT JUMPDEST POP GAS DELEGATECALL ISZERO DUP1 ISZERO PUSH2 0x35EF JUMPI RETURNDATASIZE PUSH0 PUSH0 RETURNDATACOPY RETURNDATASIZE PUSH0 REVERT JUMPDEST POP POP POP POP POP JUMP JUMPDEST PUSH20 0x0 PUSH4 0x4F4979ED DUP4 DUP4 PUSH1 0x1 PUSH2 0x361D DUP8 PUSH2 0x18D4 JUMP JUMPDEST PUSH2 0x3627 SWAP2 SWAP1 PUSH2 0x5435 JUMP JUMPDEST PUSH1 0x40 MLOAD DUP5 PUSH4 0xFFFFFFFF AND PUSH1 0xE0 SHL DUP2 MSTORE PUSH1 0x4 ADD PUSH2 0x3645 SWAP4 SWAP3 SWAP2 SWAP1 PUSH2 0x5400 JUMP JUMPDEST PUSH0 PUSH1 0x40 MLOAD DUP1 DUP4 SUB DUP2 DUP7 DUP1 EXTCODESIZE ISZERO DUP1 ISZERO PUSH2 0x365B JUMPI PUSH0 PUSH0 REVERT JUMPDEST POP GAS DELEGATECALL ISZERO DUP1 ISZERO PUSH2 0x366D JUMPI RETURNDATASIZE PUSH0 PUSH0 RETURNDATACOPY RETURNDATASIZE PUSH0 REVERT JUMPDEST POP POP POP POP POP POP JUMP JUMPDEST PUSH0 PUSH0 DUP3 SWAP1 POP PUSH0 PUSH0 SWAP1 POP JUMPDEST DUP5 MLOAD DUP2 LT ISZERO PUSH2 0x36BB JUMPI PUSH2 0x36AC DUP3 DUP7 DUP4 DUP2 MLOAD DUP2 LT PUSH2 0x369F JUMPI PUSH2 0x369E PUSH2 0x5468 JUMP JUMPDEST JUMPDEST PUSH1 0x20 MUL PUSH1 0x20 ADD ADD MLOAD PUSH2 0x392F JUMP JUMPDEST SWAP2 POP DUP1 DUP1 PUSH1 0x1 ADD SWAP2 POP POP PUSH2 0x367F JUMP JUMPDEST POP DUP1 SWAP2 POP POP SWAP3 SWAP2 POP POP JUMP JUMPDEST PUSH2 0x36D0 DUP4 DUP4 PUSH2 0x3959 JUMP JUMPDEST PUSH0 DUP4 PUSH20 0xFFFFFFFFFFFFFFFFFFFFFFFFFFFFFFFFFFFFFFFF AND EXTCODESIZE EQ PUSH2 0x3809 JUMPI PUSH0 PUSH20 0x0 PUSH4 0x9451C99A PUSH1 0x40 MLOAD DUP2 PUSH4 0xFFFFFFFF AND PUSH1 0xE0 SHL DUP2 MSTORE PUSH1 0x4 ADD PUSH1 0x20 PUSH1 0x40 MLOAD DUP1 DUP4 SUB DUP2 DUP7 GAS DELEGATECALL ISZERO DUP1 ISZERO PUSH2 0x3736 JUMPI RETURNDATASIZE PUSH0 PUSH0 RETURNDATACOPY RETURNDATASIZE PUSH0 REVERT JUMPDEST POP POP POP POP PUSH1 0x40 MLOAD RETURNDATASIZE PUSH1 0x1F NOT PUSH1 0x1F DUP3 ADD AND DUP3 ADD DUP1 PUSH1 0x40 MSTORE POP DUP2 ADD SWAP1 PUSH2 0x375A SWAP2 SWAP1 PUSH2 0x48A0 JUMP JUMPDEST SWAP1 POP PUSH0 DUP4 DUP3 SUB SWAP1 POP JUMPDEST PUSH2 0x3775 PUSH0 DUP7 DUP4 DUP1 PUSH1 0x1 ADD SWAP5 POP DUP7 PUSH2 0x3197 JUMP JUMPDEST PUSH2 0x378A JUMPI PUSH2 0x3789 PUSH4 0xD1A57ED6 PUSH1 0xE0 SHL PUSH2 0x2253 JUMP JUMPDEST JUMPDEST DUP2 DUP2 LT PUSH2 0x3763 JUMPI DUP2 PUSH20 0x0 PUSH4 0x9451C99A PUSH1 0x40 MLOAD DUP2 PUSH4 0xFFFFFFFF AND PUSH1 0xE0 SHL DUP2 MSTORE PUSH1 0x4 ADD PUSH1 0x20 PUSH1 0x40 MLOAD DUP1 DUP4 SUB DUP2 DUP7 GAS DELEGATECALL ISZERO DUP1 ISZERO PUSH2 0x37D9 JUMPI RETURNDATASIZE PUSH0 PUSH0 RETURNDATACOPY RETURNDATASIZE PUSH0 REVERT JUMPDEST POP POP POP POP PUSH1 0x40 MLOAD RETURNDATASIZE PUSH1 0x1F NOT PUSH1 0x1F DUP3 ADD AND DUP3 ADD DUP1 PUSH1 0x40 MSTORE POP DUP2 ADD SWAP1 PUSH2 0x37FD SWAP2 SWAP1 PUSH2 0x48A0 JUMP JUMPDEST EQ PUSH2 0x3806 JUMPI PUSH0 PUSH0 REVERT JUMPDEST POP POP JUMPDEST POP POP POP JUMP JUMPDEST PUSH1 0x60 PUSH0 PUSH1 0x1 PUSH2 0x381C DUP5 PUSH2 0x3C74 JUMP JUMPDEST ADD SWAP1 POP PUSH0 DUP2 PUSH8 0xFFFFFFFFFFFFFFFF DUP2 GT ISZERO PUSH2 0x383A JUMPI PUSH2 0x3839 PUSH2 0x408A JUMP JUMPDEST JUMPDEST PUSH1 0x40 MLOAD SWAP1 DUP1 DUP3 MSTORE DUP1 PUSH1 0x1F ADD PUSH1 0x1F NOT AND PUSH1 0x20 ADD DUP3 ADD PUSH1 0x40 MSTORE DUP1 ISZERO PUSH2 0x386C JUMPI DUP2 PUSH1 0x20 ADD PUSH1 0x1 DUP3 MUL DUP1 CALLDATASIZE DUP4 CALLDATACOPY DUP1 DUP3 ADD SWAP2 POP POP SWAP1 POP JUMPDEST POP SWAP1 POP PUSH0 DUP3 PUSH1 0x20 ADD DUP3 ADD SWAP1 POP JUMPDEST PUSH1 0x1 ISZERO PUSH2 0x38CD JUMPI DUP1 DUP1 PUSH1 0x1 SWAP1 SUB SWAP2 POP POP PUSH32 0x3031323334353637383961626364656600000000000000000000000000000000 PUSH1 0xA DUP7 MOD BYTE DUP2 MSTORE8 PUSH1 0xA DUP6 DUP2 PUSH2 0x38C2 JUMPI PUSH2 0x38C1 PUSH2 0x5495 JUMP JUMPDEST JUMPDEST DIV SWAP5 POP PUSH0 DUP6 SUB PUSH2 0x3879 JUMPI JUMPDEST DUP2 SWAP4 POP POP POP POP SWAP2 SWAP1 POP JUMP JUMPDEST PUSH1 0x60 PUSH1 0xA0 PUSH1 0x40 MLOAD ADD DUP1 PUSH1 0x40 MSTORE PUSH1 0x20 DUP2 SUB SWAP2 POP PUSH0 DUP3 MSTORE DUP2 DUP4 JUMPDEST PUSH1 0x1 ISZERO PUSH2 0x3912 JUMPI PUSH1 0x1 DUP5 SUB SWAP4 POP PUSH1 0xA DUP2 MOD PUSH1 0x30 ADD DUP5 MSTORE8 PUSH1 0xA DUP2 DIV SWAP1 POP DUP1 PUSH2 0x38F0 JUMPI JUMPDEST POP DUP3 DUP2 SUB PUSH1 0x20 DUP5 SUB SWAP4 POP DUP1 DUP5 MSTORE POP POP POP SWAP2 SWAP1 POP JUMP JUMPDEST PUSH0 SWAP4 SWAP3 POP POP POP JUMP JUMPDEST PUSH0 DUP2 DUP4 LT PUSH2 0x3946 JUMPI PUSH2 0x3941 DUP3 DUP5 PUSH2 0x3DC5 JUMP JUMPDEST PUSH2 0x3951 JUMP JUMPDEST PUSH2 0x3950 DUP4 DUP4 PUSH2 0x3DC5 JUMP JUMPDEST JUMPDEST SWAP1 POP SWAP3 SWAP2 POP POP JUMP JUMPDEST PUSH0 PUSH20 0x0 PUSH4 0x9451C99A PUSH1 0x40 MLOAD DUP2 PUSH4 0xFFFFFFFF AND PUSH1 0xE0 SHL DUP2 MSTORE PUSH1 0x4 ADD PUSH1 0x20 PUSH1 0x40 MLOAD DUP1 DUP4 SUB DUP2 DUP7 GAS DELEGATECALL ISZERO DUP1 ISZERO PUSH2 0x39A1 JUMPI RETURNDATASIZE PUSH0 PUSH0 RETURNDATACOPY RETURNDATASIZE PUSH0 REVERT JUMPDEST POP POP POP POP PUSH1 0x40 MLOAD RETURNDATASIZE PUSH1 0x1F NOT PUSH1 0x1F DUP3 ADD AND DUP3 ADD DUP1 PUSH1 0x40 MSTORE POP DUP2 ADD SWAP1 PUSH2 0x39C5 SWAP2 SWAP1 PUSH2 0x48A0 JUMP JUMPDEST SWAP1 POP PUSH0 DUP3 SUB PUSH2 0x39DF JUMPI PUSH2 0x39DE PUSH4 0xB562E8DD PUSH1 0xE0 SHL PUSH2 0x2253 JUMP JUMPDEST JUMPDEST PUSH2 0x39EB PUSH0 DUP5 DUP4 DUP6 PUSH2 0x345A JUMP JUMPDEST PUSH20 0x0 PUSH4 0xE68FDEE1 DUP3 PUSH2 0x3A24 DUP7 PUSH2 0x3A15 PUSH0 DUP10 PUSH0 PUSH2 0x3460 JUMP JUMPDEST PUSH2 0x3A1E DUP9 PUSH2 0x3DD9 JUMP JUMPDEST OR PUSH2 0x3487 JUMP JUMPDEST PUSH1 0x40 MLOAD DUP4 PUSH4 0xFFFFFFFF AND PUSH1 0xE0 SHL DUP2 MSTORE PUSH1 0x4 ADD PUSH2 0x3A41 SWAP3 SWAP2 SWAP1 PUSH2 0x4EFE JUMP JUMPDEST PUSH0 PUSH1 0x40 MLOAD DUP1 DUP4 SUB DUP2 DUP7 DUP1 EXTCODESIZE ISZERO DUP1 ISZERO PUSH2 0x3A57 JUMPI PUSH0 PUSH0 REVERT JUMPDEST POP GAS DELEGATECALL ISZERO DUP1 ISZERO PUSH2 0x3A69 JUMPI RETURNDATASIZE PUSH0 PUSH0 RETURNDATACOPY RETURNDATASIZE PUSH0 REVERT JUMPDEST POP POP POP POP PUSH20 0x0 PUSH4 0xA3301173 DUP5 PUSH1 0x1 PUSH1 0x40 PUSH1 0x1 SWAP1 SHL OR DUP6 MUL PUSH20 0x0 PUSH4 0x21B0ED7D DUP9 PUSH1 0x40 MLOAD DUP3 PUSH4 0xFFFFFFFF AND PUSH1 0xE0 SHL DUP2 MSTORE PUSH1 0x4 ADD PUSH2 0x3ACA SWAP2 SWAP1 PUSH2 0x4A53 JUMP JUMPDEST PUSH1 0x20 PUSH1 0x40 MLOAD DUP1 DUP4 SUB DUP2 DUP7 GAS DELEGATECALL ISZERO DUP1 ISZERO PUSH2 0x3AE5 JUMPI RETURNDATASIZE PUSH0 PUSH0 RETURNDATACOPY RETURNDATASIZE PUSH0 REVERT JUMPDEST POP POP POP POP PUSH1 0x40 MLOAD RETURNDATASIZE PUSH1 0x1F NOT PUSH1 0x1F DUP3 ADD AND DUP3 ADD DUP1 PUSH1 0x40 MSTORE POP DUP2 ADD SWAP1 PUSH2 0x3B09 SWAP2 SWAP1 PUSH2 0x48A0 JUMP JUMPDEST ADD PUSH1 0x40 MLOAD DUP4 PUSH4 0xFFFFFFFF AND PUSH1 0xE0 SHL DUP2 MSTORE PUSH1 0x4 ADD PUSH2 0x3B27 SWAP3 SWAP2 SWAP1 PUSH2 0x4CDF JUMP JUMPDEST PUSH0 PUSH1 0x40 MLOAD DUP1 DUP4 SUB DUP2 DUP7 DUP1 EXTCODESIZE ISZERO DUP1 ISZERO PUSH2 0x3B3D JUMPI PUSH0 PUSH0 REVERT JUMPDEST POP GAS DELEGATECALL ISZERO DUP1 ISZERO PUSH2 0x3B4F JUMPI RETURNDATASIZE PUSH0 PUSH0 RETURNDATACOPY RETURNDATASIZE PUSH0 REVERT JUMPDEST POP POP POP POP PUSH0 PUSH20 0xFFFFFFFFFFFFFFFFFFFFFFFFFFFFFFFFFFFFFFFF DUP5 PUSH20 0xFFFFFFFFFFFFFFFFFFFFFFFFFFFFFFFFFFFFFFFF AND AND SWAP1 POP PUSH0 DUP2 SUB PUSH2 0x3B9B JUMPI PUSH2 0x3B9A PUSH4 0x2E076300 PUSH1 0xE0 SHL PUSH2 0x2253 JUMP JUMPDEST JUMPDEST PUSH0 DUP4 DUP4 ADD SWAP1 POP PUSH0 DUP4 SWAP1 POP PUSH2 0x3BAD PUSH2 0x2448 JUMP JUMPDEST PUSH1 0x1 DUP4 SUB GT ISZERO PUSH2 0x3BC8 JUMPI PUSH2 0x3BC7 PUSH4 0x81647E3A PUSH1 0xE0 SHL PUSH2 0x2253 JUMP JUMPDEST JUMPDEST JUMPDEST DUP1 DUP4 PUSH0 PUSH32 0xDDF252AD1BE2C89B69C2B068FC378DAA952BA7F163C4A11628F55A4DF523B3EF PUSH0 PUSH0 LOG4 DUP2 DUP2 PUSH1 0x1 ADD SWAP2 POP DUP2 SUB PUSH2 0x3BC9 JUMPI PUSH20 0x0 PUSH4 0x345E7B28 DUP4 PUSH1 0x40 MLOAD DUP3 PUSH4 0xFFFFFFFF AND PUSH1 0xE0 SHL DUP2 MSTORE PUSH1 0x4 ADD PUSH2 0x3C34 SWAP2 SWAP1 PUSH2 0x4764 JUMP JUMPDEST PUSH0 PUSH1 0x40 MLOAD DUP1 DUP4 SUB DUP2 DUP7 DUP1 EXTCODESIZE ISZERO DUP1 ISZERO PUSH2 0x3C4A JUMPI PUSH0 PUSH0 REVERT JUMPDEST POP GAS DELEGATECALL ISZERO DUP1 ISZERO PUSH2 0x3C5C JUMPI RETURNDATASIZE PUSH0 PUSH0 RETURNDATACOPY RETURNDATASIZE PUSH0 REVERT JUMPDEST POP POP POP POP POP POP POP PUSH2 0x3C6F PUSH0 DUP5 DUP4 DUP6 PUSH2 0x34B1 JUMP JUMPDEST POP POP POP JUMP JUMPDEST PUSH0 PUSH0 PUSH0 SWAP1 POP PUSH27 0x184F03E93FF9F4DAA797ED6E38ED64BF6A1F010000000000000000 DUP4 LT PUSH2 0x3CD0 JUMPI PUSH27 0x184F03E93FF9F4DAA797ED6E38ED64BF6A1F010000000000000000 DUP4 DUP2 PUSH2 0x3CC6 JUMPI PUSH2 0x3CC5 PUSH2 0x5495 JUMP JUMPDEST JUMPDEST DIV SWAP3 POP PUSH1 0x40 DUP2 ADD SWAP1 POP JUMPDEST PUSH14 0x4EE2D6D415B85ACEF8100000000 DUP4 LT PUSH2 0x3D0D JUMPI PUSH14 0x4EE2D6D415B85ACEF8100000000 DUP4 DUP2 PUSH2 0x3D03 JUMPI PUSH2 0x3D02 PUSH2 0x5495 JUMP JUMPDEST JUMPDEST DIV SWAP3 POP PUSH1 0x20 DUP2 ADD SWAP1 POP JUMPDEST PUSH7 0x2386F26FC10000 DUP4 LT PUSH2 0x3D3C JUMPI PUSH7 0x2386F26FC10000 DUP4 DUP2 PUSH2 0x3D32 JUMPI PUSH2 0x3D31 PUSH2 0x5495 JUMP JUMPDEST JUMPDEST DIV SWAP3 POP PUSH1 0x10 DUP2 ADD SWAP1 POP JUMPDEST PUSH4 0x5F5E100 DUP4 LT PUSH2 0x3D65 JUMPI PUSH4 0x5F5E100 DUP4 DUP2 PUSH2 0x3D5B JUMPI PUSH2 0x3D5A PUSH2 0x5495 JUMP JUMPDEST JUMPDEST DIV SWAP3 POP PUSH1 0x8 DUP2 ADD SWAP1 POP JUMPDEST PUSH2 0x2710 DUP4 LT PUSH2 0x3D8A JUMPI PUSH2 0x2710 DUP4 DUP2 PUSH2 0x3D80 JUMPI PUSH2 0x3D7F PUSH2 0x5495 JUMP JUMPDEST JUMPDEST DIV SWAP3 POP PUSH1 0x4 DUP2 ADD SWAP1 POP JUMPDEST PUSH1 0x64 DUP4 LT PUSH2 0x3DAD JUMPI PUSH1 0x64 DUP4 DUP2 PUSH2 0x3DA3 JUMPI PUSH2 0x3DA2 PUSH2 0x5495 JUMP JUMPDEST JUMPDEST DIV SWAP3 POP PUSH1 0x2 DUP2 ADD SWAP1 POP JUMPDEST PUSH1 0xA DUP4 LT PUSH2 0x3DBC JUMPI PUSH1 0x1 DUP2 ADD SWAP1 POP JUMPDEST DUP1 SWAP2 POP POP SWAP2 SWAP1 POP JUMP JUMPDEST PUSH0 DUP3 PUSH0 MSTORE DUP2 PUSH1 0x20 MSTORE PUSH1 0x40 PUSH0 KECCAK256 SWAP1 POP SWAP3 SWAP2 POP POP JUMP JUMPDEST PUSH0 PUSH1 0x1 DUP3 EQ PUSH1 0xE1 SHL SWAP1 POP SWAP2 SWAP1 POP JUMP JUMPDEST PUSH0 PUSH1 0x40 MLOAD SWAP1 POP SWAP1 JUMP JUMPDEST PUSH0 PUSH0 REVERT JUMPDEST PUSH0 PUSH0 REVERT JUMPDEST PUSH0 PUSH32 0xFFFFFFFF00000000000000000000000000000000000000000000000000000000 DUP3 AND SWAP1 POP SWAP2 SWAP1 POP JUMP JUMPDEST PUSH2 0x3E2D DUP2 PUSH2 0x3DF9 JUMP JUMPDEST DUP2 EQ PUSH2 0x3E37 JUMPI PUSH0 PUSH0 REVERT JUMPDEST POP JUMP JUMPDEST PUSH0 DUP2 CALLDATALOAD SWAP1 POP PUSH2 0x3E48 DUP2 PUSH2 0x3E24 JUMP JUMPDEST SWAP3 SWAP2 POP POP JUMP JUMPDEST PUSH0 PUSH1 0x20 DUP3 DUP5 SUB SLT ISZERO PUSH2 0x3E63 JUMPI PUSH2 0x3E62 PUSH2 0x3DF1 JUMP JUMPDEST JUMPDEST PUSH0 PUSH2 0x3E70 DUP5 DUP3 DUP6 ADD PUSH2 0x3E3A JUMP JUMPDEST SWAP2 POP POP SWAP3 SWAP2 POP POP JUMP JUMPDEST PUSH0 DUP2 ISZERO ISZERO SWAP1 POP SWAP2 SWAP1 POP JUMP JUMPDEST PUSH2 0x3E8D DUP2 PUSH2 0x3E79 JUMP JUMPDEST DUP3 MSTORE POP POP JUMP JUMPDEST PUSH0 PUSH1 0x20 DUP3 ADD SWAP1 POP PUSH2 0x3EA6 PUSH0 DUP4 ADD DUP5 PUSH2 0x3E84 JUMP JUMPDEST SWAP3 SWAP2 POP POP JUMP JUMPDEST PUSH0 DUP2 MLOAD SWAP1 POP SWAP2 SWAP1 POP JUMP JUMPDEST PUSH0 DUP3 DUP3 MSTORE PUSH1 0x20 DUP3 ADD SWAP1 POP SWAP3 SWAP2 POP POP JUMP JUMPDEST DUP3 DUP2 DUP4 MCOPY PUSH0 DUP4 DUP4 ADD MSTORE POP POP POP JUMP JUMPDEST PUSH0 PUSH1 0x1F NOT PUSH1 0x1F DUP4 ADD AND SWAP1 POP SWAP2 SWAP1 POP JUMP JUMPDEST PUSH0 PUSH2 0x3EEE DUP3 PUSH2 0x3EAC JUMP JUMPDEST PUSH2 0x3EF8 DUP2 DUP6 PUSH2 0x3EB6 JUMP JUMPDEST SWAP4 POP PUSH2 0x3F08 DUP2 DUP6 PUSH1 0x20 DUP7 ADD PUSH2 0x3EC6 JUMP JUMPDEST PUSH2 0x3F11 DUP2 PUSH2 0x3ED4 JUMP JUMPDEST DUP5 ADD SWAP2 POP POP SWAP3 SWAP2 POP POP JUMP JUMPDEST PUSH0 PUSH1 0x20 DUP3 ADD SWAP1 POP DUP2 DUP2 SUB PUSH0 DUP4 ADD MSTORE PUSH2 0x3F34 DUP2 DUP5 PUSH2 0x3EE4 JUMP JUMPDEST SWAP1 POP SWAP3 SWAP2 POP POP JUMP JUMPDEST PUSH0 DUP2 SWAP1 POP SWAP2 SWAP1 POP JUMP JUMPDEST PUSH2 0x3F4E DUP2 PUSH2 0x3F3C JUMP JUMPDEST DUP2 EQ PUSH2 0x3F58 JUMPI PUSH0 PUSH0 REVERT JUMPDEST POP JUMP JUMPDEST PUSH0 DUP2 CALLDATALOAD SWAP1 POP PUSH2 0x3F69 DUP2 PUSH2 0x3F45 JUMP JUMPDEST SWAP3 SWAP2 POP POP JUMP JUMPDEST PUSH0 PUSH1 0x20 DUP3 DUP5 SUB SLT ISZERO PUSH2 0x3F84 JUMPI PUSH2 0x3F83 PUSH2 0x3DF1 JUMP JUMPDEST JUMPDEST PUSH0 PUSH2 0x3F91 DUP5 DUP3 DUP6 ADD PUSH2 0x3F5B JUMP JUMPDEST SWAP2 POP POP SWAP3 SWAP2 POP POP JUMP JUMPDEST PUSH0 PUSH20 0xFFFFFFFFFFFFFFFFFFFFFFFFFFFFFFFFFFFFFFFF DUP3 AND SWAP1 POP SWAP2 SWAP1 POP JUMP JUMPDEST PUSH0 PUSH2 0x3FC3 DUP3 PUSH2 0x3F9A JUMP JUMPDEST SWAP1 POP SWAP2 SWAP1 POP JUMP JUMPDEST PUSH2 0x3FD3 DUP2 PUSH2 0x3FB9 JUMP JUMPDEST DUP3 MSTORE POP POP JUMP JUMPDEST PUSH0 PUSH1 0x20 DUP3 ADD SWAP1 POP PUSH2 0x3FEC PUSH0 DUP4 ADD DUP5 PUSH2 0x3FCA JUMP JUMPDEST SWAP3 SWAP2 POP POP JUMP JUMPDEST PUSH2 0x3FFB DUP2 PUSH2 0x3FB9 JUMP JUMPDEST DUP2 EQ PUSH2 0x4005 JUMPI PUSH0 PUSH0 REVERT JUMPDEST POP JUMP JUMPDEST PUSH0 DUP2 CALLDATALOAD SWAP1 POP PUSH2 0x4016 DUP2 PUSH2 0x3FF2 JUMP JUMPDEST SWAP3 SWAP2 POP POP JUMP JUMPDEST PUSH0 PUSH0 PUSH1 0x40 DUP4 DUP6 SUB SLT ISZERO PUSH2 0x4032 JUMPI PUSH2 0x4031 PUSH2 0x3DF1 JUMP JUMPDEST JUMPDEST PUSH0 PUSH2 0x403F DUP6 DUP3 DUP7 ADD PUSH2 0x4008 JUMP JUMPDEST SWAP3 POP POP PUSH1 0x20 PUSH2 0x4050 DUP6 DUP3 DUP7 ADD PUSH2 0x3F5B JUMP JUMPDEST SWAP2 POP POP SWAP3 POP SWAP3 SWAP1 POP JUMP JUMPDEST PUSH2 0x4063 DUP2 PUSH2 0x3F3C JUMP JUMPDEST DUP3 MSTORE POP POP JUMP JUMPDEST PUSH0 PUSH1 0x20 DUP3 ADD SWAP1 POP PUSH2 0x407C PUSH0 DUP4 ADD DUP5 PUSH2 0x405A JUMP JUMPDEST SWAP3 SWAP2 POP POP JUMP JUMPDEST PUSH0 PUSH0 REVERT JUMPDEST PUSH0 PUSH0 REVERT JUMPDEST PUSH32 0x4E487B7100000000000000000000000000000000000000000000000000000000 PUSH0 MSTORE PUSH1 0x41 PUSH1 0x4 MSTORE PUSH1 0x24 PUSH0 REVERT JUMPDEST PUSH2 0x40C0 DUP3 PUSH2 0x3ED4 JUMP JUMPDEST DUP2 ADD DUP2 DUP2 LT PUSH8 0xFFFFFFFFFFFFFFFF DUP3 GT OR ISZERO PUSH2 0x40DF JUMPI PUSH2 0x40DE PUSH2 0x408A JUMP JUMPDEST JUMPDEST DUP1 PUSH1 0x40 MSTORE POP POP POP JUMP JUMPDEST PUSH0 PUSH2 0x40F1 PUSH2 0x3DE8 JUMP JUMPDEST SWAP1 POP PUSH2 0x40FD DUP3 DUP3 PUSH2 0x40B7 JUMP JUMPDEST SWAP2 SWAP1 POP JUMP JUMPDEST PUSH0 PUSH8 0xFFFFFFFFFFFFFFFF DUP3 GT ISZERO PUSH2 0x411C JUMPI PUSH2 0x411B PUSH2 0x408A JUMP JUMPDEST JUMPDEST PUSH2 0x4125 DUP3 PUSH2 0x3ED4 JUMP JUMPDEST SWAP1 POP PUSH1 0x20 DUP2 ADD SWAP1 POP SWAP2 SWAP1 POP JUMP JUMPDEST DUP3 DUP2 DUP4 CALLDATACOPY PUSH0 DUP4 DUP4 ADD MSTORE POP POP POP JUMP JUMPDEST PUSH0 PUSH2 0x4152 PUSH2 0x414D DUP5 PUSH2 0x4102 JUMP JUMPDEST PUSH2 0x40E8 JUMP JUMPDEST SWAP1 POP DUP3 DUP2 MSTORE PUSH1 0x20 DUP2 ADD DUP5 DUP5 DUP5 ADD GT ISZERO PUSH2 0x416E JUMPI PUSH2 0x416D PUSH2 0x4086 JUMP JUMPDEST JUMPDEST PUSH2 0x4179 DUP5 DUP3 DUP6 PUSH2 0x4132 JUMP JUMPDEST POP SWAP4 SWAP3 POP POP POP JUMP JUMPDEST PUSH0 DUP3 PUSH1 0x1F DUP4 ADD SLT PUSH2 0x4195 JUMPI PUSH2 0x4194 PUSH2 0x4082 JUMP JUMPDEST JUMPDEST DUP2 CALLDATALOAD PUSH2 0x41A5 DUP5 DUP3 PUSH1 0x20 DUP7 ADD PUSH2 0x4140 JUMP JUMPDEST SWAP2 POP POP SWAP3 SWAP2 POP POP JUMP JUMPDEST PUSH0 PUSH0 PUSH0 PUSH0 PUSH1 0x80 DUP6 DUP8 SUB SLT ISZERO PUSH2 0x41C6 JUMPI PUSH2 0x41C5 PUSH2 0x3DF1 JUMP JUMPDEST JUMPDEST PUSH0 PUSH2 0x41D3 DUP8 DUP3 DUP9 ADD PUSH2 0x4008 JUMP JUMPDEST SWAP5 POP POP PUSH1 0x20 PUSH2 0x41E4 DUP8 DUP3 DUP9 ADD PUSH2 0x4008 JUMP JUMPDEST SWAP4 POP POP PUSH1 0x40 PUSH2 0x41F5 DUP8 DUP3 DUP9 ADD PUSH2 0x3F5B JUMP JUMPDEST SWAP3 POP POP PUSH1 0x60 DUP6 ADD CALLDATALOAD PUSH8 0xFFFFFFFFFFFFFFFF DUP2 GT ISZERO PUSH2 0x4216 JUMPI PUSH2 0x4215 PUSH2 0x3DF5 JUMP JUMPDEST JUMPDEST PUSH2 0x4222 DUP8 DUP3 DUP9 ADD PUSH2 0x4181 JUMP JUMPDEST SWAP2 POP POP SWAP3 SWAP6 SWAP2 SWAP5 POP SWAP3 POP JUMP JUMPDEST PUSH2 0x4237 DUP2 PUSH2 0x3DF9 JUMP JUMPDEST DUP3 MSTORE POP POP JUMP JUMPDEST PUSH0 PUSH1 0x20 DUP3 ADD SWAP1 POP PUSH2 0x4250 PUSH0 DUP4 ADD DUP5 PUSH2 0x422E JUMP JUMPDEST SWAP3 SWAP2 POP POP JUMP JUMPDEST PUSH0 PUSH0 REVERT JUMPDEST PUSH0 PUSH0 REVERT JUMPDEST PUSH0 PUSH0 DUP4 PUSH1 0x1F DUP5 ADD SLT PUSH2 0x4273 JUMPI PUSH2 0x4272 PUSH2 0x4082 JUMP JUMPDEST JUMPDEST DUP3 CALLDATALOAD SWAP1 POP PUSH8 0xFFFFFFFFFFFFFFFF DUP2 GT ISZERO PUSH2 0x4290 JUMPI PUSH2 0x428F PUSH2 0x4256 JUMP JUMPDEST JUMPDEST PUSH1 0x20 DUP4 ADD SWAP2 POP DUP4 PUSH1 0x1 DUP3 MUL DUP4 ADD GT ISZERO PUSH2 0x42AC JUMPI PUSH2 0x42AB PUSH2 0x425A JUMP JUMPDEST JUMPDEST SWAP3 POP SWAP3 SWAP1 POP JUMP JUMPDEST PUSH0 PUSH0 PUSH0 PUSH1 0x40 DUP5 DUP7 SUB SLT ISZERO PUSH2 0x42CA JUMPI PUSH2 0x42C9 PUSH2 0x3DF1 JUMP JUMPDEST JUMPDEST PUSH0 PUSH2 0x42D7 DUP7 DUP3 DUP8 ADD PUSH2 0x3F5B JUMP JUMPDEST SWAP4 POP POP PUSH1 0x20 DUP5 ADD CALLDATALOAD PUSH8 0xFFFFFFFFFFFFFFFF DUP2 GT ISZERO PUSH2 0x42F8 JUMPI PUSH2 0x42F7 PUSH2 0x3DF5 JUMP JUMPDEST JUMPDEST PUSH2 0x4304 DUP7 DUP3 DUP8 ADD PUSH2 0x425E JUMP JUMPDEST SWAP3 POP SWAP3 POP POP SWAP3 POP SWAP3 POP SWAP3 JUMP JUMPDEST PUSH0 PUSH0 PUSH0 PUSH1 0x60 DUP5 DUP7 SUB SLT ISZERO PUSH2 0x4327 JUMPI PUSH2 0x4326 PUSH2 0x3DF1 JUMP JUMPDEST JUMPDEST PUSH0 PUSH2 0x4334 DUP7 DUP3 DUP8 ADD PUSH2 0x4008 JUMP JUMPDEST SWAP4 POP POP PUSH1 0x20 PUSH2 0x4345 DUP7 DUP3 DUP8 ADD PUSH2 0x4008 JUMP JUMPDEST SWAP3 POP POP PUSH1 0x40 PUSH2 0x4356 DUP7 DUP3 DUP8 ADD PUSH2 0x3F5B JUMP JUMPDEST SWAP2 POP POP SWAP3 POP SWAP3 POP SWAP3 JUMP JUMPDEST PUSH0 DUP2 SWAP1 POP SWAP2 SWAP1 POP JUMP JUMPDEST PUSH2 0x4372 DUP2 PUSH2 0x4360 JUMP JUMPDEST DUP2 EQ PUSH2 0x437C JUMPI PUSH0 PUSH0 REVERT JUMPDEST POP JUMP JUMPDEST PUSH0 DUP2 CALLDATALOAD SWAP1 POP PUSH2 0x438D DUP2 PUSH2 0x4369 JUMP JUMPDEST SWAP3 SWAP2 POP POP JUMP JUMPDEST PUSH0 PUSH1 0x20 DUP3 DUP5 SUB SLT ISZERO PUSH2 0x43A8 JUMPI PUSH2 0x43A7 PUSH2 0x3DF1 JUMP JUMPDEST JUMPDEST PUSH0 PUSH2 0x43B5 DUP5 DUP3 DUP6 ADD PUSH2 0x437F JUMP JUMPDEST SWAP2 POP POP SWAP3 SWAP2 POP POP JUMP JUMPDEST PUSH0 PUSH0 DUP4 PUSH1 0x1F DUP5 ADD SLT PUSH2 0x43D3 JUMPI PUSH2 0x43D2 PUSH2 0x4082 JUMP JUMPDEST JUMPDEST DUP3 CALLDATALOAD SWAP1 POP PUSH8 0xFFFFFFFFFFFFFFFF DUP2 GT ISZERO PUSH2 0x43F0 JUMPI PUSH2 0x43EF PUSH2 0x4256 JUMP JUMPDEST JUMPDEST PUSH1 0x20 DUP4 ADD SWAP2 POP DUP4 PUSH1 0x20 DUP3 MUL DUP4 ADD GT ISZERO PUSH2 0x440C JUMPI PUSH2 0x440B PUSH2 0x425A JUMP JUMPDEST JUMPDEST SWAP3 POP SWAP3 SWAP1 POP JUMP JUMPDEST PUSH0 PUSH0 PUSH0 PUSH1 0x40 DUP5 DUP7 SUB SLT ISZERO PUSH2 0x442A JUMPI PUSH2 0x4429 PUSH2 0x3DF1 JUMP JUMPDEST JUMPDEST PUSH0 PUSH2 0x4437 DUP7 DUP3 DUP8 ADD PUSH2 0x4008 JUMP JUMPDEST SWAP4 POP POP PUSH1 0x20 DUP5 ADD CALLDATALOAD PUSH8 0xFFFFFFFFFFFFFFFF DUP2 GT ISZERO PUSH2 0x4458 JUMPI PUSH2 0x4457 PUSH2 0x3DF5 JUMP JUMPDEST JUMPDEST PUSH2 0x4464 DUP7 DUP3 DUP8 ADD PUSH2 0x43BE JUMP JUMPDEST SWAP3 POP SWAP3 POP POP SWAP3 POP SWAP3 POP SWAP3 JUMP JUMPDEST PUSH0 PUSH0 PUSH1 0x20 DUP4 DUP6 SUB SLT ISZERO PUSH2 0x4486 JUMPI PUSH2 0x4485 PUSH2 0x3DF1 JUMP JUMPDEST JUMPDEST PUSH0 DUP4 ADD CALLDATALOAD PUSH8 0xFFFFFFFFFFFFFFFF DUP2 GT ISZERO PUSH2 0x44A3 JUMPI PUSH2 0x44A2 PUSH2 0x3DF5 JUMP JUMPDEST JUMPDEST PUSH2 0x44AF DUP6 DUP3 DUP7 ADD PUSH2 0x425E JUMP JUMPDEST SWAP3 POP SWAP3 POP POP SWAP3 POP SWAP3 SWAP1 POP JUMP JUMPDEST PUSH0 PUSH8 0xFFFFFFFFFFFFFFFF DUP3 GT ISZERO PUSH2 0x44D5 JUMPI PUSH2 0x44D4 PUSH2 0x408A JUMP JUMPDEST JUMPDEST PUSH2 0x44DE DUP3 PUSH2 0x3ED4 JUMP JUMPDEST SWAP1 POP PUSH1 0x20 DUP2 ADD SWAP1 POP SWAP2 SWAP1 POP JUMP JUMPDEST PUSH0 PUSH2 0x44FD PUSH2 0x44F8 DUP5 PUSH2 0x44BB JUMP JUMPDEST PUSH2 0x40E8 JUMP JUMPDEST SWAP1 POP DUP3 DUP2 MSTORE PUSH1 0x20 DUP2 ADD DUP5 DUP5 DUP5 ADD GT ISZERO PUSH2 0x4519 JUMPI PUSH2 0x4518 PUSH2 0x4086 JUMP JUMPDEST JUMPDEST PUSH2 0x4524 DUP5 DUP3 DUP6 PUSH2 0x4132 JUMP JUMPDEST POP SWAP4 SWAP3 POP POP POP JUMP JUMPDEST PUSH0 DUP3 PUSH1 0x1F DUP4 ADD SLT PUSH2 0x4540 JUMPI PUSH2 0x453F PUSH2 0x4082 JUMP JUMPDEST JUMPDEST DUP2 CALLDATALOAD PUSH2 0x4550 DUP5 DUP3 PUSH1 0x20 DUP7 ADD PUSH2 0x44EB JUMP JUMPDEST SWAP2 POP POP SWAP3 SWAP2 POP POP JUMP JUMPDEST PUSH0 PUSH0 PUSH1 0x40 DUP4 DUP6 SUB SLT ISZERO PUSH2 0x456F JUMPI PUSH2 0x456E PUSH2 0x3DF1 JUMP JUMPDEST JUMPDEST PUSH0 DUP4 ADD CALLDATALOAD PUSH8 0xFFFFFFFFFFFFFFFF DUP2 GT ISZERO PUSH2 0x458C JUMPI PUSH2 0x458B PUSH2 0x3DF5 JUMP JUMPDEST JUMPDEST PUSH2 0x4598 DUP6 DUP3 DUP7 ADD PUSH2 0x452C JUMP JUMPDEST SWAP3 POP POP PUSH1 0x20 DUP4 ADD CALLDATALOAD PUSH8 0xFFFFFFFFFFFFFFFF DUP2 GT ISZERO PUSH2 0x45B9 JUMPI PUSH2 0x45B8 PUSH2 0x3DF5 JUMP JUMPDEST JUMPDEST PUSH2 0x45C5 DUP6 DUP3 DUP7 ADD PUSH2 0x452C JUMP JUMPDEST SWAP2 POP POP SWAP3 POP SWAP3 SWAP1 POP JUMP JUMPDEST PUSH0 PUSH1 0x20 DUP3 DUP5 SUB SLT ISZERO PUSH2 0x45E4 JUMPI PUSH2 0x45E3 PUSH2 0x3DF1 JUMP JUMPDEST JUMPDEST PUSH0 PUSH2 0x45F1 DUP5 DUP3 DUP6 ADD PUSH2 0x4008 JUMP JUMPDEST SWAP2 POP POP SWAP3 SWAP2 POP POP JUMP JUMPDEST PUSH2 0x4603 DUP2 PUSH2 0x3E79 JUMP JUMPDEST DUP2 EQ PUSH2 0x460D JUMPI PUSH0 PUSH0 REVERT JUMPDEST POP JUMP JUMPDEST PUSH0 DUP2 CALLDATALOAD SWAP1 POP PUSH2 0x461E DUP2 PUSH2 0x45FA JUMP JUMPDEST SWAP3 SWAP2 POP POP JUMP JUMPDEST PUSH0 PUSH0 PUSH1 0x40 DUP4 DUP6 SUB SLT ISZERO PUSH2 0x463A JUMPI PUSH2 0x4639 PUSH2 0x3DF1 JUMP JUMPDEST JUMPDEST PUSH0 PUSH2 0x4647 DUP6 DUP3 DUP7 ADD PUSH2 0x4008 JUMP JUMPDEST SWAP3 POP POP PUSH1 0x20 PUSH2 0x4658 DUP6 DUP3 DUP7 ADD PUSH2 0x4610 JUMP JUMPDEST SWAP2 POP POP SWAP3 POP SWAP3 SWAP1 POP JUMP JUMPDEST PUSH0 PUSH0 PUSH1 0x40 DUP4 DUP6 SUB SLT ISZERO PUSH2 0x4678 JUMPI PUSH2 0x4677 PUSH2 0x3DF1 JUMP JUMPDEST JUMPDEST PUSH0 PUSH2 0x4685 DUP6 DUP3 DUP7 ADD PUSH2 0x4008 JUMP JUMPDEST SWAP3 POP POP PUSH1 0x20 PUSH2 0x4696 DUP6 DUP3 DUP7 ADD PUSH2 0x4008 JUMP JUMPDEST SWAP2 POP POP SWAP3 POP SWAP3 SWAP1 POP JUMP JUMPDEST PUSH0 PUSH2 0x46B2 PUSH2 0x46AD DUP5 PUSH2 0x44BB JUMP JUMPDEST PUSH2 0x40E8 JUMP JUMPDEST SWAP1 POP DUP3 DUP2 MSTORE PUSH1 0x20 DUP2 ADD DUP5 DUP5 DUP5 ADD GT ISZERO PUSH2 0x46CE JUMPI PUSH2 0x46CD PUSH2 0x4086 JUMP JUMPDEST JUMPDEST PUSH2 0x46D9 DUP5 DUP3 DUP6 PUSH2 0x3EC6 JUMP JUMPDEST POP SWAP4 SWAP3 POP POP POP JUMP JUMPDEST PUSH0 DUP3 PUSH1 0x1F DUP4 ADD SLT PUSH2 0x46F5 JUMPI PUSH2 0x46F4 PUSH2 0x4082 JUMP JUMPDEST JUMPDEST DUP2 MLOAD PUSH2 0x4705 DUP5 DUP3 PUSH1 0x20 DUP7 ADD PUSH2 0x46A0 JUMP JUMPDEST SWAP2 POP POP SWAP3 SWAP2 POP POP JUMP JUMPDEST PUSH0 PUSH1 0x20 DUP3 DUP5 SUB SLT ISZERO PUSH2 0x4723 JUMPI PUSH2 0x4722 PUSH2 0x3DF1 JUMP JUMPDEST JUMPDEST PUSH0 DUP3 ADD MLOAD PUSH8 0xFFFFFFFFFFFFFFFF DUP2 GT ISZERO PUSH2 0x4740 JUMPI PUSH2 0x473F PUSH2 0x3DF5 JUMP JUMPDEST JUMPDEST PUSH2 0x474C DUP5 DUP3 DUP6 ADD PUSH2 0x46E1 JUMP JUMPDEST SWAP2 POP POP SWAP3 SWAP2 POP POP JUMP JUMPDEST PUSH2 0x475E DUP2 PUSH2 0x3F3C JUMP JUMPDEST DUP3 MSTORE POP POP JUMP JUMPDEST PUSH0 PUSH1 0x20 DUP3 ADD SWAP1 POP PUSH2 0x4777 PUSH0 DUP4 ADD DUP5 PUSH2 0x4755 JUMP JUMPDEST SWAP3 SWAP2 POP POP JUMP JUMPDEST PUSH0 PUSH0 REVERT JUMPDEST PUSH0 DUP2 MLOAD SWAP1 POP PUSH2 0x478F DUP2 PUSH2 0x3FF2 JUMP JUMPDEST SWAP3 SWAP2 POP POP JUMP JUMPDEST PUSH0 PUSH1 0x20 DUP3 DUP5 SUB SLT ISZERO PUSH2 0x47AA JUMPI PUSH2 0x47A9 PUSH2 0x477D JUMP JUMPDEST JUMPDEST PUSH2 0x47B4 PUSH1 0x20 PUSH2 0x40E8 JUMP JUMPDEST SWAP1 POP PUSH0 PUSH2 0x47C3 DUP5 DUP3 DUP6 ADD PUSH2 0x4781 JUMP JUMPDEST PUSH0 DUP4 ADD MSTORE POP SWAP3 SWAP2 POP POP JUMP JUMPDEST PUSH0 PUSH1 0x20 DUP3 DUP5 SUB SLT ISZERO PUSH2 0x47E3 JUMPI PUSH2 0x47E2 PUSH2 0x3DF1 JUMP JUMPDEST JUMPDEST PUSH0 PUSH2 0x47F0 DUP5 DUP3 DUP6 ADD PUSH2 0x4795 JUMP JUMPDEST SWAP2 POP POP SWAP3 SWAP2 POP POP JUMP JUMPDEST PUSH0 PUSH1 0x20 DUP3 DUP5 SUB SLT ISZERO PUSH2 0x480E JUMPI PUSH2 0x480D PUSH2 0x3DF1 JUMP JUMPDEST JUMPDEST PUSH0 PUSH2 0x481B DUP5 DUP3 DUP6 ADD PUSH2 0x4781 JUMP JUMPDEST SWAP2 POP POP SWAP3 SWAP2 POP POP JUMP JUMPDEST PUSH32 0x596F7520617265206E6F7420616E206F776E6572000000000000000000000000 PUSH0 DUP3 ADD MSTORE POP JUMP JUMPDEST PUSH0 PUSH2 0x4858 PUSH1 0x14 DUP4 PUSH2 0x3EB6 JUMP JUMPDEST SWAP2 POP PUSH2 0x4863 DUP3 PUSH2 0x4824 JUMP JUMPDEST PUSH1 0x20 DUP3 ADD SWAP1 POP SWAP2 SWAP1 POP JUMP JUMPDEST PUSH0 PUSH1 0x20 DUP3 ADD SWAP1 POP DUP2 DUP2 SUB PUSH0 DUP4 ADD MSTORE PUSH2 0x4885 DUP2 PUSH2 0x484C JUMP JUMPDEST SWAP1 POP SWAP2 SWAP1 POP JUMP JUMPDEST PUSH0 DUP2 MLOAD SWAP1 POP PUSH2 0x489A DUP2 PUSH2 0x3F45 JUMP JUMPDEST SWAP3 SWAP2 POP POP JUMP JUMPDEST PUSH0 PUSH1 0x20 DUP3 DUP5 SUB SLT ISZERO PUSH2 0x48B5 JUMPI PUSH2 0x48B4 PUSH2 0x3DF1 JUMP JUMPDEST JUMPDEST PUSH0 PUSH2 0x48C2 DUP5 DUP3 DUP6 ADD PUSH2 0x488C JUMP JUMPDEST SWAP2 POP POP SWAP3 SWAP2 POP POP JUMP JUMPDEST PUSH0 DUP2 SWAP1 POP SWAP3 SWAP2 POP POP JUMP JUMPDEST POP JUMP JUMPDEST PUSH0 PUSH2 0x48E3 PUSH0 DUP4 PUSH2 0x48CB JUMP JUMPDEST SWAP2 POP PUSH2 0x48EE DUP3 PUSH2 0x48D5 JUMP JUMPDEST PUSH0 DUP3 ADD SWAP1 POP SWAP2 SWAP1 POP JUMP JUMPDEST PUSH0 PUSH2 0x4902 DUP3 PUSH2 0x48D8 JUMP JUMPDEST SWAP2 POP DUP2 SWAP1 POP SWAP2 SWAP1 POP JUMP JUMPDEST PUSH32 0x5472616E73666572206661696C65642E00000000000000000000000000000000 PUSH0 DUP3 ADD MSTORE POP JUMP JUMPDEST PUSH0 PUSH2 0x4940 PUSH1 0x10 DUP4 PUSH2 0x3EB6 JUMP JUMPDEST SWAP2 POP PUSH2 0x494B DUP3 PUSH2 0x490C JUMP JUMPDEST PUSH1 0x20 DUP3 ADD SWAP1 POP SWAP2 SWAP1 POP JUMP JUMPDEST PUSH0 PUSH1 0x20 DUP3 ADD SWAP1 POP DUP2 DUP2 SUB PUSH0 DUP4 ADD MSTORE PUSH2 0x496D DUP2 PUSH2 0x4934 JUMP JUMPDEST SWAP1 POP SWAP2 SWAP1 POP JUMP JUMPDEST PUSH32 0x4572726F7220616C6C6F63202D2069642066726F6D2067656E65736973000000 PUSH0 DUP3 ADD MSTORE POP JUMP JUMPDEST PUSH0 PUSH2 0x49A8 PUSH1 0x1D DUP4 PUSH2 0x3EB6 JUMP JUMPDEST SWAP2 POP PUSH2 0x49B3 DUP3 PUSH2 0x4974 JUMP JUMPDEST PUSH1 0x20 DUP3 ADD SWAP1 POP SWAP2 SWAP1 POP JUMP JUMPDEST PUSH0 PUSH1 0x20 DUP3 ADD SWAP1 POP DUP2 DUP2 SUB PUSH0 DUP4 ADD MSTORE PUSH2 0x49D5 DUP2 PUSH2 0x499C JUMP JUMPDEST SWAP1 POP SWAP2 SWAP1 POP JUMP JUMPDEST PUSH32 0x45786365656420616C6C6F630000000000000000000000000000000000000000 PUSH0 DUP3 ADD MSTORE POP JUMP JUMPDEST PUSH0 PUSH2 0x4A10 PUSH1 0xC DUP4 PUSH2 0x3EB6 JUMP JUMPDEST SWAP2 POP PUSH2 0x4A1B DUP3 PUSH2 0x49DC JUMP JUMPDEST PUSH1 0x20 DUP3 ADD SWAP1 POP SWAP2 SWAP1 POP JUMP JUMPDEST PUSH0 PUSH1 0x20 DUP3 ADD SWAP1 POP DUP2 DUP2 SUB PUSH0 DUP4 ADD MSTORE PUSH2 0x4A3D DUP2 PUSH2 0x4A04 JUMP JUMPDEST SWAP1 POP SWAP2 SWAP1 POP JUMP JUMPDEST PUSH2 0x4A4D DUP2 PUSH2 0x3FB9 JUMP JUMPDEST DUP3 MSTORE POP POP JUMP JUMPDEST PUSH0 PUSH1 0x20 DUP3 ADD SWAP1 POP PUSH2 0x4A66 PUSH0 DUP4 ADD DUP5 PUSH2 0x4A44 JUMP JUMPDEST SWAP3 SWAP2 POP POP JUMP JUMPDEST PUSH0 DUP2 MLOAD SWAP1 POP PUSH2 0x4A7A DUP2 PUSH2 0x45FA JUMP JUMPDEST SWAP3 SWAP2 POP POP JUMP JUMPDEST PUSH0 PUSH1 0x20 DUP3 DUP5 SUB SLT ISZERO PUSH2 0x4A95 JUMPI PUSH2 0x4A94 PUSH2 0x3DF1 JUMP JUMPDEST JUMPDEST PUSH0 PUSH2 0x4AA2 DUP5 DUP3 DUP6 ADD PUSH2 0x4A6C JUMP JUMPDEST SWAP2 POP POP SWAP3 SWAP2 POP POP JUMP JUMPDEST PUSH32 0x416C7265616479206D696E746564000000000000000000000000000000000000 PUSH0 DUP3 ADD MSTORE POP JUMP JUMPDEST PUSH0 PUSH2 0x4ADF PUSH1 0xE DUP4 PUSH2 0x3EB6 JUMP JUMPDEST SWAP2 POP PUSH2 0x4AEA DUP3 PUSH2 0x4AAB JUMP JUMPDEST PUSH1 0x20 DUP3 ADD SWAP1 POP SWAP2 SWAP1 POP JUMP JUMPDEST PUSH0 PUSH1 0x20 DUP3 ADD SWAP1 POP DUP2 DUP2 SUB PUSH0 DUP4 ADD MSTORE PUSH2 0x4B0C DUP2 PUSH2 0x4AD3 JUMP JUMPDEST SWAP1 POP SWAP2 SWAP1 POP JUMP JUMPDEST PUSH32 0x4E6F74206D617463682070726963650000000000000000000000000000000000 PUSH0 DUP3 ADD MSTORE POP JUMP JUMPDEST PUSH0 PUSH2 0x4B47 PUSH1 0xF DUP4 PUSH2 0x3EB6 JUMP JUMPDEST SWAP2 POP PUSH2 0x4B52 DUP3 PUSH2 0x4B13 JUMP JUMPDEST PUSH1 0x20 DUP3 ADD SWAP1 POP SWAP2 SWAP1 POP JUMP JUMPDEST PUSH0 PUSH1 0x20 DUP3 ADD SWAP1 POP DUP2 DUP2 SUB PUSH0 DUP4 ADD MSTORE PUSH2 0x4B74 DUP2 PUSH2 0x4B3B JUMP JUMPDEST SWAP1 POP SWAP2 SWAP1 POP JUMP JUMPDEST PUSH0 DUP2 PUSH1 0x60 SHL SWAP1 POP SWAP2 SWAP1 POP JUMP JUMPDEST PUSH0 PUSH2 0x4B91 DUP3 PUSH2 0x4B7B JUMP JUMPDEST SWAP1 POP SWAP2 SWAP1 POP JUMP JUMPDEST PUSH0 PUSH2 0x4BA2 DUP3 PUSH2 0x4B87 JUMP JUMPDEST SWAP1 POP SWAP2 SWAP1 POP JUMP JUMPDEST PUSH2 0x4BBA PUSH2 0x4BB5 DUP3 PUSH2 0x3FB9 JUMP JUMPDEST PUSH2 0x4B98 JUMP JUMPDEST DUP3 MSTORE POP POP JUMP JUMPDEST PUSH0 PUSH2 0x4BCB DUP3 DUP5 PUSH2 0x4BA9 JUMP JUMPDEST PUSH1 0x14 DUP3 ADD SWAP2 POP DUP2 SWAP1 POP SWAP3 SWAP2 POP POP JUMP JUMPDEST PUSH0 DUP2 MLOAD SWAP1 POP PUSH2 0x4BE8 DUP2 PUSH2 0x4369 JUMP JUMPDEST SWAP3 SWAP2 POP POP JUMP JUMPDEST PUSH0 PUSH1 0x20 DUP3 DUP5 SUB SLT ISZERO PUSH2 0x4C03 JUMPI PUSH2 0x4C02 PUSH2 0x3DF1 JUMP JUMPDEST JUMPDEST PUSH0 PUSH2 0x4C10 DUP5 DUP3 DUP6 ADD PUSH2 0x4BDA JUMP JUMPDEST SWAP2 POP POP SWAP3 SWAP2 POP POP JUMP JUMPDEST PUSH32 0x4E6F7420696E206D65726B6C6500000000000000000000000000000000000000 PUSH0 DUP3 ADD MSTORE POP JUMP JUMPDEST PUSH0 PUSH2 0x4C4D PUSH1 0xD DUP4 PUSH2 0x3EB6 JUMP JUMPDEST SWAP2 POP PUSH2 0x4C58 DUP3 PUSH2 0x4C19 JUMP JUMPDEST PUSH1 0x20 DUP3 ADD SWAP1 POP SWAP2 SWAP1 POP JUMP JUMPDEST PUSH0 PUSH1 0x20 DUP3 ADD SWAP1 POP DUP2 DUP2 SUB PUSH0 DUP4 ADD MSTORE PUSH2 0x4C7A DUP2 PUSH2 0x4C41 JUMP JUMPDEST SWAP1 POP SWAP2 SWAP1 POP JUMP JUMPDEST PUSH2 0x4C8A DUP2 PUSH2 0x3E79 JUMP JUMPDEST DUP3 MSTORE POP POP JUMP JUMPDEST PUSH0 PUSH1 0x40 DUP3 ADD SWAP1 POP PUSH2 0x4CA3 PUSH0 DUP4 ADD DUP6 PUSH2 0x4A44 JUMP JUMPDEST PUSH2 0x4CB0 PUSH1 0x20 DUP4 ADD DUP5 PUSH2 0x4C81 JUMP JUMPDEST SWAP4 SWAP3 POP POP POP JUMP JUMPDEST PUSH2 0x4CC0 DUP2 PUSH2 0x4360 JUMP JUMPDEST DUP3 MSTORE POP POP JUMP JUMPDEST PUSH0 PUSH1 0x20 DUP3 ADD SWAP1 POP PUSH2 0x4CD9 PUSH0 DUP4 ADD DUP5 PUSH2 0x4CB7 JUMP JUMPDEST SWAP3 SWAP2 POP POP JUMP JUMPDEST PUSH0 PUSH1 0x40 DUP3 ADD SWAP1 POP PUSH2 0x4CF2 PUSH0 DUP4 ADD DUP6 PUSH2 0x4A44 JUMP JUMPDEST PUSH2 0x4CFF PUSH1 0x20 DUP4 ADD DUP5 PUSH2 0x4755 JUMP JUMPDEST SWAP4 SWAP3 POP POP POP JUMP JUMPDEST PUSH0 DUP3 DUP3 MSTORE PUSH1 0x20 DUP3 ADD SWAP1 POP SWAP3 SWAP2 POP POP JUMP JUMPDEST PUSH0 PUSH2 0x4D21 DUP4 DUP6 PUSH2 0x4D06 JUMP JUMPDEST SWAP4 POP PUSH2 0x4D2E DUP4 DUP6 DUP5 PUSH2 0x4132 JUMP JUMPDEST PUSH2 0x4D37 DUP4 PUSH2 0x3ED4 JUMP JUMPDEST DUP5 ADD SWAP1 POP SWAP4 SWAP3 POP POP POP JUMP JUMPDEST PUSH0 PUSH1 0x20 DUP3 ADD SWAP1 POP DUP2 DUP2 SUB PUSH0 DUP4 ADD MSTORE PUSH2 0x4D5B DUP2 DUP5 DUP7 PUSH2 0x4D16 JUMP JUMPDEST SWAP1 POP SWAP4 SWAP3 POP POP POP JUMP JUMPDEST PUSH0 PUSH1 0x60 DUP3 ADD SWAP1 POP PUSH2 0x4D77 PUSH0 DUP4 ADD DUP7 PUSH2 0x4A44 JUMP JUMPDEST PUSH2 0x4D84 PUSH1 0x20 DUP4 ADD DUP6 PUSH2 0x4A44 JUMP JUMPDEST PUSH2 0x4D91 PUSH1 0x40 DUP4 ADD DUP5 PUSH2 0x4C81 JUMP JUMPDEST SWAP5 SWAP4 POP POP POP POP JUMP JUMPDEST PUSH0 DUP2 SWAP1 POP SWAP3 SWAP2 POP POP JUMP JUMPDEST PUSH0 PUSH2 0x4DAD DUP3 PUSH2 0x3EAC JUMP JUMPDEST PUSH2 0x4DB7 DUP2 DUP6 PUSH2 0x4D99 JUMP JUMPDEST SWAP4 POP PUSH2 0x4DC7 DUP2 DUP6 PUSH1 0x20 DUP7 ADD PUSH2 0x3EC6 JUMP JUMPDEST DUP1 DUP5 ADD SWAP2 POP POP SWAP3 SWAP2 POP POP JUMP JUMPDEST PUSH0 PUSH2 0x4DDE DUP3 DUP6 PUSH2 0x4DA3 JUMP JUMPDEST SWAP2 POP PUSH2 0x4DEA DUP3 DUP5 PUSH2 0x4DA3 JUMP JUMPDEST SWAP2 POP DUP2 SWAP1 POP SWAP4 SWAP3 POP POP POP JUMP JUMPDEST PUSH0 PUSH1 0x40 DUP3 ADD SWAP1 POP PUSH2 0x4E09 PUSH0 DUP4 ADD DUP6 PUSH2 0x4A44 JUMP JUMPDEST PUSH2 0x4E16 PUSH1 0x20 DUP4 ADD DUP5 PUSH2 0x4A44 JUMP JUMPDEST SWAP4 SWAP3 POP POP POP JUMP JUMPDEST PUSH32 0x4E487B7100000000000000000000000000000000000000000000000000000000 PUSH0 MSTORE PUSH1 0x11 PUSH1 0x4 MSTORE PUSH1 0x24 PUSH0 REVERT JUMPDEST PUSH0 PUSH2 0x4E54 DUP3 PUSH2 0x3F3C JUMP JUMPDEST SWAP2 POP PUSH0 DUP3 SUB PUSH2 0x4E66 JUMPI PUSH2 0x4E65 PUSH2 0x4E1D JUMP JUMPDEST JUMPDEST PUSH1 0x1 DUP3 SUB SWAP1 POP SWAP2 SWAP1 POP JUMP JUMPDEST PUSH0 PUSH1 0x40 DUP3 ADD SWAP1 POP PUSH2 0x4E84 PUSH0 DUP4 ADD DUP6 PUSH2 0x4755 JUMP JUMPDEST PUSH2 0x4E91 PUSH1 0x20 DUP4 ADD DUP5 PUSH2 0x4A44 JUMP JUMPDEST SWAP4 SWAP3 POP POP POP JUMP JUMPDEST PUSH0 PUSH2 0x4EA2 DUP3 PUSH2 0x3EAC JUMP JUMPDEST PUSH2 0x4EAC DUP2 DUP6 PUSH2 0x4D06 JUMP JUMPDEST SWAP4 POP PUSH2 0x4EBC DUP2 DUP6 PUSH1 0x20 DUP7 ADD PUSH2 0x3EC6 JUMP JUMPDEST PUSH2 0x4EC5 DUP2 PUSH2 0x3ED4 JUMP JUMPDEST DUP5 ADD SWAP2 POP POP SWAP3 SWAP2 POP POP JUMP JUMPDEST PUSH0 PUSH1 0x40 DUP3 ADD SWAP1 POP DUP2 DUP2 SUB PUSH0 DUP4 ADD MSTORE PUSH2 0x4EE8 DUP2 DUP6 PUSH2 0x4E98 JUMP JUMPDEST SWAP1 POP PUSH2 0x4EF7 PUSH1 0x20 DUP4 ADD DUP5 PUSH2 0x4755 JUMP JUMPDEST SWAP4 SWAP3 POP POP POP JUMP JUMPDEST PUSH0 PUSH1 0x40 DUP3 ADD SWAP1 POP PUSH2 0x4F11 PUSH0 DUP4 ADD DUP6 PUSH2 0x4755 JUMP JUMPDEST PUSH2 0x4F1E PUSH1 0x20 DUP4 ADD DUP5 PUSH2 0x4755 JUMP JUMPDEST SWAP4 SWAP3 POP POP POP JUMP JUMPDEST PUSH32 0x5265656E7472616E637947756172643A207265656E7472616E742063616C6C00 PUSH0 DUP3 ADD MSTORE POP JUMP JUMPDEST PUSH0 PUSH2 0x4F59 PUSH1 0x1F DUP4 PUSH2 0x3EB6 JUMP JUMPDEST SWAP2 POP PUSH2 0x4F64 DUP3 PUSH2 0x4F25 JUMP JUMPDEST PUSH1 0x20 DUP3 ADD SWAP1 POP SWAP2 SWAP1 POP JUMP JUMPDEST PUSH0 PUSH1 0x20 DUP3 ADD SWAP1 POP DUP2 DUP2 SUB PUSH0 DUP4 ADD MSTORE PUSH2 0x4F86 DUP2 PUSH2 0x4F4D JUMP JUMPDEST SWAP1 POP SWAP2 SWAP1 POP JUMP JUMPDEST PUSH32 0x4552433732314D657461646174613A2055524920717565727920666F72206E6F PUSH0 DUP3 ADD MSTORE PUSH32 0x6E6578697374656E7420746F6B656E0000000000000000000000000000000000 PUSH1 0x20 DUP3 ADD MSTORE POP JUMP JUMPDEST PUSH0 PUSH2 0x4FE7 PUSH1 0x2F DUP4 PUSH2 0x3EB6 JUMP JUMPDEST SWAP2 POP PUSH2 0x4FF2 DUP3 PUSH2 0x4F8D JUMP JUMPDEST PUSH1 0x40 DUP3 ADD SWAP1 POP SWAP2 SWAP1 POP JUMP JUMPDEST PUSH0 PUSH1 0x20 DUP3 ADD SWAP1 POP DUP2 DUP2 SUB PUSH0 DUP4 ADD MSTORE PUSH2 0x5014 DUP2 PUSH2 0x4FDB JUMP JUMPDEST SWAP1 POP SWAP2 SWAP1 POP JUMP JUMPDEST PUSH32 0x2E6A736F6E000000000000000000000000000000000000000000000000000000 PUSH0 DUP3 ADD MSTORE POP JUMP JUMPDEST PUSH0 PUSH2 0x504F PUSH1 0x5 DUP4 PUSH2 0x4D99 JUMP JUMPDEST SWAP2 POP PUSH2 0x505A DUP3 PUSH2 0x501B JUMP JUMPDEST PUSH1 0x5 DUP3 ADD SWAP1 POP SWAP2 SWAP1 POP JUMP JUMPDEST PUSH0 PUSH2 0x5070 DUP3 DUP6 PUSH2 0x4DA3 JUMP JUMPDEST SWAP2 POP PUSH2 0x507C DUP3 DUP5 PUSH2 0x4DA3 JUMP JUMPDEST SWAP2 POP PUSH2 0x5087 DUP3 PUSH2 0x5043 JUMP JUMPDEST SWAP2 POP DUP2 SWAP1 POP SWAP4 SWAP3 POP POP POP JUMP JUMPDEST PUSH32 0x68747470733A2F2F697066732E737765622E72752F697066732F516D62704E39 PUSH0 DUP3 ADD MSTORE PUSH32 0x716578677A6E6B705445516D7264786E53665759434441624C6B42786D357641 PUSH1 0x20 DUP3 ADD MSTORE PUSH32 0x4337316A7A52786F2F0000000000000000000000000000000000000000000000 PUSH1 0x40 DUP3 ADD MSTORE POP JUMP JUMPDEST PUSH0 PUSH2 0x5113 PUSH1 0x49 DUP4 PUSH2 0x4D06 JUMP JUMPDEST SWAP2 POP PUSH2 0x511E DUP3 PUSH2 0x5093 JUMP JUMPDEST PUSH1 0x60 DUP3 ADD SWAP1 POP SWAP2 SWAP1 POP JUMP JUMPDEST PUSH0 PUSH1 0x20 DUP3 ADD SWAP1 POP DUP2 DUP2 SUB PUSH0 DUP4 ADD MSTORE PUSH2 0x5140 DUP2 PUSH2 0x5107 JUMP JUMPDEST SWAP1 POP SWAP2 SWAP1 POP JUMP JUMPDEST PUSH32 0x68747470733A2F2F697066732E737765622E72752F697066732F516D59526253 PUSH0 DUP3 ADD MSTORE PUSH32 0x4D3251617A47623551486F676F64714A666F505661536962333274745570764E PUSH1 0x20 DUP3 ADD MSTORE PUSH32 0x6B794A4B666858552F3F66696C656E616D653D736D65616D622E6A736F6E0000 PUSH1 0x40 DUP3 ADD MSTORE POP JUMP JUMPDEST PUSH0 PUSH2 0x51C7 PUSH1 0x5E DUP4 PUSH2 0x4D06 JUMP JUMPDEST SWAP2 POP PUSH2 0x51D2 DUP3 PUSH2 0x5147 JUMP JUMPDEST PUSH1 0x60 DUP3 ADD SWAP1 POP SWAP2 SWAP1 POP JUMP JUMPDEST PUSH0 PUSH1 0x20 DUP3 ADD SWAP1 POP DUP2 DUP2 SUB PUSH0 DUP4 ADD MSTORE PUSH2 0x51F4 DUP2 PUSH2 0x51BB JUMP JUMPDEST SWAP1 POP SWAP2 SWAP1 POP JUMP JUMPDEST PUSH0 DUP2 SWAP1 POP SWAP2 SWAP1 POP JUMP JUMPDEST PUSH0 DUP2 PUSH0 SHL SWAP1 POP SWAP2 SWAP1 POP JUMP JUMPDEST PUSH0 PUSH2 0x5229 PUSH2 0x5224 PUSH2 0x521F DUP5 PUSH2 0x51FB JUMP JUMPDEST PUSH2 0x5204 JUMP JUMPDEST PUSH2 0x4360 JUMP JUMPDEST SWAP1 POP SWAP2 SWAP1 POP JUMP JUMPDEST PUSH2 0x5239 DUP2 PUSH2 0x520F JUMP JUMPDEST DUP3 MSTORE POP POP JUMP JUMPDEST PUSH0 PUSH1 0x20 DUP3 ADD SWAP1 POP PUSH2 0x5252 PUSH0 DUP4 ADD DUP5 PUSH2 0x5230 JUMP JUMPDEST SWAP3 SWAP2 POP POP JUMP JUMPDEST PUSH0 DUP2 SWAP1 POP SWAP2 SWAP1 POP JUMP JUMPDEST PUSH0 DUP2 SWAP1 POP SWAP2 SWAP1 POP JUMP JUMPDEST PUSH0 PUSH2 0x5284 PUSH2 0x527F PUSH2 0x527A DUP5 PUSH2 0x5258 JUMP JUMPDEST PUSH2 0x5261 JUMP JUMPDEST PUSH2 0x3F3C JUMP JUMPDEST SWAP1 POP SWAP2 SWAP1 POP JUMP JUMPDEST PUSH2 0x5294 DUP2 PUSH2 0x526A JUMP JUMPDEST DUP3 MSTORE POP POP JUMP JUMPDEST PUSH0 PUSH1 0x20 DUP3 ADD SWAP1 POP PUSH2 0x52AD PUSH0 DUP4 ADD DUP5 PUSH2 0x528B JUMP JUMPDEST SWAP3 SWAP2 POP POP JUMP JUMPDEST PUSH0 PUSH1 0x20 DUP3 ADD SWAP1 POP DUP2 DUP2 SUB PUSH0 DUP4 ADD MSTORE PUSH2 0x52CB DUP2 DUP5 PUSH2 0x4E98 JUMP JUMPDEST SWAP1 POP SWAP3 SWAP2 POP POP JUMP JUMPDEST PUSH0 DUP2 SWAP1 POP SWAP2 SWAP1 POP JUMP JUMPDEST PUSH0 PUSH2 0x52F6 PUSH2 0x52F1 PUSH2 0x52EC DUP5 PUSH2 0x52D3 JUMP JUMPDEST PUSH2 0x5261 JUMP JUMPDEST PUSH2 0x3F3C JUMP JUMPDEST SWAP1 POP SWAP2 SWAP1 POP JUMP JUMPDEST PUSH2 0x5306 DUP2 PUSH2 0x52DC JUMP JUMPDEST DUP3 MSTORE POP POP JUMP JUMPDEST PUSH0 PUSH1 0x20 DUP3 ADD SWAP1 POP PUSH2 0x531F PUSH0 DUP4 ADD DUP5 PUSH2 0x52FD JUMP JUMPDEST SWAP3 SWAP2 POP POP JUMP JUMPDEST PUSH0 DUP2 MLOAD SWAP1 POP SWAP2 SWAP1 POP JUMP JUMPDEST PUSH0 DUP3 DUP3 MSTORE PUSH1 0x20 DUP3 ADD SWAP1 POP SWAP3 SWAP2 POP POP JUMP JUMPDEST PUSH0 PUSH2 0x5349 DUP3 PUSH2 0x5325 JUMP JUMPDEST PUSH2 0x5353 DUP2 DUP6 PUSH2 0x532F JUMP JUMPDEST SWAP4 POP PUSH2 0x5363 DUP2 DUP6 PUSH1 0x20 DUP7 ADD PUSH2 0x3EC6 JUMP JUMPDEST PUSH2 0x536C DUP2 PUSH2 0x3ED4 JUMP JUMPDEST DUP5 ADD SWAP2 POP POP SWAP3 SWAP2 POP POP JUMP JUMPDEST PUSH0 PUSH1 0x80 DUP3 ADD SWAP1 POP PUSH2 0x538A PUSH0 DUP4 ADD DUP8 PUSH2 0x3FCA JUMP JUMPDEST PUSH2 0x5397 PUSH1 0x20 DUP4 ADD DUP7 PUSH2 0x3FCA JUMP JUMPDEST PUSH2 0x53A4 PUSH1 0x40 DUP4 ADD DUP6 PUSH2 0x405A JUMP JUMPDEST DUP2 DUP2 SUB PUSH1 0x60 DUP4 ADD MSTORE PUSH2 0x53B6 DUP2 DUP5 PUSH2 0x533F JUMP JUMPDEST SWAP1 POP SWAP6 SWAP5 POP POP POP POP POP JUMP JUMPDEST PUSH0 DUP2 MLOAD SWAP1 POP PUSH2 0x53CF DUP2 PUSH2 0x3E24 JUMP JUMPDEST SWAP3 SWAP2 POP POP JUMP JUMPDEST PUSH0 PUSH1 0x20 DUP3 DUP5 SUB SLT ISZERO PUSH2 0x53EA JUMPI PUSH2 0x53E9 PUSH2 0x3DF1 JUMP JUMPDEST JUMPDEST PUSH0 PUSH2 0x53F7 DUP5 DUP3 DUP6 ADD PUSH2 0x53C1 JUMP JUMPDEST SWAP2 POP POP SWAP3 SWAP2 POP POP JUMP JUMPDEST PUSH0 PUSH1 0x60 DUP3 ADD SWAP1 POP PUSH2 0x5413 PUSH0 DUP4 ADD DUP7 PUSH2 0x4A44 JUMP JUMPDEST PUSH2 0x5420 PUSH1 0x20 DUP4 ADD DUP6 PUSH2 0x4755 JUMP JUMPDEST PUSH2 0x542D PUSH1 0x40 DUP4 ADD DUP5 PUSH2 0x4755 JUMP JUMPDEST SWAP5 SWAP4 POP POP POP POP JUMP JUMPDEST PUSH0 PUSH2 0x543F DUP3 PUSH2 0x3F3C JUMP JUMPDEST SWAP2 POP PUSH2 0x544A DUP4 PUSH2 0x3F3C JUMP JUMPDEST SWAP3 POP DUP3 DUP3 SUB SWAP1 POP DUP2 DUP2 GT ISZERO PUSH2 0x5462 JUMPI PUSH2 0x5461 PUSH2 0x4E1D JUMP JUMPDEST JUMPDEST SWAP3 SWAP2 POP POP JUMP JUMPDEST PUSH32 0x4E487B7100000000000000000000000000000000000000000000000000000000 PUSH0 MSTORE PUSH1 0x32 PUSH1 0x4 MSTORE PUSH1 0x24 PUSH0 REVERT JUMPDEST PUSH32 0x4E487B7100000000000000000000000000000000000000000000000000000000 PUSH0 MSTORE PUSH1 0x12 PUSH1 0x4 MSTORE PUSH1 0x24 PUSH0 REVERT INVALID LOG2 PUSH5 0x6970667358 0x22 SLT KECCAK256 SLT 0xBC DIV MSIZE SWAP11 PUSH26 0x58110ED09E351E723870515F7354A830EEC3DDEE412EF8F04DC8 PUSH5 0x736F6C6343 STOP ADDMOD 0x1E STOP CALLER "
		},
		"gasEstimates": {
			"creation": {
				"codeDepositCost": "4350400",
				"executionCost": "infinite",
				"totalCost": "infinite"
			},
			"external": {
				"MAX_SUPPLY_EPIC()": "436",
				"MAX_SUPPLY_GENESIS()": "371",
				"MAX_SUPPLY_LEGEND()": "436",
				"MODULE_NAME()": "infinite",
				"MODULE_VERSION()": "infinite",
				"approve(address,uint256)": "infinite",
				"balanceOf(address)": "infinite",
				"balanceOfId(address,uint256)": "infinite",
				"baseURI()": "infinite",
				"exists(uint256)": "infinite",
				"fee()": "infinite",
				"getApproved(uint256)": "infinite",
				"init(string,string)": "infinite",
				"isApprovedForAll(address,address)": "infinite",
				"legendaryMint(address,bytes32[])": "infinite",
				"name()": "infinite",
				"nextTokenId()": "infinite",
				"onERC721Received(address,address,uint256,bytes)": "infinite",
				"ownerOf(uint256)": "infinite",
				"safeTransferFrom(address,address,uint256)": "infinite",
				"safeTransferFrom(address,address,uint256,bytes)": "infinite",
				"setApprovalForAll(address,bool)": "infinite",
				"setBaseURI(string)": "infinite",
				"setDefaultTokenURI(string)": "infinite",
				"setEpiclistRoot(bytes32)": "infinite",
				"setFee(uint256)": "infinite",
				"setGenesislistRoot(bytes32)": "infinite",
				"setLegendlistRoot(bytes32)": "infinite",
				"setTokenURI(uint256,string)": "infinite",
				"supportsInterface(bytes4)": "759",
				"symbol()": "infinite",
				"tokenURI(uint256)": "infinite",
				"totalSupply()": "infinite",
				"transferFrom(address,address,uint256)": "infinite",
				"withdraw()": "infinite"
			},
			"internal": {
				"_addTokenToAllTokensEnumeration(uint256)": "infinite",
				"_addTokenToOwnerEnumeration(address,uint256)": "infinite",
				"_init(string memory,string memory)": "infinite",
				"_removeTokenFromAllTokensEnumeration(uint256)": "infinite",
				"_removeTokenFromOwnerEnumeration(address,uint256)": "infinite",
				"_setTokenURI(uint256,string memory)": "infinite",
				"_startTokenId()": "22",
				"_tokenURI(uint256)": "infinite",
				"_updateOwner(address,address,uint256)": "infinite"
			}
		},
		"methodIdentifiers": {
			"MAX_SUPPLY_EPIC()": "90507c78",
			"MAX_SUPPLY_GENESIS()": "0c142a43",
			"MAX_SUPPLY_LEGEND()": "ad5b1662",
			"MODULE_NAME()": "9b865b43",
			"MODULE_VERSION()": "81ed9808",
			"approve(address,uint256)": "095ea7b3",
			"balanceOf(address)": "70a08231",
			"balanceOfId(address,uint256)": "4bca8aa3",
			"baseURI()": "6c0360eb",
			"exists(uint256)": "4f558e79",
			"fee()": "ddca3f43",
			"getApproved(uint256)": "081812fc",
			"init(string,string)": "7029144c",
			"isApprovedForAll(address,address)": "e985e9c5",
			"legendaryMint(address,bytes32[])": "46bc0dca",
			"name()": "06fdde03",
			"nextTokenId()": "75794a3c",
			"onERC721Received(address,address,uint256,bytes)": "150b7a02",
			"ownerOf(uint256)": "6352211e",
			"safeTransferFrom(address,address,uint256)": "42842e0e",
			"safeTransferFrom(address,address,uint256,bytes)": "b88d4fde",
			"setApprovalForAll(address,bool)": "a22cb465",
			"setBaseURI(string)": "55f804b3",
			"setDefaultTokenURI(string)": "a125c824",
			"setEpiclistRoot(bytes32)": "49e0f980",
			"setFee(uint256)": "69fe0e2d",
			"setGenesislistRoot(bytes32)": "3bb04b1f",
			"setLegendlistRoot(bytes32)": "dfbf2e67",
			"setTokenURI(uint256,string)": "162094c4",
			"supportsInterface(bytes4)": "01ffc9a7",
			"symbol()": "95d89b41",
			"tokenURI(uint256)": "c87b56dd",
			"totalSupply()": "18160ddd",
			"transferFrom(address,address,uint256)": "23b872dd",
			"withdraw()": "3ccfd60b"
		}
	},
	"abi": [
		{
			"inputs": [
				{
					"internalType": "string",
					"name": "name",
					"type": "string"
				},
				{
					"internalType": "string",
					"name": "symbol",
					"type": "string"
				}
			],
			"stateMutability": "nonpayable",
			"type": "constructor"
		},
		{
			"inputs": [],
			"name": "ApprovalCallerNotOwnerNorApproved",
			"type": "error"
		},
		{
			"inputs": [],
			"name": "ApprovalQueryForNonexistentToken",
			"type": "error"
		},
		{
			"inputs": [],
			"name": "BalanceQueryForZeroAddress",
			"type": "error"
		},
		{
			"inputs": [],
			"name": "MintERC2309QuantityExceedsLimit",
			"type": "error"
		},
		{
			"inputs": [],
			"name": "MintToZeroAddress",
			"type": "error"
		},
		{
			"inputs": [],
			"name": "MintZeroQuantity",
			"type": "error"
		},
		{
			"inputs": [],
			"name": "NotCompatibleWithSpotMints",
			"type": "error"
		},
		{
			"inputs": [],
			"name": "OwnerQueryForNonexistentToken",
			"type": "error"
		},
		{
			"inputs": [],
			"name": "OwnershipNotInitializedForExtraData",
			"type": "error"
		},
		{
			"inputs": [],
			"name": "SequentialMintExceedsLimit",
			"type": "error"
		},
		{
			"inputs": [],
			"name": "SequentialUpToTooSmall",
			"type": "error"
		},
		{
			"inputs": [],
			"name": "SpotMintTokenIdTooSmall",
			"type": "error"
		},
		{
			"inputs": [],
			"name": "TokenAlreadyExists",
			"type": "error"
		},
		{
			"inputs": [],
			"name": "TransferCallerNotOwnerNorApproved",
			"type": "error"
		},
		{
			"inputs": [],
			"name": "TransferFromIncorrectOwner",
			"type": "error"
		},
		{
			"inputs": [],
			"name": "TransferToNonERC721ReceiverImplementer",
			"type": "error"
		},
		{
			"inputs": [],
			"name": "TransferToZeroAddress",
			"type": "error"
		},
		{
			"inputs": [],
			"name": "URIQueryForNonexistentToken",
			"type": "error"
		},
		{
			"anonymous": false,
			"inputs": [
				{
					"indexed": true,
					"internalType": "address",
					"name": "owner",
					"type": "address"
				},
				{
					"indexed": true,
					"internalType": "address",
					"name": "approved",
					"type": "address"
				},
				{
					"indexed": true,
					"internalType": "uint256",
					"name": "tokenId",
					"type": "uint256"
				}
			],
			"name": "Approval",
			"type": "event"
		},
		{
			"anonymous": false,
			"inputs": [
				{
					"indexed": true,
					"internalType": "address",
					"name": "owner",
					"type": "address"
				},
				{
					"indexed": true,
					"internalType": "address",
					"name": "operator",
					"type": "address"
				},
				{
					"indexed": false,
					"internalType": "bool",
					"name": "approved",
					"type": "bool"
				}
			],
			"name": "ApprovalForAll",
			"type": "event"
		},
		{
			"anonymous": false,
			"inputs": [
				{
					"indexed": true,
					"internalType": "uint256",
					"name": "fromTokenId",
					"type": "uint256"
				},
				{
					"indexed": false,
					"internalType": "uint256",
					"name": "toTokenId",
					"type": "uint256"
				},
				{
					"indexed": true,
					"internalType": "address",
					"name": "from",
					"type": "address"
				},
				{
					"indexed": true,
					"internalType": "address",
					"name": "to",
					"type": "address"
				}
			],
			"name": "ConsecutiveTransfer",
			"type": "event"
		},
		{
			"anonymous": false,
			"inputs": [
				{
					"indexed": false,
					"internalType": "uint256",
					"name": "_tokenId",
					"type": "uint256"
				}
			],
			"name": "MetadataUpdate",
			"type": "event"
		},
		{
			"anonymous": false,
			"inputs": [
				{
					"indexed": true,
					"internalType": "address",
					"name": "from",
					"type": "address"
				},
				{
					"indexed": true,
					"internalType": "address",
					"name": "to",
					"type": "address"
				},
				{
					"indexed": true,
					"internalType": "uint256",
					"name": "tokenId",
					"type": "uint256"
				}
			],
			"name": "Transfer",
			"type": "event"
		},
		{
			"inputs": [],
			"name": "MAX_SUPPLY_EPIC",
			"outputs": [
				{
					"internalType": "uint256",
					"name": "",
					"type": "uint256"
				}
			],
			"stateMutability": "view",
			"type": "function"
		},
		{
			"inputs": [],
			"name": "MAX_SUPPLY_GENESIS",
			"outputs": [
				{
					"internalType": "uint256",
					"name": "",
					"type": "uint256"
				}
			],
			"stateMutability": "view",
			"type": "function"
		},
		{
			"inputs": [],
			"name": "MAX_SUPPLY_LEGEND",
			"outputs": [
				{
					"internalType": "uint256",
					"name": "",
					"type": "uint256"
				}
			],
			"stateMutability": "view",
			"type": "function"
		},
		{
			"inputs": [],
			"name": "MODULE_NAME",
			"outputs": [
				{
					"internalType": "string",
					"name": "",
					"type": "string"
				}
			],
			"stateMutability": "view",
			"type": "function"
		},
		{
			"inputs": [],
			"name": "MODULE_VERSION",
			"outputs": [
				{
					"internalType": "uint256",
					"name": "",
					"type": "uint256"
				}
			],
			"stateMutability": "view",
			"type": "function"
		},
		{
			"inputs": [
				{
					"internalType": "address",
					"name": "to",
					"type": "address"
				},
				{
					"internalType": "uint256",
					"name": "tokenId",
					"type": "uint256"
				}
			],
			"name": "approve",
			"outputs": [],
			"stateMutability": "payable",
			"type": "function"
		},
		{
			"inputs": [
				{
					"internalType": "address",
					"name": "owner",
					"type": "address"
				}
			],
			"name": "balanceOf",
			"outputs": [
				{
					"internalType": "uint256",
					"name": "",
					"type": "uint256"
				}
			],
			"stateMutability": "view",
			"type": "function"
		},
		{
			"inputs": [
				{
					"internalType": "address",
					"name": "owner",
					"type": "address"
				},
				{
					"internalType": "uint256",
					"name": "index",
					"type": "uint256"
				}
			],
			"name": "balanceOfId",
			"outputs": [
				{
					"internalType": "uint256",
					"name": "",
					"type": "uint256"
				}
			],
			"stateMutability": "view",
			"type": "function"
		},
		{
			"inputs": [],
			"name": "baseURI",
			"outputs": [
				{
					"internalType": "string",
					"name": "",
					"type": "string"
				}
			],
			"stateMutability": "view",
			"type": "function"
		},
		{
			"inputs": [
				{
					"internalType": "uint256",
					"name": "tokenId",
					"type": "uint256"
				}
			],
			"name": "exists",
			"outputs": [
				{
					"internalType": "bool",
					"name": "result",
					"type": "bool"
				}
			],
			"stateMutability": "view",
			"type": "function"
		},
		{
			"inputs": [],
			"name": "fee",
			"outputs": [
				{
					"internalType": "uint256",
					"name": "",
					"type": "uint256"
				}
			],
			"stateMutability": "view",
			"type": "function"
		},
		{
			"inputs": [
				{
					"internalType": "uint256",
					"name": "tokenId",
					"type": "uint256"
				}
			],
			"name": "getApproved",
			"outputs": [
				{
					"internalType": "address",
					"name": "",
					"type": "address"
				}
			],
			"stateMutability": "view",
			"type": "function"
		},
		{
			"inputs": [
				{
					"internalType": "string",
					"name": "name",
					"type": "string"
				},
				{
					"internalType": "string",
					"name": "symbol",
					"type": "string"
				}
			],
			"name": "init",
			"outputs": [],
			"stateMutability": "nonpayable",
			"type": "function"
		},
		{
			"inputs": [
				{
					"internalType": "address",
					"name": "owner",
					"type": "address"
				},
				{
					"internalType": "address",
					"name": "operator",
					"type": "address"
				}
			],
			"name": "isApprovedForAll",
			"outputs": [
				{
					"internalType": "bool",
					"name": "",
					"type": "bool"
				}
			],
			"stateMutability": "view",
			"type": "function"
		},
		{
			"inputs": [
				{
					"internalType": "address",
					"name": "to",
					"type": "address"
				},
				{
					"internalType": "bytes32[]",
					"name": "proof",
					"type": "bytes32[]"
				}
			],
			"name": "legendaryMint",
			"outputs": [],
			"stateMutability": "payable",
			"type": "function"
		},
		{
			"inputs": [],
			"name": "name",
			"outputs": [
				{
					"internalType": "string",
					"name": "",
					"type": "string"
				}
			],
			"stateMutability": "view",
			"type": "function"
		},
		{
			"inputs": [],
			"name": "nextTokenId",
			"outputs": [
				{
					"internalType": "uint256",
					"name": "",
					"type": "uint256"
				}
			],
			"stateMutability": "view",
			"type": "function"
		},
		{
			"inputs": [
				{
					"internalType": "address",
					"name": "operator",
					"type": "address"
				},
				{
					"internalType": "address",
					"name": "from",
					"type": "address"
				},
				{
					"internalType": "uint256",
					"name": "tokenId",
					"type": "uint256"
				},
				{
					"internalType": "bytes",
					"name": "data",
					"type": "bytes"
				}
			],
			"name": "onERC721Received",
			"outputs": [
				{
					"internalType": "bytes4",
					"name": "",
					"type": "bytes4"
				}
			],
			"stateMutability": "nonpayable",
			"type": "function"
		},
		{
			"inputs": [
				{
					"internalType": "uint256",
					"name": "tokenId",
					"type": "uint256"
				}
			],
			"name": "ownerOf",
			"outputs": [
				{
					"internalType": "address",
					"name": "",
					"type": "address"
				}
			],
			"stateMutability": "view",
			"type": "function"
		},
		{
			"inputs": [
				{
					"internalType": "address",
					"name": "from",
					"type": "address"
				},
				{
					"internalType": "address",
					"name": "to",
					"type": "address"
				},
				{
					"internalType": "uint256",
					"name": "tokenId",
					"type": "uint256"
				}
			],
			"name": "safeTransferFrom",
			"outputs": [],
			"stateMutability": "payable",
			"type": "function"
		},
		{
			"inputs": [
				{
					"internalType": "address",
					"name": "from",
					"type": "address"
				},
				{
					"internalType": "address",
					"name": "to",
					"type": "address"
				},
				{
					"internalType": "uint256",
					"name": "tokenId",
					"type": "uint256"
				},
				{
					"internalType": "bytes",
					"name": "_data",
					"type": "bytes"
				}
			],
			"name": "safeTransferFrom",
			"outputs": [],
			"stateMutability": "payable",
			"type": "function"
		},
		{
			"inputs": [
				{
					"internalType": "address",
					"name": "operator",
					"type": "address"
				},
				{
					"internalType": "bool",
					"name": "approved",
					"type": "bool"
				}
			],
			"name": "setApprovalForAll",
			"outputs": [],
			"stateMutability": "nonpayable",
			"type": "function"
		},
		{
			"inputs": [
				{
					"internalType": "string",
					"name": "URI",
					"type": "string"
				}
			],
			"name": "setBaseURI",
			"outputs": [],
			"stateMutability": "nonpayable",
			"type": "function"
		},
		{
			"inputs": [
				{
					"internalType": "string",
					"name": "URI",
					"type": "string"
				}
			],
			"name": "setDefaultTokenURI",
			"outputs": [],
			"stateMutability": "nonpayable",
			"type": "function"
		},
		{
			"inputs": [
				{
					"internalType": "bytes32",
					"name": "merkleroot",
					"type": "bytes32"
				}
			],
			"name": "setEpiclistRoot",
			"outputs": [],
			"stateMutability": "nonpayable",
			"type": "function"
		},
		{
			"inputs": [
				{
					"internalType": "uint256",
					"name": "_fee",
					"type": "uint256"
				}
			],
			"name": "setFee",
			"outputs": [],
			"stateMutability": "nonpayable",
			"type": "function"
		},
		{
			"inputs": [
				{
					"internalType": "bytes32",
					"name": "merkleroot",
					"type": "bytes32"
				}
			],
			"name": "setGenesislistRoot",
			"outputs": [],
			"stateMutability": "nonpayable",
			"type": "function"
		},
		{
			"inputs": [
				{
					"internalType": "bytes32",
					"name": "merkleroot",
					"type": "bytes32"
				}
			],
			"name": "setLegendlistRoot",
			"outputs": [],
			"stateMutability": "nonpayable",
			"type": "function"
		},
		{
			"inputs": [
				{
					"internalType": "uint256",
					"name": "tokenId",
					"type": "uint256"
				},
				{
					"internalType": "string",
					"name": "URI",
					"type": "string"
				}
			],
			"name": "setTokenURI",
			"outputs": [],
			"stateMutability": "nonpayable",
			"type": "function"
		},
		{
			"inputs": [
				{
					"internalType": "bytes4",
					"name": "interfaceId",
					"type": "bytes4"
				}
			],
			"name": "supportsInterface",
			"outputs": [
				{
					"internalType": "bool",
					"name": "",
					"type": "bool"
				}
			],
			"stateMutability": "view",
			"type": "function"
		},
		{
			"inputs": [],
			"name": "symbol",
			"outputs": [
				{
					"internalType": "string",
					"name": "",
					"type": "string"
				}
			],
			"stateMutability": "view",
			"type": "function"
		},
		{
			"inputs": [
				{
					"internalType": "uint256",
					"name": "tokenId",
					"type": "uint256"
				}
			],
			"name": "tokenURI",
			"outputs": [
				{
					"internalType": "string",
					"name": "",
					"type": "string"
				}
			],
			"stateMutability": "view",
			"type": "function"
		},
		{
			"inputs": [],
			"name": "totalSupply",
			"outputs": [
				{
					"internalType": "uint256",
					"name": "result",
					"type": "uint256"
				}
			],
			"stateMutability": "view",
			"type": "function"
		},
		{
			"inputs": [
				{
					"internalType": "address",
					"name": "from",
					"type": "address"
				},
				{
					"internalType": "address",
					"name": "to",
					"type": "address"
				},
				{
					"internalType": "uint256",
					"name": "tokenId",
					"type": "uint256"
				}
			],
			"name": "transferFrom",
			"outputs": [],
			"stateMutability": "payable",
			"type": "function"
		},
		{
			"inputs": [],
			"name": "withdraw",
			"outputs": [],
			"stateMutability": "nonpayable",
			"type": "function"
		}
	]
}