{
	"data": {
		"bytecode": {
			"linkReferences": {
				"contracts/storage/LibOwnableStorage.sol": {
					"OwnableStorage": [
						{
							"length": 20,
							"start": 609
						},
						{
							"length": 20,
							"start": 743
						},
						{
							"length": 20,
							"start": 855
						},
						{
							"length": 20,
							"start": 5821
						},
						{
							"length": 20,
							"start": 6541
						},
						{
							"length": 20,
							"start": 6767
						},
						{
							"length": 20,
							"start": 8178
						},
						{
							"length": 20,
							"start": 8649
						},
						{
							"length": 20,
							"start": 8994
						},
						{
							"length": 20,
							"start": 9436
						},
						{
							"length": 20,
							"start": 10206
						},
						{
							"length": 20,
							"start": 11182
						}
					]
				},
				"contracts/storage/LibSMElegendaryStorage.sol": {
					"SMElegendaryStorage": [
						{
							"length": 20,
							"start": 77
						},
						{
							"length": 20,
							"start": 176
						},
						{
							"length": 20,
							"start": 275
						},
						{
							"length": 20,
							"start": 960
						},
						{
							"length": 20,
							"start": 1057
						},
						{
							"length": 20,
							"start": 1154
						},
						{
							"length": 20,
							"start": 1285
						},
						{
							"length": 20,
							"start": 1385
						},
						{
							"length": 20,
							"start": 1484
						},
						{
							"length": 20,
							"start": 1583
						},
						{
							"length": 20,
							"start": 1684
						},
						{
							"length": 20,
							"start": 5476
						},
						{
							"length": 20,
							"start": 5622
						},
						{
							"length": 20,
							"start": 6105
						},
						{
							"length": 20,
							"start": 6212
						},
						{
							"length": 20,
							"start": 6369
						},
						{
							"length": 20,
							"start": 7337
						},
						{
							"length": 20,
							"start": 7521
						},
						{
							"length": 20,
							"start": 7804
						},
						{
							"length": 20,
							"start": 7990
						},
						{
							"length": 20,
							"start": 8371
						},
						{
							"length": 20,
							"start": 8474
						},
						{
							"length": 20,
							"start": 8842
						},
						{
							"length": 20,
							"start": 9187
						},
						{
							"length": 20,
							"start": 9291
						},
						{
							"length": 20,
							"start": 9721
						},
						{
							"length": 20,
							"start": 9848
						},
						{
							"length": 20,
							"start": 10004
						},
						{
							"length": 20,
							"start": 10399
						},
						{
							"length": 20,
							"start": 10504
						},
						{
							"length": 20,
							"start": 10816
						},
						{
							"length": 20,
							"start": 11040
						},
						{
							"length": 20,
							"start": 11375
						},
						{
							"length": 20,
							"start": 11478
						},
						{
							"length": 20,
							"start": 11639
						},
						{
							"length": 20,
							"start": 11769
						},
						{
							"length": 20,
							"start": 11886
						},
						{
							"length": 20,
							"start": 12202
						},
						{
							"length": 20,
							"start": 12407
						},
						{
							"length": 20,
							"start": 12830
						},
						{
							"length": 20,
							"start": 12931
						},
						{
							"length": 20,
							"start": 13030
						},
						{
							"length": 20,
							"start": 13129
						},
						{
							"length": 20,
							"start": 13326
						},
						{
							"length": 20,
							"start": 13449
						},
						{
							"length": 20,
							"start": 13562
						},
						{
							"length": 20,
							"start": 14148
						},
						{
							"length": 20,
							"start": 14404
						},
						{
							"length": 20,
							"start": 14585
						},
						{
							"length": 20,
							"start": 14757
						},
						{
							"length": 20,
							"start": 14888
						},
						{
							"length": 20,
							"start": 15146
						},
						{
							"length": 20,
							"start": 15243
						},
						{
							"length": 20,
							"start": 15340
						},
						{
							"length": 20,
							"start": 15471
						},
						{
							"length": 20,
							"start": 15571
						},
						{
							"length": 20,
							"start": 15670
						},
						{
							"length": 20,
							"start": 15769
						},
						{
							"length": 20,
							"start": 15870
						},
						{
							"length": 20,
							"start": 16492
						},
						{
							"length": 20,
							"start": 16782
						},
						{
							"length": 20,
							"start": 16884
						},
						{
							"length": 20,
							"start": 16999
						},
						{
							"length": 20,
							"start": 17101
						},
						{
							"length": 20,
							"start": 17350
						},
						{
							"length": 20,
							"start": 17513
						},
						{
							"length": 20,
							"start": 17969
						},
						{
							"length": 20,
							"start": 18114
						},
						{
							"length": 20,
							"start": 18244
						},
						{
							"length": 20,
							"start": 18282
						},
						{
							"length": 20,
							"start": 18644
						}
					]
				}
			},
			"object": "60a060405261001660015f5f6101e860201b60201c565b608090815250348015610027575f5ffd5b506040516161a73803806161a78339818101604052810190610049919061084f565b818173__$eabcc97f142f9a0ca4e3cab5476d105c2d$__635b43bc99836040518263ffffffff1660e01b81526004016100829190610917565b5f6040518083038186803b158015610098575f5ffd5b505af41580156100aa573d5f5f3e3d5ffd5b5050505073__$eabcc97f142f9a0ca4e3cab5476d105c2d$__6341bb0559826040518263ffffffff1660e01b81526004016100e59190610917565b5f6040518083038186803b1580156100fb575f5ffd5b505af415801561010d573d5f5f3e3d5ffd5b5050505073__$eabcc97f142f9a0ca4e3cab5476d105c2d$__63345e7b2861013961021160201b60201c565b6040518263ffffffff1660e01b8152600401610155919061094f565b5f6040518083038186803b15801561016b575f5ffd5b505af415801561017d573d5f5f3e3d5ffd5b5050505061018f61021160201b60201c565b61019d61021960201b60201c565b10156101ba576101b963fed8210f60e01b61024060201b60201c565b5b505060015f819055506101d161024860201b60201c565b6101e182826103be60201b60201c565b5050610cbc565b5f8163ffffffff1660208463ffffffff16901b60408663ffffffff16901b171790509392505050565b5f6001905090565b5f7fffffffffffffffffffffffffffffffffffffffffffffffffffffffffffffffff905090565b805f5260045ffd5b5f73ffffffffffffffffffffffffffffffffffffffff1673__$ea2bfd386ba84ea2bcf9bcd47bb5c25cd7$__63893d20e86040518163ffffffff1660e01b8152600401602060405180830381865af41580156102a6573d5f5f3e3d5ffd5b505050506040513d601f19601f820116820180604052508101906102ca91906109c2565b73ffffffffffffffffffffffffffffffffffffffff16036103bc5773__$ea2bfd386ba84ea2bcf9bcd47bb5c25cd7$__63592bd70561030d6106fb60201b60201c565b6040518263ffffffff1660e01b815260040161032991906109fc565b5f6040518083038186803b15801561033f575f5ffd5b505af4158015610351573d5f5f3e3d5ffd5b5050505073__$ea2bfd386ba84ea2bcf9bcd47bb5c25cd7$__63f2f6596062093a806040518263ffffffff1660e01b815260040161038f9190610a57565b5f6040518083038186803b1580156103a5575f5ffd5b505af41580156103b7573d5f5f3e3d5ffd5b505050505b565b73__$eabcc97f142f9a0ca4e3cab5476d105c2d$__63a05cc5596040518163ffffffff1660e01b81526004016103f390610ae0565b5f6040518083038186803b158015610409575f5ffd5b505af415801561041b573d5f5f3e3d5ffd5b5050505073__$eabcc97f142f9a0ca4e3cab5476d105c2d$__63821abc2d6040518163ffffffff1660e01b815260040161045490610b94565b5f6040518083038186803b15801561046a575f5ffd5b505af415801561047c573d5f5f3e3d5ffd5b5050505073__$eabcc97f142f9a0ca4e3cab5476d105c2d$__63854f9db97f5df84626bc45c33115b89a190996d30024345c231b20f226b126a006264fd61f6040518263ffffffff1660e01b81526004016104d79190610bff565b5f6040518083038186803b1580156104ed575f5ffd5b505af41580156104ff573d5f5f3e3d5ffd5b5050505073__$eabcc97f142f9a0ca4e3cab5476d105c2d$__6339b37ab060916040518263ffffffff1660e01b815260040161053b9190610c51565b5f6040518083038186803b158015610551575f5ffd5b505af4158015610563573d5f5f3e3d5ffd5b5050505073__$eabcc97f142f9a0ca4e3cab5476d105c2d$__635b43bc99836040518263ffffffff1660e01b815260040161059e9190610917565b5f6040518083038186803b1580156105b4575f5ffd5b505af41580156105c6573d5f5f3e3d5ffd5b5050505073__$eabcc97f142f9a0ca4e3cab5476d105c2d$__6341bb0559826040518263ffffffff1660e01b81526004016106019190610917565b5f6040518083038186803b158015610617575f5ffd5b505af4158015610629573d5f5f3e3d5ffd5b5050505073__$eabcc97f142f9a0ca4e3cab5476d105c2d$__63345e7b286104b06040518263ffffffff1660e01b81526004016106669190610ca3565b5f6040518083038186803b15801561067c575f5ffd5b505af415801561068e573d5f5f3e3d5ffd5b5050505073__$eabcc97f142f9a0ca4e3cab5476d105c2d$__6332b07b436104b06040518263ffffffff1660e01b81526004016106cb9190610ca3565b5f6040518083038186803b1580156106e1575f5ffd5b505af41580156106f3573d5f5f3e3d5ffd5b505050505050565b5f33905090565b5f604051905090565b5f5ffd5b5f5ffd5b5f5ffd5b5f5ffd5b5f601f19601f8301169050919050565b7f4e487b71000000000000000000000000000000000000000000000000000000005f52604160045260245ffd5b6107618261071b565b810181811067ffffffffffffffff821117156107805761077f61072b565b5b80604052505050565b5f610792610702565b905061079e8282610758565b919050565b5f67ffffffffffffffff8211156107bd576107bc61072b565b5b6107c68261071b565b9050602081019050919050565b8281835e5f83830152505050565b5f6107f36107ee846107a3565b610789565b90508281526020810184848401111561080f5761080e610717565b5b61081a8482856107d3565b509392505050565b5f82601f83011261083657610835610713565b5b81516108468482602086016107e1565b91505092915050565b5f5f604083850312156108655761086461070b565b5b5f83015167ffffffffffffffff8111156108825761088161070f565b5b61088e85828601610822565b925050602083015167ffffffffffffffff8111156108af576108ae61070f565b5b6108bb85828601610822565b9150509250929050565b5f81519050919050565b5f82825260208201905092915050565b5f6108e9826108c5565b6108f381856108cf565b93506109038185602086016107d3565b61090c8161071b565b840191505092915050565b5f6020820190508181035f83015261092f81846108df565b905092915050565b5f819050919050565b61094981610937565b82525050565b5f6020820190506109625f830184610940565b92915050565b5f73ffffffffffffffffffffffffffffffffffffffff82169050919050565b5f61099182610968565b9050919050565b6109a181610987565b81146109ab575f5ffd5b50565b5f815190506109bc81610998565b92915050565b5f602082840312156109d7576109d661070b565b5b5f6109e4848285016109ae565b91505092915050565b6109f681610987565b82525050565b5f602082019050610a0f5f8301846109ed565b92915050565b5f819050919050565b5f819050919050565b5f610a41610a3c610a3784610a15565b610a1e565b610937565b9050919050565b610a5181610a27565b82525050565b5f602082019050610a6a5f830184610a48565b92915050565b7f68747470733a2f2f697066732e737765622e72752f69706e732f736f756c6d615f8201527f74652e706172746e6572732f4c6567656e646172792f6a736f6e2f0000000000602082015250565b5f610aca603b836108cf565b9150610ad582610a70565b604082019050919050565b5f6020820190508181035f830152610af781610abe565b9050919050565b7f68747470733a2f2f697066732e737765622e72752f69706e732f736f756c6d615f8201527f74652e706172746e6572732f4c6567656e646172792f6a736f6e2f313230302e60208201527f6a736f6e00000000000000000000000000000000000000000000000000000000604082015250565b5f610b7e6044836108cf565b9150610b8982610afe565b606082019050919050565b5f6020820190508181035f830152610bab81610b72565b9050919050565b5f819050919050565b5f819050919050565b5f815f1b9050919050565b5f610be9610be4610bdf84610bb2565b610bc4565b610bbb565b9050919050565b610bf981610bcf565b82525050565b5f602082019050610c125f830184610bf0565b92915050565b5f819050919050565b5f610c3b610c36610c3184610c18565b610a1e565b610937565b9050919050565b610c4b81610c21565b82525050565b5f602082019050610c645f830184610c42565b92915050565b5f819050919050565b5f610c8d610c88610c8384610c6a565b610a1e565b610937565b9050919050565b610c9d81610c73565b82525050565b5f602082019050610cb65f830184610c94565b92915050565b6080516154d3610cd45f395f611a1401526154d35ff3fe608060405260043610610203575f3560e01c80636352211e116101175780639b865b431161009f578063b88d4fde1161006e578063b88d4fde14610715578063c87b56dd14610731578063ddca3f431461076d578063dfbf2e6714610797578063e985e9c5146107bf57610203565b80639b865b4314610671578063a125c8241461069b578063a22cb465146106c3578063ad5b1662146106eb57610203565b806370a08231116100e657806370a082311461058d57806375794a3c146105c957806381ed9808146105f357806390507c781461061d57806395d89b411461064757610203565b80636352211e146104d757806369fe0e2d146105135780636c0360eb1461053b5780637029144c1461056557610203565b806323b872dd1161019a57806346bc0dca1161016957806346bc0dca146103f357806349e0f9801461040f5780634bca8aa3146104375780634f558e791461047357806355f804b3146104af57610203565b806323b872dd1461037d5780633bb04b1f146103995780633ccfd60b146103c157806342842e0e146103d757610203565b80630c142a43116101d65780630c142a43146102c5578063150b7a02146102ef578063162094c41461032b57806318160ddd1461035357610203565b806301ffc9a71461020757806306fdde0314610243578063081812fc1461026d578063095ea7b3146102a9575b5f5ffd5b348015610212575f5ffd5b5061022d60048036038101906102289190613e4f565b6107fb565b60405161023a9190613e94565b60405180910390f35b34801561024e575f5ffd5b5061025761088c565b6040516102649190613f1d565b60405180910390f35b348015610278575f5ffd5b50610293600480360381019061028e9190613f70565b610901565b6040516102a09190613fda565b60405180910390f35b6102c360048036038101906102be919061401d565b6109a0565b005b3480156102d0575f5ffd5b506102d96109b0565b6040516102e6919061406a565b60405180910390f35b3480156102fa575f5ffd5b50610315600480360381019061031091906141af565b6109b6565b604051610322919061423e565b60405180910390f35b348015610336575f5ffd5b50610351600480360381019061034c91906142b4565b6109c9565b005b34801561035e575f5ffd5b50610367610afa565b604051610374919061406a565b60405180910390f35b61039760048036038101906103929190614311565b610c7e565b005b3480156103a4575f5ffd5b506103bf60048036038101906103ba9190614394565b610c99565b005b3480156103cc575f5ffd5b506103d5610d7b565b005b6103f160048036038101906103ec9190614311565b610f15565b005b61040d60048036038101906104089190614414565b610f34565b005b34801561041a575f5ffd5b5061043560048036038101906104309190614394565b6112fe565b005b348015610442575f5ffd5b5061045d6004803603810190610458919061401d565b611443565b60405161046a919061406a565b60405180910390f35b34801561047e575f5ffd5b5061049960048036038101906104949190613f70565b6114c4565b6040516104a69190613e94565b60405180910390f35b3480156104ba575f5ffd5b506104d560048036038101906104d09190614471565b6114d5565b005b3480156104e2575f5ffd5b506104fd60048036038101906104f89190613f70565b61161d565b60405161050a9190613fda565b60405180910390f35b34801561051e575f5ffd5b5061053960048036038101906105349190613f70565b61162e565b005b348015610546575f5ffd5b5061054f611773565b60405161055c9190613f1d565b60405180910390f35b348015610570575f5ffd5b5061058b6004803603810190610586919061455a565b6117e8565b005b348015610598575f5ffd5b506105b360048036038101906105ae91906145d0565b6118d5565b6040516105c0919061406a565b60405180910390f35b3480156105d4575f5ffd5b506105dd6119a1565b6040516105ea919061406a565b60405180910390f35b3480156105fe575f5ffd5b50610607611a12565b604051610614919061406a565b60405180910390f35b348015610628575f5ffd5b50610631611a36565b60405161063e919061406a565b60405180910390f35b348015610652575f5ffd5b5061065b611a3c565b6040516106689190613f1d565b60405180910390f35b34801561067c575f5ffd5b50610685611ab1565b6040516106929190613f1d565b60405180910390f35b3480156106a6575f5ffd5b506106c160048036038101906106bc9190614471565b611aea565b005b3480156106ce575f5ffd5b506106e960048036038101906106e49190614625565b611c32565b005b3480156106f6575f5ffd5b506106ff611d10565b60405161070c919061406a565b60405180910390f35b61072f600480360381019061072a91906141af565b611d16565b005b34801561073c575f5ffd5b5061075760048036038101906107529190613f70565b611d67565b6040516107649190613f1d565b60405180910390f35b348015610778575f5ffd5b50610781611e49565b60405161078e919061406a565b60405180910390f35b3480156107a2575f5ffd5b506107bd60048036038101906107b89190614394565b611eba565b005b3480156107ca575f5ffd5b506107e560048036038101906107e09190614663565b611fff565b6040516107f29190613e94565b60405180910390f35b5f6301ffc9a760e01b827bffffffffffffffffffffffffffffffffffffffffffffffffffffffff1916148061085557506380ac58cd60e01b827bffffffffffffffffffffffffffffffffffffffffffffffffffffffff1916145b806108855750635b5e139f60e01b827bffffffffffffffffffffffffffffffffffffffffffffffffffffffff1916145b9050919050565b606073__$eabcc97f142f9a0ca4e3cab5476d105c2d$__6306fdde036040518163ffffffff1660e01b81526004015f60405180830381865af41580156108d4573d5f5f3e3d5ffd5b505050506040513d5f823e3d601f19601f820116820180604052508101906108fc919061470f565b905090565b5f61090b82612080565b6109205761091f63cf4700e460e01b612254565b5b73__$eabcc97f142f9a0ca4e3cab5476d105c2d$__63a7cc0136836040518263ffffffff1660e01b81526004016109579190614765565b602060405180830381865af4158015610972573d5f5f3e3d5ffd5b505050506040513d601f19601f8201168201806040525081019061099691906147cf565b5f01519050919050565b6109ac8282600161225c565b5050565b6104b081565b5f63150b7a0260e01b9050949350505050565b6109d161239a565b73ffffffffffffffffffffffffffffffffffffffff1673__$ea2bfd386ba84ea2bcf9bcd47bb5c25cd7$__63893d20e86040518163ffffffff1660e01b8152600401602060405180830381865af4158015610a2e573d5f5f3e3d5ffd5b505050506040513d601f19601f82011682018060405250810190610a5291906147fa565b73ffffffffffffffffffffffffffffffffffffffff1614610aa8576040517f08c379a0000000000000000000000000000000000000000000000000000000008152600401610a9f9061486f565b60405180910390fd5b610af58383838080601f0160208091040260200160405190810160405280939291908181526020018383808284375f81840152601f19601f820116905080830192505050505050506123a1565b505050565b5f610b03612441565b73__$eabcc97f142f9a0ca4e3cab5476d105c2d$__6344faf2556040518163ffffffff1660e01b8152600401602060405180830381865af4158015610b4a573d5f5f3e3d5ffd5b505050506040513d601f19601f82011682018060405250810190610b6e91906148a1565b73__$eabcc97f142f9a0ca4e3cab5476d105c2d$__639451c99a6040518163ffffffff1660e01b8152600401602060405180830381865af4158015610bb5573d5f5f3e3d5ffd5b505050506040513d601f19601f82011682018060405250810190610bd991906148a1565b030390507fffffffffffffffffffffffffffffffffffffffffffffffffffffffffffffffff610c06612449565b14610c7b5773__$eabcc97f142f9a0ca4e3cab5476d105c2d$__63d20b6ee76040518163ffffffff1660e01b8152600401602060405180830381865af4158015610c52573d5f5f3e3d5ffd5b505050506040513d601f19601f82011682018060405250810190610c7691906148a1565b810190505b90565b610c89838383612470565b610c94838383612912565b505050565b610ca161239a565b73ffffffffffffffffffffffffffffffffffffffff1673__$ea2bfd386ba84ea2bcf9bcd47bb5c25cd7$__63893d20e86040518163ffffffff1660e01b8152600401602060405180830381865af4158015610cfe573d5f5f3e3d5ffd5b505050506040513d601f19601f82011682018060405250810190610d2291906147fa565b73ffffffffffffffffffffffffffffffffffffffff1614610d78576040517f08c379a0000000000000000000000000000000000000000000000000000000008152600401610d6f9061486f565b60405180910390fd5b50565b610d8361239a565b73ffffffffffffffffffffffffffffffffffffffff1673__$ea2bfd386ba84ea2bcf9bcd47bb5c25cd7$__63893d20e86040518163ffffffff1660e01b8152600401602060405180830381865af4158015610de0573d5f5f3e3d5ffd5b505050506040513d601f19601f82011682018060405250810190610e0491906147fa565b73ffffffffffffffffffffffffffffffffffffffff1614610e5a576040517f08c379a0000000000000000000000000000000000000000000000000000000008152600401610e519061486f565b60405180910390fd5b610e62612a17565b5f3373ffffffffffffffffffffffffffffffffffffffff1647604051610e87906148f9565b5f6040518083038185875af1925050503d805f8114610ec1576040519150601f19603f3d011682016040523d82523d5f602084013e610ec6565b606091505b5050905080610f0a576040517f08c379a0000000000000000000000000000000000000000000000000000000008152600401610f0190614957565b60405180910390fd5b50610f13612a64565b565b610f2f83838360405180602001604052805f815250611d16565b505050565b610f3c612a17565b5f610f45612a6d565b90506104b0811015610f8c576040517f08c379a0000000000000000000000000000000000000000000000000000000008152600401610f83906149bf565b60405180910390fd5b6113888110610fd0576040517f08c379a0000000000000000000000000000000000000000000000000000000008152600401610fc790614a27565b60405180910390fd5b5f151573__$eabcc97f142f9a0ca4e3cab5476d105c2d$__63b62d8b91866040518263ffffffff1660e01b815260040161100a9190614a54565b602060405180830381865af4158015611025573d5f5f3e3d5ffd5b505050506040513d601f19601f820116820180604052508101906110499190614a81565b15151461108b576040517f08c379a000000000000000000000000000000000000000000000000000000000815260040161108290614af6565b60405180910390fd5b73__$eabcc97f142f9a0ca4e3cab5476d105c2d$__63ddca3f436040518163ffffffff1660e01b8152600401602060405180830381865af41580156110d2573d5f5f3e3d5ffd5b505050506040513d601f19601f820116820180604052508101906110f691906148a1565b3414611137576040517f08c379a000000000000000000000000000000000000000000000000000000000815260040161112e90614b5e565b60405180910390fd5b5f846040516020016111499190614bc1565b6040516020818303038152906040528051906020012090505f6112178585808060200260200160405190810160405280939291908181526020018383602002808284375f81840152601f19601f8201169050808301925050505050505073__$eabcc97f142f9a0ca4e3cab5476d105c2d$__63f589b7546040518163ffffffff1660e01b8152600401602060405180830381865af41580156111ed573d5f5f3e3d5ffd5b505050506040513d601f19601f820116820180604052508101906112119190614bef565b84612ade565b90506001151581151514611260576040517f08c379a000000000000000000000000000000000000000000000000000000000815260040161125790614c64565b60405180910390fd5b73__$eabcc97f142f9a0ca4e3cab5476d105c2d$__63b0d4ce258760016040518363ffffffff1660e01b815260040161129a929190614c91565b5f6040518083038186803b1580156112b0575f5ffd5b505af41580156112c2573d5f5f3e3d5ffd5b505050506112d1866001612af4565b6112e3836112de85612b11565b6123a1565b6112ee5f8785612912565b5050506112f9612a64565b505050565b61130661239a565b73ffffffffffffffffffffffffffffffffffffffff1673__$ea2bfd386ba84ea2bcf9bcd47bb5c25cd7$__63893d20e86040518163ffffffff1660e01b8152600401602060405180830381865af4158015611363573d5f5f3e3d5ffd5b505050506040513d601f19601f8201168201806040525081019061138791906147fa565b73ffffffffffffffffffffffffffffffffffffffff16146113dd576040517f08c379a00000000000000000000000000000000000000000000000000000000081526004016113d49061486f565b60405180910390fd5b73__$eabcc97f142f9a0ca4e3cab5476d105c2d$__63247c6ce0826040518263ffffffff1660e01b81526004016114149190614cc7565b5f6040518083038186803b15801561142a575f5ffd5b505af415801561143c573d5f5f3e3d5ffd5b5050505050565b5f73__$eabcc97f142f9a0ca4e3cab5476d105c2d$__63e149f03684846040518363ffffffff1660e01b815260040161147d929190614ce0565b602060405180830381865af4158015611498573d5f5f3e3d5ffd5b505050506040513d601f19601f820116820180604052508101906114bc91906148a1565b905092915050565b5f6114ce82612080565b9050919050565b6114dd61239a565b73ffffffffffffffffffffffffffffffffffffffff1673__$ea2bfd386ba84ea2bcf9bcd47bb5c25cd7$__63893d20e86040518163ffffffff1660e01b8152600401602060405180830381865af415801561153a573d5f5f3e3d5ffd5b505050506040513d601f19601f8201168201806040525081019061155e91906147fa565b73ffffffffffffffffffffffffffffffffffffffff16146115b4576040517f08c379a00000000000000000000000000000000000000000000000000000000081526004016115ab9061486f565b60405180910390fd5b73__$eabcc97f142f9a0ca4e3cab5476d105c2d$__63a05cc55983836040518363ffffffff1660e01b81526004016115ed929190614d43565b5f6040518083038186803b158015611603575f5ffd5b505af4158015611615573d5f5f3e3d5ffd5b505050505050565b5f61162782612c14565b9050919050565b61163661239a565b73ffffffffffffffffffffffffffffffffffffffff1673__$ea2bfd386ba84ea2bcf9bcd47bb5c25cd7$__63893d20e86040518163ffffffff1660e01b8152600401602060405180830381865af4158015611693573d5f5f3e3d5ffd5b505050506040513d601f19601f820116820180604052508101906116b791906147fa565b73ffffffffffffffffffffffffffffffffffffffff161461170d576040517f08c379a00000000000000000000000000000000000000000000000000000000081526004016117049061486f565b60405180910390fd5b73__$eabcc97f142f9a0ca4e3cab5476d105c2d$__6339b37ab0826040518263ffffffff1660e01b81526004016117449190614765565b5f6040518083038186803b15801561175a575f5ffd5b505af415801561176c573d5f5f3e3d5ffd5b5050505050565b606073__$eabcc97f142f9a0ca4e3cab5476d105c2d$__63d547cfb76040518163ffffffff1660e01b81526004015f60405180830381865af41580156117bb573d5f5f3e3d5ffd5b505050506040513d5f823e3d601f19601f820116820180604052508101906117e3919061470f565b905090565b6117f061239a565b73ffffffffffffffffffffffffffffffffffffffff1673__$ea2bfd386ba84ea2bcf9bcd47bb5c25cd7$__63893d20e86040518163ffffffff1660e01b8152600401602060405180830381865af415801561184d573d5f5f3e3d5ffd5b505050506040513d601f19601f8201168201806040525081019061187191906147fa565b73ffffffffffffffffffffffffffffffffffffffff16146118c7576040517f08c379a00000000000000000000000000000000000000000000000000000000081526004016118be9061486f565b60405180910390fd5b6118d18282612e54565b5050565b5f5f73ffffffffffffffffffffffffffffffffffffffff168273ffffffffffffffffffffffffffffffffffffffff160361191a57611919638f4eb60460e01b612254565b5b67ffffffffffffffff73__$eabcc97f142f9a0ca4e3cab5476d105c2d$__6321b0ed7d846040518263ffffffff1660e01b815260040161195a9190614a54565b602060405180830381865af4158015611975573d5f5f3e3d5ffd5b505050506040513d601f19601f8201168201806040525081019061199991906148a1565b169050919050565b5f73__$eabcc97f142f9a0ca4e3cab5476d105c2d$__639451c99a6040518163ffffffff1660e01b8152600401602060405180830381865af41580156119e9573d5f5f3e3d5ffd5b505050506040513d601f19601f82011682018060405250810190611a0d91906148a1565b905090565b7f000000000000000000000000000000000000000000000000000000000000000081565b6161a881565b606073__$eabcc97f142f9a0ca4e3cab5476d105c2d$__6395d89b416040518163ffffffff1660e01b81526004015f60405180830381865af4158015611a84573d5f5f3e3d5ffd5b505050506040513d5f823e3d601f19601f82011682018060405250810190611aac919061470f565b905090565b6040518060400160405280600c81526020017f534d454c6567656e64617279000000000000000000000000000000000000000081525081565b611af261239a565b73ffffffffffffffffffffffffffffffffffffffff1673__$ea2bfd386ba84ea2bcf9bcd47bb5c25cd7$__63893d20e86040518163ffffffff1660e01b8152600401602060405180830381865af4158015611b4f573d5f5f3e3d5ffd5b505050506040513d601f19601f82011682018060405250810190611b7391906147fa565b73ffffffffffffffffffffffffffffffffffffffff1614611bc9576040517f08c379a0000000000000000000000000000000000000000000000000000000008152600401611bc09061486f565b60405180910390fd5b73__$eabcc97f142f9a0ca4e3cab5476d105c2d$__63821abc2d83836040518363ffffffff1660e01b8152600401611c02929190614d43565b5f6040518083038186803b158015611c18575f5ffd5b505af4158015611c2a573d5f5f3e3d5ffd5b505050505050565b73__$eabcc97f142f9a0ca4e3cab5476d105c2d$__63830d4091611c54613191565b84846040518463ffffffff1660e01b8152600401611c7493929190614d65565b5f6040518083038186803b158015611c8a575f5ffd5b505af4158015611c9c573d5f5f3e3d5ffd5b505050508173ffffffffffffffffffffffffffffffffffffffff16611cbf613191565b73ffffffffffffffffffffffffffffffffffffffff167f17307eab39ab6107e8899845ad3d59bd9653f200f220920489ca2b5937696c3183604051611d049190613e94565b60405180910390a35050565b61138881565b611d21848484610c7e565b5f8373ffffffffffffffffffffffffffffffffffffffff163b14611d6157611d4b84848484613198565b611d6057611d5f63d1a57ed660e01b612254565b5b5b50505050565b60605f73__$eabcc97f142f9a0ca4e3cab5476d105c2d$__636c8b703f846040518263ffffffff1660e01b8152600401611da19190614765565b5f60405180830381865af4158015611dbb573d5f5f3e3d5ffd5b505050506040513d5f823e3d601f19601f82011682018060405250810190611de3919061470f565b90505f611dee6132c2565b90505f815103611e02578192505050611e44565b5f82511115611e36578082604051602001611e1e929190614dd4565b60405160208183030381529060405292505050611e44565b611e3f846132d8565b925050505b919050565b5f73__$eabcc97f142f9a0ca4e3cab5476d105c2d$__63ddca3f436040518163ffffffff1660e01b8152600401602060405180830381865af4158015611e91573d5f5f3e3d5ffd5b505050506040513d601f19601f82011682018060405250810190611eb591906148a1565b905090565b611ec261239a565b73ffffffffffffffffffffffffffffffffffffffff1673__$ea2bfd386ba84ea2bcf9bcd47bb5c25cd7$__63893d20e86040518163ffffffff1660e01b8152600401602060405180830381865af4158015611f1f573d5f5f3e3d5ffd5b505050506040513d601f19601f82011682018060405250810190611f4391906147fa565b73ffffffffffffffffffffffffffffffffffffffff1614611f99576040517f08c379a0000000000000000000000000000000000000000000000000000000008152600401611f909061486f565b60405180910390fd5b73__$eabcc97f142f9a0ca4e3cab5476d105c2d$__63854f9db9826040518263ffffffff1660e01b8152600401611fd09190614cc7565b5f6040518083038186803b158015611fe6575f5ffd5b505af4158015611ff8573d5f5f3e3d5ffd5b5050505050565b5f73__$eabcc97f142f9a0ca4e3cab5476d105c2d$__63edc3bc3f84846040518363ffffffff1660e01b8152600401612039929190614df7565b602060405180830381865af4158015612054573d5f5f3e3d5ffd5b505050506040513d601f19601f820116820180604052508101906120789190614a81565b905092915050565b5f8161208a612441565b1161224e57612097612449565b8211156121235761211c73__$eabcc97f142f9a0ca4e3cab5476d105c2d$__6347f69eba846040518263ffffffff1660e01b81526004016120d89190614765565b602060405180830381865af41580156120f3573d5f5f3e3d5ffd5b505050506040513d601f19601f8201168201806040525081019061211791906148a1565b613352565b905061224f565b73__$eabcc97f142f9a0ca4e3cab5476d105c2d$__639451c99a6040518163ffffffff1660e01b8152600401602060405180830381865af415801561216a573d5f5f3e3d5ffd5b505050506040513d601f19601f8201168201806040525081019061218e91906148a1565b82101561224d575f5b5f73__$eabcc97f142f9a0ca4e3cab5476d105c2d$__6347f69eba856040518263ffffffff1660e01b81526004016121cf9190614765565b602060405180830381865af41580156121ea573d5f5f3e3d5ffd5b505050506040513d601f19601f8201168201806040525081019061220e91906148a1565b91508103612227578261222090614e4b565b9250612197565b5f7c01000000000000000000000000000000000000000000000000000000008216149150505b5b5b919050565b805f5260045ffd5b5f6122668361161d565b90508180156122a857508073ffffffffffffffffffffffffffffffffffffffff1661228f613191565b73ffffffffffffffffffffffffffffffffffffffff1614155b156122d4576122be816122b9613191565b611fff565b6122d3576122d263cfb3b94260e01b612254565b5b5b73__$eabcc97f142f9a0ca4e3cab5476d105c2d$__6313c19ff684866040518363ffffffff1660e01b815260040161230d929190614e72565b5f6040518083038186803b158015612323575f5ffd5b505af4158015612335573d5f5f3e3d5ffd5b50505050828473ffffffffffffffffffffffffffffffffffffffff168273ffffffffffffffffffffffffffffffffffffffff167f8c5be1e5ebec7d5bd14f71427d1e84f3dd0314c0f7b2291e5b200ac8c7c3b92560405160405180910390a450505050565b5f33905090565b73__$eabcc97f142f9a0ca4e3cab5476d105c2d$__63dec84db182846040518363ffffffff1660e01b81526004016123da929190614ed1565b5f6040518083038186803b1580156123f0575f5ffd5b505af4158015612402573d5f5f3e3d5ffd5b505050507ff8e1a15aba9398e019f0b49df1a4fde98ee17ae345cb5f6b5e2c27f5033e8ce782604051612435919061406a565b60405180910390a15050565b5f6001905090565b5f7fffffffffffffffffffffffffffffffffffffffffffffffffffffffffffffffff905090565b5f61247a82612c14565b905073ffffffffffffffffffffffffffffffffffffffff8473ffffffffffffffffffffffffffffffffffffffff161693508373ffffffffffffffffffffffffffffffffffffffff168173ffffffffffffffffffffffffffffffffffffffff16146124ef576124ee63a114810060e01b612254565b5b5f5f6124fa84613392565b91509150612510818761250b613191565b613418565b61253b5761252586612520613191565b611fff565b61253a576125396359c896be60e01b612254565b5b5b612548868686600161345b565b73__$eabcc97f142f9a0ca4e3cab5476d105c2d$__6313c19ff6855f6040518363ffffffff1660e01b8152600401612581929190614e72565b5f6040518083038186803b158015612597575f5ffd5b505af41580156125a9573d5f5f3e3d5ffd5b5050505073__$eabcc97f142f9a0ca4e3cab5476d105c2d$__6331413efc876040518263ffffffff1660e01b81526004016125e49190614a54565b5f6040518083038186803b1580156125fa575f5ffd5b505af415801561260c573d5f5f3e3d5ffd5b5050505073__$eabcc97f142f9a0ca4e3cab5476d105c2d$__63d0125152866040518263ffffffff1660e01b81526004016126479190614a54565b5f6040518083038186803b15801561265d575f5ffd5b505af415801561266f573d5f5f3e3d5ffd5b5050505073__$eabcc97f142f9a0ca4e3cab5476d105c2d$__63e68fdee1856126c18861269d8b8b8a613461565b7c020000000000000000000000000000000000000000000000000000000017613488565b6040518363ffffffff1660e01b81526004016126de929190614eff565b5f6040518083038186803b1580156126f4575f5ffd5b505af4158015612706573d5f5f3e3d5ffd5b505050505f7c020000000000000000000000000000000000000000000000000000000084160361288d575f6001850190505f73__$eabcc97f142f9a0ca4e3cab5476d105c2d$__6347f69eba836040518263ffffffff1660e01b815260040161276f9190614765565b602060405180830381865af415801561278a573d5f5f3e3d5ffd5b505050506040513d601f19601f820116820180604052508101906127ae91906148a1565b0361288b5773__$eabcc97f142f9a0ca4e3cab5476d105c2d$__639451c99a6040518163ffffffff1660e01b8152600401602060405180830381865af41580156127fa573d5f5f3e3d5ffd5b505050506040513d601f19601f8201168201806040525081019061281e91906148a1565b811461288a5773__$eabcc97f142f9a0ca4e3cab5476d105c2d$__63e68fdee182866040518363ffffffff1660e01b815260040161285d929190614eff565b5f6040518083038186803b158015612873575f5ffd5b505af4158015612885573d5f5f3e3d5ffd5b505050505b5b505b5f73ffffffffffffffffffffffffffffffffffffffff8673ffffffffffffffffffffffffffffffffffffffff161690508481887fddf252ad1be2c89b69c2b068fc378daa952ba7f163c4a11628f55a4df523b3ef5f5fa45f81036128fc576128fb63ea553b3460e01b612254565b5b61290987878760016134b2565b50505050505050565b5f73ffffffffffffffffffffffffffffffffffffffff168373ffffffffffffffffffffffffffffffffffffffff16036129535761294e816134b8565b612992565b8173ffffffffffffffffffffffffffffffffffffffff168373ffffffffffffffffffffffffffffffffffffffff161461299157612990838261351e565b5b5b5f73ffffffffffffffffffffffffffffffffffffffff168273ffffffffffffffffffffffffffffffffffffffff16036129d3576129ce81613591565b612a12565b8173ffffffffffffffffffffffffffffffffffffffff168373ffffffffffffffffffffffffffffffffffffffff1614612a1157612a1082826135f7565b5b5b505050565b60025f5403612a5b576040517f08c379a0000000000000000000000000000000000000000000000000000000008152600401612a5290614f70565b60405180910390fd5b60025f81905550565b60015f81905550565b5f73__$eabcc97f142f9a0ca4e3cab5476d105c2d$__639451c99a6040518163ffffffff1660e01b8152600401602060405180830381865af4158015612ab5573d5f5f3e3d5ffd5b505050506040513d601f19601f82011682018060405250810190612ad991906148a1565b905090565b5f82612aea8584613676565b1490509392505050565b612b0d828260405180602001604052805f8152506136c7565b5050565b6060612b1c82612080565b612b5b576040517f08c379a0000000000000000000000000000000000000000000000000000000008152600401612b5290614ffe565b60405180910390fd5b5f612b64611773565b90505f815111612be15773__$eabcc97f142f9a0ca4e3cab5476d105c2d$__63963bfe126040518163ffffffff1660e01b81526004015f60405180830381865af4158015612bb4573d5f5f3e3d5ffd5b505050506040513d5f823e3d601f19601f82011682018060405250810190612bdc919061470f565b612c0c565b80612beb8461380f565b604051602001612bfc929190615066565b6040516020818303038152906040525b915050919050565b5f81612c1e612441565b11612e3e5773__$eabcc97f142f9a0ca4e3cab5476d105c2d$__6347f69eba836040518263ffffffff1660e01b8152600401612c5a9190614765565b602060405180830381865af4158015612c75573d5f5f3e3d5ffd5b505050506040513d601f19601f82011682018060405250810190612c9991906148a1565b9050612ca3612449565b821115612cc857612cb381613352565b612e4f57612cc763df2d9b4260e01b612254565b5b5f8103612e165773__$eabcc97f142f9a0ca4e3cab5476d105c2d$__639451c99a6040518163ffffffff1660e01b8152600401602060405180830381865af4158015612d16573d5f5f3e3d5ffd5b505050506040513d601f19601f82011682018060405250810190612d3a91906148a1565b8210612d5157612d5063df2d9b4260e01b612254565b5b5b73__$eabcc97f142f9a0ca4e3cab5476d105c2d$__6347f69eba83600190039350836040518263ffffffff1660e01b8152600401612d909190614765565b602060405180830381865af4158015612dab573d5f5f3e3d5ffd5b505050506040513d601f19601f82011682018060405250810190612dcf91906148a1565b90505f810315612e11575f7c010000000000000000000000000000000000000000000000000000000082160315612e4f57612e1063df2d9b4260e01b612254565b5b612d52565b5f7c010000000000000000000000000000000000000000000000000000000082160315612e4f575b612e4e63df2d9b4260e01b612254565b5b919050565b73__$eabcc97f142f9a0ca4e3cab5476d105c2d$__63a05cc5596040518163ffffffff1660e01b8152600401612e8990615104565b5f6040518083038186803b158015612e9f575f5ffd5b505af4158015612eb1573d5f5f3e3d5ffd5b5050505073__$eabcc97f142f9a0ca4e3cab5476d105c2d$__63821abc2d6040518163ffffffff1660e01b8152600401612eea906151b8565b5f6040518083038186803b158015612f00575f5ffd5b505af4158015612f12573d5f5f3e3d5ffd5b5050505073__$eabcc97f142f9a0ca4e3cab5476d105c2d$__63854f9db97f5df84626bc45c33115b89a190996d30024345c231b20f226b126a006264fd61f6040518263ffffffff1660e01b8152600401612f6d919061521a565b5f6040518083038186803b158015612f83575f5ffd5b505af4158015612f95573d5f5f3e3d5ffd5b5050505073__$eabcc97f142f9a0ca4e3cab5476d105c2d$__6339b37ab060916040518263ffffffff1660e01b8152600401612fd19190615275565b5f6040518083038186803b158015612fe7575f5ffd5b505af4158015612ff9573d5f5f3e3d5ffd5b5050505073__$eabcc97f142f9a0ca4e3cab5476d105c2d$__635b43bc99836040518263ffffffff1660e01b8152600401613034919061528e565b5f6040518083038186803b15801561304a575f5ffd5b505af415801561305c573d5f5f3e3d5ffd5b5050505073__$eabcc97f142f9a0ca4e3cab5476d105c2d$__6341bb0559826040518263ffffffff1660e01b8152600401613097919061528e565b5f6040518083038186803b1580156130ad575f5ffd5b505af41580156130bf573d5f5f3e3d5ffd5b5050505073__$eabcc97f142f9a0ca4e3cab5476d105c2d$__63345e7b286104b06040518263ffffffff1660e01b81526004016130fc91906152e7565b5f6040518083038186803b158015613112575f5ffd5b505af4158015613124573d5f5f3e3d5ffd5b5050505073__$eabcc97f142f9a0ca4e3cab5476d105c2d$__6332b07b436104b06040518263ffffffff1660e01b815260040161316191906152e7565b5f6040518083038186803b158015613177575f5ffd5b505af4158015613189573d5f5f3e3d5ffd5b505050505050565b5f33905090565b5f8373ffffffffffffffffffffffffffffffffffffffff1663150b7a026131bd613191565b8786866040518563ffffffff1660e01b81526004016131df9493929190615352565b6020604051808303815f875af192505050801561321a57506040513d601f19601f8201168201806040525081019061321791906153b0565b60015b61326f573d805f8114613248576040519150601f19603f3d011682016040523d82523d5f602084013e61324d565b606091505b505f8151036132675761326663d1a57ed660e01b612254565b5b805181602001fd5b63150b7a0260e01b7bffffffffffffffffffffffffffffffffffffffffffffffffffffffff1916817bffffffffffffffffffffffffffffffffffffffffffffffffffffffff191614915050949350505050565b606060405180602001604052805f815250905090565b60606132e382612080565b6132f8576132f763a14c4b5060e01b612254565b5b5f6133016132c2565b90505f81510361331f5760405180602001604052805f81525061334a565b80613329846138d9565b60405160200161333a929190614dd4565b6040516020818303038152906040525b915050919050565b5f7c0100000000000000000000000000000000000000000000000000000000821673ffffffffffffffffffffffffffffffffffffffff8316119050919050565b5f5f600173__$eabcc97f142f9a0ca4e3cab5476d105c2d$__63a7cc0136856040518263ffffffff1660e01b81526004016133cd9190614765565b602060405180830381865af41580156133e8573d5f5f3e3d5ffd5b505050506040513d601f19601f8201168201806040525081019061340c91906147cf565b5f015191509150915091565b5f73ffffffffffffffffffffffffffffffffffffffff8316925073ffffffffffffffffffffffffffffffffffffffff821691508382148383141790509392505050565b50505050565b5f5f60e883901c905060e8613477868684613928565b62ffffff16901b9150509392505050565b5f73ffffffffffffffffffffffffffffffffffffffff83169250814260a01b178317905092915050565b50505050565b73__$eabcc97f142f9a0ca4e3cab5476d105c2d$__63dbe0b21c826040518263ffffffff1660e01b81526004016134ef9190614765565b5f6040518083038186803b158015613505575f5ffd5b505af4158015613517573d5f5f3e3d5ffd5b5050505050565b73__$eabcc97f142f9a0ca4e3cab5476d105c2d$__63071bc71c8383613543866118d5565b6040518463ffffffff1660e01b8152600401613561939291906153db565b5f6040518083038186803b158015613577575f5ffd5b505af4158015613589573d5f5f3e3d5ffd5b505050505050565b73__$eabcc97f142f9a0ca4e3cab5476d105c2d$__6340e02f5c826040518263ffffffff1660e01b81526004016135c89190614765565b5f6040518083038186803b1580156135de575f5ffd5b505af41580156135f0573d5f5f3e3d5ffd5b5050505050565b73__$eabcc97f142f9a0ca4e3cab5476d105c2d$__634f4979ed8383600161361e876118d5565b6136289190615410565b6040518463ffffffff1660e01b8152600401613646939291906153db565b5f6040518083038186803b15801561365c575f5ffd5b505af415801561366e573d5f5f3e3d5ffd5b505050505050565b5f5f8290505f5f90505b84518110156136bc576136ad828683815181106136a05761369f615443565b5b6020026020010151613930565b91508080600101915050613680565b508091505092915050565b6136d1838361395a565b5f8373ffffffffffffffffffffffffffffffffffffffff163b1461380a575f73__$eabcc97f142f9a0ca4e3cab5476d105c2d$__639451c99a6040518163ffffffff1660e01b8152600401602060405180830381865af4158015613737573d5f5f3e3d5ffd5b505050506040513d601f19601f8201168201806040525081019061375b91906148a1565b90505f83820390505b6137765f868380600101945086613198565b61378b5761378a63d1a57ed660e01b612254565b5b818110613764578173__$eabcc97f142f9a0ca4e3cab5476d105c2d$__639451c99a6040518163ffffffff1660e01b8152600401602060405180830381865af41580156137da573d5f5f3e3d5ffd5b505050506040513d601f19601f820116820180604052508101906137fe91906148a1565b14613807575f5ffd5b50505b505050565b60605f600161381d84613c75565b0190505f8167ffffffffffffffff81111561383b5761383a61408b565b5b6040519080825280601f01601f19166020018201604052801561386d5781602001600182028036833780820191505090505b5090505f82602001820190505b6001156138ce578080600190039150507f3031323334353637383961626364656600000000000000000000000000000000600a86061a8153600a85816138c3576138c2615470565b5b0494505f850361387a575b819350505050919050565b606060a060405101806040526020810391505f825281835b60011561391357600184039350600a81066030018453600a81049050806138f1575b50828103602084039350808452505050919050565b5f9392505050565b5f818310613947576139428284613dc6565b613952565b6139518383613dc6565b5b905092915050565b5f73__$eabcc97f142f9a0ca4e3cab5476d105c2d$__639451c99a6040518163ffffffff1660e01b8152600401602060405180830381865af41580156139a2573d5f5f3e3d5ffd5b505050506040513d601f19601f820116820180604052508101906139c691906148a1565b90505f82036139e0576139df63b562e8dd60e01b612254565b5b6139ec5f84838561345b565b73__$eabcc97f142f9a0ca4e3cab5476d105c2d$__63e68fdee182613a2586613a165f895f613461565b613a1f88613dda565b17613488565b6040518363ffffffff1660e01b8152600401613a42929190614eff565b5f6040518083038186803b158015613a58575f5ffd5b505af4158015613a6a573d5f5f3e3d5ffd5b5050505073__$eabcc97f142f9a0ca4e3cab5476d105c2d$__63a330117384600160406001901b17850273__$eabcc97f142f9a0ca4e3cab5476d105c2d$__6321b0ed7d886040518263ffffffff1660e01b8152600401613acb9190614a54565b602060405180830381865af4158015613ae6573d5f5f3e3d5ffd5b505050506040513d601f19601f82011682018060405250810190613b0a91906148a1565b016040518363ffffffff1660e01b8152600401613b28929190614ce0565b5f6040518083038186803b158015613b3e575f5ffd5b505af4158015613b50573d5f5f3e3d5ffd5b505050505f73ffffffffffffffffffffffffffffffffffffffff8473ffffffffffffffffffffffffffffffffffffffff161690505f8103613b9c57613b9b632e07630060e01b612254565b5b5f83830190505f839050613bae612449565b600183031115613bc957613bc86381647e3a60e01b612254565b5b5b80835f7fddf252ad1be2c89b69c2b068fc378daa952ba7f163c4a11628f55a4df523b3ef5f5fa4818160010191508103613bca5773__$eabcc97f142f9a0ca4e3cab5476d105c2d$__63345e7b28836040518263ffffffff1660e01b8152600401613c359190614765565b5f6040518083038186803b158015613c4b575f5ffd5b505af4158015613c5d573d5f5f3e3d5ffd5b50505050505050613c705f8483856134b2565b505050565b5f5f5f90507a184f03e93ff9f4daa797ed6e38ed64bf6a1f0100000000000000008310613cd1577a184f03e93ff9f4daa797ed6e38ed64bf6a1f0100000000000000008381613cc757613cc6615470565b5b0492506040810190505b6d04ee2d6d415b85acef81000000008310613d0e576d04ee2d6d415b85acef81000000008381613d0457613d03615470565b5b0492506020810190505b662386f26fc100008310613d3d57662386f26fc100008381613d3357613d32615470565b5b0492506010810190505b6305f5e1008310613d66576305f5e1008381613d5c57613d5b615470565b5b0492506008810190505b6127108310613d8b576127108381613d8157613d80615470565b5b0492506004810190505b60648310613dae5760648381613da457613da3615470565b5b0492506002810190505b600a8310613dbd576001810190505b80915050919050565b5f825f528160205260405f20905092915050565b5f6001821460e11b9050919050565b5f604051905090565b5f5ffd5b5f5ffd5b5f7fffffffff0000000000000000000000000000000000000000000000000000000082169050919050565b613e2e81613dfa565b8114613e38575f5ffd5b50565b5f81359050613e4981613e25565b92915050565b5f60208284031215613e6457613e63613df2565b5b5f613e7184828501613e3b565b91505092915050565b5f8115159050919050565b613e8e81613e7a565b82525050565b5f602082019050613ea75f830184613e85565b92915050565b5f81519050919050565b5f82825260208201905092915050565b8281835e5f83830152505050565b5f601f19601f8301169050919050565b5f613eef82613ead565b613ef98185613eb7565b9350613f09818560208601613ec7565b613f1281613ed5565b840191505092915050565b5f6020820190508181035f830152613f358184613ee5565b905092915050565b5f819050919050565b613f4f81613f3d565b8114613f59575f5ffd5b50565b5f81359050613f6a81613f46565b92915050565b5f60208284031215613f8557613f84613df2565b5b5f613f9284828501613f5c565b91505092915050565b5f73ffffffffffffffffffffffffffffffffffffffff82169050919050565b5f613fc482613f9b565b9050919050565b613fd481613fba565b82525050565b5f602082019050613fed5f830184613fcb565b92915050565b613ffc81613fba565b8114614006575f5ffd5b50565b5f8135905061401781613ff3565b92915050565b5f5f6040838503121561403357614032613df2565b5b5f61404085828601614009565b925050602061405185828601613f5c565b9150509250929050565b61406481613f3d565b82525050565b5f60208201905061407d5f83018461405b565b92915050565b5f5ffd5b5f5ffd5b7f4e487b71000000000000000000000000000000000000000000000000000000005f52604160045260245ffd5b6140c182613ed5565b810181811067ffffffffffffffff821117156140e0576140df61408b565b5b80604052505050565b5f6140f2613de9565b90506140fe82826140b8565b919050565b5f67ffffffffffffffff82111561411d5761411c61408b565b5b61412682613ed5565b9050602081019050919050565b828183375f83830152505050565b5f61415361414e84614103565b6140e9565b90508281526020810184848401111561416f5761416e614087565b5b61417a848285614133565b509392505050565b5f82601f83011261419657614195614083565b5b81356141a6848260208601614141565b91505092915050565b5f5f5f5f608085870312156141c7576141c6613df2565b5b5f6141d487828801614009565b94505060206141e587828801614009565b93505060406141f687828801613f5c565b925050606085013567ffffffffffffffff81111561421757614216613df6565b5b61422387828801614182565b91505092959194509250565b61423881613dfa565b82525050565b5f6020820190506142515f83018461422f565b92915050565b5f5ffd5b5f5ffd5b5f5f83601f84011261427457614273614083565b5b8235905067ffffffffffffffff81111561429157614290614257565b5b6020830191508360018202830111156142ad576142ac61425b565b5b9250929050565b5f5f5f604084860312156142cb576142ca613df2565b5b5f6142d886828701613f5c565b935050602084013567ffffffffffffffff8111156142f9576142f8613df6565b5b6143058682870161425f565b92509250509250925092565b5f5f5f6060848603121561432857614327613df2565b5b5f61433586828701614009565b935050602061434686828701614009565b925050604061435786828701613f5c565b9150509250925092565b5f819050919050565b61437381614361565b811461437d575f5ffd5b50565b5f8135905061438e8161436a565b92915050565b5f602082840312156143a9576143a8613df2565b5b5f6143b684828501614380565b91505092915050565b5f5f83601f8401126143d4576143d3614083565b5b8235905067ffffffffffffffff8111156143f1576143f0614257565b5b60208301915083602082028301111561440d5761440c61425b565b5b9250929050565b5f5f5f6040848603121561442b5761442a613df2565b5b5f61443886828701614009565b935050602084013567ffffffffffffffff81111561445957614458613df6565b5b614465868287016143bf565b92509250509250925092565b5f5f6020838503121561448757614486613df2565b5b5f83013567ffffffffffffffff8111156144a4576144a3613df6565b5b6144b08582860161425f565b92509250509250929050565b5f67ffffffffffffffff8211156144d6576144d561408b565b5b6144df82613ed5565b9050602081019050919050565b5f6144fe6144f9846144bc565b6140e9565b90508281526020810184848401111561451a57614519614087565b5b614525848285614133565b509392505050565b5f82601f83011261454157614540614083565b5b81356145518482602086016144ec565b91505092915050565b5f5f604083850312156145705761456f613df2565b5b5f83013567ffffffffffffffff81111561458d5761458c613df6565b5b6145998582860161452d565b925050602083013567ffffffffffffffff8111156145ba576145b9613df6565b5b6145c68582860161452d565b9150509250929050565b5f602082840312156145e5576145e4613df2565b5b5f6145f284828501614009565b91505092915050565b61460481613e7a565b811461460e575f5ffd5b50565b5f8135905061461f816145fb565b92915050565b5f5f6040838503121561463b5761463a613df2565b5b5f61464885828601614009565b925050602061465985828601614611565b9150509250929050565b5f5f6040838503121561467957614678613df2565b5b5f61468685828601614009565b925050602061469785828601614009565b9150509250929050565b5f6146b36146ae846144bc565b6140e9565b9050828152602081018484840111156146cf576146ce614087565b5b6146da848285613ec7565b509392505050565b5f82601f8301126146f6576146f5614083565b5b81516147068482602086016146a1565b91505092915050565b5f6020828403121561472457614723613df2565b5b5f82015167ffffffffffffffff81111561474157614740613df6565b5b61474d848285016146e2565b91505092915050565b61475f81613f3d565b82525050565b5f6020820190506147785f830184614756565b92915050565b5f5ffd5b5f8151905061479081613ff3565b92915050565b5f602082840312156147ab576147aa61477e565b5b6147b560206140e9565b90505f6147c484828501614782565b5f8301525092915050565b5f602082840312156147e4576147e3613df2565b5b5f6147f184828501614796565b91505092915050565b5f6020828403121561480f5761480e613df2565b5b5f61481c84828501614782565b91505092915050565b7f596f7520617265206e6f7420616e206f776e65720000000000000000000000005f82015250565b5f614859601483613eb7565b915061486482614825565b602082019050919050565b5f6020820190508181035f8301526148868161484d565b9050919050565b5f8151905061489b81613f46565b92915050565b5f602082840312156148b6576148b5613df2565b5b5f6148c38482850161488d565b91505092915050565b5f81905092915050565b50565b5f6148e45f836148cc565b91506148ef826148d6565b5f82019050919050565b5f614903826148d9565b9150819050919050565b7f5472616e73666572206661696c65642e000000000000000000000000000000005f82015250565b5f614941601083613eb7565b915061494c8261490d565b602082019050919050565b5f6020820190508181035f83015261496e81614935565b9050919050565b7f4572726f7220616c6c6f63202d2069642066726f6d2067656e657369730000005f82015250565b5f6149a9601d83613eb7565b91506149b482614975565b602082019050919050565b5f6020820190508181035f8301526149d68161499d565b9050919050565b7f45786365656420616c6c6f6300000000000000000000000000000000000000005f82015250565b5f614a11600c83613eb7565b9150614a1c826149dd565b602082019050919050565b5f6020820190508181035f830152614a3e81614a05565b9050919050565b614a4e81613fba565b82525050565b5f602082019050614a675f830184614a45565b92915050565b5f81519050614a7b816145fb565b92915050565b5f60208284031215614a9657614a95613df2565b5b5f614aa384828501614a6d565b91505092915050565b7f416c7265616479206d696e7465640000000000000000000000000000000000005f82015250565b5f614ae0600e83613eb7565b9150614aeb82614aac565b602082019050919050565b5f6020820190508181035f830152614b0d81614ad4565b9050919050565b7f4e6f74206d6174636820707269636500000000000000000000000000000000005f82015250565b5f614b48600f83613eb7565b9150614b5382614b14565b602082019050919050565b5f6020820190508181035f830152614b7581614b3c565b9050919050565b5f8160601b9050919050565b5f614b9282614b7c565b9050919050565b5f614ba382614b88565b9050919050565b614bbb614bb682613fba565b614b99565b82525050565b5f614bcc8284614baa565b60148201915081905092915050565b5f81519050614be98161436a565b92915050565b5f60208284031215614c0457614c03613df2565b5b5f614c1184828501614bdb565b91505092915050565b7f4e6f7420696e206d65726b6c65000000000000000000000000000000000000005f82015250565b5f614c4e600d83613eb7565b9150614c5982614c1a565b602082019050919050565b5f6020820190508181035f830152614c7b81614c42565b9050919050565b614c8b81613e7a565b82525050565b5f604082019050614ca45f830185614a45565b614cb16020830184614c82565b9392505050565b614cc181614361565b82525050565b5f602082019050614cda5f830184614cb8565b92915050565b5f604082019050614cf35f830185614a45565b614d006020830184614756565b9392505050565b5f82825260208201905092915050565b5f614d228385614d07565b9350614d2f838584614133565b614d3883613ed5565b840190509392505050565b5f6020820190508181035f830152614d5c818486614d17565b90509392505050565b5f606082019050614d785f830186614a45565b614d856020830185614a45565b614d926040830184614c82565b949350505050565b5f81905092915050565b5f614dae82613ead565b614db88185614d9a565b9350614dc8818560208601613ec7565b80840191505092915050565b5f614ddf8285614da4565b9150614deb8284614da4565b91508190509392505050565b5f604082019050614e0a5f830185614a45565b614e176020830184614a45565b9392505050565b7f4e487b71000000000000000000000000000000000000000000000000000000005f52601160045260245ffd5b5f614e5582613f3d565b91505f8203614e6757614e66614e1e565b5b600182039050919050565b5f604082019050614e855f830185614756565b614e926020830184614a45565b9392505050565b5f614ea382613ead565b614ead8185614d07565b9350614ebd818560208601613ec7565b614ec681613ed5565b840191505092915050565b5f6040820190508181035f830152614ee98185614e99565b9050614ef86020830184614756565b9392505050565b5f604082019050614f125f830185614756565b614f1f6020830184614756565b9392505050565b7f5265656e7472616e637947756172643a207265656e7472616e742063616c6c005f82015250565b5f614f5a601f83613eb7565b9150614f6582614f26565b602082019050919050565b5f6020820190508181035f830152614f8781614f4e565b9050919050565b7f4552433732314d657461646174613a2055524920717565727920666f72206e6f5f8201527f6e6578697374656e7420746f6b656e0000000000000000000000000000000000602082015250565b5f614fe8602f83613eb7565b9150614ff382614f8e565b604082019050919050565b5f6020820190508181035f83015261501581614fdc565b9050919050565b7f2e6a736f6e0000000000000000000000000000000000000000000000000000005f82015250565b5f615050600583614d9a565b915061505b8261501c565b600582019050919050565b5f6150718285614da4565b915061507d8284614da4565b915061508882615044565b91508190509392505050565b7f68747470733a2f2f697066732e737765622e72752f69706e732f736f756c6d615f8201527f74652e706172746e6572732f4c6567656e646172792f6a736f6e2f0000000000602082015250565b5f6150ee603b83614d07565b91506150f982615094565b604082019050919050565b5f6020820190508181035f83015261511b816150e2565b9050919050565b7f68747470733a2f2f697066732e737765622e72752f69706e732f736f756c6d615f8201527f74652e706172746e6572732f4c6567656e646172792f6a736f6e2f313230302e60208201527f6a736f6e00000000000000000000000000000000000000000000000000000000604082015250565b5f6151a2604483614d07565b91506151ad82615122565b606082019050919050565b5f6020820190508181035f8301526151cf81615196565b9050919050565b5f819050919050565b5f815f1b9050919050565b5f6152046151ff6151fa846151d6565b6151df565b614361565b9050919050565b615214816151ea565b82525050565b5f60208201905061522d5f83018461520b565b92915050565b5f819050919050565b5f819050919050565b5f61525f61525a61525584615233565b61523c565b613f3d565b9050919050565b61526f81615245565b82525050565b5f6020820190506152885f830184615266565b92915050565b5f6020820190508181035f8301526152a68184614e99565b905092915050565b5f819050919050565b5f6152d16152cc6152c7846152ae565b61523c565b613f3d565b9050919050565b6152e1816152b7565b82525050565b5f6020820190506152fa5f8301846152d8565b92915050565b5f81519050919050565b5f82825260208201905092915050565b5f61532482615300565b61532e818561530a565b935061533e818560208601613ec7565b61534781613ed5565b840191505092915050565b5f6080820190506153655f830187613fcb565b6153726020830186613fcb565b61537f604083018561405b565b8181036060830152615391818461531a565b905095945050505050565b5f815190506153aa81613e25565b92915050565b5f602082840312156153c5576153c4613df2565b5b5f6153d28482850161539c565b91505092915050565b5f6060820190506153ee5f830186614a45565b6153fb6020830185614756565b6154086040830184614756565b949350505050565b5f61541a82613f3d565b915061542583613f3d565b925082820390508181111561543d5761543c614e1e565b5b92915050565b7f4e487b71000000000000000000000000000000000000000000000000000000005f52603260045260245ffd5b7f4e487b71000000000000000000000000000000000000000000000000000000005f52601260045260245ffdfea26469706673582212209e36295bc919cd25df1190a9c07f6cb932f15a88249242b5d9f86ae43bbeae0864736f6c634300081e0033",
			"opcodes": "PUSH1 0xA0 PUSH1 0x40 MSTORE PUSH2 0x16 PUSH1 0x1 PUSH0 PUSH0 PUSH2 0x1E8 PUSH1 0x20 SHL PUSH1 0x20 SHR JUMP JUMPDEST PUSH1 0x80 SWAP1 DUP2 MSTORE POP CALLVALUE DUP1 ISZERO PUSH2 0x27 JUMPI PUSH0 PUSH0 REVERT JUMPDEST POP PUSH1 0x40 MLOAD PUSH2 0x61A7 CODESIZE SUB DUP1 PUSH2 0x61A7 DUP4 CODECOPY DUP2 DUP2 ADD PUSH1 0x40 MSTORE DUP2 ADD SWAP1 PUSH2 0x49 SWAP2 SWAP1 PUSH2 0x84F JUMP JUMPDEST DUP2 DUP2 PUSH20 0x0 PUSH4 0x5B43BC99 DUP4 PUSH1 0x40 MLOAD DUP3 PUSH4 0xFFFFFFFF AND PUSH1 0xE0 SHL DUP2 MSTORE PUSH1 0x4 ADD PUSH2 0x82 SWAP2 SWAP1 PUSH2 0x917 JUMP JUMPDEST PUSH0 PUSH1 0x40 MLOAD DUP1 DUP4 SUB DUP2 DUP7 DUP1 EXTCODESIZE ISZERO DUP1 ISZERO PUSH2 0x98 JUMPI PUSH0 PUSH0 REVERT JUMPDEST POP GAS DELEGATECALL ISZERO DUP1 ISZERO PUSH2 0xAA JUMPI RETURNDATASIZE PUSH0 PUSH0 RETURNDATACOPY RETURNDATASIZE PUSH0 REVERT JUMPDEST POP POP POP POP PUSH20 0x0 PUSH4 0x41BB0559 DUP3 PUSH1 0x40 MLOAD DUP3 PUSH4 0xFFFFFFFF AND PUSH1 0xE0 SHL DUP2 MSTORE PUSH1 0x4 ADD PUSH2 0xE5 SWAP2 SWAP1 PUSH2 0x917 JUMP JUMPDEST PUSH0 PUSH1 0x40 MLOAD DUP1 DUP4 SUB DUP2 DUP7 DUP1 EXTCODESIZE ISZERO DUP1 ISZERO PUSH2 0xFB JUMPI PUSH0 PUSH0 REVERT JUMPDEST POP GAS DELEGATECALL ISZERO DUP1 ISZERO PUSH2 0x10D JUMPI RETURNDATASIZE PUSH0 PUSH0 RETURNDATACOPY RETURNDATASIZE PUSH0 REVERT JUMPDEST POP POP POP POP PUSH20 0x0 PUSH4 0x345E7B28 PUSH2 0x139 PUSH2 0x211 PUSH1 0x20 SHL PUSH1 0x20 SHR JUMP JUMPDEST PUSH1 0x40 MLOAD DUP3 PUSH4 0xFFFFFFFF AND PUSH1 0xE0 SHL DUP2 MSTORE PUSH1 0x4 ADD PUSH2 0x155 SWAP2 SWAP1 PUSH2 0x94F JUMP JUMPDEST PUSH0 PUSH1 0x40 MLOAD DUP1 DUP4 SUB DUP2 DUP7 DUP1 EXTCODESIZE ISZERO DUP1 ISZERO PUSH2 0x16B JUMPI PUSH0 PUSH0 REVERT JUMPDEST POP GAS DELEGATECALL ISZERO DUP1 ISZERO PUSH2 0x17D JUMPI RETURNDATASIZE PUSH0 PUSH0 RETURNDATACOPY RETURNDATASIZE PUSH0 REVERT JUMPDEST POP POP POP POP PUSH2 0x18F PUSH2 0x211 PUSH1 0x20 SHL PUSH1 0x20 SHR JUMP JUMPDEST PUSH2 0x19D PUSH2 0x219 PUSH1 0x20 SHL PUSH1 0x20 SHR JUMP JUMPDEST LT ISZERO PUSH2 0x1BA JUMPI PUSH2 0x1B9 PUSH4 0xFED8210F PUSH1 0xE0 SHL PUSH2 0x240 PUSH1 0x20 SHL PUSH1 0x20 SHR JUMP JUMPDEST JUMPDEST POP POP PUSH1 0x1 PUSH0 DUP2 SWAP1 SSTORE POP PUSH2 0x1D1 PUSH2 0x248 PUSH1 0x20 SHL PUSH1 0x20 SHR JUMP JUMPDEST PUSH2 0x1E1 DUP3 DUP3 PUSH2 0x3BE PUSH1 0x20 SHL PUSH1 0x20 SHR JUMP JUMPDEST POP POP PUSH2 0xCBC JUMP JUMPDEST PUSH0 DUP2 PUSH4 0xFFFFFFFF AND PUSH1 0x20 DUP5 PUSH4 0xFFFFFFFF AND SWAP1 SHL PUSH1 0x40 DUP7 PUSH4 0xFFFFFFFF AND SWAP1 SHL OR OR SWAP1 POP SWAP4 SWAP3 POP POP POP JUMP JUMPDEST PUSH0 PUSH1 0x1 SWAP1 POP SWAP1 JUMP JUMPDEST PUSH0 PUSH32 0xFFFFFFFFFFFFFFFFFFFFFFFFFFFFFFFFFFFFFFFFFFFFFFFFFFFFFFFFFFFFFFFF SWAP1 POP SWAP1 JUMP JUMPDEST DUP1 PUSH0 MSTORE PUSH1 0x4 PUSH0 REVERT JUMPDEST PUSH0 PUSH20 0xFFFFFFFFFFFFFFFFFFFFFFFFFFFFFFFFFFFFFFFF AND PUSH20 0x0 PUSH4 0x893D20E8 PUSH1 0x40 MLOAD DUP2 PUSH4 0xFFFFFFFF AND PUSH1 0xE0 SHL DUP2 MSTORE PUSH1 0x4 ADD PUSH1 0x20 PUSH1 0x40 MLOAD DUP1 DUP4 SUB DUP2 DUP7 GAS DELEGATECALL ISZERO DUP1 ISZERO PUSH2 0x2A6 JUMPI RETURNDATASIZE PUSH0 PUSH0 RETURNDATACOPY RETURNDATASIZE PUSH0 REVERT JUMPDEST POP POP POP POP PUSH1 0x40 MLOAD RETURNDATASIZE PUSH1 0x1F NOT PUSH1 0x1F DUP3 ADD AND DUP3 ADD DUP1 PUSH1 0x40 MSTORE POP DUP2 ADD SWAP1 PUSH2 0x2CA SWAP2 SWAP1 PUSH2 0x9C2 JUMP JUMPDEST PUSH20 0xFFFFFFFFFFFFFFFFFFFFFFFFFFFFFFFFFFFFFFFF AND SUB PUSH2 0x3BC JUMPI PUSH20 0x0 PUSH4 0x592BD705 PUSH2 0x30D PUSH2 0x6FB PUSH1 0x20 SHL PUSH1 0x20 SHR JUMP JUMPDEST PUSH1 0x40 MLOAD DUP3 PUSH4 0xFFFFFFFF AND PUSH1 0xE0 SHL DUP2 MSTORE PUSH1 0x4 ADD PUSH2 0x329 SWAP2 SWAP1 PUSH2 0x9FC JUMP JUMPDEST PUSH0 PUSH1 0x40 MLOAD DUP1 DUP4 SUB DUP2 DUP7 DUP1 EXTCODESIZE ISZERO DUP1 ISZERO PUSH2 0x33F JUMPI PUSH0 PUSH0 REVERT JUMPDEST POP GAS DELEGATECALL ISZERO DUP1 ISZERO PUSH2 0x351 JUMPI RETURNDATASIZE PUSH0 PUSH0 RETURNDATACOPY RETURNDATASIZE PUSH0 REVERT JUMPDEST POP POP POP POP PUSH20 0x0 PUSH4 0xF2F65960 PUSH3 0x93A80 PUSH1 0x40 MLOAD DUP3 PUSH4 0xFFFFFFFF AND PUSH1 0xE0 SHL DUP2 MSTORE PUSH1 0x4 ADD PUSH2 0x38F SWAP2 SWAP1 PUSH2 0xA57 JUMP JUMPDEST PUSH0 PUSH1 0x40 MLOAD DUP1 DUP4 SUB DUP2 DUP7 DUP1 EXTCODESIZE ISZERO DUP1 ISZERO PUSH2 0x3A5 JUMPI PUSH0 PUSH0 REVERT JUMPDEST POP GAS DELEGATECALL ISZERO DUP1 ISZERO PUSH2 0x3B7 JUMPI RETURNDATASIZE PUSH0 PUSH0 RETURNDATACOPY RETURNDATASIZE PUSH0 REVERT JUMPDEST POP POP POP POP JUMPDEST JUMP JUMPDEST PUSH20 0x0 PUSH4 0xA05CC559 PUSH1 0x40 MLOAD DUP2 PUSH4 0xFFFFFFFF AND PUSH1 0xE0 SHL DUP2 MSTORE PUSH1 0x4 ADD PUSH2 0x3F3 SWAP1 PUSH2 0xAE0 JUMP JUMPDEST PUSH0 PUSH1 0x40 MLOAD DUP1 DUP4 SUB DUP2 DUP7 DUP1 EXTCODESIZE ISZERO DUP1 ISZERO PUSH2 0x409 JUMPI PUSH0 PUSH0 REVERT JUMPDEST POP GAS DELEGATECALL ISZERO DUP1 ISZERO PUSH2 0x41B JUMPI RETURNDATASIZE PUSH0 PUSH0 RETURNDATACOPY RETURNDATASIZE PUSH0 REVERT JUMPDEST POP POP POP POP PUSH20 0x0 PUSH4 0x821ABC2D PUSH1 0x40 MLOAD DUP2 PUSH4 0xFFFFFFFF AND PUSH1 0xE0 SHL DUP2 MSTORE PUSH1 0x4 ADD PUSH2 0x454 SWAP1 PUSH2 0xB94 JUMP JUMPDEST PUSH0 PUSH1 0x40 MLOAD DUP1 DUP4 SUB DUP2 DUP7 DUP1 EXTCODESIZE ISZERO DUP1 ISZERO PUSH2 0x46A JUMPI PUSH0 PUSH0 REVERT JUMPDEST POP GAS DELEGATECALL ISZERO DUP1 ISZERO PUSH2 0x47C JUMPI RETURNDATASIZE PUSH0 PUSH0 RETURNDATACOPY RETURNDATASIZE PUSH0 REVERT JUMPDEST POP POP POP POP PUSH20 0x0 PUSH4 0x854F9DB9 PUSH32 0x5DF84626BC45C33115B89A190996D30024345C231B20F226B126A006264FD61F PUSH1 0x40 MLOAD DUP3 PUSH4 0xFFFFFFFF AND PUSH1 0xE0 SHL DUP2 MSTORE PUSH1 0x4 ADD PUSH2 0x4D7 SWAP2 SWAP1 PUSH2 0xBFF JUMP JUMPDEST PUSH0 PUSH1 0x40 MLOAD DUP1 DUP4 SUB DUP2 DUP7 DUP1 EXTCODESIZE ISZERO DUP1 ISZERO PUSH2 0x4ED JUMPI PUSH0 PUSH0 REVERT JUMPDEST POP GAS DELEGATECALL ISZERO DUP1 ISZERO PUSH2 0x4FF JUMPI RETURNDATASIZE PUSH0 PUSH0 RETURNDATACOPY RETURNDATASIZE PUSH0 REVERT JUMPDEST POP POP POP POP PUSH20 0x0 PUSH4 0x39B37AB0 PUSH1 0x91 PUSH1 0x40 MLOAD DUP3 PUSH4 0xFFFFFFFF AND PUSH1 0xE0 SHL DUP2 MSTORE PUSH1 0x4 ADD PUSH2 0x53B SWAP2 SWAP1 PUSH2 0xC51 JUMP JUMPDEST PUSH0 PUSH1 0x40 MLOAD DUP1 DUP4 SUB DUP2 DUP7 DUP1 EXTCODESIZE ISZERO DUP1 ISZERO PUSH2 0x551 JUMPI PUSH0 PUSH0 REVERT JUMPDEST POP GAS DELEGATECALL ISZERO DUP1 ISZERO PUSH2 0x563 JUMPI RETURNDATASIZE PUSH0 PUSH0 RETURNDATACOPY RETURNDATASIZE PUSH0 REVERT JUMPDEST POP POP POP POP PUSH20 0x0 PUSH4 0x5B43BC99 DUP4 PUSH1 0x40 MLOAD DUP3 PUSH4 0xFFFFFFFF AND PUSH1 0xE0 SHL DUP2 MSTORE PUSH1 0x4 ADD PUSH2 0x59E SWAP2 SWAP1 PUSH2 0x917 JUMP JUMPDEST PUSH0 PUSH1 0x40 MLOAD DUP1 DUP4 SUB DUP2 DUP7 DUP1 EXTCODESIZE ISZERO DUP1 ISZERO PUSH2 0x5B4 JUMPI PUSH0 PUSH0 REVERT JUMPDEST POP GAS DELEGATECALL ISZERO DUP1 ISZERO PUSH2 0x5C6 JUMPI RETURNDATASIZE PUSH0 PUSH0 RETURNDATACOPY RETURNDATASIZE PUSH0 REVERT JUMPDEST POP POP POP POP PUSH20 0x0 PUSH4 0x41BB0559 DUP3 PUSH1 0x40 MLOAD DUP3 PUSH4 0xFFFFFFFF AND PUSH1 0xE0 SHL DUP2 MSTORE PUSH1 0x4 ADD PUSH2 0x601 SWAP2 SWAP1 PUSH2 0x917 JUMP JUMPDEST PUSH0 PUSH1 0x40 MLOAD DUP1 DUP4 SUB DUP2 DUP7 DUP1 EXTCODESIZE ISZERO DUP1 ISZERO PUSH2 0x617 JUMPI PUSH0 PUSH0 REVERT JUMPDEST POP GAS DELEGATECALL ISZERO DUP1 ISZERO PUSH2 0x629 JUMPI RETURNDATASIZE PUSH0 PUSH0 RETURNDATACOPY RETURNDATASIZE PUSH0 REVERT JUMPDEST POP POP POP POP PUSH20 0x0 PUSH4 0x345E7B28 PUSH2 0x4B0 PUSH1 0x40 MLOAD DUP3 PUSH4 0xFFFFFFFF AND PUSH1 0xE0 SHL DUP2 MSTORE PUSH1 0x4 ADD PUSH2 0x666 SWAP2 SWAP1 PUSH2 0xCA3 JUMP JUMPDEST PUSH0 PUSH1 0x40 MLOAD DUP1 DUP4 SUB DUP2 DUP7 DUP1 EXTCODESIZE ISZERO DUP1 ISZERO PUSH2 0x67C JUMPI PUSH0 PUSH0 REVERT JUMPDEST POP GAS DELEGATECALL ISZERO DUP1 ISZERO PUSH2 0x68E JUMPI RETURNDATASIZE PUSH0 PUSH0 RETURNDATACOPY RETURNDATASIZE PUSH0 REVERT JUMPDEST POP POP POP POP PUSH20 0x0 PUSH4 0x32B07B43 PUSH2 0x4B0 PUSH1 0x40 MLOAD DUP3 PUSH4 0xFFFFFFFF AND PUSH1 0xE0 SHL DUP2 MSTORE PUSH1 0x4 ADD PUSH2 0x6CB SWAP2 SWAP1 PUSH2 0xCA3 JUMP JUMPDEST PUSH0 PUSH1 0x40 MLOAD DUP1 DUP4 SUB DUP2 DUP7 DUP1 EXTCODESIZE ISZERO DUP1 ISZERO PUSH2 0x6E1 JUMPI PUSH0 PUSH0 REVERT JUMPDEST POP GAS DELEGATECALL ISZERO DUP1 ISZERO PUSH2 0x6F3 JUMPI RETURNDATASIZE PUSH0 PUSH0 RETURNDATACOPY RETURNDATASIZE PUSH0 REVERT JUMPDEST POP POP POP POP POP POP JUMP JUMPDEST PUSH0 CALLER SWAP1 POP SWAP1 JUMP JUMPDEST PUSH0 PUSH1 0x40 MLOAD SWAP1 POP SWAP1 JUMP JUMPDEST PUSH0 PUSH0 REVERT JUMPDEST PUSH0 PUSH0 REVERT JUMPDEST PUSH0 PUSH0 REVERT JUMPDEST PUSH0 PUSH0 REVERT JUMPDEST PUSH0 PUSH1 0x1F NOT PUSH1 0x1F DUP4 ADD AND SWAP1 POP SWAP2 SWAP1 POP JUMP JUMPDEST PUSH32 0x4E487B7100000000000000000000000000000000000000000000000000000000 PUSH0 MSTORE PUSH1 0x41 PUSH1 0x4 MSTORE PUSH1 0x24 PUSH0 REVERT JUMPDEST PUSH2 0x761 DUP3 PUSH2 0x71B JUMP JUMPDEST DUP2 ADD DUP2 DUP2 LT PUSH8 0xFFFFFFFFFFFFFFFF DUP3 GT OR ISZERO PUSH2 0x780 JUMPI PUSH2 0x77F PUSH2 0x72B JUMP JUMPDEST JUMPDEST DUP1 PUSH1 0x40 MSTORE POP POP POP JUMP JUMPDEST PUSH0 PUSH2 0x792 PUSH2 0x702 JUMP JUMPDEST SWAP1 POP PUSH2 0x79E DUP3 DUP3 PUSH2 0x758 JUMP JUMPDEST SWAP2 SWAP1 POP JUMP JUMPDEST PUSH0 PUSH8 0xFFFFFFFFFFFFFFFF DUP3 GT ISZERO PUSH2 0x7BD JUMPI PUSH2 0x7BC PUSH2 0x72B JUMP JUMPDEST JUMPDEST PUSH2 0x7C6 DUP3 PUSH2 0x71B JUMP JUMPDEST SWAP1 POP PUSH1 0x20 DUP2 ADD SWAP1 POP SWAP2 SWAP1 POP JUMP JUMPDEST DUP3 DUP2 DUP4 MCOPY PUSH0 DUP4 DUP4 ADD MSTORE POP POP POP JUMP JUMPDEST PUSH0 PUSH2 0x7F3 PUSH2 0x7EE DUP5 PUSH2 0x7A3 JUMP JUMPDEST PUSH2 0x789 JUMP JUMPDEST SWAP1 POP DUP3 DUP2 MSTORE PUSH1 0x20 DUP2 ADD DUP5 DUP5 DUP5 ADD GT ISZERO PUSH2 0x80F JUMPI PUSH2 0x80E PUSH2 0x717 JUMP JUMPDEST JUMPDEST PUSH2 0x81A DUP5 DUP3 DUP6 PUSH2 0x7D3 JUMP JUMPDEST POP SWAP4 SWAP3 POP POP POP JUMP JUMPDEST PUSH0 DUP3 PUSH1 0x1F DUP4 ADD SLT PUSH2 0x836 JUMPI PUSH2 0x835 PUSH2 0x713 JUMP JUMPDEST JUMPDEST DUP2 MLOAD PUSH2 0x846 DUP5 DUP3 PUSH1 0x20 DUP7 ADD PUSH2 0x7E1 JUMP JUMPDEST SWAP2 POP POP SWAP3 SWAP2 POP POP JUMP JUMPDEST PUSH0 PUSH0 PUSH1 0x40 DUP4 DUP6 SUB SLT ISZERO PUSH2 0x865 JUMPI PUSH2 0x864 PUSH2 0x70B JUMP JUMPDEST JUMPDEST PUSH0 DUP4 ADD MLOAD PUSH8 0xFFFFFFFFFFFFFFFF DUP2 GT ISZERO PUSH2 0x882 JUMPI PUSH2 0x881 PUSH2 0x70F JUMP JUMPDEST JUMPDEST PUSH2 0x88E DUP6 DUP3 DUP7 ADD PUSH2 0x822 JUMP JUMPDEST SWAP3 POP POP PUSH1 0x20 DUP4 ADD MLOAD PUSH8 0xFFFFFFFFFFFFFFFF DUP2 GT ISZERO PUSH2 0x8AF JUMPI PUSH2 0x8AE PUSH2 0x70F JUMP JUMPDEST JUMPDEST PUSH2 0x8BB DUP6 DUP3 DUP7 ADD PUSH2 0x822 JUMP JUMPDEST SWAP2 POP POP SWAP3 POP SWAP3 SWAP1 POP JUMP JUMPDEST PUSH0 DUP2 MLOAD SWAP1 POP SWAP2 SWAP1 POP JUMP JUMPDEST PUSH0 DUP3 DUP3 MSTORE PUSH1 0x20 DUP3 ADD SWAP1 POP SWAP3 SWAP2 POP POP JUMP JUMPDEST PUSH0 PUSH2 0x8E9 DUP3 PUSH2 0x8C5 JUMP JUMPDEST PUSH2 0x8F3 DUP2 DUP6 PUSH2 0x8CF JUMP JUMPDEST SWAP4 POP PUSH2 0x903 DUP2 DUP6 PUSH1 0x20 DUP7 ADD PUSH2 0x7D3 JUMP JUMPDEST PUSH2 0x90C DUP2 PUSH2 0x71B JUMP JUMPDEST DUP5 ADD SWAP2 POP POP SWAP3 SWAP2 POP POP JUMP JUMPDEST PUSH0 PUSH1 0x20 DUP3 ADD SWAP1 POP DUP2 DUP2 SUB PUSH0 DUP4 ADD MSTORE PUSH2 0x92F DUP2 DUP5 PUSH2 0x8DF JUMP JUMPDEST SWAP1 POP SWAP3 SWAP2 POP POP JUMP JUMPDEST PUSH0 DUP2 SWAP1 POP SWAP2 SWAP1 POP JUMP JUMPDEST PUSH2 0x949 DUP2 PUSH2 0x937 JUMP JUMPDEST DUP3 MSTORE POP POP JUMP JUMPDEST PUSH0 PUSH1 0x20 DUP3 ADD SWAP1 POP PUSH2 0x962 PUSH0 DUP4 ADD DUP5 PUSH2 0x940 JUMP JUMPDEST SWAP3 SWAP2 POP POP JUMP JUMPDEST PUSH0 PUSH20 0xFFFFFFFFFFFFFFFFFFFFFFFFFFFFFFFFFFFFFFFF DUP3 AND SWAP1 POP SWAP2 SWAP1 POP JUMP JUMPDEST PUSH0 PUSH2 0x991 DUP3 PUSH2 0x968 JUMP JUMPDEST SWAP1 POP SWAP2 SWAP1 POP JUMP JUMPDEST PUSH2 0x9A1 DUP2 PUSH2 0x987 JUMP JUMPDEST DUP2 EQ PUSH2 0x9AB JUMPI PUSH0 PUSH0 REVERT JUMPDEST POP JUMP JUMPDEST PUSH0 DUP2 MLOAD SWAP1 POP PUSH2 0x9BC DUP2 PUSH2 0x998 JUMP JUMPDEST SWAP3 SWAP2 POP POP JUMP JUMPDEST PUSH0 PUSH1 0x20 DUP3 DUP5 SUB SLT ISZERO PUSH2 0x9D7 JUMPI PUSH2 0x9D6 PUSH2 0x70B JUMP JUMPDEST JUMPDEST PUSH0 PUSH2 0x9E4 DUP5 DUP3 DUP6 ADD PUSH2 0x9AE JUMP JUMPDEST SWAP2 POP POP SWAP3 SWAP2 POP POP JUMP JUMPDEST PUSH2 0x9F6 DUP2 PUSH2 0x987 JUMP JUMPDEST DUP3 MSTORE POP POP JUMP JUMPDEST PUSH0 PUSH1 0x20 DUP3 ADD SWAP1 POP PUSH2 0xA0F PUSH0 DUP4 ADD DUP5 PUSH2 0x9ED JUMP JUMPDEST SWAP3 SWAP2 POP POP JUMP JUMPDEST PUSH0 DUP2 SWAP1 POP SWAP2 SWAP1 POP JUMP JUMPDEST PUSH0 DUP2 SWAP1 POP SWAP2 SWAP1 POP JUMP JUMPDEST PUSH0 PUSH2 0xA41 PUSH2 0xA3C PUSH2 0xA37 DUP5 PUSH2 0xA15 JUMP JUMPDEST PUSH2 0xA1E JUMP JUMPDEST PUSH2 0x937 JUMP JUMPDEST SWAP1 POP SWAP2 SWAP1 POP JUMP JUMPDEST PUSH2 0xA51 DUP2 PUSH2 0xA27 JUMP JUMPDEST DUP3 MSTORE POP POP JUMP JUMPDEST PUSH0 PUSH1 0x20 DUP3 ADD SWAP1 POP PUSH2 0xA6A PUSH0 DUP4 ADD DUP5 PUSH2 0xA48 JUMP JUMPDEST SWAP3 SWAP2 POP POP JUMP JUMPDEST PUSH32 0x68747470733A2F2F697066732E737765622E72752F69706E732F736F756C6D61 PUSH0 DUP3 ADD MSTORE PUSH32 0x74652E706172746E6572732F4C6567656E646172792F6A736F6E2F0000000000 PUSH1 0x20 DUP3 ADD MSTORE POP JUMP JUMPDEST PUSH0 PUSH2 0xACA PUSH1 0x3B DUP4 PUSH2 0x8CF JUMP JUMPDEST SWAP2 POP PUSH2 0xAD5 DUP3 PUSH2 0xA70 JUMP JUMPDEST PUSH1 0x40 DUP3 ADD SWAP1 POP SWAP2 SWAP1 POP JUMP JUMPDEST PUSH0 PUSH1 0x20 DUP3 ADD SWAP1 POP DUP2 DUP2 SUB PUSH0 DUP4 ADD MSTORE PUSH2 0xAF7 DUP2 PUSH2 0xABE JUMP JUMPDEST SWAP1 POP SWAP2 SWAP1 POP JUMP JUMPDEST PUSH32 0x68747470733A2F2F697066732E737765622E72752F69706E732F736F756C6D61 PUSH0 DUP3 ADD MSTORE PUSH32 0x74652E706172746E6572732F4C6567656E646172792F6A736F6E2F313230302E PUSH1 0x20 DUP3 ADD MSTORE PUSH32 0x6A736F6E00000000000000000000000000000000000000000000000000000000 PUSH1 0x40 DUP3 ADD MSTORE POP JUMP JUMPDEST PUSH0 PUSH2 0xB7E PUSH1 0x44 DUP4 PUSH2 0x8CF JUMP JUMPDEST SWAP2 POP PUSH2 0xB89 DUP3 PUSH2 0xAFE JUMP JUMPDEST PUSH1 0x60 DUP3 ADD SWAP1 POP SWAP2 SWAP1 POP JUMP JUMPDEST PUSH0 PUSH1 0x20 DUP3 ADD SWAP1 POP DUP2 DUP2 SUB PUSH0 DUP4 ADD MSTORE PUSH2 0xBAB DUP2 PUSH2 0xB72 JUMP JUMPDEST SWAP1 POP SWAP2 SWAP1 POP JUMP JUMPDEST PUSH0 DUP2 SWAP1 POP SWAP2 SWAP1 POP JUMP JUMPDEST PUSH0 DUP2 SWAP1 POP SWAP2 SWAP1 POP JUMP JUMPDEST PUSH0 DUP2 PUSH0 SHL SWAP1 POP SWAP2 SWAP1 POP JUMP JUMPDEST PUSH0 PUSH2 0xBE9 PUSH2 0xBE4 PUSH2 0xBDF DUP5 PUSH2 0xBB2 JUMP JUMPDEST PUSH2 0xBC4 JUMP JUMPDEST PUSH2 0xBBB JUMP JUMPDEST SWAP1 POP SWAP2 SWAP1 POP JUMP JUMPDEST PUSH2 0xBF9 DUP2 PUSH2 0xBCF JUMP JUMPDEST DUP3 MSTORE POP POP JUMP JUMPDEST PUSH0 PUSH1 0x20 DUP3 ADD SWAP1 POP PUSH2 0xC12 PUSH0 DUP4 ADD DUP5 PUSH2 0xBF0 JUMP JUMPDEST SWAP3 SWAP2 POP POP JUMP JUMPDEST PUSH0 DUP2 SWAP1 POP SWAP2 SWAP1 POP JUMP JUMPDEST PUSH0 PUSH2 0xC3B PUSH2 0xC36 PUSH2 0xC31 DUP5 PUSH2 0xC18 JUMP JUMPDEST PUSH2 0xA1E JUMP JUMPDEST PUSH2 0x937 JUMP JUMPDEST SWAP1 POP SWAP2 SWAP1 POP JUMP JUMPDEST PUSH2 0xC4B DUP2 PUSH2 0xC21 JUMP JUMPDEST DUP3 MSTORE POP POP JUMP JUMPDEST PUSH0 PUSH1 0x20 DUP3 ADD SWAP1 POP PUSH2 0xC64 PUSH0 DUP4 ADD DUP5 PUSH2 0xC42 JUMP JUMPDEST SWAP3 SWAP2 POP POP JUMP JUMPDEST PUSH0 DUP2 SWAP1 POP SWAP2 SWAP1 POP JUMP JUMPDEST PUSH0 PUSH2 0xC8D PUSH2 0xC88 PUSH2 0xC83 DUP5 PUSH2 0xC6A JUMP JUMPDEST PUSH2 0xA1E JUMP JUMPDEST PUSH2 0x937 JUMP JUMPDEST SWAP1 POP SWAP2 SWAP1 POP JUMP JUMPDEST PUSH2 0xC9D DUP2 PUSH2 0xC73 JUMP JUMPDEST DUP3 MSTORE POP POP JUMP JUMPDEST PUSH0 PUSH1 0x20 DUP3 ADD SWAP1 POP PUSH2 0xCB6 PUSH0 DUP4 ADD DUP5 PUSH2 0xC94 JUMP JUMPDEST SWAP3 SWAP2 POP POP JUMP JUMPDEST PUSH1 0x80 MLOAD PUSH2 0x54D3 PUSH2 0xCD4 PUSH0 CODECOPY PUSH0 PUSH2 0x1A14 ADD MSTORE PUSH2 0x54D3 PUSH0 RETURN INVALID PUSH1 0x80 PUSH1 0x40 MSTORE PUSH1 0x4 CALLDATASIZE LT PUSH2 0x203 JUMPI PUSH0 CALLDATALOAD PUSH1 0xE0 SHR DUP1 PUSH4 0x6352211E GT PUSH2 0x117 JUMPI DUP1 PUSH4 0x9B865B43 GT PUSH2 0x9F JUMPI DUP1 PUSH4 0xB88D4FDE GT PUSH2 0x6E JUMPI DUP1 PUSH4 0xB88D4FDE EQ PUSH2 0x715 JUMPI DUP1 PUSH4 0xC87B56DD EQ PUSH2 0x731 JUMPI DUP1 PUSH4 0xDDCA3F43 EQ PUSH2 0x76D JUMPI DUP1 PUSH4 0xDFBF2E67 EQ PUSH2 0x797 JUMPI DUP1 PUSH4 0xE985E9C5 EQ PUSH2 0x7BF JUMPI PUSH2 0x203 JUMP JUMPDEST DUP1 PUSH4 0x9B865B43 EQ PUSH2 0x671 JUMPI DUP1 PUSH4 0xA125C824 EQ PUSH2 0x69B JUMPI DUP1 PUSH4 0xA22CB465 EQ PUSH2 0x6C3 JUMPI DUP1 PUSH4 0xAD5B1662 EQ PUSH2 0x6EB JUMPI PUSH2 0x203 JUMP JUMPDEST DUP1 PUSH4 0x70A08231 GT PUSH2 0xE6 JUMPI DUP1 PUSH4 0x70A08231 EQ PUSH2 0x58D JUMPI DUP1 PUSH4 0x75794A3C EQ PUSH2 0x5C9 JUMPI DUP1 PUSH4 0x81ED9808 EQ PUSH2 0x5F3 JUMPI DUP1 PUSH4 0x90507C78 EQ PUSH2 0x61D JUMPI DUP1 PUSH4 0x95D89B41 EQ PUSH2 0x647 JUMPI PUSH2 0x203 JUMP JUMPDEST DUP1 PUSH4 0x6352211E EQ PUSH2 0x4D7 JUMPI DUP1 PUSH4 0x69FE0E2D EQ PUSH2 0x513 JUMPI DUP1 PUSH4 0x6C0360EB EQ PUSH2 0x53B JUMPI DUP1 PUSH4 0x7029144C EQ PUSH2 0x565 JUMPI PUSH2 0x203 JUMP JUMPDEST DUP1 PUSH4 0x23B872DD GT PUSH2 0x19A JUMPI DUP1 PUSH4 0x46BC0DCA GT PUSH2 0x169 JUMPI DUP1 PUSH4 0x46BC0DCA EQ PUSH2 0x3F3 JUMPI DUP1 PUSH4 0x49E0F980 EQ PUSH2 0x40F JUMPI DUP1 PUSH4 0x4BCA8AA3 EQ PUSH2 0x437 JUMPI DUP1 PUSH4 0x4F558E79 EQ PUSH2 0x473 JUMPI DUP1 PUSH4 0x55F804B3 EQ PUSH2 0x4AF JUMPI PUSH2 0x203 JUMP JUMPDEST DUP1 PUSH4 0x23B872DD EQ PUSH2 0x37D JUMPI DUP1 PUSH4 0x3BB04B1F EQ PUSH2 0x399 JUMPI DUP1 PUSH4 0x3CCFD60B EQ PUSH2 0x3C1 JUMPI DUP1 PUSH4 0x42842E0E EQ PUSH2 0x3D7 JUMPI PUSH2 0x203 JUMP JUMPDEST DUP1 PUSH4 0xC142A43 GT PUSH2 0x1D6 JUMPI DUP1 PUSH4 0xC142A43 EQ PUSH2 0x2C5 JUMPI DUP1 PUSH4 0x150B7A02 EQ PUSH2 0x2EF JUMPI DUP1 PUSH4 0x162094C4 EQ PUSH2 0x32B JUMPI DUP1 PUSH4 0x18160DDD EQ PUSH2 0x353 JUMPI PUSH2 0x203 JUMP JUMPDEST DUP1 PUSH4 0x1FFC9A7 EQ PUSH2 0x207 JUMPI DUP1 PUSH4 0x6FDDE03 EQ PUSH2 0x243 JUMPI DUP1 PUSH4 0x81812FC EQ PUSH2 0x26D JUMPI DUP1 PUSH4 0x95EA7B3 EQ PUSH2 0x2A9 JUMPI JUMPDEST PUSH0 PUSH0 REVERT JUMPDEST CALLVALUE DUP1 ISZERO PUSH2 0x212 JUMPI PUSH0 PUSH0 REVERT JUMPDEST POP PUSH2 0x22D PUSH1 0x4 DUP1 CALLDATASIZE SUB DUP2 ADD SWAP1 PUSH2 0x228 SWAP2 SWAP1 PUSH2 0x3E4F JUMP JUMPDEST PUSH2 0x7FB JUMP JUMPDEST PUSH1 0x40 MLOAD PUSH2 0x23A SWAP2 SWAP1 PUSH2 0x3E94 JUMP JUMPDEST PUSH1 0x40 MLOAD DUP1 SWAP2 SUB SWAP1 RETURN JUMPDEST CALLVALUE DUP1 ISZERO PUSH2 0x24E JUMPI PUSH0 PUSH0 REVERT JUMPDEST POP PUSH2 0x257 PUSH2 0x88C JUMP JUMPDEST PUSH1 0x40 MLOAD PUSH2 0x264 SWAP2 SWAP1 PUSH2 0x3F1D JUMP JUMPDEST PUSH1 0x40 MLOAD DUP1 SWAP2 SUB SWAP1 RETURN JUMPDEST CALLVALUE DUP1 ISZERO PUSH2 0x278 JUMPI PUSH0 PUSH0 REVERT JUMPDEST POP PUSH2 0x293 PUSH1 0x4 DUP1 CALLDATASIZE SUB DUP2 ADD SWAP1 PUSH2 0x28E SWAP2 SWAP1 PUSH2 0x3F70 JUMP JUMPDEST PUSH2 0x901 JUMP JUMPDEST PUSH1 0x40 MLOAD PUSH2 0x2A0 SWAP2 SWAP1 PUSH2 0x3FDA JUMP JUMPDEST PUSH1 0x40 MLOAD DUP1 SWAP2 SUB SWAP1 RETURN JUMPDEST PUSH2 0x2C3 PUSH1 0x4 DUP1 CALLDATASIZE SUB DUP2 ADD SWAP1 PUSH2 0x2BE SWAP2 SWAP1 PUSH2 0x401D JUMP JUMPDEST PUSH2 0x9A0 JUMP JUMPDEST STOP JUMPDEST CALLVALUE DUP1 ISZERO PUSH2 0x2D0 JUMPI PUSH0 PUSH0 REVERT JUMPDEST POP PUSH2 0x2D9 PUSH2 0x9B0 JUMP JUMPDEST PUSH1 0x40 MLOAD PUSH2 0x2E6 SWAP2 SWAP1 PUSH2 0x406A JUMP JUMPDEST PUSH1 0x40 MLOAD DUP1 SWAP2 SUB SWAP1 RETURN JUMPDEST CALLVALUE DUP1 ISZERO PUSH2 0x2FA JUMPI PUSH0 PUSH0 REVERT JUMPDEST POP PUSH2 0x315 PUSH1 0x4 DUP1 CALLDATASIZE SUB DUP2 ADD SWAP1 PUSH2 0x310 SWAP2 SWAP1 PUSH2 0x41AF JUMP JUMPDEST PUSH2 0x9B6 JUMP JUMPDEST PUSH1 0x40 MLOAD PUSH2 0x322 SWAP2 SWAP1 PUSH2 0x423E JUMP JUMPDEST PUSH1 0x40 MLOAD DUP1 SWAP2 SUB SWAP1 RETURN JUMPDEST CALLVALUE DUP1 ISZERO PUSH2 0x336 JUMPI PUSH0 PUSH0 REVERT JUMPDEST POP PUSH2 0x351 PUSH1 0x4 DUP1 CALLDATASIZE SUB DUP2 ADD SWAP1 PUSH2 0x34C SWAP2 SWAP1 PUSH2 0x42B4 JUMP JUMPDEST PUSH2 0x9C9 JUMP JUMPDEST STOP JUMPDEST CALLVALUE DUP1 ISZERO PUSH2 0x35E JUMPI PUSH0 PUSH0 REVERT JUMPDEST POP PUSH2 0x367 PUSH2 0xAFA JUMP JUMPDEST PUSH1 0x40 MLOAD PUSH2 0x374 SWAP2 SWAP1 PUSH2 0x406A JUMP JUMPDEST PUSH1 0x40 MLOAD DUP1 SWAP2 SUB SWAP1 RETURN JUMPDEST PUSH2 0x397 PUSH1 0x4 DUP1 CALLDATASIZE SUB DUP2 ADD SWAP1 PUSH2 0x392 SWAP2 SWAP1 PUSH2 0x4311 JUMP JUMPDEST PUSH2 0xC7E JUMP JUMPDEST STOP JUMPDEST CALLVALUE DUP1 ISZERO PUSH2 0x3A4 JUMPI PUSH0 PUSH0 REVERT JUMPDEST POP PUSH2 0x3BF PUSH1 0x4 DUP1 CALLDATASIZE SUB DUP2 ADD SWAP1 PUSH2 0x3BA SWAP2 SWAP1 PUSH2 0x4394 JUMP JUMPDEST PUSH2 0xC99 JUMP JUMPDEST STOP JUMPDEST CALLVALUE DUP1 ISZERO PUSH2 0x3CC JUMPI PUSH0 PUSH0 REVERT JUMPDEST POP PUSH2 0x3D5 PUSH2 0xD7B JUMP JUMPDEST STOP JUMPDEST PUSH2 0x3F1 PUSH1 0x4 DUP1 CALLDATASIZE SUB DUP2 ADD SWAP1 PUSH2 0x3EC SWAP2 SWAP1 PUSH2 0x4311 JUMP JUMPDEST PUSH2 0xF15 JUMP JUMPDEST STOP JUMPDEST PUSH2 0x40D PUSH1 0x4 DUP1 CALLDATASIZE SUB DUP2 ADD SWAP1 PUSH2 0x408 SWAP2 SWAP1 PUSH2 0x4414 JUMP JUMPDEST PUSH2 0xF34 JUMP JUMPDEST STOP JUMPDEST CALLVALUE DUP1 ISZERO PUSH2 0x41A JUMPI PUSH0 PUSH0 REVERT JUMPDEST POP PUSH2 0x435 PUSH1 0x4 DUP1 CALLDATASIZE SUB DUP2 ADD SWAP1 PUSH2 0x430 SWAP2 SWAP1 PUSH2 0x4394 JUMP JUMPDEST PUSH2 0x12FE JUMP JUMPDEST STOP JUMPDEST CALLVALUE DUP1 ISZERO PUSH2 0x442 JUMPI PUSH0 PUSH0 REVERT JUMPDEST POP PUSH2 0x45D PUSH1 0x4 DUP1 CALLDATASIZE SUB DUP2 ADD SWAP1 PUSH2 0x458 SWAP2 SWAP1 PUSH2 0x401D JUMP JUMPDEST PUSH2 0x1443 JUMP JUMPDEST PUSH1 0x40 MLOAD PUSH2 0x46A SWAP2 SWAP1 PUSH2 0x406A JUMP JUMPDEST PUSH1 0x40 MLOAD DUP1 SWAP2 SUB SWAP1 RETURN JUMPDEST CALLVALUE DUP1 ISZERO PUSH2 0x47E JUMPI PUSH0 PUSH0 REVERT JUMPDEST POP PUSH2 0x499 PUSH1 0x4 DUP1 CALLDATASIZE SUB DUP2 ADD SWAP1 PUSH2 0x494 SWAP2 SWAP1 PUSH2 0x3F70 JUMP JUMPDEST PUSH2 0x14C4 JUMP JUMPDEST PUSH1 0x40 MLOAD PUSH2 0x4A6 SWAP2 SWAP1 PUSH2 0x3E94 JUMP JUMPDEST PUSH1 0x40 MLOAD DUP1 SWAP2 SUB SWAP1 RETURN JUMPDEST CALLVALUE DUP1 ISZERO PUSH2 0x4BA JUMPI PUSH0 PUSH0 REVERT JUMPDEST POP PUSH2 0x4D5 PUSH1 0x4 DUP1 CALLDATASIZE SUB DUP2 ADD SWAP1 PUSH2 0x4D0 SWAP2 SWAP1 PUSH2 0x4471 JUMP JUMPDEST PUSH2 0x14D5 JUMP JUMPDEST STOP JUMPDEST CALLVALUE DUP1 ISZERO PUSH2 0x4E2 JUMPI PUSH0 PUSH0 REVERT JUMPDEST POP PUSH2 0x4FD PUSH1 0x4 DUP1 CALLDATASIZE SUB DUP2 ADD SWAP1 PUSH2 0x4F8 SWAP2 SWAP1 PUSH2 0x3F70 JUMP JUMPDEST PUSH2 0x161D JUMP JUMPDEST PUSH1 0x40 MLOAD PUSH2 0x50A SWAP2 SWAP1 PUSH2 0x3FDA JUMP JUMPDEST PUSH1 0x40 MLOAD DUP1 SWAP2 SUB SWAP1 RETURN JUMPDEST CALLVALUE DUP1 ISZERO PUSH2 0x51E JUMPI PUSH0 PUSH0 REVERT JUMPDEST POP PUSH2 0x539 PUSH1 0x4 DUP1 CALLDATASIZE SUB DUP2 ADD SWAP1 PUSH2 0x534 SWAP2 SWAP1 PUSH2 0x3F70 JUMP JUMPDEST PUSH2 0x162E JUMP JUMPDEST STOP JUMPDEST CALLVALUE DUP1 ISZERO PUSH2 0x546 JUMPI PUSH0 PUSH0 REVERT JUMPDEST POP PUSH2 0x54F PUSH2 0x1773 JUMP JUMPDEST PUSH1 0x40 MLOAD PUSH2 0x55C SWAP2 SWAP1 PUSH2 0x3F1D JUMP JUMPDEST PUSH1 0x40 MLOAD DUP1 SWAP2 SUB SWAP1 RETURN JUMPDEST CALLVALUE DUP1 ISZERO PUSH2 0x570 JUMPI PUSH0 PUSH0 REVERT JUMPDEST POP PUSH2 0x58B PUSH1 0x4 DUP1 CALLDATASIZE SUB DUP2 ADD SWAP1 PUSH2 0x586 SWAP2 SWAP1 PUSH2 0x455A JUMP JUMPDEST PUSH2 0x17E8 JUMP JUMPDEST STOP JUMPDEST CALLVALUE DUP1 ISZERO PUSH2 0x598 JUMPI PUSH0 PUSH0 REVERT JUMPDEST POP PUSH2 0x5B3 PUSH1 0x4 DUP1 CALLDATASIZE SUB DUP2 ADD SWAP1 PUSH2 0x5AE SWAP2 SWAP1 PUSH2 0x45D0 JUMP JUMPDEST PUSH2 0x18D5 JUMP JUMPDEST PUSH1 0x40 MLOAD PUSH2 0x5C0 SWAP2 SWAP1 PUSH2 0x406A JUMP JUMPDEST PUSH1 0x40 MLOAD DUP1 SWAP2 SUB SWAP1 RETURN JUMPDEST CALLVALUE DUP1 ISZERO PUSH2 0x5D4 JUMPI PUSH0 PUSH0 REVERT JUMPDEST POP PUSH2 0x5DD PUSH2 0x19A1 JUMP JUMPDEST PUSH1 0x40 MLOAD PUSH2 0x5EA SWAP2 SWAP1 PUSH2 0x406A JUMP JUMPDEST PUSH1 0x40 MLOAD DUP1 SWAP2 SUB SWAP1 RETURN JUMPDEST CALLVALUE DUP1 ISZERO PUSH2 0x5FE JUMPI PUSH0 PUSH0 REVERT JUMPDEST POP PUSH2 0x607 PUSH2 0x1A12 JUMP JUMPDEST PUSH1 0x40 MLOAD PUSH2 0x614 SWAP2 SWAP1 PUSH2 0x406A JUMP JUMPDEST PUSH1 0x40 MLOAD DUP1 SWAP2 SUB SWAP1 RETURN JUMPDEST CALLVALUE DUP1 ISZERO PUSH2 0x628 JUMPI PUSH0 PUSH0 REVERT JUMPDEST POP PUSH2 0x631 PUSH2 0x1A36 JUMP JUMPDEST PUSH1 0x40 MLOAD PUSH2 0x63E SWAP2 SWAP1 PUSH2 0x406A JUMP JUMPDEST PUSH1 0x40 MLOAD DUP1 SWAP2 SUB SWAP1 RETURN JUMPDEST CALLVALUE DUP1 ISZERO PUSH2 0x652 JUMPI PUSH0 PUSH0 REVERT JUMPDEST POP PUSH2 0x65B PUSH2 0x1A3C JUMP JUMPDEST PUSH1 0x40 MLOAD PUSH2 0x668 SWAP2 SWAP1 PUSH2 0x3F1D JUMP JUMPDEST PUSH1 0x40 MLOAD DUP1 SWAP2 SUB SWAP1 RETURN JUMPDEST CALLVALUE DUP1 ISZERO PUSH2 0x67C JUMPI PUSH0 PUSH0 REVERT JUMPDEST POP PUSH2 0x685 PUSH2 0x1AB1 JUMP JUMPDEST PUSH1 0x40 MLOAD PUSH2 0x692 SWAP2 SWAP1 PUSH2 0x3F1D JUMP JUMPDEST PUSH1 0x40 MLOAD DUP1 SWAP2 SUB SWAP1 RETURN JUMPDEST CALLVALUE DUP1 ISZERO PUSH2 0x6A6 JUMPI PUSH0 PUSH0 REVERT JUMPDEST POP PUSH2 0x6C1 PUSH1 0x4 DUP1 CALLDATASIZE SUB DUP2 ADD SWAP1 PUSH2 0x6BC SWAP2 SWAP1 PUSH2 0x4471 JUMP JUMPDEST PUSH2 0x1AEA JUMP JUMPDEST STOP JUMPDEST CALLVALUE DUP1 ISZERO PUSH2 0x6CE JUMPI PUSH0 PUSH0 REVERT JUMPDEST POP PUSH2 0x6E9 PUSH1 0x4 DUP1 CALLDATASIZE SUB DUP2 ADD SWAP1 PUSH2 0x6E4 SWAP2 SWAP1 PUSH2 0x4625 JUMP JUMPDEST PUSH2 0x1C32 JUMP JUMPDEST STOP JUMPDEST CALLVALUE DUP1 ISZERO PUSH2 0x6F6 JUMPI PUSH0 PUSH0 REVERT JUMPDEST POP PUSH2 0x6FF PUSH2 0x1D10 JUMP JUMPDEST PUSH1 0x40 MLOAD PUSH2 0x70C SWAP2 SWAP1 PUSH2 0x406A JUMP JUMPDEST PUSH1 0x40 MLOAD DUP1 SWAP2 SUB SWAP1 RETURN JUMPDEST PUSH2 0x72F PUSH1 0x4 DUP1 CALLDATASIZE SUB DUP2 ADD SWAP1 PUSH2 0x72A SWAP2 SWAP1 PUSH2 0x41AF JUMP JUMPDEST PUSH2 0x1D16 JUMP JUMPDEST STOP JUMPDEST CALLVALUE DUP1 ISZERO PUSH2 0x73C JUMPI PUSH0 PUSH0 REVERT JUMPDEST POP PUSH2 0x757 PUSH1 0x4 DUP1 CALLDATASIZE SUB DUP2 ADD SWAP1 PUSH2 0x752 SWAP2 SWAP1 PUSH2 0x3F70 JUMP JUMPDEST PUSH2 0x1D67 JUMP JUMPDEST PUSH1 0x40 MLOAD PUSH2 0x764 SWAP2 SWAP1 PUSH2 0x3F1D JUMP JUMPDEST PUSH1 0x40 MLOAD DUP1 SWAP2 SUB SWAP1 RETURN JUMPDEST CALLVALUE DUP1 ISZERO PUSH2 0x778 JUMPI PUSH0 PUSH0 REVERT JUMPDEST POP PUSH2 0x781 PUSH2 0x1E49 JUMP JUMPDEST PUSH1 0x40 MLOAD PUSH2 0x78E SWAP2 SWAP1 PUSH2 0x406A JUMP JUMPDEST PUSH1 0x40 MLOAD DUP1 SWAP2 SUB SWAP1 RETURN JUMPDEST CALLVALUE DUP1 ISZERO PUSH2 0x7A2 JUMPI PUSH0 PUSH0 REVERT JUMPDEST POP PUSH2 0x7BD PUSH1 0x4 DUP1 CALLDATASIZE SUB DUP2 ADD SWAP1 PUSH2 0x7B8 SWAP2 SWAP1 PUSH2 0x4394 JUMP JUMPDEST PUSH2 0x1EBA JUMP JUMPDEST STOP JUMPDEST CALLVALUE DUP1 ISZERO PUSH2 0x7CA JUMPI PUSH0 PUSH0 REVERT JUMPDEST POP PUSH2 0x7E5 PUSH1 0x4 DUP1 CALLDATASIZE SUB DUP2 ADD SWAP1 PUSH2 0x7E0 SWAP2 SWAP1 PUSH2 0x4663 JUMP JUMPDEST PUSH2 0x1FFF JUMP JUMPDEST PUSH1 0x40 MLOAD PUSH2 0x7F2 SWAP2 SWAP1 PUSH2 0x3E94 JUMP JUMPDEST PUSH1 0x40 MLOAD DUP1 SWAP2 SUB SWAP1 RETURN JUMPDEST PUSH0 PUSH4 0x1FFC9A7 PUSH1 0xE0 SHL DUP3 PUSH28 0xFFFFFFFFFFFFFFFFFFFFFFFFFFFFFFFFFFFFFFFFFFFFFFFFFFFFFFFF NOT AND EQ DUP1 PUSH2 0x855 JUMPI POP PUSH4 0x80AC58CD PUSH1 0xE0 SHL DUP3 PUSH28 0xFFFFFFFFFFFFFFFFFFFFFFFFFFFFFFFFFFFFFFFFFFFFFFFFFFFFFFFF NOT AND EQ JUMPDEST DUP1 PUSH2 0x885 JUMPI POP PUSH4 0x5B5E139F PUSH1 0xE0 SHL DUP3 PUSH28 0xFFFFFFFFFFFFFFFFFFFFFFFFFFFFFFFFFFFFFFFFFFFFFFFFFFFFFFFF NOT AND EQ JUMPDEST SWAP1 POP SWAP2 SWAP1 POP JUMP JUMPDEST PUSH1 0x60 PUSH20 0x0 PUSH4 0x6FDDE03 PUSH1 0x40 MLOAD DUP2 PUSH4 0xFFFFFFFF AND PUSH1 0xE0 SHL DUP2 MSTORE PUSH1 0x4 ADD PUSH0 PUSH1 0x40 MLOAD DUP1 DUP4 SUB DUP2 DUP7 GAS DELEGATECALL ISZERO DUP1 ISZERO PUSH2 0x8D4 JUMPI RETURNDATASIZE PUSH0 PUSH0 RETURNDATACOPY RETURNDATASIZE PUSH0 REVERT JUMPDEST POP POP POP POP PUSH1 0x40 MLOAD RETURNDATASIZE PUSH0 DUP3 RETURNDATACOPY RETURNDATASIZE PUSH1 0x1F NOT PUSH1 0x1F DUP3 ADD AND DUP3 ADD DUP1 PUSH1 0x40 MSTORE POP DUP2 ADD SWAP1 PUSH2 0x8FC SWAP2 SWAP1 PUSH2 0x470F JUMP JUMPDEST SWAP1 POP SWAP1 JUMP JUMPDEST PUSH0 PUSH2 0x90B DUP3 PUSH2 0x2080 JUMP JUMPDEST PUSH2 0x920 JUMPI PUSH2 0x91F PUSH4 0xCF4700E4 PUSH1 0xE0 SHL PUSH2 0x2254 JUMP JUMPDEST JUMPDEST PUSH20 0x0 PUSH4 0xA7CC0136 DUP4 PUSH1 0x40 MLOAD DUP3 PUSH4 0xFFFFFFFF AND PUSH1 0xE0 SHL DUP2 MSTORE PUSH1 0x4 ADD PUSH2 0x957 SWAP2 SWAP1 PUSH2 0x4765 JUMP JUMPDEST PUSH1 0x20 PUSH1 0x40 MLOAD DUP1 DUP4 SUB DUP2 DUP7 GAS DELEGATECALL ISZERO DUP1 ISZERO PUSH2 0x972 JUMPI RETURNDATASIZE PUSH0 PUSH0 RETURNDATACOPY RETURNDATASIZE PUSH0 REVERT JUMPDEST POP POP POP POP PUSH1 0x40 MLOAD RETURNDATASIZE PUSH1 0x1F NOT PUSH1 0x1F DUP3 ADD AND DUP3 ADD DUP1 PUSH1 0x40 MSTORE POP DUP2 ADD SWAP1 PUSH2 0x996 SWAP2 SWAP1 PUSH2 0x47CF JUMP JUMPDEST PUSH0 ADD MLOAD SWAP1 POP SWAP2 SWAP1 POP JUMP JUMPDEST PUSH2 0x9AC DUP3 DUP3 PUSH1 0x1 PUSH2 0x225C JUMP JUMPDEST POP POP JUMP JUMPDEST PUSH2 0x4B0 DUP2 JUMP JUMPDEST PUSH0 PUSH4 0x150B7A02 PUSH1 0xE0 SHL SWAP1 POP SWAP5 SWAP4 POP POP POP POP JUMP JUMPDEST PUSH2 0x9D1 PUSH2 0x239A JUMP JUMPDEST PUSH20 0xFFFFFFFFFFFFFFFFFFFFFFFFFFFFFFFFFFFFFFFF AND PUSH20 0x0 PUSH4 0x893D20E8 PUSH1 0x40 MLOAD DUP2 PUSH4 0xFFFFFFFF AND PUSH1 0xE0 SHL DUP2 MSTORE PUSH1 0x4 ADD PUSH1 0x20 PUSH1 0x40 MLOAD DUP1 DUP4 SUB DUP2 DUP7 GAS DELEGATECALL ISZERO DUP1 ISZERO PUSH2 0xA2E JUMPI RETURNDATASIZE PUSH0 PUSH0 RETURNDATACOPY RETURNDATASIZE PUSH0 REVERT JUMPDEST POP POP POP POP PUSH1 0x40 MLOAD RETURNDATASIZE PUSH1 0x1F NOT PUSH1 0x1F DUP3 ADD AND DUP3 ADD DUP1 PUSH1 0x40 MSTORE POP DUP2 ADD SWAP1 PUSH2 0xA52 SWAP2 SWAP1 PUSH2 0x47FA JUMP JUMPDEST PUSH20 0xFFFFFFFFFFFFFFFFFFFFFFFFFFFFFFFFFFFFFFFF AND EQ PUSH2 0xAA8 JUMPI PUSH1 0x40 MLOAD PUSH32 0x8C379A000000000000000000000000000000000000000000000000000000000 DUP2 MSTORE PUSH1 0x4 ADD PUSH2 0xA9F SWAP1 PUSH2 0x486F JUMP JUMPDEST PUSH1 0x40 MLOAD DUP1 SWAP2 SUB SWAP1 REVERT JUMPDEST PUSH2 0xAF5 DUP4 DUP4 DUP4 DUP1 DUP1 PUSH1 0x1F ADD PUSH1 0x20 DUP1 SWAP2 DIV MUL PUSH1 0x20 ADD PUSH1 0x40 MLOAD SWAP1 DUP2 ADD PUSH1 0x40 MSTORE DUP1 SWAP4 SWAP3 SWAP2 SWAP1 DUP2 DUP2 MSTORE PUSH1 0x20 ADD DUP4 DUP4 DUP1 DUP3 DUP5 CALLDATACOPY PUSH0 DUP2 DUP5 ADD MSTORE PUSH1 0x1F NOT PUSH1 0x1F DUP3 ADD AND SWAP1 POP DUP1 DUP4 ADD SWAP3 POP POP POP POP POP POP POP PUSH2 0x23A1 JUMP JUMPDEST POP POP POP JUMP JUMPDEST PUSH0 PUSH2 0xB03 PUSH2 0x2441 JUMP JUMPDEST PUSH20 0x0 PUSH4 0x44FAF255 PUSH1 0x40 MLOAD DUP2 PUSH4 0xFFFFFFFF AND PUSH1 0xE0 SHL DUP2 MSTORE PUSH1 0x4 ADD PUSH1 0x20 PUSH1 0x40 MLOAD DUP1 DUP4 SUB DUP2 DUP7 GAS DELEGATECALL ISZERO DUP1 ISZERO PUSH2 0xB4A JUMPI RETURNDATASIZE PUSH0 PUSH0 RETURNDATACOPY RETURNDATASIZE PUSH0 REVERT JUMPDEST POP POP POP POP PUSH1 0x40 MLOAD RETURNDATASIZE PUSH1 0x1F NOT PUSH1 0x1F DUP3 ADD AND DUP3 ADD DUP1 PUSH1 0x40 MSTORE POP DUP2 ADD SWAP1 PUSH2 0xB6E SWAP2 SWAP1 PUSH2 0x48A1 JUMP JUMPDEST PUSH20 0x0 PUSH4 0x9451C99A PUSH1 0x40 MLOAD DUP2 PUSH4 0xFFFFFFFF AND PUSH1 0xE0 SHL DUP2 MSTORE PUSH1 0x4 ADD PUSH1 0x20 PUSH1 0x40 MLOAD DUP1 DUP4 SUB DUP2 DUP7 GAS DELEGATECALL ISZERO DUP1 ISZERO PUSH2 0xBB5 JUMPI RETURNDATASIZE PUSH0 PUSH0 RETURNDATACOPY RETURNDATASIZE PUSH0 REVERT JUMPDEST POP POP POP POP PUSH1 0x40 MLOAD RETURNDATASIZE PUSH1 0x1F NOT PUSH1 0x1F DUP3 ADD AND DUP3 ADD DUP1 PUSH1 0x40 MSTORE POP DUP2 ADD SWAP1 PUSH2 0xBD9 SWAP2 SWAP1 PUSH2 0x48A1 JUMP JUMPDEST SUB SUB SWAP1 POP PUSH32 0xFFFFFFFFFFFFFFFFFFFFFFFFFFFFFFFFFFFFFFFFFFFFFFFFFFFFFFFFFFFFFFFF PUSH2 0xC06 PUSH2 0x2449 JUMP JUMPDEST EQ PUSH2 0xC7B JUMPI PUSH20 0x0 PUSH4 0xD20B6EE7 PUSH1 0x40 MLOAD DUP2 PUSH4 0xFFFFFFFF AND PUSH1 0xE0 SHL DUP2 MSTORE PUSH1 0x4 ADD PUSH1 0x20 PUSH1 0x40 MLOAD DUP1 DUP4 SUB DUP2 DUP7 GAS DELEGATECALL ISZERO DUP1 ISZERO PUSH2 0xC52 JUMPI RETURNDATASIZE PUSH0 PUSH0 RETURNDATACOPY RETURNDATASIZE PUSH0 REVERT JUMPDEST POP POP POP POP PUSH1 0x40 MLOAD RETURNDATASIZE PUSH1 0x1F NOT PUSH1 0x1F DUP3 ADD AND DUP3 ADD DUP1 PUSH1 0x40 MSTORE POP DUP2 ADD SWAP1 PUSH2 0xC76 SWAP2 SWAP1 PUSH2 0x48A1 JUMP JUMPDEST DUP2 ADD SWAP1 POP JUMPDEST SWAP1 JUMP JUMPDEST PUSH2 0xC89 DUP4 DUP4 DUP4 PUSH2 0x2470 JUMP JUMPDEST PUSH2 0xC94 DUP4 DUP4 DUP4 PUSH2 0x2912 JUMP JUMPDEST POP POP POP JUMP JUMPDEST PUSH2 0xCA1 PUSH2 0x239A JUMP JUMPDEST PUSH20 0xFFFFFFFFFFFFFFFFFFFFFFFFFFFFFFFFFFFFFFFF AND PUSH20 0x0 PUSH4 0x893D20E8 PUSH1 0x40 MLOAD DUP2 PUSH4 0xFFFFFFFF AND PUSH1 0xE0 SHL DUP2 MSTORE PUSH1 0x4 ADD PUSH1 0x20 PUSH1 0x40 MLOAD DUP1 DUP4 SUB DUP2 DUP7 GAS DELEGATECALL ISZERO DUP1 ISZERO PUSH2 0xCFE JUMPI RETURNDATASIZE PUSH0 PUSH0 RETURNDATACOPY RETURNDATASIZE PUSH0 REVERT JUMPDEST POP POP POP POP PUSH1 0x40 MLOAD RETURNDATASIZE PUSH1 0x1F NOT PUSH1 0x1F DUP3 ADD AND DUP3 ADD DUP1 PUSH1 0x40 MSTORE POP DUP2 ADD SWAP1 PUSH2 0xD22 SWAP2 SWAP1 PUSH2 0x47FA JUMP JUMPDEST PUSH20 0xFFFFFFFFFFFFFFFFFFFFFFFFFFFFFFFFFFFFFFFF AND EQ PUSH2 0xD78 JUMPI PUSH1 0x40 MLOAD PUSH32 0x8C379A000000000000000000000000000000000000000000000000000000000 DUP2 MSTORE PUSH1 0x4 ADD PUSH2 0xD6F SWAP1 PUSH2 0x486F JUMP JUMPDEST PUSH1 0x40 MLOAD DUP1 SWAP2 SUB SWAP1 REVERT JUMPDEST POP JUMP JUMPDEST PUSH2 0xD83 PUSH2 0x239A JUMP JUMPDEST PUSH20 0xFFFFFFFFFFFFFFFFFFFFFFFFFFFFFFFFFFFFFFFF AND PUSH20 0x0 PUSH4 0x893D20E8 PUSH1 0x40 MLOAD DUP2 PUSH4 0xFFFFFFFF AND PUSH1 0xE0 SHL DUP2 MSTORE PUSH1 0x4 ADD PUSH1 0x20 PUSH1 0x40 MLOAD DUP1 DUP4 SUB DUP2 DUP7 GAS DELEGATECALL ISZERO DUP1 ISZERO PUSH2 0xDE0 JUMPI RETURNDATASIZE PUSH0 PUSH0 RETURNDATACOPY RETURNDATASIZE PUSH0 REVERT JUMPDEST POP POP POP POP PUSH1 0x40 MLOAD RETURNDATASIZE PUSH1 0x1F NOT PUSH1 0x1F DUP3 ADD AND DUP3 ADD DUP1 PUSH1 0x40 MSTORE POP DUP2 ADD SWAP1 PUSH2 0xE04 SWAP2 SWAP1 PUSH2 0x47FA JUMP JUMPDEST PUSH20 0xFFFFFFFFFFFFFFFFFFFFFFFFFFFFFFFFFFFFFFFF AND EQ PUSH2 0xE5A JUMPI PUSH1 0x40 MLOAD PUSH32 0x8C379A000000000000000000000000000000000000000000000000000000000 DUP2 MSTORE PUSH1 0x4 ADD PUSH2 0xE51 SWAP1 PUSH2 0x486F JUMP JUMPDEST PUSH1 0x40 MLOAD DUP1 SWAP2 SUB SWAP1 REVERT JUMPDEST PUSH2 0xE62 PUSH2 0x2A17 JUMP JUMPDEST PUSH0 CALLER PUSH20 0xFFFFFFFFFFFFFFFFFFFFFFFFFFFFFFFFFFFFFFFF AND SELFBALANCE PUSH1 0x40 MLOAD PUSH2 0xE87 SWAP1 PUSH2 0x48F9 JUMP JUMPDEST PUSH0 PUSH1 0x40 MLOAD DUP1 DUP4 SUB DUP2 DUP6 DUP8 GAS CALL SWAP3 POP POP POP RETURNDATASIZE DUP1 PUSH0 DUP2 EQ PUSH2 0xEC1 JUMPI PUSH1 0x40 MLOAD SWAP2 POP PUSH1 0x1F NOT PUSH1 0x3F RETURNDATASIZE ADD AND DUP3 ADD PUSH1 0x40 MSTORE RETURNDATASIZE DUP3 MSTORE RETURNDATASIZE PUSH0 PUSH1 0x20 DUP5 ADD RETURNDATACOPY PUSH2 0xEC6 JUMP JUMPDEST PUSH1 0x60 SWAP2 POP JUMPDEST POP POP SWAP1 POP DUP1 PUSH2 0xF0A JUMPI PUSH1 0x40 MLOAD PUSH32 0x8C379A000000000000000000000000000000000000000000000000000000000 DUP2 MSTORE PUSH1 0x4 ADD PUSH2 0xF01 SWAP1 PUSH2 0x4957 JUMP JUMPDEST PUSH1 0x40 MLOAD DUP1 SWAP2 SUB SWAP1 REVERT JUMPDEST POP PUSH2 0xF13 PUSH2 0x2A64 JUMP JUMPDEST JUMP JUMPDEST PUSH2 0xF2F DUP4 DUP4 DUP4 PUSH1 0x40 MLOAD DUP1 PUSH1 0x20 ADD PUSH1 0x40 MSTORE DUP1 PUSH0 DUP2 MSTORE POP PUSH2 0x1D16 JUMP JUMPDEST POP POP POP JUMP JUMPDEST PUSH2 0xF3C PUSH2 0x2A17 JUMP JUMPDEST PUSH0 PUSH2 0xF45 PUSH2 0x2A6D JUMP JUMPDEST SWAP1 POP PUSH2 0x4B0 DUP2 LT ISZERO PUSH2 0xF8C JUMPI PUSH1 0x40 MLOAD PUSH32 0x8C379A000000000000000000000000000000000000000000000000000000000 DUP2 MSTORE PUSH1 0x4 ADD PUSH2 0xF83 SWAP1 PUSH2 0x49BF JUMP JUMPDEST PUSH1 0x40 MLOAD DUP1 SWAP2 SUB SWAP1 REVERT JUMPDEST PUSH2 0x1388 DUP2 LT PUSH2 0xFD0 JUMPI PUSH1 0x40 MLOAD PUSH32 0x8C379A000000000000000000000000000000000000000000000000000000000 DUP2 MSTORE PUSH1 0x4 ADD PUSH2 0xFC7 SWAP1 PUSH2 0x4A27 JUMP JUMPDEST PUSH1 0x40 MLOAD DUP1 SWAP2 SUB SWAP1 REVERT JUMPDEST PUSH0 ISZERO ISZERO PUSH20 0x0 PUSH4 0xB62D8B91 DUP7 PUSH1 0x40 MLOAD DUP3 PUSH4 0xFFFFFFFF AND PUSH1 0xE0 SHL DUP2 MSTORE PUSH1 0x4 ADD PUSH2 0x100A SWAP2 SWAP1 PUSH2 0x4A54 JUMP JUMPDEST PUSH1 0x20 PUSH1 0x40 MLOAD DUP1 DUP4 SUB DUP2 DUP7 GAS DELEGATECALL ISZERO DUP1 ISZERO PUSH2 0x1025 JUMPI RETURNDATASIZE PUSH0 PUSH0 RETURNDATACOPY RETURNDATASIZE PUSH0 REVERT JUMPDEST POP POP POP POP PUSH1 0x40 MLOAD RETURNDATASIZE PUSH1 0x1F NOT PUSH1 0x1F DUP3 ADD AND DUP3 ADD DUP1 PUSH1 0x40 MSTORE POP DUP2 ADD SWAP1 PUSH2 0x1049 SWAP2 SWAP1 PUSH2 0x4A81 JUMP JUMPDEST ISZERO ISZERO EQ PUSH2 0x108B JUMPI PUSH1 0x40 MLOAD PUSH32 0x8C379A000000000000000000000000000000000000000000000000000000000 DUP2 MSTORE PUSH1 0x4 ADD PUSH2 0x1082 SWAP1 PUSH2 0x4AF6 JUMP JUMPDEST PUSH1 0x40 MLOAD DUP1 SWAP2 SUB SWAP1 REVERT JUMPDEST PUSH20 0x0 PUSH4 0xDDCA3F43 PUSH1 0x40 MLOAD DUP2 PUSH4 0xFFFFFFFF AND PUSH1 0xE0 SHL DUP2 MSTORE PUSH1 0x4 ADD PUSH1 0x20 PUSH1 0x40 MLOAD DUP1 DUP4 SUB DUP2 DUP7 GAS DELEGATECALL ISZERO DUP1 ISZERO PUSH2 0x10D2 JUMPI RETURNDATASIZE PUSH0 PUSH0 RETURNDATACOPY RETURNDATASIZE PUSH0 REVERT JUMPDEST POP POP POP POP PUSH1 0x40 MLOAD RETURNDATASIZE PUSH1 0x1F NOT PUSH1 0x1F DUP3 ADD AND DUP3 ADD DUP1 PUSH1 0x40 MSTORE POP DUP2 ADD SWAP1 PUSH2 0x10F6 SWAP2 SWAP1 PUSH2 0x48A1 JUMP JUMPDEST CALLVALUE EQ PUSH2 0x1137 JUMPI PUSH1 0x40 MLOAD PUSH32 0x8C379A000000000000000000000000000000000000000000000000000000000 DUP2 MSTORE PUSH1 0x4 ADD PUSH2 0x112E SWAP1 PUSH2 0x4B5E JUMP JUMPDEST PUSH1 0x40 MLOAD DUP1 SWAP2 SUB SWAP1 REVERT JUMPDEST PUSH0 DUP5 PUSH1 0x40 MLOAD PUSH1 0x20 ADD PUSH2 0x1149 SWAP2 SWAP1 PUSH2 0x4BC1 JUMP JUMPDEST PUSH1 0x40 MLOAD PUSH1 0x20 DUP2 DUP4 SUB SUB DUP2 MSTORE SWAP1 PUSH1 0x40 MSTORE DUP1 MLOAD SWAP1 PUSH1 0x20 ADD KECCAK256 SWAP1 POP PUSH0 PUSH2 0x1217 DUP6 DUP6 DUP1 DUP1 PUSH1 0x20 MUL PUSH1 0x20 ADD PUSH1 0x40 MLOAD SWAP1 DUP2 ADD PUSH1 0x40 MSTORE DUP1 SWAP4 SWAP3 SWAP2 SWAP1 DUP2 DUP2 MSTORE PUSH1 0x20 ADD DUP4 DUP4 PUSH1 0x20 MUL DUP1 DUP3 DUP5 CALLDATACOPY PUSH0 DUP2 DUP5 ADD MSTORE PUSH1 0x1F NOT PUSH1 0x1F DUP3 ADD AND SWAP1 POP DUP1 DUP4 ADD SWAP3 POP POP POP POP POP POP POP PUSH20 0x0 PUSH4 0xF589B754 PUSH1 0x40 MLOAD DUP2 PUSH4 0xFFFFFFFF AND PUSH1 0xE0 SHL DUP2 MSTORE PUSH1 0x4 ADD PUSH1 0x20 PUSH1 0x40 MLOAD DUP1 DUP4 SUB DUP2 DUP7 GAS DELEGATECALL ISZERO DUP1 ISZERO PUSH2 0x11ED JUMPI RETURNDATASIZE PUSH0 PUSH0 RETURNDATACOPY RETURNDATASIZE PUSH0 REVERT JUMPDEST POP POP POP POP PUSH1 0x40 MLOAD RETURNDATASIZE PUSH1 0x1F NOT PUSH1 0x1F DUP3 ADD AND DUP3 ADD DUP1 PUSH1 0x40 MSTORE POP DUP2 ADD SWAP1 PUSH2 0x1211 SWAP2 SWAP1 PUSH2 0x4BEF JUMP JUMPDEST DUP5 PUSH2 0x2ADE JUMP JUMPDEST SWAP1 POP PUSH1 0x1 ISZERO ISZERO DUP2 ISZERO ISZERO EQ PUSH2 0x1260 JUMPI PUSH1 0x40 MLOAD PUSH32 0x8C379A000000000000000000000000000000000000000000000000000000000 DUP2 MSTORE PUSH1 0x4 ADD PUSH2 0x1257 SWAP1 PUSH2 0x4C64 JUMP JUMPDEST PUSH1 0x40 MLOAD DUP1 SWAP2 SUB SWAP1 REVERT JUMPDEST PUSH20 0x0 PUSH4 0xB0D4CE25 DUP8 PUSH1 0x1 PUSH1 0x40 MLOAD DUP4 PUSH4 0xFFFFFFFF AND PUSH1 0xE0 SHL DUP2 MSTORE PUSH1 0x4 ADD PUSH2 0x129A SWAP3 SWAP2 SWAP1 PUSH2 0x4C91 JUMP JUMPDEST PUSH0 PUSH1 0x40 MLOAD DUP1 DUP4 SUB DUP2 DUP7 DUP1 EXTCODESIZE ISZERO DUP1 ISZERO PUSH2 0x12B0 JUMPI PUSH0 PUSH0 REVERT JUMPDEST POP GAS DELEGATECALL ISZERO DUP1 ISZERO PUSH2 0x12C2 JUMPI RETURNDATASIZE PUSH0 PUSH0 RETURNDATACOPY RETURNDATASIZE PUSH0 REVERT JUMPDEST POP POP POP POP PUSH2 0x12D1 DUP7 PUSH1 0x1 PUSH2 0x2AF4 JUMP JUMPDEST PUSH2 0x12E3 DUP4 PUSH2 0x12DE DUP6 PUSH2 0x2B11 JUMP JUMPDEST PUSH2 0x23A1 JUMP JUMPDEST PUSH2 0x12EE PUSH0 DUP8 DUP6 PUSH2 0x2912 JUMP JUMPDEST POP POP POP PUSH2 0x12F9 PUSH2 0x2A64 JUMP JUMPDEST POP POP POP JUMP JUMPDEST PUSH2 0x1306 PUSH2 0x239A JUMP JUMPDEST PUSH20 0xFFFFFFFFFFFFFFFFFFFFFFFFFFFFFFFFFFFFFFFF AND PUSH20 0x0 PUSH4 0x893D20E8 PUSH1 0x40 MLOAD DUP2 PUSH4 0xFFFFFFFF AND PUSH1 0xE0 SHL DUP2 MSTORE PUSH1 0x4 ADD PUSH1 0x20 PUSH1 0x40 MLOAD DUP1 DUP4 SUB DUP2 DUP7 GAS DELEGATECALL ISZERO DUP1 ISZERO PUSH2 0x1363 JUMPI RETURNDATASIZE PUSH0 PUSH0 RETURNDATACOPY RETURNDATASIZE PUSH0 REVERT JUMPDEST POP POP POP POP PUSH1 0x40 MLOAD RETURNDATASIZE PUSH1 0x1F NOT PUSH1 0x1F DUP3 ADD AND DUP3 ADD DUP1 PUSH1 0x40 MSTORE POP DUP2 ADD SWAP1 PUSH2 0x1387 SWAP2 SWAP1 PUSH2 0x47FA JUMP JUMPDEST PUSH20 0xFFFFFFFFFFFFFFFFFFFFFFFFFFFFFFFFFFFFFFFF AND EQ PUSH2 0x13DD JUMPI PUSH1 0x40 MLOAD PUSH32 0x8C379A000000000000000000000000000000000000000000000000000000000 DUP2 MSTORE PUSH1 0x4 ADD PUSH2 0x13D4 SWAP1 PUSH2 0x486F JUMP JUMPDEST PUSH1 0x40 MLOAD DUP1 SWAP2 SUB SWAP1 REVERT JUMPDEST PUSH20 0x0 PUSH4 0x247C6CE0 DUP3 PUSH1 0x40 MLOAD DUP3 PUSH4 0xFFFFFFFF AND PUSH1 0xE0 SHL DUP2 MSTORE PUSH1 0x4 ADD PUSH2 0x1414 SWAP2 SWAP1 PUSH2 0x4CC7 JUMP JUMPDEST PUSH0 PUSH1 0x40 MLOAD DUP1 DUP4 SUB DUP2 DUP7 DUP1 EXTCODESIZE ISZERO DUP1 ISZERO PUSH2 0x142A JUMPI PUSH0 PUSH0 REVERT JUMPDEST POP GAS DELEGATECALL ISZERO DUP1 ISZERO PUSH2 0x143C JUMPI RETURNDATASIZE PUSH0 PUSH0 RETURNDATACOPY RETURNDATASIZE PUSH0 REVERT JUMPDEST POP POP POP POP POP JUMP JUMPDEST PUSH0 PUSH20 0x0 PUSH4 0xE149F036 DUP5 DUP5 PUSH1 0x40 MLOAD DUP4 PUSH4 0xFFFFFFFF AND PUSH1 0xE0 SHL DUP2 MSTORE PUSH1 0x4 ADD PUSH2 0x147D SWAP3 SWAP2 SWAP1 PUSH2 0x4CE0 JUMP JUMPDEST PUSH1 0x20 PUSH1 0x40 MLOAD DUP1 DUP4 SUB DUP2 DUP7 GAS DELEGATECALL ISZERO DUP1 ISZERO PUSH2 0x1498 JUMPI RETURNDATASIZE PUSH0 PUSH0 RETURNDATACOPY RETURNDATASIZE PUSH0 REVERT JUMPDEST POP POP POP POP PUSH1 0x40 MLOAD RETURNDATASIZE PUSH1 0x1F NOT PUSH1 0x1F DUP3 ADD AND DUP3 ADD DUP1 PUSH1 0x40 MSTORE POP DUP2 ADD SWAP1 PUSH2 0x14BC SWAP2 SWAP1 PUSH2 0x48A1 JUMP JUMPDEST SWAP1 POP SWAP3 SWAP2 POP POP JUMP JUMPDEST PUSH0 PUSH2 0x14CE DUP3 PUSH2 0x2080 JUMP JUMPDEST SWAP1 POP SWAP2 SWAP1 POP JUMP JUMPDEST PUSH2 0x14DD PUSH2 0x239A JUMP JUMPDEST PUSH20 0xFFFFFFFFFFFFFFFFFFFFFFFFFFFFFFFFFFFFFFFF AND PUSH20 0x0 PUSH4 0x893D20E8 PUSH1 0x40 MLOAD DUP2 PUSH4 0xFFFFFFFF AND PUSH1 0xE0 SHL DUP2 MSTORE PUSH1 0x4 ADD PUSH1 0x20 PUSH1 0x40 MLOAD DUP1 DUP4 SUB DUP2 DUP7 GAS DELEGATECALL ISZERO DUP1 ISZERO PUSH2 0x153A JUMPI RETURNDATASIZE PUSH0 PUSH0 RETURNDATACOPY RETURNDATASIZE PUSH0 REVERT JUMPDEST POP POP POP POP PUSH1 0x40 MLOAD RETURNDATASIZE PUSH1 0x1F NOT PUSH1 0x1F DUP3 ADD AND DUP3 ADD DUP1 PUSH1 0x40 MSTORE POP DUP2 ADD SWAP1 PUSH2 0x155E SWAP2 SWAP1 PUSH2 0x47FA JUMP JUMPDEST PUSH20 0xFFFFFFFFFFFFFFFFFFFFFFFFFFFFFFFFFFFFFFFF AND EQ PUSH2 0x15B4 JUMPI PUSH1 0x40 MLOAD PUSH32 0x8C379A000000000000000000000000000000000000000000000000000000000 DUP2 MSTORE PUSH1 0x4 ADD PUSH2 0x15AB SWAP1 PUSH2 0x486F JUMP JUMPDEST PUSH1 0x40 MLOAD DUP1 SWAP2 SUB SWAP1 REVERT JUMPDEST PUSH20 0x0 PUSH4 0xA05CC559 DUP4 DUP4 PUSH1 0x40 MLOAD DUP4 PUSH4 0xFFFFFFFF AND PUSH1 0xE0 SHL DUP2 MSTORE PUSH1 0x4 ADD PUSH2 0x15ED SWAP3 SWAP2 SWAP1 PUSH2 0x4D43 JUMP JUMPDEST PUSH0 PUSH1 0x40 MLOAD DUP1 DUP4 SUB DUP2 DUP7 DUP1 EXTCODESIZE ISZERO DUP1 ISZERO PUSH2 0x1603 JUMPI PUSH0 PUSH0 REVERT JUMPDEST POP GAS DELEGATECALL ISZERO DUP1 ISZERO PUSH2 0x1615 JUMPI RETURNDATASIZE PUSH0 PUSH0 RETURNDATACOPY RETURNDATASIZE PUSH0 REVERT JUMPDEST POP POP POP POP POP POP JUMP JUMPDEST PUSH0 PUSH2 0x1627 DUP3 PUSH2 0x2C14 JUMP JUMPDEST SWAP1 POP SWAP2 SWAP1 POP JUMP JUMPDEST PUSH2 0x1636 PUSH2 0x239A JUMP JUMPDEST PUSH20 0xFFFFFFFFFFFFFFFFFFFFFFFFFFFFFFFFFFFFFFFF AND PUSH20 0x0 PUSH4 0x893D20E8 PUSH1 0x40 MLOAD DUP2 PUSH4 0xFFFFFFFF AND PUSH1 0xE0 SHL DUP2 MSTORE PUSH1 0x4 ADD PUSH1 0x20 PUSH1 0x40 MLOAD DUP1 DUP4 SUB DUP2 DUP7 GAS DELEGATECALL ISZERO DUP1 ISZERO PUSH2 0x1693 JUMPI RETURNDATASIZE PUSH0 PUSH0 RETURNDATACOPY RETURNDATASIZE PUSH0 REVERT JUMPDEST POP POP POP POP PUSH1 0x40 MLOAD RETURNDATASIZE PUSH1 0x1F NOT PUSH1 0x1F DUP3 ADD AND DUP3 ADD DUP1 PUSH1 0x40 MSTORE POP DUP2 ADD SWAP1 PUSH2 0x16B7 SWAP2 SWAP1 PUSH2 0x47FA JUMP JUMPDEST PUSH20 0xFFFFFFFFFFFFFFFFFFFFFFFFFFFFFFFFFFFFFFFF AND EQ PUSH2 0x170D JUMPI PUSH1 0x40 MLOAD PUSH32 0x8C379A000000000000000000000000000000000000000000000000000000000 DUP2 MSTORE PUSH1 0x4 ADD PUSH2 0x1704 SWAP1 PUSH2 0x486F JUMP JUMPDEST PUSH1 0x40 MLOAD DUP1 SWAP2 SUB SWAP1 REVERT JUMPDEST PUSH20 0x0 PUSH4 0x39B37AB0 DUP3 PUSH1 0x40 MLOAD DUP3 PUSH4 0xFFFFFFFF AND PUSH1 0xE0 SHL DUP2 MSTORE PUSH1 0x4 ADD PUSH2 0x1744 SWAP2 SWAP1 PUSH2 0x4765 JUMP JUMPDEST PUSH0 PUSH1 0x40 MLOAD DUP1 DUP4 SUB DUP2 DUP7 DUP1 EXTCODESIZE ISZERO DUP1 ISZERO PUSH2 0x175A JUMPI PUSH0 PUSH0 REVERT JUMPDEST POP GAS DELEGATECALL ISZERO DUP1 ISZERO PUSH2 0x176C JUMPI RETURNDATASIZE PUSH0 PUSH0 RETURNDATACOPY RETURNDATASIZE PUSH0 REVERT JUMPDEST POP POP POP POP POP JUMP JUMPDEST PUSH1 0x60 PUSH20 0x0 PUSH4 0xD547CFB7 PUSH1 0x40 MLOAD DUP2 PUSH4 0xFFFFFFFF AND PUSH1 0xE0 SHL DUP2 MSTORE PUSH1 0x4 ADD PUSH0 PUSH1 0x40 MLOAD DUP1 DUP4 SUB DUP2 DUP7 GAS DELEGATECALL ISZERO DUP1 ISZERO PUSH2 0x17BB JUMPI RETURNDATASIZE PUSH0 PUSH0 RETURNDATACOPY RETURNDATASIZE PUSH0 REVERT JUMPDEST POP POP POP POP PUSH1 0x40 MLOAD RETURNDATASIZE PUSH0 DUP3 RETURNDATACOPY RETURNDATASIZE PUSH1 0x1F NOT PUSH1 0x1F DUP3 ADD AND DUP3 ADD DUP1 PUSH1 0x40 MSTORE POP DUP2 ADD SWAP1 PUSH2 0x17E3 SWAP2 SWAP1 PUSH2 0x470F JUMP JUMPDEST SWAP1 POP SWAP1 JUMP JUMPDEST PUSH2 0x17F0 PUSH2 0x239A JUMP JUMPDEST PUSH20 0xFFFFFFFFFFFFFFFFFFFFFFFFFFFFFFFFFFFFFFFF AND PUSH20 0x0 PUSH4 0x893D20E8 PUSH1 0x40 MLOAD DUP2 PUSH4 0xFFFFFFFF AND PUSH1 0xE0 SHL DUP2 MSTORE PUSH1 0x4 ADD PUSH1 0x20 PUSH1 0x40 MLOAD DUP1 DUP4 SUB DUP2 DUP7 GAS DELEGATECALL ISZERO DUP1 ISZERO PUSH2 0x184D JUMPI RETURNDATASIZE PUSH0 PUSH0 RETURNDATACOPY RETURNDATASIZE PUSH0 REVERT JUMPDEST POP POP POP POP PUSH1 0x40 MLOAD RETURNDATASIZE PUSH1 0x1F NOT PUSH1 0x1F DUP3 ADD AND DUP3 ADD DUP1 PUSH1 0x40 MSTORE POP DUP2 ADD SWAP1 PUSH2 0x1871 SWAP2 SWAP1 PUSH2 0x47FA JUMP JUMPDEST PUSH20 0xFFFFFFFFFFFFFFFFFFFFFFFFFFFFFFFFFFFFFFFF AND EQ PUSH2 0x18C7 JUMPI PUSH1 0x40 MLOAD PUSH32 0x8C379A000000000000000000000000000000000000000000000000000000000 DUP2 MSTORE PUSH1 0x4 ADD PUSH2 0x18BE SWAP1 PUSH2 0x486F JUMP JUMPDEST PUSH1 0x40 MLOAD DUP1 SWAP2 SUB SWAP1 REVERT JUMPDEST PUSH2 0x18D1 DUP3 DUP3 PUSH2 0x2E54 JUMP JUMPDEST POP POP JUMP JUMPDEST PUSH0 PUSH0 PUSH20 0xFFFFFFFFFFFFFFFFFFFFFFFFFFFFFFFFFFFFFFFF AND DUP3 PUSH20 0xFFFFFFFFFFFFFFFFFFFFFFFFFFFFFFFFFFFFFFFF AND SUB PUSH2 0x191A JUMPI PUSH2 0x1919 PUSH4 0x8F4EB604 PUSH1 0xE0 SHL PUSH2 0x2254 JUMP JUMPDEST JUMPDEST PUSH8 0xFFFFFFFFFFFFFFFF PUSH20 0x0 PUSH4 0x21B0ED7D DUP5 PUSH1 0x40 MLOAD DUP3 PUSH4 0xFFFFFFFF AND PUSH1 0xE0 SHL DUP2 MSTORE PUSH1 0x4 ADD PUSH2 0x195A SWAP2 SWAP1 PUSH2 0x4A54 JUMP JUMPDEST PUSH1 0x20 PUSH1 0x40 MLOAD DUP1 DUP4 SUB DUP2 DUP7 GAS DELEGATECALL ISZERO DUP1 ISZERO PUSH2 0x1975 JUMPI RETURNDATASIZE PUSH0 PUSH0 RETURNDATACOPY RETURNDATASIZE PUSH0 REVERT JUMPDEST POP POP POP POP PUSH1 0x40 MLOAD RETURNDATASIZE PUSH1 0x1F NOT PUSH1 0x1F DUP3 ADD AND DUP3 ADD DUP1 PUSH1 0x40 MSTORE POP DUP2 ADD SWAP1 PUSH2 0x1999 SWAP2 SWAP1 PUSH2 0x48A1 JUMP JUMPDEST AND SWAP1 POP SWAP2 SWAP1 POP JUMP JUMPDEST PUSH0 PUSH20 0x0 PUSH4 0x9451C99A PUSH1 0x40 MLOAD DUP2 PUSH4 0xFFFFFFFF AND PUSH1 0xE0 SHL DUP2 MSTORE PUSH1 0x4 ADD PUSH1 0x20 PUSH1 0x40 MLOAD DUP1 DUP4 SUB DUP2 DUP7 GAS DELEGATECALL ISZERO DUP1 ISZERO PUSH2 0x19E9 JUMPI RETURNDATASIZE PUSH0 PUSH0 RETURNDATACOPY RETURNDATASIZE PUSH0 REVERT JUMPDEST POP POP POP POP PUSH1 0x40 MLOAD RETURNDATASIZE PUSH1 0x1F NOT PUSH1 0x1F DUP3 ADD AND DUP3 ADD DUP1 PUSH1 0x40 MSTORE POP DUP2 ADD SWAP1 PUSH2 0x1A0D SWAP2 SWAP1 PUSH2 0x48A1 JUMP JUMPDEST SWAP1 POP SWAP1 JUMP JUMPDEST PUSH32 0x0 DUP2 JUMP JUMPDEST PUSH2 0x61A8 DUP2 JUMP JUMPDEST PUSH1 0x60 PUSH20 0x0 PUSH4 0x95D89B41 PUSH1 0x40 MLOAD DUP2 PUSH4 0xFFFFFFFF AND PUSH1 0xE0 SHL DUP2 MSTORE PUSH1 0x4 ADD PUSH0 PUSH1 0x40 MLOAD DUP1 DUP4 SUB DUP2 DUP7 GAS DELEGATECALL ISZERO DUP1 ISZERO PUSH2 0x1A84 JUMPI RETURNDATASIZE PUSH0 PUSH0 RETURNDATACOPY RETURNDATASIZE PUSH0 REVERT JUMPDEST POP POP POP POP PUSH1 0x40 MLOAD RETURNDATASIZE PUSH0 DUP3 RETURNDATACOPY RETURNDATASIZE PUSH1 0x1F NOT PUSH1 0x1F DUP3 ADD AND DUP3 ADD DUP1 PUSH1 0x40 MSTORE POP DUP2 ADD SWAP1 PUSH2 0x1AAC SWAP2 SWAP1 PUSH2 0x470F JUMP JUMPDEST SWAP1 POP SWAP1 JUMP JUMPDEST PUSH1 0x40 MLOAD DUP1 PUSH1 0x40 ADD PUSH1 0x40 MSTORE DUP1 PUSH1 0xC DUP2 MSTORE PUSH1 0x20 ADD PUSH32 0x534D454C6567656E646172790000000000000000000000000000000000000000 DUP2 MSTORE POP DUP2 JUMP JUMPDEST PUSH2 0x1AF2 PUSH2 0x239A JUMP JUMPDEST PUSH20 0xFFFFFFFFFFFFFFFFFFFFFFFFFFFFFFFFFFFFFFFF AND PUSH20 0x0 PUSH4 0x893D20E8 PUSH1 0x40 MLOAD DUP2 PUSH4 0xFFFFFFFF AND PUSH1 0xE0 SHL DUP2 MSTORE PUSH1 0x4 ADD PUSH1 0x20 PUSH1 0x40 MLOAD DUP1 DUP4 SUB DUP2 DUP7 GAS DELEGATECALL ISZERO DUP1 ISZERO PUSH2 0x1B4F JUMPI RETURNDATASIZE PUSH0 PUSH0 RETURNDATACOPY RETURNDATASIZE PUSH0 REVERT JUMPDEST POP POP POP POP PUSH1 0x40 MLOAD RETURNDATASIZE PUSH1 0x1F NOT PUSH1 0x1F DUP3 ADD AND DUP3 ADD DUP1 PUSH1 0x40 MSTORE POP DUP2 ADD SWAP1 PUSH2 0x1B73 SWAP2 SWAP1 PUSH2 0x47FA JUMP JUMPDEST PUSH20 0xFFFFFFFFFFFFFFFFFFFFFFFFFFFFFFFFFFFFFFFF AND EQ PUSH2 0x1BC9 JUMPI PUSH1 0x40 MLOAD PUSH32 0x8C379A000000000000000000000000000000000000000000000000000000000 DUP2 MSTORE PUSH1 0x4 ADD PUSH2 0x1BC0 SWAP1 PUSH2 0x486F JUMP JUMPDEST PUSH1 0x40 MLOAD DUP1 SWAP2 SUB SWAP1 REVERT JUMPDEST PUSH20 0x0 PUSH4 0x821ABC2D DUP4 DUP4 PUSH1 0x40 MLOAD DUP4 PUSH4 0xFFFFFFFF AND PUSH1 0xE0 SHL DUP2 MSTORE PUSH1 0x4 ADD PUSH2 0x1C02 SWAP3 SWAP2 SWAP1 PUSH2 0x4D43 JUMP JUMPDEST PUSH0 PUSH1 0x40 MLOAD DUP1 DUP4 SUB DUP2 DUP7 DUP1 EXTCODESIZE ISZERO DUP1 ISZERO PUSH2 0x1C18 JUMPI PUSH0 PUSH0 REVERT JUMPDEST POP GAS DELEGATECALL ISZERO DUP1 ISZERO PUSH2 0x1C2A JUMPI RETURNDATASIZE PUSH0 PUSH0 RETURNDATACOPY RETURNDATASIZE PUSH0 REVERT JUMPDEST POP POP POP POP POP POP JUMP JUMPDEST PUSH20 0x0 PUSH4 0x830D4091 PUSH2 0x1C54 PUSH2 0x3191 JUMP JUMPDEST DUP5 DUP5 PUSH1 0x40 MLOAD DUP5 PUSH4 0xFFFFFFFF AND PUSH1 0xE0 SHL DUP2 MSTORE PUSH1 0x4 ADD PUSH2 0x1C74 SWAP4 SWAP3 SWAP2 SWAP1 PUSH2 0x4D65 JUMP JUMPDEST PUSH0 PUSH1 0x40 MLOAD DUP1 DUP4 SUB DUP2 DUP7 DUP1 EXTCODESIZE ISZERO DUP1 ISZERO PUSH2 0x1C8A JUMPI PUSH0 PUSH0 REVERT JUMPDEST POP GAS DELEGATECALL ISZERO DUP1 ISZERO PUSH2 0x1C9C JUMPI RETURNDATASIZE PUSH0 PUSH0 RETURNDATACOPY RETURNDATASIZE PUSH0 REVERT JUMPDEST POP POP POP POP DUP2 PUSH20 0xFFFFFFFFFFFFFFFFFFFFFFFFFFFFFFFFFFFFFFFF AND PUSH2 0x1CBF PUSH2 0x3191 JUMP JUMPDEST PUSH20 0xFFFFFFFFFFFFFFFFFFFFFFFFFFFFFFFFFFFFFFFF AND PUSH32 0x17307EAB39AB6107E8899845AD3D59BD9653F200F220920489CA2B5937696C31 DUP4 PUSH1 0x40 MLOAD PUSH2 0x1D04 SWAP2 SWAP1 PUSH2 0x3E94 JUMP JUMPDEST PUSH1 0x40 MLOAD DUP1 SWAP2 SUB SWAP1 LOG3 POP POP JUMP JUMPDEST PUSH2 0x1388 DUP2 JUMP JUMPDEST PUSH2 0x1D21 DUP5 DUP5 DUP5 PUSH2 0xC7E JUMP JUMPDEST PUSH0 DUP4 PUSH20 0xFFFFFFFFFFFFFFFFFFFFFFFFFFFFFFFFFFFFFFFF AND EXTCODESIZE EQ PUSH2 0x1D61 JUMPI PUSH2 0x1D4B DUP5 DUP5 DUP5 DUP5 PUSH2 0x3198 JUMP JUMPDEST PUSH2 0x1D60 JUMPI PUSH2 0x1D5F PUSH4 0xD1A57ED6 PUSH1 0xE0 SHL PUSH2 0x2254 JUMP JUMPDEST JUMPDEST JUMPDEST POP POP POP POP JUMP JUMPDEST PUSH1 0x60 PUSH0 PUSH20 0x0 PUSH4 0x6C8B703F DUP5 PUSH1 0x40 MLOAD DUP3 PUSH4 0xFFFFFFFF AND PUSH1 0xE0 SHL DUP2 MSTORE PUSH1 0x4 ADD PUSH2 0x1DA1 SWAP2 SWAP1 PUSH2 0x4765 JUMP JUMPDEST PUSH0 PUSH1 0x40 MLOAD DUP1 DUP4 SUB DUP2 DUP7 GAS DELEGATECALL ISZERO DUP1 ISZERO PUSH2 0x1DBB JUMPI RETURNDATASIZE PUSH0 PUSH0 RETURNDATACOPY RETURNDATASIZE PUSH0 REVERT JUMPDEST POP POP POP POP PUSH1 0x40 MLOAD RETURNDATASIZE PUSH0 DUP3 RETURNDATACOPY RETURNDATASIZE PUSH1 0x1F NOT PUSH1 0x1F DUP3 ADD AND DUP3 ADD DUP1 PUSH1 0x40 MSTORE POP DUP2 ADD SWAP1 PUSH2 0x1DE3 SWAP2 SWAP1 PUSH2 0x470F JUMP JUMPDEST SWAP1 POP PUSH0 PUSH2 0x1DEE PUSH2 0x32C2 JUMP JUMPDEST SWAP1 POP PUSH0 DUP2 MLOAD SUB PUSH2 0x1E02 JUMPI DUP2 SWAP3 POP POP POP PUSH2 0x1E44 JUMP JUMPDEST PUSH0 DUP3 MLOAD GT ISZERO PUSH2 0x1E36 JUMPI DUP1 DUP3 PUSH1 0x40 MLOAD PUSH1 0x20 ADD PUSH2 0x1E1E SWAP3 SWAP2 SWAP1 PUSH2 0x4DD4 JUMP JUMPDEST PUSH1 0x40 MLOAD PUSH1 0x20 DUP2 DUP4 SUB SUB DUP2 MSTORE SWAP1 PUSH1 0x40 MSTORE SWAP3 POP POP POP PUSH2 0x1E44 JUMP JUMPDEST PUSH2 0x1E3F DUP5 PUSH2 0x32D8 JUMP JUMPDEST SWAP3 POP POP POP JUMPDEST SWAP2 SWAP1 POP JUMP JUMPDEST PUSH0 PUSH20 0x0 PUSH4 0xDDCA3F43 PUSH1 0x40 MLOAD DUP2 PUSH4 0xFFFFFFFF AND PUSH1 0xE0 SHL DUP2 MSTORE PUSH1 0x4 ADD PUSH1 0x20 PUSH1 0x40 MLOAD DUP1 DUP4 SUB DUP2 DUP7 GAS DELEGATECALL ISZERO DUP1 ISZERO PUSH2 0x1E91 JUMPI RETURNDATASIZE PUSH0 PUSH0 RETURNDATACOPY RETURNDATASIZE PUSH0 REVERT JUMPDEST POP POP POP POP PUSH1 0x40 MLOAD RETURNDATASIZE PUSH1 0x1F NOT PUSH1 0x1F DUP3 ADD AND DUP3 ADD DUP1 PUSH1 0x40 MSTORE POP DUP2 ADD SWAP1 PUSH2 0x1EB5 SWAP2 SWAP1 PUSH2 0x48A1 JUMP JUMPDEST SWAP1 POP SWAP1 JUMP JUMPDEST PUSH2 0x1EC2 PUSH2 0x239A JUMP JUMPDEST PUSH20 0xFFFFFFFFFFFFFFFFFFFFFFFFFFFFFFFFFFFFFFFF AND PUSH20 0x0 PUSH4 0x893D20E8 PUSH1 0x40 MLOAD DUP2 PUSH4 0xFFFFFFFF AND PUSH1 0xE0 SHL DUP2 MSTORE PUSH1 0x4 ADD PUSH1 0x20 PUSH1 0x40 MLOAD DUP1 DUP4 SUB DUP2 DUP7 GAS DELEGATECALL ISZERO DUP1 ISZERO PUSH2 0x1F1F JUMPI RETURNDATASIZE PUSH0 PUSH0 RETURNDATACOPY RETURNDATASIZE PUSH0 REVERT JUMPDEST POP POP POP POP PUSH1 0x40 MLOAD RETURNDATASIZE PUSH1 0x1F NOT PUSH1 0x1F DUP3 ADD AND DUP3 ADD DUP1 PUSH1 0x40 MSTORE POP DUP2 ADD SWAP1 PUSH2 0x1F43 SWAP2 SWAP1 PUSH2 0x47FA JUMP JUMPDEST PUSH20 0xFFFFFFFFFFFFFFFFFFFFFFFFFFFFFFFFFFFFFFFF AND EQ PUSH2 0x1F99 JUMPI PUSH1 0x40 MLOAD PUSH32 0x8C379A000000000000000000000000000000000000000000000000000000000 DUP2 MSTORE PUSH1 0x4 ADD PUSH2 0x1F90 SWAP1 PUSH2 0x486F JUMP JUMPDEST PUSH1 0x40 MLOAD DUP1 SWAP2 SUB SWAP1 REVERT JUMPDEST PUSH20 0x0 PUSH4 0x854F9DB9 DUP3 PUSH1 0x40 MLOAD DUP3 PUSH4 0xFFFFFFFF AND PUSH1 0xE0 SHL DUP2 MSTORE PUSH1 0x4 ADD PUSH2 0x1FD0 SWAP2 SWAP1 PUSH2 0x4CC7 JUMP JUMPDEST PUSH0 PUSH1 0x40 MLOAD DUP1 DUP4 SUB DUP2 DUP7 DUP1 EXTCODESIZE ISZERO DUP1 ISZERO PUSH2 0x1FE6 JUMPI PUSH0 PUSH0 REVERT JUMPDEST POP GAS DELEGATECALL ISZERO DUP1 ISZERO PUSH2 0x1FF8 JUMPI RETURNDATASIZE PUSH0 PUSH0 RETURNDATACOPY RETURNDATASIZE PUSH0 REVERT JUMPDEST POP POP POP POP POP JUMP JUMPDEST PUSH0 PUSH20 0x0 PUSH4 0xEDC3BC3F DUP5 DUP5 PUSH1 0x40 MLOAD DUP4 PUSH4 0xFFFFFFFF AND PUSH1 0xE0 SHL DUP2 MSTORE PUSH1 0x4 ADD PUSH2 0x2039 SWAP3 SWAP2 SWAP1 PUSH2 0x4DF7 JUMP JUMPDEST PUSH1 0x20 PUSH1 0x40 MLOAD DUP1 DUP4 SUB DUP2 DUP7 GAS DELEGATECALL ISZERO DUP1 ISZERO PUSH2 0x2054 JUMPI RETURNDATASIZE PUSH0 PUSH0 RETURNDATACOPY RETURNDATASIZE PUSH0 REVERT JUMPDEST POP POP POP POP PUSH1 0x40 MLOAD RETURNDATASIZE PUSH1 0x1F NOT PUSH1 0x1F DUP3 ADD AND DUP3 ADD DUP1 PUSH1 0x40 MSTORE POP DUP2 ADD SWAP1 PUSH2 0x2078 SWAP2 SWAP1 PUSH2 0x4A81 JUMP JUMPDEST SWAP1 POP SWAP3 SWAP2 POP POP JUMP JUMPDEST PUSH0 DUP2 PUSH2 0x208A PUSH2 0x2441 JUMP JUMPDEST GT PUSH2 0x224E JUMPI PUSH2 0x2097 PUSH2 0x2449 JUMP JUMPDEST DUP3 GT ISZERO PUSH2 0x2123 JUMPI PUSH2 0x211C PUSH20 0x0 PUSH4 0x47F69EBA DUP5 PUSH1 0x40 MLOAD DUP3 PUSH4 0xFFFFFFFF AND PUSH1 0xE0 SHL DUP2 MSTORE PUSH1 0x4 ADD PUSH2 0x20D8 SWAP2 SWAP1 PUSH2 0x4765 JUMP JUMPDEST PUSH1 0x20 PUSH1 0x40 MLOAD DUP1 DUP4 SUB DUP2 DUP7 GAS DELEGATECALL ISZERO DUP1 ISZERO PUSH2 0x20F3 JUMPI RETURNDATASIZE PUSH0 PUSH0 RETURNDATACOPY RETURNDATASIZE PUSH0 REVERT JUMPDEST POP POP POP POP PUSH1 0x40 MLOAD RETURNDATASIZE PUSH1 0x1F NOT PUSH1 0x1F DUP3 ADD AND DUP3 ADD DUP1 PUSH1 0x40 MSTORE POP DUP2 ADD SWAP1 PUSH2 0x2117 SWAP2 SWAP1 PUSH2 0x48A1 JUMP JUMPDEST PUSH2 0x3352 JUMP JUMPDEST SWAP1 POP PUSH2 0x224F JUMP JUMPDEST PUSH20 0x0 PUSH4 0x9451C99A PUSH1 0x40 MLOAD DUP2 PUSH4 0xFFFFFFFF AND PUSH1 0xE0 SHL DUP2 MSTORE PUSH1 0x4 ADD PUSH1 0x20 PUSH1 0x40 MLOAD DUP1 DUP4 SUB DUP2 DUP7 GAS DELEGATECALL ISZERO DUP1 ISZERO PUSH2 0x216A JUMPI RETURNDATASIZE PUSH0 PUSH0 RETURNDATACOPY RETURNDATASIZE PUSH0 REVERT JUMPDEST POP POP POP POP PUSH1 0x40 MLOAD RETURNDATASIZE PUSH1 0x1F NOT PUSH1 0x1F DUP3 ADD AND DUP3 ADD DUP1 PUSH1 0x40 MSTORE POP DUP2 ADD SWAP1 PUSH2 0x218E SWAP2 SWAP1 PUSH2 0x48A1 JUMP JUMPDEST DUP3 LT ISZERO PUSH2 0x224D JUMPI PUSH0 JUMPDEST PUSH0 PUSH20 0x0 PUSH4 0x47F69EBA DUP6 PUSH1 0x40 MLOAD DUP3 PUSH4 0xFFFFFFFF AND PUSH1 0xE0 SHL DUP2 MSTORE PUSH1 0x4 ADD PUSH2 0x21CF SWAP2 SWAP1 PUSH2 0x4765 JUMP JUMPDEST PUSH1 0x20 PUSH1 0x40 MLOAD DUP1 DUP4 SUB DUP2 DUP7 GAS DELEGATECALL ISZERO DUP1 ISZERO PUSH2 0x21EA JUMPI RETURNDATASIZE PUSH0 PUSH0 RETURNDATACOPY RETURNDATASIZE PUSH0 REVERT JUMPDEST POP POP POP POP PUSH1 0x40 MLOAD RETURNDATASIZE PUSH1 0x1F NOT PUSH1 0x1F DUP3 ADD AND DUP3 ADD DUP1 PUSH1 0x40 MSTORE POP DUP2 ADD SWAP1 PUSH2 0x220E SWAP2 SWAP1 PUSH2 0x48A1 JUMP JUMPDEST SWAP2 POP DUP2 SUB PUSH2 0x2227 JUMPI DUP3 PUSH2 0x2220 SWAP1 PUSH2 0x4E4B JUMP JUMPDEST SWAP3 POP PUSH2 0x2197 JUMP JUMPDEST PUSH0 PUSH29 0x100000000000000000000000000000000000000000000000000000000 DUP3 AND EQ SWAP2 POP POP JUMPDEST JUMPDEST JUMPDEST SWAP2 SWAP1 POP JUMP JUMPDEST DUP1 PUSH0 MSTORE PUSH1 0x4 PUSH0 REVERT JUMPDEST PUSH0 PUSH2 0x2266 DUP4 PUSH2 0x161D JUMP JUMPDEST SWAP1 POP DUP2 DUP1 ISZERO PUSH2 0x22A8 JUMPI POP DUP1 PUSH20 0xFFFFFFFFFFFFFFFFFFFFFFFFFFFFFFFFFFFFFFFF AND PUSH2 0x228F PUSH2 0x3191 JUMP JUMPDEST PUSH20 0xFFFFFFFFFFFFFFFFFFFFFFFFFFFFFFFFFFFFFFFF AND EQ ISZERO JUMPDEST ISZERO PUSH2 0x22D4 JUMPI PUSH2 0x22BE DUP2 PUSH2 0x22B9 PUSH2 0x3191 JUMP JUMPDEST PUSH2 0x1FFF JUMP JUMPDEST PUSH2 0x22D3 JUMPI PUSH2 0x22D2 PUSH4 0xCFB3B942 PUSH1 0xE0 SHL PUSH2 0x2254 JUMP JUMPDEST JUMPDEST JUMPDEST PUSH20 0x0 PUSH4 0x13C19FF6 DUP5 DUP7 PUSH1 0x40 MLOAD DUP4 PUSH4 0xFFFFFFFF AND PUSH1 0xE0 SHL DUP2 MSTORE PUSH1 0x4 ADD PUSH2 0x230D SWAP3 SWAP2 SWAP1 PUSH2 0x4E72 JUMP JUMPDEST PUSH0 PUSH1 0x40 MLOAD DUP1 DUP4 SUB DUP2 DUP7 DUP1 EXTCODESIZE ISZERO DUP1 ISZERO PUSH2 0x2323 JUMPI PUSH0 PUSH0 REVERT JUMPDEST POP GAS DELEGATECALL ISZERO DUP1 ISZERO PUSH2 0x2335 JUMPI RETURNDATASIZE PUSH0 PUSH0 RETURNDATACOPY RETURNDATASIZE PUSH0 REVERT JUMPDEST POP POP POP POP DUP3 DUP5 PUSH20 0xFFFFFFFFFFFFFFFFFFFFFFFFFFFFFFFFFFFFFFFF AND DUP3 PUSH20 0xFFFFFFFFFFFFFFFFFFFFFFFFFFFFFFFFFFFFFFFF AND PUSH32 0x8C5BE1E5EBEC7D5BD14F71427D1E84F3DD0314C0F7B2291E5B200AC8C7C3B925 PUSH1 0x40 MLOAD PUSH1 0x40 MLOAD DUP1 SWAP2 SUB SWAP1 LOG4 POP POP POP POP JUMP JUMPDEST PUSH0 CALLER SWAP1 POP SWAP1 JUMP JUMPDEST PUSH20 0x0 PUSH4 0xDEC84DB1 DUP3 DUP5 PUSH1 0x40 MLOAD DUP4 PUSH4 0xFFFFFFFF AND PUSH1 0xE0 SHL DUP2 MSTORE PUSH1 0x4 ADD PUSH2 0x23DA SWAP3 SWAP2 SWAP1 PUSH2 0x4ED1 JUMP JUMPDEST PUSH0 PUSH1 0x40 MLOAD DUP1 DUP4 SUB DUP2 DUP7 DUP1 EXTCODESIZE ISZERO DUP1 ISZERO PUSH2 0x23F0 JUMPI PUSH0 PUSH0 REVERT JUMPDEST POP GAS DELEGATECALL ISZERO DUP1 ISZERO PUSH2 0x2402 JUMPI RETURNDATASIZE PUSH0 PUSH0 RETURNDATACOPY RETURNDATASIZE PUSH0 REVERT JUMPDEST POP POP POP POP PUSH32 0xF8E1A15ABA9398E019F0B49DF1A4FDE98EE17AE345CB5F6B5E2C27F5033E8CE7 DUP3 PUSH1 0x40 MLOAD PUSH2 0x2435 SWAP2 SWAP1 PUSH2 0x406A JUMP JUMPDEST PUSH1 0x40 MLOAD DUP1 SWAP2 SUB SWAP1 LOG1 POP POP JUMP JUMPDEST PUSH0 PUSH1 0x1 SWAP1 POP SWAP1 JUMP JUMPDEST PUSH0 PUSH32 0xFFFFFFFFFFFFFFFFFFFFFFFFFFFFFFFFFFFFFFFFFFFFFFFFFFFFFFFFFFFFFFFF SWAP1 POP SWAP1 JUMP JUMPDEST PUSH0 PUSH2 0x247A DUP3 PUSH2 0x2C14 JUMP JUMPDEST SWAP1 POP PUSH20 0xFFFFFFFFFFFFFFFFFFFFFFFFFFFFFFFFFFFFFFFF DUP5 PUSH20 0xFFFFFFFFFFFFFFFFFFFFFFFFFFFFFFFFFFFFFFFF AND AND SWAP4 POP DUP4 PUSH20 0xFFFFFFFFFFFFFFFFFFFFFFFFFFFFFFFFFFFFFFFF AND DUP2 PUSH20 0xFFFFFFFFFFFFFFFFFFFFFFFFFFFFFFFFFFFFFFFF AND EQ PUSH2 0x24EF JUMPI PUSH2 0x24EE PUSH4 0xA1148100 PUSH1 0xE0 SHL PUSH2 0x2254 JUMP JUMPDEST JUMPDEST PUSH0 PUSH0 PUSH2 0x24FA DUP5 PUSH2 0x3392 JUMP JUMPDEST SWAP2 POP SWAP2 POP PUSH2 0x2510 DUP2 DUP8 PUSH2 0x250B PUSH2 0x3191 JUMP JUMPDEST PUSH2 0x3418 JUMP JUMPDEST PUSH2 0x253B JUMPI PUSH2 0x2525 DUP7 PUSH2 0x2520 PUSH2 0x3191 JUMP JUMPDEST PUSH2 0x1FFF JUMP JUMPDEST PUSH2 0x253A JUMPI PUSH2 0x2539 PUSH4 0x59C896BE PUSH1 0xE0 SHL PUSH2 0x2254 JUMP JUMPDEST JUMPDEST JUMPDEST PUSH2 0x2548 DUP7 DUP7 DUP7 PUSH1 0x1 PUSH2 0x345B JUMP JUMPDEST PUSH20 0x0 PUSH4 0x13C19FF6 DUP6 PUSH0 PUSH1 0x40 MLOAD DUP4 PUSH4 0xFFFFFFFF AND PUSH1 0xE0 SHL DUP2 MSTORE PUSH1 0x4 ADD PUSH2 0x2581 SWAP3 SWAP2 SWAP1 PUSH2 0x4E72 JUMP JUMPDEST PUSH0 PUSH1 0x40 MLOAD DUP1 DUP4 SUB DUP2 DUP7 DUP1 EXTCODESIZE ISZERO DUP1 ISZERO PUSH2 0x2597 JUMPI PUSH0 PUSH0 REVERT JUMPDEST POP GAS DELEGATECALL ISZERO DUP1 ISZERO PUSH2 0x25A9 JUMPI RETURNDATASIZE PUSH0 PUSH0 RETURNDATACOPY RETURNDATASIZE PUSH0 REVERT JUMPDEST POP POP POP POP PUSH20 0x0 PUSH4 0x31413EFC DUP8 PUSH1 0x40 MLOAD DUP3 PUSH4 0xFFFFFFFF AND PUSH1 0xE0 SHL DUP2 MSTORE PUSH1 0x4 ADD PUSH2 0x25E4 SWAP2 SWAP1 PUSH2 0x4A54 JUMP JUMPDEST PUSH0 PUSH1 0x40 MLOAD DUP1 DUP4 SUB DUP2 DUP7 DUP1 EXTCODESIZE ISZERO DUP1 ISZERO PUSH2 0x25FA JUMPI PUSH0 PUSH0 REVERT JUMPDEST POP GAS DELEGATECALL ISZERO DUP1 ISZERO PUSH2 0x260C JUMPI RETURNDATASIZE PUSH0 PUSH0 RETURNDATACOPY RETURNDATASIZE PUSH0 REVERT JUMPDEST POP POP POP POP PUSH20 0x0 PUSH4 0xD0125152 DUP7 PUSH1 0x40 MLOAD DUP3 PUSH4 0xFFFFFFFF AND PUSH1 0xE0 SHL DUP2 MSTORE PUSH1 0x4 ADD PUSH2 0x2647 SWAP2 SWAP1 PUSH2 0x4A54 JUMP JUMPDEST PUSH0 PUSH1 0x40 MLOAD DUP1 DUP4 SUB DUP2 DUP7 DUP1 EXTCODESIZE ISZERO DUP1 ISZERO PUSH2 0x265D JUMPI PUSH0 PUSH0 REVERT JUMPDEST POP GAS DELEGATECALL ISZERO DUP1 ISZERO PUSH2 0x266F JUMPI RETURNDATASIZE PUSH0 PUSH0 RETURNDATACOPY RETURNDATASIZE PUSH0 REVERT JUMPDEST POP POP POP POP PUSH20 0x0 PUSH4 0xE68FDEE1 DUP6 PUSH2 0x26C1 DUP9 PUSH2 0x269D DUP12 DUP12 DUP11 PUSH2 0x3461 JUMP JUMPDEST PUSH29 0x200000000000000000000000000000000000000000000000000000000 OR PUSH2 0x3488 JUMP JUMPDEST PUSH1 0x40 MLOAD DUP4 PUSH4 0xFFFFFFFF AND PUSH1 0xE0 SHL DUP2 MSTORE PUSH1 0x4 ADD PUSH2 0x26DE SWAP3 SWAP2 SWAP1 PUSH2 0x4EFF JUMP JUMPDEST PUSH0 PUSH1 0x40 MLOAD DUP1 DUP4 SUB DUP2 DUP7 DUP1 EXTCODESIZE ISZERO DUP1 ISZERO PUSH2 0x26F4 JUMPI PUSH0 PUSH0 REVERT JUMPDEST POP GAS DELEGATECALL ISZERO DUP1 ISZERO PUSH2 0x2706 JUMPI RETURNDATASIZE PUSH0 PUSH0 RETURNDATACOPY RETURNDATASIZE PUSH0 REVERT JUMPDEST POP POP POP POP PUSH0 PUSH29 0x200000000000000000000000000000000000000000000000000000000 DUP5 AND SUB PUSH2 0x288D JUMPI PUSH0 PUSH1 0x1 DUP6 ADD SWAP1 POP PUSH0 PUSH20 0x0 PUSH4 0x47F69EBA DUP4 PUSH1 0x40 MLOAD DUP3 PUSH4 0xFFFFFFFF AND PUSH1 0xE0 SHL DUP2 MSTORE PUSH1 0x4 ADD PUSH2 0x276F SWAP2 SWAP1 PUSH2 0x4765 JUMP JUMPDEST PUSH1 0x20 PUSH1 0x40 MLOAD DUP1 DUP4 SUB DUP2 DUP7 GAS DELEGATECALL ISZERO DUP1 ISZERO PUSH2 0x278A JUMPI RETURNDATASIZE PUSH0 PUSH0 RETURNDATACOPY RETURNDATASIZE PUSH0 REVERT JUMPDEST POP POP POP POP PUSH1 0x40 MLOAD RETURNDATASIZE PUSH1 0x1F NOT PUSH1 0x1F DUP3 ADD AND DUP3 ADD DUP1 PUSH1 0x40 MSTORE POP DUP2 ADD SWAP1 PUSH2 0x27AE SWAP2 SWAP1 PUSH2 0x48A1 JUMP JUMPDEST SUB PUSH2 0x288B JUMPI PUSH20 0x0 PUSH4 0x9451C99A PUSH1 0x40 MLOAD DUP2 PUSH4 0xFFFFFFFF AND PUSH1 0xE0 SHL DUP2 MSTORE PUSH1 0x4 ADD PUSH1 0x20 PUSH1 0x40 MLOAD DUP1 DUP4 SUB DUP2 DUP7 GAS DELEGATECALL ISZERO DUP1 ISZERO PUSH2 0x27FA JUMPI RETURNDATASIZE PUSH0 PUSH0 RETURNDATACOPY RETURNDATASIZE PUSH0 REVERT JUMPDEST POP POP POP POP PUSH1 0x40 MLOAD RETURNDATASIZE PUSH1 0x1F NOT PUSH1 0x1F DUP3 ADD AND DUP3 ADD DUP1 PUSH1 0x40 MSTORE POP DUP2 ADD SWAP1 PUSH2 0x281E SWAP2 SWAP1 PUSH2 0x48A1 JUMP JUMPDEST DUP2 EQ PUSH2 0x288A JUMPI PUSH20 0x0 PUSH4 0xE68FDEE1 DUP3 DUP7 PUSH1 0x40 MLOAD DUP4 PUSH4 0xFFFFFFFF AND PUSH1 0xE0 SHL DUP2 MSTORE PUSH1 0x4 ADD PUSH2 0x285D SWAP3 SWAP2 SWAP1 PUSH2 0x4EFF JUMP JUMPDEST PUSH0 PUSH1 0x40 MLOAD DUP1 DUP4 SUB DUP2 DUP7 DUP1 EXTCODESIZE ISZERO DUP1 ISZERO PUSH2 0x2873 JUMPI PUSH0 PUSH0 REVERT JUMPDEST POP GAS DELEGATECALL ISZERO DUP1 ISZERO PUSH2 0x2885 JUMPI RETURNDATASIZE PUSH0 PUSH0 RETURNDATACOPY RETURNDATASIZE PUSH0 REVERT JUMPDEST POP POP POP POP JUMPDEST JUMPDEST POP JUMPDEST PUSH0 PUSH20 0xFFFFFFFFFFFFFFFFFFFFFFFFFFFFFFFFFFFFFFFF DUP7 PUSH20 0xFFFFFFFFFFFFFFFFFFFFFFFFFFFFFFFFFFFFFFFF AND AND SWAP1 POP DUP5 DUP2 DUP9 PUSH32 0xDDF252AD1BE2C89B69C2B068FC378DAA952BA7F163C4A11628F55A4DF523B3EF PUSH0 PUSH0 LOG4 PUSH0 DUP2 SUB PUSH2 0x28FC JUMPI PUSH2 0x28FB PUSH4 0xEA553B34 PUSH1 0xE0 SHL PUSH2 0x2254 JUMP JUMPDEST JUMPDEST PUSH2 0x2909 DUP8 DUP8 DUP8 PUSH1 0x1 PUSH2 0x34B2 JUMP JUMPDEST POP POP POP POP POP POP POP JUMP JUMPDEST PUSH0 PUSH20 0xFFFFFFFFFFFFFFFFFFFFFFFFFFFFFFFFFFFFFFFF AND DUP4 PUSH20 0xFFFFFFFFFFFFFFFFFFFFFFFFFFFFFFFFFFFFFFFF AND SUB PUSH2 0x2953 JUMPI PUSH2 0x294E DUP2 PUSH2 0x34B8 JUMP JUMPDEST PUSH2 0x2992 JUMP JUMPDEST DUP2 PUSH20 0xFFFFFFFFFFFFFFFFFFFFFFFFFFFFFFFFFFFFFFFF AND DUP4 PUSH20 0xFFFFFFFFFFFFFFFFFFFFFFFFFFFFFFFFFFFFFFFF AND EQ PUSH2 0x2991 JUMPI PUSH2 0x2990 DUP4 DUP3 PUSH2 0x351E JUMP JUMPDEST JUMPDEST JUMPDEST PUSH0 PUSH20 0xFFFFFFFFFFFFFFFFFFFFFFFFFFFFFFFFFFFFFFFF AND DUP3 PUSH20 0xFFFFFFFFFFFFFFFFFFFFFFFFFFFFFFFFFFFFFFFF AND SUB PUSH2 0x29D3 JUMPI PUSH2 0x29CE DUP2 PUSH2 0x3591 JUMP JUMPDEST PUSH2 0x2A12 JUMP JUMPDEST DUP2 PUSH20 0xFFFFFFFFFFFFFFFFFFFFFFFFFFFFFFFFFFFFFFFF AND DUP4 PUSH20 0xFFFFFFFFFFFFFFFFFFFFFFFFFFFFFFFFFFFFFFFF AND EQ PUSH2 0x2A11 JUMPI PUSH2 0x2A10 DUP3 DUP3 PUSH2 0x35F7 JUMP JUMPDEST JUMPDEST JUMPDEST POP POP POP JUMP JUMPDEST PUSH1 0x2 PUSH0 SLOAD SUB PUSH2 0x2A5B JUMPI PUSH1 0x40 MLOAD PUSH32 0x8C379A000000000000000000000000000000000000000000000000000000000 DUP2 MSTORE PUSH1 0x4 ADD PUSH2 0x2A52 SWAP1 PUSH2 0x4F70 JUMP JUMPDEST PUSH1 0x40 MLOAD DUP1 SWAP2 SUB SWAP1 REVERT JUMPDEST PUSH1 0x2 PUSH0 DUP2 SWAP1 SSTORE POP JUMP JUMPDEST PUSH1 0x1 PUSH0 DUP2 SWAP1 SSTORE POP JUMP JUMPDEST PUSH0 PUSH20 0x0 PUSH4 0x9451C99A PUSH1 0x40 MLOAD DUP2 PUSH4 0xFFFFFFFF AND PUSH1 0xE0 SHL DUP2 MSTORE PUSH1 0x4 ADD PUSH1 0x20 PUSH1 0x40 MLOAD DUP1 DUP4 SUB DUP2 DUP7 GAS DELEGATECALL ISZERO DUP1 ISZERO PUSH2 0x2AB5 JUMPI RETURNDATASIZE PUSH0 PUSH0 RETURNDATACOPY RETURNDATASIZE PUSH0 REVERT JUMPDEST POP POP POP POP PUSH1 0x40 MLOAD RETURNDATASIZE PUSH1 0x1F NOT PUSH1 0x1F DUP3 ADD AND DUP3 ADD DUP1 PUSH1 0x40 MSTORE POP DUP2 ADD SWAP1 PUSH2 0x2AD9 SWAP2 SWAP1 PUSH2 0x48A1 JUMP JUMPDEST SWAP1 POP SWAP1 JUMP JUMPDEST PUSH0 DUP3 PUSH2 0x2AEA DUP6 DUP5 PUSH2 0x3676 JUMP JUMPDEST EQ SWAP1 POP SWAP4 SWAP3 POP POP POP JUMP JUMPDEST PUSH2 0x2B0D DUP3 DUP3 PUSH1 0x40 MLOAD DUP1 PUSH1 0x20 ADD PUSH1 0x40 MSTORE DUP1 PUSH0 DUP2 MSTORE POP PUSH2 0x36C7 JUMP JUMPDEST POP POP JUMP JUMPDEST PUSH1 0x60 PUSH2 0x2B1C DUP3 PUSH2 0x2080 JUMP JUMPDEST PUSH2 0x2B5B JUMPI PUSH1 0x40 MLOAD PUSH32 0x8C379A000000000000000000000000000000000000000000000000000000000 DUP2 MSTORE PUSH1 0x4 ADD PUSH2 0x2B52 SWAP1 PUSH2 0x4FFE JUMP JUMPDEST PUSH1 0x40 MLOAD DUP1 SWAP2 SUB SWAP1 REVERT JUMPDEST PUSH0 PUSH2 0x2B64 PUSH2 0x1773 JUMP JUMPDEST SWAP1 POP PUSH0 DUP2 MLOAD GT PUSH2 0x2BE1 JUMPI PUSH20 0x0 PUSH4 0x963BFE12 PUSH1 0x40 MLOAD DUP2 PUSH4 0xFFFFFFFF AND PUSH1 0xE0 SHL DUP2 MSTORE PUSH1 0x4 ADD PUSH0 PUSH1 0x40 MLOAD DUP1 DUP4 SUB DUP2 DUP7 GAS DELEGATECALL ISZERO DUP1 ISZERO PUSH2 0x2BB4 JUMPI RETURNDATASIZE PUSH0 PUSH0 RETURNDATACOPY RETURNDATASIZE PUSH0 REVERT JUMPDEST POP POP POP POP PUSH1 0x40 MLOAD RETURNDATASIZE PUSH0 DUP3 RETURNDATACOPY RETURNDATASIZE PUSH1 0x1F NOT PUSH1 0x1F DUP3 ADD AND DUP3 ADD DUP1 PUSH1 0x40 MSTORE POP DUP2 ADD SWAP1 PUSH2 0x2BDC SWAP2 SWAP1 PUSH2 0x470F JUMP JUMPDEST PUSH2 0x2C0C JUMP JUMPDEST DUP1 PUSH2 0x2BEB DUP5 PUSH2 0x380F JUMP JUMPDEST PUSH1 0x40 MLOAD PUSH1 0x20 ADD PUSH2 0x2BFC SWAP3 SWAP2 SWAP1 PUSH2 0x5066 JUMP JUMPDEST PUSH1 0x40 MLOAD PUSH1 0x20 DUP2 DUP4 SUB SUB DUP2 MSTORE SWAP1 PUSH1 0x40 MSTORE JUMPDEST SWAP2 POP POP SWAP2 SWAP1 POP JUMP JUMPDEST PUSH0 DUP2 PUSH2 0x2C1E PUSH2 0x2441 JUMP JUMPDEST GT PUSH2 0x2E3E JUMPI PUSH20 0x0 PUSH4 0x47F69EBA DUP4 PUSH1 0x40 MLOAD DUP3 PUSH4 0xFFFFFFFF AND PUSH1 0xE0 SHL DUP2 MSTORE PUSH1 0x4 ADD PUSH2 0x2C5A SWAP2 SWAP1 PUSH2 0x4765 JUMP JUMPDEST PUSH1 0x20 PUSH1 0x40 MLOAD DUP1 DUP4 SUB DUP2 DUP7 GAS DELEGATECALL ISZERO DUP1 ISZERO PUSH2 0x2C75 JUMPI RETURNDATASIZE PUSH0 PUSH0 RETURNDATACOPY RETURNDATASIZE PUSH0 REVERT JUMPDEST POP POP POP POP PUSH1 0x40 MLOAD RETURNDATASIZE PUSH1 0x1F NOT PUSH1 0x1F DUP3 ADD AND DUP3 ADD DUP1 PUSH1 0x40 MSTORE POP DUP2 ADD SWAP1 PUSH2 0x2C99 SWAP2 SWAP1 PUSH2 0x48A1 JUMP JUMPDEST SWAP1 POP PUSH2 0x2CA3 PUSH2 0x2449 JUMP JUMPDEST DUP3 GT ISZERO PUSH2 0x2CC8 JUMPI PUSH2 0x2CB3 DUP2 PUSH2 0x3352 JUMP JUMPDEST PUSH2 0x2E4F JUMPI PUSH2 0x2CC7 PUSH4 0xDF2D9B42 PUSH1 0xE0 SHL PUSH2 0x2254 JUMP JUMPDEST JUMPDEST PUSH0 DUP2 SUB PUSH2 0x2E16 JUMPI PUSH20 0x0 PUSH4 0x9451C99A PUSH1 0x40 MLOAD DUP2 PUSH4 0xFFFFFFFF AND PUSH1 0xE0 SHL DUP2 MSTORE PUSH1 0x4 ADD PUSH1 0x20 PUSH1 0x40 MLOAD DUP1 DUP4 SUB DUP2 DUP7 GAS DELEGATECALL ISZERO DUP1 ISZERO PUSH2 0x2D16 JUMPI RETURNDATASIZE PUSH0 PUSH0 RETURNDATACOPY RETURNDATASIZE PUSH0 REVERT JUMPDEST POP POP POP POP PUSH1 0x40 MLOAD RETURNDATASIZE PUSH1 0x1F NOT PUSH1 0x1F DUP3 ADD AND DUP3 ADD DUP1 PUSH1 0x40 MSTORE POP DUP2 ADD SWAP1 PUSH2 0x2D3A SWAP2 SWAP1 PUSH2 0x48A1 JUMP JUMPDEST DUP3 LT PUSH2 0x2D51 JUMPI PUSH2 0x2D50 PUSH4 0xDF2D9B42 PUSH1 0xE0 SHL PUSH2 0x2254 JUMP JUMPDEST JUMPDEST JUMPDEST PUSH20 0x0 PUSH4 0x47F69EBA DUP4 PUSH1 0x1 SWAP1 SUB SWAP4 POP DUP4 PUSH1 0x40 MLOAD DUP3 PUSH4 0xFFFFFFFF AND PUSH1 0xE0 SHL DUP2 MSTORE PUSH1 0x4 ADD PUSH2 0x2D90 SWAP2 SWAP1 PUSH2 0x4765 JUMP JUMPDEST PUSH1 0x20 PUSH1 0x40 MLOAD DUP1 DUP4 SUB DUP2 DUP7 GAS DELEGATECALL ISZERO DUP1 ISZERO PUSH2 0x2DAB JUMPI RETURNDATASIZE PUSH0 PUSH0 RETURNDATACOPY RETURNDATASIZE PUSH0 REVERT JUMPDEST POP POP POP POP PUSH1 0x40 MLOAD RETURNDATASIZE PUSH1 0x1F NOT PUSH1 0x1F DUP3 ADD AND DUP3 ADD DUP1 PUSH1 0x40 MSTORE POP DUP2 ADD SWAP1 PUSH2 0x2DCF SWAP2 SWAP1 PUSH2 0x48A1 JUMP JUMPDEST SWAP1 POP PUSH0 DUP2 SUB ISZERO PUSH2 0x2E11 JUMPI PUSH0 PUSH29 0x100000000000000000000000000000000000000000000000000000000 DUP3 AND SUB ISZERO PUSH2 0x2E4F JUMPI PUSH2 0x2E10 PUSH4 0xDF2D9B42 PUSH1 0xE0 SHL PUSH2 0x2254 JUMP JUMPDEST JUMPDEST PUSH2 0x2D52 JUMP JUMPDEST PUSH0 PUSH29 0x100000000000000000000000000000000000000000000000000000000 DUP3 AND SUB ISZERO PUSH2 0x2E4F JUMPI JUMPDEST PUSH2 0x2E4E PUSH4 0xDF2D9B42 PUSH1 0xE0 SHL PUSH2 0x2254 JUMP JUMPDEST JUMPDEST SWAP2 SWAP1 POP JUMP JUMPDEST PUSH20 0x0 PUSH4 0xA05CC559 PUSH1 0x40 MLOAD DUP2 PUSH4 0xFFFFFFFF AND PUSH1 0xE0 SHL DUP2 MSTORE PUSH1 0x4 ADD PUSH2 0x2E89 SWAP1 PUSH2 0x5104 JUMP JUMPDEST PUSH0 PUSH1 0x40 MLOAD DUP1 DUP4 SUB DUP2 DUP7 DUP1 EXTCODESIZE ISZERO DUP1 ISZERO PUSH2 0x2E9F JUMPI PUSH0 PUSH0 REVERT JUMPDEST POP GAS DELEGATECALL ISZERO DUP1 ISZERO PUSH2 0x2EB1 JUMPI RETURNDATASIZE PUSH0 PUSH0 RETURNDATACOPY RETURNDATASIZE PUSH0 REVERT JUMPDEST POP POP POP POP PUSH20 0x0 PUSH4 0x821ABC2D PUSH1 0x40 MLOAD DUP2 PUSH4 0xFFFFFFFF AND PUSH1 0xE0 SHL DUP2 MSTORE PUSH1 0x4 ADD PUSH2 0x2EEA SWAP1 PUSH2 0x51B8 JUMP JUMPDEST PUSH0 PUSH1 0x40 MLOAD DUP1 DUP4 SUB DUP2 DUP7 DUP1 EXTCODESIZE ISZERO DUP1 ISZERO PUSH2 0x2F00 JUMPI PUSH0 PUSH0 REVERT JUMPDEST POP GAS DELEGATECALL ISZERO DUP1 ISZERO PUSH2 0x2F12 JUMPI RETURNDATASIZE PUSH0 PUSH0 RETURNDATACOPY RETURNDATASIZE PUSH0 REVERT JUMPDEST POP POP POP POP PUSH20 0x0 PUSH4 0x854F9DB9 PUSH32 0x5DF84626BC45C33115B89A190996D30024345C231B20F226B126A006264FD61F PUSH1 0x40 MLOAD DUP3 PUSH4 0xFFFFFFFF AND PUSH1 0xE0 SHL DUP2 MSTORE PUSH1 0x4 ADD PUSH2 0x2F6D SWAP2 SWAP1 PUSH2 0x521A JUMP JUMPDEST PUSH0 PUSH1 0x40 MLOAD DUP1 DUP4 SUB DUP2 DUP7 DUP1 EXTCODESIZE ISZERO DUP1 ISZERO PUSH2 0x2F83 JUMPI PUSH0 PUSH0 REVERT JUMPDEST POP GAS DELEGATECALL ISZERO DUP1 ISZERO PUSH2 0x2F95 JUMPI RETURNDATASIZE PUSH0 PUSH0 RETURNDATACOPY RETURNDATASIZE PUSH0 REVERT JUMPDEST POP POP POP POP PUSH20 0x0 PUSH4 0x39B37AB0 PUSH1 0x91 PUSH1 0x40 MLOAD DUP3 PUSH4 0xFFFFFFFF AND PUSH1 0xE0 SHL DUP2 MSTORE PUSH1 0x4 ADD PUSH2 0x2FD1 SWAP2 SWAP1 PUSH2 0x5275 JUMP JUMPDEST PUSH0 PUSH1 0x40 MLOAD DUP1 DUP4 SUB DUP2 DUP7 DUP1 EXTCODESIZE ISZERO DUP1 ISZERO PUSH2 0x2FE7 JUMPI PUSH0 PUSH0 REVERT JUMPDEST POP GAS DELEGATECALL ISZERO DUP1 ISZERO PUSH2 0x2FF9 JUMPI RETURNDATASIZE PUSH0 PUSH0 RETURNDATACOPY RETURNDATASIZE PUSH0 REVERT JUMPDEST POP POP POP POP PUSH20 0x0 PUSH4 0x5B43BC99 DUP4 PUSH1 0x40 MLOAD DUP3 PUSH4 0xFFFFFFFF AND PUSH1 0xE0 SHL DUP2 MSTORE PUSH1 0x4 ADD PUSH2 0x3034 SWAP2 SWAP1 PUSH2 0x528E JUMP JUMPDEST PUSH0 PUSH1 0x40 MLOAD DUP1 DUP4 SUB DUP2 DUP7 DUP1 EXTCODESIZE ISZERO DUP1 ISZERO PUSH2 0x304A JUMPI PUSH0 PUSH0 REVERT JUMPDEST POP GAS DELEGATECALL ISZERO DUP1 ISZERO PUSH2 0x305C JUMPI RETURNDATASIZE PUSH0 PUSH0 RETURNDATACOPY RETURNDATASIZE PUSH0 REVERT JUMPDEST POP POP POP POP PUSH20 0x0 PUSH4 0x41BB0559 DUP3 PUSH1 0x40 MLOAD DUP3 PUSH4 0xFFFFFFFF AND PUSH1 0xE0 SHL DUP2 MSTORE PUSH1 0x4 ADD PUSH2 0x3097 SWAP2 SWAP1 PUSH2 0x528E JUMP JUMPDEST PUSH0 PUSH1 0x40 MLOAD DUP1 DUP4 SUB DUP2 DUP7 DUP1 EXTCODESIZE ISZERO DUP1 ISZERO PUSH2 0x30AD JUMPI PUSH0 PUSH0 REVERT JUMPDEST POP GAS DELEGATECALL ISZERO DUP1 ISZERO PUSH2 0x30BF JUMPI RETURNDATASIZE PUSH0 PUSH0 RETURNDATACOPY RETURNDATASIZE PUSH0 REVERT JUMPDEST POP POP POP POP PUSH20 0x0 PUSH4 0x345E7B28 PUSH2 0x4B0 PUSH1 0x40 MLOAD DUP3 PUSH4 0xFFFFFFFF AND PUSH1 0xE0 SHL DUP2 MSTORE PUSH1 0x4 ADD PUSH2 0x30FC SWAP2 SWAP1 PUSH2 0x52E7 JUMP JUMPDEST PUSH0 PUSH1 0x40 MLOAD DUP1 DUP4 SUB DUP2 DUP7 DUP1 EXTCODESIZE ISZERO DUP1 ISZERO PUSH2 0x3112 JUMPI PUSH0 PUSH0 REVERT JUMPDEST POP GAS DELEGATECALL ISZERO DUP1 ISZERO PUSH2 0x3124 JUMPI RETURNDATASIZE PUSH0 PUSH0 RETURNDATACOPY RETURNDATASIZE PUSH0 REVERT JUMPDEST POP POP POP POP PUSH20 0x0 PUSH4 0x32B07B43 PUSH2 0x4B0 PUSH1 0x40 MLOAD DUP3 PUSH4 0xFFFFFFFF AND PUSH1 0xE0 SHL DUP2 MSTORE PUSH1 0x4 ADD PUSH2 0x3161 SWAP2 SWAP1 PUSH2 0x52E7 JUMP JUMPDEST PUSH0 PUSH1 0x40 MLOAD DUP1 DUP4 SUB DUP2 DUP7 DUP1 EXTCODESIZE ISZERO DUP1 ISZERO PUSH2 0x3177 JUMPI PUSH0 PUSH0 REVERT JUMPDEST POP GAS DELEGATECALL ISZERO DUP1 ISZERO PUSH2 0x3189 JUMPI RETURNDATASIZE PUSH0 PUSH0 RETURNDATACOPY RETURNDATASIZE PUSH0 REVERT JUMPDEST POP POP POP POP POP POP JUMP JUMPDEST PUSH0 CALLER SWAP1 POP SWAP1 JUMP JUMPDEST PUSH0 DUP4 PUSH20 0xFFFFFFFFFFFFFFFFFFFFFFFFFFFFFFFFFFFFFFFF AND PUSH4 0x150B7A02 PUSH2 0x31BD PUSH2 0x3191 JUMP JUMPDEST DUP8 DUP7 DUP7 PUSH1 0x40 MLOAD DUP6 PUSH4 0xFFFFFFFF AND PUSH1 0xE0 SHL DUP2 MSTORE PUSH1 0x4 ADD PUSH2 0x31DF SWAP5 SWAP4 SWAP3 SWAP2 SWAP1 PUSH2 0x5352 JUMP JUMPDEST PUSH1 0x20 PUSH1 0x40 MLOAD DUP1 DUP4 SUB DUP2 PUSH0 DUP8 GAS CALL SWAP3 POP POP POP DUP1 ISZERO PUSH2 0x321A JUMPI POP PUSH1 0x40 MLOAD RETURNDATASIZE PUSH1 0x1F NOT PUSH1 0x1F DUP3 ADD AND DUP3 ADD DUP1 PUSH1 0x40 MSTORE POP DUP2 ADD SWAP1 PUSH2 0x3217 SWAP2 SWAP1 PUSH2 0x53B0 JUMP JUMPDEST PUSH1 0x1 JUMPDEST PUSH2 0x326F JUMPI RETURNDATASIZE DUP1 PUSH0 DUP2 EQ PUSH2 0x3248 JUMPI PUSH1 0x40 MLOAD SWAP2 POP PUSH1 0x1F NOT PUSH1 0x3F RETURNDATASIZE ADD AND DUP3 ADD PUSH1 0x40 MSTORE RETURNDATASIZE DUP3 MSTORE RETURNDATASIZE PUSH0 PUSH1 0x20 DUP5 ADD RETURNDATACOPY PUSH2 0x324D JUMP JUMPDEST PUSH1 0x60 SWAP2 POP JUMPDEST POP PUSH0 DUP2 MLOAD SUB PUSH2 0x3267 JUMPI PUSH2 0x3266 PUSH4 0xD1A57ED6 PUSH1 0xE0 SHL PUSH2 0x2254 JUMP JUMPDEST JUMPDEST DUP1 MLOAD DUP2 PUSH1 0x20 ADD REVERT JUMPDEST PUSH4 0x150B7A02 PUSH1 0xE0 SHL PUSH28 0xFFFFFFFFFFFFFFFFFFFFFFFFFFFFFFFFFFFFFFFFFFFFFFFFFFFFFFFF NOT AND DUP2 PUSH28 0xFFFFFFFFFFFFFFFFFFFFFFFFFFFFFFFFFFFFFFFFFFFFFFFFFFFFFFFF NOT AND EQ SWAP2 POP POP SWAP5 SWAP4 POP POP POP POP JUMP JUMPDEST PUSH1 0x60 PUSH1 0x40 MLOAD DUP1 PUSH1 0x20 ADD PUSH1 0x40 MSTORE DUP1 PUSH0 DUP2 MSTORE POP SWAP1 POP SWAP1 JUMP JUMPDEST PUSH1 0x60 PUSH2 0x32E3 DUP3 PUSH2 0x2080 JUMP JUMPDEST PUSH2 0x32F8 JUMPI PUSH2 0x32F7 PUSH4 0xA14C4B50 PUSH1 0xE0 SHL PUSH2 0x2254 JUMP JUMPDEST JUMPDEST PUSH0 PUSH2 0x3301 PUSH2 0x32C2 JUMP JUMPDEST SWAP1 POP PUSH0 DUP2 MLOAD SUB PUSH2 0x331F JUMPI PUSH1 0x40 MLOAD DUP1 PUSH1 0x20 ADD PUSH1 0x40 MSTORE DUP1 PUSH0 DUP2 MSTORE POP PUSH2 0x334A JUMP JUMPDEST DUP1 PUSH2 0x3329 DUP5 PUSH2 0x38D9 JUMP JUMPDEST PUSH1 0x40 MLOAD PUSH1 0x20 ADD PUSH2 0x333A SWAP3 SWAP2 SWAP1 PUSH2 0x4DD4 JUMP JUMPDEST PUSH1 0x40 MLOAD PUSH1 0x20 DUP2 DUP4 SUB SUB DUP2 MSTORE SWAP1 PUSH1 0x40 MSTORE JUMPDEST SWAP2 POP POP SWAP2 SWAP1 POP JUMP JUMPDEST PUSH0 PUSH29 0x100000000000000000000000000000000000000000000000000000000 DUP3 AND PUSH20 0xFFFFFFFFFFFFFFFFFFFFFFFFFFFFFFFFFFFFFFFF DUP4 AND GT SWAP1 POP SWAP2 SWAP1 POP JUMP JUMPDEST PUSH0 PUSH0 PUSH1 0x1 PUSH20 0x0 PUSH4 0xA7CC0136 DUP6 PUSH1 0x40 MLOAD DUP3 PUSH4 0xFFFFFFFF AND PUSH1 0xE0 SHL DUP2 MSTORE PUSH1 0x4 ADD PUSH2 0x33CD SWAP2 SWAP1 PUSH2 0x4765 JUMP JUMPDEST PUSH1 0x20 PUSH1 0x40 MLOAD DUP1 DUP4 SUB DUP2 DUP7 GAS DELEGATECALL ISZERO DUP1 ISZERO PUSH2 0x33E8 JUMPI RETURNDATASIZE PUSH0 PUSH0 RETURNDATACOPY RETURNDATASIZE PUSH0 REVERT JUMPDEST POP POP POP POP PUSH1 0x40 MLOAD RETURNDATASIZE PUSH1 0x1F NOT PUSH1 0x1F DUP3 ADD AND DUP3 ADD DUP1 PUSH1 0x40 MSTORE POP DUP2 ADD SWAP1 PUSH2 0x340C SWAP2 SWAP1 PUSH2 0x47CF JUMP JUMPDEST PUSH0 ADD MLOAD SWAP2 POP SWAP2 POP SWAP2 POP SWAP2 JUMP JUMPDEST PUSH0 PUSH20 0xFFFFFFFFFFFFFFFFFFFFFFFFFFFFFFFFFFFFFFFF DUP4 AND SWAP3 POP PUSH20 0xFFFFFFFFFFFFFFFFFFFFFFFFFFFFFFFFFFFFFFFF DUP3 AND SWAP2 POP DUP4 DUP3 EQ DUP4 DUP4 EQ OR SWAP1 POP SWAP4 SWAP3 POP POP POP JUMP JUMPDEST POP POP POP POP JUMP JUMPDEST PUSH0 PUSH0 PUSH1 0xE8 DUP4 SWAP1 SHR SWAP1 POP PUSH1 0xE8 PUSH2 0x3477 DUP7 DUP7 DUP5 PUSH2 0x3928 JUMP JUMPDEST PUSH3 0xFFFFFF AND SWAP1 SHL SWAP2 POP POP SWAP4 SWAP3 POP POP POP JUMP JUMPDEST PUSH0 PUSH20 0xFFFFFFFFFFFFFFFFFFFFFFFFFFFFFFFFFFFFFFFF DUP4 AND SWAP3 POP DUP2 TIMESTAMP PUSH1 0xA0 SHL OR DUP4 OR SWAP1 POP SWAP3 SWAP2 POP POP JUMP JUMPDEST POP POP POP POP JUMP JUMPDEST PUSH20 0x0 PUSH4 0xDBE0B21C DUP3 PUSH1 0x40 MLOAD DUP3 PUSH4 0xFFFFFFFF AND PUSH1 0xE0 SHL DUP2 MSTORE PUSH1 0x4 ADD PUSH2 0x34EF SWAP2 SWAP1 PUSH2 0x4765 JUMP JUMPDEST PUSH0 PUSH1 0x40 MLOAD DUP1 DUP4 SUB DUP2 DUP7 DUP1 EXTCODESIZE ISZERO DUP1 ISZERO PUSH2 0x3505 JUMPI PUSH0 PUSH0 REVERT JUMPDEST POP GAS DELEGATECALL ISZERO DUP1 ISZERO PUSH2 0x3517 JUMPI RETURNDATASIZE PUSH0 PUSH0 RETURNDATACOPY RETURNDATASIZE PUSH0 REVERT JUMPDEST POP POP POP POP POP JUMP JUMPDEST PUSH20 0x0 PUSH4 0x71BC71C DUP4 DUP4 PUSH2 0x3543 DUP7 PUSH2 0x18D5 JUMP JUMPDEST PUSH1 0x40 MLOAD DUP5 PUSH4 0xFFFFFFFF AND PUSH1 0xE0 SHL DUP2 MSTORE PUSH1 0x4 ADD PUSH2 0x3561 SWAP4 SWAP3 SWAP2 SWAP1 PUSH2 0x53DB JUMP JUMPDEST PUSH0 PUSH1 0x40 MLOAD DUP1 DUP4 SUB DUP2 DUP7 DUP1 EXTCODESIZE ISZERO DUP1 ISZERO PUSH2 0x3577 JUMPI PUSH0 PUSH0 REVERT JUMPDEST POP GAS DELEGATECALL ISZERO DUP1 ISZERO PUSH2 0x3589 JUMPI RETURNDATASIZE PUSH0 PUSH0 RETURNDATACOPY RETURNDATASIZE PUSH0 REVERT JUMPDEST POP POP POP POP POP POP JUMP JUMPDEST PUSH20 0x0 PUSH4 0x40E02F5C DUP3 PUSH1 0x40 MLOAD DUP3 PUSH4 0xFFFFFFFF AND PUSH1 0xE0 SHL DUP2 MSTORE PUSH1 0x4 ADD PUSH2 0x35C8 SWAP2 SWAP1 PUSH2 0x4765 JUMP JUMPDEST PUSH0 PUSH1 0x40 MLOAD DUP1 DUP4 SUB DUP2 DUP7 DUP1 EXTCODESIZE ISZERO DUP1 ISZERO PUSH2 0x35DE JUMPI PUSH0 PUSH0 REVERT JUMPDEST POP GAS DELEGATECALL ISZERO DUP1 ISZERO PUSH2 0x35F0 JUMPI RETURNDATASIZE PUSH0 PUSH0 RETURNDATACOPY RETURNDATASIZE PUSH0 REVERT JUMPDEST POP POP POP POP POP JUMP JUMPDEST PUSH20 0x0 PUSH4 0x4F4979ED DUP4 DUP4 PUSH1 0x1 PUSH2 0x361E DUP8 PUSH2 0x18D5 JUMP JUMPDEST PUSH2 0x3628 SWAP2 SWAP1 PUSH2 0x5410 JUMP JUMPDEST PUSH1 0x40 MLOAD DUP5 PUSH4 0xFFFFFFFF AND PUSH1 0xE0 SHL DUP2 MSTORE PUSH1 0x4 ADD PUSH2 0x3646 SWAP4 SWAP3 SWAP2 SWAP1 PUSH2 0x53DB JUMP JUMPDEST PUSH0 PUSH1 0x40 MLOAD DUP1 DUP4 SUB DUP2 DUP7 DUP1 EXTCODESIZE ISZERO DUP1 ISZERO PUSH2 0x365C JUMPI PUSH0 PUSH0 REVERT JUMPDEST POP GAS DELEGATECALL ISZERO DUP1 ISZERO PUSH2 0x366E JUMPI RETURNDATASIZE PUSH0 PUSH0 RETURNDATACOPY RETURNDATASIZE PUSH0 REVERT JUMPDEST POP POP POP POP POP POP JUMP JUMPDEST PUSH0 PUSH0 DUP3 SWAP1 POP PUSH0 PUSH0 SWAP1 POP JUMPDEST DUP5 MLOAD DUP2 LT ISZERO PUSH2 0x36BC JUMPI PUSH2 0x36AD DUP3 DUP7 DUP4 DUP2 MLOAD DUP2 LT PUSH2 0x36A0 JUMPI PUSH2 0x369F PUSH2 0x5443 JUMP JUMPDEST JUMPDEST PUSH1 0x20 MUL PUSH1 0x20 ADD ADD MLOAD PUSH2 0x3930 JUMP JUMPDEST SWAP2 POP DUP1 DUP1 PUSH1 0x1 ADD SWAP2 POP POP PUSH2 0x3680 JUMP JUMPDEST POP DUP1 SWAP2 POP POP SWAP3 SWAP2 POP POP JUMP JUMPDEST PUSH2 0x36D1 DUP4 DUP4 PUSH2 0x395A JUMP JUMPDEST PUSH0 DUP4 PUSH20 0xFFFFFFFFFFFFFFFFFFFFFFFFFFFFFFFFFFFFFFFF AND EXTCODESIZE EQ PUSH2 0x380A JUMPI PUSH0 PUSH20 0x0 PUSH4 0x9451C99A PUSH1 0x40 MLOAD DUP2 PUSH4 0xFFFFFFFF AND PUSH1 0xE0 SHL DUP2 MSTORE PUSH1 0x4 ADD PUSH1 0x20 PUSH1 0x40 MLOAD DUP1 DUP4 SUB DUP2 DUP7 GAS DELEGATECALL ISZERO DUP1 ISZERO PUSH2 0x3737 JUMPI RETURNDATASIZE PUSH0 PUSH0 RETURNDATACOPY RETURNDATASIZE PUSH0 REVERT JUMPDEST POP POP POP POP PUSH1 0x40 MLOAD RETURNDATASIZE PUSH1 0x1F NOT PUSH1 0x1F DUP3 ADD AND DUP3 ADD DUP1 PUSH1 0x40 MSTORE POP DUP2 ADD SWAP1 PUSH2 0x375B SWAP2 SWAP1 PUSH2 0x48A1 JUMP JUMPDEST SWAP1 POP PUSH0 DUP4 DUP3 SUB SWAP1 POP JUMPDEST PUSH2 0x3776 PUSH0 DUP7 DUP4 DUP1 PUSH1 0x1 ADD SWAP5 POP DUP7 PUSH2 0x3198 JUMP JUMPDEST PUSH2 0x378B JUMPI PUSH2 0x378A PUSH4 0xD1A57ED6 PUSH1 0xE0 SHL PUSH2 0x2254 JUMP JUMPDEST JUMPDEST DUP2 DUP2 LT PUSH2 0x3764 JUMPI DUP2 PUSH20 0x0 PUSH4 0x9451C99A PUSH1 0x40 MLOAD DUP2 PUSH4 0xFFFFFFFF AND PUSH1 0xE0 SHL DUP2 MSTORE PUSH1 0x4 ADD PUSH1 0x20 PUSH1 0x40 MLOAD DUP1 DUP4 SUB DUP2 DUP7 GAS DELEGATECALL ISZERO DUP1 ISZERO PUSH2 0x37DA JUMPI RETURNDATASIZE PUSH0 PUSH0 RETURNDATACOPY RETURNDATASIZE PUSH0 REVERT JUMPDEST POP POP POP POP PUSH1 0x40 MLOAD RETURNDATASIZE PUSH1 0x1F NOT PUSH1 0x1F DUP3 ADD AND DUP3 ADD DUP1 PUSH1 0x40 MSTORE POP DUP2 ADD SWAP1 PUSH2 0x37FE SWAP2 SWAP1 PUSH2 0x48A1 JUMP JUMPDEST EQ PUSH2 0x3807 JUMPI PUSH0 PUSH0 REVERT JUMPDEST POP POP JUMPDEST POP POP POP JUMP JUMPDEST PUSH1 0x60 PUSH0 PUSH1 0x1 PUSH2 0x381D DUP5 PUSH2 0x3C75 JUMP JUMPDEST ADD SWAP1 POP PUSH0 DUP2 PUSH8 0xFFFFFFFFFFFFFFFF DUP2 GT ISZERO PUSH2 0x383B JUMPI PUSH2 0x383A PUSH2 0x408B JUMP JUMPDEST JUMPDEST PUSH1 0x40 MLOAD SWAP1 DUP1 DUP3 MSTORE DUP1 PUSH1 0x1F ADD PUSH1 0x1F NOT AND PUSH1 0x20 ADD DUP3 ADD PUSH1 0x40 MSTORE DUP1 ISZERO PUSH2 0x386D JUMPI DUP2 PUSH1 0x20 ADD PUSH1 0x1 DUP3 MUL DUP1 CALLDATASIZE DUP4 CALLDATACOPY DUP1 DUP3 ADD SWAP2 POP POP SWAP1 POP JUMPDEST POP SWAP1 POP PUSH0 DUP3 PUSH1 0x20 ADD DUP3 ADD SWAP1 POP JUMPDEST PUSH1 0x1 ISZERO PUSH2 0x38CE JUMPI DUP1 DUP1 PUSH1 0x1 SWAP1 SUB SWAP2 POP POP PUSH32 0x3031323334353637383961626364656600000000000000000000000000000000 PUSH1 0xA DUP7 MOD BYTE DUP2 MSTORE8 PUSH1 0xA DUP6 DUP2 PUSH2 0x38C3 JUMPI PUSH2 0x38C2 PUSH2 0x5470 JUMP JUMPDEST JUMPDEST DIV SWAP5 POP PUSH0 DUP6 SUB PUSH2 0x387A JUMPI JUMPDEST DUP2 SWAP4 POP POP POP POP SWAP2 SWAP1 POP JUMP JUMPDEST PUSH1 0x60 PUSH1 0xA0 PUSH1 0x40 MLOAD ADD DUP1 PUSH1 0x40 MSTORE PUSH1 0x20 DUP2 SUB SWAP2 POP PUSH0 DUP3 MSTORE DUP2 DUP4 JUMPDEST PUSH1 0x1 ISZERO PUSH2 0x3913 JUMPI PUSH1 0x1 DUP5 SUB SWAP4 POP PUSH1 0xA DUP2 MOD PUSH1 0x30 ADD DUP5 MSTORE8 PUSH1 0xA DUP2 DIV SWAP1 POP DUP1 PUSH2 0x38F1 JUMPI JUMPDEST POP DUP3 DUP2 SUB PUSH1 0x20 DUP5 SUB SWAP4 POP DUP1 DUP5 MSTORE POP POP POP SWAP2 SWAP1 POP JUMP JUMPDEST PUSH0 SWAP4 SWAP3 POP POP POP JUMP JUMPDEST PUSH0 DUP2 DUP4 LT PUSH2 0x3947 JUMPI PUSH2 0x3942 DUP3 DUP5 PUSH2 0x3DC6 JUMP JUMPDEST PUSH2 0x3952 JUMP JUMPDEST PUSH2 0x3951 DUP4 DUP4 PUSH2 0x3DC6 JUMP JUMPDEST JUMPDEST SWAP1 POP SWAP3 SWAP2 POP POP JUMP JUMPDEST PUSH0 PUSH20 0x0 PUSH4 0x9451C99A PUSH1 0x40 MLOAD DUP2 PUSH4 0xFFFFFFFF AND PUSH1 0xE0 SHL DUP2 MSTORE PUSH1 0x4 ADD PUSH1 0x20 PUSH1 0x40 MLOAD DUP1 DUP4 SUB DUP2 DUP7 GAS DELEGATECALL ISZERO DUP1 ISZERO PUSH2 0x39A2 JUMPI RETURNDATASIZE PUSH0 PUSH0 RETURNDATACOPY RETURNDATASIZE PUSH0 REVERT JUMPDEST POP POP POP POP PUSH1 0x40 MLOAD RETURNDATASIZE PUSH1 0x1F NOT PUSH1 0x1F DUP3 ADD AND DUP3 ADD DUP1 PUSH1 0x40 MSTORE POP DUP2 ADD SWAP1 PUSH2 0x39C6 SWAP2 SWAP1 PUSH2 0x48A1 JUMP JUMPDEST SWAP1 POP PUSH0 DUP3 SUB PUSH2 0x39E0 JUMPI PUSH2 0x39DF PUSH4 0xB562E8DD PUSH1 0xE0 SHL PUSH2 0x2254 JUMP JUMPDEST JUMPDEST PUSH2 0x39EC PUSH0 DUP5 DUP4 DUP6 PUSH2 0x345B JUMP JUMPDEST PUSH20 0x0 PUSH4 0xE68FDEE1 DUP3 PUSH2 0x3A25 DUP7 PUSH2 0x3A16 PUSH0 DUP10 PUSH0 PUSH2 0x3461 JUMP JUMPDEST PUSH2 0x3A1F DUP9 PUSH2 0x3DDA JUMP JUMPDEST OR PUSH2 0x3488 JUMP JUMPDEST PUSH1 0x40 MLOAD DUP4 PUSH4 0xFFFFFFFF AND PUSH1 0xE0 SHL DUP2 MSTORE PUSH1 0x4 ADD PUSH2 0x3A42 SWAP3 SWAP2 SWAP1 PUSH2 0x4EFF JUMP JUMPDEST PUSH0 PUSH1 0x40 MLOAD DUP1 DUP4 SUB DUP2 DUP7 DUP1 EXTCODESIZE ISZERO DUP1 ISZERO PUSH2 0x3A58 JUMPI PUSH0 PUSH0 REVERT JUMPDEST POP GAS DELEGATECALL ISZERO DUP1 ISZERO PUSH2 0x3A6A JUMPI RETURNDATASIZE PUSH0 PUSH0 RETURNDATACOPY RETURNDATASIZE PUSH0 REVERT JUMPDEST POP POP POP POP PUSH20 0x0 PUSH4 0xA3301173 DUP5 PUSH1 0x1 PUSH1 0x40 PUSH1 0x1 SWAP1 SHL OR DUP6 MUL PUSH20 0x0 PUSH4 0x21B0ED7D DUP9 PUSH1 0x40 MLOAD DUP3 PUSH4 0xFFFFFFFF AND PUSH1 0xE0 SHL DUP2 MSTORE PUSH1 0x4 ADD PUSH2 0x3ACB SWAP2 SWAP1 PUSH2 0x4A54 JUMP JUMPDEST PUSH1 0x20 PUSH1 0x40 MLOAD DUP1 DUP4 SUB DUP2 DUP7 GAS DELEGATECALL ISZERO DUP1 ISZERO PUSH2 0x3AE6 JUMPI RETURNDATASIZE PUSH0 PUSH0 RETURNDATACOPY RETURNDATASIZE PUSH0 REVERT JUMPDEST POP POP POP POP PUSH1 0x40 MLOAD RETURNDATASIZE PUSH1 0x1F NOT PUSH1 0x1F DUP3 ADD AND DUP3 ADD DUP1 PUSH1 0x40 MSTORE POP DUP2 ADD SWAP1 PUSH2 0x3B0A SWAP2 SWAP1 PUSH2 0x48A1 JUMP JUMPDEST ADD PUSH1 0x40 MLOAD DUP4 PUSH4 0xFFFFFFFF AND PUSH1 0xE0 SHL DUP2 MSTORE PUSH1 0x4 ADD PUSH2 0x3B28 SWAP3 SWAP2 SWAP1 PUSH2 0x4CE0 JUMP JUMPDEST PUSH0 PUSH1 0x40 MLOAD DUP1 DUP4 SUB DUP2 DUP7 DUP1 EXTCODESIZE ISZERO DUP1 ISZERO PUSH2 0x3B3E JUMPI PUSH0 PUSH0 REVERT JUMPDEST POP GAS DELEGATECALL ISZERO DUP1 ISZERO PUSH2 0x3B50 JUMPI RETURNDATASIZE PUSH0 PUSH0 RETURNDATACOPY RETURNDATASIZE PUSH0 REVERT JUMPDEST POP POP POP POP PUSH0 PUSH20 0xFFFFFFFFFFFFFFFFFFFFFFFFFFFFFFFFFFFFFFFF DUP5 PUSH20 0xFFFFFFFFFFFFFFFFFFFFFFFFFFFFFFFFFFFFFFFF AND AND SWAP1 POP PUSH0 DUP2 SUB PUSH2 0x3B9C JUMPI PUSH2 0x3B9B PUSH4 0x2E076300 PUSH1 0xE0 SHL PUSH2 0x2254 JUMP JUMPDEST JUMPDEST PUSH0 DUP4 DUP4 ADD SWAP1 POP PUSH0 DUP4 SWAP1 POP PUSH2 0x3BAE PUSH2 0x2449 JUMP JUMPDEST PUSH1 0x1 DUP4 SUB GT ISZERO PUSH2 0x3BC9 JUMPI PUSH2 0x3BC8 PUSH4 0x81647E3A PUSH1 0xE0 SHL PUSH2 0x2254 JUMP JUMPDEST JUMPDEST JUMPDEST DUP1 DUP4 PUSH0 PUSH32 0xDDF252AD1BE2C89B69C2B068FC378DAA952BA7F163C4A11628F55A4DF523B3EF PUSH0 PUSH0 LOG4 DUP2 DUP2 PUSH1 0x1 ADD SWAP2 POP DUP2 SUB PUSH2 0x3BCA JUMPI PUSH20 0x0 PUSH4 0x345E7B28 DUP4 PUSH1 0x40 MLOAD DUP3 PUSH4 0xFFFFFFFF AND PUSH1 0xE0 SHL DUP2 MSTORE PUSH1 0x4 ADD PUSH2 0x3C35 SWAP2 SWAP1 PUSH2 0x4765 JUMP JUMPDEST PUSH0 PUSH1 0x40 MLOAD DUP1 DUP4 SUB DUP2 DUP7 DUP1 EXTCODESIZE ISZERO DUP1 ISZERO PUSH2 0x3C4B JUMPI PUSH0 PUSH0 REVERT JUMPDEST POP GAS DELEGATECALL ISZERO DUP1 ISZERO PUSH2 0x3C5D JUMPI RETURNDATASIZE PUSH0 PUSH0 RETURNDATACOPY RETURNDATASIZE PUSH0 REVERT JUMPDEST POP POP POP POP POP POP POP PUSH2 0x3C70 PUSH0 DUP5 DUP4 DUP6 PUSH2 0x34B2 JUMP JUMPDEST POP POP POP JUMP JUMPDEST PUSH0 PUSH0 PUSH0 SWAP1 POP PUSH27 0x184F03E93FF9F4DAA797ED6E38ED64BF6A1F010000000000000000 DUP4 LT PUSH2 0x3CD1 JUMPI PUSH27 0x184F03E93FF9F4DAA797ED6E38ED64BF6A1F010000000000000000 DUP4 DUP2 PUSH2 0x3CC7 JUMPI PUSH2 0x3CC6 PUSH2 0x5470 JUMP JUMPDEST JUMPDEST DIV SWAP3 POP PUSH1 0x40 DUP2 ADD SWAP1 POP JUMPDEST PUSH14 0x4EE2D6D415B85ACEF8100000000 DUP4 LT PUSH2 0x3D0E JUMPI PUSH14 0x4EE2D6D415B85ACEF8100000000 DUP4 DUP2 PUSH2 0x3D04 JUMPI PUSH2 0x3D03 PUSH2 0x5470 JUMP JUMPDEST JUMPDEST DIV SWAP3 POP PUSH1 0x20 DUP2 ADD SWAP1 POP JUMPDEST PUSH7 0x2386F26FC10000 DUP4 LT PUSH2 0x3D3D JUMPI PUSH7 0x2386F26FC10000 DUP4 DUP2 PUSH2 0x3D33 JUMPI PUSH2 0x3D32 PUSH2 0x5470 JUMP JUMPDEST JUMPDEST DIV SWAP3 POP PUSH1 0x10 DUP2 ADD SWAP1 POP JUMPDEST PUSH4 0x5F5E100 DUP4 LT PUSH2 0x3D66 JUMPI PUSH4 0x5F5E100 DUP4 DUP2 PUSH2 0x3D5C JUMPI PUSH2 0x3D5B PUSH2 0x5470 JUMP JUMPDEST JUMPDEST DIV SWAP3 POP PUSH1 0x8 DUP2 ADD SWAP1 POP JUMPDEST PUSH2 0x2710 DUP4 LT PUSH2 0x3D8B JUMPI PUSH2 0x2710 DUP4 DUP2 PUSH2 0x3D81 JUMPI PUSH2 0x3D80 PUSH2 0x5470 JUMP JUMPDEST JUMPDEST DIV SWAP3 POP PUSH1 0x4 DUP2 ADD SWAP1 POP JUMPDEST PUSH1 0x64 DUP4 LT PUSH2 0x3DAE JUMPI PUSH1 0x64 DUP4 DUP2 PUSH2 0x3DA4 JUMPI PUSH2 0x3DA3 PUSH2 0x5470 JUMP JUMPDEST JUMPDEST DIV SWAP3 POP PUSH1 0x2 DUP2 ADD SWAP1 POP JUMPDEST PUSH1 0xA DUP4 LT PUSH2 0x3DBD JUMPI PUSH1 0x1 DUP2 ADD SWAP1 POP JUMPDEST DUP1 SWAP2 POP POP SWAP2 SWAP1 POP JUMP JUMPDEST PUSH0 DUP3 PUSH0 MSTORE DUP2 PUSH1 0x20 MSTORE PUSH1 0x40 PUSH0 KECCAK256 SWAP1 POP SWAP3 SWAP2 POP POP JUMP JUMPDEST PUSH0 PUSH1 0x1 DUP3 EQ PUSH1 0xE1 SHL SWAP1 POP SWAP2 SWAP1 POP JUMP JUMPDEST PUSH0 PUSH1 0x40 MLOAD SWAP1 POP SWAP1 JUMP JUMPDEST PUSH0 PUSH0 REVERT JUMPDEST PUSH0 PUSH0 REVERT JUMPDEST PUSH0 PUSH32 0xFFFFFFFF00000000000000000000000000000000000000000000000000000000 DUP3 AND SWAP1 POP SWAP2 SWAP1 POP JUMP JUMPDEST PUSH2 0x3E2E DUP2 PUSH2 0x3DFA JUMP JUMPDEST DUP2 EQ PUSH2 0x3E38 JUMPI PUSH0 PUSH0 REVERT JUMPDEST POP JUMP JUMPDEST PUSH0 DUP2 CALLDATALOAD SWAP1 POP PUSH2 0x3E49 DUP2 PUSH2 0x3E25 JUMP JUMPDEST SWAP3 SWAP2 POP POP JUMP JUMPDEST PUSH0 PUSH1 0x20 DUP3 DUP5 SUB SLT ISZERO PUSH2 0x3E64 JUMPI PUSH2 0x3E63 PUSH2 0x3DF2 JUMP JUMPDEST JUMPDEST PUSH0 PUSH2 0x3E71 DUP5 DUP3 DUP6 ADD PUSH2 0x3E3B JUMP JUMPDEST SWAP2 POP POP SWAP3 SWAP2 POP POP JUMP JUMPDEST PUSH0 DUP2 ISZERO ISZERO SWAP1 POP SWAP2 SWAP1 POP JUMP JUMPDEST PUSH2 0x3E8E DUP2 PUSH2 0x3E7A JUMP JUMPDEST DUP3 MSTORE POP POP JUMP JUMPDEST PUSH0 PUSH1 0x20 DUP3 ADD SWAP1 POP PUSH2 0x3EA7 PUSH0 DUP4 ADD DUP5 PUSH2 0x3E85 JUMP JUMPDEST SWAP3 SWAP2 POP POP JUMP JUMPDEST PUSH0 DUP2 MLOAD SWAP1 POP SWAP2 SWAP1 POP JUMP JUMPDEST PUSH0 DUP3 DUP3 MSTORE PUSH1 0x20 DUP3 ADD SWAP1 POP SWAP3 SWAP2 POP POP JUMP JUMPDEST DUP3 DUP2 DUP4 MCOPY PUSH0 DUP4 DUP4 ADD MSTORE POP POP POP JUMP JUMPDEST PUSH0 PUSH1 0x1F NOT PUSH1 0x1F DUP4 ADD AND SWAP1 POP SWAP2 SWAP1 POP JUMP JUMPDEST PUSH0 PUSH2 0x3EEF DUP3 PUSH2 0x3EAD JUMP JUMPDEST PUSH2 0x3EF9 DUP2 DUP6 PUSH2 0x3EB7 JUMP JUMPDEST SWAP4 POP PUSH2 0x3F09 DUP2 DUP6 PUSH1 0x20 DUP7 ADD PUSH2 0x3EC7 JUMP JUMPDEST PUSH2 0x3F12 DUP2 PUSH2 0x3ED5 JUMP JUMPDEST DUP5 ADD SWAP2 POP POP SWAP3 SWAP2 POP POP JUMP JUMPDEST PUSH0 PUSH1 0x20 DUP3 ADD SWAP1 POP DUP2 DUP2 SUB PUSH0 DUP4 ADD MSTORE PUSH2 0x3F35 DUP2 DUP5 PUSH2 0x3EE5 JUMP JUMPDEST SWAP1 POP SWAP3 SWAP2 POP POP JUMP JUMPDEST PUSH0 DUP2 SWAP1 POP SWAP2 SWAP1 POP JUMP JUMPDEST PUSH2 0x3F4F DUP2 PUSH2 0x3F3D JUMP JUMPDEST DUP2 EQ PUSH2 0x3F59 JUMPI PUSH0 PUSH0 REVERT JUMPDEST POP JUMP JUMPDEST PUSH0 DUP2 CALLDATALOAD SWAP1 POP PUSH2 0x3F6A DUP2 PUSH2 0x3F46 JUMP JUMPDEST SWAP3 SWAP2 POP POP JUMP JUMPDEST PUSH0 PUSH1 0x20 DUP3 DUP5 SUB SLT ISZERO PUSH2 0x3F85 JUMPI PUSH2 0x3F84 PUSH2 0x3DF2 JUMP JUMPDEST JUMPDEST PUSH0 PUSH2 0x3F92 DUP5 DUP3 DUP6 ADD PUSH2 0x3F5C JUMP JUMPDEST SWAP2 POP POP SWAP3 SWAP2 POP POP JUMP JUMPDEST PUSH0 PUSH20 0xFFFFFFFFFFFFFFFFFFFFFFFFFFFFFFFFFFFFFFFF DUP3 AND SWAP1 POP SWAP2 SWAP1 POP JUMP JUMPDEST PUSH0 PUSH2 0x3FC4 DUP3 PUSH2 0x3F9B JUMP JUMPDEST SWAP1 POP SWAP2 SWAP1 POP JUMP JUMPDEST PUSH2 0x3FD4 DUP2 PUSH2 0x3FBA JUMP JUMPDEST DUP3 MSTORE POP POP JUMP JUMPDEST PUSH0 PUSH1 0x20 DUP3 ADD SWAP1 POP PUSH2 0x3FED PUSH0 DUP4 ADD DUP5 PUSH2 0x3FCB JUMP JUMPDEST SWAP3 SWAP2 POP POP JUMP JUMPDEST PUSH2 0x3FFC DUP2 PUSH2 0x3FBA JUMP JUMPDEST DUP2 EQ PUSH2 0x4006 JUMPI PUSH0 PUSH0 REVERT JUMPDEST POP JUMP JUMPDEST PUSH0 DUP2 CALLDATALOAD SWAP1 POP PUSH2 0x4017 DUP2 PUSH2 0x3FF3 JUMP JUMPDEST SWAP3 SWAP2 POP POP JUMP JUMPDEST PUSH0 PUSH0 PUSH1 0x40 DUP4 DUP6 SUB SLT ISZERO PUSH2 0x4033 JUMPI PUSH2 0x4032 PUSH2 0x3DF2 JUMP JUMPDEST JUMPDEST PUSH0 PUSH2 0x4040 DUP6 DUP3 DUP7 ADD PUSH2 0x4009 JUMP JUMPDEST SWAP3 POP POP PUSH1 0x20 PUSH2 0x4051 DUP6 DUP3 DUP7 ADD PUSH2 0x3F5C JUMP JUMPDEST SWAP2 POP POP SWAP3 POP SWAP3 SWAP1 POP JUMP JUMPDEST PUSH2 0x4064 DUP2 PUSH2 0x3F3D JUMP JUMPDEST DUP3 MSTORE POP POP JUMP JUMPDEST PUSH0 PUSH1 0x20 DUP3 ADD SWAP1 POP PUSH2 0x407D PUSH0 DUP4 ADD DUP5 PUSH2 0x405B JUMP JUMPDEST SWAP3 SWAP2 POP POP JUMP JUMPDEST PUSH0 PUSH0 REVERT JUMPDEST PUSH0 PUSH0 REVERT JUMPDEST PUSH32 0x4E487B7100000000000000000000000000000000000000000000000000000000 PUSH0 MSTORE PUSH1 0x41 PUSH1 0x4 MSTORE PUSH1 0x24 PUSH0 REVERT JUMPDEST PUSH2 0x40C1 DUP3 PUSH2 0x3ED5 JUMP JUMPDEST DUP2 ADD DUP2 DUP2 LT PUSH8 0xFFFFFFFFFFFFFFFF DUP3 GT OR ISZERO PUSH2 0x40E0 JUMPI PUSH2 0x40DF PUSH2 0x408B JUMP JUMPDEST JUMPDEST DUP1 PUSH1 0x40 MSTORE POP POP POP JUMP JUMPDEST PUSH0 PUSH2 0x40F2 PUSH2 0x3DE9 JUMP JUMPDEST SWAP1 POP PUSH2 0x40FE DUP3 DUP3 PUSH2 0x40B8 JUMP JUMPDEST SWAP2 SWAP1 POP JUMP JUMPDEST PUSH0 PUSH8 0xFFFFFFFFFFFFFFFF DUP3 GT ISZERO PUSH2 0x411D JUMPI PUSH2 0x411C PUSH2 0x408B JUMP JUMPDEST JUMPDEST PUSH2 0x4126 DUP3 PUSH2 0x3ED5 JUMP JUMPDEST SWAP1 POP PUSH1 0x20 DUP2 ADD SWAP1 POP SWAP2 SWAP1 POP JUMP JUMPDEST DUP3 DUP2 DUP4 CALLDATACOPY PUSH0 DUP4 DUP4 ADD MSTORE POP POP POP JUMP JUMPDEST PUSH0 PUSH2 0x4153 PUSH2 0x414E DUP5 PUSH2 0x4103 JUMP JUMPDEST PUSH2 0x40E9 JUMP JUMPDEST SWAP1 POP DUP3 DUP2 MSTORE PUSH1 0x20 DUP2 ADD DUP5 DUP5 DUP5 ADD GT ISZERO PUSH2 0x416F JUMPI PUSH2 0x416E PUSH2 0x4087 JUMP JUMPDEST JUMPDEST PUSH2 0x417A DUP5 DUP3 DUP6 PUSH2 0x4133 JUMP JUMPDEST POP SWAP4 SWAP3 POP POP POP JUMP JUMPDEST PUSH0 DUP3 PUSH1 0x1F DUP4 ADD SLT PUSH2 0x4196 JUMPI PUSH2 0x4195 PUSH2 0x4083 JUMP JUMPDEST JUMPDEST DUP2 CALLDATALOAD PUSH2 0x41A6 DUP5 DUP3 PUSH1 0x20 DUP7 ADD PUSH2 0x4141 JUMP JUMPDEST SWAP2 POP POP SWAP3 SWAP2 POP POP JUMP JUMPDEST PUSH0 PUSH0 PUSH0 PUSH0 PUSH1 0x80 DUP6 DUP8 SUB SLT ISZERO PUSH2 0x41C7 JUMPI PUSH2 0x41C6 PUSH2 0x3DF2 JUMP JUMPDEST JUMPDEST PUSH0 PUSH2 0x41D4 DUP8 DUP3 DUP9 ADD PUSH2 0x4009 JUMP JUMPDEST SWAP5 POP POP PUSH1 0x20 PUSH2 0x41E5 DUP8 DUP3 DUP9 ADD PUSH2 0x4009 JUMP JUMPDEST SWAP4 POP POP PUSH1 0x40 PUSH2 0x41F6 DUP8 DUP3 DUP9 ADD PUSH2 0x3F5C JUMP JUMPDEST SWAP3 POP POP PUSH1 0x60 DUP6 ADD CALLDATALOAD PUSH8 0xFFFFFFFFFFFFFFFF DUP2 GT ISZERO PUSH2 0x4217 JUMPI PUSH2 0x4216 PUSH2 0x3DF6 JUMP JUMPDEST JUMPDEST PUSH2 0x4223 DUP8 DUP3 DUP9 ADD PUSH2 0x4182 JUMP JUMPDEST SWAP2 POP POP SWAP3 SWAP6 SWAP2 SWAP5 POP SWAP3 POP JUMP JUMPDEST PUSH2 0x4238 DUP2 PUSH2 0x3DFA JUMP JUMPDEST DUP3 MSTORE POP POP JUMP JUMPDEST PUSH0 PUSH1 0x20 DUP3 ADD SWAP1 POP PUSH2 0x4251 PUSH0 DUP4 ADD DUP5 PUSH2 0x422F JUMP JUMPDEST SWAP3 SWAP2 POP POP JUMP JUMPDEST PUSH0 PUSH0 REVERT JUMPDEST PUSH0 PUSH0 REVERT JUMPDEST PUSH0 PUSH0 DUP4 PUSH1 0x1F DUP5 ADD SLT PUSH2 0x4274 JUMPI PUSH2 0x4273 PUSH2 0x4083 JUMP JUMPDEST JUMPDEST DUP3 CALLDATALOAD SWAP1 POP PUSH8 0xFFFFFFFFFFFFFFFF DUP2 GT ISZERO PUSH2 0x4291 JUMPI PUSH2 0x4290 PUSH2 0x4257 JUMP JUMPDEST JUMPDEST PUSH1 0x20 DUP4 ADD SWAP2 POP DUP4 PUSH1 0x1 DUP3 MUL DUP4 ADD GT ISZERO PUSH2 0x42AD JUMPI PUSH2 0x42AC PUSH2 0x425B JUMP JUMPDEST JUMPDEST SWAP3 POP SWAP3 SWAP1 POP JUMP JUMPDEST PUSH0 PUSH0 PUSH0 PUSH1 0x40 DUP5 DUP7 SUB SLT ISZERO PUSH2 0x42CB JUMPI PUSH2 0x42CA PUSH2 0x3DF2 JUMP JUMPDEST JUMPDEST PUSH0 PUSH2 0x42D8 DUP7 DUP3 DUP8 ADD PUSH2 0x3F5C JUMP JUMPDEST SWAP4 POP POP PUSH1 0x20 DUP5 ADD CALLDATALOAD PUSH8 0xFFFFFFFFFFFFFFFF DUP2 GT ISZERO PUSH2 0x42F9 JUMPI PUSH2 0x42F8 PUSH2 0x3DF6 JUMP JUMPDEST JUMPDEST PUSH2 0x4305 DUP7 DUP3 DUP8 ADD PUSH2 0x425F JUMP JUMPDEST SWAP3 POP SWAP3 POP POP SWAP3 POP SWAP3 POP SWAP3 JUMP JUMPDEST PUSH0 PUSH0 PUSH0 PUSH1 0x60 DUP5 DUP7 SUB SLT ISZERO PUSH2 0x4328 JUMPI PUSH2 0x4327 PUSH2 0x3DF2 JUMP JUMPDEST JUMPDEST PUSH0 PUSH2 0x4335 DUP7 DUP3 DUP8 ADD PUSH2 0x4009 JUMP JUMPDEST SWAP4 POP POP PUSH1 0x20 PUSH2 0x4346 DUP7 DUP3 DUP8 ADD PUSH2 0x4009 JUMP JUMPDEST SWAP3 POP POP PUSH1 0x40 PUSH2 0x4357 DUP7 DUP3 DUP8 ADD PUSH2 0x3F5C JUMP JUMPDEST SWAP2 POP POP SWAP3 POP SWAP3 POP SWAP3 JUMP JUMPDEST PUSH0 DUP2 SWAP1 POP SWAP2 SWAP1 POP JUMP JUMPDEST PUSH2 0x4373 DUP2 PUSH2 0x4361 JUMP JUMPDEST DUP2 EQ PUSH2 0x437D JUMPI PUSH0 PUSH0 REVERT JUMPDEST POP JUMP JUMPDEST PUSH0 DUP2 CALLDATALOAD SWAP1 POP PUSH2 0x438E DUP2 PUSH2 0x436A JUMP JUMPDEST SWAP3 SWAP2 POP POP JUMP JUMPDEST PUSH0 PUSH1 0x20 DUP3 DUP5 SUB SLT ISZERO PUSH2 0x43A9 JUMPI PUSH2 0x43A8 PUSH2 0x3DF2 JUMP JUMPDEST JUMPDEST PUSH0 PUSH2 0x43B6 DUP5 DUP3 DUP6 ADD PUSH2 0x4380 JUMP JUMPDEST SWAP2 POP POP SWAP3 SWAP2 POP POP JUMP JUMPDEST PUSH0 PUSH0 DUP4 PUSH1 0x1F DUP5 ADD SLT PUSH2 0x43D4 JUMPI PUSH2 0x43D3 PUSH2 0x4083 JUMP JUMPDEST JUMPDEST DUP3 CALLDATALOAD SWAP1 POP PUSH8 0xFFFFFFFFFFFFFFFF DUP2 GT ISZERO PUSH2 0x43F1 JUMPI PUSH2 0x43F0 PUSH2 0x4257 JUMP JUMPDEST JUMPDEST PUSH1 0x20 DUP4 ADD SWAP2 POP DUP4 PUSH1 0x20 DUP3 MUL DUP4 ADD GT ISZERO PUSH2 0x440D JUMPI PUSH2 0x440C PUSH2 0x425B JUMP JUMPDEST JUMPDEST SWAP3 POP SWAP3 SWAP1 POP JUMP JUMPDEST PUSH0 PUSH0 PUSH0 PUSH1 0x40 DUP5 DUP7 SUB SLT ISZERO PUSH2 0x442B JUMPI PUSH2 0x442A PUSH2 0x3DF2 JUMP JUMPDEST JUMPDEST PUSH0 PUSH2 0x4438 DUP7 DUP3 DUP8 ADD PUSH2 0x4009 JUMP JUMPDEST SWAP4 POP POP PUSH1 0x20 DUP5 ADD CALLDATALOAD PUSH8 0xFFFFFFFFFFFFFFFF DUP2 GT ISZERO PUSH2 0x4459 JUMPI PUSH2 0x4458 PUSH2 0x3DF6 JUMP JUMPDEST JUMPDEST PUSH2 0x4465 DUP7 DUP3 DUP8 ADD PUSH2 0x43BF JUMP JUMPDEST SWAP3 POP SWAP3 POP POP SWAP3 POP SWAP3 POP SWAP3 JUMP JUMPDEST PUSH0 PUSH0 PUSH1 0x20 DUP4 DUP6 SUB SLT ISZERO PUSH2 0x4487 JUMPI PUSH2 0x4486 PUSH2 0x3DF2 JUMP JUMPDEST JUMPDEST PUSH0 DUP4 ADD CALLDATALOAD PUSH8 0xFFFFFFFFFFFFFFFF DUP2 GT ISZERO PUSH2 0x44A4 JUMPI PUSH2 0x44A3 PUSH2 0x3DF6 JUMP JUMPDEST JUMPDEST PUSH2 0x44B0 DUP6 DUP3 DUP7 ADD PUSH2 0x425F JUMP JUMPDEST SWAP3 POP SWAP3 POP POP SWAP3 POP SWAP3 SWAP1 POP JUMP JUMPDEST PUSH0 PUSH8 0xFFFFFFFFFFFFFFFF DUP3 GT ISZERO PUSH2 0x44D6 JUMPI PUSH2 0x44D5 PUSH2 0x408B JUMP JUMPDEST JUMPDEST PUSH2 0x44DF DUP3 PUSH2 0x3ED5 JUMP JUMPDEST SWAP1 POP PUSH1 0x20 DUP2 ADD SWAP1 POP SWAP2 SWAP1 POP JUMP JUMPDEST PUSH0 PUSH2 0x44FE PUSH2 0x44F9 DUP5 PUSH2 0x44BC JUMP JUMPDEST PUSH2 0x40E9 JUMP JUMPDEST SWAP1 POP DUP3 DUP2 MSTORE PUSH1 0x20 DUP2 ADD DUP5 DUP5 DUP5 ADD GT ISZERO PUSH2 0x451A JUMPI PUSH2 0x4519 PUSH2 0x4087 JUMP JUMPDEST JUMPDEST PUSH2 0x4525 DUP5 DUP3 DUP6 PUSH2 0x4133 JUMP JUMPDEST POP SWAP4 SWAP3 POP POP POP JUMP JUMPDEST PUSH0 DUP3 PUSH1 0x1F DUP4 ADD SLT PUSH2 0x4541 JUMPI PUSH2 0x4540 PUSH2 0x4083 JUMP JUMPDEST JUMPDEST DUP2 CALLDATALOAD PUSH2 0x4551 DUP5 DUP3 PUSH1 0x20 DUP7 ADD PUSH2 0x44EC JUMP JUMPDEST SWAP2 POP POP SWAP3 SWAP2 POP POP JUMP JUMPDEST PUSH0 PUSH0 PUSH1 0x40 DUP4 DUP6 SUB SLT ISZERO PUSH2 0x4570 JUMPI PUSH2 0x456F PUSH2 0x3DF2 JUMP JUMPDEST JUMPDEST PUSH0 DUP4 ADD CALLDATALOAD PUSH8 0xFFFFFFFFFFFFFFFF DUP2 GT ISZERO PUSH2 0x458D JUMPI PUSH2 0x458C PUSH2 0x3DF6 JUMP JUMPDEST JUMPDEST PUSH2 0x4599 DUP6 DUP3 DUP7 ADD PUSH2 0x452D JUMP JUMPDEST SWAP3 POP POP PUSH1 0x20 DUP4 ADD CALLDATALOAD PUSH8 0xFFFFFFFFFFFFFFFF DUP2 GT ISZERO PUSH2 0x45BA JUMPI PUSH2 0x45B9 PUSH2 0x3DF6 JUMP JUMPDEST JUMPDEST PUSH2 0x45C6 DUP6 DUP3 DUP7 ADD PUSH2 0x452D JUMP JUMPDEST SWAP2 POP POP SWAP3 POP SWAP3 SWAP1 POP JUMP JUMPDEST PUSH0 PUSH1 0x20 DUP3 DUP5 SUB SLT ISZERO PUSH2 0x45E5 JUMPI PUSH2 0x45E4 PUSH2 0x3DF2 JUMP JUMPDEST JUMPDEST PUSH0 PUSH2 0x45F2 DUP5 DUP3 DUP6 ADD PUSH2 0x4009 JUMP JUMPDEST SWAP2 POP POP SWAP3 SWAP2 POP POP JUMP JUMPDEST PUSH2 0x4604 DUP2 PUSH2 0x3E7A JUMP JUMPDEST DUP2 EQ PUSH2 0x460E JUMPI PUSH0 PUSH0 REVERT JUMPDEST POP JUMP JUMPDEST PUSH0 DUP2 CALLDATALOAD SWAP1 POP PUSH2 0x461F DUP2 PUSH2 0x45FB JUMP JUMPDEST SWAP3 SWAP2 POP POP JUMP JUMPDEST PUSH0 PUSH0 PUSH1 0x40 DUP4 DUP6 SUB SLT ISZERO PUSH2 0x463B JUMPI PUSH2 0x463A PUSH2 0x3DF2 JUMP JUMPDEST JUMPDEST PUSH0 PUSH2 0x4648 DUP6 DUP3 DUP7 ADD PUSH2 0x4009 JUMP JUMPDEST SWAP3 POP POP PUSH1 0x20 PUSH2 0x4659 DUP6 DUP3 DUP7 ADD PUSH2 0x4611 JUMP JUMPDEST SWAP2 POP POP SWAP3 POP SWAP3 SWAP1 POP JUMP JUMPDEST PUSH0 PUSH0 PUSH1 0x40 DUP4 DUP6 SUB SLT ISZERO PUSH2 0x4679 JUMPI PUSH2 0x4678 PUSH2 0x3DF2 JUMP JUMPDEST JUMPDEST PUSH0 PUSH2 0x4686 DUP6 DUP3 DUP7 ADD PUSH2 0x4009 JUMP JUMPDEST SWAP3 POP POP PUSH1 0x20 PUSH2 0x4697 DUP6 DUP3 DUP7 ADD PUSH2 0x4009 JUMP JUMPDEST SWAP2 POP POP SWAP3 POP SWAP3 SWAP1 POP JUMP JUMPDEST PUSH0 PUSH2 0x46B3 PUSH2 0x46AE DUP5 PUSH2 0x44BC JUMP JUMPDEST PUSH2 0x40E9 JUMP JUMPDEST SWAP1 POP DUP3 DUP2 MSTORE PUSH1 0x20 DUP2 ADD DUP5 DUP5 DUP5 ADD GT ISZERO PUSH2 0x46CF JUMPI PUSH2 0x46CE PUSH2 0x4087 JUMP JUMPDEST JUMPDEST PUSH2 0x46DA DUP5 DUP3 DUP6 PUSH2 0x3EC7 JUMP JUMPDEST POP SWAP4 SWAP3 POP POP POP JUMP JUMPDEST PUSH0 DUP3 PUSH1 0x1F DUP4 ADD SLT PUSH2 0x46F6 JUMPI PUSH2 0x46F5 PUSH2 0x4083 JUMP JUMPDEST JUMPDEST DUP2 MLOAD PUSH2 0x4706 DUP5 DUP3 PUSH1 0x20 DUP7 ADD PUSH2 0x46A1 JUMP JUMPDEST SWAP2 POP POP SWAP3 SWAP2 POP POP JUMP JUMPDEST PUSH0 PUSH1 0x20 DUP3 DUP5 SUB SLT ISZERO PUSH2 0x4724 JUMPI PUSH2 0x4723 PUSH2 0x3DF2 JUMP JUMPDEST JUMPDEST PUSH0 DUP3 ADD MLOAD PUSH8 0xFFFFFFFFFFFFFFFF DUP2 GT ISZERO PUSH2 0x4741 JUMPI PUSH2 0x4740 PUSH2 0x3DF6 JUMP JUMPDEST JUMPDEST PUSH2 0x474D DUP5 DUP3 DUP6 ADD PUSH2 0x46E2 JUMP JUMPDEST SWAP2 POP POP SWAP3 SWAP2 POP POP JUMP JUMPDEST PUSH2 0x475F DUP2 PUSH2 0x3F3D JUMP JUMPDEST DUP3 MSTORE POP POP JUMP JUMPDEST PUSH0 PUSH1 0x20 DUP3 ADD SWAP1 POP PUSH2 0x4778 PUSH0 DUP4 ADD DUP5 PUSH2 0x4756 JUMP JUMPDEST SWAP3 SWAP2 POP POP JUMP JUMPDEST PUSH0 PUSH0 REVERT JUMPDEST PUSH0 DUP2 MLOAD SWAP1 POP PUSH2 0x4790 DUP2 PUSH2 0x3FF3 JUMP JUMPDEST SWAP3 SWAP2 POP POP JUMP JUMPDEST PUSH0 PUSH1 0x20 DUP3 DUP5 SUB SLT ISZERO PUSH2 0x47AB JUMPI PUSH2 0x47AA PUSH2 0x477E JUMP JUMPDEST JUMPDEST PUSH2 0x47B5 PUSH1 0x20 PUSH2 0x40E9 JUMP JUMPDEST SWAP1 POP PUSH0 PUSH2 0x47C4 DUP5 DUP3 DUP6 ADD PUSH2 0x4782 JUMP JUMPDEST PUSH0 DUP4 ADD MSTORE POP SWAP3 SWAP2 POP POP JUMP JUMPDEST PUSH0 PUSH1 0x20 DUP3 DUP5 SUB SLT ISZERO PUSH2 0x47E4 JUMPI PUSH2 0x47E3 PUSH2 0x3DF2 JUMP JUMPDEST JUMPDEST PUSH0 PUSH2 0x47F1 DUP5 DUP3 DUP6 ADD PUSH2 0x4796 JUMP JUMPDEST SWAP2 POP POP SWAP3 SWAP2 POP POP JUMP JUMPDEST PUSH0 PUSH1 0x20 DUP3 DUP5 SUB SLT ISZERO PUSH2 0x480F JUMPI PUSH2 0x480E PUSH2 0x3DF2 JUMP JUMPDEST JUMPDEST PUSH0 PUSH2 0x481C DUP5 DUP3 DUP6 ADD PUSH2 0x4782 JUMP JUMPDEST SWAP2 POP POP SWAP3 SWAP2 POP POP JUMP JUMPDEST PUSH32 0x596F7520617265206E6F7420616E206F776E6572000000000000000000000000 PUSH0 DUP3 ADD MSTORE POP JUMP JUMPDEST PUSH0 PUSH2 0x4859 PUSH1 0x14 DUP4 PUSH2 0x3EB7 JUMP JUMPDEST SWAP2 POP PUSH2 0x4864 DUP3 PUSH2 0x4825 JUMP JUMPDEST PUSH1 0x20 DUP3 ADD SWAP1 POP SWAP2 SWAP1 POP JUMP JUMPDEST PUSH0 PUSH1 0x20 DUP3 ADD SWAP1 POP DUP2 DUP2 SUB PUSH0 DUP4 ADD MSTORE PUSH2 0x4886 DUP2 PUSH2 0x484D JUMP JUMPDEST SWAP1 POP SWAP2 SWAP1 POP JUMP JUMPDEST PUSH0 DUP2 MLOAD SWAP1 POP PUSH2 0x489B DUP2 PUSH2 0x3F46 JUMP JUMPDEST SWAP3 SWAP2 POP POP JUMP JUMPDEST PUSH0 PUSH1 0x20 DUP3 DUP5 SUB SLT ISZERO PUSH2 0x48B6 JUMPI PUSH2 0x48B5 PUSH2 0x3DF2 JUMP JUMPDEST JUMPDEST PUSH0 PUSH2 0x48C3 DUP5 DUP3 DUP6 ADD PUSH2 0x488D JUMP JUMPDEST SWAP2 POP POP SWAP3 SWAP2 POP POP JUMP JUMPDEST PUSH0 DUP2 SWAP1 POP SWAP3 SWAP2 POP POP JUMP JUMPDEST POP JUMP JUMPDEST PUSH0 PUSH2 0x48E4 PUSH0 DUP4 PUSH2 0x48CC JUMP JUMPDEST SWAP2 POP PUSH2 0x48EF DUP3 PUSH2 0x48D6 JUMP JUMPDEST PUSH0 DUP3 ADD SWAP1 POP SWAP2 SWAP1 POP JUMP JUMPDEST PUSH0 PUSH2 0x4903 DUP3 PUSH2 0x48D9 JUMP JUMPDEST SWAP2 POP DUP2 SWAP1 POP SWAP2 SWAP1 POP JUMP JUMPDEST PUSH32 0x5472616E73666572206661696C65642E00000000000000000000000000000000 PUSH0 DUP3 ADD MSTORE POP JUMP JUMPDEST PUSH0 PUSH2 0x4941 PUSH1 0x10 DUP4 PUSH2 0x3EB7 JUMP JUMPDEST SWAP2 POP PUSH2 0x494C DUP3 PUSH2 0x490D JUMP JUMPDEST PUSH1 0x20 DUP3 ADD SWAP1 POP SWAP2 SWAP1 POP JUMP JUMPDEST PUSH0 PUSH1 0x20 DUP3 ADD SWAP1 POP DUP2 DUP2 SUB PUSH0 DUP4 ADD MSTORE PUSH2 0x496E DUP2 PUSH2 0x4935 JUMP JUMPDEST SWAP1 POP SWAP2 SWAP1 POP JUMP JUMPDEST PUSH32 0x4572726F7220616C6C6F63202D2069642066726F6D2067656E65736973000000 PUSH0 DUP3 ADD MSTORE POP JUMP JUMPDEST PUSH0 PUSH2 0x49A9 PUSH1 0x1D DUP4 PUSH2 0x3EB7 JUMP JUMPDEST SWAP2 POP PUSH2 0x49B4 DUP3 PUSH2 0x4975 JUMP JUMPDEST PUSH1 0x20 DUP3 ADD SWAP1 POP SWAP2 SWAP1 POP JUMP JUMPDEST PUSH0 PUSH1 0x20 DUP3 ADD SWAP1 POP DUP2 DUP2 SUB PUSH0 DUP4 ADD MSTORE PUSH2 0x49D6 DUP2 PUSH2 0x499D JUMP JUMPDEST SWAP1 POP SWAP2 SWAP1 POP JUMP JUMPDEST PUSH32 0x45786365656420616C6C6F630000000000000000000000000000000000000000 PUSH0 DUP3 ADD MSTORE POP JUMP JUMPDEST PUSH0 PUSH2 0x4A11 PUSH1 0xC DUP4 PUSH2 0x3EB7 JUMP JUMPDEST SWAP2 POP PUSH2 0x4A1C DUP3 PUSH2 0x49DD JUMP JUMPDEST PUSH1 0x20 DUP3 ADD SWAP1 POP SWAP2 SWAP1 POP JUMP JUMPDEST PUSH0 PUSH1 0x20 DUP3 ADD SWAP1 POP DUP2 DUP2 SUB PUSH0 DUP4 ADD MSTORE PUSH2 0x4A3E DUP2 PUSH2 0x4A05 JUMP JUMPDEST SWAP1 POP SWAP2 SWAP1 POP JUMP JUMPDEST PUSH2 0x4A4E DUP2 PUSH2 0x3FBA JUMP JUMPDEST DUP3 MSTORE POP POP JUMP JUMPDEST PUSH0 PUSH1 0x20 DUP3 ADD SWAP1 POP PUSH2 0x4A67 PUSH0 DUP4 ADD DUP5 PUSH2 0x4A45 JUMP JUMPDEST SWAP3 SWAP2 POP POP JUMP JUMPDEST PUSH0 DUP2 MLOAD SWAP1 POP PUSH2 0x4A7B DUP2 PUSH2 0x45FB JUMP JUMPDEST SWAP3 SWAP2 POP POP JUMP JUMPDEST PUSH0 PUSH1 0x20 DUP3 DUP5 SUB SLT ISZERO PUSH2 0x4A96 JUMPI PUSH2 0x4A95 PUSH2 0x3DF2 JUMP JUMPDEST JUMPDEST PUSH0 PUSH2 0x4AA3 DUP5 DUP3 DUP6 ADD PUSH2 0x4A6D JUMP JUMPDEST SWAP2 POP POP SWAP3 SWAP2 POP POP JUMP JUMPDEST PUSH32 0x416C7265616479206D696E746564000000000000000000000000000000000000 PUSH0 DUP3 ADD MSTORE POP JUMP JUMPDEST PUSH0 PUSH2 0x4AE0 PUSH1 0xE DUP4 PUSH2 0x3EB7 JUMP JUMPDEST SWAP2 POP PUSH2 0x4AEB DUP3 PUSH2 0x4AAC JUMP JUMPDEST PUSH1 0x20 DUP3 ADD SWAP1 POP SWAP2 SWAP1 POP JUMP JUMPDEST PUSH0 PUSH1 0x20 DUP3 ADD SWAP1 POP DUP2 DUP2 SUB PUSH0 DUP4 ADD MSTORE PUSH2 0x4B0D DUP2 PUSH2 0x4AD4 JUMP JUMPDEST SWAP1 POP SWAP2 SWAP1 POP JUMP JUMPDEST PUSH32 0x4E6F74206D617463682070726963650000000000000000000000000000000000 PUSH0 DUP3 ADD MSTORE POP JUMP JUMPDEST PUSH0 PUSH2 0x4B48 PUSH1 0xF DUP4 PUSH2 0x3EB7 JUMP JUMPDEST SWAP2 POP PUSH2 0x4B53 DUP3 PUSH2 0x4B14 JUMP JUMPDEST PUSH1 0x20 DUP3 ADD SWAP1 POP SWAP2 SWAP1 POP JUMP JUMPDEST PUSH0 PUSH1 0x20 DUP3 ADD SWAP1 POP DUP2 DUP2 SUB PUSH0 DUP4 ADD MSTORE PUSH2 0x4B75 DUP2 PUSH2 0x4B3C JUMP JUMPDEST SWAP1 POP SWAP2 SWAP1 POP JUMP JUMPDEST PUSH0 DUP2 PUSH1 0x60 SHL SWAP1 POP SWAP2 SWAP1 POP JUMP JUMPDEST PUSH0 PUSH2 0x4B92 DUP3 PUSH2 0x4B7C JUMP JUMPDEST SWAP1 POP SWAP2 SWAP1 POP JUMP JUMPDEST PUSH0 PUSH2 0x4BA3 DUP3 PUSH2 0x4B88 JUMP JUMPDEST SWAP1 POP SWAP2 SWAP1 POP JUMP JUMPDEST PUSH2 0x4BBB PUSH2 0x4BB6 DUP3 PUSH2 0x3FBA JUMP JUMPDEST PUSH2 0x4B99 JUMP JUMPDEST DUP3 MSTORE POP POP JUMP JUMPDEST PUSH0 PUSH2 0x4BCC DUP3 DUP5 PUSH2 0x4BAA JUMP JUMPDEST PUSH1 0x14 DUP3 ADD SWAP2 POP DUP2 SWAP1 POP SWAP3 SWAP2 POP POP JUMP JUMPDEST PUSH0 DUP2 MLOAD SWAP1 POP PUSH2 0x4BE9 DUP2 PUSH2 0x436A JUMP JUMPDEST SWAP3 SWAP2 POP POP JUMP JUMPDEST PUSH0 PUSH1 0x20 DUP3 DUP5 SUB SLT ISZERO PUSH2 0x4C04 JUMPI PUSH2 0x4C03 PUSH2 0x3DF2 JUMP JUMPDEST JUMPDEST PUSH0 PUSH2 0x4C11 DUP5 DUP3 DUP6 ADD PUSH2 0x4BDB JUMP JUMPDEST SWAP2 POP POP SWAP3 SWAP2 POP POP JUMP JUMPDEST PUSH32 0x4E6F7420696E206D65726B6C6500000000000000000000000000000000000000 PUSH0 DUP3 ADD MSTORE POP JUMP JUMPDEST PUSH0 PUSH2 0x4C4E PUSH1 0xD DUP4 PUSH2 0x3EB7 JUMP JUMPDEST SWAP2 POP PUSH2 0x4C59 DUP3 PUSH2 0x4C1A JUMP JUMPDEST PUSH1 0x20 DUP3 ADD SWAP1 POP SWAP2 SWAP1 POP JUMP JUMPDEST PUSH0 PUSH1 0x20 DUP3 ADD SWAP1 POP DUP2 DUP2 SUB PUSH0 DUP4 ADD MSTORE PUSH2 0x4C7B DUP2 PUSH2 0x4C42 JUMP JUMPDEST SWAP1 POP SWAP2 SWAP1 POP JUMP JUMPDEST PUSH2 0x4C8B DUP2 PUSH2 0x3E7A JUMP JUMPDEST DUP3 MSTORE POP POP JUMP JUMPDEST PUSH0 PUSH1 0x40 DUP3 ADD SWAP1 POP PUSH2 0x4CA4 PUSH0 DUP4 ADD DUP6 PUSH2 0x4A45 JUMP JUMPDEST PUSH2 0x4CB1 PUSH1 0x20 DUP4 ADD DUP5 PUSH2 0x4C82 JUMP JUMPDEST SWAP4 SWAP3 POP POP POP JUMP JUMPDEST PUSH2 0x4CC1 DUP2 PUSH2 0x4361 JUMP JUMPDEST DUP3 MSTORE POP POP JUMP JUMPDEST PUSH0 PUSH1 0x20 DUP3 ADD SWAP1 POP PUSH2 0x4CDA PUSH0 DUP4 ADD DUP5 PUSH2 0x4CB8 JUMP JUMPDEST SWAP3 SWAP2 POP POP JUMP JUMPDEST PUSH0 PUSH1 0x40 DUP3 ADD SWAP1 POP PUSH2 0x4CF3 PUSH0 DUP4 ADD DUP6 PUSH2 0x4A45 JUMP JUMPDEST PUSH2 0x4D00 PUSH1 0x20 DUP4 ADD DUP5 PUSH2 0x4756 JUMP JUMPDEST SWAP4 SWAP3 POP POP POP JUMP JUMPDEST PUSH0 DUP3 DUP3 MSTORE PUSH1 0x20 DUP3 ADD SWAP1 POP SWAP3 SWAP2 POP POP JUMP JUMPDEST PUSH0 PUSH2 0x4D22 DUP4 DUP6 PUSH2 0x4D07 JUMP JUMPDEST SWAP4 POP PUSH2 0x4D2F DUP4 DUP6 DUP5 PUSH2 0x4133 JUMP JUMPDEST PUSH2 0x4D38 DUP4 PUSH2 0x3ED5 JUMP JUMPDEST DUP5 ADD SWAP1 POP SWAP4 SWAP3 POP POP POP JUMP JUMPDEST PUSH0 PUSH1 0x20 DUP3 ADD SWAP1 POP DUP2 DUP2 SUB PUSH0 DUP4 ADD MSTORE PUSH2 0x4D5C DUP2 DUP5 DUP7 PUSH2 0x4D17 JUMP JUMPDEST SWAP1 POP SWAP4 SWAP3 POP POP POP JUMP JUMPDEST PUSH0 PUSH1 0x60 DUP3 ADD SWAP1 POP PUSH2 0x4D78 PUSH0 DUP4 ADD DUP7 PUSH2 0x4A45 JUMP JUMPDEST PUSH2 0x4D85 PUSH1 0x20 DUP4 ADD DUP6 PUSH2 0x4A45 JUMP JUMPDEST PUSH2 0x4D92 PUSH1 0x40 DUP4 ADD DUP5 PUSH2 0x4C82 JUMP JUMPDEST SWAP5 SWAP4 POP POP POP POP JUMP JUMPDEST PUSH0 DUP2 SWAP1 POP SWAP3 SWAP2 POP POP JUMP JUMPDEST PUSH0 PUSH2 0x4DAE DUP3 PUSH2 0x3EAD JUMP JUMPDEST PUSH2 0x4DB8 DUP2 DUP6 PUSH2 0x4D9A JUMP JUMPDEST SWAP4 POP PUSH2 0x4DC8 DUP2 DUP6 PUSH1 0x20 DUP7 ADD PUSH2 0x3EC7 JUMP JUMPDEST DUP1 DUP5 ADD SWAP2 POP POP SWAP3 SWAP2 POP POP JUMP JUMPDEST PUSH0 PUSH2 0x4DDF DUP3 DUP6 PUSH2 0x4DA4 JUMP JUMPDEST SWAP2 POP PUSH2 0x4DEB DUP3 DUP5 PUSH2 0x4DA4 JUMP JUMPDEST SWAP2 POP DUP2 SWAP1 POP SWAP4 SWAP3 POP POP POP JUMP JUMPDEST PUSH0 PUSH1 0x40 DUP3 ADD SWAP1 POP PUSH2 0x4E0A PUSH0 DUP4 ADD DUP6 PUSH2 0x4A45 JUMP JUMPDEST PUSH2 0x4E17 PUSH1 0x20 DUP4 ADD DUP5 PUSH2 0x4A45 JUMP JUMPDEST SWAP4 SWAP3 POP POP POP JUMP JUMPDEST PUSH32 0x4E487B7100000000000000000000000000000000000000000000000000000000 PUSH0 MSTORE PUSH1 0x11 PUSH1 0x4 MSTORE PUSH1 0x24 PUSH0 REVERT JUMPDEST PUSH0 PUSH2 0x4E55 DUP3 PUSH2 0x3F3D JUMP JUMPDEST SWAP2 POP PUSH0 DUP3 SUB PUSH2 0x4E67 JUMPI PUSH2 0x4E66 PUSH2 0x4E1E JUMP JUMPDEST JUMPDEST PUSH1 0x1 DUP3 SUB SWAP1 POP SWAP2 SWAP1 POP JUMP JUMPDEST PUSH0 PUSH1 0x40 DUP3 ADD SWAP1 POP PUSH2 0x4E85 PUSH0 DUP4 ADD DUP6 PUSH2 0x4756 JUMP JUMPDEST PUSH2 0x4E92 PUSH1 0x20 DUP4 ADD DUP5 PUSH2 0x4A45 JUMP JUMPDEST SWAP4 SWAP3 POP POP POP JUMP JUMPDEST PUSH0 PUSH2 0x4EA3 DUP3 PUSH2 0x3EAD JUMP JUMPDEST PUSH2 0x4EAD DUP2 DUP6 PUSH2 0x4D07 JUMP JUMPDEST SWAP4 POP PUSH2 0x4EBD DUP2 DUP6 PUSH1 0x20 DUP7 ADD PUSH2 0x3EC7 JUMP JUMPDEST PUSH2 0x4EC6 DUP2 PUSH2 0x3ED5 JUMP JUMPDEST DUP5 ADD SWAP2 POP POP SWAP3 SWAP2 POP POP JUMP JUMPDEST PUSH0 PUSH1 0x40 DUP3 ADD SWAP1 POP DUP2 DUP2 SUB PUSH0 DUP4 ADD MSTORE PUSH2 0x4EE9 DUP2 DUP6 PUSH2 0x4E99 JUMP JUMPDEST SWAP1 POP PUSH2 0x4EF8 PUSH1 0x20 DUP4 ADD DUP5 PUSH2 0x4756 JUMP JUMPDEST SWAP4 SWAP3 POP POP POP JUMP JUMPDEST PUSH0 PUSH1 0x40 DUP3 ADD SWAP1 POP PUSH2 0x4F12 PUSH0 DUP4 ADD DUP6 PUSH2 0x4756 JUMP JUMPDEST PUSH2 0x4F1F PUSH1 0x20 DUP4 ADD DUP5 PUSH2 0x4756 JUMP JUMPDEST SWAP4 SWAP3 POP POP POP JUMP JUMPDEST PUSH32 0x5265656E7472616E637947756172643A207265656E7472616E742063616C6C00 PUSH0 DUP3 ADD MSTORE POP JUMP JUMPDEST PUSH0 PUSH2 0x4F5A PUSH1 0x1F DUP4 PUSH2 0x3EB7 JUMP JUMPDEST SWAP2 POP PUSH2 0x4F65 DUP3 PUSH2 0x4F26 JUMP JUMPDEST PUSH1 0x20 DUP3 ADD SWAP1 POP SWAP2 SWAP1 POP JUMP JUMPDEST PUSH0 PUSH1 0x20 DUP3 ADD SWAP1 POP DUP2 DUP2 SUB PUSH0 DUP4 ADD MSTORE PUSH2 0x4F87 DUP2 PUSH2 0x4F4E JUMP JUMPDEST SWAP1 POP SWAP2 SWAP1 POP JUMP JUMPDEST PUSH32 0x4552433732314D657461646174613A2055524920717565727920666F72206E6F PUSH0 DUP3 ADD MSTORE PUSH32 0x6E6578697374656E7420746F6B656E0000000000000000000000000000000000 PUSH1 0x20 DUP3 ADD MSTORE POP JUMP JUMPDEST PUSH0 PUSH2 0x4FE8 PUSH1 0x2F DUP4 PUSH2 0x3EB7 JUMP JUMPDEST SWAP2 POP PUSH2 0x4FF3 DUP3 PUSH2 0x4F8E JUMP JUMPDEST PUSH1 0x40 DUP3 ADD SWAP1 POP SWAP2 SWAP1 POP JUMP JUMPDEST PUSH0 PUSH1 0x20 DUP3 ADD SWAP1 POP DUP2 DUP2 SUB PUSH0 DUP4 ADD MSTORE PUSH2 0x5015 DUP2 PUSH2 0x4FDC JUMP JUMPDEST SWAP1 POP SWAP2 SWAP1 POP JUMP JUMPDEST PUSH32 0x2E6A736F6E000000000000000000000000000000000000000000000000000000 PUSH0 DUP3 ADD MSTORE POP JUMP JUMPDEST PUSH0 PUSH2 0x5050 PUSH1 0x5 DUP4 PUSH2 0x4D9A JUMP JUMPDEST SWAP2 POP PUSH2 0x505B DUP3 PUSH2 0x501C JUMP JUMPDEST PUSH1 0x5 DUP3 ADD SWAP1 POP SWAP2 SWAP1 POP JUMP JUMPDEST PUSH0 PUSH2 0x5071 DUP3 DUP6 PUSH2 0x4DA4 JUMP JUMPDEST SWAP2 POP PUSH2 0x507D DUP3 DUP5 PUSH2 0x4DA4 JUMP JUMPDEST SWAP2 POP PUSH2 0x5088 DUP3 PUSH2 0x5044 JUMP JUMPDEST SWAP2 POP DUP2 SWAP1 POP SWAP4 SWAP3 POP POP POP JUMP JUMPDEST PUSH32 0x68747470733A2F2F697066732E737765622E72752F69706E732F736F756C6D61 PUSH0 DUP3 ADD MSTORE PUSH32 0x74652E706172746E6572732F4C6567656E646172792F6A736F6E2F0000000000 PUSH1 0x20 DUP3 ADD MSTORE POP JUMP JUMPDEST PUSH0 PUSH2 0x50EE PUSH1 0x3B DUP4 PUSH2 0x4D07 JUMP JUMPDEST SWAP2 POP PUSH2 0x50F9 DUP3 PUSH2 0x5094 JUMP JUMPDEST PUSH1 0x40 DUP3 ADD SWAP1 POP SWAP2 SWAP1 POP JUMP JUMPDEST PUSH0 PUSH1 0x20 DUP3 ADD SWAP1 POP DUP2 DUP2 SUB PUSH0 DUP4 ADD MSTORE PUSH2 0x511B DUP2 PUSH2 0x50E2 JUMP JUMPDEST SWAP1 POP SWAP2 SWAP1 POP JUMP JUMPDEST PUSH32 0x68747470733A2F2F697066732E737765622E72752F69706E732F736F756C6D61 PUSH0 DUP3 ADD MSTORE PUSH32 0x74652E706172746E6572732F4C6567656E646172792F6A736F6E2F313230302E PUSH1 0x20 DUP3 ADD MSTORE PUSH32 0x6A736F6E00000000000000000000000000000000000000000000000000000000 PUSH1 0x40 DUP3 ADD MSTORE POP JUMP JUMPDEST PUSH0 PUSH2 0x51A2 PUSH1 0x44 DUP4 PUSH2 0x4D07 JUMP JUMPDEST SWAP2 POP PUSH2 0x51AD DUP3 PUSH2 0x5122 JUMP JUMPDEST PUSH1 0x60 DUP3 ADD SWAP1 POP SWAP2 SWAP1 POP JUMP JUMPDEST PUSH0 PUSH1 0x20 DUP3 ADD SWAP1 POP DUP2 DUP2 SUB PUSH0 DUP4 ADD MSTORE PUSH2 0x51CF DUP2 PUSH2 0x5196 JUMP JUMPDEST SWAP1 POP SWAP2 SWAP1 POP JUMP JUMPDEST PUSH0 DUP2 SWAP1 POP SWAP2 SWAP1 POP JUMP JUMPDEST PUSH0 DUP2 PUSH0 SHL SWAP1 POP SWAP2 SWAP1 POP JUMP JUMPDEST PUSH0 PUSH2 0x5204 PUSH2 0x51FF PUSH2 0x51FA DUP5 PUSH2 0x51D6 JUMP JUMPDEST PUSH2 0x51DF JUMP JUMPDEST PUSH2 0x4361 JUMP JUMPDEST SWAP1 POP SWAP2 SWAP1 POP JUMP JUMPDEST PUSH2 0x5214 DUP2 PUSH2 0x51EA JUMP JUMPDEST DUP3 MSTORE POP POP JUMP JUMPDEST PUSH0 PUSH1 0x20 DUP3 ADD SWAP1 POP PUSH2 0x522D PUSH0 DUP4 ADD DUP5 PUSH2 0x520B JUMP JUMPDEST SWAP3 SWAP2 POP POP JUMP JUMPDEST PUSH0 DUP2 SWAP1 POP SWAP2 SWAP1 POP JUMP JUMPDEST PUSH0 DUP2 SWAP1 POP SWAP2 SWAP1 POP JUMP JUMPDEST PUSH0 PUSH2 0x525F PUSH2 0x525A PUSH2 0x5255 DUP5 PUSH2 0x5233 JUMP JUMPDEST PUSH2 0x523C JUMP JUMPDEST PUSH2 0x3F3D JUMP JUMPDEST SWAP1 POP SWAP2 SWAP1 POP JUMP JUMPDEST PUSH2 0x526F DUP2 PUSH2 0x5245 JUMP JUMPDEST DUP3 MSTORE POP POP JUMP JUMPDEST PUSH0 PUSH1 0x20 DUP3 ADD SWAP1 POP PUSH2 0x5288 PUSH0 DUP4 ADD DUP5 PUSH2 0x5266 JUMP JUMPDEST SWAP3 SWAP2 POP POP JUMP JUMPDEST PUSH0 PUSH1 0x20 DUP3 ADD SWAP1 POP DUP2 DUP2 SUB PUSH0 DUP4 ADD MSTORE PUSH2 0x52A6 DUP2 DUP5 PUSH2 0x4E99 JUMP JUMPDEST SWAP1 POP SWAP3 SWAP2 POP POP JUMP JUMPDEST PUSH0 DUP2 SWAP1 POP SWAP2 SWAP1 POP JUMP JUMPDEST PUSH0 PUSH2 0x52D1 PUSH2 0x52CC PUSH2 0x52C7 DUP5 PUSH2 0x52AE JUMP JUMPDEST PUSH2 0x523C JUMP JUMPDEST PUSH2 0x3F3D JUMP JUMPDEST SWAP1 POP SWAP2 SWAP1 POP JUMP JUMPDEST PUSH2 0x52E1 DUP2 PUSH2 0x52B7 JUMP JUMPDEST DUP3 MSTORE POP POP JUMP JUMPDEST PUSH0 PUSH1 0x20 DUP3 ADD SWAP1 POP PUSH2 0x52FA PUSH0 DUP4 ADD DUP5 PUSH2 0x52D8 JUMP JUMPDEST SWAP3 SWAP2 POP POP JUMP JUMPDEST PUSH0 DUP2 MLOAD SWAP1 POP SWAP2 SWAP1 POP JUMP JUMPDEST PUSH0 DUP3 DUP3 MSTORE PUSH1 0x20 DUP3 ADD SWAP1 POP SWAP3 SWAP2 POP POP JUMP JUMPDEST PUSH0 PUSH2 0x5324 DUP3 PUSH2 0x5300 JUMP JUMPDEST PUSH2 0x532E DUP2 DUP6 PUSH2 0x530A JUMP JUMPDEST SWAP4 POP PUSH2 0x533E DUP2 DUP6 PUSH1 0x20 DUP7 ADD PUSH2 0x3EC7 JUMP JUMPDEST PUSH2 0x5347 DUP2 PUSH2 0x3ED5 JUMP JUMPDEST DUP5 ADD SWAP2 POP POP SWAP3 SWAP2 POP POP JUMP JUMPDEST PUSH0 PUSH1 0x80 DUP3 ADD SWAP1 POP PUSH2 0x5365 PUSH0 DUP4 ADD DUP8 PUSH2 0x3FCB JUMP JUMPDEST PUSH2 0x5372 PUSH1 0x20 DUP4 ADD DUP7 PUSH2 0x3FCB JUMP JUMPDEST PUSH2 0x537F PUSH1 0x40 DUP4 ADD DUP6 PUSH2 0x405B JUMP JUMPDEST DUP2 DUP2 SUB PUSH1 0x60 DUP4 ADD MSTORE PUSH2 0x5391 DUP2 DUP5 PUSH2 0x531A JUMP JUMPDEST SWAP1 POP SWAP6 SWAP5 POP POP POP POP POP JUMP JUMPDEST PUSH0 DUP2 MLOAD SWAP1 POP PUSH2 0x53AA DUP2 PUSH2 0x3E25 JUMP JUMPDEST SWAP3 SWAP2 POP POP JUMP JUMPDEST PUSH0 PUSH1 0x20 DUP3 DUP5 SUB SLT ISZERO PUSH2 0x53C5 JUMPI PUSH2 0x53C4 PUSH2 0x3DF2 JUMP JUMPDEST JUMPDEST PUSH0 PUSH2 0x53D2 DUP5 DUP3 DUP6 ADD PUSH2 0x539C JUMP JUMPDEST SWAP2 POP POP SWAP3 SWAP2 POP POP JUMP JUMPDEST PUSH0 PUSH1 0x60 DUP3 ADD SWAP1 POP PUSH2 0x53EE PUSH0 DUP4 ADD DUP7 PUSH2 0x4A45 JUMP JUMPDEST PUSH2 0x53FB PUSH1 0x20 DUP4 ADD DUP6 PUSH2 0x4756 JUMP JUMPDEST PUSH2 0x5408 PUSH1 0x40 DUP4 ADD DUP5 PUSH2 0x4756 JUMP JUMPDEST SWAP5 SWAP4 POP POP POP POP JUMP JUMPDEST PUSH0 PUSH2 0x541A DUP3 PUSH2 0x3F3D JUMP JUMPDEST SWAP2 POP PUSH2 0x5425 DUP4 PUSH2 0x3F3D JUMP JUMPDEST SWAP3 POP DUP3 DUP3 SUB SWAP1 POP DUP2 DUP2 GT ISZERO PUSH2 0x543D JUMPI PUSH2 0x543C PUSH2 0x4E1E JUMP JUMPDEST JUMPDEST SWAP3 SWAP2 POP POP JUMP JUMPDEST PUSH32 0x4E487B7100000000000000000000000000000000000000000000000000000000 PUSH0 MSTORE PUSH1 0x32 PUSH1 0x4 MSTORE PUSH1 0x24 PUSH0 REVERT JUMPDEST PUSH32 0x4E487B7100000000000000000000000000000000000000000000000000000000 PUSH0 MSTORE PUSH1 0x12 PUSH1 0x4 MSTORE PUSH1 0x24 PUSH0 REVERT INVALID LOG2 PUSH5 0x6970667358 0x22 SLT KECCAK256 SWAP15 CALLDATASIZE 0x29 JUMPDEST 0xC9 NOT 0xCD 0x25 0xDF GT SWAP1 0xA9 0xC0 PUSH32 0x6CB932F15A88249242B5D9F86AE43BBEAE0864736F6C634300081E0033000000 "
		},
		"gasEstimates": {
			"creation": {
				"codeDepositCost": "4343000",
				"executionCost": "infinite",
				"totalCost": "infinite"
			},
			"external": {
				"MAX_SUPPLY_EPIC()": "436",
				"MAX_SUPPLY_GENESIS()": "371",
				"MAX_SUPPLY_LEGEND()": "436",
				"MODULE_NAME()": "infinite",
				"MODULE_VERSION()": "infinite",
				"approve(address,uint256)": "infinite",
				"balanceOf(address)": "infinite",
				"balanceOfId(address,uint256)": "infinite",
				"baseURI()": "infinite",
				"exists(uint256)": "infinite",
				"fee()": "infinite",
				"getApproved(uint256)": "infinite",
				"init(string,string)": "infinite",
				"isApprovedForAll(address,address)": "infinite",
				"legendaryMint(address,bytes32[])": "infinite",
				"name()": "infinite",
				"nextTokenId()": "infinite",
				"onERC721Received(address,address,uint256,bytes)": "infinite",
				"ownerOf(uint256)": "infinite",
				"safeTransferFrom(address,address,uint256)": "infinite",
				"safeTransferFrom(address,address,uint256,bytes)": "infinite",
				"setApprovalForAll(address,bool)": "infinite",
				"setBaseURI(string)": "infinite",
				"setDefaultTokenURI(string)": "infinite",
				"setEpiclistRoot(bytes32)": "infinite",
				"setFee(uint256)": "infinite",
				"setGenesislistRoot(bytes32)": "infinite",
				"setLegendlistRoot(bytes32)": "infinite",
				"setTokenURI(uint256,string)": "infinite",
				"supportsInterface(bytes4)": "759",
				"symbol()": "infinite",
				"tokenURI(uint256)": "infinite",
				"totalSupply()": "infinite",
				"transferFrom(address,address,uint256)": "infinite",
				"withdraw()": "infinite"
			},
			"internal": {
				"_addTokenToAllTokensEnumeration(uint256)": "infinite",
				"_addTokenToOwnerEnumeration(address,uint256)": "infinite",
				"_init(string memory,string memory)": "infinite",
				"_removeTokenFromAllTokensEnumeration(uint256)": "infinite",
				"_removeTokenFromOwnerEnumeration(address,uint256)": "infinite",
				"_setTokenURI(uint256,string memory)": "infinite",
				"_startTokenId()": "22",
				"_tokenURI(uint256)": "infinite",
				"_updateOwner(address,address,uint256)": "infinite"
			}
		},
		"methodIdentifiers": {
			"MAX_SUPPLY_EPIC()": "90507c78",
			"MAX_SUPPLY_GENESIS()": "0c142a43",
			"MAX_SUPPLY_LEGEND()": "ad5b1662",
			"MODULE_NAME()": "9b865b43",
			"MODULE_VERSION()": "81ed9808",
			"approve(address,uint256)": "095ea7b3",
			"balanceOf(address)": "70a08231",
			"balanceOfId(address,uint256)": "4bca8aa3",
			"baseURI()": "6c0360eb",
			"exists(uint256)": "4f558e79",
			"fee()": "ddca3f43",
			"getApproved(uint256)": "081812fc",
			"init(string,string)": "7029144c",
			"isApprovedForAll(address,address)": "e985e9c5",
			"legendaryMint(address,bytes32[])": "46bc0dca",
			"name()": "06fdde03",
			"nextTokenId()": "75794a3c",
			"onERC721Received(address,address,uint256,bytes)": "150b7a02",
			"ownerOf(uint256)": "6352211e",
			"safeTransferFrom(address,address,uint256)": "42842e0e",
			"safeTransferFrom(address,address,uint256,bytes)": "b88d4fde",
			"setApprovalForAll(address,bool)": "a22cb465",
			"setBaseURI(string)": "55f804b3",
			"setDefaultTokenURI(string)": "a125c824",
			"setEpiclistRoot(bytes32)": "49e0f980",
			"setFee(uint256)": "69fe0e2d",
			"setGenesislistRoot(bytes32)": "3bb04b1f",
			"setLegendlistRoot(bytes32)": "dfbf2e67",
			"setTokenURI(uint256,string)": "162094c4",
			"supportsInterface(bytes4)": "01ffc9a7",
			"symbol()": "95d89b41",
			"tokenURI(uint256)": "c87b56dd",
			"totalSupply()": "18160ddd",
			"transferFrom(address,address,uint256)": "23b872dd",
			"withdraw()": "3ccfd60b"
		}
	},
	"abi": [
		{
			"inputs": [
				{
					"internalType": "string",
					"name": "name",
					"type": "string"
				},
				{
					"internalType": "string",
					"name": "symbol",
					"type": "string"
				}
			],
			"stateMutability": "nonpayable",
			"type": "constructor"
		},
		{
			"inputs": [],
			"name": "ApprovalCallerNotOwnerNorApproved",
			"type": "error"
		},
		{
			"inputs": [],
			"name": "ApprovalQueryForNonexistentToken",
			"type": "error"
		},
		{
			"inputs": [],
			"name": "BalanceQueryForZeroAddress",
			"type": "error"
		},
		{
			"inputs": [],
			"name": "MintERC2309QuantityExceedsLimit",
			"type": "error"
		},
		{
			"inputs": [],
			"name": "MintToZeroAddress",
			"type": "error"
		},
		{
			"inputs": [],
			"name": "MintZeroQuantity",
			"type": "error"
		},
		{
			"inputs": [],
			"name": "NotCompatibleWithSpotMints",
			"type": "error"
		},
		{
			"inputs": [],
			"name": "OwnerQueryForNonexistentToken",
			"type": "error"
		},
		{
			"inputs": [],
			"name": "OwnershipNotInitializedForExtraData",
			"type": "error"
		},
		{
			"inputs": [],
			"name": "SequentialMintExceedsLimit",
			"type": "error"
		},
		{
			"inputs": [],
			"name": "SequentialUpToTooSmall",
			"type": "error"
		},
		{
			"inputs": [],
			"name": "SpotMintTokenIdTooSmall",
			"type": "error"
		},
		{
			"inputs": [],
			"name": "TokenAlreadyExists",
			"type": "error"
		},
		{
			"inputs": [],
			"name": "TransferCallerNotOwnerNorApproved",
			"type": "error"
		},
		{
			"inputs": [],
			"name": "TransferFromIncorrectOwner",
			"type": "error"
		},
		{
			"inputs": [],
			"name": "TransferToNonERC721ReceiverImplementer",
			"type": "error"
		},
		{
			"inputs": [],
			"name": "TransferToZeroAddress",
			"type": "error"
		},
		{
			"inputs": [],
			"name": "URIQueryForNonexistentToken",
			"type": "error"
		},
		{
			"anonymous": false,
			"inputs": [
				{
					"indexed": true,
					"internalType": "address",
					"name": "owner",
					"type": "address"
				},
				{
					"indexed": true,
					"internalType": "address",
					"name": "approved",
					"type": "address"
				},
				{
					"indexed": true,
					"internalType": "uint256",
					"name": "tokenId",
					"type": "uint256"
				}
			],
			"name": "Approval",
			"type": "event"
		},
		{
			"anonymous": false,
			"inputs": [
				{
					"indexed": true,
					"internalType": "address",
					"name": "owner",
					"type": "address"
				},
				{
					"indexed": true,
					"internalType": "address",
					"name": "operator",
					"type": "address"
				},
				{
					"indexed": false,
					"internalType": "bool",
					"name": "approved",
					"type": "bool"
				}
			],
			"name": "ApprovalForAll",
			"type": "event"
		},
		{
			"anonymous": false,
			"inputs": [
				{
					"indexed": true,
					"internalType": "uint256",
					"name": "fromTokenId",
					"type": "uint256"
				},
				{
					"indexed": false,
					"internalType": "uint256",
					"name": "toTokenId",
					"type": "uint256"
				},
				{
					"indexed": true,
					"internalType": "address",
					"name": "from",
					"type": "address"
				},
				{
					"indexed": true,
					"internalType": "address",
					"name": "to",
					"type": "address"
				}
			],
			"name": "ConsecutiveTransfer",
			"type": "event"
		},
		{
			"anonymous": false,
			"inputs": [
				{
					"indexed": false,
					"internalType": "uint256",
					"name": "_tokenId",
					"type": "uint256"
				}
			],
			"name": "MetadataUpdate",
			"type": "event"
		},
		{
			"anonymous": false,
			"inputs": [
				{
					"indexed": true,
					"internalType": "address",
					"name": "from",
					"type": "address"
				},
				{
					"indexed": true,
					"internalType": "address",
					"name": "to",
					"type": "address"
				},
				{
					"indexed": true,
					"internalType": "uint256",
					"name": "tokenId",
					"type": "uint256"
				}
			],
			"name": "Transfer",
			"type": "event"
		},
		{
			"inputs": [],
			"name": "MAX_SUPPLY_EPIC",
			"outputs": [
				{
					"internalType": "uint256",
					"name": "",
					"type": "uint256"
				}
			],
			"stateMutability": "view",
			"type": "function"
		},
		{
			"inputs": [],
			"name": "MAX_SUPPLY_GENESIS",
			"outputs": [
				{
					"internalType": "uint256",
					"name": "",
					"type": "uint256"
				}
			],
			"stateMutability": "view",
			"type": "function"
		},
		{
			"inputs": [],
			"name": "MAX_SUPPLY_LEGEND",
			"outputs": [
				{
					"internalType": "uint256",
					"name": "",
					"type": "uint256"
				}
			],
			"stateMutability": "view",
			"type": "function"
		},
		{
			"inputs": [],
			"name": "MODULE_NAME",
			"outputs": [
				{
					"internalType": "string",
					"name": "",
					"type": "string"
				}
			],
			"stateMutability": "view",
			"type": "function"
		},
		{
			"inputs": [],
			"name": "MODULE_VERSION",
			"outputs": [
				{
					"internalType": "uint256",
					"name": "",
					"type": "uint256"
				}
			],
			"stateMutability": "view",
			"type": "function"
		},
		{
			"inputs": [
				{
					"internalType": "address",
					"name": "to",
					"type": "address"
				},
				{
					"internalType": "uint256",
					"name": "tokenId",
					"type": "uint256"
				}
			],
			"name": "approve",
			"outputs": [],
			"stateMutability": "payable",
			"type": "function"
		},
		{
			"inputs": [
				{
					"internalType": "address",
					"name": "owner",
					"type": "address"
				}
			],
			"name": "balanceOf",
			"outputs": [
				{
					"internalType": "uint256",
					"name": "",
					"type": "uint256"
				}
			],
			"stateMutability": "view",
			"type": "function"
		},
		{
			"inputs": [
				{
					"internalType": "address",
					"name": "owner",
					"type": "address"
				},
				{
					"internalType": "uint256",
					"name": "index",
					"type": "uint256"
				}
			],
			"name": "balanceOfId",
			"outputs": [
				{
					"internalType": "uint256",
					"name": "",
					"type": "uint256"
				}
			],
			"stateMutability": "view",
			"type": "function"
		},
		{
			"inputs": [],
			"name": "baseURI",
			"outputs": [
				{
					"internalType": "string",
					"name": "",
					"type": "string"
				}
			],
			"stateMutability": "view",
			"type": "function"
		},
		{
			"inputs": [
				{
					"internalType": "uint256",
					"name": "tokenId",
					"type": "uint256"
				}
			],
			"name": "exists",
			"outputs": [
				{
					"internalType": "bool",
					"name": "result",
					"type": "bool"
				}
			],
			"stateMutability": "view",
			"type": "function"
		},
		{
			"inputs": [],
			"name": "fee",
			"outputs": [
				{
					"internalType": "uint256",
					"name": "",
					"type": "uint256"
				}
			],
			"stateMutability": "view",
			"type": "function"
		},
		{
			"inputs": [
				{
					"internalType": "uint256",
					"name": "tokenId",
					"type": "uint256"
				}
			],
			"name": "getApproved",
			"outputs": [
				{
					"internalType": "address",
					"name": "",
					"type": "address"
				}
			],
			"stateMutability": "view",
			"type": "function"
		},
		{
			"inputs": [
				{
					"internalType": "string",
					"name": "name",
					"type": "string"
				},
				{
					"internalType": "string",
					"name": "symbol",
					"type": "string"
				}
			],
			"name": "init",
			"outputs": [],
			"stateMutability": "nonpayable",
			"type": "function"
		},
		{
			"inputs": [
				{
					"internalType": "address",
					"name": "owner",
					"type": "address"
				},
				{
					"internalType": "address",
					"name": "operator",
					"type": "address"
				}
			],
			"name": "isApprovedForAll",
			"outputs": [
				{
					"internalType": "bool",
					"name": "",
					"type": "bool"
				}
			],
			"stateMutability": "view",
			"type": "function"
		},
		{
			"inputs": [
				{
					"internalType": "address",
					"name": "to",
					"type": "address"
				},
				{
					"internalType": "bytes32[]",
					"name": "proof",
					"type": "bytes32[]"
				}
			],
			"name": "legendaryMint",
			"outputs": [],
			"stateMutability": "payable",
			"type": "function"
		},
		{
			"inputs": [],
			"name": "name",
			"outputs": [
				{
					"internalType": "string",
					"name": "",
					"type": "string"
				}
			],
			"stateMutability": "view",
			"type": "function"
		},
		{
			"inputs": [],
			"name": "nextTokenId",
			"outputs": [
				{
					"internalType": "uint256",
					"name": "",
					"type": "uint256"
				}
			],
			"stateMutability": "view",
			"type": "function"
		},
		{
			"inputs": [
				{
					"internalType": "address",
					"name": "operator",
					"type": "address"
				},
				{
					"internalType": "address",
					"name": "from",
					"type": "address"
				},
				{
					"internalType": "uint256",
					"name": "tokenId",
					"type": "uint256"
				},
				{
					"internalType": "bytes",
					"name": "data",
					"type": "bytes"
				}
			],
			"name": "onERC721Received",
			"outputs": [
				{
					"internalType": "bytes4",
					"name": "",
					"type": "bytes4"
				}
			],
			"stateMutability": "nonpayable",
			"type": "function"
		},
		{
			"inputs": [
				{
					"internalType": "uint256",
					"name": "tokenId",
					"type": "uint256"
				}
			],
			"name": "ownerOf",
			"outputs": [
				{
					"internalType": "address",
					"name": "",
					"type": "address"
				}
			],
			"stateMutability": "view",
			"type": "function"
		},
		{
			"inputs": [
				{
					"internalType": "address",
					"name": "from",
					"type": "address"
				},
				{
					"internalType": "address",
					"name": "to",
					"type": "address"
				},
				{
					"internalType": "uint256",
					"name": "tokenId",
					"type": "uint256"
				}
			],
			"name": "safeTransferFrom",
			"outputs": [],
			"stateMutability": "payable",
			"type": "function"
		},
		{
			"inputs": [
				{
					"internalType": "address",
					"name": "from",
					"type": "address"
				},
				{
					"internalType": "address",
					"name": "to",
					"type": "address"
				},
				{
					"internalType": "uint256",
					"name": "tokenId",
					"type": "uint256"
				},
				{
					"internalType": "bytes",
					"name": "_data",
					"type": "bytes"
				}
			],
			"name": "safeTransferFrom",
			"outputs": [],
			"stateMutability": "payable",
			"type": "function"
		},
		{
			"inputs": [
				{
					"internalType": "address",
					"name": "operator",
					"type": "address"
				},
				{
					"internalType": "bool",
					"name": "approved",
					"type": "bool"
				}
			],
			"name": "setApprovalForAll",
			"outputs": [],
			"stateMutability": "nonpayable",
			"type": "function"
		},
		{
			"inputs": [
				{
					"internalType": "string",
					"name": "URI",
					"type": "string"
				}
			],
			"name": "setBaseURI",
			"outputs": [],
			"stateMutability": "nonpayable",
			"type": "function"
		},
		{
			"inputs": [
				{
					"internalType": "string",
					"name": "URI",
					"type": "string"
				}
			],
			"name": "setDefaultTokenURI",
			"outputs": [],
			"stateMutability": "nonpayable",
			"type": "function"
		},
		{
			"inputs": [
				{
					"internalType": "bytes32",
					"name": "merkleroot",
					"type": "bytes32"
				}
			],
			"name": "setEpiclistRoot",
			"outputs": [],
			"stateMutability": "nonpayable",
			"type": "function"
		},
		{
			"inputs": [
				{
					"internalType": "uint256",
					"name": "_fee",
					"type": "uint256"
				}
			],
			"name": "setFee",
			"outputs": [],
			"stateMutability": "nonpayable",
			"type": "function"
		},
		{
			"inputs": [
				{
					"internalType": "bytes32",
					"name": "merkleroot",
					"type": "bytes32"
				}
			],
			"name": "setGenesislistRoot",
			"outputs": [],
			"stateMutability": "nonpayable",
			"type": "function"
		},
		{
			"inputs": [
				{
					"internalType": "bytes32",
					"name": "merkleroot",
					"type": "bytes32"
				}
			],
			"name": "setLegendlistRoot",
			"outputs": [],
			"stateMutability": "nonpayable",
			"type": "function"
		},
		{
			"inputs": [
				{
					"internalType": "uint256",
					"name": "tokenId",
					"type": "uint256"
				},
				{
					"internalType": "string",
					"name": "URI",
					"type": "string"
				}
			],
			"name": "setTokenURI",
			"outputs": [],
			"stateMutability": "nonpayable",
			"type": "function"
		},
		{
			"inputs": [
				{
					"internalType": "bytes4",
					"name": "interfaceId",
					"type": "bytes4"
				}
			],
			"name": "supportsInterface",
			"outputs": [
				{
					"internalType": "bool",
					"name": "",
					"type": "bool"
				}
			],
			"stateMutability": "view",
			"type": "function"
		},
		{
			"inputs": [],
			"name": "symbol",
			"outputs": [
				{
					"internalType": "string",
					"name": "",
					"type": "string"
				}
			],
			"stateMutability": "view",
			"type": "function"
		},
		{
			"inputs": [
				{
					"internalType": "uint256",
					"name": "tokenId",
					"type": "uint256"
				}
			],
			"name": "tokenURI",
			"outputs": [
				{
					"internalType": "string",
					"name": "",
					"type": "string"
				}
			],
			"stateMutability": "view",
			"type": "function"
		},
		{
			"inputs": [],
			"name": "totalSupply",
			"outputs": [
				{
					"internalType": "uint256",
					"name": "result",
					"type": "uint256"
				}
			],
			"stateMutability": "view",
			"type": "function"
		},
		{
			"inputs": [
				{
					"internalType": "address",
					"name": "from",
					"type": "address"
				},
				{
					"internalType": "address",
					"name": "to",
					"type": "address"
				},
				{
					"internalType": "uint256",
					"name": "tokenId",
					"type": "uint256"
				}
			],
			"name": "transferFrom",
			"outputs": [],
			"stateMutability": "payable",
			"type": "function"
		},
		{
			"inputs": [],
			"name": "withdraw",
			"outputs": [],
			"stateMutability": "nonpayable",
			"type": "function"
		}
	]
}